{
	"contracts/230508/1_Struct.sol": {
		"Struct": {
			"abi": [
				{
					"inputs": [
						{
							"internalType": "uint256",
							"name": "_n",
							"type": "uint256"
						}
					],
					"name": "getBrithday",
					"outputs": [
						{
							"internalType": "uint256",
							"name": "",
							"type": "uint256"
						}
					],
					"stateMutability": "view",
					"type": "function"
				},
				{
					"inputs": [
						{
							"internalType": "uint256",
							"name": "_n",
							"type": "uint256"
						}
					],
					"name": "getStudent",
					"outputs": [
						{
							"components": [
								{
									"internalType": "string",
									"name": "name",
									"type": "string"
								},
								{
									"internalType": "uint256",
									"name": "birthday",
									"type": "uint256"
								},
								{
									"internalType": "uint256",
									"name": "number",
									"type": "uint256"
								}
							],
							"internalType": "struct Struct.Student",
							"name": "",
							"type": "tuple"
						}
					],
					"stateMutability": "view",
					"type": "function"
				},
				{
					"inputs": [
						{
							"internalType": "string",
							"name": "_name",
							"type": "string"
						},
						{
							"internalType": "uint256",
							"name": "_birthday",
							"type": "uint256"
						},
						{
							"internalType": "uint256",
							"name": "_number",
							"type": "uint256"
						}
					],
					"name": "pushStudent",
					"outputs": [],
					"stateMutability": "nonpayable",
					"type": "function"
				}
			],
			"devdoc": {
				"kind": "dev",
				"methods": {},
				"version": 1
			},
			"evm": {
				"assembly": "    /* \"contracts/230508/1_Struct.sol\":67:653  contract Struct {... */\n  mstore(0x40, 0x80)\n  callvalue\n  dup1\n  iszero\n  tag_1\n  jumpi\n  0x00\n  dup1\n  revert\ntag_1:\n  pop\n  dataSize(sub_0)\n  dup1\n  dataOffset(sub_0)\n  0x00\n  codecopy\n  0x00\n  return\nstop\n\nsub_0: assembly {\n        /* \"contracts/230508/1_Struct.sol\":67:653  contract Struct {... */\n      mstore(0x40, 0x80)\n      callvalue\n      dup1\n      iszero\n      tag_1\n      jumpi\n      0x00\n      dup1\n      revert\n    tag_1:\n      pop\n      jumpi(tag_2, lt(calldatasize, 0x04))\n      shr(0xe0, calldataload(0x00))\n      dup1\n      0x18878137\n      eq\n      tag_3\n      jumpi\n      dup1\n      0x562ca543\n      eq\n      tag_4\n      jumpi\n      dup1\n      0x642f9163\n      eq\n      tag_5\n      jumpi\n    tag_2:\n      0x00\n      dup1\n      revert\n        /* \"contracts/230508/1_Struct.sol\":492:642  function getBrithday(uint _n) public view returns(uint) {... */\n    tag_3:\n      tag_6\n      0x04\n      dup1\n      calldatasize\n      sub\n      dup2\n      add\n      swap1\n      tag_7\n      swap2\n      swap1\n      tag_8\n      jump\t// in\n    tag_7:\n      tag_9\n      jump\t// in\n    tag_6:\n      mload(0x40)\n      tag_10\n      swap2\n      swap1\n      tag_11\n      jump\t// in\n    tag_10:\n      mload(0x40)\n      dup1\n      swap2\n      sub\n      swap1\n      return\n        /* \"contracts/230508/1_Struct.sol\":222:369  function pushStudent(string memory _name, uint _birthday, uint _number) public {... */\n    tag_4:\n      tag_12\n      0x04\n      dup1\n      calldatasize\n      sub\n      dup2\n      add\n      swap1\n      tag_13\n      swap2\n      swap1\n      tag_14\n      jump\t// in\n    tag_13:\n      tag_15\n      jump\t// in\n    tag_12:\n      stop\n        /* \"contracts/230508/1_Struct.sol\":377:484  function getStudent(uint _n) public view returns(Student memory) {... */\n    tag_5:\n      tag_16\n      0x04\n      dup1\n      calldatasize\n      sub\n      dup2\n      add\n      swap1\n      tag_17\n      swap2\n      swap1\n      tag_8\n      jump\t// in\n    tag_17:\n      tag_18\n      jump\t// in\n    tag_16:\n      mload(0x40)\n      tag_19\n      swap2\n      swap1\n      tag_20\n      jump\t// in\n    tag_19:\n      mload(0x40)\n      dup1\n      swap2\n      sub\n      swap1\n      return\n        /* \"contracts/230508/1_Struct.sol\":492:642  function getBrithday(uint _n) public view returns(uint) {... */\n    tag_9:\n        /* \"contracts/230508/1_Struct.sol\":542:546  uint */\n      0x00\n        /* \"contracts/230508/1_Struct.sol\":566:574  students */\n      dup1\n        /* \"contracts/230508/1_Struct.sol\":580:581  1 */\n      0x01\n        /* \"contracts/230508/1_Struct.sol\":575:577  _n */\n      dup4\n        /* \"contracts/230508/1_Struct.sol\":575:581  _n - 1 */\n      tag_22\n      swap2\n      swap1\n      tag_23\n      jump\t// in\n    tag_22:\n        /* \"contracts/230508/1_Struct.sol\":566:582  students[_n - 1] */\n      dup2\n      sload\n      dup2\n      lt\n      tag_24\n      jumpi\n      tag_25\n      tag_26\n      jump\t// in\n    tag_25:\n    tag_24:\n      swap1\n      0x00\n      mstore\n      keccak256(0x00, 0x20)\n      swap1\n      0x03\n      mul\n      add\n        /* \"contracts/230508/1_Struct.sol\":566:591  students[_n - 1].birthday */\n      0x01\n      add\n      sload\n        /* \"contracts/230508/1_Struct.sol\":559:591  return students[_n - 1].birthday */\n      swap1\n      pop\n        /* \"contracts/230508/1_Struct.sol\":492:642  function getBrithday(uint _n) public view returns(uint) {... */\n      swap2\n      swap1\n      pop\n      jump\t// out\n        /* \"contracts/230508/1_Struct.sol\":222:369  function pushStudent(string memory _name, uint _birthday, uint _number) public {... */\n    tag_15:\n        /* \"contracts/230508/1_Struct.sol\":312:320  students */\n      0x00\n        /* \"contracts/230508/1_Struct.sol\":326:360  Student(_name, _birthday, _number) */\n      mload(0x40)\n      dup1\n      0x60\n      add\n      0x40\n      mstore\n      dup1\n        /* \"contracts/230508/1_Struct.sol\":334:339  _name */\n      dup6\n        /* \"contracts/230508/1_Struct.sol\":326:360  Student(_name, _birthday, _number) */\n      dup2\n      mstore\n      0x20\n      add\n        /* \"contracts/230508/1_Struct.sol\":341:350  _birthday */\n      dup5\n        /* \"contracts/230508/1_Struct.sol\":326:360  Student(_name, _birthday, _number) */\n      dup2\n      mstore\n      0x20\n      add\n        /* \"contracts/230508/1_Struct.sol\":352:359  _number */\n      dup4\n        /* \"contracts/230508/1_Struct.sol\":326:360  Student(_name, _birthday, _number) */\n      dup2\n      mstore\n      pop\n        /* \"contracts/230508/1_Struct.sol\":312:361  students.push(Student(_name, _birthday, _number)) */\n      swap1\n      dup1\n      0x01\n      dup2\n      sload\n      add\n      dup1\n      dup3\n      sstore\n      dup1\n      swap2\n      pop\n      pop\n      0x01\n      swap1\n      sub\n      swap1\n      0x00\n      mstore\n      keccak256(0x00, 0x20)\n      swap1\n      0x03\n      mul\n      add\n      0x00\n      swap1\n      swap2\n      swap1\n      swap2\n      swap1\n      swap2\n      pop\n      0x00\n      dup3\n      add\n      mload\n      dup2\n      0x00\n      add\n      swap1\n      dup2\n      tag_30\n      swap2\n      swap1\n      tag_31\n      jump\t// in\n    tag_30:\n      pop\n      0x20\n      dup3\n      add\n      mload\n      dup2\n      0x01\n      add\n      sstore\n      0x40\n      dup3\n      add\n      mload\n      dup2\n      0x02\n      add\n      sstore\n      pop\n      pop\n        /* \"contracts/230508/1_Struct.sol\":222:369  function pushStudent(string memory _name, uint _birthday, uint _number) public {... */\n      pop\n      pop\n      pop\n      jump\t// out\n        /* \"contracts/230508/1_Struct.sol\":377:484  function getStudent(uint _n) public view returns(Student memory) {... */\n    tag_18:\n        /* \"contracts/230508/1_Struct.sol\":426:440  Student memory */\n      tag_32\n      tag_33\n      jump\t// in\n    tag_32:\n        /* \"contracts/230508/1_Struct.sol\":460:468  students */\n      0x00\n        /* \"contracts/230508/1_Struct.sol\":474:475  1 */\n      0x01\n        /* \"contracts/230508/1_Struct.sol\":469:471  _n */\n      dup4\n        /* \"contracts/230508/1_Struct.sol\":469:475  _n - 1 */\n      tag_35\n      swap2\n      swap1\n      tag_23\n      jump\t// in\n    tag_35:\n        /* \"contracts/230508/1_Struct.sol\":460:476  students[_n - 1] */\n      dup2\n      sload\n      dup2\n      lt\n      tag_36\n      jumpi\n      tag_37\n      tag_26\n      jump\t// in\n    tag_37:\n    tag_36:\n      swap1\n      0x00\n      mstore\n      keccak256(0x00, 0x20)\n      swap1\n      0x03\n      mul\n      add\n        /* \"contracts/230508/1_Struct.sol\":453:476  return students[_n - 1] */\n      mload(0x40)\n      dup1\n      0x60\n      add\n      0x40\n      mstore\n      swap1\n      dup2\n      0x00\n      dup3\n      add\n      dup1\n      sload\n      tag_39\n      swap1\n      tag_40\n      jump\t// in\n    tag_39:\n      dup1\n      0x1f\n      add\n      0x20\n      dup1\n      swap2\n      div\n      mul\n      0x20\n      add\n      mload(0x40)\n      swap1\n      dup2\n      add\n      0x40\n      mstore\n      dup1\n      swap3\n      swap2\n      swap1\n      dup2\n      dup2\n      mstore\n      0x20\n      add\n      dup3\n      dup1\n      sload\n      tag_41\n      swap1\n      tag_40\n      jump\t// in\n    tag_41:\n      dup1\n      iszero\n      tag_42\n      jumpi\n      dup1\n      0x1f\n      lt\n      tag_43\n      jumpi\n      0x0100\n      dup1\n      dup4\n      sload\n      div\n      mul\n      dup4\n      mstore\n      swap2\n      0x20\n      add\n      swap2\n      jump(tag_42)\n    tag_43:\n      dup3\n      add\n      swap2\n      swap1\n      0x00\n      mstore\n      keccak256(0x00, 0x20)\n      swap1\n    tag_44:\n      dup2\n      sload\n      dup2\n      mstore\n      swap1\n      0x01\n      add\n      swap1\n      0x20\n      add\n      dup1\n      dup4\n      gt\n      tag_44\n      jumpi\n      dup3\n      swap1\n      sub\n      0x1f\n      and\n      dup3\n      add\n      swap2\n    tag_42:\n      pop\n      pop\n      pop\n      pop\n      pop\n      dup2\n      mstore\n      0x20\n      add\n      0x01\n      dup3\n      add\n      sload\n      dup2\n      mstore\n      0x20\n      add\n      0x02\n      dup3\n      add\n      sload\n      dup2\n      mstore\n      pop\n      pop\n      swap1\n      pop\n        /* \"contracts/230508/1_Struct.sol\":377:484  function getStudent(uint _n) public view returns(Student memory) {... */\n      swap2\n      swap1\n      pop\n      jump\t// out\n    tag_33:\n      mload(0x40)\n      dup1\n      0x60\n      add\n      0x40\n      mstore\n      dup1\n      0x60\n      dup2\n      mstore\n      0x20\n      add\n      0x00\n      dup2\n      mstore\n      0x20\n      add\n      0x00\n      dup2\n      mstore\n      pop\n      swap1\n      jump\t// out\n        /* \"#utility.yul\":7:82   */\n    tag_45:\n        /* \"#utility.yul\":40:46   */\n      0x00\n        /* \"#utility.yul\":73:75   */\n      0x40\n        /* \"#utility.yul\":67:76   */\n      mload\n        /* \"#utility.yul\":57:76   */\n      swap1\n      pop\n        /* \"#utility.yul\":7:82   */\n      swap1\n      jump\t// out\n        /* \"#utility.yul\":88:205   */\n    tag_46:\n        /* \"#utility.yul\":197:198   */\n      0x00\n        /* \"#utility.yul\":194:195   */\n      dup1\n        /* \"#utility.yul\":187:199   */\n      revert\n        /* \"#utility.yul\":211:328   */\n    tag_47:\n        /* \"#utility.yul\":320:321   */\n      0x00\n        /* \"#utility.yul\":317:318   */\n      dup1\n        /* \"#utility.yul\":310:322   */\n      revert\n        /* \"#utility.yul\":334:411   */\n    tag_48:\n        /* \"#utility.yul\":371:378   */\n      0x00\n        /* \"#utility.yul\":400:405   */\n      dup2\n        /* \"#utility.yul\":389:405   */\n      swap1\n      pop\n        /* \"#utility.yul\":334:411   */\n      swap2\n      swap1\n      pop\n      jump\t// out\n        /* \"#utility.yul\":417:539   */\n    tag_49:\n        /* \"#utility.yul\":490:514   */\n      tag_91\n        /* \"#utility.yul\":508:513   */\n      dup2\n        /* \"#utility.yul\":490:514   */\n      tag_48\n      jump\t// in\n    tag_91:\n        /* \"#utility.yul\":483:488   */\n      dup2\n        /* \"#utility.yul\":480:515   */\n      eq\n        /* \"#utility.yul\":470:533   */\n      tag_92\n      jumpi\n        /* \"#utility.yul\":529:530   */\n      0x00\n        /* \"#utility.yul\":526:527   */\n      dup1\n        /* \"#utility.yul\":519:531   */\n      revert\n        /* \"#utility.yul\":470:533   */\n    tag_92:\n        /* \"#utility.yul\":417:539   */\n      pop\n      jump\t// out\n        /* \"#utility.yul\":545:684   */\n    tag_50:\n        /* \"#utility.yul\":591:596   */\n      0x00\n        /* \"#utility.yul\":629:635   */\n      dup2\n        /* \"#utility.yul\":616:636   */\n      calldataload\n        /* \"#utility.yul\":607:636   */\n      swap1\n      pop\n        /* \"#utility.yul\":645:678   */\n      tag_94\n        /* \"#utility.yul\":672:677   */\n      dup2\n        /* \"#utility.yul\":645:678   */\n      tag_49\n      jump\t// in\n    tag_94:\n        /* \"#utility.yul\":545:684   */\n      swap3\n      swap2\n      pop\n      pop\n      jump\t// out\n        /* \"#utility.yul\":690:1019   */\n    tag_8:\n        /* \"#utility.yul\":749:755   */\n      0x00\n        /* \"#utility.yul\":798:800   */\n      0x20\n        /* \"#utility.yul\":786:795   */\n      dup3\n        /* \"#utility.yul\":777:784   */\n      dup5\n        /* \"#utility.yul\":773:796   */\n      sub\n        /* \"#utility.yul\":769:801   */\n      slt\n        /* \"#utility.yul\":766:885   */\n      iszero\n      tag_96\n      jumpi\n        /* \"#utility.yul\":804:883   */\n      tag_97\n      tag_46\n      jump\t// in\n    tag_97:\n        /* \"#utility.yul\":766:885   */\n    tag_96:\n        /* \"#utility.yul\":924:925   */\n      0x00\n        /* \"#utility.yul\":949:1002   */\n      tag_98\n        /* \"#utility.yul\":994:1001   */\n      dup5\n        /* \"#utility.yul\":985:991   */\n      dup3\n        /* \"#utility.yul\":974:983   */\n      dup6\n        /* \"#utility.yul\":970:992   */\n      add\n        /* \"#utility.yul\":949:1002   */\n      tag_50\n      jump\t// in\n    tag_98:\n        /* \"#utility.yul\":939:1002   */\n      swap2\n      pop\n        /* \"#utility.yul\":895:1012   */\n      pop\n        /* \"#utility.yul\":690:1019   */\n      swap3\n      swap2\n      pop\n      pop\n      jump\t// out\n        /* \"#utility.yul\":1025:1143   */\n    tag_51:\n        /* \"#utility.yul\":1112:1136   */\n      tag_100\n        /* \"#utility.yul\":1130:1135   */\n      dup2\n        /* \"#utility.yul\":1112:1136   */\n      tag_48\n      jump\t// in\n    tag_100:\n        /* \"#utility.yul\":1107:1110   */\n      dup3\n        /* \"#utility.yul\":1100:1137   */\n      mstore\n        /* \"#utility.yul\":1025:1143   */\n      pop\n      pop\n      jump\t// out\n        /* \"#utility.yul\":1149:1371   */\n    tag_11:\n        /* \"#utility.yul\":1242:1246   */\n      0x00\n        /* \"#utility.yul\":1280:1282   */\n      0x20\n        /* \"#utility.yul\":1269:1278   */\n      dup3\n        /* \"#utility.yul\":1265:1283   */\n      add\n        /* \"#utility.yul\":1257:1283   */\n      swap1\n      pop\n        /* \"#utility.yul\":1293:1364   */\n      tag_102\n        /* \"#utility.yul\":1361:1362   */\n      0x00\n        /* \"#utility.yul\":1350:1359   */\n      dup4\n        /* \"#utility.yul\":1346:1363   */\n      add\n        /* \"#utility.yul\":1337:1343   */\n      dup5\n        /* \"#utility.yul\":1293:1364   */\n      tag_51\n      jump\t// in\n    tag_102:\n        /* \"#utility.yul\":1149:1371   */\n      swap3\n      swap2\n      pop\n      pop\n      jump\t// out\n        /* \"#utility.yul\":1377:1494   */\n    tag_52:\n        /* \"#utility.yul\":1486:1487   */\n      0x00\n        /* \"#utility.yul\":1483:1484   */\n      dup1\n        /* \"#utility.yul\":1476:1488   */\n      revert\n        /* \"#utility.yul\":1500:1617   */\n    tag_53:\n        /* \"#utility.yul\":1609:1610   */\n      0x00\n        /* \"#utility.yul\":1606:1607   */\n      dup1\n        /* \"#utility.yul\":1599:1611   */\n      revert\n        /* \"#utility.yul\":1623:1725   */\n    tag_54:\n        /* \"#utility.yul\":1664:1670   */\n      0x00\n        /* \"#utility.yul\":1715:1717   */\n      0x1f\n        /* \"#utility.yul\":1711:1718   */\n      not\n        /* \"#utility.yul\":1706:1708   */\n      0x1f\n        /* \"#utility.yul\":1699:1704   */\n      dup4\n        /* \"#utility.yul\":1695:1709   */\n      add\n        /* \"#utility.yul\":1691:1719   */\n      and\n        /* \"#utility.yul\":1681:1719   */\n      swap1\n      pop\n        /* \"#utility.yul\":1623:1725   */\n      swap2\n      swap1\n      pop\n      jump\t// out\n        /* \"#utility.yul\":1731:1911   */\n    tag_55:\n        /* \"#utility.yul\":1779:1856   */\n      0x4e487b7100000000000000000000000000000000000000000000000000000000\n        /* \"#utility.yul\":1776:1777   */\n      0x00\n        /* \"#utility.yul\":1769:1857   */\n      mstore\n        /* \"#utility.yul\":1876:1880   */\n      0x41\n        /* \"#utility.yul\":1873:1874   */\n      0x04\n        /* \"#utility.yul\":1866:1881   */\n      mstore\n        /* \"#utility.yul\":1900:1904   */\n      0x24\n        /* \"#utility.yul\":1897:1898   */\n      0x00\n        /* \"#utility.yul\":1890:1905   */\n      revert\n        /* \"#utility.yul\":1917:2198   */\n    tag_56:\n        /* \"#utility.yul\":2000:2027   */\n      tag_108\n        /* \"#utility.yul\":2022:2026   */\n      dup3\n        /* \"#utility.yul\":2000:2027   */\n      tag_54\n      jump\t// in\n    tag_108:\n        /* \"#utility.yul\":1992:1998   */\n      dup2\n        /* \"#utility.yul\":1988:2028   */\n      add\n        /* \"#utility.yul\":2130:2136   */\n      dup2\n        /* \"#utility.yul\":2118:2128   */\n      dup2\n        /* \"#utility.yul\":2115:2137   */\n      lt\n        /* \"#utility.yul\":2094:2112   */\n      0xffffffffffffffff\n        /* \"#utility.yul\":2082:2092   */\n      dup3\n        /* \"#utility.yul\":2079:2113   */\n      gt\n        /* \"#utility.yul\":2076:2138   */\n      or\n        /* \"#utility.yul\":2073:2161   */\n      iszero\n      tag_109\n      jumpi\n        /* \"#utility.yul\":2141:2159   */\n      tag_110\n      tag_55\n      jump\t// in\n    tag_110:\n        /* \"#utility.yul\":2073:2161   */\n    tag_109:\n        /* \"#utility.yul\":2181:2191   */\n      dup1\n        /* \"#utility.yul\":2177:2179   */\n      0x40\n        /* \"#utility.yul\":2170:2192   */\n      mstore\n        /* \"#utility.yul\":1960:2198   */\n      pop\n        /* \"#utility.yul\":1917:2198   */\n      pop\n      pop\n      jump\t// out\n        /* \"#utility.yul\":2204:2333   */\n    tag_57:\n        /* \"#utility.yul\":2238:2244   */\n      0x00\n        /* \"#utility.yul\":2265:2285   */\n      tag_112\n      tag_45\n      jump\t// in\n    tag_112:\n        /* \"#utility.yul\":2255:2285   */\n      swap1\n      pop\n        /* \"#utility.yul\":2294:2327   */\n      tag_113\n        /* \"#utility.yul\":2322:2326   */\n      dup3\n        /* \"#utility.yul\":2314:2320   */\n      dup3\n        /* \"#utility.yul\":2294:2327   */\n      tag_56\n      jump\t// in\n    tag_113:\n        /* \"#utility.yul\":2204:2333   */\n      swap2\n      swap1\n      pop\n      jump\t// out\n        /* \"#utility.yul\":2339:2647   */\n    tag_58:\n        /* \"#utility.yul\":2401:2405   */\n      0x00\n        /* \"#utility.yul\":2491:2509   */\n      0xffffffffffffffff\n        /* \"#utility.yul\":2483:2489   */\n      dup3\n        /* \"#utility.yul\":2480:2510   */\n      gt\n        /* \"#utility.yul\":2477:2533   */\n      iszero\n      tag_115\n      jumpi\n        /* \"#utility.yul\":2513:2531   */\n      tag_116\n      tag_55\n      jump\t// in\n    tag_116:\n        /* \"#utility.yul\":2477:2533   */\n    tag_115:\n        /* \"#utility.yul\":2551:2580   */\n      tag_117\n        /* \"#utility.yul\":2573:2579   */\n      dup3\n        /* \"#utility.yul\":2551:2580   */\n      tag_54\n      jump\t// in\n    tag_117:\n        /* \"#utility.yul\":2543:2580   */\n      swap1\n      pop\n        /* \"#utility.yul\":2635:2639   */\n      0x20\n        /* \"#utility.yul\":2629:2633   */\n      dup2\n        /* \"#utility.yul\":2625:2640   */\n      add\n        /* \"#utility.yul\":2617:2640   */\n      swap1\n      pop\n        /* \"#utility.yul\":2339:2647   */\n      swap2\n      swap1\n      pop\n      jump\t// out\n        /* \"#utility.yul\":2653:2799   */\n    tag_59:\n        /* \"#utility.yul\":2750:2756   */\n      dup3\n        /* \"#utility.yul\":2745:2748   */\n      dup2\n        /* \"#utility.yul\":2740:2743   */\n      dup4\n        /* \"#utility.yul\":2727:2757   */\n      calldatacopy\n        /* \"#utility.yul\":2791:2792   */\n      0x00\n        /* \"#utility.yul\":2782:2788   */\n      dup4\n        /* \"#utility.yul\":2777:2780   */\n      dup4\n        /* \"#utility.yul\":2773:2789   */\n      add\n        /* \"#utility.yul\":2766:2793   */\n      mstore\n        /* \"#utility.yul\":2653:2799   */\n      pop\n      pop\n      pop\n      jump\t// out\n        /* \"#utility.yul\":2805:3230   */\n    tag_60:\n        /* \"#utility.yul\":2883:2888   */\n      0x00\n        /* \"#utility.yul\":2908:2974   */\n      tag_120\n        /* \"#utility.yul\":2924:2973   */\n      tag_121\n        /* \"#utility.yul\":2966:2972   */\n      dup5\n        /* \"#utility.yul\":2924:2973   */\n      tag_58\n      jump\t// in\n    tag_121:\n        /* \"#utility.yul\":2908:2974   */\n      tag_57\n      jump\t// in\n    tag_120:\n        /* \"#utility.yul\":2899:2974   */\n      swap1\n      pop\n        /* \"#utility.yul\":2997:3003   */\n      dup3\n        /* \"#utility.yul\":2990:2995   */\n      dup2\n        /* \"#utility.yul\":2983:3004   */\n      mstore\n        /* \"#utility.yul\":3035:3039   */\n      0x20\n        /* \"#utility.yul\":3028:3033   */\n      dup2\n        /* \"#utility.yul\":3024:3040   */\n      add\n        /* \"#utility.yul\":3073:3076   */\n      dup5\n        /* \"#utility.yul\":3064:3070   */\n      dup5\n        /* \"#utility.yul\":3059:3062   */\n      dup5\n        /* \"#utility.yul\":3055:3071   */\n      add\n        /* \"#utility.yul\":3052:3077   */\n      gt\n        /* \"#utility.yul\":3049:3161   */\n      iszero\n      tag_122\n      jumpi\n        /* \"#utility.yul\":3080:3159   */\n      tag_123\n      tag_53\n      jump\t// in\n    tag_123:\n        /* \"#utility.yul\":3049:3161   */\n    tag_122:\n        /* \"#utility.yul\":3170:3224   */\n      tag_124\n        /* \"#utility.yul\":3217:3223   */\n      dup5\n        /* \"#utility.yul\":3212:3215   */\n      dup3\n        /* \"#utility.yul\":3207:3210   */\n      dup6\n        /* \"#utility.yul\":3170:3224   */\n      tag_59\n      jump\t// in\n    tag_124:\n        /* \"#utility.yul\":2889:3230   */\n      pop\n        /* \"#utility.yul\":2805:3230   */\n      swap4\n      swap3\n      pop\n      pop\n      pop\n      jump\t// out\n        /* \"#utility.yul\":3250:3590   */\n    tag_61:\n        /* \"#utility.yul\":3306:3311   */\n      0x00\n        /* \"#utility.yul\":3355:3358   */\n      dup3\n        /* \"#utility.yul\":3348:3352   */\n      0x1f\n        /* \"#utility.yul\":3340:3346   */\n      dup4\n        /* \"#utility.yul\":3336:3353   */\n      add\n        /* \"#utility.yul\":3332:3359   */\n      slt\n        /* \"#utility.yul\":3322:3444   */\n      tag_126\n      jumpi\n        /* \"#utility.yul\":3363:3442   */\n      tag_127\n      tag_52\n      jump\t// in\n    tag_127:\n        /* \"#utility.yul\":3322:3444   */\n    tag_126:\n        /* \"#utility.yul\":3480:3486   */\n      dup2\n        /* \"#utility.yul\":3467:3487   */\n      calldataload\n        /* \"#utility.yul\":3505:3584   */\n      tag_128\n        /* \"#utility.yul\":3580:3583   */\n      dup5\n        /* \"#utility.yul\":3572:3578   */\n      dup3\n        /* \"#utility.yul\":3565:3569   */\n      0x20\n        /* \"#utility.yul\":3557:3563   */\n      dup7\n        /* \"#utility.yul\":3553:3570   */\n      add\n        /* \"#utility.yul\":3505:3584   */\n      tag_60\n      jump\t// in\n    tag_128:\n        /* \"#utility.yul\":3496:3584   */\n      swap2\n      pop\n        /* \"#utility.yul\":3312:3590   */\n      pop\n        /* \"#utility.yul\":3250:3590   */\n      swap3\n      swap2\n      pop\n      pop\n      jump\t// out\n        /* \"#utility.yul\":3596:4395   */\n    tag_14:\n        /* \"#utility.yul\":3683:3689   */\n      0x00\n        /* \"#utility.yul\":3691:3697   */\n      dup1\n        /* \"#utility.yul\":3699:3705   */\n      0x00\n        /* \"#utility.yul\":3748:3750   */\n      0x60\n        /* \"#utility.yul\":3736:3745   */\n      dup5\n        /* \"#utility.yul\":3727:3734   */\n      dup7\n        /* \"#utility.yul\":3723:3746   */\n      sub\n        /* \"#utility.yul\":3719:3751   */\n      slt\n        /* \"#utility.yul\":3716:3835   */\n      iszero\n      tag_130\n      jumpi\n        /* \"#utility.yul\":3754:3833   */\n      tag_131\n      tag_46\n      jump\t// in\n    tag_131:\n        /* \"#utility.yul\":3716:3835   */\n    tag_130:\n        /* \"#utility.yul\":3902:3903   */\n      0x00\n        /* \"#utility.yul\":3891:3900   */\n      dup5\n        /* \"#utility.yul\":3887:3904   */\n      add\n        /* \"#utility.yul\":3874:3905   */\n      calldataload\n        /* \"#utility.yul\":3932:3950   */\n      0xffffffffffffffff\n        /* \"#utility.yul\":3924:3930   */\n      dup2\n        /* \"#utility.yul\":3921:3951   */\n      gt\n        /* \"#utility.yul\":3918:4035   */\n      iszero\n      tag_132\n      jumpi\n        /* \"#utility.yul\":3954:4033   */\n      tag_133\n      tag_47\n      jump\t// in\n    tag_133:\n        /* \"#utility.yul\":3918:4035   */\n    tag_132:\n        /* \"#utility.yul\":4059:4122   */\n      tag_134\n        /* \"#utility.yul\":4114:4121   */\n      dup7\n        /* \"#utility.yul\":4105:4111   */\n      dup3\n        /* \"#utility.yul\":4094:4103   */\n      dup8\n        /* \"#utility.yul\":4090:4112   */\n      add\n        /* \"#utility.yul\":4059:4122   */\n      tag_61\n      jump\t// in\n    tag_134:\n        /* \"#utility.yul\":4049:4122   */\n      swap4\n      pop\n        /* \"#utility.yul\":3845:4132   */\n      pop\n        /* \"#utility.yul\":4171:4173   */\n      0x20\n        /* \"#utility.yul\":4197:4250   */\n      tag_135\n        /* \"#utility.yul\":4242:4249   */\n      dup7\n        /* \"#utility.yul\":4233:4239   */\n      dup3\n        /* \"#utility.yul\":4222:4231   */\n      dup8\n        /* \"#utility.yul\":4218:4240   */\n      add\n        /* \"#utility.yul\":4197:4250   */\n      tag_50\n      jump\t// in\n    tag_135:\n        /* \"#utility.yul\":4187:4250   */\n      swap3\n      pop\n        /* \"#utility.yul\":4142:4260   */\n      pop\n        /* \"#utility.yul\":4299:4301   */\n      0x40\n        /* \"#utility.yul\":4325:4378   */\n      tag_136\n        /* \"#utility.yul\":4370:4377   */\n      dup7\n        /* \"#utility.yul\":4361:4367   */\n      dup3\n        /* \"#utility.yul\":4350:4359   */\n      dup8\n        /* \"#utility.yul\":4346:4368   */\n      add\n        /* \"#utility.yul\":4325:4378   */\n      tag_50\n      jump\t// in\n    tag_136:\n        /* \"#utility.yul\":4315:4378   */\n      swap2\n      pop\n        /* \"#utility.yul\":4270:4388   */\n      pop\n        /* \"#utility.yul\":3596:4395   */\n      swap3\n      pop\n      swap3\n      pop\n      swap3\n      jump\t// out\n        /* \"#utility.yul\":4401:4500   */\n    tag_62:\n        /* \"#utility.yul\":4453:4459   */\n      0x00\n        /* \"#utility.yul\":4487:4492   */\n      dup2\n        /* \"#utility.yul\":4481:4493   */\n      mload\n        /* \"#utility.yul\":4471:4493   */\n      swap1\n      pop\n        /* \"#utility.yul\":4401:4500   */\n      swap2\n      swap1\n      pop\n      jump\t// out\n        /* \"#utility.yul\":4506:4665   */\n    tag_63:\n        /* \"#utility.yul\":4580:4591   */\n      0x00\n        /* \"#utility.yul\":4614:4620   */\n      dup3\n        /* \"#utility.yul\":4609:4612   */\n      dup3\n        /* \"#utility.yul\":4602:4621   */\n      mstore\n        /* \"#utility.yul\":4654:4658   */\n      0x20\n        /* \"#utility.yul\":4649:4652   */\n      dup3\n        /* \"#utility.yul\":4645:4659   */\n      add\n        /* \"#utility.yul\":4630:4659   */\n      swap1\n      pop\n        /* \"#utility.yul\":4506:4665   */\n      swap3\n      swap2\n      pop\n      pop\n      jump\t// out\n        /* \"#utility.yul\":4671:4917   */\n    tag_64:\n        /* \"#utility.yul\":4752:4753   */\n      0x00\n        /* \"#utility.yul\":4762:4875   */\n    tag_140:\n        /* \"#utility.yul\":4776:4782   */\n      dup4\n        /* \"#utility.yul\":4773:4774   */\n      dup2\n        /* \"#utility.yul\":4770:4783   */\n      lt\n        /* \"#utility.yul\":4762:4875   */\n      iszero\n      tag_142\n      jumpi\n        /* \"#utility.yul\":4861:4862   */\n      dup1\n        /* \"#utility.yul\":4856:4859   */\n      dup3\n        /* \"#utility.yul\":4852:4863   */\n      add\n        /* \"#utility.yul\":4846:4864   */\n      mload\n        /* \"#utility.yul\":4842:4843   */\n      dup2\n        /* \"#utility.yul\":4837:4840   */\n      dup5\n        /* \"#utility.yul\":4833:4844   */\n      add\n        /* \"#utility.yul\":4826:4865   */\n      mstore\n        /* \"#utility.yul\":4798:4800   */\n      0x20\n        /* \"#utility.yul\":4795:4796   */\n      dup2\n        /* \"#utility.yul\":4791:4801   */\n      add\n        /* \"#utility.yul\":4786:4801   */\n      swap1\n      pop\n        /* \"#utility.yul\":4762:4875   */\n      jump(tag_140)\n    tag_142:\n        /* \"#utility.yul\":4909:4910   */\n      0x00\n        /* \"#utility.yul\":4900:4906   */\n      dup5\n        /* \"#utility.yul\":4895:4898   */\n      dup5\n        /* \"#utility.yul\":4891:4907   */\n      add\n        /* \"#utility.yul\":4884:4911   */\n      mstore\n        /* \"#utility.yul\":4733:4917   */\n      pop\n        /* \"#utility.yul\":4671:4917   */\n      pop\n      pop\n      pop\n      jump\t// out\n        /* \"#utility.yul\":4923:5280   */\n    tag_65:\n        /* \"#utility.yul\":5001:5004   */\n      0x00\n        /* \"#utility.yul\":5029:5068   */\n      tag_144\n        /* \"#utility.yul\":5062:5067   */\n      dup3\n        /* \"#utility.yul\":5029:5068   */\n      tag_62\n      jump\t// in\n    tag_144:\n        /* \"#utility.yul\":5084:5145   */\n      tag_145\n        /* \"#utility.yul\":5138:5144   */\n      dup2\n        /* \"#utility.yul\":5133:5136   */\n      dup6\n        /* \"#utility.yul\":5084:5145   */\n      tag_63\n      jump\t// in\n    tag_145:\n        /* \"#utility.yul\":5077:5145   */\n      swap4\n      pop\n        /* \"#utility.yul\":5154:5219   */\n      tag_146\n        /* \"#utility.yul\":5212:5218   */\n      dup2\n        /* \"#utility.yul\":5207:5210   */\n      dup6\n        /* \"#utility.yul\":5200:5204   */\n      0x20\n        /* \"#utility.yul\":5193:5198   */\n      dup7\n        /* \"#utility.yul\":5189:5205   */\n      add\n        /* \"#utility.yul\":5154:5219   */\n      tag_64\n      jump\t// in\n    tag_146:\n        /* \"#utility.yul\":5244:5273   */\n      tag_147\n        /* \"#utility.yul\":5266:5272   */\n      dup2\n        /* \"#utility.yul\":5244:5273   */\n      tag_54\n      jump\t// in\n    tag_147:\n        /* \"#utility.yul\":5239:5242   */\n      dup5\n        /* \"#utility.yul\":5235:5274   */\n      add\n        /* \"#utility.yul\":5228:5274   */\n      swap2\n      pop\n        /* \"#utility.yul\":5005:5280   */\n      pop\n        /* \"#utility.yul\":4923:5280   */\n      swap3\n      swap2\n      pop\n      pop\n      jump\t// out\n        /* \"#utility.yul\":5286:5394   */\n    tag_66:\n        /* \"#utility.yul\":5363:5387   */\n      tag_149\n        /* \"#utility.yul\":5381:5386   */\n      dup2\n        /* \"#utility.yul\":5363:5387   */\n      tag_48\n      jump\t// in\n    tag_149:\n        /* \"#utility.yul\":5358:5361   */\n      dup3\n        /* \"#utility.yul\":5351:5388   */\n      mstore\n        /* \"#utility.yul\":5286:5394   */\n      pop\n      pop\n      jump\t// out\n        /* \"#utility.yul\":5454:6234   */\n    tag_67:\n        /* \"#utility.yul\":5567:5570   */\n      0x00\n        /* \"#utility.yul\":5603:5607   */\n      0x60\n        /* \"#utility.yul\":5598:5601   */\n      dup4\n        /* \"#utility.yul\":5594:5608   */\n      add\n        /* \"#utility.yul\":5690:5694   */\n      0x00\n        /* \"#utility.yul\":5683:5688   */\n      dup4\n        /* \"#utility.yul\":5679:5695   */\n      add\n        /* \"#utility.yul\":5673:5696   */\n      mload\n        /* \"#utility.yul\":5743:5746   */\n      dup5\n        /* \"#utility.yul\":5737:5741   */\n      dup3\n        /* \"#utility.yul\":5733:5747   */\n      sub\n        /* \"#utility.yul\":5726:5730   */\n      0x00\n        /* \"#utility.yul\":5721:5724   */\n      dup7\n        /* \"#utility.yul\":5717:5731   */\n      add\n        /* \"#utility.yul\":5710:5748   */\n      mstore\n        /* \"#utility.yul\":5769:5842   */\n      tag_151\n        /* \"#utility.yul\":5837:5841   */\n      dup3\n        /* \"#utility.yul\":5823:5835   */\n      dup3\n        /* \"#utility.yul\":5769:5842   */\n      tag_65\n      jump\t// in\n    tag_151:\n        /* \"#utility.yul\":5761:5842   */\n      swap2\n      pop\n        /* \"#utility.yul\":5618:5853   */\n      pop\n        /* \"#utility.yul\":5939:5943   */\n      0x20\n        /* \"#utility.yul\":5932:5937   */\n      dup4\n        /* \"#utility.yul\":5928:5944   */\n      add\n        /* \"#utility.yul\":5922:5945   */\n      mload\n        /* \"#utility.yul\":5958:6021   */\n      tag_152\n        /* \"#utility.yul\":6015:6019   */\n      0x20\n        /* \"#utility.yul\":6010:6013   */\n      dup7\n        /* \"#utility.yul\":6006:6020   */\n      add\n        /* \"#utility.yul\":5992:6004   */\n      dup3\n        /* \"#utility.yul\":5958:6021   */\n      tag_66\n      jump\t// in\n    tag_152:\n        /* \"#utility.yul\":5863:6031   */\n      pop\n        /* \"#utility.yul\":6115:6119   */\n      0x40\n        /* \"#utility.yul\":6108:6113   */\n      dup4\n        /* \"#utility.yul\":6104:6120   */\n      add\n        /* \"#utility.yul\":6098:6121   */\n      mload\n        /* \"#utility.yul\":6134:6197   */\n      tag_153\n        /* \"#utility.yul\":6191:6195   */\n      0x40\n        /* \"#utility.yul\":6186:6189   */\n      dup7\n        /* \"#utility.yul\":6182:6196   */\n      add\n        /* \"#utility.yul\":6168:6180   */\n      dup3\n        /* \"#utility.yul\":6134:6197   */\n      tag_66\n      jump\t// in\n    tag_153:\n        /* \"#utility.yul\":6041:6207   */\n      pop\n        /* \"#utility.yul\":6224:6228   */\n      dup1\n        /* \"#utility.yul\":6217:6228   */\n      swap2\n      pop\n        /* \"#utility.yul\":5572:6234   */\n      pop\n        /* \"#utility.yul\":5454:6234   */\n      swap3\n      swap2\n      pop\n      pop\n      jump\t// out\n        /* \"#utility.yul\":6240:6601   */\n    tag_20:\n        /* \"#utility.yul\":6377:6381   */\n      0x00\n        /* \"#utility.yul\":6415:6417   */\n      0x20\n        /* \"#utility.yul\":6404:6413   */\n      dup3\n        /* \"#utility.yul\":6400:6418   */\n      add\n        /* \"#utility.yul\":6392:6418   */\n      swap1\n      pop\n        /* \"#utility.yul\":6464:6473   */\n      dup2\n        /* \"#utility.yul\":6458:6462   */\n      dup2\n        /* \"#utility.yul\":6454:6474   */\n      sub\n        /* \"#utility.yul\":6450:6451   */\n      0x00\n        /* \"#utility.yul\":6439:6448   */\n      dup4\n        /* \"#utility.yul\":6435:6452   */\n      add\n        /* \"#utility.yul\":6428:6475   */\n      mstore\n        /* \"#utility.yul\":6492:6594   */\n      tag_155\n        /* \"#utility.yul\":6589:6593   */\n      dup2\n        /* \"#utility.yul\":6580:6586   */\n      dup5\n        /* \"#utility.yul\":6492:6594   */\n      tag_67\n      jump\t// in\n    tag_155:\n        /* \"#utility.yul\":6484:6594   */\n      swap1\n      pop\n        /* \"#utility.yul\":6240:6601   */\n      swap3\n      swap2\n      pop\n      pop\n      jump\t// out\n        /* \"#utility.yul\":6607:6787   */\n    tag_68:\n        /* \"#utility.yul\":6655:6732   */\n      0x4e487b7100000000000000000000000000000000000000000000000000000000\n        /* \"#utility.yul\":6652:6653   */\n      0x00\n        /* \"#utility.yul\":6645:6733   */\n      mstore\n        /* \"#utility.yul\":6752:6756   */\n      0x11\n        /* \"#utility.yul\":6749:6750   */\n      0x04\n        /* \"#utility.yul\":6742:6757   */\n      mstore\n        /* \"#utility.yul\":6776:6780   */\n      0x24\n        /* \"#utility.yul\":6773:6774   */\n      0x00\n        /* \"#utility.yul\":6766:6781   */\n      revert\n        /* \"#utility.yul\":6793:6987   */\n    tag_23:\n        /* \"#utility.yul\":6833:6837   */\n      0x00\n        /* \"#utility.yul\":6853:6873   */\n      tag_158\n        /* \"#utility.yul\":6871:6872   */\n      dup3\n        /* \"#utility.yul\":6853:6873   */\n      tag_48\n      jump\t// in\n    tag_158:\n        /* \"#utility.yul\":6848:6873   */\n      swap2\n      pop\n        /* \"#utility.yul\":6887:6907   */\n      tag_159\n        /* \"#utility.yul\":6905:6906   */\n      dup4\n        /* \"#utility.yul\":6887:6907   */\n      tag_48\n      jump\t// in\n    tag_159:\n        /* \"#utility.yul\":6882:6907   */\n      swap3\n      pop\n        /* \"#utility.yul\":6931:6932   */\n      dup3\n        /* \"#utility.yul\":6928:6929   */\n      dup3\n        /* \"#utility.yul\":6924:6933   */\n      sub\n        /* \"#utility.yul\":6916:6933   */\n      swap1\n      pop\n        /* \"#utility.yul\":6955:6956   */\n      dup2\n        /* \"#utility.yul\":6949:6953   */\n      dup2\n        /* \"#utility.yul\":6946:6957   */\n      gt\n        /* \"#utility.yul\":6943:6980   */\n      iszero\n      tag_160\n      jumpi\n        /* \"#utility.yul\":6960:6978   */\n      tag_161\n      tag_68\n      jump\t// in\n    tag_161:\n        /* \"#utility.yul\":6943:6980   */\n    tag_160:\n        /* \"#utility.yul\":6793:6987   */\n      swap3\n      swap2\n      pop\n      pop\n      jump\t// out\n        /* \"#utility.yul\":6993:7173   */\n    tag_26:\n        /* \"#utility.yul\":7041:7118   */\n      0x4e487b7100000000000000000000000000000000000000000000000000000000\n        /* \"#utility.yul\":7038:7039   */\n      0x00\n        /* \"#utility.yul\":7031:7119   */\n      mstore\n        /* \"#utility.yul\":7138:7142   */\n      0x32\n        /* \"#utility.yul\":7135:7136   */\n      0x04\n        /* \"#utility.yul\":7128:7143   */\n      mstore\n        /* \"#utility.yul\":7162:7166   */\n      0x24\n        /* \"#utility.yul\":7159:7160   */\n      0x00\n        /* \"#utility.yul\":7152:7167   */\n      revert\n        /* \"#utility.yul\":7179:7359   */\n    tag_69:\n        /* \"#utility.yul\":7227:7304   */\n      0x4e487b7100000000000000000000000000000000000000000000000000000000\n        /* \"#utility.yul\":7224:7225   */\n      0x00\n        /* \"#utility.yul\":7217:7305   */\n      mstore\n        /* \"#utility.yul\":7324:7328   */\n      0x22\n        /* \"#utility.yul\":7321:7322   */\n      0x04\n        /* \"#utility.yul\":7314:7329   */\n      mstore\n        /* \"#utility.yul\":7348:7352   */\n      0x24\n        /* \"#utility.yul\":7345:7346   */\n      0x00\n        /* \"#utility.yul\":7338:7353   */\n      revert\n        /* \"#utility.yul\":7365:7685   */\n    tag_40:\n        /* \"#utility.yul\":7409:7415   */\n      0x00\n        /* \"#utility.yul\":7446:7447   */\n      0x02\n        /* \"#utility.yul\":7440:7444   */\n      dup3\n        /* \"#utility.yul\":7436:7448   */\n      div\n        /* \"#utility.yul\":7426:7448   */\n      swap1\n      pop\n        /* \"#utility.yul\":7493:7494   */\n      0x01\n        /* \"#utility.yul\":7487:7491   */\n      dup3\n        /* \"#utility.yul\":7483:7495   */\n      and\n        /* \"#utility.yul\":7514:7532   */\n      dup1\n        /* \"#utility.yul\":7504:7585   */\n      tag_165\n      jumpi\n        /* \"#utility.yul\":7570:7574   */\n      0x7f\n        /* \"#utility.yul\":7562:7568   */\n      dup3\n        /* \"#utility.yul\":7558:7575   */\n      and\n        /* \"#utility.yul\":7548:7575   */\n      swap2\n      pop\n        /* \"#utility.yul\":7504:7585   */\n    tag_165:\n        /* \"#utility.yul\":7632:7634   */\n      0x20\n        /* \"#utility.yul\":7624:7630   */\n      dup3\n        /* \"#utility.yul\":7621:7635   */\n      lt\n        /* \"#utility.yul\":7601:7619   */\n      dup2\n        /* \"#utility.yul\":7598:7636   */\n      sub\n        /* \"#utility.yul\":7595:7679   */\n      tag_166\n      jumpi\n        /* \"#utility.yul\":7651:7669   */\n      tag_167\n      tag_69\n      jump\t// in\n    tag_167:\n        /* \"#utility.yul\":7595:7679   */\n    tag_166:\n        /* \"#utility.yul\":7416:7685   */\n      pop\n        /* \"#utility.yul\":7365:7685   */\n      swap2\n      swap1\n      pop\n      jump\t// out\n        /* \"#utility.yul\":7691:7832   */\n    tag_70:\n        /* \"#utility.yul\":7740:7744   */\n      0x00\n        /* \"#utility.yul\":7763:7766   */\n      dup2\n        /* \"#utility.yul\":7755:7766   */\n      swap1\n      pop\n        /* \"#utility.yul\":7786:7789   */\n      dup2\n        /* \"#utility.yul\":7783:7784   */\n      0x00\n        /* \"#utility.yul\":7776:7790   */\n      mstore\n        /* \"#utility.yul\":7820:7824   */\n      0x20\n        /* \"#utility.yul\":7817:7818   */\n      0x00\n        /* \"#utility.yul\":7807:7825   */\n      keccak256\n        /* \"#utility.yul\":7799:7825   */\n      swap1\n      pop\n        /* \"#utility.yul\":7691:7832   */\n      swap2\n      swap1\n      pop\n      jump\t// out\n        /* \"#utility.yul\":7838:7931   */\n    tag_71:\n        /* \"#utility.yul\":7875:7881   */\n      0x00\n        /* \"#utility.yul\":7922:7924   */\n      0x20\n        /* \"#utility.yul\":7917:7919   */\n      0x1f\n        /* \"#utility.yul\":7910:7915   */\n      dup4\n        /* \"#utility.yul\":7906:7920   */\n      add\n        /* \"#utility.yul\":7902:7925   */\n      div\n        /* \"#utility.yul\":7892:7925   */\n      swap1\n      pop\n        /* \"#utility.yul\":7838:7931   */\n      swap2\n      swap1\n      pop\n      jump\t// out\n        /* \"#utility.yul\":7937:8044   */\n    tag_72:\n        /* \"#utility.yul\":7981:7989   */\n      0x00\n        /* \"#utility.yul\":8031:8036   */\n      dup3\n        /* \"#utility.yul\":8025:8029   */\n      dup3\n        /* \"#utility.yul\":8021:8037   */\n      shl\n        /* \"#utility.yul\":8000:8037   */\n      swap1\n      pop\n        /* \"#utility.yul\":7937:8044   */\n      swap3\n      swap2\n      pop\n      pop\n      jump\t// out\n        /* \"#utility.yul\":8050:8443   */\n    tag_73:\n        /* \"#utility.yul\":8119:8125   */\n      0x00\n        /* \"#utility.yul\":8169:8170   */\n      0x08\n        /* \"#utility.yul\":8157:8167   */\n      dup4\n        /* \"#utility.yul\":8153:8171   */\n      mul\n        /* \"#utility.yul\":8192:8289   */\n      tag_172\n        /* \"#utility.yul\":8222:8288   */\n      0xffffffffffffffffffffffffffffffffffffffffffffffffffffffffffffffff\n        /* \"#utility.yul\":8211:8220   */\n      dup3\n        /* \"#utility.yul\":8192:8289   */\n      tag_72\n      jump\t// in\n    tag_172:\n        /* \"#utility.yul\":8310:8349   */\n      tag_173\n        /* \"#utility.yul\":8340:8348   */\n      dup7\n        /* \"#utility.yul\":8329:8338   */\n      dup4\n        /* \"#utility.yul\":8310:8349   */\n      tag_72\n      jump\t// in\n    tag_173:\n        /* \"#utility.yul\":8298:8349   */\n      swap6\n      pop\n        /* \"#utility.yul\":8382:8386   */\n      dup1\n        /* \"#utility.yul\":8378:8387   */\n      not\n        /* \"#utility.yul\":8371:8376   */\n      dup5\n        /* \"#utility.yul\":8367:8388   */\n      and\n        /* \"#utility.yul\":8358:8388   */\n      swap4\n      pop\n        /* \"#utility.yul\":8431:8435   */\n      dup1\n        /* \"#utility.yul\":8421:8429   */\n      dup7\n        /* \"#utility.yul\":8417:8436   */\n      and\n        /* \"#utility.yul\":8410:8415   */\n      dup5\n        /* \"#utility.yul\":8407:8437   */\n      or\n        /* \"#utility.yul\":8397:8437   */\n      swap3\n      pop\n        /* \"#utility.yul\":8126:8443   */\n      pop\n      pop\n        /* \"#utility.yul\":8050:8443   */\n      swap4\n      swap3\n      pop\n      pop\n      pop\n      jump\t// out\n        /* \"#utility.yul\":8449:8509   */\n    tag_74:\n        /* \"#utility.yul\":8477:8480   */\n      0x00\n        /* \"#utility.yul\":8498:8503   */\n      dup2\n        /* \"#utility.yul\":8491:8503   */\n      swap1\n      pop\n        /* \"#utility.yul\":8449:8509   */\n      swap2\n      swap1\n      pop\n      jump\t// out\n        /* \"#utility.yul\":8515:8657   */\n    tag_75:\n        /* \"#utility.yul\":8565:8574   */\n      0x00\n        /* \"#utility.yul\":8598:8651   */\n      tag_176\n        /* \"#utility.yul\":8616:8650   */\n      tag_177\n        /* \"#utility.yul\":8625:8649   */\n      tag_178\n        /* \"#utility.yul\":8643:8648   */\n      dup5\n        /* \"#utility.yul\":8625:8649   */\n      tag_48\n      jump\t// in\n    tag_178:\n        /* \"#utility.yul\":8616:8650   */\n      tag_74\n      jump\t// in\n    tag_177:\n        /* \"#utility.yul\":8598:8651   */\n      tag_48\n      jump\t// in\n    tag_176:\n        /* \"#utility.yul\":8585:8651   */\n      swap1\n      pop\n        /* \"#utility.yul\":8515:8657   */\n      swap2\n      swap1\n      pop\n      jump\t// out\n        /* \"#utility.yul\":8663:8738   */\n    tag_76:\n        /* \"#utility.yul\":8706:8709   */\n      0x00\n        /* \"#utility.yul\":8727:8732   */\n      dup2\n        /* \"#utility.yul\":8720:8732   */\n      swap1\n      pop\n        /* \"#utility.yul\":8663:8738   */\n      swap2\n      swap1\n      pop\n      jump\t// out\n        /* \"#utility.yul\":8744:9013   */\n    tag_77:\n        /* \"#utility.yul\":8854:8893   */\n      tag_181\n        /* \"#utility.yul\":8885:8892   */\n      dup4\n        /* \"#utility.yul\":8854:8893   */\n      tag_75\n      jump\t// in\n    tag_181:\n        /* \"#utility.yul\":8915:9006   */\n      tag_182\n        /* \"#utility.yul\":8964:9005   */\n      tag_183\n        /* \"#utility.yul\":8988:9004   */\n      dup3\n        /* \"#utility.yul\":8964:9005   */\n      tag_76\n      jump\t// in\n    tag_183:\n        /* \"#utility.yul\":8956:8962   */\n      dup5\n        /* \"#utility.yul\":8949:8953   */\n      dup5\n        /* \"#utility.yul\":8943:8954   */\n      sload\n        /* \"#utility.yul\":8915:9006   */\n      tag_73\n      jump\t// in\n    tag_182:\n        /* \"#utility.yul\":8909:8913   */\n      dup3\n        /* \"#utility.yul\":8902:9007   */\n      sstore\n        /* \"#utility.yul\":8820:9013   */\n      pop\n        /* \"#utility.yul\":8744:9013   */\n      pop\n      pop\n      pop\n      jump\t// out\n        /* \"#utility.yul\":9019:9092   */\n    tag_78:\n        /* \"#utility.yul\":9064:9067   */\n      0x00\n        /* \"#utility.yul\":9019:9092   */\n      swap1\n      jump\t// out\n        /* \"#utility.yul\":9098:9287   */\n    tag_79:\n        /* \"#utility.yul\":9175:9207   */\n      tag_186\n      tag_78\n      jump\t// in\n    tag_186:\n        /* \"#utility.yul\":9216:9281   */\n      tag_187\n        /* \"#utility.yul\":9274:9280   */\n      dup2\n        /* \"#utility.yul\":9266:9272   */\n      dup5\n        /* \"#utility.yul\":9260:9264   */\n      dup5\n        /* \"#utility.yul\":9216:9281   */\n      tag_77\n      jump\t// in\n    tag_187:\n        /* \"#utility.yul\":9151:9287   */\n      pop\n        /* \"#utility.yul\":9098:9287   */\n      pop\n      pop\n      jump\t// out\n        /* \"#utility.yul\":9293:9479   */\n    tag_80:\n        /* \"#utility.yul\":9353:9473   */\n    tag_189:\n        /* \"#utility.yul\":9370:9373   */\n      dup2\n        /* \"#utility.yul\":9363:9368   */\n      dup2\n        /* \"#utility.yul\":9360:9374   */\n      lt\n        /* \"#utility.yul\":9353:9473   */\n      iszero\n      tag_191\n      jumpi\n        /* \"#utility.yul\":9424:9463   */\n      tag_192\n        /* \"#utility.yul\":9461:9462   */\n      0x00\n        /* \"#utility.yul\":9454:9459   */\n      dup3\n        /* \"#utility.yul\":9424:9463   */\n      tag_79\n      jump\t// in\n    tag_192:\n        /* \"#utility.yul\":9397:9398   */\n      0x01\n        /* \"#utility.yul\":9390:9395   */\n      dup2\n        /* \"#utility.yul\":9386:9399   */\n      add\n        /* \"#utility.yul\":9377:9399   */\n      swap1\n      pop\n        /* \"#utility.yul\":9353:9473   */\n      jump(tag_189)\n    tag_191:\n        /* \"#utility.yul\":9293:9479   */\n      pop\n      pop\n      jump\t// out\n        /* \"#utility.yul\":9485:10028   */\n    tag_81:\n        /* \"#utility.yul\":9586:9588   */\n      0x1f\n        /* \"#utility.yul\":9581:9584   */\n      dup3\n        /* \"#utility.yul\":9578:9589   */\n      gt\n        /* \"#utility.yul\":9575:10021   */\n      iszero\n      tag_194\n      jumpi\n        /* \"#utility.yul\":9620:9658   */\n      tag_195\n        /* \"#utility.yul\":9652:9657   */\n      dup2\n        /* \"#utility.yul\":9620:9658   */\n      tag_70\n      jump\t// in\n    tag_195:\n        /* \"#utility.yul\":9704:9733   */\n      tag_196\n        /* \"#utility.yul\":9722:9732   */\n      dup5\n        /* \"#utility.yul\":9704:9733   */\n      tag_71\n      jump\t// in\n    tag_196:\n        /* \"#utility.yul\":9694:9702   */\n      dup2\n        /* \"#utility.yul\":9690:9734   */\n      add\n        /* \"#utility.yul\":9887:9889   */\n      0x20\n        /* \"#utility.yul\":9875:9885   */\n      dup6\n        /* \"#utility.yul\":9872:9890   */\n      lt\n        /* \"#utility.yul\":9869:9918   */\n      iszero\n      tag_197\n      jumpi\n        /* \"#utility.yul\":9908:9916   */\n      dup2\n        /* \"#utility.yul\":9893:9916   */\n      swap1\n      pop\n        /* \"#utility.yul\":9869:9918   */\n    tag_197:\n        /* \"#utility.yul\":9931:10011   */\n      tag_198\n        /* \"#utility.yul\":9987:10009   */\n      tag_199\n        /* \"#utility.yul\":10005:10008   */\n      dup6\n        /* \"#utility.yul\":9987:10009   */\n      tag_71\n      jump\t// in\n    tag_199:\n        /* \"#utility.yul\":9977:9985   */\n      dup4\n        /* \"#utility.yul\":9973:10010   */\n      add\n        /* \"#utility.yul\":9960:9971   */\n      dup3\n        /* \"#utility.yul\":9931:10011   */\n      tag_80\n      jump\t// in\n    tag_198:\n        /* \"#utility.yul\":9590:10021   */\n      pop\n      pop\n        /* \"#utility.yul\":9575:10021   */\n    tag_194:\n        /* \"#utility.yul\":9485:10028   */\n      pop\n      pop\n      pop\n      jump\t// out\n        /* \"#utility.yul\":10034:10151   */\n    tag_82:\n        /* \"#utility.yul\":10088:10096   */\n      0x00\n        /* \"#utility.yul\":10138:10143   */\n      dup3\n        /* \"#utility.yul\":10132:10136   */\n      dup3\n        /* \"#utility.yul\":10128:10144   */\n      shr\n        /* \"#utility.yul\":10107:10144   */\n      swap1\n      pop\n        /* \"#utility.yul\":10034:10151   */\n      swap3\n      swap2\n      pop\n      pop\n      jump\t// out\n        /* \"#utility.yul\":10157:10326   */\n    tag_83:\n        /* \"#utility.yul\":10201:10207   */\n      0x00\n        /* \"#utility.yul\":10234:10285   */\n      tag_202\n        /* \"#utility.yul\":10282:10283   */\n      0x00\n        /* \"#utility.yul\":10278:10284   */\n      not\n        /* \"#utility.yul\":10270:10275   */\n      dup5\n        /* \"#utility.yul\":10267:10268   */\n      0x08\n        /* \"#utility.yul\":10263:10276   */\n      mul\n        /* \"#utility.yul\":10234:10285   */\n      tag_82\n      jump\t// in\n    tag_202:\n        /* \"#utility.yul\":10230:10286   */\n      not\n        /* \"#utility.yul\":10315:10319   */\n      dup1\n        /* \"#utility.yul\":10309:10313   */\n      dup4\n        /* \"#utility.yul\":10305:10320   */\n      and\n        /* \"#utility.yul\":10295:10320   */\n      swap2\n      pop\n        /* \"#utility.yul\":10208:10326   */\n      pop\n        /* \"#utility.yul\":10157:10326   */\n      swap3\n      swap2\n      pop\n      pop\n      jump\t// out\n        /* \"#utility.yul\":10331:10626   */\n    tag_84:\n        /* \"#utility.yul\":10407:10411   */\n      0x00\n        /* \"#utility.yul\":10553:10582   */\n      tag_204\n        /* \"#utility.yul\":10578:10581   */\n      dup4\n        /* \"#utility.yul\":10572:10576   */\n      dup4\n        /* \"#utility.yul\":10553:10582   */\n      tag_83\n      jump\t// in\n    tag_204:\n        /* \"#utility.yul\":10545:10582   */\n      swap2\n      pop\n        /* \"#utility.yul\":10615:10618   */\n      dup3\n        /* \"#utility.yul\":10612:10613   */\n      0x02\n        /* \"#utility.yul\":10608:10619   */\n      mul\n        /* \"#utility.yul\":10602:10606   */\n      dup3\n        /* \"#utility.yul\":10599:10620   */\n      or\n        /* \"#utility.yul\":10591:10620   */\n      swap1\n      pop\n        /* \"#utility.yul\":10331:10626   */\n      swap3\n      swap2\n      pop\n      pop\n      jump\t// out\n        /* \"#utility.yul\":10631:12026   */\n    tag_31:\n        /* \"#utility.yul\":10748:10785   */\n      tag_206\n        /* \"#utility.yul\":10781:10784   */\n      dup3\n        /* \"#utility.yul\":10748:10785   */\n      tag_62\n      jump\t// in\n    tag_206:\n        /* \"#utility.yul\":10850:10868   */\n      0xffffffffffffffff\n        /* \"#utility.yul\":10842:10848   */\n      dup2\n        /* \"#utility.yul\":10839:10869   */\n      gt\n        /* \"#utility.yul\":10836:10892   */\n      iszero\n      tag_207\n      jumpi\n        /* \"#utility.yul\":10872:10890   */\n      tag_208\n      tag_55\n      jump\t// in\n    tag_208:\n        /* \"#utility.yul\":10836:10892   */\n    tag_207:\n        /* \"#utility.yul\":10916:10954   */\n      tag_209\n        /* \"#utility.yul\":10948:10952   */\n      dup3\n        /* \"#utility.yul\":10942:10953   */\n      sload\n        /* \"#utility.yul\":10916:10954   */\n      tag_40\n      jump\t// in\n    tag_209:\n        /* \"#utility.yul\":11001:11068   */\n      tag_210\n        /* \"#utility.yul\":11061:11067   */\n      dup3\n        /* \"#utility.yul\":11053:11059   */\n      dup3\n        /* \"#utility.yul\":11047:11051   */\n      dup6\n        /* \"#utility.yul\":11001:11068   */\n      tag_81\n      jump\t// in\n    tag_210:\n        /* \"#utility.yul\":11095:11096   */\n      0x00\n        /* \"#utility.yul\":11119:11123   */\n      0x20\n        /* \"#utility.yul\":11106:11123   */\n      swap1\n      pop\n        /* \"#utility.yul\":11151:11153   */\n      0x1f\n        /* \"#utility.yul\":11143:11149   */\n      dup4\n        /* \"#utility.yul\":11140:11154   */\n      gt\n        /* \"#utility.yul\":11168:11169   */\n      0x01\n        /* \"#utility.yul\":11163:11781   */\n      dup2\n      eq\n      tag_212\n      jumpi\n        /* \"#utility.yul\":11825:11826   */\n      0x00\n        /* \"#utility.yul\":11842:11848   */\n      dup5\n        /* \"#utility.yul\":11839:11916   */\n      iszero\n      tag_213\n      jumpi\n        /* \"#utility.yul\":11891:11900   */\n      dup3\n        /* \"#utility.yul\":11886:11889   */\n      dup8\n        /* \"#utility.yul\":11882:11901   */\n      add\n        /* \"#utility.yul\":11876:11902   */\n      mload\n        /* \"#utility.yul\":11867:11902   */\n      swap1\n      pop\n        /* \"#utility.yul\":11839:11916   */\n    tag_213:\n        /* \"#utility.yul\":11942:12009   */\n      tag_214\n        /* \"#utility.yul\":12002:12008   */\n      dup6\n        /* \"#utility.yul\":11995:12000   */\n      dup3\n        /* \"#utility.yul\":11942:12009   */\n      tag_84\n      jump\t// in\n    tag_214:\n        /* \"#utility.yul\":11936:11940   */\n      dup7\n        /* \"#utility.yul\":11929:12010   */\n      sstore\n        /* \"#utility.yul\":11798:12020   */\n      pop\n        /* \"#utility.yul\":11133:12020   */\n      jump(tag_211)\n        /* \"#utility.yul\":11163:11781   */\n    tag_212:\n        /* \"#utility.yul\":11215:11219   */\n      0x1f\n        /* \"#utility.yul\":11211:11220   */\n      not\n        /* \"#utility.yul\":11203:11209   */\n      dup5\n        /* \"#utility.yul\":11199:11221   */\n      and\n        /* \"#utility.yul\":11249:11286   */\n      tag_215\n        /* \"#utility.yul\":11281:11285   */\n      dup7\n        /* \"#utility.yul\":11249:11286   */\n      tag_70\n      jump\t// in\n    tag_215:\n        /* \"#utility.yul\":11308:11309   */\n      0x00\n        /* \"#utility.yul\":11322:11530   */\n    tag_216:\n        /* \"#utility.yul\":11336:11343   */\n      dup3\n        /* \"#utility.yul\":11333:11334   */\n      dup2\n        /* \"#utility.yul\":11330:11344   */\n      lt\n        /* \"#utility.yul\":11322:11530   */\n      iszero\n      tag_218\n      jumpi\n        /* \"#utility.yul\":11415:11424   */\n      dup5\n        /* \"#utility.yul\":11410:11413   */\n      dup10\n        /* \"#utility.yul\":11406:11425   */\n      add\n        /* \"#utility.yul\":11400:11426   */\n      mload\n        /* \"#utility.yul\":11392:11398   */\n      dup3\n        /* \"#utility.yul\":11385:11427   */\n      sstore\n        /* \"#utility.yul\":11466:11467   */\n      0x01\n        /* \"#utility.yul\":11458:11464   */\n      dup3\n        /* \"#utility.yul\":11454:11468   */\n      add\n        /* \"#utility.yul\":11444:11468   */\n      swap2\n      pop\n        /* \"#utility.yul\":11513:11515   */\n      0x20\n        /* \"#utility.yul\":11502:11511   */\n      dup6\n        /* \"#utility.yul\":11498:11516   */\n      add\n        /* \"#utility.yul\":11485:11516   */\n      swap5\n      pop\n        /* \"#utility.yul\":11359:11363   */\n      0x20\n        /* \"#utility.yul\":11356:11357   */\n      dup2\n        /* \"#utility.yul\":11352:11364   */\n      add\n        /* \"#utility.yul\":11347:11364   */\n      swap1\n      pop\n        /* \"#utility.yul\":11322:11530   */\n      jump(tag_216)\n    tag_218:\n        /* \"#utility.yul\":11558:11564   */\n      dup7\n        /* \"#utility.yul\":11549:11556   */\n      dup4\n        /* \"#utility.yul\":11546:11565   */\n      lt\n        /* \"#utility.yul\":11543:11722   */\n      iszero\n      tag_219\n      jumpi\n        /* \"#utility.yul\":11616:11625   */\n      dup5\n        /* \"#utility.yul\":11611:11614   */\n      dup10\n        /* \"#utility.yul\":11607:11626   */\n      add\n        /* \"#utility.yul\":11601:11627   */\n      mload\n        /* \"#utility.yul\":11659:11707   */\n      tag_220\n        /* \"#utility.yul\":11701:11705   */\n      0x1f\n        /* \"#utility.yul\":11693:11699   */\n      dup10\n        /* \"#utility.yul\":11689:11706   */\n      and\n        /* \"#utility.yul\":11678:11687   */\n      dup3\n        /* \"#utility.yul\":11659:11707   */\n      tag_83\n      jump\t// in\n    tag_220:\n        /* \"#utility.yul\":11651:11657   */\n      dup4\n        /* \"#utility.yul\":11644:11708   */\n      sstore\n        /* \"#utility.yul\":11566:11722   */\n      pop\n        /* \"#utility.yul\":11543:11722   */\n    tag_219:\n        /* \"#utility.yul\":11768:11769   */\n      0x01\n        /* \"#utility.yul\":11764:11765   */\n      0x02\n        /* \"#utility.yul\":11756:11762   */\n      dup9\n        /* \"#utility.yul\":11752:11766   */\n      mul\n        /* \"#utility.yul\":11748:11770   */\n      add\n        /* \"#utility.yul\":11742:11746   */\n      dup9\n        /* \"#utility.yul\":11735:11771   */\n      sstore\n        /* \"#utility.yul\":11170:11781   */\n      pop\n      pop\n      pop\n        /* \"#utility.yul\":11133:12020   */\n    tag_211:\n      pop\n        /* \"#utility.yul\":10723:12026   */\n      pop\n      pop\n      pop\n        /* \"#utility.yul\":10631:12026   */\n      pop\n      pop\n      jump\t// out\n\n    auxdata: 0xa264697066735822122030c2d0dbcda8e062fcd1bf0f70fccc3cc2056e775faede4ab2f52d8b1f19bbc464736f6c63430008120033\n}\n",
				"bytecode": {
					"linkReferences": {},
					"object": "608060405234801561001057600080fd5b5061097e806100206000396000f3fe608060405234801561001057600080fd5b50600436106100415760003560e01c80631887813714610046578063562ca54314610076578063642f916314610092575b600080fd5b610060600480360381019061005b91906102cc565b6100c2565b60405161006d9190610308565b60405180910390f35b610090600480360381019061008b9190610469565b6100fc565b005b6100ac60048036038101906100a791906102cc565b610173565b6040516100b991906105b6565b60405180910390f35b6000806001836100d29190610607565b815481106100e3576100e261063b565b5b9060005260206000209060030201600101549050919050565b6000604051806060016040528085815260200184815260200183815250908060018154018082558091505060019003906000526020600020906003020160009091909190915060008201518160000190816101579190610876565b5060208201518160010155604082015181600201555050505050565b61017b610261565b600060018361018a9190610607565b8154811061019b5761019a61063b565b5b90600052602060002090600302016040518060600160405290816000820180546101c490610699565b80601f01602080910402602001604051908101604052809291908181526020018280546101f090610699565b801561023d5780601f106102125761010080835404028352916020019161023d565b820191906000526020600020905b81548152906001019060200180831161022057829003601f168201915b50505050508152602001600182015481526020016002820154815250509050919050565b60405180606001604052806060815260200160008152602001600081525090565b6000604051905090565b600080fd5b600080fd5b6000819050919050565b6102a981610296565b81146102b457600080fd5b50565b6000813590506102c6816102a0565b92915050565b6000602082840312156102e2576102e161028c565b5b60006102f0848285016102b7565b91505092915050565b61030281610296565b82525050565b600060208201905061031d60008301846102f9565b92915050565b600080fd5b600080fd5b6000601f19601f8301169050919050565b7f4e487b7100000000000000000000000000000000000000000000000000000000600052604160045260246000fd5b6103768261032d565b810181811067ffffffffffffffff821117156103955761039461033e565b5b80604052505050565b60006103a8610282565b90506103b4828261036d565b919050565b600067ffffffffffffffff8211156103d4576103d361033e565b5b6103dd8261032d565b9050602081019050919050565b82818337600083830152505050565b600061040c610407846103b9565b61039e565b90508281526020810184848401111561042857610427610328565b5b6104338482856103ea565b509392505050565b600082601f8301126104505761044f610323565b5b81356104608482602086016103f9565b91505092915050565b6000806000606084860312156104825761048161028c565b5b600084013567ffffffffffffffff8111156104a05761049f610291565b5b6104ac8682870161043b565b93505060206104bd868287016102b7565b92505060406104ce868287016102b7565b9150509250925092565b600081519050919050565b600082825260208201905092915050565b60005b838110156105125780820151818401526020810190506104f7565b60008484015250505050565b6000610529826104d8565b61053381856104e3565b93506105438185602086016104f4565b61054c8161032d565b840191505092915050565b61056081610296565b82525050565b60006060830160008301518482036000860152610583828261051e565b91505060208301516105986020860182610557565b5060408301516105ab6040860182610557565b508091505092915050565b600060208201905081810360008301526105d08184610566565b905092915050565b7f4e487b7100000000000000000000000000000000000000000000000000000000600052601160045260246000fd5b600061061282610296565b915061061d83610296565b9250828203905081811115610635576106346105d8565b5b92915050565b7f4e487b7100000000000000000000000000000000000000000000000000000000600052603260045260246000fd5b7f4e487b7100000000000000000000000000000000000000000000000000000000600052602260045260246000fd5b600060028204905060018216806106b157607f821691505b6020821081036106c4576106c361066a565b5b50919050565b60008190508160005260206000209050919050565b60006020601f8301049050919050565b600082821b905092915050565b60006008830261072c7fffffffffffffffffffffffffffffffffffffffffffffffffffffffffffffffff826106ef565b61073686836106ef565b95508019841693508086168417925050509392505050565b6000819050919050565b600061077361076e61076984610296565b61074e565b610296565b9050919050565b6000819050919050565b61078d83610758565b6107a16107998261077a565b8484546106fc565b825550505050565b600090565b6107b66107a9565b6107c1818484610784565b505050565b5b818110156107e5576107da6000826107ae565b6001810190506107c7565b5050565b601f82111561082a576107fb816106ca565b610804846106df565b81016020851015610813578190505b61082761081f856106df565b8301826107c6565b50505b505050565b600082821c905092915050565b600061084d6000198460080261082f565b1980831691505092915050565b6000610866838361083c565b9150826002028217905092915050565b61087f826104d8565b67ffffffffffffffff8111156108985761089761033e565b5b6108a28254610699565b6108ad8282856107e9565b600060209050601f8311600181146108e057600084156108ce578287015190505b6108d8858261085a565b865550610940565b601f1984166108ee866106ca565b60005b82811015610916578489015182556001820191506020850194506020810190506108f1565b86831015610933578489015161092f601f89168261083c565b8355505b6001600288020188555050505b50505050505056fea264697066735822122030c2d0dbcda8e062fcd1bf0f70fccc3cc2056e775faede4ab2f52d8b1f19bbc464736f6c63430008120033",
					"opcodes": "PUSH1 0x80 PUSH1 0x40 MSTORE CALLVALUE DUP1 ISZERO PUSH2 0x10 JUMPI PUSH1 0x0 DUP1 REVERT JUMPDEST POP PUSH2 0x97E DUP1 PUSH2 0x20 PUSH1 0x0 CODECOPY PUSH1 0x0 RETURN INVALID PUSH1 0x80 PUSH1 0x40 MSTORE CALLVALUE DUP1 ISZERO PUSH2 0x10 JUMPI PUSH1 0x0 DUP1 REVERT JUMPDEST POP PUSH1 0x4 CALLDATASIZE LT PUSH2 0x41 JUMPI PUSH1 0x0 CALLDATALOAD PUSH1 0xE0 SHR DUP1 PUSH4 0x18878137 EQ PUSH2 0x46 JUMPI DUP1 PUSH4 0x562CA543 EQ PUSH2 0x76 JUMPI DUP1 PUSH4 0x642F9163 EQ PUSH2 0x92 JUMPI JUMPDEST PUSH1 0x0 DUP1 REVERT JUMPDEST PUSH2 0x60 PUSH1 0x4 DUP1 CALLDATASIZE SUB DUP2 ADD SWAP1 PUSH2 0x5B SWAP2 SWAP1 PUSH2 0x2CC JUMP JUMPDEST PUSH2 0xC2 JUMP JUMPDEST PUSH1 0x40 MLOAD PUSH2 0x6D SWAP2 SWAP1 PUSH2 0x308 JUMP JUMPDEST PUSH1 0x40 MLOAD DUP1 SWAP2 SUB SWAP1 RETURN JUMPDEST PUSH2 0x90 PUSH1 0x4 DUP1 CALLDATASIZE SUB DUP2 ADD SWAP1 PUSH2 0x8B SWAP2 SWAP1 PUSH2 0x469 JUMP JUMPDEST PUSH2 0xFC JUMP JUMPDEST STOP JUMPDEST PUSH2 0xAC PUSH1 0x4 DUP1 CALLDATASIZE SUB DUP2 ADD SWAP1 PUSH2 0xA7 SWAP2 SWAP1 PUSH2 0x2CC JUMP JUMPDEST PUSH2 0x173 JUMP JUMPDEST PUSH1 0x40 MLOAD PUSH2 0xB9 SWAP2 SWAP1 PUSH2 0x5B6 JUMP JUMPDEST PUSH1 0x40 MLOAD DUP1 SWAP2 SUB SWAP1 RETURN JUMPDEST PUSH1 0x0 DUP1 PUSH1 0x1 DUP4 PUSH2 0xD2 SWAP2 SWAP1 PUSH2 0x607 JUMP JUMPDEST DUP2 SLOAD DUP2 LT PUSH2 0xE3 JUMPI PUSH2 0xE2 PUSH2 0x63B JUMP JUMPDEST JUMPDEST SWAP1 PUSH1 0x0 MSTORE PUSH1 0x20 PUSH1 0x0 KECCAK256 SWAP1 PUSH1 0x3 MUL ADD PUSH1 0x1 ADD SLOAD SWAP1 POP SWAP2 SWAP1 POP JUMP JUMPDEST PUSH1 0x0 PUSH1 0x40 MLOAD DUP1 PUSH1 0x60 ADD PUSH1 0x40 MSTORE DUP1 DUP6 DUP2 MSTORE PUSH1 0x20 ADD DUP5 DUP2 MSTORE PUSH1 0x20 ADD DUP4 DUP2 MSTORE POP SWAP1 DUP1 PUSH1 0x1 DUP2 SLOAD ADD DUP1 DUP3 SSTORE DUP1 SWAP2 POP POP PUSH1 0x1 SWAP1 SUB SWAP1 PUSH1 0x0 MSTORE PUSH1 0x20 PUSH1 0x0 KECCAK256 SWAP1 PUSH1 0x3 MUL ADD PUSH1 0x0 SWAP1 SWAP2 SWAP1 SWAP2 SWAP1 SWAP2 POP PUSH1 0x0 DUP3 ADD MLOAD DUP2 PUSH1 0x0 ADD SWAP1 DUP2 PUSH2 0x157 SWAP2 SWAP1 PUSH2 0x876 JUMP JUMPDEST POP PUSH1 0x20 DUP3 ADD MLOAD DUP2 PUSH1 0x1 ADD SSTORE PUSH1 0x40 DUP3 ADD MLOAD DUP2 PUSH1 0x2 ADD SSTORE POP POP POP POP POP JUMP JUMPDEST PUSH2 0x17B PUSH2 0x261 JUMP JUMPDEST PUSH1 0x0 PUSH1 0x1 DUP4 PUSH2 0x18A SWAP2 SWAP1 PUSH2 0x607 JUMP JUMPDEST DUP2 SLOAD DUP2 LT PUSH2 0x19B JUMPI PUSH2 0x19A PUSH2 0x63B JUMP JUMPDEST JUMPDEST SWAP1 PUSH1 0x0 MSTORE PUSH1 0x20 PUSH1 0x0 KECCAK256 SWAP1 PUSH1 0x3 MUL ADD PUSH1 0x40 MLOAD DUP1 PUSH1 0x60 ADD PUSH1 0x40 MSTORE SWAP1 DUP2 PUSH1 0x0 DUP3 ADD DUP1 SLOAD PUSH2 0x1C4 SWAP1 PUSH2 0x699 JUMP JUMPDEST DUP1 PUSH1 0x1F ADD PUSH1 0x20 DUP1 SWAP2 DIV MUL PUSH1 0x20 ADD PUSH1 0x40 MLOAD SWAP1 DUP2 ADD PUSH1 0x40 MSTORE DUP1 SWAP3 SWAP2 SWAP1 DUP2 DUP2 MSTORE PUSH1 0x20 ADD DUP3 DUP1 SLOAD PUSH2 0x1F0 SWAP1 PUSH2 0x699 JUMP JUMPDEST DUP1 ISZERO PUSH2 0x23D JUMPI DUP1 PUSH1 0x1F LT PUSH2 0x212 JUMPI PUSH2 0x100 DUP1 DUP4 SLOAD DIV MUL DUP4 MSTORE SWAP2 PUSH1 0x20 ADD SWAP2 PUSH2 0x23D JUMP JUMPDEST DUP3 ADD SWAP2 SWAP1 PUSH1 0x0 MSTORE PUSH1 0x20 PUSH1 0x0 KECCAK256 SWAP1 JUMPDEST DUP2 SLOAD DUP2 MSTORE SWAP1 PUSH1 0x1 ADD SWAP1 PUSH1 0x20 ADD DUP1 DUP4 GT PUSH2 0x220 JUMPI DUP3 SWAP1 SUB PUSH1 0x1F AND DUP3 ADD SWAP2 JUMPDEST POP POP POP POP POP DUP2 MSTORE PUSH1 0x20 ADD PUSH1 0x1 DUP3 ADD SLOAD DUP2 MSTORE PUSH1 0x20 ADD PUSH1 0x2 DUP3 ADD SLOAD DUP2 MSTORE POP POP SWAP1 POP SWAP2 SWAP1 POP JUMP JUMPDEST PUSH1 0x40 MLOAD DUP1 PUSH1 0x60 ADD PUSH1 0x40 MSTORE DUP1 PUSH1 0x60 DUP2 MSTORE PUSH1 0x20 ADD PUSH1 0x0 DUP2 MSTORE PUSH1 0x20 ADD PUSH1 0x0 DUP2 MSTORE POP SWAP1 JUMP JUMPDEST PUSH1 0x0 PUSH1 0x40 MLOAD SWAP1 POP SWAP1 JUMP JUMPDEST PUSH1 0x0 DUP1 REVERT JUMPDEST PUSH1 0x0 DUP1 REVERT JUMPDEST PUSH1 0x0 DUP2 SWAP1 POP SWAP2 SWAP1 POP JUMP JUMPDEST PUSH2 0x2A9 DUP2 PUSH2 0x296 JUMP JUMPDEST DUP2 EQ PUSH2 0x2B4 JUMPI PUSH1 0x0 DUP1 REVERT JUMPDEST POP JUMP JUMPDEST PUSH1 0x0 DUP2 CALLDATALOAD SWAP1 POP PUSH2 0x2C6 DUP2 PUSH2 0x2A0 JUMP JUMPDEST SWAP3 SWAP2 POP POP JUMP JUMPDEST PUSH1 0x0 PUSH1 0x20 DUP3 DUP5 SUB SLT ISZERO PUSH2 0x2E2 JUMPI PUSH2 0x2E1 PUSH2 0x28C JUMP JUMPDEST JUMPDEST PUSH1 0x0 PUSH2 0x2F0 DUP5 DUP3 DUP6 ADD PUSH2 0x2B7 JUMP JUMPDEST SWAP2 POP POP SWAP3 SWAP2 POP POP JUMP JUMPDEST PUSH2 0x302 DUP2 PUSH2 0x296 JUMP JUMPDEST DUP3 MSTORE POP POP JUMP JUMPDEST PUSH1 0x0 PUSH1 0x20 DUP3 ADD SWAP1 POP PUSH2 0x31D PUSH1 0x0 DUP4 ADD DUP5 PUSH2 0x2F9 JUMP JUMPDEST SWAP3 SWAP2 POP POP JUMP JUMPDEST PUSH1 0x0 DUP1 REVERT JUMPDEST PUSH1 0x0 DUP1 REVERT JUMPDEST PUSH1 0x0 PUSH1 0x1F NOT PUSH1 0x1F DUP4 ADD AND SWAP1 POP SWAP2 SWAP1 POP JUMP JUMPDEST PUSH32 0x4E487B7100000000000000000000000000000000000000000000000000000000 PUSH1 0x0 MSTORE PUSH1 0x41 PUSH1 0x4 MSTORE PUSH1 0x24 PUSH1 0x0 REVERT JUMPDEST PUSH2 0x376 DUP3 PUSH2 0x32D JUMP JUMPDEST DUP2 ADD DUP2 DUP2 LT PUSH8 0xFFFFFFFFFFFFFFFF DUP3 GT OR ISZERO PUSH2 0x395 JUMPI PUSH2 0x394 PUSH2 0x33E JUMP JUMPDEST JUMPDEST DUP1 PUSH1 0x40 MSTORE POP POP POP JUMP JUMPDEST PUSH1 0x0 PUSH2 0x3A8 PUSH2 0x282 JUMP JUMPDEST SWAP1 POP PUSH2 0x3B4 DUP3 DUP3 PUSH2 0x36D JUMP JUMPDEST SWAP2 SWAP1 POP JUMP JUMPDEST PUSH1 0x0 PUSH8 0xFFFFFFFFFFFFFFFF DUP3 GT ISZERO PUSH2 0x3D4 JUMPI PUSH2 0x3D3 PUSH2 0x33E JUMP JUMPDEST JUMPDEST PUSH2 0x3DD DUP3 PUSH2 0x32D JUMP JUMPDEST SWAP1 POP PUSH1 0x20 DUP2 ADD SWAP1 POP SWAP2 SWAP1 POP JUMP JUMPDEST DUP3 DUP2 DUP4 CALLDATACOPY PUSH1 0x0 DUP4 DUP4 ADD MSTORE POP POP POP JUMP JUMPDEST PUSH1 0x0 PUSH2 0x40C PUSH2 0x407 DUP5 PUSH2 0x3B9 JUMP JUMPDEST PUSH2 0x39E JUMP JUMPDEST SWAP1 POP DUP3 DUP2 MSTORE PUSH1 0x20 DUP2 ADD DUP5 DUP5 DUP5 ADD GT ISZERO PUSH2 0x428 JUMPI PUSH2 0x427 PUSH2 0x328 JUMP JUMPDEST JUMPDEST PUSH2 0x433 DUP5 DUP3 DUP6 PUSH2 0x3EA JUMP JUMPDEST POP SWAP4 SWAP3 POP POP POP JUMP JUMPDEST PUSH1 0x0 DUP3 PUSH1 0x1F DUP4 ADD SLT PUSH2 0x450 JUMPI PUSH2 0x44F PUSH2 0x323 JUMP JUMPDEST JUMPDEST DUP2 CALLDATALOAD PUSH2 0x460 DUP5 DUP3 PUSH1 0x20 DUP7 ADD PUSH2 0x3F9 JUMP JUMPDEST SWAP2 POP POP SWAP3 SWAP2 POP POP JUMP JUMPDEST PUSH1 0x0 DUP1 PUSH1 0x0 PUSH1 0x60 DUP5 DUP7 SUB SLT ISZERO PUSH2 0x482 JUMPI PUSH2 0x481 PUSH2 0x28C JUMP JUMPDEST JUMPDEST PUSH1 0x0 DUP5 ADD CALLDATALOAD PUSH8 0xFFFFFFFFFFFFFFFF DUP2 GT ISZERO PUSH2 0x4A0 JUMPI PUSH2 0x49F PUSH2 0x291 JUMP JUMPDEST JUMPDEST PUSH2 0x4AC DUP7 DUP3 DUP8 ADD PUSH2 0x43B JUMP JUMPDEST SWAP4 POP POP PUSH1 0x20 PUSH2 0x4BD DUP7 DUP3 DUP8 ADD PUSH2 0x2B7 JUMP JUMPDEST SWAP3 POP POP PUSH1 0x40 PUSH2 0x4CE DUP7 DUP3 DUP8 ADD PUSH2 0x2B7 JUMP JUMPDEST SWAP2 POP POP SWAP3 POP SWAP3 POP SWAP3 JUMP JUMPDEST PUSH1 0x0 DUP2 MLOAD SWAP1 POP SWAP2 SWAP1 POP JUMP JUMPDEST PUSH1 0x0 DUP3 DUP3 MSTORE PUSH1 0x20 DUP3 ADD SWAP1 POP SWAP3 SWAP2 POP POP JUMP JUMPDEST PUSH1 0x0 JUMPDEST DUP4 DUP2 LT ISZERO PUSH2 0x512 JUMPI DUP1 DUP3 ADD MLOAD DUP2 DUP5 ADD MSTORE PUSH1 0x20 DUP2 ADD SWAP1 POP PUSH2 0x4F7 JUMP JUMPDEST PUSH1 0x0 DUP5 DUP5 ADD MSTORE POP POP POP POP JUMP JUMPDEST PUSH1 0x0 PUSH2 0x529 DUP3 PUSH2 0x4D8 JUMP JUMPDEST PUSH2 0x533 DUP2 DUP6 PUSH2 0x4E3 JUMP JUMPDEST SWAP4 POP PUSH2 0x543 DUP2 DUP6 PUSH1 0x20 DUP7 ADD PUSH2 0x4F4 JUMP JUMPDEST PUSH2 0x54C DUP2 PUSH2 0x32D JUMP JUMPDEST DUP5 ADD SWAP2 POP POP SWAP3 SWAP2 POP POP JUMP JUMPDEST PUSH2 0x560 DUP2 PUSH2 0x296 JUMP JUMPDEST DUP3 MSTORE POP POP JUMP JUMPDEST PUSH1 0x0 PUSH1 0x60 DUP4 ADD PUSH1 0x0 DUP4 ADD MLOAD DUP5 DUP3 SUB PUSH1 0x0 DUP7 ADD MSTORE PUSH2 0x583 DUP3 DUP3 PUSH2 0x51E JUMP JUMPDEST SWAP2 POP POP PUSH1 0x20 DUP4 ADD MLOAD PUSH2 0x598 PUSH1 0x20 DUP7 ADD DUP3 PUSH2 0x557 JUMP JUMPDEST POP PUSH1 0x40 DUP4 ADD MLOAD PUSH2 0x5AB PUSH1 0x40 DUP7 ADD DUP3 PUSH2 0x557 JUMP JUMPDEST POP DUP1 SWAP2 POP POP SWAP3 SWAP2 POP POP JUMP JUMPDEST PUSH1 0x0 PUSH1 0x20 DUP3 ADD SWAP1 POP DUP2 DUP2 SUB PUSH1 0x0 DUP4 ADD MSTORE PUSH2 0x5D0 DUP2 DUP5 PUSH2 0x566 JUMP JUMPDEST SWAP1 POP SWAP3 SWAP2 POP POP JUMP JUMPDEST PUSH32 0x4E487B7100000000000000000000000000000000000000000000000000000000 PUSH1 0x0 MSTORE PUSH1 0x11 PUSH1 0x4 MSTORE PUSH1 0x24 PUSH1 0x0 REVERT JUMPDEST PUSH1 0x0 PUSH2 0x612 DUP3 PUSH2 0x296 JUMP JUMPDEST SWAP2 POP PUSH2 0x61D DUP4 PUSH2 0x296 JUMP JUMPDEST SWAP3 POP DUP3 DUP3 SUB SWAP1 POP DUP2 DUP2 GT ISZERO PUSH2 0x635 JUMPI PUSH2 0x634 PUSH2 0x5D8 JUMP JUMPDEST JUMPDEST SWAP3 SWAP2 POP POP JUMP JUMPDEST PUSH32 0x4E487B7100000000000000000000000000000000000000000000000000000000 PUSH1 0x0 MSTORE PUSH1 0x32 PUSH1 0x4 MSTORE PUSH1 0x24 PUSH1 0x0 REVERT JUMPDEST PUSH32 0x4E487B7100000000000000000000000000000000000000000000000000000000 PUSH1 0x0 MSTORE PUSH1 0x22 PUSH1 0x4 MSTORE PUSH1 0x24 PUSH1 0x0 REVERT JUMPDEST PUSH1 0x0 PUSH1 0x2 DUP3 DIV SWAP1 POP PUSH1 0x1 DUP3 AND DUP1 PUSH2 0x6B1 JUMPI PUSH1 0x7F DUP3 AND SWAP2 POP JUMPDEST PUSH1 0x20 DUP3 LT DUP2 SUB PUSH2 0x6C4 JUMPI PUSH2 0x6C3 PUSH2 0x66A JUMP JUMPDEST JUMPDEST POP SWAP2 SWAP1 POP JUMP JUMPDEST PUSH1 0x0 DUP2 SWAP1 POP DUP2 PUSH1 0x0 MSTORE PUSH1 0x20 PUSH1 0x0 KECCAK256 SWAP1 POP SWAP2 SWAP1 POP JUMP JUMPDEST PUSH1 0x0 PUSH1 0x20 PUSH1 0x1F DUP4 ADD DIV SWAP1 POP SWAP2 SWAP1 POP JUMP JUMPDEST PUSH1 0x0 DUP3 DUP3 SHL SWAP1 POP SWAP3 SWAP2 POP POP JUMP JUMPDEST PUSH1 0x0 PUSH1 0x8 DUP4 MUL PUSH2 0x72C PUSH32 0xFFFFFFFFFFFFFFFFFFFFFFFFFFFFFFFFFFFFFFFFFFFFFFFFFFFFFFFFFFFFFFFF DUP3 PUSH2 0x6EF JUMP JUMPDEST PUSH2 0x736 DUP7 DUP4 PUSH2 0x6EF JUMP JUMPDEST SWAP6 POP DUP1 NOT DUP5 AND SWAP4 POP DUP1 DUP7 AND DUP5 OR SWAP3 POP POP POP SWAP4 SWAP3 POP POP POP JUMP JUMPDEST PUSH1 0x0 DUP2 SWAP1 POP SWAP2 SWAP1 POP JUMP JUMPDEST PUSH1 0x0 PUSH2 0x773 PUSH2 0x76E PUSH2 0x769 DUP5 PUSH2 0x296 JUMP JUMPDEST PUSH2 0x74E JUMP JUMPDEST PUSH2 0x296 JUMP JUMPDEST SWAP1 POP SWAP2 SWAP1 POP JUMP JUMPDEST PUSH1 0x0 DUP2 SWAP1 POP SWAP2 SWAP1 POP JUMP JUMPDEST PUSH2 0x78D DUP4 PUSH2 0x758 JUMP JUMPDEST PUSH2 0x7A1 PUSH2 0x799 DUP3 PUSH2 0x77A JUMP JUMPDEST DUP5 DUP5 SLOAD PUSH2 0x6FC JUMP JUMPDEST DUP3 SSTORE POP POP POP POP JUMP JUMPDEST PUSH1 0x0 SWAP1 JUMP JUMPDEST PUSH2 0x7B6 PUSH2 0x7A9 JUMP JUMPDEST PUSH2 0x7C1 DUP2 DUP5 DUP5 PUSH2 0x784 JUMP JUMPDEST POP POP POP JUMP JUMPDEST JUMPDEST DUP2 DUP2 LT ISZERO PUSH2 0x7E5 JUMPI PUSH2 0x7DA PUSH1 0x0 DUP3 PUSH2 0x7AE JUMP JUMPDEST PUSH1 0x1 DUP2 ADD SWAP1 POP PUSH2 0x7C7 JUMP JUMPDEST POP POP JUMP JUMPDEST PUSH1 0x1F DUP3 GT ISZERO PUSH2 0x82A JUMPI PUSH2 0x7FB DUP2 PUSH2 0x6CA JUMP JUMPDEST PUSH2 0x804 DUP5 PUSH2 0x6DF JUMP JUMPDEST DUP2 ADD PUSH1 0x20 DUP6 LT ISZERO PUSH2 0x813 JUMPI DUP2 SWAP1 POP JUMPDEST PUSH2 0x827 PUSH2 0x81F DUP6 PUSH2 0x6DF JUMP JUMPDEST DUP4 ADD DUP3 PUSH2 0x7C6 JUMP JUMPDEST POP POP JUMPDEST POP POP POP JUMP JUMPDEST PUSH1 0x0 DUP3 DUP3 SHR SWAP1 POP SWAP3 SWAP2 POP POP JUMP JUMPDEST PUSH1 0x0 PUSH2 0x84D PUSH1 0x0 NOT DUP5 PUSH1 0x8 MUL PUSH2 0x82F JUMP JUMPDEST NOT DUP1 DUP4 AND SWAP2 POP POP SWAP3 SWAP2 POP POP JUMP JUMPDEST PUSH1 0x0 PUSH2 0x866 DUP4 DUP4 PUSH2 0x83C JUMP JUMPDEST SWAP2 POP DUP3 PUSH1 0x2 MUL DUP3 OR SWAP1 POP SWAP3 SWAP2 POP POP JUMP JUMPDEST PUSH2 0x87F DUP3 PUSH2 0x4D8 JUMP JUMPDEST PUSH8 0xFFFFFFFFFFFFFFFF DUP2 GT ISZERO PUSH2 0x898 JUMPI PUSH2 0x897 PUSH2 0x33E JUMP JUMPDEST JUMPDEST PUSH2 0x8A2 DUP3 SLOAD PUSH2 0x699 JUMP JUMPDEST PUSH2 0x8AD DUP3 DUP3 DUP6 PUSH2 0x7E9 JUMP JUMPDEST PUSH1 0x0 PUSH1 0x20 SWAP1 POP PUSH1 0x1F DUP4 GT PUSH1 0x1 DUP2 EQ PUSH2 0x8E0 JUMPI PUSH1 0x0 DUP5 ISZERO PUSH2 0x8CE JUMPI DUP3 DUP8 ADD MLOAD SWAP1 POP JUMPDEST PUSH2 0x8D8 DUP6 DUP3 PUSH2 0x85A JUMP JUMPDEST DUP7 SSTORE POP PUSH2 0x940 JUMP JUMPDEST PUSH1 0x1F NOT DUP5 AND PUSH2 0x8EE DUP7 PUSH2 0x6CA JUMP JUMPDEST PUSH1 0x0 JUMPDEST DUP3 DUP2 LT ISZERO PUSH2 0x916 JUMPI DUP5 DUP10 ADD MLOAD DUP3 SSTORE PUSH1 0x1 DUP3 ADD SWAP2 POP PUSH1 0x20 DUP6 ADD SWAP5 POP PUSH1 0x20 DUP2 ADD SWAP1 POP PUSH2 0x8F1 JUMP JUMPDEST DUP7 DUP4 LT ISZERO PUSH2 0x933 JUMPI DUP5 DUP10 ADD MLOAD PUSH2 0x92F PUSH1 0x1F DUP10 AND DUP3 PUSH2 0x83C JUMP JUMPDEST DUP4 SSTORE POP JUMPDEST PUSH1 0x1 PUSH1 0x2 DUP9 MUL ADD DUP9 SSTORE POP POP POP JUMPDEST POP POP POP POP POP POP JUMP INVALID LOG2 PUSH5 0x6970667358 0x22 SLT KECCAK256 ADDRESS 0xC2 0xD0 0xDB 0xCD 0xA8 0xE0 PUSH3 0xFCD1BF 0xF PUSH17 0xFCCC3CC2056E775FAEDE4AB2F52D8B1F19 0xBB 0xC4 PUSH5 0x736F6C6343 STOP ADDMOD SLT STOP CALLER "
				},
				"gasEstimates": {
					"creation": {
						"codeDepositCost": "486000",
						"executionCost": "518",
						"totalCost": "486518"
					},
					"external": {
						"getBrithday(uint256)": "infinite",
						"getStudent(uint256)": "infinite",
						"pushStudent(string,uint256,uint256)": "infinite"
					}
				},
				"methodIdentifiers": {
					"getBrithday(uint256)": "18878137",
					"getStudent(uint256)": "642f9163",
					"pushStudent(string,uint256,uint256)": "562ca543"
				}
			},
			"storageLayout": {
				"storage": [
					{
						"astId": 12,
						"contract": "contracts/230508/1_Struct.sol:Struct",
						"label": "students",
						"offset": 0,
						"slot": "0",
						"type": "t_array(t_struct(Student)8_storage)dyn_storage"
					}
				],
				"types": {
					"t_array(t_struct(Student)8_storage)dyn_storage": {
						"base": "t_struct(Student)8_storage",
						"encoding": "dynamic_array",
						"label": "struct Struct.Student[]",
						"numberOfBytes": "32"
					},
					"t_string_storage": {
						"encoding": "bytes",
						"label": "string",
						"numberOfBytes": "32"
					},
					"t_struct(Student)8_storage": {
						"encoding": "inplace",
						"label": "struct Struct.Student",
						"members": [
							{
								"astId": 3,
								"contract": "contracts/230508/1_Struct.sol:Struct",
								"label": "name",
								"offset": 0,
								"slot": "0",
								"type": "t_string_storage"
							},
							{
								"astId": 5,
								"contract": "contracts/230508/1_Struct.sol:Struct",
								"label": "birthday",
								"offset": 0,
								"slot": "1",
								"type": "t_uint256"
							},
							{
								"astId": 7,
								"contract": "contracts/230508/1_Struct.sol:Struct",
								"label": "number",
								"offset": 0,
								"slot": "2",
								"type": "t_uint256"
							}
						],
						"numberOfBytes": "96"
					},
					"t_uint256": {
						"encoding": "inplace",
						"label": "uint256",
						"numberOfBytes": "32"
					}
				}
			},
			"userdoc": {
				"kind": "user",
				"methods": {},
				"version": 1
			}
		}
	}
}