{
	"data": {
		"bytecode": {
			"linkReferences": {},
			"object": "608060405234801561001057600080fd5b506104c2806100206000396000f3fe608060405234801561001057600080fd5b506004361061004c5760003560e01c806321055acb146100515780633fb5c1cb1461006f578063cacac6711461008b578063f2c9ecd814610095575b600080fd5b6100596100b3565b60405161006691906101f9565b60405180910390f35b61008960048036038101906100849190610245565b6100bd565b005b61009361011d565b005b61009d610188565b6040516100aa9190610330565b60405180910390f35b6000600154905090565b6064811161011a5760005b818110156101185760006001826100df9190610381565b90806001815401808255809150506001900390600052602060002001600090919091909150558080610110906103b5565b9150506100c8565b505b50565b6000805b60008054905081101561016d5760008181548110610142576101416103fd565b5b9060005260206000200154826101589190610381565b91508080610165906103b5565b915050610121565b506000805490508161017f919061045b565b60018190555050565b606060008054806020026020016040519081016040528092919081815260200182805480156101d657602002820191906000526020600020905b8154815260200190600101908083116101c2575b5050505050905090565b6000819050919050565b6101f3816101e0565b82525050565b600060208201905061020e60008301846101ea565b92915050565b600080fd5b610222816101e0565b811461022d57600080fd5b50565b60008135905061023f81610219565b92915050565b60006020828403121561025b5761025a610214565b5b600061026984828501610230565b91505092915050565b600081519050919050565b600082825260208201905092915050565b6000819050602082019050919050565b6102a7816101e0565b82525050565b60006102b9838361029e565b60208301905092915050565b6000602082019050919050565b60006102dd82610272565b6102e7818561027d565b93506102f28361028e565b8060005b8381101561032357815161030a88826102ad565b9750610315836102c5565b9250506001810190506102f6565b5085935050505092915050565b6000602082019050818103600083015261034a81846102d2565b905092915050565b7f4e487b7100000000000000000000000000000000000000000000000000000000600052601160045260246000fd5b600061038c826101e0565b9150610397836101e0565b92508282019050808211156103af576103ae610352565b5b92915050565b60006103c0826101e0565b91507fffffffffffffffffffffffffffffffffffffffffffffffffffffffffffffffff82036103f2576103f1610352565b5b600182019050919050565b7f4e487b7100000000000000000000000000000000000000000000000000000000600052603260045260246000fd5b7f4e487b7100000000000000000000000000000000000000000000000000000000600052601260045260246000fd5b6000610466826101e0565b9150610471836101e0565b9250826104815761048061042c565b5b82820490509291505056fea26469706673582212202e2fe1f1c2453c4a41592366914c32d514d4ad21bf96b3930602035e5526334264736f6c63430008120033",
			"opcodes": "PUSH1 0x80 PUSH1 0x40 MSTORE CALLVALUE DUP1 ISZERO PUSH2 0x10 JUMPI PUSH1 0x0 DUP1 REVERT JUMPDEST POP PUSH2 0x4C2 DUP1 PUSH2 0x20 PUSH1 0x0 CODECOPY PUSH1 0x0 RETURN INVALID PUSH1 0x80 PUSH1 0x40 MSTORE CALLVALUE DUP1 ISZERO PUSH2 0x10 JUMPI PUSH1 0x0 DUP1 REVERT JUMPDEST POP PUSH1 0x4 CALLDATASIZE LT PUSH2 0x4C JUMPI PUSH1 0x0 CALLDATALOAD PUSH1 0xE0 SHR DUP1 PUSH4 0x21055ACB EQ PUSH2 0x51 JUMPI DUP1 PUSH4 0x3FB5C1CB EQ PUSH2 0x6F JUMPI DUP1 PUSH4 0xCACAC671 EQ PUSH2 0x8B JUMPI DUP1 PUSH4 0xF2C9ECD8 EQ PUSH2 0x95 JUMPI JUMPDEST PUSH1 0x0 DUP1 REVERT JUMPDEST PUSH2 0x59 PUSH2 0xB3 JUMP JUMPDEST PUSH1 0x40 MLOAD PUSH2 0x66 SWAP2 SWAP1 PUSH2 0x1F9 JUMP JUMPDEST PUSH1 0x40 MLOAD DUP1 SWAP2 SUB SWAP1 RETURN JUMPDEST PUSH2 0x89 PUSH1 0x4 DUP1 CALLDATASIZE SUB DUP2 ADD SWAP1 PUSH2 0x84 SWAP2 SWAP1 PUSH2 0x245 JUMP JUMPDEST PUSH2 0xBD JUMP JUMPDEST STOP JUMPDEST PUSH2 0x93 PUSH2 0x11D JUMP JUMPDEST STOP JUMPDEST PUSH2 0x9D PUSH2 0x188 JUMP JUMPDEST PUSH1 0x40 MLOAD PUSH2 0xAA SWAP2 SWAP1 PUSH2 0x330 JUMP JUMPDEST PUSH1 0x40 MLOAD DUP1 SWAP2 SUB SWAP1 RETURN JUMPDEST PUSH1 0x0 PUSH1 0x1 SLOAD SWAP1 POP SWAP1 JUMP JUMPDEST PUSH1 0x64 DUP2 GT PUSH2 0x11A JUMPI PUSH1 0x0 JUMPDEST DUP2 DUP2 LT ISZERO PUSH2 0x118 JUMPI PUSH1 0x0 PUSH1 0x1 DUP3 PUSH2 0xDF SWAP2 SWAP1 PUSH2 0x381 JUMP JUMPDEST SWAP1 DUP1 PUSH1 0x1 DUP2 SLOAD ADD DUP1 DUP3 SSTORE DUP1 SWAP2 POP POP PUSH1 0x1 SWAP1 SUB SWAP1 PUSH1 0x0 MSTORE PUSH1 0x20 PUSH1 0x0 KECCAK256 ADD PUSH1 0x0 SWAP1 SWAP2 SWAP1 SWAP2 SWAP1 SWAP2 POP SSTORE DUP1 DUP1 PUSH2 0x110 SWAP1 PUSH2 0x3B5 JUMP JUMPDEST SWAP2 POP POP PUSH2 0xC8 JUMP JUMPDEST POP JUMPDEST POP JUMP JUMPDEST PUSH1 0x0 DUP1 JUMPDEST PUSH1 0x0 DUP1 SLOAD SWAP1 POP DUP2 LT ISZERO PUSH2 0x16D JUMPI PUSH1 0x0 DUP2 DUP2 SLOAD DUP2 LT PUSH2 0x142 JUMPI PUSH2 0x141 PUSH2 0x3FD JUMP JUMPDEST JUMPDEST SWAP1 PUSH1 0x0 MSTORE PUSH1 0x20 PUSH1 0x0 KECCAK256 ADD SLOAD DUP3 PUSH2 0x158 SWAP2 SWAP1 PUSH2 0x381 JUMP JUMPDEST SWAP2 POP DUP1 DUP1 PUSH2 0x165 SWAP1 PUSH2 0x3B5 JUMP JUMPDEST SWAP2 POP POP PUSH2 0x121 JUMP JUMPDEST POP PUSH1 0x0 DUP1 SLOAD SWAP1 POP DUP2 PUSH2 0x17F SWAP2 SWAP1 PUSH2 0x45B JUMP JUMPDEST PUSH1 0x1 DUP2 SWAP1 SSTORE POP POP JUMP JUMPDEST PUSH1 0x60 PUSH1 0x0 DUP1 SLOAD DUP1 PUSH1 0x20 MUL PUSH1 0x20 ADD PUSH1 0x40 MLOAD SWAP1 DUP2 ADD PUSH1 0x40 MSTORE DUP1 SWAP3 SWAP2 SWAP1 DUP2 DUP2 MSTORE PUSH1 0x20 ADD DUP3 DUP1 SLOAD DUP1 ISZERO PUSH2 0x1D6 JUMPI PUSH1 0x20 MUL DUP3 ADD SWAP2 SWAP1 PUSH1 0x0 MSTORE PUSH1 0x20 PUSH1 0x0 KECCAK256 SWAP1 JUMPDEST DUP2 SLOAD DUP2 MSTORE PUSH1 0x20 ADD SWAP1 PUSH1 0x1 ADD SWAP1 DUP1 DUP4 GT PUSH2 0x1C2 JUMPI JUMPDEST POP POP POP POP POP SWAP1 POP SWAP1 JUMP JUMPDEST PUSH1 0x0 DUP2 SWAP1 POP SWAP2 SWAP1 POP JUMP JUMPDEST PUSH2 0x1F3 DUP2 PUSH2 0x1E0 JUMP JUMPDEST DUP3 MSTORE POP POP JUMP JUMPDEST PUSH1 0x0 PUSH1 0x20 DUP3 ADD SWAP1 POP PUSH2 0x20E PUSH1 0x0 DUP4 ADD DUP5 PUSH2 0x1EA JUMP JUMPDEST SWAP3 SWAP2 POP POP JUMP JUMPDEST PUSH1 0x0 DUP1 REVERT JUMPDEST PUSH2 0x222 DUP2 PUSH2 0x1E0 JUMP JUMPDEST DUP2 EQ PUSH2 0x22D JUMPI PUSH1 0x0 DUP1 REVERT JUMPDEST POP JUMP JUMPDEST PUSH1 0x0 DUP2 CALLDATALOAD SWAP1 POP PUSH2 0x23F DUP2 PUSH2 0x219 JUMP JUMPDEST SWAP3 SWAP2 POP POP JUMP JUMPDEST PUSH1 0x0 PUSH1 0x20 DUP3 DUP5 SUB SLT ISZERO PUSH2 0x25B JUMPI PUSH2 0x25A PUSH2 0x214 JUMP JUMPDEST JUMPDEST PUSH1 0x0 PUSH2 0x269 DUP5 DUP3 DUP6 ADD PUSH2 0x230 JUMP JUMPDEST SWAP2 POP POP SWAP3 SWAP2 POP POP JUMP JUMPDEST PUSH1 0x0 DUP2 MLOAD SWAP1 POP SWAP2 SWAP1 POP JUMP JUMPDEST PUSH1 0x0 DUP3 DUP3 MSTORE PUSH1 0x20 DUP3 ADD SWAP1 POP SWAP3 SWAP2 POP POP JUMP JUMPDEST PUSH1 0x0 DUP2 SWAP1 POP PUSH1 0x20 DUP3 ADD SWAP1 POP SWAP2 SWAP1 POP JUMP JUMPDEST PUSH2 0x2A7 DUP2 PUSH2 0x1E0 JUMP JUMPDEST DUP3 MSTORE POP POP JUMP JUMPDEST PUSH1 0x0 PUSH2 0x2B9 DUP4 DUP4 PUSH2 0x29E JUMP JUMPDEST PUSH1 0x20 DUP4 ADD SWAP1 POP SWAP3 SWAP2 POP POP JUMP JUMPDEST PUSH1 0x0 PUSH1 0x20 DUP3 ADD SWAP1 POP SWAP2 SWAP1 POP JUMP JUMPDEST PUSH1 0x0 PUSH2 0x2DD DUP3 PUSH2 0x272 JUMP JUMPDEST PUSH2 0x2E7 DUP2 DUP6 PUSH2 0x27D JUMP JUMPDEST SWAP4 POP PUSH2 0x2F2 DUP4 PUSH2 0x28E JUMP JUMPDEST DUP1 PUSH1 0x0 JUMPDEST DUP4 DUP2 LT ISZERO PUSH2 0x323 JUMPI DUP2 MLOAD PUSH2 0x30A DUP9 DUP3 PUSH2 0x2AD JUMP JUMPDEST SWAP8 POP PUSH2 0x315 DUP4 PUSH2 0x2C5 JUMP JUMPDEST SWAP3 POP POP PUSH1 0x1 DUP2 ADD SWAP1 POP PUSH2 0x2F6 JUMP JUMPDEST POP DUP6 SWAP4 POP POP POP POP SWAP3 SWAP2 POP POP JUMP JUMPDEST PUSH1 0x0 PUSH1 0x20 DUP3 ADD SWAP1 POP DUP2 DUP2 SUB PUSH1 0x0 DUP4 ADD MSTORE PUSH2 0x34A DUP2 DUP5 PUSH2 0x2D2 JUMP JUMPDEST SWAP1 POP SWAP3 SWAP2 POP POP JUMP JUMPDEST PUSH32 0x4E487B7100000000000000000000000000000000000000000000000000000000 PUSH1 0x0 MSTORE PUSH1 0x11 PUSH1 0x4 MSTORE PUSH1 0x24 PUSH1 0x0 REVERT JUMPDEST PUSH1 0x0 PUSH2 0x38C DUP3 PUSH2 0x1E0 JUMP JUMPDEST SWAP2 POP PUSH2 0x397 DUP4 PUSH2 0x1E0 JUMP JUMPDEST SWAP3 POP DUP3 DUP3 ADD SWAP1 POP DUP1 DUP3 GT ISZERO PUSH2 0x3AF JUMPI PUSH2 0x3AE PUSH2 0x352 JUMP JUMPDEST JUMPDEST SWAP3 SWAP2 POP POP JUMP JUMPDEST PUSH1 0x0 PUSH2 0x3C0 DUP3 PUSH2 0x1E0 JUMP JUMPDEST SWAP2 POP PUSH32 0xFFFFFFFFFFFFFFFFFFFFFFFFFFFFFFFFFFFFFFFFFFFFFFFFFFFFFFFFFFFFFFFF DUP3 SUB PUSH2 0x3F2 JUMPI PUSH2 0x3F1 PUSH2 0x352 JUMP JUMPDEST JUMPDEST PUSH1 0x1 DUP3 ADD SWAP1 POP SWAP2 SWAP1 POP JUMP JUMPDEST PUSH32 0x4E487B7100000000000000000000000000000000000000000000000000000000 PUSH1 0x0 MSTORE PUSH1 0x32 PUSH1 0x4 MSTORE PUSH1 0x24 PUSH1 0x0 REVERT JUMPDEST PUSH32 0x4E487B7100000000000000000000000000000000000000000000000000000000 PUSH1 0x0 MSTORE PUSH1 0x12 PUSH1 0x4 MSTORE PUSH1 0x24 PUSH1 0x0 REVERT JUMPDEST PUSH1 0x0 PUSH2 0x466 DUP3 PUSH2 0x1E0 JUMP JUMPDEST SWAP2 POP PUSH2 0x471 DUP4 PUSH2 0x1E0 JUMP JUMPDEST SWAP3 POP DUP3 PUSH2 0x481 JUMPI PUSH2 0x480 PUSH2 0x42C JUMP JUMPDEST JUMPDEST DUP3 DUP3 DIV SWAP1 POP SWAP3 SWAP2 POP POP JUMP INVALID LOG2 PUSH5 0x6970667358 0x22 SLT KECCAK256 0x2E 0x2F 0xE1 CALL 0xC2 GASLIMIT EXTCODECOPY 0x4A COINBASE MSIZE 0x23 PUSH7 0x914C32D514D4AD 0x21 0xBF SWAP7 0xB3 SWAP4 MOD MUL SUB 0x5E SSTORE 0x26 CALLER TIMESTAMP PUSH5 0x736F6C6343 STOP ADDMOD SLT STOP CALLER "
		},
		"gasEstimates": {
			"creation": {
				"codeDepositCost": "243600",
				"executionCost": "287",
				"totalCost": "243887"
			},
			"external": {
				"getAverage()": "2415",
				"getNumber()": "infinite",
				"setAverage()": "infinite",
				"setNumber(uint256)": "infinite"
			}
		},
		"methodIdentifiers": {
			"getAverage()": "21055acb",
			"getNumber()": "f2c9ecd8",
			"setAverage()": "cacac671",
			"setNumber(uint256)": "3fb5c1cb"
		}
	},
	"abi": [
		{
			"inputs": [],
			"name": "getAverage",
			"outputs": [
				{
					"internalType": "uint256",
					"name": "",
					"type": "uint256"
				}
			],
			"stateMutability": "view",
			"type": "function"
		},
		{
			"inputs": [],
			"name": "getNumber",
			"outputs": [
				{
					"internalType": "uint256[]",
					"name": "",
					"type": "uint256[]"
				}
			],
			"stateMutability": "view",
			"type": "function"
		},
		{
			"inputs": [],
			"name": "setAverage",
			"outputs": [],
			"stateMutability": "nonpayable",
			"type": "function"
		},
		{
			"inputs": [
				{
					"internalType": "uint256",
					"name": "_number",
					"type": "uint256"
				}
			],
			"name": "setNumber",
			"outputs": [],
			"stateMutability": "nonpayable",
			"type": "function"
		}
	]
}