{
	"data": {
		"bytecode": {
			"linkReferences": {},
			"object": "608060405234801561001057600080fd5b5030600260006101000a81548173ffffffffffffffffffffffffffffffffffffffff021916908373ffffffffffffffffffffffffffffffffffffffff16021790555061100e806100616000396000f3fe608060405234801561001057600080fd5b506004361061004c5760003560e01c806398950b3b14610051578063b0467deb1461006d578063b5e8a4471461009d578063d0020fad146100b9575b600080fd5b61006b60048036038101906100669190610802565b6100d5565b005b61008760048036038101906100829190610802565b6102bd565b6040516100949190610985565b60405180910390f35b6100b760048036038101906100b29190610802565b61040b565b005b6100d360048036038101906100ce9190610adc565b610678565b005b600a60006001836100e69190610b54565b815481106100f7576100f6610b88565b5b90600052602060002090600502016004015411610149576040517f08c379a000000000000000000000000000000000000000000000000000000000815260040161014090610c3a565b60405180910390fd5b6014600060018361015a9190610b54565b8154811061016b5761016a610b88565b5b9060005260206000209060050201600401541061022057601460006001836101939190610b54565b815481106101a4576101a3610b88565b5b906000526020600020906005020160040160008282546101c49190610b54565b925050819055506702c68af0bb14000060006001836101e39190610b54565b815481106101f4576101f3610b88565b5b906000526020600020906005020160030160008282546102149190610c5a565b925050819055506102ba565b600a60006001836102319190610b54565b8154811061024257610241610b88565b5b906000526020600020906005020160040160008282546102629190610b54565b9250508190555067016345785d8a000060006001836102819190610b54565b8154811061029257610291610b88565b5b906000526020600020906005020160030160008282546102b29190610c5a565b925050819055505b50565b6102c5610773565b60006001836102d49190610b54565b815481106102e5576102e4610b88565b5b90600052602060002090600502016040518060a00160405290816000820154815260200160018201805461031890610cbd565b80601f016020809104026020016040519081016040528092919081815260200182805461034490610cbd565b80156103915780601f1061036657610100808354040283529160200191610391565b820191906000526020600020905b81548152906001019060200180831161037457829003601f168201915b505050505081526020016002820160009054906101000a900473ffffffffffffffffffffffffffffffffffffffff1673ffffffffffffffffffffffffffffffffffffffff1673ffffffffffffffffffffffffffffffffffffffff168152602001600382015481526020016004820154815250509050919050565b600560015410610450576040517f08c379a000000000000000000000000000000000000000000000000000000000815260040161044790610d3a565b60405180910390fd5b662386f26fc1000060006001836104679190610b54565b8154811061047857610477610b88565b5b906000526020600020906005020160030160008282546104989190610b54565b92505081905550600260009054906101000a900473ffffffffffffffffffffffffffffffffffffffff1673ffffffffffffffffffffffffffffffffffffffff166108fc662386f26fc100009081150290604051600060405180830381858888f1935050505015801561050e573d6000803e3d6000fd5b50600180540361056657600460006001836105299190610b54565b8154811061053a57610539610b88565b5b9060005260206000209060050201600401600082825461055a9190610c5a565b92505081905550610675565b6002600154036105be57600360006001836105819190610b54565b8154811061059257610591610b88565b5b906000526020600020906005020160040160008282546105b29190610c5a565b92505081905550610674565b60036001540361061657600260006001836105d99190610b54565b815481106105ea576105e9610b88565b5b9060005260206000209060050201600401600082825461060a9190610c5a565b92505081905550610673565b60046001540361067257600160006001836106319190610b54565b8154811061064257610641610b88565b5b906000526020600020906005020160040160008282546106629190610c5a565b9250508190555060006001819055505b5b5b5b50565b60006040518060a0016040528060016000805490506106979190610c5a565b81526020018381526020013373ffffffffffffffffffffffffffffffffffffffff16815260200160008152602001600081525090806001815401808255809150506001900390600052602060002090600502016000909190919091506000820151816000015560208201518160010190816107129190610f06565b5060408201518160020160006101000a81548173ffffffffffffffffffffffffffffffffffffffff021916908373ffffffffffffffffffffffffffffffffffffffff1602179055506060820151816003015560808201518160040155505050565b6040518060a001604052806000815260200160608152602001600073ffffffffffffffffffffffffffffffffffffffff16815260200160008152602001600081525090565b6000604051905090565b600080fd5b600080fd5b6000819050919050565b6107df816107cc565b81146107ea57600080fd5b50565b6000813590506107fc816107d6565b92915050565b600060208284031215610818576108176107c2565b5b6000610826848285016107ed565b91505092915050565b610838816107cc565b82525050565b600081519050919050565b600082825260208201905092915050565b60005b8381101561087857808201518184015260208101905061085d565b60008484015250505050565b6000601f19601f8301169050919050565b60006108a08261083e565b6108aa8185610849565b93506108ba81856020860161085a565b6108c381610884565b840191505092915050565b600073ffffffffffffffffffffffffffffffffffffffff82169050919050565b60006108f9826108ce565b9050919050565b610909816108ee565b82525050565b600060a083016000830151610927600086018261082f565b506020830151848203602086015261093f8282610895565b91505060408301516109546040860182610900565b506060830151610967606086018261082f565b50608083015161097a608086018261082f565b508091505092915050565b6000602082019050818103600083015261099f818461090f565b905092915050565b600080fd5b600080fd5b7f4e487b7100000000000000000000000000000000000000000000000000000000600052604160045260246000fd5b6109e982610884565b810181811067ffffffffffffffff82111715610a0857610a076109b1565b5b80604052505050565b6000610a1b6107b8565b9050610a2782826109e0565b919050565b600067ffffffffffffffff821115610a4757610a466109b1565b5b610a5082610884565b9050602081019050919050565b82818337600083830152505050565b6000610a7f610a7a84610a2c565b610a11565b905082815260208101848484011115610a9b57610a9a6109ac565b5b610aa6848285610a5d565b509392505050565b600082601f830112610ac357610ac26109a7565b5b8135610ad3848260208601610a6c565b91505092915050565b600060208284031215610af257610af16107c2565b5b600082013567ffffffffffffffff811115610b1057610b0f6107c7565b5b610b1c84828501610aae565b91505092915050565b7f4e487b7100000000000000000000000000000000000000000000000000000000600052601160045260246000fd5b6000610b5f826107cc565b9150610b6a836107cc565b9250828203905081811115610b8257610b81610b25565b5b92915050565b7f4e487b7100000000000000000000000000000000000000000000000000000000600052603260045260246000fd5b600082825260208201905092915050565b7f496620796f752077616e7420746f206368616e6765206d6f6e65792c20796f7560008201527f206e65656420746f20686176652031302073636f726573206174206c65617374602082015250565b6000610c24604083610bb7565b9150610c2f82610bc8565b604082019050919050565b60006020820190508181036000830152610c5381610c17565b9050919050565b6000610c65826107cc565b9150610c70836107cc565b9250828201905080821115610c8857610c87610b25565b5b92915050565b7f4e487b7100000000000000000000000000000000000000000000000000000000600052602260045260246000fd5b60006002820490506001821680610cd557607f821691505b602082108103610ce857610ce7610c8e565b5b50919050565b7f6d6178696d756d206e756d626572206f662070656f706c652069732034000000600082015250565b6000610d24601d83610bb7565b9150610d2f82610cee565b602082019050919050565b60006020820190508181036000830152610d5381610d17565b9050919050565b60008190508160005260206000209050919050565b60006020601f8301049050919050565b600082821b905092915050565b600060088302610dbc7fffffffffffffffffffffffffffffffffffffffffffffffffffffffffffffffff82610d7f565b610dc68683610d7f565b95508019841693508086168417925050509392505050565b6000819050919050565b6000610e03610dfe610df9846107cc565b610dde565b6107cc565b9050919050565b6000819050919050565b610e1d83610de8565b610e31610e2982610e0a565b848454610d8c565b825550505050565b600090565b610e46610e39565b610e51818484610e14565b505050565b5b81811015610e7557610e6a600082610e3e565b600181019050610e57565b5050565b601f821115610eba57610e8b81610d5a565b610e9484610d6f565b81016020851015610ea3578190505b610eb7610eaf85610d6f565b830182610e56565b50505b505050565b600082821c905092915050565b6000610edd60001984600802610ebf565b1980831691505092915050565b6000610ef68383610ecc565b9150826002028217905092915050565b610f0f8261083e565b67ffffffffffffffff811115610f2857610f276109b1565b5b610f328254610cbd565b610f3d828285610e79565b600060209050601f831160018114610f705760008415610f5e578287015190505b610f688582610eea565b865550610fd0565b601f198416610f7e86610d5a565b60005b82811015610fa657848901518255600182019150602085019450602081019050610f81565b86831015610fc35784890151610fbf601f891682610ecc565b8355505b6001600288020188555050505b50505050505056fea2646970667358221220af3b2ed1ddabdcff4ab004c3a2f08ebf7ce7943b7dc9cb1f3534a495878160cb64736f6c63430008120033",
			"opcodes": "PUSH1 0x80 PUSH1 0x40 MSTORE CALLVALUE DUP1 ISZERO PUSH2 0x10 JUMPI PUSH1 0x0 DUP1 REVERT JUMPDEST POP ADDRESS PUSH1 0x2 PUSH1 0x0 PUSH2 0x100 EXP DUP2 SLOAD DUP2 PUSH20 0xFFFFFFFFFFFFFFFFFFFFFFFFFFFFFFFFFFFFFFFF MUL NOT AND SWAP1 DUP4 PUSH20 0xFFFFFFFFFFFFFFFFFFFFFFFFFFFFFFFFFFFFFFFF AND MUL OR SWAP1 SSTORE POP PUSH2 0x100E DUP1 PUSH2 0x61 PUSH1 0x0 CODECOPY PUSH1 0x0 RETURN INVALID PUSH1 0x80 PUSH1 0x40 MSTORE CALLVALUE DUP1 ISZERO PUSH2 0x10 JUMPI PUSH1 0x0 DUP1 REVERT JUMPDEST POP PUSH1 0x4 CALLDATASIZE LT PUSH2 0x4C JUMPI PUSH1 0x0 CALLDATALOAD PUSH1 0xE0 SHR DUP1 PUSH4 0x98950B3B EQ PUSH2 0x51 JUMPI DUP1 PUSH4 0xB0467DEB EQ PUSH2 0x6D JUMPI DUP1 PUSH4 0xB5E8A447 EQ PUSH2 0x9D JUMPI DUP1 PUSH4 0xD0020FAD EQ PUSH2 0xB9 JUMPI JUMPDEST PUSH1 0x0 DUP1 REVERT JUMPDEST PUSH2 0x6B PUSH1 0x4 DUP1 CALLDATASIZE SUB DUP2 ADD SWAP1 PUSH2 0x66 SWAP2 SWAP1 PUSH2 0x802 JUMP JUMPDEST PUSH2 0xD5 JUMP JUMPDEST STOP JUMPDEST PUSH2 0x87 PUSH1 0x4 DUP1 CALLDATASIZE SUB DUP2 ADD SWAP1 PUSH2 0x82 SWAP2 SWAP1 PUSH2 0x802 JUMP JUMPDEST PUSH2 0x2BD JUMP JUMPDEST PUSH1 0x40 MLOAD PUSH2 0x94 SWAP2 SWAP1 PUSH2 0x985 JUMP JUMPDEST PUSH1 0x40 MLOAD DUP1 SWAP2 SUB SWAP1 RETURN JUMPDEST PUSH2 0xB7 PUSH1 0x4 DUP1 CALLDATASIZE SUB DUP2 ADD SWAP1 PUSH2 0xB2 SWAP2 SWAP1 PUSH2 0x802 JUMP JUMPDEST PUSH2 0x40B JUMP JUMPDEST STOP JUMPDEST PUSH2 0xD3 PUSH1 0x4 DUP1 CALLDATASIZE SUB DUP2 ADD SWAP1 PUSH2 0xCE SWAP2 SWAP1 PUSH2 0xADC JUMP JUMPDEST PUSH2 0x678 JUMP JUMPDEST STOP JUMPDEST PUSH1 0xA PUSH1 0x0 PUSH1 0x1 DUP4 PUSH2 0xE6 SWAP2 SWAP1 PUSH2 0xB54 JUMP JUMPDEST DUP2 SLOAD DUP2 LT PUSH2 0xF7 JUMPI PUSH2 0xF6 PUSH2 0xB88 JUMP JUMPDEST JUMPDEST SWAP1 PUSH1 0x0 MSTORE PUSH1 0x20 PUSH1 0x0 KECCAK256 SWAP1 PUSH1 0x5 MUL ADD PUSH1 0x4 ADD SLOAD GT PUSH2 0x149 JUMPI PUSH1 0x40 MLOAD PUSH32 0x8C379A000000000000000000000000000000000000000000000000000000000 DUP2 MSTORE PUSH1 0x4 ADD PUSH2 0x140 SWAP1 PUSH2 0xC3A JUMP JUMPDEST PUSH1 0x40 MLOAD DUP1 SWAP2 SUB SWAP1 REVERT JUMPDEST PUSH1 0x14 PUSH1 0x0 PUSH1 0x1 DUP4 PUSH2 0x15A SWAP2 SWAP1 PUSH2 0xB54 JUMP JUMPDEST DUP2 SLOAD DUP2 LT PUSH2 0x16B JUMPI PUSH2 0x16A PUSH2 0xB88 JUMP JUMPDEST JUMPDEST SWAP1 PUSH1 0x0 MSTORE PUSH1 0x20 PUSH1 0x0 KECCAK256 SWAP1 PUSH1 0x5 MUL ADD PUSH1 0x4 ADD SLOAD LT PUSH2 0x220 JUMPI PUSH1 0x14 PUSH1 0x0 PUSH1 0x1 DUP4 PUSH2 0x193 SWAP2 SWAP1 PUSH2 0xB54 JUMP JUMPDEST DUP2 SLOAD DUP2 LT PUSH2 0x1A4 JUMPI PUSH2 0x1A3 PUSH2 0xB88 JUMP JUMPDEST JUMPDEST SWAP1 PUSH1 0x0 MSTORE PUSH1 0x20 PUSH1 0x0 KECCAK256 SWAP1 PUSH1 0x5 MUL ADD PUSH1 0x4 ADD PUSH1 0x0 DUP3 DUP3 SLOAD PUSH2 0x1C4 SWAP2 SWAP1 PUSH2 0xB54 JUMP JUMPDEST SWAP3 POP POP DUP2 SWAP1 SSTORE POP PUSH8 0x2C68AF0BB140000 PUSH1 0x0 PUSH1 0x1 DUP4 PUSH2 0x1E3 SWAP2 SWAP1 PUSH2 0xB54 JUMP JUMPDEST DUP2 SLOAD DUP2 LT PUSH2 0x1F4 JUMPI PUSH2 0x1F3 PUSH2 0xB88 JUMP JUMPDEST JUMPDEST SWAP1 PUSH1 0x0 MSTORE PUSH1 0x20 PUSH1 0x0 KECCAK256 SWAP1 PUSH1 0x5 MUL ADD PUSH1 0x3 ADD PUSH1 0x0 DUP3 DUP3 SLOAD PUSH2 0x214 SWAP2 SWAP1 PUSH2 0xC5A JUMP JUMPDEST SWAP3 POP POP DUP2 SWAP1 SSTORE POP PUSH2 0x2BA JUMP JUMPDEST PUSH1 0xA PUSH1 0x0 PUSH1 0x1 DUP4 PUSH2 0x231 SWAP2 SWAP1 PUSH2 0xB54 JUMP JUMPDEST DUP2 SLOAD DUP2 LT PUSH2 0x242 JUMPI PUSH2 0x241 PUSH2 0xB88 JUMP JUMPDEST JUMPDEST SWAP1 PUSH1 0x0 MSTORE PUSH1 0x20 PUSH1 0x0 KECCAK256 SWAP1 PUSH1 0x5 MUL ADD PUSH1 0x4 ADD PUSH1 0x0 DUP3 DUP3 SLOAD PUSH2 0x262 SWAP2 SWAP1 PUSH2 0xB54 JUMP JUMPDEST SWAP3 POP POP DUP2 SWAP1 SSTORE POP PUSH8 0x16345785D8A0000 PUSH1 0x0 PUSH1 0x1 DUP4 PUSH2 0x281 SWAP2 SWAP1 PUSH2 0xB54 JUMP JUMPDEST DUP2 SLOAD DUP2 LT PUSH2 0x292 JUMPI PUSH2 0x291 PUSH2 0xB88 JUMP JUMPDEST JUMPDEST SWAP1 PUSH1 0x0 MSTORE PUSH1 0x20 PUSH1 0x0 KECCAK256 SWAP1 PUSH1 0x5 MUL ADD PUSH1 0x3 ADD PUSH1 0x0 DUP3 DUP3 SLOAD PUSH2 0x2B2 SWAP2 SWAP1 PUSH2 0xC5A JUMP JUMPDEST SWAP3 POP POP DUP2 SWAP1 SSTORE POP JUMPDEST POP JUMP JUMPDEST PUSH2 0x2C5 PUSH2 0x773 JUMP JUMPDEST PUSH1 0x0 PUSH1 0x1 DUP4 PUSH2 0x2D4 SWAP2 SWAP1 PUSH2 0xB54 JUMP JUMPDEST DUP2 SLOAD DUP2 LT PUSH2 0x2E5 JUMPI PUSH2 0x2E4 PUSH2 0xB88 JUMP JUMPDEST JUMPDEST SWAP1 PUSH1 0x0 MSTORE PUSH1 0x20 PUSH1 0x0 KECCAK256 SWAP1 PUSH1 0x5 MUL ADD PUSH1 0x40 MLOAD DUP1 PUSH1 0xA0 ADD PUSH1 0x40 MSTORE SWAP1 DUP2 PUSH1 0x0 DUP3 ADD SLOAD DUP2 MSTORE PUSH1 0x20 ADD PUSH1 0x1 DUP3 ADD DUP1 SLOAD PUSH2 0x318 SWAP1 PUSH2 0xCBD JUMP JUMPDEST DUP1 PUSH1 0x1F ADD PUSH1 0x20 DUP1 SWAP2 DIV MUL PUSH1 0x20 ADD PUSH1 0x40 MLOAD SWAP1 DUP2 ADD PUSH1 0x40 MSTORE DUP1 SWAP3 SWAP2 SWAP1 DUP2 DUP2 MSTORE PUSH1 0x20 ADD DUP3 DUP1 SLOAD PUSH2 0x344 SWAP1 PUSH2 0xCBD JUMP JUMPDEST DUP1 ISZERO PUSH2 0x391 JUMPI DUP1 PUSH1 0x1F LT PUSH2 0x366 JUMPI PUSH2 0x100 DUP1 DUP4 SLOAD DIV MUL DUP4 MSTORE SWAP2 PUSH1 0x20 ADD SWAP2 PUSH2 0x391 JUMP JUMPDEST DUP3 ADD SWAP2 SWAP1 PUSH1 0x0 MSTORE PUSH1 0x20 PUSH1 0x0 KECCAK256 SWAP1 JUMPDEST DUP2 SLOAD DUP2 MSTORE SWAP1 PUSH1 0x1 ADD SWAP1 PUSH1 0x20 ADD DUP1 DUP4 GT PUSH2 0x374 JUMPI DUP3 SWAP1 SUB PUSH1 0x1F AND DUP3 ADD SWAP2 JUMPDEST POP POP POP POP POP DUP2 MSTORE PUSH1 0x20 ADD PUSH1 0x2 DUP3 ADD PUSH1 0x0 SWAP1 SLOAD SWAP1 PUSH2 0x100 EXP SWAP1 DIV PUSH20 0xFFFFFFFFFFFFFFFFFFFFFFFFFFFFFFFFFFFFFFFF AND PUSH20 0xFFFFFFFFFFFFFFFFFFFFFFFFFFFFFFFFFFFFFFFF AND PUSH20 0xFFFFFFFFFFFFFFFFFFFFFFFFFFFFFFFFFFFFFFFF AND DUP2 MSTORE PUSH1 0x20 ADD PUSH1 0x3 DUP3 ADD SLOAD DUP2 MSTORE PUSH1 0x20 ADD PUSH1 0x4 DUP3 ADD SLOAD DUP2 MSTORE POP POP SWAP1 POP SWAP2 SWAP1 POP JUMP JUMPDEST PUSH1 0x5 PUSH1 0x1 SLOAD LT PUSH2 0x450 JUMPI PUSH1 0x40 MLOAD PUSH32 0x8C379A000000000000000000000000000000000000000000000000000000000 DUP2 MSTORE PUSH1 0x4 ADD PUSH2 0x447 SWAP1 PUSH2 0xD3A JUMP JUMPDEST PUSH1 0x40 MLOAD DUP1 SWAP2 SUB SWAP1 REVERT JUMPDEST PUSH7 0x2386F26FC10000 PUSH1 0x0 PUSH1 0x1 DUP4 PUSH2 0x467 SWAP2 SWAP1 PUSH2 0xB54 JUMP JUMPDEST DUP2 SLOAD DUP2 LT PUSH2 0x478 JUMPI PUSH2 0x477 PUSH2 0xB88 JUMP JUMPDEST JUMPDEST SWAP1 PUSH1 0x0 MSTORE PUSH1 0x20 PUSH1 0x0 KECCAK256 SWAP1 PUSH1 0x5 MUL ADD PUSH1 0x3 ADD PUSH1 0x0 DUP3 DUP3 SLOAD PUSH2 0x498 SWAP2 SWAP1 PUSH2 0xB54 JUMP JUMPDEST SWAP3 POP POP DUP2 SWAP1 SSTORE POP PUSH1 0x2 PUSH1 0x0 SWAP1 SLOAD SWAP1 PUSH2 0x100 EXP SWAP1 DIV PUSH20 0xFFFFFFFFFFFFFFFFFFFFFFFFFFFFFFFFFFFFFFFF AND PUSH20 0xFFFFFFFFFFFFFFFFFFFFFFFFFFFFFFFFFFFFFFFF AND PUSH2 0x8FC PUSH7 0x2386F26FC10000 SWAP1 DUP2 ISZERO MUL SWAP1 PUSH1 0x40 MLOAD PUSH1 0x0 PUSH1 0x40 MLOAD DUP1 DUP4 SUB DUP2 DUP6 DUP9 DUP9 CALL SWAP4 POP POP POP POP ISZERO DUP1 ISZERO PUSH2 0x50E JUMPI RETURNDATASIZE PUSH1 0x0 DUP1 RETURNDATACOPY RETURNDATASIZE PUSH1 0x0 REVERT JUMPDEST POP PUSH1 0x1 DUP1 SLOAD SUB PUSH2 0x566 JUMPI PUSH1 0x4 PUSH1 0x0 PUSH1 0x1 DUP4 PUSH2 0x529 SWAP2 SWAP1 PUSH2 0xB54 JUMP JUMPDEST DUP2 SLOAD DUP2 LT PUSH2 0x53A JUMPI PUSH2 0x539 PUSH2 0xB88 JUMP JUMPDEST JUMPDEST SWAP1 PUSH1 0x0 MSTORE PUSH1 0x20 PUSH1 0x0 KECCAK256 SWAP1 PUSH1 0x5 MUL ADD PUSH1 0x4 ADD PUSH1 0x0 DUP3 DUP3 SLOAD PUSH2 0x55A SWAP2 SWAP1 PUSH2 0xC5A JUMP JUMPDEST SWAP3 POP POP DUP2 SWAP1 SSTORE POP PUSH2 0x675 JUMP JUMPDEST PUSH1 0x2 PUSH1 0x1 SLOAD SUB PUSH2 0x5BE JUMPI PUSH1 0x3 PUSH1 0x0 PUSH1 0x1 DUP4 PUSH2 0x581 SWAP2 SWAP1 PUSH2 0xB54 JUMP JUMPDEST DUP2 SLOAD DUP2 LT PUSH2 0x592 JUMPI PUSH2 0x591 PUSH2 0xB88 JUMP JUMPDEST JUMPDEST SWAP1 PUSH1 0x0 MSTORE PUSH1 0x20 PUSH1 0x0 KECCAK256 SWAP1 PUSH1 0x5 MUL ADD PUSH1 0x4 ADD PUSH1 0x0 DUP3 DUP3 SLOAD PUSH2 0x5B2 SWAP2 SWAP1 PUSH2 0xC5A JUMP JUMPDEST SWAP3 POP POP DUP2 SWAP1 SSTORE POP PUSH2 0x674 JUMP JUMPDEST PUSH1 0x3 PUSH1 0x1 SLOAD SUB PUSH2 0x616 JUMPI PUSH1 0x2 PUSH1 0x0 PUSH1 0x1 DUP4 PUSH2 0x5D9 SWAP2 SWAP1 PUSH2 0xB54 JUMP JUMPDEST DUP2 SLOAD DUP2 LT PUSH2 0x5EA JUMPI PUSH2 0x5E9 PUSH2 0xB88 JUMP JUMPDEST JUMPDEST SWAP1 PUSH1 0x0 MSTORE PUSH1 0x20 PUSH1 0x0 KECCAK256 SWAP1 PUSH1 0x5 MUL ADD PUSH1 0x4 ADD PUSH1 0x0 DUP3 DUP3 SLOAD PUSH2 0x60A SWAP2 SWAP1 PUSH2 0xC5A JUMP JUMPDEST SWAP3 POP POP DUP2 SWAP1 SSTORE POP PUSH2 0x673 JUMP JUMPDEST PUSH1 0x4 PUSH1 0x1 SLOAD SUB PUSH2 0x672 JUMPI PUSH1 0x1 PUSH1 0x0 PUSH1 0x1 DUP4 PUSH2 0x631 SWAP2 SWAP1 PUSH2 0xB54 JUMP JUMPDEST DUP2 SLOAD DUP2 LT PUSH2 0x642 JUMPI PUSH2 0x641 PUSH2 0xB88 JUMP JUMPDEST JUMPDEST SWAP1 PUSH1 0x0 MSTORE PUSH1 0x20 PUSH1 0x0 KECCAK256 SWAP1 PUSH1 0x5 MUL ADD PUSH1 0x4 ADD PUSH1 0x0 DUP3 DUP3 SLOAD PUSH2 0x662 SWAP2 SWAP1 PUSH2 0xC5A JUMP JUMPDEST SWAP3 POP POP DUP2 SWAP1 SSTORE POP PUSH1 0x0 PUSH1 0x1 DUP2 SWAP1 SSTORE POP JUMPDEST JUMPDEST JUMPDEST JUMPDEST POP JUMP JUMPDEST PUSH1 0x0 PUSH1 0x40 MLOAD DUP1 PUSH1 0xA0 ADD PUSH1 0x40 MSTORE DUP1 PUSH1 0x1 PUSH1 0x0 DUP1 SLOAD SWAP1 POP PUSH2 0x697 SWAP2 SWAP1 PUSH2 0xC5A JUMP JUMPDEST DUP2 MSTORE PUSH1 0x20 ADD DUP4 DUP2 MSTORE PUSH1 0x20 ADD CALLER PUSH20 0xFFFFFFFFFFFFFFFFFFFFFFFFFFFFFFFFFFFFFFFF AND DUP2 MSTORE PUSH1 0x20 ADD PUSH1 0x0 DUP2 MSTORE PUSH1 0x20 ADD PUSH1 0x0 DUP2 MSTORE POP SWAP1 DUP1 PUSH1 0x1 DUP2 SLOAD ADD DUP1 DUP3 SSTORE DUP1 SWAP2 POP POP PUSH1 0x1 SWAP1 SUB SWAP1 PUSH1 0x0 MSTORE PUSH1 0x20 PUSH1 0x0 KECCAK256 SWAP1 PUSH1 0x5 MUL ADD PUSH1 0x0 SWAP1 SWAP2 SWAP1 SWAP2 SWAP1 SWAP2 POP PUSH1 0x0 DUP3 ADD MLOAD DUP2 PUSH1 0x0 ADD SSTORE PUSH1 0x20 DUP3 ADD MLOAD DUP2 PUSH1 0x1 ADD SWAP1 DUP2 PUSH2 0x712 SWAP2 SWAP1 PUSH2 0xF06 JUMP JUMPDEST POP PUSH1 0x40 DUP3 ADD MLOAD DUP2 PUSH1 0x2 ADD PUSH1 0x0 PUSH2 0x100 EXP DUP2 SLOAD DUP2 PUSH20 0xFFFFFFFFFFFFFFFFFFFFFFFFFFFFFFFFFFFFFFFF MUL NOT AND SWAP1 DUP4 PUSH20 0xFFFFFFFFFFFFFFFFFFFFFFFFFFFFFFFFFFFFFFFF AND MUL OR SWAP1 SSTORE POP PUSH1 0x60 DUP3 ADD MLOAD DUP2 PUSH1 0x3 ADD SSTORE PUSH1 0x80 DUP3 ADD MLOAD DUP2 PUSH1 0x4 ADD SSTORE POP POP POP JUMP JUMPDEST PUSH1 0x40 MLOAD DUP1 PUSH1 0xA0 ADD PUSH1 0x40 MSTORE DUP1 PUSH1 0x0 DUP2 MSTORE PUSH1 0x20 ADD PUSH1 0x60 DUP2 MSTORE PUSH1 0x20 ADD PUSH1 0x0 PUSH20 0xFFFFFFFFFFFFFFFFFFFFFFFFFFFFFFFFFFFFFFFF AND DUP2 MSTORE PUSH1 0x20 ADD PUSH1 0x0 DUP2 MSTORE PUSH1 0x20 ADD PUSH1 0x0 DUP2 MSTORE POP SWAP1 JUMP JUMPDEST PUSH1 0x0 PUSH1 0x40 MLOAD SWAP1 POP SWAP1 JUMP JUMPDEST PUSH1 0x0 DUP1 REVERT JUMPDEST PUSH1 0x0 DUP1 REVERT JUMPDEST PUSH1 0x0 DUP2 SWAP1 POP SWAP2 SWAP1 POP JUMP JUMPDEST PUSH2 0x7DF DUP2 PUSH2 0x7CC JUMP JUMPDEST DUP2 EQ PUSH2 0x7EA JUMPI PUSH1 0x0 DUP1 REVERT JUMPDEST POP JUMP JUMPDEST PUSH1 0x0 DUP2 CALLDATALOAD SWAP1 POP PUSH2 0x7FC DUP2 PUSH2 0x7D6 JUMP JUMPDEST SWAP3 SWAP2 POP POP JUMP JUMPDEST PUSH1 0x0 PUSH1 0x20 DUP3 DUP5 SUB SLT ISZERO PUSH2 0x818 JUMPI PUSH2 0x817 PUSH2 0x7C2 JUMP JUMPDEST JUMPDEST PUSH1 0x0 PUSH2 0x826 DUP5 DUP3 DUP6 ADD PUSH2 0x7ED JUMP JUMPDEST SWAP2 POP POP SWAP3 SWAP2 POP POP JUMP JUMPDEST PUSH2 0x838 DUP2 PUSH2 0x7CC JUMP JUMPDEST DUP3 MSTORE POP POP JUMP JUMPDEST PUSH1 0x0 DUP2 MLOAD SWAP1 POP SWAP2 SWAP1 POP JUMP JUMPDEST PUSH1 0x0 DUP3 DUP3 MSTORE PUSH1 0x20 DUP3 ADD SWAP1 POP SWAP3 SWAP2 POP POP JUMP JUMPDEST PUSH1 0x0 JUMPDEST DUP4 DUP2 LT ISZERO PUSH2 0x878 JUMPI DUP1 DUP3 ADD MLOAD DUP2 DUP5 ADD MSTORE PUSH1 0x20 DUP2 ADD SWAP1 POP PUSH2 0x85D JUMP JUMPDEST PUSH1 0x0 DUP5 DUP5 ADD MSTORE POP POP POP POP JUMP JUMPDEST PUSH1 0x0 PUSH1 0x1F NOT PUSH1 0x1F DUP4 ADD AND SWAP1 POP SWAP2 SWAP1 POP JUMP JUMPDEST PUSH1 0x0 PUSH2 0x8A0 DUP3 PUSH2 0x83E JUMP JUMPDEST PUSH2 0x8AA DUP2 DUP6 PUSH2 0x849 JUMP JUMPDEST SWAP4 POP PUSH2 0x8BA DUP2 DUP6 PUSH1 0x20 DUP7 ADD PUSH2 0x85A JUMP JUMPDEST PUSH2 0x8C3 DUP2 PUSH2 0x884 JUMP JUMPDEST DUP5 ADD SWAP2 POP POP SWAP3 SWAP2 POP POP JUMP JUMPDEST PUSH1 0x0 PUSH20 0xFFFFFFFFFFFFFFFFFFFFFFFFFFFFFFFFFFFFFFFF DUP3 AND SWAP1 POP SWAP2 SWAP1 POP JUMP JUMPDEST PUSH1 0x0 PUSH2 0x8F9 DUP3 PUSH2 0x8CE JUMP JUMPDEST SWAP1 POP SWAP2 SWAP1 POP JUMP JUMPDEST PUSH2 0x909 DUP2 PUSH2 0x8EE JUMP JUMPDEST DUP3 MSTORE POP POP JUMP JUMPDEST PUSH1 0x0 PUSH1 0xA0 DUP4 ADD PUSH1 0x0 DUP4 ADD MLOAD PUSH2 0x927 PUSH1 0x0 DUP7 ADD DUP3 PUSH2 0x82F JUMP JUMPDEST POP PUSH1 0x20 DUP4 ADD MLOAD DUP5 DUP3 SUB PUSH1 0x20 DUP7 ADD MSTORE PUSH2 0x93F DUP3 DUP3 PUSH2 0x895 JUMP JUMPDEST SWAP2 POP POP PUSH1 0x40 DUP4 ADD MLOAD PUSH2 0x954 PUSH1 0x40 DUP7 ADD DUP3 PUSH2 0x900 JUMP JUMPDEST POP PUSH1 0x60 DUP4 ADD MLOAD PUSH2 0x967 PUSH1 0x60 DUP7 ADD DUP3 PUSH2 0x82F JUMP JUMPDEST POP PUSH1 0x80 DUP4 ADD MLOAD PUSH2 0x97A PUSH1 0x80 DUP7 ADD DUP3 PUSH2 0x82F JUMP JUMPDEST POP DUP1 SWAP2 POP POP SWAP3 SWAP2 POP POP JUMP JUMPDEST PUSH1 0x0 PUSH1 0x20 DUP3 ADD SWAP1 POP DUP2 DUP2 SUB PUSH1 0x0 DUP4 ADD MSTORE PUSH2 0x99F DUP2 DUP5 PUSH2 0x90F JUMP JUMPDEST SWAP1 POP SWAP3 SWAP2 POP POP JUMP JUMPDEST PUSH1 0x0 DUP1 REVERT JUMPDEST PUSH1 0x0 DUP1 REVERT JUMPDEST PUSH32 0x4E487B7100000000000000000000000000000000000000000000000000000000 PUSH1 0x0 MSTORE PUSH1 0x41 PUSH1 0x4 MSTORE PUSH1 0x24 PUSH1 0x0 REVERT JUMPDEST PUSH2 0x9E9 DUP3 PUSH2 0x884 JUMP JUMPDEST DUP2 ADD DUP2 DUP2 LT PUSH8 0xFFFFFFFFFFFFFFFF DUP3 GT OR ISZERO PUSH2 0xA08 JUMPI PUSH2 0xA07 PUSH2 0x9B1 JUMP JUMPDEST JUMPDEST DUP1 PUSH1 0x40 MSTORE POP POP POP JUMP JUMPDEST PUSH1 0x0 PUSH2 0xA1B PUSH2 0x7B8 JUMP JUMPDEST SWAP1 POP PUSH2 0xA27 DUP3 DUP3 PUSH2 0x9E0 JUMP JUMPDEST SWAP2 SWAP1 POP JUMP JUMPDEST PUSH1 0x0 PUSH8 0xFFFFFFFFFFFFFFFF DUP3 GT ISZERO PUSH2 0xA47 JUMPI PUSH2 0xA46 PUSH2 0x9B1 JUMP JUMPDEST JUMPDEST PUSH2 0xA50 DUP3 PUSH2 0x884 JUMP JUMPDEST SWAP1 POP PUSH1 0x20 DUP2 ADD SWAP1 POP SWAP2 SWAP1 POP JUMP JUMPDEST DUP3 DUP2 DUP4 CALLDATACOPY PUSH1 0x0 DUP4 DUP4 ADD MSTORE POP POP POP JUMP JUMPDEST PUSH1 0x0 PUSH2 0xA7F PUSH2 0xA7A DUP5 PUSH2 0xA2C JUMP JUMPDEST PUSH2 0xA11 JUMP JUMPDEST SWAP1 POP DUP3 DUP2 MSTORE PUSH1 0x20 DUP2 ADD DUP5 DUP5 DUP5 ADD GT ISZERO PUSH2 0xA9B JUMPI PUSH2 0xA9A PUSH2 0x9AC JUMP JUMPDEST JUMPDEST PUSH2 0xAA6 DUP5 DUP3 DUP6 PUSH2 0xA5D JUMP JUMPDEST POP SWAP4 SWAP3 POP POP POP JUMP JUMPDEST PUSH1 0x0 DUP3 PUSH1 0x1F DUP4 ADD SLT PUSH2 0xAC3 JUMPI PUSH2 0xAC2 PUSH2 0x9A7 JUMP JUMPDEST JUMPDEST DUP2 CALLDATALOAD PUSH2 0xAD3 DUP5 DUP3 PUSH1 0x20 DUP7 ADD PUSH2 0xA6C JUMP JUMPDEST SWAP2 POP POP SWAP3 SWAP2 POP POP JUMP JUMPDEST PUSH1 0x0 PUSH1 0x20 DUP3 DUP5 SUB SLT ISZERO PUSH2 0xAF2 JUMPI PUSH2 0xAF1 PUSH2 0x7C2 JUMP JUMPDEST JUMPDEST PUSH1 0x0 DUP3 ADD CALLDATALOAD PUSH8 0xFFFFFFFFFFFFFFFF DUP2 GT ISZERO PUSH2 0xB10 JUMPI PUSH2 0xB0F PUSH2 0x7C7 JUMP JUMPDEST JUMPDEST PUSH2 0xB1C DUP5 DUP3 DUP6 ADD PUSH2 0xAAE JUMP JUMPDEST SWAP2 POP POP SWAP3 SWAP2 POP POP JUMP JUMPDEST PUSH32 0x4E487B7100000000000000000000000000000000000000000000000000000000 PUSH1 0x0 MSTORE PUSH1 0x11 PUSH1 0x4 MSTORE PUSH1 0x24 PUSH1 0x0 REVERT JUMPDEST PUSH1 0x0 PUSH2 0xB5F DUP3 PUSH2 0x7CC JUMP JUMPDEST SWAP2 POP PUSH2 0xB6A DUP4 PUSH2 0x7CC JUMP JUMPDEST SWAP3 POP DUP3 DUP3 SUB SWAP1 POP DUP2 DUP2 GT ISZERO PUSH2 0xB82 JUMPI PUSH2 0xB81 PUSH2 0xB25 JUMP JUMPDEST JUMPDEST SWAP3 SWAP2 POP POP JUMP JUMPDEST PUSH32 0x4E487B7100000000000000000000000000000000000000000000000000000000 PUSH1 0x0 MSTORE PUSH1 0x32 PUSH1 0x4 MSTORE PUSH1 0x24 PUSH1 0x0 REVERT JUMPDEST PUSH1 0x0 DUP3 DUP3 MSTORE PUSH1 0x20 DUP3 ADD SWAP1 POP SWAP3 SWAP2 POP POP JUMP JUMPDEST PUSH32 0x496620796F752077616E7420746F206368616E6765206D6F6E65792C20796F75 PUSH1 0x0 DUP3 ADD MSTORE PUSH32 0x206E65656420746F20686176652031302073636F726573206174206C65617374 PUSH1 0x20 DUP3 ADD MSTORE POP JUMP JUMPDEST PUSH1 0x0 PUSH2 0xC24 PUSH1 0x40 DUP4 PUSH2 0xBB7 JUMP JUMPDEST SWAP2 POP PUSH2 0xC2F DUP3 PUSH2 0xBC8 JUMP JUMPDEST PUSH1 0x40 DUP3 ADD SWAP1 POP SWAP2 SWAP1 POP JUMP JUMPDEST PUSH1 0x0 PUSH1 0x20 DUP3 ADD SWAP1 POP DUP2 DUP2 SUB PUSH1 0x0 DUP4 ADD MSTORE PUSH2 0xC53 DUP2 PUSH2 0xC17 JUMP JUMPDEST SWAP1 POP SWAP2 SWAP1 POP JUMP JUMPDEST PUSH1 0x0 PUSH2 0xC65 DUP3 PUSH2 0x7CC JUMP JUMPDEST SWAP2 POP PUSH2 0xC70 DUP4 PUSH2 0x7CC JUMP JUMPDEST SWAP3 POP DUP3 DUP3 ADD SWAP1 POP DUP1 DUP3 GT ISZERO PUSH2 0xC88 JUMPI PUSH2 0xC87 PUSH2 0xB25 JUMP JUMPDEST JUMPDEST SWAP3 SWAP2 POP POP JUMP JUMPDEST PUSH32 0x4E487B7100000000000000000000000000000000000000000000000000000000 PUSH1 0x0 MSTORE PUSH1 0x22 PUSH1 0x4 MSTORE PUSH1 0x24 PUSH1 0x0 REVERT JUMPDEST PUSH1 0x0 PUSH1 0x2 DUP3 DIV SWAP1 POP PUSH1 0x1 DUP3 AND DUP1 PUSH2 0xCD5 JUMPI PUSH1 0x7F DUP3 AND SWAP2 POP JUMPDEST PUSH1 0x20 DUP3 LT DUP2 SUB PUSH2 0xCE8 JUMPI PUSH2 0xCE7 PUSH2 0xC8E JUMP JUMPDEST JUMPDEST POP SWAP2 SWAP1 POP JUMP JUMPDEST PUSH32 0x6D6178696D756D206E756D626572206F662070656F706C652069732034000000 PUSH1 0x0 DUP3 ADD MSTORE POP JUMP JUMPDEST PUSH1 0x0 PUSH2 0xD24 PUSH1 0x1D DUP4 PUSH2 0xBB7 JUMP JUMPDEST SWAP2 POP PUSH2 0xD2F DUP3 PUSH2 0xCEE JUMP JUMPDEST PUSH1 0x20 DUP3 ADD SWAP1 POP SWAP2 SWAP1 POP JUMP JUMPDEST PUSH1 0x0 PUSH1 0x20 DUP3 ADD SWAP1 POP DUP2 DUP2 SUB PUSH1 0x0 DUP4 ADD MSTORE PUSH2 0xD53 DUP2 PUSH2 0xD17 JUMP JUMPDEST SWAP1 POP SWAP2 SWAP1 POP JUMP JUMPDEST PUSH1 0x0 DUP2 SWAP1 POP DUP2 PUSH1 0x0 MSTORE PUSH1 0x20 PUSH1 0x0 KECCAK256 SWAP1 POP SWAP2 SWAP1 POP JUMP JUMPDEST PUSH1 0x0 PUSH1 0x20 PUSH1 0x1F DUP4 ADD DIV SWAP1 POP SWAP2 SWAP1 POP JUMP JUMPDEST PUSH1 0x0 DUP3 DUP3 SHL SWAP1 POP SWAP3 SWAP2 POP POP JUMP JUMPDEST PUSH1 0x0 PUSH1 0x8 DUP4 MUL PUSH2 0xDBC PUSH32 0xFFFFFFFFFFFFFFFFFFFFFFFFFFFFFFFFFFFFFFFFFFFFFFFFFFFFFFFFFFFFFFFF DUP3 PUSH2 0xD7F JUMP JUMPDEST PUSH2 0xDC6 DUP7 DUP4 PUSH2 0xD7F JUMP JUMPDEST SWAP6 POP DUP1 NOT DUP5 AND SWAP4 POP DUP1 DUP7 AND DUP5 OR SWAP3 POP POP POP SWAP4 SWAP3 POP POP POP JUMP JUMPDEST PUSH1 0x0 DUP2 SWAP1 POP SWAP2 SWAP1 POP JUMP JUMPDEST PUSH1 0x0 PUSH2 0xE03 PUSH2 0xDFE PUSH2 0xDF9 DUP5 PUSH2 0x7CC JUMP JUMPDEST PUSH2 0xDDE JUMP JUMPDEST PUSH2 0x7CC JUMP JUMPDEST SWAP1 POP SWAP2 SWAP1 POP JUMP JUMPDEST PUSH1 0x0 DUP2 SWAP1 POP SWAP2 SWAP1 POP JUMP JUMPDEST PUSH2 0xE1D DUP4 PUSH2 0xDE8 JUMP JUMPDEST PUSH2 0xE31 PUSH2 0xE29 DUP3 PUSH2 0xE0A JUMP JUMPDEST DUP5 DUP5 SLOAD PUSH2 0xD8C JUMP JUMPDEST DUP3 SSTORE POP POP POP POP JUMP JUMPDEST PUSH1 0x0 SWAP1 JUMP JUMPDEST PUSH2 0xE46 PUSH2 0xE39 JUMP JUMPDEST PUSH2 0xE51 DUP2 DUP5 DUP5 PUSH2 0xE14 JUMP JUMPDEST POP POP POP JUMP JUMPDEST JUMPDEST DUP2 DUP2 LT ISZERO PUSH2 0xE75 JUMPI PUSH2 0xE6A PUSH1 0x0 DUP3 PUSH2 0xE3E JUMP JUMPDEST PUSH1 0x1 DUP2 ADD SWAP1 POP PUSH2 0xE57 JUMP JUMPDEST POP POP JUMP JUMPDEST PUSH1 0x1F DUP3 GT ISZERO PUSH2 0xEBA JUMPI PUSH2 0xE8B DUP2 PUSH2 0xD5A JUMP JUMPDEST PUSH2 0xE94 DUP5 PUSH2 0xD6F JUMP JUMPDEST DUP2 ADD PUSH1 0x20 DUP6 LT ISZERO PUSH2 0xEA3 JUMPI DUP2 SWAP1 POP JUMPDEST PUSH2 0xEB7 PUSH2 0xEAF DUP6 PUSH2 0xD6F JUMP JUMPDEST DUP4 ADD DUP3 PUSH2 0xE56 JUMP JUMPDEST POP POP JUMPDEST POP POP POP JUMP JUMPDEST PUSH1 0x0 DUP3 DUP3 SHR SWAP1 POP SWAP3 SWAP2 POP POP JUMP JUMPDEST PUSH1 0x0 PUSH2 0xEDD PUSH1 0x0 NOT DUP5 PUSH1 0x8 MUL PUSH2 0xEBF JUMP JUMPDEST NOT DUP1 DUP4 AND SWAP2 POP POP SWAP3 SWAP2 POP POP JUMP JUMPDEST PUSH1 0x0 PUSH2 0xEF6 DUP4 DUP4 PUSH2 0xECC JUMP JUMPDEST SWAP2 POP DUP3 PUSH1 0x2 MUL DUP3 OR SWAP1 POP SWAP3 SWAP2 POP POP JUMP JUMPDEST PUSH2 0xF0F DUP3 PUSH2 0x83E JUMP JUMPDEST PUSH8 0xFFFFFFFFFFFFFFFF DUP2 GT ISZERO PUSH2 0xF28 JUMPI PUSH2 0xF27 PUSH2 0x9B1 JUMP JUMPDEST JUMPDEST PUSH2 0xF32 DUP3 SLOAD PUSH2 0xCBD JUMP JUMPDEST PUSH2 0xF3D DUP3 DUP3 DUP6 PUSH2 0xE79 JUMP JUMPDEST PUSH1 0x0 PUSH1 0x20 SWAP1 POP PUSH1 0x1F DUP4 GT PUSH1 0x1 DUP2 EQ PUSH2 0xF70 JUMPI PUSH1 0x0 DUP5 ISZERO PUSH2 0xF5E JUMPI DUP3 DUP8 ADD MLOAD SWAP1 POP JUMPDEST PUSH2 0xF68 DUP6 DUP3 PUSH2 0xEEA JUMP JUMPDEST DUP7 SSTORE POP PUSH2 0xFD0 JUMP JUMPDEST PUSH1 0x1F NOT DUP5 AND PUSH2 0xF7E DUP7 PUSH2 0xD5A JUMP JUMPDEST PUSH1 0x0 JUMPDEST DUP3 DUP2 LT ISZERO PUSH2 0xFA6 JUMPI DUP5 DUP10 ADD MLOAD DUP3 SSTORE PUSH1 0x1 DUP3 ADD SWAP2 POP PUSH1 0x20 DUP6 ADD SWAP5 POP PUSH1 0x20 DUP2 ADD SWAP1 POP PUSH2 0xF81 JUMP JUMPDEST DUP7 DUP4 LT ISZERO PUSH2 0xFC3 JUMPI DUP5 DUP10 ADD MLOAD PUSH2 0xFBF PUSH1 0x1F DUP10 AND DUP3 PUSH2 0xECC JUMP JUMPDEST DUP4 SSTORE POP JUMPDEST PUSH1 0x1 PUSH1 0x2 DUP9 MUL ADD DUP9 SSTORE POP POP POP JUMPDEST POP POP POP POP POP POP JUMP INVALID LOG2 PUSH5 0x6970667358 0x22 SLT KECCAK256 0xAF EXTCODESIZE 0x2E 0xD1 0xDD 0xAB 0xDC SELFDESTRUCT 0x4A 0xB0 DIV 0xC3 LOG2 CREATE DUP15 0xBF PUSH29 0xE7943B7DC9CB1F3534A495878160CB64736F6C63430008120033000000 "
		},
		"gasEstimates": {
			"creation": {
				"codeDepositCost": "822000",
				"executionCost": "25123",
				"totalCost": "847123"
			},
			"external": {
				"GameStart(uint256)": "infinite",
				"changeScoreToMoney(uint256)": "infinite",
				"getUser(uint256)": "infinite",
				"setUser(string)": "infinite"
			}
		},
		"methodIdentifiers": {
			"GameStart(uint256)": "b5e8a447",
			"changeScoreToMoney(uint256)": "98950b3b",
			"getUser(uint256)": "b0467deb",
			"setUser(string)": "d0020fad"
		}
	},
	"abi": [
		{
			"inputs": [],
			"stateMutability": "nonpayable",
			"type": "constructor"
		},
		{
			"inputs": [
				{
					"internalType": "uint256",
					"name": "_n",
					"type": "uint256"
				}
			],
			"name": "GameStart",
			"outputs": [],
			"stateMutability": "nonpayable",
			"type": "function"
		},
		{
			"inputs": [
				{
					"internalType": "uint256",
					"name": "_n",
					"type": "uint256"
				}
			],
			"name": "changeScoreToMoney",
			"outputs": [],
			"stateMutability": "nonpayable",
			"type": "function"
		},
		{
			"inputs": [
				{
					"internalType": "uint256",
					"name": "_n",
					"type": "uint256"
				}
			],
			"name": "getUser",
			"outputs": [
				{
					"components": [
						{
							"internalType": "uint256",
							"name": "number",
							"type": "uint256"
						},
						{
							"internalType": "string",
							"name": "name",
							"type": "string"
						},
						{
							"internalType": "address",
							"name": "ad",
							"type": "address"
						},
						{
							"internalType": "uint256",
							"name": "balance",
							"type": "uint256"
						},
						{
							"internalType": "uint256",
							"name": "score",
							"type": "uint256"
						}
					],
					"internalType": "struct codingTest.User",
					"name": "",
					"type": "tuple"
				}
			],
			"stateMutability": "view",
			"type": "function"
		},
		{
			"inputs": [
				{
					"internalType": "string",
					"name": "_name",
					"type": "string"
				}
			],
			"name": "setUser",
			"outputs": [],
			"stateMutability": "nonpayable",
			"type": "function"
		}
	]
}