{
	"contracts/230510/999_quiz.sol": {
		"quiz2": {
			"abi": [
				{
					"inputs": [
						{
							"internalType": "string",
							"name": "_teacher",
							"type": "string"
						}
					],
					"name": "getAllStudent",
					"outputs": [
						{
							"components": [
								{
									"internalType": "string",
									"name": "name",
									"type": "string"
								},
								{
									"internalType": "uint256",
									"name": "math",
									"type": "uint256"
								},
								{
									"internalType": "uint256",
									"name": "english",
									"type": "uint256"
								},
								{
									"internalType": "uint256",
									"name": "korean",
									"type": "uint256"
								},
								{
									"internalType": "uint256",
									"name": "average",
									"type": "uint256"
								}
							],
							"internalType": "struct quiz2.Student[]",
							"name": "",
							"type": "tuple[]"
						}
					],
					"stateMutability": "view",
					"type": "function"
				},
				{
					"inputs": [
						{
							"internalType": "string",
							"name": "_teacher",
							"type": "string"
						},
						{
							"internalType": "string",
							"name": "_student",
							"type": "string"
						},
						{
							"internalType": "uint256",
							"name": "_math",
							"type": "uint256"
						},
						{
							"internalType": "uint256",
							"name": "_english",
							"type": "uint256"
						},
						{
							"internalType": "uint256",
							"name": "_korean",
							"type": "uint256"
						}
					],
					"name": "setTeacherStudent",
					"outputs": [],
					"stateMutability": "nonpayable",
					"type": "function"
				}
			],
			"devdoc": {
				"kind": "dev",
				"methods": {},
				"version": 1
			},
			"evm": {
				"assembly": "    /* \"contracts/230510/999_quiz.sol\":1091:1759  contract quiz2 {... */\n  mstore(0x40, 0x80)\n  callvalue\n  dup1\n  iszero\n  tag_1\n  jumpi\n  0x00\n  dup1\n  revert\ntag_1:\n  pop\n  dataSize(sub_0)\n  dup1\n  dataOffset(sub_0)\n  0x00\n  codecopy\n  0x00\n  return\nstop\n\nsub_0: assembly {\n        /* \"contracts/230510/999_quiz.sol\":1091:1759  contract quiz2 {... */\n      mstore(0x40, 0x80)\n      callvalue\n      dup1\n      iszero\n      tag_1\n      jumpi\n      0x00\n      dup1\n      revert\n    tag_1:\n      pop\n      jumpi(tag_2, lt(calldatasize, 0x04))\n      shr(0xe0, calldataload(0x00))\n      dup1\n      0x15428442\n      eq\n      tag_3\n      jumpi\n      dup1\n      0x2720532a\n      eq\n      tag_4\n      jumpi\n    tag_2:\n      0x00\n      dup1\n      revert\n        /* \"contracts/230510/999_quiz.sol\":1627:1756  function getAllStudent(string memory _teacher) public view returns (Student[] memory) {... */\n    tag_3:\n      tag_5\n      0x04\n      dup1\n      calldatasize\n      sub\n      dup2\n      add\n      swap1\n      tag_6\n      swap2\n      swap1\n      tag_7\n      jump\t// in\n    tag_6:\n      tag_8\n      jump\t// in\n    tag_5:\n      mload(0x40)\n      tag_9\n      swap2\n      swap1\n      tag_10\n      jump\t// in\n    tag_9:\n      mload(0x40)\n      dup1\n      swap2\n      sub\n      swap1\n      return\n        /* \"contracts/230510/999_quiz.sol\":1299:1619  function setTeacherStudent(string memory _teacher, string memory _student, uint _math, uint _english, uint _korean) public {... */\n    tag_4:\n      tag_11\n      0x04\n      dup1\n      calldatasize\n      sub\n      dup2\n      add\n      swap1\n      tag_12\n      swap2\n      swap1\n      tag_13\n      jump\t// in\n    tag_12:\n      tag_14\n      jump\t// in\n    tag_11:\n      stop\n        /* \"contracts/230510/999_quiz.sol\":1627:1756  function getAllStudent(string memory _teacher) public view returns (Student[] memory) {... */\n    tag_8:\n        /* \"contracts/230510/999_quiz.sol\":1695:1711  Student[] memory */\n      0x60\n        /* \"contracts/230510/999_quiz.sol\":1731:1738  classes */\n      0x00\n        /* \"contracts/230510/999_quiz.sol\":1739:1747  _teacher */\n      dup3\n        /* \"contracts/230510/999_quiz.sol\":1731:1748  classes[_teacher] */\n      mload(0x40)\n      tag_16\n      swap2\n      swap1\n      tag_17\n      jump\t// in\n    tag_16:\n      swap1\n      dup2\n      mstore\n      0x20\n      add\n      mload(0x40)\n      dup1\n      swap2\n      sub\n      swap1\n      keccak256\n        /* \"contracts/230510/999_quiz.sol\":1724:1748  return classes[_teacher] */\n      dup1\n      sload\n      dup1\n      0x20\n      mul\n      0x20\n      add\n      mload(0x40)\n      swap1\n      dup2\n      add\n      0x40\n      mstore\n      dup1\n      swap3\n      swap2\n      swap1\n      dup2\n      dup2\n      mstore\n      0x20\n      add\n      0x00\n      swap1\n    tag_18:\n      dup3\n      dup3\n      lt\n      iszero\n      tag_19\n      jumpi\n      dup4\n      dup3\n      swap1\n      0x00\n      mstore\n      keccak256(0x00, 0x20)\n      swap1\n      0x05\n      mul\n      add\n      mload(0x40)\n      dup1\n      0xa0\n      add\n      0x40\n      mstore\n      swap1\n      dup2\n      0x00\n      dup3\n      add\n      dup1\n      sload\n      tag_21\n      swap1\n      tag_22\n      jump\t// in\n    tag_21:\n      dup1\n      0x1f\n      add\n      0x20\n      dup1\n      swap2\n      div\n      mul\n      0x20\n      add\n      mload(0x40)\n      swap1\n      dup2\n      add\n      0x40\n      mstore\n      dup1\n      swap3\n      swap2\n      swap1\n      dup2\n      dup2\n      mstore\n      0x20\n      add\n      dup3\n      dup1\n      sload\n      tag_23\n      swap1\n      tag_22\n      jump\t// in\n    tag_23:\n      dup1\n      iszero\n      tag_24\n      jumpi\n      dup1\n      0x1f\n      lt\n      tag_25\n      jumpi\n      0x0100\n      dup1\n      dup4\n      sload\n      div\n      mul\n      dup4\n      mstore\n      swap2\n      0x20\n      add\n      swap2\n      jump(tag_24)\n    tag_25:\n      dup3\n      add\n      swap2\n      swap1\n      0x00\n      mstore\n      keccak256(0x00, 0x20)\n      swap1\n    tag_26:\n      dup2\n      sload\n      dup2\n      mstore\n      swap1\n      0x01\n      add\n      swap1\n      0x20\n      add\n      dup1\n      dup4\n      gt\n      tag_26\n      jumpi\n      dup3\n      swap1\n      sub\n      0x1f\n      and\n      dup3\n      add\n      swap2\n    tag_24:\n      pop\n      pop\n      pop\n      pop\n      pop\n      dup2\n      mstore\n      0x20\n      add\n      0x01\n      dup3\n      add\n      sload\n      dup2\n      mstore\n      0x20\n      add\n      0x02\n      dup3\n      add\n      sload\n      dup2\n      mstore\n      0x20\n      add\n      0x03\n      dup3\n      add\n      sload\n      dup2\n      mstore\n      0x20\n      add\n      0x04\n      dup3\n      add\n      sload\n      dup2\n      mstore\n      pop\n      pop\n      dup2\n      mstore\n      0x20\n      add\n      swap1\n      0x01\n      add\n      swap1\n      jump(tag_18)\n    tag_19:\n      pop\n      pop\n      pop\n      pop\n      swap1\n      pop\n        /* \"contracts/230510/999_quiz.sol\":1627:1756  function getAllStudent(string memory _teacher) public view returns (Student[] memory) {... */\n      swap2\n      swap1\n      pop\n      jump\t// out\n        /* \"contracts/230510/999_quiz.sol\":1299:1619  function setTeacherStudent(string memory _teacher, string memory _student, uint _math, uint _english, uint _korean) public {... */\n    tag_14:\n        /* \"contracts/230510/999_quiz.sol\":1433:1441  uint sum */\n      0x00\n        /* \"contracts/230510/999_quiz.sol\":1481:1488  _korean */\n      dup2\n        /* \"contracts/230510/999_quiz.sol\":1470:1478  _english */\n      dup4\n        /* \"contracts/230510/999_quiz.sol\":1462:1467  _math */\n      dup6\n        /* \"contracts/230510/999_quiz.sol\":1462:1478  _math + _english */\n      tag_28\n      swap2\n      swap1\n      tag_29\n      jump\t// in\n    tag_28:\n        /* \"contracts/230510/999_quiz.sol\":1462:1488  _math + _english + _korean */\n      tag_30\n      swap2\n      swap1\n      tag_29\n      jump\t// in\n    tag_30:\n        /* \"contracts/230510/999_quiz.sol\":1456:1488  sum = _math + _english + _korean */\n      swap1\n      pop\n        /* \"contracts/230510/999_quiz.sol\":1499:1512  uint _average */\n      0x00\n        /* \"contracts/230510/999_quiz.sol\":1522:1523  3 */\n      0x03\n        /* \"contracts/230510/999_quiz.sol\":1515:1523  sum /= 3 */\n      dup3\n      tag_31\n      swap2\n      swap1\n      tag_32\n      jump\t// in\n    tag_31:\n      swap2\n      pop\n      dup2\n        /* \"contracts/230510/999_quiz.sol\":1499:1523  uint _average = sum /= 3 */\n      swap1\n      pop\n        /* \"contracts/230510/999_quiz.sol\":1534:1541  classes */\n      0x00\n        /* \"contracts/230510/999_quiz.sol\":1542:1550  _teacher */\n      dup8\n        /* \"contracts/230510/999_quiz.sol\":1534:1551  classes[_teacher] */\n      mload(0x40)\n      tag_33\n      swap2\n      swap1\n      tag_17\n      jump\t// in\n    tag_33:\n      swap1\n      dup2\n      mstore\n      0x20\n      add\n      mload(0x40)\n      dup1\n      swap2\n      sub\n      swap1\n      keccak256\n        /* \"contracts/230510/999_quiz.sol\":1557:1610  Student(_student, _math, _english, _korean, _average) */\n      mload(0x40)\n      dup1\n      0xa0\n      add\n      0x40\n      mstore\n      dup1\n        /* \"contracts/230510/999_quiz.sol\":1565:1573  _student */\n      dup9\n        /* \"contracts/230510/999_quiz.sol\":1557:1610  Student(_student, _math, _english, _korean, _average) */\n      dup2\n      mstore\n      0x20\n      add\n        /* \"contracts/230510/999_quiz.sol\":1575:1580  _math */\n      dup8\n        /* \"contracts/230510/999_quiz.sol\":1557:1610  Student(_student, _math, _english, _korean, _average) */\n      dup2\n      mstore\n      0x20\n      add\n        /* \"contracts/230510/999_quiz.sol\":1582:1590  _english */\n      dup7\n        /* \"contracts/230510/999_quiz.sol\":1557:1610  Student(_student, _math, _english, _korean, _average) */\n      dup2\n      mstore\n      0x20\n      add\n        /* \"contracts/230510/999_quiz.sol\":1592:1599  _korean */\n      dup6\n        /* \"contracts/230510/999_quiz.sol\":1557:1610  Student(_student, _math, _english, _korean, _average) */\n      dup2\n      mstore\n      0x20\n      add\n        /* \"contracts/230510/999_quiz.sol\":1601:1609  _average */\n      dup4\n        /* \"contracts/230510/999_quiz.sol\":1557:1610  Student(_student, _math, _english, _korean, _average) */\n      dup2\n      mstore\n      pop\n        /* \"contracts/230510/999_quiz.sol\":1534:1611  classes[_teacher].push(Student(_student, _math, _english, _korean, _average)) */\n      swap1\n      dup1\n      0x01\n      dup2\n      sload\n      add\n      dup1\n      dup3\n      sstore\n      dup1\n      swap2\n      pop\n      pop\n      0x01\n      swap1\n      sub\n      swap1\n      0x00\n      mstore\n      keccak256(0x00, 0x20)\n      swap1\n      0x05\n      mul\n      add\n      0x00\n      swap1\n      swap2\n      swap1\n      swap2\n      swap1\n      swap2\n      pop\n      0x00\n      dup3\n      add\n      mload\n      dup2\n      0x00\n      add\n      swap1\n      dup2\n      tag_35\n      swap2\n      swap1\n      tag_36\n      jump\t// in\n    tag_35:\n      pop\n      0x20\n      dup3\n      add\n      mload\n      dup2\n      0x01\n      add\n      sstore\n      0x40\n      dup3\n      add\n      mload\n      dup2\n      0x02\n      add\n      sstore\n      0x60\n      dup3\n      add\n      mload\n      dup2\n      0x03\n      add\n      sstore\n      0x80\n      dup3\n      add\n      mload\n      dup2\n      0x04\n      add\n      sstore\n      pop\n      pop\n        /* \"contracts/230510/999_quiz.sol\":1422:1619  {... */\n      pop\n      pop\n        /* \"contracts/230510/999_quiz.sol\":1299:1619  function setTeacherStudent(string memory _teacher, string memory _student, uint _math, uint _english, uint _korean) public {... */\n      pop\n      pop\n      pop\n      pop\n      pop\n      jump\t// out\n        /* \"#utility.yul\":7:82   */\n    tag_37:\n        /* \"#utility.yul\":40:46   */\n      0x00\n        /* \"#utility.yul\":73:75   */\n      0x40\n        /* \"#utility.yul\":67:76   */\n      mload\n        /* \"#utility.yul\":57:76   */\n      swap1\n      pop\n        /* \"#utility.yul\":7:82   */\n      swap1\n      jump\t// out\n        /* \"#utility.yul\":88:205   */\n    tag_38:\n        /* \"#utility.yul\":197:198   */\n      0x00\n        /* \"#utility.yul\":194:195   */\n      dup1\n        /* \"#utility.yul\":187:199   */\n      revert\n        /* \"#utility.yul\":211:328   */\n    tag_39:\n        /* \"#utility.yul\":320:321   */\n      0x00\n        /* \"#utility.yul\":317:318   */\n      dup1\n        /* \"#utility.yul\":310:322   */\n      revert\n        /* \"#utility.yul\":334:451   */\n    tag_40:\n        /* \"#utility.yul\":443:444   */\n      0x00\n        /* \"#utility.yul\":440:441   */\n      dup1\n        /* \"#utility.yul\":433:445   */\n      revert\n        /* \"#utility.yul\":457:574   */\n    tag_41:\n        /* \"#utility.yul\":566:567   */\n      0x00\n        /* \"#utility.yul\":563:564   */\n      dup1\n        /* \"#utility.yul\":556:568   */\n      revert\n        /* \"#utility.yul\":580:682   */\n    tag_42:\n        /* \"#utility.yul\":621:627   */\n      0x00\n        /* \"#utility.yul\":672:674   */\n      0x1f\n        /* \"#utility.yul\":668:675   */\n      not\n        /* \"#utility.yul\":663:665   */\n      0x1f\n        /* \"#utility.yul\":656:661   */\n      dup4\n        /* \"#utility.yul\":652:666   */\n      add\n        /* \"#utility.yul\":648:676   */\n      and\n        /* \"#utility.yul\":638:676   */\n      swap1\n      pop\n        /* \"#utility.yul\":580:682   */\n      swap2\n      swap1\n      pop\n      jump\t// out\n        /* \"#utility.yul\":688:868   */\n    tag_43:\n        /* \"#utility.yul\":736:813   */\n      0x4e487b7100000000000000000000000000000000000000000000000000000000\n        /* \"#utility.yul\":733:734   */\n      0x00\n        /* \"#utility.yul\":726:814   */\n      mstore\n        /* \"#utility.yul\":833:837   */\n      0x41\n        /* \"#utility.yul\":830:831   */\n      0x04\n        /* \"#utility.yul\":823:838   */\n      mstore\n        /* \"#utility.yul\":857:861   */\n      0x24\n        /* \"#utility.yul\":854:855   */\n      0x00\n        /* \"#utility.yul\":847:862   */\n      revert\n        /* \"#utility.yul\":874:1155   */\n    tag_44:\n        /* \"#utility.yul\":957:984   */\n      tag_94\n        /* \"#utility.yul\":979:983   */\n      dup3\n        /* \"#utility.yul\":957:984   */\n      tag_42\n      jump\t// in\n    tag_94:\n        /* \"#utility.yul\":949:955   */\n      dup2\n        /* \"#utility.yul\":945:985   */\n      add\n        /* \"#utility.yul\":1087:1093   */\n      dup2\n        /* \"#utility.yul\":1075:1085   */\n      dup2\n        /* \"#utility.yul\":1072:1094   */\n      lt\n        /* \"#utility.yul\":1051:1069   */\n      0xffffffffffffffff\n        /* \"#utility.yul\":1039:1049   */\n      dup3\n        /* \"#utility.yul\":1036:1070   */\n      gt\n        /* \"#utility.yul\":1033:1095   */\n      or\n        /* \"#utility.yul\":1030:1118   */\n      iszero\n      tag_95\n      jumpi\n        /* \"#utility.yul\":1098:1116   */\n      tag_96\n      tag_43\n      jump\t// in\n    tag_96:\n        /* \"#utility.yul\":1030:1118   */\n    tag_95:\n        /* \"#utility.yul\":1138:1148   */\n      dup1\n        /* \"#utility.yul\":1134:1136   */\n      0x40\n        /* \"#utility.yul\":1127:1149   */\n      mstore\n        /* \"#utility.yul\":917:1155   */\n      pop\n        /* \"#utility.yul\":874:1155   */\n      pop\n      pop\n      jump\t// out\n        /* \"#utility.yul\":1161:1290   */\n    tag_45:\n        /* \"#utility.yul\":1195:1201   */\n      0x00\n        /* \"#utility.yul\":1222:1242   */\n      tag_98\n      tag_37\n      jump\t// in\n    tag_98:\n        /* \"#utility.yul\":1212:1242   */\n      swap1\n      pop\n        /* \"#utility.yul\":1251:1284   */\n      tag_99\n        /* \"#utility.yul\":1279:1283   */\n      dup3\n        /* \"#utility.yul\":1271:1277   */\n      dup3\n        /* \"#utility.yul\":1251:1284   */\n      tag_44\n      jump\t// in\n    tag_99:\n        /* \"#utility.yul\":1161:1290   */\n      swap2\n      swap1\n      pop\n      jump\t// out\n        /* \"#utility.yul\":1296:1604   */\n    tag_46:\n        /* \"#utility.yul\":1358:1362   */\n      0x00\n        /* \"#utility.yul\":1448:1466   */\n      0xffffffffffffffff\n        /* \"#utility.yul\":1440:1446   */\n      dup3\n        /* \"#utility.yul\":1437:1467   */\n      gt\n        /* \"#utility.yul\":1434:1490   */\n      iszero\n      tag_101\n      jumpi\n        /* \"#utility.yul\":1470:1488   */\n      tag_102\n      tag_43\n      jump\t// in\n    tag_102:\n        /* \"#utility.yul\":1434:1490   */\n    tag_101:\n        /* \"#utility.yul\":1508:1537   */\n      tag_103\n        /* \"#utility.yul\":1530:1536   */\n      dup3\n        /* \"#utility.yul\":1508:1537   */\n      tag_42\n      jump\t// in\n    tag_103:\n        /* \"#utility.yul\":1500:1537   */\n      swap1\n      pop\n        /* \"#utility.yul\":1592:1596   */\n      0x20\n        /* \"#utility.yul\":1586:1590   */\n      dup2\n        /* \"#utility.yul\":1582:1597   */\n      add\n        /* \"#utility.yul\":1574:1597   */\n      swap1\n      pop\n        /* \"#utility.yul\":1296:1604   */\n      swap2\n      swap1\n      pop\n      jump\t// out\n        /* \"#utility.yul\":1610:1756   */\n    tag_47:\n        /* \"#utility.yul\":1707:1713   */\n      dup3\n        /* \"#utility.yul\":1702:1705   */\n      dup2\n        /* \"#utility.yul\":1697:1700   */\n      dup4\n        /* \"#utility.yul\":1684:1714   */\n      calldatacopy\n        /* \"#utility.yul\":1748:1749   */\n      0x00\n        /* \"#utility.yul\":1739:1745   */\n      dup4\n        /* \"#utility.yul\":1734:1737   */\n      dup4\n        /* \"#utility.yul\":1730:1746   */\n      add\n        /* \"#utility.yul\":1723:1750   */\n      mstore\n        /* \"#utility.yul\":1610:1756   */\n      pop\n      pop\n      pop\n      jump\t// out\n        /* \"#utility.yul\":1762:2187   */\n    tag_48:\n        /* \"#utility.yul\":1840:1845   */\n      0x00\n        /* \"#utility.yul\":1865:1931   */\n      tag_106\n        /* \"#utility.yul\":1881:1930   */\n      tag_107\n        /* \"#utility.yul\":1923:1929   */\n      dup5\n        /* \"#utility.yul\":1881:1930   */\n      tag_46\n      jump\t// in\n    tag_107:\n        /* \"#utility.yul\":1865:1931   */\n      tag_45\n      jump\t// in\n    tag_106:\n        /* \"#utility.yul\":1856:1931   */\n      swap1\n      pop\n        /* \"#utility.yul\":1954:1960   */\n      dup3\n        /* \"#utility.yul\":1947:1952   */\n      dup2\n        /* \"#utility.yul\":1940:1961   */\n      mstore\n        /* \"#utility.yul\":1992:1996   */\n      0x20\n        /* \"#utility.yul\":1985:1990   */\n      dup2\n        /* \"#utility.yul\":1981:1997   */\n      add\n        /* \"#utility.yul\":2030:2033   */\n      dup5\n        /* \"#utility.yul\":2021:2027   */\n      dup5\n        /* \"#utility.yul\":2016:2019   */\n      dup5\n        /* \"#utility.yul\":2012:2028   */\n      add\n        /* \"#utility.yul\":2009:2034   */\n      gt\n        /* \"#utility.yul\":2006:2118   */\n      iszero\n      tag_108\n      jumpi\n        /* \"#utility.yul\":2037:2116   */\n      tag_109\n      tag_41\n      jump\t// in\n    tag_109:\n        /* \"#utility.yul\":2006:2118   */\n    tag_108:\n        /* \"#utility.yul\":2127:2181   */\n      tag_110\n        /* \"#utility.yul\":2174:2180   */\n      dup5\n        /* \"#utility.yul\":2169:2172   */\n      dup3\n        /* \"#utility.yul\":2164:2167   */\n      dup6\n        /* \"#utility.yul\":2127:2181   */\n      tag_47\n      jump\t// in\n    tag_110:\n        /* \"#utility.yul\":1846:2187   */\n      pop\n        /* \"#utility.yul\":1762:2187   */\n      swap4\n      swap3\n      pop\n      pop\n      pop\n      jump\t// out\n        /* \"#utility.yul\":2207:2547   */\n    tag_49:\n        /* \"#utility.yul\":2263:2268   */\n      0x00\n        /* \"#utility.yul\":2312:2315   */\n      dup3\n        /* \"#utility.yul\":2305:2309   */\n      0x1f\n        /* \"#utility.yul\":2297:2303   */\n      dup4\n        /* \"#utility.yul\":2293:2310   */\n      add\n        /* \"#utility.yul\":2289:2316   */\n      slt\n        /* \"#utility.yul\":2279:2401   */\n      tag_112\n      jumpi\n        /* \"#utility.yul\":2320:2399   */\n      tag_113\n      tag_40\n      jump\t// in\n    tag_113:\n        /* \"#utility.yul\":2279:2401   */\n    tag_112:\n        /* \"#utility.yul\":2437:2443   */\n      dup2\n        /* \"#utility.yul\":2424:2444   */\n      calldataload\n        /* \"#utility.yul\":2462:2541   */\n      tag_114\n        /* \"#utility.yul\":2537:2540   */\n      dup5\n        /* \"#utility.yul\":2529:2535   */\n      dup3\n        /* \"#utility.yul\":2522:2526   */\n      0x20\n        /* \"#utility.yul\":2514:2520   */\n      dup7\n        /* \"#utility.yul\":2510:2527   */\n      add\n        /* \"#utility.yul\":2462:2541   */\n      tag_48\n      jump\t// in\n    tag_114:\n        /* \"#utility.yul\":2453:2541   */\n      swap2\n      pop\n        /* \"#utility.yul\":2269:2547   */\n      pop\n        /* \"#utility.yul\":2207:2547   */\n      swap3\n      swap2\n      pop\n      pop\n      jump\t// out\n        /* \"#utility.yul\":2553:3062   */\n    tag_7:\n        /* \"#utility.yul\":2622:2628   */\n      0x00\n        /* \"#utility.yul\":2671:2673   */\n      0x20\n        /* \"#utility.yul\":2659:2668   */\n      dup3\n        /* \"#utility.yul\":2650:2657   */\n      dup5\n        /* \"#utility.yul\":2646:2669   */\n      sub\n        /* \"#utility.yul\":2642:2674   */\n      slt\n        /* \"#utility.yul\":2639:2758   */\n      iszero\n      tag_116\n      jumpi\n        /* \"#utility.yul\":2677:2756   */\n      tag_117\n      tag_38\n      jump\t// in\n    tag_117:\n        /* \"#utility.yul\":2639:2758   */\n    tag_116:\n        /* \"#utility.yul\":2825:2826   */\n      0x00\n        /* \"#utility.yul\":2814:2823   */\n      dup3\n        /* \"#utility.yul\":2810:2827   */\n      add\n        /* \"#utility.yul\":2797:2828   */\n      calldataload\n        /* \"#utility.yul\":2855:2873   */\n      0xffffffffffffffff\n        /* \"#utility.yul\":2847:2853   */\n      dup2\n        /* \"#utility.yul\":2844:2874   */\n      gt\n        /* \"#utility.yul\":2841:2958   */\n      iszero\n      tag_118\n      jumpi\n        /* \"#utility.yul\":2877:2956   */\n      tag_119\n      tag_39\n      jump\t// in\n    tag_119:\n        /* \"#utility.yul\":2841:2958   */\n    tag_118:\n        /* \"#utility.yul\":2982:3045   */\n      tag_120\n        /* \"#utility.yul\":3037:3044   */\n      dup5\n        /* \"#utility.yul\":3028:3034   */\n      dup3\n        /* \"#utility.yul\":3017:3026   */\n      dup6\n        /* \"#utility.yul\":3013:3035   */\n      add\n        /* \"#utility.yul\":2982:3045   */\n      tag_49\n      jump\t// in\n    tag_120:\n        /* \"#utility.yul\":2972:3045   */\n      swap2\n      pop\n        /* \"#utility.yul\":2768:3055   */\n      pop\n        /* \"#utility.yul\":2553:3062   */\n      swap3\n      swap2\n      pop\n      pop\n      jump\t// out\n        /* \"#utility.yul\":3068:3206   */\n    tag_50:\n        /* \"#utility.yul\":3159:3165   */\n      0x00\n        /* \"#utility.yul\":3193:3198   */\n      dup2\n        /* \"#utility.yul\":3187:3199   */\n      mload\n        /* \"#utility.yul\":3177:3199   */\n      swap1\n      pop\n        /* \"#utility.yul\":3068:3206   */\n      swap2\n      swap1\n      pop\n      jump\t// out\n        /* \"#utility.yul\":3212:3420   */\n    tag_51:\n        /* \"#utility.yul\":3335:3346   */\n      0x00\n        /* \"#utility.yul\":3369:3375   */\n      dup3\n        /* \"#utility.yul\":3364:3367   */\n      dup3\n        /* \"#utility.yul\":3357:3376   */\n      mstore\n        /* \"#utility.yul\":3409:3413   */\n      0x20\n        /* \"#utility.yul\":3404:3407   */\n      dup3\n        /* \"#utility.yul\":3400:3414   */\n      add\n        /* \"#utility.yul\":3385:3414   */\n      swap1\n      pop\n        /* \"#utility.yul\":3212:3420   */\n      swap3\n      swap2\n      pop\n      pop\n      jump\t// out\n        /* \"#utility.yul\":3426:3582   */\n    tag_52:\n        /* \"#utility.yul\":3517:3521   */\n      0x00\n        /* \"#utility.yul\":3540:3543   */\n      dup2\n        /* \"#utility.yul\":3532:3543   */\n      swap1\n      pop\n        /* \"#utility.yul\":3570:3574   */\n      0x20\n        /* \"#utility.yul\":3565:3568   */\n      dup3\n        /* \"#utility.yul\":3561:3575   */\n      add\n        /* \"#utility.yul\":3553:3575   */\n      swap1\n      pop\n        /* \"#utility.yul\":3426:3582   */\n      swap2\n      swap1\n      pop\n      jump\t// out\n        /* \"#utility.yul\":3588:3687   */\n    tag_53:\n        /* \"#utility.yul\":3640:3646   */\n      0x00\n        /* \"#utility.yul\":3674:3679   */\n      dup2\n        /* \"#utility.yul\":3668:3680   */\n      mload\n        /* \"#utility.yul\":3658:3680   */\n      swap1\n      pop\n        /* \"#utility.yul\":3588:3687   */\n      swap2\n      swap1\n      pop\n      jump\t// out\n        /* \"#utility.yul\":3693:3852   */\n    tag_54:\n        /* \"#utility.yul\":3767:3778   */\n      0x00\n        /* \"#utility.yul\":3801:3807   */\n      dup3\n        /* \"#utility.yul\":3796:3799   */\n      dup3\n        /* \"#utility.yul\":3789:3808   */\n      mstore\n        /* \"#utility.yul\":3841:3845   */\n      0x20\n        /* \"#utility.yul\":3836:3839   */\n      dup3\n        /* \"#utility.yul\":3832:3846   */\n      add\n        /* \"#utility.yul\":3817:3846   */\n      swap1\n      pop\n        /* \"#utility.yul\":3693:3852   */\n      swap3\n      swap2\n      pop\n      pop\n      jump\t// out\n        /* \"#utility.yul\":3858:4104   */\n    tag_55:\n        /* \"#utility.yul\":3939:3940   */\n      0x00\n        /* \"#utility.yul\":3949:4062   */\n    tag_127:\n        /* \"#utility.yul\":3963:3969   */\n      dup4\n        /* \"#utility.yul\":3960:3961   */\n      dup2\n        /* \"#utility.yul\":3957:3970   */\n      lt\n        /* \"#utility.yul\":3949:4062   */\n      iszero\n      tag_129\n      jumpi\n        /* \"#utility.yul\":4048:4049   */\n      dup1\n        /* \"#utility.yul\":4043:4046   */\n      dup3\n        /* \"#utility.yul\":4039:4050   */\n      add\n        /* \"#utility.yul\":4033:4051   */\n      mload\n        /* \"#utility.yul\":4029:4030   */\n      dup2\n        /* \"#utility.yul\":4024:4027   */\n      dup5\n        /* \"#utility.yul\":4020:4031   */\n      add\n        /* \"#utility.yul\":4013:4052   */\n      mstore\n        /* \"#utility.yul\":3985:3987   */\n      0x20\n        /* \"#utility.yul\":3982:3983   */\n      dup2\n        /* \"#utility.yul\":3978:3988   */\n      add\n        /* \"#utility.yul\":3973:3988   */\n      swap1\n      pop\n        /* \"#utility.yul\":3949:4062   */\n      jump(tag_127)\n    tag_129:\n        /* \"#utility.yul\":4096:4097   */\n      0x00\n        /* \"#utility.yul\":4087:4093   */\n      dup5\n        /* \"#utility.yul\":4082:4085   */\n      dup5\n        /* \"#utility.yul\":4078:4094   */\n      add\n        /* \"#utility.yul\":4071:4098   */\n      mstore\n        /* \"#utility.yul\":3920:4104   */\n      pop\n        /* \"#utility.yul\":3858:4104   */\n      pop\n      pop\n      pop\n      jump\t// out\n        /* \"#utility.yul\":4110:4467   */\n    tag_56:\n        /* \"#utility.yul\":4188:4191   */\n      0x00\n        /* \"#utility.yul\":4216:4255   */\n      tag_131\n        /* \"#utility.yul\":4249:4254   */\n      dup3\n        /* \"#utility.yul\":4216:4255   */\n      tag_53\n      jump\t// in\n    tag_131:\n        /* \"#utility.yul\":4271:4332   */\n      tag_132\n        /* \"#utility.yul\":4325:4331   */\n      dup2\n        /* \"#utility.yul\":4320:4323   */\n      dup6\n        /* \"#utility.yul\":4271:4332   */\n      tag_54\n      jump\t// in\n    tag_132:\n        /* \"#utility.yul\":4264:4332   */\n      swap4\n      pop\n        /* \"#utility.yul\":4341:4406   */\n      tag_133\n        /* \"#utility.yul\":4399:4405   */\n      dup2\n        /* \"#utility.yul\":4394:4397   */\n      dup6\n        /* \"#utility.yul\":4387:4391   */\n      0x20\n        /* \"#utility.yul\":4380:4385   */\n      dup7\n        /* \"#utility.yul\":4376:4392   */\n      add\n        /* \"#utility.yul\":4341:4406   */\n      tag_55\n      jump\t// in\n    tag_133:\n        /* \"#utility.yul\":4431:4460   */\n      tag_134\n        /* \"#utility.yul\":4453:4459   */\n      dup2\n        /* \"#utility.yul\":4431:4460   */\n      tag_42\n      jump\t// in\n    tag_134:\n        /* \"#utility.yul\":4426:4429   */\n      dup5\n        /* \"#utility.yul\":4422:4461   */\n      add\n        /* \"#utility.yul\":4415:4461   */\n      swap2\n      pop\n        /* \"#utility.yul\":4192:4467   */\n      pop\n        /* \"#utility.yul\":4110:4467   */\n      swap3\n      swap2\n      pop\n      pop\n      jump\t// out\n        /* \"#utility.yul\":4473:4550   */\n    tag_57:\n        /* \"#utility.yul\":4510:4517   */\n      0x00\n        /* \"#utility.yul\":4539:4544   */\n      dup2\n        /* \"#utility.yul\":4528:4544   */\n      swap1\n      pop\n        /* \"#utility.yul\":4473:4550   */\n      swap2\n      swap1\n      pop\n      jump\t// out\n        /* \"#utility.yul\":4556:4664   */\n    tag_58:\n        /* \"#utility.yul\":4633:4657   */\n      tag_137\n        /* \"#utility.yul\":4651:4656   */\n      dup2\n        /* \"#utility.yul\":4633:4657   */\n      tag_57\n      jump\t// in\n    tag_137:\n        /* \"#utility.yul\":4628:4631   */\n      dup3\n        /* \"#utility.yul\":4621:4658   */\n      mstore\n        /* \"#utility.yul\":4556:4664   */\n      pop\n      pop\n      jump\t// out\n        /* \"#utility.yul\":4722:5846   */\n    tag_59:\n        /* \"#utility.yul\":4829:4832   */\n      0x00\n        /* \"#utility.yul\":4865:4869   */\n      0xa0\n        /* \"#utility.yul\":4860:4863   */\n      dup4\n        /* \"#utility.yul\":4856:4870   */\n      add\n        /* \"#utility.yul\":4952:4956   */\n      0x00\n        /* \"#utility.yul\":4945:4950   */\n      dup4\n        /* \"#utility.yul\":4941:4957   */\n      add\n        /* \"#utility.yul\":4935:4958   */\n      mload\n        /* \"#utility.yul\":5005:5008   */\n      dup5\n        /* \"#utility.yul\":4999:5003   */\n      dup3\n        /* \"#utility.yul\":4995:5009   */\n      sub\n        /* \"#utility.yul\":4988:4992   */\n      0x00\n        /* \"#utility.yul\":4983:4986   */\n      dup7\n        /* \"#utility.yul\":4979:4993   */\n      add\n        /* \"#utility.yul\":4972:5010   */\n      mstore\n        /* \"#utility.yul\":5031:5104   */\n      tag_139\n        /* \"#utility.yul\":5099:5103   */\n      dup3\n        /* \"#utility.yul\":5085:5097   */\n      dup3\n        /* \"#utility.yul\":5031:5104   */\n      tag_56\n      jump\t// in\n    tag_139:\n        /* \"#utility.yul\":5023:5104   */\n      swap2\n      pop\n        /* \"#utility.yul\":4880:5115   */\n      pop\n        /* \"#utility.yul\":5197:5201   */\n      0x20\n        /* \"#utility.yul\":5190:5195   */\n      dup4\n        /* \"#utility.yul\":5186:5202   */\n      add\n        /* \"#utility.yul\":5180:5203   */\n      mload\n        /* \"#utility.yul\":5216:5279   */\n      tag_140\n        /* \"#utility.yul\":5273:5277   */\n      0x20\n        /* \"#utility.yul\":5268:5271   */\n      dup7\n        /* \"#utility.yul\":5264:5278   */\n      add\n        /* \"#utility.yul\":5250:5262   */\n      dup3\n        /* \"#utility.yul\":5216:5279   */\n      tag_58\n      jump\t// in\n    tag_140:\n        /* \"#utility.yul\":5125:5289   */\n      pop\n        /* \"#utility.yul\":5374:5378   */\n      0x40\n        /* \"#utility.yul\":5367:5372   */\n      dup4\n        /* \"#utility.yul\":5363:5379   */\n      add\n        /* \"#utility.yul\":5357:5380   */\n      mload\n        /* \"#utility.yul\":5393:5456   */\n      tag_141\n        /* \"#utility.yul\":5450:5454   */\n      0x40\n        /* \"#utility.yul\":5445:5448   */\n      dup7\n        /* \"#utility.yul\":5441:5455   */\n      add\n        /* \"#utility.yul\":5427:5439   */\n      dup3\n        /* \"#utility.yul\":5393:5456   */\n      tag_58\n      jump\t// in\n    tag_141:\n        /* \"#utility.yul\":5299:5466   */\n      pop\n        /* \"#utility.yul\":5550:5554   */\n      0x60\n        /* \"#utility.yul\":5543:5548   */\n      dup4\n        /* \"#utility.yul\":5539:5555   */\n      add\n        /* \"#utility.yul\":5533:5556   */\n      mload\n        /* \"#utility.yul\":5569:5632   */\n      tag_142\n        /* \"#utility.yul\":5626:5630   */\n      0x60\n        /* \"#utility.yul\":5621:5624   */\n      dup7\n        /* \"#utility.yul\":5617:5631   */\n      add\n        /* \"#utility.yul\":5603:5615   */\n      dup3\n        /* \"#utility.yul\":5569:5632   */\n      tag_58\n      jump\t// in\n    tag_142:\n        /* \"#utility.yul\":5476:5642   */\n      pop\n        /* \"#utility.yul\":5727:5731   */\n      0x80\n        /* \"#utility.yul\":5720:5725   */\n      dup4\n        /* \"#utility.yul\":5716:5732   */\n      add\n        /* \"#utility.yul\":5710:5733   */\n      mload\n        /* \"#utility.yul\":5746:5809   */\n      tag_143\n        /* \"#utility.yul\":5803:5807   */\n      0x80\n        /* \"#utility.yul\":5798:5801   */\n      dup7\n        /* \"#utility.yul\":5794:5808   */\n      add\n        /* \"#utility.yul\":5780:5792   */\n      dup3\n        /* \"#utility.yul\":5746:5809   */\n      tag_58\n      jump\t// in\n    tag_143:\n        /* \"#utility.yul\":5652:5819   */\n      pop\n        /* \"#utility.yul\":5836:5840   */\n      dup1\n        /* \"#utility.yul\":5829:5840   */\n      swap2\n      pop\n        /* \"#utility.yul\":4834:5846   */\n      pop\n        /* \"#utility.yul\":4722:5846   */\n      swap3\n      swap2\n      pop\n      pop\n      jump\t// out\n        /* \"#utility.yul\":5852:6104   */\n    tag_60:\n        /* \"#utility.yul\":5969:5979   */\n      0x00\n        /* \"#utility.yul\":6004:6098   */\n      tag_145\n        /* \"#utility.yul\":6094:6097   */\n      dup4\n        /* \"#utility.yul\":6086:6092   */\n      dup4\n        /* \"#utility.yul\":6004:6098   */\n      tag_59\n      jump\t// in\n    tag_145:\n        /* \"#utility.yul\":5990:6098   */\n      swap1\n      pop\n        /* \"#utility.yul\":5852:6104   */\n      swap3\n      swap2\n      pop\n      pop\n      jump\t// out\n        /* \"#utility.yul\":6110:6247   */\n    tag_61:\n        /* \"#utility.yul\":6204:6208   */\n      0x00\n        /* \"#utility.yul\":6236:6240   */\n      0x20\n        /* \"#utility.yul\":6231:6234   */\n      dup3\n        /* \"#utility.yul\":6227:6241   */\n      add\n        /* \"#utility.yul\":6219:6241   */\n      swap1\n      pop\n        /* \"#utility.yul\":6110:6247   */\n      swap2\n      swap1\n      pop\n      jump\t// out\n        /* \"#utility.yul\":6309:7412   */\n    tag_62:\n        /* \"#utility.yul\":6476:6479   */\n      0x00\n        /* \"#utility.yul\":6505:6583   */\n      tag_148\n        /* \"#utility.yul\":6577:6582   */\n      dup3\n        /* \"#utility.yul\":6505:6583   */\n      tag_50\n      jump\t// in\n    tag_148:\n        /* \"#utility.yul\":6599:6709   */\n      tag_149\n        /* \"#utility.yul\":6702:6708   */\n      dup2\n        /* \"#utility.yul\":6697:6700   */\n      dup6\n        /* \"#utility.yul\":6599:6709   */\n      tag_51\n      jump\t// in\n    tag_149:\n        /* \"#utility.yul\":6592:6709   */\n      swap4\n      pop\n        /* \"#utility.yul\":6735:6738   */\n      dup4\n        /* \"#utility.yul\":6780:6784   */\n      0x20\n        /* \"#utility.yul\":6772:6778   */\n      dup3\n        /* \"#utility.yul\":6768:6785   */\n      mul\n        /* \"#utility.yul\":6763:6766   */\n      dup6\n        /* \"#utility.yul\":6759:6786   */\n      add\n        /* \"#utility.yul\":6810:6890   */\n      tag_150\n        /* \"#utility.yul\":6884:6889   */\n      dup6\n        /* \"#utility.yul\":6810:6890   */\n      tag_52\n      jump\t// in\n    tag_150:\n        /* \"#utility.yul\":6913:6920   */\n      dup1\n        /* \"#utility.yul\":6944:6945   */\n      0x00\n        /* \"#utility.yul\":6929:7367   */\n    tag_151:\n        /* \"#utility.yul\":6954:6960   */\n      dup6\n        /* \"#utility.yul\":6951:6952   */\n      dup2\n        /* \"#utility.yul\":6948:6961   */\n      lt\n        /* \"#utility.yul\":6929:7367   */\n      iszero\n      tag_153\n      jumpi\n        /* \"#utility.yul\":7025:7034   */\n      dup5\n        /* \"#utility.yul\":7019:7023   */\n      dup5\n        /* \"#utility.yul\":7015:7035   */\n      sub\n        /* \"#utility.yul\":7010:7013   */\n      dup10\n        /* \"#utility.yul\":7003:7036   */\n      mstore\n        /* \"#utility.yul\":7076:7082   */\n      dup2\n        /* \"#utility.yul\":7070:7083   */\n      mload\n        /* \"#utility.yul\":7104:7216   */\n      tag_154\n        /* \"#utility.yul\":7211:7215   */\n      dup6\n        /* \"#utility.yul\":7196:7209   */\n      dup3\n        /* \"#utility.yul\":7104:7216   */\n      tag_60\n      jump\t// in\n    tag_154:\n        /* \"#utility.yul\":7096:7216   */\n      swap5\n      pop\n        /* \"#utility.yul\":7239:7323   */\n      tag_155\n        /* \"#utility.yul\":7316:7322   */\n      dup4\n        /* \"#utility.yul\":7239:7323   */\n      tag_61\n      jump\t// in\n    tag_155:\n        /* \"#utility.yul\":7229:7323   */\n      swap3\n      pop\n        /* \"#utility.yul\":7352:7356   */\n      0x20\n        /* \"#utility.yul\":7347:7350   */\n      dup11\n        /* \"#utility.yul\":7343:7357   */\n      add\n        /* \"#utility.yul\":7336:7357   */\n      swap10\n      pop\n        /* \"#utility.yul\":6989:7367   */\n      pop\n        /* \"#utility.yul\":6976:6977   */\n      0x01\n        /* \"#utility.yul\":6973:6974   */\n      dup2\n        /* \"#utility.yul\":6969:6978   */\n      add\n        /* \"#utility.yul\":6964:6978   */\n      swap1\n      pop\n        /* \"#utility.yul\":6929:7367   */\n      jump(tag_151)\n    tag_153:\n        /* \"#utility.yul\":6933:6947   */\n      pop\n        /* \"#utility.yul\":7383:7387   */\n      dup3\n        /* \"#utility.yul\":7376:7387   */\n      swap8\n      pop\n        /* \"#utility.yul\":7403:7406   */\n      dup8\n        /* \"#utility.yul\":7396:7406   */\n      swap6\n      pop\n        /* \"#utility.yul\":6481:7412   */\n      pop\n      pop\n      pop\n      pop\n      pop\n        /* \"#utility.yul\":6309:7412   */\n      swap3\n      swap2\n      pop\n      pop\n      jump\t// out\n        /* \"#utility.yul\":7418:7887   */\n    tag_10:\n        /* \"#utility.yul\":7609:7613   */\n      0x00\n        /* \"#utility.yul\":7647:7649   */\n      0x20\n        /* \"#utility.yul\":7636:7645   */\n      dup3\n        /* \"#utility.yul\":7632:7650   */\n      add\n        /* \"#utility.yul\":7624:7650   */\n      swap1\n      pop\n        /* \"#utility.yul\":7696:7705   */\n      dup2\n        /* \"#utility.yul\":7690:7694   */\n      dup2\n        /* \"#utility.yul\":7686:7706   */\n      sub\n        /* \"#utility.yul\":7682:7683   */\n      0x00\n        /* \"#utility.yul\":7671:7680   */\n      dup4\n        /* \"#utility.yul\":7667:7684   */\n      add\n        /* \"#utility.yul\":7660:7707   */\n      mstore\n        /* \"#utility.yul\":7724:7880   */\n      tag_157\n        /* \"#utility.yul\":7875:7879   */\n      dup2\n        /* \"#utility.yul\":7866:7872   */\n      dup5\n        /* \"#utility.yul\":7724:7880   */\n      tag_62\n      jump\t// in\n    tag_157:\n        /* \"#utility.yul\":7716:7880   */\n      swap1\n      pop\n        /* \"#utility.yul\":7418:7887   */\n      swap3\n      swap2\n      pop\n      pop\n      jump\t// out\n        /* \"#utility.yul\":7893:8015   */\n    tag_63:\n        /* \"#utility.yul\":7966:7990   */\n      tag_159\n        /* \"#utility.yul\":7984:7989   */\n      dup2\n        /* \"#utility.yul\":7966:7990   */\n      tag_57\n      jump\t// in\n    tag_159:\n        /* \"#utility.yul\":7959:7964   */\n      dup2\n        /* \"#utility.yul\":7956:7991   */\n      eq\n        /* \"#utility.yul\":7946:8009   */\n      tag_160\n      jumpi\n        /* \"#utility.yul\":8005:8006   */\n      0x00\n        /* \"#utility.yul\":8002:8003   */\n      dup1\n        /* \"#utility.yul\":7995:8007   */\n      revert\n        /* \"#utility.yul\":7946:8009   */\n    tag_160:\n        /* \"#utility.yul\":7893:8015   */\n      pop\n      jump\t// out\n        /* \"#utility.yul\":8021:8160   */\n    tag_64:\n        /* \"#utility.yul\":8067:8072   */\n      0x00\n        /* \"#utility.yul\":8105:8111   */\n      dup2\n        /* \"#utility.yul\":8092:8112   */\n      calldataload\n        /* \"#utility.yul\":8083:8112   */\n      swap1\n      pop\n        /* \"#utility.yul\":8121:8154   */\n      tag_162\n        /* \"#utility.yul\":8148:8153   */\n      dup2\n        /* \"#utility.yul\":8121:8154   */\n      tag_63\n      jump\t// in\n    tag_162:\n        /* \"#utility.yul\":8021:8160   */\n      swap3\n      swap2\n      pop\n      pop\n      jump\t// out\n        /* \"#utility.yul\":8166:9437   */\n    tag_13:\n        /* \"#utility.yul\":8281:8287   */\n      0x00\n        /* \"#utility.yul\":8289:8295   */\n      dup1\n        /* \"#utility.yul\":8297:8303   */\n      0x00\n        /* \"#utility.yul\":8305:8311   */\n      dup1\n        /* \"#utility.yul\":8313:8319   */\n      0x00\n        /* \"#utility.yul\":8362:8365   */\n      0xa0\n        /* \"#utility.yul\":8350:8359   */\n      dup7\n        /* \"#utility.yul\":8341:8348   */\n      dup9\n        /* \"#utility.yul\":8337:8360   */\n      sub\n        /* \"#utility.yul\":8333:8366   */\n      slt\n        /* \"#utility.yul\":8330:8450   */\n      iszero\n      tag_164\n      jumpi\n        /* \"#utility.yul\":8369:8448   */\n      tag_165\n      tag_38\n      jump\t// in\n    tag_165:\n        /* \"#utility.yul\":8330:8450   */\n    tag_164:\n        /* \"#utility.yul\":8517:8518   */\n      0x00\n        /* \"#utility.yul\":8506:8515   */\n      dup7\n        /* \"#utility.yul\":8502:8519   */\n      add\n        /* \"#utility.yul\":8489:8520   */\n      calldataload\n        /* \"#utility.yul\":8547:8565   */\n      0xffffffffffffffff\n        /* \"#utility.yul\":8539:8545   */\n      dup2\n        /* \"#utility.yul\":8536:8566   */\n      gt\n        /* \"#utility.yul\":8533:8650   */\n      iszero\n      tag_166\n      jumpi\n        /* \"#utility.yul\":8569:8648   */\n      tag_167\n      tag_39\n      jump\t// in\n    tag_167:\n        /* \"#utility.yul\":8533:8650   */\n    tag_166:\n        /* \"#utility.yul\":8674:8737   */\n      tag_168\n        /* \"#utility.yul\":8729:8736   */\n      dup9\n        /* \"#utility.yul\":8720:8726   */\n      dup3\n        /* \"#utility.yul\":8709:8718   */\n      dup10\n        /* \"#utility.yul\":8705:8727   */\n      add\n        /* \"#utility.yul\":8674:8737   */\n      tag_49\n      jump\t// in\n    tag_168:\n        /* \"#utility.yul\":8664:8737   */\n      swap6\n      pop\n        /* \"#utility.yul\":8460:8747   */\n      pop\n        /* \"#utility.yul\":8814:8816   */\n      0x20\n        /* \"#utility.yul\":8803:8812   */\n      dup7\n        /* \"#utility.yul\":8799:8817   */\n      add\n        /* \"#utility.yul\":8786:8818   */\n      calldataload\n        /* \"#utility.yul\":8845:8863   */\n      0xffffffffffffffff\n        /* \"#utility.yul\":8837:8843   */\n      dup2\n        /* \"#utility.yul\":8834:8864   */\n      gt\n        /* \"#utility.yul\":8831:8948   */\n      iszero\n      tag_169\n      jumpi\n        /* \"#utility.yul\":8867:8946   */\n      tag_170\n      tag_39\n      jump\t// in\n    tag_170:\n        /* \"#utility.yul\":8831:8948   */\n    tag_169:\n        /* \"#utility.yul\":8972:9035   */\n      tag_171\n        /* \"#utility.yul\":9027:9034   */\n      dup9\n        /* \"#utility.yul\":9018:9024   */\n      dup3\n        /* \"#utility.yul\":9007:9016   */\n      dup10\n        /* \"#utility.yul\":9003:9025   */\n      add\n        /* \"#utility.yul\":8972:9035   */\n      tag_49\n      jump\t// in\n    tag_171:\n        /* \"#utility.yul\":8962:9035   */\n      swap5\n      pop\n        /* \"#utility.yul\":8757:9045   */\n      pop\n        /* \"#utility.yul\":9084:9086   */\n      0x40\n        /* \"#utility.yul\":9110:9163   */\n      tag_172\n        /* \"#utility.yul\":9155:9162   */\n      dup9\n        /* \"#utility.yul\":9146:9152   */\n      dup3\n        /* \"#utility.yul\":9135:9144   */\n      dup10\n        /* \"#utility.yul\":9131:9153   */\n      add\n        /* \"#utility.yul\":9110:9163   */\n      tag_64\n      jump\t// in\n    tag_172:\n        /* \"#utility.yul\":9100:9163   */\n      swap4\n      pop\n        /* \"#utility.yul\":9055:9173   */\n      pop\n        /* \"#utility.yul\":9212:9214   */\n      0x60\n        /* \"#utility.yul\":9238:9291   */\n      tag_173\n        /* \"#utility.yul\":9283:9290   */\n      dup9\n        /* \"#utility.yul\":9274:9280   */\n      dup3\n        /* \"#utility.yul\":9263:9272   */\n      dup10\n        /* \"#utility.yul\":9259:9281   */\n      add\n        /* \"#utility.yul\":9238:9291   */\n      tag_64\n      jump\t// in\n    tag_173:\n        /* \"#utility.yul\":9228:9291   */\n      swap3\n      pop\n        /* \"#utility.yul\":9183:9301   */\n      pop\n        /* \"#utility.yul\":9340:9343   */\n      0x80\n        /* \"#utility.yul\":9367:9420   */\n      tag_174\n        /* \"#utility.yul\":9412:9419   */\n      dup9\n        /* \"#utility.yul\":9403:9409   */\n      dup3\n        /* \"#utility.yul\":9392:9401   */\n      dup10\n        /* \"#utility.yul\":9388:9410   */\n      add\n        /* \"#utility.yul\":9367:9420   */\n      tag_64\n      jump\t// in\n    tag_174:\n        /* \"#utility.yul\":9357:9420   */\n      swap2\n      pop\n        /* \"#utility.yul\":9311:9430   */\n      pop\n        /* \"#utility.yul\":8166:9437   */\n      swap3\n      swap6\n      pop\n      swap3\n      swap6\n      swap1\n      swap4\n      pop\n      jump\t// out\n        /* \"#utility.yul\":9443:9591   */\n    tag_65:\n        /* \"#utility.yul\":9545:9556   */\n      0x00\n        /* \"#utility.yul\":9582:9585   */\n      dup2\n        /* \"#utility.yul\":9567:9585   */\n      swap1\n      pop\n        /* \"#utility.yul\":9443:9591   */\n      swap3\n      swap2\n      pop\n      pop\n      jump\t// out\n        /* \"#utility.yul\":9597:9987   */\n    tag_66:\n        /* \"#utility.yul\":9703:9706   */\n      0x00\n        /* \"#utility.yul\":9731:9770   */\n      tag_177\n        /* \"#utility.yul\":9764:9769   */\n      dup3\n        /* \"#utility.yul\":9731:9770   */\n      tag_53\n      jump\t// in\n    tag_177:\n        /* \"#utility.yul\":9786:9875   */\n      tag_178\n        /* \"#utility.yul\":9868:9874   */\n      dup2\n        /* \"#utility.yul\":9863:9866   */\n      dup6\n        /* \"#utility.yul\":9786:9875   */\n      tag_65\n      jump\t// in\n    tag_178:\n        /* \"#utility.yul\":9779:9875   */\n      swap4\n      pop\n        /* \"#utility.yul\":9884:9949   */\n      tag_179\n        /* \"#utility.yul\":9942:9948   */\n      dup2\n        /* \"#utility.yul\":9937:9940   */\n      dup6\n        /* \"#utility.yul\":9930:9934   */\n      0x20\n        /* \"#utility.yul\":9923:9928   */\n      dup7\n        /* \"#utility.yul\":9919:9935   */\n      add\n        /* \"#utility.yul\":9884:9949   */\n      tag_55\n      jump\t// in\n    tag_179:\n        /* \"#utility.yul\":9974:9980   */\n      dup1\n        /* \"#utility.yul\":9969:9972   */\n      dup5\n        /* \"#utility.yul\":9965:9981   */\n      add\n        /* \"#utility.yul\":9958:9981   */\n      swap2\n      pop\n        /* \"#utility.yul\":9707:9987   */\n      pop\n        /* \"#utility.yul\":9597:9987   */\n      swap3\n      swap2\n      pop\n      pop\n      jump\t// out\n        /* \"#utility.yul\":9993:10268   */\n    tag_17:\n        /* \"#utility.yul\":10125:10128   */\n      0x00\n        /* \"#utility.yul\":10147:10242   */\n      tag_181\n        /* \"#utility.yul\":10238:10241   */\n      dup3\n        /* \"#utility.yul\":10229:10235   */\n      dup5\n        /* \"#utility.yul\":10147:10242   */\n      tag_66\n      jump\t// in\n    tag_181:\n        /* \"#utility.yul\":10140:10242   */\n      swap2\n      pop\n        /* \"#utility.yul\":10259:10262   */\n      dup2\n        /* \"#utility.yul\":10252:10262   */\n      swap1\n      pop\n        /* \"#utility.yul\":9993:10268   */\n      swap3\n      swap2\n      pop\n      pop\n      jump\t// out\n        /* \"#utility.yul\":10274:10454   */\n    tag_67:\n        /* \"#utility.yul\":10322:10399   */\n      0x4e487b7100000000000000000000000000000000000000000000000000000000\n        /* \"#utility.yul\":10319:10320   */\n      0x00\n        /* \"#utility.yul\":10312:10400   */\n      mstore\n        /* \"#utility.yul\":10419:10423   */\n      0x22\n        /* \"#utility.yul\":10416:10417   */\n      0x04\n        /* \"#utility.yul\":10409:10424   */\n      mstore\n        /* \"#utility.yul\":10443:10447   */\n      0x24\n        /* \"#utility.yul\":10440:10441   */\n      0x00\n        /* \"#utility.yul\":10433:10448   */\n      revert\n        /* \"#utility.yul\":10460:10780   */\n    tag_22:\n        /* \"#utility.yul\":10504:10510   */\n      0x00\n        /* \"#utility.yul\":10541:10542   */\n      0x02\n        /* \"#utility.yul\":10535:10539   */\n      dup3\n        /* \"#utility.yul\":10531:10543   */\n      div\n        /* \"#utility.yul\":10521:10543   */\n      swap1\n      pop\n        /* \"#utility.yul\":10588:10589   */\n      0x01\n        /* \"#utility.yul\":10582:10586   */\n      dup3\n        /* \"#utility.yul\":10578:10590   */\n      and\n        /* \"#utility.yul\":10609:10627   */\n      dup1\n        /* \"#utility.yul\":10599:10680   */\n      tag_184\n      jumpi\n        /* \"#utility.yul\":10665:10669   */\n      0x7f\n        /* \"#utility.yul\":10657:10663   */\n      dup3\n        /* \"#utility.yul\":10653:10670   */\n      and\n        /* \"#utility.yul\":10643:10670   */\n      swap2\n      pop\n        /* \"#utility.yul\":10599:10680   */\n    tag_184:\n        /* \"#utility.yul\":10727:10729   */\n      0x20\n        /* \"#utility.yul\":10719:10725   */\n      dup3\n        /* \"#utility.yul\":10716:10730   */\n      lt\n        /* \"#utility.yul\":10696:10714   */\n      dup2\n        /* \"#utility.yul\":10693:10731   */\n      sub\n        /* \"#utility.yul\":10690:10774   */\n      tag_185\n      jumpi\n        /* \"#utility.yul\":10746:10764   */\n      tag_186\n      tag_67\n      jump\t// in\n    tag_186:\n        /* \"#utility.yul\":10690:10774   */\n    tag_185:\n        /* \"#utility.yul\":10511:10780   */\n      pop\n        /* \"#utility.yul\":10460:10780   */\n      swap2\n      swap1\n      pop\n      jump\t// out\n        /* \"#utility.yul\":10786:10966   */\n    tag_68:\n        /* \"#utility.yul\":10834:10911   */\n      0x4e487b7100000000000000000000000000000000000000000000000000000000\n        /* \"#utility.yul\":10831:10832   */\n      0x00\n        /* \"#utility.yul\":10824:10912   */\n      mstore\n        /* \"#utility.yul\":10931:10935   */\n      0x11\n        /* \"#utility.yul\":10928:10929   */\n      0x04\n        /* \"#utility.yul\":10921:10936   */\n      mstore\n        /* \"#utility.yul\":10955:10959   */\n      0x24\n        /* \"#utility.yul\":10952:10953   */\n      0x00\n        /* \"#utility.yul\":10945:10960   */\n      revert\n        /* \"#utility.yul\":10972:11163   */\n    tag_29:\n        /* \"#utility.yul\":11012:11015   */\n      0x00\n        /* \"#utility.yul\":11031:11051   */\n      tag_189\n        /* \"#utility.yul\":11049:11050   */\n      dup3\n        /* \"#utility.yul\":11031:11051   */\n      tag_57\n      jump\t// in\n    tag_189:\n        /* \"#utility.yul\":11026:11051   */\n      swap2\n      pop\n        /* \"#utility.yul\":11065:11085   */\n      tag_190\n        /* \"#utility.yul\":11083:11084   */\n      dup4\n        /* \"#utility.yul\":11065:11085   */\n      tag_57\n      jump\t// in\n    tag_190:\n        /* \"#utility.yul\":11060:11085   */\n      swap3\n      pop\n        /* \"#utility.yul\":11108:11109   */\n      dup3\n        /* \"#utility.yul\":11105:11106   */\n      dup3\n        /* \"#utility.yul\":11101:11110   */\n      add\n        /* \"#utility.yul\":11094:11110   */\n      swap1\n      pop\n        /* \"#utility.yul\":11129:11132   */\n      dup1\n        /* \"#utility.yul\":11126:11127   */\n      dup3\n        /* \"#utility.yul\":11123:11133   */\n      gt\n        /* \"#utility.yul\":11120:11156   */\n      iszero\n      tag_191\n      jumpi\n        /* \"#utility.yul\":11136:11154   */\n      tag_192\n      tag_68\n      jump\t// in\n    tag_192:\n        /* \"#utility.yul\":11120:11156   */\n    tag_191:\n        /* \"#utility.yul\":10972:11163   */\n      swap3\n      swap2\n      pop\n      pop\n      jump\t// out\n        /* \"#utility.yul\":11169:11349   */\n    tag_69:\n        /* \"#utility.yul\":11217:11294   */\n      0x4e487b7100000000000000000000000000000000000000000000000000000000\n        /* \"#utility.yul\":11214:11215   */\n      0x00\n        /* \"#utility.yul\":11207:11295   */\n      mstore\n        /* \"#utility.yul\":11314:11318   */\n      0x12\n        /* \"#utility.yul\":11311:11312   */\n      0x04\n        /* \"#utility.yul\":11304:11319   */\n      mstore\n        /* \"#utility.yul\":11338:11342   */\n      0x24\n        /* \"#utility.yul\":11335:11336   */\n      0x00\n        /* \"#utility.yul\":11328:11343   */\n      revert\n        /* \"#utility.yul\":11355:11540   */\n    tag_32:\n        /* \"#utility.yul\":11395:11396   */\n      0x00\n        /* \"#utility.yul\":11412:11432   */\n      tag_195\n        /* \"#utility.yul\":11430:11431   */\n      dup3\n        /* \"#utility.yul\":11412:11432   */\n      tag_57\n      jump\t// in\n    tag_195:\n        /* \"#utility.yul\":11407:11432   */\n      swap2\n      pop\n        /* \"#utility.yul\":11446:11466   */\n      tag_196\n        /* \"#utility.yul\":11464:11465   */\n      dup4\n        /* \"#utility.yul\":11446:11466   */\n      tag_57\n      jump\t// in\n    tag_196:\n        /* \"#utility.yul\":11441:11466   */\n      swap3\n      pop\n        /* \"#utility.yul\":11485:11486   */\n      dup3\n        /* \"#utility.yul\":11475:11510   */\n      tag_197\n      jumpi\n        /* \"#utility.yul\":11490:11508   */\n      tag_198\n      tag_69\n      jump\t// in\n    tag_198:\n        /* \"#utility.yul\":11475:11510   */\n    tag_197:\n        /* \"#utility.yul\":11532:11533   */\n      dup3\n        /* \"#utility.yul\":11529:11530   */\n      dup3\n        /* \"#utility.yul\":11525:11534   */\n      div\n        /* \"#utility.yul\":11520:11534   */\n      swap1\n      pop\n        /* \"#utility.yul\":11355:11540   */\n      swap3\n      swap2\n      pop\n      pop\n      jump\t// out\n        /* \"#utility.yul\":11546:11687   */\n    tag_70:\n        /* \"#utility.yul\":11595:11599   */\n      0x00\n        /* \"#utility.yul\":11618:11621   */\n      dup2\n        /* \"#utility.yul\":11610:11621   */\n      swap1\n      pop\n        /* \"#utility.yul\":11641:11644   */\n      dup2\n        /* \"#utility.yul\":11638:11639   */\n      0x00\n        /* \"#utility.yul\":11631:11645   */\n      mstore\n        /* \"#utility.yul\":11675:11679   */\n      0x20\n        /* \"#utility.yul\":11672:11673   */\n      0x00\n        /* \"#utility.yul\":11662:11680   */\n      keccak256\n        /* \"#utility.yul\":11654:11680   */\n      swap1\n      pop\n        /* \"#utility.yul\":11546:11687   */\n      swap2\n      swap1\n      pop\n      jump\t// out\n        /* \"#utility.yul\":11693:11786   */\n    tag_71:\n        /* \"#utility.yul\":11730:11736   */\n      0x00\n        /* \"#utility.yul\":11777:11779   */\n      0x20\n        /* \"#utility.yul\":11772:11774   */\n      0x1f\n        /* \"#utility.yul\":11765:11770   */\n      dup4\n        /* \"#utility.yul\":11761:11775   */\n      add\n        /* \"#utility.yul\":11757:11780   */\n      div\n        /* \"#utility.yul\":11747:11780   */\n      swap1\n      pop\n        /* \"#utility.yul\":11693:11786   */\n      swap2\n      swap1\n      pop\n      jump\t// out\n        /* \"#utility.yul\":11792:11899   */\n    tag_72:\n        /* \"#utility.yul\":11836:11844   */\n      0x00\n        /* \"#utility.yul\":11886:11891   */\n      dup3\n        /* \"#utility.yul\":11880:11884   */\n      dup3\n        /* \"#utility.yul\":11876:11892   */\n      shl\n        /* \"#utility.yul\":11855:11892   */\n      swap1\n      pop\n        /* \"#utility.yul\":11792:11899   */\n      swap3\n      swap2\n      pop\n      pop\n      jump\t// out\n        /* \"#utility.yul\":11905:12298   */\n    tag_73:\n        /* \"#utility.yul\":11974:11980   */\n      0x00\n        /* \"#utility.yul\":12024:12025   */\n      0x08\n        /* \"#utility.yul\":12012:12022   */\n      dup4\n        /* \"#utility.yul\":12008:12026   */\n      mul\n        /* \"#utility.yul\":12047:12144   */\n      tag_203\n        /* \"#utility.yul\":12077:12143   */\n      0xffffffffffffffffffffffffffffffffffffffffffffffffffffffffffffffff\n        /* \"#utility.yul\":12066:12075   */\n      dup3\n        /* \"#utility.yul\":12047:12144   */\n      tag_72\n      jump\t// in\n    tag_203:\n        /* \"#utility.yul\":12165:12204   */\n      tag_204\n        /* \"#utility.yul\":12195:12203   */\n      dup7\n        /* \"#utility.yul\":12184:12193   */\n      dup4\n        /* \"#utility.yul\":12165:12204   */\n      tag_72\n      jump\t// in\n    tag_204:\n        /* \"#utility.yul\":12153:12204   */\n      swap6\n      pop\n        /* \"#utility.yul\":12237:12241   */\n      dup1\n        /* \"#utility.yul\":12233:12242   */\n      not\n        /* \"#utility.yul\":12226:12231   */\n      dup5\n        /* \"#utility.yul\":12222:12243   */\n      and\n        /* \"#utility.yul\":12213:12243   */\n      swap4\n      pop\n        /* \"#utility.yul\":12286:12290   */\n      dup1\n        /* \"#utility.yul\":12276:12284   */\n      dup7\n        /* \"#utility.yul\":12272:12291   */\n      and\n        /* \"#utility.yul\":12265:12270   */\n      dup5\n        /* \"#utility.yul\":12262:12292   */\n      or\n        /* \"#utility.yul\":12252:12292   */\n      swap3\n      pop\n        /* \"#utility.yul\":11981:12298   */\n      pop\n      pop\n        /* \"#utility.yul\":11905:12298   */\n      swap4\n      swap3\n      pop\n      pop\n      pop\n      jump\t// out\n        /* \"#utility.yul\":12304:12364   */\n    tag_74:\n        /* \"#utility.yul\":12332:12335   */\n      0x00\n        /* \"#utility.yul\":12353:12358   */\n      dup2\n        /* \"#utility.yul\":12346:12358   */\n      swap1\n      pop\n        /* \"#utility.yul\":12304:12364   */\n      swap2\n      swap1\n      pop\n      jump\t// out\n        /* \"#utility.yul\":12370:12512   */\n    tag_75:\n        /* \"#utility.yul\":12420:12429   */\n      0x00\n        /* \"#utility.yul\":12453:12506   */\n      tag_207\n        /* \"#utility.yul\":12471:12505   */\n      tag_208\n        /* \"#utility.yul\":12480:12504   */\n      tag_209\n        /* \"#utility.yul\":12498:12503   */\n      dup5\n        /* \"#utility.yul\":12480:12504   */\n      tag_57\n      jump\t// in\n    tag_209:\n        /* \"#utility.yul\":12471:12505   */\n      tag_74\n      jump\t// in\n    tag_208:\n        /* \"#utility.yul\":12453:12506   */\n      tag_57\n      jump\t// in\n    tag_207:\n        /* \"#utility.yul\":12440:12506   */\n      swap1\n      pop\n        /* \"#utility.yul\":12370:12512   */\n      swap2\n      swap1\n      pop\n      jump\t// out\n        /* \"#utility.yul\":12518:12593   */\n    tag_76:\n        /* \"#utility.yul\":12561:12564   */\n      0x00\n        /* \"#utility.yul\":12582:12587   */\n      dup2\n        /* \"#utility.yul\":12575:12587   */\n      swap1\n      pop\n        /* \"#utility.yul\":12518:12593   */\n      swap2\n      swap1\n      pop\n      jump\t// out\n        /* \"#utility.yul\":12599:12868   */\n    tag_77:\n        /* \"#utility.yul\":12709:12748   */\n      tag_212\n        /* \"#utility.yul\":12740:12747   */\n      dup4\n        /* \"#utility.yul\":12709:12748   */\n      tag_75\n      jump\t// in\n    tag_212:\n        /* \"#utility.yul\":12770:12861   */\n      tag_213\n        /* \"#utility.yul\":12819:12860   */\n      tag_214\n        /* \"#utility.yul\":12843:12859   */\n      dup3\n        /* \"#utility.yul\":12819:12860   */\n      tag_76\n      jump\t// in\n    tag_214:\n        /* \"#utility.yul\":12811:12817   */\n      dup5\n        /* \"#utility.yul\":12804:12808   */\n      dup5\n        /* \"#utility.yul\":12798:12809   */\n      sload\n        /* \"#utility.yul\":12770:12861   */\n      tag_73\n      jump\t// in\n    tag_213:\n        /* \"#utility.yul\":12764:12768   */\n      dup3\n        /* \"#utility.yul\":12757:12862   */\n      sstore\n        /* \"#utility.yul\":12675:12868   */\n      pop\n        /* \"#utility.yul\":12599:12868   */\n      pop\n      pop\n      pop\n      jump\t// out\n        /* \"#utility.yul\":12874:12947   */\n    tag_78:\n        /* \"#utility.yul\":12919:12922   */\n      0x00\n        /* \"#utility.yul\":12874:12947   */\n      swap1\n      jump\t// out\n        /* \"#utility.yul\":12953:13142   */\n    tag_79:\n        /* \"#utility.yul\":13030:13062   */\n      tag_217\n      tag_78\n      jump\t// in\n    tag_217:\n        /* \"#utility.yul\":13071:13136   */\n      tag_218\n        /* \"#utility.yul\":13129:13135   */\n      dup2\n        /* \"#utility.yul\":13121:13127   */\n      dup5\n        /* \"#utility.yul\":13115:13119   */\n      dup5\n        /* \"#utility.yul\":13071:13136   */\n      tag_77\n      jump\t// in\n    tag_218:\n        /* \"#utility.yul\":13006:13142   */\n      pop\n        /* \"#utility.yul\":12953:13142   */\n      pop\n      pop\n      jump\t// out\n        /* \"#utility.yul\":13148:13334   */\n    tag_80:\n        /* \"#utility.yul\":13208:13328   */\n    tag_220:\n        /* \"#utility.yul\":13225:13228   */\n      dup2\n        /* \"#utility.yul\":13218:13223   */\n      dup2\n        /* \"#utility.yul\":13215:13229   */\n      lt\n        /* \"#utility.yul\":13208:13328   */\n      iszero\n      tag_222\n      jumpi\n        /* \"#utility.yul\":13279:13318   */\n      tag_223\n        /* \"#utility.yul\":13316:13317   */\n      0x00\n        /* \"#utility.yul\":13309:13314   */\n      dup3\n        /* \"#utility.yul\":13279:13318   */\n      tag_79\n      jump\t// in\n    tag_223:\n        /* \"#utility.yul\":13252:13253   */\n      0x01\n        /* \"#utility.yul\":13245:13250   */\n      dup2\n        /* \"#utility.yul\":13241:13254   */\n      add\n        /* \"#utility.yul\":13232:13254   */\n      swap1\n      pop\n        /* \"#utility.yul\":13208:13328   */\n      jump(tag_220)\n    tag_222:\n        /* \"#utility.yul\":13148:13334   */\n      pop\n      pop\n      jump\t// out\n        /* \"#utility.yul\":13340:13883   */\n    tag_81:\n        /* \"#utility.yul\":13441:13443   */\n      0x1f\n        /* \"#utility.yul\":13436:13439   */\n      dup3\n        /* \"#utility.yul\":13433:13444   */\n      gt\n        /* \"#utility.yul\":13430:13876   */\n      iszero\n      tag_225\n      jumpi\n        /* \"#utility.yul\":13475:13513   */\n      tag_226\n        /* \"#utility.yul\":13507:13512   */\n      dup2\n        /* \"#utility.yul\":13475:13513   */\n      tag_70\n      jump\t// in\n    tag_226:\n        /* \"#utility.yul\":13559:13588   */\n      tag_227\n        /* \"#utility.yul\":13577:13587   */\n      dup5\n        /* \"#utility.yul\":13559:13588   */\n      tag_71\n      jump\t// in\n    tag_227:\n        /* \"#utility.yul\":13549:13557   */\n      dup2\n        /* \"#utility.yul\":13545:13589   */\n      add\n        /* \"#utility.yul\":13742:13744   */\n      0x20\n        /* \"#utility.yul\":13730:13740   */\n      dup6\n        /* \"#utility.yul\":13727:13745   */\n      lt\n        /* \"#utility.yul\":13724:13773   */\n      iszero\n      tag_228\n      jumpi\n        /* \"#utility.yul\":13763:13771   */\n      dup2\n        /* \"#utility.yul\":13748:13771   */\n      swap1\n      pop\n        /* \"#utility.yul\":13724:13773   */\n    tag_228:\n        /* \"#utility.yul\":13786:13866   */\n      tag_229\n        /* \"#utility.yul\":13842:13864   */\n      tag_230\n        /* \"#utility.yul\":13860:13863   */\n      dup6\n        /* \"#utility.yul\":13842:13864   */\n      tag_71\n      jump\t// in\n    tag_230:\n        /* \"#utility.yul\":13832:13840   */\n      dup4\n        /* \"#utility.yul\":13828:13865   */\n      add\n        /* \"#utility.yul\":13815:13826   */\n      dup3\n        /* \"#utility.yul\":13786:13866   */\n      tag_80\n      jump\t// in\n    tag_229:\n        /* \"#utility.yul\":13445:13876   */\n      pop\n      pop\n        /* \"#utility.yul\":13430:13876   */\n    tag_225:\n        /* \"#utility.yul\":13340:13883   */\n      pop\n      pop\n      pop\n      jump\t// out\n        /* \"#utility.yul\":13889:14006   */\n    tag_82:\n        /* \"#utility.yul\":13943:13951   */\n      0x00\n        /* \"#utility.yul\":13993:13998   */\n      dup3\n        /* \"#utility.yul\":13987:13991   */\n      dup3\n        /* \"#utility.yul\":13983:13999   */\n      shr\n        /* \"#utility.yul\":13962:13999   */\n      swap1\n      pop\n        /* \"#utility.yul\":13889:14006   */\n      swap3\n      swap2\n      pop\n      pop\n      jump\t// out\n        /* \"#utility.yul\":14012:14181   */\n    tag_83:\n        /* \"#utility.yul\":14056:14062   */\n      0x00\n        /* \"#utility.yul\":14089:14140   */\n      tag_233\n        /* \"#utility.yul\":14137:14138   */\n      0x00\n        /* \"#utility.yul\":14133:14139   */\n      not\n        /* \"#utility.yul\":14125:14130   */\n      dup5\n        /* \"#utility.yul\":14122:14123   */\n      0x08\n        /* \"#utility.yul\":14118:14131   */\n      mul\n        /* \"#utility.yul\":14089:14140   */\n      tag_82\n      jump\t// in\n    tag_233:\n        /* \"#utility.yul\":14085:14141   */\n      not\n        /* \"#utility.yul\":14170:14174   */\n      dup1\n        /* \"#utility.yul\":14164:14168   */\n      dup4\n        /* \"#utility.yul\":14160:14175   */\n      and\n        /* \"#utility.yul\":14150:14175   */\n      swap2\n      pop\n        /* \"#utility.yul\":14063:14181   */\n      pop\n        /* \"#utility.yul\":14012:14181   */\n      swap3\n      swap2\n      pop\n      pop\n      jump\t// out\n        /* \"#utility.yul\":14186:14481   */\n    tag_84:\n        /* \"#utility.yul\":14262:14266   */\n      0x00\n        /* \"#utility.yul\":14408:14437   */\n      tag_235\n        /* \"#utility.yul\":14433:14436   */\n      dup4\n        /* \"#utility.yul\":14427:14431   */\n      dup4\n        /* \"#utility.yul\":14408:14437   */\n      tag_83\n      jump\t// in\n    tag_235:\n        /* \"#utility.yul\":14400:14437   */\n      swap2\n      pop\n        /* \"#utility.yul\":14470:14473   */\n      dup3\n        /* \"#utility.yul\":14467:14468   */\n      0x02\n        /* \"#utility.yul\":14463:14474   */\n      mul\n        /* \"#utility.yul\":14457:14461   */\n      dup3\n        /* \"#utility.yul\":14454:14475   */\n      or\n        /* \"#utility.yul\":14446:14475   */\n      swap1\n      pop\n        /* \"#utility.yul\":14186:14481   */\n      swap3\n      swap2\n      pop\n      pop\n      jump\t// out\n        /* \"#utility.yul\":14486:15881   */\n    tag_36:\n        /* \"#utility.yul\":14603:14640   */\n      tag_237\n        /* \"#utility.yul\":14636:14639   */\n      dup3\n        /* \"#utility.yul\":14603:14640   */\n      tag_53\n      jump\t// in\n    tag_237:\n        /* \"#utility.yul\":14705:14723   */\n      0xffffffffffffffff\n        /* \"#utility.yul\":14697:14703   */\n      dup2\n        /* \"#utility.yul\":14694:14724   */\n      gt\n        /* \"#utility.yul\":14691:14747   */\n      iszero\n      tag_238\n      jumpi\n        /* \"#utility.yul\":14727:14745   */\n      tag_239\n      tag_43\n      jump\t// in\n    tag_239:\n        /* \"#utility.yul\":14691:14747   */\n    tag_238:\n        /* \"#utility.yul\":14771:14809   */\n      tag_240\n        /* \"#utility.yul\":14803:14807   */\n      dup3\n        /* \"#utility.yul\":14797:14808   */\n      sload\n        /* \"#utility.yul\":14771:14809   */\n      tag_22\n      jump\t// in\n    tag_240:\n        /* \"#utility.yul\":14856:14923   */\n      tag_241\n        /* \"#utility.yul\":14916:14922   */\n      dup3\n        /* \"#utility.yul\":14908:14914   */\n      dup3\n        /* \"#utility.yul\":14902:14906   */\n      dup6\n        /* \"#utility.yul\":14856:14923   */\n      tag_81\n      jump\t// in\n    tag_241:\n        /* \"#utility.yul\":14950:14951   */\n      0x00\n        /* \"#utility.yul\":14974:14978   */\n      0x20\n        /* \"#utility.yul\":14961:14978   */\n      swap1\n      pop\n        /* \"#utility.yul\":15006:15008   */\n      0x1f\n        /* \"#utility.yul\":14998:15004   */\n      dup4\n        /* \"#utility.yul\":14995:15009   */\n      gt\n        /* \"#utility.yul\":15023:15024   */\n      0x01\n        /* \"#utility.yul\":15018:15636   */\n      dup2\n      eq\n      tag_243\n      jumpi\n        /* \"#utility.yul\":15680:15681   */\n      0x00\n        /* \"#utility.yul\":15697:15703   */\n      dup5\n        /* \"#utility.yul\":15694:15771   */\n      iszero\n      tag_244\n      jumpi\n        /* \"#utility.yul\":15746:15755   */\n      dup3\n        /* \"#utility.yul\":15741:15744   */\n      dup8\n        /* \"#utility.yul\":15737:15756   */\n      add\n        /* \"#utility.yul\":15731:15757   */\n      mload\n        /* \"#utility.yul\":15722:15757   */\n      swap1\n      pop\n        /* \"#utility.yul\":15694:15771   */\n    tag_244:\n        /* \"#utility.yul\":15797:15864   */\n      tag_245\n        /* \"#utility.yul\":15857:15863   */\n      dup6\n        /* \"#utility.yul\":15850:15855   */\n      dup3\n        /* \"#utility.yul\":15797:15864   */\n      tag_84\n      jump\t// in\n    tag_245:\n        /* \"#utility.yul\":15791:15795   */\n      dup7\n        /* \"#utility.yul\":15784:15865   */\n      sstore\n        /* \"#utility.yul\":15653:15875   */\n      pop\n        /* \"#utility.yul\":14988:15875   */\n      jump(tag_242)\n        /* \"#utility.yul\":15018:15636   */\n    tag_243:\n        /* \"#utility.yul\":15070:15074   */\n      0x1f\n        /* \"#utility.yul\":15066:15075   */\n      not\n        /* \"#utility.yul\":15058:15064   */\n      dup5\n        /* \"#utility.yul\":15054:15076   */\n      and\n        /* \"#utility.yul\":15104:15141   */\n      tag_246\n        /* \"#utility.yul\":15136:15140   */\n      dup7\n        /* \"#utility.yul\":15104:15141   */\n      tag_70\n      jump\t// in\n    tag_246:\n        /* \"#utility.yul\":15163:15164   */\n      0x00\n        /* \"#utility.yul\":15177:15385   */\n    tag_247:\n        /* \"#utility.yul\":15191:15198   */\n      dup3\n        /* \"#utility.yul\":15188:15189   */\n      dup2\n        /* \"#utility.yul\":15185:15199   */\n      lt\n        /* \"#utility.yul\":15177:15385   */\n      iszero\n      tag_249\n      jumpi\n        /* \"#utility.yul\":15270:15279   */\n      dup5\n        /* \"#utility.yul\":15265:15268   */\n      dup10\n        /* \"#utility.yul\":15261:15280   */\n      add\n        /* \"#utility.yul\":15255:15281   */\n      mload\n        /* \"#utility.yul\":15247:15253   */\n      dup3\n        /* \"#utility.yul\":15240:15282   */\n      sstore\n        /* \"#utility.yul\":15321:15322   */\n      0x01\n        /* \"#utility.yul\":15313:15319   */\n      dup3\n        /* \"#utility.yul\":15309:15323   */\n      add\n        /* \"#utility.yul\":15299:15323   */\n      swap2\n      pop\n        /* \"#utility.yul\":15368:15370   */\n      0x20\n        /* \"#utility.yul\":15357:15366   */\n      dup6\n        /* \"#utility.yul\":15353:15371   */\n      add\n        /* \"#utility.yul\":15340:15371   */\n      swap5\n      pop\n        /* \"#utility.yul\":15214:15218   */\n      0x20\n        /* \"#utility.yul\":15211:15212   */\n      dup2\n        /* \"#utility.yul\":15207:15219   */\n      add\n        /* \"#utility.yul\":15202:15219   */\n      swap1\n      pop\n        /* \"#utility.yul\":15177:15385   */\n      jump(tag_247)\n    tag_249:\n        /* \"#utility.yul\":15413:15419   */\n      dup7\n        /* \"#utility.yul\":15404:15411   */\n      dup4\n        /* \"#utility.yul\":15401:15420   */\n      lt\n        /* \"#utility.yul\":15398:15577   */\n      iszero\n      tag_250\n      jumpi\n        /* \"#utility.yul\":15471:15480   */\n      dup5\n        /* \"#utility.yul\":15466:15469   */\n      dup10\n        /* \"#utility.yul\":15462:15481   */\n      add\n        /* \"#utility.yul\":15456:15482   */\n      mload\n        /* \"#utility.yul\":15514:15562   */\n      tag_251\n        /* \"#utility.yul\":15556:15560   */\n      0x1f\n        /* \"#utility.yul\":15548:15554   */\n      dup10\n        /* \"#utility.yul\":15544:15561   */\n      and\n        /* \"#utility.yul\":15533:15542   */\n      dup3\n        /* \"#utility.yul\":15514:15562   */\n      tag_83\n      jump\t// in\n    tag_251:\n        /* \"#utility.yul\":15506:15512   */\n      dup4\n        /* \"#utility.yul\":15499:15563   */\n      sstore\n        /* \"#utility.yul\":15421:15577   */\n      pop\n        /* \"#utility.yul\":15398:15577   */\n    tag_250:\n        /* \"#utility.yul\":15623:15624   */\n      0x01\n        /* \"#utility.yul\":15619:15620   */\n      0x02\n        /* \"#utility.yul\":15611:15617   */\n      dup9\n        /* \"#utility.yul\":15607:15621   */\n      mul\n        /* \"#utility.yul\":15603:15625   */\n      add\n        /* \"#utility.yul\":15597:15601   */\n      dup9\n        /* \"#utility.yul\":15590:15626   */\n      sstore\n        /* \"#utility.yul\":15025:15636   */\n      pop\n      pop\n      pop\n        /* \"#utility.yul\":14988:15875   */\n    tag_242:\n      pop\n        /* \"#utility.yul\":14578:15881   */\n      pop\n      pop\n      pop\n        /* \"#utility.yul\":14486:15881   */\n      pop\n      pop\n      jump\t// out\n\n    auxdata: 0xa264697066735822122046c9c017cac7cea743feb0c46528de56eb0aedd03048b57c1477636a50bb4e1464736f6c63430008120033\n}\n",
				"bytecode": {
					"linkReferences": {},
					"object": "608060405234801561001057600080fd5b50610b42806100206000396000f3fe608060405234801561001057600080fd5b50600436106100365760003560e01c8063154284421461003b5780632720532a1461006b575b600080fd5b610055600480360381019061005091906103fe565b610087565b6040516100629190610617565b60405180910390f35b61008560048036038101906100809190610665565b6101be565b005b60606000826040516100999190610754565b9081526020016040518091039020805480602002602001604051908101604052809291908181526020016000905b828210156101b357838290600052602060002090600502016040518060a00160405290816000820180546100fa9061079a565b80601f01602080910402602001604051908101604052809291908181526020018280546101269061079a565b80156101735780601f1061014857610100808354040283529160200191610173565b820191906000526020600020905b81548152906001019060200180831161015657829003601f168201915b50505050508152602001600182015481526020016002820154815260200160038201548152602001600482015481525050815260200190600101906100c7565b505050509050919050565b60008183856101cd91906107fa565b6101d791906107fa565b905060006003826101e8919061085d565b91508190506000876040516101fd9190610754565b90815260200160405180910390206040518060a0016040528088815260200187815260200186815260200185815260200183815250908060018154018082558091505060019003906000526020600020906005020160009091909190915060008201518160000190816102709190610a3a565b5060208201518160010155604082015181600201556060820151816003015560808201518160040155505050505050505050565b6000604051905090565b600080fd5b600080fd5b600080fd5b600080fd5b6000601f19601f8301169050919050565b7f4e487b7100000000000000000000000000000000000000000000000000000000600052604160045260246000fd5b61030b826102c2565b810181811067ffffffffffffffff8211171561032a576103296102d3565b5b80604052505050565b600061033d6102a4565b90506103498282610302565b919050565b600067ffffffffffffffff821115610369576103686102d3565b5b610372826102c2565b9050602081019050919050565b82818337600083830152505050565b60006103a161039c8461034e565b610333565b9050828152602081018484840111156103bd576103bc6102bd565b5b6103c884828561037f565b509392505050565b600082601f8301126103e5576103e46102b8565b5b81356103f584826020860161038e565b91505092915050565b600060208284031215610414576104136102ae565b5b600082013567ffffffffffffffff811115610432576104316102b3565b5b61043e848285016103d0565b91505092915050565b600081519050919050565b600082825260208201905092915050565b6000819050602082019050919050565b600081519050919050565b600082825260208201905092915050565b60005b838110156104ad578082015181840152602081019050610492565b60008484015250505050565b60006104c482610473565b6104ce818561047e565b93506104de81856020860161048f565b6104e7816102c2565b840191505092915050565b6000819050919050565b610505816104f2565b82525050565b600060a083016000830151848203600086015261052882826104b9565b915050602083015161053d60208601826104fc565b50604083015161055060408601826104fc565b50606083015161056360608601826104fc565b50608083015161057660808601826104fc565b508091505092915050565b600061058d838361050b565b905092915050565b6000602082019050919050565b60006105ad82610447565b6105b78185610452565b9350836020820285016105c985610463565b8060005b8581101561060557848403895281516105e68582610581565b94506105f183610595565b925060208a019950506001810190506105cd565b50829750879550505050505092915050565b6000602082019050818103600083015261063181846105a2565b905092915050565b610642816104f2565b811461064d57600080fd5b50565b60008135905061065f81610639565b92915050565b600080600080600060a08688031215610681576106806102ae565b5b600086013567ffffffffffffffff81111561069f5761069e6102b3565b5b6106ab888289016103d0565b955050602086013567ffffffffffffffff8111156106cc576106cb6102b3565b5b6106d8888289016103d0565b94505060406106e988828901610650565b93505060606106fa88828901610650565b925050608061070b88828901610650565b9150509295509295909350565b600081905092915050565b600061072e82610473565b6107388185610718565b935061074881856020860161048f565b80840191505092915050565b60006107608284610723565b915081905092915050565b7f4e487b7100000000000000000000000000000000000000000000000000000000600052602260045260246000fd5b600060028204905060018216806107b257607f821691505b6020821081036107c5576107c461076b565b5b50919050565b7f4e487b7100000000000000000000000000000000000000000000000000000000600052601160045260246000fd5b6000610805826104f2565b9150610810836104f2565b9250828201905080821115610828576108276107cb565b5b92915050565b7f4e487b7100000000000000000000000000000000000000000000000000000000600052601260045260246000fd5b6000610868826104f2565b9150610873836104f2565b9250826108835761088261082e565b5b828204905092915050565b60008190508160005260206000209050919050565b60006020601f8301049050919050565b600082821b905092915050565b6000600883026108f07fffffffffffffffffffffffffffffffffffffffffffffffffffffffffffffffff826108b3565b6108fa86836108b3565b95508019841693508086168417925050509392505050565b6000819050919050565b600061093761093261092d846104f2565b610912565b6104f2565b9050919050565b6000819050919050565b6109518361091c565b61096561095d8261093e565b8484546108c0565b825550505050565b600090565b61097a61096d565b610985818484610948565b505050565b5b818110156109a95761099e600082610972565b60018101905061098b565b5050565b601f8211156109ee576109bf8161088e565b6109c8846108a3565b810160208510156109d7578190505b6109eb6109e3856108a3565b83018261098a565b50505b505050565b600082821c905092915050565b6000610a11600019846008026109f3565b1980831691505092915050565b6000610a2a8383610a00565b9150826002028217905092915050565b610a4382610473565b67ffffffffffffffff811115610a5c57610a5b6102d3565b5b610a66825461079a565b610a718282856109ad565b600060209050601f831160018114610aa45760008415610a92578287015190505b610a9c8582610a1e565b865550610b04565b601f198416610ab28661088e565b60005b82811015610ada57848901518255600182019150602085019450602081019050610ab5565b86831015610af75784890151610af3601f891682610a00565b8355505b6001600288020188555050505b50505050505056fea264697066735822122046c9c017cac7cea743feb0c46528de56eb0aedd03048b57c1477636a50bb4e1464736f6c63430008120033",
					"opcodes": "PUSH1 0x80 PUSH1 0x40 MSTORE CALLVALUE DUP1 ISZERO PUSH2 0x10 JUMPI PUSH1 0x0 DUP1 REVERT JUMPDEST POP PUSH2 0xB42 DUP1 PUSH2 0x20 PUSH1 0x0 CODECOPY PUSH1 0x0 RETURN INVALID PUSH1 0x80 PUSH1 0x40 MSTORE CALLVALUE DUP1 ISZERO PUSH2 0x10 JUMPI PUSH1 0x0 DUP1 REVERT JUMPDEST POP PUSH1 0x4 CALLDATASIZE LT PUSH2 0x36 JUMPI PUSH1 0x0 CALLDATALOAD PUSH1 0xE0 SHR DUP1 PUSH4 0x15428442 EQ PUSH2 0x3B JUMPI DUP1 PUSH4 0x2720532A EQ PUSH2 0x6B JUMPI JUMPDEST PUSH1 0x0 DUP1 REVERT JUMPDEST PUSH2 0x55 PUSH1 0x4 DUP1 CALLDATASIZE SUB DUP2 ADD SWAP1 PUSH2 0x50 SWAP2 SWAP1 PUSH2 0x3FE JUMP JUMPDEST PUSH2 0x87 JUMP JUMPDEST PUSH1 0x40 MLOAD PUSH2 0x62 SWAP2 SWAP1 PUSH2 0x617 JUMP JUMPDEST PUSH1 0x40 MLOAD DUP1 SWAP2 SUB SWAP1 RETURN JUMPDEST PUSH2 0x85 PUSH1 0x4 DUP1 CALLDATASIZE SUB DUP2 ADD SWAP1 PUSH2 0x80 SWAP2 SWAP1 PUSH2 0x665 JUMP JUMPDEST PUSH2 0x1BE JUMP JUMPDEST STOP JUMPDEST PUSH1 0x60 PUSH1 0x0 DUP3 PUSH1 0x40 MLOAD PUSH2 0x99 SWAP2 SWAP1 PUSH2 0x754 JUMP JUMPDEST SWAP1 DUP2 MSTORE PUSH1 0x20 ADD PUSH1 0x40 MLOAD DUP1 SWAP2 SUB SWAP1 KECCAK256 DUP1 SLOAD DUP1 PUSH1 0x20 MUL PUSH1 0x20 ADD PUSH1 0x40 MLOAD SWAP1 DUP2 ADD PUSH1 0x40 MSTORE DUP1 SWAP3 SWAP2 SWAP1 DUP2 DUP2 MSTORE PUSH1 0x20 ADD PUSH1 0x0 SWAP1 JUMPDEST DUP3 DUP3 LT ISZERO PUSH2 0x1B3 JUMPI DUP4 DUP3 SWAP1 PUSH1 0x0 MSTORE PUSH1 0x20 PUSH1 0x0 KECCAK256 SWAP1 PUSH1 0x5 MUL ADD PUSH1 0x40 MLOAD DUP1 PUSH1 0xA0 ADD PUSH1 0x40 MSTORE SWAP1 DUP2 PUSH1 0x0 DUP3 ADD DUP1 SLOAD PUSH2 0xFA SWAP1 PUSH2 0x79A JUMP JUMPDEST DUP1 PUSH1 0x1F ADD PUSH1 0x20 DUP1 SWAP2 DIV MUL PUSH1 0x20 ADD PUSH1 0x40 MLOAD SWAP1 DUP2 ADD PUSH1 0x40 MSTORE DUP1 SWAP3 SWAP2 SWAP1 DUP2 DUP2 MSTORE PUSH1 0x20 ADD DUP3 DUP1 SLOAD PUSH2 0x126 SWAP1 PUSH2 0x79A JUMP JUMPDEST DUP1 ISZERO PUSH2 0x173 JUMPI DUP1 PUSH1 0x1F LT PUSH2 0x148 JUMPI PUSH2 0x100 DUP1 DUP4 SLOAD DIV MUL DUP4 MSTORE SWAP2 PUSH1 0x20 ADD SWAP2 PUSH2 0x173 JUMP JUMPDEST DUP3 ADD SWAP2 SWAP1 PUSH1 0x0 MSTORE PUSH1 0x20 PUSH1 0x0 KECCAK256 SWAP1 JUMPDEST DUP2 SLOAD DUP2 MSTORE SWAP1 PUSH1 0x1 ADD SWAP1 PUSH1 0x20 ADD DUP1 DUP4 GT PUSH2 0x156 JUMPI DUP3 SWAP1 SUB PUSH1 0x1F AND DUP3 ADD SWAP2 JUMPDEST POP POP POP POP POP DUP2 MSTORE PUSH1 0x20 ADD PUSH1 0x1 DUP3 ADD SLOAD DUP2 MSTORE PUSH1 0x20 ADD PUSH1 0x2 DUP3 ADD SLOAD DUP2 MSTORE PUSH1 0x20 ADD PUSH1 0x3 DUP3 ADD SLOAD DUP2 MSTORE PUSH1 0x20 ADD PUSH1 0x4 DUP3 ADD SLOAD DUP2 MSTORE POP POP DUP2 MSTORE PUSH1 0x20 ADD SWAP1 PUSH1 0x1 ADD SWAP1 PUSH2 0xC7 JUMP JUMPDEST POP POP POP POP SWAP1 POP SWAP2 SWAP1 POP JUMP JUMPDEST PUSH1 0x0 DUP2 DUP4 DUP6 PUSH2 0x1CD SWAP2 SWAP1 PUSH2 0x7FA JUMP JUMPDEST PUSH2 0x1D7 SWAP2 SWAP1 PUSH2 0x7FA JUMP JUMPDEST SWAP1 POP PUSH1 0x0 PUSH1 0x3 DUP3 PUSH2 0x1E8 SWAP2 SWAP1 PUSH2 0x85D JUMP JUMPDEST SWAP2 POP DUP2 SWAP1 POP PUSH1 0x0 DUP8 PUSH1 0x40 MLOAD PUSH2 0x1FD SWAP2 SWAP1 PUSH2 0x754 JUMP JUMPDEST SWAP1 DUP2 MSTORE PUSH1 0x20 ADD PUSH1 0x40 MLOAD DUP1 SWAP2 SUB SWAP1 KECCAK256 PUSH1 0x40 MLOAD DUP1 PUSH1 0xA0 ADD PUSH1 0x40 MSTORE DUP1 DUP9 DUP2 MSTORE PUSH1 0x20 ADD DUP8 DUP2 MSTORE PUSH1 0x20 ADD DUP7 DUP2 MSTORE PUSH1 0x20 ADD DUP6 DUP2 MSTORE PUSH1 0x20 ADD DUP4 DUP2 MSTORE POP SWAP1 DUP1 PUSH1 0x1 DUP2 SLOAD ADD DUP1 DUP3 SSTORE DUP1 SWAP2 POP POP PUSH1 0x1 SWAP1 SUB SWAP1 PUSH1 0x0 MSTORE PUSH1 0x20 PUSH1 0x0 KECCAK256 SWAP1 PUSH1 0x5 MUL ADD PUSH1 0x0 SWAP1 SWAP2 SWAP1 SWAP2 SWAP1 SWAP2 POP PUSH1 0x0 DUP3 ADD MLOAD DUP2 PUSH1 0x0 ADD SWAP1 DUP2 PUSH2 0x270 SWAP2 SWAP1 PUSH2 0xA3A JUMP JUMPDEST POP PUSH1 0x20 DUP3 ADD MLOAD DUP2 PUSH1 0x1 ADD SSTORE PUSH1 0x40 DUP3 ADD MLOAD DUP2 PUSH1 0x2 ADD SSTORE PUSH1 0x60 DUP3 ADD MLOAD DUP2 PUSH1 0x3 ADD SSTORE PUSH1 0x80 DUP3 ADD MLOAD DUP2 PUSH1 0x4 ADD SSTORE POP POP POP POP POP POP POP POP POP JUMP JUMPDEST PUSH1 0x0 PUSH1 0x40 MLOAD SWAP1 POP SWAP1 JUMP JUMPDEST PUSH1 0x0 DUP1 REVERT JUMPDEST PUSH1 0x0 DUP1 REVERT JUMPDEST PUSH1 0x0 DUP1 REVERT JUMPDEST PUSH1 0x0 DUP1 REVERT JUMPDEST PUSH1 0x0 PUSH1 0x1F NOT PUSH1 0x1F DUP4 ADD AND SWAP1 POP SWAP2 SWAP1 POP JUMP JUMPDEST PUSH32 0x4E487B7100000000000000000000000000000000000000000000000000000000 PUSH1 0x0 MSTORE PUSH1 0x41 PUSH1 0x4 MSTORE PUSH1 0x24 PUSH1 0x0 REVERT JUMPDEST PUSH2 0x30B DUP3 PUSH2 0x2C2 JUMP JUMPDEST DUP2 ADD DUP2 DUP2 LT PUSH8 0xFFFFFFFFFFFFFFFF DUP3 GT OR ISZERO PUSH2 0x32A JUMPI PUSH2 0x329 PUSH2 0x2D3 JUMP JUMPDEST JUMPDEST DUP1 PUSH1 0x40 MSTORE POP POP POP JUMP JUMPDEST PUSH1 0x0 PUSH2 0x33D PUSH2 0x2A4 JUMP JUMPDEST SWAP1 POP PUSH2 0x349 DUP3 DUP3 PUSH2 0x302 JUMP JUMPDEST SWAP2 SWAP1 POP JUMP JUMPDEST PUSH1 0x0 PUSH8 0xFFFFFFFFFFFFFFFF DUP3 GT ISZERO PUSH2 0x369 JUMPI PUSH2 0x368 PUSH2 0x2D3 JUMP JUMPDEST JUMPDEST PUSH2 0x372 DUP3 PUSH2 0x2C2 JUMP JUMPDEST SWAP1 POP PUSH1 0x20 DUP2 ADD SWAP1 POP SWAP2 SWAP1 POP JUMP JUMPDEST DUP3 DUP2 DUP4 CALLDATACOPY PUSH1 0x0 DUP4 DUP4 ADD MSTORE POP POP POP JUMP JUMPDEST PUSH1 0x0 PUSH2 0x3A1 PUSH2 0x39C DUP5 PUSH2 0x34E JUMP JUMPDEST PUSH2 0x333 JUMP JUMPDEST SWAP1 POP DUP3 DUP2 MSTORE PUSH1 0x20 DUP2 ADD DUP5 DUP5 DUP5 ADD GT ISZERO PUSH2 0x3BD JUMPI PUSH2 0x3BC PUSH2 0x2BD JUMP JUMPDEST JUMPDEST PUSH2 0x3C8 DUP5 DUP3 DUP6 PUSH2 0x37F JUMP JUMPDEST POP SWAP4 SWAP3 POP POP POP JUMP JUMPDEST PUSH1 0x0 DUP3 PUSH1 0x1F DUP4 ADD SLT PUSH2 0x3E5 JUMPI PUSH2 0x3E4 PUSH2 0x2B8 JUMP JUMPDEST JUMPDEST DUP2 CALLDATALOAD PUSH2 0x3F5 DUP5 DUP3 PUSH1 0x20 DUP7 ADD PUSH2 0x38E JUMP JUMPDEST SWAP2 POP POP SWAP3 SWAP2 POP POP JUMP JUMPDEST PUSH1 0x0 PUSH1 0x20 DUP3 DUP5 SUB SLT ISZERO PUSH2 0x414 JUMPI PUSH2 0x413 PUSH2 0x2AE JUMP JUMPDEST JUMPDEST PUSH1 0x0 DUP3 ADD CALLDATALOAD PUSH8 0xFFFFFFFFFFFFFFFF DUP2 GT ISZERO PUSH2 0x432 JUMPI PUSH2 0x431 PUSH2 0x2B3 JUMP JUMPDEST JUMPDEST PUSH2 0x43E DUP5 DUP3 DUP6 ADD PUSH2 0x3D0 JUMP JUMPDEST SWAP2 POP POP SWAP3 SWAP2 POP POP JUMP JUMPDEST PUSH1 0x0 DUP2 MLOAD SWAP1 POP SWAP2 SWAP1 POP JUMP JUMPDEST PUSH1 0x0 DUP3 DUP3 MSTORE PUSH1 0x20 DUP3 ADD SWAP1 POP SWAP3 SWAP2 POP POP JUMP JUMPDEST PUSH1 0x0 DUP2 SWAP1 POP PUSH1 0x20 DUP3 ADD SWAP1 POP SWAP2 SWAP1 POP JUMP JUMPDEST PUSH1 0x0 DUP2 MLOAD SWAP1 POP SWAP2 SWAP1 POP JUMP JUMPDEST PUSH1 0x0 DUP3 DUP3 MSTORE PUSH1 0x20 DUP3 ADD SWAP1 POP SWAP3 SWAP2 POP POP JUMP JUMPDEST PUSH1 0x0 JUMPDEST DUP4 DUP2 LT ISZERO PUSH2 0x4AD JUMPI DUP1 DUP3 ADD MLOAD DUP2 DUP5 ADD MSTORE PUSH1 0x20 DUP2 ADD SWAP1 POP PUSH2 0x492 JUMP JUMPDEST PUSH1 0x0 DUP5 DUP5 ADD MSTORE POP POP POP POP JUMP JUMPDEST PUSH1 0x0 PUSH2 0x4C4 DUP3 PUSH2 0x473 JUMP JUMPDEST PUSH2 0x4CE DUP2 DUP6 PUSH2 0x47E JUMP JUMPDEST SWAP4 POP PUSH2 0x4DE DUP2 DUP6 PUSH1 0x20 DUP7 ADD PUSH2 0x48F JUMP JUMPDEST PUSH2 0x4E7 DUP2 PUSH2 0x2C2 JUMP JUMPDEST DUP5 ADD SWAP2 POP POP SWAP3 SWAP2 POP POP JUMP JUMPDEST PUSH1 0x0 DUP2 SWAP1 POP SWAP2 SWAP1 POP JUMP JUMPDEST PUSH2 0x505 DUP2 PUSH2 0x4F2 JUMP JUMPDEST DUP3 MSTORE POP POP JUMP JUMPDEST PUSH1 0x0 PUSH1 0xA0 DUP4 ADD PUSH1 0x0 DUP4 ADD MLOAD DUP5 DUP3 SUB PUSH1 0x0 DUP7 ADD MSTORE PUSH2 0x528 DUP3 DUP3 PUSH2 0x4B9 JUMP JUMPDEST SWAP2 POP POP PUSH1 0x20 DUP4 ADD MLOAD PUSH2 0x53D PUSH1 0x20 DUP7 ADD DUP3 PUSH2 0x4FC JUMP JUMPDEST POP PUSH1 0x40 DUP4 ADD MLOAD PUSH2 0x550 PUSH1 0x40 DUP7 ADD DUP3 PUSH2 0x4FC JUMP JUMPDEST POP PUSH1 0x60 DUP4 ADD MLOAD PUSH2 0x563 PUSH1 0x60 DUP7 ADD DUP3 PUSH2 0x4FC JUMP JUMPDEST POP PUSH1 0x80 DUP4 ADD MLOAD PUSH2 0x576 PUSH1 0x80 DUP7 ADD DUP3 PUSH2 0x4FC JUMP JUMPDEST POP DUP1 SWAP2 POP POP SWAP3 SWAP2 POP POP JUMP JUMPDEST PUSH1 0x0 PUSH2 0x58D DUP4 DUP4 PUSH2 0x50B JUMP JUMPDEST SWAP1 POP SWAP3 SWAP2 POP POP JUMP JUMPDEST PUSH1 0x0 PUSH1 0x20 DUP3 ADD SWAP1 POP SWAP2 SWAP1 POP JUMP JUMPDEST PUSH1 0x0 PUSH2 0x5AD DUP3 PUSH2 0x447 JUMP JUMPDEST PUSH2 0x5B7 DUP2 DUP6 PUSH2 0x452 JUMP JUMPDEST SWAP4 POP DUP4 PUSH1 0x20 DUP3 MUL DUP6 ADD PUSH2 0x5C9 DUP6 PUSH2 0x463 JUMP JUMPDEST DUP1 PUSH1 0x0 JUMPDEST DUP6 DUP2 LT ISZERO PUSH2 0x605 JUMPI DUP5 DUP5 SUB DUP10 MSTORE DUP2 MLOAD PUSH2 0x5E6 DUP6 DUP3 PUSH2 0x581 JUMP JUMPDEST SWAP5 POP PUSH2 0x5F1 DUP4 PUSH2 0x595 JUMP JUMPDEST SWAP3 POP PUSH1 0x20 DUP11 ADD SWAP10 POP POP PUSH1 0x1 DUP2 ADD SWAP1 POP PUSH2 0x5CD JUMP JUMPDEST POP DUP3 SWAP8 POP DUP8 SWAP6 POP POP POP POP POP POP SWAP3 SWAP2 POP POP JUMP JUMPDEST PUSH1 0x0 PUSH1 0x20 DUP3 ADD SWAP1 POP DUP2 DUP2 SUB PUSH1 0x0 DUP4 ADD MSTORE PUSH2 0x631 DUP2 DUP5 PUSH2 0x5A2 JUMP JUMPDEST SWAP1 POP SWAP3 SWAP2 POP POP JUMP JUMPDEST PUSH2 0x642 DUP2 PUSH2 0x4F2 JUMP JUMPDEST DUP2 EQ PUSH2 0x64D JUMPI PUSH1 0x0 DUP1 REVERT JUMPDEST POP JUMP JUMPDEST PUSH1 0x0 DUP2 CALLDATALOAD SWAP1 POP PUSH2 0x65F DUP2 PUSH2 0x639 JUMP JUMPDEST SWAP3 SWAP2 POP POP JUMP JUMPDEST PUSH1 0x0 DUP1 PUSH1 0x0 DUP1 PUSH1 0x0 PUSH1 0xA0 DUP7 DUP9 SUB SLT ISZERO PUSH2 0x681 JUMPI PUSH2 0x680 PUSH2 0x2AE JUMP JUMPDEST JUMPDEST PUSH1 0x0 DUP7 ADD CALLDATALOAD PUSH8 0xFFFFFFFFFFFFFFFF DUP2 GT ISZERO PUSH2 0x69F JUMPI PUSH2 0x69E PUSH2 0x2B3 JUMP JUMPDEST JUMPDEST PUSH2 0x6AB DUP9 DUP3 DUP10 ADD PUSH2 0x3D0 JUMP JUMPDEST SWAP6 POP POP PUSH1 0x20 DUP7 ADD CALLDATALOAD PUSH8 0xFFFFFFFFFFFFFFFF DUP2 GT ISZERO PUSH2 0x6CC JUMPI PUSH2 0x6CB PUSH2 0x2B3 JUMP JUMPDEST JUMPDEST PUSH2 0x6D8 DUP9 DUP3 DUP10 ADD PUSH2 0x3D0 JUMP JUMPDEST SWAP5 POP POP PUSH1 0x40 PUSH2 0x6E9 DUP9 DUP3 DUP10 ADD PUSH2 0x650 JUMP JUMPDEST SWAP4 POP POP PUSH1 0x60 PUSH2 0x6FA DUP9 DUP3 DUP10 ADD PUSH2 0x650 JUMP JUMPDEST SWAP3 POP POP PUSH1 0x80 PUSH2 0x70B DUP9 DUP3 DUP10 ADD PUSH2 0x650 JUMP JUMPDEST SWAP2 POP POP SWAP3 SWAP6 POP SWAP3 SWAP6 SWAP1 SWAP4 POP JUMP JUMPDEST PUSH1 0x0 DUP2 SWAP1 POP SWAP3 SWAP2 POP POP JUMP JUMPDEST PUSH1 0x0 PUSH2 0x72E DUP3 PUSH2 0x473 JUMP JUMPDEST PUSH2 0x738 DUP2 DUP6 PUSH2 0x718 JUMP JUMPDEST SWAP4 POP PUSH2 0x748 DUP2 DUP6 PUSH1 0x20 DUP7 ADD PUSH2 0x48F JUMP JUMPDEST DUP1 DUP5 ADD SWAP2 POP POP SWAP3 SWAP2 POP POP JUMP JUMPDEST PUSH1 0x0 PUSH2 0x760 DUP3 DUP5 PUSH2 0x723 JUMP JUMPDEST SWAP2 POP DUP2 SWAP1 POP SWAP3 SWAP2 POP POP JUMP JUMPDEST PUSH32 0x4E487B7100000000000000000000000000000000000000000000000000000000 PUSH1 0x0 MSTORE PUSH1 0x22 PUSH1 0x4 MSTORE PUSH1 0x24 PUSH1 0x0 REVERT JUMPDEST PUSH1 0x0 PUSH1 0x2 DUP3 DIV SWAP1 POP PUSH1 0x1 DUP3 AND DUP1 PUSH2 0x7B2 JUMPI PUSH1 0x7F DUP3 AND SWAP2 POP JUMPDEST PUSH1 0x20 DUP3 LT DUP2 SUB PUSH2 0x7C5 JUMPI PUSH2 0x7C4 PUSH2 0x76B JUMP JUMPDEST JUMPDEST POP SWAP2 SWAP1 POP JUMP JUMPDEST PUSH32 0x4E487B7100000000000000000000000000000000000000000000000000000000 PUSH1 0x0 MSTORE PUSH1 0x11 PUSH1 0x4 MSTORE PUSH1 0x24 PUSH1 0x0 REVERT JUMPDEST PUSH1 0x0 PUSH2 0x805 DUP3 PUSH2 0x4F2 JUMP JUMPDEST SWAP2 POP PUSH2 0x810 DUP4 PUSH2 0x4F2 JUMP JUMPDEST SWAP3 POP DUP3 DUP3 ADD SWAP1 POP DUP1 DUP3 GT ISZERO PUSH2 0x828 JUMPI PUSH2 0x827 PUSH2 0x7CB JUMP JUMPDEST JUMPDEST SWAP3 SWAP2 POP POP JUMP JUMPDEST PUSH32 0x4E487B7100000000000000000000000000000000000000000000000000000000 PUSH1 0x0 MSTORE PUSH1 0x12 PUSH1 0x4 MSTORE PUSH1 0x24 PUSH1 0x0 REVERT JUMPDEST PUSH1 0x0 PUSH2 0x868 DUP3 PUSH2 0x4F2 JUMP JUMPDEST SWAP2 POP PUSH2 0x873 DUP4 PUSH2 0x4F2 JUMP JUMPDEST SWAP3 POP DUP3 PUSH2 0x883 JUMPI PUSH2 0x882 PUSH2 0x82E JUMP JUMPDEST JUMPDEST DUP3 DUP3 DIV SWAP1 POP SWAP3 SWAP2 POP POP JUMP JUMPDEST PUSH1 0x0 DUP2 SWAP1 POP DUP2 PUSH1 0x0 MSTORE PUSH1 0x20 PUSH1 0x0 KECCAK256 SWAP1 POP SWAP2 SWAP1 POP JUMP JUMPDEST PUSH1 0x0 PUSH1 0x20 PUSH1 0x1F DUP4 ADD DIV SWAP1 POP SWAP2 SWAP1 POP JUMP JUMPDEST PUSH1 0x0 DUP3 DUP3 SHL SWAP1 POP SWAP3 SWAP2 POP POP JUMP JUMPDEST PUSH1 0x0 PUSH1 0x8 DUP4 MUL PUSH2 0x8F0 PUSH32 0xFFFFFFFFFFFFFFFFFFFFFFFFFFFFFFFFFFFFFFFFFFFFFFFFFFFFFFFFFFFFFFFF DUP3 PUSH2 0x8B3 JUMP JUMPDEST PUSH2 0x8FA DUP7 DUP4 PUSH2 0x8B3 JUMP JUMPDEST SWAP6 POP DUP1 NOT DUP5 AND SWAP4 POP DUP1 DUP7 AND DUP5 OR SWAP3 POP POP POP SWAP4 SWAP3 POP POP POP JUMP JUMPDEST PUSH1 0x0 DUP2 SWAP1 POP SWAP2 SWAP1 POP JUMP JUMPDEST PUSH1 0x0 PUSH2 0x937 PUSH2 0x932 PUSH2 0x92D DUP5 PUSH2 0x4F2 JUMP JUMPDEST PUSH2 0x912 JUMP JUMPDEST PUSH2 0x4F2 JUMP JUMPDEST SWAP1 POP SWAP2 SWAP1 POP JUMP JUMPDEST PUSH1 0x0 DUP2 SWAP1 POP SWAP2 SWAP1 POP JUMP JUMPDEST PUSH2 0x951 DUP4 PUSH2 0x91C JUMP JUMPDEST PUSH2 0x965 PUSH2 0x95D DUP3 PUSH2 0x93E JUMP JUMPDEST DUP5 DUP5 SLOAD PUSH2 0x8C0 JUMP JUMPDEST DUP3 SSTORE POP POP POP POP JUMP JUMPDEST PUSH1 0x0 SWAP1 JUMP JUMPDEST PUSH2 0x97A PUSH2 0x96D JUMP JUMPDEST PUSH2 0x985 DUP2 DUP5 DUP5 PUSH2 0x948 JUMP JUMPDEST POP POP POP JUMP JUMPDEST JUMPDEST DUP2 DUP2 LT ISZERO PUSH2 0x9A9 JUMPI PUSH2 0x99E PUSH1 0x0 DUP3 PUSH2 0x972 JUMP JUMPDEST PUSH1 0x1 DUP2 ADD SWAP1 POP PUSH2 0x98B JUMP JUMPDEST POP POP JUMP JUMPDEST PUSH1 0x1F DUP3 GT ISZERO PUSH2 0x9EE JUMPI PUSH2 0x9BF DUP2 PUSH2 0x88E JUMP JUMPDEST PUSH2 0x9C8 DUP5 PUSH2 0x8A3 JUMP JUMPDEST DUP2 ADD PUSH1 0x20 DUP6 LT ISZERO PUSH2 0x9D7 JUMPI DUP2 SWAP1 POP JUMPDEST PUSH2 0x9EB PUSH2 0x9E3 DUP6 PUSH2 0x8A3 JUMP JUMPDEST DUP4 ADD DUP3 PUSH2 0x98A JUMP JUMPDEST POP POP JUMPDEST POP POP POP JUMP JUMPDEST PUSH1 0x0 DUP3 DUP3 SHR SWAP1 POP SWAP3 SWAP2 POP POP JUMP JUMPDEST PUSH1 0x0 PUSH2 0xA11 PUSH1 0x0 NOT DUP5 PUSH1 0x8 MUL PUSH2 0x9F3 JUMP JUMPDEST NOT DUP1 DUP4 AND SWAP2 POP POP SWAP3 SWAP2 POP POP JUMP JUMPDEST PUSH1 0x0 PUSH2 0xA2A DUP4 DUP4 PUSH2 0xA00 JUMP JUMPDEST SWAP2 POP DUP3 PUSH1 0x2 MUL DUP3 OR SWAP1 POP SWAP3 SWAP2 POP POP JUMP JUMPDEST PUSH2 0xA43 DUP3 PUSH2 0x473 JUMP JUMPDEST PUSH8 0xFFFFFFFFFFFFFFFF DUP2 GT ISZERO PUSH2 0xA5C JUMPI PUSH2 0xA5B PUSH2 0x2D3 JUMP JUMPDEST JUMPDEST PUSH2 0xA66 DUP3 SLOAD PUSH2 0x79A JUMP JUMPDEST PUSH2 0xA71 DUP3 DUP3 DUP6 PUSH2 0x9AD JUMP JUMPDEST PUSH1 0x0 PUSH1 0x20 SWAP1 POP PUSH1 0x1F DUP4 GT PUSH1 0x1 DUP2 EQ PUSH2 0xAA4 JUMPI PUSH1 0x0 DUP5 ISZERO PUSH2 0xA92 JUMPI DUP3 DUP8 ADD MLOAD SWAP1 POP JUMPDEST PUSH2 0xA9C DUP6 DUP3 PUSH2 0xA1E JUMP JUMPDEST DUP7 SSTORE POP PUSH2 0xB04 JUMP JUMPDEST PUSH1 0x1F NOT DUP5 AND PUSH2 0xAB2 DUP7 PUSH2 0x88E JUMP JUMPDEST PUSH1 0x0 JUMPDEST DUP3 DUP2 LT ISZERO PUSH2 0xADA JUMPI DUP5 DUP10 ADD MLOAD DUP3 SSTORE PUSH1 0x1 DUP3 ADD SWAP2 POP PUSH1 0x20 DUP6 ADD SWAP5 POP PUSH1 0x20 DUP2 ADD SWAP1 POP PUSH2 0xAB5 JUMP JUMPDEST DUP7 DUP4 LT ISZERO PUSH2 0xAF7 JUMPI DUP5 DUP10 ADD MLOAD PUSH2 0xAF3 PUSH1 0x1F DUP10 AND DUP3 PUSH2 0xA00 JUMP JUMPDEST DUP4 SSTORE POP JUMPDEST PUSH1 0x1 PUSH1 0x2 DUP9 MUL ADD DUP9 SSTORE POP POP POP JUMPDEST POP POP POP POP POP POP JUMP INVALID LOG2 PUSH5 0x6970667358 0x22 SLT KECCAK256 CHAINID 0xC9 0xC0 OR 0xCA 0xC7 0xCE 0xA7 NUMBER INVALID 0xB0 0xC4 PUSH6 0x28DE56EB0AED 0xD0 ADDRESS BASEFEE 0xB5 PUSH29 0x1477636A50BB4E1464736F6C6343000812003300000000000000000000 "
				},
				"gasEstimates": {
					"creation": {
						"codeDepositCost": "576400",
						"executionCost": "613",
						"totalCost": "577013"
					},
					"external": {
						"getAllStudent(string)": "infinite",
						"setTeacherStudent(string,string,uint256,uint256,uint256)": "infinite"
					}
				},
				"methodIdentifiers": {
					"getAllStudent(string)": "15428442",
					"setTeacherStudent(string,string,uint256,uint256,uint256)": "2720532a"
				}
			},
			"storageLayout": {
				"storage": [
					{
						"astId": 146,
						"contract": "contracts/230510/999_quiz.sol:quiz2",
						"label": "classes",
						"offset": 0,
						"slot": "0",
						"type": "t_mapping(t_string_memory_ptr,t_array(t_struct(Student)140_storage)dyn_storage)"
					}
				],
				"types": {
					"t_array(t_struct(Student)140_storage)dyn_storage": {
						"base": "t_struct(Student)140_storage",
						"encoding": "dynamic_array",
						"label": "struct quiz2.Student[]",
						"numberOfBytes": "32"
					},
					"t_mapping(t_string_memory_ptr,t_array(t_struct(Student)140_storage)dyn_storage)": {
						"encoding": "mapping",
						"key": "t_string_memory_ptr",
						"label": "mapping(string => struct quiz2.Student[])",
						"numberOfBytes": "32",
						"value": "t_array(t_struct(Student)140_storage)dyn_storage"
					},
					"t_string_memory_ptr": {
						"encoding": "bytes",
						"label": "string",
						"numberOfBytes": "32"
					},
					"t_string_storage": {
						"encoding": "bytes",
						"label": "string",
						"numberOfBytes": "32"
					},
					"t_struct(Student)140_storage": {
						"encoding": "inplace",
						"label": "struct quiz2.Student",
						"members": [
							{
								"astId": 131,
								"contract": "contracts/230510/999_quiz.sol:quiz2",
								"label": "name",
								"offset": 0,
								"slot": "0",
								"type": "t_string_storage"
							},
							{
								"astId": 133,
								"contract": "contracts/230510/999_quiz.sol:quiz2",
								"label": "math",
								"offset": 0,
								"slot": "1",
								"type": "t_uint256"
							},
							{
								"astId": 135,
								"contract": "contracts/230510/999_quiz.sol:quiz2",
								"label": "english",
								"offset": 0,
								"slot": "2",
								"type": "t_uint256"
							},
							{
								"astId": 137,
								"contract": "contracts/230510/999_quiz.sol:quiz2",
								"label": "korean",
								"offset": 0,
								"slot": "3",
								"type": "t_uint256"
							},
							{
								"astId": 139,
								"contract": "contracts/230510/999_quiz.sol:quiz2",
								"label": "average",
								"offset": 0,
								"slot": "4",
								"type": "t_uint256"
							}
						],
						"numberOfBytes": "160"
					},
					"t_uint256": {
						"encoding": "inplace",
						"label": "uint256",
						"numberOfBytes": "32"
					}
				}
			},
			"userdoc": {
				"kind": "user",
				"methods": {},
				"version": 1
			}
		}
	}
}