{
	"contracts/230510/999_quiz.sol": {
		"quiz3": {
			"abi": [
				{
					"inputs": [
						{
							"internalType": "uint256",
							"name": "a",
							"type": "uint256"
						},
						{
							"internalType": "uint256",
							"name": "b",
							"type": "uint256"
						}
					],
					"name": "getAverage",
					"outputs": [
						{
							"internalType": "uint256",
							"name": "",
							"type": "uint256"
						}
					],
					"stateMutability": "pure",
					"type": "function"
				}
			],
			"devdoc": {
				"kind": "dev",
				"methods": {},
				"version": 1
			},
			"evm": {
				"assembly": "    /* \"contracts/230510/999_quiz.sol\":805:1087  contract quiz3 {... */\n  mstore(0x40, 0x80)\n  callvalue\n  dup1\n  iszero\n  tag_1\n  jumpi\n  0x00\n  dup1\n  revert\ntag_1:\n  pop\n  dataSize(sub_0)\n  dup1\n  dataOffset(sub_0)\n  0x00\n  codecopy\n  0x00\n  return\nstop\n\nsub_0: assembly {\n        /* \"contracts/230510/999_quiz.sol\":805:1087  contract quiz3 {... */\n      mstore(0x40, 0x80)\n      callvalue\n      dup1\n      iszero\n      tag_1\n      jumpi\n      0x00\n      dup1\n      revert\n    tag_1:\n      pop\n      jumpi(tag_2, lt(calldatasize, 0x04))\n      shr(0xe0, calldataload(0x00))\n      dup1\n      0xd1dd7291\n      eq\n      tag_3\n      jumpi\n    tag_2:\n      0x00\n      dup1\n      revert\n        /* \"contracts/230510/999_quiz.sol\":827:1082  function getAverage(uint a, uint b) public pure returns (uint) {... */\n    tag_3:\n      tag_4\n      0x04\n      dup1\n      calldatasize\n      sub\n      dup2\n      add\n      swap1\n      tag_5\n      swap2\n      swap1\n      tag_6\n      jump\t// in\n    tag_5:\n      tag_7\n      jump\t// in\n    tag_4:\n      mload(0x40)\n      tag_8\n      swap2\n      swap1\n      tag_9\n      jump\t// in\n    tag_8:\n      mload(0x40)\n      dup1\n      swap2\n      sub\n      swap1\n      return\n    tag_7:\n        /* \"contracts/230510/999_quiz.sol\":884:888  uint */\n      0x00\n        /* \"contracts/230510/999_quiz.sol\":901:909  uint sum */\n      dup1\n        /* \"contracts/230510/999_quiz.sol\":920:932  uint average */\n      0x00\n        /* \"contracts/230510/999_quiz.sol\":949:955  uint n */\n      dup1\n        /* \"contracts/230510/999_quiz.sol\":958:959  a */\n      dup6\n        /* \"contracts/230510/999_quiz.sol\":949:959  uint n = a */\n      swap1\n      pop\n        /* \"contracts/230510/999_quiz.sol\":945:1010  for(uint n = a; n <= b; n ++) {... */\n    tag_11:\n        /* \"contracts/230510/999_quiz.sol\":966:967  b */\n      dup5\n        /* \"contracts/230510/999_quiz.sol\":961:962  n */\n      dup2\n        /* \"contracts/230510/999_quiz.sol\":961:967  n <= b */\n      gt\n        /* \"contracts/230510/999_quiz.sol\":945:1010  for(uint n = a; n <= b; n ++) {... */\n      tag_12\n      jumpi\n        /* \"contracts/230510/999_quiz.sol\":997:998  n */\n      dup1\n        /* \"contracts/230510/999_quiz.sol\":990:998  sum += n */\n      dup4\n      tag_14\n      swap2\n      swap1\n      tag_15\n      jump\t// in\n    tag_14:\n      swap3\n      pop\n        /* \"contracts/230510/999_quiz.sol\":969:973  n ++ */\n      dup1\n      dup1\n      tag_16\n      swap1\n      tag_17\n      jump\t// in\n    tag_16:\n      swap2\n      pop\n      pop\n        /* \"contracts/230510/999_quiz.sol\":945:1010  for(uint n = a; n <= b; n ++) {... */\n      jump(tag_11)\n    tag_12:\n      pop\n        /* \"contracts/230510/999_quiz.sol\":1045:1046  1 */\n      0x01\n        /* \"contracts/230510/999_quiz.sol\":1041:1042  a */\n      dup6\n        /* \"contracts/230510/999_quiz.sol\":1037:1038  b */\n      dup6\n        /* \"contracts/230510/999_quiz.sol\":1037:1042  b - a */\n      tag_18\n      swap2\n      swap1\n      tag_19\n      jump\t// in\n    tag_18:\n        /* \"contracts/230510/999_quiz.sol\":1037:1046  b - a + 1 */\n      tag_20\n      swap2\n      swap1\n      tag_15\n      jump\t// in\n    tag_20:\n        /* \"contracts/230510/999_quiz.sol\":1030:1033  sum */\n      dup3\n        /* \"contracts/230510/999_quiz.sol\":1030:1047  sum / (b - a + 1) */\n      tag_21\n      swap2\n      swap1\n      tag_22\n      jump\t// in\n    tag_21:\n        /* \"contracts/230510/999_quiz.sol\":1020:1047  average = sum / (b - a + 1) */\n      swap1\n      pop\n        /* \"contracts/230510/999_quiz.sol\":1067:1074  average */\n      dup1\n        /* \"contracts/230510/999_quiz.sol\":1060:1074  return average */\n      swap3\n      pop\n      pop\n      pop\n        /* \"contracts/230510/999_quiz.sol\":827:1082  function getAverage(uint a, uint b) public pure returns (uint) {... */\n      swap3\n      swap2\n      pop\n      pop\n      jump\t// out\n        /* \"#utility.yul\":88:205   */\n    tag_24:\n        /* \"#utility.yul\":197:198   */\n      0x00\n        /* \"#utility.yul\":194:195   */\n      dup1\n        /* \"#utility.yul\":187:199   */\n      revert\n        /* \"#utility.yul\":334:411   */\n    tag_26:\n        /* \"#utility.yul\":371:378   */\n      0x00\n        /* \"#utility.yul\":400:405   */\n      dup2\n        /* \"#utility.yul\":389:405   */\n      swap1\n      pop\n        /* \"#utility.yul\":334:411   */\n      swap2\n      swap1\n      pop\n      jump\t// out\n        /* \"#utility.yul\":417:539   */\n    tag_27:\n        /* \"#utility.yul\":490:514   */\n      tag_38\n        /* \"#utility.yul\":508:513   */\n      dup2\n        /* \"#utility.yul\":490:514   */\n      tag_26\n      jump\t// in\n    tag_38:\n        /* \"#utility.yul\":483:488   */\n      dup2\n        /* \"#utility.yul\":480:515   */\n      eq\n        /* \"#utility.yul\":470:533   */\n      tag_39\n      jumpi\n        /* \"#utility.yul\":529:530   */\n      0x00\n        /* \"#utility.yul\":526:527   */\n      dup1\n        /* \"#utility.yul\":519:531   */\n      revert\n        /* \"#utility.yul\":470:533   */\n    tag_39:\n        /* \"#utility.yul\":417:539   */\n      pop\n      jump\t// out\n        /* \"#utility.yul\":545:684   */\n    tag_28:\n        /* \"#utility.yul\":591:596   */\n      0x00\n        /* \"#utility.yul\":629:635   */\n      dup2\n        /* \"#utility.yul\":616:636   */\n      calldataload\n        /* \"#utility.yul\":607:636   */\n      swap1\n      pop\n        /* \"#utility.yul\":645:678   */\n      tag_41\n        /* \"#utility.yul\":672:677   */\n      dup2\n        /* \"#utility.yul\":645:678   */\n      tag_27\n      jump\t// in\n    tag_41:\n        /* \"#utility.yul\":545:684   */\n      swap3\n      swap2\n      pop\n      pop\n      jump\t// out\n        /* \"#utility.yul\":690:1164   */\n    tag_6:\n        /* \"#utility.yul\":758:764   */\n      0x00\n        /* \"#utility.yul\":766:772   */\n      dup1\n        /* \"#utility.yul\":815:817   */\n      0x40\n        /* \"#utility.yul\":803:812   */\n      dup4\n        /* \"#utility.yul\":794:801   */\n      dup6\n        /* \"#utility.yul\":790:813   */\n      sub\n        /* \"#utility.yul\":786:818   */\n      slt\n        /* \"#utility.yul\":783:902   */\n      iszero\n      tag_43\n      jumpi\n        /* \"#utility.yul\":821:900   */\n      tag_44\n      tag_24\n      jump\t// in\n    tag_44:\n        /* \"#utility.yul\":783:902   */\n    tag_43:\n        /* \"#utility.yul\":941:942   */\n      0x00\n        /* \"#utility.yul\":966:1019   */\n      tag_45\n        /* \"#utility.yul\":1011:1018   */\n      dup6\n        /* \"#utility.yul\":1002:1008   */\n      dup3\n        /* \"#utility.yul\":991:1000   */\n      dup7\n        /* \"#utility.yul\":987:1009   */\n      add\n        /* \"#utility.yul\":966:1019   */\n      tag_28\n      jump\t// in\n    tag_45:\n        /* \"#utility.yul\":956:1019   */\n      swap3\n      pop\n        /* \"#utility.yul\":912:1029   */\n      pop\n        /* \"#utility.yul\":1068:1070   */\n      0x20\n        /* \"#utility.yul\":1094:1147   */\n      tag_46\n        /* \"#utility.yul\":1139:1146   */\n      dup6\n        /* \"#utility.yul\":1130:1136   */\n      dup3\n        /* \"#utility.yul\":1119:1128   */\n      dup7\n        /* \"#utility.yul\":1115:1137   */\n      add\n        /* \"#utility.yul\":1094:1147   */\n      tag_28\n      jump\t// in\n    tag_46:\n        /* \"#utility.yul\":1084:1147   */\n      swap2\n      pop\n        /* \"#utility.yul\":1039:1157   */\n      pop\n        /* \"#utility.yul\":690:1164   */\n      swap3\n      pop\n      swap3\n      swap1\n      pop\n      jump\t// out\n        /* \"#utility.yul\":1170:1288   */\n    tag_29:\n        /* \"#utility.yul\":1257:1281   */\n      tag_48\n        /* \"#utility.yul\":1275:1280   */\n      dup2\n        /* \"#utility.yul\":1257:1281   */\n      tag_26\n      jump\t// in\n    tag_48:\n        /* \"#utility.yul\":1252:1255   */\n      dup3\n        /* \"#utility.yul\":1245:1282   */\n      mstore\n        /* \"#utility.yul\":1170:1288   */\n      pop\n      pop\n      jump\t// out\n        /* \"#utility.yul\":1294:1516   */\n    tag_9:\n        /* \"#utility.yul\":1387:1391   */\n      0x00\n        /* \"#utility.yul\":1425:1427   */\n      0x20\n        /* \"#utility.yul\":1414:1423   */\n      dup3\n        /* \"#utility.yul\":1410:1428   */\n      add\n        /* \"#utility.yul\":1402:1428   */\n      swap1\n      pop\n        /* \"#utility.yul\":1438:1509   */\n      tag_50\n        /* \"#utility.yul\":1506:1507   */\n      0x00\n        /* \"#utility.yul\":1495:1504   */\n      dup4\n        /* \"#utility.yul\":1491:1508   */\n      add\n        /* \"#utility.yul\":1482:1488   */\n      dup5\n        /* \"#utility.yul\":1438:1509   */\n      tag_29\n      jump\t// in\n    tag_50:\n        /* \"#utility.yul\":1294:1516   */\n      swap3\n      swap2\n      pop\n      pop\n      jump\t// out\n        /* \"#utility.yul\":1522:1702   */\n    tag_30:\n        /* \"#utility.yul\":1570:1647   */\n      0x4e487b7100000000000000000000000000000000000000000000000000000000\n        /* \"#utility.yul\":1567:1568   */\n      0x00\n        /* \"#utility.yul\":1560:1648   */\n      mstore\n        /* \"#utility.yul\":1667:1671   */\n      0x11\n        /* \"#utility.yul\":1664:1665   */\n      0x04\n        /* \"#utility.yul\":1657:1672   */\n      mstore\n        /* \"#utility.yul\":1691:1695   */\n      0x24\n        /* \"#utility.yul\":1688:1689   */\n      0x00\n        /* \"#utility.yul\":1681:1696   */\n      revert\n        /* \"#utility.yul\":1708:1899   */\n    tag_15:\n        /* \"#utility.yul\":1748:1751   */\n      0x00\n        /* \"#utility.yul\":1767:1787   */\n      tag_53\n        /* \"#utility.yul\":1785:1786   */\n      dup3\n        /* \"#utility.yul\":1767:1787   */\n      tag_26\n      jump\t// in\n    tag_53:\n        /* \"#utility.yul\":1762:1787   */\n      swap2\n      pop\n        /* \"#utility.yul\":1801:1821   */\n      tag_54\n        /* \"#utility.yul\":1819:1820   */\n      dup4\n        /* \"#utility.yul\":1801:1821   */\n      tag_26\n      jump\t// in\n    tag_54:\n        /* \"#utility.yul\":1796:1821   */\n      swap3\n      pop\n        /* \"#utility.yul\":1844:1845   */\n      dup3\n        /* \"#utility.yul\":1841:1842   */\n      dup3\n        /* \"#utility.yul\":1837:1846   */\n      add\n        /* \"#utility.yul\":1830:1846   */\n      swap1\n      pop\n        /* \"#utility.yul\":1865:1868   */\n      dup1\n        /* \"#utility.yul\":1862:1863   */\n      dup3\n        /* \"#utility.yul\":1859:1869   */\n      gt\n        /* \"#utility.yul\":1856:1892   */\n      iszero\n      tag_55\n      jumpi\n        /* \"#utility.yul\":1872:1890   */\n      tag_56\n      tag_30\n      jump\t// in\n    tag_56:\n        /* \"#utility.yul\":1856:1892   */\n    tag_55:\n        /* \"#utility.yul\":1708:1899   */\n      swap3\n      swap2\n      pop\n      pop\n      jump\t// out\n        /* \"#utility.yul\":1905:2138   */\n    tag_17:\n        /* \"#utility.yul\":1944:1947   */\n      0x00\n        /* \"#utility.yul\":1967:1991   */\n      tag_58\n        /* \"#utility.yul\":1985:1990   */\n      dup3\n        /* \"#utility.yul\":1967:1991   */\n      tag_26\n      jump\t// in\n    tag_58:\n        /* \"#utility.yul\":1958:1991   */\n      swap2\n      pop\n        /* \"#utility.yul\":2013:2079   */\n      0xffffffffffffffffffffffffffffffffffffffffffffffffffffffffffffffff\n        /* \"#utility.yul\":2006:2011   */\n      dup3\n        /* \"#utility.yul\":2003:2080   */\n      sub\n        /* \"#utility.yul\":2000:2103   */\n      tag_59\n      jumpi\n        /* \"#utility.yul\":2083:2101   */\n      tag_60\n      tag_30\n      jump\t// in\n    tag_60:\n        /* \"#utility.yul\":2000:2103   */\n    tag_59:\n        /* \"#utility.yul\":2130:2131   */\n      0x01\n        /* \"#utility.yul\":2123:2128   */\n      dup3\n        /* \"#utility.yul\":2119:2132   */\n      add\n        /* \"#utility.yul\":2112:2132   */\n      swap1\n      pop\n        /* \"#utility.yul\":1905:2138   */\n      swap2\n      swap1\n      pop\n      jump\t// out\n        /* \"#utility.yul\":2144:2338   */\n    tag_19:\n        /* \"#utility.yul\":2184:2188   */\n      0x00\n        /* \"#utility.yul\":2204:2224   */\n      tag_62\n        /* \"#utility.yul\":2222:2223   */\n      dup3\n        /* \"#utility.yul\":2204:2224   */\n      tag_26\n      jump\t// in\n    tag_62:\n        /* \"#utility.yul\":2199:2224   */\n      swap2\n      pop\n        /* \"#utility.yul\":2238:2258   */\n      tag_63\n        /* \"#utility.yul\":2256:2257   */\n      dup4\n        /* \"#utility.yul\":2238:2258   */\n      tag_26\n      jump\t// in\n    tag_63:\n        /* \"#utility.yul\":2233:2258   */\n      swap3\n      pop\n        /* \"#utility.yul\":2282:2283   */\n      dup3\n        /* \"#utility.yul\":2279:2280   */\n      dup3\n        /* \"#utility.yul\":2275:2284   */\n      sub\n        /* \"#utility.yul\":2267:2284   */\n      swap1\n      pop\n        /* \"#utility.yul\":2306:2307   */\n      dup2\n        /* \"#utility.yul\":2300:2304   */\n      dup2\n        /* \"#utility.yul\":2297:2308   */\n      gt\n        /* \"#utility.yul\":2294:2331   */\n      iszero\n      tag_64\n      jumpi\n        /* \"#utility.yul\":2311:2329   */\n      tag_65\n      tag_30\n      jump\t// in\n    tag_65:\n        /* \"#utility.yul\":2294:2331   */\n    tag_64:\n        /* \"#utility.yul\":2144:2338   */\n      swap3\n      swap2\n      pop\n      pop\n      jump\t// out\n        /* \"#utility.yul\":2344:2524   */\n    tag_31:\n        /* \"#utility.yul\":2392:2469   */\n      0x4e487b7100000000000000000000000000000000000000000000000000000000\n        /* \"#utility.yul\":2389:2390   */\n      0x00\n        /* \"#utility.yul\":2382:2470   */\n      mstore\n        /* \"#utility.yul\":2489:2493   */\n      0x12\n        /* \"#utility.yul\":2486:2487   */\n      0x04\n        /* \"#utility.yul\":2479:2494   */\n      mstore\n        /* \"#utility.yul\":2513:2517   */\n      0x24\n        /* \"#utility.yul\":2510:2511   */\n      0x00\n        /* \"#utility.yul\":2503:2518   */\n      revert\n        /* \"#utility.yul\":2530:2715   */\n    tag_22:\n        /* \"#utility.yul\":2570:2571   */\n      0x00\n        /* \"#utility.yul\":2587:2607   */\n      tag_68\n        /* \"#utility.yul\":2605:2606   */\n      dup3\n        /* \"#utility.yul\":2587:2607   */\n      tag_26\n      jump\t// in\n    tag_68:\n        /* \"#utility.yul\":2582:2607   */\n      swap2\n      pop\n        /* \"#utility.yul\":2621:2641   */\n      tag_69\n        /* \"#utility.yul\":2639:2640   */\n      dup4\n        /* \"#utility.yul\":2621:2641   */\n      tag_26\n      jump\t// in\n    tag_69:\n        /* \"#utility.yul\":2616:2641   */\n      swap3\n      pop\n        /* \"#utility.yul\":2660:2661   */\n      dup3\n        /* \"#utility.yul\":2650:2685   */\n      tag_70\n      jumpi\n        /* \"#utility.yul\":2665:2683   */\n      tag_71\n      tag_31\n      jump\t// in\n    tag_71:\n        /* \"#utility.yul\":2650:2685   */\n    tag_70:\n        /* \"#utility.yul\":2707:2708   */\n      dup3\n        /* \"#utility.yul\":2704:2705   */\n      dup3\n        /* \"#utility.yul\":2700:2709   */\n      div\n        /* \"#utility.yul\":2695:2709   */\n      swap1\n      pop\n        /* \"#utility.yul\":2530:2715   */\n      swap3\n      swap2\n      pop\n      pop\n      jump\t// out\n\n    auxdata: 0xa2646970667358221220b636f297113a72a62d7e6c3354d1f07c664d869e4bd7178b7e9eaa778da29b3864736f6c63430008120033\n}\n",
				"bytecode": {
					"linkReferences": {},
					"object": "608060405234801561001057600080fd5b506102dd806100206000396000f3fe608060405234801561001057600080fd5b506004361061002b5760003560e01c8063d1dd729114610030575b600080fd5b61004a600480360381019061004591906100fe565b610060565b604051610057919061014d565b60405180910390f35b6000806000808590505b84811161009257808361007d9190610197565b9250808061008a906101cb565b91505061006a565b50600185856100a19190610213565b6100ab9190610197565b826100b69190610276565b9050809250505092915050565b600080fd5b6000819050919050565b6100db816100c8565b81146100e657600080fd5b50565b6000813590506100f8816100d2565b92915050565b60008060408385031215610115576101146100c3565b5b6000610123858286016100e9565b9250506020610134858286016100e9565b9150509250929050565b610147816100c8565b82525050565b6000602082019050610162600083018461013e565b92915050565b7f4e487b7100000000000000000000000000000000000000000000000000000000600052601160045260246000fd5b60006101a2826100c8565b91506101ad836100c8565b92508282019050808211156101c5576101c4610168565b5b92915050565b60006101d6826100c8565b91507fffffffffffffffffffffffffffffffffffffffffffffffffffffffffffffffff820361020857610207610168565b5b600182019050919050565b600061021e826100c8565b9150610229836100c8565b925082820390508181111561024157610240610168565b5b92915050565b7f4e487b7100000000000000000000000000000000000000000000000000000000600052601260045260246000fd5b6000610281826100c8565b915061028c836100c8565b92508261029c5761029b610247565b5b82820490509291505056fea2646970667358221220b636f297113a72a62d7e6c3354d1f07c664d869e4bd7178b7e9eaa778da29b3864736f6c63430008120033",
					"opcodes": "PUSH1 0x80 PUSH1 0x40 MSTORE CALLVALUE DUP1 ISZERO PUSH2 0x10 JUMPI PUSH1 0x0 DUP1 REVERT JUMPDEST POP PUSH2 0x2DD DUP1 PUSH2 0x20 PUSH1 0x0 CODECOPY PUSH1 0x0 RETURN INVALID PUSH1 0x80 PUSH1 0x40 MSTORE CALLVALUE DUP1 ISZERO PUSH2 0x10 JUMPI PUSH1 0x0 DUP1 REVERT JUMPDEST POP PUSH1 0x4 CALLDATASIZE LT PUSH2 0x2B JUMPI PUSH1 0x0 CALLDATALOAD PUSH1 0xE0 SHR DUP1 PUSH4 0xD1DD7291 EQ PUSH2 0x30 JUMPI JUMPDEST PUSH1 0x0 DUP1 REVERT JUMPDEST PUSH2 0x4A PUSH1 0x4 DUP1 CALLDATASIZE SUB DUP2 ADD SWAP1 PUSH2 0x45 SWAP2 SWAP1 PUSH2 0xFE JUMP JUMPDEST PUSH2 0x60 JUMP JUMPDEST PUSH1 0x40 MLOAD PUSH2 0x57 SWAP2 SWAP1 PUSH2 0x14D JUMP JUMPDEST PUSH1 0x40 MLOAD DUP1 SWAP2 SUB SWAP1 RETURN JUMPDEST PUSH1 0x0 DUP1 PUSH1 0x0 DUP1 DUP6 SWAP1 POP JUMPDEST DUP5 DUP2 GT PUSH2 0x92 JUMPI DUP1 DUP4 PUSH2 0x7D SWAP2 SWAP1 PUSH2 0x197 JUMP JUMPDEST SWAP3 POP DUP1 DUP1 PUSH2 0x8A SWAP1 PUSH2 0x1CB JUMP JUMPDEST SWAP2 POP POP PUSH2 0x6A JUMP JUMPDEST POP PUSH1 0x1 DUP6 DUP6 PUSH2 0xA1 SWAP2 SWAP1 PUSH2 0x213 JUMP JUMPDEST PUSH2 0xAB SWAP2 SWAP1 PUSH2 0x197 JUMP JUMPDEST DUP3 PUSH2 0xB6 SWAP2 SWAP1 PUSH2 0x276 JUMP JUMPDEST SWAP1 POP DUP1 SWAP3 POP POP POP SWAP3 SWAP2 POP POP JUMP JUMPDEST PUSH1 0x0 DUP1 REVERT JUMPDEST PUSH1 0x0 DUP2 SWAP1 POP SWAP2 SWAP1 POP JUMP JUMPDEST PUSH2 0xDB DUP2 PUSH2 0xC8 JUMP JUMPDEST DUP2 EQ PUSH2 0xE6 JUMPI PUSH1 0x0 DUP1 REVERT JUMPDEST POP JUMP JUMPDEST PUSH1 0x0 DUP2 CALLDATALOAD SWAP1 POP PUSH2 0xF8 DUP2 PUSH2 0xD2 JUMP JUMPDEST SWAP3 SWAP2 POP POP JUMP JUMPDEST PUSH1 0x0 DUP1 PUSH1 0x40 DUP4 DUP6 SUB SLT ISZERO PUSH2 0x115 JUMPI PUSH2 0x114 PUSH2 0xC3 JUMP JUMPDEST JUMPDEST PUSH1 0x0 PUSH2 0x123 DUP6 DUP3 DUP7 ADD PUSH2 0xE9 JUMP JUMPDEST SWAP3 POP POP PUSH1 0x20 PUSH2 0x134 DUP6 DUP3 DUP7 ADD PUSH2 0xE9 JUMP JUMPDEST SWAP2 POP POP SWAP3 POP SWAP3 SWAP1 POP JUMP JUMPDEST PUSH2 0x147 DUP2 PUSH2 0xC8 JUMP JUMPDEST DUP3 MSTORE POP POP JUMP JUMPDEST PUSH1 0x0 PUSH1 0x20 DUP3 ADD SWAP1 POP PUSH2 0x162 PUSH1 0x0 DUP4 ADD DUP5 PUSH2 0x13E JUMP JUMPDEST SWAP3 SWAP2 POP POP JUMP JUMPDEST PUSH32 0x4E487B7100000000000000000000000000000000000000000000000000000000 PUSH1 0x0 MSTORE PUSH1 0x11 PUSH1 0x4 MSTORE PUSH1 0x24 PUSH1 0x0 REVERT JUMPDEST PUSH1 0x0 PUSH2 0x1A2 DUP3 PUSH2 0xC8 JUMP JUMPDEST SWAP2 POP PUSH2 0x1AD DUP4 PUSH2 0xC8 JUMP JUMPDEST SWAP3 POP DUP3 DUP3 ADD SWAP1 POP DUP1 DUP3 GT ISZERO PUSH2 0x1C5 JUMPI PUSH2 0x1C4 PUSH2 0x168 JUMP JUMPDEST JUMPDEST SWAP3 SWAP2 POP POP JUMP JUMPDEST PUSH1 0x0 PUSH2 0x1D6 DUP3 PUSH2 0xC8 JUMP JUMPDEST SWAP2 POP PUSH32 0xFFFFFFFFFFFFFFFFFFFFFFFFFFFFFFFFFFFFFFFFFFFFFFFFFFFFFFFFFFFFFFFF DUP3 SUB PUSH2 0x208 JUMPI PUSH2 0x207 PUSH2 0x168 JUMP JUMPDEST JUMPDEST PUSH1 0x1 DUP3 ADD SWAP1 POP SWAP2 SWAP1 POP JUMP JUMPDEST PUSH1 0x0 PUSH2 0x21E DUP3 PUSH2 0xC8 JUMP JUMPDEST SWAP2 POP PUSH2 0x229 DUP4 PUSH2 0xC8 JUMP JUMPDEST SWAP3 POP DUP3 DUP3 SUB SWAP1 POP DUP2 DUP2 GT ISZERO PUSH2 0x241 JUMPI PUSH2 0x240 PUSH2 0x168 JUMP JUMPDEST JUMPDEST SWAP3 SWAP2 POP POP JUMP JUMPDEST PUSH32 0x4E487B7100000000000000000000000000000000000000000000000000000000 PUSH1 0x0 MSTORE PUSH1 0x12 PUSH1 0x4 MSTORE PUSH1 0x24 PUSH1 0x0 REVERT JUMPDEST PUSH1 0x0 PUSH2 0x281 DUP3 PUSH2 0xC8 JUMP JUMPDEST SWAP2 POP PUSH2 0x28C DUP4 PUSH2 0xC8 JUMP JUMPDEST SWAP3 POP DUP3 PUSH2 0x29C JUMPI PUSH2 0x29B PUSH2 0x247 JUMP JUMPDEST JUMPDEST DUP3 DUP3 DIV SWAP1 POP SWAP3 SWAP2 POP POP JUMP INVALID LOG2 PUSH5 0x6970667358 0x22 SLT KECCAK256 0xB6 CALLDATASIZE CALLCODE SWAP8 GT GASPRICE PUSH19 0xA62D7E6C3354D1F07C664D869E4BD7178B7E9E 0xAA PUSH24 0x8DA29B3864736F6C63430008120033000000000000000000 "
				},
				"gasEstimates": {
					"creation": {
						"codeDepositCost": "146600",
						"executionCost": "190",
						"totalCost": "146790"
					},
					"external": {
						"getAverage(uint256,uint256)": "infinite"
					}
				},
				"methodIdentifiers": {
					"getAverage(uint256,uint256)": "d1dd7291"
				}
			},
			"storageLayout": {
				"storage": [],
				"types": null
			},
			"userdoc": {
				"kind": "user",
				"methods": {},
				"version": 1
			}
		}
	}
}