{
	"contracts/230502/230502_basic_2.sol": {
		"Calculator": {
			"abi": [
				{
					"inputs": [
						{
							"internalType": "uint256",
							"name": "num1",
							"type": "uint256"
						},
						{
							"internalType": "uint256",
							"name": "num2",
							"type": "uint256"
						}
					],
					"name": "Add",
					"outputs": [
						{
							"internalType": "uint256",
							"name": "",
							"type": "uint256"
						}
					],
					"stateMutability": "pure",
					"type": "function"
				},
				{
					"inputs": [
						{
							"internalType": "uint256",
							"name": "num1",
							"type": "uint256"
						},
						{
							"internalType": "uint256",
							"name": "num2",
							"type": "uint256"
						}
					],
					"name": "Div",
					"outputs": [
						{
							"internalType": "uint256",
							"name": "",
							"type": "uint256"
						},
						{
							"internalType": "uint256",
							"name": "",
							"type": "uint256"
						}
					],
					"stateMutability": "pure",
					"type": "function"
				},
				{
					"inputs": [
						{
							"internalType": "uint256",
							"name": "num1",
							"type": "uint256"
						},
						{
							"internalType": "uint256",
							"name": "num2",
							"type": "uint256"
						}
					],
					"name": "Mul",
					"outputs": [
						{
							"internalType": "uint256",
							"name": "",
							"type": "uint256"
						}
					],
					"stateMutability": "pure",
					"type": "function"
				},
				{
					"inputs": [
						{
							"internalType": "uint256",
							"name": "num1",
							"type": "uint256"
						},
						{
							"internalType": "uint256",
							"name": "num2",
							"type": "uint256"
						}
					],
					"name": "Sub",
					"outputs": [
						{
							"internalType": "uint256",
							"name": "",
							"type": "uint256"
						}
					],
					"stateMutability": "pure",
					"type": "function"
				}
			],
			"devdoc": {
				"kind": "dev",
				"methods": {},
				"version": 1
			},
			"evm": {
				"assembly": "    /* \"contracts/230502/230502_basic_2.sol\":312:784  contract Calculator{... */\n  mstore(0x40, 0x80)\n  callvalue\n  dup1\n  iszero\n  tag_1\n  jumpi\n  0x00\n  dup1\n  revert\ntag_1:\n  pop\n  dataSize(sub_0)\n  dup1\n  dataOffset(sub_0)\n  0x00\n  codecopy\n  0x00\n  return\nstop\n\nsub_0: assembly {\n        /* \"contracts/230502/230502_basic_2.sol\":312:784  contract Calculator{... */\n      mstore(0x40, 0x80)\n      callvalue\n      dup1\n      iszero\n      tag_1\n      jumpi\n      0x00\n      dup1\n      revert\n    tag_1:\n      pop\n      jumpi(tag_2, lt(calldatasize, 0x04))\n      shr(0xe0, calldataload(0x00))\n      dup1\n      0x1ec9c2c0\n      eq\n      tag_3\n      jumpi\n      dup1\n      0x60953744\n      eq\n      tag_4\n      jumpi\n      dup1\n      0x7afbe4f1\n      eq\n      tag_5\n      jumpi\n      dup1\n      0x9a03fe1d\n      eq\n      tag_6\n      jumpi\n    tag_2:\n      0x00\n      dup1\n      revert\n        /* \"contracts/230502/230502_basic_2.sol\":554:651  function Sub(uint num1, uint num2) public pure returns(uint){... */\n    tag_3:\n      tag_7\n      0x04\n      dup1\n      calldatasize\n      sub\n      dup2\n      add\n      swap1\n      tag_8\n      swap2\n      swap1\n      tag_9\n      jump\t// in\n    tag_8:\n      tag_10\n      jump\t// in\n    tag_7:\n      mload(0x40)\n      tag_11\n      swap2\n      swap1\n      tag_12\n      jump\t// in\n    tag_11:\n      mload(0x40)\n      dup1\n      swap2\n      sub\n      swap1\n      return\n        /* \"contracts/230502/230502_basic_2.sol\":449:546  function Mul(uint num1, uint num2) public pure returns(uint){... */\n    tag_4:\n      tag_13\n      0x04\n      dup1\n      calldatasize\n      sub\n      dup2\n      add\n      swap1\n      tag_14\n      swap2\n      swap1\n      tag_9\n      jump\t// in\n    tag_14:\n      tag_15\n      jump\t// in\n    tag_13:\n      mload(0x40)\n      tag_16\n      swap2\n      swap1\n      tag_12\n      jump\t// in\n    tag_16:\n      mload(0x40)\n      dup1\n      swap2\n      sub\n      swap1\n      return\n        /* \"contracts/230502/230502_basic_2.sol\":344:441  function Add(uint num1, uint num2) public pure returns(uint){... */\n    tag_5:\n      tag_17\n      0x04\n      dup1\n      calldatasize\n      sub\n      dup2\n      add\n      swap1\n      tag_18\n      swap2\n      swap1\n      tag_9\n      jump\t// in\n    tag_18:\n      tag_19\n      jump\t// in\n    tag_17:\n      mload(0x40)\n      tag_20\n      swap2\n      swap1\n      tag_12\n      jump\t// in\n    tag_20:\n      mload(0x40)\n      dup1\n      swap2\n      sub\n      swap1\n      return\n        /* \"contracts/230502/230502_basic_2.sol\":663:781  function Div(uint num1, uint num2) public pure returns(uint, uint){... */\n    tag_6:\n      tag_21\n      0x04\n      dup1\n      calldatasize\n      sub\n      dup2\n      add\n      swap1\n      tag_22\n      swap2\n      swap1\n      tag_9\n      jump\t// in\n    tag_22:\n      tag_23\n      jump\t// in\n    tag_21:\n      mload(0x40)\n      tag_24\n      swap3\n      swap2\n      swap1\n      tag_25\n      jump\t// in\n    tag_24:\n      mload(0x40)\n      dup1\n      swap2\n      sub\n      swap1\n      return\n        /* \"contracts/230502/230502_basic_2.sol\":554:651  function Sub(uint num1, uint num2) public pure returns(uint){... */\n    tag_10:\n        /* \"contracts/230502/230502_basic_2.sol\":609:613  uint */\n      0x00\n        /* \"contracts/230502/230502_basic_2.sol\":639:643  num2 */\n      dup2\n        /* \"contracts/230502/230502_basic_2.sol\":632:636  num1 */\n      dup4\n        /* \"contracts/230502/230502_basic_2.sol\":632:643  num1 - num2 */\n      tag_27\n      swap2\n      swap1\n      tag_28\n      jump\t// in\n    tag_27:\n        /* \"contracts/230502/230502_basic_2.sol\":625:643  return num1 - num2 */\n      swap1\n      pop\n        /* \"contracts/230502/230502_basic_2.sol\":554:651  function Sub(uint num1, uint num2) public pure returns(uint){... */\n      swap3\n      swap2\n      pop\n      pop\n      jump\t// out\n        /* \"contracts/230502/230502_basic_2.sol\":449:546  function Mul(uint num1, uint num2) public pure returns(uint){... */\n    tag_15:\n        /* \"contracts/230502/230502_basic_2.sol\":504:508  uint */\n      0x00\n        /* \"contracts/230502/230502_basic_2.sol\":534:538  num2 */\n      dup2\n        /* \"contracts/230502/230502_basic_2.sol\":527:531  num1 */\n      dup4\n        /* \"contracts/230502/230502_basic_2.sol\":527:538  num1 * num2 */\n      tag_30\n      swap2\n      swap1\n      tag_31\n      jump\t// in\n    tag_30:\n        /* \"contracts/230502/230502_basic_2.sol\":520:538  return num1 * num2 */\n      swap1\n      pop\n        /* \"contracts/230502/230502_basic_2.sol\":449:546  function Mul(uint num1, uint num2) public pure returns(uint){... */\n      swap3\n      swap2\n      pop\n      pop\n      jump\t// out\n        /* \"contracts/230502/230502_basic_2.sol\":344:441  function Add(uint num1, uint num2) public pure returns(uint){... */\n    tag_19:\n        /* \"contracts/230502/230502_basic_2.sol\":399:403  uint */\n      0x00\n        /* \"contracts/230502/230502_basic_2.sol\":429:433  num2 */\n      dup2\n        /* \"contracts/230502/230502_basic_2.sol\":422:426  num1 */\n      dup4\n        /* \"contracts/230502/230502_basic_2.sol\":422:433  num1 + num2 */\n      tag_33\n      swap2\n      swap1\n      tag_34\n      jump\t// in\n    tag_33:\n        /* \"contracts/230502/230502_basic_2.sol\":415:433  return num1 + num2 */\n      swap1\n      pop\n        /* \"contracts/230502/230502_basic_2.sol\":344:441  function Add(uint num1, uint num2) public pure returns(uint){... */\n      swap3\n      swap2\n      pop\n      pop\n      jump\t// out\n        /* \"contracts/230502/230502_basic_2.sol\":663:781  function Div(uint num1, uint num2) public pure returns(uint, uint){... */\n    tag_23:\n        /* \"contracts/230502/230502_basic_2.sol\":718:722  uint */\n      0x00\n        /* \"contracts/230502/230502_basic_2.sol\":724:728  uint */\n      dup1\n        /* \"contracts/230502/230502_basic_2.sol\":755:759  num2 */\n      dup3\n        /* \"contracts/230502/230502_basic_2.sol\":748:752  num1 */\n      dup5\n        /* \"contracts/230502/230502_basic_2.sol\":748:759  num1 / num2 */\n      tag_36\n      swap2\n      swap1\n      tag_37\n      jump\t// in\n    tag_36:\n        /* \"contracts/230502/230502_basic_2.sol\":768:772  num2 */\n      dup4\n        /* \"contracts/230502/230502_basic_2.sol\":761:765  num1 */\n      dup6\n        /* \"contracts/230502/230502_basic_2.sol\":761:772  num1 % num2 */\n      tag_38\n      swap2\n      swap1\n      tag_39\n      jump\t// in\n    tag_38:\n        /* \"contracts/230502/230502_basic_2.sol\":740:773  return (num1 / num2, num1 % num2) */\n      swap2\n      pop\n      swap2\n      pop\n        /* \"contracts/230502/230502_basic_2.sol\":663:781  function Div(uint num1, uint num2) public pure returns(uint, uint){... */\n      swap3\n      pop\n      swap3\n      swap1\n      pop\n      jump\t// out\n        /* \"#utility.yul\":88:205   */\n    tag_41:\n        /* \"#utility.yul\":197:198   */\n      0x00\n        /* \"#utility.yul\":194:195   */\n      dup1\n        /* \"#utility.yul\":187:199   */\n      revert\n        /* \"#utility.yul\":334:411   */\n    tag_43:\n        /* \"#utility.yul\":371:378   */\n      0x00\n        /* \"#utility.yul\":400:405   */\n      dup2\n        /* \"#utility.yul\":389:405   */\n      swap1\n      pop\n        /* \"#utility.yul\":334:411   */\n      swap2\n      swap1\n      pop\n      jump\t// out\n        /* \"#utility.yul\":417:539   */\n    tag_44:\n        /* \"#utility.yul\":490:514   */\n      tag_55\n        /* \"#utility.yul\":508:513   */\n      dup2\n        /* \"#utility.yul\":490:514   */\n      tag_43\n      jump\t// in\n    tag_55:\n        /* \"#utility.yul\":483:488   */\n      dup2\n        /* \"#utility.yul\":480:515   */\n      eq\n        /* \"#utility.yul\":470:533   */\n      tag_56\n      jumpi\n        /* \"#utility.yul\":529:530   */\n      0x00\n        /* \"#utility.yul\":526:527   */\n      dup1\n        /* \"#utility.yul\":519:531   */\n      revert\n        /* \"#utility.yul\":470:533   */\n    tag_56:\n        /* \"#utility.yul\":417:539   */\n      pop\n      jump\t// out\n        /* \"#utility.yul\":545:684   */\n    tag_45:\n        /* \"#utility.yul\":591:596   */\n      0x00\n        /* \"#utility.yul\":629:635   */\n      dup2\n        /* \"#utility.yul\":616:636   */\n      calldataload\n        /* \"#utility.yul\":607:636   */\n      swap1\n      pop\n        /* \"#utility.yul\":645:678   */\n      tag_58\n        /* \"#utility.yul\":672:677   */\n      dup2\n        /* \"#utility.yul\":645:678   */\n      tag_44\n      jump\t// in\n    tag_58:\n        /* \"#utility.yul\":545:684   */\n      swap3\n      swap2\n      pop\n      pop\n      jump\t// out\n        /* \"#utility.yul\":690:1164   */\n    tag_9:\n        /* \"#utility.yul\":758:764   */\n      0x00\n        /* \"#utility.yul\":766:772   */\n      dup1\n        /* \"#utility.yul\":815:817   */\n      0x40\n        /* \"#utility.yul\":803:812   */\n      dup4\n        /* \"#utility.yul\":794:801   */\n      dup6\n        /* \"#utility.yul\":790:813   */\n      sub\n        /* \"#utility.yul\":786:818   */\n      slt\n        /* \"#utility.yul\":783:902   */\n      iszero\n      tag_60\n      jumpi\n        /* \"#utility.yul\":821:900   */\n      tag_61\n      tag_41\n      jump\t// in\n    tag_61:\n        /* \"#utility.yul\":783:902   */\n    tag_60:\n        /* \"#utility.yul\":941:942   */\n      0x00\n        /* \"#utility.yul\":966:1019   */\n      tag_62\n        /* \"#utility.yul\":1011:1018   */\n      dup6\n        /* \"#utility.yul\":1002:1008   */\n      dup3\n        /* \"#utility.yul\":991:1000   */\n      dup7\n        /* \"#utility.yul\":987:1009   */\n      add\n        /* \"#utility.yul\":966:1019   */\n      tag_45\n      jump\t// in\n    tag_62:\n        /* \"#utility.yul\":956:1019   */\n      swap3\n      pop\n        /* \"#utility.yul\":912:1029   */\n      pop\n        /* \"#utility.yul\":1068:1070   */\n      0x20\n        /* \"#utility.yul\":1094:1147   */\n      tag_63\n        /* \"#utility.yul\":1139:1146   */\n      dup6\n        /* \"#utility.yul\":1130:1136   */\n      dup3\n        /* \"#utility.yul\":1119:1128   */\n      dup7\n        /* \"#utility.yul\":1115:1137   */\n      add\n        /* \"#utility.yul\":1094:1147   */\n      tag_45\n      jump\t// in\n    tag_63:\n        /* \"#utility.yul\":1084:1147   */\n      swap2\n      pop\n        /* \"#utility.yul\":1039:1157   */\n      pop\n        /* \"#utility.yul\":690:1164   */\n      swap3\n      pop\n      swap3\n      swap1\n      pop\n      jump\t// out\n        /* \"#utility.yul\":1170:1288   */\n    tag_46:\n        /* \"#utility.yul\":1257:1281   */\n      tag_65\n        /* \"#utility.yul\":1275:1280   */\n      dup2\n        /* \"#utility.yul\":1257:1281   */\n      tag_43\n      jump\t// in\n    tag_65:\n        /* \"#utility.yul\":1252:1255   */\n      dup3\n        /* \"#utility.yul\":1245:1282   */\n      mstore\n        /* \"#utility.yul\":1170:1288   */\n      pop\n      pop\n      jump\t// out\n        /* \"#utility.yul\":1294:1516   */\n    tag_12:\n        /* \"#utility.yul\":1387:1391   */\n      0x00\n        /* \"#utility.yul\":1425:1427   */\n      0x20\n        /* \"#utility.yul\":1414:1423   */\n      dup3\n        /* \"#utility.yul\":1410:1428   */\n      add\n        /* \"#utility.yul\":1402:1428   */\n      swap1\n      pop\n        /* \"#utility.yul\":1438:1509   */\n      tag_67\n        /* \"#utility.yul\":1506:1507   */\n      0x00\n        /* \"#utility.yul\":1495:1504   */\n      dup4\n        /* \"#utility.yul\":1491:1508   */\n      add\n        /* \"#utility.yul\":1482:1488   */\n      dup5\n        /* \"#utility.yul\":1438:1509   */\n      tag_46\n      jump\t// in\n    tag_67:\n        /* \"#utility.yul\":1294:1516   */\n      swap3\n      swap2\n      pop\n      pop\n      jump\t// out\n        /* \"#utility.yul\":1522:1854   */\n    tag_25:\n        /* \"#utility.yul\":1643:1647   */\n      0x00\n        /* \"#utility.yul\":1681:1683   */\n      0x40\n        /* \"#utility.yul\":1670:1679   */\n      dup3\n        /* \"#utility.yul\":1666:1684   */\n      add\n        /* \"#utility.yul\":1658:1684   */\n      swap1\n      pop\n        /* \"#utility.yul\":1694:1765   */\n      tag_69\n        /* \"#utility.yul\":1762:1763   */\n      0x00\n        /* \"#utility.yul\":1751:1760   */\n      dup4\n        /* \"#utility.yul\":1747:1764   */\n      add\n        /* \"#utility.yul\":1738:1744   */\n      dup6\n        /* \"#utility.yul\":1694:1765   */\n      tag_46\n      jump\t// in\n    tag_69:\n        /* \"#utility.yul\":1775:1847   */\n      tag_70\n        /* \"#utility.yul\":1843:1845   */\n      0x20\n        /* \"#utility.yul\":1832:1841   */\n      dup4\n        /* \"#utility.yul\":1828:1846   */\n      add\n        /* \"#utility.yul\":1819:1825   */\n      dup5\n        /* \"#utility.yul\":1775:1847   */\n      tag_46\n      jump\t// in\n    tag_70:\n        /* \"#utility.yul\":1522:1854   */\n      swap4\n      swap3\n      pop\n      pop\n      pop\n      jump\t// out\n        /* \"#utility.yul\":1860:2040   */\n    tag_47:\n        /* \"#utility.yul\":1908:1985   */\n      0x4e487b7100000000000000000000000000000000000000000000000000000000\n        /* \"#utility.yul\":1905:1906   */\n      0x00\n        /* \"#utility.yul\":1898:1986   */\n      mstore\n        /* \"#utility.yul\":2005:2009   */\n      0x11\n        /* \"#utility.yul\":2002:2003   */\n      0x04\n        /* \"#utility.yul\":1995:2010   */\n      mstore\n        /* \"#utility.yul\":2029:2033   */\n      0x24\n        /* \"#utility.yul\":2026:2027   */\n      0x00\n        /* \"#utility.yul\":2019:2034   */\n      revert\n        /* \"#utility.yul\":2046:2240   */\n    tag_28:\n        /* \"#utility.yul\":2086:2090   */\n      0x00\n        /* \"#utility.yul\":2106:2126   */\n      tag_73\n        /* \"#utility.yul\":2124:2125   */\n      dup3\n        /* \"#utility.yul\":2106:2126   */\n      tag_43\n      jump\t// in\n    tag_73:\n        /* \"#utility.yul\":2101:2126   */\n      swap2\n      pop\n        /* \"#utility.yul\":2140:2160   */\n      tag_74\n        /* \"#utility.yul\":2158:2159   */\n      dup4\n        /* \"#utility.yul\":2140:2160   */\n      tag_43\n      jump\t// in\n    tag_74:\n        /* \"#utility.yul\":2135:2160   */\n      swap3\n      pop\n        /* \"#utility.yul\":2184:2185   */\n      dup3\n        /* \"#utility.yul\":2181:2182   */\n      dup3\n        /* \"#utility.yul\":2177:2186   */\n      sub\n        /* \"#utility.yul\":2169:2186   */\n      swap1\n      pop\n        /* \"#utility.yul\":2208:2209   */\n      dup2\n        /* \"#utility.yul\":2202:2206   */\n      dup2\n        /* \"#utility.yul\":2199:2210   */\n      gt\n        /* \"#utility.yul\":2196:2233   */\n      iszero\n      tag_75\n      jumpi\n        /* \"#utility.yul\":2213:2231   */\n      tag_76\n      tag_47\n      jump\t// in\n    tag_76:\n        /* \"#utility.yul\":2196:2233   */\n    tag_75:\n        /* \"#utility.yul\":2046:2240   */\n      swap3\n      swap2\n      pop\n      pop\n      jump\t// out\n        /* \"#utility.yul\":2246:2656   */\n    tag_31:\n        /* \"#utility.yul\":2286:2293   */\n      0x00\n        /* \"#utility.yul\":2309:2329   */\n      tag_78\n        /* \"#utility.yul\":2327:2328   */\n      dup3\n        /* \"#utility.yul\":2309:2329   */\n      tag_43\n      jump\t// in\n    tag_78:\n        /* \"#utility.yul\":2304:2329   */\n      swap2\n      pop\n        /* \"#utility.yul\":2343:2363   */\n      tag_79\n        /* \"#utility.yul\":2361:2362   */\n      dup4\n        /* \"#utility.yul\":2343:2363   */\n      tag_43\n      jump\t// in\n    tag_79:\n        /* \"#utility.yul\":2338:2363   */\n      swap3\n      pop\n        /* \"#utility.yul\":2398:2399   */\n      dup3\n        /* \"#utility.yul\":2395:2396   */\n      dup3\n        /* \"#utility.yul\":2391:2400   */\n      mul\n        /* \"#utility.yul\":2420:2450   */\n      tag_80\n        /* \"#utility.yul\":2438:2449   */\n      dup2\n        /* \"#utility.yul\":2420:2450   */\n      tag_43\n      jump\t// in\n    tag_80:\n        /* \"#utility.yul\":2409:2450   */\n      swap2\n      pop\n        /* \"#utility.yul\":2599:2600   */\n      dup3\n        /* \"#utility.yul\":2590:2597   */\n      dup3\n        /* \"#utility.yul\":2586:2601   */\n      div\n        /* \"#utility.yul\":2583:2584   */\n      dup5\n        /* \"#utility.yul\":2580:2602   */\n      eq\n        /* \"#utility.yul\":2560:2561   */\n      dup4\n        /* \"#utility.yul\":2553:2562   */\n      iszero\n        /* \"#utility.yul\":2533:2616   */\n      or\n        /* \"#utility.yul\":2510:2649   */\n      tag_81\n      jumpi\n        /* \"#utility.yul\":2629:2647   */\n      tag_82\n      tag_47\n      jump\t// in\n    tag_82:\n        /* \"#utility.yul\":2510:2649   */\n    tag_81:\n        /* \"#utility.yul\":2294:2656   */\n      pop\n        /* \"#utility.yul\":2246:2656   */\n      swap3\n      swap2\n      pop\n      pop\n      jump\t// out\n        /* \"#utility.yul\":2662:2853   */\n    tag_34:\n        /* \"#utility.yul\":2702:2705   */\n      0x00\n        /* \"#utility.yul\":2721:2741   */\n      tag_84\n        /* \"#utility.yul\":2739:2740   */\n      dup3\n        /* \"#utility.yul\":2721:2741   */\n      tag_43\n      jump\t// in\n    tag_84:\n        /* \"#utility.yul\":2716:2741   */\n      swap2\n      pop\n        /* \"#utility.yul\":2755:2775   */\n      tag_85\n        /* \"#utility.yul\":2773:2774   */\n      dup4\n        /* \"#utility.yul\":2755:2775   */\n      tag_43\n      jump\t// in\n    tag_85:\n        /* \"#utility.yul\":2750:2775   */\n      swap3\n      pop\n        /* \"#utility.yul\":2798:2799   */\n      dup3\n        /* \"#utility.yul\":2795:2796   */\n      dup3\n        /* \"#utility.yul\":2791:2800   */\n      add\n        /* \"#utility.yul\":2784:2800   */\n      swap1\n      pop\n        /* \"#utility.yul\":2819:2822   */\n      dup1\n        /* \"#utility.yul\":2816:2817   */\n      dup3\n        /* \"#utility.yul\":2813:2823   */\n      gt\n        /* \"#utility.yul\":2810:2846   */\n      iszero\n      tag_86\n      jumpi\n        /* \"#utility.yul\":2826:2844   */\n      tag_87\n      tag_47\n      jump\t// in\n    tag_87:\n        /* \"#utility.yul\":2810:2846   */\n    tag_86:\n        /* \"#utility.yul\":2662:2853   */\n      swap3\n      swap2\n      pop\n      pop\n      jump\t// out\n        /* \"#utility.yul\":2859:3039   */\n    tag_48:\n        /* \"#utility.yul\":2907:2984   */\n      0x4e487b7100000000000000000000000000000000000000000000000000000000\n        /* \"#utility.yul\":2904:2905   */\n      0x00\n        /* \"#utility.yul\":2897:2985   */\n      mstore\n        /* \"#utility.yul\":3004:3008   */\n      0x12\n        /* \"#utility.yul\":3001:3002   */\n      0x04\n        /* \"#utility.yul\":2994:3009   */\n      mstore\n        /* \"#utility.yul\":3028:3032   */\n      0x24\n        /* \"#utility.yul\":3025:3026   */\n      0x00\n        /* \"#utility.yul\":3018:3033   */\n      revert\n        /* \"#utility.yul\":3045:3230   */\n    tag_37:\n        /* \"#utility.yul\":3085:3086   */\n      0x00\n        /* \"#utility.yul\":3102:3122   */\n      tag_90\n        /* \"#utility.yul\":3120:3121   */\n      dup3\n        /* \"#utility.yul\":3102:3122   */\n      tag_43\n      jump\t// in\n    tag_90:\n        /* \"#utility.yul\":3097:3122   */\n      swap2\n      pop\n        /* \"#utility.yul\":3136:3156   */\n      tag_91\n        /* \"#utility.yul\":3154:3155   */\n      dup4\n        /* \"#utility.yul\":3136:3156   */\n      tag_43\n      jump\t// in\n    tag_91:\n        /* \"#utility.yul\":3131:3156   */\n      swap3\n      pop\n        /* \"#utility.yul\":3175:3176   */\n      dup3\n        /* \"#utility.yul\":3165:3200   */\n      tag_92\n      jumpi\n        /* \"#utility.yul\":3180:3198   */\n      tag_93\n      tag_48\n      jump\t// in\n    tag_93:\n        /* \"#utility.yul\":3165:3200   */\n    tag_92:\n        /* \"#utility.yul\":3222:3223   */\n      dup3\n        /* \"#utility.yul\":3219:3220   */\n      dup3\n        /* \"#utility.yul\":3215:3224   */\n      div\n        /* \"#utility.yul\":3210:3224   */\n      swap1\n      pop\n        /* \"#utility.yul\":3045:3230   */\n      swap3\n      swap2\n      pop\n      pop\n      jump\t// out\n        /* \"#utility.yul\":3236:3412   */\n    tag_39:\n        /* \"#utility.yul\":3268:3269   */\n      0x00\n        /* \"#utility.yul\":3285:3305   */\n      tag_95\n        /* \"#utility.yul\":3303:3304   */\n      dup3\n        /* \"#utility.yul\":3285:3305   */\n      tag_43\n      jump\t// in\n    tag_95:\n        /* \"#utility.yul\":3280:3305   */\n      swap2\n      pop\n        /* \"#utility.yul\":3319:3339   */\n      tag_96\n        /* \"#utility.yul\":3337:3338   */\n      dup4\n        /* \"#utility.yul\":3319:3339   */\n      tag_43\n      jump\t// in\n    tag_96:\n        /* \"#utility.yul\":3314:3339   */\n      swap3\n      pop\n        /* \"#utility.yul\":3358:3359   */\n      dup3\n        /* \"#utility.yul\":3348:3383   */\n      tag_97\n      jumpi\n        /* \"#utility.yul\":3363:3381   */\n      tag_98\n      tag_48\n      jump\t// in\n    tag_98:\n        /* \"#utility.yul\":3348:3383   */\n    tag_97:\n        /* \"#utility.yul\":3404:3405   */\n      dup3\n        /* \"#utility.yul\":3401:3402   */\n      dup3\n        /* \"#utility.yul\":3397:3406   */\n      mod\n        /* \"#utility.yul\":3392:3406   */\n      swap1\n      pop\n        /* \"#utility.yul\":3236:3412   */\n      swap3\n      swap2\n      pop\n      pop\n      jump\t// out\n\n    auxdata: 0xa2646970667358221220f3d29f29f77584bdffdb900f0f17fa7c98ba614944f0cc80658f5766e310069064736f6c63430008120033\n}\n",
				"bytecode": {
					"linkReferences": {},
					"object": "608060405234801561001057600080fd5b506103e8806100206000396000f3fe608060405234801561001057600080fd5b506004361061004c5760003560e01c80631ec9c2c01461005157806360953744146100815780637afbe4f1146100b15780639a03fe1d146100e1575b600080fd5b61006b600480360381019061006691906101b5565b610112565b6040516100789190610204565b60405180910390f35b61009b600480360381019061009691906101b5565b610128565b6040516100a89190610204565b60405180910390f35b6100cb60048036038101906100c691906101b5565b61013e565b6040516100d89190610204565b60405180910390f35b6100fb60048036038101906100f691906101b5565b610154565b60405161010992919061021f565b60405180910390f35b600081836101209190610277565b905092915050565b6000818361013691906102ab565b905092915050565b6000818361014c91906102ed565b905092915050565b60008082846101639190610350565b838561016f9190610381565b915091509250929050565b600080fd5b6000819050919050565b6101928161017f565b811461019d57600080fd5b50565b6000813590506101af81610189565b92915050565b600080604083850312156101cc576101cb61017a565b5b60006101da858286016101a0565b92505060206101eb858286016101a0565b9150509250929050565b6101fe8161017f565b82525050565b600060208201905061021960008301846101f5565b92915050565b600060408201905061023460008301856101f5565b61024160208301846101f5565b9392505050565b7f4e487b7100000000000000000000000000000000000000000000000000000000600052601160045260246000fd5b60006102828261017f565b915061028d8361017f565b92508282039050818111156102a5576102a4610248565b5b92915050565b60006102b68261017f565b91506102c18361017f565b92508282026102cf8161017f565b915082820484148315176102e6576102e5610248565b5b5092915050565b60006102f88261017f565b91506103038361017f565b925082820190508082111561031b5761031a610248565b5b92915050565b7f4e487b7100000000000000000000000000000000000000000000000000000000600052601260045260246000fd5b600061035b8261017f565b91506103668361017f565b92508261037657610375610321565b5b828204905092915050565b600061038c8261017f565b91506103978361017f565b9250826103a7576103a6610321565b5b82820690509291505056fea2646970667358221220f3d29f29f77584bdffdb900f0f17fa7c98ba614944f0cc80658f5766e310069064736f6c63430008120033",
					"opcodes": "PUSH1 0x80 PUSH1 0x40 MSTORE CALLVALUE DUP1 ISZERO PUSH2 0x10 JUMPI PUSH1 0x0 DUP1 REVERT JUMPDEST POP PUSH2 0x3E8 DUP1 PUSH2 0x20 PUSH1 0x0 CODECOPY PUSH1 0x0 RETURN INVALID PUSH1 0x80 PUSH1 0x40 MSTORE CALLVALUE DUP1 ISZERO PUSH2 0x10 JUMPI PUSH1 0x0 DUP1 REVERT JUMPDEST POP PUSH1 0x4 CALLDATASIZE LT PUSH2 0x4C JUMPI PUSH1 0x0 CALLDATALOAD PUSH1 0xE0 SHR DUP1 PUSH4 0x1EC9C2C0 EQ PUSH2 0x51 JUMPI DUP1 PUSH4 0x60953744 EQ PUSH2 0x81 JUMPI DUP1 PUSH4 0x7AFBE4F1 EQ PUSH2 0xB1 JUMPI DUP1 PUSH4 0x9A03FE1D EQ PUSH2 0xE1 JUMPI JUMPDEST PUSH1 0x0 DUP1 REVERT JUMPDEST PUSH2 0x6B PUSH1 0x4 DUP1 CALLDATASIZE SUB DUP2 ADD SWAP1 PUSH2 0x66 SWAP2 SWAP1 PUSH2 0x1B5 JUMP JUMPDEST PUSH2 0x112 JUMP JUMPDEST PUSH1 0x40 MLOAD PUSH2 0x78 SWAP2 SWAP1 PUSH2 0x204 JUMP JUMPDEST PUSH1 0x40 MLOAD DUP1 SWAP2 SUB SWAP1 RETURN JUMPDEST PUSH2 0x9B PUSH1 0x4 DUP1 CALLDATASIZE SUB DUP2 ADD SWAP1 PUSH2 0x96 SWAP2 SWAP1 PUSH2 0x1B5 JUMP JUMPDEST PUSH2 0x128 JUMP JUMPDEST PUSH1 0x40 MLOAD PUSH2 0xA8 SWAP2 SWAP1 PUSH2 0x204 JUMP JUMPDEST PUSH1 0x40 MLOAD DUP1 SWAP2 SUB SWAP1 RETURN JUMPDEST PUSH2 0xCB PUSH1 0x4 DUP1 CALLDATASIZE SUB DUP2 ADD SWAP1 PUSH2 0xC6 SWAP2 SWAP1 PUSH2 0x1B5 JUMP JUMPDEST PUSH2 0x13E JUMP JUMPDEST PUSH1 0x40 MLOAD PUSH2 0xD8 SWAP2 SWAP1 PUSH2 0x204 JUMP JUMPDEST PUSH1 0x40 MLOAD DUP1 SWAP2 SUB SWAP1 RETURN JUMPDEST PUSH2 0xFB PUSH1 0x4 DUP1 CALLDATASIZE SUB DUP2 ADD SWAP1 PUSH2 0xF6 SWAP2 SWAP1 PUSH2 0x1B5 JUMP JUMPDEST PUSH2 0x154 JUMP JUMPDEST PUSH1 0x40 MLOAD PUSH2 0x109 SWAP3 SWAP2 SWAP1 PUSH2 0x21F JUMP JUMPDEST PUSH1 0x40 MLOAD DUP1 SWAP2 SUB SWAP1 RETURN JUMPDEST PUSH1 0x0 DUP2 DUP4 PUSH2 0x120 SWAP2 SWAP1 PUSH2 0x277 JUMP JUMPDEST SWAP1 POP SWAP3 SWAP2 POP POP JUMP JUMPDEST PUSH1 0x0 DUP2 DUP4 PUSH2 0x136 SWAP2 SWAP1 PUSH2 0x2AB JUMP JUMPDEST SWAP1 POP SWAP3 SWAP2 POP POP JUMP JUMPDEST PUSH1 0x0 DUP2 DUP4 PUSH2 0x14C SWAP2 SWAP1 PUSH2 0x2ED JUMP JUMPDEST SWAP1 POP SWAP3 SWAP2 POP POP JUMP JUMPDEST PUSH1 0x0 DUP1 DUP3 DUP5 PUSH2 0x163 SWAP2 SWAP1 PUSH2 0x350 JUMP JUMPDEST DUP4 DUP6 PUSH2 0x16F SWAP2 SWAP1 PUSH2 0x381 JUMP JUMPDEST SWAP2 POP SWAP2 POP SWAP3 POP SWAP3 SWAP1 POP JUMP JUMPDEST PUSH1 0x0 DUP1 REVERT JUMPDEST PUSH1 0x0 DUP2 SWAP1 POP SWAP2 SWAP1 POP JUMP JUMPDEST PUSH2 0x192 DUP2 PUSH2 0x17F JUMP JUMPDEST DUP2 EQ PUSH2 0x19D JUMPI PUSH1 0x0 DUP1 REVERT JUMPDEST POP JUMP JUMPDEST PUSH1 0x0 DUP2 CALLDATALOAD SWAP1 POP PUSH2 0x1AF DUP2 PUSH2 0x189 JUMP JUMPDEST SWAP3 SWAP2 POP POP JUMP JUMPDEST PUSH1 0x0 DUP1 PUSH1 0x40 DUP4 DUP6 SUB SLT ISZERO PUSH2 0x1CC JUMPI PUSH2 0x1CB PUSH2 0x17A JUMP JUMPDEST JUMPDEST PUSH1 0x0 PUSH2 0x1DA DUP6 DUP3 DUP7 ADD PUSH2 0x1A0 JUMP JUMPDEST SWAP3 POP POP PUSH1 0x20 PUSH2 0x1EB DUP6 DUP3 DUP7 ADD PUSH2 0x1A0 JUMP JUMPDEST SWAP2 POP POP SWAP3 POP SWAP3 SWAP1 POP JUMP JUMPDEST PUSH2 0x1FE DUP2 PUSH2 0x17F JUMP JUMPDEST DUP3 MSTORE POP POP JUMP JUMPDEST PUSH1 0x0 PUSH1 0x20 DUP3 ADD SWAP1 POP PUSH2 0x219 PUSH1 0x0 DUP4 ADD DUP5 PUSH2 0x1F5 JUMP JUMPDEST SWAP3 SWAP2 POP POP JUMP JUMPDEST PUSH1 0x0 PUSH1 0x40 DUP3 ADD SWAP1 POP PUSH2 0x234 PUSH1 0x0 DUP4 ADD DUP6 PUSH2 0x1F5 JUMP JUMPDEST PUSH2 0x241 PUSH1 0x20 DUP4 ADD DUP5 PUSH2 0x1F5 JUMP JUMPDEST SWAP4 SWAP3 POP POP POP JUMP JUMPDEST PUSH32 0x4E487B7100000000000000000000000000000000000000000000000000000000 PUSH1 0x0 MSTORE PUSH1 0x11 PUSH1 0x4 MSTORE PUSH1 0x24 PUSH1 0x0 REVERT JUMPDEST PUSH1 0x0 PUSH2 0x282 DUP3 PUSH2 0x17F JUMP JUMPDEST SWAP2 POP PUSH2 0x28D DUP4 PUSH2 0x17F JUMP JUMPDEST SWAP3 POP DUP3 DUP3 SUB SWAP1 POP DUP2 DUP2 GT ISZERO PUSH2 0x2A5 JUMPI PUSH2 0x2A4 PUSH2 0x248 JUMP JUMPDEST JUMPDEST SWAP3 SWAP2 POP POP JUMP JUMPDEST PUSH1 0x0 PUSH2 0x2B6 DUP3 PUSH2 0x17F JUMP JUMPDEST SWAP2 POP PUSH2 0x2C1 DUP4 PUSH2 0x17F JUMP JUMPDEST SWAP3 POP DUP3 DUP3 MUL PUSH2 0x2CF DUP2 PUSH2 0x17F JUMP JUMPDEST SWAP2 POP DUP3 DUP3 DIV DUP5 EQ DUP4 ISZERO OR PUSH2 0x2E6 JUMPI PUSH2 0x2E5 PUSH2 0x248 JUMP JUMPDEST JUMPDEST POP SWAP3 SWAP2 POP POP JUMP JUMPDEST PUSH1 0x0 PUSH2 0x2F8 DUP3 PUSH2 0x17F JUMP JUMPDEST SWAP2 POP PUSH2 0x303 DUP4 PUSH2 0x17F JUMP JUMPDEST SWAP3 POP DUP3 DUP3 ADD SWAP1 POP DUP1 DUP3 GT ISZERO PUSH2 0x31B JUMPI PUSH2 0x31A PUSH2 0x248 JUMP JUMPDEST JUMPDEST SWAP3 SWAP2 POP POP JUMP JUMPDEST PUSH32 0x4E487B7100000000000000000000000000000000000000000000000000000000 PUSH1 0x0 MSTORE PUSH1 0x12 PUSH1 0x4 MSTORE PUSH1 0x24 PUSH1 0x0 REVERT JUMPDEST PUSH1 0x0 PUSH2 0x35B DUP3 PUSH2 0x17F JUMP JUMPDEST SWAP2 POP PUSH2 0x366 DUP4 PUSH2 0x17F JUMP JUMPDEST SWAP3 POP DUP3 PUSH2 0x376 JUMPI PUSH2 0x375 PUSH2 0x321 JUMP JUMPDEST JUMPDEST DUP3 DUP3 DIV SWAP1 POP SWAP3 SWAP2 POP POP JUMP JUMPDEST PUSH1 0x0 PUSH2 0x38C DUP3 PUSH2 0x17F JUMP JUMPDEST SWAP2 POP PUSH2 0x397 DUP4 PUSH2 0x17F JUMP JUMPDEST SWAP3 POP DUP3 PUSH2 0x3A7 JUMPI PUSH2 0x3A6 PUSH2 0x321 JUMP JUMPDEST JUMPDEST DUP3 DUP3 MOD SWAP1 POP SWAP3 SWAP2 POP POP JUMP INVALID LOG2 PUSH5 0x6970667358 0x22 SLT KECCAK256 RETURN 0xD2 SWAP16 0x29 0xF7 PUSH22 0x84BDFFDB900F0F17FA7C98BA614944F0CC80658F5766 0xE3 LT MOD SWAP1 PUSH5 0x736F6C6343 STOP ADDMOD SLT STOP CALLER "
				},
				"gasEstimates": {
					"creation": {
						"codeDepositCost": "200000",
						"executionCost": "245",
						"totalCost": "200245"
					},
					"external": {
						"Add(uint256,uint256)": "infinite",
						"Div(uint256,uint256)": "infinite",
						"Mul(uint256,uint256)": "infinite",
						"Sub(uint256,uint256)": "infinite"
					}
				},
				"methodIdentifiers": {
					"Add(uint256,uint256)": "7afbe4f1",
					"Div(uint256,uint256)": "9a03fe1d",
					"Mul(uint256,uint256)": "60953744",
					"Sub(uint256,uint256)": "1ec9c2c0"
				}
			},
			"storageLayout": {
				"storage": [],
				"types": null
			},
			"userdoc": {
				"kind": "user",
				"methods": {},
				"version": 1
			}
		}
	}
}