{
	"data": {
		"bytecode": {
			"linkReferences": {},
			"object": "608060405234801561001057600080fd5b50610a23806100206000396000f3fe608060405234801561001057600080fd5b506004361061004c5760003560e01c80631a61746e146100515780635ee640571461005b5780636fa1c8db14610077578063feede7a2146100a7575b600080fd5b6100596100c3565b005b61007560048036038101906100709190610316565b610120565b005b610091600480360381019061008c919061054a565b61019a565b60405161009e91906105b5565b60405180910390f35b6100c160048036038101906100bc91906105d0565b610200565b005b3373ffffffffffffffffffffffffffffffffffffffff1631600260003373ffffffffffffffffffffffffffffffffffffffff1673ffffffffffffffffffffffffffffffffffffffff16815260200190815260200160002081905550565b60006005868660405161013492919061064d565b9081526020016040518091039020848460405161015292919061064d565b90815260200160405180910390206000838152602001908152602001600020600082015481600001556001820181600101908161018f9190610888565b509050505050505050565b6000600360008473ffffffffffffffffffffffffffffffffffffffff1673ffffffffffffffffffffffffffffffffffffffff168152602001908152602001600020826040516101e991906109d6565b908152602001604051809103902054905092915050565b6064600360003373ffffffffffffffffffffffffffffffffffffffff1673ffffffffffffffffffffffffffffffffffffffff168152602001908152602001600020838360405161025192919061064d565b9081526020016040518091039020819055505050565b6000604051905090565b600080fd5b600080fd5b600080fd5b600080fd5b600080fd5b60008083601f8401126102a05761029f61027b565b5b8235905067ffffffffffffffff8111156102bd576102bc610280565b5b6020830191508360018202830111156102d9576102d8610285565b5b9250929050565b6000819050919050565b6102f3816102e0565b81146102fe57600080fd5b50565b600081359050610310816102ea565b92915050565b60008060008060006060868803121561033257610331610271565b5b600086013567ffffffffffffffff8111156103505761034f610276565b5b61035c8882890161028a565b9550955050602086013567ffffffffffffffff81111561037f5761037e610276565b5b61038b8882890161028a565b9350935050604061039e88828901610301565b9150509295509295909350565b600073ffffffffffffffffffffffffffffffffffffffff82169050919050565b60006103d6826103ab565b9050919050565b6103e6816103cb565b81146103f157600080fd5b50565b600081359050610403816103dd565b92915050565b600080fd5b6000601f19601f8301169050919050565b7f4e487b7100000000000000000000000000000000000000000000000000000000600052604160045260246000fd5b6104578261040e565b810181811067ffffffffffffffff821117156104765761047561041f565b5b80604052505050565b6000610489610267565b9050610495828261044e565b919050565b600067ffffffffffffffff8211156104b5576104b461041f565b5b6104be8261040e565b9050602081019050919050565b82818337600083830152505050565b60006104ed6104e88461049a565b61047f565b90508281526020810184848401111561050957610508610409565b5b6105148482856104cb565b509392505050565b600082601f8301126105315761053061027b565b5b81356105418482602086016104da565b91505092915050565b6000806040838503121561056157610560610271565b5b600061056f858286016103f4565b925050602083013567ffffffffffffffff8111156105905761058f610276565b5b61059c8582860161051c565b9150509250929050565b6105af816102e0565b82525050565b60006020820190506105ca60008301846105a6565b92915050565b600080602083850312156105e7576105e6610271565b5b600083013567ffffffffffffffff81111561060557610604610276565b5b6106118582860161028a565b92509250509250929050565b600081905092915050565b6000610634838561061d565b93506106418385846104cb565b82840190509392505050565b600061065a828486610628565b91508190509392505050565b7f4e487b7100000000000000000000000000000000000000000000000000000000600052602260045260246000fd5b600060028204905060018216806106ad57607f821691505b6020821081036106c0576106bf610666565b5b50919050565b6000815490506106d581610695565b9050919050565b60008190508160005260206000209050919050565b60006020601f8301049050919050565b600082821b905092915050565b60006008830261073e7fffffffffffffffffffffffffffffffffffffffffffffffffffffffffffffffff82610701565b6107488683610701565b95508019841693508086168417925050509392505050565b6000819050919050565b600061078561078061077b846102e0565b610760565b6102e0565b9050919050565b6000819050919050565b61079f8361076a565b6107b36107ab8261078c565b84845461070e565b825550505050565b600090565b6107c86107bb565b6107d3818484610796565b505050565b5b818110156107f7576107ec6000826107c0565b6001810190506107d9565b5050565b601f82111561083c5761080d816106dc565b610816846106f1565b81016020851015610825578190505b610839610831856106f1565b8301826107d8565b50505b505050565b600082821c905092915050565b600061085f60001984600802610841565b1980831691505092915050565b6000610878838361084e565b9150826002028217905092915050565b81810361089657505061096e565b61089f826106c6565b67ffffffffffffffff8111156108b8576108b761041f565b5b6108c28254610695565b6108cd8282856107fb565b6000601f8311600181146108fc57600084156108ea578287015490505b6108f4858261086c565b865550610967565b601f19841661090a876106dc565b9650610915866106dc565b60005b8281101561093d57848901548255600182019150600185019450602081019050610918565b8683101561095a5784890154610956601f89168261084e565b8355505b6001600288020188555050505b5050505050505b565b600081519050919050565b60005b8381101561099957808201518184015260208101905061097e565b60008484015250505050565b60006109b082610970565b6109ba818561061d565b93506109ca81856020860161097b565b80840191505092915050565b60006109e282846109a5565b91508190509291505056fea26469706673582212200d8299e63e7eae291d65f477fec0af018899505f99c790ce3070d046f1718af164736f6c63430008120033",
			"opcodes": "PUSH1 0x80 PUSH1 0x40 MSTORE CALLVALUE DUP1 ISZERO PUSH2 0x10 JUMPI PUSH1 0x0 DUP1 REVERT JUMPDEST POP PUSH2 0xA23 DUP1 PUSH2 0x20 PUSH1 0x0 CODECOPY PUSH1 0x0 RETURN INVALID PUSH1 0x80 PUSH1 0x40 MSTORE CALLVALUE DUP1 ISZERO PUSH2 0x10 JUMPI PUSH1 0x0 DUP1 REVERT JUMPDEST POP PUSH1 0x4 CALLDATASIZE LT PUSH2 0x4C JUMPI PUSH1 0x0 CALLDATALOAD PUSH1 0xE0 SHR DUP1 PUSH4 0x1A61746E EQ PUSH2 0x51 JUMPI DUP1 PUSH4 0x5EE64057 EQ PUSH2 0x5B JUMPI DUP1 PUSH4 0x6FA1C8DB EQ PUSH2 0x77 JUMPI DUP1 PUSH4 0xFEEDE7A2 EQ PUSH2 0xA7 JUMPI JUMPDEST PUSH1 0x0 DUP1 REVERT JUMPDEST PUSH2 0x59 PUSH2 0xC3 JUMP JUMPDEST STOP JUMPDEST PUSH2 0x75 PUSH1 0x4 DUP1 CALLDATASIZE SUB DUP2 ADD SWAP1 PUSH2 0x70 SWAP2 SWAP1 PUSH2 0x316 JUMP JUMPDEST PUSH2 0x120 JUMP JUMPDEST STOP JUMPDEST PUSH2 0x91 PUSH1 0x4 DUP1 CALLDATASIZE SUB DUP2 ADD SWAP1 PUSH2 0x8C SWAP2 SWAP1 PUSH2 0x54A JUMP JUMPDEST PUSH2 0x19A JUMP JUMPDEST PUSH1 0x40 MLOAD PUSH2 0x9E SWAP2 SWAP1 PUSH2 0x5B5 JUMP JUMPDEST PUSH1 0x40 MLOAD DUP1 SWAP2 SUB SWAP1 RETURN JUMPDEST PUSH2 0xC1 PUSH1 0x4 DUP1 CALLDATASIZE SUB DUP2 ADD SWAP1 PUSH2 0xBC SWAP2 SWAP1 PUSH2 0x5D0 JUMP JUMPDEST PUSH2 0x200 JUMP JUMPDEST STOP JUMPDEST CALLER PUSH20 0xFFFFFFFFFFFFFFFFFFFFFFFFFFFFFFFFFFFFFFFF AND BALANCE PUSH1 0x2 PUSH1 0x0 CALLER PUSH20 0xFFFFFFFFFFFFFFFFFFFFFFFFFFFFFFFFFFFFFFFF AND PUSH20 0xFFFFFFFFFFFFFFFFFFFFFFFFFFFFFFFFFFFFFFFF AND DUP2 MSTORE PUSH1 0x20 ADD SWAP1 DUP2 MSTORE PUSH1 0x20 ADD PUSH1 0x0 KECCAK256 DUP2 SWAP1 SSTORE POP JUMP JUMPDEST PUSH1 0x0 PUSH1 0x5 DUP7 DUP7 PUSH1 0x40 MLOAD PUSH2 0x134 SWAP3 SWAP2 SWAP1 PUSH2 0x64D JUMP JUMPDEST SWAP1 DUP2 MSTORE PUSH1 0x20 ADD PUSH1 0x40 MLOAD DUP1 SWAP2 SUB SWAP1 KECCAK256 DUP5 DUP5 PUSH1 0x40 MLOAD PUSH2 0x152 SWAP3 SWAP2 SWAP1 PUSH2 0x64D JUMP JUMPDEST SWAP1 DUP2 MSTORE PUSH1 0x20 ADD PUSH1 0x40 MLOAD DUP1 SWAP2 SUB SWAP1 KECCAK256 PUSH1 0x0 DUP4 DUP2 MSTORE PUSH1 0x20 ADD SWAP1 DUP2 MSTORE PUSH1 0x20 ADD PUSH1 0x0 KECCAK256 PUSH1 0x0 DUP3 ADD SLOAD DUP2 PUSH1 0x0 ADD SSTORE PUSH1 0x1 DUP3 ADD DUP2 PUSH1 0x1 ADD SWAP1 DUP2 PUSH2 0x18F SWAP2 SWAP1 PUSH2 0x888 JUMP JUMPDEST POP SWAP1 POP POP POP POP POP POP POP JUMP JUMPDEST PUSH1 0x0 PUSH1 0x3 PUSH1 0x0 DUP5 PUSH20 0xFFFFFFFFFFFFFFFFFFFFFFFFFFFFFFFFFFFFFFFF AND PUSH20 0xFFFFFFFFFFFFFFFFFFFFFFFFFFFFFFFFFFFFFFFF AND DUP2 MSTORE PUSH1 0x20 ADD SWAP1 DUP2 MSTORE PUSH1 0x20 ADD PUSH1 0x0 KECCAK256 DUP3 PUSH1 0x40 MLOAD PUSH2 0x1E9 SWAP2 SWAP1 PUSH2 0x9D6 JUMP JUMPDEST SWAP1 DUP2 MSTORE PUSH1 0x20 ADD PUSH1 0x40 MLOAD DUP1 SWAP2 SUB SWAP1 KECCAK256 SLOAD SWAP1 POP SWAP3 SWAP2 POP POP JUMP JUMPDEST PUSH1 0x64 PUSH1 0x3 PUSH1 0x0 CALLER PUSH20 0xFFFFFFFFFFFFFFFFFFFFFFFFFFFFFFFFFFFFFFFF AND PUSH20 0xFFFFFFFFFFFFFFFFFFFFFFFFFFFFFFFFFFFFFFFF AND DUP2 MSTORE PUSH1 0x20 ADD SWAP1 DUP2 MSTORE PUSH1 0x20 ADD PUSH1 0x0 KECCAK256 DUP4 DUP4 PUSH1 0x40 MLOAD PUSH2 0x251 SWAP3 SWAP2 SWAP1 PUSH2 0x64D JUMP JUMPDEST SWAP1 DUP2 MSTORE PUSH1 0x20 ADD PUSH1 0x40 MLOAD DUP1 SWAP2 SUB SWAP1 KECCAK256 DUP2 SWAP1 SSTORE POP POP POP JUMP JUMPDEST PUSH1 0x0 PUSH1 0x40 MLOAD SWAP1 POP SWAP1 JUMP JUMPDEST PUSH1 0x0 DUP1 REVERT JUMPDEST PUSH1 0x0 DUP1 REVERT JUMPDEST PUSH1 0x0 DUP1 REVERT JUMPDEST PUSH1 0x0 DUP1 REVERT JUMPDEST PUSH1 0x0 DUP1 REVERT JUMPDEST PUSH1 0x0 DUP1 DUP4 PUSH1 0x1F DUP5 ADD SLT PUSH2 0x2A0 JUMPI PUSH2 0x29F PUSH2 0x27B JUMP JUMPDEST JUMPDEST DUP3 CALLDATALOAD SWAP1 POP PUSH8 0xFFFFFFFFFFFFFFFF DUP2 GT ISZERO PUSH2 0x2BD JUMPI PUSH2 0x2BC PUSH2 0x280 JUMP JUMPDEST JUMPDEST PUSH1 0x20 DUP4 ADD SWAP2 POP DUP4 PUSH1 0x1 DUP3 MUL DUP4 ADD GT ISZERO PUSH2 0x2D9 JUMPI PUSH2 0x2D8 PUSH2 0x285 JUMP JUMPDEST JUMPDEST SWAP3 POP SWAP3 SWAP1 POP JUMP JUMPDEST PUSH1 0x0 DUP2 SWAP1 POP SWAP2 SWAP1 POP JUMP JUMPDEST PUSH2 0x2F3 DUP2 PUSH2 0x2E0 JUMP JUMPDEST DUP2 EQ PUSH2 0x2FE JUMPI PUSH1 0x0 DUP1 REVERT JUMPDEST POP JUMP JUMPDEST PUSH1 0x0 DUP2 CALLDATALOAD SWAP1 POP PUSH2 0x310 DUP2 PUSH2 0x2EA JUMP JUMPDEST SWAP3 SWAP2 POP POP JUMP JUMPDEST PUSH1 0x0 DUP1 PUSH1 0x0 DUP1 PUSH1 0x0 PUSH1 0x60 DUP7 DUP9 SUB SLT ISZERO PUSH2 0x332 JUMPI PUSH2 0x331 PUSH2 0x271 JUMP JUMPDEST JUMPDEST PUSH1 0x0 DUP7 ADD CALLDATALOAD PUSH8 0xFFFFFFFFFFFFFFFF DUP2 GT ISZERO PUSH2 0x350 JUMPI PUSH2 0x34F PUSH2 0x276 JUMP JUMPDEST JUMPDEST PUSH2 0x35C DUP9 DUP3 DUP10 ADD PUSH2 0x28A JUMP JUMPDEST SWAP6 POP SWAP6 POP POP PUSH1 0x20 DUP7 ADD CALLDATALOAD PUSH8 0xFFFFFFFFFFFFFFFF DUP2 GT ISZERO PUSH2 0x37F JUMPI PUSH2 0x37E PUSH2 0x276 JUMP JUMPDEST JUMPDEST PUSH2 0x38B DUP9 DUP3 DUP10 ADD PUSH2 0x28A JUMP JUMPDEST SWAP4 POP SWAP4 POP POP PUSH1 0x40 PUSH2 0x39E DUP9 DUP3 DUP10 ADD PUSH2 0x301 JUMP JUMPDEST SWAP2 POP POP SWAP3 SWAP6 POP SWAP3 SWAP6 SWAP1 SWAP4 POP JUMP JUMPDEST PUSH1 0x0 PUSH20 0xFFFFFFFFFFFFFFFFFFFFFFFFFFFFFFFFFFFFFFFF DUP3 AND SWAP1 POP SWAP2 SWAP1 POP JUMP JUMPDEST PUSH1 0x0 PUSH2 0x3D6 DUP3 PUSH2 0x3AB JUMP JUMPDEST SWAP1 POP SWAP2 SWAP1 POP JUMP JUMPDEST PUSH2 0x3E6 DUP2 PUSH2 0x3CB JUMP JUMPDEST DUP2 EQ PUSH2 0x3F1 JUMPI PUSH1 0x0 DUP1 REVERT JUMPDEST POP JUMP JUMPDEST PUSH1 0x0 DUP2 CALLDATALOAD SWAP1 POP PUSH2 0x403 DUP2 PUSH2 0x3DD JUMP JUMPDEST SWAP3 SWAP2 POP POP JUMP JUMPDEST PUSH1 0x0 DUP1 REVERT JUMPDEST PUSH1 0x0 PUSH1 0x1F NOT PUSH1 0x1F DUP4 ADD AND SWAP1 POP SWAP2 SWAP1 POP JUMP JUMPDEST PUSH32 0x4E487B7100000000000000000000000000000000000000000000000000000000 PUSH1 0x0 MSTORE PUSH1 0x41 PUSH1 0x4 MSTORE PUSH1 0x24 PUSH1 0x0 REVERT JUMPDEST PUSH2 0x457 DUP3 PUSH2 0x40E JUMP JUMPDEST DUP2 ADD DUP2 DUP2 LT PUSH8 0xFFFFFFFFFFFFFFFF DUP3 GT OR ISZERO PUSH2 0x476 JUMPI PUSH2 0x475 PUSH2 0x41F JUMP JUMPDEST JUMPDEST DUP1 PUSH1 0x40 MSTORE POP POP POP JUMP JUMPDEST PUSH1 0x0 PUSH2 0x489 PUSH2 0x267 JUMP JUMPDEST SWAP1 POP PUSH2 0x495 DUP3 DUP3 PUSH2 0x44E JUMP JUMPDEST SWAP2 SWAP1 POP JUMP JUMPDEST PUSH1 0x0 PUSH8 0xFFFFFFFFFFFFFFFF DUP3 GT ISZERO PUSH2 0x4B5 JUMPI PUSH2 0x4B4 PUSH2 0x41F JUMP JUMPDEST JUMPDEST PUSH2 0x4BE DUP3 PUSH2 0x40E JUMP JUMPDEST SWAP1 POP PUSH1 0x20 DUP2 ADD SWAP1 POP SWAP2 SWAP1 POP JUMP JUMPDEST DUP3 DUP2 DUP4 CALLDATACOPY PUSH1 0x0 DUP4 DUP4 ADD MSTORE POP POP POP JUMP JUMPDEST PUSH1 0x0 PUSH2 0x4ED PUSH2 0x4E8 DUP5 PUSH2 0x49A JUMP JUMPDEST PUSH2 0x47F JUMP JUMPDEST SWAP1 POP DUP3 DUP2 MSTORE PUSH1 0x20 DUP2 ADD DUP5 DUP5 DUP5 ADD GT ISZERO PUSH2 0x509 JUMPI PUSH2 0x508 PUSH2 0x409 JUMP JUMPDEST JUMPDEST PUSH2 0x514 DUP5 DUP3 DUP6 PUSH2 0x4CB JUMP JUMPDEST POP SWAP4 SWAP3 POP POP POP JUMP JUMPDEST PUSH1 0x0 DUP3 PUSH1 0x1F DUP4 ADD SLT PUSH2 0x531 JUMPI PUSH2 0x530 PUSH2 0x27B JUMP JUMPDEST JUMPDEST DUP2 CALLDATALOAD PUSH2 0x541 DUP5 DUP3 PUSH1 0x20 DUP7 ADD PUSH2 0x4DA JUMP JUMPDEST SWAP2 POP POP SWAP3 SWAP2 POP POP JUMP JUMPDEST PUSH1 0x0 DUP1 PUSH1 0x40 DUP4 DUP6 SUB SLT ISZERO PUSH2 0x561 JUMPI PUSH2 0x560 PUSH2 0x271 JUMP JUMPDEST JUMPDEST PUSH1 0x0 PUSH2 0x56F DUP6 DUP3 DUP7 ADD PUSH2 0x3F4 JUMP JUMPDEST SWAP3 POP POP PUSH1 0x20 DUP4 ADD CALLDATALOAD PUSH8 0xFFFFFFFFFFFFFFFF DUP2 GT ISZERO PUSH2 0x590 JUMPI PUSH2 0x58F PUSH2 0x276 JUMP JUMPDEST JUMPDEST PUSH2 0x59C DUP6 DUP3 DUP7 ADD PUSH2 0x51C JUMP JUMPDEST SWAP2 POP POP SWAP3 POP SWAP3 SWAP1 POP JUMP JUMPDEST PUSH2 0x5AF DUP2 PUSH2 0x2E0 JUMP JUMPDEST DUP3 MSTORE POP POP JUMP JUMPDEST PUSH1 0x0 PUSH1 0x20 DUP3 ADD SWAP1 POP PUSH2 0x5CA PUSH1 0x0 DUP4 ADD DUP5 PUSH2 0x5A6 JUMP JUMPDEST SWAP3 SWAP2 POP POP JUMP JUMPDEST PUSH1 0x0 DUP1 PUSH1 0x20 DUP4 DUP6 SUB SLT ISZERO PUSH2 0x5E7 JUMPI PUSH2 0x5E6 PUSH2 0x271 JUMP JUMPDEST JUMPDEST PUSH1 0x0 DUP4 ADD CALLDATALOAD PUSH8 0xFFFFFFFFFFFFFFFF DUP2 GT ISZERO PUSH2 0x605 JUMPI PUSH2 0x604 PUSH2 0x276 JUMP JUMPDEST JUMPDEST PUSH2 0x611 DUP6 DUP3 DUP7 ADD PUSH2 0x28A JUMP JUMPDEST SWAP3 POP SWAP3 POP POP SWAP3 POP SWAP3 SWAP1 POP JUMP JUMPDEST PUSH1 0x0 DUP2 SWAP1 POP SWAP3 SWAP2 POP POP JUMP JUMPDEST PUSH1 0x0 PUSH2 0x634 DUP4 DUP6 PUSH2 0x61D JUMP JUMPDEST SWAP4 POP PUSH2 0x641 DUP4 DUP6 DUP5 PUSH2 0x4CB JUMP JUMPDEST DUP3 DUP5 ADD SWAP1 POP SWAP4 SWAP3 POP POP POP JUMP JUMPDEST PUSH1 0x0 PUSH2 0x65A DUP3 DUP5 DUP7 PUSH2 0x628 JUMP JUMPDEST SWAP2 POP DUP2 SWAP1 POP SWAP4 SWAP3 POP POP POP JUMP JUMPDEST PUSH32 0x4E487B7100000000000000000000000000000000000000000000000000000000 PUSH1 0x0 MSTORE PUSH1 0x22 PUSH1 0x4 MSTORE PUSH1 0x24 PUSH1 0x0 REVERT JUMPDEST PUSH1 0x0 PUSH1 0x2 DUP3 DIV SWAP1 POP PUSH1 0x1 DUP3 AND DUP1 PUSH2 0x6AD JUMPI PUSH1 0x7F DUP3 AND SWAP2 POP JUMPDEST PUSH1 0x20 DUP3 LT DUP2 SUB PUSH2 0x6C0 JUMPI PUSH2 0x6BF PUSH2 0x666 JUMP JUMPDEST JUMPDEST POP SWAP2 SWAP1 POP JUMP JUMPDEST PUSH1 0x0 DUP2 SLOAD SWAP1 POP PUSH2 0x6D5 DUP2 PUSH2 0x695 JUMP JUMPDEST SWAP1 POP SWAP2 SWAP1 POP JUMP JUMPDEST PUSH1 0x0 DUP2 SWAP1 POP DUP2 PUSH1 0x0 MSTORE PUSH1 0x20 PUSH1 0x0 KECCAK256 SWAP1 POP SWAP2 SWAP1 POP JUMP JUMPDEST PUSH1 0x0 PUSH1 0x20 PUSH1 0x1F DUP4 ADD DIV SWAP1 POP SWAP2 SWAP1 POP JUMP JUMPDEST PUSH1 0x0 DUP3 DUP3 SHL SWAP1 POP SWAP3 SWAP2 POP POP JUMP JUMPDEST PUSH1 0x0 PUSH1 0x8 DUP4 MUL PUSH2 0x73E PUSH32 0xFFFFFFFFFFFFFFFFFFFFFFFFFFFFFFFFFFFFFFFFFFFFFFFFFFFFFFFFFFFFFFFF DUP3 PUSH2 0x701 JUMP JUMPDEST PUSH2 0x748 DUP7 DUP4 PUSH2 0x701 JUMP JUMPDEST SWAP6 POP DUP1 NOT DUP5 AND SWAP4 POP DUP1 DUP7 AND DUP5 OR SWAP3 POP POP POP SWAP4 SWAP3 POP POP POP JUMP JUMPDEST PUSH1 0x0 DUP2 SWAP1 POP SWAP2 SWAP1 POP JUMP JUMPDEST PUSH1 0x0 PUSH2 0x785 PUSH2 0x780 PUSH2 0x77B DUP5 PUSH2 0x2E0 JUMP JUMPDEST PUSH2 0x760 JUMP JUMPDEST PUSH2 0x2E0 JUMP JUMPDEST SWAP1 POP SWAP2 SWAP1 POP JUMP JUMPDEST PUSH1 0x0 DUP2 SWAP1 POP SWAP2 SWAP1 POP JUMP JUMPDEST PUSH2 0x79F DUP4 PUSH2 0x76A JUMP JUMPDEST PUSH2 0x7B3 PUSH2 0x7AB DUP3 PUSH2 0x78C JUMP JUMPDEST DUP5 DUP5 SLOAD PUSH2 0x70E JUMP JUMPDEST DUP3 SSTORE POP POP POP POP JUMP JUMPDEST PUSH1 0x0 SWAP1 JUMP JUMPDEST PUSH2 0x7C8 PUSH2 0x7BB JUMP JUMPDEST PUSH2 0x7D3 DUP2 DUP5 DUP5 PUSH2 0x796 JUMP JUMPDEST POP POP POP JUMP JUMPDEST JUMPDEST DUP2 DUP2 LT ISZERO PUSH2 0x7F7 JUMPI PUSH2 0x7EC PUSH1 0x0 DUP3 PUSH2 0x7C0 JUMP JUMPDEST PUSH1 0x1 DUP2 ADD SWAP1 POP PUSH2 0x7D9 JUMP JUMPDEST POP POP JUMP JUMPDEST PUSH1 0x1F DUP3 GT ISZERO PUSH2 0x83C JUMPI PUSH2 0x80D DUP2 PUSH2 0x6DC JUMP JUMPDEST PUSH2 0x816 DUP5 PUSH2 0x6F1 JUMP JUMPDEST DUP2 ADD PUSH1 0x20 DUP6 LT ISZERO PUSH2 0x825 JUMPI DUP2 SWAP1 POP JUMPDEST PUSH2 0x839 PUSH2 0x831 DUP6 PUSH2 0x6F1 JUMP JUMPDEST DUP4 ADD DUP3 PUSH2 0x7D8 JUMP JUMPDEST POP POP JUMPDEST POP POP POP JUMP JUMPDEST PUSH1 0x0 DUP3 DUP3 SHR SWAP1 POP SWAP3 SWAP2 POP POP JUMP JUMPDEST PUSH1 0x0 PUSH2 0x85F PUSH1 0x0 NOT DUP5 PUSH1 0x8 MUL PUSH2 0x841 JUMP JUMPDEST NOT DUP1 DUP4 AND SWAP2 POP POP SWAP3 SWAP2 POP POP JUMP JUMPDEST PUSH1 0x0 PUSH2 0x878 DUP4 DUP4 PUSH2 0x84E JUMP JUMPDEST SWAP2 POP DUP3 PUSH1 0x2 MUL DUP3 OR SWAP1 POP SWAP3 SWAP2 POP POP JUMP JUMPDEST DUP2 DUP2 SUB PUSH2 0x896 JUMPI POP POP PUSH2 0x96E JUMP JUMPDEST PUSH2 0x89F DUP3 PUSH2 0x6C6 JUMP JUMPDEST PUSH8 0xFFFFFFFFFFFFFFFF DUP2 GT ISZERO PUSH2 0x8B8 JUMPI PUSH2 0x8B7 PUSH2 0x41F JUMP JUMPDEST JUMPDEST PUSH2 0x8C2 DUP3 SLOAD PUSH2 0x695 JUMP JUMPDEST PUSH2 0x8CD DUP3 DUP3 DUP6 PUSH2 0x7FB JUMP JUMPDEST PUSH1 0x0 PUSH1 0x1F DUP4 GT PUSH1 0x1 DUP2 EQ PUSH2 0x8FC JUMPI PUSH1 0x0 DUP5 ISZERO PUSH2 0x8EA JUMPI DUP3 DUP8 ADD SLOAD SWAP1 POP JUMPDEST PUSH2 0x8F4 DUP6 DUP3 PUSH2 0x86C JUMP JUMPDEST DUP7 SSTORE POP PUSH2 0x967 JUMP JUMPDEST PUSH1 0x1F NOT DUP5 AND PUSH2 0x90A DUP8 PUSH2 0x6DC JUMP JUMPDEST SWAP7 POP PUSH2 0x915 DUP7 PUSH2 0x6DC JUMP JUMPDEST PUSH1 0x0 JUMPDEST DUP3 DUP2 LT ISZERO PUSH2 0x93D JUMPI DUP5 DUP10 ADD SLOAD DUP3 SSTORE PUSH1 0x1 DUP3 ADD SWAP2 POP PUSH1 0x1 DUP6 ADD SWAP5 POP PUSH1 0x20 DUP2 ADD SWAP1 POP PUSH2 0x918 JUMP JUMPDEST DUP7 DUP4 LT ISZERO PUSH2 0x95A JUMPI DUP5 DUP10 ADD SLOAD PUSH2 0x956 PUSH1 0x1F DUP10 AND DUP3 PUSH2 0x84E JUMP JUMPDEST DUP4 SSTORE POP JUMPDEST PUSH1 0x1 PUSH1 0x2 DUP9 MUL ADD DUP9 SSTORE POP POP POP JUMPDEST POP POP POP POP POP POP JUMPDEST JUMP JUMPDEST PUSH1 0x0 DUP2 MLOAD SWAP1 POP SWAP2 SWAP1 POP JUMP JUMPDEST PUSH1 0x0 JUMPDEST DUP4 DUP2 LT ISZERO PUSH2 0x999 JUMPI DUP1 DUP3 ADD MLOAD DUP2 DUP5 ADD MSTORE PUSH1 0x20 DUP2 ADD SWAP1 POP PUSH2 0x97E JUMP JUMPDEST PUSH1 0x0 DUP5 DUP5 ADD MSTORE POP POP POP POP JUMP JUMPDEST PUSH1 0x0 PUSH2 0x9B0 DUP3 PUSH2 0x970 JUMP JUMPDEST PUSH2 0x9BA DUP2 DUP6 PUSH2 0x61D JUMP JUMPDEST SWAP4 POP PUSH2 0x9CA DUP2 DUP6 PUSH1 0x20 DUP7 ADD PUSH2 0x97B JUMP JUMPDEST DUP1 DUP5 ADD SWAP2 POP POP SWAP3 SWAP2 POP POP JUMP JUMPDEST PUSH1 0x0 PUSH2 0x9E2 DUP3 DUP5 PUSH2 0x9A5 JUMP JUMPDEST SWAP2 POP DUP2 SWAP1 POP SWAP3 SWAP2 POP POP JUMP INVALID LOG2 PUSH5 0x6970667358 0x22 SLT KECCAK256 0xD DUP3 SWAP10 0xE6 RETURNDATACOPY PUSH31 0xAE291D65F477FEC0AF018899505F99C790CE3070D046F1718AF164736F6C63 NUMBER STOP ADDMOD SLT STOP CALLER "
		},
		"gasEstimates": {
			"creation": {
				"codeDepositCost": "519000",
				"executionCost": "556",
				"totalCost": "519556"
			},
			"external": {
				"getBankAccounts(address,string)": "infinite",
				"setBalance()": "24930",
				"setBankAccounts(string)": "infinite",
				"setBankAccounts3(string,string,uint256)": "infinite"
			}
		},
		"methodIdentifiers": {
			"getBankAccounts(address,string)": "6fa1c8db",
			"setBalance()": "1a61746e",
			"setBankAccounts(string)": "feede7a2",
			"setBankAccounts3(string,string,uint256)": "5ee64057"
		}
	},
	"abi": [
		{
			"inputs": [
				{
					"internalType": "address",
					"name": "_addr",
					"type": "address"
				},
				{
					"internalType": "string",
					"name": "_name",
					"type": "string"
				}
			],
			"name": "getBankAccounts",
			"outputs": [
				{
					"internalType": "uint256",
					"name": "",
					"type": "uint256"
				}
			],
			"stateMutability": "view",
			"type": "function"
		},
		{
			"inputs": [],
			"name": "setBalance",
			"outputs": [],
			"stateMutability": "nonpayable",
			"type": "function"
		},
		{
			"inputs": [
				{
					"internalType": "string",
					"name": "_name",
					"type": "string"
				}
			],
			"name": "setBankAccounts",
			"outputs": [],
			"stateMutability": "nonpayable",
			"type": "function"
		},
		{
			"inputs": [
				{
					"internalType": "string",
					"name": "_city",
					"type": "string"
				},
				{
					"internalType": "string",
					"name": "_state",
					"type": "string"
				},
				{
					"internalType": "uint256",
					"name": "number",
					"type": "uint256"
				}
			],
			"name": "setBankAccounts3",
			"outputs": [],
			"stateMutability": "nonpayable",
			"type": "function"
		}
	]
}