{
	"data": {
		"bytecode": {
			"linkReferences": {},
			"object": "608060405234801561001057600080fd5b5061077f806100206000396000f3fe608060405234801561001057600080fd5b506004361061002b5760003560e01c8063b3de648b14610030575b600080fd5b61004a60048036038101906100459190610307565b610060565b60405161005791906103c4565b60405180910390f35b60606000806000610e10856100759190610444565b9250610e10856100859190610475565b9450603c856100949190610444565b9150603c856100a39190610475565b94508490506060600084146100dd576100bb84610153565b6040516020016100cb919061052e565b60405160208183030381529060405290505b6000831461011257806100ef84610153565b60405160200161010092919061059c565b60405160208183030381529060405290505b60008214610147578061012483610153565b604051602001610135929190610617565b60405160208183030381529060405290505b80945050505050919050565b60606000820361019a576040518060400160405280600181526020017f30000000000000000000000000000000000000000000000000000000000000008152509050610285565b60006101a58361028a565b905060008167ffffffffffffffff8111156101c3576101c2610646565b5b6040519080825280601f01601f1916602001820160405280156101f55781602001600182028036833780820191505090505b5090505b6000841461027f57600a8461020e9190610475565b603061021a9190610675565b60f81b8183610228906106a9565b9350838151811061023c5761023b6106d2565b5b60200101907effffffffffffffffffffffffffffffffffffffffffffffffffffffffffffff1916908160001a905350600a846102789190610444565b93506101f9565b80925050505b919050565b6000806000905060008390505b60008111156102c25781806102ab90610701565b925050600a816102bb9190610444565b9050610297565b8192505050919050565b600080fd5b6000819050919050565b6102e4816102d1565b81146102ef57600080fd5b50565b600081359050610301816102db565b92915050565b60006020828403121561031d5761031c6102cc565b5b600061032b848285016102f2565b91505092915050565b600081519050919050565b600082825260208201905092915050565b60005b8381101561036e578082015181840152602081019050610353565b60008484015250505050565b6000601f19601f8301169050919050565b600061039682610334565b6103a0818561033f565b93506103b0818560208601610350565b6103b98161037a565b840191505092915050565b600060208201905081810360008301526103de818461038b565b905092915050565b7f4e487b7100000000000000000000000000000000000000000000000000000000600052601260045260246000fd5b7f4e487b7100000000000000000000000000000000000000000000000000000000600052601160045260246000fd5b600061044f826102d1565b915061045a836102d1565b92508261046a576104696103e6565b5b828204905092915050565b6000610480826102d1565b915061048b836102d1565b92508261049b5761049a6103e6565b5b828206905092915050565b600081905092915050565b60006104bc82610334565b6104c681856104a6565b93506104d6818560208601610350565b80840191505092915050565b7f4820000000000000000000000000000000000000000000000000000000000000600082015250565b60006105186002836104a6565b9150610523826104e2565b600282019050919050565b600061053a82846104b1565b91506105458261050b565b915081905092915050565b7f4d20000000000000000000000000000000000000000000000000000000000000600082015250565b60006105866002836104a6565b915061059182610550565b600282019050919050565b60006105a882856104b1565b91506105b482846104b1565b91506105bf82610579565b91508190509392505050565b7f5300000000000000000000000000000000000000000000000000000000000000600082015250565b60006106016001836104a6565b915061060c826105cb565b600182019050919050565b600061062382856104b1565b915061062f82846104b1565b915061063a826105f4565b91508190509392505050565b7f4e487b7100000000000000000000000000000000000000000000000000000000600052604160045260246000fd5b6000610680826102d1565b915061068b836102d1565b92508282019050808211156106a3576106a2610415565b5b92915050565b60006106b4826102d1565b9150600082036106c7576106c6610415565b5b600182039050919050565b7f4e487b7100000000000000000000000000000000000000000000000000000000600052603260045260246000fd5b600061070c826102d1565b91507fffffffffffffffffffffffffffffffffffffffffffffffffffffffffffffffff820361073e5761073d610415565b5b60018201905091905056fea264697066735822122031a1a3c8ea3068f558cd9f164e95538c07e60311bf32b36002f593a1c93b67d764736f6c63430008120033",
			"opcodes": "PUSH1 0x80 PUSH1 0x40 MSTORE CALLVALUE DUP1 ISZERO PUSH2 0x10 JUMPI PUSH1 0x0 DUP1 REVERT JUMPDEST POP PUSH2 0x77F DUP1 PUSH2 0x20 PUSH1 0x0 CODECOPY PUSH1 0x0 RETURN INVALID PUSH1 0x80 PUSH1 0x40 MSTORE CALLVALUE DUP1 ISZERO PUSH2 0x10 JUMPI PUSH1 0x0 DUP1 REVERT JUMPDEST POP PUSH1 0x4 CALLDATASIZE LT PUSH2 0x2B JUMPI PUSH1 0x0 CALLDATALOAD PUSH1 0xE0 SHR DUP1 PUSH4 0xB3DE648B EQ PUSH2 0x30 JUMPI JUMPDEST PUSH1 0x0 DUP1 REVERT JUMPDEST PUSH2 0x4A PUSH1 0x4 DUP1 CALLDATASIZE SUB DUP2 ADD SWAP1 PUSH2 0x45 SWAP2 SWAP1 PUSH2 0x307 JUMP JUMPDEST PUSH2 0x60 JUMP JUMPDEST PUSH1 0x40 MLOAD PUSH2 0x57 SWAP2 SWAP1 PUSH2 0x3C4 JUMP JUMPDEST PUSH1 0x40 MLOAD DUP1 SWAP2 SUB SWAP1 RETURN JUMPDEST PUSH1 0x60 PUSH1 0x0 DUP1 PUSH1 0x0 PUSH2 0xE10 DUP6 PUSH2 0x75 SWAP2 SWAP1 PUSH2 0x444 JUMP JUMPDEST SWAP3 POP PUSH2 0xE10 DUP6 PUSH2 0x85 SWAP2 SWAP1 PUSH2 0x475 JUMP JUMPDEST SWAP5 POP PUSH1 0x3C DUP6 PUSH2 0x94 SWAP2 SWAP1 PUSH2 0x444 JUMP JUMPDEST SWAP2 POP PUSH1 0x3C DUP6 PUSH2 0xA3 SWAP2 SWAP1 PUSH2 0x475 JUMP JUMPDEST SWAP5 POP DUP5 SWAP1 POP PUSH1 0x60 PUSH1 0x0 DUP5 EQ PUSH2 0xDD JUMPI PUSH2 0xBB DUP5 PUSH2 0x153 JUMP JUMPDEST PUSH1 0x40 MLOAD PUSH1 0x20 ADD PUSH2 0xCB SWAP2 SWAP1 PUSH2 0x52E JUMP JUMPDEST PUSH1 0x40 MLOAD PUSH1 0x20 DUP2 DUP4 SUB SUB DUP2 MSTORE SWAP1 PUSH1 0x40 MSTORE SWAP1 POP JUMPDEST PUSH1 0x0 DUP4 EQ PUSH2 0x112 JUMPI DUP1 PUSH2 0xEF DUP5 PUSH2 0x153 JUMP JUMPDEST PUSH1 0x40 MLOAD PUSH1 0x20 ADD PUSH2 0x100 SWAP3 SWAP2 SWAP1 PUSH2 0x59C JUMP JUMPDEST PUSH1 0x40 MLOAD PUSH1 0x20 DUP2 DUP4 SUB SUB DUP2 MSTORE SWAP1 PUSH1 0x40 MSTORE SWAP1 POP JUMPDEST PUSH1 0x0 DUP3 EQ PUSH2 0x147 JUMPI DUP1 PUSH2 0x124 DUP4 PUSH2 0x153 JUMP JUMPDEST PUSH1 0x40 MLOAD PUSH1 0x20 ADD PUSH2 0x135 SWAP3 SWAP2 SWAP1 PUSH2 0x617 JUMP JUMPDEST PUSH1 0x40 MLOAD PUSH1 0x20 DUP2 DUP4 SUB SUB DUP2 MSTORE SWAP1 PUSH1 0x40 MSTORE SWAP1 POP JUMPDEST DUP1 SWAP5 POP POP POP POP POP SWAP2 SWAP1 POP JUMP JUMPDEST PUSH1 0x60 PUSH1 0x0 DUP3 SUB PUSH2 0x19A JUMPI PUSH1 0x40 MLOAD DUP1 PUSH1 0x40 ADD PUSH1 0x40 MSTORE DUP1 PUSH1 0x1 DUP2 MSTORE PUSH1 0x20 ADD PUSH32 0x3000000000000000000000000000000000000000000000000000000000000000 DUP2 MSTORE POP SWAP1 POP PUSH2 0x285 JUMP JUMPDEST PUSH1 0x0 PUSH2 0x1A5 DUP4 PUSH2 0x28A JUMP JUMPDEST SWAP1 POP PUSH1 0x0 DUP2 PUSH8 0xFFFFFFFFFFFFFFFF DUP2 GT ISZERO PUSH2 0x1C3 JUMPI PUSH2 0x1C2 PUSH2 0x646 JUMP JUMPDEST JUMPDEST PUSH1 0x40 MLOAD SWAP1 DUP1 DUP3 MSTORE DUP1 PUSH1 0x1F ADD PUSH1 0x1F NOT AND PUSH1 0x20 ADD DUP3 ADD PUSH1 0x40 MSTORE DUP1 ISZERO PUSH2 0x1F5 JUMPI DUP2 PUSH1 0x20 ADD PUSH1 0x1 DUP3 MUL DUP1 CALLDATASIZE DUP4 CALLDATACOPY DUP1 DUP3 ADD SWAP2 POP POP SWAP1 POP JUMPDEST POP SWAP1 POP JUMPDEST PUSH1 0x0 DUP5 EQ PUSH2 0x27F JUMPI PUSH1 0xA DUP5 PUSH2 0x20E SWAP2 SWAP1 PUSH2 0x475 JUMP JUMPDEST PUSH1 0x30 PUSH2 0x21A SWAP2 SWAP1 PUSH2 0x675 JUMP JUMPDEST PUSH1 0xF8 SHL DUP2 DUP4 PUSH2 0x228 SWAP1 PUSH2 0x6A9 JUMP JUMPDEST SWAP4 POP DUP4 DUP2 MLOAD DUP2 LT PUSH2 0x23C JUMPI PUSH2 0x23B PUSH2 0x6D2 JUMP JUMPDEST JUMPDEST PUSH1 0x20 ADD ADD SWAP1 PUSH31 0xFFFFFFFFFFFFFFFFFFFFFFFFFFFFFFFFFFFFFFFFFFFFFFFFFFFFFFFFFFFFFF NOT AND SWAP1 DUP2 PUSH1 0x0 BYTE SWAP1 MSTORE8 POP PUSH1 0xA DUP5 PUSH2 0x278 SWAP2 SWAP1 PUSH2 0x444 JUMP JUMPDEST SWAP4 POP PUSH2 0x1F9 JUMP JUMPDEST DUP1 SWAP3 POP POP POP JUMPDEST SWAP2 SWAP1 POP JUMP JUMPDEST PUSH1 0x0 DUP1 PUSH1 0x0 SWAP1 POP PUSH1 0x0 DUP4 SWAP1 POP JUMPDEST PUSH1 0x0 DUP2 GT ISZERO PUSH2 0x2C2 JUMPI DUP2 DUP1 PUSH2 0x2AB SWAP1 PUSH2 0x701 JUMP JUMPDEST SWAP3 POP POP PUSH1 0xA DUP2 PUSH2 0x2BB SWAP2 SWAP1 PUSH2 0x444 JUMP JUMPDEST SWAP1 POP PUSH2 0x297 JUMP JUMPDEST DUP2 SWAP3 POP POP POP SWAP2 SWAP1 POP JUMP JUMPDEST PUSH1 0x0 DUP1 REVERT JUMPDEST PUSH1 0x0 DUP2 SWAP1 POP SWAP2 SWAP1 POP JUMP JUMPDEST PUSH2 0x2E4 DUP2 PUSH2 0x2D1 JUMP JUMPDEST DUP2 EQ PUSH2 0x2EF JUMPI PUSH1 0x0 DUP1 REVERT JUMPDEST POP JUMP JUMPDEST PUSH1 0x0 DUP2 CALLDATALOAD SWAP1 POP PUSH2 0x301 DUP2 PUSH2 0x2DB JUMP JUMPDEST SWAP3 SWAP2 POP POP JUMP JUMPDEST PUSH1 0x0 PUSH1 0x20 DUP3 DUP5 SUB SLT ISZERO PUSH2 0x31D JUMPI PUSH2 0x31C PUSH2 0x2CC JUMP JUMPDEST JUMPDEST PUSH1 0x0 PUSH2 0x32B DUP5 DUP3 DUP6 ADD PUSH2 0x2F2 JUMP JUMPDEST SWAP2 POP POP SWAP3 SWAP2 POP POP JUMP JUMPDEST PUSH1 0x0 DUP2 MLOAD SWAP1 POP SWAP2 SWAP1 POP JUMP JUMPDEST PUSH1 0x0 DUP3 DUP3 MSTORE PUSH1 0x20 DUP3 ADD SWAP1 POP SWAP3 SWAP2 POP POP JUMP JUMPDEST PUSH1 0x0 JUMPDEST DUP4 DUP2 LT ISZERO PUSH2 0x36E JUMPI DUP1 DUP3 ADD MLOAD DUP2 DUP5 ADD MSTORE PUSH1 0x20 DUP2 ADD SWAP1 POP PUSH2 0x353 JUMP JUMPDEST PUSH1 0x0 DUP5 DUP5 ADD MSTORE POP POP POP POP JUMP JUMPDEST PUSH1 0x0 PUSH1 0x1F NOT PUSH1 0x1F DUP4 ADD AND SWAP1 POP SWAP2 SWAP1 POP JUMP JUMPDEST PUSH1 0x0 PUSH2 0x396 DUP3 PUSH2 0x334 JUMP JUMPDEST PUSH2 0x3A0 DUP2 DUP6 PUSH2 0x33F JUMP JUMPDEST SWAP4 POP PUSH2 0x3B0 DUP2 DUP6 PUSH1 0x20 DUP7 ADD PUSH2 0x350 JUMP JUMPDEST PUSH2 0x3B9 DUP2 PUSH2 0x37A JUMP JUMPDEST DUP5 ADD SWAP2 POP POP SWAP3 SWAP2 POP POP JUMP JUMPDEST PUSH1 0x0 PUSH1 0x20 DUP3 ADD SWAP1 POP DUP2 DUP2 SUB PUSH1 0x0 DUP4 ADD MSTORE PUSH2 0x3DE DUP2 DUP5 PUSH2 0x38B JUMP JUMPDEST SWAP1 POP SWAP3 SWAP2 POP POP JUMP JUMPDEST PUSH32 0x4E487B7100000000000000000000000000000000000000000000000000000000 PUSH1 0x0 MSTORE PUSH1 0x12 PUSH1 0x4 MSTORE PUSH1 0x24 PUSH1 0x0 REVERT JUMPDEST PUSH32 0x4E487B7100000000000000000000000000000000000000000000000000000000 PUSH1 0x0 MSTORE PUSH1 0x11 PUSH1 0x4 MSTORE PUSH1 0x24 PUSH1 0x0 REVERT JUMPDEST PUSH1 0x0 PUSH2 0x44F DUP3 PUSH2 0x2D1 JUMP JUMPDEST SWAP2 POP PUSH2 0x45A DUP4 PUSH2 0x2D1 JUMP JUMPDEST SWAP3 POP DUP3 PUSH2 0x46A JUMPI PUSH2 0x469 PUSH2 0x3E6 JUMP JUMPDEST JUMPDEST DUP3 DUP3 DIV SWAP1 POP SWAP3 SWAP2 POP POP JUMP JUMPDEST PUSH1 0x0 PUSH2 0x480 DUP3 PUSH2 0x2D1 JUMP JUMPDEST SWAP2 POP PUSH2 0x48B DUP4 PUSH2 0x2D1 JUMP JUMPDEST SWAP3 POP DUP3 PUSH2 0x49B JUMPI PUSH2 0x49A PUSH2 0x3E6 JUMP JUMPDEST JUMPDEST DUP3 DUP3 MOD SWAP1 POP SWAP3 SWAP2 POP POP JUMP JUMPDEST PUSH1 0x0 DUP2 SWAP1 POP SWAP3 SWAP2 POP POP JUMP JUMPDEST PUSH1 0x0 PUSH2 0x4BC DUP3 PUSH2 0x334 JUMP JUMPDEST PUSH2 0x4C6 DUP2 DUP6 PUSH2 0x4A6 JUMP JUMPDEST SWAP4 POP PUSH2 0x4D6 DUP2 DUP6 PUSH1 0x20 DUP7 ADD PUSH2 0x350 JUMP JUMPDEST DUP1 DUP5 ADD SWAP2 POP POP SWAP3 SWAP2 POP POP JUMP JUMPDEST PUSH32 0x4820000000000000000000000000000000000000000000000000000000000000 PUSH1 0x0 DUP3 ADD MSTORE POP JUMP JUMPDEST PUSH1 0x0 PUSH2 0x518 PUSH1 0x2 DUP4 PUSH2 0x4A6 JUMP JUMPDEST SWAP2 POP PUSH2 0x523 DUP3 PUSH2 0x4E2 JUMP JUMPDEST PUSH1 0x2 DUP3 ADD SWAP1 POP SWAP2 SWAP1 POP JUMP JUMPDEST PUSH1 0x0 PUSH2 0x53A DUP3 DUP5 PUSH2 0x4B1 JUMP JUMPDEST SWAP2 POP PUSH2 0x545 DUP3 PUSH2 0x50B JUMP JUMPDEST SWAP2 POP DUP2 SWAP1 POP SWAP3 SWAP2 POP POP JUMP JUMPDEST PUSH32 0x4D20000000000000000000000000000000000000000000000000000000000000 PUSH1 0x0 DUP3 ADD MSTORE POP JUMP JUMPDEST PUSH1 0x0 PUSH2 0x586 PUSH1 0x2 DUP4 PUSH2 0x4A6 JUMP JUMPDEST SWAP2 POP PUSH2 0x591 DUP3 PUSH2 0x550 JUMP JUMPDEST PUSH1 0x2 DUP3 ADD SWAP1 POP SWAP2 SWAP1 POP JUMP JUMPDEST PUSH1 0x0 PUSH2 0x5A8 DUP3 DUP6 PUSH2 0x4B1 JUMP JUMPDEST SWAP2 POP PUSH2 0x5B4 DUP3 DUP5 PUSH2 0x4B1 JUMP JUMPDEST SWAP2 POP PUSH2 0x5BF DUP3 PUSH2 0x579 JUMP JUMPDEST SWAP2 POP DUP2 SWAP1 POP SWAP4 SWAP3 POP POP POP JUMP JUMPDEST PUSH32 0x5300000000000000000000000000000000000000000000000000000000000000 PUSH1 0x0 DUP3 ADD MSTORE POP JUMP JUMPDEST PUSH1 0x0 PUSH2 0x601 PUSH1 0x1 DUP4 PUSH2 0x4A6 JUMP JUMPDEST SWAP2 POP PUSH2 0x60C DUP3 PUSH2 0x5CB JUMP JUMPDEST PUSH1 0x1 DUP3 ADD SWAP1 POP SWAP2 SWAP1 POP JUMP JUMPDEST PUSH1 0x0 PUSH2 0x623 DUP3 DUP6 PUSH2 0x4B1 JUMP JUMPDEST SWAP2 POP PUSH2 0x62F DUP3 DUP5 PUSH2 0x4B1 JUMP JUMPDEST SWAP2 POP PUSH2 0x63A DUP3 PUSH2 0x5F4 JUMP JUMPDEST SWAP2 POP DUP2 SWAP1 POP SWAP4 SWAP3 POP POP POP JUMP JUMPDEST PUSH32 0x4E487B7100000000000000000000000000000000000000000000000000000000 PUSH1 0x0 MSTORE PUSH1 0x41 PUSH1 0x4 MSTORE PUSH1 0x24 PUSH1 0x0 REVERT JUMPDEST PUSH1 0x0 PUSH2 0x680 DUP3 PUSH2 0x2D1 JUMP JUMPDEST SWAP2 POP PUSH2 0x68B DUP4 PUSH2 0x2D1 JUMP JUMPDEST SWAP3 POP DUP3 DUP3 ADD SWAP1 POP DUP1 DUP3 GT ISZERO PUSH2 0x6A3 JUMPI PUSH2 0x6A2 PUSH2 0x415 JUMP JUMPDEST JUMPDEST SWAP3 SWAP2 POP POP JUMP JUMPDEST PUSH1 0x0 PUSH2 0x6B4 DUP3 PUSH2 0x2D1 JUMP JUMPDEST SWAP2 POP PUSH1 0x0 DUP3 SUB PUSH2 0x6C7 JUMPI PUSH2 0x6C6 PUSH2 0x415 JUMP JUMPDEST JUMPDEST PUSH1 0x1 DUP3 SUB SWAP1 POP SWAP2 SWAP1 POP JUMP JUMPDEST PUSH32 0x4E487B7100000000000000000000000000000000000000000000000000000000 PUSH1 0x0 MSTORE PUSH1 0x32 PUSH1 0x4 MSTORE PUSH1 0x24 PUSH1 0x0 REVERT JUMPDEST PUSH1 0x0 PUSH2 0x70C DUP3 PUSH2 0x2D1 JUMP JUMPDEST SWAP2 POP PUSH32 0xFFFFFFFFFFFFFFFFFFFFFFFFFFFFFFFFFFFFFFFFFFFFFFFFFFFFFFFFFFFFFFFF DUP3 SUB PUSH2 0x73E JUMPI PUSH2 0x73D PUSH2 0x415 JUMP JUMPDEST JUMPDEST PUSH1 0x1 DUP3 ADD SWAP1 POP SWAP2 SWAP1 POP JUMP INVALID LOG2 PUSH5 0x6970667358 0x22 SLT KECCAK256 BALANCE LOG1 LOG3 0xC8 0xEA ADDRESS PUSH9 0xF558CD9F164E95538C SMOD 0xE6 SUB GT 0xBF ORIGIN 0xB3 PUSH1 0x2 CREATE2 SWAP4 LOG1 0xC9 EXTCODESIZE PUSH8 0xD764736F6C634300 ADDMOD SLT STOP CALLER "
		},
		"gasEstimates": {
			"creation": {
				"codeDepositCost": "383800",
				"executionCost": "418",
				"totalCost": "384218"
			},
			"external": {
				"f(uint256)": "infinite"
			},
			"internal": {
				"getnumlength(uint256)": "infinite",
				"utos(uint256)": "infinite"
			}
		},
		"methodIdentifiers": {
			"f(uint256)": "b3de648b"
		}
	},
	"abi": [
		{
			"inputs": [
				{
					"internalType": "uint256",
					"name": "_input",
					"type": "uint256"
				}
			],
			"name": "f",
			"outputs": [
				{
					"internalType": "string",
					"name": "",
					"type": "string"
				}
			],
			"stateMutability": "pure",
			"type": "function"
		}
	]
}