{
	"data": {
		"bytecode": {
			"linkReferences": {},
			"object": "608060405234801561001057600080fd5b50610b98806100206000396000f3fe608060405234801561001057600080fd5b50600436106100885760003560e01c8063ac8057591161005b578063ac80575914610101578063b125ecc21461011f578063d9e2ba8c1461014f578063f3bf5fa11461017f57610088565b806341b5039f1461008d5780639620b05d146100bd578063a4468bf3146100db578063a6d52fb4146100e5575b600080fd5b6100a760048036038101906100a291906103b8565b61019b565b6040516100b491906103f4565b60405180910390f35b6100c56101b1565b6040516100d2919061049f565b60405180910390f35b6100e3610243565b005b6100ff60048036038101906100fa91906105f6565b61028a565b005b61010961029d565b604051610116919061049f565b60405180910390f35b6101396004803603810190610134919061063f565b61032f565b60405161014691906103f4565b60405180910390f35b610169600480360381019061016491906103b8565b610345565b60405161017691906103f4565b60405180910390f35b610199600480360381019061019491906105f6565b61035b565b005b60006002826101aa91906107ee565b9050919050565b6060600180546101c090610868565b80601f01602080910402602001604051908101604052809291908181526020018280546101ec90610868565b80156102395780601f1061020e57610100808354040283529160200191610239565b820191906000526020600020905b81548152906001019060200180831161021c57829003601f168201915b5050505050905090565b6040518060400160405280600181526020017f3500000000000000000000000000000000000000000000000000000000000000815250600090816102879190610a45565b50565b80600190816102999190610a45565b5050565b6060600080546102ac90610868565b80601f01602080910402602001604051908101604052809291908181526020018280546102d890610868565b80156103255780601f106102fa57610100808354040283529160200191610325565b820191906000526020600020905b81548152906001019060200180831161030857829003601f168201915b5050505050905090565b6000818361033d9190610b17565b905092915050565b600060038261035491906107ee565b9050919050565b806000908161036a9190610a45565b5050565b6000604051905090565b600080fd5b600080fd5b6000819050919050565b61039581610382565b81146103a057600080fd5b50565b6000813590506103b28161038c565b92915050565b6000602082840312156103ce576103cd610378565b5b60006103dc848285016103a3565b91505092915050565b6103ee81610382565b82525050565b600060208201905061040960008301846103e5565b92915050565b600081519050919050565b600082825260208201905092915050565b60005b8381101561044957808201518184015260208101905061042e565b60008484015250505050565b6000601f19601f8301169050919050565b60006104718261040f565b61047b818561041a565b935061048b81856020860161042b565b61049481610455565b840191505092915050565b600060208201905081810360008301526104b98184610466565b905092915050565b600080fd5b600080fd5b7f4e487b7100000000000000000000000000000000000000000000000000000000600052604160045260246000fd5b61050382610455565b810181811067ffffffffffffffff82111715610522576105216104cb565b5b80604052505050565b600061053561036e565b905061054182826104fa565b919050565b600067ffffffffffffffff821115610561576105606104cb565b5b61056a82610455565b9050602081019050919050565b82818337600083830152505050565b600061059961059484610546565b61052b565b9050828152602081018484840111156105b5576105b46104c6565b5b6105c0848285610577565b509392505050565b600082601f8301126105dd576105dc6104c1565b5b81356105ed848260208601610586565b91505092915050565b60006020828403121561060c5761060b610378565b5b600082013567ffffffffffffffff81111561062a5761062961037d565b5b610636848285016105c8565b91505092915050565b6000806040838503121561065657610655610378565b5b6000610664858286016103a3565b9250506020610675858286016103a3565b9150509250929050565b7f4e487b7100000000000000000000000000000000000000000000000000000000600052601160045260246000fd5b60008160011c9050919050565b6000808291508390505b6001851115610705578086048111156106e1576106e061067f565b5b60018516156106f05780820291505b80810290506106fe856106ae565b94506106c5565b94509492505050565b60008261071e57600190506107da565b8161072c57600090506107da565b8160018114610742576002811461074c5761077b565b60019150506107da565b60ff84111561075e5761075d61067f565b5b8360020a9150848211156107755761077461067f565b5b506107da565b5060208310610133831016604e8410600b84101617156107b05782820a9050838111156107ab576107aa61067f565b5b6107da565b6107bd84848460016106bb565b925090508184048111156107d4576107d361067f565b5b81810290505b9392505050565b600060ff82169050919050565b60006107f982610382565b9150610804836107e1565b92506108317fffffffffffffffffffffffffffffffffffffffffffffffffffffffffffffffff848461070e565b905092915050565b7f4e487b7100000000000000000000000000000000000000000000000000000000600052602260045260246000fd5b6000600282049050600182168061088057607f821691505b60208210810361089357610892610839565b5b50919050565b60008190508160005260206000209050919050565b60006020601f8301049050919050565b600082821b905092915050565b6000600883026108fb7fffffffffffffffffffffffffffffffffffffffffffffffffffffffffffffffff826108be565b61090586836108be565b95508019841693508086168417925050509392505050565b6000819050919050565b600061094261093d61093884610382565b61091d565b610382565b9050919050565b6000819050919050565b61095c83610927565b61097061096882610949565b8484546108cb565b825550505050565b600090565b610985610978565b610990818484610953565b505050565b5b818110156109b4576109a960008261097d565b600181019050610996565b5050565b601f8211156109f9576109ca81610899565b6109d3846108ae565b810160208510156109e2578190505b6109f66109ee856108ae565b830182610995565b50505b505050565b600082821c905092915050565b6000610a1c600019846008026109fe565b1980831691505092915050565b6000610a358383610a0b565b9150826002028217905092915050565b610a4e8261040f565b67ffffffffffffffff811115610a6757610a666104cb565b5b610a718254610868565b610a7c8282856109b8565b600060209050601f831160018114610aaf5760008415610a9d578287015190505b610aa78582610a29565b865550610b0f565b601f198416610abd86610899565b60005b82811015610ae557848901518255600182019150602085019450602081019050610ac0565b86831015610b025784890151610afe601f891682610a0b565b8355505b6001600288020188555050505b505050505050565b6000610b2282610382565b9150610b2d83610382565b9250610b5a7fffffffffffffffffffffffffffffffffffffffffffffffffffffffffffffffff848461070e565b90509291505056fea2646970667358221220fc243f7ea5cf571fce666ab72b0790f778635cb47502faf551fc65627637b35864736f6c63430008120033",
			"opcodes": "PUSH1 0x80 PUSH1 0x40 MSTORE CALLVALUE DUP1 ISZERO PUSH2 0x10 JUMPI PUSH1 0x0 DUP1 REVERT JUMPDEST POP PUSH2 0xB98 DUP1 PUSH2 0x20 PUSH1 0x0 CODECOPY PUSH1 0x0 RETURN INVALID PUSH1 0x80 PUSH1 0x40 MSTORE CALLVALUE DUP1 ISZERO PUSH2 0x10 JUMPI PUSH1 0x0 DUP1 REVERT JUMPDEST POP PUSH1 0x4 CALLDATASIZE LT PUSH2 0x88 JUMPI PUSH1 0x0 CALLDATALOAD PUSH1 0xE0 SHR DUP1 PUSH4 0xAC805759 GT PUSH2 0x5B JUMPI DUP1 PUSH4 0xAC805759 EQ PUSH2 0x101 JUMPI DUP1 PUSH4 0xB125ECC2 EQ PUSH2 0x11F JUMPI DUP1 PUSH4 0xD9E2BA8C EQ PUSH2 0x14F JUMPI DUP1 PUSH4 0xF3BF5FA1 EQ PUSH2 0x17F JUMPI PUSH2 0x88 JUMP JUMPDEST DUP1 PUSH4 0x41B5039F EQ PUSH2 0x8D JUMPI DUP1 PUSH4 0x9620B05D EQ PUSH2 0xBD JUMPI DUP1 PUSH4 0xA4468BF3 EQ PUSH2 0xDB JUMPI DUP1 PUSH4 0xA6D52FB4 EQ PUSH2 0xE5 JUMPI JUMPDEST PUSH1 0x0 DUP1 REVERT JUMPDEST PUSH2 0xA7 PUSH1 0x4 DUP1 CALLDATASIZE SUB DUP2 ADD SWAP1 PUSH2 0xA2 SWAP2 SWAP1 PUSH2 0x3B8 JUMP JUMPDEST PUSH2 0x19B JUMP JUMPDEST PUSH1 0x40 MLOAD PUSH2 0xB4 SWAP2 SWAP1 PUSH2 0x3F4 JUMP JUMPDEST PUSH1 0x40 MLOAD DUP1 SWAP2 SUB SWAP1 RETURN JUMPDEST PUSH2 0xC5 PUSH2 0x1B1 JUMP JUMPDEST PUSH1 0x40 MLOAD PUSH2 0xD2 SWAP2 SWAP1 PUSH2 0x49F JUMP JUMPDEST PUSH1 0x40 MLOAD DUP1 SWAP2 SUB SWAP1 RETURN JUMPDEST PUSH2 0xE3 PUSH2 0x243 JUMP JUMPDEST STOP JUMPDEST PUSH2 0xFF PUSH1 0x4 DUP1 CALLDATASIZE SUB DUP2 ADD SWAP1 PUSH2 0xFA SWAP2 SWAP1 PUSH2 0x5F6 JUMP JUMPDEST PUSH2 0x28A JUMP JUMPDEST STOP JUMPDEST PUSH2 0x109 PUSH2 0x29D JUMP JUMPDEST PUSH1 0x40 MLOAD PUSH2 0x116 SWAP2 SWAP1 PUSH2 0x49F JUMP JUMPDEST PUSH1 0x40 MLOAD DUP1 SWAP2 SUB SWAP1 RETURN JUMPDEST PUSH2 0x139 PUSH1 0x4 DUP1 CALLDATASIZE SUB DUP2 ADD SWAP1 PUSH2 0x134 SWAP2 SWAP1 PUSH2 0x63F JUMP JUMPDEST PUSH2 0x32F JUMP JUMPDEST PUSH1 0x40 MLOAD PUSH2 0x146 SWAP2 SWAP1 PUSH2 0x3F4 JUMP JUMPDEST PUSH1 0x40 MLOAD DUP1 SWAP2 SUB SWAP1 RETURN JUMPDEST PUSH2 0x169 PUSH1 0x4 DUP1 CALLDATASIZE SUB DUP2 ADD SWAP1 PUSH2 0x164 SWAP2 SWAP1 PUSH2 0x3B8 JUMP JUMPDEST PUSH2 0x345 JUMP JUMPDEST PUSH1 0x40 MLOAD PUSH2 0x176 SWAP2 SWAP1 PUSH2 0x3F4 JUMP JUMPDEST PUSH1 0x40 MLOAD DUP1 SWAP2 SUB SWAP1 RETURN JUMPDEST PUSH2 0x199 PUSH1 0x4 DUP1 CALLDATASIZE SUB DUP2 ADD SWAP1 PUSH2 0x194 SWAP2 SWAP1 PUSH2 0x5F6 JUMP JUMPDEST PUSH2 0x35B JUMP JUMPDEST STOP JUMPDEST PUSH1 0x0 PUSH1 0x2 DUP3 PUSH2 0x1AA SWAP2 SWAP1 PUSH2 0x7EE JUMP JUMPDEST SWAP1 POP SWAP2 SWAP1 POP JUMP JUMPDEST PUSH1 0x60 PUSH1 0x1 DUP1 SLOAD PUSH2 0x1C0 SWAP1 PUSH2 0x868 JUMP JUMPDEST DUP1 PUSH1 0x1F ADD PUSH1 0x20 DUP1 SWAP2 DIV MUL PUSH1 0x20 ADD PUSH1 0x40 MLOAD SWAP1 DUP2 ADD PUSH1 0x40 MSTORE DUP1 SWAP3 SWAP2 SWAP1 DUP2 DUP2 MSTORE PUSH1 0x20 ADD DUP3 DUP1 SLOAD PUSH2 0x1EC SWAP1 PUSH2 0x868 JUMP JUMPDEST DUP1 ISZERO PUSH2 0x239 JUMPI DUP1 PUSH1 0x1F LT PUSH2 0x20E JUMPI PUSH2 0x100 DUP1 DUP4 SLOAD DIV MUL DUP4 MSTORE SWAP2 PUSH1 0x20 ADD SWAP2 PUSH2 0x239 JUMP JUMPDEST DUP3 ADD SWAP2 SWAP1 PUSH1 0x0 MSTORE PUSH1 0x20 PUSH1 0x0 KECCAK256 SWAP1 JUMPDEST DUP2 SLOAD DUP2 MSTORE SWAP1 PUSH1 0x1 ADD SWAP1 PUSH1 0x20 ADD DUP1 DUP4 GT PUSH2 0x21C JUMPI DUP3 SWAP1 SUB PUSH1 0x1F AND DUP3 ADD SWAP2 JUMPDEST POP POP POP POP POP SWAP1 POP SWAP1 JUMP JUMPDEST PUSH1 0x40 MLOAD DUP1 PUSH1 0x40 ADD PUSH1 0x40 MSTORE DUP1 PUSH1 0x1 DUP2 MSTORE PUSH1 0x20 ADD PUSH32 0x3500000000000000000000000000000000000000000000000000000000000000 DUP2 MSTORE POP PUSH1 0x0 SWAP1 DUP2 PUSH2 0x287 SWAP2 SWAP1 PUSH2 0xA45 JUMP JUMPDEST POP JUMP JUMPDEST DUP1 PUSH1 0x1 SWAP1 DUP2 PUSH2 0x299 SWAP2 SWAP1 PUSH2 0xA45 JUMP JUMPDEST POP POP JUMP JUMPDEST PUSH1 0x60 PUSH1 0x0 DUP1 SLOAD PUSH2 0x2AC SWAP1 PUSH2 0x868 JUMP JUMPDEST DUP1 PUSH1 0x1F ADD PUSH1 0x20 DUP1 SWAP2 DIV MUL PUSH1 0x20 ADD PUSH1 0x40 MLOAD SWAP1 DUP2 ADD PUSH1 0x40 MSTORE DUP1 SWAP3 SWAP2 SWAP1 DUP2 DUP2 MSTORE PUSH1 0x20 ADD DUP3 DUP1 SLOAD PUSH2 0x2D8 SWAP1 PUSH2 0x868 JUMP JUMPDEST DUP1 ISZERO PUSH2 0x325 JUMPI DUP1 PUSH1 0x1F LT PUSH2 0x2FA JUMPI PUSH2 0x100 DUP1 DUP4 SLOAD DIV MUL DUP4 MSTORE SWAP2 PUSH1 0x20 ADD SWAP2 PUSH2 0x325 JUMP JUMPDEST DUP3 ADD SWAP2 SWAP1 PUSH1 0x0 MSTORE PUSH1 0x20 PUSH1 0x0 KECCAK256 SWAP1 JUMPDEST DUP2 SLOAD DUP2 MSTORE SWAP1 PUSH1 0x1 ADD SWAP1 PUSH1 0x20 ADD DUP1 DUP4 GT PUSH2 0x308 JUMPI DUP3 SWAP1 SUB PUSH1 0x1F AND DUP3 ADD SWAP2 JUMPDEST POP POP POP POP POP SWAP1 POP SWAP1 JUMP JUMPDEST PUSH1 0x0 DUP2 DUP4 PUSH2 0x33D SWAP2 SWAP1 PUSH2 0xB17 JUMP JUMPDEST SWAP1 POP SWAP3 SWAP2 POP POP JUMP JUMPDEST PUSH1 0x0 PUSH1 0x3 DUP3 PUSH2 0x354 SWAP2 SWAP1 PUSH2 0x7EE JUMP JUMPDEST SWAP1 POP SWAP2 SWAP1 POP JUMP JUMPDEST DUP1 PUSH1 0x0 SWAP1 DUP2 PUSH2 0x36A SWAP2 SWAP1 PUSH2 0xA45 JUMP JUMPDEST POP POP JUMP JUMPDEST PUSH1 0x0 PUSH1 0x40 MLOAD SWAP1 POP SWAP1 JUMP JUMPDEST PUSH1 0x0 DUP1 REVERT JUMPDEST PUSH1 0x0 DUP1 REVERT JUMPDEST PUSH1 0x0 DUP2 SWAP1 POP SWAP2 SWAP1 POP JUMP JUMPDEST PUSH2 0x395 DUP2 PUSH2 0x382 JUMP JUMPDEST DUP2 EQ PUSH2 0x3A0 JUMPI PUSH1 0x0 DUP1 REVERT JUMPDEST POP JUMP JUMPDEST PUSH1 0x0 DUP2 CALLDATALOAD SWAP1 POP PUSH2 0x3B2 DUP2 PUSH2 0x38C JUMP JUMPDEST SWAP3 SWAP2 POP POP JUMP JUMPDEST PUSH1 0x0 PUSH1 0x20 DUP3 DUP5 SUB SLT ISZERO PUSH2 0x3CE JUMPI PUSH2 0x3CD PUSH2 0x378 JUMP JUMPDEST JUMPDEST PUSH1 0x0 PUSH2 0x3DC DUP5 DUP3 DUP6 ADD PUSH2 0x3A3 JUMP JUMPDEST SWAP2 POP POP SWAP3 SWAP2 POP POP JUMP JUMPDEST PUSH2 0x3EE DUP2 PUSH2 0x382 JUMP JUMPDEST DUP3 MSTORE POP POP JUMP JUMPDEST PUSH1 0x0 PUSH1 0x20 DUP3 ADD SWAP1 POP PUSH2 0x409 PUSH1 0x0 DUP4 ADD DUP5 PUSH2 0x3E5 JUMP JUMPDEST SWAP3 SWAP2 POP POP JUMP JUMPDEST PUSH1 0x0 DUP2 MLOAD SWAP1 POP SWAP2 SWAP1 POP JUMP JUMPDEST PUSH1 0x0 DUP3 DUP3 MSTORE PUSH1 0x20 DUP3 ADD SWAP1 POP SWAP3 SWAP2 POP POP JUMP JUMPDEST PUSH1 0x0 JUMPDEST DUP4 DUP2 LT ISZERO PUSH2 0x449 JUMPI DUP1 DUP3 ADD MLOAD DUP2 DUP5 ADD MSTORE PUSH1 0x20 DUP2 ADD SWAP1 POP PUSH2 0x42E JUMP JUMPDEST PUSH1 0x0 DUP5 DUP5 ADD MSTORE POP POP POP POP JUMP JUMPDEST PUSH1 0x0 PUSH1 0x1F NOT PUSH1 0x1F DUP4 ADD AND SWAP1 POP SWAP2 SWAP1 POP JUMP JUMPDEST PUSH1 0x0 PUSH2 0x471 DUP3 PUSH2 0x40F JUMP JUMPDEST PUSH2 0x47B DUP2 DUP6 PUSH2 0x41A JUMP JUMPDEST SWAP4 POP PUSH2 0x48B DUP2 DUP6 PUSH1 0x20 DUP7 ADD PUSH2 0x42B JUMP JUMPDEST PUSH2 0x494 DUP2 PUSH2 0x455 JUMP JUMPDEST DUP5 ADD SWAP2 POP POP SWAP3 SWAP2 POP POP JUMP JUMPDEST PUSH1 0x0 PUSH1 0x20 DUP3 ADD SWAP1 POP DUP2 DUP2 SUB PUSH1 0x0 DUP4 ADD MSTORE PUSH2 0x4B9 DUP2 DUP5 PUSH2 0x466 JUMP JUMPDEST SWAP1 POP SWAP3 SWAP2 POP POP JUMP JUMPDEST PUSH1 0x0 DUP1 REVERT JUMPDEST PUSH1 0x0 DUP1 REVERT JUMPDEST PUSH32 0x4E487B7100000000000000000000000000000000000000000000000000000000 PUSH1 0x0 MSTORE PUSH1 0x41 PUSH1 0x4 MSTORE PUSH1 0x24 PUSH1 0x0 REVERT JUMPDEST PUSH2 0x503 DUP3 PUSH2 0x455 JUMP JUMPDEST DUP2 ADD DUP2 DUP2 LT PUSH8 0xFFFFFFFFFFFFFFFF DUP3 GT OR ISZERO PUSH2 0x522 JUMPI PUSH2 0x521 PUSH2 0x4CB JUMP JUMPDEST JUMPDEST DUP1 PUSH1 0x40 MSTORE POP POP POP JUMP JUMPDEST PUSH1 0x0 PUSH2 0x535 PUSH2 0x36E JUMP JUMPDEST SWAP1 POP PUSH2 0x541 DUP3 DUP3 PUSH2 0x4FA JUMP JUMPDEST SWAP2 SWAP1 POP JUMP JUMPDEST PUSH1 0x0 PUSH8 0xFFFFFFFFFFFFFFFF DUP3 GT ISZERO PUSH2 0x561 JUMPI PUSH2 0x560 PUSH2 0x4CB JUMP JUMPDEST JUMPDEST PUSH2 0x56A DUP3 PUSH2 0x455 JUMP JUMPDEST SWAP1 POP PUSH1 0x20 DUP2 ADD SWAP1 POP SWAP2 SWAP1 POP JUMP JUMPDEST DUP3 DUP2 DUP4 CALLDATACOPY PUSH1 0x0 DUP4 DUP4 ADD MSTORE POP POP POP JUMP JUMPDEST PUSH1 0x0 PUSH2 0x599 PUSH2 0x594 DUP5 PUSH2 0x546 JUMP JUMPDEST PUSH2 0x52B JUMP JUMPDEST SWAP1 POP DUP3 DUP2 MSTORE PUSH1 0x20 DUP2 ADD DUP5 DUP5 DUP5 ADD GT ISZERO PUSH2 0x5B5 JUMPI PUSH2 0x5B4 PUSH2 0x4C6 JUMP JUMPDEST JUMPDEST PUSH2 0x5C0 DUP5 DUP3 DUP6 PUSH2 0x577 JUMP JUMPDEST POP SWAP4 SWAP3 POP POP POP JUMP JUMPDEST PUSH1 0x0 DUP3 PUSH1 0x1F DUP4 ADD SLT PUSH2 0x5DD JUMPI PUSH2 0x5DC PUSH2 0x4C1 JUMP JUMPDEST JUMPDEST DUP2 CALLDATALOAD PUSH2 0x5ED DUP5 DUP3 PUSH1 0x20 DUP7 ADD PUSH2 0x586 JUMP JUMPDEST SWAP2 POP POP SWAP3 SWAP2 POP POP JUMP JUMPDEST PUSH1 0x0 PUSH1 0x20 DUP3 DUP5 SUB SLT ISZERO PUSH2 0x60C JUMPI PUSH2 0x60B PUSH2 0x378 JUMP JUMPDEST JUMPDEST PUSH1 0x0 DUP3 ADD CALLDATALOAD PUSH8 0xFFFFFFFFFFFFFFFF DUP2 GT ISZERO PUSH2 0x62A JUMPI PUSH2 0x629 PUSH2 0x37D JUMP JUMPDEST JUMPDEST PUSH2 0x636 DUP5 DUP3 DUP6 ADD PUSH2 0x5C8 JUMP JUMPDEST SWAP2 POP POP SWAP3 SWAP2 POP POP JUMP JUMPDEST PUSH1 0x0 DUP1 PUSH1 0x40 DUP4 DUP6 SUB SLT ISZERO PUSH2 0x656 JUMPI PUSH2 0x655 PUSH2 0x378 JUMP JUMPDEST JUMPDEST PUSH1 0x0 PUSH2 0x664 DUP6 DUP3 DUP7 ADD PUSH2 0x3A3 JUMP JUMPDEST SWAP3 POP POP PUSH1 0x20 PUSH2 0x675 DUP6 DUP3 DUP7 ADD PUSH2 0x3A3 JUMP JUMPDEST SWAP2 POP POP SWAP3 POP SWAP3 SWAP1 POP JUMP JUMPDEST PUSH32 0x4E487B7100000000000000000000000000000000000000000000000000000000 PUSH1 0x0 MSTORE PUSH1 0x11 PUSH1 0x4 MSTORE PUSH1 0x24 PUSH1 0x0 REVERT JUMPDEST PUSH1 0x0 DUP2 PUSH1 0x1 SHR SWAP1 POP SWAP2 SWAP1 POP JUMP JUMPDEST PUSH1 0x0 DUP1 DUP3 SWAP2 POP DUP4 SWAP1 POP JUMPDEST PUSH1 0x1 DUP6 GT ISZERO PUSH2 0x705 JUMPI DUP1 DUP7 DIV DUP2 GT ISZERO PUSH2 0x6E1 JUMPI PUSH2 0x6E0 PUSH2 0x67F JUMP JUMPDEST JUMPDEST PUSH1 0x1 DUP6 AND ISZERO PUSH2 0x6F0 JUMPI DUP1 DUP3 MUL SWAP2 POP JUMPDEST DUP1 DUP2 MUL SWAP1 POP PUSH2 0x6FE DUP6 PUSH2 0x6AE JUMP JUMPDEST SWAP5 POP PUSH2 0x6C5 JUMP JUMPDEST SWAP5 POP SWAP5 SWAP3 POP POP POP JUMP JUMPDEST PUSH1 0x0 DUP3 PUSH2 0x71E JUMPI PUSH1 0x1 SWAP1 POP PUSH2 0x7DA JUMP JUMPDEST DUP2 PUSH2 0x72C JUMPI PUSH1 0x0 SWAP1 POP PUSH2 0x7DA JUMP JUMPDEST DUP2 PUSH1 0x1 DUP2 EQ PUSH2 0x742 JUMPI PUSH1 0x2 DUP2 EQ PUSH2 0x74C JUMPI PUSH2 0x77B JUMP JUMPDEST PUSH1 0x1 SWAP2 POP POP PUSH2 0x7DA JUMP JUMPDEST PUSH1 0xFF DUP5 GT ISZERO PUSH2 0x75E JUMPI PUSH2 0x75D PUSH2 0x67F JUMP JUMPDEST JUMPDEST DUP4 PUSH1 0x2 EXP SWAP2 POP DUP5 DUP3 GT ISZERO PUSH2 0x775 JUMPI PUSH2 0x774 PUSH2 0x67F JUMP JUMPDEST JUMPDEST POP PUSH2 0x7DA JUMP JUMPDEST POP PUSH1 0x20 DUP4 LT PUSH2 0x133 DUP4 LT AND PUSH1 0x4E DUP5 LT PUSH1 0xB DUP5 LT AND OR ISZERO PUSH2 0x7B0 JUMPI DUP3 DUP3 EXP SWAP1 POP DUP4 DUP2 GT ISZERO PUSH2 0x7AB JUMPI PUSH2 0x7AA PUSH2 0x67F JUMP JUMPDEST JUMPDEST PUSH2 0x7DA JUMP JUMPDEST PUSH2 0x7BD DUP5 DUP5 DUP5 PUSH1 0x1 PUSH2 0x6BB JUMP JUMPDEST SWAP3 POP SWAP1 POP DUP2 DUP5 DIV DUP2 GT ISZERO PUSH2 0x7D4 JUMPI PUSH2 0x7D3 PUSH2 0x67F JUMP JUMPDEST JUMPDEST DUP2 DUP2 MUL SWAP1 POP JUMPDEST SWAP4 SWAP3 POP POP POP JUMP JUMPDEST PUSH1 0x0 PUSH1 0xFF DUP3 AND SWAP1 POP SWAP2 SWAP1 POP JUMP JUMPDEST PUSH1 0x0 PUSH2 0x7F9 DUP3 PUSH2 0x382 JUMP JUMPDEST SWAP2 POP PUSH2 0x804 DUP4 PUSH2 0x7E1 JUMP JUMPDEST SWAP3 POP PUSH2 0x831 PUSH32 0xFFFFFFFFFFFFFFFFFFFFFFFFFFFFFFFFFFFFFFFFFFFFFFFFFFFFFFFFFFFFFFFF DUP5 DUP5 PUSH2 0x70E JUMP JUMPDEST SWAP1 POP SWAP3 SWAP2 POP POP JUMP JUMPDEST PUSH32 0x4E487B7100000000000000000000000000000000000000000000000000000000 PUSH1 0x0 MSTORE PUSH1 0x22 PUSH1 0x4 MSTORE PUSH1 0x24 PUSH1 0x0 REVERT JUMPDEST PUSH1 0x0 PUSH1 0x2 DUP3 DIV SWAP1 POP PUSH1 0x1 DUP3 AND DUP1 PUSH2 0x880 JUMPI PUSH1 0x7F DUP3 AND SWAP2 POP JUMPDEST PUSH1 0x20 DUP3 LT DUP2 SUB PUSH2 0x893 JUMPI PUSH2 0x892 PUSH2 0x839 JUMP JUMPDEST JUMPDEST POP SWAP2 SWAP1 POP JUMP JUMPDEST PUSH1 0x0 DUP2 SWAP1 POP DUP2 PUSH1 0x0 MSTORE PUSH1 0x20 PUSH1 0x0 KECCAK256 SWAP1 POP SWAP2 SWAP1 POP JUMP JUMPDEST PUSH1 0x0 PUSH1 0x20 PUSH1 0x1F DUP4 ADD DIV SWAP1 POP SWAP2 SWAP1 POP JUMP JUMPDEST PUSH1 0x0 DUP3 DUP3 SHL SWAP1 POP SWAP3 SWAP2 POP POP JUMP JUMPDEST PUSH1 0x0 PUSH1 0x8 DUP4 MUL PUSH2 0x8FB PUSH32 0xFFFFFFFFFFFFFFFFFFFFFFFFFFFFFFFFFFFFFFFFFFFFFFFFFFFFFFFFFFFFFFFF DUP3 PUSH2 0x8BE JUMP JUMPDEST PUSH2 0x905 DUP7 DUP4 PUSH2 0x8BE JUMP JUMPDEST SWAP6 POP DUP1 NOT DUP5 AND SWAP4 POP DUP1 DUP7 AND DUP5 OR SWAP3 POP POP POP SWAP4 SWAP3 POP POP POP JUMP JUMPDEST PUSH1 0x0 DUP2 SWAP1 POP SWAP2 SWAP1 POP JUMP JUMPDEST PUSH1 0x0 PUSH2 0x942 PUSH2 0x93D PUSH2 0x938 DUP5 PUSH2 0x382 JUMP JUMPDEST PUSH2 0x91D JUMP JUMPDEST PUSH2 0x382 JUMP JUMPDEST SWAP1 POP SWAP2 SWAP1 POP JUMP JUMPDEST PUSH1 0x0 DUP2 SWAP1 POP SWAP2 SWAP1 POP JUMP JUMPDEST PUSH2 0x95C DUP4 PUSH2 0x927 JUMP JUMPDEST PUSH2 0x970 PUSH2 0x968 DUP3 PUSH2 0x949 JUMP JUMPDEST DUP5 DUP5 SLOAD PUSH2 0x8CB JUMP JUMPDEST DUP3 SSTORE POP POP POP POP JUMP JUMPDEST PUSH1 0x0 SWAP1 JUMP JUMPDEST PUSH2 0x985 PUSH2 0x978 JUMP JUMPDEST PUSH2 0x990 DUP2 DUP5 DUP5 PUSH2 0x953 JUMP JUMPDEST POP POP POP JUMP JUMPDEST JUMPDEST DUP2 DUP2 LT ISZERO PUSH2 0x9B4 JUMPI PUSH2 0x9A9 PUSH1 0x0 DUP3 PUSH2 0x97D JUMP JUMPDEST PUSH1 0x1 DUP2 ADD SWAP1 POP PUSH2 0x996 JUMP JUMPDEST POP POP JUMP JUMPDEST PUSH1 0x1F DUP3 GT ISZERO PUSH2 0x9F9 JUMPI PUSH2 0x9CA DUP2 PUSH2 0x899 JUMP JUMPDEST PUSH2 0x9D3 DUP5 PUSH2 0x8AE JUMP JUMPDEST DUP2 ADD PUSH1 0x20 DUP6 LT ISZERO PUSH2 0x9E2 JUMPI DUP2 SWAP1 POP JUMPDEST PUSH2 0x9F6 PUSH2 0x9EE DUP6 PUSH2 0x8AE JUMP JUMPDEST DUP4 ADD DUP3 PUSH2 0x995 JUMP JUMPDEST POP POP JUMPDEST POP POP POP JUMP JUMPDEST PUSH1 0x0 DUP3 DUP3 SHR SWAP1 POP SWAP3 SWAP2 POP POP JUMP JUMPDEST PUSH1 0x0 PUSH2 0xA1C PUSH1 0x0 NOT DUP5 PUSH1 0x8 MUL PUSH2 0x9FE JUMP JUMPDEST NOT DUP1 DUP4 AND SWAP2 POP POP SWAP3 SWAP2 POP POP JUMP JUMPDEST PUSH1 0x0 PUSH2 0xA35 DUP4 DUP4 PUSH2 0xA0B JUMP JUMPDEST SWAP2 POP DUP3 PUSH1 0x2 MUL DUP3 OR SWAP1 POP SWAP3 SWAP2 POP POP JUMP JUMPDEST PUSH2 0xA4E DUP3 PUSH2 0x40F JUMP JUMPDEST PUSH8 0xFFFFFFFFFFFFFFFF DUP2 GT ISZERO PUSH2 0xA67 JUMPI PUSH2 0xA66 PUSH2 0x4CB JUMP JUMPDEST JUMPDEST PUSH2 0xA71 DUP3 SLOAD PUSH2 0x868 JUMP JUMPDEST PUSH2 0xA7C DUP3 DUP3 DUP6 PUSH2 0x9B8 JUMP JUMPDEST PUSH1 0x0 PUSH1 0x20 SWAP1 POP PUSH1 0x1F DUP4 GT PUSH1 0x1 DUP2 EQ PUSH2 0xAAF JUMPI PUSH1 0x0 DUP5 ISZERO PUSH2 0xA9D JUMPI DUP3 DUP8 ADD MLOAD SWAP1 POP JUMPDEST PUSH2 0xAA7 DUP6 DUP3 PUSH2 0xA29 JUMP JUMPDEST DUP7 SSTORE POP PUSH2 0xB0F JUMP JUMPDEST PUSH1 0x1F NOT DUP5 AND PUSH2 0xABD DUP7 PUSH2 0x899 JUMP JUMPDEST PUSH1 0x0 JUMPDEST DUP3 DUP2 LT ISZERO PUSH2 0xAE5 JUMPI DUP5 DUP10 ADD MLOAD DUP3 SSTORE PUSH1 0x1 DUP3 ADD SWAP2 POP PUSH1 0x20 DUP6 ADD SWAP5 POP PUSH1 0x20 DUP2 ADD SWAP1 POP PUSH2 0xAC0 JUMP JUMPDEST DUP7 DUP4 LT ISZERO PUSH2 0xB02 JUMPI DUP5 DUP10 ADD MLOAD PUSH2 0xAFE PUSH1 0x1F DUP10 AND DUP3 PUSH2 0xA0B JUMP JUMPDEST DUP4 SSTORE POP JUMPDEST PUSH1 0x1 PUSH1 0x2 DUP9 MUL ADD DUP9 SSTORE POP POP POP JUMPDEST POP POP POP POP POP POP JUMP JUMPDEST PUSH1 0x0 PUSH2 0xB22 DUP3 PUSH2 0x382 JUMP JUMPDEST SWAP2 POP PUSH2 0xB2D DUP4 PUSH2 0x382 JUMP JUMPDEST SWAP3 POP PUSH2 0xB5A PUSH32 0xFFFFFFFFFFFFFFFFFFFFFFFFFFFFFFFFFFFFFFFFFFFFFFFFFFFFFFFFFFFFFFFF DUP5 DUP5 PUSH2 0x70E JUMP JUMPDEST SWAP1 POP SWAP3 SWAP2 POP POP JUMP INVALID LOG2 PUSH5 0x6970667358 0x22 SLT KECCAK256 0xFC 0x24 EXTCODEHASH PUSH31 0xA5CF571FCE666AB72B0790F778635CB47502FAF551FC65627637B35864736F PUSH13 0x63430008120033000000000000 "
		},
		"gasEstimates": {
			"creation": {
				"codeDepositCost": "593600",
				"executionCost": "625",
				"totalCost": "594225"
			},
			"external": {
				"AnB(uint256,uint256)": "infinite",
				"Cubic(uint256)": "infinite",
				"Square(uint256)": "infinite",
				"getStr1()": "infinite",
				"getStr2()": "infinite",
				"setStr1(string)": "infinite",
				"setStr1asFive()": "infinite",
				"setStr2(string)": "infinite"
			}
		},
		"methodIdentifiers": {
			"AnB(uint256,uint256)": "b125ecc2",
			"Cubic(uint256)": "d9e2ba8c",
			"Square(uint256)": "41b5039f",
			"getStr1()": "ac805759",
			"getStr2()": "9620b05d",
			"setStr1(string)": "f3bf5fa1",
			"setStr1asFive()": "a4468bf3",
			"setStr2(string)": "a6d52fb4"
		}
	},
	"abi": [
		{
			"inputs": [
				{
					"internalType": "uint256",
					"name": "a",
					"type": "uint256"
				},
				{
					"internalType": "uint256",
					"name": "b",
					"type": "uint256"
				}
			],
			"name": "AnB",
			"outputs": [
				{
					"internalType": "uint256",
					"name": "",
					"type": "uint256"
				}
			],
			"stateMutability": "pure",
			"type": "function"
		},
		{
			"inputs": [
				{
					"internalType": "uint256",
					"name": "a",
					"type": "uint256"
				}
			],
			"name": "Cubic",
			"outputs": [
				{
					"internalType": "uint256",
					"name": "",
					"type": "uint256"
				}
			],
			"stateMutability": "pure",
			"type": "function"
		},
		{
			"inputs": [
				{
					"internalType": "uint256",
					"name": "a",
					"type": "uint256"
				}
			],
			"name": "Square",
			"outputs": [
				{
					"internalType": "uint256",
					"name": "",
					"type": "uint256"
				}
			],
			"stateMutability": "pure",
			"type": "function"
		},
		{
			"inputs": [],
			"name": "getStr1",
			"outputs": [
				{
					"internalType": "string",
					"name": "",
					"type": "string"
				}
			],
			"stateMutability": "view",
			"type": "function"
		},
		{
			"inputs": [],
			"name": "getStr2",
			"outputs": [
				{
					"internalType": "string",
					"name": "",
					"type": "string"
				}
			],
			"stateMutability": "view",
			"type": "function"
		},
		{
			"inputs": [
				{
					"internalType": "string",
					"name": "a",
					"type": "string"
				}
			],
			"name": "setStr1",
			"outputs": [],
			"stateMutability": "nonpayable",
			"type": "function"
		},
		{
			"inputs": [],
			"name": "setStr1asFive",
			"outputs": [],
			"stateMutability": "nonpayable",
			"type": "function"
		},
		{
			"inputs": [
				{
					"internalType": "string",
					"name": "b",
					"type": "string"
				}
			],
			"name": "setStr2",
			"outputs": [],
			"stateMutability": "nonpayable",
			"type": "function"
		}
	]
}