{
	"contracts/230518/bytesLength.sol": {
		"String_Bytes": {
			"abi": [
				{
					"inputs": [
						{
							"internalType": "string",
							"name": "_str",
							"type": "string"
						}
					],
					"name": "DivideString",
					"outputs": [
						{
							"internalType": "uint256",
							"name": "",
							"type": "uint256"
						},
						{
							"internalType": "string[]",
							"name": "",
							"type": "string[]"
						}
					],
					"stateMutability": "pure",
					"type": "function"
				}
			],
			"devdoc": {
				"kind": "dev",
				"methods": {},
				"version": 1
			},
			"evm": {
				"assembly": "    /* \"contracts/230518/bytesLength.sol\":251:902  contract String_Bytes {... */\n  mstore(0x40, 0x80)\n  callvalue\n  dup1\n  iszero\n  tag_1\n  jumpi\n  0x00\n  dup1\n  revert\ntag_1:\n  pop\n  dataSize(sub_0)\n  dup1\n  dataOffset(sub_0)\n  0x00\n  codecopy\n  0x00\n  return\nstop\n\nsub_0: assembly {\n        /* \"contracts/230518/bytesLength.sol\":251:902  contract String_Bytes {... */\n      mstore(0x40, 0x80)\n      callvalue\n      dup1\n      iszero\n      tag_1\n      jumpi\n      0x00\n      dup1\n      revert\n    tag_1:\n      pop\n      jumpi(tag_2, lt(calldatasize, 0x04))\n      shr(0xe0, calldataload(0x00))\n      dup1\n      0xd82960f7\n      eq\n      tag_3\n      jumpi\n    tag_2:\n      0x00\n      dup1\n      revert\n        /* \"contracts/230518/bytesLength.sol\":475:899  function DivideString(string memory _str) public pure returns(uint, string[] memory) {... */\n    tag_3:\n      tag_4\n      0x04\n      dup1\n      calldatasize\n      sub\n      dup2\n      add\n      swap1\n      tag_5\n      swap2\n      swap1\n      tag_6\n      jump\t// in\n    tag_5:\n      tag_7\n      jump\t// in\n    tag_4:\n      mload(0x40)\n      tag_8\n      swap3\n      swap2\n      swap1\n      tag_9\n      jump\t// in\n    tag_8:\n      mload(0x40)\n      dup1\n      swap2\n      sub\n      swap1\n      return\n    tag_7:\n        /* \"contracts/230518/bytesLength.sol\":537:541  uint */\n      0x00\n        /* \"contracts/230518/bytesLength.sol\":543:558  string[] memory */\n      0x60\n        /* \"contracts/230518/bytesLength.sol\":571:597  bytes memory stringToBytes */\n      0x00\n        /* \"contracts/230518/bytesLength.sol\":606:610  _str */\n      dup4\n        /* \"contracts/230518/bytesLength.sol\":571:611  bytes memory stringToBytes = bytes(_str) */\n      swap1\n      pop\n        /* \"contracts/230518/bytesLength.sol\":622:651  string[] memory bytesToString */\n      0x00\n        /* \"contracts/230518/bytesLength.sol\":667:680  stringToBytes */\n      dup2\n        /* \"contracts/230518/bytesLength.sol\":667:687  stringToBytes.length */\n      mload\n        /* \"contracts/230518/bytesLength.sol\":654:688  new string[](stringToBytes.length) */\n      0xffffffffffffffff\n      dup2\n      gt\n      iszero\n      tag_11\n      jumpi\n      tag_12\n      tag_13\n      jump\t// in\n    tag_12:\n    tag_11:\n      mload(0x40)\n      swap1\n      dup1\n      dup3\n      mstore\n      dup1\n      0x20\n      mul\n      0x20\n      add\n      dup3\n      add\n      0x40\n      mstore\n      dup1\n      iszero\n      tag_14\n      jumpi\n      dup2\n      0x20\n      add\n    tag_15:\n      0x60\n      dup2\n      mstore\n      0x20\n      add\n      swap1\n      0x01\n      swap1\n      sub\n      swap1\n      dup2\n      tag_15\n      jumpi\n      swap1\n      pop\n    tag_14:\n      pop\n        /* \"contracts/230518/bytesLength.sol\":622:688  string[] memory bytesToString = new string[](stringToBytes.length) */\n      swap1\n      pop\n        /* \"contracts/230518/bytesLength.sol\":705:711  uint i */\n      0x00\n        /* \"contracts/230518/bytesLength.sol\":701:836  for(uint i = 0; i < stringToBytes.length; i++) {... */\n    tag_16:\n        /* \"contracts/230518/bytesLength.sol\":721:734  stringToBytes */\n      dup3\n        /* \"contracts/230518/bytesLength.sol\":721:741  stringToBytes.length */\n      mload\n        /* \"contracts/230518/bytesLength.sol\":717:718  i */\n      dup2\n        /* \"contracts/230518/bytesLength.sol\":717:741  i < stringToBytes.length */\n      lt\n        /* \"contracts/230518/bytesLength.sol\":701:836  for(uint i = 0; i < stringToBytes.length; i++) {... */\n      iszero\n      tag_17\n      jumpi\n        /* \"contracts/230518/bytesLength.sol\":806:819  stringToBytes */\n      dup3\n        /* \"contracts/230518/bytesLength.sol\":820:821  i */\n      dup2\n        /* \"contracts/230518/bytesLength.sol\":806:822  stringToBytes[i] */\n      dup2\n      mload\n      dup2\n      lt\n      tag_19\n      jumpi\n      tag_20\n      tag_21\n      jump\t// in\n    tag_20:\n    tag_19:\n      0x20\n      add\n      add\n      mload\n      0xf8\n      shr\n      0xf8\n      shl\n        /* \"contracts/230518/bytesLength.sol\":789:823  abi.encodePacked(stringToBytes[i]) */\n      add(0x20, mload(0x40))\n      tag_22\n      swap2\n      swap1\n      tag_23\n      jump\t// in\n    tag_22:\n      mload(0x40)\n      0x20\n      dup2\n      dup4\n      sub\n      sub\n      dup2\n      mstore\n      swap1\n      0x40\n      mstore\n        /* \"contracts/230518/bytesLength.sol\":763:776  bytesToString */\n      dup3\n        /* \"contracts/230518/bytesLength.sol\":777:778  i */\n      dup3\n        /* \"contracts/230518/bytesLength.sol\":763:779  bytesToString[i] */\n      dup2\n      mload\n      dup2\n      lt\n      tag_24\n      jumpi\n      tag_25\n      tag_21\n      jump\t// in\n    tag_25:\n    tag_24:\n      0x20\n      mul\n      0x20\n      add\n      add\n        /* \"contracts/230518/bytesLength.sol\":763:824  bytesToString[i] = string(abi.encodePacked(stringToBytes[i])) */\n      dup2\n      swap1\n      mstore\n      pop\n        /* \"contracts/230518/bytesLength.sol\":743:746  i++ */\n      dup1\n      dup1\n      tag_26\n      swap1\n      tag_27\n      jump\t// in\n    tag_26:\n      swap2\n      pop\n      pop\n        /* \"contracts/230518/bytesLength.sol\":701:836  for(uint i = 0; i < stringToBytes.length; i++) {... */\n      jump(tag_16)\n    tag_17:\n      pop\n        /* \"contracts/230518/bytesLength.sol\":855:868  bytesToString */\n      dup1\n        /* \"contracts/230518/bytesLength.sol\":855:875  bytesToString.length */\n      mload\n        /* \"contracts/230518/bytesLength.sol\":877:890  bytesToString */\n      dup2\n        /* \"contracts/230518/bytesLength.sol\":848:891  return(bytesToString.length, bytesToString) */\n      swap4\n      pop\n      swap4\n      pop\n      pop\n      pop\n        /* \"contracts/230518/bytesLength.sol\":475:899  function DivideString(string memory _str) public pure returns(uint, string[] memory) {... */\n      swap2\n      pop\n      swap2\n      jump\t// out\n        /* \"#utility.yul\":7:82   */\n    tag_28:\n        /* \"#utility.yul\":40:46   */\n      0x00\n        /* \"#utility.yul\":73:75   */\n      0x40\n        /* \"#utility.yul\":67:76   */\n      mload\n        /* \"#utility.yul\":57:76   */\n      swap1\n      pop\n        /* \"#utility.yul\":7:82   */\n      swap1\n      jump\t// out\n        /* \"#utility.yul\":88:205   */\n    tag_29:\n        /* \"#utility.yul\":197:198   */\n      0x00\n        /* \"#utility.yul\":194:195   */\n      dup1\n        /* \"#utility.yul\":187:199   */\n      revert\n        /* \"#utility.yul\":211:328   */\n    tag_30:\n        /* \"#utility.yul\":320:321   */\n      0x00\n        /* \"#utility.yul\":317:318   */\n      dup1\n        /* \"#utility.yul\":310:322   */\n      revert\n        /* \"#utility.yul\":334:451   */\n    tag_31:\n        /* \"#utility.yul\":443:444   */\n      0x00\n        /* \"#utility.yul\":440:441   */\n      dup1\n        /* \"#utility.yul\":433:445   */\n      revert\n        /* \"#utility.yul\":457:574   */\n    tag_32:\n        /* \"#utility.yul\":566:567   */\n      0x00\n        /* \"#utility.yul\":563:564   */\n      dup1\n        /* \"#utility.yul\":556:568   */\n      revert\n        /* \"#utility.yul\":580:682   */\n    tag_33:\n        /* \"#utility.yul\":621:627   */\n      0x00\n        /* \"#utility.yul\":672:674   */\n      0x1f\n        /* \"#utility.yul\":668:675   */\n      not\n        /* \"#utility.yul\":663:665   */\n      0x1f\n        /* \"#utility.yul\":656:661   */\n      dup4\n        /* \"#utility.yul\":652:666   */\n      add\n        /* \"#utility.yul\":648:676   */\n      and\n        /* \"#utility.yul\":638:676   */\n      swap1\n      pop\n        /* \"#utility.yul\":580:682   */\n      swap2\n      swap1\n      pop\n      jump\t// out\n        /* \"#utility.yul\":688:868   */\n    tag_13:\n        /* \"#utility.yul\":736:813   */\n      0x4e487b7100000000000000000000000000000000000000000000000000000000\n        /* \"#utility.yul\":733:734   */\n      0x00\n        /* \"#utility.yul\":726:814   */\n      mstore\n        /* \"#utility.yul\":833:837   */\n      0x41\n        /* \"#utility.yul\":830:831   */\n      0x04\n        /* \"#utility.yul\":823:838   */\n      mstore\n        /* \"#utility.yul\":857:861   */\n      0x24\n        /* \"#utility.yul\":854:855   */\n      0x00\n        /* \"#utility.yul\":847:862   */\n      revert\n        /* \"#utility.yul\":874:1155   */\n    tag_34:\n        /* \"#utility.yul\":957:984   */\n      tag_65\n        /* \"#utility.yul\":979:983   */\n      dup3\n        /* \"#utility.yul\":957:984   */\n      tag_33\n      jump\t// in\n    tag_65:\n        /* \"#utility.yul\":949:955   */\n      dup2\n        /* \"#utility.yul\":945:985   */\n      add\n        /* \"#utility.yul\":1087:1093   */\n      dup2\n        /* \"#utility.yul\":1075:1085   */\n      dup2\n        /* \"#utility.yul\":1072:1094   */\n      lt\n        /* \"#utility.yul\":1051:1069   */\n      0xffffffffffffffff\n        /* \"#utility.yul\":1039:1049   */\n      dup3\n        /* \"#utility.yul\":1036:1070   */\n      gt\n        /* \"#utility.yul\":1033:1095   */\n      or\n        /* \"#utility.yul\":1030:1118   */\n      iszero\n      tag_66\n      jumpi\n        /* \"#utility.yul\":1098:1116   */\n      tag_67\n      tag_13\n      jump\t// in\n    tag_67:\n        /* \"#utility.yul\":1030:1118   */\n    tag_66:\n        /* \"#utility.yul\":1138:1148   */\n      dup1\n        /* \"#utility.yul\":1134:1136   */\n      0x40\n        /* \"#utility.yul\":1127:1149   */\n      mstore\n        /* \"#utility.yul\":917:1155   */\n      pop\n        /* \"#utility.yul\":874:1155   */\n      pop\n      pop\n      jump\t// out\n        /* \"#utility.yul\":1161:1290   */\n    tag_35:\n        /* \"#utility.yul\":1195:1201   */\n      0x00\n        /* \"#utility.yul\":1222:1242   */\n      tag_69\n      tag_28\n      jump\t// in\n    tag_69:\n        /* \"#utility.yul\":1212:1242   */\n      swap1\n      pop\n        /* \"#utility.yul\":1251:1284   */\n      tag_70\n        /* \"#utility.yul\":1279:1283   */\n      dup3\n        /* \"#utility.yul\":1271:1277   */\n      dup3\n        /* \"#utility.yul\":1251:1284   */\n      tag_34\n      jump\t// in\n    tag_70:\n        /* \"#utility.yul\":1161:1290   */\n      swap2\n      swap1\n      pop\n      jump\t// out\n        /* \"#utility.yul\":1296:1604   */\n    tag_36:\n        /* \"#utility.yul\":1358:1362   */\n      0x00\n        /* \"#utility.yul\":1448:1466   */\n      0xffffffffffffffff\n        /* \"#utility.yul\":1440:1446   */\n      dup3\n        /* \"#utility.yul\":1437:1467   */\n      gt\n        /* \"#utility.yul\":1434:1490   */\n      iszero\n      tag_72\n      jumpi\n        /* \"#utility.yul\":1470:1488   */\n      tag_73\n      tag_13\n      jump\t// in\n    tag_73:\n        /* \"#utility.yul\":1434:1490   */\n    tag_72:\n        /* \"#utility.yul\":1508:1537   */\n      tag_74\n        /* \"#utility.yul\":1530:1536   */\n      dup3\n        /* \"#utility.yul\":1508:1537   */\n      tag_33\n      jump\t// in\n    tag_74:\n        /* \"#utility.yul\":1500:1537   */\n      swap1\n      pop\n        /* \"#utility.yul\":1592:1596   */\n      0x20\n        /* \"#utility.yul\":1586:1590   */\n      dup2\n        /* \"#utility.yul\":1582:1597   */\n      add\n        /* \"#utility.yul\":1574:1597   */\n      swap1\n      pop\n        /* \"#utility.yul\":1296:1604   */\n      swap2\n      swap1\n      pop\n      jump\t// out\n        /* \"#utility.yul\":1610:1756   */\n    tag_37:\n        /* \"#utility.yul\":1707:1713   */\n      dup3\n        /* \"#utility.yul\":1702:1705   */\n      dup2\n        /* \"#utility.yul\":1697:1700   */\n      dup4\n        /* \"#utility.yul\":1684:1714   */\n      calldatacopy\n        /* \"#utility.yul\":1748:1749   */\n      0x00\n        /* \"#utility.yul\":1739:1745   */\n      dup4\n        /* \"#utility.yul\":1734:1737   */\n      dup4\n        /* \"#utility.yul\":1730:1746   */\n      add\n        /* \"#utility.yul\":1723:1750   */\n      mstore\n        /* \"#utility.yul\":1610:1756   */\n      pop\n      pop\n      pop\n      jump\t// out\n        /* \"#utility.yul\":1762:2187   */\n    tag_38:\n        /* \"#utility.yul\":1840:1845   */\n      0x00\n        /* \"#utility.yul\":1865:1931   */\n      tag_77\n        /* \"#utility.yul\":1881:1930   */\n      tag_78\n        /* \"#utility.yul\":1923:1929   */\n      dup5\n        /* \"#utility.yul\":1881:1930   */\n      tag_36\n      jump\t// in\n    tag_78:\n        /* \"#utility.yul\":1865:1931   */\n      tag_35\n      jump\t// in\n    tag_77:\n        /* \"#utility.yul\":1856:1931   */\n      swap1\n      pop\n        /* \"#utility.yul\":1954:1960   */\n      dup3\n        /* \"#utility.yul\":1947:1952   */\n      dup2\n        /* \"#utility.yul\":1940:1961   */\n      mstore\n        /* \"#utility.yul\":1992:1996   */\n      0x20\n        /* \"#utility.yul\":1985:1990   */\n      dup2\n        /* \"#utility.yul\":1981:1997   */\n      add\n        /* \"#utility.yul\":2030:2033   */\n      dup5\n        /* \"#utility.yul\":2021:2027   */\n      dup5\n        /* \"#utility.yul\":2016:2019   */\n      dup5\n        /* \"#utility.yul\":2012:2028   */\n      add\n        /* \"#utility.yul\":2009:2034   */\n      gt\n        /* \"#utility.yul\":2006:2118   */\n      iszero\n      tag_79\n      jumpi\n        /* \"#utility.yul\":2037:2116   */\n      tag_80\n      tag_32\n      jump\t// in\n    tag_80:\n        /* \"#utility.yul\":2006:2118   */\n    tag_79:\n        /* \"#utility.yul\":2127:2181   */\n      tag_81\n        /* \"#utility.yul\":2174:2180   */\n      dup5\n        /* \"#utility.yul\":2169:2172   */\n      dup3\n        /* \"#utility.yul\":2164:2167   */\n      dup6\n        /* \"#utility.yul\":2127:2181   */\n      tag_37\n      jump\t// in\n    tag_81:\n        /* \"#utility.yul\":1846:2187   */\n      pop\n        /* \"#utility.yul\":1762:2187   */\n      swap4\n      swap3\n      pop\n      pop\n      pop\n      jump\t// out\n        /* \"#utility.yul\":2207:2547   */\n    tag_39:\n        /* \"#utility.yul\":2263:2268   */\n      0x00\n        /* \"#utility.yul\":2312:2315   */\n      dup3\n        /* \"#utility.yul\":2305:2309   */\n      0x1f\n        /* \"#utility.yul\":2297:2303   */\n      dup4\n        /* \"#utility.yul\":2293:2310   */\n      add\n        /* \"#utility.yul\":2289:2316   */\n      slt\n        /* \"#utility.yul\":2279:2401   */\n      tag_83\n      jumpi\n        /* \"#utility.yul\":2320:2399   */\n      tag_84\n      tag_31\n      jump\t// in\n    tag_84:\n        /* \"#utility.yul\":2279:2401   */\n    tag_83:\n        /* \"#utility.yul\":2437:2443   */\n      dup2\n        /* \"#utility.yul\":2424:2444   */\n      calldataload\n        /* \"#utility.yul\":2462:2541   */\n      tag_85\n        /* \"#utility.yul\":2537:2540   */\n      dup5\n        /* \"#utility.yul\":2529:2535   */\n      dup3\n        /* \"#utility.yul\":2522:2526   */\n      0x20\n        /* \"#utility.yul\":2514:2520   */\n      dup7\n        /* \"#utility.yul\":2510:2527   */\n      add\n        /* \"#utility.yul\":2462:2541   */\n      tag_38\n      jump\t// in\n    tag_85:\n        /* \"#utility.yul\":2453:2541   */\n      swap2\n      pop\n        /* \"#utility.yul\":2269:2547   */\n      pop\n        /* \"#utility.yul\":2207:2547   */\n      swap3\n      swap2\n      pop\n      pop\n      jump\t// out\n        /* \"#utility.yul\":2553:3062   */\n    tag_6:\n        /* \"#utility.yul\":2622:2628   */\n      0x00\n        /* \"#utility.yul\":2671:2673   */\n      0x20\n        /* \"#utility.yul\":2659:2668   */\n      dup3\n        /* \"#utility.yul\":2650:2657   */\n      dup5\n        /* \"#utility.yul\":2646:2669   */\n      sub\n        /* \"#utility.yul\":2642:2674   */\n      slt\n        /* \"#utility.yul\":2639:2758   */\n      iszero\n      tag_87\n      jumpi\n        /* \"#utility.yul\":2677:2756   */\n      tag_88\n      tag_29\n      jump\t// in\n    tag_88:\n        /* \"#utility.yul\":2639:2758   */\n    tag_87:\n        /* \"#utility.yul\":2825:2826   */\n      0x00\n        /* \"#utility.yul\":2814:2823   */\n      dup3\n        /* \"#utility.yul\":2810:2827   */\n      add\n        /* \"#utility.yul\":2797:2828   */\n      calldataload\n        /* \"#utility.yul\":2855:2873   */\n      0xffffffffffffffff\n        /* \"#utility.yul\":2847:2853   */\n      dup2\n        /* \"#utility.yul\":2844:2874   */\n      gt\n        /* \"#utility.yul\":2841:2958   */\n      iszero\n      tag_89\n      jumpi\n        /* \"#utility.yul\":2877:2956   */\n      tag_90\n      tag_30\n      jump\t// in\n    tag_90:\n        /* \"#utility.yul\":2841:2958   */\n    tag_89:\n        /* \"#utility.yul\":2982:3045   */\n      tag_91\n        /* \"#utility.yul\":3037:3044   */\n      dup5\n        /* \"#utility.yul\":3028:3034   */\n      dup3\n        /* \"#utility.yul\":3017:3026   */\n      dup6\n        /* \"#utility.yul\":3013:3035   */\n      add\n        /* \"#utility.yul\":2982:3045   */\n      tag_39\n      jump\t// in\n    tag_91:\n        /* \"#utility.yul\":2972:3045   */\n      swap2\n      pop\n        /* \"#utility.yul\":2768:3055   */\n      pop\n        /* \"#utility.yul\":2553:3062   */\n      swap3\n      swap2\n      pop\n      pop\n      jump\t// out\n        /* \"#utility.yul\":3068:3145   */\n    tag_40:\n        /* \"#utility.yul\":3105:3112   */\n      0x00\n        /* \"#utility.yul\":3134:3139   */\n      dup2\n        /* \"#utility.yul\":3123:3139   */\n      swap1\n      pop\n        /* \"#utility.yul\":3068:3145   */\n      swap2\n      swap1\n      pop\n      jump\t// out\n        /* \"#utility.yul\":3151:3269   */\n    tag_41:\n        /* \"#utility.yul\":3238:3262   */\n      tag_94\n        /* \"#utility.yul\":3256:3261   */\n      dup2\n        /* \"#utility.yul\":3238:3262   */\n      tag_40\n      jump\t// in\n    tag_94:\n        /* \"#utility.yul\":3233:3236   */\n      dup3\n        /* \"#utility.yul\":3226:3263   */\n      mstore\n        /* \"#utility.yul\":3151:3269   */\n      pop\n      pop\n      jump\t// out\n        /* \"#utility.yul\":3275:3399   */\n    tag_42:\n        /* \"#utility.yul\":3352:3358   */\n      0x00\n        /* \"#utility.yul\":3386:3391   */\n      dup2\n        /* \"#utility.yul\":3380:3392   */\n      mload\n        /* \"#utility.yul\":3370:3392   */\n      swap1\n      pop\n        /* \"#utility.yul\":3275:3399   */\n      swap2\n      swap1\n      pop\n      jump\t// out\n        /* \"#utility.yul\":3405:3599   */\n    tag_43:\n        /* \"#utility.yul\":3514:3525   */\n      0x00\n        /* \"#utility.yul\":3548:3554   */\n      dup3\n        /* \"#utility.yul\":3543:3546   */\n      dup3\n        /* \"#utility.yul\":3536:3555   */\n      mstore\n        /* \"#utility.yul\":3588:3592   */\n      0x20\n        /* \"#utility.yul\":3583:3586   */\n      dup3\n        /* \"#utility.yul\":3579:3593   */\n      add\n        /* \"#utility.yul\":3564:3593   */\n      swap1\n      pop\n        /* \"#utility.yul\":3405:3599   */\n      swap3\n      swap2\n      pop\n      pop\n      jump\t// out\n        /* \"#utility.yul\":3605:3747   */\n    tag_44:\n        /* \"#utility.yul\":3682:3686   */\n      0x00\n        /* \"#utility.yul\":3705:3708   */\n      dup2\n        /* \"#utility.yul\":3697:3708   */\n      swap1\n      pop\n        /* \"#utility.yul\":3735:3739   */\n      0x20\n        /* \"#utility.yul\":3730:3733   */\n      dup3\n        /* \"#utility.yul\":3726:3740   */\n      add\n        /* \"#utility.yul\":3718:3740   */\n      swap1\n      pop\n        /* \"#utility.yul\":3605:3747   */\n      swap2\n      swap1\n      pop\n      jump\t// out\n        /* \"#utility.yul\":3753:3852   */\n    tag_45:\n        /* \"#utility.yul\":3805:3811   */\n      0x00\n        /* \"#utility.yul\":3839:3844   */\n      dup2\n        /* \"#utility.yul\":3833:3845   */\n      mload\n        /* \"#utility.yul\":3823:3845   */\n      swap1\n      pop\n        /* \"#utility.yul\":3753:3852   */\n      swap2\n      swap1\n      pop\n      jump\t// out\n        /* \"#utility.yul\":3858:4017   */\n    tag_46:\n        /* \"#utility.yul\":3932:3943   */\n      0x00\n        /* \"#utility.yul\":3966:3972   */\n      dup3\n        /* \"#utility.yul\":3961:3964   */\n      dup3\n        /* \"#utility.yul\":3954:3973   */\n      mstore\n        /* \"#utility.yul\":4006:4010   */\n      0x20\n        /* \"#utility.yul\":4001:4004   */\n      dup3\n        /* \"#utility.yul\":3997:4011   */\n      add\n        /* \"#utility.yul\":3982:4011   */\n      swap1\n      pop\n        /* \"#utility.yul\":3858:4017   */\n      swap3\n      swap2\n      pop\n      pop\n      jump\t// out\n        /* \"#utility.yul\":4023:4269   */\n    tag_47:\n        /* \"#utility.yul\":4104:4105   */\n      0x00\n        /* \"#utility.yul\":4114:4227   */\n    tag_101:\n        /* \"#utility.yul\":4128:4134   */\n      dup4\n        /* \"#utility.yul\":4125:4126   */\n      dup2\n        /* \"#utility.yul\":4122:4135   */\n      lt\n        /* \"#utility.yul\":4114:4227   */\n      iszero\n      tag_103\n      jumpi\n        /* \"#utility.yul\":4213:4214   */\n      dup1\n        /* \"#utility.yul\":4208:4211   */\n      dup3\n        /* \"#utility.yul\":4204:4215   */\n      add\n        /* \"#utility.yul\":4198:4216   */\n      mload\n        /* \"#utility.yul\":4194:4195   */\n      dup2\n        /* \"#utility.yul\":4189:4192   */\n      dup5\n        /* \"#utility.yul\":4185:4196   */\n      add\n        /* \"#utility.yul\":4178:4217   */\n      mstore\n        /* \"#utility.yul\":4150:4152   */\n      0x20\n        /* \"#utility.yul\":4147:4148   */\n      dup2\n        /* \"#utility.yul\":4143:4153   */\n      add\n        /* \"#utility.yul\":4138:4153   */\n      swap1\n      pop\n        /* \"#utility.yul\":4114:4227   */\n      jump(tag_101)\n    tag_103:\n        /* \"#utility.yul\":4261:4262   */\n      0x00\n        /* \"#utility.yul\":4252:4258   */\n      dup5\n        /* \"#utility.yul\":4247:4250   */\n      dup5\n        /* \"#utility.yul\":4243:4259   */\n      add\n        /* \"#utility.yul\":4236:4263   */\n      mstore\n        /* \"#utility.yul\":4085:4269   */\n      pop\n        /* \"#utility.yul\":4023:4269   */\n      pop\n      pop\n      pop\n      jump\t// out\n        /* \"#utility.yul\":4275:4632   */\n    tag_48:\n        /* \"#utility.yul\":4353:4356   */\n      0x00\n        /* \"#utility.yul\":4381:4420   */\n      tag_105\n        /* \"#utility.yul\":4414:4419   */\n      dup3\n        /* \"#utility.yul\":4381:4420   */\n      tag_45\n      jump\t// in\n    tag_105:\n        /* \"#utility.yul\":4436:4497   */\n      tag_106\n        /* \"#utility.yul\":4490:4496   */\n      dup2\n        /* \"#utility.yul\":4485:4488   */\n      dup6\n        /* \"#utility.yul\":4436:4497   */\n      tag_46\n      jump\t// in\n    tag_106:\n        /* \"#utility.yul\":4429:4497   */\n      swap4\n      pop\n        /* \"#utility.yul\":4506:4571   */\n      tag_107\n        /* \"#utility.yul\":4564:4570   */\n      dup2\n        /* \"#utility.yul\":4559:4562   */\n      dup6\n        /* \"#utility.yul\":4552:4556   */\n      0x20\n        /* \"#utility.yul\":4545:4550   */\n      dup7\n        /* \"#utility.yul\":4541:4557   */\n      add\n        /* \"#utility.yul\":4506:4571   */\n      tag_47\n      jump\t// in\n    tag_107:\n        /* \"#utility.yul\":4596:4625   */\n      tag_108\n        /* \"#utility.yul\":4618:4624   */\n      dup2\n        /* \"#utility.yul\":4596:4625   */\n      tag_33\n      jump\t// in\n    tag_108:\n        /* \"#utility.yul\":4591:4594   */\n      dup5\n        /* \"#utility.yul\":4587:4626   */\n      add\n        /* \"#utility.yul\":4580:4626   */\n      swap2\n      pop\n        /* \"#utility.yul\":4357:4632   */\n      pop\n        /* \"#utility.yul\":4275:4632   */\n      swap3\n      swap2\n      pop\n      pop\n      jump\t// out\n        /* \"#utility.yul\":4638:4834   */\n    tag_49:\n        /* \"#utility.yul\":4727:4737   */\n      0x00\n        /* \"#utility.yul\":4762:4828   */\n      tag_110\n        /* \"#utility.yul\":4824:4827   */\n      dup4\n        /* \"#utility.yul\":4816:4822   */\n      dup4\n        /* \"#utility.yul\":4762:4828   */\n      tag_48\n      jump\t// in\n    tag_110:\n        /* \"#utility.yul\":4748:4828   */\n      swap1\n      pop\n        /* \"#utility.yul\":4638:4834   */\n      swap3\n      swap2\n      pop\n      pop\n      jump\t// out\n        /* \"#utility.yul\":4840:4963   */\n    tag_50:\n        /* \"#utility.yul\":4920:4924   */\n      0x00\n        /* \"#utility.yul\":4952:4956   */\n      0x20\n        /* \"#utility.yul\":4947:4950   */\n      dup3\n        /* \"#utility.yul\":4943:4957   */\n      add\n        /* \"#utility.yul\":4935:4957   */\n      swap1\n      pop\n        /* \"#utility.yul\":4840:4963   */\n      swap2\n      swap1\n      pop\n      jump\t// out\n        /* \"#utility.yul\":4997:5988   */\n    tag_51:\n        /* \"#utility.yul\":5136:5139   */\n      0x00\n        /* \"#utility.yul\":5165:5229   */\n      tag_113\n        /* \"#utility.yul\":5223:5228   */\n      dup3\n        /* \"#utility.yul\":5165:5229   */\n      tag_42\n      jump\t// in\n    tag_113:\n        /* \"#utility.yul\":5245:5341   */\n      tag_114\n        /* \"#utility.yul\":5334:5340   */\n      dup2\n        /* \"#utility.yul\":5329:5332   */\n      dup6\n        /* \"#utility.yul\":5245:5341   */\n      tag_43\n      jump\t// in\n    tag_114:\n        /* \"#utility.yul\":5238:5341   */\n      swap4\n      pop\n        /* \"#utility.yul\":5367:5370   */\n      dup4\n        /* \"#utility.yul\":5412:5416   */\n      0x20\n        /* \"#utility.yul\":5404:5410   */\n      dup3\n        /* \"#utility.yul\":5400:5417   */\n      mul\n        /* \"#utility.yul\":5395:5398   */\n      dup6\n        /* \"#utility.yul\":5391:5418   */\n      add\n        /* \"#utility.yul\":5442:5508   */\n      tag_115\n        /* \"#utility.yul\":5502:5507   */\n      dup6\n        /* \"#utility.yul\":5442:5508   */\n      tag_44\n      jump\t// in\n    tag_115:\n        /* \"#utility.yul\":5531:5538   */\n      dup1\n        /* \"#utility.yul\":5562:5563   */\n      0x00\n        /* \"#utility.yul\":5547:5943   */\n    tag_116:\n        /* \"#utility.yul\":5572:5578   */\n      dup6\n        /* \"#utility.yul\":5569:5570   */\n      dup2\n        /* \"#utility.yul\":5566:5579   */\n      lt\n        /* \"#utility.yul\":5547:5943   */\n      iszero\n      tag_118\n      jumpi\n        /* \"#utility.yul\":5643:5652   */\n      dup5\n        /* \"#utility.yul\":5637:5641   */\n      dup5\n        /* \"#utility.yul\":5633:5653   */\n      sub\n        /* \"#utility.yul\":5628:5631   */\n      dup10\n        /* \"#utility.yul\":5621:5654   */\n      mstore\n        /* \"#utility.yul\":5694:5700   */\n      dup2\n        /* \"#utility.yul\":5688:5701   */\n      mload\n        /* \"#utility.yul\":5722:5806   */\n      tag_119\n        /* \"#utility.yul\":5801:5805   */\n      dup6\n        /* \"#utility.yul\":5786:5799   */\n      dup3\n        /* \"#utility.yul\":5722:5806   */\n      tag_49\n      jump\t// in\n    tag_119:\n        /* \"#utility.yul\":5714:5806   */\n      swap5\n      pop\n        /* \"#utility.yul\":5829:5899   */\n      tag_120\n        /* \"#utility.yul\":5892:5898   */\n      dup4\n        /* \"#utility.yul\":5829:5899   */\n      tag_50\n      jump\t// in\n    tag_120:\n        /* \"#utility.yul\":5819:5899   */\n      swap3\n      pop\n        /* \"#utility.yul\":5928:5932   */\n      0x20\n        /* \"#utility.yul\":5923:5926   */\n      dup11\n        /* \"#utility.yul\":5919:5933   */\n      add\n        /* \"#utility.yul\":5912:5933   */\n      swap10\n      pop\n        /* \"#utility.yul\":5607:5943   */\n      pop\n        /* \"#utility.yul\":5594:5595   */\n      0x01\n        /* \"#utility.yul\":5591:5592   */\n      dup2\n        /* \"#utility.yul\":5587:5596   */\n      add\n        /* \"#utility.yul\":5582:5596   */\n      swap1\n      pop\n        /* \"#utility.yul\":5547:5943   */\n      jump(tag_116)\n    tag_118:\n        /* \"#utility.yul\":5551:5565   */\n      pop\n        /* \"#utility.yul\":5959:5963   */\n      dup3\n        /* \"#utility.yul\":5952:5963   */\n      swap8\n      pop\n        /* \"#utility.yul\":5979:5982   */\n      dup8\n        /* \"#utility.yul\":5972:5982   */\n      swap6\n      pop\n        /* \"#utility.yul\":5141:5988   */\n      pop\n      pop\n      pop\n      pop\n      pop\n        /* \"#utility.yul\":4997:5988   */\n      swap3\n      swap2\n      pop\n      pop\n      jump\t// out\n        /* \"#utility.yul\":5994:6517   */\n    tag_9:\n        /* \"#utility.yul\":6185:6189   */\n      0x00\n        /* \"#utility.yul\":6223:6225   */\n      0x40\n        /* \"#utility.yul\":6212:6221   */\n      dup3\n        /* \"#utility.yul\":6208:6226   */\n      add\n        /* \"#utility.yul\":6200:6226   */\n      swap1\n      pop\n        /* \"#utility.yul\":6236:6307   */\n      tag_122\n        /* \"#utility.yul\":6304:6305   */\n      0x00\n        /* \"#utility.yul\":6293:6302   */\n      dup4\n        /* \"#utility.yul\":6289:6306   */\n      add\n        /* \"#utility.yul\":6280:6286   */\n      dup6\n        /* \"#utility.yul\":6236:6307   */\n      tag_41\n      jump\t// in\n    tag_122:\n        /* \"#utility.yul\":6354:6363   */\n      dup2\n        /* \"#utility.yul\":6348:6352   */\n      dup2\n        /* \"#utility.yul\":6344:6364   */\n      sub\n        /* \"#utility.yul\":6339:6341   */\n      0x20\n        /* \"#utility.yul\":6328:6337   */\n      dup4\n        /* \"#utility.yul\":6324:6342   */\n      add\n        /* \"#utility.yul\":6317:6365   */\n      mstore\n        /* \"#utility.yul\":6382:6510   */\n      tag_123\n        /* \"#utility.yul\":6505:6509   */\n      dup2\n        /* \"#utility.yul\":6496:6502   */\n      dup5\n        /* \"#utility.yul\":6382:6510   */\n      tag_51\n      jump\t// in\n    tag_123:\n        /* \"#utility.yul\":6374:6510   */\n      swap1\n      pop\n        /* \"#utility.yul\":5994:6517   */\n      swap4\n      swap3\n      pop\n      pop\n      pop\n      jump\t// out\n        /* \"#utility.yul\":6523:6703   */\n    tag_21:\n        /* \"#utility.yul\":6571:6648   */\n      0x4e487b7100000000000000000000000000000000000000000000000000000000\n        /* \"#utility.yul\":6568:6569   */\n      0x00\n        /* \"#utility.yul\":6561:6649   */\n      mstore\n        /* \"#utility.yul\":6668:6672   */\n      0x32\n        /* \"#utility.yul\":6665:6666   */\n      0x04\n        /* \"#utility.yul\":6658:6673   */\n      mstore\n        /* \"#utility.yul\":6692:6696   */\n      0x24\n        /* \"#utility.yul\":6689:6690   */\n      0x00\n        /* \"#utility.yul\":6682:6697   */\n      revert\n        /* \"#utility.yul\":6709:6858   */\n    tag_52:\n        /* \"#utility.yul\":6745:6752   */\n      0x00\n        /* \"#utility.yul\":6785:6851   */\n      0xff00000000000000000000000000000000000000000000000000000000000000\n        /* \"#utility.yul\":6778:6783   */\n      dup3\n        /* \"#utility.yul\":6774:6852   */\n      and\n        /* \"#utility.yul\":6763:6852   */\n      swap1\n      pop\n        /* \"#utility.yul\":6709:6858   */\n      swap2\n      swap1\n      pop\n      jump\t// out\n        /* \"#utility.yul\":6864:6942   */\n    tag_53:\n        /* \"#utility.yul\":6902:6909   */\n      0x00\n        /* \"#utility.yul\":6931:6936   */\n      dup2\n        /* \"#utility.yul\":6920:6936   */\n      swap1\n      pop\n        /* \"#utility.yul\":6864:6942   */\n      swap2\n      swap1\n      pop\n      jump\t// out\n        /* \"#utility.yul\":6948:7101   */\n    tag_54:\n        /* \"#utility.yul\":7051:7094   */\n      tag_128\n        /* \"#utility.yul\":7070:7093   */\n      tag_129\n        /* \"#utility.yul\":7087:7092   */\n      dup3\n        /* \"#utility.yul\":7070:7093   */\n      tag_52\n      jump\t// in\n    tag_129:\n        /* \"#utility.yul\":7051:7094   */\n      tag_53\n      jump\t// in\n    tag_128:\n        /* \"#utility.yul\":7046:7049   */\n      dup3\n        /* \"#utility.yul\":7039:7095   */\n      mstore\n        /* \"#utility.yul\":6948:7101   */\n      pop\n      pop\n      jump\t// out\n        /* \"#utility.yul\":7107:7358   */\n    tag_23:\n        /* \"#utility.yul\":7217:7220   */\n      0x00\n        /* \"#utility.yul\":7232:7305   */\n      tag_131\n        /* \"#utility.yul\":7301:7304   */\n      dup3\n        /* \"#utility.yul\":7292:7298   */\n      dup5\n        /* \"#utility.yul\":7232:7305   */\n      tag_54\n      jump\t// in\n    tag_131:\n        /* \"#utility.yul\":7330:7331   */\n      0x01\n        /* \"#utility.yul\":7325:7328   */\n      dup3\n        /* \"#utility.yul\":7321:7332   */\n      add\n        /* \"#utility.yul\":7314:7332   */\n      swap2\n      pop\n        /* \"#utility.yul\":7349:7352   */\n      dup2\n        /* \"#utility.yul\":7342:7352   */\n      swap1\n      pop\n        /* \"#utility.yul\":7107:7358   */\n      swap3\n      swap2\n      pop\n      pop\n      jump\t// out\n        /* \"#utility.yul\":7364:7544   */\n    tag_55:\n        /* \"#utility.yul\":7412:7489   */\n      0x4e487b7100000000000000000000000000000000000000000000000000000000\n        /* \"#utility.yul\":7409:7410   */\n      0x00\n        /* \"#utility.yul\":7402:7490   */\n      mstore\n        /* \"#utility.yul\":7509:7513   */\n      0x11\n        /* \"#utility.yul\":7506:7507   */\n      0x04\n        /* \"#utility.yul\":7499:7514   */\n      mstore\n        /* \"#utility.yul\":7533:7537   */\n      0x24\n        /* \"#utility.yul\":7530:7531   */\n      0x00\n        /* \"#utility.yul\":7523:7538   */\n      revert\n        /* \"#utility.yul\":7550:7783   */\n    tag_27:\n        /* \"#utility.yul\":7589:7592   */\n      0x00\n        /* \"#utility.yul\":7612:7636   */\n      tag_134\n        /* \"#utility.yul\":7630:7635   */\n      dup3\n        /* \"#utility.yul\":7612:7636   */\n      tag_40\n      jump\t// in\n    tag_134:\n        /* \"#utility.yul\":7603:7636   */\n      swap2\n      pop\n        /* \"#utility.yul\":7658:7724   */\n      0xffffffffffffffffffffffffffffffffffffffffffffffffffffffffffffffff\n        /* \"#utility.yul\":7651:7656   */\n      dup3\n        /* \"#utility.yul\":7648:7725   */\n      sub\n        /* \"#utility.yul\":7645:7748   */\n      tag_135\n      jumpi\n        /* \"#utility.yul\":7728:7746   */\n      tag_136\n      tag_55\n      jump\t// in\n    tag_136:\n        /* \"#utility.yul\":7645:7748   */\n    tag_135:\n        /* \"#utility.yul\":7775:7776   */\n      0x01\n        /* \"#utility.yul\":7768:7773   */\n      dup3\n        /* \"#utility.yul\":7764:7777   */\n      add\n        /* \"#utility.yul\":7757:7777   */\n      swap1\n      pop\n        /* \"#utility.yul\":7550:7783   */\n      swap2\n      swap1\n      pop\n      jump\t// out\n\n    auxdata: 0xa26469706673582212208e8681f0b2c5d3d18620a967f719bd0f68467745679591d2d712b1a5c4f6ae1f64736f6c63430008120033\n}\n",
				"bytecode": {
					"linkReferences": {},
					"object": "608060405234801561001057600080fd5b506105b7806100206000396000f3fe608060405234801561001057600080fd5b506004361061002b5760003560e01c8063d82960f714610030575b600080fd5b61004a600480360381019061004591906102a0565b610061565b604051610058929190610443565b60405180910390f35b6000606060008390506000815167ffffffffffffffff81111561008757610086610175565b5b6040519080825280602002602001820160405280156100ba57816020015b60608152602001906001900390816100a55790505b50905060005b8251811015610137578281815181106100dc576100db610473565b5b602001015160f81c60f81b6040516020016100f791906104ef565b60405160208183030381529060405282828151811061011957610118610473565b5b6020026020010181905250808061012f90610539565b9150506100c0565b50805181935093505050915091565b6000604051905090565b600080fd5b600080fd5b600080fd5b600080fd5b6000601f19601f8301169050919050565b7f4e487b7100000000000000000000000000000000000000000000000000000000600052604160045260246000fd5b6101ad82610164565b810181811067ffffffffffffffff821117156101cc576101cb610175565b5b80604052505050565b60006101df610146565b90506101eb82826101a4565b919050565b600067ffffffffffffffff82111561020b5761020a610175565b5b61021482610164565b9050602081019050919050565b82818337600083830152505050565b600061024361023e846101f0565b6101d5565b90508281526020810184848401111561025f5761025e61015f565b5b61026a848285610221565b509392505050565b600082601f8301126102875761028661015a565b5b8135610297848260208601610230565b91505092915050565b6000602082840312156102b6576102b5610150565b5b600082013567ffffffffffffffff8111156102d4576102d3610155565b5b6102e084828501610272565b91505092915050565b6000819050919050565b6102fc816102e9565b82525050565b600081519050919050565b600082825260208201905092915050565b6000819050602082019050919050565b600081519050919050565b600082825260208201905092915050565b60005b8381101561036857808201518184015260208101905061034d565b60008484015250505050565b600061037f8261032e565b6103898185610339565b935061039981856020860161034a565b6103a281610164565b840191505092915050565b60006103b98383610374565b905092915050565b6000602082019050919050565b60006103d982610302565b6103e3818561030d565b9350836020820285016103f58561031e565b8060005b85811015610431578484038952815161041285826103ad565b945061041d836103c1565b925060208a019950506001810190506103f9565b50829750879550505050505092915050565b600060408201905061045860008301856102f3565b818103602083015261046a81846103ce565b90509392505050565b7f4e487b7100000000000000000000000000000000000000000000000000000000600052603260045260246000fd5b60007fff0000000000000000000000000000000000000000000000000000000000000082169050919050565b6000819050919050565b6104e96104e4826104a2565b6104ce565b82525050565b60006104fb82846104d8565b60018201915081905092915050565b7f4e487b7100000000000000000000000000000000000000000000000000000000600052601160045260246000fd5b6000610544826102e9565b91507fffffffffffffffffffffffffffffffffffffffffffffffffffffffffffffffff82036105765761057561050a565b5b60018201905091905056fea26469706673582212208e8681f0b2c5d3d18620a967f719bd0f68467745679591d2d712b1a5c4f6ae1f64736f6c63430008120033",
					"opcodes": "PUSH1 0x80 PUSH1 0x40 MSTORE CALLVALUE DUP1 ISZERO PUSH2 0x10 JUMPI PUSH1 0x0 DUP1 REVERT JUMPDEST POP PUSH2 0x5B7 DUP1 PUSH2 0x20 PUSH1 0x0 CODECOPY PUSH1 0x0 RETURN INVALID PUSH1 0x80 PUSH1 0x40 MSTORE CALLVALUE DUP1 ISZERO PUSH2 0x10 JUMPI PUSH1 0x0 DUP1 REVERT JUMPDEST POP PUSH1 0x4 CALLDATASIZE LT PUSH2 0x2B JUMPI PUSH1 0x0 CALLDATALOAD PUSH1 0xE0 SHR DUP1 PUSH4 0xD82960F7 EQ PUSH2 0x30 JUMPI JUMPDEST PUSH1 0x0 DUP1 REVERT JUMPDEST PUSH2 0x4A PUSH1 0x4 DUP1 CALLDATASIZE SUB DUP2 ADD SWAP1 PUSH2 0x45 SWAP2 SWAP1 PUSH2 0x2A0 JUMP JUMPDEST PUSH2 0x61 JUMP JUMPDEST PUSH1 0x40 MLOAD PUSH2 0x58 SWAP3 SWAP2 SWAP1 PUSH2 0x443 JUMP JUMPDEST PUSH1 0x40 MLOAD DUP1 SWAP2 SUB SWAP1 RETURN JUMPDEST PUSH1 0x0 PUSH1 0x60 PUSH1 0x0 DUP4 SWAP1 POP PUSH1 0x0 DUP2 MLOAD PUSH8 0xFFFFFFFFFFFFFFFF DUP2 GT ISZERO PUSH2 0x87 JUMPI PUSH2 0x86 PUSH2 0x175 JUMP JUMPDEST JUMPDEST PUSH1 0x40 MLOAD SWAP1 DUP1 DUP3 MSTORE DUP1 PUSH1 0x20 MUL PUSH1 0x20 ADD DUP3 ADD PUSH1 0x40 MSTORE DUP1 ISZERO PUSH2 0xBA JUMPI DUP2 PUSH1 0x20 ADD JUMPDEST PUSH1 0x60 DUP2 MSTORE PUSH1 0x20 ADD SWAP1 PUSH1 0x1 SWAP1 SUB SWAP1 DUP2 PUSH2 0xA5 JUMPI SWAP1 POP JUMPDEST POP SWAP1 POP PUSH1 0x0 JUMPDEST DUP3 MLOAD DUP2 LT ISZERO PUSH2 0x137 JUMPI DUP3 DUP2 DUP2 MLOAD DUP2 LT PUSH2 0xDC JUMPI PUSH2 0xDB PUSH2 0x473 JUMP JUMPDEST JUMPDEST PUSH1 0x20 ADD ADD MLOAD PUSH1 0xF8 SHR PUSH1 0xF8 SHL PUSH1 0x40 MLOAD PUSH1 0x20 ADD PUSH2 0xF7 SWAP2 SWAP1 PUSH2 0x4EF JUMP JUMPDEST PUSH1 0x40 MLOAD PUSH1 0x20 DUP2 DUP4 SUB SUB DUP2 MSTORE SWAP1 PUSH1 0x40 MSTORE DUP3 DUP3 DUP2 MLOAD DUP2 LT PUSH2 0x119 JUMPI PUSH2 0x118 PUSH2 0x473 JUMP JUMPDEST JUMPDEST PUSH1 0x20 MUL PUSH1 0x20 ADD ADD DUP2 SWAP1 MSTORE POP DUP1 DUP1 PUSH2 0x12F SWAP1 PUSH2 0x539 JUMP JUMPDEST SWAP2 POP POP PUSH2 0xC0 JUMP JUMPDEST POP DUP1 MLOAD DUP2 SWAP4 POP SWAP4 POP POP POP SWAP2 POP SWAP2 JUMP JUMPDEST PUSH1 0x0 PUSH1 0x40 MLOAD SWAP1 POP SWAP1 JUMP JUMPDEST PUSH1 0x0 DUP1 REVERT JUMPDEST PUSH1 0x0 DUP1 REVERT JUMPDEST PUSH1 0x0 DUP1 REVERT JUMPDEST PUSH1 0x0 DUP1 REVERT JUMPDEST PUSH1 0x0 PUSH1 0x1F NOT PUSH1 0x1F DUP4 ADD AND SWAP1 POP SWAP2 SWAP1 POP JUMP JUMPDEST PUSH32 0x4E487B7100000000000000000000000000000000000000000000000000000000 PUSH1 0x0 MSTORE PUSH1 0x41 PUSH1 0x4 MSTORE PUSH1 0x24 PUSH1 0x0 REVERT JUMPDEST PUSH2 0x1AD DUP3 PUSH2 0x164 JUMP JUMPDEST DUP2 ADD DUP2 DUP2 LT PUSH8 0xFFFFFFFFFFFFFFFF DUP3 GT OR ISZERO PUSH2 0x1CC JUMPI PUSH2 0x1CB PUSH2 0x175 JUMP JUMPDEST JUMPDEST DUP1 PUSH1 0x40 MSTORE POP POP POP JUMP JUMPDEST PUSH1 0x0 PUSH2 0x1DF PUSH2 0x146 JUMP JUMPDEST SWAP1 POP PUSH2 0x1EB DUP3 DUP3 PUSH2 0x1A4 JUMP JUMPDEST SWAP2 SWAP1 POP JUMP JUMPDEST PUSH1 0x0 PUSH8 0xFFFFFFFFFFFFFFFF DUP3 GT ISZERO PUSH2 0x20B JUMPI PUSH2 0x20A PUSH2 0x175 JUMP JUMPDEST JUMPDEST PUSH2 0x214 DUP3 PUSH2 0x164 JUMP JUMPDEST SWAP1 POP PUSH1 0x20 DUP2 ADD SWAP1 POP SWAP2 SWAP1 POP JUMP JUMPDEST DUP3 DUP2 DUP4 CALLDATACOPY PUSH1 0x0 DUP4 DUP4 ADD MSTORE POP POP POP JUMP JUMPDEST PUSH1 0x0 PUSH2 0x243 PUSH2 0x23E DUP5 PUSH2 0x1F0 JUMP JUMPDEST PUSH2 0x1D5 JUMP JUMPDEST SWAP1 POP DUP3 DUP2 MSTORE PUSH1 0x20 DUP2 ADD DUP5 DUP5 DUP5 ADD GT ISZERO PUSH2 0x25F JUMPI PUSH2 0x25E PUSH2 0x15F JUMP JUMPDEST JUMPDEST PUSH2 0x26A DUP5 DUP3 DUP6 PUSH2 0x221 JUMP JUMPDEST POP SWAP4 SWAP3 POP POP POP JUMP JUMPDEST PUSH1 0x0 DUP3 PUSH1 0x1F DUP4 ADD SLT PUSH2 0x287 JUMPI PUSH2 0x286 PUSH2 0x15A JUMP JUMPDEST JUMPDEST DUP2 CALLDATALOAD PUSH2 0x297 DUP5 DUP3 PUSH1 0x20 DUP7 ADD PUSH2 0x230 JUMP JUMPDEST SWAP2 POP POP SWAP3 SWAP2 POP POP JUMP JUMPDEST PUSH1 0x0 PUSH1 0x20 DUP3 DUP5 SUB SLT ISZERO PUSH2 0x2B6 JUMPI PUSH2 0x2B5 PUSH2 0x150 JUMP JUMPDEST JUMPDEST PUSH1 0x0 DUP3 ADD CALLDATALOAD PUSH8 0xFFFFFFFFFFFFFFFF DUP2 GT ISZERO PUSH2 0x2D4 JUMPI PUSH2 0x2D3 PUSH2 0x155 JUMP JUMPDEST JUMPDEST PUSH2 0x2E0 DUP5 DUP3 DUP6 ADD PUSH2 0x272 JUMP JUMPDEST SWAP2 POP POP SWAP3 SWAP2 POP POP JUMP JUMPDEST PUSH1 0x0 DUP2 SWAP1 POP SWAP2 SWAP1 POP JUMP JUMPDEST PUSH2 0x2FC DUP2 PUSH2 0x2E9 JUMP JUMPDEST DUP3 MSTORE POP POP JUMP JUMPDEST PUSH1 0x0 DUP2 MLOAD SWAP1 POP SWAP2 SWAP1 POP JUMP JUMPDEST PUSH1 0x0 DUP3 DUP3 MSTORE PUSH1 0x20 DUP3 ADD SWAP1 POP SWAP3 SWAP2 POP POP JUMP JUMPDEST PUSH1 0x0 DUP2 SWAP1 POP PUSH1 0x20 DUP3 ADD SWAP1 POP SWAP2 SWAP1 POP JUMP JUMPDEST PUSH1 0x0 DUP2 MLOAD SWAP1 POP SWAP2 SWAP1 POP JUMP JUMPDEST PUSH1 0x0 DUP3 DUP3 MSTORE PUSH1 0x20 DUP3 ADD SWAP1 POP SWAP3 SWAP2 POP POP JUMP JUMPDEST PUSH1 0x0 JUMPDEST DUP4 DUP2 LT ISZERO PUSH2 0x368 JUMPI DUP1 DUP3 ADD MLOAD DUP2 DUP5 ADD MSTORE PUSH1 0x20 DUP2 ADD SWAP1 POP PUSH2 0x34D JUMP JUMPDEST PUSH1 0x0 DUP5 DUP5 ADD MSTORE POP POP POP POP JUMP JUMPDEST PUSH1 0x0 PUSH2 0x37F DUP3 PUSH2 0x32E JUMP JUMPDEST PUSH2 0x389 DUP2 DUP6 PUSH2 0x339 JUMP JUMPDEST SWAP4 POP PUSH2 0x399 DUP2 DUP6 PUSH1 0x20 DUP7 ADD PUSH2 0x34A JUMP JUMPDEST PUSH2 0x3A2 DUP2 PUSH2 0x164 JUMP JUMPDEST DUP5 ADD SWAP2 POP POP SWAP3 SWAP2 POP POP JUMP JUMPDEST PUSH1 0x0 PUSH2 0x3B9 DUP4 DUP4 PUSH2 0x374 JUMP JUMPDEST SWAP1 POP SWAP3 SWAP2 POP POP JUMP JUMPDEST PUSH1 0x0 PUSH1 0x20 DUP3 ADD SWAP1 POP SWAP2 SWAP1 POP JUMP JUMPDEST PUSH1 0x0 PUSH2 0x3D9 DUP3 PUSH2 0x302 JUMP JUMPDEST PUSH2 0x3E3 DUP2 DUP6 PUSH2 0x30D JUMP JUMPDEST SWAP4 POP DUP4 PUSH1 0x20 DUP3 MUL DUP6 ADD PUSH2 0x3F5 DUP6 PUSH2 0x31E JUMP JUMPDEST DUP1 PUSH1 0x0 JUMPDEST DUP6 DUP2 LT ISZERO PUSH2 0x431 JUMPI DUP5 DUP5 SUB DUP10 MSTORE DUP2 MLOAD PUSH2 0x412 DUP6 DUP3 PUSH2 0x3AD JUMP JUMPDEST SWAP5 POP PUSH2 0x41D DUP4 PUSH2 0x3C1 JUMP JUMPDEST SWAP3 POP PUSH1 0x20 DUP11 ADD SWAP10 POP POP PUSH1 0x1 DUP2 ADD SWAP1 POP PUSH2 0x3F9 JUMP JUMPDEST POP DUP3 SWAP8 POP DUP8 SWAP6 POP POP POP POP POP POP SWAP3 SWAP2 POP POP JUMP JUMPDEST PUSH1 0x0 PUSH1 0x40 DUP3 ADD SWAP1 POP PUSH2 0x458 PUSH1 0x0 DUP4 ADD DUP6 PUSH2 0x2F3 JUMP JUMPDEST DUP2 DUP2 SUB PUSH1 0x20 DUP4 ADD MSTORE PUSH2 0x46A DUP2 DUP5 PUSH2 0x3CE JUMP JUMPDEST SWAP1 POP SWAP4 SWAP3 POP POP POP JUMP JUMPDEST PUSH32 0x4E487B7100000000000000000000000000000000000000000000000000000000 PUSH1 0x0 MSTORE PUSH1 0x32 PUSH1 0x4 MSTORE PUSH1 0x24 PUSH1 0x0 REVERT JUMPDEST PUSH1 0x0 PUSH32 0xFF00000000000000000000000000000000000000000000000000000000000000 DUP3 AND SWAP1 POP SWAP2 SWAP1 POP JUMP JUMPDEST PUSH1 0x0 DUP2 SWAP1 POP SWAP2 SWAP1 POP JUMP JUMPDEST PUSH2 0x4E9 PUSH2 0x4E4 DUP3 PUSH2 0x4A2 JUMP JUMPDEST PUSH2 0x4CE JUMP JUMPDEST DUP3 MSTORE POP POP JUMP JUMPDEST PUSH1 0x0 PUSH2 0x4FB DUP3 DUP5 PUSH2 0x4D8 JUMP JUMPDEST PUSH1 0x1 DUP3 ADD SWAP2 POP DUP2 SWAP1 POP SWAP3 SWAP2 POP POP JUMP JUMPDEST PUSH32 0x4E487B7100000000000000000000000000000000000000000000000000000000 PUSH1 0x0 MSTORE PUSH1 0x11 PUSH1 0x4 MSTORE PUSH1 0x24 PUSH1 0x0 REVERT JUMPDEST PUSH1 0x0 PUSH2 0x544 DUP3 PUSH2 0x2E9 JUMP JUMPDEST SWAP2 POP PUSH32 0xFFFFFFFFFFFFFFFFFFFFFFFFFFFFFFFFFFFFFFFFFFFFFFFFFFFFFFFFFFFFFFFF DUP3 SUB PUSH2 0x576 JUMPI PUSH2 0x575 PUSH2 0x50A JUMP JUMPDEST JUMPDEST PUSH1 0x1 DUP3 ADD SWAP1 POP SWAP2 SWAP1 POP JUMP INVALID LOG2 PUSH5 0x6970667358 0x22 SLT KECCAK256 DUP15 DUP7 DUP2 CREATE 0xB2 0xC5 0xD3 0xD1 DUP7 KECCAK256 0xA9 PUSH8 0xF719BD0F68467745 PUSH8 0x9591D2D712B1A5C4 0xF6 0xAE 0x1F PUSH5 0x736F6C6343 STOP ADDMOD SLT STOP CALLER "
				},
				"gasEstimates": {
					"creation": {
						"codeDepositCost": "292600",
						"executionCost": "331",
						"totalCost": "292931"
					},
					"external": {
						"DivideString(string)": "infinite"
					}
				},
				"methodIdentifiers": {
					"DivideString(string)": "d82960f7"
				}
			},
			"storageLayout": {
				"storage": [],
				"types": null
			},
			"userdoc": {
				"kind": "user",
				"methods": {},
				"version": 1
			}
		}
	}
}