{
	"contracts/230518/bytesLength.sol": {
		"BYTES_LENGTH": {
			"abi": [
				{
					"inputs": [
						{
							"internalType": "bytes1",
							"name": "a",
							"type": "bytes1"
						}
					],
					"name": "bytes1ToString",
					"outputs": [
						{
							"internalType": "string",
							"name": "",
							"type": "string"
						}
					],
					"stateMutability": "pure",
					"type": "function"
				}
			],
			"devdoc": {
				"kind": "dev",
				"methods": {},
				"version": 1
			},
			"evm": {
				"assembly": "    /* \"contracts/230518/bytesLength.sol\":61:247  contract BYTES_LENGTH {... */\n  mstore(0x40, 0x80)\n  callvalue\n  dup1\n  iszero\n  tag_1\n  jumpi\n  0x00\n  dup1\n  revert\ntag_1:\n  pop\n  dataSize(sub_0)\n  dup1\n  dataOffset(sub_0)\n  0x00\n  codecopy\n  0x00\n  return\nstop\n\nsub_0: assembly {\n        /* \"contracts/230518/bytesLength.sol\":61:247  contract BYTES_LENGTH {... */\n      mstore(0x40, 0x80)\n      callvalue\n      dup1\n      iszero\n      tag_1\n      jumpi\n      0x00\n      dup1\n      revert\n    tag_1:\n      pop\n      jumpi(tag_2, lt(calldatasize, 0x04))\n      shr(0xe0, calldataload(0x00))\n      dup1\n      0x64ad2a73\n      eq\n      tag_3\n      jumpi\n    tag_2:\n      0x00\n      dup1\n      revert\n        /* \"contracts/230518/bytesLength.sol\":90:244  function bytes1ToString(bytes1 a) public pure returns(string memory) {... */\n    tag_3:\n      tag_4\n      0x04\n      dup1\n      calldatasize\n      sub\n      dup2\n      add\n      swap1\n      tag_5\n      swap2\n      swap1\n      tag_6\n      jump\t// in\n    tag_5:\n      tag_7\n      jump\t// in\n    tag_4:\n      mload(0x40)\n      tag_8\n      swap2\n      swap1\n      tag_9\n      jump\t// in\n    tag_8:\n      mload(0x40)\n      dup1\n      swap2\n      sub\n      swap1\n      return\n    tag_7:\n        /* \"contracts/230518/bytesLength.sol\":144:157  string memory */\n      0x60\n        /* \"contracts/230518/bytesLength.sol\":170:186  string memory _a */\n      0x00\n        /* \"contracts/230518/bytesLength.sol\":213:214  a */\n      dup3\n        /* \"contracts/230518/bytesLength.sol\":196:215  abi.encodePacked(a) */\n      add(0x20, mload(0x40))\n      tag_11\n      swap2\n      swap1\n      tag_12\n      jump\t// in\n    tag_11:\n      mload(0x40)\n      0x20\n      dup2\n      dup4\n      sub\n      sub\n      dup2\n      mstore\n      swap1\n      0x40\n      mstore\n        /* \"contracts/230518/bytesLength.sol\":170:216  string memory _a = string(abi.encodePacked(a)) */\n      swap1\n      pop\n        /* \"contracts/230518/bytesLength.sol\":234:236  _a */\n      dup1\n        /* \"contracts/230518/bytesLength.sol\":227:236  return _a */\n      swap2\n      pop\n      pop\n        /* \"contracts/230518/bytesLength.sol\":90:244  function bytes1ToString(bytes1 a) public pure returns(string memory) {... */\n      swap2\n      swap1\n      pop\n      jump\t// out\n        /* \"#utility.yul\":88:205   */\n    tag_14:\n        /* \"#utility.yul\":197:198   */\n      0x00\n        /* \"#utility.yul\":194:195   */\n      dup1\n        /* \"#utility.yul\":187:199   */\n      revert\n        /* \"#utility.yul\":334:483   */\n    tag_16:\n        /* \"#utility.yul\":370:377   */\n      0x00\n        /* \"#utility.yul\":410:476   */\n      0xff00000000000000000000000000000000000000000000000000000000000000\n        /* \"#utility.yul\":403:408   */\n      dup3\n        /* \"#utility.yul\":399:477   */\n      and\n        /* \"#utility.yul\":388:477   */\n      swap1\n      pop\n        /* \"#utility.yul\":334:483   */\n      swap2\n      swap1\n      pop\n      jump\t// out\n        /* \"#utility.yul\":489:609   */\n    tag_17:\n        /* \"#utility.yul\":561:584   */\n      tag_32\n        /* \"#utility.yul\":578:583   */\n      dup2\n        /* \"#utility.yul\":561:584   */\n      tag_16\n      jump\t// in\n    tag_32:\n        /* \"#utility.yul\":554:559   */\n      dup2\n        /* \"#utility.yul\":551:585   */\n      eq\n        /* \"#utility.yul\":541:603   */\n      tag_33\n      jumpi\n        /* \"#utility.yul\":599:600   */\n      0x00\n        /* \"#utility.yul\":596:597   */\n      dup1\n        /* \"#utility.yul\":589:601   */\n      revert\n        /* \"#utility.yul\":541:603   */\n    tag_33:\n        /* \"#utility.yul\":489:609   */\n      pop\n      jump\t// out\n        /* \"#utility.yul\":615:752   */\n    tag_18:\n        /* \"#utility.yul\":660:665   */\n      0x00\n        /* \"#utility.yul\":698:704   */\n      dup2\n        /* \"#utility.yul\":685:705   */\n      calldataload\n        /* \"#utility.yul\":676:705   */\n      swap1\n      pop\n        /* \"#utility.yul\":714:746   */\n      tag_35\n        /* \"#utility.yul\":740:745   */\n      dup2\n        /* \"#utility.yul\":714:746   */\n      tag_17\n      jump\t// in\n    tag_35:\n        /* \"#utility.yul\":615:752   */\n      swap3\n      swap2\n      pop\n      pop\n      jump\t// out\n        /* \"#utility.yul\":758:1085   */\n    tag_6:\n        /* \"#utility.yul\":816:822   */\n      0x00\n        /* \"#utility.yul\":865:867   */\n      0x20\n        /* \"#utility.yul\":853:862   */\n      dup3\n        /* \"#utility.yul\":844:851   */\n      dup5\n        /* \"#utility.yul\":840:863   */\n      sub\n        /* \"#utility.yul\":836:868   */\n      slt\n        /* \"#utility.yul\":833:952   */\n      iszero\n      tag_37\n      jumpi\n        /* \"#utility.yul\":871:950   */\n      tag_38\n      tag_14\n      jump\t// in\n    tag_38:\n        /* \"#utility.yul\":833:952   */\n    tag_37:\n        /* \"#utility.yul\":991:992   */\n      0x00\n        /* \"#utility.yul\":1016:1068   */\n      tag_39\n        /* \"#utility.yul\":1060:1067   */\n      dup5\n        /* \"#utility.yul\":1051:1057   */\n      dup3\n        /* \"#utility.yul\":1040:1049   */\n      dup6\n        /* \"#utility.yul\":1036:1058   */\n      add\n        /* \"#utility.yul\":1016:1068   */\n      tag_18\n      jump\t// in\n    tag_39:\n        /* \"#utility.yul\":1006:1068   */\n      swap2\n      pop\n        /* \"#utility.yul\":962:1078   */\n      pop\n        /* \"#utility.yul\":758:1085   */\n      swap3\n      swap2\n      pop\n      pop\n      jump\t// out\n        /* \"#utility.yul\":1091:1190   */\n    tag_19:\n        /* \"#utility.yul\":1143:1149   */\n      0x00\n        /* \"#utility.yul\":1177:1182   */\n      dup2\n        /* \"#utility.yul\":1171:1183   */\n      mload\n        /* \"#utility.yul\":1161:1183   */\n      swap1\n      pop\n        /* \"#utility.yul\":1091:1190   */\n      swap2\n      swap1\n      pop\n      jump\t// out\n        /* \"#utility.yul\":1196:1365   */\n    tag_20:\n        /* \"#utility.yul\":1280:1291   */\n      0x00\n        /* \"#utility.yul\":1314:1320   */\n      dup3\n        /* \"#utility.yul\":1309:1312   */\n      dup3\n        /* \"#utility.yul\":1302:1321   */\n      mstore\n        /* \"#utility.yul\":1354:1358   */\n      0x20\n        /* \"#utility.yul\":1349:1352   */\n      dup3\n        /* \"#utility.yul\":1345:1359   */\n      add\n        /* \"#utility.yul\":1330:1359   */\n      swap1\n      pop\n        /* \"#utility.yul\":1196:1365   */\n      swap3\n      swap2\n      pop\n      pop\n      jump\t// out\n        /* \"#utility.yul\":1371:1617   */\n    tag_21:\n        /* \"#utility.yul\":1452:1453   */\n      0x00\n        /* \"#utility.yul\":1462:1575   */\n    tag_43:\n        /* \"#utility.yul\":1476:1482   */\n      dup4\n        /* \"#utility.yul\":1473:1474   */\n      dup2\n        /* \"#utility.yul\":1470:1483   */\n      lt\n        /* \"#utility.yul\":1462:1575   */\n      iszero\n      tag_45\n      jumpi\n        /* \"#utility.yul\":1561:1562   */\n      dup1\n        /* \"#utility.yul\":1556:1559   */\n      dup3\n        /* \"#utility.yul\":1552:1563   */\n      add\n        /* \"#utility.yul\":1546:1564   */\n      mload\n        /* \"#utility.yul\":1542:1543   */\n      dup2\n        /* \"#utility.yul\":1537:1540   */\n      dup5\n        /* \"#utility.yul\":1533:1544   */\n      add\n        /* \"#utility.yul\":1526:1565   */\n      mstore\n        /* \"#utility.yul\":1498:1500   */\n      0x20\n        /* \"#utility.yul\":1495:1496   */\n      dup2\n        /* \"#utility.yul\":1491:1501   */\n      add\n        /* \"#utility.yul\":1486:1501   */\n      swap1\n      pop\n        /* \"#utility.yul\":1462:1575   */\n      jump(tag_43)\n    tag_45:\n        /* \"#utility.yul\":1609:1610   */\n      0x00\n        /* \"#utility.yul\":1600:1606   */\n      dup5\n        /* \"#utility.yul\":1595:1598   */\n      dup5\n        /* \"#utility.yul\":1591:1607   */\n      add\n        /* \"#utility.yul\":1584:1611   */\n      mstore\n        /* \"#utility.yul\":1433:1617   */\n      pop\n        /* \"#utility.yul\":1371:1617   */\n      pop\n      pop\n      pop\n      jump\t// out\n        /* \"#utility.yul\":1623:1725   */\n    tag_22:\n        /* \"#utility.yul\":1664:1670   */\n      0x00\n        /* \"#utility.yul\":1715:1717   */\n      0x1f\n        /* \"#utility.yul\":1711:1718   */\n      not\n        /* \"#utility.yul\":1706:1708   */\n      0x1f\n        /* \"#utility.yul\":1699:1704   */\n      dup4\n        /* \"#utility.yul\":1695:1709   */\n      add\n        /* \"#utility.yul\":1691:1719   */\n      and\n        /* \"#utility.yul\":1681:1719   */\n      swap1\n      pop\n        /* \"#utility.yul\":1623:1725   */\n      swap2\n      swap1\n      pop\n      jump\t// out\n        /* \"#utility.yul\":1731:2108   */\n    tag_23:\n        /* \"#utility.yul\":1819:1822   */\n      0x00\n        /* \"#utility.yul\":1847:1886   */\n      tag_48\n        /* \"#utility.yul\":1880:1885   */\n      dup3\n        /* \"#utility.yul\":1847:1886   */\n      tag_19\n      jump\t// in\n    tag_48:\n        /* \"#utility.yul\":1902:1973   */\n      tag_49\n        /* \"#utility.yul\":1966:1972   */\n      dup2\n        /* \"#utility.yul\":1961:1964   */\n      dup6\n        /* \"#utility.yul\":1902:1973   */\n      tag_20\n      jump\t// in\n    tag_49:\n        /* \"#utility.yul\":1895:1973   */\n      swap4\n      pop\n        /* \"#utility.yul\":1982:2047   */\n      tag_50\n        /* \"#utility.yul\":2040:2046   */\n      dup2\n        /* \"#utility.yul\":2035:2038   */\n      dup6\n        /* \"#utility.yul\":2028:2032   */\n      0x20\n        /* \"#utility.yul\":2021:2026   */\n      dup7\n        /* \"#utility.yul\":2017:2033   */\n      add\n        /* \"#utility.yul\":1982:2047   */\n      tag_21\n      jump\t// in\n    tag_50:\n        /* \"#utility.yul\":2072:2101   */\n      tag_51\n        /* \"#utility.yul\":2094:2100   */\n      dup2\n        /* \"#utility.yul\":2072:2101   */\n      tag_22\n      jump\t// in\n    tag_51:\n        /* \"#utility.yul\":2067:2070   */\n      dup5\n        /* \"#utility.yul\":2063:2102   */\n      add\n        /* \"#utility.yul\":2056:2102   */\n      swap2\n      pop\n        /* \"#utility.yul\":1823:2108   */\n      pop\n        /* \"#utility.yul\":1731:2108   */\n      swap3\n      swap2\n      pop\n      pop\n      jump\t// out\n        /* \"#utility.yul\":2114:2427   */\n    tag_9:\n        /* \"#utility.yul\":2227:2231   */\n      0x00\n        /* \"#utility.yul\":2265:2267   */\n      0x20\n        /* \"#utility.yul\":2254:2263   */\n      dup3\n        /* \"#utility.yul\":2250:2268   */\n      add\n        /* \"#utility.yul\":2242:2268   */\n      swap1\n      pop\n        /* \"#utility.yul\":2314:2323   */\n      dup2\n        /* \"#utility.yul\":2308:2312   */\n      dup2\n        /* \"#utility.yul\":2304:2324   */\n      sub\n        /* \"#utility.yul\":2300:2301   */\n      0x00\n        /* \"#utility.yul\":2289:2298   */\n      dup4\n        /* \"#utility.yul\":2285:2302   */\n      add\n        /* \"#utility.yul\":2278:2325   */\n      mstore\n        /* \"#utility.yul\":2342:2420   */\n      tag_53\n        /* \"#utility.yul\":2415:2419   */\n      dup2\n        /* \"#utility.yul\":2406:2412   */\n      dup5\n        /* \"#utility.yul\":2342:2420   */\n      tag_23\n      jump\t// in\n    tag_53:\n        /* \"#utility.yul\":2334:2420   */\n      swap1\n      pop\n        /* \"#utility.yul\":2114:2427   */\n      swap3\n      swap2\n      pop\n      pop\n      jump\t// out\n        /* \"#utility.yul\":2433:2511   */\n    tag_24:\n        /* \"#utility.yul\":2471:2478   */\n      0x00\n        /* \"#utility.yul\":2500:2505   */\n      dup2\n        /* \"#utility.yul\":2489:2505   */\n      swap1\n      pop\n        /* \"#utility.yul\":2433:2511   */\n      swap2\n      swap1\n      pop\n      jump\t// out\n        /* \"#utility.yul\":2517:2670   */\n    tag_25:\n        /* \"#utility.yul\":2620:2663   */\n      tag_56\n        /* \"#utility.yul\":2639:2662   */\n      tag_57\n        /* \"#utility.yul\":2656:2661   */\n      dup3\n        /* \"#utility.yul\":2639:2662   */\n      tag_16\n      jump\t// in\n    tag_57:\n        /* \"#utility.yul\":2620:2663   */\n      tag_24\n      jump\t// in\n    tag_56:\n        /* \"#utility.yul\":2615:2618   */\n      dup3\n        /* \"#utility.yul\":2608:2664   */\n      mstore\n        /* \"#utility.yul\":2517:2670   */\n      pop\n      pop\n      jump\t// out\n        /* \"#utility.yul\":2676:2927   */\n    tag_12:\n        /* \"#utility.yul\":2786:2789   */\n      0x00\n        /* \"#utility.yul\":2801:2874   */\n      tag_59\n        /* \"#utility.yul\":2870:2873   */\n      dup3\n        /* \"#utility.yul\":2861:2867   */\n      dup5\n        /* \"#utility.yul\":2801:2874   */\n      tag_25\n      jump\t// in\n    tag_59:\n        /* \"#utility.yul\":2899:2900   */\n      0x01\n        /* \"#utility.yul\":2894:2897   */\n      dup3\n        /* \"#utility.yul\":2890:2901   */\n      add\n        /* \"#utility.yul\":2883:2901   */\n      swap2\n      pop\n        /* \"#utility.yul\":2918:2921   */\n      dup2\n        /* \"#utility.yul\":2911:2921   */\n      swap1\n      pop\n        /* \"#utility.yul\":2676:2927   */\n      swap3\n      swap2\n      pop\n      pop\n      jump\t// out\n\n    auxdata: 0xa2646970667358221220037733cb21a27ee590e5e722c07f237b40cd2bb6a0c54e878c19235ba98640f764736f6c63430008120033\n}\n",
				"bytecode": {
					"linkReferences": {},
					"object": "608060405234801561001057600080fd5b5061023d806100206000396000f3fe608060405234801561001057600080fd5b506004361061002b5760003560e01c806364ad2a7314610030575b600080fd5b61004a600480360381019061004591906100ec565b610060565b60405161005791906101a9565b60405180910390f35b606060008260405160200161007591906101ec565b604051602081830303815290604052905080915050919050565b600080fd5b60007fff0000000000000000000000000000000000000000000000000000000000000082169050919050565b6100c981610094565b81146100d457600080fd5b50565b6000813590506100e6816100c0565b92915050565b6000602082840312156101025761010161008f565b5b6000610110848285016100d7565b91505092915050565b600081519050919050565b600082825260208201905092915050565b60005b83811015610153578082015181840152602081019050610138565b60008484015250505050565b6000601f19601f8301169050919050565b600061017b82610119565b6101858185610124565b9350610195818560208601610135565b61019e8161015f565b840191505092915050565b600060208201905081810360008301526101c38184610170565b905092915050565b6000819050919050565b6101e66101e182610094565b6101cb565b82525050565b60006101f882846101d5565b6001820191508190509291505056fea2646970667358221220037733cb21a27ee590e5e722c07f237b40cd2bb6a0c54e878c19235ba98640f764736f6c63430008120033",
					"opcodes": "PUSH1 0x80 PUSH1 0x40 MSTORE CALLVALUE DUP1 ISZERO PUSH2 0x10 JUMPI PUSH1 0x0 DUP1 REVERT JUMPDEST POP PUSH2 0x23D DUP1 PUSH2 0x20 PUSH1 0x0 CODECOPY PUSH1 0x0 RETURN INVALID PUSH1 0x80 PUSH1 0x40 MSTORE CALLVALUE DUP1 ISZERO PUSH2 0x10 JUMPI PUSH1 0x0 DUP1 REVERT JUMPDEST POP PUSH1 0x4 CALLDATASIZE LT PUSH2 0x2B JUMPI PUSH1 0x0 CALLDATALOAD PUSH1 0xE0 SHR DUP1 PUSH4 0x64AD2A73 EQ PUSH2 0x30 JUMPI JUMPDEST PUSH1 0x0 DUP1 REVERT JUMPDEST PUSH2 0x4A PUSH1 0x4 DUP1 CALLDATASIZE SUB DUP2 ADD SWAP1 PUSH2 0x45 SWAP2 SWAP1 PUSH2 0xEC JUMP JUMPDEST PUSH2 0x60 JUMP JUMPDEST PUSH1 0x40 MLOAD PUSH2 0x57 SWAP2 SWAP1 PUSH2 0x1A9 JUMP JUMPDEST PUSH1 0x40 MLOAD DUP1 SWAP2 SUB SWAP1 RETURN JUMPDEST PUSH1 0x60 PUSH1 0x0 DUP3 PUSH1 0x40 MLOAD PUSH1 0x20 ADD PUSH2 0x75 SWAP2 SWAP1 PUSH2 0x1EC JUMP JUMPDEST PUSH1 0x40 MLOAD PUSH1 0x20 DUP2 DUP4 SUB SUB DUP2 MSTORE SWAP1 PUSH1 0x40 MSTORE SWAP1 POP DUP1 SWAP2 POP POP SWAP2 SWAP1 POP JUMP JUMPDEST PUSH1 0x0 DUP1 REVERT JUMPDEST PUSH1 0x0 PUSH32 0xFF00000000000000000000000000000000000000000000000000000000000000 DUP3 AND SWAP1 POP SWAP2 SWAP1 POP JUMP JUMPDEST PUSH2 0xC9 DUP2 PUSH2 0x94 JUMP JUMPDEST DUP2 EQ PUSH2 0xD4 JUMPI PUSH1 0x0 DUP1 REVERT JUMPDEST POP JUMP JUMPDEST PUSH1 0x0 DUP2 CALLDATALOAD SWAP1 POP PUSH2 0xE6 DUP2 PUSH2 0xC0 JUMP JUMPDEST SWAP3 SWAP2 POP POP JUMP JUMPDEST PUSH1 0x0 PUSH1 0x20 DUP3 DUP5 SUB SLT ISZERO PUSH2 0x102 JUMPI PUSH2 0x101 PUSH2 0x8F JUMP JUMPDEST JUMPDEST PUSH1 0x0 PUSH2 0x110 DUP5 DUP3 DUP6 ADD PUSH2 0xD7 JUMP JUMPDEST SWAP2 POP POP SWAP3 SWAP2 POP POP JUMP JUMPDEST PUSH1 0x0 DUP2 MLOAD SWAP1 POP SWAP2 SWAP1 POP JUMP JUMPDEST PUSH1 0x0 DUP3 DUP3 MSTORE PUSH1 0x20 DUP3 ADD SWAP1 POP SWAP3 SWAP2 POP POP JUMP JUMPDEST PUSH1 0x0 JUMPDEST DUP4 DUP2 LT ISZERO PUSH2 0x153 JUMPI DUP1 DUP3 ADD MLOAD DUP2 DUP5 ADD MSTORE PUSH1 0x20 DUP2 ADD SWAP1 POP PUSH2 0x138 JUMP JUMPDEST PUSH1 0x0 DUP5 DUP5 ADD MSTORE POP POP POP POP JUMP JUMPDEST PUSH1 0x0 PUSH1 0x1F NOT PUSH1 0x1F DUP4 ADD AND SWAP1 POP SWAP2 SWAP1 POP JUMP JUMPDEST PUSH1 0x0 PUSH2 0x17B DUP3 PUSH2 0x119 JUMP JUMPDEST PUSH2 0x185 DUP2 DUP6 PUSH2 0x124 JUMP JUMPDEST SWAP4 POP PUSH2 0x195 DUP2 DUP6 PUSH1 0x20 DUP7 ADD PUSH2 0x135 JUMP JUMPDEST PUSH2 0x19E DUP2 PUSH2 0x15F JUMP JUMPDEST DUP5 ADD SWAP2 POP POP SWAP3 SWAP2 POP POP JUMP JUMPDEST PUSH1 0x0 PUSH1 0x20 DUP3 ADD SWAP1 POP DUP2 DUP2 SUB PUSH1 0x0 DUP4 ADD MSTORE PUSH2 0x1C3 DUP2 DUP5 PUSH2 0x170 JUMP JUMPDEST SWAP1 POP SWAP3 SWAP2 POP POP JUMP JUMPDEST PUSH1 0x0 DUP2 SWAP1 POP SWAP2 SWAP1 POP JUMP JUMPDEST PUSH2 0x1E6 PUSH2 0x1E1 DUP3 PUSH2 0x94 JUMP JUMPDEST PUSH2 0x1CB JUMP JUMPDEST DUP3 MSTORE POP POP JUMP JUMPDEST PUSH1 0x0 PUSH2 0x1F8 DUP3 DUP5 PUSH2 0x1D5 JUMP JUMPDEST PUSH1 0x1 DUP3 ADD SWAP2 POP DUP2 SWAP1 POP SWAP3 SWAP2 POP POP JUMP INVALID LOG2 PUSH5 0x6970667358 0x22 SLT KECCAK256 SUB PUSH24 0x33CB21A27EE590E5E722C07F237B40CD2BB6A0C54E878C19 0x23 JUMPDEST 0xA9 DUP7 BLOCKHASH 0xF7 PUSH5 0x736F6C6343 STOP ADDMOD SLT STOP CALLER "
				},
				"gasEstimates": {
					"creation": {
						"codeDepositCost": "114600",
						"executionCost": "159",
						"totalCost": "114759"
					},
					"external": {
						"bytes1ToString(bytes1)": "infinite"
					}
				},
				"methodIdentifiers": {
					"bytes1ToString(bytes1)": "64ad2a73"
				}
			},
			"storageLayout": {
				"storage": [],
				"types": null
			},
			"userdoc": {
				"kind": "user",
				"methods": {},
				"version": 1
			}
		}
	}
}