{
	"contracts/230518/0516Test.sol": {
		"Q4": {
			"abi": [
				{
					"inputs": [],
					"stateMutability": "nonpayable",
					"type": "constructor"
				},
				{
					"inputs": [],
					"name": "deposit",
					"outputs": [],
					"stateMutability": "payable",
					"type": "function"
				},
				{
					"inputs": [],
					"name": "gameIn",
					"outputs": [],
					"stateMutability": "payable",
					"type": "function"
				},
				{
					"inputs": [],
					"name": "gameIn2",
					"outputs": [],
					"stateMutability": "payable",
					"type": "function"
				},
				{
					"inputs": [],
					"name": "getLengthOfTop4",
					"outputs": [
						{
							"internalType": "uint256",
							"name": "",
							"type": "uint256"
						}
					],
					"stateMutability": "view",
					"type": "function"
				},
				{
					"inputs": [
						{
							"internalType": "uint256",
							"name": "_n",
							"type": "uint256"
						}
					],
					"name": "ownerWithdraw",
					"outputs": [],
					"stateMutability": "nonpayable",
					"type": "function"
				},
				{
					"inputs": [],
					"name": "ownerWithdrawAll",
					"outputs": [],
					"stateMutability": "nonpayable",
					"type": "function"
				},
				{
					"inputs": [
						{
							"internalType": "string",
							"name": "_name",
							"type": "string"
						}
					],
					"name": "register",
					"outputs": [],
					"stateMutability": "nonpayable",
					"type": "function"
				},
				{
					"inputs": [
						{
							"internalType": "address",
							"name": "_a",
							"type": "address"
						}
					],
					"name": "search",
					"outputs": [
						{
							"components": [
								{
									"internalType": "uint256",
									"name": "number",
									"type": "uint256"
								},
								{
									"internalType": "string",
									"name": "name",
									"type": "string"
								},
								{
									"internalType": "address",
									"name": "account",
									"type": "address"
								},
								{
									"internalType": "uint256",
									"name": "balance",
									"type": "uint256"
								},
								{
									"internalType": "uint256",
									"name": "score",
									"type": "uint256"
								}
							],
							"internalType": "struct Q4.User",
							"name": "",
							"type": "tuple"
						}
					],
					"stateMutability": "view",
					"type": "function"
				},
				{
					"inputs": [
						{
							"internalType": "uint256",
							"name": "",
							"type": "uint256"
						}
					],
					"name": "top4",
					"outputs": [
						{
							"internalType": "uint256",
							"name": "number",
							"type": "uint256"
						},
						{
							"internalType": "string",
							"name": "name",
							"type": "string"
						},
						{
							"internalType": "address",
							"name": "account",
							"type": "address"
						},
						{
							"internalType": "uint256",
							"name": "balance",
							"type": "uint256"
						},
						{
							"internalType": "uint256",
							"name": "score",
							"type": "uint256"
						}
					],
					"stateMutability": "view",
					"type": "function"
				},
				{
					"inputs": [
						{
							"internalType": "uint256",
							"name": "",
							"type": "uint256"
						}
					],
					"name": "top4_2",
					"outputs": [
						{
							"internalType": "uint256",
							"name": "number",
							"type": "uint256"
						},
						{
							"internalType": "string",
							"name": "name",
							"type": "string"
						},
						{
							"internalType": "address",
							"name": "account",
							"type": "address"
						},
						{
							"internalType": "uint256",
							"name": "balance",
							"type": "uint256"
						},
						{
							"internalType": "uint256",
							"name": "score",
							"type": "uint256"
						}
					],
					"stateMutability": "view",
					"type": "function"
				},
				{
					"inputs": [
						{
							"internalType": "uint256",
							"name": "_n",
							"type": "uint256"
						}
					],
					"name": "withdraw",
					"outputs": [],
					"stateMutability": "nonpayable",
					"type": "function"
				},
				{
					"inputs": [],
					"name": "withdraw_All",
					"outputs": [],
					"stateMutability": "nonpayable",
					"type": "function"
				}
			],
			"devdoc": {
				"kind": "dev",
				"methods": {},
				"version": 1
			},
			"evm": {
				"assembly": "    /* \"contracts/230518/0516Test.sol\":2027:6221  contract Q4 {... */\n  mstore(0x40, 0x80)\n    /* \"contracts/230518/0516Test.sol\":2275:2367  constructor() {... */\n  callvalue\n  dup1\n  iszero\n  tag_1\n  jumpi\n  0x00\n  dup1\n  revert\ntag_1:\n  pop\n    /* \"contracts/230518/0516Test.sol\":2316:2358  0x5B38Da6a701c568545dCfcB03FcB875f56beddC4 */\n  0x5b38da6a701c568545dcfcb03fcb875f56beddc4\n    /* \"contracts/230518/0516Test.sol\":2300:2305  owner */\n  0x02\n  0x00\n    /* \"contracts/230518/0516Test.sol\":2300:2359  owner = payable(0x5B38Da6a701c568545dCfcB03FcB875f56beddC4) */\n  0x0100\n  exp\n  dup2\n  sload\n  dup2\n  0xffffffffffffffffffffffffffffffffffffffff\n  mul\n  not\n  and\n  swap1\n  dup4\n  0xffffffffffffffffffffffffffffffffffffffff\n  and\n  mul\n  or\n  swap1\n  sstore\n  pop\n    /* \"contracts/230518/0516Test.sol\":2027:6221  contract Q4 {... */\n  dataSize(sub_0)\n  dup1\n  dataOffset(sub_0)\n  0x00\n  codecopy\n  0x00\n  return\nstop\n\nsub_0: assembly {\n        /* \"contracts/230518/0516Test.sol\":2027:6221  contract Q4 {... */\n      mstore(0x40, 0x80)\n      jumpi(tag_1, lt(calldatasize, 0x04))\n      shr(0xe0, calldataload(0x00))\n      dup1\n      0xc3c7cd6e\n      gt\n      tag_14\n      jumpi\n      dup1\n      0xc3c7cd6e\n      eq\n      tag_8\n      jumpi\n      dup1\n      0xd0e30db0\n      eq\n      tag_9\n      jumpi\n      dup1\n      0xe0d5af94\n      eq\n      tag_10\n      jumpi\n      dup1\n      0xf2c298be\n      eq\n      tag_11\n      jumpi\n      dup1\n      0xf7958e07\n      eq\n      tag_12\n      jumpi\n      dup1\n      0xfcddf3c6\n      eq\n      tag_13\n      jumpi\n      jump(tag_1)\n    tag_14:\n      dup1\n      0x2e1a7d4d\n      eq\n      tag_2\n      jumpi\n      dup1\n      0x33f707d1\n      eq\n      tag_3\n      jumpi\n      dup1\n      0x5df5db77\n      eq\n      tag_4\n      jumpi\n      dup1\n      0x657a2512\n      eq\n      tag_5\n      jumpi\n      dup1\n      0x90c847be\n      eq\n      tag_6\n      jumpi\n      dup1\n      0xb9b37224\n      eq\n      tag_7\n      jumpi\n    tag_1:\n      0x00\n      dup1\n      revert\n        /* \"contracts/230518/0516Test.sol\":4787:5141  function withdraw(uint _n) public {... */\n    tag_2:\n      callvalue\n      dup1\n      iszero\n      tag_15\n      jumpi\n      0x00\n      dup1\n      revert\n    tag_15:\n      pop\n      tag_16\n      0x04\n      dup1\n      calldatasize\n      sub\n      dup2\n      add\n      swap1\n      tag_17\n      swap2\n      swap1\n      tag_18\n      jump\t// in\n    tag_17:\n      tag_19\n      jump\t// in\n    tag_16:\n      stop\n        /* \"contracts/230518/0516Test.sol\":5735:5831  function ownerWithdraw(uint _n) public onlyOwner {... */\n    tag_3:\n      callvalue\n      dup1\n      iszero\n      tag_20\n      jumpi\n      0x00\n      dup1\n      revert\n    tag_20:\n      pop\n      tag_21\n      0x04\n      dup1\n      calldatasize\n      sub\n      dup2\n      add\n      swap1\n      tag_22\n      swap2\n      swap1\n      tag_18\n      jump\t// in\n    tag_22:\n      tag_23\n      jump\t// in\n    tag_21:\n      stop\n        /* \"contracts/230518/0516Test.sol\":2461:2479  User[] public top4 */\n    tag_4:\n      callvalue\n      dup1\n      iszero\n      tag_24\n      jumpi\n      0x00\n      dup1\n      revert\n    tag_24:\n      pop\n      tag_25\n      0x04\n      dup1\n      calldatasize\n      sub\n      dup2\n      add\n      swap1\n      tag_26\n      swap2\n      swap1\n      tag_18\n      jump\t// in\n    tag_26:\n      tag_27\n      jump\t// in\n    tag_25:\n      mload(0x40)\n      tag_28\n      swap6\n      swap5\n      swap4\n      swap3\n      swap2\n      swap1\n      tag_29\n      jump\t// in\n    tag_28:\n      mload(0x40)\n      dup1\n      swap2\n      sub\n      swap1\n      return\n        /* \"contracts/230518/0516Test.sol\":2964:3063  function search(address _a) public view returns(User memory) {... */\n    tag_5:\n      callvalue\n      dup1\n      iszero\n      tag_30\n      jumpi\n      0x00\n      dup1\n      revert\n    tag_30:\n      pop\n      tag_31\n      0x04\n      dup1\n      calldatasize\n      sub\n      dup2\n      add\n      swap1\n      tag_32\n      swap2\n      swap1\n      tag_33\n      jump\t// in\n    tag_32:\n      tag_34\n      jump\t// in\n    tag_31:\n      mload(0x40)\n      tag_35\n      swap2\n      swap1\n      tag_36\n      jump\t// in\n    tag_35:\n      mload(0x40)\n      dup1\n      swap2\n      sub\n      swap1\n      return\n        /* \"contracts/230518/0516Test.sol\":3183:3707  function gameIn() public payable {... */\n    tag_6:\n      tag_37\n      tag_38\n      jump\t// in\n    tag_37:\n      stop\n        /* \"contracts/230518/0516Test.sol\":5257:5520  function withdraw_All() public {... */\n    tag_7:\n      callvalue\n      dup1\n      iszero\n      tag_39\n      jumpi\n      0x00\n      dup1\n      revert\n    tag_39:\n      pop\n      tag_40\n      tag_41\n      jump\t// in\n    tag_40:\n      stop\n        /* \"contracts/230518/0516Test.sol\":3777:4330  function gameIn2() public payable {... */\n    tag_8:\n      tag_42\n      tag_43\n      jump\t// in\n    tag_42:\n      stop\n        /* \"contracts/230518/0516Test.sol\":6124:6218  function deposit() public payable {... */\n    tag_9:\n      tag_44\n      tag_45\n      jump\t// in\n    tag_44:\n      stop\n        /* \"contracts/230518/0516Test.sol\":5839:5940  function ownerWithdrawAll() public onlyOwner {... */\n    tag_10:\n      callvalue\n      dup1\n      iszero\n      tag_46\n      jumpi\n      0x00\n      dup1\n      revert\n    tag_46:\n      pop\n      tag_47\n      tag_48\n      jump\t// in\n    tag_47:\n      stop\n        /* \"contracts/230518/0516Test.sol\":2714:2857  function register(string memory _name) public {... */\n    tag_11:\n      callvalue\n      dup1\n      iszero\n      tag_49\n      jumpi\n      0x00\n      dup1\n      revert\n    tag_49:\n      pop\n      tag_50\n      0x04\n      dup1\n      calldatasize\n      sub\n      dup2\n      add\n      swap1\n      tag_51\n      swap2\n      swap1\n      tag_52\n      jump\t// in\n    tag_51:\n      tag_53\n      jump\t// in\n    tag_50:\n      stop\n        /* \"contracts/230518/0516Test.sol\":4478:4701  function getLengthOfTop4() public view returns(uint) {... */\n    tag_12:\n      callvalue\n      dup1\n      iszero\n      tag_54\n      jumpi\n      0x00\n      dup1\n      revert\n    tag_54:\n      pop\n      tag_55\n      tag_56\n      jump\t// in\n    tag_55:\n      mload(0x40)\n      tag_57\n      swap2\n      swap1\n      tag_58\n      jump\t// in\n    tag_57:\n      mload(0x40)\n      dup1\n      swap2\n      sub\n      swap1\n      return\n        /* \"contracts/230518/0516Test.sol\":2512:2533  User[4] public top4_2 */\n    tag_13:\n      callvalue\n      dup1\n      iszero\n      tag_59\n      jumpi\n      0x00\n      dup1\n      revert\n    tag_59:\n      pop\n      tag_60\n      0x04\n      dup1\n      calldatasize\n      sub\n      dup2\n      add\n      swap1\n      tag_61\n      swap2\n      swap1\n      tag_18\n      jump\t// in\n    tag_61:\n      tag_62\n      jump\t// in\n    tag_60:\n      mload(0x40)\n      tag_63\n      swap6\n      swap5\n      swap4\n      swap3\n      swap2\n      swap1\n      tag_29\n      jump\t// in\n    tag_63:\n      mload(0x40)\n      dup1\n      swap2\n      sub\n      swap1\n      return\n        /* \"contracts/230518/0516Test.sol\":4787:5141  function withdraw(uint _n) public {... */\n    tag_19:\n        /* \"contracts/230518/0516Test.sol\":4893:4894  0 */\n      0x00\n        /* \"contracts/230518/0516Test.sol\":4889:4891  10 */\n      0x0a\n        /* \"contracts/230518/0516Test.sol\":4886:4888  _n */\n      dup3\n        /* \"contracts/230518/0516Test.sol\":4886:4891  _n%10 */\n      tag_65\n      swap2\n      swap1\n      tag_66\n      jump\t// in\n    tag_65:\n        /* \"contracts/230518/0516Test.sol\":4886:4894  _n%10==0 */\n      eq\n        /* \"contracts/230518/0516Test.sol\":4886:4930  _n%10==0 && userList[msg.sender].score >= _n */\n      dup1\n      iszero\n      tag_67\n      jumpi\n      pop\n        /* \"contracts/230518/0516Test.sol\":4928:4930  _n */\n      dup1\n        /* \"contracts/230518/0516Test.sol\":4898:4906  userList */\n      0x00\n        /* \"contracts/230518/0516Test.sol\":4898:4918  userList[msg.sender] */\n      dup1\n        /* \"contracts/230518/0516Test.sol\":4907:4917  msg.sender */\n      caller\n        /* \"contracts/230518/0516Test.sol\":4898:4918  userList[msg.sender] */\n      0xffffffffffffffffffffffffffffffffffffffff\n      and\n      0xffffffffffffffffffffffffffffffffffffffff\n      and\n      dup2\n      mstore\n      0x20\n      add\n      swap1\n      dup2\n      mstore\n      0x20\n      add\n      0x00\n      keccak256\n        /* \"contracts/230518/0516Test.sol\":4898:4924  userList[msg.sender].score */\n      0x04\n      add\n      sload\n        /* \"contracts/230518/0516Test.sol\":4898:4930  userList[msg.sender].score >= _n */\n      lt\n      iszero\n        /* \"contracts/230518/0516Test.sol\":4886:4930  _n%10==0 && userList[msg.sender].score >= _n */\n    tag_67:\n        /* \"contracts/230518/0516Test.sol\":4878:4931  require(_n%10==0 && userList[msg.sender].score >= _n) */\n      tag_68\n      jumpi\n      0x00\n      dup1\n      revert\n    tag_68:\n        /* \"contracts/230518/0516Test.sol\":5075:5077  _n */\n      dup1\n        /* \"contracts/230518/0516Test.sol\":5045:5053  userList */\n      0x00\n        /* \"contracts/230518/0516Test.sol\":5045:5065  userList[msg.sender] */\n      dup1\n        /* \"contracts/230518/0516Test.sol\":5054:5064  msg.sender */\n      caller\n        /* \"contracts/230518/0516Test.sol\":5045:5065  userList[msg.sender] */\n      0xffffffffffffffffffffffffffffffffffffffff\n      and\n      0xffffffffffffffffffffffffffffffffffffffff\n      and\n      dup2\n      mstore\n      0x20\n      add\n      swap1\n      dup2\n      mstore\n      0x20\n      add\n      0x00\n      keccak256\n        /* \"contracts/230518/0516Test.sol\":5045:5071  userList[msg.sender].score */\n      0x04\n      add\n      0x00\n        /* \"contracts/230518/0516Test.sol\":5045:5077  userList[msg.sender].score -= _n */\n      dup3\n      dup3\n      sload\n      tag_69\n      swap2\n      swap1\n      tag_70\n      jump\t// in\n    tag_69:\n      swap3\n      pop\n      pop\n      dup2\n      swap1\n      sstore\n      pop\n        /* \"contracts/230518/0516Test.sol\":5096:5106  msg.sender */\n      caller\n        /* \"contracts/230518/0516Test.sol\":5088:5116  payable(msg.sender).transfer */\n      0xffffffffffffffffffffffffffffffffffffffff\n      and\n        /* \"contracts/230518/0516Test.sol\":5088:5133  payable(msg.sender).transfer(_n%10*0.1 ether) */\n      0x08fc\n        /* \"contracts/230518/0516Test.sol\":5123:5132  0.1 ether */\n      0x016345785d8a0000\n        /* \"contracts/230518/0516Test.sol\":5120:5122  10 */\n      0x0a\n        /* \"contracts/230518/0516Test.sol\":5117:5119  _n */\n      dup5\n        /* \"contracts/230518/0516Test.sol\":5117:5122  _n%10 */\n      tag_71\n      swap2\n      swap1\n      tag_66\n      jump\t// in\n    tag_71:\n        /* \"contracts/230518/0516Test.sol\":5117:5132  _n%10*0.1 ether */\n      tag_72\n      swap2\n      swap1\n      tag_73\n      jump\t// in\n    tag_72:\n        /* \"contracts/230518/0516Test.sol\":5088:5133  payable(msg.sender).transfer(_n%10*0.1 ether) */\n      swap1\n      dup2\n      iszero\n      mul\n      swap1\n      mload(0x40)\n      0x00\n      mload(0x40)\n      dup1\n      dup4\n      sub\n      dup2\n      dup6\n      dup9\n      dup9\n      call\n      swap4\n      pop\n      pop\n      pop\n      pop\n      iszero\n      dup1\n      iszero\n      tag_75\n      jumpi\n      returndatasize\n      0x00\n      dup1\n      returndatacopy\n      revert(0x00, returndatasize)\n    tag_75:\n      pop\n        /* \"contracts/230518/0516Test.sol\":4787:5141  function withdraw(uint _n) public {... */\n      pop\n      jump\t// out\n        /* \"contracts/230518/0516Test.sol\":5735:5831  function ownerWithdraw(uint _n) public onlyOwner {... */\n    tag_23:\n        /* \"contracts/230518/0516Test.sol\":2427:2432  owner */\n      0x02\n      0x00\n      swap1\n      sload\n      swap1\n      0x0100\n      exp\n      swap1\n      div\n      0xffffffffffffffffffffffffffffffffffffffff\n      and\n        /* \"contracts/230518/0516Test.sol\":2413:2432  msg.sender == owner */\n      0xffffffffffffffffffffffffffffffffffffffff\n      and\n        /* \"contracts/230518/0516Test.sol\":2413:2423  msg.sender */\n      caller\n        /* \"contracts/230518/0516Test.sol\":2413:2432  msg.sender == owner */\n      0xffffffffffffffffffffffffffffffffffffffff\n      and\n      eq\n        /* \"contracts/230518/0516Test.sol\":2405:2433  require(msg.sender == owner) */\n      tag_77\n      jumpi\n      0x00\n      dup1\n      revert\n    tag_77:\n        /* \"contracts/230518/0516Test.sol\":5795:5800  owner */\n      0x02\n      0x00\n      swap1\n      sload\n      swap1\n      0x0100\n      exp\n      swap1\n      div\n      0xffffffffffffffffffffffffffffffffffffffff\n      and\n        /* \"contracts/230518/0516Test.sol\":5795:5809  owner.transfer */\n      0xffffffffffffffffffffffffffffffffffffffff\n      and\n        /* \"contracts/230518/0516Test.sol\":5795:5823  owner.transfer(_n * 1 ether) */\n      0x08fc\n        /* \"contracts/230518/0516Test.sol\":5815:5822  1 ether */\n      0x0de0b6b3a7640000\n        /* \"contracts/230518/0516Test.sol\":5810:5812  _n */\n      dup4\n        /* \"contracts/230518/0516Test.sol\":5810:5822  _n * 1 ether */\n      tag_79\n      swap2\n      swap1\n      tag_73\n      jump\t// in\n    tag_79:\n        /* \"contracts/230518/0516Test.sol\":5795:5823  owner.transfer(_n * 1 ether) */\n      swap1\n      dup2\n      iszero\n      mul\n      swap1\n      mload(0x40)\n      0x00\n      mload(0x40)\n      dup1\n      dup4\n      sub\n      dup2\n      dup6\n      dup9\n      dup9\n      call\n      swap4\n      pop\n      pop\n      pop\n      pop\n      iszero\n      dup1\n      iszero\n      tag_81\n      jumpi\n      returndatasize\n      0x00\n      dup1\n      returndatacopy\n      revert(0x00, returndatasize)\n    tag_81:\n      pop\n        /* \"contracts/230518/0516Test.sol\":5735:5831  function ownerWithdraw(uint _n) public onlyOwner {... */\n      pop\n      jump\t// out\n        /* \"contracts/230518/0516Test.sol\":2461:2479  User[] public top4 */\n    tag_27:\n      0x03\n      dup2\n      dup2\n      sload\n      dup2\n      lt\n      tag_82\n      jumpi\n      0x00\n      dup1\n      revert\n    tag_82:\n      swap1\n      0x00\n      mstore\n      keccak256(0x00, 0x20)\n      swap1\n      0x05\n      mul\n      add\n      0x00\n      swap2\n      pop\n      swap1\n      pop\n      dup1\n      0x00\n      add\n      sload\n      swap1\n      dup1\n      0x01\n      add\n      dup1\n      sload\n      tag_84\n      swap1\n      tag_85\n      jump\t// in\n    tag_84:\n      dup1\n      0x1f\n      add\n      0x20\n      dup1\n      swap2\n      div\n      mul\n      0x20\n      add\n      mload(0x40)\n      swap1\n      dup2\n      add\n      0x40\n      mstore\n      dup1\n      swap3\n      swap2\n      swap1\n      dup2\n      dup2\n      mstore\n      0x20\n      add\n      dup3\n      dup1\n      sload\n      tag_86\n      swap1\n      tag_85\n      jump\t// in\n    tag_86:\n      dup1\n      iszero\n      tag_87\n      jumpi\n      dup1\n      0x1f\n      lt\n      tag_88\n      jumpi\n      0x0100\n      dup1\n      dup4\n      sload\n      div\n      mul\n      dup4\n      mstore\n      swap2\n      0x20\n      add\n      swap2\n      jump(tag_87)\n    tag_88:\n      dup3\n      add\n      swap2\n      swap1\n      0x00\n      mstore\n      keccak256(0x00, 0x20)\n      swap1\n    tag_89:\n      dup2\n      sload\n      dup2\n      mstore\n      swap1\n      0x01\n      add\n      swap1\n      0x20\n      add\n      dup1\n      dup4\n      gt\n      tag_89\n      jumpi\n      dup3\n      swap1\n      sub\n      0x1f\n      and\n      dup3\n      add\n      swap2\n    tag_87:\n      pop\n      pop\n      pop\n      pop\n      pop\n      swap1\n      dup1\n      0x02\n      add\n      0x00\n      swap1\n      sload\n      swap1\n      0x0100\n      exp\n      swap1\n      div\n      0xffffffffffffffffffffffffffffffffffffffff\n      and\n      swap1\n      dup1\n      0x03\n      add\n      sload\n      swap1\n      dup1\n      0x04\n      add\n      sload\n      swap1\n      pop\n      dup6\n      jump\t// out\n        /* \"contracts/230518/0516Test.sol\":2964:3063  function search(address _a) public view returns(User memory) {... */\n    tag_34:\n        /* \"contracts/230518/0516Test.sol\":3012:3023  User memory */\n      tag_90\n      tag_91\n      jump\t// in\n    tag_90:\n        /* \"contracts/230518/0516Test.sol\":3043:3051  userList */\n      0x00\n        /* \"contracts/230518/0516Test.sol\":3043:3055  userList[_a] */\n      dup1\n        /* \"contracts/230518/0516Test.sol\":3052:3054  _a */\n      dup4\n        /* \"contracts/230518/0516Test.sol\":3043:3055  userList[_a] */\n      0xffffffffffffffffffffffffffffffffffffffff\n      and\n      0xffffffffffffffffffffffffffffffffffffffff\n      and\n      dup2\n      mstore\n      0x20\n      add\n      swap1\n      dup2\n      mstore\n      0x20\n      add\n      0x00\n      keccak256\n        /* \"contracts/230518/0516Test.sol\":3036:3055  return userList[_a] */\n      mload(0x40)\n      dup1\n      0xa0\n      add\n      0x40\n      mstore\n      swap1\n      dup2\n      0x00\n      dup3\n      add\n      sload\n      dup2\n      mstore\n      0x20\n      add\n      0x01\n      dup3\n      add\n      dup1\n      sload\n      tag_93\n      swap1\n      tag_85\n      jump\t// in\n    tag_93:\n      dup1\n      0x1f\n      add\n      0x20\n      dup1\n      swap2\n      div\n      mul\n      0x20\n      add\n      mload(0x40)\n      swap1\n      dup2\n      add\n      0x40\n      mstore\n      dup1\n      swap3\n      swap2\n      swap1\n      dup2\n      dup2\n      mstore\n      0x20\n      add\n      dup3\n      dup1\n      sload\n      tag_94\n      swap1\n      tag_85\n      jump\t// in\n    tag_94:\n      dup1\n      iszero\n      tag_95\n      jumpi\n      dup1\n      0x1f\n      lt\n      tag_96\n      jumpi\n      0x0100\n      dup1\n      dup4\n      sload\n      div\n      mul\n      dup4\n      mstore\n      swap2\n      0x20\n      add\n      swap2\n      jump(tag_95)\n    tag_96:\n      dup3\n      add\n      swap2\n      swap1\n      0x00\n      mstore\n      keccak256(0x00, 0x20)\n      swap1\n    tag_97:\n      dup2\n      sload\n      dup2\n      mstore\n      swap1\n      0x01\n      add\n      swap1\n      0x20\n      add\n      dup1\n      dup4\n      gt\n      tag_97\n      jumpi\n      dup3\n      swap1\n      sub\n      0x1f\n      and\n      dup3\n      add\n      swap2\n    tag_95:\n      pop\n      pop\n      pop\n      pop\n      pop\n      dup2\n      mstore\n      0x20\n      add\n      0x02\n      dup3\n      add\n      0x00\n      swap1\n      sload\n      swap1\n      0x0100\n      exp\n      swap1\n      div\n      0xffffffffffffffffffffffffffffffffffffffff\n      and\n      0xffffffffffffffffffffffffffffffffffffffff\n      and\n      0xffffffffffffffffffffffffffffffffffffffff\n      and\n      dup2\n      mstore\n      0x20\n      add\n      0x03\n      dup3\n      add\n      sload\n      dup2\n      mstore\n      0x20\n      add\n      0x04\n      dup3\n      add\n      sload\n      dup2\n      mstore\n      pop\n      pop\n      swap1\n      pop\n        /* \"contracts/230518/0516Test.sol\":2964:3063  function search(address _a) public view returns(User memory) {... */\n      swap2\n      swap1\n      pop\n      jump\t// out\n        /* \"contracts/230518/0516Test.sol\":3183:3707  function gameIn() public payable {... */\n    tag_38:\n        /* \"contracts/230518/0516Test.sol\":3268:3274  10**16 */\n      0x2386f26fc10000\n        /* \"contracts/230518/0516Test.sol\":3236:3244  userList */\n      0x00\n        /* \"contracts/230518/0516Test.sol\":3236:3256  userList[msg.sender] */\n      dup1\n        /* \"contracts/230518/0516Test.sol\":3245:3255  msg.sender */\n      caller\n        /* \"contracts/230518/0516Test.sol\":3236:3256  userList[msg.sender] */\n      0xffffffffffffffffffffffffffffffffffffffff\n      and\n      0xffffffffffffffffffffffffffffffffffffffff\n      and\n      dup2\n      mstore\n      0x20\n      add\n      swap1\n      dup2\n      mstore\n      0x20\n      add\n      0x00\n      keccak256\n        /* \"contracts/230518/0516Test.sol\":3236:3264  userList[msg.sender].balance */\n      0x03\n      add\n      sload\n        /* \"contracts/230518/0516Test.sol\":3236:3274  userList[msg.sender].balance >= 10**16 */\n      lt\n      iszero\n        /* \"contracts/230518/0516Test.sol\":3236:3290  userList[msg.sender].balance >= 10**16 && msg.value==0 */\n      dup1\n      iszero\n      tag_99\n      jumpi\n      pop\n        /* \"contracts/230518/0516Test.sol\":3289:3290  0 */\n      0x00\n        /* \"contracts/230518/0516Test.sol\":3278:3287  msg.value */\n      callvalue\n        /* \"contracts/230518/0516Test.sol\":3278:3290  msg.value==0 */\n      eq\n        /* \"contracts/230518/0516Test.sol\":3236:3290  userList[msg.sender].balance >= 10**16 && msg.value==0 */\n    tag_99:\n        /* \"contracts/230518/0516Test.sol\":3235:3318  (userList[msg.sender].balance >= 10**16 && msg.value==0) || msg.value == 0.01 ether */\n      dup1\n      tag_100\n      jumpi\n      pop\n        /* \"contracts/230518/0516Test.sol\":3308:3318  0.01 ether */\n      0x2386f26fc10000\n        /* \"contracts/230518/0516Test.sol\":3295:3304  msg.value */\n      callvalue\n        /* \"contracts/230518/0516Test.sol\":3295:3318  msg.value == 0.01 ether */\n      eq\n        /* \"contracts/230518/0516Test.sol\":3235:3318  (userList[msg.sender].balance >= 10**16 && msg.value==0) || msg.value == 0.01 ether */\n    tag_100:\n        /* \"contracts/230518/0516Test.sol\":3227:3319  require((userList[msg.sender].balance >= 10**16 && msg.value==0) || msg.value == 0.01 ether) */\n      tag_101\n      jumpi\n      0x00\n      dup1\n      revert\n    tag_101:\n        /* \"contracts/230518/0516Test.sol\":3346:3347  0 */\n      0x00\n        /* \"contracts/230518/0516Test.sol\":3335:3344  msg.value */\n      callvalue\n        /* \"contracts/230518/0516Test.sol\":3335:3347  msg.value==0 */\n      sub\n        /* \"contracts/230518/0516Test.sol\":3332:3414  if(msg.value==0) {... */\n      tag_102\n      jumpi\n        /* \"contracts/230518/0516Test.sol\":3396:3402  10**16 */\n      0x2386f26fc10000\n        /* \"contracts/230518/0516Test.sol\":3364:3372  userList */\n      0x00\n        /* \"contracts/230518/0516Test.sol\":3364:3384  userList[msg.sender] */\n      dup1\n        /* \"contracts/230518/0516Test.sol\":3373:3383  msg.sender */\n      caller\n        /* \"contracts/230518/0516Test.sol\":3364:3384  userList[msg.sender] */\n      0xffffffffffffffffffffffffffffffffffffffff\n      and\n      0xffffffffffffffffffffffffffffffffffffffff\n      and\n      dup2\n      mstore\n      0x20\n      add\n      swap1\n      dup2\n      mstore\n      0x20\n      add\n      0x00\n      keccak256\n        /* \"contracts/230518/0516Test.sol\":3364:3392  userList[msg.sender].balance */\n      0x03\n      add\n      0x00\n        /* \"contracts/230518/0516Test.sol\":3364:3402  userList[msg.sender].balance -= 10**16 */\n      dup3\n      dup3\n      sload\n      tag_103\n      swap2\n      swap1\n      tag_70\n      jump\t// in\n    tag_103:\n      swap3\n      pop\n      pop\n      dup2\n      swap1\n      sstore\n      pop\n        /* \"contracts/230518/0516Test.sol\":3332:3414  if(msg.value==0) {... */\n    tag_102:\n        /* \"contracts/230518/0516Test.sol\":3444:3445  4 */\n      0x04\n        /* \"contracts/230518/0516Test.sol\":3429:3433  top4 */\n      0x03\n        /* \"contracts/230518/0516Test.sol\":3429:3440  top4.length */\n      dup1\n      sload\n      swap1\n      pop\n        /* \"contracts/230518/0516Test.sol\":3429:3445  top4.length == 4 */\n      sub\n        /* \"contracts/230518/0516Test.sol\":3426:3656  if(top4.length == 4) {... */\n      tag_104\n      jumpi\n        /* \"contracts/230518/0516Test.sol\":3466:3472  uint i */\n      0x00\n        /* \"contracts/230518/0516Test.sol\":3473:3474  4 */\n      0x04\n        /* \"contracts/230518/0516Test.sol\":3466:3474  uint i=4 */\n      swap1\n      pop\n        /* \"contracts/230518/0516Test.sol\":3462:3618  for(uint i=4;i>0;i--) {... */\n    tag_105:\n        /* \"contracts/230518/0516Test.sol\":3477:3478  0 */\n      0x00\n        /* \"contracts/230518/0516Test.sol\":3475:3476  i */\n      dup2\n        /* \"contracts/230518/0516Test.sol\":3475:3478  i>0 */\n      gt\n        /* \"contracts/230518/0516Test.sol\":3462:3618  for(uint i=4;i>0;i--) {... */\n      iszero\n      tag_106\n      jumpi\n        /* \"contracts/230518/0516Test.sol\":3542:3543  i */\n      dup1\n        /* \"contracts/230518/0516Test.sol\":3540:3541  5 */\n      0x05\n        /* \"contracts/230518/0516Test.sol\":3540:3543  5-i */\n      tag_108\n      swap2\n      swap1\n      tag_70\n      jump\t// in\n    tag_108:\n        /* \"contracts/230518/0516Test.sol\":3503:3511  userList */\n      0x00\n        /* \"contracts/230518/0516Test.sol\":3503:3530  userList[top4[i-1].account] */\n      dup1\n        /* \"contracts/230518/0516Test.sol\":3512:3516  top4 */\n      0x03\n        /* \"contracts/230518/0516Test.sol\":3519:3520  1 */\n      0x01\n        /* \"contracts/230518/0516Test.sol\":3517:3518  i */\n      dup6\n        /* \"contracts/230518/0516Test.sol\":3517:3520  i-1 */\n      tag_109\n      swap2\n      swap1\n      tag_70\n      jump\t// in\n    tag_109:\n        /* \"contracts/230518/0516Test.sol\":3512:3521  top4[i-1] */\n      dup2\n      sload\n      dup2\n      lt\n      tag_110\n      jumpi\n      tag_111\n      tag_112\n      jump\t// in\n    tag_111:\n    tag_110:\n      swap1\n      0x00\n      mstore\n      keccak256(0x00, 0x20)\n      swap1\n      0x05\n      mul\n      add\n        /* \"contracts/230518/0516Test.sol\":3512:3529  top4[i-1].account */\n      0x02\n      add\n      0x00\n      swap1\n      sload\n      swap1\n      0x0100\n      exp\n      swap1\n      div\n      0xffffffffffffffffffffffffffffffffffffffff\n      and\n        /* \"contracts/230518/0516Test.sol\":3503:3530  userList[top4[i-1].account] */\n      0xffffffffffffffffffffffffffffffffffffffff\n      and\n      0xffffffffffffffffffffffffffffffffffffffff\n      and\n      dup2\n      mstore\n      0x20\n      add\n      swap1\n      dup2\n      mstore\n      0x20\n      add\n      0x00\n      keccak256\n        /* \"contracts/230518/0516Test.sol\":3503:3536  userList[top4[i-1].account].score */\n      0x04\n      add\n      0x00\n        /* \"contracts/230518/0516Test.sol\":3503:3543  userList[top4[i-1].account].score += 5-i */\n      dup3\n      dup3\n      sload\n      tag_114\n      swap2\n      swap1\n      tag_115\n      jump\t// in\n    tag_114:\n      swap3\n      pop\n      pop\n      dup2\n      swap1\n      sstore\n      pop\n        /* \"contracts/230518/0516Test.sol\":3479:3482  i-- */\n      dup1\n      dup1\n      tag_116\n      swap1\n      tag_117\n      jump\t// in\n    tag_116:\n      swap2\n      pop\n      pop\n        /* \"contracts/230518/0516Test.sol\":3462:3618  for(uint i=4;i>0;i--) {... */\n      jump(tag_105)\n    tag_106:\n      pop\n        /* \"contracts/230518/0516Test.sol\":3639:3643  top4 */\n      0x03\n      0x00\n        /* \"contracts/230518/0516Test.sol\":3632:3643  delete top4 */\n      tag_118\n      swap2\n      swap1\n      tag_119\n      jump\t// in\n    tag_118:\n        /* \"contracts/230518/0516Test.sol\":3426:3656  if(top4.length == 4) {... */\n    tag_104:\n        /* \"contracts/230518/0516Test.sol\":3668:3672  top4 */\n      0x03\n        /* \"contracts/230518/0516Test.sol\":3678:3686  userList */\n      0x00\n        /* \"contracts/230518/0516Test.sol\":3678:3698  userList[msg.sender] */\n      dup1\n        /* \"contracts/230518/0516Test.sol\":3687:3697  msg.sender */\n      caller\n        /* \"contracts/230518/0516Test.sol\":3678:3698  userList[msg.sender] */\n      0xffffffffffffffffffffffffffffffffffffffff\n      and\n      0xffffffffffffffffffffffffffffffffffffffff\n      and\n      dup2\n      mstore\n      0x20\n      add\n      swap1\n      dup2\n      mstore\n      0x20\n      add\n      0x00\n      keccak256\n        /* \"contracts/230518/0516Test.sol\":3668:3699  top4.push(userList[msg.sender]) */\n      swap1\n      dup1\n      0x01\n      dup2\n      sload\n      add\n      dup1\n      dup3\n      sstore\n      dup1\n      swap2\n      pop\n      pop\n      0x01\n      swap1\n      sub\n      swap1\n      0x00\n      mstore\n      keccak256(0x00, 0x20)\n      swap1\n      0x05\n      mul\n      add\n      0x00\n      swap1\n      swap2\n      swap1\n      swap2\n      swap1\n      swap2\n      pop\n      0x00\n      dup3\n      add\n      sload\n      dup2\n      0x00\n      add\n      sstore\n      0x01\n      dup3\n      add\n      dup2\n      0x01\n      add\n      swap1\n      dup2\n      tag_121\n      swap2\n      swap1\n      tag_122\n      jump\t// in\n    tag_121:\n      pop\n      0x02\n      dup3\n      add\n      0x00\n      swap1\n      sload\n      swap1\n      0x0100\n      exp\n      swap1\n      div\n      0xffffffffffffffffffffffffffffffffffffffff\n      and\n      dup2\n      0x02\n      add\n      exp(0x0100, 0x00)\n      dup2\n      sload\n      dup2\n      0xffffffffffffffffffffffffffffffffffffffff\n      mul\n      not\n      and\n      swap1\n      dup4\n      0xffffffffffffffffffffffffffffffffffffffff\n      and\n      mul\n      or\n      swap1\n      sstore\n      pop\n      0x03\n      dup3\n      add\n      sload\n      dup2\n      0x03\n      add\n      sstore\n      0x04\n      dup3\n      add\n      sload\n      dup2\n      0x04\n      add\n      sstore\n      pop\n      pop\n        /* \"contracts/230518/0516Test.sol\":3183:3707  function gameIn() public payable {... */\n      jump\t// out\n        /* \"contracts/230518/0516Test.sol\":5257:5520  function withdraw_All() public {... */\n    tag_41:\n        /* \"contracts/230518/0516Test.sol\":5337:5339  10 */\n      0x0a\n        /* \"contracts/230518/0516Test.sol\":5307:5315  userList */\n      0x00\n        /* \"contracts/230518/0516Test.sol\":5307:5327  userList[msg.sender] */\n      dup1\n        /* \"contracts/230518/0516Test.sol\":5316:5326  msg.sender */\n      caller\n        /* \"contracts/230518/0516Test.sol\":5307:5327  userList[msg.sender] */\n      0xffffffffffffffffffffffffffffffffffffffff\n      and\n      0xffffffffffffffffffffffffffffffffffffffff\n      and\n      dup2\n      mstore\n      0x20\n      add\n      swap1\n      dup2\n      mstore\n      0x20\n      add\n      0x00\n      keccak256\n        /* \"contracts/230518/0516Test.sol\":5307:5333  userList[msg.sender].score */\n      0x04\n      add\n      sload\n        /* \"contracts/230518/0516Test.sol\":5307:5339  userList[msg.sender].score >= 10 */\n      lt\n      iszero\n        /* \"contracts/230518/0516Test.sol\":5299:5340  require(userList[msg.sender].score >= 10) */\n      tag_124\n      jumpi\n      0x00\n      dup1\n      revert\n    tag_124:\n        /* \"contracts/230518/0516Test.sol\":5351:5357  uint a */\n      0x00\n        /* \"contracts/230518/0516Test.sol\":5388:5390  10 */\n      0x0a\n        /* \"contracts/230518/0516Test.sol\":5360:5368  userList */\n      0x00\n        /* \"contracts/230518/0516Test.sol\":5360:5380  userList[msg.sender] */\n      dup1\n        /* \"contracts/230518/0516Test.sol\":5369:5379  msg.sender */\n      caller\n        /* \"contracts/230518/0516Test.sol\":5360:5380  userList[msg.sender] */\n      0xffffffffffffffffffffffffffffffffffffffff\n      and\n      0xffffffffffffffffffffffffffffffffffffffff\n      and\n      dup2\n      mstore\n      0x20\n      add\n      swap1\n      dup2\n      mstore\n      0x20\n      add\n      0x00\n      keccak256\n        /* \"contracts/230518/0516Test.sol\":5360:5386  userList[msg.sender].score */\n      0x04\n      add\n      sload\n        /* \"contracts/230518/0516Test.sol\":5360:5390  userList[msg.sender].score /10 */\n      tag_125\n      swap2\n      swap1\n      tag_126\n      jump\t// in\n    tag_125:\n        /* \"contracts/230518/0516Test.sol\":5351:5390  uint a = userList[msg.sender].score /10 */\n      swap1\n      pop\n        /* \"contracts/230518/0516Test.sol\":5457:5459  10 */\n      0x0a\n        /* \"contracts/230518/0516Test.sol\":5430:5438  userList */\n      0x00\n        /* \"contracts/230518/0516Test.sol\":5430:5450  userList[msg.sender] */\n      dup1\n        /* \"contracts/230518/0516Test.sol\":5439:5449  msg.sender */\n      caller\n        /* \"contracts/230518/0516Test.sol\":5430:5450  userList[msg.sender] */\n      0xffffffffffffffffffffffffffffffffffffffff\n      and\n      0xffffffffffffffffffffffffffffffffffffffff\n      and\n      dup2\n      mstore\n      0x20\n      add\n      swap1\n      dup2\n      mstore\n      0x20\n      add\n      0x00\n      keccak256\n        /* \"contracts/230518/0516Test.sol\":5430:5456  userList[msg.sender].score */\n      0x04\n      add\n      sload\n        /* \"contracts/230518/0516Test.sol\":5430:5459  userList[msg.sender].score%10 */\n      tag_127\n      swap2\n      swap1\n      tag_66\n      jump\t// in\n    tag_127:\n        /* \"contracts/230518/0516Test.sol\":5401:5409  userList */\n      0x00\n        /* \"contracts/230518/0516Test.sol\":5401:5421  userList[msg.sender] */\n      dup1\n        /* \"contracts/230518/0516Test.sol\":5410:5420  msg.sender */\n      caller\n        /* \"contracts/230518/0516Test.sol\":5401:5421  userList[msg.sender] */\n      0xffffffffffffffffffffffffffffffffffffffff\n      and\n      0xffffffffffffffffffffffffffffffffffffffff\n      and\n      dup2\n      mstore\n      0x20\n      add\n      swap1\n      dup2\n      mstore\n      0x20\n      add\n      0x00\n      keccak256\n        /* \"contracts/230518/0516Test.sol\":5401:5427  userList[msg.sender].score */\n      0x04\n      add\n        /* \"contracts/230518/0516Test.sol\":5401:5459  userList[msg.sender].score = userList[msg.sender].score%10 */\n      dup2\n      swap1\n      sstore\n      pop\n        /* \"contracts/230518/0516Test.sol\":5478:5488  msg.sender */\n      caller\n        /* \"contracts/230518/0516Test.sol\":5470:5498  payable(msg.sender).transfer */\n      0xffffffffffffffffffffffffffffffffffffffff\n      and\n        /* \"contracts/230518/0516Test.sol\":5470:5512  payable(msg.sender).transfer(a* 0.1 ether) */\n      0x08fc\n        /* \"contracts/230518/0516Test.sol\":5502:5511  0.1 ether */\n      0x016345785d8a0000\n        /* \"contracts/230518/0516Test.sol\":5499:5500  a */\n      dup4\n        /* \"contracts/230518/0516Test.sol\":5499:5511  a* 0.1 ether */\n      tag_128\n      swap2\n      swap1\n      tag_73\n      jump\t// in\n    tag_128:\n        /* \"contracts/230518/0516Test.sol\":5470:5512  payable(msg.sender).transfer(a* 0.1 ether) */\n      swap1\n      dup2\n      iszero\n      mul\n      swap1\n      mload(0x40)\n      0x00\n      mload(0x40)\n      dup1\n      dup4\n      sub\n      dup2\n      dup6\n      dup9\n      dup9\n      call\n      swap4\n      pop\n      pop\n      pop\n      pop\n      iszero\n      dup1\n      iszero\n      tag_130\n      jumpi\n      returndatasize\n      0x00\n      dup1\n      returndatacopy\n      revert(0x00, returndatasize)\n    tag_130:\n      pop\n        /* \"contracts/230518/0516Test.sol\":5288:5520  {... */\n      pop\n        /* \"contracts/230518/0516Test.sol\":5257:5520  function withdraw_All() public {... */\n      jump\t// out\n        /* \"contracts/230518/0516Test.sol\":3777:4330  function gameIn2() public payable {... */\n    tag_43:\n        /* \"contracts/230518/0516Test.sol\":3863:3869  10**16 */\n      0x2386f26fc10000\n        /* \"contracts/230518/0516Test.sol\":3831:3839  userList */\n      0x00\n        /* \"contracts/230518/0516Test.sol\":3831:3851  userList[msg.sender] */\n      dup1\n        /* \"contracts/230518/0516Test.sol\":3840:3850  msg.sender */\n      caller\n        /* \"contracts/230518/0516Test.sol\":3831:3851  userList[msg.sender] */\n      0xffffffffffffffffffffffffffffffffffffffff\n      and\n      0xffffffffffffffffffffffffffffffffffffffff\n      and\n      dup2\n      mstore\n      0x20\n      add\n      swap1\n      dup2\n      mstore\n      0x20\n      add\n      0x00\n      keccak256\n        /* \"contracts/230518/0516Test.sol\":3831:3859  userList[msg.sender].balance */\n      0x03\n      add\n      sload\n        /* \"contracts/230518/0516Test.sol\":3831:3869  userList[msg.sender].balance >= 10**16 */\n      lt\n      iszero\n        /* \"contracts/230518/0516Test.sol\":3831:3887  userList[msg.sender].balance >= 10**16 && msg.value == 0 */\n      dup1\n      iszero\n      tag_132\n      jumpi\n      pop\n        /* \"contracts/230518/0516Test.sol\":3886:3887  0 */\n      0x00\n        /* \"contracts/230518/0516Test.sol\":3873:3882  msg.value */\n      callvalue\n        /* \"contracts/230518/0516Test.sol\":3873:3887  msg.value == 0 */\n      eq\n        /* \"contracts/230518/0516Test.sol\":3831:3887  userList[msg.sender].balance >= 10**16 && msg.value == 0 */\n    tag_132:\n        /* \"contracts/230518/0516Test.sol\":3830:3915  (userList[msg.sender].balance >= 10**16 && msg.value == 0) || msg.value == 0.01 ether */\n      dup1\n      tag_133\n      jumpi\n      pop\n        /* \"contracts/230518/0516Test.sol\":3905:3915  0.01 ether */\n      0x2386f26fc10000\n        /* \"contracts/230518/0516Test.sol\":3892:3901  msg.value */\n      callvalue\n        /* \"contracts/230518/0516Test.sol\":3892:3915  msg.value == 0.01 ether */\n      eq\n        /* \"contracts/230518/0516Test.sol\":3830:3915  (userList[msg.sender].balance >= 10**16 && msg.value == 0) || msg.value == 0.01 ether */\n    tag_133:\n        /* \"contracts/230518/0516Test.sol\":3822:3916  require((userList[msg.sender].balance >= 10**16 && msg.value == 0) || msg.value == 0.01 ether) */\n      tag_134\n      jumpi\n      0x00\n      dup1\n      revert\n    tag_134:\n        /* \"contracts/230518/0516Test.sol\":3945:3946  0 */\n      0x00\n        /* \"contracts/230518/0516Test.sol\":3932:3941  msg.value */\n      callvalue\n        /* \"contracts/230518/0516Test.sol\":3932:3946  msg.value == 0 */\n      sub\n        /* \"contracts/230518/0516Test.sol\":3929:4013  if(msg.value == 0) {... */\n      tag_135\n      jumpi\n        /* \"contracts/230518/0516Test.sol\":3995:4001  10**16 */\n      0x2386f26fc10000\n        /* \"contracts/230518/0516Test.sol\":3963:3971  userList */\n      0x00\n        /* \"contracts/230518/0516Test.sol\":3963:3983  userList[msg.sender] */\n      dup1\n        /* \"contracts/230518/0516Test.sol\":3972:3982  msg.sender */\n      caller\n        /* \"contracts/230518/0516Test.sol\":3963:3983  userList[msg.sender] */\n      0xffffffffffffffffffffffffffffffffffffffff\n      and\n      0xffffffffffffffffffffffffffffffffffffffff\n      and\n      dup2\n      mstore\n      0x20\n      add\n      swap1\n      dup2\n      mstore\n      0x20\n      add\n      0x00\n      keccak256\n        /* \"contracts/230518/0516Test.sol\":3963:3991  userList[msg.sender].balance */\n      0x03\n      add\n      0x00\n        /* \"contracts/230518/0516Test.sol\":3963:4001  userList[msg.sender].balance -= 10**16 */\n      dup3\n      dup3\n      sload\n      tag_136\n      swap2\n      swap1\n      tag_70\n      jump\t// in\n    tag_136:\n      swap3\n      pop\n      pop\n      dup2\n      swap1\n      sstore\n      pop\n        /* \"contracts/230518/0516Test.sol\":3929:4013  if(msg.value == 0) {... */\n    tag_135:\n        /* \"contracts/230518/0516Test.sol\":4049:4050  4 */\n      0x04\n        /* \"contracts/230518/0516Test.sol\":4028:4045  getLengthOfTop4() */\n      tag_137\n        /* \"contracts/230518/0516Test.sol\":4028:4043  getLengthOfTop4 */\n      tag_56\n        /* \"contracts/230518/0516Test.sol\":4028:4045  getLengthOfTop4() */\n      jump\t// in\n    tag_137:\n        /* \"contracts/230518/0516Test.sol\":4028:4050  getLengthOfTop4() == 4 */\n      sub\n        /* \"contracts/230518/0516Test.sol\":4025:4262  if(getLengthOfTop4() == 4) {... */\n      tag_138\n      jumpi\n        /* \"contracts/230518/0516Test.sol\":4071:4077  uint i */\n      0x00\n        /* \"contracts/230518/0516Test.sol\":4078:4079  4 */\n      0x04\n        /* \"contracts/230518/0516Test.sol\":4071:4079  uint i=4 */\n      swap1\n      pop\n        /* \"contracts/230518/0516Test.sol\":4067:4223  for(uint i=4;i>0;i--) {... */\n    tag_139:\n        /* \"contracts/230518/0516Test.sol\":4082:4083  0 */\n      0x00\n        /* \"contracts/230518/0516Test.sol\":4080:4081  i */\n      dup2\n        /* \"contracts/230518/0516Test.sol\":4080:4083  i>0 */\n      gt\n        /* \"contracts/230518/0516Test.sol\":4067:4223  for(uint i=4;i>0;i--) {... */\n      iszero\n      tag_140\n      jumpi\n        /* \"contracts/230518/0516Test.sol\":4147:4148  i */\n      dup1\n        /* \"contracts/230518/0516Test.sol\":4145:4146  5 */\n      0x05\n        /* \"contracts/230518/0516Test.sol\":4145:4148  5-i */\n      tag_142\n      swap2\n      swap1\n      tag_70\n      jump\t// in\n    tag_142:\n        /* \"contracts/230518/0516Test.sol\":4108:4116  userList */\n      0x00\n        /* \"contracts/230518/0516Test.sol\":4108:4135  userList[top4[i-1].account] */\n      dup1\n        /* \"contracts/230518/0516Test.sol\":4117:4121  top4 */\n      0x03\n        /* \"contracts/230518/0516Test.sol\":4124:4125  1 */\n      0x01\n        /* \"contracts/230518/0516Test.sol\":4122:4123  i */\n      dup6\n        /* \"contracts/230518/0516Test.sol\":4122:4125  i-1 */\n      tag_143\n      swap2\n      swap1\n      tag_70\n      jump\t// in\n    tag_143:\n        /* \"contracts/230518/0516Test.sol\":4117:4126  top4[i-1] */\n      dup2\n      sload\n      dup2\n      lt\n      tag_144\n      jumpi\n      tag_145\n      tag_112\n      jump\t// in\n    tag_145:\n    tag_144:\n      swap1\n      0x00\n      mstore\n      keccak256(0x00, 0x20)\n      swap1\n      0x05\n      mul\n      add\n        /* \"contracts/230518/0516Test.sol\":4117:4134  top4[i-1].account */\n      0x02\n      add\n      0x00\n      swap1\n      sload\n      swap1\n      0x0100\n      exp\n      swap1\n      div\n      0xffffffffffffffffffffffffffffffffffffffff\n      and\n        /* \"contracts/230518/0516Test.sol\":4108:4135  userList[top4[i-1].account] */\n      0xffffffffffffffffffffffffffffffffffffffff\n      and\n      0xffffffffffffffffffffffffffffffffffffffff\n      and\n      dup2\n      mstore\n      0x20\n      add\n      swap1\n      dup2\n      mstore\n      0x20\n      add\n      0x00\n      keccak256\n        /* \"contracts/230518/0516Test.sol\":4108:4141  userList[top4[i-1].account].score */\n      0x04\n      add\n      0x00\n        /* \"contracts/230518/0516Test.sol\":4108:4148  userList[top4[i-1].account].score += 5-i */\n      dup3\n      dup3\n      sload\n      tag_147\n      swap2\n      swap1\n      tag_115\n      jump\t// in\n    tag_147:\n      swap3\n      pop\n      pop\n      dup2\n      swap1\n      sstore\n      pop\n        /* \"contracts/230518/0516Test.sol\":4084:4087  i-- */\n      dup1\n      dup1\n      tag_148\n      swap1\n      tag_117\n      jump\t// in\n    tag_148:\n      swap2\n      pop\n      pop\n        /* \"contracts/230518/0516Test.sol\":4067:4223  for(uint i=4;i>0;i--) {... */\n      jump(tag_139)\n    tag_140:\n      pop\n        /* \"contracts/230518/0516Test.sol\":4244:4250  top4_2 */\n      0x04\n      0x00\n        /* \"contracts/230518/0516Test.sol\":4237:4250  delete top4_2 */\n      tag_149\n      swap2\n      swap1\n      tag_150\n      jump\t// in\n    tag_149:\n        /* \"contracts/230518/0516Test.sol\":4025:4262  if(getLengthOfTop4() == 4) {... */\n    tag_138:\n        /* \"contracts/230518/0516Test.sol\":4302:4310  userList */\n      0x00\n        /* \"contracts/230518/0516Test.sol\":4302:4322  userList[msg.sender] */\n      dup1\n        /* \"contracts/230518/0516Test.sol\":4311:4321  msg.sender */\n      caller\n        /* \"contracts/230518/0516Test.sol\":4302:4322  userList[msg.sender] */\n      0xffffffffffffffffffffffffffffffffffffffff\n      and\n      0xffffffffffffffffffffffffffffffffffffffff\n      and\n      dup2\n      mstore\n      0x20\n      add\n      swap1\n      dup2\n      mstore\n      0x20\n      add\n      0x00\n      keccak256\n        /* \"contracts/230518/0516Test.sol\":4274:4280  top4_2 */\n      0x04\n        /* \"contracts/230518/0516Test.sol\":4281:4298  getLengthOfTop4() */\n      tag_151\n        /* \"contracts/230518/0516Test.sol\":4281:4296  getLengthOfTop4 */\n      tag_56\n        /* \"contracts/230518/0516Test.sol\":4281:4298  getLengthOfTop4() */\n      jump\t// in\n    tag_151:\n        /* \"contracts/230518/0516Test.sol\":4274:4299  top4_2[getLengthOfTop4()] */\n      0x04\n      dup2\n      lt\n      tag_152\n      jumpi\n      tag_153\n      tag_112\n      jump\t// in\n    tag_153:\n    tag_152:\n      0x05\n      mul\n      add\n        /* \"contracts/230518/0516Test.sol\":4274:4322  top4_2[getLengthOfTop4()] = userList[msg.sender] */\n      0x00\n      dup3\n      add\n      sload\n      dup2\n      0x00\n      add\n      sstore\n      0x01\n      dup3\n      add\n      dup2\n      0x01\n      add\n      swap1\n      dup2\n      tag_155\n      swap2\n      swap1\n      tag_122\n      jump\t// in\n    tag_155:\n      pop\n      0x02\n      dup3\n      add\n      0x00\n      swap1\n      sload\n      swap1\n      0x0100\n      exp\n      swap1\n      div\n      0xffffffffffffffffffffffffffffffffffffffff\n      and\n      dup2\n      0x02\n      add\n      exp(0x0100, 0x00)\n      dup2\n      sload\n      dup2\n      0xffffffffffffffffffffffffffffffffffffffff\n      mul\n      not\n      and\n      swap1\n      dup4\n      0xffffffffffffffffffffffffffffffffffffffff\n      and\n      mul\n      or\n      swap1\n      sstore\n      pop\n      0x03\n      dup3\n      add\n      sload\n      dup2\n      0x03\n      add\n      sstore\n      0x04\n      dup3\n      add\n      sload\n      dup2\n      0x04\n      add\n      sstore\n      swap1\n      pop\n      pop\n        /* \"contracts/230518/0516Test.sol\":3777:4330  function gameIn2() public payable {... */\n      jump\t// out\n        /* \"contracts/230518/0516Test.sol\":6124:6218  function deposit() public payable {... */\n    tag_45:\n        /* \"contracts/230518/0516Test.sol\":6201:6210  msg.value */\n      callvalue\n        /* \"contracts/230518/0516Test.sol\":6169:6177  userList */\n      0x00\n        /* \"contracts/230518/0516Test.sol\":6169:6189  userList[msg.sender] */\n      dup1\n        /* \"contracts/230518/0516Test.sol\":6178:6188  msg.sender */\n      caller\n        /* \"contracts/230518/0516Test.sol\":6169:6189  userList[msg.sender] */\n      0xffffffffffffffffffffffffffffffffffffffff\n      and\n      0xffffffffffffffffffffffffffffffffffffffff\n      and\n      dup2\n      mstore\n      0x20\n      add\n      swap1\n      dup2\n      mstore\n      0x20\n      add\n      0x00\n      keccak256\n        /* \"contracts/230518/0516Test.sol\":6169:6197  userList[msg.sender].balance */\n      0x03\n      add\n      0x00\n        /* \"contracts/230518/0516Test.sol\":6169:6210  userList[msg.sender].balance += msg.value */\n      dup3\n      dup3\n      sload\n      tag_157\n      swap2\n      swap1\n      tag_115\n      jump\t// in\n    tag_157:\n      swap3\n      pop\n      pop\n      dup2\n      swap1\n      sstore\n      pop\n        /* \"contracts/230518/0516Test.sol\":6124:6218  function deposit() public payable {... */\n      jump\t// out\n        /* \"contracts/230518/0516Test.sol\":5839:5940  function ownerWithdrawAll() public onlyOwner {... */\n    tag_48:\n        /* \"contracts/230518/0516Test.sol\":2427:2432  owner */\n      0x02\n      0x00\n      swap1\n      sload\n      swap1\n      0x0100\n      exp\n      swap1\n      div\n      0xffffffffffffffffffffffffffffffffffffffff\n      and\n        /* \"contracts/230518/0516Test.sol\":2413:2432  msg.sender == owner */\n      0xffffffffffffffffffffffffffffffffffffffff\n      and\n        /* \"contracts/230518/0516Test.sol\":2413:2423  msg.sender */\n      caller\n        /* \"contracts/230518/0516Test.sol\":2413:2432  msg.sender == owner */\n      0xffffffffffffffffffffffffffffffffffffffff\n      and\n      eq\n        /* \"contracts/230518/0516Test.sol\":2405:2433  require(msg.sender == owner) */\n      tag_159\n      jumpi\n      0x00\n      dup1\n      revert\n    tag_159:\n        /* \"contracts/230518/0516Test.sol\":5895:5900  owner */\n      0x02\n      0x00\n      swap1\n      sload\n      swap1\n      0x0100\n      exp\n      swap1\n      div\n      0xffffffffffffffffffffffffffffffffffffffff\n      and\n        /* \"contracts/230518/0516Test.sol\":5895:5909  owner.transfer */\n      0xffffffffffffffffffffffffffffffffffffffff\n      and\n        /* \"contracts/230518/0516Test.sol\":5895:5932  owner.transfer(address(this).balance) */\n      0x08fc\n        /* \"contracts/230518/0516Test.sol\":5910:5931  address(this).balance */\n      selfbalance\n        /* \"contracts/230518/0516Test.sol\":5895:5932  owner.transfer(address(this).balance) */\n      swap1\n      dup2\n      iszero\n      mul\n      swap1\n      mload(0x40)\n      0x00\n      mload(0x40)\n      dup1\n      dup4\n      sub\n      dup2\n      dup6\n      dup9\n      dup9\n      call\n      swap4\n      pop\n      pop\n      pop\n      pop\n      iszero\n      dup1\n      iszero\n      tag_162\n      jumpi\n      returndatasize\n      0x00\n      dup1\n      returndatacopy\n      revert(0x00, returndatasize)\n    tag_162:\n      pop\n        /* \"contracts/230518/0516Test.sol\":5839:5940  function ownerWithdrawAll() public onlyOwner {... */\n      jump\t// out\n        /* \"contracts/230518/0516Test.sol\":2714:2857  function register(string memory _name) public {... */\n    tag_53:\n        /* \"contracts/230518/0516Test.sol\":2794:2849  User(count++, _name, msg.sender, msg.sender.balance, 0) */\n      mload(0x40)\n      dup1\n      0xa0\n      add\n      0x40\n      mstore\n      dup1\n        /* \"contracts/230518/0516Test.sol\":2799:2804  count */\n      0x01\n      0x00\n        /* \"contracts/230518/0516Test.sol\":2799:2806  count++ */\n      dup2\n      sload\n      dup1\n      swap3\n      swap2\n      swap1\n      tag_164\n      swap1\n      tag_165\n      jump\t// in\n    tag_164:\n      swap2\n      swap1\n      pop\n      sstore\n        /* \"contracts/230518/0516Test.sol\":2794:2849  User(count++, _name, msg.sender, msg.sender.balance, 0) */\n      dup2\n      mstore\n      0x20\n      add\n        /* \"contracts/230518/0516Test.sol\":2808:2813  _name */\n      dup3\n        /* \"contracts/230518/0516Test.sol\":2794:2849  User(count++, _name, msg.sender, msg.sender.balance, 0) */\n      dup2\n      mstore\n      0x20\n      add\n        /* \"contracts/230518/0516Test.sol\":2815:2825  msg.sender */\n      caller\n        /* \"contracts/230518/0516Test.sol\":2794:2849  User(count++, _name, msg.sender, msg.sender.balance, 0) */\n      0xffffffffffffffffffffffffffffffffffffffff\n      and\n      dup2\n      mstore\n      0x20\n      add\n        /* \"contracts/230518/0516Test.sol\":2827:2837  msg.sender */\n      caller\n        /* \"contracts/230518/0516Test.sol\":2827:2845  msg.sender.balance */\n      0xffffffffffffffffffffffffffffffffffffffff\n      and\n      balance\n        /* \"contracts/230518/0516Test.sol\":2794:2849  User(count++, _name, msg.sender, msg.sender.balance, 0) */\n      dup2\n      mstore\n      0x20\n      add\n        /* \"contracts/230518/0516Test.sol\":2847:2848  0 */\n      0x00\n        /* \"contracts/230518/0516Test.sol\":2794:2849  User(count++, _name, msg.sender, msg.sender.balance, 0) */\n      dup2\n      mstore\n      pop\n        /* \"contracts/230518/0516Test.sol\":2771:2779  userList */\n      0x00\n        /* \"contracts/230518/0516Test.sol\":2771:2791  userList[msg.sender] */\n      dup1\n        /* \"contracts/230518/0516Test.sol\":2780:2790  msg.sender */\n      caller\n        /* \"contracts/230518/0516Test.sol\":2771:2791  userList[msg.sender] */\n      0xffffffffffffffffffffffffffffffffffffffff\n      and\n      0xffffffffffffffffffffffffffffffffffffffff\n      and\n      dup2\n      mstore\n      0x20\n      add\n      swap1\n      dup2\n      mstore\n      0x20\n      add\n      0x00\n      keccak256\n        /* \"contracts/230518/0516Test.sol\":2771:2849  userList[msg.sender] = User(count++, _name, msg.sender, msg.sender.balance, 0) */\n      0x00\n      dup3\n      add\n      mload\n      dup2\n      0x00\n      add\n      sstore\n      0x20\n      dup3\n      add\n      mload\n      dup2\n      0x01\n      add\n      swap1\n      dup2\n      tag_166\n      swap2\n      swap1\n      tag_167\n      jump\t// in\n    tag_166:\n      pop\n      0x40\n      dup3\n      add\n      mload\n      dup2\n      0x02\n      add\n      exp(0x0100, 0x00)\n      dup2\n      sload\n      dup2\n      0xffffffffffffffffffffffffffffffffffffffff\n      mul\n      not\n      and\n      swap1\n      dup4\n      0xffffffffffffffffffffffffffffffffffffffff\n      and\n      mul\n      or\n      swap1\n      sstore\n      pop\n      0x60\n      dup3\n      add\n      mload\n      dup2\n      0x03\n      add\n      sstore\n      0x80\n      dup3\n      add\n      mload\n      dup2\n      0x04\n      add\n      sstore\n      swap1\n      pop\n      pop\n        /* \"contracts/230518/0516Test.sol\":2714:2857  function register(string memory _name) public {... */\n      pop\n      jump\t// out\n        /* \"contracts/230518/0516Test.sol\":4478:4701  function getLengthOfTop4() public view returns(uint) {... */\n    tag_56:\n        /* \"contracts/230518/0516Test.sol\":4525:4529  uint */\n      0x00\n        /* \"contracts/230518/0516Test.sol\":4546:4552  uint i */\n      dup1\n        /* \"contracts/230518/0516Test.sol\":4555:4556  0 */\n      0x00\n        /* \"contracts/230518/0516Test.sol\":4546:4556  uint i = 0 */\n      swap1\n      pop\n        /* \"contracts/230518/0516Test.sol\":4542:4675  for(uint i = 0; i < 4; i++) {... */\n    tag_169:\n        /* \"contracts/230518/0516Test.sol\":4562:4563  4 */\n      0x04\n        /* \"contracts/230518/0516Test.sol\":4558:4559  i */\n      dup2\n        /* \"contracts/230518/0516Test.sol\":4558:4563  i < 4 */\n      lt\n        /* \"contracts/230518/0516Test.sol\":4542:4675  for(uint i = 0; i < 4; i++) {... */\n      iszero\n      tag_170\n      jumpi\n        /* \"contracts/230518/0516Test.sol\":4617:4618  0 */\n      0x00\n        /* \"contracts/230518/0516Test.sol\":4588:4619  top4_2[i].account == address(0) */\n      0xffffffffffffffffffffffffffffffffffffffff\n      and\n        /* \"contracts/230518/0516Test.sol\":4588:4594  top4_2 */\n      0x04\n        /* \"contracts/230518/0516Test.sol\":4595:4596  i */\n      dup3\n        /* \"contracts/230518/0516Test.sol\":4588:4597  top4_2[i] */\n      0x04\n      dup2\n      lt\n      tag_172\n      jumpi\n      tag_173\n      tag_112\n      jump\t// in\n    tag_173:\n    tag_172:\n      0x05\n      mul\n      add\n        /* \"contracts/230518/0516Test.sol\":4588:4605  top4_2[i].account */\n      0x02\n      add\n      0x00\n      swap1\n      sload\n      swap1\n      0x0100\n      exp\n      swap1\n      div\n      0xffffffffffffffffffffffffffffffffffffffff\n      and\n        /* \"contracts/230518/0516Test.sol\":4588:4619  top4_2[i].account == address(0) */\n      0xffffffffffffffffffffffffffffffffffffffff\n      and\n      sub\n        /* \"contracts/230518/0516Test.sol\":4585:4664  if(top4_2[i].account == address(0)) {... */\n      tag_175\n      jumpi\n        /* \"contracts/230518/0516Test.sol\":4647:4648  i */\n      dup1\n        /* \"contracts/230518/0516Test.sol\":4640:4648  return i */\n      swap2\n      pop\n      pop\n      jump(tag_168)\n        /* \"contracts/230518/0516Test.sol\":4585:4664  if(top4_2[i].account == address(0)) {... */\n    tag_175:\n        /* \"contracts/230518/0516Test.sol\":4565:4568  i++ */\n      dup1\n      dup1\n      tag_176\n      swap1\n      tag_165\n      jump\t// in\n    tag_176:\n      swap2\n      pop\n      pop\n        /* \"contracts/230518/0516Test.sol\":4542:4675  for(uint i = 0; i < 4; i++) {... */\n      jump(tag_169)\n    tag_170:\n      pop\n        /* \"contracts/230518/0516Test.sol\":4692:4693  4 */\n      0x04\n        /* \"contracts/230518/0516Test.sol\":4685:4693  return 4 */\n      swap1\n      pop\n        /* \"contracts/230518/0516Test.sol\":4478:4701  function getLengthOfTop4() public view returns(uint) {... */\n    tag_168:\n      swap1\n      jump\t// out\n        /* \"contracts/230518/0516Test.sol\":2512:2533  User[4] public top4_2 */\n    tag_62:\n      0x04\n      dup2\n      0x04\n      dup2\n      lt\n      tag_177\n      jumpi\n      0x00\n      dup1\n      revert\n    tag_177:\n      0x05\n      mul\n      add\n      0x00\n      swap2\n      pop\n      swap1\n      pop\n      dup1\n      0x00\n      add\n      sload\n      swap1\n      dup1\n      0x01\n      add\n      dup1\n      sload\n      tag_179\n      swap1\n      tag_85\n      jump\t// in\n    tag_179:\n      dup1\n      0x1f\n      add\n      0x20\n      dup1\n      swap2\n      div\n      mul\n      0x20\n      add\n      mload(0x40)\n      swap1\n      dup2\n      add\n      0x40\n      mstore\n      dup1\n      swap3\n      swap2\n      swap1\n      dup2\n      dup2\n      mstore\n      0x20\n      add\n      dup3\n      dup1\n      sload\n      tag_180\n      swap1\n      tag_85\n      jump\t// in\n    tag_180:\n      dup1\n      iszero\n      tag_181\n      jumpi\n      dup1\n      0x1f\n      lt\n      tag_182\n      jumpi\n      0x0100\n      dup1\n      dup4\n      sload\n      div\n      mul\n      dup4\n      mstore\n      swap2\n      0x20\n      add\n      swap2\n      jump(tag_181)\n    tag_182:\n      dup3\n      add\n      swap2\n      swap1\n      0x00\n      mstore\n      keccak256(0x00, 0x20)\n      swap1\n    tag_183:\n      dup2\n      sload\n      dup2\n      mstore\n      swap1\n      0x01\n      add\n      swap1\n      0x20\n      add\n      dup1\n      dup4\n      gt\n      tag_183\n      jumpi\n      dup3\n      swap1\n      sub\n      0x1f\n      and\n      dup3\n      add\n      swap2\n    tag_181:\n      pop\n      pop\n      pop\n      pop\n      pop\n      swap1\n      dup1\n      0x02\n      add\n      0x00\n      swap1\n      sload\n      swap1\n      0x0100\n      exp\n      swap1\n      div\n      0xffffffffffffffffffffffffffffffffffffffff\n      and\n      swap1\n      dup1\n      0x03\n      add\n      sload\n      swap1\n      dup1\n      0x04\n      add\n      sload\n      swap1\n      pop\n      dup6\n      jump\t// out\n    tag_91:\n      mload(0x40)\n      dup1\n      0xa0\n      add\n      0x40\n      mstore\n      dup1\n      0x00\n      dup2\n      mstore\n      0x20\n      add\n      0x60\n      dup2\n      mstore\n      0x20\n      add\n      and(0xffffffffffffffffffffffffffffffffffffffff, 0x00)\n      dup2\n      mstore\n      0x20\n      add\n      0x00\n      dup2\n      mstore\n      0x20\n      add\n      0x00\n      dup2\n      mstore\n      pop\n      swap1\n      jump\t// out\n    tag_119:\n      pop\n      dup1\n      sload\n      0x00\n      dup3\n      sstore\n      0x05\n      mul\n      swap1\n      0x00\n      mstore\n      keccak256(0x00, 0x20)\n      swap1\n      dup2\n      add\n      swap1\n      tag_185\n      swap2\n      swap1\n      tag_186\n      jump\t// in\n    tag_185:\n      pop\n      jump\t// out\n    tag_150:\n      pop\n      0x00\n      dup1\n      dup3\n      add\n      0x00\n      swap1\n      sstore\n      0x01\n      dup3\n      add\n      0x00\n      tag_187\n      swap2\n      swap1\n      tag_188\n      jump\t// in\n    tag_187:\n      0x02\n      dup3\n      add\n      exp(0x0100, 0x00)\n      dup2\n      sload\n      swap1\n      0xffffffffffffffffffffffffffffffffffffffff\n      mul\n      not\n      and\n      swap1\n      sstore\n      0x03\n      dup3\n      add\n      0x00\n      swap1\n      sstore\n      0x04\n      dup3\n      add\n      0x00\n      swap1\n      sstore\n      pop\n      0x05\n      add\n      0x00\n      dup1\n      dup3\n      add\n      0x00\n      swap1\n      sstore\n      0x01\n      dup3\n      add\n      0x00\n      tag_189\n      swap2\n      swap1\n      tag_188\n      jump\t// in\n    tag_189:\n      0x02\n      dup3\n      add\n      exp(0x0100, 0x00)\n      dup2\n      sload\n      swap1\n      0xffffffffffffffffffffffffffffffffffffffff\n      mul\n      not\n      and\n      swap1\n      sstore\n      0x03\n      dup3\n      add\n      0x00\n      swap1\n      sstore\n      0x04\n      dup3\n      add\n      0x00\n      swap1\n      sstore\n      pop\n      0x05\n      add\n      0x00\n      dup1\n      dup3\n      add\n      0x00\n      swap1\n      sstore\n      0x01\n      dup3\n      add\n      0x00\n      tag_190\n      swap2\n      swap1\n      tag_188\n      jump\t// in\n    tag_190:\n      0x02\n      dup3\n      add\n      exp(0x0100, 0x00)\n      dup2\n      sload\n      swap1\n      0xffffffffffffffffffffffffffffffffffffffff\n      mul\n      not\n      and\n      swap1\n      sstore\n      0x03\n      dup3\n      add\n      0x00\n      swap1\n      sstore\n      0x04\n      dup3\n      add\n      0x00\n      swap1\n      sstore\n      pop\n      0x05\n      add\n      0x00\n      dup1\n      dup3\n      add\n      0x00\n      swap1\n      sstore\n      0x01\n      dup3\n      add\n      0x00\n      tag_191\n      swap2\n      swap1\n      tag_188\n      jump\t// in\n    tag_191:\n      0x02\n      dup3\n      add\n      exp(0x0100, 0x00)\n      dup2\n      sload\n      swap1\n      0xffffffffffffffffffffffffffffffffffffffff\n      mul\n      not\n      and\n      swap1\n      sstore\n      0x03\n      dup3\n      add\n      0x00\n      swap1\n      sstore\n      0x04\n      dup3\n      add\n      0x00\n      swap1\n      sstore\n      pop\n      pop\n      jump\t// out\n    tag_186:\n    tag_192:\n      dup1\n      dup3\n      gt\n      iszero\n      tag_193\n      jumpi\n      0x00\n      dup1\n      dup3\n      add\n      0x00\n      swap1\n      sstore\n      0x01\n      dup3\n      add\n      0x00\n      tag_194\n      swap2\n      swap1\n      tag_188\n      jump\t// in\n    tag_194:\n      0x02\n      dup3\n      add\n      exp(0x0100, 0x00)\n      dup2\n      sload\n      swap1\n      0xffffffffffffffffffffffffffffffffffffffff\n      mul\n      not\n      and\n      swap1\n      sstore\n      0x03\n      dup3\n      add\n      0x00\n      swap1\n      sstore\n      0x04\n      dup3\n      add\n      0x00\n      swap1\n      sstore\n      pop\n      0x05\n      add\n      jump(tag_192)\n    tag_193:\n      pop\n      swap1\n      jump\t// out\n    tag_188:\n      pop\n      dup1\n      sload\n      tag_195\n      swap1\n      tag_85\n      jump\t// in\n    tag_195:\n      0x00\n      dup3\n      sstore\n      dup1\n      0x1f\n      lt\n      tag_197\n      jumpi\n      pop\n      jump(tag_196)\n    tag_197:\n      0x1f\n      add\n      0x20\n      swap1\n      div\n      swap1\n      0x00\n      mstore\n      keccak256(0x00, 0x20)\n      swap1\n      dup2\n      add\n      swap1\n      tag_198\n      swap2\n      swap1\n      tag_199\n      jump\t// in\n    tag_198:\n    tag_196:\n      pop\n      jump\t// out\n    tag_199:\n    tag_200:\n      dup1\n      dup3\n      gt\n      iszero\n      tag_201\n      jumpi\n      0x00\n      dup2\n      0x00\n      swap1\n      sstore\n      pop\n      0x01\n      add\n      jump(tag_200)\n    tag_201:\n      pop\n      swap1\n      jump\t// out\n        /* \"#utility.yul\":7:82   */\n    tag_202:\n        /* \"#utility.yul\":40:46   */\n      0x00\n        /* \"#utility.yul\":73:75   */\n      0x40\n        /* \"#utility.yul\":67:76   */\n      mload\n        /* \"#utility.yul\":57:76   */\n      swap1\n      pop\n        /* \"#utility.yul\":7:82   */\n      swap1\n      jump\t// out\n        /* \"#utility.yul\":88:205   */\n    tag_203:\n        /* \"#utility.yul\":197:198   */\n      0x00\n        /* \"#utility.yul\":194:195   */\n      dup1\n        /* \"#utility.yul\":187:199   */\n      revert\n        /* \"#utility.yul\":211:328   */\n    tag_204:\n        /* \"#utility.yul\":320:321   */\n      0x00\n        /* \"#utility.yul\":317:318   */\n      dup1\n        /* \"#utility.yul\":310:322   */\n      revert\n        /* \"#utility.yul\":334:411   */\n    tag_205:\n        /* \"#utility.yul\":371:378   */\n      0x00\n        /* \"#utility.yul\":400:405   */\n      dup2\n        /* \"#utility.yul\":389:405   */\n      swap1\n      pop\n        /* \"#utility.yul\":334:411   */\n      swap2\n      swap1\n      pop\n      jump\t// out\n        /* \"#utility.yul\":417:539   */\n    tag_206:\n        /* \"#utility.yul\":490:514   */\n      tag_258\n        /* \"#utility.yul\":508:513   */\n      dup2\n        /* \"#utility.yul\":490:514   */\n      tag_205\n      jump\t// in\n    tag_258:\n        /* \"#utility.yul\":483:488   */\n      dup2\n        /* \"#utility.yul\":480:515   */\n      eq\n        /* \"#utility.yul\":470:533   */\n      tag_259\n      jumpi\n        /* \"#utility.yul\":529:530   */\n      0x00\n        /* \"#utility.yul\":526:527   */\n      dup1\n        /* \"#utility.yul\":519:531   */\n      revert\n        /* \"#utility.yul\":470:533   */\n    tag_259:\n        /* \"#utility.yul\":417:539   */\n      pop\n      jump\t// out\n        /* \"#utility.yul\":545:684   */\n    tag_207:\n        /* \"#utility.yul\":591:596   */\n      0x00\n        /* \"#utility.yul\":629:635   */\n      dup2\n        /* \"#utility.yul\":616:636   */\n      calldataload\n        /* \"#utility.yul\":607:636   */\n      swap1\n      pop\n        /* \"#utility.yul\":645:678   */\n      tag_261\n        /* \"#utility.yul\":672:677   */\n      dup2\n        /* \"#utility.yul\":645:678   */\n      tag_206\n      jump\t// in\n    tag_261:\n        /* \"#utility.yul\":545:684   */\n      swap3\n      swap2\n      pop\n      pop\n      jump\t// out\n        /* \"#utility.yul\":690:1019   */\n    tag_18:\n        /* \"#utility.yul\":749:755   */\n      0x00\n        /* \"#utility.yul\":798:800   */\n      0x20\n        /* \"#utility.yul\":786:795   */\n      dup3\n        /* \"#utility.yul\":777:784   */\n      dup5\n        /* \"#utility.yul\":773:796   */\n      sub\n        /* \"#utility.yul\":769:801   */\n      slt\n        /* \"#utility.yul\":766:885   */\n      iszero\n      tag_263\n      jumpi\n        /* \"#utility.yul\":804:883   */\n      tag_264\n      tag_203\n      jump\t// in\n    tag_264:\n        /* \"#utility.yul\":766:885   */\n    tag_263:\n        /* \"#utility.yul\":924:925   */\n      0x00\n        /* \"#utility.yul\":949:1002   */\n      tag_265\n        /* \"#utility.yul\":994:1001   */\n      dup5\n        /* \"#utility.yul\":985:991   */\n      dup3\n        /* \"#utility.yul\":974:983   */\n      dup6\n        /* \"#utility.yul\":970:992   */\n      add\n        /* \"#utility.yul\":949:1002   */\n      tag_207\n      jump\t// in\n    tag_265:\n        /* \"#utility.yul\":939:1002   */\n      swap2\n      pop\n        /* \"#utility.yul\":895:1012   */\n      pop\n        /* \"#utility.yul\":690:1019   */\n      swap3\n      swap2\n      pop\n      pop\n      jump\t// out\n        /* \"#utility.yul\":1025:1143   */\n    tag_208:\n        /* \"#utility.yul\":1112:1136   */\n      tag_267\n        /* \"#utility.yul\":1130:1135   */\n      dup2\n        /* \"#utility.yul\":1112:1136   */\n      tag_205\n      jump\t// in\n    tag_267:\n        /* \"#utility.yul\":1107:1110   */\n      dup3\n        /* \"#utility.yul\":1100:1137   */\n      mstore\n        /* \"#utility.yul\":1025:1143   */\n      pop\n      pop\n      jump\t// out\n        /* \"#utility.yul\":1149:1248   */\n    tag_209:\n        /* \"#utility.yul\":1201:1207   */\n      0x00\n        /* \"#utility.yul\":1235:1240   */\n      dup2\n        /* \"#utility.yul\":1229:1241   */\n      mload\n        /* \"#utility.yul\":1219:1241   */\n      swap1\n      pop\n        /* \"#utility.yul\":1149:1248   */\n      swap2\n      swap1\n      pop\n      jump\t// out\n        /* \"#utility.yul\":1254:1423   */\n    tag_210:\n        /* \"#utility.yul\":1338:1349   */\n      0x00\n        /* \"#utility.yul\":1372:1378   */\n      dup3\n        /* \"#utility.yul\":1367:1370   */\n      dup3\n        /* \"#utility.yul\":1360:1379   */\n      mstore\n        /* \"#utility.yul\":1412:1416   */\n      0x20\n        /* \"#utility.yul\":1407:1410   */\n      dup3\n        /* \"#utility.yul\":1403:1417   */\n      add\n        /* \"#utility.yul\":1388:1417   */\n      swap1\n      pop\n        /* \"#utility.yul\":1254:1423   */\n      swap3\n      swap2\n      pop\n      pop\n      jump\t// out\n        /* \"#utility.yul\":1429:1675   */\n    tag_211:\n        /* \"#utility.yul\":1510:1511   */\n      0x00\n        /* \"#utility.yul\":1520:1633   */\n    tag_271:\n        /* \"#utility.yul\":1534:1540   */\n      dup4\n        /* \"#utility.yul\":1531:1532   */\n      dup2\n        /* \"#utility.yul\":1528:1541   */\n      lt\n        /* \"#utility.yul\":1520:1633   */\n      iszero\n      tag_273\n      jumpi\n        /* \"#utility.yul\":1619:1620   */\n      dup1\n        /* \"#utility.yul\":1614:1617   */\n      dup3\n        /* \"#utility.yul\":1610:1621   */\n      add\n        /* \"#utility.yul\":1604:1622   */\n      mload\n        /* \"#utility.yul\":1600:1601   */\n      dup2\n        /* \"#utility.yul\":1595:1598   */\n      dup5\n        /* \"#utility.yul\":1591:1602   */\n      add\n        /* \"#utility.yul\":1584:1623   */\n      mstore\n        /* \"#utility.yul\":1556:1558   */\n      0x20\n        /* \"#utility.yul\":1553:1554   */\n      dup2\n        /* \"#utility.yul\":1549:1559   */\n      add\n        /* \"#utility.yul\":1544:1559   */\n      swap1\n      pop\n        /* \"#utility.yul\":1520:1633   */\n      jump(tag_271)\n    tag_273:\n        /* \"#utility.yul\":1667:1668   */\n      0x00\n        /* \"#utility.yul\":1658:1664   */\n      dup5\n        /* \"#utility.yul\":1653:1656   */\n      dup5\n        /* \"#utility.yul\":1649:1665   */\n      add\n        /* \"#utility.yul\":1642:1669   */\n      mstore\n        /* \"#utility.yul\":1491:1675   */\n      pop\n        /* \"#utility.yul\":1429:1675   */\n      pop\n      pop\n      pop\n      jump\t// out\n        /* \"#utility.yul\":1681:1783   */\n    tag_212:\n        /* \"#utility.yul\":1722:1728   */\n      0x00\n        /* \"#utility.yul\":1773:1775   */\n      0x1f\n        /* \"#utility.yul\":1769:1776   */\n      not\n        /* \"#utility.yul\":1764:1766   */\n      0x1f\n        /* \"#utility.yul\":1757:1762   */\n      dup4\n        /* \"#utility.yul\":1753:1767   */\n      add\n        /* \"#utility.yul\":1749:1777   */\n      and\n        /* \"#utility.yul\":1739:1777   */\n      swap1\n      pop\n        /* \"#utility.yul\":1681:1783   */\n      swap2\n      swap1\n      pop\n      jump\t// out\n        /* \"#utility.yul\":1789:2166   */\n    tag_213:\n        /* \"#utility.yul\":1877:1880   */\n      0x00\n        /* \"#utility.yul\":1905:1944   */\n      tag_276\n        /* \"#utility.yul\":1938:1943   */\n      dup3\n        /* \"#utility.yul\":1905:1944   */\n      tag_209\n      jump\t// in\n    tag_276:\n        /* \"#utility.yul\":1960:2031   */\n      tag_277\n        /* \"#utility.yul\":2024:2030   */\n      dup2\n        /* \"#utility.yul\":2019:2022   */\n      dup6\n        /* \"#utility.yul\":1960:2031   */\n      tag_210\n      jump\t// in\n    tag_277:\n        /* \"#utility.yul\":1953:2031   */\n      swap4\n      pop\n        /* \"#utility.yul\":2040:2105   */\n      tag_278\n        /* \"#utility.yul\":2098:2104   */\n      dup2\n        /* \"#utility.yul\":2093:2096   */\n      dup6\n        /* \"#utility.yul\":2086:2090   */\n      0x20\n        /* \"#utility.yul\":2079:2084   */\n      dup7\n        /* \"#utility.yul\":2075:2091   */\n      add\n        /* \"#utility.yul\":2040:2105   */\n      tag_211\n      jump\t// in\n    tag_278:\n        /* \"#utility.yul\":2130:2159   */\n      tag_279\n        /* \"#utility.yul\":2152:2158   */\n      dup2\n        /* \"#utility.yul\":2130:2159   */\n      tag_212\n      jump\t// in\n    tag_279:\n        /* \"#utility.yul\":2125:2128   */\n      dup5\n        /* \"#utility.yul\":2121:2160   */\n      add\n        /* \"#utility.yul\":2114:2160   */\n      swap2\n      pop\n        /* \"#utility.yul\":1881:2166   */\n      pop\n        /* \"#utility.yul\":1789:2166   */\n      swap3\n      swap2\n      pop\n      pop\n      jump\t// out\n        /* \"#utility.yul\":2172:2298   */\n    tag_214:\n        /* \"#utility.yul\":2209:2216   */\n      0x00\n        /* \"#utility.yul\":2249:2291   */\n      0xffffffffffffffffffffffffffffffffffffffff\n        /* \"#utility.yul\":2242:2247   */\n      dup3\n        /* \"#utility.yul\":2238:2292   */\n      and\n        /* \"#utility.yul\":2227:2292   */\n      swap1\n      pop\n        /* \"#utility.yul\":2172:2298   */\n      swap2\n      swap1\n      pop\n      jump\t// out\n        /* \"#utility.yul\":2304:2400   */\n    tag_215:\n        /* \"#utility.yul\":2341:2348   */\n      0x00\n        /* \"#utility.yul\":2370:2394   */\n      tag_282\n        /* \"#utility.yul\":2388:2393   */\n      dup3\n        /* \"#utility.yul\":2370:2394   */\n      tag_214\n      jump\t// in\n    tag_282:\n        /* \"#utility.yul\":2359:2394   */\n      swap1\n      pop\n        /* \"#utility.yul\":2304:2400   */\n      swap2\n      swap1\n      pop\n      jump\t// out\n        /* \"#utility.yul\":2406:2524   */\n    tag_216:\n        /* \"#utility.yul\":2493:2517   */\n      tag_284\n        /* \"#utility.yul\":2511:2516   */\n      dup2\n        /* \"#utility.yul\":2493:2517   */\n      tag_215\n      jump\t// in\n    tag_284:\n        /* \"#utility.yul\":2488:2491   */\n      dup3\n        /* \"#utility.yul\":2481:2518   */\n      mstore\n        /* \"#utility.yul\":2406:2524   */\n      pop\n      pop\n      jump\t// out\n        /* \"#utility.yul\":2530:3285   */\n    tag_29:\n        /* \"#utility.yul\":2755:2759   */\n      0x00\n        /* \"#utility.yul\":2793:2796   */\n      0xa0\n        /* \"#utility.yul\":2782:2791   */\n      dup3\n        /* \"#utility.yul\":2778:2797   */\n      add\n        /* \"#utility.yul\":2770:2797   */\n      swap1\n      pop\n        /* \"#utility.yul\":2807:2878   */\n      tag_286\n        /* \"#utility.yul\":2875:2876   */\n      0x00\n        /* \"#utility.yul\":2864:2873   */\n      dup4\n        /* \"#utility.yul\":2860:2877   */\n      add\n        /* \"#utility.yul\":2851:2857   */\n      dup9\n        /* \"#utility.yul\":2807:2878   */\n      tag_208\n      jump\t// in\n    tag_286:\n        /* \"#utility.yul\":2925:2934   */\n      dup2\n        /* \"#utility.yul\":2919:2923   */\n      dup2\n        /* \"#utility.yul\":2915:2935   */\n      sub\n        /* \"#utility.yul\":2910:2912   */\n      0x20\n        /* \"#utility.yul\":2899:2908   */\n      dup4\n        /* \"#utility.yul\":2895:2913   */\n      add\n        /* \"#utility.yul\":2888:2936   */\n      mstore\n        /* \"#utility.yul\":2953:3031   */\n      tag_287\n        /* \"#utility.yul\":3026:3030   */\n      dup2\n        /* \"#utility.yul\":3017:3023   */\n      dup8\n        /* \"#utility.yul\":2953:3031   */\n      tag_213\n      jump\t// in\n    tag_287:\n        /* \"#utility.yul\":2945:3031   */\n      swap1\n      pop\n        /* \"#utility.yul\":3041:3113   */\n      tag_288\n        /* \"#utility.yul\":3109:3111   */\n      0x40\n        /* \"#utility.yul\":3098:3107   */\n      dup4\n        /* \"#utility.yul\":3094:3112   */\n      add\n        /* \"#utility.yul\":3085:3091   */\n      dup7\n        /* \"#utility.yul\":3041:3113   */\n      tag_216\n      jump\t// in\n    tag_288:\n        /* \"#utility.yul\":3123:3195   */\n      tag_289\n        /* \"#utility.yul\":3191:3193   */\n      0x60\n        /* \"#utility.yul\":3180:3189   */\n      dup4\n        /* \"#utility.yul\":3176:3194   */\n      add\n        /* \"#utility.yul\":3167:3173   */\n      dup6\n        /* \"#utility.yul\":3123:3195   */\n      tag_208\n      jump\t// in\n    tag_289:\n        /* \"#utility.yul\":3205:3278   */\n      tag_290\n        /* \"#utility.yul\":3273:3276   */\n      0x80\n        /* \"#utility.yul\":3262:3271   */\n      dup4\n        /* \"#utility.yul\":3258:3277   */\n      add\n        /* \"#utility.yul\":3249:3255   */\n      dup5\n        /* \"#utility.yul\":3205:3278   */\n      tag_208\n      jump\t// in\n    tag_290:\n        /* \"#utility.yul\":2530:3285   */\n      swap7\n      swap6\n      pop\n      pop\n      pop\n      pop\n      pop\n      pop\n      jump\t// out\n        /* \"#utility.yul\":3291:3413   */\n    tag_217:\n        /* \"#utility.yul\":3364:3388   */\n      tag_292\n        /* \"#utility.yul\":3382:3387   */\n      dup2\n        /* \"#utility.yul\":3364:3388   */\n      tag_215\n      jump\t// in\n    tag_292:\n        /* \"#utility.yul\":3357:3362   */\n      dup2\n        /* \"#utility.yul\":3354:3389   */\n      eq\n        /* \"#utility.yul\":3344:3407   */\n      tag_293\n      jumpi\n        /* \"#utility.yul\":3403:3404   */\n      0x00\n        /* \"#utility.yul\":3400:3401   */\n      dup1\n        /* \"#utility.yul\":3393:3405   */\n      revert\n        /* \"#utility.yul\":3344:3407   */\n    tag_293:\n        /* \"#utility.yul\":3291:3413   */\n      pop\n      jump\t// out\n        /* \"#utility.yul\":3419:3558   */\n    tag_218:\n        /* \"#utility.yul\":3465:3470   */\n      0x00\n        /* \"#utility.yul\":3503:3509   */\n      dup2\n        /* \"#utility.yul\":3490:3510   */\n      calldataload\n        /* \"#utility.yul\":3481:3510   */\n      swap1\n      pop\n        /* \"#utility.yul\":3519:3552   */\n      tag_295\n        /* \"#utility.yul\":3546:3551   */\n      dup2\n        /* \"#utility.yul\":3519:3552   */\n      tag_217\n      jump\t// in\n    tag_295:\n        /* \"#utility.yul\":3419:3558   */\n      swap3\n      swap2\n      pop\n      pop\n      jump\t// out\n        /* \"#utility.yul\":3564:3893   */\n    tag_33:\n        /* \"#utility.yul\":3623:3629   */\n      0x00\n        /* \"#utility.yul\":3672:3674   */\n      0x20\n        /* \"#utility.yul\":3660:3669   */\n      dup3\n        /* \"#utility.yul\":3651:3658   */\n      dup5\n        /* \"#utility.yul\":3647:3670   */\n      sub\n        /* \"#utility.yul\":3643:3675   */\n      slt\n        /* \"#utility.yul\":3640:3759   */\n      iszero\n      tag_297\n      jumpi\n        /* \"#utility.yul\":3678:3757   */\n      tag_298\n      tag_203\n      jump\t// in\n    tag_298:\n        /* \"#utility.yul\":3640:3759   */\n    tag_297:\n        /* \"#utility.yul\":3798:3799   */\n      0x00\n        /* \"#utility.yul\":3823:3876   */\n      tag_299\n        /* \"#utility.yul\":3868:3875   */\n      dup5\n        /* \"#utility.yul\":3859:3865   */\n      dup3\n        /* \"#utility.yul\":3848:3857   */\n      dup6\n        /* \"#utility.yul\":3844:3866   */\n      add\n        /* \"#utility.yul\":3823:3876   */\n      tag_218\n      jump\t// in\n    tag_299:\n        /* \"#utility.yul\":3813:3876   */\n      swap2\n      pop\n        /* \"#utility.yul\":3769:3886   */\n      pop\n        /* \"#utility.yul\":3564:3893   */\n      swap3\n      swap2\n      pop\n      pop\n      jump\t// out\n        /* \"#utility.yul\":3899:4007   */\n    tag_219:\n        /* \"#utility.yul\":3976:4000   */\n      tag_301\n        /* \"#utility.yul\":3994:3999   */\n      dup2\n        /* \"#utility.yul\":3976:4000   */\n      tag_205\n      jump\t// in\n    tag_301:\n        /* \"#utility.yul\":3971:3974   */\n      dup3\n        /* \"#utility.yul\":3964:4001   */\n      mstore\n        /* \"#utility.yul\":3899:4007   */\n      pop\n      pop\n      jump\t// out\n        /* \"#utility.yul\":4013:4172   */\n    tag_220:\n        /* \"#utility.yul\":4087:4098   */\n      0x00\n        /* \"#utility.yul\":4121:4127   */\n      dup3\n        /* \"#utility.yul\":4116:4119   */\n      dup3\n        /* \"#utility.yul\":4109:4128   */\n      mstore\n        /* \"#utility.yul\":4161:4165   */\n      0x20\n        /* \"#utility.yul\":4156:4159   */\n      dup3\n        /* \"#utility.yul\":4152:4166   */\n      add\n        /* \"#utility.yul\":4137:4166   */\n      swap1\n      pop\n        /* \"#utility.yul\":4013:4172   */\n      swap3\n      swap2\n      pop\n      pop\n      jump\t// out\n        /* \"#utility.yul\":4178:4535   */\n    tag_221:\n        /* \"#utility.yul\":4256:4259   */\n      0x00\n        /* \"#utility.yul\":4284:4323   */\n      tag_304\n        /* \"#utility.yul\":4317:4322   */\n      dup3\n        /* \"#utility.yul\":4284:4323   */\n      tag_209\n      jump\t// in\n    tag_304:\n        /* \"#utility.yul\":4339:4400   */\n      tag_305\n        /* \"#utility.yul\":4393:4399   */\n      dup2\n        /* \"#utility.yul\":4388:4391   */\n      dup6\n        /* \"#utility.yul\":4339:4400   */\n      tag_220\n      jump\t// in\n    tag_305:\n        /* \"#utility.yul\":4332:4400   */\n      swap4\n      pop\n        /* \"#utility.yul\":4409:4474   */\n      tag_306\n        /* \"#utility.yul\":4467:4473   */\n      dup2\n        /* \"#utility.yul\":4462:4465   */\n      dup6\n        /* \"#utility.yul\":4455:4459   */\n      0x20\n        /* \"#utility.yul\":4448:4453   */\n      dup7\n        /* \"#utility.yul\":4444:4460   */\n      add\n        /* \"#utility.yul\":4409:4474   */\n      tag_211\n      jump\t// in\n    tag_306:\n        /* \"#utility.yul\":4499:4528   */\n      tag_307\n        /* \"#utility.yul\":4521:4527   */\n      dup2\n        /* \"#utility.yul\":4499:4528   */\n      tag_212\n      jump\t// in\n    tag_307:\n        /* \"#utility.yul\":4494:4497   */\n      dup5\n        /* \"#utility.yul\":4490:4529   */\n      add\n        /* \"#utility.yul\":4483:4529   */\n      swap2\n      pop\n        /* \"#utility.yul\":4260:4535   */\n      pop\n        /* \"#utility.yul\":4178:4535   */\n      swap3\n      swap2\n      pop\n      pop\n      jump\t// out\n        /* \"#utility.yul\":4541:4649   */\n    tag_222:\n        /* \"#utility.yul\":4618:4642   */\n      tag_309\n        /* \"#utility.yul\":4636:4641   */\n      dup2\n        /* \"#utility.yul\":4618:4642   */\n      tag_215\n      jump\t// in\n    tag_309:\n        /* \"#utility.yul\":4613:4616   */\n      dup3\n        /* \"#utility.yul\":4606:4643   */\n      mstore\n        /* \"#utility.yul\":4541:4649   */\n      pop\n      pop\n      jump\t// out\n        /* \"#utility.yul\":4695:5822   */\n    tag_223:\n        /* \"#utility.yul\":4804:4807   */\n      0x00\n        /* \"#utility.yul\":4840:4844   */\n      0xa0\n        /* \"#utility.yul\":4835:4838   */\n      dup4\n        /* \"#utility.yul\":4831:4845   */\n      add\n        /* \"#utility.yul\":4929:4933   */\n      0x00\n        /* \"#utility.yul\":4922:4927   */\n      dup4\n        /* \"#utility.yul\":4918:4934   */\n      add\n        /* \"#utility.yul\":4912:4935   */\n      mload\n        /* \"#utility.yul\":4948:5011   */\n      tag_311\n        /* \"#utility.yul\":5005:5009   */\n      0x00\n        /* \"#utility.yul\":5000:5003   */\n      dup7\n        /* \"#utility.yul\":4996:5010   */\n      add\n        /* \"#utility.yul\":4982:4994   */\n      dup3\n        /* \"#utility.yul\":4948:5011   */\n      tag_219\n      jump\t// in\n    tag_311:\n        /* \"#utility.yul\":4855:5021   */\n      pop\n        /* \"#utility.yul\":5103:5107   */\n      0x20\n        /* \"#utility.yul\":5096:5101   */\n      dup4\n        /* \"#utility.yul\":5092:5108   */\n      add\n        /* \"#utility.yul\":5086:5109   */\n      mload\n        /* \"#utility.yul\":5156:5159   */\n      dup5\n        /* \"#utility.yul\":5150:5154   */\n      dup3\n        /* \"#utility.yul\":5146:5160   */\n      sub\n        /* \"#utility.yul\":5139:5143   */\n      0x20\n        /* \"#utility.yul\":5134:5137   */\n      dup7\n        /* \"#utility.yul\":5130:5144   */\n      add\n        /* \"#utility.yul\":5123:5161   */\n      mstore\n        /* \"#utility.yul\":5182:5255   */\n      tag_312\n        /* \"#utility.yul\":5250:5254   */\n      dup3\n        /* \"#utility.yul\":5236:5248   */\n      dup3\n        /* \"#utility.yul\":5182:5255   */\n      tag_221\n      jump\t// in\n    tag_312:\n        /* \"#utility.yul\":5174:5255   */\n      swap2\n      pop\n        /* \"#utility.yul\":5031:5266   */\n      pop\n        /* \"#utility.yul\":5351:5355   */\n      0x40\n        /* \"#utility.yul\":5344:5349   */\n      dup4\n        /* \"#utility.yul\":5340:5356   */\n      add\n        /* \"#utility.yul\":5334:5357   */\n      mload\n        /* \"#utility.yul\":5370:5433   */\n      tag_313\n        /* \"#utility.yul\":5427:5431   */\n      0x40\n        /* \"#utility.yul\":5422:5425   */\n      dup7\n        /* \"#utility.yul\":5418:5432   */\n      add\n        /* \"#utility.yul\":5404:5416   */\n      dup3\n        /* \"#utility.yul\":5370:5433   */\n      tag_222\n      jump\t// in\n    tag_313:\n        /* \"#utility.yul\":5276:5443   */\n      pop\n        /* \"#utility.yul\":5528:5532   */\n      0x60\n        /* \"#utility.yul\":5521:5526   */\n      dup4\n        /* \"#utility.yul\":5517:5533   */\n      add\n        /* \"#utility.yul\":5511:5534   */\n      mload\n        /* \"#utility.yul\":5547:5610   */\n      tag_314\n        /* \"#utility.yul\":5604:5608   */\n      0x60\n        /* \"#utility.yul\":5599:5602   */\n      dup7\n        /* \"#utility.yul\":5595:5609   */\n      add\n        /* \"#utility.yul\":5581:5593   */\n      dup3\n        /* \"#utility.yul\":5547:5610   */\n      tag_219\n      jump\t// in\n    tag_314:\n        /* \"#utility.yul\":5453:5620   */\n      pop\n        /* \"#utility.yul\":5703:5707   */\n      0x80\n        /* \"#utility.yul\":5696:5701   */\n      dup4\n        /* \"#utility.yul\":5692:5708   */\n      add\n        /* \"#utility.yul\":5686:5709   */\n      mload\n        /* \"#utility.yul\":5722:5785   */\n      tag_315\n        /* \"#utility.yul\":5779:5783   */\n      0x80\n        /* \"#utility.yul\":5774:5777   */\n      dup7\n        /* \"#utility.yul\":5770:5784   */\n      add\n        /* \"#utility.yul\":5756:5768   */\n      dup3\n        /* \"#utility.yul\":5722:5785   */\n      tag_219\n      jump\t// in\n    tag_315:\n        /* \"#utility.yul\":5630:5795   */\n      pop\n        /* \"#utility.yul\":5812:5816   */\n      dup1\n        /* \"#utility.yul\":5805:5816   */\n      swap2\n      pop\n        /* \"#utility.yul\":4809:5822   */\n      pop\n        /* \"#utility.yul\":4695:5822   */\n      swap3\n      swap2\n      pop\n      pop\n      jump\t// out\n        /* \"#utility.yul\":5828:6181   */\n    tag_36:\n        /* \"#utility.yul\":5961:5965   */\n      0x00\n        /* \"#utility.yul\":5999:6001   */\n      0x20\n        /* \"#utility.yul\":5988:5997   */\n      dup3\n        /* \"#utility.yul\":5984:6002   */\n      add\n        /* \"#utility.yul\":5976:6002   */\n      swap1\n      pop\n        /* \"#utility.yul\":6048:6057   */\n      dup2\n        /* \"#utility.yul\":6042:6046   */\n      dup2\n        /* \"#utility.yul\":6038:6058   */\n      sub\n        /* \"#utility.yul\":6034:6035   */\n      0x00\n        /* \"#utility.yul\":6023:6032   */\n      dup4\n        /* \"#utility.yul\":6019:6036   */\n      add\n        /* \"#utility.yul\":6012:6059   */\n      mstore\n        /* \"#utility.yul\":6076:6174   */\n      tag_317\n        /* \"#utility.yul\":6169:6173   */\n      dup2\n        /* \"#utility.yul\":6160:6166   */\n      dup5\n        /* \"#utility.yul\":6076:6174   */\n      tag_223\n      jump\t// in\n    tag_317:\n        /* \"#utility.yul\":6068:6174   */\n      swap1\n      pop\n        /* \"#utility.yul\":5828:6181   */\n      swap3\n      swap2\n      pop\n      pop\n      jump\t// out\n        /* \"#utility.yul\":6187:6304   */\n    tag_224:\n        /* \"#utility.yul\":6296:6297   */\n      0x00\n        /* \"#utility.yul\":6293:6294   */\n      dup1\n        /* \"#utility.yul\":6286:6298   */\n      revert\n        /* \"#utility.yul\":6310:6427   */\n    tag_225:\n        /* \"#utility.yul\":6419:6420   */\n      0x00\n        /* \"#utility.yul\":6416:6417   */\n      dup1\n        /* \"#utility.yul\":6409:6421   */\n      revert\n        /* \"#utility.yul\":6433:6613   */\n    tag_226:\n        /* \"#utility.yul\":6481:6558   */\n      0x4e487b7100000000000000000000000000000000000000000000000000000000\n        /* \"#utility.yul\":6478:6479   */\n      0x00\n        /* \"#utility.yul\":6471:6559   */\n      mstore\n        /* \"#utility.yul\":6578:6582   */\n      0x41\n        /* \"#utility.yul\":6575:6576   */\n      0x04\n        /* \"#utility.yul\":6568:6583   */\n      mstore\n        /* \"#utility.yul\":6602:6606   */\n      0x24\n        /* \"#utility.yul\":6599:6600   */\n      0x00\n        /* \"#utility.yul\":6592:6607   */\n      revert\n        /* \"#utility.yul\":6619:6900   */\n    tag_227:\n        /* \"#utility.yul\":6702:6729   */\n      tag_322\n        /* \"#utility.yul\":6724:6728   */\n      dup3\n        /* \"#utility.yul\":6702:6729   */\n      tag_212\n      jump\t// in\n    tag_322:\n        /* \"#utility.yul\":6694:6700   */\n      dup2\n        /* \"#utility.yul\":6690:6730   */\n      add\n        /* \"#utility.yul\":6832:6838   */\n      dup2\n        /* \"#utility.yul\":6820:6830   */\n      dup2\n        /* \"#utility.yul\":6817:6839   */\n      lt\n        /* \"#utility.yul\":6796:6814   */\n      0xffffffffffffffff\n        /* \"#utility.yul\":6784:6794   */\n      dup3\n        /* \"#utility.yul\":6781:6815   */\n      gt\n        /* \"#utility.yul\":6778:6840   */\n      or\n        /* \"#utility.yul\":6775:6863   */\n      iszero\n      tag_323\n      jumpi\n        /* \"#utility.yul\":6843:6861   */\n      tag_324\n      tag_226\n      jump\t// in\n    tag_324:\n        /* \"#utility.yul\":6775:6863   */\n    tag_323:\n        /* \"#utility.yul\":6883:6893   */\n      dup1\n        /* \"#utility.yul\":6879:6881   */\n      0x40\n        /* \"#utility.yul\":6872:6894   */\n      mstore\n        /* \"#utility.yul\":6662:6900   */\n      pop\n        /* \"#utility.yul\":6619:6900   */\n      pop\n      pop\n      jump\t// out\n        /* \"#utility.yul\":6906:7035   */\n    tag_228:\n        /* \"#utility.yul\":6940:6946   */\n      0x00\n        /* \"#utility.yul\":6967:6987   */\n      tag_326\n      tag_202\n      jump\t// in\n    tag_326:\n        /* \"#utility.yul\":6957:6987   */\n      swap1\n      pop\n        /* \"#utility.yul\":6996:7029   */\n      tag_327\n        /* \"#utility.yul\":7024:7028   */\n      dup3\n        /* \"#utility.yul\":7016:7022   */\n      dup3\n        /* \"#utility.yul\":6996:7029   */\n      tag_227\n      jump\t// in\n    tag_327:\n        /* \"#utility.yul\":6906:7035   */\n      swap2\n      swap1\n      pop\n      jump\t// out\n        /* \"#utility.yul\":7041:7349   */\n    tag_229:\n        /* \"#utility.yul\":7103:7107   */\n      0x00\n        /* \"#utility.yul\":7193:7211   */\n      0xffffffffffffffff\n        /* \"#utility.yul\":7185:7191   */\n      dup3\n        /* \"#utility.yul\":7182:7212   */\n      gt\n        /* \"#utility.yul\":7179:7235   */\n      iszero\n      tag_329\n      jumpi\n        /* \"#utility.yul\":7215:7233   */\n      tag_330\n      tag_226\n      jump\t// in\n    tag_330:\n        /* \"#utility.yul\":7179:7235   */\n    tag_329:\n        /* \"#utility.yul\":7253:7282   */\n      tag_331\n        /* \"#utility.yul\":7275:7281   */\n      dup3\n        /* \"#utility.yul\":7253:7282   */\n      tag_212\n      jump\t// in\n    tag_331:\n        /* \"#utility.yul\":7245:7282   */\n      swap1\n      pop\n        /* \"#utility.yul\":7337:7341   */\n      0x20\n        /* \"#utility.yul\":7331:7335   */\n      dup2\n        /* \"#utility.yul\":7327:7342   */\n      add\n        /* \"#utility.yul\":7319:7342   */\n      swap1\n      pop\n        /* \"#utility.yul\":7041:7349   */\n      swap2\n      swap1\n      pop\n      jump\t// out\n        /* \"#utility.yul\":7355:7501   */\n    tag_230:\n        /* \"#utility.yul\":7452:7458   */\n      dup3\n        /* \"#utility.yul\":7447:7450   */\n      dup2\n        /* \"#utility.yul\":7442:7445   */\n      dup4\n        /* \"#utility.yul\":7429:7459   */\n      calldatacopy\n        /* \"#utility.yul\":7493:7494   */\n      0x00\n        /* \"#utility.yul\":7484:7490   */\n      dup4\n        /* \"#utility.yul\":7479:7482   */\n      dup4\n        /* \"#utility.yul\":7475:7491   */\n      add\n        /* \"#utility.yul\":7468:7495   */\n      mstore\n        /* \"#utility.yul\":7355:7501   */\n      pop\n      pop\n      pop\n      jump\t// out\n        /* \"#utility.yul\":7507:7932   */\n    tag_231:\n        /* \"#utility.yul\":7585:7590   */\n      0x00\n        /* \"#utility.yul\":7610:7676   */\n      tag_334\n        /* \"#utility.yul\":7626:7675   */\n      tag_335\n        /* \"#utility.yul\":7668:7674   */\n      dup5\n        /* \"#utility.yul\":7626:7675   */\n      tag_229\n      jump\t// in\n    tag_335:\n        /* \"#utility.yul\":7610:7676   */\n      tag_228\n      jump\t// in\n    tag_334:\n        /* \"#utility.yul\":7601:7676   */\n      swap1\n      pop\n        /* \"#utility.yul\":7699:7705   */\n      dup3\n        /* \"#utility.yul\":7692:7697   */\n      dup2\n        /* \"#utility.yul\":7685:7706   */\n      mstore\n        /* \"#utility.yul\":7737:7741   */\n      0x20\n        /* \"#utility.yul\":7730:7735   */\n      dup2\n        /* \"#utility.yul\":7726:7742   */\n      add\n        /* \"#utility.yul\":7775:7778   */\n      dup5\n        /* \"#utility.yul\":7766:7772   */\n      dup5\n        /* \"#utility.yul\":7761:7764   */\n      dup5\n        /* \"#utility.yul\":7757:7773   */\n      add\n        /* \"#utility.yul\":7754:7779   */\n      gt\n        /* \"#utility.yul\":7751:7863   */\n      iszero\n      tag_336\n      jumpi\n        /* \"#utility.yul\":7782:7861   */\n      tag_337\n      tag_225\n      jump\t// in\n    tag_337:\n        /* \"#utility.yul\":7751:7863   */\n    tag_336:\n        /* \"#utility.yul\":7872:7926   */\n      tag_338\n        /* \"#utility.yul\":7919:7925   */\n      dup5\n        /* \"#utility.yul\":7914:7917   */\n      dup3\n        /* \"#utility.yul\":7909:7912   */\n      dup6\n        /* \"#utility.yul\":7872:7926   */\n      tag_230\n      jump\t// in\n    tag_338:\n        /* \"#utility.yul\":7591:7932   */\n      pop\n        /* \"#utility.yul\":7507:7932   */\n      swap4\n      swap3\n      pop\n      pop\n      pop\n      jump\t// out\n        /* \"#utility.yul\":7952:8292   */\n    tag_232:\n        /* \"#utility.yul\":8008:8013   */\n      0x00\n        /* \"#utility.yul\":8057:8060   */\n      dup3\n        /* \"#utility.yul\":8050:8054   */\n      0x1f\n        /* \"#utility.yul\":8042:8048   */\n      dup4\n        /* \"#utility.yul\":8038:8055   */\n      add\n        /* \"#utility.yul\":8034:8061   */\n      slt\n        /* \"#utility.yul\":8024:8146   */\n      tag_340\n      jumpi\n        /* \"#utility.yul\":8065:8144   */\n      tag_341\n      tag_224\n      jump\t// in\n    tag_341:\n        /* \"#utility.yul\":8024:8146   */\n    tag_340:\n        /* \"#utility.yul\":8182:8188   */\n      dup2\n        /* \"#utility.yul\":8169:8189   */\n      calldataload\n        /* \"#utility.yul\":8207:8286   */\n      tag_342\n        /* \"#utility.yul\":8282:8285   */\n      dup5\n        /* \"#utility.yul\":8274:8280   */\n      dup3\n        /* \"#utility.yul\":8267:8271   */\n      0x20\n        /* \"#utility.yul\":8259:8265   */\n      dup7\n        /* \"#utility.yul\":8255:8272   */\n      add\n        /* \"#utility.yul\":8207:8286   */\n      tag_231\n      jump\t// in\n    tag_342:\n        /* \"#utility.yul\":8198:8286   */\n      swap2\n      pop\n        /* \"#utility.yul\":8014:8292   */\n      pop\n        /* \"#utility.yul\":7952:8292   */\n      swap3\n      swap2\n      pop\n      pop\n      jump\t// out\n        /* \"#utility.yul\":8298:8807   */\n    tag_52:\n        /* \"#utility.yul\":8367:8373   */\n      0x00\n        /* \"#utility.yul\":8416:8418   */\n      0x20\n        /* \"#utility.yul\":8404:8413   */\n      dup3\n        /* \"#utility.yul\":8395:8402   */\n      dup5\n        /* \"#utility.yul\":8391:8414   */\n      sub\n        /* \"#utility.yul\":8387:8419   */\n      slt\n        /* \"#utility.yul\":8384:8503   */\n      iszero\n      tag_344\n      jumpi\n        /* \"#utility.yul\":8422:8501   */\n      tag_345\n      tag_203\n      jump\t// in\n    tag_345:\n        /* \"#utility.yul\":8384:8503   */\n    tag_344:\n        /* \"#utility.yul\":8570:8571   */\n      0x00\n        /* \"#utility.yul\":8559:8568   */\n      dup3\n        /* \"#utility.yul\":8555:8572   */\n      add\n        /* \"#utility.yul\":8542:8573   */\n      calldataload\n        /* \"#utility.yul\":8600:8618   */\n      0xffffffffffffffff\n        /* \"#utility.yul\":8592:8598   */\n      dup2\n        /* \"#utility.yul\":8589:8619   */\n      gt\n        /* \"#utility.yul\":8586:8703   */\n      iszero\n      tag_346\n      jumpi\n        /* \"#utility.yul\":8622:8701   */\n      tag_347\n      tag_204\n      jump\t// in\n    tag_347:\n        /* \"#utility.yul\":8586:8703   */\n    tag_346:\n        /* \"#utility.yul\":8727:8790   */\n      tag_348\n        /* \"#utility.yul\":8782:8789   */\n      dup5\n        /* \"#utility.yul\":8773:8779   */\n      dup3\n        /* \"#utility.yul\":8762:8771   */\n      dup6\n        /* \"#utility.yul\":8758:8780   */\n      add\n        /* \"#utility.yul\":8727:8790   */\n      tag_232\n      jump\t// in\n    tag_348:\n        /* \"#utility.yul\":8717:8790   */\n      swap2\n      pop\n        /* \"#utility.yul\":8513:8800   */\n      pop\n        /* \"#utility.yul\":8298:8807   */\n      swap3\n      swap2\n      pop\n      pop\n      jump\t// out\n        /* \"#utility.yul\":8813:9035   */\n    tag_58:\n        /* \"#utility.yul\":8906:8910   */\n      0x00\n        /* \"#utility.yul\":8944:8946   */\n      0x20\n        /* \"#utility.yul\":8933:8942   */\n      dup3\n        /* \"#utility.yul\":8929:8947   */\n      add\n        /* \"#utility.yul\":8921:8947   */\n      swap1\n      pop\n        /* \"#utility.yul\":8957:9028   */\n      tag_350\n        /* \"#utility.yul\":9025:9026   */\n      0x00\n        /* \"#utility.yul\":9014:9023   */\n      dup4\n        /* \"#utility.yul\":9010:9027   */\n      add\n        /* \"#utility.yul\":9001:9007   */\n      dup5\n        /* \"#utility.yul\":8957:9028   */\n      tag_208\n      jump\t// in\n    tag_350:\n        /* \"#utility.yul\":8813:9035   */\n      swap3\n      swap2\n      pop\n      pop\n      jump\t// out\n        /* \"#utility.yul\":9041:9221   */\n    tag_233:\n        /* \"#utility.yul\":9089:9166   */\n      0x4e487b7100000000000000000000000000000000000000000000000000000000\n        /* \"#utility.yul\":9086:9087   */\n      0x00\n        /* \"#utility.yul\":9079:9167   */\n      mstore\n        /* \"#utility.yul\":9186:9190   */\n      0x12\n        /* \"#utility.yul\":9183:9184   */\n      0x04\n        /* \"#utility.yul\":9176:9191   */\n      mstore\n        /* \"#utility.yul\":9210:9214   */\n      0x24\n        /* \"#utility.yul\":9207:9208   */\n      0x00\n        /* \"#utility.yul\":9200:9215   */\n      revert\n        /* \"#utility.yul\":9227:9403   */\n    tag_66:\n        /* \"#utility.yul\":9259:9260   */\n      0x00\n        /* \"#utility.yul\":9276:9296   */\n      tag_353\n        /* \"#utility.yul\":9294:9295   */\n      dup3\n        /* \"#utility.yul\":9276:9296   */\n      tag_205\n      jump\t// in\n    tag_353:\n        /* \"#utility.yul\":9271:9296   */\n      swap2\n      pop\n        /* \"#utility.yul\":9310:9330   */\n      tag_354\n        /* \"#utility.yul\":9328:9329   */\n      dup4\n        /* \"#utility.yul\":9310:9330   */\n      tag_205\n      jump\t// in\n    tag_354:\n        /* \"#utility.yul\":9305:9330   */\n      swap3\n      pop\n        /* \"#utility.yul\":9349:9350   */\n      dup3\n        /* \"#utility.yul\":9339:9374   */\n      tag_355\n      jumpi\n        /* \"#utility.yul\":9354:9372   */\n      tag_356\n      tag_233\n      jump\t// in\n    tag_356:\n        /* \"#utility.yul\":9339:9374   */\n    tag_355:\n        /* \"#utility.yul\":9395:9396   */\n      dup3\n        /* \"#utility.yul\":9392:9393   */\n      dup3\n        /* \"#utility.yul\":9388:9397   */\n      mod\n        /* \"#utility.yul\":9383:9397   */\n      swap1\n      pop\n        /* \"#utility.yul\":9227:9403   */\n      swap3\n      swap2\n      pop\n      pop\n      jump\t// out\n        /* \"#utility.yul\":9409:9589   */\n    tag_234:\n        /* \"#utility.yul\":9457:9534   */\n      0x4e487b7100000000000000000000000000000000000000000000000000000000\n        /* \"#utility.yul\":9454:9455   */\n      0x00\n        /* \"#utility.yul\":9447:9535   */\n      mstore\n        /* \"#utility.yul\":9554:9558   */\n      0x11\n        /* \"#utility.yul\":9551:9552   */\n      0x04\n        /* \"#utility.yul\":9544:9559   */\n      mstore\n        /* \"#utility.yul\":9578:9582   */\n      0x24\n        /* \"#utility.yul\":9575:9576   */\n      0x00\n        /* \"#utility.yul\":9568:9583   */\n      revert\n        /* \"#utility.yul\":9595:9789   */\n    tag_70:\n        /* \"#utility.yul\":9635:9639   */\n      0x00\n        /* \"#utility.yul\":9655:9675   */\n      tag_359\n        /* \"#utility.yul\":9673:9674   */\n      dup3\n        /* \"#utility.yul\":9655:9675   */\n      tag_205\n      jump\t// in\n    tag_359:\n        /* \"#utility.yul\":9650:9675   */\n      swap2\n      pop\n        /* \"#utility.yul\":9689:9709   */\n      tag_360\n        /* \"#utility.yul\":9707:9708   */\n      dup4\n        /* \"#utility.yul\":9689:9709   */\n      tag_205\n      jump\t// in\n    tag_360:\n        /* \"#utility.yul\":9684:9709   */\n      swap3\n      pop\n        /* \"#utility.yul\":9733:9734   */\n      dup3\n        /* \"#utility.yul\":9730:9731   */\n      dup3\n        /* \"#utility.yul\":9726:9735   */\n      sub\n        /* \"#utility.yul\":9718:9735   */\n      swap1\n      pop\n        /* \"#utility.yul\":9757:9758   */\n      dup2\n        /* \"#utility.yul\":9751:9755   */\n      dup2\n        /* \"#utility.yul\":9748:9759   */\n      gt\n        /* \"#utility.yul\":9745:9782   */\n      iszero\n      tag_361\n      jumpi\n        /* \"#utility.yul\":9762:9780   */\n      tag_362\n      tag_234\n      jump\t// in\n    tag_362:\n        /* \"#utility.yul\":9745:9782   */\n    tag_361:\n        /* \"#utility.yul\":9595:9789   */\n      swap3\n      swap2\n      pop\n      pop\n      jump\t// out\n        /* \"#utility.yul\":9795:10205   */\n    tag_73:\n        /* \"#utility.yul\":9835:9842   */\n      0x00\n        /* \"#utility.yul\":9858:9878   */\n      tag_364\n        /* \"#utility.yul\":9876:9877   */\n      dup3\n        /* \"#utility.yul\":9858:9878   */\n      tag_205\n      jump\t// in\n    tag_364:\n        /* \"#utility.yul\":9853:9878   */\n      swap2\n      pop\n        /* \"#utility.yul\":9892:9912   */\n      tag_365\n        /* \"#utility.yul\":9910:9911   */\n      dup4\n        /* \"#utility.yul\":9892:9912   */\n      tag_205\n      jump\t// in\n    tag_365:\n        /* \"#utility.yul\":9887:9912   */\n      swap3\n      pop\n        /* \"#utility.yul\":9947:9948   */\n      dup3\n        /* \"#utility.yul\":9944:9945   */\n      dup3\n        /* \"#utility.yul\":9940:9949   */\n      mul\n        /* \"#utility.yul\":9969:9999   */\n      tag_366\n        /* \"#utility.yul\":9987:9998   */\n      dup2\n        /* \"#utility.yul\":9969:9999   */\n      tag_205\n      jump\t// in\n    tag_366:\n        /* \"#utility.yul\":9958:9999   */\n      swap2\n      pop\n        /* \"#utility.yul\":10148:10149   */\n      dup3\n        /* \"#utility.yul\":10139:10146   */\n      dup3\n        /* \"#utility.yul\":10135:10150   */\n      div\n        /* \"#utility.yul\":10132:10133   */\n      dup5\n        /* \"#utility.yul\":10129:10151   */\n      eq\n        /* \"#utility.yul\":10109:10110   */\n      dup4\n        /* \"#utility.yul\":10102:10111   */\n      iszero\n        /* \"#utility.yul\":10082:10165   */\n      or\n        /* \"#utility.yul\":10059:10198   */\n      tag_367\n      jumpi\n        /* \"#utility.yul\":10178:10196   */\n      tag_368\n      tag_234\n      jump\t// in\n    tag_368:\n        /* \"#utility.yul\":10059:10198   */\n    tag_367:\n        /* \"#utility.yul\":9843:10205   */\n      pop\n        /* \"#utility.yul\":9795:10205   */\n      swap3\n      swap2\n      pop\n      pop\n      jump\t// out\n        /* \"#utility.yul\":10211:10391   */\n    tag_235:\n        /* \"#utility.yul\":10259:10336   */\n      0x4e487b7100000000000000000000000000000000000000000000000000000000\n        /* \"#utility.yul\":10256:10257   */\n      0x00\n        /* \"#utility.yul\":10249:10337   */\n      mstore\n        /* \"#utility.yul\":10356:10360   */\n      0x22\n        /* \"#utility.yul\":10353:10354   */\n      0x04\n        /* \"#utility.yul\":10346:10361   */\n      mstore\n        /* \"#utility.yul\":10380:10384   */\n      0x24\n        /* \"#utility.yul\":10377:10378   */\n      0x00\n        /* \"#utility.yul\":10370:10385   */\n      revert\n        /* \"#utility.yul\":10397:10717   */\n    tag_85:\n        /* \"#utility.yul\":10441:10447   */\n      0x00\n        /* \"#utility.yul\":10478:10479   */\n      0x02\n        /* \"#utility.yul\":10472:10476   */\n      dup3\n        /* \"#utility.yul\":10468:10480   */\n      div\n        /* \"#utility.yul\":10458:10480   */\n      swap1\n      pop\n        /* \"#utility.yul\":10525:10526   */\n      0x01\n        /* \"#utility.yul\":10519:10523   */\n      dup3\n        /* \"#utility.yul\":10515:10527   */\n      and\n        /* \"#utility.yul\":10546:10564   */\n      dup1\n        /* \"#utility.yul\":10536:10617   */\n      tag_371\n      jumpi\n        /* \"#utility.yul\":10602:10606   */\n      0x7f\n        /* \"#utility.yul\":10594:10600   */\n      dup3\n        /* \"#utility.yul\":10590:10607   */\n      and\n        /* \"#utility.yul\":10580:10607   */\n      swap2\n      pop\n        /* \"#utility.yul\":10536:10617   */\n    tag_371:\n        /* \"#utility.yul\":10664:10666   */\n      0x20\n        /* \"#utility.yul\":10656:10662   */\n      dup3\n        /* \"#utility.yul\":10653:10667   */\n      lt\n        /* \"#utility.yul\":10633:10651   */\n      dup2\n        /* \"#utility.yul\":10630:10668   */\n      sub\n        /* \"#utility.yul\":10627:10711   */\n      tag_372\n      jumpi\n        /* \"#utility.yul\":10683:10701   */\n      tag_373\n      tag_235\n      jump\t// in\n    tag_373:\n        /* \"#utility.yul\":10627:10711   */\n    tag_372:\n        /* \"#utility.yul\":10448:10717   */\n      pop\n        /* \"#utility.yul\":10397:10717   */\n      swap2\n      swap1\n      pop\n      jump\t// out\n        /* \"#utility.yul\":10723:10903   */\n    tag_112:\n        /* \"#utility.yul\":10771:10848   */\n      0x4e487b7100000000000000000000000000000000000000000000000000000000\n        /* \"#utility.yul\":10768:10769   */\n      0x00\n        /* \"#utility.yul\":10761:10849   */\n      mstore\n        /* \"#utility.yul\":10868:10872   */\n      0x32\n        /* \"#utility.yul\":10865:10866   */\n      0x04\n        /* \"#utility.yul\":10858:10873   */\n      mstore\n        /* \"#utility.yul\":10892:10896   */\n      0x24\n        /* \"#utility.yul\":10889:10890   */\n      0x00\n        /* \"#utility.yul\":10882:10897   */\n      revert\n        /* \"#utility.yul\":10909:11100   */\n    tag_115:\n        /* \"#utility.yul\":10949:10952   */\n      0x00\n        /* \"#utility.yul\":10968:10988   */\n      tag_376\n        /* \"#utility.yul\":10986:10987   */\n      dup3\n        /* \"#utility.yul\":10968:10988   */\n      tag_205\n      jump\t// in\n    tag_376:\n        /* \"#utility.yul\":10963:10988   */\n      swap2\n      pop\n        /* \"#utility.yul\":11002:11022   */\n      tag_377\n        /* \"#utility.yul\":11020:11021   */\n      dup4\n        /* \"#utility.yul\":11002:11022   */\n      tag_205\n      jump\t// in\n    tag_377:\n        /* \"#utility.yul\":10997:11022   */\n      swap3\n      pop\n        /* \"#utility.yul\":11045:11046   */\n      dup3\n        /* \"#utility.yul\":11042:11043   */\n      dup3\n        /* \"#utility.yul\":11038:11047   */\n      add\n        /* \"#utility.yul\":11031:11047   */\n      swap1\n      pop\n        /* \"#utility.yul\":11066:11069   */\n      dup1\n        /* \"#utility.yul\":11063:11064   */\n      dup3\n        /* \"#utility.yul\":11060:11070   */\n      gt\n        /* \"#utility.yul\":11057:11093   */\n      iszero\n      tag_378\n      jumpi\n        /* \"#utility.yul\":11073:11091   */\n      tag_379\n      tag_234\n      jump\t// in\n    tag_379:\n        /* \"#utility.yul\":11057:11093   */\n    tag_378:\n        /* \"#utility.yul\":10909:11100   */\n      swap3\n      swap2\n      pop\n      pop\n      jump\t// out\n        /* \"#utility.yul\":11106:11277   */\n    tag_117:\n        /* \"#utility.yul\":11145:11148   */\n      0x00\n        /* \"#utility.yul\":11168:11192   */\n      tag_381\n        /* \"#utility.yul\":11186:11191   */\n      dup3\n        /* \"#utility.yul\":11168:11192   */\n      tag_205\n      jump\t// in\n    tag_381:\n        /* \"#utility.yul\":11159:11192   */\n      swap2\n      pop\n        /* \"#utility.yul\":11214:11218   */\n      0x00\n        /* \"#utility.yul\":11207:11212   */\n      dup3\n        /* \"#utility.yul\":11204:11219   */\n      sub\n        /* \"#utility.yul\":11201:11242   */\n      tag_382\n      jumpi\n        /* \"#utility.yul\":11222:11240   */\n      tag_383\n      tag_234\n      jump\t// in\n    tag_383:\n        /* \"#utility.yul\":11201:11242   */\n    tag_382:\n        /* \"#utility.yul\":11269:11270   */\n      0x01\n        /* \"#utility.yul\":11262:11267   */\n      dup3\n        /* \"#utility.yul\":11258:11271   */\n      sub\n        /* \"#utility.yul\":11251:11271   */\n      swap1\n      pop\n        /* \"#utility.yul\":11106:11277   */\n      swap2\n      swap1\n      pop\n      jump\t// out\n        /* \"#utility.yul\":11283:11432   */\n    tag_236:\n        /* \"#utility.yul\":11332:11338   */\n      0x00\n        /* \"#utility.yul\":11366:11371   */\n      dup2\n        /* \"#utility.yul\":11360:11372   */\n      sload\n        /* \"#utility.yul\":11350:11372   */\n      swap1\n      pop\n        /* \"#utility.yul\":11392:11425   */\n      tag_385\n        /* \"#utility.yul\":11418:11424   */\n      dup2\n        /* \"#utility.yul\":11392:11425   */\n      tag_85\n      jump\t// in\n    tag_385:\n        /* \"#utility.yul\":11382:11425   */\n      swap1\n      pop\n        /* \"#utility.yul\":11283:11432   */\n      swap2\n      swap1\n      pop\n      jump\t// out\n        /* \"#utility.yul\":11438:11579   */\n    tag_237:\n        /* \"#utility.yul\":11487:11491   */\n      0x00\n        /* \"#utility.yul\":11510:11513   */\n      dup2\n        /* \"#utility.yul\":11502:11513   */\n      swap1\n      pop\n        /* \"#utility.yul\":11533:11536   */\n      dup2\n        /* \"#utility.yul\":11530:11531   */\n      0x00\n        /* \"#utility.yul\":11523:11537   */\n      mstore\n        /* \"#utility.yul\":11567:11571   */\n      0x20\n        /* \"#utility.yul\":11564:11565   */\n      0x00\n        /* \"#utility.yul\":11554:11572   */\n      keccak256\n        /* \"#utility.yul\":11546:11572   */\n      swap1\n      pop\n        /* \"#utility.yul\":11438:11579   */\n      swap2\n      swap1\n      pop\n      jump\t// out\n        /* \"#utility.yul\":11585:11678   */\n    tag_238:\n        /* \"#utility.yul\":11622:11628   */\n      0x00\n        /* \"#utility.yul\":11669:11671   */\n      0x20\n        /* \"#utility.yul\":11664:11666   */\n      0x1f\n        /* \"#utility.yul\":11657:11662   */\n      dup4\n        /* \"#utility.yul\":11653:11667   */\n      add\n        /* \"#utility.yul\":11649:11672   */\n      div\n        /* \"#utility.yul\":11639:11672   */\n      swap1\n      pop\n        /* \"#utility.yul\":11585:11678   */\n      swap2\n      swap1\n      pop\n      jump\t// out\n        /* \"#utility.yul\":11684:11791   */\n    tag_239:\n        /* \"#utility.yul\":11728:11736   */\n      0x00\n        /* \"#utility.yul\":11778:11783   */\n      dup3\n        /* \"#utility.yul\":11772:11776   */\n      dup3\n        /* \"#utility.yul\":11768:11784   */\n      shl\n        /* \"#utility.yul\":11747:11784   */\n      swap1\n      pop\n        /* \"#utility.yul\":11684:11791   */\n      swap3\n      swap2\n      pop\n      pop\n      jump\t// out\n        /* \"#utility.yul\":11797:12190   */\n    tag_240:\n        /* \"#utility.yul\":11866:11872   */\n      0x00\n        /* \"#utility.yul\":11916:11917   */\n      0x08\n        /* \"#utility.yul\":11904:11914   */\n      dup4\n        /* \"#utility.yul\":11900:11918   */\n      mul\n        /* \"#utility.yul\":11939:12036   */\n      tag_390\n        /* \"#utility.yul\":11969:12035   */\n      0xffffffffffffffffffffffffffffffffffffffffffffffffffffffffffffffff\n        /* \"#utility.yul\":11958:11967   */\n      dup3\n        /* \"#utility.yul\":11939:12036   */\n      tag_239\n      jump\t// in\n    tag_390:\n        /* \"#utility.yul\":12057:12096   */\n      tag_391\n        /* \"#utility.yul\":12087:12095   */\n      dup7\n        /* \"#utility.yul\":12076:12085   */\n      dup4\n        /* \"#utility.yul\":12057:12096   */\n      tag_239\n      jump\t// in\n    tag_391:\n        /* \"#utility.yul\":12045:12096   */\n      swap6\n      pop\n        /* \"#utility.yul\":12129:12133   */\n      dup1\n        /* \"#utility.yul\":12125:12134   */\n      not\n        /* \"#utility.yul\":12118:12123   */\n      dup5\n        /* \"#utility.yul\":12114:12135   */\n      and\n        /* \"#utility.yul\":12105:12135   */\n      swap4\n      pop\n        /* \"#utility.yul\":12178:12182   */\n      dup1\n        /* \"#utility.yul\":12168:12176   */\n      dup7\n        /* \"#utility.yul\":12164:12183   */\n      and\n        /* \"#utility.yul\":12157:12162   */\n      dup5\n        /* \"#utility.yul\":12154:12184   */\n      or\n        /* \"#utility.yul\":12144:12184   */\n      swap3\n      pop\n        /* \"#utility.yul\":11873:12190   */\n      pop\n      pop\n        /* \"#utility.yul\":11797:12190   */\n      swap4\n      swap3\n      pop\n      pop\n      pop\n      jump\t// out\n        /* \"#utility.yul\":12196:12256   */\n    tag_241:\n        /* \"#utility.yul\":12224:12227   */\n      0x00\n        /* \"#utility.yul\":12245:12250   */\n      dup2\n        /* \"#utility.yul\":12238:12250   */\n      swap1\n      pop\n        /* \"#utility.yul\":12196:12256   */\n      swap2\n      swap1\n      pop\n      jump\t// out\n        /* \"#utility.yul\":12262:12404   */\n    tag_242:\n        /* \"#utility.yul\":12312:12321   */\n      0x00\n        /* \"#utility.yul\":12345:12398   */\n      tag_394\n        /* \"#utility.yul\":12363:12397   */\n      tag_395\n        /* \"#utility.yul\":12372:12396   */\n      tag_396\n        /* \"#utility.yul\":12390:12395   */\n      dup5\n        /* \"#utility.yul\":12372:12396   */\n      tag_205\n      jump\t// in\n    tag_396:\n        /* \"#utility.yul\":12363:12397   */\n      tag_241\n      jump\t// in\n    tag_395:\n        /* \"#utility.yul\":12345:12398   */\n      tag_205\n      jump\t// in\n    tag_394:\n        /* \"#utility.yul\":12332:12398   */\n      swap1\n      pop\n        /* \"#utility.yul\":12262:12404   */\n      swap2\n      swap1\n      pop\n      jump\t// out\n        /* \"#utility.yul\":12410:12485   */\n    tag_243:\n        /* \"#utility.yul\":12453:12456   */\n      0x00\n        /* \"#utility.yul\":12474:12479   */\n      dup2\n        /* \"#utility.yul\":12467:12479   */\n      swap1\n      pop\n        /* \"#utility.yul\":12410:12485   */\n      swap2\n      swap1\n      pop\n      jump\t// out\n        /* \"#utility.yul\":12491:12760   */\n    tag_244:\n        /* \"#utility.yul\":12601:12640   */\n      tag_399\n        /* \"#utility.yul\":12632:12639   */\n      dup4\n        /* \"#utility.yul\":12601:12640   */\n      tag_242\n      jump\t// in\n    tag_399:\n        /* \"#utility.yul\":12662:12753   */\n      tag_400\n        /* \"#utility.yul\":12711:12752   */\n      tag_401\n        /* \"#utility.yul\":12735:12751   */\n      dup3\n        /* \"#utility.yul\":12711:12752   */\n      tag_243\n      jump\t// in\n    tag_401:\n        /* \"#utility.yul\":12703:12709   */\n      dup5\n        /* \"#utility.yul\":12696:12700   */\n      dup5\n        /* \"#utility.yul\":12690:12701   */\n      sload\n        /* \"#utility.yul\":12662:12753   */\n      tag_240\n      jump\t// in\n    tag_400:\n        /* \"#utility.yul\":12656:12660   */\n      dup3\n        /* \"#utility.yul\":12649:12754   */\n      sstore\n        /* \"#utility.yul\":12567:12760   */\n      pop\n        /* \"#utility.yul\":12491:12760   */\n      pop\n      pop\n      pop\n      jump\t// out\n        /* \"#utility.yul\":12766:12839   */\n    tag_245:\n        /* \"#utility.yul\":12811:12814   */\n      0x00\n        /* \"#utility.yul\":12766:12839   */\n      swap1\n      jump\t// out\n        /* \"#utility.yul\":12845:13034   */\n    tag_246:\n        /* \"#utility.yul\":12922:12954   */\n      tag_404\n      tag_245\n      jump\t// in\n    tag_404:\n        /* \"#utility.yul\":12963:13028   */\n      tag_405\n        /* \"#utility.yul\":13021:13027   */\n      dup2\n        /* \"#utility.yul\":13013:13019   */\n      dup5\n        /* \"#utility.yul\":13007:13011   */\n      dup5\n        /* \"#utility.yul\":12963:13028   */\n      tag_244\n      jump\t// in\n    tag_405:\n        /* \"#utility.yul\":12898:13034   */\n      pop\n        /* \"#utility.yul\":12845:13034   */\n      pop\n      pop\n      jump\t// out\n        /* \"#utility.yul\":13040:13226   */\n    tag_247:\n        /* \"#utility.yul\":13100:13220   */\n    tag_407:\n        /* \"#utility.yul\":13117:13120   */\n      dup2\n        /* \"#utility.yul\":13110:13115   */\n      dup2\n        /* \"#utility.yul\":13107:13121   */\n      lt\n        /* \"#utility.yul\":13100:13220   */\n      iszero\n      tag_409\n      jumpi\n        /* \"#utility.yul\":13171:13210   */\n      tag_410\n        /* \"#utility.yul\":13208:13209   */\n      0x00\n        /* \"#utility.yul\":13201:13206   */\n      dup3\n        /* \"#utility.yul\":13171:13210   */\n      tag_246\n      jump\t// in\n    tag_410:\n        /* \"#utility.yul\":13144:13145   */\n      0x01\n        /* \"#utility.yul\":13137:13142   */\n      dup2\n        /* \"#utility.yul\":13133:13146   */\n      add\n        /* \"#utility.yul\":13124:13146   */\n      swap1\n      pop\n        /* \"#utility.yul\":13100:13220   */\n      jump(tag_407)\n    tag_409:\n        /* \"#utility.yul\":13040:13226   */\n      pop\n      pop\n      jump\t// out\n        /* \"#utility.yul\":13232:13775   */\n    tag_248:\n        /* \"#utility.yul\":13333:13335   */\n      0x1f\n        /* \"#utility.yul\":13328:13331   */\n      dup3\n        /* \"#utility.yul\":13325:13336   */\n      gt\n        /* \"#utility.yul\":13322:13768   */\n      iszero\n      tag_412\n      jumpi\n        /* \"#utility.yul\":13367:13405   */\n      tag_413\n        /* \"#utility.yul\":13399:13404   */\n      dup2\n        /* \"#utility.yul\":13367:13405   */\n      tag_237\n      jump\t// in\n    tag_413:\n        /* \"#utility.yul\":13451:13480   */\n      tag_414\n        /* \"#utility.yul\":13469:13479   */\n      dup5\n        /* \"#utility.yul\":13451:13480   */\n      tag_238\n      jump\t// in\n    tag_414:\n        /* \"#utility.yul\":13441:13449   */\n      dup2\n        /* \"#utility.yul\":13437:13481   */\n      add\n        /* \"#utility.yul\":13634:13636   */\n      0x20\n        /* \"#utility.yul\":13622:13632   */\n      dup6\n        /* \"#utility.yul\":13619:13637   */\n      lt\n        /* \"#utility.yul\":13616:13665   */\n      iszero\n      tag_415\n      jumpi\n        /* \"#utility.yul\":13655:13663   */\n      dup2\n        /* \"#utility.yul\":13640:13663   */\n      swap1\n      pop\n        /* \"#utility.yul\":13616:13665   */\n    tag_415:\n        /* \"#utility.yul\":13678:13758   */\n      tag_416\n        /* \"#utility.yul\":13734:13756   */\n      tag_417\n        /* \"#utility.yul\":13752:13755   */\n      dup6\n        /* \"#utility.yul\":13734:13756   */\n      tag_238\n      jump\t// in\n    tag_417:\n        /* \"#utility.yul\":13724:13732   */\n      dup4\n        /* \"#utility.yul\":13720:13757   */\n      add\n        /* \"#utility.yul\":13707:13718   */\n      dup3\n        /* \"#utility.yul\":13678:13758   */\n      tag_247\n      jump\t// in\n    tag_416:\n        /* \"#utility.yul\":13337:13768   */\n      pop\n      pop\n        /* \"#utility.yul\":13322:13768   */\n    tag_412:\n        /* \"#utility.yul\":13232:13775   */\n      pop\n      pop\n      pop\n      jump\t// out\n        /* \"#utility.yul\":13781:13898   */\n    tag_249:\n        /* \"#utility.yul\":13835:13843   */\n      0x00\n        /* \"#utility.yul\":13885:13890   */\n      dup3\n        /* \"#utility.yul\":13879:13883   */\n      dup3\n        /* \"#utility.yul\":13875:13891   */\n      shr\n        /* \"#utility.yul\":13854:13891   */\n      swap1\n      pop\n        /* \"#utility.yul\":13781:13898   */\n      swap3\n      swap2\n      pop\n      pop\n      jump\t// out\n        /* \"#utility.yul\":13904:14073   */\n    tag_250:\n        /* \"#utility.yul\":13948:13954   */\n      0x00\n        /* \"#utility.yul\":13981:14032   */\n      tag_420\n        /* \"#utility.yul\":14029:14030   */\n      0x00\n        /* \"#utility.yul\":14025:14031   */\n      not\n        /* \"#utility.yul\":14017:14022   */\n      dup5\n        /* \"#utility.yul\":14014:14015   */\n      0x08\n        /* \"#utility.yul\":14010:14023   */\n      mul\n        /* \"#utility.yul\":13981:14032   */\n      tag_249\n      jump\t// in\n    tag_420:\n        /* \"#utility.yul\":13977:14033   */\n      not\n        /* \"#utility.yul\":14062:14066   */\n      dup1\n        /* \"#utility.yul\":14056:14060   */\n      dup4\n        /* \"#utility.yul\":14052:14067   */\n      and\n        /* \"#utility.yul\":14042:14067   */\n      swap2\n      pop\n        /* \"#utility.yul\":13955:14073   */\n      pop\n        /* \"#utility.yul\":13904:14073   */\n      swap3\n      swap2\n      pop\n      pop\n      jump\t// out\n        /* \"#utility.yul\":14078:14373   */\n    tag_251:\n        /* \"#utility.yul\":14154:14158   */\n      0x00\n        /* \"#utility.yul\":14300:14329   */\n      tag_422\n        /* \"#utility.yul\":14325:14328   */\n      dup4\n        /* \"#utility.yul\":14319:14323   */\n      dup4\n        /* \"#utility.yul\":14300:14329   */\n      tag_250\n      jump\t// in\n    tag_422:\n        /* \"#utility.yul\":14292:14329   */\n      swap2\n      pop\n        /* \"#utility.yul\":14362:14365   */\n      dup3\n        /* \"#utility.yul\":14359:14360   */\n      0x02\n        /* \"#utility.yul\":14355:14366   */\n      mul\n        /* \"#utility.yul\":14349:14353   */\n      dup3\n        /* \"#utility.yul\":14346:14367   */\n      or\n        /* \"#utility.yul\":14338:14367   */\n      swap1\n      pop\n        /* \"#utility.yul\":14078:14373   */\n      swap3\n      swap2\n      pop\n      pop\n      jump\t// out\n        /* \"#utility.yul\":14378:15829   */\n    tag_122:\n        /* \"#utility.yul\":14489:14492   */\n      dup2\n        /* \"#utility.yul\":14483:14487   */\n      dup2\n        /* \"#utility.yul\":14480:14493   */\n      sub\n        /* \"#utility.yul\":14477:14503   */\n      tag_424\n      jumpi\n        /* \"#utility.yul\":14496:14501   */\n      pop\n      pop\n      jump(tag_423)\n        /* \"#utility.yul\":14477:14503   */\n    tag_424:\n        /* \"#utility.yul\":14527:14561   */\n      tag_425\n        /* \"#utility.yul\":14557:14560   */\n      dup3\n        /* \"#utility.yul\":14527:14561   */\n      tag_236\n      jump\t// in\n    tag_425:\n        /* \"#utility.yul\":14626:14644   */\n      0xffffffffffffffff\n        /* \"#utility.yul\":14618:14624   */\n      dup2\n        /* \"#utility.yul\":14615:14645   */\n      gt\n        /* \"#utility.yul\":14612:14668   */\n      iszero\n      tag_426\n      jumpi\n        /* \"#utility.yul\":14648:14666   */\n      tag_427\n      tag_226\n      jump\t// in\n    tag_427:\n        /* \"#utility.yul\":14612:14668   */\n    tag_426:\n        /* \"#utility.yul\":14692:14730   */\n      tag_428\n        /* \"#utility.yul\":14724:14728   */\n      dup3\n        /* \"#utility.yul\":14718:14729   */\n      sload\n        /* \"#utility.yul\":14692:14730   */\n      tag_85\n      jump\t// in\n    tag_428:\n        /* \"#utility.yul\":14777:14844   */\n      tag_429\n        /* \"#utility.yul\":14837:14843   */\n      dup3\n        /* \"#utility.yul\":14829:14835   */\n      dup3\n        /* \"#utility.yul\":14823:14827   */\n      dup6\n        /* \"#utility.yul\":14777:14844   */\n      tag_248\n      jump\t// in\n    tag_429:\n        /* \"#utility.yul\":14871:14872   */\n      0x00\n        /* \"#utility.yul\":14900:14902   */\n      0x1f\n        /* \"#utility.yul\":14892:14898   */\n      dup4\n        /* \"#utility.yul\":14889:14903   */\n      gt\n        /* \"#utility.yul\":14917:14918   */\n      0x01\n        /* \"#utility.yul\":14912:15584   */\n      dup2\n      eq\n      tag_431\n      jumpi\n        /* \"#utility.yul\":15628:15629   */\n      0x00\n        /* \"#utility.yul\":15645:15651   */\n      dup5\n        /* \"#utility.yul\":15642:15719   */\n      iszero\n      tag_432\n      jumpi\n        /* \"#utility.yul\":15694:15703   */\n      dup3\n        /* \"#utility.yul\":15689:15692   */\n      dup8\n        /* \"#utility.yul\":15685:15704   */\n      add\n        /* \"#utility.yul\":15679:15705   */\n      sload\n        /* \"#utility.yul\":15670:15705   */\n      swap1\n      pop\n        /* \"#utility.yul\":15642:15719   */\n    tag_432:\n        /* \"#utility.yul\":15745:15812   */\n      tag_433\n        /* \"#utility.yul\":15805:15811   */\n      dup6\n        /* \"#utility.yul\":15798:15803   */\n      dup3\n        /* \"#utility.yul\":15745:15812   */\n      tag_251\n      jump\t// in\n    tag_433:\n        /* \"#utility.yul\":15739:15743   */\n      dup7\n        /* \"#utility.yul\":15732:15813   */\n      sstore\n        /* \"#utility.yul\":15601:15823   */\n      pop\n        /* \"#utility.yul\":14882:15823   */\n      jump(tag_430)\n        /* \"#utility.yul\":14912:15584   */\n    tag_431:\n        /* \"#utility.yul\":14964:14968   */\n      0x1f\n        /* \"#utility.yul\":14960:14969   */\n      not\n        /* \"#utility.yul\":14952:14958   */\n      dup5\n        /* \"#utility.yul\":14948:14970   */\n      and\n        /* \"#utility.yul\":14990:15026   */\n      tag_434\n        /* \"#utility.yul\":15022:15025   */\n      dup8\n        /* \"#utility.yul\":14990:15026   */\n      tag_237\n      jump\t// in\n    tag_434:\n        /* \"#utility.yul\":14983:15026   */\n      swap7\n      pop\n        /* \"#utility.yul\":15053:15090   */\n      tag_435\n        /* \"#utility.yul\":15085:15089   */\n      dup7\n        /* \"#utility.yul\":15053:15090   */\n      tag_237\n      jump\t// in\n    tag_435:\n        /* \"#utility.yul\":15112:15113   */\n      0x00\n        /* \"#utility.yul\":15126:15333   */\n    tag_436:\n        /* \"#utility.yul\":15140:15147   */\n      dup3\n        /* \"#utility.yul\":15137:15138   */\n      dup2\n        /* \"#utility.yul\":15134:15148   */\n      lt\n        /* \"#utility.yul\":15126:15333   */\n      iszero\n      tag_438\n      jumpi\n        /* \"#utility.yul\":15219:15228   */\n      dup5\n        /* \"#utility.yul\":15214:15217   */\n      dup10\n        /* \"#utility.yul\":15210:15229   */\n      add\n        /* \"#utility.yul\":15204:15230   */\n      sload\n        /* \"#utility.yul\":15196:15202   */\n      dup3\n        /* \"#utility.yul\":15189:15231   */\n      sstore\n        /* \"#utility.yul\":15270:15271   */\n      0x01\n        /* \"#utility.yul\":15262:15268   */\n      dup3\n        /* \"#utility.yul\":15258:15272   */\n      add\n        /* \"#utility.yul\":15248:15272   */\n      swap2\n      pop\n        /* \"#utility.yul\":15317:15318   */\n      0x01\n        /* \"#utility.yul\":15306:15315   */\n      dup6\n        /* \"#utility.yul\":15302:15319   */\n      add\n        /* \"#utility.yul\":15289:15319   */\n      swap5\n      pop\n        /* \"#utility.yul\":15163:15167   */\n      0x20\n        /* \"#utility.yul\":15160:15161   */\n      dup2\n        /* \"#utility.yul\":15156:15168   */\n      add\n        /* \"#utility.yul\":15151:15168   */\n      swap1\n      pop\n        /* \"#utility.yul\":15126:15333   */\n      jump(tag_436)\n    tag_438:\n        /* \"#utility.yul\":15361:15367   */\n      dup7\n        /* \"#utility.yul\":15352:15359   */\n      dup4\n        /* \"#utility.yul\":15349:15368   */\n      lt\n        /* \"#utility.yul\":15346:15525   */\n      iszero\n      tag_439\n      jumpi\n        /* \"#utility.yul\":15419:15428   */\n      dup5\n        /* \"#utility.yul\":15414:15417   */\n      dup10\n        /* \"#utility.yul\":15410:15429   */\n      add\n        /* \"#utility.yul\":15404:15430   */\n      sload\n        /* \"#utility.yul\":15462:15510   */\n      tag_440\n        /* \"#utility.yul\":15504:15508   */\n      0x1f\n        /* \"#utility.yul\":15496:15502   */\n      dup10\n        /* \"#utility.yul\":15492:15509   */\n      and\n        /* \"#utility.yul\":15481:15490   */\n      dup3\n        /* \"#utility.yul\":15462:15510   */\n      tag_250\n      jump\t// in\n    tag_440:\n        /* \"#utility.yul\":15454:15460   */\n      dup4\n        /* \"#utility.yul\":15447:15511   */\n      sstore\n        /* \"#utility.yul\":15369:15525   */\n      pop\n        /* \"#utility.yul\":15346:15525   */\n    tag_439:\n        /* \"#utility.yul\":15571:15572   */\n      0x01\n        /* \"#utility.yul\":15567:15568   */\n      0x02\n        /* \"#utility.yul\":15559:15565   */\n      dup9\n        /* \"#utility.yul\":15555:15569   */\n      mul\n        /* \"#utility.yul\":15551:15573   */\n      add\n        /* \"#utility.yul\":15545:15549   */\n      dup9\n        /* \"#utility.yul\":15538:15574   */\n      sstore\n        /* \"#utility.yul\":14919:15584   */\n      pop\n      pop\n      pop\n        /* \"#utility.yul\":14882:15823   */\n    tag_430:\n      pop\n        /* \"#utility.yul\":14467:15829   */\n      pop\n      pop\n      pop\n        /* \"#utility.yul\":14378:15829   */\n      pop\n      pop\n    tag_423:\n      jump\t// out\n        /* \"#utility.yul\":15835:16020   */\n    tag_126:\n        /* \"#utility.yul\":15875:15876   */\n      0x00\n        /* \"#utility.yul\":15892:15912   */\n      tag_442\n        /* \"#utility.yul\":15910:15911   */\n      dup3\n        /* \"#utility.yul\":15892:15912   */\n      tag_205\n      jump\t// in\n    tag_442:\n        /* \"#utility.yul\":15887:15912   */\n      swap2\n      pop\n        /* \"#utility.yul\":15926:15946   */\n      tag_443\n        /* \"#utility.yul\":15944:15945   */\n      dup4\n        /* \"#utility.yul\":15926:15946   */\n      tag_205\n      jump\t// in\n    tag_443:\n        /* \"#utility.yul\":15921:15946   */\n      swap3\n      pop\n        /* \"#utility.yul\":15965:15966   */\n      dup3\n        /* \"#utility.yul\":15955:15990   */\n      tag_444\n      jumpi\n        /* \"#utility.yul\":15970:15988   */\n      tag_445\n      tag_233\n      jump\t// in\n    tag_445:\n        /* \"#utility.yul\":15955:15990   */\n    tag_444:\n        /* \"#utility.yul\":16012:16013   */\n      dup3\n        /* \"#utility.yul\":16009:16010   */\n      dup3\n        /* \"#utility.yul\":16005:16014   */\n      div\n        /* \"#utility.yul\":16000:16014   */\n      swap1\n      pop\n        /* \"#utility.yul\":15835:16020   */\n      swap3\n      swap2\n      pop\n      pop\n      jump\t// out\n        /* \"#utility.yul\":16026:16259   */\n    tag_165:\n        /* \"#utility.yul\":16065:16068   */\n      0x00\n        /* \"#utility.yul\":16088:16112   */\n      tag_447\n        /* \"#utility.yul\":16106:16111   */\n      dup3\n        /* \"#utility.yul\":16088:16112   */\n      tag_205\n      jump\t// in\n    tag_447:\n        /* \"#utility.yul\":16079:16112   */\n      swap2\n      pop\n        /* \"#utility.yul\":16134:16200   */\n      0xffffffffffffffffffffffffffffffffffffffffffffffffffffffffffffffff\n        /* \"#utility.yul\":16127:16132   */\n      dup3\n        /* \"#utility.yul\":16124:16201   */\n      sub\n        /* \"#utility.yul\":16121:16224   */\n      tag_448\n      jumpi\n        /* \"#utility.yul\":16204:16222   */\n      tag_449\n      tag_234\n      jump\t// in\n    tag_449:\n        /* \"#utility.yul\":16121:16224   */\n    tag_448:\n        /* \"#utility.yul\":16251:16252   */\n      0x01\n        /* \"#utility.yul\":16244:16249   */\n      dup3\n        /* \"#utility.yul\":16240:16253   */\n      add\n        /* \"#utility.yul\":16233:16253   */\n      swap1\n      pop\n        /* \"#utility.yul\":16026:16259   */\n      swap2\n      swap1\n      pop\n      jump\t// out\n        /* \"#utility.yul\":16265:17660   */\n    tag_167:\n        /* \"#utility.yul\":16382:16419   */\n      tag_451\n        /* \"#utility.yul\":16415:16418   */\n      dup3\n        /* \"#utility.yul\":16382:16419   */\n      tag_209\n      jump\t// in\n    tag_451:\n        /* \"#utility.yul\":16484:16502   */\n      0xffffffffffffffff\n        /* \"#utility.yul\":16476:16482   */\n      dup2\n        /* \"#utility.yul\":16473:16503   */\n      gt\n        /* \"#utility.yul\":16470:16526   */\n      iszero\n      tag_452\n      jumpi\n        /* \"#utility.yul\":16506:16524   */\n      tag_453\n      tag_226\n      jump\t// in\n    tag_453:\n        /* \"#utility.yul\":16470:16526   */\n    tag_452:\n        /* \"#utility.yul\":16550:16588   */\n      tag_454\n        /* \"#utility.yul\":16582:16586   */\n      dup3\n        /* \"#utility.yul\":16576:16587   */\n      sload\n        /* \"#utility.yul\":16550:16588   */\n      tag_85\n      jump\t// in\n    tag_454:\n        /* \"#utility.yul\":16635:16702   */\n      tag_455\n        /* \"#utility.yul\":16695:16701   */\n      dup3\n        /* \"#utility.yul\":16687:16693   */\n      dup3\n        /* \"#utility.yul\":16681:16685   */\n      dup6\n        /* \"#utility.yul\":16635:16702   */\n      tag_248\n      jump\t// in\n    tag_455:\n        /* \"#utility.yul\":16729:16730   */\n      0x00\n        /* \"#utility.yul\":16753:16757   */\n      0x20\n        /* \"#utility.yul\":16740:16757   */\n      swap1\n      pop\n        /* \"#utility.yul\":16785:16787   */\n      0x1f\n        /* \"#utility.yul\":16777:16783   */\n      dup4\n        /* \"#utility.yul\":16774:16788   */\n      gt\n        /* \"#utility.yul\":16802:16803   */\n      0x01\n        /* \"#utility.yul\":16797:17415   */\n      dup2\n      eq\n      tag_457\n      jumpi\n        /* \"#utility.yul\":17459:17460   */\n      0x00\n        /* \"#utility.yul\":17476:17482   */\n      dup5\n        /* \"#utility.yul\":17473:17550   */\n      iszero\n      tag_458\n      jumpi\n        /* \"#utility.yul\":17525:17534   */\n      dup3\n        /* \"#utility.yul\":17520:17523   */\n      dup8\n        /* \"#utility.yul\":17516:17535   */\n      add\n        /* \"#utility.yul\":17510:17536   */\n      mload\n        /* \"#utility.yul\":17501:17536   */\n      swap1\n      pop\n        /* \"#utility.yul\":17473:17550   */\n    tag_458:\n        /* \"#utility.yul\":17576:17643   */\n      tag_459\n        /* \"#utility.yul\":17636:17642   */\n      dup6\n        /* \"#utility.yul\":17629:17634   */\n      dup3\n        /* \"#utility.yul\":17576:17643   */\n      tag_251\n      jump\t// in\n    tag_459:\n        /* \"#utility.yul\":17570:17574   */\n      dup7\n        /* \"#utility.yul\":17563:17644   */\n      sstore\n        /* \"#utility.yul\":17432:17654   */\n      pop\n        /* \"#utility.yul\":16767:17654   */\n      jump(tag_456)\n        /* \"#utility.yul\":16797:17415   */\n    tag_457:\n        /* \"#utility.yul\":16849:16853   */\n      0x1f\n        /* \"#utility.yul\":16845:16854   */\n      not\n        /* \"#utility.yul\":16837:16843   */\n      dup5\n        /* \"#utility.yul\":16833:16855   */\n      and\n        /* \"#utility.yul\":16883:16920   */\n      tag_460\n        /* \"#utility.yul\":16915:16919   */\n      dup7\n        /* \"#utility.yul\":16883:16920   */\n      tag_237\n      jump\t// in\n    tag_460:\n        /* \"#utility.yul\":16942:16943   */\n      0x00\n        /* \"#utility.yul\":16956:17164   */\n    tag_461:\n        /* \"#utility.yul\":16970:16977   */\n      dup3\n        /* \"#utility.yul\":16967:16968   */\n      dup2\n        /* \"#utility.yul\":16964:16978   */\n      lt\n        /* \"#utility.yul\":16956:17164   */\n      iszero\n      tag_463\n      jumpi\n        /* \"#utility.yul\":17049:17058   */\n      dup5\n        /* \"#utility.yul\":17044:17047   */\n      dup10\n        /* \"#utility.yul\":17040:17059   */\n      add\n        /* \"#utility.yul\":17034:17060   */\n      mload\n        /* \"#utility.yul\":17026:17032   */\n      dup3\n        /* \"#utility.yul\":17019:17061   */\n      sstore\n        /* \"#utility.yul\":17100:17101   */\n      0x01\n        /* \"#utility.yul\":17092:17098   */\n      dup3\n        /* \"#utility.yul\":17088:17102   */\n      add\n        /* \"#utility.yul\":17078:17102   */\n      swap2\n      pop\n        /* \"#utility.yul\":17147:17149   */\n      0x20\n        /* \"#utility.yul\":17136:17145   */\n      dup6\n        /* \"#utility.yul\":17132:17150   */\n      add\n        /* \"#utility.yul\":17119:17150   */\n      swap5\n      pop\n        /* \"#utility.yul\":16993:16997   */\n      0x20\n        /* \"#utility.yul\":16990:16991   */\n      dup2\n        /* \"#utility.yul\":16986:16998   */\n      add\n        /* \"#utility.yul\":16981:16998   */\n      swap1\n      pop\n        /* \"#utility.yul\":16956:17164   */\n      jump(tag_461)\n    tag_463:\n        /* \"#utility.yul\":17192:17198   */\n      dup7\n        /* \"#utility.yul\":17183:17190   */\n      dup4\n        /* \"#utility.yul\":17180:17199   */\n      lt\n        /* \"#utility.yul\":17177:17356   */\n      iszero\n      tag_464\n      jumpi\n        /* \"#utility.yul\":17250:17259   */\n      dup5\n        /* \"#utility.yul\":17245:17248   */\n      dup10\n        /* \"#utility.yul\":17241:17260   */\n      add\n        /* \"#utility.yul\":17235:17261   */\n      mload\n        /* \"#utility.yul\":17293:17341   */\n      tag_465\n        /* \"#utility.yul\":17335:17339   */\n      0x1f\n        /* \"#utility.yul\":17327:17333   */\n      dup10\n        /* \"#utility.yul\":17323:17340   */\n      and\n        /* \"#utility.yul\":17312:17321   */\n      dup3\n        /* \"#utility.yul\":17293:17341   */\n      tag_250\n      jump\t// in\n    tag_465:\n        /* \"#utility.yul\":17285:17291   */\n      dup4\n        /* \"#utility.yul\":17278:17342   */\n      sstore\n        /* \"#utility.yul\":17200:17356   */\n      pop\n        /* \"#utility.yul\":17177:17356   */\n    tag_464:\n        /* \"#utility.yul\":17402:17403   */\n      0x01\n        /* \"#utility.yul\":17398:17399   */\n      0x02\n        /* \"#utility.yul\":17390:17396   */\n      dup9\n        /* \"#utility.yul\":17386:17400   */\n      mul\n        /* \"#utility.yul\":17382:17404   */\n      add\n        /* \"#utility.yul\":17376:17380   */\n      dup9\n        /* \"#utility.yul\":17369:17405   */\n      sstore\n        /* \"#utility.yul\":16804:17415   */\n      pop\n      pop\n      pop\n        /* \"#utility.yul\":16767:17654   */\n    tag_456:\n      pop\n        /* \"#utility.yul\":16357:17660   */\n      pop\n      pop\n      pop\n        /* \"#utility.yul\":16265:17660   */\n      pop\n      pop\n      jump\t// out\n\n    auxdata: 0xa26469706673582212208ef257c4b993e0364437394a29acbff68fb9130a42511455a25504d2d60f896a64736f6c63430008120033\n}\n",
				"bytecode": {
					"linkReferences": {},
					"object": "608060405234801561001057600080fd5b50735b38da6a701c568545dcfcb03fcb875f56beddc4600260006101000a81548173ffffffffffffffffffffffffffffffffffffffff021916908373ffffffffffffffffffffffffffffffffffffffff160217905550611eeb806100756000396000f3fe6080604052600436106100a75760003560e01c8063c3c7cd6e11610064578063c3c7cd6e1461019d578063d0e30db0146101a7578063e0d5af94146101b1578063f2c298be146101c8578063f7958e07146101f1578063fcddf3c61461021c576100a7565b80632e1a7d4d146100ac57806333f707d1146100d55780635df5db77146100fe578063657a25121461013f57806390c847be1461017c578063b9b3722414610186575b600080fd5b3480156100b857600080fd5b506100d360048036038101906100ce9190611476565b61025d565b005b3480156100e157600080fd5b506100fc60048036038101906100f79190611476565b610384565b005b34801561010a57600080fd5b5061012560048036038101906101209190611476565b61045d565b604051610136959493929190611583565b60405180910390f35b34801561014b57600080fd5b5061016660048036038101906101619190611609565b61054b565b6040516101739190611714565b60405180910390f35b6101846106a9565b005b34801561019257600080fd5b5061019b61097f565b005b6101a5610b10565b005b6101af610ddd565b005b3480156101bd57600080fd5b506101c6610e37565b005b3480156101d457600080fd5b506101ef60048036038101906101ea919061186b565b610efc565b005b3480156101fd57600080fd5b50610206611026565b60405161021391906118b4565b60405180910390f35b34801561022857600080fd5b50610243600480360381019061023e9190611476565b6110cb565b604051610254959493929190611583565b60405180910390f35b6000600a8261026c91906118fe565b1480156102ba5750806000803373ffffffffffffffffffffffffffffffffffffffff1673ffffffffffffffffffffffffffffffffffffffff1681526020019081526020016000206004015410155b6102c357600080fd5b806000803373ffffffffffffffffffffffffffffffffffffffff1673ffffffffffffffffffffffffffffffffffffffff1681526020019081526020016000206004016000828254610314919061195e565b925050819055503373ffffffffffffffffffffffffffffffffffffffff166108fc67016345785d8a0000600a8461034b91906118fe565b6103559190611992565b9081150290604051600060405180830381858888f19350505050158015610380573d6000803e3d6000fd5b5050565b600260009054906101000a900473ffffffffffffffffffffffffffffffffffffffff1673ffffffffffffffffffffffffffffffffffffffff163373ffffffffffffffffffffffffffffffffffffffff16146103de57600080fd5b600260009054906101000a900473ffffffffffffffffffffffffffffffffffffffff1673ffffffffffffffffffffffffffffffffffffffff166108fc670de0b6b3a76400008361042e9190611992565b9081150290604051600060405180830381858888f19350505050158015610459573d6000803e3d6000fd5b5050565b6003818154811061046d57600080fd5b906000526020600020906005020160009150905080600001549080600101805461049690611a03565b80601f01602080910402602001604051908101604052809291908181526020018280546104c290611a03565b801561050f5780601f106104e45761010080835404028352916020019161050f565b820191906000526020600020905b8154815290600101906020018083116104f257829003601f168201915b5050505050908060020160009054906101000a900473ffffffffffffffffffffffffffffffffffffffff16908060030154908060040154905085565b6105536111af565b6000808373ffffffffffffffffffffffffffffffffffffffff1673ffffffffffffffffffffffffffffffffffffffff1681526020019081526020016000206040518060a0016040529081600082015481526020016001820180546105b690611a03565b80601f01602080910402602001604051908101604052809291908181526020018280546105e290611a03565b801561062f5780601f106106045761010080835404028352916020019161062f565b820191906000526020600020905b81548152906001019060200180831161061257829003601f168201915b505050505081526020016002820160009054906101000a900473ffffffffffffffffffffffffffffffffffffffff1673ffffffffffffffffffffffffffffffffffffffff1673ffffffffffffffffffffffffffffffffffffffff168152602001600382015481526020016004820154815250509050919050565b662386f26fc100006000803373ffffffffffffffffffffffffffffffffffffffff1673ffffffffffffffffffffffffffffffffffffffff16815260200190815260200160002060030154101580156107015750600034145b806107125750662386f26fc1000034145b61071b57600080fd5b6000340361078357662386f26fc100006000803373ffffffffffffffffffffffffffffffffffffffff1673ffffffffffffffffffffffffffffffffffffffff168152602001908152602001600020600301600082825461077b919061195e565b925050819055505b600460038054905003610878576000600490505b6000811115610868578060056107ad919061195e565b60008060036001856107bf919061195e565b815481106107d0576107cf611a34565b5b906000526020600020906005020160020160009054906101000a900473ffffffffffffffffffffffffffffffffffffffff1673ffffffffffffffffffffffffffffffffffffffff1673ffffffffffffffffffffffffffffffffffffffff168152602001908152602001600020600401600082825461084e9190611a63565b92505081905550808061086090611a97565b915050610797565b506003600061087791906111f4565b5b60036000803373ffffffffffffffffffffffffffffffffffffffff1673ffffffffffffffffffffffffffffffffffffffff168152602001908152602001600020908060018154018082558091505060019003906000526020600020906005020160009091909190915060008201548160000155600182018160010190816108ff9190611c82565b506002820160009054906101000a900473ffffffffffffffffffffffffffffffffffffffff168160020160006101000a81548173ffffffffffffffffffffffffffffffffffffffff021916908373ffffffffffffffffffffffffffffffffffffffff16021790555060038201548160030155600482015481600401555050565b600a6000803373ffffffffffffffffffffffffffffffffffffffff1673ffffffffffffffffffffffffffffffffffffffff1681526020019081526020016000206004015410156109ce57600080fd5b6000600a6000803373ffffffffffffffffffffffffffffffffffffffff1673ffffffffffffffffffffffffffffffffffffffff16815260200190815260200160002060040154610a1e9190611d6a565b9050600a6000803373ffffffffffffffffffffffffffffffffffffffff1673ffffffffffffffffffffffffffffffffffffffff16815260200190815260200160002060040154610a6e91906118fe565b6000803373ffffffffffffffffffffffffffffffffffffffff1673ffffffffffffffffffffffffffffffffffffffff168152602001908152602001600020600401819055503373ffffffffffffffffffffffffffffffffffffffff166108fc67016345785d8a000083610ae19190611992565b9081150290604051600060405180830381858888f19350505050158015610b0c573d6000803e3d6000fd5b5050565b662386f26fc100006000803373ffffffffffffffffffffffffffffffffffffffff1673ffffffffffffffffffffffffffffffffffffffff1681526020019081526020016000206003015410158015610b685750600034145b80610b795750662386f26fc1000034145b610b8257600080fd5b60003403610bea57662386f26fc100006000803373ffffffffffffffffffffffffffffffffffffffff1673ffffffffffffffffffffffffffffffffffffffff1681526020019081526020016000206003016000828254610be2919061195e565b925050819055505b6004610bf4611026565b03610ce1576000600490505b6000811115610cd157806005610c16919061195e565b6000806003600185610c28919061195e565b81548110610c3957610c38611a34565b5b906000526020600020906005020160020160009054906101000a900473ffffffffffffffffffffffffffffffffffffffff1673ffffffffffffffffffffffffffffffffffffffff1673ffffffffffffffffffffffffffffffffffffffff1681526020019081526020016000206004016000828254610cb79190611a63565b925050819055508080610cc990611a97565b915050610c00565b5060046000610ce09190611218565b5b6000803373ffffffffffffffffffffffffffffffffffffffff1673ffffffffffffffffffffffffffffffffffffffff1681526020019081526020016000206004610d29611026565b60048110610d3a57610d39611a34565b5b600502016000820154816000015560018201816001019081610d5c9190611c82565b506002820160009054906101000a900473ffffffffffffffffffffffffffffffffffffffff168160020160006101000a81548173ffffffffffffffffffffffffffffffffffffffff021916908373ffffffffffffffffffffffffffffffffffffffff1602179055506003820154816003015560048201548160040155905050565b346000803373ffffffffffffffffffffffffffffffffffffffff1673ffffffffffffffffffffffffffffffffffffffff1681526020019081526020016000206003016000828254610e2e9190611a63565b92505081905550565b600260009054906101000a900473ffffffffffffffffffffffffffffffffffffffff1673ffffffffffffffffffffffffffffffffffffffff163373ffffffffffffffffffffffffffffffffffffffff1614610e9157600080fd5b600260009054906101000a900473ffffffffffffffffffffffffffffffffffffffff1673ffffffffffffffffffffffffffffffffffffffff166108fc479081150290604051600060405180830381858888f19350505050158015610ef9573d6000803e3d6000fd5b50565b6040518060a0016040528060016000815480929190610f1a90611d9b565b9190505581526020018281526020013373ffffffffffffffffffffffffffffffffffffffff1681526020013373ffffffffffffffffffffffffffffffffffffffff1631815260200160008152506000803373ffffffffffffffffffffffffffffffffffffffff1673ffffffffffffffffffffffffffffffffffffffff168152602001908152602001600020600082015181600001556020820151816001019081610fc49190611de3565b5060408201518160020160006101000a81548173ffffffffffffffffffffffffffffffffffffffff021916908373ffffffffffffffffffffffffffffffffffffffff160217905550606082015181600301556080820151816004015590505050565b600080600090505b60048110156110c257600073ffffffffffffffffffffffffffffffffffffffff166004826004811061106357611062611a34565b5b6005020160020160009054906101000a900473ffffffffffffffffffffffffffffffffffffffff1673ffffffffffffffffffffffffffffffffffffffff16036110af57809150506110c8565b80806110ba90611d9b565b91505061102e565b50600490505b90565b600481600481106110db57600080fd5b600502016000915090508060000154908060010180546110fa90611a03565b80601f016020809104026020016040519081016040528092919081815260200182805461112690611a03565b80156111735780601f1061114857610100808354040283529160200191611173565b820191906000526020600020905b81548152906001019060200180831161115657829003601f168201915b5050505050908060020160009054906101000a900473ffffffffffffffffffffffffffffffffffffffff16908060030154908060040154905085565b6040518060a001604052806000815260200160608152602001600073ffffffffffffffffffffffffffffffffffffffff16815260200160008152602001600081525090565b50805460008255600502906000526020600020908101906112159190611369565b50565b5060008082016000905560018201600061123291906113cf565b6002820160006101000a81549073ffffffffffffffffffffffffffffffffffffffff0219169055600382016000905560048201600090555060050160008082016000905560018201600061128691906113cf565b6002820160006101000a81549073ffffffffffffffffffffffffffffffffffffffff021916905560038201600090556004820160009055506005016000808201600090556001820160006112da91906113cf565b6002820160006101000a81549073ffffffffffffffffffffffffffffffffffffffff0219169055600382016000905560048201600090555060050160008082016000905560018201600061132e91906113cf565b6002820160006101000a81549073ffffffffffffffffffffffffffffffffffffffff0219169055600382016000905560048201600090555050565b5b808211156113cb5760008082016000905560018201600061138b91906113cf565b6002820160006101000a81549073ffffffffffffffffffffffffffffffffffffffff0219169055600382016000905560048201600090555060050161136a565b5090565b5080546113db90611a03565b6000825580601f106113ed575061140c565b601f01602090049060005260206000209081019061140b919061140f565b5b50565b5b80821115611428576000816000905550600101611410565b5090565b6000604051905090565b600080fd5b600080fd5b6000819050919050565b61145381611440565b811461145e57600080fd5b50565b6000813590506114708161144a565b92915050565b60006020828403121561148c5761148b611436565b5b600061149a84828501611461565b91505092915050565b6114ac81611440565b82525050565b600081519050919050565b600082825260208201905092915050565b60005b838110156114ec5780820151818401526020810190506114d1565b60008484015250505050565b6000601f19601f8301169050919050565b6000611514826114b2565b61151e81856114bd565b935061152e8185602086016114ce565b611537816114f8565b840191505092915050565b600073ffffffffffffffffffffffffffffffffffffffff82169050919050565b600061156d82611542565b9050919050565b61157d81611562565b82525050565b600060a08201905061159860008301886114a3565b81810360208301526115aa8187611509565b90506115b96040830186611574565b6115c660608301856114a3565b6115d360808301846114a3565b9695505050505050565b6115e681611562565b81146115f157600080fd5b50565b600081359050611603816115dd565b92915050565b60006020828403121561161f5761161e611436565b5b600061162d848285016115f4565b91505092915050565b61163f81611440565b82525050565b600082825260208201905092915050565b6000611661826114b2565b61166b8185611645565b935061167b8185602086016114ce565b611684816114f8565b840191505092915050565b61169881611562565b82525050565b600060a0830160008301516116b66000860182611636565b50602083015184820360208601526116ce8282611656565b91505060408301516116e3604086018261168f565b5060608301516116f66060860182611636565b5060808301516117096080860182611636565b508091505092915050565b6000602082019050818103600083015261172e818461169e565b905092915050565b600080fd5b600080fd5b7f4e487b7100000000000000000000000000000000000000000000000000000000600052604160045260246000fd5b611778826114f8565b810181811067ffffffffffffffff8211171561179757611796611740565b5b80604052505050565b60006117aa61142c565b90506117b6828261176f565b919050565b600067ffffffffffffffff8211156117d6576117d5611740565b5b6117df826114f8565b9050602081019050919050565b82818337600083830152505050565b600061180e611809846117bb565b6117a0565b90508281526020810184848401111561182a5761182961173b565b5b6118358482856117ec565b509392505050565b600082601f83011261185257611851611736565b5b81356118628482602086016117fb565b91505092915050565b60006020828403121561188157611880611436565b5b600082013567ffffffffffffffff81111561189f5761189e61143b565b5b6118ab8482850161183d565b91505092915050565b60006020820190506118c960008301846114a3565b92915050565b7f4e487b7100000000000000000000000000000000000000000000000000000000600052601260045260246000fd5b600061190982611440565b915061191483611440565b925082611924576119236118cf565b5b828206905092915050565b7f4e487b7100000000000000000000000000000000000000000000000000000000600052601160045260246000fd5b600061196982611440565b915061197483611440565b925082820390508181111561198c5761198b61192f565b5b92915050565b600061199d82611440565b91506119a883611440565b92508282026119b681611440565b915082820484148315176119cd576119cc61192f565b5b5092915050565b7f4e487b7100000000000000000000000000000000000000000000000000000000600052602260045260246000fd5b60006002820490506001821680611a1b57607f821691505b602082108103611a2e57611a2d6119d4565b5b50919050565b7f4e487b7100000000000000000000000000000000000000000000000000000000600052603260045260246000fd5b6000611a6e82611440565b9150611a7983611440565b9250828201905080821115611a9157611a9061192f565b5b92915050565b6000611aa282611440565b915060008203611ab557611ab461192f565b5b600182039050919050565b600081549050611acf81611a03565b9050919050565b60008190508160005260206000209050919050565b60006020601f8301049050919050565b600082821b905092915050565b600060088302611b387fffffffffffffffffffffffffffffffffffffffffffffffffffffffffffffffff82611afb565b611b428683611afb565b95508019841693508086168417925050509392505050565b6000819050919050565b6000611b7f611b7a611b7584611440565b611b5a565b611440565b9050919050565b6000819050919050565b611b9983611b64565b611bad611ba582611b86565b848454611b08565b825550505050565b600090565b611bc2611bb5565b611bcd818484611b90565b505050565b5b81811015611bf157611be6600082611bba565b600181019050611bd3565b5050565b601f821115611c3657611c0781611ad6565b611c1084611aeb565b81016020851015611c1f578190505b611c33611c2b85611aeb565b830182611bd2565b50505b505050565b600082821c905092915050565b6000611c5960001984600802611c3b565b1980831691505092915050565b6000611c728383611c48565b9150826002028217905092915050565b818103611c90575050611d68565b611c9982611ac0565b67ffffffffffffffff811115611cb257611cb1611740565b5b611cbc8254611a03565b611cc7828285611bf5565b6000601f831160018114611cf65760008415611ce4578287015490505b611cee8582611c66565b865550611d61565b601f198416611d0487611ad6565b9650611d0f86611ad6565b60005b82811015611d3757848901548255600182019150600185019450602081019050611d12565b86831015611d545784890154611d50601f891682611c48565b8355505b6001600288020188555050505b5050505050505b565b6000611d7582611440565b9150611d8083611440565b925082611d9057611d8f6118cf565b5b828204905092915050565b6000611da682611440565b91507fffffffffffffffffffffffffffffffffffffffffffffffffffffffffffffffff8203611dd857611dd761192f565b5b600182019050919050565b611dec826114b2565b67ffffffffffffffff811115611e0557611e04611740565b5b611e0f8254611a03565b611e1a828285611bf5565b600060209050601f831160018114611e4d5760008415611e3b578287015190505b611e458582611c66565b865550611ead565b601f198416611e5b86611ad6565b60005b82811015611e8357848901518255600182019150602085019450602081019050611e5e565b86831015611ea05784890151611e9c601f891682611c48565b8355505b6001600288020188555050505b50505050505056fea26469706673582212208ef257c4b993e0364437394a29acbff68fb9130a42511455a25504d2d60f896a64736f6c63430008120033",
					"opcodes": "PUSH1 0x80 PUSH1 0x40 MSTORE CALLVALUE DUP1 ISZERO PUSH2 0x10 JUMPI PUSH1 0x0 DUP1 REVERT JUMPDEST POP PUSH20 0x5B38DA6A701C568545DCFCB03FCB875F56BEDDC4 PUSH1 0x2 PUSH1 0x0 PUSH2 0x100 EXP DUP2 SLOAD DUP2 PUSH20 0xFFFFFFFFFFFFFFFFFFFFFFFFFFFFFFFFFFFFFFFF MUL NOT AND SWAP1 DUP4 PUSH20 0xFFFFFFFFFFFFFFFFFFFFFFFFFFFFFFFFFFFFFFFF AND MUL OR SWAP1 SSTORE POP PUSH2 0x1EEB DUP1 PUSH2 0x75 PUSH1 0x0 CODECOPY PUSH1 0x0 RETURN INVALID PUSH1 0x80 PUSH1 0x40 MSTORE PUSH1 0x4 CALLDATASIZE LT PUSH2 0xA7 JUMPI PUSH1 0x0 CALLDATALOAD PUSH1 0xE0 SHR DUP1 PUSH4 0xC3C7CD6E GT PUSH2 0x64 JUMPI DUP1 PUSH4 0xC3C7CD6E EQ PUSH2 0x19D JUMPI DUP1 PUSH4 0xD0E30DB0 EQ PUSH2 0x1A7 JUMPI DUP1 PUSH4 0xE0D5AF94 EQ PUSH2 0x1B1 JUMPI DUP1 PUSH4 0xF2C298BE EQ PUSH2 0x1C8 JUMPI DUP1 PUSH4 0xF7958E07 EQ PUSH2 0x1F1 JUMPI DUP1 PUSH4 0xFCDDF3C6 EQ PUSH2 0x21C JUMPI PUSH2 0xA7 JUMP JUMPDEST DUP1 PUSH4 0x2E1A7D4D EQ PUSH2 0xAC JUMPI DUP1 PUSH4 0x33F707D1 EQ PUSH2 0xD5 JUMPI DUP1 PUSH4 0x5DF5DB77 EQ PUSH2 0xFE JUMPI DUP1 PUSH4 0x657A2512 EQ PUSH2 0x13F JUMPI DUP1 PUSH4 0x90C847BE EQ PUSH2 0x17C JUMPI DUP1 PUSH4 0xB9B37224 EQ PUSH2 0x186 JUMPI JUMPDEST PUSH1 0x0 DUP1 REVERT JUMPDEST CALLVALUE DUP1 ISZERO PUSH2 0xB8 JUMPI PUSH1 0x0 DUP1 REVERT JUMPDEST POP PUSH2 0xD3 PUSH1 0x4 DUP1 CALLDATASIZE SUB DUP2 ADD SWAP1 PUSH2 0xCE SWAP2 SWAP1 PUSH2 0x1476 JUMP JUMPDEST PUSH2 0x25D JUMP JUMPDEST STOP JUMPDEST CALLVALUE DUP1 ISZERO PUSH2 0xE1 JUMPI PUSH1 0x0 DUP1 REVERT JUMPDEST POP PUSH2 0xFC PUSH1 0x4 DUP1 CALLDATASIZE SUB DUP2 ADD SWAP1 PUSH2 0xF7 SWAP2 SWAP1 PUSH2 0x1476 JUMP JUMPDEST PUSH2 0x384 JUMP JUMPDEST STOP JUMPDEST CALLVALUE DUP1 ISZERO PUSH2 0x10A JUMPI PUSH1 0x0 DUP1 REVERT JUMPDEST POP PUSH2 0x125 PUSH1 0x4 DUP1 CALLDATASIZE SUB DUP2 ADD SWAP1 PUSH2 0x120 SWAP2 SWAP1 PUSH2 0x1476 JUMP JUMPDEST PUSH2 0x45D JUMP JUMPDEST PUSH1 0x40 MLOAD PUSH2 0x136 SWAP6 SWAP5 SWAP4 SWAP3 SWAP2 SWAP1 PUSH2 0x1583 JUMP JUMPDEST PUSH1 0x40 MLOAD DUP1 SWAP2 SUB SWAP1 RETURN JUMPDEST CALLVALUE DUP1 ISZERO PUSH2 0x14B JUMPI PUSH1 0x0 DUP1 REVERT JUMPDEST POP PUSH2 0x166 PUSH1 0x4 DUP1 CALLDATASIZE SUB DUP2 ADD SWAP1 PUSH2 0x161 SWAP2 SWAP1 PUSH2 0x1609 JUMP JUMPDEST PUSH2 0x54B JUMP JUMPDEST PUSH1 0x40 MLOAD PUSH2 0x173 SWAP2 SWAP1 PUSH2 0x1714 JUMP JUMPDEST PUSH1 0x40 MLOAD DUP1 SWAP2 SUB SWAP1 RETURN JUMPDEST PUSH2 0x184 PUSH2 0x6A9 JUMP JUMPDEST STOP JUMPDEST CALLVALUE DUP1 ISZERO PUSH2 0x192 JUMPI PUSH1 0x0 DUP1 REVERT JUMPDEST POP PUSH2 0x19B PUSH2 0x97F JUMP JUMPDEST STOP JUMPDEST PUSH2 0x1A5 PUSH2 0xB10 JUMP JUMPDEST STOP JUMPDEST PUSH2 0x1AF PUSH2 0xDDD JUMP JUMPDEST STOP JUMPDEST CALLVALUE DUP1 ISZERO PUSH2 0x1BD JUMPI PUSH1 0x0 DUP1 REVERT JUMPDEST POP PUSH2 0x1C6 PUSH2 0xE37 JUMP JUMPDEST STOP JUMPDEST CALLVALUE DUP1 ISZERO PUSH2 0x1D4 JUMPI PUSH1 0x0 DUP1 REVERT JUMPDEST POP PUSH2 0x1EF PUSH1 0x4 DUP1 CALLDATASIZE SUB DUP2 ADD SWAP1 PUSH2 0x1EA SWAP2 SWAP1 PUSH2 0x186B JUMP JUMPDEST PUSH2 0xEFC JUMP JUMPDEST STOP JUMPDEST CALLVALUE DUP1 ISZERO PUSH2 0x1FD JUMPI PUSH1 0x0 DUP1 REVERT JUMPDEST POP PUSH2 0x206 PUSH2 0x1026 JUMP JUMPDEST PUSH1 0x40 MLOAD PUSH2 0x213 SWAP2 SWAP1 PUSH2 0x18B4 JUMP JUMPDEST PUSH1 0x40 MLOAD DUP1 SWAP2 SUB SWAP1 RETURN JUMPDEST CALLVALUE DUP1 ISZERO PUSH2 0x228 JUMPI PUSH1 0x0 DUP1 REVERT JUMPDEST POP PUSH2 0x243 PUSH1 0x4 DUP1 CALLDATASIZE SUB DUP2 ADD SWAP1 PUSH2 0x23E SWAP2 SWAP1 PUSH2 0x1476 JUMP JUMPDEST PUSH2 0x10CB JUMP JUMPDEST PUSH1 0x40 MLOAD PUSH2 0x254 SWAP6 SWAP5 SWAP4 SWAP3 SWAP2 SWAP1 PUSH2 0x1583 JUMP JUMPDEST PUSH1 0x40 MLOAD DUP1 SWAP2 SUB SWAP1 RETURN JUMPDEST PUSH1 0x0 PUSH1 0xA DUP3 PUSH2 0x26C SWAP2 SWAP1 PUSH2 0x18FE JUMP JUMPDEST EQ DUP1 ISZERO PUSH2 0x2BA JUMPI POP DUP1 PUSH1 0x0 DUP1 CALLER PUSH20 0xFFFFFFFFFFFFFFFFFFFFFFFFFFFFFFFFFFFFFFFF AND PUSH20 0xFFFFFFFFFFFFFFFFFFFFFFFFFFFFFFFFFFFFFFFF AND DUP2 MSTORE PUSH1 0x20 ADD SWAP1 DUP2 MSTORE PUSH1 0x20 ADD PUSH1 0x0 KECCAK256 PUSH1 0x4 ADD SLOAD LT ISZERO JUMPDEST PUSH2 0x2C3 JUMPI PUSH1 0x0 DUP1 REVERT JUMPDEST DUP1 PUSH1 0x0 DUP1 CALLER PUSH20 0xFFFFFFFFFFFFFFFFFFFFFFFFFFFFFFFFFFFFFFFF AND PUSH20 0xFFFFFFFFFFFFFFFFFFFFFFFFFFFFFFFFFFFFFFFF AND DUP2 MSTORE PUSH1 0x20 ADD SWAP1 DUP2 MSTORE PUSH1 0x20 ADD PUSH1 0x0 KECCAK256 PUSH1 0x4 ADD PUSH1 0x0 DUP3 DUP3 SLOAD PUSH2 0x314 SWAP2 SWAP1 PUSH2 0x195E JUMP JUMPDEST SWAP3 POP POP DUP2 SWAP1 SSTORE POP CALLER PUSH20 0xFFFFFFFFFFFFFFFFFFFFFFFFFFFFFFFFFFFFFFFF AND PUSH2 0x8FC PUSH8 0x16345785D8A0000 PUSH1 0xA DUP5 PUSH2 0x34B SWAP2 SWAP1 PUSH2 0x18FE JUMP JUMPDEST PUSH2 0x355 SWAP2 SWAP1 PUSH2 0x1992 JUMP JUMPDEST SWAP1 DUP2 ISZERO MUL SWAP1 PUSH1 0x40 MLOAD PUSH1 0x0 PUSH1 0x40 MLOAD DUP1 DUP4 SUB DUP2 DUP6 DUP9 DUP9 CALL SWAP4 POP POP POP POP ISZERO DUP1 ISZERO PUSH2 0x380 JUMPI RETURNDATASIZE PUSH1 0x0 DUP1 RETURNDATACOPY RETURNDATASIZE PUSH1 0x0 REVERT JUMPDEST POP POP JUMP JUMPDEST PUSH1 0x2 PUSH1 0x0 SWAP1 SLOAD SWAP1 PUSH2 0x100 EXP SWAP1 DIV PUSH20 0xFFFFFFFFFFFFFFFFFFFFFFFFFFFFFFFFFFFFFFFF AND PUSH20 0xFFFFFFFFFFFFFFFFFFFFFFFFFFFFFFFFFFFFFFFF AND CALLER PUSH20 0xFFFFFFFFFFFFFFFFFFFFFFFFFFFFFFFFFFFFFFFF AND EQ PUSH2 0x3DE JUMPI PUSH1 0x0 DUP1 REVERT JUMPDEST PUSH1 0x2 PUSH1 0x0 SWAP1 SLOAD SWAP1 PUSH2 0x100 EXP SWAP1 DIV PUSH20 0xFFFFFFFFFFFFFFFFFFFFFFFFFFFFFFFFFFFFFFFF AND PUSH20 0xFFFFFFFFFFFFFFFFFFFFFFFFFFFFFFFFFFFFFFFF AND PUSH2 0x8FC PUSH8 0xDE0B6B3A7640000 DUP4 PUSH2 0x42E SWAP2 SWAP1 PUSH2 0x1992 JUMP JUMPDEST SWAP1 DUP2 ISZERO MUL SWAP1 PUSH1 0x40 MLOAD PUSH1 0x0 PUSH1 0x40 MLOAD DUP1 DUP4 SUB DUP2 DUP6 DUP9 DUP9 CALL SWAP4 POP POP POP POP ISZERO DUP1 ISZERO PUSH2 0x459 JUMPI RETURNDATASIZE PUSH1 0x0 DUP1 RETURNDATACOPY RETURNDATASIZE PUSH1 0x0 REVERT JUMPDEST POP POP JUMP JUMPDEST PUSH1 0x3 DUP2 DUP2 SLOAD DUP2 LT PUSH2 0x46D JUMPI PUSH1 0x0 DUP1 REVERT JUMPDEST SWAP1 PUSH1 0x0 MSTORE PUSH1 0x20 PUSH1 0x0 KECCAK256 SWAP1 PUSH1 0x5 MUL ADD PUSH1 0x0 SWAP2 POP SWAP1 POP DUP1 PUSH1 0x0 ADD SLOAD SWAP1 DUP1 PUSH1 0x1 ADD DUP1 SLOAD PUSH2 0x496 SWAP1 PUSH2 0x1A03 JUMP JUMPDEST DUP1 PUSH1 0x1F ADD PUSH1 0x20 DUP1 SWAP2 DIV MUL PUSH1 0x20 ADD PUSH1 0x40 MLOAD SWAP1 DUP2 ADD PUSH1 0x40 MSTORE DUP1 SWAP3 SWAP2 SWAP1 DUP2 DUP2 MSTORE PUSH1 0x20 ADD DUP3 DUP1 SLOAD PUSH2 0x4C2 SWAP1 PUSH2 0x1A03 JUMP JUMPDEST DUP1 ISZERO PUSH2 0x50F JUMPI DUP1 PUSH1 0x1F LT PUSH2 0x4E4 JUMPI PUSH2 0x100 DUP1 DUP4 SLOAD DIV MUL DUP4 MSTORE SWAP2 PUSH1 0x20 ADD SWAP2 PUSH2 0x50F JUMP JUMPDEST DUP3 ADD SWAP2 SWAP1 PUSH1 0x0 MSTORE PUSH1 0x20 PUSH1 0x0 KECCAK256 SWAP1 JUMPDEST DUP2 SLOAD DUP2 MSTORE SWAP1 PUSH1 0x1 ADD SWAP1 PUSH1 0x20 ADD DUP1 DUP4 GT PUSH2 0x4F2 JUMPI DUP3 SWAP1 SUB PUSH1 0x1F AND DUP3 ADD SWAP2 JUMPDEST POP POP POP POP POP SWAP1 DUP1 PUSH1 0x2 ADD PUSH1 0x0 SWAP1 SLOAD SWAP1 PUSH2 0x100 EXP SWAP1 DIV PUSH20 0xFFFFFFFFFFFFFFFFFFFFFFFFFFFFFFFFFFFFFFFF AND SWAP1 DUP1 PUSH1 0x3 ADD SLOAD SWAP1 DUP1 PUSH1 0x4 ADD SLOAD SWAP1 POP DUP6 JUMP JUMPDEST PUSH2 0x553 PUSH2 0x11AF JUMP JUMPDEST PUSH1 0x0 DUP1 DUP4 PUSH20 0xFFFFFFFFFFFFFFFFFFFFFFFFFFFFFFFFFFFFFFFF AND PUSH20 0xFFFFFFFFFFFFFFFFFFFFFFFFFFFFFFFFFFFFFFFF AND DUP2 MSTORE PUSH1 0x20 ADD SWAP1 DUP2 MSTORE PUSH1 0x20 ADD PUSH1 0x0 KECCAK256 PUSH1 0x40 MLOAD DUP1 PUSH1 0xA0 ADD PUSH1 0x40 MSTORE SWAP1 DUP2 PUSH1 0x0 DUP3 ADD SLOAD DUP2 MSTORE PUSH1 0x20 ADD PUSH1 0x1 DUP3 ADD DUP1 SLOAD PUSH2 0x5B6 SWAP1 PUSH2 0x1A03 JUMP JUMPDEST DUP1 PUSH1 0x1F ADD PUSH1 0x20 DUP1 SWAP2 DIV MUL PUSH1 0x20 ADD PUSH1 0x40 MLOAD SWAP1 DUP2 ADD PUSH1 0x40 MSTORE DUP1 SWAP3 SWAP2 SWAP1 DUP2 DUP2 MSTORE PUSH1 0x20 ADD DUP3 DUP1 SLOAD PUSH2 0x5E2 SWAP1 PUSH2 0x1A03 JUMP JUMPDEST DUP1 ISZERO PUSH2 0x62F JUMPI DUP1 PUSH1 0x1F LT PUSH2 0x604 JUMPI PUSH2 0x100 DUP1 DUP4 SLOAD DIV MUL DUP4 MSTORE SWAP2 PUSH1 0x20 ADD SWAP2 PUSH2 0x62F JUMP JUMPDEST DUP3 ADD SWAP2 SWAP1 PUSH1 0x0 MSTORE PUSH1 0x20 PUSH1 0x0 KECCAK256 SWAP1 JUMPDEST DUP2 SLOAD DUP2 MSTORE SWAP1 PUSH1 0x1 ADD SWAP1 PUSH1 0x20 ADD DUP1 DUP4 GT PUSH2 0x612 JUMPI DUP3 SWAP1 SUB PUSH1 0x1F AND DUP3 ADD SWAP2 JUMPDEST POP POP POP POP POP DUP2 MSTORE PUSH1 0x20 ADD PUSH1 0x2 DUP3 ADD PUSH1 0x0 SWAP1 SLOAD SWAP1 PUSH2 0x100 EXP SWAP1 DIV PUSH20 0xFFFFFFFFFFFFFFFFFFFFFFFFFFFFFFFFFFFFFFFF AND PUSH20 0xFFFFFFFFFFFFFFFFFFFFFFFFFFFFFFFFFFFFFFFF AND PUSH20 0xFFFFFFFFFFFFFFFFFFFFFFFFFFFFFFFFFFFFFFFF AND DUP2 MSTORE PUSH1 0x20 ADD PUSH1 0x3 DUP3 ADD SLOAD DUP2 MSTORE PUSH1 0x20 ADD PUSH1 0x4 DUP3 ADD SLOAD DUP2 MSTORE POP POP SWAP1 POP SWAP2 SWAP1 POP JUMP JUMPDEST PUSH7 0x2386F26FC10000 PUSH1 0x0 DUP1 CALLER PUSH20 0xFFFFFFFFFFFFFFFFFFFFFFFFFFFFFFFFFFFFFFFF AND PUSH20 0xFFFFFFFFFFFFFFFFFFFFFFFFFFFFFFFFFFFFFFFF AND DUP2 MSTORE PUSH1 0x20 ADD SWAP1 DUP2 MSTORE PUSH1 0x20 ADD PUSH1 0x0 KECCAK256 PUSH1 0x3 ADD SLOAD LT ISZERO DUP1 ISZERO PUSH2 0x701 JUMPI POP PUSH1 0x0 CALLVALUE EQ JUMPDEST DUP1 PUSH2 0x712 JUMPI POP PUSH7 0x2386F26FC10000 CALLVALUE EQ JUMPDEST PUSH2 0x71B JUMPI PUSH1 0x0 DUP1 REVERT JUMPDEST PUSH1 0x0 CALLVALUE SUB PUSH2 0x783 JUMPI PUSH7 0x2386F26FC10000 PUSH1 0x0 DUP1 CALLER PUSH20 0xFFFFFFFFFFFFFFFFFFFFFFFFFFFFFFFFFFFFFFFF AND PUSH20 0xFFFFFFFFFFFFFFFFFFFFFFFFFFFFFFFFFFFFFFFF AND DUP2 MSTORE PUSH1 0x20 ADD SWAP1 DUP2 MSTORE PUSH1 0x20 ADD PUSH1 0x0 KECCAK256 PUSH1 0x3 ADD PUSH1 0x0 DUP3 DUP3 SLOAD PUSH2 0x77B SWAP2 SWAP1 PUSH2 0x195E JUMP JUMPDEST SWAP3 POP POP DUP2 SWAP1 SSTORE POP JUMPDEST PUSH1 0x4 PUSH1 0x3 DUP1 SLOAD SWAP1 POP SUB PUSH2 0x878 JUMPI PUSH1 0x0 PUSH1 0x4 SWAP1 POP JUMPDEST PUSH1 0x0 DUP2 GT ISZERO PUSH2 0x868 JUMPI DUP1 PUSH1 0x5 PUSH2 0x7AD SWAP2 SWAP1 PUSH2 0x195E JUMP JUMPDEST PUSH1 0x0 DUP1 PUSH1 0x3 PUSH1 0x1 DUP6 PUSH2 0x7BF SWAP2 SWAP1 PUSH2 0x195E JUMP JUMPDEST DUP2 SLOAD DUP2 LT PUSH2 0x7D0 JUMPI PUSH2 0x7CF PUSH2 0x1A34 JUMP JUMPDEST JUMPDEST SWAP1 PUSH1 0x0 MSTORE PUSH1 0x20 PUSH1 0x0 KECCAK256 SWAP1 PUSH1 0x5 MUL ADD PUSH1 0x2 ADD PUSH1 0x0 SWAP1 SLOAD SWAP1 PUSH2 0x100 EXP SWAP1 DIV PUSH20 0xFFFFFFFFFFFFFFFFFFFFFFFFFFFFFFFFFFFFFFFF AND PUSH20 0xFFFFFFFFFFFFFFFFFFFFFFFFFFFFFFFFFFFFFFFF AND PUSH20 0xFFFFFFFFFFFFFFFFFFFFFFFFFFFFFFFFFFFFFFFF AND DUP2 MSTORE PUSH1 0x20 ADD SWAP1 DUP2 MSTORE PUSH1 0x20 ADD PUSH1 0x0 KECCAK256 PUSH1 0x4 ADD PUSH1 0x0 DUP3 DUP3 SLOAD PUSH2 0x84E SWAP2 SWAP1 PUSH2 0x1A63 JUMP JUMPDEST SWAP3 POP POP DUP2 SWAP1 SSTORE POP DUP1 DUP1 PUSH2 0x860 SWAP1 PUSH2 0x1A97 JUMP JUMPDEST SWAP2 POP POP PUSH2 0x797 JUMP JUMPDEST POP PUSH1 0x3 PUSH1 0x0 PUSH2 0x877 SWAP2 SWAP1 PUSH2 0x11F4 JUMP JUMPDEST JUMPDEST PUSH1 0x3 PUSH1 0x0 DUP1 CALLER PUSH20 0xFFFFFFFFFFFFFFFFFFFFFFFFFFFFFFFFFFFFFFFF AND PUSH20 0xFFFFFFFFFFFFFFFFFFFFFFFFFFFFFFFFFFFFFFFF AND DUP2 MSTORE PUSH1 0x20 ADD SWAP1 DUP2 MSTORE PUSH1 0x20 ADD PUSH1 0x0 KECCAK256 SWAP1 DUP1 PUSH1 0x1 DUP2 SLOAD ADD DUP1 DUP3 SSTORE DUP1 SWAP2 POP POP PUSH1 0x1 SWAP1 SUB SWAP1 PUSH1 0x0 MSTORE PUSH1 0x20 PUSH1 0x0 KECCAK256 SWAP1 PUSH1 0x5 MUL ADD PUSH1 0x0 SWAP1 SWAP2 SWAP1 SWAP2 SWAP1 SWAP2 POP PUSH1 0x0 DUP3 ADD SLOAD DUP2 PUSH1 0x0 ADD SSTORE PUSH1 0x1 DUP3 ADD DUP2 PUSH1 0x1 ADD SWAP1 DUP2 PUSH2 0x8FF SWAP2 SWAP1 PUSH2 0x1C82 JUMP JUMPDEST POP PUSH1 0x2 DUP3 ADD PUSH1 0x0 SWAP1 SLOAD SWAP1 PUSH2 0x100 EXP SWAP1 DIV PUSH20 0xFFFFFFFFFFFFFFFFFFFFFFFFFFFFFFFFFFFFFFFF AND DUP2 PUSH1 0x2 ADD PUSH1 0x0 PUSH2 0x100 EXP DUP2 SLOAD DUP2 PUSH20 0xFFFFFFFFFFFFFFFFFFFFFFFFFFFFFFFFFFFFFFFF MUL NOT AND SWAP1 DUP4 PUSH20 0xFFFFFFFFFFFFFFFFFFFFFFFFFFFFFFFFFFFFFFFF AND MUL OR SWAP1 SSTORE POP PUSH1 0x3 DUP3 ADD SLOAD DUP2 PUSH1 0x3 ADD SSTORE PUSH1 0x4 DUP3 ADD SLOAD DUP2 PUSH1 0x4 ADD SSTORE POP POP JUMP JUMPDEST PUSH1 0xA PUSH1 0x0 DUP1 CALLER PUSH20 0xFFFFFFFFFFFFFFFFFFFFFFFFFFFFFFFFFFFFFFFF AND PUSH20 0xFFFFFFFFFFFFFFFFFFFFFFFFFFFFFFFFFFFFFFFF AND DUP2 MSTORE PUSH1 0x20 ADD SWAP1 DUP2 MSTORE PUSH1 0x20 ADD PUSH1 0x0 KECCAK256 PUSH1 0x4 ADD SLOAD LT ISZERO PUSH2 0x9CE JUMPI PUSH1 0x0 DUP1 REVERT JUMPDEST PUSH1 0x0 PUSH1 0xA PUSH1 0x0 DUP1 CALLER PUSH20 0xFFFFFFFFFFFFFFFFFFFFFFFFFFFFFFFFFFFFFFFF AND PUSH20 0xFFFFFFFFFFFFFFFFFFFFFFFFFFFFFFFFFFFFFFFF AND DUP2 MSTORE PUSH1 0x20 ADD SWAP1 DUP2 MSTORE PUSH1 0x20 ADD PUSH1 0x0 KECCAK256 PUSH1 0x4 ADD SLOAD PUSH2 0xA1E SWAP2 SWAP1 PUSH2 0x1D6A JUMP JUMPDEST SWAP1 POP PUSH1 0xA PUSH1 0x0 DUP1 CALLER PUSH20 0xFFFFFFFFFFFFFFFFFFFFFFFFFFFFFFFFFFFFFFFF AND PUSH20 0xFFFFFFFFFFFFFFFFFFFFFFFFFFFFFFFFFFFFFFFF AND DUP2 MSTORE PUSH1 0x20 ADD SWAP1 DUP2 MSTORE PUSH1 0x20 ADD PUSH1 0x0 KECCAK256 PUSH1 0x4 ADD SLOAD PUSH2 0xA6E SWAP2 SWAP1 PUSH2 0x18FE JUMP JUMPDEST PUSH1 0x0 DUP1 CALLER PUSH20 0xFFFFFFFFFFFFFFFFFFFFFFFFFFFFFFFFFFFFFFFF AND PUSH20 0xFFFFFFFFFFFFFFFFFFFFFFFFFFFFFFFFFFFFFFFF AND DUP2 MSTORE PUSH1 0x20 ADD SWAP1 DUP2 MSTORE PUSH1 0x20 ADD PUSH1 0x0 KECCAK256 PUSH1 0x4 ADD DUP2 SWAP1 SSTORE POP CALLER PUSH20 0xFFFFFFFFFFFFFFFFFFFFFFFFFFFFFFFFFFFFFFFF AND PUSH2 0x8FC PUSH8 0x16345785D8A0000 DUP4 PUSH2 0xAE1 SWAP2 SWAP1 PUSH2 0x1992 JUMP JUMPDEST SWAP1 DUP2 ISZERO MUL SWAP1 PUSH1 0x40 MLOAD PUSH1 0x0 PUSH1 0x40 MLOAD DUP1 DUP4 SUB DUP2 DUP6 DUP9 DUP9 CALL SWAP4 POP POP POP POP ISZERO DUP1 ISZERO PUSH2 0xB0C JUMPI RETURNDATASIZE PUSH1 0x0 DUP1 RETURNDATACOPY RETURNDATASIZE PUSH1 0x0 REVERT JUMPDEST POP POP JUMP JUMPDEST PUSH7 0x2386F26FC10000 PUSH1 0x0 DUP1 CALLER PUSH20 0xFFFFFFFFFFFFFFFFFFFFFFFFFFFFFFFFFFFFFFFF AND PUSH20 0xFFFFFFFFFFFFFFFFFFFFFFFFFFFFFFFFFFFFFFFF AND DUP2 MSTORE PUSH1 0x20 ADD SWAP1 DUP2 MSTORE PUSH1 0x20 ADD PUSH1 0x0 KECCAK256 PUSH1 0x3 ADD SLOAD LT ISZERO DUP1 ISZERO PUSH2 0xB68 JUMPI POP PUSH1 0x0 CALLVALUE EQ JUMPDEST DUP1 PUSH2 0xB79 JUMPI POP PUSH7 0x2386F26FC10000 CALLVALUE EQ JUMPDEST PUSH2 0xB82 JUMPI PUSH1 0x0 DUP1 REVERT JUMPDEST PUSH1 0x0 CALLVALUE SUB PUSH2 0xBEA JUMPI PUSH7 0x2386F26FC10000 PUSH1 0x0 DUP1 CALLER PUSH20 0xFFFFFFFFFFFFFFFFFFFFFFFFFFFFFFFFFFFFFFFF AND PUSH20 0xFFFFFFFFFFFFFFFFFFFFFFFFFFFFFFFFFFFFFFFF AND DUP2 MSTORE PUSH1 0x20 ADD SWAP1 DUP2 MSTORE PUSH1 0x20 ADD PUSH1 0x0 KECCAK256 PUSH1 0x3 ADD PUSH1 0x0 DUP3 DUP3 SLOAD PUSH2 0xBE2 SWAP2 SWAP1 PUSH2 0x195E JUMP JUMPDEST SWAP3 POP POP DUP2 SWAP1 SSTORE POP JUMPDEST PUSH1 0x4 PUSH2 0xBF4 PUSH2 0x1026 JUMP JUMPDEST SUB PUSH2 0xCE1 JUMPI PUSH1 0x0 PUSH1 0x4 SWAP1 POP JUMPDEST PUSH1 0x0 DUP2 GT ISZERO PUSH2 0xCD1 JUMPI DUP1 PUSH1 0x5 PUSH2 0xC16 SWAP2 SWAP1 PUSH2 0x195E JUMP JUMPDEST PUSH1 0x0 DUP1 PUSH1 0x3 PUSH1 0x1 DUP6 PUSH2 0xC28 SWAP2 SWAP1 PUSH2 0x195E JUMP JUMPDEST DUP2 SLOAD DUP2 LT PUSH2 0xC39 JUMPI PUSH2 0xC38 PUSH2 0x1A34 JUMP JUMPDEST JUMPDEST SWAP1 PUSH1 0x0 MSTORE PUSH1 0x20 PUSH1 0x0 KECCAK256 SWAP1 PUSH1 0x5 MUL ADD PUSH1 0x2 ADD PUSH1 0x0 SWAP1 SLOAD SWAP1 PUSH2 0x100 EXP SWAP1 DIV PUSH20 0xFFFFFFFFFFFFFFFFFFFFFFFFFFFFFFFFFFFFFFFF AND PUSH20 0xFFFFFFFFFFFFFFFFFFFFFFFFFFFFFFFFFFFFFFFF AND PUSH20 0xFFFFFFFFFFFFFFFFFFFFFFFFFFFFFFFFFFFFFFFF AND DUP2 MSTORE PUSH1 0x20 ADD SWAP1 DUP2 MSTORE PUSH1 0x20 ADD PUSH1 0x0 KECCAK256 PUSH1 0x4 ADD PUSH1 0x0 DUP3 DUP3 SLOAD PUSH2 0xCB7 SWAP2 SWAP1 PUSH2 0x1A63 JUMP JUMPDEST SWAP3 POP POP DUP2 SWAP1 SSTORE POP DUP1 DUP1 PUSH2 0xCC9 SWAP1 PUSH2 0x1A97 JUMP JUMPDEST SWAP2 POP POP PUSH2 0xC00 JUMP JUMPDEST POP PUSH1 0x4 PUSH1 0x0 PUSH2 0xCE0 SWAP2 SWAP1 PUSH2 0x1218 JUMP JUMPDEST JUMPDEST PUSH1 0x0 DUP1 CALLER PUSH20 0xFFFFFFFFFFFFFFFFFFFFFFFFFFFFFFFFFFFFFFFF AND PUSH20 0xFFFFFFFFFFFFFFFFFFFFFFFFFFFFFFFFFFFFFFFF AND DUP2 MSTORE PUSH1 0x20 ADD SWAP1 DUP2 MSTORE PUSH1 0x20 ADD PUSH1 0x0 KECCAK256 PUSH1 0x4 PUSH2 0xD29 PUSH2 0x1026 JUMP JUMPDEST PUSH1 0x4 DUP2 LT PUSH2 0xD3A JUMPI PUSH2 0xD39 PUSH2 0x1A34 JUMP JUMPDEST JUMPDEST PUSH1 0x5 MUL ADD PUSH1 0x0 DUP3 ADD SLOAD DUP2 PUSH1 0x0 ADD SSTORE PUSH1 0x1 DUP3 ADD DUP2 PUSH1 0x1 ADD SWAP1 DUP2 PUSH2 0xD5C SWAP2 SWAP1 PUSH2 0x1C82 JUMP JUMPDEST POP PUSH1 0x2 DUP3 ADD PUSH1 0x0 SWAP1 SLOAD SWAP1 PUSH2 0x100 EXP SWAP1 DIV PUSH20 0xFFFFFFFFFFFFFFFFFFFFFFFFFFFFFFFFFFFFFFFF AND DUP2 PUSH1 0x2 ADD PUSH1 0x0 PUSH2 0x100 EXP DUP2 SLOAD DUP2 PUSH20 0xFFFFFFFFFFFFFFFFFFFFFFFFFFFFFFFFFFFFFFFF MUL NOT AND SWAP1 DUP4 PUSH20 0xFFFFFFFFFFFFFFFFFFFFFFFFFFFFFFFFFFFFFFFF AND MUL OR SWAP1 SSTORE POP PUSH1 0x3 DUP3 ADD SLOAD DUP2 PUSH1 0x3 ADD SSTORE PUSH1 0x4 DUP3 ADD SLOAD DUP2 PUSH1 0x4 ADD SSTORE SWAP1 POP POP JUMP JUMPDEST CALLVALUE PUSH1 0x0 DUP1 CALLER PUSH20 0xFFFFFFFFFFFFFFFFFFFFFFFFFFFFFFFFFFFFFFFF AND PUSH20 0xFFFFFFFFFFFFFFFFFFFFFFFFFFFFFFFFFFFFFFFF AND DUP2 MSTORE PUSH1 0x20 ADD SWAP1 DUP2 MSTORE PUSH1 0x20 ADD PUSH1 0x0 KECCAK256 PUSH1 0x3 ADD PUSH1 0x0 DUP3 DUP3 SLOAD PUSH2 0xE2E SWAP2 SWAP1 PUSH2 0x1A63 JUMP JUMPDEST SWAP3 POP POP DUP2 SWAP1 SSTORE POP JUMP JUMPDEST PUSH1 0x2 PUSH1 0x0 SWAP1 SLOAD SWAP1 PUSH2 0x100 EXP SWAP1 DIV PUSH20 0xFFFFFFFFFFFFFFFFFFFFFFFFFFFFFFFFFFFFFFFF AND PUSH20 0xFFFFFFFFFFFFFFFFFFFFFFFFFFFFFFFFFFFFFFFF AND CALLER PUSH20 0xFFFFFFFFFFFFFFFFFFFFFFFFFFFFFFFFFFFFFFFF AND EQ PUSH2 0xE91 JUMPI PUSH1 0x0 DUP1 REVERT JUMPDEST PUSH1 0x2 PUSH1 0x0 SWAP1 SLOAD SWAP1 PUSH2 0x100 EXP SWAP1 DIV PUSH20 0xFFFFFFFFFFFFFFFFFFFFFFFFFFFFFFFFFFFFFFFF AND PUSH20 0xFFFFFFFFFFFFFFFFFFFFFFFFFFFFFFFFFFFFFFFF AND PUSH2 0x8FC SELFBALANCE SWAP1 DUP2 ISZERO MUL SWAP1 PUSH1 0x40 MLOAD PUSH1 0x0 PUSH1 0x40 MLOAD DUP1 DUP4 SUB DUP2 DUP6 DUP9 DUP9 CALL SWAP4 POP POP POP POP ISZERO DUP1 ISZERO PUSH2 0xEF9 JUMPI RETURNDATASIZE PUSH1 0x0 DUP1 RETURNDATACOPY RETURNDATASIZE PUSH1 0x0 REVERT JUMPDEST POP JUMP JUMPDEST PUSH1 0x40 MLOAD DUP1 PUSH1 0xA0 ADD PUSH1 0x40 MSTORE DUP1 PUSH1 0x1 PUSH1 0x0 DUP2 SLOAD DUP1 SWAP3 SWAP2 SWAP1 PUSH2 0xF1A SWAP1 PUSH2 0x1D9B JUMP JUMPDEST SWAP2 SWAP1 POP SSTORE DUP2 MSTORE PUSH1 0x20 ADD DUP3 DUP2 MSTORE PUSH1 0x20 ADD CALLER PUSH20 0xFFFFFFFFFFFFFFFFFFFFFFFFFFFFFFFFFFFFFFFF AND DUP2 MSTORE PUSH1 0x20 ADD CALLER PUSH20 0xFFFFFFFFFFFFFFFFFFFFFFFFFFFFFFFFFFFFFFFF AND BALANCE DUP2 MSTORE PUSH1 0x20 ADD PUSH1 0x0 DUP2 MSTORE POP PUSH1 0x0 DUP1 CALLER PUSH20 0xFFFFFFFFFFFFFFFFFFFFFFFFFFFFFFFFFFFFFFFF AND PUSH20 0xFFFFFFFFFFFFFFFFFFFFFFFFFFFFFFFFFFFFFFFF AND DUP2 MSTORE PUSH1 0x20 ADD SWAP1 DUP2 MSTORE PUSH1 0x20 ADD PUSH1 0x0 KECCAK256 PUSH1 0x0 DUP3 ADD MLOAD DUP2 PUSH1 0x0 ADD SSTORE PUSH1 0x20 DUP3 ADD MLOAD DUP2 PUSH1 0x1 ADD SWAP1 DUP2 PUSH2 0xFC4 SWAP2 SWAP1 PUSH2 0x1DE3 JUMP JUMPDEST POP PUSH1 0x40 DUP3 ADD MLOAD DUP2 PUSH1 0x2 ADD PUSH1 0x0 PUSH2 0x100 EXP DUP2 SLOAD DUP2 PUSH20 0xFFFFFFFFFFFFFFFFFFFFFFFFFFFFFFFFFFFFFFFF MUL NOT AND SWAP1 DUP4 PUSH20 0xFFFFFFFFFFFFFFFFFFFFFFFFFFFFFFFFFFFFFFFF AND MUL OR SWAP1 SSTORE POP PUSH1 0x60 DUP3 ADD MLOAD DUP2 PUSH1 0x3 ADD SSTORE PUSH1 0x80 DUP3 ADD MLOAD DUP2 PUSH1 0x4 ADD SSTORE SWAP1 POP POP POP JUMP JUMPDEST PUSH1 0x0 DUP1 PUSH1 0x0 SWAP1 POP JUMPDEST PUSH1 0x4 DUP2 LT ISZERO PUSH2 0x10C2 JUMPI PUSH1 0x0 PUSH20 0xFFFFFFFFFFFFFFFFFFFFFFFFFFFFFFFFFFFFFFFF AND PUSH1 0x4 DUP3 PUSH1 0x4 DUP2 LT PUSH2 0x1063 JUMPI PUSH2 0x1062 PUSH2 0x1A34 JUMP JUMPDEST JUMPDEST PUSH1 0x5 MUL ADD PUSH1 0x2 ADD PUSH1 0x0 SWAP1 SLOAD SWAP1 PUSH2 0x100 EXP SWAP1 DIV PUSH20 0xFFFFFFFFFFFFFFFFFFFFFFFFFFFFFFFFFFFFFFFF AND PUSH20 0xFFFFFFFFFFFFFFFFFFFFFFFFFFFFFFFFFFFFFFFF AND SUB PUSH2 0x10AF JUMPI DUP1 SWAP2 POP POP PUSH2 0x10C8 JUMP JUMPDEST DUP1 DUP1 PUSH2 0x10BA SWAP1 PUSH2 0x1D9B JUMP JUMPDEST SWAP2 POP POP PUSH2 0x102E JUMP JUMPDEST POP PUSH1 0x4 SWAP1 POP JUMPDEST SWAP1 JUMP JUMPDEST PUSH1 0x4 DUP2 PUSH1 0x4 DUP2 LT PUSH2 0x10DB JUMPI PUSH1 0x0 DUP1 REVERT JUMPDEST PUSH1 0x5 MUL ADD PUSH1 0x0 SWAP2 POP SWAP1 POP DUP1 PUSH1 0x0 ADD SLOAD SWAP1 DUP1 PUSH1 0x1 ADD DUP1 SLOAD PUSH2 0x10FA SWAP1 PUSH2 0x1A03 JUMP JUMPDEST DUP1 PUSH1 0x1F ADD PUSH1 0x20 DUP1 SWAP2 DIV MUL PUSH1 0x20 ADD PUSH1 0x40 MLOAD SWAP1 DUP2 ADD PUSH1 0x40 MSTORE DUP1 SWAP3 SWAP2 SWAP1 DUP2 DUP2 MSTORE PUSH1 0x20 ADD DUP3 DUP1 SLOAD PUSH2 0x1126 SWAP1 PUSH2 0x1A03 JUMP JUMPDEST DUP1 ISZERO PUSH2 0x1173 JUMPI DUP1 PUSH1 0x1F LT PUSH2 0x1148 JUMPI PUSH2 0x100 DUP1 DUP4 SLOAD DIV MUL DUP4 MSTORE SWAP2 PUSH1 0x20 ADD SWAP2 PUSH2 0x1173 JUMP JUMPDEST DUP3 ADD SWAP2 SWAP1 PUSH1 0x0 MSTORE PUSH1 0x20 PUSH1 0x0 KECCAK256 SWAP1 JUMPDEST DUP2 SLOAD DUP2 MSTORE SWAP1 PUSH1 0x1 ADD SWAP1 PUSH1 0x20 ADD DUP1 DUP4 GT PUSH2 0x1156 JUMPI DUP3 SWAP1 SUB PUSH1 0x1F AND DUP3 ADD SWAP2 JUMPDEST POP POP POP POP POP SWAP1 DUP1 PUSH1 0x2 ADD PUSH1 0x0 SWAP1 SLOAD SWAP1 PUSH2 0x100 EXP SWAP1 DIV PUSH20 0xFFFFFFFFFFFFFFFFFFFFFFFFFFFFFFFFFFFFFFFF AND SWAP1 DUP1 PUSH1 0x3 ADD SLOAD SWAP1 DUP1 PUSH1 0x4 ADD SLOAD SWAP1 POP DUP6 JUMP JUMPDEST PUSH1 0x40 MLOAD DUP1 PUSH1 0xA0 ADD PUSH1 0x40 MSTORE DUP1 PUSH1 0x0 DUP2 MSTORE PUSH1 0x20 ADD PUSH1 0x60 DUP2 MSTORE PUSH1 0x20 ADD PUSH1 0x0 PUSH20 0xFFFFFFFFFFFFFFFFFFFFFFFFFFFFFFFFFFFFFFFF AND DUP2 MSTORE PUSH1 0x20 ADD PUSH1 0x0 DUP2 MSTORE PUSH1 0x20 ADD PUSH1 0x0 DUP2 MSTORE POP SWAP1 JUMP JUMPDEST POP DUP1 SLOAD PUSH1 0x0 DUP3 SSTORE PUSH1 0x5 MUL SWAP1 PUSH1 0x0 MSTORE PUSH1 0x20 PUSH1 0x0 KECCAK256 SWAP1 DUP2 ADD SWAP1 PUSH2 0x1215 SWAP2 SWAP1 PUSH2 0x1369 JUMP JUMPDEST POP JUMP JUMPDEST POP PUSH1 0x0 DUP1 DUP3 ADD PUSH1 0x0 SWAP1 SSTORE PUSH1 0x1 DUP3 ADD PUSH1 0x0 PUSH2 0x1232 SWAP2 SWAP1 PUSH2 0x13CF JUMP JUMPDEST PUSH1 0x2 DUP3 ADD PUSH1 0x0 PUSH2 0x100 EXP DUP2 SLOAD SWAP1 PUSH20 0xFFFFFFFFFFFFFFFFFFFFFFFFFFFFFFFFFFFFFFFF MUL NOT AND SWAP1 SSTORE PUSH1 0x3 DUP3 ADD PUSH1 0x0 SWAP1 SSTORE PUSH1 0x4 DUP3 ADD PUSH1 0x0 SWAP1 SSTORE POP PUSH1 0x5 ADD PUSH1 0x0 DUP1 DUP3 ADD PUSH1 0x0 SWAP1 SSTORE PUSH1 0x1 DUP3 ADD PUSH1 0x0 PUSH2 0x1286 SWAP2 SWAP1 PUSH2 0x13CF JUMP JUMPDEST PUSH1 0x2 DUP3 ADD PUSH1 0x0 PUSH2 0x100 EXP DUP2 SLOAD SWAP1 PUSH20 0xFFFFFFFFFFFFFFFFFFFFFFFFFFFFFFFFFFFFFFFF MUL NOT AND SWAP1 SSTORE PUSH1 0x3 DUP3 ADD PUSH1 0x0 SWAP1 SSTORE PUSH1 0x4 DUP3 ADD PUSH1 0x0 SWAP1 SSTORE POP PUSH1 0x5 ADD PUSH1 0x0 DUP1 DUP3 ADD PUSH1 0x0 SWAP1 SSTORE PUSH1 0x1 DUP3 ADD PUSH1 0x0 PUSH2 0x12DA SWAP2 SWAP1 PUSH2 0x13CF JUMP JUMPDEST PUSH1 0x2 DUP3 ADD PUSH1 0x0 PUSH2 0x100 EXP DUP2 SLOAD SWAP1 PUSH20 0xFFFFFFFFFFFFFFFFFFFFFFFFFFFFFFFFFFFFFFFF MUL NOT AND SWAP1 SSTORE PUSH1 0x3 DUP3 ADD PUSH1 0x0 SWAP1 SSTORE PUSH1 0x4 DUP3 ADD PUSH1 0x0 SWAP1 SSTORE POP PUSH1 0x5 ADD PUSH1 0x0 DUP1 DUP3 ADD PUSH1 0x0 SWAP1 SSTORE PUSH1 0x1 DUP3 ADD PUSH1 0x0 PUSH2 0x132E SWAP2 SWAP1 PUSH2 0x13CF JUMP JUMPDEST PUSH1 0x2 DUP3 ADD PUSH1 0x0 PUSH2 0x100 EXP DUP2 SLOAD SWAP1 PUSH20 0xFFFFFFFFFFFFFFFFFFFFFFFFFFFFFFFFFFFFFFFF MUL NOT AND SWAP1 SSTORE PUSH1 0x3 DUP3 ADD PUSH1 0x0 SWAP1 SSTORE PUSH1 0x4 DUP3 ADD PUSH1 0x0 SWAP1 SSTORE POP POP JUMP JUMPDEST JUMPDEST DUP1 DUP3 GT ISZERO PUSH2 0x13CB JUMPI PUSH1 0x0 DUP1 DUP3 ADD PUSH1 0x0 SWAP1 SSTORE PUSH1 0x1 DUP3 ADD PUSH1 0x0 PUSH2 0x138B SWAP2 SWAP1 PUSH2 0x13CF JUMP JUMPDEST PUSH1 0x2 DUP3 ADD PUSH1 0x0 PUSH2 0x100 EXP DUP2 SLOAD SWAP1 PUSH20 0xFFFFFFFFFFFFFFFFFFFFFFFFFFFFFFFFFFFFFFFF MUL NOT AND SWAP1 SSTORE PUSH1 0x3 DUP3 ADD PUSH1 0x0 SWAP1 SSTORE PUSH1 0x4 DUP3 ADD PUSH1 0x0 SWAP1 SSTORE POP PUSH1 0x5 ADD PUSH2 0x136A JUMP JUMPDEST POP SWAP1 JUMP JUMPDEST POP DUP1 SLOAD PUSH2 0x13DB SWAP1 PUSH2 0x1A03 JUMP JUMPDEST PUSH1 0x0 DUP3 SSTORE DUP1 PUSH1 0x1F LT PUSH2 0x13ED JUMPI POP PUSH2 0x140C JUMP JUMPDEST PUSH1 0x1F ADD PUSH1 0x20 SWAP1 DIV SWAP1 PUSH1 0x0 MSTORE PUSH1 0x20 PUSH1 0x0 KECCAK256 SWAP1 DUP2 ADD SWAP1 PUSH2 0x140B SWAP2 SWAP1 PUSH2 0x140F JUMP JUMPDEST JUMPDEST POP JUMP JUMPDEST JUMPDEST DUP1 DUP3 GT ISZERO PUSH2 0x1428 JUMPI PUSH1 0x0 DUP2 PUSH1 0x0 SWAP1 SSTORE POP PUSH1 0x1 ADD PUSH2 0x1410 JUMP JUMPDEST POP SWAP1 JUMP JUMPDEST PUSH1 0x0 PUSH1 0x40 MLOAD SWAP1 POP SWAP1 JUMP JUMPDEST PUSH1 0x0 DUP1 REVERT JUMPDEST PUSH1 0x0 DUP1 REVERT JUMPDEST PUSH1 0x0 DUP2 SWAP1 POP SWAP2 SWAP1 POP JUMP JUMPDEST PUSH2 0x1453 DUP2 PUSH2 0x1440 JUMP JUMPDEST DUP2 EQ PUSH2 0x145E JUMPI PUSH1 0x0 DUP1 REVERT JUMPDEST POP JUMP JUMPDEST PUSH1 0x0 DUP2 CALLDATALOAD SWAP1 POP PUSH2 0x1470 DUP2 PUSH2 0x144A JUMP JUMPDEST SWAP3 SWAP2 POP POP JUMP JUMPDEST PUSH1 0x0 PUSH1 0x20 DUP3 DUP5 SUB SLT ISZERO PUSH2 0x148C JUMPI PUSH2 0x148B PUSH2 0x1436 JUMP JUMPDEST JUMPDEST PUSH1 0x0 PUSH2 0x149A DUP5 DUP3 DUP6 ADD PUSH2 0x1461 JUMP JUMPDEST SWAP2 POP POP SWAP3 SWAP2 POP POP JUMP JUMPDEST PUSH2 0x14AC DUP2 PUSH2 0x1440 JUMP JUMPDEST DUP3 MSTORE POP POP JUMP JUMPDEST PUSH1 0x0 DUP2 MLOAD SWAP1 POP SWAP2 SWAP1 POP JUMP JUMPDEST PUSH1 0x0 DUP3 DUP3 MSTORE PUSH1 0x20 DUP3 ADD SWAP1 POP SWAP3 SWAP2 POP POP JUMP JUMPDEST PUSH1 0x0 JUMPDEST DUP4 DUP2 LT ISZERO PUSH2 0x14EC JUMPI DUP1 DUP3 ADD MLOAD DUP2 DUP5 ADD MSTORE PUSH1 0x20 DUP2 ADD SWAP1 POP PUSH2 0x14D1 JUMP JUMPDEST PUSH1 0x0 DUP5 DUP5 ADD MSTORE POP POP POP POP JUMP JUMPDEST PUSH1 0x0 PUSH1 0x1F NOT PUSH1 0x1F DUP4 ADD AND SWAP1 POP SWAP2 SWAP1 POP JUMP JUMPDEST PUSH1 0x0 PUSH2 0x1514 DUP3 PUSH2 0x14B2 JUMP JUMPDEST PUSH2 0x151E DUP2 DUP6 PUSH2 0x14BD JUMP JUMPDEST SWAP4 POP PUSH2 0x152E DUP2 DUP6 PUSH1 0x20 DUP7 ADD PUSH2 0x14CE JUMP JUMPDEST PUSH2 0x1537 DUP2 PUSH2 0x14F8 JUMP JUMPDEST DUP5 ADD SWAP2 POP POP SWAP3 SWAP2 POP POP JUMP JUMPDEST PUSH1 0x0 PUSH20 0xFFFFFFFFFFFFFFFFFFFFFFFFFFFFFFFFFFFFFFFF DUP3 AND SWAP1 POP SWAP2 SWAP1 POP JUMP JUMPDEST PUSH1 0x0 PUSH2 0x156D DUP3 PUSH2 0x1542 JUMP JUMPDEST SWAP1 POP SWAP2 SWAP1 POP JUMP JUMPDEST PUSH2 0x157D DUP2 PUSH2 0x1562 JUMP JUMPDEST DUP3 MSTORE POP POP JUMP JUMPDEST PUSH1 0x0 PUSH1 0xA0 DUP3 ADD SWAP1 POP PUSH2 0x1598 PUSH1 0x0 DUP4 ADD DUP9 PUSH2 0x14A3 JUMP JUMPDEST DUP2 DUP2 SUB PUSH1 0x20 DUP4 ADD MSTORE PUSH2 0x15AA DUP2 DUP8 PUSH2 0x1509 JUMP JUMPDEST SWAP1 POP PUSH2 0x15B9 PUSH1 0x40 DUP4 ADD DUP7 PUSH2 0x1574 JUMP JUMPDEST PUSH2 0x15C6 PUSH1 0x60 DUP4 ADD DUP6 PUSH2 0x14A3 JUMP JUMPDEST PUSH2 0x15D3 PUSH1 0x80 DUP4 ADD DUP5 PUSH2 0x14A3 JUMP JUMPDEST SWAP7 SWAP6 POP POP POP POP POP POP JUMP JUMPDEST PUSH2 0x15E6 DUP2 PUSH2 0x1562 JUMP JUMPDEST DUP2 EQ PUSH2 0x15F1 JUMPI PUSH1 0x0 DUP1 REVERT JUMPDEST POP JUMP JUMPDEST PUSH1 0x0 DUP2 CALLDATALOAD SWAP1 POP PUSH2 0x1603 DUP2 PUSH2 0x15DD JUMP JUMPDEST SWAP3 SWAP2 POP POP JUMP JUMPDEST PUSH1 0x0 PUSH1 0x20 DUP3 DUP5 SUB SLT ISZERO PUSH2 0x161F JUMPI PUSH2 0x161E PUSH2 0x1436 JUMP JUMPDEST JUMPDEST PUSH1 0x0 PUSH2 0x162D DUP5 DUP3 DUP6 ADD PUSH2 0x15F4 JUMP JUMPDEST SWAP2 POP POP SWAP3 SWAP2 POP POP JUMP JUMPDEST PUSH2 0x163F DUP2 PUSH2 0x1440 JUMP JUMPDEST DUP3 MSTORE POP POP JUMP JUMPDEST PUSH1 0x0 DUP3 DUP3 MSTORE PUSH1 0x20 DUP3 ADD SWAP1 POP SWAP3 SWAP2 POP POP JUMP JUMPDEST PUSH1 0x0 PUSH2 0x1661 DUP3 PUSH2 0x14B2 JUMP JUMPDEST PUSH2 0x166B DUP2 DUP6 PUSH2 0x1645 JUMP JUMPDEST SWAP4 POP PUSH2 0x167B DUP2 DUP6 PUSH1 0x20 DUP7 ADD PUSH2 0x14CE JUMP JUMPDEST PUSH2 0x1684 DUP2 PUSH2 0x14F8 JUMP JUMPDEST DUP5 ADD SWAP2 POP POP SWAP3 SWAP2 POP POP JUMP JUMPDEST PUSH2 0x1698 DUP2 PUSH2 0x1562 JUMP JUMPDEST DUP3 MSTORE POP POP JUMP JUMPDEST PUSH1 0x0 PUSH1 0xA0 DUP4 ADD PUSH1 0x0 DUP4 ADD MLOAD PUSH2 0x16B6 PUSH1 0x0 DUP7 ADD DUP3 PUSH2 0x1636 JUMP JUMPDEST POP PUSH1 0x20 DUP4 ADD MLOAD DUP5 DUP3 SUB PUSH1 0x20 DUP7 ADD MSTORE PUSH2 0x16CE DUP3 DUP3 PUSH2 0x1656 JUMP JUMPDEST SWAP2 POP POP PUSH1 0x40 DUP4 ADD MLOAD PUSH2 0x16E3 PUSH1 0x40 DUP7 ADD DUP3 PUSH2 0x168F JUMP JUMPDEST POP PUSH1 0x60 DUP4 ADD MLOAD PUSH2 0x16F6 PUSH1 0x60 DUP7 ADD DUP3 PUSH2 0x1636 JUMP JUMPDEST POP PUSH1 0x80 DUP4 ADD MLOAD PUSH2 0x1709 PUSH1 0x80 DUP7 ADD DUP3 PUSH2 0x1636 JUMP JUMPDEST POP DUP1 SWAP2 POP POP SWAP3 SWAP2 POP POP JUMP JUMPDEST PUSH1 0x0 PUSH1 0x20 DUP3 ADD SWAP1 POP DUP2 DUP2 SUB PUSH1 0x0 DUP4 ADD MSTORE PUSH2 0x172E DUP2 DUP5 PUSH2 0x169E JUMP JUMPDEST SWAP1 POP SWAP3 SWAP2 POP POP JUMP JUMPDEST PUSH1 0x0 DUP1 REVERT JUMPDEST PUSH1 0x0 DUP1 REVERT JUMPDEST PUSH32 0x4E487B7100000000000000000000000000000000000000000000000000000000 PUSH1 0x0 MSTORE PUSH1 0x41 PUSH1 0x4 MSTORE PUSH1 0x24 PUSH1 0x0 REVERT JUMPDEST PUSH2 0x1778 DUP3 PUSH2 0x14F8 JUMP JUMPDEST DUP2 ADD DUP2 DUP2 LT PUSH8 0xFFFFFFFFFFFFFFFF DUP3 GT OR ISZERO PUSH2 0x1797 JUMPI PUSH2 0x1796 PUSH2 0x1740 JUMP JUMPDEST JUMPDEST DUP1 PUSH1 0x40 MSTORE POP POP POP JUMP JUMPDEST PUSH1 0x0 PUSH2 0x17AA PUSH2 0x142C JUMP JUMPDEST SWAP1 POP PUSH2 0x17B6 DUP3 DUP3 PUSH2 0x176F JUMP JUMPDEST SWAP2 SWAP1 POP JUMP JUMPDEST PUSH1 0x0 PUSH8 0xFFFFFFFFFFFFFFFF DUP3 GT ISZERO PUSH2 0x17D6 JUMPI PUSH2 0x17D5 PUSH2 0x1740 JUMP JUMPDEST JUMPDEST PUSH2 0x17DF DUP3 PUSH2 0x14F8 JUMP JUMPDEST SWAP1 POP PUSH1 0x20 DUP2 ADD SWAP1 POP SWAP2 SWAP1 POP JUMP JUMPDEST DUP3 DUP2 DUP4 CALLDATACOPY PUSH1 0x0 DUP4 DUP4 ADD MSTORE POP POP POP JUMP JUMPDEST PUSH1 0x0 PUSH2 0x180E PUSH2 0x1809 DUP5 PUSH2 0x17BB JUMP JUMPDEST PUSH2 0x17A0 JUMP JUMPDEST SWAP1 POP DUP3 DUP2 MSTORE PUSH1 0x20 DUP2 ADD DUP5 DUP5 DUP5 ADD GT ISZERO PUSH2 0x182A JUMPI PUSH2 0x1829 PUSH2 0x173B JUMP JUMPDEST JUMPDEST PUSH2 0x1835 DUP5 DUP3 DUP6 PUSH2 0x17EC JUMP JUMPDEST POP SWAP4 SWAP3 POP POP POP JUMP JUMPDEST PUSH1 0x0 DUP3 PUSH1 0x1F DUP4 ADD SLT PUSH2 0x1852 JUMPI PUSH2 0x1851 PUSH2 0x1736 JUMP JUMPDEST JUMPDEST DUP2 CALLDATALOAD PUSH2 0x1862 DUP5 DUP3 PUSH1 0x20 DUP7 ADD PUSH2 0x17FB JUMP JUMPDEST SWAP2 POP POP SWAP3 SWAP2 POP POP JUMP JUMPDEST PUSH1 0x0 PUSH1 0x20 DUP3 DUP5 SUB SLT ISZERO PUSH2 0x1881 JUMPI PUSH2 0x1880 PUSH2 0x1436 JUMP JUMPDEST JUMPDEST PUSH1 0x0 DUP3 ADD CALLDATALOAD PUSH8 0xFFFFFFFFFFFFFFFF DUP2 GT ISZERO PUSH2 0x189F JUMPI PUSH2 0x189E PUSH2 0x143B JUMP JUMPDEST JUMPDEST PUSH2 0x18AB DUP5 DUP3 DUP6 ADD PUSH2 0x183D JUMP JUMPDEST SWAP2 POP POP SWAP3 SWAP2 POP POP JUMP JUMPDEST PUSH1 0x0 PUSH1 0x20 DUP3 ADD SWAP1 POP PUSH2 0x18C9 PUSH1 0x0 DUP4 ADD DUP5 PUSH2 0x14A3 JUMP JUMPDEST SWAP3 SWAP2 POP POP JUMP JUMPDEST PUSH32 0x4E487B7100000000000000000000000000000000000000000000000000000000 PUSH1 0x0 MSTORE PUSH1 0x12 PUSH1 0x4 MSTORE PUSH1 0x24 PUSH1 0x0 REVERT JUMPDEST PUSH1 0x0 PUSH2 0x1909 DUP3 PUSH2 0x1440 JUMP JUMPDEST SWAP2 POP PUSH2 0x1914 DUP4 PUSH2 0x1440 JUMP JUMPDEST SWAP3 POP DUP3 PUSH2 0x1924 JUMPI PUSH2 0x1923 PUSH2 0x18CF JUMP JUMPDEST JUMPDEST DUP3 DUP3 MOD SWAP1 POP SWAP3 SWAP2 POP POP JUMP JUMPDEST PUSH32 0x4E487B7100000000000000000000000000000000000000000000000000000000 PUSH1 0x0 MSTORE PUSH1 0x11 PUSH1 0x4 MSTORE PUSH1 0x24 PUSH1 0x0 REVERT JUMPDEST PUSH1 0x0 PUSH2 0x1969 DUP3 PUSH2 0x1440 JUMP JUMPDEST SWAP2 POP PUSH2 0x1974 DUP4 PUSH2 0x1440 JUMP JUMPDEST SWAP3 POP DUP3 DUP3 SUB SWAP1 POP DUP2 DUP2 GT ISZERO PUSH2 0x198C JUMPI PUSH2 0x198B PUSH2 0x192F JUMP JUMPDEST JUMPDEST SWAP3 SWAP2 POP POP JUMP JUMPDEST PUSH1 0x0 PUSH2 0x199D DUP3 PUSH2 0x1440 JUMP JUMPDEST SWAP2 POP PUSH2 0x19A8 DUP4 PUSH2 0x1440 JUMP JUMPDEST SWAP3 POP DUP3 DUP3 MUL PUSH2 0x19B6 DUP2 PUSH2 0x1440 JUMP JUMPDEST SWAP2 POP DUP3 DUP3 DIV DUP5 EQ DUP4 ISZERO OR PUSH2 0x19CD JUMPI PUSH2 0x19CC PUSH2 0x192F JUMP JUMPDEST JUMPDEST POP SWAP3 SWAP2 POP POP JUMP JUMPDEST PUSH32 0x4E487B7100000000000000000000000000000000000000000000000000000000 PUSH1 0x0 MSTORE PUSH1 0x22 PUSH1 0x4 MSTORE PUSH1 0x24 PUSH1 0x0 REVERT JUMPDEST PUSH1 0x0 PUSH1 0x2 DUP3 DIV SWAP1 POP PUSH1 0x1 DUP3 AND DUP1 PUSH2 0x1A1B JUMPI PUSH1 0x7F DUP3 AND SWAP2 POP JUMPDEST PUSH1 0x20 DUP3 LT DUP2 SUB PUSH2 0x1A2E JUMPI PUSH2 0x1A2D PUSH2 0x19D4 JUMP JUMPDEST JUMPDEST POP SWAP2 SWAP1 POP JUMP JUMPDEST PUSH32 0x4E487B7100000000000000000000000000000000000000000000000000000000 PUSH1 0x0 MSTORE PUSH1 0x32 PUSH1 0x4 MSTORE PUSH1 0x24 PUSH1 0x0 REVERT JUMPDEST PUSH1 0x0 PUSH2 0x1A6E DUP3 PUSH2 0x1440 JUMP JUMPDEST SWAP2 POP PUSH2 0x1A79 DUP4 PUSH2 0x1440 JUMP JUMPDEST SWAP3 POP DUP3 DUP3 ADD SWAP1 POP DUP1 DUP3 GT ISZERO PUSH2 0x1A91 JUMPI PUSH2 0x1A90 PUSH2 0x192F JUMP JUMPDEST JUMPDEST SWAP3 SWAP2 POP POP JUMP JUMPDEST PUSH1 0x0 PUSH2 0x1AA2 DUP3 PUSH2 0x1440 JUMP JUMPDEST SWAP2 POP PUSH1 0x0 DUP3 SUB PUSH2 0x1AB5 JUMPI PUSH2 0x1AB4 PUSH2 0x192F JUMP JUMPDEST JUMPDEST PUSH1 0x1 DUP3 SUB SWAP1 POP SWAP2 SWAP1 POP JUMP JUMPDEST PUSH1 0x0 DUP2 SLOAD SWAP1 POP PUSH2 0x1ACF DUP2 PUSH2 0x1A03 JUMP JUMPDEST SWAP1 POP SWAP2 SWAP1 POP JUMP JUMPDEST PUSH1 0x0 DUP2 SWAP1 POP DUP2 PUSH1 0x0 MSTORE PUSH1 0x20 PUSH1 0x0 KECCAK256 SWAP1 POP SWAP2 SWAP1 POP JUMP JUMPDEST PUSH1 0x0 PUSH1 0x20 PUSH1 0x1F DUP4 ADD DIV SWAP1 POP SWAP2 SWAP1 POP JUMP JUMPDEST PUSH1 0x0 DUP3 DUP3 SHL SWAP1 POP SWAP3 SWAP2 POP POP JUMP JUMPDEST PUSH1 0x0 PUSH1 0x8 DUP4 MUL PUSH2 0x1B38 PUSH32 0xFFFFFFFFFFFFFFFFFFFFFFFFFFFFFFFFFFFFFFFFFFFFFFFFFFFFFFFFFFFFFFFF DUP3 PUSH2 0x1AFB JUMP JUMPDEST PUSH2 0x1B42 DUP7 DUP4 PUSH2 0x1AFB JUMP JUMPDEST SWAP6 POP DUP1 NOT DUP5 AND SWAP4 POP DUP1 DUP7 AND DUP5 OR SWAP3 POP POP POP SWAP4 SWAP3 POP POP POP JUMP JUMPDEST PUSH1 0x0 DUP2 SWAP1 POP SWAP2 SWAP1 POP JUMP JUMPDEST PUSH1 0x0 PUSH2 0x1B7F PUSH2 0x1B7A PUSH2 0x1B75 DUP5 PUSH2 0x1440 JUMP JUMPDEST PUSH2 0x1B5A JUMP JUMPDEST PUSH2 0x1440 JUMP JUMPDEST SWAP1 POP SWAP2 SWAP1 POP JUMP JUMPDEST PUSH1 0x0 DUP2 SWAP1 POP SWAP2 SWAP1 POP JUMP JUMPDEST PUSH2 0x1B99 DUP4 PUSH2 0x1B64 JUMP JUMPDEST PUSH2 0x1BAD PUSH2 0x1BA5 DUP3 PUSH2 0x1B86 JUMP JUMPDEST DUP5 DUP5 SLOAD PUSH2 0x1B08 JUMP JUMPDEST DUP3 SSTORE POP POP POP POP JUMP JUMPDEST PUSH1 0x0 SWAP1 JUMP JUMPDEST PUSH2 0x1BC2 PUSH2 0x1BB5 JUMP JUMPDEST PUSH2 0x1BCD DUP2 DUP5 DUP5 PUSH2 0x1B90 JUMP JUMPDEST POP POP POP JUMP JUMPDEST JUMPDEST DUP2 DUP2 LT ISZERO PUSH2 0x1BF1 JUMPI PUSH2 0x1BE6 PUSH1 0x0 DUP3 PUSH2 0x1BBA JUMP JUMPDEST PUSH1 0x1 DUP2 ADD SWAP1 POP PUSH2 0x1BD3 JUMP JUMPDEST POP POP JUMP JUMPDEST PUSH1 0x1F DUP3 GT ISZERO PUSH2 0x1C36 JUMPI PUSH2 0x1C07 DUP2 PUSH2 0x1AD6 JUMP JUMPDEST PUSH2 0x1C10 DUP5 PUSH2 0x1AEB JUMP JUMPDEST DUP2 ADD PUSH1 0x20 DUP6 LT ISZERO PUSH2 0x1C1F JUMPI DUP2 SWAP1 POP JUMPDEST PUSH2 0x1C33 PUSH2 0x1C2B DUP6 PUSH2 0x1AEB JUMP JUMPDEST DUP4 ADD DUP3 PUSH2 0x1BD2 JUMP JUMPDEST POP POP JUMPDEST POP POP POP JUMP JUMPDEST PUSH1 0x0 DUP3 DUP3 SHR SWAP1 POP SWAP3 SWAP2 POP POP JUMP JUMPDEST PUSH1 0x0 PUSH2 0x1C59 PUSH1 0x0 NOT DUP5 PUSH1 0x8 MUL PUSH2 0x1C3B JUMP JUMPDEST NOT DUP1 DUP4 AND SWAP2 POP POP SWAP3 SWAP2 POP POP JUMP JUMPDEST PUSH1 0x0 PUSH2 0x1C72 DUP4 DUP4 PUSH2 0x1C48 JUMP JUMPDEST SWAP2 POP DUP3 PUSH1 0x2 MUL DUP3 OR SWAP1 POP SWAP3 SWAP2 POP POP JUMP JUMPDEST DUP2 DUP2 SUB PUSH2 0x1C90 JUMPI POP POP PUSH2 0x1D68 JUMP JUMPDEST PUSH2 0x1C99 DUP3 PUSH2 0x1AC0 JUMP JUMPDEST PUSH8 0xFFFFFFFFFFFFFFFF DUP2 GT ISZERO PUSH2 0x1CB2 JUMPI PUSH2 0x1CB1 PUSH2 0x1740 JUMP JUMPDEST JUMPDEST PUSH2 0x1CBC DUP3 SLOAD PUSH2 0x1A03 JUMP JUMPDEST PUSH2 0x1CC7 DUP3 DUP3 DUP6 PUSH2 0x1BF5 JUMP JUMPDEST PUSH1 0x0 PUSH1 0x1F DUP4 GT PUSH1 0x1 DUP2 EQ PUSH2 0x1CF6 JUMPI PUSH1 0x0 DUP5 ISZERO PUSH2 0x1CE4 JUMPI DUP3 DUP8 ADD SLOAD SWAP1 POP JUMPDEST PUSH2 0x1CEE DUP6 DUP3 PUSH2 0x1C66 JUMP JUMPDEST DUP7 SSTORE POP PUSH2 0x1D61 JUMP JUMPDEST PUSH1 0x1F NOT DUP5 AND PUSH2 0x1D04 DUP8 PUSH2 0x1AD6 JUMP JUMPDEST SWAP7 POP PUSH2 0x1D0F DUP7 PUSH2 0x1AD6 JUMP JUMPDEST PUSH1 0x0 JUMPDEST DUP3 DUP2 LT ISZERO PUSH2 0x1D37 JUMPI DUP5 DUP10 ADD SLOAD DUP3 SSTORE PUSH1 0x1 DUP3 ADD SWAP2 POP PUSH1 0x1 DUP6 ADD SWAP5 POP PUSH1 0x20 DUP2 ADD SWAP1 POP PUSH2 0x1D12 JUMP JUMPDEST DUP7 DUP4 LT ISZERO PUSH2 0x1D54 JUMPI DUP5 DUP10 ADD SLOAD PUSH2 0x1D50 PUSH1 0x1F DUP10 AND DUP3 PUSH2 0x1C48 JUMP JUMPDEST DUP4 SSTORE POP JUMPDEST PUSH1 0x1 PUSH1 0x2 DUP9 MUL ADD DUP9 SSTORE POP POP POP JUMPDEST POP POP POP POP POP POP JUMPDEST JUMP JUMPDEST PUSH1 0x0 PUSH2 0x1D75 DUP3 PUSH2 0x1440 JUMP JUMPDEST SWAP2 POP PUSH2 0x1D80 DUP4 PUSH2 0x1440 JUMP JUMPDEST SWAP3 POP DUP3 PUSH2 0x1D90 JUMPI PUSH2 0x1D8F PUSH2 0x18CF JUMP JUMPDEST JUMPDEST DUP3 DUP3 DIV SWAP1 POP SWAP3 SWAP2 POP POP JUMP JUMPDEST PUSH1 0x0 PUSH2 0x1DA6 DUP3 PUSH2 0x1440 JUMP JUMPDEST SWAP2 POP PUSH32 0xFFFFFFFFFFFFFFFFFFFFFFFFFFFFFFFFFFFFFFFFFFFFFFFFFFFFFFFFFFFFFFFF DUP3 SUB PUSH2 0x1DD8 JUMPI PUSH2 0x1DD7 PUSH2 0x192F JUMP JUMPDEST JUMPDEST PUSH1 0x1 DUP3 ADD SWAP1 POP SWAP2 SWAP1 POP JUMP JUMPDEST PUSH2 0x1DEC DUP3 PUSH2 0x14B2 JUMP JUMPDEST PUSH8 0xFFFFFFFFFFFFFFFF DUP2 GT ISZERO PUSH2 0x1E05 JUMPI PUSH2 0x1E04 PUSH2 0x1740 JUMP JUMPDEST JUMPDEST PUSH2 0x1E0F DUP3 SLOAD PUSH2 0x1A03 JUMP JUMPDEST PUSH2 0x1E1A DUP3 DUP3 DUP6 PUSH2 0x1BF5 JUMP JUMPDEST PUSH1 0x0 PUSH1 0x20 SWAP1 POP PUSH1 0x1F DUP4 GT PUSH1 0x1 DUP2 EQ PUSH2 0x1E4D JUMPI PUSH1 0x0 DUP5 ISZERO PUSH2 0x1E3B JUMPI DUP3 DUP8 ADD MLOAD SWAP1 POP JUMPDEST PUSH2 0x1E45 DUP6 DUP3 PUSH2 0x1C66 JUMP JUMPDEST DUP7 SSTORE POP PUSH2 0x1EAD JUMP JUMPDEST PUSH1 0x1F NOT DUP5 AND PUSH2 0x1E5B DUP7 PUSH2 0x1AD6 JUMP JUMPDEST PUSH1 0x0 JUMPDEST DUP3 DUP2 LT ISZERO PUSH2 0x1E83 JUMPI DUP5 DUP10 ADD MLOAD DUP3 SSTORE PUSH1 0x1 DUP3 ADD SWAP2 POP PUSH1 0x20 DUP6 ADD SWAP5 POP PUSH1 0x20 DUP2 ADD SWAP1 POP PUSH2 0x1E5E JUMP JUMPDEST DUP7 DUP4 LT ISZERO PUSH2 0x1EA0 JUMPI DUP5 DUP10 ADD MLOAD PUSH2 0x1E9C PUSH1 0x1F DUP10 AND DUP3 PUSH2 0x1C48 JUMP JUMPDEST DUP4 SSTORE POP JUMPDEST PUSH1 0x1 PUSH1 0x2 DUP9 MUL ADD DUP9 SSTORE POP POP POP JUMPDEST POP POP POP POP POP POP JUMP INVALID LOG2 PUSH5 0x6970667358 0x22 SLT KECCAK256 DUP15 CALLCODE JUMPI 0xC4 0xB9 SWAP4 0xE0 CALLDATASIZE PREVRANDAO CALLDATACOPY CODECOPY 0x4A 0x29 0xAC 0xBF 0xF6 DUP16 0xB9 SGT EXP TIMESTAMP MLOAD EQ SSTORE LOG2 SSTORE DIV 0xD2 0xD6 0xF DUP10 PUSH11 0x64736F6C63430008120033 "
				},
				"gasEstimates": {
					"creation": {
						"codeDepositCost": "1583000",
						"executionCost": "25926",
						"totalCost": "1608926"
					},
					"external": {
						"deposit()": "infinite",
						"gameIn()": "infinite",
						"gameIn2()": "infinite",
						"getLengthOfTop4()": "infinite",
						"ownerWithdraw(uint256)": "infinite",
						"ownerWithdrawAll()": "infinite",
						"register(string)": "infinite",
						"search(address)": "infinite",
						"top4(uint256)": "infinite",
						"top4_2(uint256)": "infinite",
						"withdraw(uint256)": "infinite",
						"withdraw_All()": "infinite"
					}
				},
				"methodIdentifiers": {
					"deposit()": "d0e30db0",
					"gameIn()": "90c847be",
					"gameIn2()": "c3c7cd6e",
					"getLengthOfTop4()": "f7958e07",
					"ownerWithdraw(uint256)": "33f707d1",
					"ownerWithdrawAll()": "e0d5af94",
					"register(string)": "f2c298be",
					"search(address)": "657a2512",
					"top4(uint256)": "5df5db77",
					"top4_2(uint256)": "fcddf3c6",
					"withdraw(uint256)": "2e1a7d4d",
					"withdraw_All()": "b9b37224"
				}
			},
			"storageLayout": {
				"storage": [
					{
						"astId": 17,
						"contract": "contracts/230518/0516Test.sol:Q4",
						"label": "userList",
						"offset": 0,
						"slot": "0",
						"type": "t_mapping(t_address,t_struct(User)12_storage)"
					},
					{
						"astId": 19,
						"contract": "contracts/230518/0516Test.sol:Q4",
						"label": "count",
						"offset": 0,
						"slot": "1",
						"type": "t_uint256"
					},
					{
						"astId": 21,
						"contract": "contracts/230518/0516Test.sol:Q4",
						"label": "owner",
						"offset": 0,
						"slot": "2",
						"type": "t_address_payable"
					},
					{
						"astId": 47,
						"contract": "contracts/230518/0516Test.sol:Q4",
						"label": "top4",
						"offset": 0,
						"slot": "3",
						"type": "t_array(t_struct(User)12_storage)dyn_storage"
					},
					{
						"astId": 52,
						"contract": "contracts/230518/0516Test.sol:Q4",
						"label": "top4_2",
						"offset": 0,
						"slot": "4",
						"type": "t_array(t_struct(User)12_storage)4_storage"
					}
				],
				"types": {
					"t_address": {
						"encoding": "inplace",
						"label": "address",
						"numberOfBytes": "20"
					},
					"t_address_payable": {
						"encoding": "inplace",
						"label": "address payable",
						"numberOfBytes": "20"
					},
					"t_array(t_struct(User)12_storage)4_storage": {
						"base": "t_struct(User)12_storage",
						"encoding": "inplace",
						"label": "struct Q4.User[4]",
						"numberOfBytes": "640"
					},
					"t_array(t_struct(User)12_storage)dyn_storage": {
						"base": "t_struct(User)12_storage",
						"encoding": "dynamic_array",
						"label": "struct Q4.User[]",
						"numberOfBytes": "32"
					},
					"t_mapping(t_address,t_struct(User)12_storage)": {
						"encoding": "mapping",
						"key": "t_address",
						"label": "mapping(address => struct Q4.User)",
						"numberOfBytes": "32",
						"value": "t_struct(User)12_storage"
					},
					"t_string_storage": {
						"encoding": "bytes",
						"label": "string",
						"numberOfBytes": "32"
					},
					"t_struct(User)12_storage": {
						"encoding": "inplace",
						"label": "struct Q4.User",
						"members": [
							{
								"astId": 3,
								"contract": "contracts/230518/0516Test.sol:Q4",
								"label": "number",
								"offset": 0,
								"slot": "0",
								"type": "t_uint256"
							},
							{
								"astId": 5,
								"contract": "contracts/230518/0516Test.sol:Q4",
								"label": "name",
								"offset": 0,
								"slot": "1",
								"type": "t_string_storage"
							},
							{
								"astId": 7,
								"contract": "contracts/230518/0516Test.sol:Q4",
								"label": "account",
								"offset": 0,
								"slot": "2",
								"type": "t_address"
							},
							{
								"astId": 9,
								"contract": "contracts/230518/0516Test.sol:Q4",
								"label": "balance",
								"offset": 0,
								"slot": "3",
								"type": "t_uint256"
							},
							{
								"astId": 11,
								"contract": "contracts/230518/0516Test.sol:Q4",
								"label": "score",
								"offset": 0,
								"slot": "4",
								"type": "t_uint256"
							}
						],
						"numberOfBytes": "160"
					},
					"t_uint256": {
						"encoding": "inplace",
						"label": "uint256",
						"numberOfBytes": "32"
					}
				}
			},
			"userdoc": {
				"kind": "user",
				"methods": {},
				"version": 1
			}
		}
	}
}