{
	"contracts/230518/Quiz5Answer.sol": {
		"Quiz5": {
			"abi": [
				{
					"inputs": [
						{
							"internalType": "uint256",
							"name": "_n",
							"type": "uint256"
						}
					],
					"name": "divideNumber",
					"outputs": [
						{
							"internalType": "uint256",
							"name": "",
							"type": "uint256"
						},
						{
							"internalType": "uint256[]",
							"name": "",
							"type": "uint256[]"
						}
					],
					"stateMutability": "pure",
					"type": "function"
				},
				{
					"inputs": [
						{
							"internalType": "uint256",
							"name": "_n",
							"type": "uint256"
						}
					],
					"name": "getLength",
					"outputs": [
						{
							"internalType": "uint256",
							"name": "",
							"type": "uint256"
						}
					],
					"stateMutability": "pure",
					"type": "function"
				},
				{
					"inputs": [
						{
							"internalType": "uint256[]",
							"name": "Array",
							"type": "uint256[]"
						}
					],
					"name": "reverse",
					"outputs": [
						{
							"internalType": "uint256[]",
							"name": "",
							"type": "uint256[]"
						}
					],
					"stateMutability": "pure",
					"type": "function"
				}
			],
			"devdoc": {
				"kind": "dev",
				"methods": {},
				"version": 1
			},
			"evm": {
				"assembly": "    /* \"contracts/230518/Quiz5Answer.sol\":61:855  contract Quiz5 {... */\n  mstore(0x40, 0x80)\n  callvalue\n  dup1\n  iszero\n  tag_1\n  jumpi\n  0x00\n  dup1\n  revert\ntag_1:\n  pop\n  dataSize(sub_0)\n  dup1\n  dataOffset(sub_0)\n  0x00\n  codecopy\n  0x00\n  return\nstop\n\nsub_0: assembly {\n        /* \"contracts/230518/Quiz5Answer.sol\":61:855  contract Quiz5 {... */\n      mstore(0x40, 0x80)\n      callvalue\n      dup1\n      iszero\n      tag_1\n      jumpi\n      0x00\n      dup1\n      revert\n    tag_1:\n      pop\n      jumpi(tag_2, lt(calldatasize, 0x04))\n      shr(0xe0, calldataload(0x00))\n      dup1\n      0x0986e647\n      eq\n      tag_3\n      jumpi\n      dup1\n      0x2ac45d9c\n      eq\n      tag_4\n      jumpi\n      dup1\n      0xa9333cfc\n      eq\n      tag_5\n      jumpi\n    tag_2:\n      0x00\n      dup1\n      revert\n        /* \"contracts/230518/Quiz5Answer.sol\":391:547  function getLength(uint _n) public pure returns(uint) {... */\n    tag_3:\n      tag_6\n      0x04\n      dup1\n      calldatasize\n      sub\n      dup2\n      add\n      swap1\n      tag_7\n      swap2\n      swap1\n      tag_8\n      jump\t// in\n    tag_7:\n      tag_9\n      jump\t// in\n    tag_6:\n      mload(0x40)\n      tag_10\n      swap2\n      swap1\n      tag_11\n      jump\t// in\n    tag_10:\n      mload(0x40)\n      dup1\n      swap2\n      sub\n      swap1\n      return\n        /* \"contracts/230518/Quiz5Answer.sol\":83:383  function divideNumber(uint _n) public pure returns(uint, uint[] memory) {... */\n    tag_4:\n      tag_12\n      0x04\n      dup1\n      calldatasize\n      sub\n      dup2\n      add\n      swap1\n      tag_13\n      swap2\n      swap1\n      tag_8\n      jump\t// in\n    tag_13:\n      tag_14\n      jump\t// in\n    tag_12:\n      mload(0x40)\n      tag_15\n      swap3\n      swap2\n      swap1\n      tag_16\n      jump\t// in\n    tag_15:\n      mload(0x40)\n      dup1\n      swap2\n      sub\n      swap1\n      return\n        /* \"contracts/230518/Quiz5Answer.sol\":555:852  function reverse(uint[] memory Array) public pure returns(uint[] memory) {... */\n    tag_5:\n      tag_17\n      0x04\n      dup1\n      calldatasize\n      sub\n      dup2\n      add\n      swap1\n      tag_18\n      swap2\n      swap1\n      tag_19\n      jump\t// in\n    tag_18:\n      tag_20\n      jump\t// in\n    tag_17:\n      mload(0x40)\n      tag_21\n      swap2\n      swap1\n      tag_22\n      jump\t// in\n    tag_21:\n      mload(0x40)\n      dup1\n      swap2\n      sub\n      swap1\n      return\n        /* \"contracts/230518/Quiz5Answer.sol\":391:547  function getLength(uint _n) public pure returns(uint) {... */\n    tag_9:\n        /* \"contracts/230518/Quiz5Answer.sol\":439:443  uint */\n      0x00\n        /* \"contracts/230518/Quiz5Answer.sol\":456:462  uint a */\n      dup1\n        /* \"contracts/230518/Quiz5Answer.sol\":473:521  while(_n > 10**a) {... */\n    tag_24:\n        /* \"contracts/230518/Quiz5Answer.sol\":488:489  a */\n      dup1\n        /* \"contracts/230518/Quiz5Answer.sol\":484:486  10 */\n      0x0a\n        /* \"contracts/230518/Quiz5Answer.sol\":484:489  10**a */\n      tag_26\n      swap2\n      swap1\n      tag_27\n      jump\t// in\n    tag_26:\n        /* \"contracts/230518/Quiz5Answer.sol\":479:481  _n */\n      dup4\n        /* \"contracts/230518/Quiz5Answer.sol\":479:489  _n > 10**a */\n      gt\n        /* \"contracts/230518/Quiz5Answer.sol\":473:521  while(_n > 10**a) {... */\n      iszero\n      tag_25\n      jumpi\n        /* \"contracts/230518/Quiz5Answer.sol\":506:509  a++ */\n      dup1\n      dup1\n      tag_28\n      swap1\n      tag_29\n      jump\t// in\n    tag_28:\n      swap2\n      pop\n      pop\n        /* \"contracts/230518/Quiz5Answer.sol\":473:521  while(_n > 10**a) {... */\n      jump(tag_24)\n    tag_25:\n        /* \"contracts/230518/Quiz5Answer.sol\":538:539  a */\n      dup1\n        /* \"contracts/230518/Quiz5Answer.sol\":531:539  return a */\n      swap2\n      pop\n      pop\n        /* \"contracts/230518/Quiz5Answer.sol\":391:547  function getLength(uint _n) public pure returns(uint) {... */\n      swap2\n      swap1\n      pop\n      jump\t// out\n        /* \"contracts/230518/Quiz5Answer.sol\":83:383  function divideNumber(uint _n) public pure returns(uint, uint[] memory) {... */\n    tag_14:\n        /* \"contracts/230518/Quiz5Answer.sol\":134:138  uint */\n      0x00\n        /* \"contracts/230518/Quiz5Answer.sol\":140:153  uint[] memory */\n      0x60\n        /* \"contracts/230518/Quiz5Answer.sol\":166:172  uint a */\n      0x00\n        /* \"contracts/230518/Quiz5Answer.sol\":175:188  getLength(_n) */\n      tag_31\n        /* \"contracts/230518/Quiz5Answer.sol\":185:187  _n */\n      dup5\n        /* \"contracts/230518/Quiz5Answer.sol\":175:184  getLength */\n      tag_9\n        /* \"contracts/230518/Quiz5Answer.sol\":175:188  getLength(_n) */\n      jump\t// in\n    tag_31:\n        /* \"contracts/230518/Quiz5Answer.sol\":166:188  uint a = getLength(_n) */\n      swap1\n      pop\n        /* \"contracts/230518/Quiz5Answer.sol\":199:214  uint[] memory b */\n      0x00\n        /* \"contracts/230518/Quiz5Answer.sol\":228:229  a */\n      dup2\n        /* \"contracts/230518/Quiz5Answer.sol\":217:230  new uint[](a) */\n      0xffffffffffffffff\n      dup2\n      gt\n      iszero\n      tag_32\n      jumpi\n      tag_33\n      tag_34\n      jump\t// in\n    tag_33:\n    tag_32:\n      mload(0x40)\n      swap1\n      dup1\n      dup3\n      mstore\n      dup1\n      0x20\n      mul\n      0x20\n      add\n      dup3\n      add\n      0x40\n      mstore\n      dup1\n      iszero\n      tag_35\n      jumpi\n      dup2\n      0x20\n      add\n      0x20\n      dup3\n      mul\n      dup1\n      calldatasize\n      dup4\n      calldatacopy\n      dup1\n      dup3\n      add\n      swap2\n      pop\n      pop\n      swap1\n      pop\n    tag_35:\n      pop\n        /* \"contracts/230518/Quiz5Answer.sol\":199:230  uint[] memory b = new uint[](a) */\n      swap1\n      pop\n        /* \"contracts/230518/Quiz5Answer.sol\":243:249  uint i */\n      0x00\n        /* \"contracts/230518/Quiz5Answer.sol\":252:253  a */\n      dup3\n        /* \"contracts/230518/Quiz5Answer.sol\":243:253  uint i = a */\n      swap1\n      pop\n        /* \"contracts/230518/Quiz5Answer.sol\":264:343  while(_n != 0) {... */\n    tag_36:\n        /* \"contracts/230518/Quiz5Answer.sol\":276:277  0 */\n      0x00\n        /* \"contracts/230518/Quiz5Answer.sol\":270:272  _n */\n      dup7\n        /* \"contracts/230518/Quiz5Answer.sol\":270:277  _n != 0 */\n      eq\n        /* \"contracts/230518/Quiz5Answer.sol\":264:343  while(_n != 0) {... */\n      tag_37\n      jumpi\n        /* \"contracts/230518/Quiz5Answer.sol\":306:308  10 */\n      0x0a\n        /* \"contracts/230518/Quiz5Answer.sol\":303:305  _n */\n      dup7\n        /* \"contracts/230518/Quiz5Answer.sol\":303:308  _n%10 */\n      tag_38\n      swap2\n      swap1\n      tag_39\n      jump\t// in\n    tag_38:\n        /* \"contracts/230518/Quiz5Answer.sol\":294:295  b */\n      dup3\n        /* \"contracts/230518/Quiz5Answer.sol\":296:299  --i */\n      dup3\n      tag_40\n      swap1\n      tag_41\n      jump\t// in\n    tag_40:\n      swap3\n      pop\n      dup3\n        /* \"contracts/230518/Quiz5Answer.sol\":294:300  b[--i] */\n      dup2\n      mload\n      dup2\n      lt\n      tag_42\n      jumpi\n      tag_43\n      tag_44\n      jump\t// in\n    tag_43:\n    tag_42:\n      0x20\n      mul\n      0x20\n      add\n      add\n        /* \"contracts/230518/Quiz5Answer.sol\":294:308  b[--i] = _n%10 */\n      dup2\n      dup2\n      mstore\n      pop\n      pop\n        /* \"contracts/230518/Quiz5Answer.sol\":329:331  10 */\n      0x0a\n        /* \"contracts/230518/Quiz5Answer.sol\":323:331  _n /= 10 */\n      dup7\n      tag_45\n      swap2\n      swap1\n      tag_46\n      jump\t// in\n    tag_45:\n      swap6\n      pop\n        /* \"contracts/230518/Quiz5Answer.sol\":264:343  while(_n != 0) {... */\n      jump(tag_36)\n    tag_37:\n        /* \"contracts/230518/Quiz5Answer.sol\":363:364  b */\n      dup2\n        /* \"contracts/230518/Quiz5Answer.sol\":363:371  b.length */\n      mload\n        /* \"contracts/230518/Quiz5Answer.sol\":373:374  b */\n      dup3\n        /* \"contracts/230518/Quiz5Answer.sol\":355:375  return (b.length, b) */\n      swap5\n      pop\n      swap5\n      pop\n      pop\n      pop\n      pop\n        /* \"contracts/230518/Quiz5Answer.sol\":83:383  function divideNumber(uint _n) public pure returns(uint, uint[] memory) {... */\n      swap2\n      pop\n      swap2\n      jump\t// out\n        /* \"contracts/230518/Quiz5Answer.sol\":555:852  function reverse(uint[] memory Array) public pure returns(uint[] memory) {... */\n    tag_20:\n        /* \"contracts/230518/Quiz5Answer.sol\":613:626  uint[] memory */\n      0x60\n        /* \"contracts/230518/Quiz5Answer.sol\":639:665  uint[] memory reverseArray */\n      0x00\n        /* \"contracts/230518/Quiz5Answer.sol\":679:684  Array */\n      dup3\n        /* \"contracts/230518/Quiz5Answer.sol\":679:691  Array.length */\n      mload\n        /* \"contracts/230518/Quiz5Answer.sol\":668:692  new uint[](Array.length) */\n      0xffffffffffffffff\n      dup2\n      gt\n      iszero\n      tag_48\n      jumpi\n      tag_49\n      tag_34\n      jump\t// in\n    tag_49:\n    tag_48:\n      mload(0x40)\n      swap1\n      dup1\n      dup3\n      mstore\n      dup1\n      0x20\n      mul\n      0x20\n      add\n      dup3\n      add\n      0x40\n      mstore\n      dup1\n      iszero\n      tag_50\n      jumpi\n      dup2\n      0x20\n      add\n      0x20\n      dup3\n      mul\n      dup1\n      calldatasize\n      dup4\n      calldatacopy\n      dup1\n      dup3\n      add\n      swap2\n      pop\n      pop\n      swap1\n      pop\n    tag_50:\n      pop\n        /* \"contracts/230518/Quiz5Answer.sol\":639:692  uint[] memory reverseArray = new uint[](Array.length) */\n      swap1\n      pop\n        /* \"contracts/230518/Quiz5Answer.sol\":707:713  uint i */\n      0x00\n        /* \"contracts/230518/Quiz5Answer.sol\":703:813  for(uint i = 0; i < Array.length; i++) {... */\n    tag_51:\n        /* \"contracts/230518/Quiz5Answer.sol\":723:728  Array */\n      dup4\n        /* \"contracts/230518/Quiz5Answer.sol\":723:735  Array.length */\n      mload\n        /* \"contracts/230518/Quiz5Answer.sol\":719:720  i */\n      dup2\n        /* \"contracts/230518/Quiz5Answer.sol\":719:735  i < Array.length */\n      lt\n        /* \"contracts/230518/Quiz5Answer.sol\":703:813  for(uint i = 0; i < Array.length; i++) {... */\n      iszero\n      tag_52\n      jumpi\n        /* \"contracts/230518/Quiz5Answer.sol\":775:780  Array */\n      dup4\n        /* \"contracts/230518/Quiz5Answer.sol\":799:800  1 */\n      0x01\n        /* \"contracts/230518/Quiz5Answer.sol\":796:797  i */\n      dup3\n        /* \"contracts/230518/Quiz5Answer.sol\":781:786  Array */\n      dup7\n        /* \"contracts/230518/Quiz5Answer.sol\":781:793  Array.length */\n      mload\n        /* \"contracts/230518/Quiz5Answer.sol\":781:797  Array.length - i */\n      tag_54\n      swap2\n      swap1\n      tag_55\n      jump\t// in\n    tag_54:\n        /* \"contracts/230518/Quiz5Answer.sol\":781:800  Array.length - i -1 */\n      tag_56\n      swap2\n      swap1\n      tag_55\n      jump\t// in\n    tag_56:\n        /* \"contracts/230518/Quiz5Answer.sol\":775:801  Array[Array.length - i -1] */\n      dup2\n      mload\n      dup2\n      lt\n      tag_57\n      jumpi\n      tag_58\n      tag_44\n      jump\t// in\n    tag_58:\n    tag_57:\n      0x20\n      mul\n      0x20\n      add\n      add\n      mload\n        /* \"contracts/230518/Quiz5Answer.sol\":757:769  reverseArray */\n      dup3\n        /* \"contracts/230518/Quiz5Answer.sol\":770:771  i */\n      dup3\n        /* \"contracts/230518/Quiz5Answer.sol\":757:772  reverseArray[i] */\n      dup2\n      mload\n      dup2\n      lt\n      tag_59\n      jumpi\n      tag_60\n      tag_44\n      jump\t// in\n    tag_60:\n    tag_59:\n      0x20\n      mul\n      0x20\n      add\n      add\n        /* \"contracts/230518/Quiz5Answer.sol\":757:801  reverseArray[i] = Array[Array.length - i -1] */\n      dup2\n      dup2\n      mstore\n      pop\n      pop\n        /* \"contracts/230518/Quiz5Answer.sol\":737:740  i++ */\n      dup1\n      dup1\n      tag_61\n      swap1\n      tag_29\n      jump\t// in\n    tag_61:\n      swap2\n      pop\n      pop\n        /* \"contracts/230518/Quiz5Answer.sol\":703:813  for(uint i = 0; i < Array.length; i++) {... */\n      jump(tag_51)\n    tag_52:\n      pop\n        /* \"contracts/230518/Quiz5Answer.sol\":832:844  reverseArray */\n      dup1\n        /* \"contracts/230518/Quiz5Answer.sol\":825:844  return reverseArray */\n      swap2\n      pop\n      pop\n        /* \"contracts/230518/Quiz5Answer.sol\":555:852  function reverse(uint[] memory Array) public pure returns(uint[] memory) {... */\n      swap2\n      swap1\n      pop\n      jump\t// out\n        /* \"#utility.yul\":7:82   */\n    tag_62:\n        /* \"#utility.yul\":40:46   */\n      0x00\n        /* \"#utility.yul\":73:75   */\n      0x40\n        /* \"#utility.yul\":67:76   */\n      mload\n        /* \"#utility.yul\":57:76   */\n      swap1\n      pop\n        /* \"#utility.yul\":7:82   */\n      swap1\n      jump\t// out\n        /* \"#utility.yul\":88:205   */\n    tag_63:\n        /* \"#utility.yul\":197:198   */\n      0x00\n        /* \"#utility.yul\":194:195   */\n      dup1\n        /* \"#utility.yul\":187:199   */\n      revert\n        /* \"#utility.yul\":211:328   */\n    tag_64:\n        /* \"#utility.yul\":320:321   */\n      0x00\n        /* \"#utility.yul\":317:318   */\n      dup1\n        /* \"#utility.yul\":310:322   */\n      revert\n        /* \"#utility.yul\":334:411   */\n    tag_65:\n        /* \"#utility.yul\":371:378   */\n      0x00\n        /* \"#utility.yul\":400:405   */\n      dup2\n        /* \"#utility.yul\":389:405   */\n      swap1\n      pop\n        /* \"#utility.yul\":334:411   */\n      swap2\n      swap1\n      pop\n      jump\t// out\n        /* \"#utility.yul\":417:539   */\n    tag_66:\n        /* \"#utility.yul\":490:514   */\n      tag_95\n        /* \"#utility.yul\":508:513   */\n      dup2\n        /* \"#utility.yul\":490:514   */\n      tag_65\n      jump\t// in\n    tag_95:\n        /* \"#utility.yul\":483:488   */\n      dup2\n        /* \"#utility.yul\":480:515   */\n      eq\n        /* \"#utility.yul\":470:533   */\n      tag_96\n      jumpi\n        /* \"#utility.yul\":529:530   */\n      0x00\n        /* \"#utility.yul\":526:527   */\n      dup1\n        /* \"#utility.yul\":519:531   */\n      revert\n        /* \"#utility.yul\":470:533   */\n    tag_96:\n        /* \"#utility.yul\":417:539   */\n      pop\n      jump\t// out\n        /* \"#utility.yul\":545:684   */\n    tag_67:\n        /* \"#utility.yul\":591:596   */\n      0x00\n        /* \"#utility.yul\":629:635   */\n      dup2\n        /* \"#utility.yul\":616:636   */\n      calldataload\n        /* \"#utility.yul\":607:636   */\n      swap1\n      pop\n        /* \"#utility.yul\":645:678   */\n      tag_98\n        /* \"#utility.yul\":672:677   */\n      dup2\n        /* \"#utility.yul\":645:678   */\n      tag_66\n      jump\t// in\n    tag_98:\n        /* \"#utility.yul\":545:684   */\n      swap3\n      swap2\n      pop\n      pop\n      jump\t// out\n        /* \"#utility.yul\":690:1019   */\n    tag_8:\n        /* \"#utility.yul\":749:755   */\n      0x00\n        /* \"#utility.yul\":798:800   */\n      0x20\n        /* \"#utility.yul\":786:795   */\n      dup3\n        /* \"#utility.yul\":777:784   */\n      dup5\n        /* \"#utility.yul\":773:796   */\n      sub\n        /* \"#utility.yul\":769:801   */\n      slt\n        /* \"#utility.yul\":766:885   */\n      iszero\n      tag_100\n      jumpi\n        /* \"#utility.yul\":804:883   */\n      tag_101\n      tag_63\n      jump\t// in\n    tag_101:\n        /* \"#utility.yul\":766:885   */\n    tag_100:\n        /* \"#utility.yul\":924:925   */\n      0x00\n        /* \"#utility.yul\":949:1002   */\n      tag_102\n        /* \"#utility.yul\":994:1001   */\n      dup5\n        /* \"#utility.yul\":985:991   */\n      dup3\n        /* \"#utility.yul\":974:983   */\n      dup6\n        /* \"#utility.yul\":970:992   */\n      add\n        /* \"#utility.yul\":949:1002   */\n      tag_67\n      jump\t// in\n    tag_102:\n        /* \"#utility.yul\":939:1002   */\n      swap2\n      pop\n        /* \"#utility.yul\":895:1012   */\n      pop\n        /* \"#utility.yul\":690:1019   */\n      swap3\n      swap2\n      pop\n      pop\n      jump\t// out\n        /* \"#utility.yul\":1025:1143   */\n    tag_68:\n        /* \"#utility.yul\":1112:1136   */\n      tag_104\n        /* \"#utility.yul\":1130:1135   */\n      dup2\n        /* \"#utility.yul\":1112:1136   */\n      tag_65\n      jump\t// in\n    tag_104:\n        /* \"#utility.yul\":1107:1110   */\n      dup3\n        /* \"#utility.yul\":1100:1137   */\n      mstore\n        /* \"#utility.yul\":1025:1143   */\n      pop\n      pop\n      jump\t// out\n        /* \"#utility.yul\":1149:1371   */\n    tag_11:\n        /* \"#utility.yul\":1242:1246   */\n      0x00\n        /* \"#utility.yul\":1280:1282   */\n      0x20\n        /* \"#utility.yul\":1269:1278   */\n      dup3\n        /* \"#utility.yul\":1265:1283   */\n      add\n        /* \"#utility.yul\":1257:1283   */\n      swap1\n      pop\n        /* \"#utility.yul\":1293:1364   */\n      tag_106\n        /* \"#utility.yul\":1361:1362   */\n      0x00\n        /* \"#utility.yul\":1350:1359   */\n      dup4\n        /* \"#utility.yul\":1346:1363   */\n      add\n        /* \"#utility.yul\":1337:1343   */\n      dup5\n        /* \"#utility.yul\":1293:1364   */\n      tag_68\n      jump\t// in\n    tag_106:\n        /* \"#utility.yul\":1149:1371   */\n      swap3\n      swap2\n      pop\n      pop\n      jump\t// out\n        /* \"#utility.yul\":1377:1491   */\n    tag_69:\n        /* \"#utility.yul\":1444:1450   */\n      0x00\n        /* \"#utility.yul\":1478:1483   */\n      dup2\n        /* \"#utility.yul\":1472:1484   */\n      mload\n        /* \"#utility.yul\":1462:1484   */\n      swap1\n      pop\n        /* \"#utility.yul\":1377:1491   */\n      swap2\n      swap1\n      pop\n      jump\t// out\n        /* \"#utility.yul\":1497:1681   */\n    tag_70:\n        /* \"#utility.yul\":1596:1607   */\n      0x00\n        /* \"#utility.yul\":1630:1636   */\n      dup3\n        /* \"#utility.yul\":1625:1628   */\n      dup3\n        /* \"#utility.yul\":1618:1637   */\n      mstore\n        /* \"#utility.yul\":1670:1674   */\n      0x20\n        /* \"#utility.yul\":1665:1668   */\n      dup3\n        /* \"#utility.yul\":1661:1675   */\n      add\n        /* \"#utility.yul\":1646:1675   */\n      swap1\n      pop\n        /* \"#utility.yul\":1497:1681   */\n      swap3\n      swap2\n      pop\n      pop\n      jump\t// out\n        /* \"#utility.yul\":1687:1819   */\n    tag_71:\n        /* \"#utility.yul\":1754:1758   */\n      0x00\n        /* \"#utility.yul\":1777:1780   */\n      dup2\n        /* \"#utility.yul\":1769:1780   */\n      swap1\n      pop\n        /* \"#utility.yul\":1807:1811   */\n      0x20\n        /* \"#utility.yul\":1802:1805   */\n      dup3\n        /* \"#utility.yul\":1798:1812   */\n      add\n        /* \"#utility.yul\":1790:1812   */\n      swap1\n      pop\n        /* \"#utility.yul\":1687:1819   */\n      swap2\n      swap1\n      pop\n      jump\t// out\n        /* \"#utility.yul\":1825:1933   */\n    tag_72:\n        /* \"#utility.yul\":1902:1926   */\n      tag_111\n        /* \"#utility.yul\":1920:1925   */\n      dup2\n        /* \"#utility.yul\":1902:1926   */\n      tag_65\n      jump\t// in\n    tag_111:\n        /* \"#utility.yul\":1897:1900   */\n      dup3\n        /* \"#utility.yul\":1890:1927   */\n      mstore\n        /* \"#utility.yul\":1825:1933   */\n      pop\n      pop\n      jump\t// out\n        /* \"#utility.yul\":1939:2118   */\n    tag_73:\n        /* \"#utility.yul\":2008:2018   */\n      0x00\n        /* \"#utility.yul\":2029:2075   */\n      tag_113\n        /* \"#utility.yul\":2071:2074   */\n      dup4\n        /* \"#utility.yul\":2063:2069   */\n      dup4\n        /* \"#utility.yul\":2029:2075   */\n      tag_72\n      jump\t// in\n    tag_113:\n        /* \"#utility.yul\":2107:2111   */\n      0x20\n        /* \"#utility.yul\":2102:2105   */\n      dup4\n        /* \"#utility.yul\":2098:2112   */\n      add\n        /* \"#utility.yul\":2084:2112   */\n      swap1\n      pop\n        /* \"#utility.yul\":1939:2118   */\n      swap3\n      swap2\n      pop\n      pop\n      jump\t// out\n        /* \"#utility.yul\":2124:2237   */\n    tag_74:\n        /* \"#utility.yul\":2194:2198   */\n      0x00\n        /* \"#utility.yul\":2226:2230   */\n      0x20\n        /* \"#utility.yul\":2221:2224   */\n      dup3\n        /* \"#utility.yul\":2217:2231   */\n      add\n        /* \"#utility.yul\":2209:2231   */\n      swap1\n      pop\n        /* \"#utility.yul\":2124:2237   */\n      swap2\n      swap1\n      pop\n      jump\t// out\n        /* \"#utility.yul\":2273:3005   */\n    tag_75:\n        /* \"#utility.yul\":2392:2395   */\n      0x00\n        /* \"#utility.yul\":2421:2475   */\n      tag_116\n        /* \"#utility.yul\":2469:2474   */\n      dup3\n        /* \"#utility.yul\":2421:2475   */\n      tag_69\n      jump\t// in\n    tag_116:\n        /* \"#utility.yul\":2491:2577   */\n      tag_117\n        /* \"#utility.yul\":2570:2576   */\n      dup2\n        /* \"#utility.yul\":2565:2568   */\n      dup6\n        /* \"#utility.yul\":2491:2577   */\n      tag_70\n      jump\t// in\n    tag_117:\n        /* \"#utility.yul\":2484:2577   */\n      swap4\n      pop\n        /* \"#utility.yul\":2601:2657   */\n      tag_118\n        /* \"#utility.yul\":2651:2656   */\n      dup4\n        /* \"#utility.yul\":2601:2657   */\n      tag_71\n      jump\t// in\n    tag_118:\n        /* \"#utility.yul\":2680:2687   */\n      dup1\n        /* \"#utility.yul\":2711:2712   */\n      0x00\n        /* \"#utility.yul\":2696:2980   */\n    tag_119:\n        /* \"#utility.yul\":2721:2727   */\n      dup4\n        /* \"#utility.yul\":2718:2719   */\n      dup2\n        /* \"#utility.yul\":2715:2728   */\n      lt\n        /* \"#utility.yul\":2696:2980   */\n      iszero\n      tag_121\n      jumpi\n        /* \"#utility.yul\":2797:2803   */\n      dup2\n        /* \"#utility.yul\":2791:2804   */\n      mload\n        /* \"#utility.yul\":2824:2887   */\n      tag_122\n        /* \"#utility.yul\":2883:2886   */\n      dup9\n        /* \"#utility.yul\":2868:2881   */\n      dup3\n        /* \"#utility.yul\":2824:2887   */\n      tag_73\n      jump\t// in\n    tag_122:\n        /* \"#utility.yul\":2817:2887   */\n      swap8\n      pop\n        /* \"#utility.yul\":2910:2970   */\n      tag_123\n        /* \"#utility.yul\":2963:2969   */\n      dup4\n        /* \"#utility.yul\":2910:2970   */\n      tag_74\n      jump\t// in\n    tag_123:\n        /* \"#utility.yul\":2900:2970   */\n      swap3\n      pop\n        /* \"#utility.yul\":2756:2980   */\n      pop\n        /* \"#utility.yul\":2743:2744   */\n      0x01\n        /* \"#utility.yul\":2740:2741   */\n      dup2\n        /* \"#utility.yul\":2736:2745   */\n      add\n        /* \"#utility.yul\":2731:2745   */\n      swap1\n      pop\n        /* \"#utility.yul\":2696:2980   */\n      jump(tag_119)\n    tag_121:\n        /* \"#utility.yul\":2700:2714   */\n      pop\n        /* \"#utility.yul\":2996:2999   */\n      dup6\n        /* \"#utility.yul\":2989:2999   */\n      swap4\n      pop\n        /* \"#utility.yul\":2397:3005   */\n      pop\n      pop\n      pop\n        /* \"#utility.yul\":2273:3005   */\n      swap3\n      swap2\n      pop\n      pop\n      jump\t// out\n        /* \"#utility.yul\":3011:3494   */\n    tag_16:\n        /* \"#utility.yul\":3182:3186   */\n      0x00\n        /* \"#utility.yul\":3220:3222   */\n      0x40\n        /* \"#utility.yul\":3209:3218   */\n      dup3\n        /* \"#utility.yul\":3205:3223   */\n      add\n        /* \"#utility.yul\":3197:3223   */\n      swap1\n      pop\n        /* \"#utility.yul\":3233:3304   */\n      tag_125\n        /* \"#utility.yul\":3301:3302   */\n      0x00\n        /* \"#utility.yul\":3290:3299   */\n      dup4\n        /* \"#utility.yul\":3286:3303   */\n      add\n        /* \"#utility.yul\":3277:3283   */\n      dup6\n        /* \"#utility.yul\":3233:3304   */\n      tag_68\n      jump\t// in\n    tag_125:\n        /* \"#utility.yul\":3351:3360   */\n      dup2\n        /* \"#utility.yul\":3345:3349   */\n      dup2\n        /* \"#utility.yul\":3341:3361   */\n      sub\n        /* \"#utility.yul\":3336:3338   */\n      0x20\n        /* \"#utility.yul\":3325:3334   */\n      dup4\n        /* \"#utility.yul\":3321:3339   */\n      add\n        /* \"#utility.yul\":3314:3362   */\n      mstore\n        /* \"#utility.yul\":3379:3487   */\n      tag_126\n        /* \"#utility.yul\":3482:3486   */\n      dup2\n        /* \"#utility.yul\":3473:3479   */\n      dup5\n        /* \"#utility.yul\":3379:3487   */\n      tag_75\n      jump\t// in\n    tag_126:\n        /* \"#utility.yul\":3371:3487   */\n      swap1\n      pop\n        /* \"#utility.yul\":3011:3494   */\n      swap4\n      swap3\n      pop\n      pop\n      pop\n      jump\t// out\n        /* \"#utility.yul\":3500:3617   */\n    tag_76:\n        /* \"#utility.yul\":3609:3610   */\n      0x00\n        /* \"#utility.yul\":3606:3607   */\n      dup1\n        /* \"#utility.yul\":3599:3611   */\n      revert\n        /* \"#utility.yul\":3623:3725   */\n    tag_77:\n        /* \"#utility.yul\":3664:3670   */\n      0x00\n        /* \"#utility.yul\":3715:3717   */\n      0x1f\n        /* \"#utility.yul\":3711:3718   */\n      not\n        /* \"#utility.yul\":3706:3708   */\n      0x1f\n        /* \"#utility.yul\":3699:3704   */\n      dup4\n        /* \"#utility.yul\":3695:3709   */\n      add\n        /* \"#utility.yul\":3691:3719   */\n      and\n        /* \"#utility.yul\":3681:3719   */\n      swap1\n      pop\n        /* \"#utility.yul\":3623:3725   */\n      swap2\n      swap1\n      pop\n      jump\t// out\n        /* \"#utility.yul\":3731:3911   */\n    tag_34:\n        /* \"#utility.yul\":3779:3856   */\n      0x4e487b7100000000000000000000000000000000000000000000000000000000\n        /* \"#utility.yul\":3776:3777   */\n      0x00\n        /* \"#utility.yul\":3769:3857   */\n      mstore\n        /* \"#utility.yul\":3876:3880   */\n      0x41\n        /* \"#utility.yul\":3873:3874   */\n      0x04\n        /* \"#utility.yul\":3866:3881   */\n      mstore\n        /* \"#utility.yul\":3900:3904   */\n      0x24\n        /* \"#utility.yul\":3897:3898   */\n      0x00\n        /* \"#utility.yul\":3890:3905   */\n      revert\n        /* \"#utility.yul\":3917:4198   */\n    tag_78:\n        /* \"#utility.yul\":4000:4027   */\n      tag_131\n        /* \"#utility.yul\":4022:4026   */\n      dup3\n        /* \"#utility.yul\":4000:4027   */\n      tag_77\n      jump\t// in\n    tag_131:\n        /* \"#utility.yul\":3992:3998   */\n      dup2\n        /* \"#utility.yul\":3988:4028   */\n      add\n        /* \"#utility.yul\":4130:4136   */\n      dup2\n        /* \"#utility.yul\":4118:4128   */\n      dup2\n        /* \"#utility.yul\":4115:4137   */\n      lt\n        /* \"#utility.yul\":4094:4112   */\n      0xffffffffffffffff\n        /* \"#utility.yul\":4082:4092   */\n      dup3\n        /* \"#utility.yul\":4079:4113   */\n      gt\n        /* \"#utility.yul\":4076:4138   */\n      or\n        /* \"#utility.yul\":4073:4161   */\n      iszero\n      tag_132\n      jumpi\n        /* \"#utility.yul\":4141:4159   */\n      tag_133\n      tag_34\n      jump\t// in\n    tag_133:\n        /* \"#utility.yul\":4073:4161   */\n    tag_132:\n        /* \"#utility.yul\":4181:4191   */\n      dup1\n        /* \"#utility.yul\":4177:4179   */\n      0x40\n        /* \"#utility.yul\":4170:4192   */\n      mstore\n        /* \"#utility.yul\":3960:4198   */\n      pop\n        /* \"#utility.yul\":3917:4198   */\n      pop\n      pop\n      jump\t// out\n        /* \"#utility.yul\":4204:4333   */\n    tag_79:\n        /* \"#utility.yul\":4238:4244   */\n      0x00\n        /* \"#utility.yul\":4265:4285   */\n      tag_135\n      tag_62\n      jump\t// in\n    tag_135:\n        /* \"#utility.yul\":4255:4285   */\n      swap1\n      pop\n        /* \"#utility.yul\":4294:4327   */\n      tag_136\n        /* \"#utility.yul\":4322:4326   */\n      dup3\n        /* \"#utility.yul\":4314:4320   */\n      dup3\n        /* \"#utility.yul\":4294:4327   */\n      tag_78\n      jump\t// in\n    tag_136:\n        /* \"#utility.yul\":4204:4333   */\n      swap2\n      swap1\n      pop\n      jump\t// out\n        /* \"#utility.yul\":4339:4650   */\n    tag_80:\n        /* \"#utility.yul\":4416:4420   */\n      0x00\n        /* \"#utility.yul\":4506:4524   */\n      0xffffffffffffffff\n        /* \"#utility.yul\":4498:4504   */\n      dup3\n        /* \"#utility.yul\":4495:4525   */\n      gt\n        /* \"#utility.yul\":4492:4548   */\n      iszero\n      tag_138\n      jumpi\n        /* \"#utility.yul\":4528:4546   */\n      tag_139\n      tag_34\n      jump\t// in\n    tag_139:\n        /* \"#utility.yul\":4492:4548   */\n    tag_138:\n        /* \"#utility.yul\":4578:4582   */\n      0x20\n        /* \"#utility.yul\":4570:4576   */\n      dup3\n        /* \"#utility.yul\":4566:4583   */\n      mul\n        /* \"#utility.yul\":4558:4583   */\n      swap1\n      pop\n        /* \"#utility.yul\":4638:4642   */\n      0x20\n        /* \"#utility.yul\":4632:4636   */\n      dup2\n        /* \"#utility.yul\":4628:4643   */\n      add\n        /* \"#utility.yul\":4620:4643   */\n      swap1\n      pop\n        /* \"#utility.yul\":4339:4650   */\n      swap2\n      swap1\n      pop\n      jump\t// out\n        /* \"#utility.yul\":4656:4773   */\n    tag_81:\n        /* \"#utility.yul\":4765:4766   */\n      0x00\n        /* \"#utility.yul\":4762:4763   */\n      dup1\n        /* \"#utility.yul\":4755:4767   */\n      revert\n        /* \"#utility.yul\":4796:5506   */\n    tag_82:\n        /* \"#utility.yul\":4892:4897   */\n      0x00\n        /* \"#utility.yul\":4917:4998   */\n      tag_142\n        /* \"#utility.yul\":4933:4997   */\n      tag_143\n        /* \"#utility.yul\":4990:4996   */\n      dup5\n        /* \"#utility.yul\":4933:4997   */\n      tag_80\n      jump\t// in\n    tag_143:\n        /* \"#utility.yul\":4917:4998   */\n      tag_79\n      jump\t// in\n    tag_142:\n        /* \"#utility.yul\":4908:4998   */\n      swap1\n      pop\n        /* \"#utility.yul\":5018:5023   */\n      dup1\n        /* \"#utility.yul\":5047:5053   */\n      dup4\n        /* \"#utility.yul\":5040:5045   */\n      dup3\n        /* \"#utility.yul\":5033:5054   */\n      mstore\n        /* \"#utility.yul\":5081:5085   */\n      0x20\n        /* \"#utility.yul\":5074:5079   */\n      dup3\n        /* \"#utility.yul\":5070:5086   */\n      add\n        /* \"#utility.yul\":5063:5086   */\n      swap1\n      pop\n        /* \"#utility.yul\":5134:5138   */\n      0x20\n        /* \"#utility.yul\":5126:5132   */\n      dup5\n        /* \"#utility.yul\":5122:5139   */\n      mul\n        /* \"#utility.yul\":5114:5120   */\n      dup4\n        /* \"#utility.yul\":5110:5140   */\n      add\n        /* \"#utility.yul\":5163:5166   */\n      dup6\n        /* \"#utility.yul\":5155:5161   */\n      dup2\n        /* \"#utility.yul\":5152:5167   */\n      gt\n        /* \"#utility.yul\":5149:5271   */\n      iszero\n      tag_144\n      jumpi\n        /* \"#utility.yul\":5182:5261   */\n      tag_145\n      tag_81\n      jump\t// in\n    tag_145:\n        /* \"#utility.yul\":5149:5271   */\n    tag_144:\n        /* \"#utility.yul\":5297:5303   */\n      dup4\n        /* \"#utility.yul\":5280:5500   */\n    tag_146:\n        /* \"#utility.yul\":5314:5320   */\n      dup2\n        /* \"#utility.yul\":5309:5312   */\n      dup2\n        /* \"#utility.yul\":5306:5321   */\n      lt\n        /* \"#utility.yul\":5280:5500   */\n      iszero\n      tag_148\n      jumpi\n        /* \"#utility.yul\":5389:5392   */\n      dup1\n        /* \"#utility.yul\":5418:5455   */\n      tag_149\n        /* \"#utility.yul\":5451:5454   */\n      dup9\n        /* \"#utility.yul\":5439:5449   */\n      dup3\n        /* \"#utility.yul\":5418:5455   */\n      tag_67\n      jump\t// in\n    tag_149:\n        /* \"#utility.yul\":5413:5416   */\n      dup5\n        /* \"#utility.yul\":5406:5456   */\n      mstore\n        /* \"#utility.yul\":5485:5489   */\n      0x20\n        /* \"#utility.yul\":5480:5483   */\n      dup5\n        /* \"#utility.yul\":5476:5490   */\n      add\n        /* \"#utility.yul\":5469:5490   */\n      swap4\n      pop\n        /* \"#utility.yul\":5356:5500   */\n      pop\n        /* \"#utility.yul\":5340:5344   */\n      0x20\n        /* \"#utility.yul\":5335:5338   */\n      dup2\n        /* \"#utility.yul\":5331:5345   */\n      add\n        /* \"#utility.yul\":5324:5345   */\n      swap1\n      pop\n        /* \"#utility.yul\":5280:5500   */\n      jump(tag_146)\n    tag_148:\n        /* \"#utility.yul\":5284:5305   */\n      pop\n        /* \"#utility.yul\":4898:5506   */\n      pop\n      pop\n        /* \"#utility.yul\":4796:5506   */\n      swap4\n      swap3\n      pop\n      pop\n      pop\n      jump\t// out\n        /* \"#utility.yul\":5529:5899   */\n    tag_83:\n        /* \"#utility.yul\":5600:5605   */\n      0x00\n        /* \"#utility.yul\":5649:5652   */\n      dup3\n        /* \"#utility.yul\":5642:5646   */\n      0x1f\n        /* \"#utility.yul\":5634:5640   */\n      dup4\n        /* \"#utility.yul\":5630:5647   */\n      add\n        /* \"#utility.yul\":5626:5653   */\n      slt\n        /* \"#utility.yul\":5616:5738   */\n      tag_151\n      jumpi\n        /* \"#utility.yul\":5657:5736   */\n      tag_152\n      tag_76\n      jump\t// in\n    tag_152:\n        /* \"#utility.yul\":5616:5738   */\n    tag_151:\n        /* \"#utility.yul\":5774:5780   */\n      dup2\n        /* \"#utility.yul\":5761:5781   */\n      calldataload\n        /* \"#utility.yul\":5799:5893   */\n      tag_153\n        /* \"#utility.yul\":5889:5892   */\n      dup5\n        /* \"#utility.yul\":5881:5887   */\n      dup3\n        /* \"#utility.yul\":5874:5878   */\n      0x20\n        /* \"#utility.yul\":5866:5872   */\n      dup7\n        /* \"#utility.yul\":5862:5879   */\n      add\n        /* \"#utility.yul\":5799:5893   */\n      tag_82\n      jump\t// in\n    tag_153:\n        /* \"#utility.yul\":5790:5893   */\n      swap2\n      pop\n        /* \"#utility.yul\":5606:5899   */\n      pop\n        /* \"#utility.yul\":5529:5899   */\n      swap3\n      swap2\n      pop\n      pop\n      jump\t// out\n        /* \"#utility.yul\":5905:6444   */\n    tag_19:\n        /* \"#utility.yul\":5989:5995   */\n      0x00\n        /* \"#utility.yul\":6038:6040   */\n      0x20\n        /* \"#utility.yul\":6026:6035   */\n      dup3\n        /* \"#utility.yul\":6017:6024   */\n      dup5\n        /* \"#utility.yul\":6013:6036   */\n      sub\n        /* \"#utility.yul\":6009:6041   */\n      slt\n        /* \"#utility.yul\":6006:6125   */\n      iszero\n      tag_155\n      jumpi\n        /* \"#utility.yul\":6044:6123   */\n      tag_156\n      tag_63\n      jump\t// in\n    tag_156:\n        /* \"#utility.yul\":6006:6125   */\n    tag_155:\n        /* \"#utility.yul\":6192:6193   */\n      0x00\n        /* \"#utility.yul\":6181:6190   */\n      dup3\n        /* \"#utility.yul\":6177:6194   */\n      add\n        /* \"#utility.yul\":6164:6195   */\n      calldataload\n        /* \"#utility.yul\":6222:6240   */\n      0xffffffffffffffff\n        /* \"#utility.yul\":6214:6220   */\n      dup2\n        /* \"#utility.yul\":6211:6241   */\n      gt\n        /* \"#utility.yul\":6208:6325   */\n      iszero\n      tag_157\n      jumpi\n        /* \"#utility.yul\":6244:6323   */\n      tag_158\n      tag_64\n      jump\t// in\n    tag_158:\n        /* \"#utility.yul\":6208:6325   */\n    tag_157:\n        /* \"#utility.yul\":6349:6427   */\n      tag_159\n        /* \"#utility.yul\":6419:6426   */\n      dup5\n        /* \"#utility.yul\":6410:6416   */\n      dup3\n        /* \"#utility.yul\":6399:6408   */\n      dup6\n        /* \"#utility.yul\":6395:6417   */\n      add\n        /* \"#utility.yul\":6349:6427   */\n      tag_83\n      jump\t// in\n    tag_159:\n        /* \"#utility.yul\":6339:6427   */\n      swap2\n      pop\n        /* \"#utility.yul\":6135:6437   */\n      pop\n        /* \"#utility.yul\":5905:6444   */\n      swap3\n      swap2\n      pop\n      pop\n      jump\t// out\n        /* \"#utility.yul\":6450:6823   */\n    tag_22:\n        /* \"#utility.yul\":6593:6597   */\n      0x00\n        /* \"#utility.yul\":6631:6633   */\n      0x20\n        /* \"#utility.yul\":6620:6629   */\n      dup3\n        /* \"#utility.yul\":6616:6634   */\n      add\n        /* \"#utility.yul\":6608:6634   */\n      swap1\n      pop\n        /* \"#utility.yul\":6680:6689   */\n      dup2\n        /* \"#utility.yul\":6674:6678   */\n      dup2\n        /* \"#utility.yul\":6670:6690   */\n      sub\n        /* \"#utility.yul\":6666:6667   */\n      0x00\n        /* \"#utility.yul\":6655:6664   */\n      dup4\n        /* \"#utility.yul\":6651:6668   */\n      add\n        /* \"#utility.yul\":6644:6691   */\n      mstore\n        /* \"#utility.yul\":6708:6816   */\n      tag_161\n        /* \"#utility.yul\":6811:6815   */\n      dup2\n        /* \"#utility.yul\":6802:6808   */\n      dup5\n        /* \"#utility.yul\":6708:6816   */\n      tag_75\n      jump\t// in\n    tag_161:\n        /* \"#utility.yul\":6700:6816   */\n      swap1\n      pop\n        /* \"#utility.yul\":6450:6823   */\n      swap3\n      swap2\n      pop\n      pop\n      jump\t// out\n        /* \"#utility.yul\":6829:7009   */\n    tag_84:\n        /* \"#utility.yul\":6877:6954   */\n      0x4e487b7100000000000000000000000000000000000000000000000000000000\n        /* \"#utility.yul\":6874:6875   */\n      0x00\n        /* \"#utility.yul\":6867:6955   */\n      mstore\n        /* \"#utility.yul\":6974:6978   */\n      0x11\n        /* \"#utility.yul\":6971:6972   */\n      0x04\n        /* \"#utility.yul\":6964:6979   */\n      mstore\n        /* \"#utility.yul\":6998:7002   */\n      0x24\n        /* \"#utility.yul\":6995:6996   */\n      0x00\n        /* \"#utility.yul\":6988:7003   */\n      revert\n        /* \"#utility.yul\":7015:7117   */\n    tag_85:\n        /* \"#utility.yul\":7057:7065   */\n      0x00\n        /* \"#utility.yul\":7104:7109   */\n      dup2\n        /* \"#utility.yul\":7101:7102   */\n      0x01\n        /* \"#utility.yul\":7097:7110   */\n      shr\n        /* \"#utility.yul\":7076:7110   */\n      swap1\n      pop\n        /* \"#utility.yul\":7015:7117   */\n      swap2\n      swap1\n      pop\n      jump\t// out\n        /* \"#utility.yul\":7123:7971   */\n    tag_86:\n        /* \"#utility.yul\":7184:7189   */\n      0x00\n        /* \"#utility.yul\":7191:7195   */\n      dup1\n        /* \"#utility.yul\":7215:7221   */\n      dup3\n        /* \"#utility.yul\":7206:7221   */\n      swap2\n      pop\n        /* \"#utility.yul\":7239:7244   */\n      dup4\n        /* \"#utility.yul\":7230:7244   */\n      swap1\n      pop\n        /* \"#utility.yul\":7253:7965   */\n    tag_165:\n        /* \"#utility.yul\":7274:7275   */\n      0x01\n        /* \"#utility.yul\":7264:7272   */\n      dup6\n        /* \"#utility.yul\":7261:7276   */\n      gt\n        /* \"#utility.yul\":7253:7965   */\n      iszero\n      tag_167\n      jumpi\n        /* \"#utility.yul\":7369:7373   */\n      dup1\n        /* \"#utility.yul\":7364:7367   */\n      dup7\n        /* \"#utility.yul\":7360:7374   */\n      div\n        /* \"#utility.yul\":7354:7358   */\n      dup2\n        /* \"#utility.yul\":7351:7375   */\n      gt\n        /* \"#utility.yul\":7348:7398   */\n      iszero\n      tag_168\n      jumpi\n        /* \"#utility.yul\":7378:7396   */\n      tag_169\n      tag_84\n      jump\t// in\n    tag_169:\n        /* \"#utility.yul\":7348:7398   */\n    tag_168:\n        /* \"#utility.yul\":7428:7429   */\n      0x01\n        /* \"#utility.yul\":7418:7426   */\n      dup6\n        /* \"#utility.yul\":7414:7430   */\n      and\n        /* \"#utility.yul\":7411:7862   */\n      iszero\n      tag_170\n      jumpi\n        /* \"#utility.yul\":7843:7847   */\n      dup1\n        /* \"#utility.yul\":7836:7841   */\n      dup3\n        /* \"#utility.yul\":7832:7848   */\n      mul\n        /* \"#utility.yul\":7823:7848   */\n      swap2\n      pop\n        /* \"#utility.yul\":7411:7862   */\n    tag_170:\n        /* \"#utility.yul\":7893:7897   */\n      dup1\n        /* \"#utility.yul\":7887:7891   */\n      dup2\n        /* \"#utility.yul\":7883:7898   */\n      mul\n        /* \"#utility.yul\":7875:7898   */\n      swap1\n      pop\n        /* \"#utility.yul\":7923:7955   */\n      tag_171\n        /* \"#utility.yul\":7946:7954   */\n      dup6\n        /* \"#utility.yul\":7923:7955   */\n      tag_85\n      jump\t// in\n    tag_171:\n        /* \"#utility.yul\":7911:7955   */\n      swap5\n      pop\n        /* \"#utility.yul\":7253:7965   */\n      jump(tag_165)\n    tag_167:\n        /* \"#utility.yul\":7123:7971   */\n      swap5\n      pop\n      swap5\n      swap3\n      pop\n      pop\n      pop\n      jump\t// out\n        /* \"#utility.yul\":7977:9050   */\n    tag_87:\n        /* \"#utility.yul\":8031:8036   */\n      0x00\n        /* \"#utility.yul\":8222:8230   */\n      dup3\n        /* \"#utility.yul\":8212:8252   */\n      tag_173\n      jumpi\n        /* \"#utility.yul\":8243:8244   */\n      0x01\n        /* \"#utility.yul\":8234:8244   */\n      swap1\n      pop\n        /* \"#utility.yul\":8245:8250   */\n      jump(tag_172)\n        /* \"#utility.yul\":8212:8252   */\n    tag_173:\n        /* \"#utility.yul\":8271:8275   */\n      dup2\n        /* \"#utility.yul\":8261:8297   */\n      tag_174\n      jumpi\n        /* \"#utility.yul\":8288:8289   */\n      0x00\n        /* \"#utility.yul\":8279:8289   */\n      swap1\n      pop\n        /* \"#utility.yul\":8290:8295   */\n      jump(tag_172)\n        /* \"#utility.yul\":8261:8297   */\n    tag_174:\n        /* \"#utility.yul\":8357:8361   */\n      dup2\n        /* \"#utility.yul\":8405:8406   */\n      0x01\n        /* \"#utility.yul\":8400:8427   */\n      dup2\n      eq\n      tag_176\n      jumpi\n        /* \"#utility.yul\":8441:8442   */\n      0x02\n        /* \"#utility.yul\":8436:8627   */\n      dup2\n      eq\n      tag_177\n      jumpi\n        /* \"#utility.yul\":8350:8627   */\n      jump(tag_175)\n        /* \"#utility.yul\":8400:8427   */\n    tag_176:\n        /* \"#utility.yul\":8418:8419   */\n      0x01\n        /* \"#utility.yul\":8409:8419   */\n      swap2\n      pop\n        /* \"#utility.yul\":8420:8425   */\n      pop\n      jump(tag_172)\n        /* \"#utility.yul\":8436:8627   */\n    tag_177:\n        /* \"#utility.yul\":8481:8484   */\n      0xff\n        /* \"#utility.yul\":8471:8479   */\n      dup5\n        /* \"#utility.yul\":8468:8485   */\n      gt\n        /* \"#utility.yul\":8465:8508   */\n      iszero\n      tag_178\n      jumpi\n        /* \"#utility.yul\":8488:8506   */\n      tag_179\n      tag_84\n      jump\t// in\n    tag_179:\n        /* \"#utility.yul\":8465:8508   */\n    tag_178:\n        /* \"#utility.yul\":8537:8545   */\n      dup4\n        /* \"#utility.yul\":8534:8535   */\n      0x02\n        /* \"#utility.yul\":8530:8546   */\n      exp\n        /* \"#utility.yul\":8521:8546   */\n      swap2\n      pop\n        /* \"#utility.yul\":8572:8575   */\n      dup5\n        /* \"#utility.yul\":8565:8570   */\n      dup3\n        /* \"#utility.yul\":8562:8576   */\n      gt\n        /* \"#utility.yul\":8559:8599   */\n      iszero\n      tag_180\n      jumpi\n        /* \"#utility.yul\":8579:8597   */\n      tag_181\n      tag_84\n      jump\t// in\n    tag_181:\n        /* \"#utility.yul\":8559:8599   */\n    tag_180:\n        /* \"#utility.yul\":8612:8617   */\n      pop\n      jump(tag_172)\n        /* \"#utility.yul\":8350:8627   */\n    tag_175:\n      pop\n        /* \"#utility.yul\":8736:8738   */\n      0x20\n        /* \"#utility.yul\":8726:8734   */\n      dup4\n        /* \"#utility.yul\":8723:8739   */\n      lt\n        /* \"#utility.yul\":8717:8720   */\n      0x0133\n        /* \"#utility.yul\":8711:8715   */\n      dup4\n        /* \"#utility.yul\":8708:8721   */\n      lt\n        /* \"#utility.yul\":8704:8740   */\n      and\n        /* \"#utility.yul\":8686:8688   */\n      0x4e\n        /* \"#utility.yul\":8676:8684   */\n      dup5\n        /* \"#utility.yul\":8673:8689   */\n      lt\n        /* \"#utility.yul\":8668:8670   */\n      0x0b\n        /* \"#utility.yul\":8662:8666   */\n      dup5\n        /* \"#utility.yul\":8659:8671   */\n      lt\n        /* \"#utility.yul\":8655:8690   */\n      and\n        /* \"#utility.yul\":8639:8750   */\n      or\n        /* \"#utility.yul\":8636:8882   */\n      iszero\n      tag_182\n      jumpi\n        /* \"#utility.yul\":8792:8800   */\n      dup3\n        /* \"#utility.yul\":8786:8790   */\n      dup3\n        /* \"#utility.yul\":8782:8801   */\n      exp\n        /* \"#utility.yul\":8773:8801   */\n      swap1\n      pop\n        /* \"#utility.yul\":8827:8830   */\n      dup4\n        /* \"#utility.yul\":8820:8825   */\n      dup2\n        /* \"#utility.yul\":8817:8831   */\n      gt\n        /* \"#utility.yul\":8814:8854   */\n      iszero\n      tag_183\n      jumpi\n        /* \"#utility.yul\":8834:8852   */\n      tag_184\n      tag_84\n      jump\t// in\n    tag_184:\n        /* \"#utility.yul\":8814:8854   */\n    tag_183:\n        /* \"#utility.yul\":8867:8872   */\n      jump(tag_172)\n        /* \"#utility.yul\":8636:8882   */\n    tag_182:\n        /* \"#utility.yul\":8907:8949   */\n      tag_185\n        /* \"#utility.yul\":8945:8948   */\n      dup5\n        /* \"#utility.yul\":8935:8943   */\n      dup5\n        /* \"#utility.yul\":8929:8933   */\n      dup5\n        /* \"#utility.yul\":8926:8927   */\n      0x01\n        /* \"#utility.yul\":8907:8949   */\n      tag_86\n      jump\t// in\n    tag_185:\n        /* \"#utility.yul\":8892:8949   */\n      swap3\n      pop\n      swap1\n      pop\n        /* \"#utility.yul\":8981:8985   */\n      dup2\n        /* \"#utility.yul\":8976:8979   */\n      dup5\n        /* \"#utility.yul\":8972:8986   */\n      div\n        /* \"#utility.yul\":8965:8970   */\n      dup2\n        /* \"#utility.yul\":8962:8987   */\n      gt\n        /* \"#utility.yul\":8959:9010   */\n      iszero\n      tag_186\n      jumpi\n        /* \"#utility.yul\":8990:9008   */\n      tag_187\n      tag_84\n      jump\t// in\n    tag_187:\n        /* \"#utility.yul\":8959:9010   */\n    tag_186:\n        /* \"#utility.yul\":9039:9043   */\n      dup2\n        /* \"#utility.yul\":9032:9037   */\n      dup2\n        /* \"#utility.yul\":9028:9044   */\n      mul\n        /* \"#utility.yul\":9019:9044   */\n      swap1\n      pop\n        /* \"#utility.yul\":7977:9050   */\n    tag_172:\n      swap4\n      swap3\n      pop\n      pop\n      pop\n      jump\t// out\n        /* \"#utility.yul\":9056:9341   */\n    tag_27:\n        /* \"#utility.yul\":9116:9121   */\n      0x00\n        /* \"#utility.yul\":9140:9163   */\n      tag_189\n        /* \"#utility.yul\":9158:9162   */\n      dup3\n        /* \"#utility.yul\":9140:9163   */\n      tag_65\n      jump\t// in\n    tag_189:\n        /* \"#utility.yul\":9132:9163   */\n      swap2\n      pop\n        /* \"#utility.yul\":9184:9211   */\n      tag_190\n        /* \"#utility.yul\":9202:9210   */\n      dup4\n        /* \"#utility.yul\":9184:9211   */\n      tag_65\n      jump\t// in\n    tag_190:\n        /* \"#utility.yul\":9172:9211   */\n      swap3\n      pop\n        /* \"#utility.yul\":9230:9334   */\n      tag_191\n        /* \"#utility.yul\":9267:9333   */\n      0xffffffffffffffffffffffffffffffffffffffffffffffffffffffffffffffff\n        /* \"#utility.yul\":9257:9265   */\n      dup5\n        /* \"#utility.yul\":9251:9255   */\n      dup5\n        /* \"#utility.yul\":9230:9334   */\n      tag_87\n      jump\t// in\n    tag_191:\n        /* \"#utility.yul\":9221:9334   */\n      swap1\n      pop\n        /* \"#utility.yul\":9056:9341   */\n      swap3\n      swap2\n      pop\n      pop\n      jump\t// out\n        /* \"#utility.yul\":9347:9580   */\n    tag_29:\n        /* \"#utility.yul\":9386:9389   */\n      0x00\n        /* \"#utility.yul\":9409:9433   */\n      tag_193\n        /* \"#utility.yul\":9427:9432   */\n      dup3\n        /* \"#utility.yul\":9409:9433   */\n      tag_65\n      jump\t// in\n    tag_193:\n        /* \"#utility.yul\":9400:9433   */\n      swap2\n      pop\n        /* \"#utility.yul\":9455:9521   */\n      0xffffffffffffffffffffffffffffffffffffffffffffffffffffffffffffffff\n        /* \"#utility.yul\":9448:9453   */\n      dup3\n        /* \"#utility.yul\":9445:9522   */\n      sub\n        /* \"#utility.yul\":9442:9545   */\n      tag_194\n      jumpi\n        /* \"#utility.yul\":9525:9543   */\n      tag_195\n      tag_84\n      jump\t// in\n    tag_195:\n        /* \"#utility.yul\":9442:9545   */\n    tag_194:\n        /* \"#utility.yul\":9572:9573   */\n      0x01\n        /* \"#utility.yul\":9565:9570   */\n      dup3\n        /* \"#utility.yul\":9561:9574   */\n      add\n        /* \"#utility.yul\":9554:9574   */\n      swap1\n      pop\n        /* \"#utility.yul\":9347:9580   */\n      swap2\n      swap1\n      pop\n      jump\t// out\n        /* \"#utility.yul\":9586:9766   */\n    tag_88:\n        /* \"#utility.yul\":9634:9711   */\n      0x4e487b7100000000000000000000000000000000000000000000000000000000\n        /* \"#utility.yul\":9631:9632   */\n      0x00\n        /* \"#utility.yul\":9624:9712   */\n      mstore\n        /* \"#utility.yul\":9731:9735   */\n      0x12\n        /* \"#utility.yul\":9728:9729   */\n      0x04\n        /* \"#utility.yul\":9721:9736   */\n      mstore\n        /* \"#utility.yul\":9755:9759   */\n      0x24\n        /* \"#utility.yul\":9752:9753   */\n      0x00\n        /* \"#utility.yul\":9745:9760   */\n      revert\n        /* \"#utility.yul\":9772:9948   */\n    tag_39:\n        /* \"#utility.yul\":9804:9805   */\n      0x00\n        /* \"#utility.yul\":9821:9841   */\n      tag_198\n        /* \"#utility.yul\":9839:9840   */\n      dup3\n        /* \"#utility.yul\":9821:9841   */\n      tag_65\n      jump\t// in\n    tag_198:\n        /* \"#utility.yul\":9816:9841   */\n      swap2\n      pop\n        /* \"#utility.yul\":9855:9875   */\n      tag_199\n        /* \"#utility.yul\":9873:9874   */\n      dup4\n        /* \"#utility.yul\":9855:9875   */\n      tag_65\n      jump\t// in\n    tag_199:\n        /* \"#utility.yul\":9850:9875   */\n      swap3\n      pop\n        /* \"#utility.yul\":9894:9895   */\n      dup3\n        /* \"#utility.yul\":9884:9919   */\n      tag_200\n      jumpi\n        /* \"#utility.yul\":9899:9917   */\n      tag_201\n      tag_88\n      jump\t// in\n    tag_201:\n        /* \"#utility.yul\":9884:9919   */\n    tag_200:\n        /* \"#utility.yul\":9940:9941   */\n      dup3\n        /* \"#utility.yul\":9937:9938   */\n      dup3\n        /* \"#utility.yul\":9933:9942   */\n      mod\n        /* \"#utility.yul\":9928:9942   */\n      swap1\n      pop\n        /* \"#utility.yul\":9772:9948   */\n      swap3\n      swap2\n      pop\n      pop\n      jump\t// out\n        /* \"#utility.yul\":9954:10125   */\n    tag_41:\n        /* \"#utility.yul\":9993:9996   */\n      0x00\n        /* \"#utility.yul\":10016:10040   */\n      tag_203\n        /* \"#utility.yul\":10034:10039   */\n      dup3\n        /* \"#utility.yul\":10016:10040   */\n      tag_65\n      jump\t// in\n    tag_203:\n        /* \"#utility.yul\":10007:10040   */\n      swap2\n      pop\n        /* \"#utility.yul\":10062:10066   */\n      0x00\n        /* \"#utility.yul\":10055:10060   */\n      dup3\n        /* \"#utility.yul\":10052:10067   */\n      sub\n        /* \"#utility.yul\":10049:10090   */\n      tag_204\n      jumpi\n        /* \"#utility.yul\":10070:10088   */\n      tag_205\n      tag_84\n      jump\t// in\n    tag_205:\n        /* \"#utility.yul\":10049:10090   */\n    tag_204:\n        /* \"#utility.yul\":10117:10118   */\n      0x01\n        /* \"#utility.yul\":10110:10115   */\n      dup3\n        /* \"#utility.yul\":10106:10119   */\n      sub\n        /* \"#utility.yul\":10099:10119   */\n      swap1\n      pop\n        /* \"#utility.yul\":9954:10125   */\n      swap2\n      swap1\n      pop\n      jump\t// out\n        /* \"#utility.yul\":10131:10311   */\n    tag_44:\n        /* \"#utility.yul\":10179:10256   */\n      0x4e487b7100000000000000000000000000000000000000000000000000000000\n        /* \"#utility.yul\":10176:10177   */\n      0x00\n        /* \"#utility.yul\":10169:10257   */\n      mstore\n        /* \"#utility.yul\":10276:10280   */\n      0x32\n        /* \"#utility.yul\":10273:10274   */\n      0x04\n        /* \"#utility.yul\":10266:10281   */\n      mstore\n        /* \"#utility.yul\":10300:10304   */\n      0x24\n        /* \"#utility.yul\":10297:10298   */\n      0x00\n        /* \"#utility.yul\":10290:10305   */\n      revert\n        /* \"#utility.yul\":10317:10502   */\n    tag_46:\n        /* \"#utility.yul\":10357:10358   */\n      0x00\n        /* \"#utility.yul\":10374:10394   */\n      tag_208\n        /* \"#utility.yul\":10392:10393   */\n      dup3\n        /* \"#utility.yul\":10374:10394   */\n      tag_65\n      jump\t// in\n    tag_208:\n        /* \"#utility.yul\":10369:10394   */\n      swap2\n      pop\n        /* \"#utility.yul\":10408:10428   */\n      tag_209\n        /* \"#utility.yul\":10426:10427   */\n      dup4\n        /* \"#utility.yul\":10408:10428   */\n      tag_65\n      jump\t// in\n    tag_209:\n        /* \"#utility.yul\":10403:10428   */\n      swap3\n      pop\n        /* \"#utility.yul\":10447:10448   */\n      dup3\n        /* \"#utility.yul\":10437:10472   */\n      tag_210\n      jumpi\n        /* \"#utility.yul\":10452:10470   */\n      tag_211\n      tag_88\n      jump\t// in\n    tag_211:\n        /* \"#utility.yul\":10437:10472   */\n    tag_210:\n        /* \"#utility.yul\":10494:10495   */\n      dup3\n        /* \"#utility.yul\":10491:10492   */\n      dup3\n        /* \"#utility.yul\":10487:10496   */\n      div\n        /* \"#utility.yul\":10482:10496   */\n      swap1\n      pop\n        /* \"#utility.yul\":10317:10502   */\n      swap3\n      swap2\n      pop\n      pop\n      jump\t// out\n        /* \"#utility.yul\":10508:10702   */\n    tag_55:\n        /* \"#utility.yul\":10548:10552   */\n      0x00\n        /* \"#utility.yul\":10568:10588   */\n      tag_213\n        /* \"#utility.yul\":10586:10587   */\n      dup3\n        /* \"#utility.yul\":10568:10588   */\n      tag_65\n      jump\t// in\n    tag_213:\n        /* \"#utility.yul\":10563:10588   */\n      swap2\n      pop\n        /* \"#utility.yul\":10602:10622   */\n      tag_214\n        /* \"#utility.yul\":10620:10621   */\n      dup4\n        /* \"#utility.yul\":10602:10622   */\n      tag_65\n      jump\t// in\n    tag_214:\n        /* \"#utility.yul\":10597:10622   */\n      swap3\n      pop\n        /* \"#utility.yul\":10646:10647   */\n      dup3\n        /* \"#utility.yul\":10643:10644   */\n      dup3\n        /* \"#utility.yul\":10639:10648   */\n      sub\n        /* \"#utility.yul\":10631:10648   */\n      swap1\n      pop\n        /* \"#utility.yul\":10670:10671   */\n      dup2\n        /* \"#utility.yul\":10664:10668   */\n      dup2\n        /* \"#utility.yul\":10661:10672   */\n      gt\n        /* \"#utility.yul\":10658:10695   */\n      iszero\n      tag_215\n      jumpi\n        /* \"#utility.yul\":10675:10693   */\n      tag_216\n      tag_84\n      jump\t// in\n    tag_216:\n        /* \"#utility.yul\":10658:10695   */\n    tag_215:\n        /* \"#utility.yul\":10508:10702   */\n      swap3\n      swap2\n      pop\n      pop\n      jump\t// out\n\n    auxdata: 0xa2646970667358221220a0ff70afd46d286e3b4b0c5335a369ebc2eb85b4bfe9191a4d0c4fb20a601e8e64736f6c63430008120033\n}\n",
				"bytecode": {
					"linkReferences": {},
					"object": "608060405234801561001057600080fd5b50610938806100206000396000f3fe608060405234801561001057600080fd5b50600436106100415760003560e01c80630986e647146100465780632ac45d9c14610076578063a9333cfc146100a7575b600080fd5b610060600480360381019061005b91906102e7565b6100d7565b60405161006d9190610323565b60405180910390f35b610090600480360381019061008b91906102e7565b61010b565b60405161009e9291906103fc565b60405180910390f35b6100c160048036038101906100bc9190610585565b6101d2565b6040516100ce91906105ce565b60405180910390f35b6000805b80600a6100e89190610752565b8311156101025780806100fa9061079d565b9150506100db565b80915050919050565b60006060600061011a846100d7565b905060008167ffffffffffffffff81111561013857610137610442565b5b6040519080825280602002602001820160405280156101665781602001602082028036833780820191505090505b50905060008290505b600086146101c357600a866101849190610814565b828261018f90610845565b925082815181106101a3576101a261086e565b5b602002602001018181525050600a866101bc919061089d565b955061016f565b81518294509450505050915091565b60606000825167ffffffffffffffff8111156101f1576101f0610442565b5b60405190808252806020026020018201604052801561021f5781602001602082028036833780820191505090505b50905060005b83518110156102935783600182865161023e91906108ce565b61024891906108ce565b815181106102595761025861086e565b5b60200260200101518282815181106102745761027361086e565b5b602002602001018181525050808061028b9061079d565b915050610225565b5080915050919050565b6000604051905090565b600080fd5b600080fd5b6000819050919050565b6102c4816102b1565b81146102cf57600080fd5b50565b6000813590506102e1816102bb565b92915050565b6000602082840312156102fd576102fc6102a7565b5b600061030b848285016102d2565b91505092915050565b61031d816102b1565b82525050565b60006020820190506103386000830184610314565b92915050565b600081519050919050565b600082825260208201905092915050565b6000819050602082019050919050565b610373816102b1565b82525050565b6000610385838361036a565b60208301905092915050565b6000602082019050919050565b60006103a98261033e565b6103b38185610349565b93506103be8361035a565b8060005b838110156103ef5781516103d68882610379565b97506103e183610391565b9250506001810190506103c2565b5085935050505092915050565b60006040820190506104116000830185610314565b8181036020830152610423818461039e565b90509392505050565b600080fd5b6000601f19601f8301169050919050565b7f4e487b7100000000000000000000000000000000000000000000000000000000600052604160045260246000fd5b61047a82610431565b810181811067ffffffffffffffff8211171561049957610498610442565b5b80604052505050565b60006104ac61029d565b90506104b88282610471565b919050565b600067ffffffffffffffff8211156104d8576104d7610442565b5b602082029050602081019050919050565b600080fd5b60006105016104fc846104bd565b6104a2565b90508083825260208201905060208402830185811115610524576105236104e9565b5b835b8181101561054d578061053988826102d2565b845260208401935050602081019050610526565b5050509392505050565b600082601f83011261056c5761056b61042c565b5b813561057c8482602086016104ee565b91505092915050565b60006020828403121561059b5761059a6102a7565b5b600082013567ffffffffffffffff8111156105b9576105b86102ac565b5b6105c584828501610557565b91505092915050565b600060208201905081810360008301526105e8818461039e565b905092915050565b7f4e487b7100000000000000000000000000000000000000000000000000000000600052601160045260246000fd5b60008160011c9050919050565b6000808291508390505b600185111561067657808604811115610652576106516105f0565b5b60018516156106615780820291505b808102905061066f8561061f565b9450610636565b94509492505050565b60008261068f576001905061074b565b8161069d576000905061074b565b81600181146106b357600281146106bd576106ec565b600191505061074b565b60ff8411156106cf576106ce6105f0565b5b8360020a9150848211156106e6576106e56105f0565b5b5061074b565b5060208310610133831016604e8410600b84101617156107215782820a90508381111561071c5761071b6105f0565b5b61074b565b61072e848484600161062c565b92509050818404811115610745576107446105f0565b5b81810290505b9392505050565b600061075d826102b1565b9150610768836102b1565b92506107957fffffffffffffffffffffffffffffffffffffffffffffffffffffffffffffffff848461067f565b905092915050565b60006107a8826102b1565b91507fffffffffffffffffffffffffffffffffffffffffffffffffffffffffffffffff82036107da576107d96105f0565b5b600182019050919050565b7f4e487b7100000000000000000000000000000000000000000000000000000000600052601260045260246000fd5b600061081f826102b1565b915061082a836102b1565b92508261083a576108396107e5565b5b828206905092915050565b6000610850826102b1565b915060008203610863576108626105f0565b5b600182039050919050565b7f4e487b7100000000000000000000000000000000000000000000000000000000600052603260045260246000fd5b60006108a8826102b1565b91506108b3836102b1565b9250826108c3576108c26107e5565b5b828204905092915050565b60006108d9826102b1565b91506108e4836102b1565b92508282039050818111156108fc576108fb6105f0565b5b9291505056fea2646970667358221220a0ff70afd46d286e3b4b0c5335a369ebc2eb85b4bfe9191a4d0c4fb20a601e8e64736f6c63430008120033",
					"opcodes": "PUSH1 0x80 PUSH1 0x40 MSTORE CALLVALUE DUP1 ISZERO PUSH2 0x10 JUMPI PUSH1 0x0 DUP1 REVERT JUMPDEST POP PUSH2 0x938 DUP1 PUSH2 0x20 PUSH1 0x0 CODECOPY PUSH1 0x0 RETURN INVALID PUSH1 0x80 PUSH1 0x40 MSTORE CALLVALUE DUP1 ISZERO PUSH2 0x10 JUMPI PUSH1 0x0 DUP1 REVERT JUMPDEST POP PUSH1 0x4 CALLDATASIZE LT PUSH2 0x41 JUMPI PUSH1 0x0 CALLDATALOAD PUSH1 0xE0 SHR DUP1 PUSH4 0x986E647 EQ PUSH2 0x46 JUMPI DUP1 PUSH4 0x2AC45D9C EQ PUSH2 0x76 JUMPI DUP1 PUSH4 0xA9333CFC EQ PUSH2 0xA7 JUMPI JUMPDEST PUSH1 0x0 DUP1 REVERT JUMPDEST PUSH2 0x60 PUSH1 0x4 DUP1 CALLDATASIZE SUB DUP2 ADD SWAP1 PUSH2 0x5B SWAP2 SWAP1 PUSH2 0x2E7 JUMP JUMPDEST PUSH2 0xD7 JUMP JUMPDEST PUSH1 0x40 MLOAD PUSH2 0x6D SWAP2 SWAP1 PUSH2 0x323 JUMP JUMPDEST PUSH1 0x40 MLOAD DUP1 SWAP2 SUB SWAP1 RETURN JUMPDEST PUSH2 0x90 PUSH1 0x4 DUP1 CALLDATASIZE SUB DUP2 ADD SWAP1 PUSH2 0x8B SWAP2 SWAP1 PUSH2 0x2E7 JUMP JUMPDEST PUSH2 0x10B JUMP JUMPDEST PUSH1 0x40 MLOAD PUSH2 0x9E SWAP3 SWAP2 SWAP1 PUSH2 0x3FC JUMP JUMPDEST PUSH1 0x40 MLOAD DUP1 SWAP2 SUB SWAP1 RETURN JUMPDEST PUSH2 0xC1 PUSH1 0x4 DUP1 CALLDATASIZE SUB DUP2 ADD SWAP1 PUSH2 0xBC SWAP2 SWAP1 PUSH2 0x585 JUMP JUMPDEST PUSH2 0x1D2 JUMP JUMPDEST PUSH1 0x40 MLOAD PUSH2 0xCE SWAP2 SWAP1 PUSH2 0x5CE JUMP JUMPDEST PUSH1 0x40 MLOAD DUP1 SWAP2 SUB SWAP1 RETURN JUMPDEST PUSH1 0x0 DUP1 JUMPDEST DUP1 PUSH1 0xA PUSH2 0xE8 SWAP2 SWAP1 PUSH2 0x752 JUMP JUMPDEST DUP4 GT ISZERO PUSH2 0x102 JUMPI DUP1 DUP1 PUSH2 0xFA SWAP1 PUSH2 0x79D JUMP JUMPDEST SWAP2 POP POP PUSH2 0xDB JUMP JUMPDEST DUP1 SWAP2 POP POP SWAP2 SWAP1 POP JUMP JUMPDEST PUSH1 0x0 PUSH1 0x60 PUSH1 0x0 PUSH2 0x11A DUP5 PUSH2 0xD7 JUMP JUMPDEST SWAP1 POP PUSH1 0x0 DUP2 PUSH8 0xFFFFFFFFFFFFFFFF DUP2 GT ISZERO PUSH2 0x138 JUMPI PUSH2 0x137 PUSH2 0x442 JUMP JUMPDEST JUMPDEST PUSH1 0x40 MLOAD SWAP1 DUP1 DUP3 MSTORE DUP1 PUSH1 0x20 MUL PUSH1 0x20 ADD DUP3 ADD PUSH1 0x40 MSTORE DUP1 ISZERO PUSH2 0x166 JUMPI DUP2 PUSH1 0x20 ADD PUSH1 0x20 DUP3 MUL DUP1 CALLDATASIZE DUP4 CALLDATACOPY DUP1 DUP3 ADD SWAP2 POP POP SWAP1 POP JUMPDEST POP SWAP1 POP PUSH1 0x0 DUP3 SWAP1 POP JUMPDEST PUSH1 0x0 DUP7 EQ PUSH2 0x1C3 JUMPI PUSH1 0xA DUP7 PUSH2 0x184 SWAP2 SWAP1 PUSH2 0x814 JUMP JUMPDEST DUP3 DUP3 PUSH2 0x18F SWAP1 PUSH2 0x845 JUMP JUMPDEST SWAP3 POP DUP3 DUP2 MLOAD DUP2 LT PUSH2 0x1A3 JUMPI PUSH2 0x1A2 PUSH2 0x86E JUMP JUMPDEST JUMPDEST PUSH1 0x20 MUL PUSH1 0x20 ADD ADD DUP2 DUP2 MSTORE POP POP PUSH1 0xA DUP7 PUSH2 0x1BC SWAP2 SWAP1 PUSH2 0x89D JUMP JUMPDEST SWAP6 POP PUSH2 0x16F JUMP JUMPDEST DUP2 MLOAD DUP3 SWAP5 POP SWAP5 POP POP POP POP SWAP2 POP SWAP2 JUMP JUMPDEST PUSH1 0x60 PUSH1 0x0 DUP3 MLOAD PUSH8 0xFFFFFFFFFFFFFFFF DUP2 GT ISZERO PUSH2 0x1F1 JUMPI PUSH2 0x1F0 PUSH2 0x442 JUMP JUMPDEST JUMPDEST PUSH1 0x40 MLOAD SWAP1 DUP1 DUP3 MSTORE DUP1 PUSH1 0x20 MUL PUSH1 0x20 ADD DUP3 ADD PUSH1 0x40 MSTORE DUP1 ISZERO PUSH2 0x21F JUMPI DUP2 PUSH1 0x20 ADD PUSH1 0x20 DUP3 MUL DUP1 CALLDATASIZE DUP4 CALLDATACOPY DUP1 DUP3 ADD SWAP2 POP POP SWAP1 POP JUMPDEST POP SWAP1 POP PUSH1 0x0 JUMPDEST DUP4 MLOAD DUP2 LT ISZERO PUSH2 0x293 JUMPI DUP4 PUSH1 0x1 DUP3 DUP7 MLOAD PUSH2 0x23E SWAP2 SWAP1 PUSH2 0x8CE JUMP JUMPDEST PUSH2 0x248 SWAP2 SWAP1 PUSH2 0x8CE JUMP JUMPDEST DUP2 MLOAD DUP2 LT PUSH2 0x259 JUMPI PUSH2 0x258 PUSH2 0x86E JUMP JUMPDEST JUMPDEST PUSH1 0x20 MUL PUSH1 0x20 ADD ADD MLOAD DUP3 DUP3 DUP2 MLOAD DUP2 LT PUSH2 0x274 JUMPI PUSH2 0x273 PUSH2 0x86E JUMP JUMPDEST JUMPDEST PUSH1 0x20 MUL PUSH1 0x20 ADD ADD DUP2 DUP2 MSTORE POP POP DUP1 DUP1 PUSH2 0x28B SWAP1 PUSH2 0x79D JUMP JUMPDEST SWAP2 POP POP PUSH2 0x225 JUMP JUMPDEST POP DUP1 SWAP2 POP POP SWAP2 SWAP1 POP JUMP JUMPDEST PUSH1 0x0 PUSH1 0x40 MLOAD SWAP1 POP SWAP1 JUMP JUMPDEST PUSH1 0x0 DUP1 REVERT JUMPDEST PUSH1 0x0 DUP1 REVERT JUMPDEST PUSH1 0x0 DUP2 SWAP1 POP SWAP2 SWAP1 POP JUMP JUMPDEST PUSH2 0x2C4 DUP2 PUSH2 0x2B1 JUMP JUMPDEST DUP2 EQ PUSH2 0x2CF JUMPI PUSH1 0x0 DUP1 REVERT JUMPDEST POP JUMP JUMPDEST PUSH1 0x0 DUP2 CALLDATALOAD SWAP1 POP PUSH2 0x2E1 DUP2 PUSH2 0x2BB JUMP JUMPDEST SWAP3 SWAP2 POP POP JUMP JUMPDEST PUSH1 0x0 PUSH1 0x20 DUP3 DUP5 SUB SLT ISZERO PUSH2 0x2FD JUMPI PUSH2 0x2FC PUSH2 0x2A7 JUMP JUMPDEST JUMPDEST PUSH1 0x0 PUSH2 0x30B DUP5 DUP3 DUP6 ADD PUSH2 0x2D2 JUMP JUMPDEST SWAP2 POP POP SWAP3 SWAP2 POP POP JUMP JUMPDEST PUSH2 0x31D DUP2 PUSH2 0x2B1 JUMP JUMPDEST DUP3 MSTORE POP POP JUMP JUMPDEST PUSH1 0x0 PUSH1 0x20 DUP3 ADD SWAP1 POP PUSH2 0x338 PUSH1 0x0 DUP4 ADD DUP5 PUSH2 0x314 JUMP JUMPDEST SWAP3 SWAP2 POP POP JUMP JUMPDEST PUSH1 0x0 DUP2 MLOAD SWAP1 POP SWAP2 SWAP1 POP JUMP JUMPDEST PUSH1 0x0 DUP3 DUP3 MSTORE PUSH1 0x20 DUP3 ADD SWAP1 POP SWAP3 SWAP2 POP POP JUMP JUMPDEST PUSH1 0x0 DUP2 SWAP1 POP PUSH1 0x20 DUP3 ADD SWAP1 POP SWAP2 SWAP1 POP JUMP JUMPDEST PUSH2 0x373 DUP2 PUSH2 0x2B1 JUMP JUMPDEST DUP3 MSTORE POP POP JUMP JUMPDEST PUSH1 0x0 PUSH2 0x385 DUP4 DUP4 PUSH2 0x36A JUMP JUMPDEST PUSH1 0x20 DUP4 ADD SWAP1 POP SWAP3 SWAP2 POP POP JUMP JUMPDEST PUSH1 0x0 PUSH1 0x20 DUP3 ADD SWAP1 POP SWAP2 SWAP1 POP JUMP JUMPDEST PUSH1 0x0 PUSH2 0x3A9 DUP3 PUSH2 0x33E JUMP JUMPDEST PUSH2 0x3B3 DUP2 DUP6 PUSH2 0x349 JUMP JUMPDEST SWAP4 POP PUSH2 0x3BE DUP4 PUSH2 0x35A JUMP JUMPDEST DUP1 PUSH1 0x0 JUMPDEST DUP4 DUP2 LT ISZERO PUSH2 0x3EF JUMPI DUP2 MLOAD PUSH2 0x3D6 DUP9 DUP3 PUSH2 0x379 JUMP JUMPDEST SWAP8 POP PUSH2 0x3E1 DUP4 PUSH2 0x391 JUMP JUMPDEST SWAP3 POP POP PUSH1 0x1 DUP2 ADD SWAP1 POP PUSH2 0x3C2 JUMP JUMPDEST POP DUP6 SWAP4 POP POP POP POP SWAP3 SWAP2 POP POP JUMP JUMPDEST PUSH1 0x0 PUSH1 0x40 DUP3 ADD SWAP1 POP PUSH2 0x411 PUSH1 0x0 DUP4 ADD DUP6 PUSH2 0x314 JUMP JUMPDEST DUP2 DUP2 SUB PUSH1 0x20 DUP4 ADD MSTORE PUSH2 0x423 DUP2 DUP5 PUSH2 0x39E JUMP JUMPDEST SWAP1 POP SWAP4 SWAP3 POP POP POP JUMP JUMPDEST PUSH1 0x0 DUP1 REVERT JUMPDEST PUSH1 0x0 PUSH1 0x1F NOT PUSH1 0x1F DUP4 ADD AND SWAP1 POP SWAP2 SWAP1 POP JUMP JUMPDEST PUSH32 0x4E487B7100000000000000000000000000000000000000000000000000000000 PUSH1 0x0 MSTORE PUSH1 0x41 PUSH1 0x4 MSTORE PUSH1 0x24 PUSH1 0x0 REVERT JUMPDEST PUSH2 0x47A DUP3 PUSH2 0x431 JUMP JUMPDEST DUP2 ADD DUP2 DUP2 LT PUSH8 0xFFFFFFFFFFFFFFFF DUP3 GT OR ISZERO PUSH2 0x499 JUMPI PUSH2 0x498 PUSH2 0x442 JUMP JUMPDEST JUMPDEST DUP1 PUSH1 0x40 MSTORE POP POP POP JUMP JUMPDEST PUSH1 0x0 PUSH2 0x4AC PUSH2 0x29D JUMP JUMPDEST SWAP1 POP PUSH2 0x4B8 DUP3 DUP3 PUSH2 0x471 JUMP JUMPDEST SWAP2 SWAP1 POP JUMP JUMPDEST PUSH1 0x0 PUSH8 0xFFFFFFFFFFFFFFFF DUP3 GT ISZERO PUSH2 0x4D8 JUMPI PUSH2 0x4D7 PUSH2 0x442 JUMP JUMPDEST JUMPDEST PUSH1 0x20 DUP3 MUL SWAP1 POP PUSH1 0x20 DUP2 ADD SWAP1 POP SWAP2 SWAP1 POP JUMP JUMPDEST PUSH1 0x0 DUP1 REVERT JUMPDEST PUSH1 0x0 PUSH2 0x501 PUSH2 0x4FC DUP5 PUSH2 0x4BD JUMP JUMPDEST PUSH2 0x4A2 JUMP JUMPDEST SWAP1 POP DUP1 DUP4 DUP3 MSTORE PUSH1 0x20 DUP3 ADD SWAP1 POP PUSH1 0x20 DUP5 MUL DUP4 ADD DUP6 DUP2 GT ISZERO PUSH2 0x524 JUMPI PUSH2 0x523 PUSH2 0x4E9 JUMP JUMPDEST JUMPDEST DUP4 JUMPDEST DUP2 DUP2 LT ISZERO PUSH2 0x54D JUMPI DUP1 PUSH2 0x539 DUP9 DUP3 PUSH2 0x2D2 JUMP JUMPDEST DUP5 MSTORE PUSH1 0x20 DUP5 ADD SWAP4 POP POP PUSH1 0x20 DUP2 ADD SWAP1 POP PUSH2 0x526 JUMP JUMPDEST POP POP POP SWAP4 SWAP3 POP POP POP JUMP JUMPDEST PUSH1 0x0 DUP3 PUSH1 0x1F DUP4 ADD SLT PUSH2 0x56C JUMPI PUSH2 0x56B PUSH2 0x42C JUMP JUMPDEST JUMPDEST DUP2 CALLDATALOAD PUSH2 0x57C DUP5 DUP3 PUSH1 0x20 DUP7 ADD PUSH2 0x4EE JUMP JUMPDEST SWAP2 POP POP SWAP3 SWAP2 POP POP JUMP JUMPDEST PUSH1 0x0 PUSH1 0x20 DUP3 DUP5 SUB SLT ISZERO PUSH2 0x59B JUMPI PUSH2 0x59A PUSH2 0x2A7 JUMP JUMPDEST JUMPDEST PUSH1 0x0 DUP3 ADD CALLDATALOAD PUSH8 0xFFFFFFFFFFFFFFFF DUP2 GT ISZERO PUSH2 0x5B9 JUMPI PUSH2 0x5B8 PUSH2 0x2AC JUMP JUMPDEST JUMPDEST PUSH2 0x5C5 DUP5 DUP3 DUP6 ADD PUSH2 0x557 JUMP JUMPDEST SWAP2 POP POP SWAP3 SWAP2 POP POP JUMP JUMPDEST PUSH1 0x0 PUSH1 0x20 DUP3 ADD SWAP1 POP DUP2 DUP2 SUB PUSH1 0x0 DUP4 ADD MSTORE PUSH2 0x5E8 DUP2 DUP5 PUSH2 0x39E JUMP JUMPDEST SWAP1 POP SWAP3 SWAP2 POP POP JUMP JUMPDEST PUSH32 0x4E487B7100000000000000000000000000000000000000000000000000000000 PUSH1 0x0 MSTORE PUSH1 0x11 PUSH1 0x4 MSTORE PUSH1 0x24 PUSH1 0x0 REVERT JUMPDEST PUSH1 0x0 DUP2 PUSH1 0x1 SHR SWAP1 POP SWAP2 SWAP1 POP JUMP JUMPDEST PUSH1 0x0 DUP1 DUP3 SWAP2 POP DUP4 SWAP1 POP JUMPDEST PUSH1 0x1 DUP6 GT ISZERO PUSH2 0x676 JUMPI DUP1 DUP7 DIV DUP2 GT ISZERO PUSH2 0x652 JUMPI PUSH2 0x651 PUSH2 0x5F0 JUMP JUMPDEST JUMPDEST PUSH1 0x1 DUP6 AND ISZERO PUSH2 0x661 JUMPI DUP1 DUP3 MUL SWAP2 POP JUMPDEST DUP1 DUP2 MUL SWAP1 POP PUSH2 0x66F DUP6 PUSH2 0x61F JUMP JUMPDEST SWAP5 POP PUSH2 0x636 JUMP JUMPDEST SWAP5 POP SWAP5 SWAP3 POP POP POP JUMP JUMPDEST PUSH1 0x0 DUP3 PUSH2 0x68F JUMPI PUSH1 0x1 SWAP1 POP PUSH2 0x74B JUMP JUMPDEST DUP2 PUSH2 0x69D JUMPI PUSH1 0x0 SWAP1 POP PUSH2 0x74B JUMP JUMPDEST DUP2 PUSH1 0x1 DUP2 EQ PUSH2 0x6B3 JUMPI PUSH1 0x2 DUP2 EQ PUSH2 0x6BD JUMPI PUSH2 0x6EC JUMP JUMPDEST PUSH1 0x1 SWAP2 POP POP PUSH2 0x74B JUMP JUMPDEST PUSH1 0xFF DUP5 GT ISZERO PUSH2 0x6CF JUMPI PUSH2 0x6CE PUSH2 0x5F0 JUMP JUMPDEST JUMPDEST DUP4 PUSH1 0x2 EXP SWAP2 POP DUP5 DUP3 GT ISZERO PUSH2 0x6E6 JUMPI PUSH2 0x6E5 PUSH2 0x5F0 JUMP JUMPDEST JUMPDEST POP PUSH2 0x74B JUMP JUMPDEST POP PUSH1 0x20 DUP4 LT PUSH2 0x133 DUP4 LT AND PUSH1 0x4E DUP5 LT PUSH1 0xB DUP5 LT AND OR ISZERO PUSH2 0x721 JUMPI DUP3 DUP3 EXP SWAP1 POP DUP4 DUP2 GT ISZERO PUSH2 0x71C JUMPI PUSH2 0x71B PUSH2 0x5F0 JUMP JUMPDEST JUMPDEST PUSH2 0x74B JUMP JUMPDEST PUSH2 0x72E DUP5 DUP5 DUP5 PUSH1 0x1 PUSH2 0x62C JUMP JUMPDEST SWAP3 POP SWAP1 POP DUP2 DUP5 DIV DUP2 GT ISZERO PUSH2 0x745 JUMPI PUSH2 0x744 PUSH2 0x5F0 JUMP JUMPDEST JUMPDEST DUP2 DUP2 MUL SWAP1 POP JUMPDEST SWAP4 SWAP3 POP POP POP JUMP JUMPDEST PUSH1 0x0 PUSH2 0x75D DUP3 PUSH2 0x2B1 JUMP JUMPDEST SWAP2 POP PUSH2 0x768 DUP4 PUSH2 0x2B1 JUMP JUMPDEST SWAP3 POP PUSH2 0x795 PUSH32 0xFFFFFFFFFFFFFFFFFFFFFFFFFFFFFFFFFFFFFFFFFFFFFFFFFFFFFFFFFFFFFFFF DUP5 DUP5 PUSH2 0x67F JUMP JUMPDEST SWAP1 POP SWAP3 SWAP2 POP POP JUMP JUMPDEST PUSH1 0x0 PUSH2 0x7A8 DUP3 PUSH2 0x2B1 JUMP JUMPDEST SWAP2 POP PUSH32 0xFFFFFFFFFFFFFFFFFFFFFFFFFFFFFFFFFFFFFFFFFFFFFFFFFFFFFFFFFFFFFFFF DUP3 SUB PUSH2 0x7DA JUMPI PUSH2 0x7D9 PUSH2 0x5F0 JUMP JUMPDEST JUMPDEST PUSH1 0x1 DUP3 ADD SWAP1 POP SWAP2 SWAP1 POP JUMP JUMPDEST PUSH32 0x4E487B7100000000000000000000000000000000000000000000000000000000 PUSH1 0x0 MSTORE PUSH1 0x12 PUSH1 0x4 MSTORE PUSH1 0x24 PUSH1 0x0 REVERT JUMPDEST PUSH1 0x0 PUSH2 0x81F DUP3 PUSH2 0x2B1 JUMP JUMPDEST SWAP2 POP PUSH2 0x82A DUP4 PUSH2 0x2B1 JUMP JUMPDEST SWAP3 POP DUP3 PUSH2 0x83A JUMPI PUSH2 0x839 PUSH2 0x7E5 JUMP JUMPDEST JUMPDEST DUP3 DUP3 MOD SWAP1 POP SWAP3 SWAP2 POP POP JUMP JUMPDEST PUSH1 0x0 PUSH2 0x850 DUP3 PUSH2 0x2B1 JUMP JUMPDEST SWAP2 POP PUSH1 0x0 DUP3 SUB PUSH2 0x863 JUMPI PUSH2 0x862 PUSH2 0x5F0 JUMP JUMPDEST JUMPDEST PUSH1 0x1 DUP3 SUB SWAP1 POP SWAP2 SWAP1 POP JUMP JUMPDEST PUSH32 0x4E487B7100000000000000000000000000000000000000000000000000000000 PUSH1 0x0 MSTORE PUSH1 0x32 PUSH1 0x4 MSTORE PUSH1 0x24 PUSH1 0x0 REVERT JUMPDEST PUSH1 0x0 PUSH2 0x8A8 DUP3 PUSH2 0x2B1 JUMP JUMPDEST SWAP2 POP PUSH2 0x8B3 DUP4 PUSH2 0x2B1 JUMP JUMPDEST SWAP3 POP DUP3 PUSH2 0x8C3 JUMPI PUSH2 0x8C2 PUSH2 0x7E5 JUMP JUMPDEST JUMPDEST DUP3 DUP3 DIV SWAP1 POP SWAP3 SWAP2 POP POP JUMP JUMPDEST PUSH1 0x0 PUSH2 0x8D9 DUP3 PUSH2 0x2B1 JUMP JUMPDEST SWAP2 POP PUSH2 0x8E4 DUP4 PUSH2 0x2B1 JUMP JUMPDEST SWAP3 POP DUP3 DUP3 SUB SWAP1 POP DUP2 DUP2 GT ISZERO PUSH2 0x8FC JUMPI PUSH2 0x8FB PUSH2 0x5F0 JUMP JUMPDEST JUMPDEST SWAP3 SWAP2 POP POP JUMP INVALID LOG2 PUSH5 0x6970667358 0x22 SLT KECCAK256 LOG0 SELFDESTRUCT PUSH17 0xAFD46D286E3B4B0C5335A369EBC2EB85B4 0xBF 0xE9 NOT BYTE 0x4D 0xC 0x4F 0xB2 EXP PUSH1 0x1E DUP15 PUSH5 0x736F6C6343 STOP ADDMOD SLT STOP CALLER "
				},
				"gasEstimates": {
					"creation": {
						"codeDepositCost": "472000",
						"executionCost": "505",
						"totalCost": "472505"
					},
					"external": {
						"divideNumber(uint256)": "infinite",
						"getLength(uint256)": "infinite",
						"reverse(uint256[])": "infinite"
					}
				},
				"methodIdentifiers": {
					"divideNumber(uint256)": "2ac45d9c",
					"getLength(uint256)": "0986e647",
					"reverse(uint256[])": "a9333cfc"
				}
			},
			"storageLayout": {
				"storage": [],
				"types": null
			},
			"userdoc": {
				"kind": "user",
				"methods": {},
				"version": 1
			}
		}
	}
}