{
	"contracts/230517/99_test.sol": {
		"codingTest": {
			"abi": [
				{
					"inputs": [
						{
							"internalType": "uint256",
							"name": "_n",
							"type": "uint256"
						}
					],
					"name": "seperateNumber",
					"outputs": [
						{
							"internalType": "uint256",
							"name": "",
							"type": "uint256"
						},
						{
							"internalType": "uint256[]",
							"name": "",
							"type": "uint256[]"
						}
					],
					"stateMutability": "pure",
					"type": "function"
				},
				{
					"inputs": [
						{
							"internalType": "string",
							"name": "_string",
							"type": "string"
						}
					],
					"name": "seperateString",
					"outputs": [
						{
							"internalType": "uint256",
							"name": "",
							"type": "uint256"
						},
						{
							"internalType": "string[]",
							"name": "",
							"type": "string[]"
						}
					],
					"stateMutability": "pure",
					"type": "function"
				}
			],
			"devdoc": {
				"kind": "dev",
				"methods": {},
				"version": 1
			},
			"evm": {
				"assembly": "    /* \"contracts/230517/99_test.sol\":544:1673  contract codingTest {... */\n  mstore(0x40, 0x80)\n  callvalue\n  dup1\n  iszero\n  tag_1\n  jumpi\n  0x00\n  dup1\n  revert\ntag_1:\n  pop\n  dataSize(sub_0)\n  dup1\n  dataOffset(sub_0)\n  0x00\n  codecopy\n  0x00\n  return\nstop\n\nsub_0: assembly {\n        /* \"contracts/230517/99_test.sol\":544:1673  contract codingTest {... */\n      mstore(0x40, 0x80)\n      callvalue\n      dup1\n      iszero\n      tag_1\n      jumpi\n      0x00\n      dup1\n      revert\n    tag_1:\n      pop\n      jumpi(tag_2, lt(calldatasize, 0x04))\n      shr(0xe0, calldataload(0x00))\n      dup1\n      0xa9593aa9\n      eq\n      tag_3\n      jumpi\n      dup1\n      0xb5e71f15\n      eq\n      tag_4\n      jumpi\n    tag_2:\n      0x00\n      dup1\n      revert\n        /* \"contracts/230517/99_test.sol\":1239:1670  function seperateString(string memory _string) public pure returns (uint, string[] memory) {... */\n    tag_3:\n      tag_5\n      0x04\n      dup1\n      calldatasize\n      sub\n      dup2\n      add\n      swap1\n      tag_6\n      swap2\n      swap1\n      tag_7\n      jump\t// in\n    tag_6:\n      tag_8\n      jump\t// in\n    tag_5:\n      mload(0x40)\n      tag_9\n      swap3\n      swap2\n      swap1\n      tag_10\n      jump\t// in\n    tag_9:\n      mload(0x40)\n      dup1\n      swap2\n      sub\n      swap1\n      return\n        /* \"contracts/230517/99_test.sol\":571:1231  function seperateNumber(uint _n) public pure returns(uint, uint[] memory){... */\n    tag_4:\n      tag_11\n      0x04\n      dup1\n      calldatasize\n      sub\n      dup2\n      add\n      swap1\n      tag_12\n      swap2\n      swap1\n      tag_13\n      jump\t// in\n    tag_12:\n      tag_14\n      jump\t// in\n    tag_11:\n      mload(0x40)\n      tag_15\n      swap3\n      swap2\n      swap1\n      tag_16\n      jump\t// in\n    tag_15:\n      mload(0x40)\n      dup1\n      swap2\n      sub\n      swap1\n      return\n        /* \"contracts/230517/99_test.sol\":1239:1670  function seperateString(string memory _string) public pure returns (uint, string[] memory) {... */\n    tag_8:\n        /* \"contracts/230517/99_test.sol\":1307:1311  uint */\n      0x00\n        /* \"contracts/230517/99_test.sol\":1313:1328  string[] memory */\n      0x60\n        /* \"contracts/230517/99_test.sol\":1341:1367  bytes memory stringToBytes */\n      0x00\n        /* \"contracts/230517/99_test.sol\":1376:1383  _string */\n      dup4\n        /* \"contracts/230517/99_test.sol\":1341:1384  bytes memory stringToBytes = bytes(_string) */\n      swap1\n      pop\n        /* \"contracts/230517/99_test.sol\":1395:1406  uint length */\n      0x00\n        /* \"contracts/230517/99_test.sol\":1409:1422  stringToBytes */\n      dup2\n        /* \"contracts/230517/99_test.sol\":1409:1429  stringToBytes.length */\n      mload\n        /* \"contracts/230517/99_test.sol\":1395:1429  uint length = stringToBytes.length */\n      swap1\n      pop\n        /* \"contracts/230517/99_test.sol\":1442:1469  string[] memory seperateStr */\n      0x00\n        /* \"contracts/230517/99_test.sol\":1485:1491  length */\n      dup2\n        /* \"contracts/230517/99_test.sol\":1472:1492  new string[](length) */\n      0xffffffffffffffff\n      dup2\n      gt\n      iszero\n      tag_18\n      jumpi\n      tag_19\n      tag_20\n      jump\t// in\n    tag_19:\n    tag_18:\n      mload(0x40)\n      swap1\n      dup1\n      dup3\n      mstore\n      dup1\n      0x20\n      mul\n      0x20\n      add\n      dup3\n      add\n      0x40\n      mstore\n      dup1\n      iszero\n      tag_21\n      jumpi\n      dup2\n      0x20\n      add\n    tag_22:\n      0x60\n      dup2\n      mstore\n      0x20\n      add\n      swap1\n      0x01\n      swap1\n      sub\n      swap1\n      dup2\n      tag_22\n      jumpi\n      swap1\n      pop\n    tag_21:\n      pop\n        /* \"contracts/230517/99_test.sol\":1442:1492  string[] memory seperateStr = new string[](length) */\n      swap1\n      pop\n        /* \"contracts/230517/99_test.sol\":1509:1515  uint i */\n      0x00\n        /* \"contracts/230517/99_test.sol\":1505:1624  for(uint i = 0; i < length; i++) {... */\n    tag_23:\n        /* \"contracts/230517/99_test.sol\":1525:1531  length */\n      dup3\n        /* \"contracts/230517/99_test.sol\":1521:1522  i */\n      dup2\n        /* \"contracts/230517/99_test.sol\":1521:1531  i < length */\n      lt\n        /* \"contracts/230517/99_test.sol\":1505:1624  for(uint i = 0; i < length; i++) {... */\n      iszero\n      tag_24\n      jumpi\n        /* \"contracts/230517/99_test.sol\":1594:1607  stringToBytes */\n      dup4\n        /* \"contracts/230517/99_test.sol\":1608:1609  i */\n      dup2\n        /* \"contracts/230517/99_test.sol\":1594:1610  stringToBytes[i] */\n      dup2\n      mload\n      dup2\n      lt\n      tag_26\n      jumpi\n      tag_27\n      tag_28\n      jump\t// in\n    tag_27:\n    tag_26:\n      0x20\n      add\n      add\n      mload\n      0xf8\n      shr\n      0xf8\n      shl\n        /* \"contracts/230517/99_test.sol\":1577:1611  abi.encodePacked(stringToBytes[i]) */\n      add(0x20, mload(0x40))\n      tag_29\n      swap2\n      swap1\n      tag_30\n      jump\t// in\n    tag_29:\n      mload(0x40)\n      0x20\n      dup2\n      dup4\n      sub\n      sub\n      dup2\n      mstore\n      swap1\n      0x40\n      mstore\n        /* \"contracts/230517/99_test.sol\":1553:1564  seperateStr */\n      dup3\n        /* \"contracts/230517/99_test.sol\":1565:1566  i */\n      dup3\n        /* \"contracts/230517/99_test.sol\":1553:1567  seperateStr[i] */\n      dup2\n      mload\n      dup2\n      lt\n      tag_31\n      jumpi\n      tag_32\n      tag_28\n      jump\t// in\n    tag_32:\n    tag_31:\n      0x20\n      mul\n      0x20\n      add\n      add\n        /* \"contracts/230517/99_test.sol\":1553:1612  seperateStr[i] = string(abi.encodePacked(stringToBytes[i])) */\n      dup2\n      swap1\n      mstore\n      pop\n        /* \"contracts/230517/99_test.sol\":1533:1536  i++ */\n      dup1\n      dup1\n      tag_33\n      swap1\n      tag_34\n      jump\t// in\n    tag_33:\n      swap2\n      pop\n      pop\n        /* \"contracts/230517/99_test.sol\":1505:1624  for(uint i = 0; i < length; i++) {... */\n      jump(tag_23)\n    tag_24:\n      pop\n        /* \"contracts/230517/99_test.sol\":1642:1648  length */\n      dup2\n        /* \"contracts/230517/99_test.sol\":1650:1661  seperateStr */\n      dup2\n        /* \"contracts/230517/99_test.sol\":1634:1662  return (length, seperateStr) */\n      swap5\n      pop\n      swap5\n      pop\n      pop\n      pop\n      pop\n        /* \"contracts/230517/99_test.sol\":1239:1670  function seperateString(string memory _string) public pure returns (uint, string[] memory) {... */\n      swap2\n      pop\n      swap2\n      jump\t// out\n        /* \"contracts/230517/99_test.sol\":571:1231  function seperateNumber(uint _n) public pure returns(uint, uint[] memory){... */\n    tag_14:\n        /* \"contracts/230517/99_test.sol\":624:628  uint */\n      0x00\n        /* \"contracts/230517/99_test.sol\":630:643  uint[] memory */\n      0x60\n        /* \"contracts/230517/99_test.sol\":655:666  uint number */\n      0x00\n        /* \"contracts/230517/99_test.sol\":669:671  _n */\n      dup4\n        /* \"contracts/230517/99_test.sol\":655:671  uint number = _n */\n      swap1\n      pop\n        /* \"contracts/230517/99_test.sol\":682:692  uint count */\n      0x00\n        /* \"contracts/230517/99_test.sol\":718:719  0 */\n      dup1\n        /* \"contracts/230517/99_test.sol\":708:714  number */\n      dup3\n        /* \"contracts/230517/99_test.sol\":708:719  number == 0 */\n      sub\n        /* \"contracts/230517/99_test.sol\":705:853  if(number == 0) {... */\n      tag_36\n      jumpi\n        /* \"contracts/230517/99_test.sol\":736:754  uint[] memory zero */\n      0x00\n        /* \"contracts/230517/99_test.sol\":768:769  1 */\n      0x01\n        /* \"contracts/230517/99_test.sol\":757:770  new uint[](1) */\n      0xffffffffffffffff\n      dup2\n      gt\n      iszero\n      tag_37\n      jumpi\n      tag_38\n      tag_20\n      jump\t// in\n    tag_38:\n    tag_37:\n      mload(0x40)\n      swap1\n      dup1\n      dup3\n      mstore\n      dup1\n      0x20\n      mul\n      0x20\n      add\n      dup3\n      add\n      0x40\n      mstore\n      dup1\n      iszero\n      tag_39\n      jumpi\n      dup2\n      0x20\n      add\n      0x20\n      dup3\n      mul\n      dup1\n      calldatasize\n      dup4\n      calldatacopy\n      dup1\n      dup3\n      add\n      swap2\n      pop\n      pop\n      swap1\n      pop\n    tag_39:\n      pop\n        /* \"contracts/230517/99_test.sol\":736:770  uint[] memory zero = new uint[](1) */\n      swap1\n      pop\n        /* \"contracts/230517/99_test.sol\":795:801  number */\n      dup3\n        /* \"contracts/230517/99_test.sol\":785:789  zero */\n      dup2\n        /* \"contracts/230517/99_test.sol\":790:791  0 */\n      0x00\n        /* \"contracts/230517/99_test.sol\":785:792  zero[0] */\n      dup2\n      mload\n      dup2\n      lt\n      tag_40\n      jumpi\n      tag_41\n      tag_28\n      jump\t// in\n    tag_41:\n    tag_40:\n      0x20\n      mul\n      0x20\n      add\n      add\n        /* \"contracts/230517/99_test.sol\":785:801  zero[0] = number */\n      dup2\n      dup2\n      mstore\n      pop\n      pop\n        /* \"contracts/230517/99_test.sol\":823:827  zero */\n      dup1\n        /* \"contracts/230517/99_test.sol\":823:834  zero.length */\n      mload\n        /* \"contracts/230517/99_test.sol\":836:840  zero */\n      dup2\n        /* \"contracts/230517/99_test.sol\":816:841  return(zero.length, zero) */\n      swap5\n      pop\n      swap5\n      pop\n      pop\n      pop\n      pop\n      jump(tag_35)\n        /* \"contracts/230517/99_test.sol\":705:853  if(number == 0) {... */\n    tag_36:\n        /* \"contracts/230517/99_test.sol\":897:978  for(; number != 0;) {... */\n    tag_42:\n        /* \"contracts/230517/99_test.sol\":913:914  0 */\n      0x00\n        /* \"contracts/230517/99_test.sol\":903:909  number */\n      dup3\n        /* \"contracts/230517/99_test.sol\":903:914  number != 0 */\n      eq\n        /* \"contracts/230517/99_test.sol\":897:978  for(; number != 0;) {... */\n      tag_43\n      jumpi\n        /* \"contracts/230517/99_test.sol\":942:944  10 */\n      0x0a\n        /* \"contracts/230517/99_test.sol\":932:944  number /= 10 */\n      dup3\n      tag_45\n      swap2\n      swap1\n      tag_46\n      jump\t// in\n    tag_45:\n      swap2\n      pop\n        /* \"contracts/230517/99_test.sol\":959:966  count++ */\n      dup1\n      dup1\n      tag_47\n      swap1\n      tag_34\n      jump\t// in\n    tag_47:\n      swap2\n      pop\n      pop\n        /* \"contracts/230517/99_test.sol\":897:978  for(; number != 0;) {... */\n      jump(tag_42)\n    tag_43:\n        /* \"contracts/230517/99_test.sol\":999:1001  _n */\n      dup5\n        /* \"contracts/230517/99_test.sol\":990:1001  number = _n */\n      swap2\n      pop\n        /* \"contracts/230517/99_test.sol\":1012:1034  uint[] memory numArray */\n      0x00\n        /* \"contracts/230517/99_test.sol\":1048:1053  count */\n      dup2\n        /* \"contracts/230517/99_test.sol\":1037:1054  new uint[](count) */\n      0xffffffffffffffff\n      dup2\n      gt\n      iszero\n      tag_48\n      jumpi\n      tag_49\n      tag_20\n      jump\t// in\n    tag_49:\n    tag_48:\n      mload(0x40)\n      swap1\n      dup1\n      dup3\n      mstore\n      dup1\n      0x20\n      mul\n      0x20\n      add\n      dup3\n      add\n      0x40\n      mstore\n      dup1\n      iszero\n      tag_50\n      jumpi\n      dup2\n      0x20\n      add\n      0x20\n      dup3\n      mul\n      dup1\n      calldatasize\n      dup4\n      calldatacopy\n      dup1\n      dup3\n      add\n      swap2\n      pop\n      pop\n      swap1\n      pop\n    tag_50:\n      pop\n        /* \"contracts/230517/99_test.sol\":1012:1054  uint[] memory numArray = new uint[](count) */\n      swap1\n      pop\n        /* \"contracts/230517/99_test.sol\":1071:1077  uint i */\n      0x00\n        /* \"contracts/230517/99_test.sol\":1067:1190  for(uint i = 0; i < count; i++) {... */\n    tag_51:\n        /* \"contracts/230517/99_test.sol\":1087:1092  count */\n      dup3\n        /* \"contracts/230517/99_test.sol\":1083:1084  i */\n      dup2\n        /* \"contracts/230517/99_test.sol\":1083:1092  i < count */\n      lt\n        /* \"contracts/230517/99_test.sol\":1067:1190  for(uint i = 0; i < count; i++) {... */\n      iszero\n      tag_52\n      jumpi\n        /* \"contracts/230517/99_test.sol\":1149:1151  10 */\n      0x0a\n        /* \"contracts/230517/99_test.sol\":1140:1146  number */\n      dup5\n        /* \"contracts/230517/99_test.sol\":1140:1151  number % 10 */\n      tag_54\n      swap2\n      swap1\n      tag_55\n      jump\t// in\n    tag_54:\n        /* \"contracts/230517/99_test.sol\":1114:1122  numArray */\n      dup3\n        /* \"contracts/230517/99_test.sol\":1135:1136  i */\n      dup3\n        /* \"contracts/230517/99_test.sol\":1130:1131  1 */\n      0x01\n        /* \"contracts/230517/99_test.sol\":1124:1129  count */\n      dup7\n        /* \"contracts/230517/99_test.sol\":1124:1131  count-1 */\n      tag_56\n      swap2\n      swap1\n      tag_57\n      jump\t// in\n    tag_56:\n        /* \"contracts/230517/99_test.sol\":1123:1136  (count-1) - i */\n      tag_58\n      swap2\n      swap1\n      tag_57\n      jump\t// in\n    tag_58:\n        /* \"contracts/230517/99_test.sol\":1114:1137  numArray[(count-1) - i] */\n      dup2\n      mload\n      dup2\n      lt\n      tag_59\n      jumpi\n      tag_60\n      tag_28\n      jump\t// in\n    tag_60:\n    tag_59:\n      0x20\n      mul\n      0x20\n      add\n      add\n        /* \"contracts/230517/99_test.sol\":1114:1151  numArray[(count-1) - i] = number % 10 */\n      dup2\n      dup2\n      mstore\n      pop\n      pop\n        /* \"contracts/230517/99_test.sol\":1176:1178  10 */\n      0x0a\n        /* \"contracts/230517/99_test.sol\":1166:1178  number /= 10 */\n      dup5\n      tag_61\n      swap2\n      swap1\n      tag_46\n      jump\t// in\n    tag_61:\n      swap4\n      pop\n        /* \"contracts/230517/99_test.sol\":1094:1097  i++ */\n      dup1\n      dup1\n      tag_62\n      swap1\n      tag_34\n      jump\t// in\n    tag_62:\n      swap2\n      pop\n      pop\n        /* \"contracts/230517/99_test.sol\":1067:1190  for(uint i = 0; i < count; i++) {... */\n      jump(tag_51)\n    tag_52:\n      pop\n        /* \"contracts/230517/99_test.sol\":1207:1212  count */\n      dup2\n        /* \"contracts/230517/99_test.sol\":1214:1222  numArray */\n      dup2\n        /* \"contracts/230517/99_test.sol\":1200:1223  return(count, numArray) */\n      swap5\n      pop\n      swap5\n      pop\n      pop\n      pop\n      pop\n        /* \"contracts/230517/99_test.sol\":571:1231  function seperateNumber(uint _n) public pure returns(uint, uint[] memory){... */\n    tag_35:\n      swap2\n      pop\n      swap2\n      jump\t// out\n        /* \"#utility.yul\":7:82   */\n    tag_63:\n        /* \"#utility.yul\":40:46   */\n      0x00\n        /* \"#utility.yul\":73:75   */\n      0x40\n        /* \"#utility.yul\":67:76   */\n      mload\n        /* \"#utility.yul\":57:76   */\n      swap1\n      pop\n        /* \"#utility.yul\":7:82   */\n      swap1\n      jump\t// out\n        /* \"#utility.yul\":88:205   */\n    tag_64:\n        /* \"#utility.yul\":197:198   */\n      0x00\n        /* \"#utility.yul\":194:195   */\n      dup1\n        /* \"#utility.yul\":187:199   */\n      revert\n        /* \"#utility.yul\":211:328   */\n    tag_65:\n        /* \"#utility.yul\":320:321   */\n      0x00\n        /* \"#utility.yul\":317:318   */\n      dup1\n        /* \"#utility.yul\":310:322   */\n      revert\n        /* \"#utility.yul\":334:451   */\n    tag_66:\n        /* \"#utility.yul\":443:444   */\n      0x00\n        /* \"#utility.yul\":440:441   */\n      dup1\n        /* \"#utility.yul\":433:445   */\n      revert\n        /* \"#utility.yul\":457:574   */\n    tag_67:\n        /* \"#utility.yul\":566:567   */\n      0x00\n        /* \"#utility.yul\":563:564   */\n      dup1\n        /* \"#utility.yul\":556:568   */\n      revert\n        /* \"#utility.yul\":580:682   */\n    tag_68:\n        /* \"#utility.yul\":621:627   */\n      0x00\n        /* \"#utility.yul\":672:674   */\n      0x1f\n        /* \"#utility.yul\":668:675   */\n      not\n        /* \"#utility.yul\":663:665   */\n      0x1f\n        /* \"#utility.yul\":656:661   */\n      dup4\n        /* \"#utility.yul\":652:666   */\n      add\n        /* \"#utility.yul\":648:676   */\n      and\n        /* \"#utility.yul\":638:676   */\n      swap1\n      pop\n        /* \"#utility.yul\":580:682   */\n      swap2\n      swap1\n      pop\n      jump\t// out\n        /* \"#utility.yul\":688:868   */\n    tag_20:\n        /* \"#utility.yul\":736:813   */\n      0x4e487b7100000000000000000000000000000000000000000000000000000000\n        /* \"#utility.yul\":733:734   */\n      0x00\n        /* \"#utility.yul\":726:814   */\n      mstore\n        /* \"#utility.yul\":833:837   */\n      0x41\n        /* \"#utility.yul\":830:831   */\n      0x04\n        /* \"#utility.yul\":823:838   */\n      mstore\n        /* \"#utility.yul\":857:861   */\n      0x24\n        /* \"#utility.yul\":854:855   */\n      0x00\n        /* \"#utility.yul\":847:862   */\n      revert\n        /* \"#utility.yul\":874:1155   */\n    tag_69:\n        /* \"#utility.yul\":957:984   */\n      tag_110\n        /* \"#utility.yul\":979:983   */\n      dup3\n        /* \"#utility.yul\":957:984   */\n      tag_68\n      jump\t// in\n    tag_110:\n        /* \"#utility.yul\":949:955   */\n      dup2\n        /* \"#utility.yul\":945:985   */\n      add\n        /* \"#utility.yul\":1087:1093   */\n      dup2\n        /* \"#utility.yul\":1075:1085   */\n      dup2\n        /* \"#utility.yul\":1072:1094   */\n      lt\n        /* \"#utility.yul\":1051:1069   */\n      0xffffffffffffffff\n        /* \"#utility.yul\":1039:1049   */\n      dup3\n        /* \"#utility.yul\":1036:1070   */\n      gt\n        /* \"#utility.yul\":1033:1095   */\n      or\n        /* \"#utility.yul\":1030:1118   */\n      iszero\n      tag_111\n      jumpi\n        /* \"#utility.yul\":1098:1116   */\n      tag_112\n      tag_20\n      jump\t// in\n    tag_112:\n        /* \"#utility.yul\":1030:1118   */\n    tag_111:\n        /* \"#utility.yul\":1138:1148   */\n      dup1\n        /* \"#utility.yul\":1134:1136   */\n      0x40\n        /* \"#utility.yul\":1127:1149   */\n      mstore\n        /* \"#utility.yul\":917:1155   */\n      pop\n        /* \"#utility.yul\":874:1155   */\n      pop\n      pop\n      jump\t// out\n        /* \"#utility.yul\":1161:1290   */\n    tag_70:\n        /* \"#utility.yul\":1195:1201   */\n      0x00\n        /* \"#utility.yul\":1222:1242   */\n      tag_114\n      tag_63\n      jump\t// in\n    tag_114:\n        /* \"#utility.yul\":1212:1242   */\n      swap1\n      pop\n        /* \"#utility.yul\":1251:1284   */\n      tag_115\n        /* \"#utility.yul\":1279:1283   */\n      dup3\n        /* \"#utility.yul\":1271:1277   */\n      dup3\n        /* \"#utility.yul\":1251:1284   */\n      tag_69\n      jump\t// in\n    tag_115:\n        /* \"#utility.yul\":1161:1290   */\n      swap2\n      swap1\n      pop\n      jump\t// out\n        /* \"#utility.yul\":1296:1604   */\n    tag_71:\n        /* \"#utility.yul\":1358:1362   */\n      0x00\n        /* \"#utility.yul\":1448:1466   */\n      0xffffffffffffffff\n        /* \"#utility.yul\":1440:1446   */\n      dup3\n        /* \"#utility.yul\":1437:1467   */\n      gt\n        /* \"#utility.yul\":1434:1490   */\n      iszero\n      tag_117\n      jumpi\n        /* \"#utility.yul\":1470:1488   */\n      tag_118\n      tag_20\n      jump\t// in\n    tag_118:\n        /* \"#utility.yul\":1434:1490   */\n    tag_117:\n        /* \"#utility.yul\":1508:1537   */\n      tag_119\n        /* \"#utility.yul\":1530:1536   */\n      dup3\n        /* \"#utility.yul\":1508:1537   */\n      tag_68\n      jump\t// in\n    tag_119:\n        /* \"#utility.yul\":1500:1537   */\n      swap1\n      pop\n        /* \"#utility.yul\":1592:1596   */\n      0x20\n        /* \"#utility.yul\":1586:1590   */\n      dup2\n        /* \"#utility.yul\":1582:1597   */\n      add\n        /* \"#utility.yul\":1574:1597   */\n      swap1\n      pop\n        /* \"#utility.yul\":1296:1604   */\n      swap2\n      swap1\n      pop\n      jump\t// out\n        /* \"#utility.yul\":1610:1756   */\n    tag_72:\n        /* \"#utility.yul\":1707:1713   */\n      dup3\n        /* \"#utility.yul\":1702:1705   */\n      dup2\n        /* \"#utility.yul\":1697:1700   */\n      dup4\n        /* \"#utility.yul\":1684:1714   */\n      calldatacopy\n        /* \"#utility.yul\":1748:1749   */\n      0x00\n        /* \"#utility.yul\":1739:1745   */\n      dup4\n        /* \"#utility.yul\":1734:1737   */\n      dup4\n        /* \"#utility.yul\":1730:1746   */\n      add\n        /* \"#utility.yul\":1723:1750   */\n      mstore\n        /* \"#utility.yul\":1610:1756   */\n      pop\n      pop\n      pop\n      jump\t// out\n        /* \"#utility.yul\":1762:2187   */\n    tag_73:\n        /* \"#utility.yul\":1840:1845   */\n      0x00\n        /* \"#utility.yul\":1865:1931   */\n      tag_122\n        /* \"#utility.yul\":1881:1930   */\n      tag_123\n        /* \"#utility.yul\":1923:1929   */\n      dup5\n        /* \"#utility.yul\":1881:1930   */\n      tag_71\n      jump\t// in\n    tag_123:\n        /* \"#utility.yul\":1865:1931   */\n      tag_70\n      jump\t// in\n    tag_122:\n        /* \"#utility.yul\":1856:1931   */\n      swap1\n      pop\n        /* \"#utility.yul\":1954:1960   */\n      dup3\n        /* \"#utility.yul\":1947:1952   */\n      dup2\n        /* \"#utility.yul\":1940:1961   */\n      mstore\n        /* \"#utility.yul\":1992:1996   */\n      0x20\n        /* \"#utility.yul\":1985:1990   */\n      dup2\n        /* \"#utility.yul\":1981:1997   */\n      add\n        /* \"#utility.yul\":2030:2033   */\n      dup5\n        /* \"#utility.yul\":2021:2027   */\n      dup5\n        /* \"#utility.yul\":2016:2019   */\n      dup5\n        /* \"#utility.yul\":2012:2028   */\n      add\n        /* \"#utility.yul\":2009:2034   */\n      gt\n        /* \"#utility.yul\":2006:2118   */\n      iszero\n      tag_124\n      jumpi\n        /* \"#utility.yul\":2037:2116   */\n      tag_125\n      tag_67\n      jump\t// in\n    tag_125:\n        /* \"#utility.yul\":2006:2118   */\n    tag_124:\n        /* \"#utility.yul\":2127:2181   */\n      tag_126\n        /* \"#utility.yul\":2174:2180   */\n      dup5\n        /* \"#utility.yul\":2169:2172   */\n      dup3\n        /* \"#utility.yul\":2164:2167   */\n      dup6\n        /* \"#utility.yul\":2127:2181   */\n      tag_72\n      jump\t// in\n    tag_126:\n        /* \"#utility.yul\":1846:2187   */\n      pop\n        /* \"#utility.yul\":1762:2187   */\n      swap4\n      swap3\n      pop\n      pop\n      pop\n      jump\t// out\n        /* \"#utility.yul\":2207:2547   */\n    tag_74:\n        /* \"#utility.yul\":2263:2268   */\n      0x00\n        /* \"#utility.yul\":2312:2315   */\n      dup3\n        /* \"#utility.yul\":2305:2309   */\n      0x1f\n        /* \"#utility.yul\":2297:2303   */\n      dup4\n        /* \"#utility.yul\":2293:2310   */\n      add\n        /* \"#utility.yul\":2289:2316   */\n      slt\n        /* \"#utility.yul\":2279:2401   */\n      tag_128\n      jumpi\n        /* \"#utility.yul\":2320:2399   */\n      tag_129\n      tag_66\n      jump\t// in\n    tag_129:\n        /* \"#utility.yul\":2279:2401   */\n    tag_128:\n        /* \"#utility.yul\":2437:2443   */\n      dup2\n        /* \"#utility.yul\":2424:2444   */\n      calldataload\n        /* \"#utility.yul\":2462:2541   */\n      tag_130\n        /* \"#utility.yul\":2537:2540   */\n      dup5\n        /* \"#utility.yul\":2529:2535   */\n      dup3\n        /* \"#utility.yul\":2522:2526   */\n      0x20\n        /* \"#utility.yul\":2514:2520   */\n      dup7\n        /* \"#utility.yul\":2510:2527   */\n      add\n        /* \"#utility.yul\":2462:2541   */\n      tag_73\n      jump\t// in\n    tag_130:\n        /* \"#utility.yul\":2453:2541   */\n      swap2\n      pop\n        /* \"#utility.yul\":2269:2547   */\n      pop\n        /* \"#utility.yul\":2207:2547   */\n      swap3\n      swap2\n      pop\n      pop\n      jump\t// out\n        /* \"#utility.yul\":2553:3062   */\n    tag_7:\n        /* \"#utility.yul\":2622:2628   */\n      0x00\n        /* \"#utility.yul\":2671:2673   */\n      0x20\n        /* \"#utility.yul\":2659:2668   */\n      dup3\n        /* \"#utility.yul\":2650:2657   */\n      dup5\n        /* \"#utility.yul\":2646:2669   */\n      sub\n        /* \"#utility.yul\":2642:2674   */\n      slt\n        /* \"#utility.yul\":2639:2758   */\n      iszero\n      tag_132\n      jumpi\n        /* \"#utility.yul\":2677:2756   */\n      tag_133\n      tag_64\n      jump\t// in\n    tag_133:\n        /* \"#utility.yul\":2639:2758   */\n    tag_132:\n        /* \"#utility.yul\":2825:2826   */\n      0x00\n        /* \"#utility.yul\":2814:2823   */\n      dup3\n        /* \"#utility.yul\":2810:2827   */\n      add\n        /* \"#utility.yul\":2797:2828   */\n      calldataload\n        /* \"#utility.yul\":2855:2873   */\n      0xffffffffffffffff\n        /* \"#utility.yul\":2847:2853   */\n      dup2\n        /* \"#utility.yul\":2844:2874   */\n      gt\n        /* \"#utility.yul\":2841:2958   */\n      iszero\n      tag_134\n      jumpi\n        /* \"#utility.yul\":2877:2956   */\n      tag_135\n      tag_65\n      jump\t// in\n    tag_135:\n        /* \"#utility.yul\":2841:2958   */\n    tag_134:\n        /* \"#utility.yul\":2982:3045   */\n      tag_136\n        /* \"#utility.yul\":3037:3044   */\n      dup5\n        /* \"#utility.yul\":3028:3034   */\n      dup3\n        /* \"#utility.yul\":3017:3026   */\n      dup6\n        /* \"#utility.yul\":3013:3035   */\n      add\n        /* \"#utility.yul\":2982:3045   */\n      tag_74\n      jump\t// in\n    tag_136:\n        /* \"#utility.yul\":2972:3045   */\n      swap2\n      pop\n        /* \"#utility.yul\":2768:3055   */\n      pop\n        /* \"#utility.yul\":2553:3062   */\n      swap3\n      swap2\n      pop\n      pop\n      jump\t// out\n        /* \"#utility.yul\":3068:3145   */\n    tag_75:\n        /* \"#utility.yul\":3105:3112   */\n      0x00\n        /* \"#utility.yul\":3134:3139   */\n      dup2\n        /* \"#utility.yul\":3123:3139   */\n      swap1\n      pop\n        /* \"#utility.yul\":3068:3145   */\n      swap2\n      swap1\n      pop\n      jump\t// out\n        /* \"#utility.yul\":3151:3269   */\n    tag_76:\n        /* \"#utility.yul\":3238:3262   */\n      tag_139\n        /* \"#utility.yul\":3256:3261   */\n      dup2\n        /* \"#utility.yul\":3238:3262   */\n      tag_75\n      jump\t// in\n    tag_139:\n        /* \"#utility.yul\":3233:3236   */\n      dup3\n        /* \"#utility.yul\":3226:3263   */\n      mstore\n        /* \"#utility.yul\":3151:3269   */\n      pop\n      pop\n      jump\t// out\n        /* \"#utility.yul\":3275:3399   */\n    tag_77:\n        /* \"#utility.yul\":3352:3358   */\n      0x00\n        /* \"#utility.yul\":3386:3391   */\n      dup2\n        /* \"#utility.yul\":3380:3392   */\n      mload\n        /* \"#utility.yul\":3370:3392   */\n      swap1\n      pop\n        /* \"#utility.yul\":3275:3399   */\n      swap2\n      swap1\n      pop\n      jump\t// out\n        /* \"#utility.yul\":3405:3599   */\n    tag_78:\n        /* \"#utility.yul\":3514:3525   */\n      0x00\n        /* \"#utility.yul\":3548:3554   */\n      dup3\n        /* \"#utility.yul\":3543:3546   */\n      dup3\n        /* \"#utility.yul\":3536:3555   */\n      mstore\n        /* \"#utility.yul\":3588:3592   */\n      0x20\n        /* \"#utility.yul\":3583:3586   */\n      dup3\n        /* \"#utility.yul\":3579:3593   */\n      add\n        /* \"#utility.yul\":3564:3593   */\n      swap1\n      pop\n        /* \"#utility.yul\":3405:3599   */\n      swap3\n      swap2\n      pop\n      pop\n      jump\t// out\n        /* \"#utility.yul\":3605:3747   */\n    tag_79:\n        /* \"#utility.yul\":3682:3686   */\n      0x00\n        /* \"#utility.yul\":3705:3708   */\n      dup2\n        /* \"#utility.yul\":3697:3708   */\n      swap1\n      pop\n        /* \"#utility.yul\":3735:3739   */\n      0x20\n        /* \"#utility.yul\":3730:3733   */\n      dup3\n        /* \"#utility.yul\":3726:3740   */\n      add\n        /* \"#utility.yul\":3718:3740   */\n      swap1\n      pop\n        /* \"#utility.yul\":3605:3747   */\n      swap2\n      swap1\n      pop\n      jump\t// out\n        /* \"#utility.yul\":3753:3852   */\n    tag_80:\n        /* \"#utility.yul\":3805:3811   */\n      0x00\n        /* \"#utility.yul\":3839:3844   */\n      dup2\n        /* \"#utility.yul\":3833:3845   */\n      mload\n        /* \"#utility.yul\":3823:3845   */\n      swap1\n      pop\n        /* \"#utility.yul\":3753:3852   */\n      swap2\n      swap1\n      pop\n      jump\t// out\n        /* \"#utility.yul\":3858:4017   */\n    tag_81:\n        /* \"#utility.yul\":3932:3943   */\n      0x00\n        /* \"#utility.yul\":3966:3972   */\n      dup3\n        /* \"#utility.yul\":3961:3964   */\n      dup3\n        /* \"#utility.yul\":3954:3973   */\n      mstore\n        /* \"#utility.yul\":4006:4010   */\n      0x20\n        /* \"#utility.yul\":4001:4004   */\n      dup3\n        /* \"#utility.yul\":3997:4011   */\n      add\n        /* \"#utility.yul\":3982:4011   */\n      swap1\n      pop\n        /* \"#utility.yul\":3858:4017   */\n      swap3\n      swap2\n      pop\n      pop\n      jump\t// out\n        /* \"#utility.yul\":4023:4269   */\n    tag_82:\n        /* \"#utility.yul\":4104:4105   */\n      0x00\n        /* \"#utility.yul\":4114:4227   */\n    tag_146:\n        /* \"#utility.yul\":4128:4134   */\n      dup4\n        /* \"#utility.yul\":4125:4126   */\n      dup2\n        /* \"#utility.yul\":4122:4135   */\n      lt\n        /* \"#utility.yul\":4114:4227   */\n      iszero\n      tag_148\n      jumpi\n        /* \"#utility.yul\":4213:4214   */\n      dup1\n        /* \"#utility.yul\":4208:4211   */\n      dup3\n        /* \"#utility.yul\":4204:4215   */\n      add\n        /* \"#utility.yul\":4198:4216   */\n      mload\n        /* \"#utility.yul\":4194:4195   */\n      dup2\n        /* \"#utility.yul\":4189:4192   */\n      dup5\n        /* \"#utility.yul\":4185:4196   */\n      add\n        /* \"#utility.yul\":4178:4217   */\n      mstore\n        /* \"#utility.yul\":4150:4152   */\n      0x20\n        /* \"#utility.yul\":4147:4148   */\n      dup2\n        /* \"#utility.yul\":4143:4153   */\n      add\n        /* \"#utility.yul\":4138:4153   */\n      swap1\n      pop\n        /* \"#utility.yul\":4114:4227   */\n      jump(tag_146)\n    tag_148:\n        /* \"#utility.yul\":4261:4262   */\n      0x00\n        /* \"#utility.yul\":4252:4258   */\n      dup5\n        /* \"#utility.yul\":4247:4250   */\n      dup5\n        /* \"#utility.yul\":4243:4259   */\n      add\n        /* \"#utility.yul\":4236:4263   */\n      mstore\n        /* \"#utility.yul\":4085:4269   */\n      pop\n        /* \"#utility.yul\":4023:4269   */\n      pop\n      pop\n      pop\n      jump\t// out\n        /* \"#utility.yul\":4275:4632   */\n    tag_83:\n        /* \"#utility.yul\":4353:4356   */\n      0x00\n        /* \"#utility.yul\":4381:4420   */\n      tag_150\n        /* \"#utility.yul\":4414:4419   */\n      dup3\n        /* \"#utility.yul\":4381:4420   */\n      tag_80\n      jump\t// in\n    tag_150:\n        /* \"#utility.yul\":4436:4497   */\n      tag_151\n        /* \"#utility.yul\":4490:4496   */\n      dup2\n        /* \"#utility.yul\":4485:4488   */\n      dup6\n        /* \"#utility.yul\":4436:4497   */\n      tag_81\n      jump\t// in\n    tag_151:\n        /* \"#utility.yul\":4429:4497   */\n      swap4\n      pop\n        /* \"#utility.yul\":4506:4571   */\n      tag_152\n        /* \"#utility.yul\":4564:4570   */\n      dup2\n        /* \"#utility.yul\":4559:4562   */\n      dup6\n        /* \"#utility.yul\":4552:4556   */\n      0x20\n        /* \"#utility.yul\":4545:4550   */\n      dup7\n        /* \"#utility.yul\":4541:4557   */\n      add\n        /* \"#utility.yul\":4506:4571   */\n      tag_82\n      jump\t// in\n    tag_152:\n        /* \"#utility.yul\":4596:4625   */\n      tag_153\n        /* \"#utility.yul\":4618:4624   */\n      dup2\n        /* \"#utility.yul\":4596:4625   */\n      tag_68\n      jump\t// in\n    tag_153:\n        /* \"#utility.yul\":4591:4594   */\n      dup5\n        /* \"#utility.yul\":4587:4626   */\n      add\n        /* \"#utility.yul\":4580:4626   */\n      swap2\n      pop\n        /* \"#utility.yul\":4357:4632   */\n      pop\n        /* \"#utility.yul\":4275:4632   */\n      swap3\n      swap2\n      pop\n      pop\n      jump\t// out\n        /* \"#utility.yul\":4638:4834   */\n    tag_84:\n        /* \"#utility.yul\":4727:4737   */\n      0x00\n        /* \"#utility.yul\":4762:4828   */\n      tag_155\n        /* \"#utility.yul\":4824:4827   */\n      dup4\n        /* \"#utility.yul\":4816:4822   */\n      dup4\n        /* \"#utility.yul\":4762:4828   */\n      tag_83\n      jump\t// in\n    tag_155:\n        /* \"#utility.yul\":4748:4828   */\n      swap1\n      pop\n        /* \"#utility.yul\":4638:4834   */\n      swap3\n      swap2\n      pop\n      pop\n      jump\t// out\n        /* \"#utility.yul\":4840:4963   */\n    tag_85:\n        /* \"#utility.yul\":4920:4924   */\n      0x00\n        /* \"#utility.yul\":4952:4956   */\n      0x20\n        /* \"#utility.yul\":4947:4950   */\n      dup3\n        /* \"#utility.yul\":4943:4957   */\n      add\n        /* \"#utility.yul\":4935:4957   */\n      swap1\n      pop\n        /* \"#utility.yul\":4840:4963   */\n      swap2\n      swap1\n      pop\n      jump\t// out\n        /* \"#utility.yul\":4997:5988   */\n    tag_86:\n        /* \"#utility.yul\":5136:5139   */\n      0x00\n        /* \"#utility.yul\":5165:5229   */\n      tag_158\n        /* \"#utility.yul\":5223:5228   */\n      dup3\n        /* \"#utility.yul\":5165:5229   */\n      tag_77\n      jump\t// in\n    tag_158:\n        /* \"#utility.yul\":5245:5341   */\n      tag_159\n        /* \"#utility.yul\":5334:5340   */\n      dup2\n        /* \"#utility.yul\":5329:5332   */\n      dup6\n        /* \"#utility.yul\":5245:5341   */\n      tag_78\n      jump\t// in\n    tag_159:\n        /* \"#utility.yul\":5238:5341   */\n      swap4\n      pop\n        /* \"#utility.yul\":5367:5370   */\n      dup4\n        /* \"#utility.yul\":5412:5416   */\n      0x20\n        /* \"#utility.yul\":5404:5410   */\n      dup3\n        /* \"#utility.yul\":5400:5417   */\n      mul\n        /* \"#utility.yul\":5395:5398   */\n      dup6\n        /* \"#utility.yul\":5391:5418   */\n      add\n        /* \"#utility.yul\":5442:5508   */\n      tag_160\n        /* \"#utility.yul\":5502:5507   */\n      dup6\n        /* \"#utility.yul\":5442:5508   */\n      tag_79\n      jump\t// in\n    tag_160:\n        /* \"#utility.yul\":5531:5538   */\n      dup1\n        /* \"#utility.yul\":5562:5563   */\n      0x00\n        /* \"#utility.yul\":5547:5943   */\n    tag_161:\n        /* \"#utility.yul\":5572:5578   */\n      dup6\n        /* \"#utility.yul\":5569:5570   */\n      dup2\n        /* \"#utility.yul\":5566:5579   */\n      lt\n        /* \"#utility.yul\":5547:5943   */\n      iszero\n      tag_163\n      jumpi\n        /* \"#utility.yul\":5643:5652   */\n      dup5\n        /* \"#utility.yul\":5637:5641   */\n      dup5\n        /* \"#utility.yul\":5633:5653   */\n      sub\n        /* \"#utility.yul\":5628:5631   */\n      dup10\n        /* \"#utility.yul\":5621:5654   */\n      mstore\n        /* \"#utility.yul\":5694:5700   */\n      dup2\n        /* \"#utility.yul\":5688:5701   */\n      mload\n        /* \"#utility.yul\":5722:5806   */\n      tag_164\n        /* \"#utility.yul\":5801:5805   */\n      dup6\n        /* \"#utility.yul\":5786:5799   */\n      dup3\n        /* \"#utility.yul\":5722:5806   */\n      tag_84\n      jump\t// in\n    tag_164:\n        /* \"#utility.yul\":5714:5806   */\n      swap5\n      pop\n        /* \"#utility.yul\":5829:5899   */\n      tag_165\n        /* \"#utility.yul\":5892:5898   */\n      dup4\n        /* \"#utility.yul\":5829:5899   */\n      tag_85\n      jump\t// in\n    tag_165:\n        /* \"#utility.yul\":5819:5899   */\n      swap3\n      pop\n        /* \"#utility.yul\":5928:5932   */\n      0x20\n        /* \"#utility.yul\":5923:5926   */\n      dup11\n        /* \"#utility.yul\":5919:5933   */\n      add\n        /* \"#utility.yul\":5912:5933   */\n      swap10\n      pop\n        /* \"#utility.yul\":5607:5943   */\n      pop\n        /* \"#utility.yul\":5594:5595   */\n      0x01\n        /* \"#utility.yul\":5591:5592   */\n      dup2\n        /* \"#utility.yul\":5587:5596   */\n      add\n        /* \"#utility.yul\":5582:5596   */\n      swap1\n      pop\n        /* \"#utility.yul\":5547:5943   */\n      jump(tag_161)\n    tag_163:\n        /* \"#utility.yul\":5551:5565   */\n      pop\n        /* \"#utility.yul\":5959:5963   */\n      dup3\n        /* \"#utility.yul\":5952:5963   */\n      swap8\n      pop\n        /* \"#utility.yul\":5979:5982   */\n      dup8\n        /* \"#utility.yul\":5972:5982   */\n      swap6\n      pop\n        /* \"#utility.yul\":5141:5988   */\n      pop\n      pop\n      pop\n      pop\n      pop\n        /* \"#utility.yul\":4997:5988   */\n      swap3\n      swap2\n      pop\n      pop\n      jump\t// out\n        /* \"#utility.yul\":5994:6517   */\n    tag_10:\n        /* \"#utility.yul\":6185:6189   */\n      0x00\n        /* \"#utility.yul\":6223:6225   */\n      0x40\n        /* \"#utility.yul\":6212:6221   */\n      dup3\n        /* \"#utility.yul\":6208:6226   */\n      add\n        /* \"#utility.yul\":6200:6226   */\n      swap1\n      pop\n        /* \"#utility.yul\":6236:6307   */\n      tag_167\n        /* \"#utility.yul\":6304:6305   */\n      0x00\n        /* \"#utility.yul\":6293:6302   */\n      dup4\n        /* \"#utility.yul\":6289:6306   */\n      add\n        /* \"#utility.yul\":6280:6286   */\n      dup6\n        /* \"#utility.yul\":6236:6307   */\n      tag_76\n      jump\t// in\n    tag_167:\n        /* \"#utility.yul\":6354:6363   */\n      dup2\n        /* \"#utility.yul\":6348:6352   */\n      dup2\n        /* \"#utility.yul\":6344:6364   */\n      sub\n        /* \"#utility.yul\":6339:6341   */\n      0x20\n        /* \"#utility.yul\":6328:6337   */\n      dup4\n        /* \"#utility.yul\":6324:6342   */\n      add\n        /* \"#utility.yul\":6317:6365   */\n      mstore\n        /* \"#utility.yul\":6382:6510   */\n      tag_168\n        /* \"#utility.yul\":6505:6509   */\n      dup2\n        /* \"#utility.yul\":6496:6502   */\n      dup5\n        /* \"#utility.yul\":6382:6510   */\n      tag_86\n      jump\t// in\n    tag_168:\n        /* \"#utility.yul\":6374:6510   */\n      swap1\n      pop\n        /* \"#utility.yul\":5994:6517   */\n      swap4\n      swap3\n      pop\n      pop\n      pop\n      jump\t// out\n        /* \"#utility.yul\":6523:6645   */\n    tag_87:\n        /* \"#utility.yul\":6596:6620   */\n      tag_170\n        /* \"#utility.yul\":6614:6619   */\n      dup2\n        /* \"#utility.yul\":6596:6620   */\n      tag_75\n      jump\t// in\n    tag_170:\n        /* \"#utility.yul\":6589:6594   */\n      dup2\n        /* \"#utility.yul\":6586:6621   */\n      eq\n        /* \"#utility.yul\":6576:6639   */\n      tag_171\n      jumpi\n        /* \"#utility.yul\":6635:6636   */\n      0x00\n        /* \"#utility.yul\":6632:6633   */\n      dup1\n        /* \"#utility.yul\":6625:6637   */\n      revert\n        /* \"#utility.yul\":6576:6639   */\n    tag_171:\n        /* \"#utility.yul\":6523:6645   */\n      pop\n      jump\t// out\n        /* \"#utility.yul\":6651:6790   */\n    tag_88:\n        /* \"#utility.yul\":6697:6702   */\n      0x00\n        /* \"#utility.yul\":6735:6741   */\n      dup2\n        /* \"#utility.yul\":6722:6742   */\n      calldataload\n        /* \"#utility.yul\":6713:6742   */\n      swap1\n      pop\n        /* \"#utility.yul\":6751:6784   */\n      tag_173\n        /* \"#utility.yul\":6778:6783   */\n      dup2\n        /* \"#utility.yul\":6751:6784   */\n      tag_87\n      jump\t// in\n    tag_173:\n        /* \"#utility.yul\":6651:6790   */\n      swap3\n      swap2\n      pop\n      pop\n      jump\t// out\n        /* \"#utility.yul\":6796:7125   */\n    tag_13:\n        /* \"#utility.yul\":6855:6861   */\n      0x00\n        /* \"#utility.yul\":6904:6906   */\n      0x20\n        /* \"#utility.yul\":6892:6901   */\n      dup3\n        /* \"#utility.yul\":6883:6890   */\n      dup5\n        /* \"#utility.yul\":6879:6902   */\n      sub\n        /* \"#utility.yul\":6875:6907   */\n      slt\n        /* \"#utility.yul\":6872:6991   */\n      iszero\n      tag_175\n      jumpi\n        /* \"#utility.yul\":6910:6989   */\n      tag_176\n      tag_64\n      jump\t// in\n    tag_176:\n        /* \"#utility.yul\":6872:6991   */\n    tag_175:\n        /* \"#utility.yul\":7030:7031   */\n      0x00\n        /* \"#utility.yul\":7055:7108   */\n      tag_177\n        /* \"#utility.yul\":7100:7107   */\n      dup5\n        /* \"#utility.yul\":7091:7097   */\n      dup3\n        /* \"#utility.yul\":7080:7089   */\n      dup6\n        /* \"#utility.yul\":7076:7098   */\n      add\n        /* \"#utility.yul\":7055:7108   */\n      tag_88\n      jump\t// in\n    tag_177:\n        /* \"#utility.yul\":7045:7108   */\n      swap2\n      pop\n        /* \"#utility.yul\":7001:7118   */\n      pop\n        /* \"#utility.yul\":6796:7125   */\n      swap3\n      swap2\n      pop\n      pop\n      jump\t// out\n        /* \"#utility.yul\":7131:7245   */\n    tag_89:\n        /* \"#utility.yul\":7198:7204   */\n      0x00\n        /* \"#utility.yul\":7232:7237   */\n      dup2\n        /* \"#utility.yul\":7226:7238   */\n      mload\n        /* \"#utility.yul\":7216:7238   */\n      swap1\n      pop\n        /* \"#utility.yul\":7131:7245   */\n      swap2\n      swap1\n      pop\n      jump\t// out\n        /* \"#utility.yul\":7251:7435   */\n    tag_90:\n        /* \"#utility.yul\":7350:7361   */\n      0x00\n        /* \"#utility.yul\":7384:7390   */\n      dup3\n        /* \"#utility.yul\":7379:7382   */\n      dup3\n        /* \"#utility.yul\":7372:7391   */\n      mstore\n        /* \"#utility.yul\":7424:7428   */\n      0x20\n        /* \"#utility.yul\":7419:7422   */\n      dup3\n        /* \"#utility.yul\":7415:7429   */\n      add\n        /* \"#utility.yul\":7400:7429   */\n      swap1\n      pop\n        /* \"#utility.yul\":7251:7435   */\n      swap3\n      swap2\n      pop\n      pop\n      jump\t// out\n        /* \"#utility.yul\":7441:7573   */\n    tag_91:\n        /* \"#utility.yul\":7508:7512   */\n      0x00\n        /* \"#utility.yul\":7531:7534   */\n      dup2\n        /* \"#utility.yul\":7523:7534   */\n      swap1\n      pop\n        /* \"#utility.yul\":7561:7565   */\n      0x20\n        /* \"#utility.yul\":7556:7559   */\n      dup3\n        /* \"#utility.yul\":7552:7566   */\n      add\n        /* \"#utility.yul\":7544:7566   */\n      swap1\n      pop\n        /* \"#utility.yul\":7441:7573   */\n      swap2\n      swap1\n      pop\n      jump\t// out\n        /* \"#utility.yul\":7579:7687   */\n    tag_92:\n        /* \"#utility.yul\":7656:7680   */\n      tag_182\n        /* \"#utility.yul\":7674:7679   */\n      dup2\n        /* \"#utility.yul\":7656:7680   */\n      tag_75\n      jump\t// in\n    tag_182:\n        /* \"#utility.yul\":7651:7654   */\n      dup3\n        /* \"#utility.yul\":7644:7681   */\n      mstore\n        /* \"#utility.yul\":7579:7687   */\n      pop\n      pop\n      jump\t// out\n        /* \"#utility.yul\":7693:7872   */\n    tag_93:\n        /* \"#utility.yul\":7762:7772   */\n      0x00\n        /* \"#utility.yul\":7783:7829   */\n      tag_184\n        /* \"#utility.yul\":7825:7828   */\n      dup4\n        /* \"#utility.yul\":7817:7823   */\n      dup4\n        /* \"#utility.yul\":7783:7829   */\n      tag_92\n      jump\t// in\n    tag_184:\n        /* \"#utility.yul\":7861:7865   */\n      0x20\n        /* \"#utility.yul\":7856:7859   */\n      dup4\n        /* \"#utility.yul\":7852:7866   */\n      add\n        /* \"#utility.yul\":7838:7866   */\n      swap1\n      pop\n        /* \"#utility.yul\":7693:7872   */\n      swap3\n      swap2\n      pop\n      pop\n      jump\t// out\n        /* \"#utility.yul\":7878:7991   */\n    tag_94:\n        /* \"#utility.yul\":7948:7952   */\n      0x00\n        /* \"#utility.yul\":7980:7984   */\n      0x20\n        /* \"#utility.yul\":7975:7978   */\n      dup3\n        /* \"#utility.yul\":7971:7985   */\n      add\n        /* \"#utility.yul\":7963:7985   */\n      swap1\n      pop\n        /* \"#utility.yul\":7878:7991   */\n      swap2\n      swap1\n      pop\n      jump\t// out\n        /* \"#utility.yul\":8027:8759   */\n    tag_95:\n        /* \"#utility.yul\":8146:8149   */\n      0x00\n        /* \"#utility.yul\":8175:8229   */\n      tag_187\n        /* \"#utility.yul\":8223:8228   */\n      dup3\n        /* \"#utility.yul\":8175:8229   */\n      tag_89\n      jump\t// in\n    tag_187:\n        /* \"#utility.yul\":8245:8331   */\n      tag_188\n        /* \"#utility.yul\":8324:8330   */\n      dup2\n        /* \"#utility.yul\":8319:8322   */\n      dup6\n        /* \"#utility.yul\":8245:8331   */\n      tag_90\n      jump\t// in\n    tag_188:\n        /* \"#utility.yul\":8238:8331   */\n      swap4\n      pop\n        /* \"#utility.yul\":8355:8411   */\n      tag_189\n        /* \"#utility.yul\":8405:8410   */\n      dup4\n        /* \"#utility.yul\":8355:8411   */\n      tag_91\n      jump\t// in\n    tag_189:\n        /* \"#utility.yul\":8434:8441   */\n      dup1\n        /* \"#utility.yul\":8465:8466   */\n      0x00\n        /* \"#utility.yul\":8450:8734   */\n    tag_190:\n        /* \"#utility.yul\":8475:8481   */\n      dup4\n        /* \"#utility.yul\":8472:8473   */\n      dup2\n        /* \"#utility.yul\":8469:8482   */\n      lt\n        /* \"#utility.yul\":8450:8734   */\n      iszero\n      tag_192\n      jumpi\n        /* \"#utility.yul\":8551:8557   */\n      dup2\n        /* \"#utility.yul\":8545:8558   */\n      mload\n        /* \"#utility.yul\":8578:8641   */\n      tag_193\n        /* \"#utility.yul\":8637:8640   */\n      dup9\n        /* \"#utility.yul\":8622:8635   */\n      dup3\n        /* \"#utility.yul\":8578:8641   */\n      tag_93\n      jump\t// in\n    tag_193:\n        /* \"#utility.yul\":8571:8641   */\n      swap8\n      pop\n        /* \"#utility.yul\":8664:8724   */\n      tag_194\n        /* \"#utility.yul\":8717:8723   */\n      dup4\n        /* \"#utility.yul\":8664:8724   */\n      tag_94\n      jump\t// in\n    tag_194:\n        /* \"#utility.yul\":8654:8724   */\n      swap3\n      pop\n        /* \"#utility.yul\":8510:8734   */\n      pop\n        /* \"#utility.yul\":8497:8498   */\n      0x01\n        /* \"#utility.yul\":8494:8495   */\n      dup2\n        /* \"#utility.yul\":8490:8499   */\n      add\n        /* \"#utility.yul\":8485:8499   */\n      swap1\n      pop\n        /* \"#utility.yul\":8450:8734   */\n      jump(tag_190)\n    tag_192:\n        /* \"#utility.yul\":8454:8468   */\n      pop\n        /* \"#utility.yul\":8750:8753   */\n      dup6\n        /* \"#utility.yul\":8743:8753   */\n      swap4\n      pop\n        /* \"#utility.yul\":8151:8759   */\n      pop\n      pop\n      pop\n        /* \"#utility.yul\":8027:8759   */\n      swap3\n      swap2\n      pop\n      pop\n      jump\t// out\n        /* \"#utility.yul\":8765:9248   */\n    tag_16:\n        /* \"#utility.yul\":8936:8940   */\n      0x00\n        /* \"#utility.yul\":8974:8976   */\n      0x40\n        /* \"#utility.yul\":8963:8972   */\n      dup3\n        /* \"#utility.yul\":8959:8977   */\n      add\n        /* \"#utility.yul\":8951:8977   */\n      swap1\n      pop\n        /* \"#utility.yul\":8987:9058   */\n      tag_196\n        /* \"#utility.yul\":9055:9056   */\n      0x00\n        /* \"#utility.yul\":9044:9053   */\n      dup4\n        /* \"#utility.yul\":9040:9057   */\n      add\n        /* \"#utility.yul\":9031:9037   */\n      dup6\n        /* \"#utility.yul\":8987:9058   */\n      tag_76\n      jump\t// in\n    tag_196:\n        /* \"#utility.yul\":9105:9114   */\n      dup2\n        /* \"#utility.yul\":9099:9103   */\n      dup2\n        /* \"#utility.yul\":9095:9115   */\n      sub\n        /* \"#utility.yul\":9090:9092   */\n      0x20\n        /* \"#utility.yul\":9079:9088   */\n      dup4\n        /* \"#utility.yul\":9075:9093   */\n      add\n        /* \"#utility.yul\":9068:9116   */\n      mstore\n        /* \"#utility.yul\":9133:9241   */\n      tag_197\n        /* \"#utility.yul\":9236:9240   */\n      dup2\n        /* \"#utility.yul\":9227:9233   */\n      dup5\n        /* \"#utility.yul\":9133:9241   */\n      tag_95\n      jump\t// in\n    tag_197:\n        /* \"#utility.yul\":9125:9241   */\n      swap1\n      pop\n        /* \"#utility.yul\":8765:9248   */\n      swap4\n      swap3\n      pop\n      pop\n      pop\n      jump\t// out\n        /* \"#utility.yul\":9254:9434   */\n    tag_28:\n        /* \"#utility.yul\":9302:9379   */\n      0x4e487b7100000000000000000000000000000000000000000000000000000000\n        /* \"#utility.yul\":9299:9300   */\n      0x00\n        /* \"#utility.yul\":9292:9380   */\n      mstore\n        /* \"#utility.yul\":9399:9403   */\n      0x32\n        /* \"#utility.yul\":9396:9397   */\n      0x04\n        /* \"#utility.yul\":9389:9404   */\n      mstore\n        /* \"#utility.yul\":9423:9427   */\n      0x24\n        /* \"#utility.yul\":9420:9421   */\n      0x00\n        /* \"#utility.yul\":9413:9428   */\n      revert\n        /* \"#utility.yul\":9440:9589   */\n    tag_96:\n        /* \"#utility.yul\":9476:9483   */\n      0x00\n        /* \"#utility.yul\":9516:9582   */\n      0xff00000000000000000000000000000000000000000000000000000000000000\n        /* \"#utility.yul\":9509:9514   */\n      dup3\n        /* \"#utility.yul\":9505:9583   */\n      and\n        /* \"#utility.yul\":9494:9583   */\n      swap1\n      pop\n        /* \"#utility.yul\":9440:9589   */\n      swap2\n      swap1\n      pop\n      jump\t// out\n        /* \"#utility.yul\":9595:9673   */\n    tag_97:\n        /* \"#utility.yul\":9633:9640   */\n      0x00\n        /* \"#utility.yul\":9662:9667   */\n      dup2\n        /* \"#utility.yul\":9651:9667   */\n      swap1\n      pop\n        /* \"#utility.yul\":9595:9673   */\n      swap2\n      swap1\n      pop\n      jump\t// out\n        /* \"#utility.yul\":9679:9832   */\n    tag_98:\n        /* \"#utility.yul\":9782:9825   */\n      tag_202\n        /* \"#utility.yul\":9801:9824   */\n      tag_203\n        /* \"#utility.yul\":9818:9823   */\n      dup3\n        /* \"#utility.yul\":9801:9824   */\n      tag_96\n      jump\t// in\n    tag_203:\n        /* \"#utility.yul\":9782:9825   */\n      tag_97\n      jump\t// in\n    tag_202:\n        /* \"#utility.yul\":9777:9780   */\n      dup3\n        /* \"#utility.yul\":9770:9826   */\n      mstore\n        /* \"#utility.yul\":9679:9832   */\n      pop\n      pop\n      jump\t// out\n        /* \"#utility.yul\":9838:10089   */\n    tag_30:\n        /* \"#utility.yul\":9948:9951   */\n      0x00\n        /* \"#utility.yul\":9963:10036   */\n      tag_205\n        /* \"#utility.yul\":10032:10035   */\n      dup3\n        /* \"#utility.yul\":10023:10029   */\n      dup5\n        /* \"#utility.yul\":9963:10036   */\n      tag_98\n      jump\t// in\n    tag_205:\n        /* \"#utility.yul\":10061:10062   */\n      0x01\n        /* \"#utility.yul\":10056:10059   */\n      dup3\n        /* \"#utility.yul\":10052:10063   */\n      add\n        /* \"#utility.yul\":10045:10063   */\n      swap2\n      pop\n        /* \"#utility.yul\":10080:10083   */\n      dup2\n        /* \"#utility.yul\":10073:10083   */\n      swap1\n      pop\n        /* \"#utility.yul\":9838:10089   */\n      swap3\n      swap2\n      pop\n      pop\n      jump\t// out\n        /* \"#utility.yul\":10095:10275   */\n    tag_99:\n        /* \"#utility.yul\":10143:10220   */\n      0x4e487b7100000000000000000000000000000000000000000000000000000000\n        /* \"#utility.yul\":10140:10141   */\n      0x00\n        /* \"#utility.yul\":10133:10221   */\n      mstore\n        /* \"#utility.yul\":10240:10244   */\n      0x11\n        /* \"#utility.yul\":10237:10238   */\n      0x04\n        /* \"#utility.yul\":10230:10245   */\n      mstore\n        /* \"#utility.yul\":10264:10268   */\n      0x24\n        /* \"#utility.yul\":10261:10262   */\n      0x00\n        /* \"#utility.yul\":10254:10269   */\n      revert\n        /* \"#utility.yul\":10281:10514   */\n    tag_34:\n        /* \"#utility.yul\":10320:10323   */\n      0x00\n        /* \"#utility.yul\":10343:10367   */\n      tag_208\n        /* \"#utility.yul\":10361:10366   */\n      dup3\n        /* \"#utility.yul\":10343:10367   */\n      tag_75\n      jump\t// in\n    tag_208:\n        /* \"#utility.yul\":10334:10367   */\n      swap2\n      pop\n        /* \"#utility.yul\":10389:10455   */\n      0xffffffffffffffffffffffffffffffffffffffffffffffffffffffffffffffff\n        /* \"#utility.yul\":10382:10387   */\n      dup3\n        /* \"#utility.yul\":10379:10456   */\n      sub\n        /* \"#utility.yul\":10376:10479   */\n      tag_209\n      jumpi\n        /* \"#utility.yul\":10459:10477   */\n      tag_210\n      tag_99\n      jump\t// in\n    tag_210:\n        /* \"#utility.yul\":10376:10479   */\n    tag_209:\n        /* \"#utility.yul\":10506:10507   */\n      0x01\n        /* \"#utility.yul\":10499:10504   */\n      dup3\n        /* \"#utility.yul\":10495:10508   */\n      add\n        /* \"#utility.yul\":10488:10508   */\n      swap1\n      pop\n        /* \"#utility.yul\":10281:10514   */\n      swap2\n      swap1\n      pop\n      jump\t// out\n        /* \"#utility.yul\":10520:10700   */\n    tag_100:\n        /* \"#utility.yul\":10568:10645   */\n      0x4e487b7100000000000000000000000000000000000000000000000000000000\n        /* \"#utility.yul\":10565:10566   */\n      0x00\n        /* \"#utility.yul\":10558:10646   */\n      mstore\n        /* \"#utility.yul\":10665:10669   */\n      0x12\n        /* \"#utility.yul\":10662:10663   */\n      0x04\n        /* \"#utility.yul\":10655:10670   */\n      mstore\n        /* \"#utility.yul\":10689:10693   */\n      0x24\n        /* \"#utility.yul\":10686:10687   */\n      0x00\n        /* \"#utility.yul\":10679:10694   */\n      revert\n        /* \"#utility.yul\":10706:10891   */\n    tag_46:\n        /* \"#utility.yul\":10746:10747   */\n      0x00\n        /* \"#utility.yul\":10763:10783   */\n      tag_213\n        /* \"#utility.yul\":10781:10782   */\n      dup3\n        /* \"#utility.yul\":10763:10783   */\n      tag_75\n      jump\t// in\n    tag_213:\n        /* \"#utility.yul\":10758:10783   */\n      swap2\n      pop\n        /* \"#utility.yul\":10797:10817   */\n      tag_214\n        /* \"#utility.yul\":10815:10816   */\n      dup4\n        /* \"#utility.yul\":10797:10817   */\n      tag_75\n      jump\t// in\n    tag_214:\n        /* \"#utility.yul\":10792:10817   */\n      swap3\n      pop\n        /* \"#utility.yul\":10836:10837   */\n      dup3\n        /* \"#utility.yul\":10826:10861   */\n      tag_215\n      jumpi\n        /* \"#utility.yul\":10841:10859   */\n      tag_216\n      tag_100\n      jump\t// in\n    tag_216:\n        /* \"#utility.yul\":10826:10861   */\n    tag_215:\n        /* \"#utility.yul\":10883:10884   */\n      dup3\n        /* \"#utility.yul\":10880:10881   */\n      dup3\n        /* \"#utility.yul\":10876:10885   */\n      div\n        /* \"#utility.yul\":10871:10885   */\n      swap1\n      pop\n        /* \"#utility.yul\":10706:10891   */\n      swap3\n      swap2\n      pop\n      pop\n      jump\t// out\n        /* \"#utility.yul\":10897:11073   */\n    tag_55:\n        /* \"#utility.yul\":10929:10930   */\n      0x00\n        /* \"#utility.yul\":10946:10966   */\n      tag_218\n        /* \"#utility.yul\":10964:10965   */\n      dup3\n        /* \"#utility.yul\":10946:10966   */\n      tag_75\n      jump\t// in\n    tag_218:\n        /* \"#utility.yul\":10941:10966   */\n      swap2\n      pop\n        /* \"#utility.yul\":10980:11000   */\n      tag_219\n        /* \"#utility.yul\":10998:10999   */\n      dup4\n        /* \"#utility.yul\":10980:11000   */\n      tag_75\n      jump\t// in\n    tag_219:\n        /* \"#utility.yul\":10975:11000   */\n      swap3\n      pop\n        /* \"#utility.yul\":11019:11020   */\n      dup3\n        /* \"#utility.yul\":11009:11044   */\n      tag_220\n      jumpi\n        /* \"#utility.yul\":11024:11042   */\n      tag_221\n      tag_100\n      jump\t// in\n    tag_221:\n        /* \"#utility.yul\":11009:11044   */\n    tag_220:\n        /* \"#utility.yul\":11065:11066   */\n      dup3\n        /* \"#utility.yul\":11062:11063   */\n      dup3\n        /* \"#utility.yul\":11058:11067   */\n      mod\n        /* \"#utility.yul\":11053:11067   */\n      swap1\n      pop\n        /* \"#utility.yul\":10897:11073   */\n      swap3\n      swap2\n      pop\n      pop\n      jump\t// out\n        /* \"#utility.yul\":11079:11273   */\n    tag_57:\n        /* \"#utility.yul\":11119:11123   */\n      0x00\n        /* \"#utility.yul\":11139:11159   */\n      tag_223\n        /* \"#utility.yul\":11157:11158   */\n      dup3\n        /* \"#utility.yul\":11139:11159   */\n      tag_75\n      jump\t// in\n    tag_223:\n        /* \"#utility.yul\":11134:11159   */\n      swap2\n      pop\n        /* \"#utility.yul\":11173:11193   */\n      tag_224\n        /* \"#utility.yul\":11191:11192   */\n      dup4\n        /* \"#utility.yul\":11173:11193   */\n      tag_75\n      jump\t// in\n    tag_224:\n        /* \"#utility.yul\":11168:11193   */\n      swap3\n      pop\n        /* \"#utility.yul\":11217:11218   */\n      dup3\n        /* \"#utility.yul\":11214:11215   */\n      dup3\n        /* \"#utility.yul\":11210:11219   */\n      sub\n        /* \"#utility.yul\":11202:11219   */\n      swap1\n      pop\n        /* \"#utility.yul\":11241:11242   */\n      dup2\n        /* \"#utility.yul\":11235:11239   */\n      dup2\n        /* \"#utility.yul\":11232:11243   */\n      gt\n        /* \"#utility.yul\":11229:11266   */\n      iszero\n      tag_225\n      jumpi\n        /* \"#utility.yul\":11246:11264   */\n      tag_226\n      tag_99\n      jump\t// in\n    tag_226:\n        /* \"#utility.yul\":11229:11266   */\n    tag_225:\n        /* \"#utility.yul\":11079:11273   */\n      swap3\n      swap2\n      pop\n      pop\n      jump\t// out\n\n    auxdata: 0xa26469706673582212202070a2dfaed3524e9aa0b5fdca74039905cd73f4543faab81076bc6a1d87535a64736f6c63430008120033\n}\n",
				"bytecode": {
					"linkReferences": {},
					"object": "608060405234801561001057600080fd5b5061098e806100206000396000f3fe608060405234801561001057600080fd5b50600436106100365760003560e01c8063a9593aa91461003b578063b5e71f151461006c575b600080fd5b6100556004803603810190610050919061046b565b61009d565b60405161006392919061060e565b60405180910390f35b6100866004803603810190610081919061066a565b610186565b604051610094929190610755565b60405180910390f35b60006060600083905060008151905060008167ffffffffffffffff8111156100c8576100c7610340565b5b6040519080825280602002602001820160405280156100fb57816020015b60608152602001906001900390816100e65790505b50905060005b828110156101775783818151811061011c5761011b610785565b5b602001015160f81c60f81b6040516020016101379190610801565b60405160208183030381529060405282828151811061015957610158610785565b5b6020026020010181905250808061016f9061084b565b915050610101565b50818194509450505050915091565b6000606060008390506000808203610216576000600167ffffffffffffffff8111156101b5576101b4610340565b5b6040519080825280602002602001820160405280156101e35781602001602082028036833780820191505090505b50905082816000815181106101fb576101fa610785565b5b6020026020010181815250508051819450945050505061030c565b5b6000821461024157600a8261022c91906108c2565b915080806102399061084b565b915050610217565b84915060008167ffffffffffffffff8111156102605761025f610340565b5b60405190808252806020026020018201604052801561028e5781602001602082028036833780820191505090505b50905060005b8281101561030157600a846102a991906108f3565b82826001866102b89190610924565b6102c29190610924565b815181106102d3576102d2610785565b5b602002602001018181525050600a846102ec91906108c2565b935080806102f99061084b565b915050610294565b508181945094505050505b915091565b6000604051905090565b600080fd5b600080fd5b600080fd5b600080fd5b6000601f19601f8301169050919050565b7f4e487b7100000000000000000000000000000000000000000000000000000000600052604160045260246000fd5b6103788261032f565b810181811067ffffffffffffffff8211171561039757610396610340565b5b80604052505050565b60006103aa610311565b90506103b6828261036f565b919050565b600067ffffffffffffffff8211156103d6576103d5610340565b5b6103df8261032f565b9050602081019050919050565b82818337600083830152505050565b600061040e610409846103bb565b6103a0565b90508281526020810184848401111561042a5761042961032a565b5b6104358482856103ec565b509392505050565b600082601f83011261045257610451610325565b5b81356104628482602086016103fb565b91505092915050565b6000602082840312156104815761048061031b565b5b600082013567ffffffffffffffff81111561049f5761049e610320565b5b6104ab8482850161043d565b91505092915050565b6000819050919050565b6104c7816104b4565b82525050565b600081519050919050565b600082825260208201905092915050565b6000819050602082019050919050565b600081519050919050565b600082825260208201905092915050565b60005b83811015610533578082015181840152602081019050610518565b60008484015250505050565b600061054a826104f9565b6105548185610504565b9350610564818560208601610515565b61056d8161032f565b840191505092915050565b6000610584838361053f565b905092915050565b6000602082019050919050565b60006105a4826104cd565b6105ae81856104d8565b9350836020820285016105c0856104e9565b8060005b858110156105fc57848403895281516105dd8582610578565b94506105e88361058c565b925060208a019950506001810190506105c4565b50829750879550505050505092915050565b600060408201905061062360008301856104be565b81810360208301526106358184610599565b90509392505050565b610647816104b4565b811461065257600080fd5b50565b6000813590506106648161063e565b92915050565b6000602082840312156106805761067f61031b565b5b600061068e84828501610655565b91505092915050565b600081519050919050565b600082825260208201905092915050565b6000819050602082019050919050565b6106cc816104b4565b82525050565b60006106de83836106c3565b60208301905092915050565b6000602082019050919050565b600061070282610697565b61070c81856106a2565b9350610717836106b3565b8060005b8381101561074857815161072f88826106d2565b975061073a836106ea565b92505060018101905061071b565b5085935050505092915050565b600060408201905061076a60008301856104be565b818103602083015261077c81846106f7565b90509392505050565b7f4e487b7100000000000000000000000000000000000000000000000000000000600052603260045260246000fd5b60007fff0000000000000000000000000000000000000000000000000000000000000082169050919050565b6000819050919050565b6107fb6107f6826107b4565b6107e0565b82525050565b600061080d82846107ea565b60018201915081905092915050565b7f4e487b7100000000000000000000000000000000000000000000000000000000600052601160045260246000fd5b6000610856826104b4565b91507fffffffffffffffffffffffffffffffffffffffffffffffffffffffffffffffff82036108885761088761081c565b5b600182019050919050565b7f4e487b7100000000000000000000000000000000000000000000000000000000600052601260045260246000fd5b60006108cd826104b4565b91506108d8836104b4565b9250826108e8576108e7610893565b5b828204905092915050565b60006108fe826104b4565b9150610909836104b4565b92508261091957610918610893565b5b828206905092915050565b600061092f826104b4565b915061093a836104b4565b92508282039050818111156109525761095161081c565b5b9291505056fea26469706673582212202070a2dfaed3524e9aa0b5fdca74039905cd73f4543faab81076bc6a1d87535a64736f6c63430008120033",
					"opcodes": "PUSH1 0x80 PUSH1 0x40 MSTORE CALLVALUE DUP1 ISZERO PUSH2 0x10 JUMPI PUSH1 0x0 DUP1 REVERT JUMPDEST POP PUSH2 0x98E DUP1 PUSH2 0x20 PUSH1 0x0 CODECOPY PUSH1 0x0 RETURN INVALID PUSH1 0x80 PUSH1 0x40 MSTORE CALLVALUE DUP1 ISZERO PUSH2 0x10 JUMPI PUSH1 0x0 DUP1 REVERT JUMPDEST POP PUSH1 0x4 CALLDATASIZE LT PUSH2 0x36 JUMPI PUSH1 0x0 CALLDATALOAD PUSH1 0xE0 SHR DUP1 PUSH4 0xA9593AA9 EQ PUSH2 0x3B JUMPI DUP1 PUSH4 0xB5E71F15 EQ PUSH2 0x6C JUMPI JUMPDEST PUSH1 0x0 DUP1 REVERT JUMPDEST PUSH2 0x55 PUSH1 0x4 DUP1 CALLDATASIZE SUB DUP2 ADD SWAP1 PUSH2 0x50 SWAP2 SWAP1 PUSH2 0x46B JUMP JUMPDEST PUSH2 0x9D JUMP JUMPDEST PUSH1 0x40 MLOAD PUSH2 0x63 SWAP3 SWAP2 SWAP1 PUSH2 0x60E JUMP JUMPDEST PUSH1 0x40 MLOAD DUP1 SWAP2 SUB SWAP1 RETURN JUMPDEST PUSH2 0x86 PUSH1 0x4 DUP1 CALLDATASIZE SUB DUP2 ADD SWAP1 PUSH2 0x81 SWAP2 SWAP1 PUSH2 0x66A JUMP JUMPDEST PUSH2 0x186 JUMP JUMPDEST PUSH1 0x40 MLOAD PUSH2 0x94 SWAP3 SWAP2 SWAP1 PUSH2 0x755 JUMP JUMPDEST PUSH1 0x40 MLOAD DUP1 SWAP2 SUB SWAP1 RETURN JUMPDEST PUSH1 0x0 PUSH1 0x60 PUSH1 0x0 DUP4 SWAP1 POP PUSH1 0x0 DUP2 MLOAD SWAP1 POP PUSH1 0x0 DUP2 PUSH8 0xFFFFFFFFFFFFFFFF DUP2 GT ISZERO PUSH2 0xC8 JUMPI PUSH2 0xC7 PUSH2 0x340 JUMP JUMPDEST JUMPDEST PUSH1 0x40 MLOAD SWAP1 DUP1 DUP3 MSTORE DUP1 PUSH1 0x20 MUL PUSH1 0x20 ADD DUP3 ADD PUSH1 0x40 MSTORE DUP1 ISZERO PUSH2 0xFB JUMPI DUP2 PUSH1 0x20 ADD JUMPDEST PUSH1 0x60 DUP2 MSTORE PUSH1 0x20 ADD SWAP1 PUSH1 0x1 SWAP1 SUB SWAP1 DUP2 PUSH2 0xE6 JUMPI SWAP1 POP JUMPDEST POP SWAP1 POP PUSH1 0x0 JUMPDEST DUP3 DUP2 LT ISZERO PUSH2 0x177 JUMPI DUP4 DUP2 DUP2 MLOAD DUP2 LT PUSH2 0x11C JUMPI PUSH2 0x11B PUSH2 0x785 JUMP JUMPDEST JUMPDEST PUSH1 0x20 ADD ADD MLOAD PUSH1 0xF8 SHR PUSH1 0xF8 SHL PUSH1 0x40 MLOAD PUSH1 0x20 ADD PUSH2 0x137 SWAP2 SWAP1 PUSH2 0x801 JUMP JUMPDEST PUSH1 0x40 MLOAD PUSH1 0x20 DUP2 DUP4 SUB SUB DUP2 MSTORE SWAP1 PUSH1 0x40 MSTORE DUP3 DUP3 DUP2 MLOAD DUP2 LT PUSH2 0x159 JUMPI PUSH2 0x158 PUSH2 0x785 JUMP JUMPDEST JUMPDEST PUSH1 0x20 MUL PUSH1 0x20 ADD ADD DUP2 SWAP1 MSTORE POP DUP1 DUP1 PUSH2 0x16F SWAP1 PUSH2 0x84B JUMP JUMPDEST SWAP2 POP POP PUSH2 0x101 JUMP JUMPDEST POP DUP2 DUP2 SWAP5 POP SWAP5 POP POP POP POP SWAP2 POP SWAP2 JUMP JUMPDEST PUSH1 0x0 PUSH1 0x60 PUSH1 0x0 DUP4 SWAP1 POP PUSH1 0x0 DUP1 DUP3 SUB PUSH2 0x216 JUMPI PUSH1 0x0 PUSH1 0x1 PUSH8 0xFFFFFFFFFFFFFFFF DUP2 GT ISZERO PUSH2 0x1B5 JUMPI PUSH2 0x1B4 PUSH2 0x340 JUMP JUMPDEST JUMPDEST PUSH1 0x40 MLOAD SWAP1 DUP1 DUP3 MSTORE DUP1 PUSH1 0x20 MUL PUSH1 0x20 ADD DUP3 ADD PUSH1 0x40 MSTORE DUP1 ISZERO PUSH2 0x1E3 JUMPI DUP2 PUSH1 0x20 ADD PUSH1 0x20 DUP3 MUL DUP1 CALLDATASIZE DUP4 CALLDATACOPY DUP1 DUP3 ADD SWAP2 POP POP SWAP1 POP JUMPDEST POP SWAP1 POP DUP3 DUP2 PUSH1 0x0 DUP2 MLOAD DUP2 LT PUSH2 0x1FB JUMPI PUSH2 0x1FA PUSH2 0x785 JUMP JUMPDEST JUMPDEST PUSH1 0x20 MUL PUSH1 0x20 ADD ADD DUP2 DUP2 MSTORE POP POP DUP1 MLOAD DUP2 SWAP5 POP SWAP5 POP POP POP POP PUSH2 0x30C JUMP JUMPDEST JUMPDEST PUSH1 0x0 DUP3 EQ PUSH2 0x241 JUMPI PUSH1 0xA DUP3 PUSH2 0x22C SWAP2 SWAP1 PUSH2 0x8C2 JUMP JUMPDEST SWAP2 POP DUP1 DUP1 PUSH2 0x239 SWAP1 PUSH2 0x84B JUMP JUMPDEST SWAP2 POP POP PUSH2 0x217 JUMP JUMPDEST DUP5 SWAP2 POP PUSH1 0x0 DUP2 PUSH8 0xFFFFFFFFFFFFFFFF DUP2 GT ISZERO PUSH2 0x260 JUMPI PUSH2 0x25F PUSH2 0x340 JUMP JUMPDEST JUMPDEST PUSH1 0x40 MLOAD SWAP1 DUP1 DUP3 MSTORE DUP1 PUSH1 0x20 MUL PUSH1 0x20 ADD DUP3 ADD PUSH1 0x40 MSTORE DUP1 ISZERO PUSH2 0x28E JUMPI DUP2 PUSH1 0x20 ADD PUSH1 0x20 DUP3 MUL DUP1 CALLDATASIZE DUP4 CALLDATACOPY DUP1 DUP3 ADD SWAP2 POP POP SWAP1 POP JUMPDEST POP SWAP1 POP PUSH1 0x0 JUMPDEST DUP3 DUP2 LT ISZERO PUSH2 0x301 JUMPI PUSH1 0xA DUP5 PUSH2 0x2A9 SWAP2 SWAP1 PUSH2 0x8F3 JUMP JUMPDEST DUP3 DUP3 PUSH1 0x1 DUP7 PUSH2 0x2B8 SWAP2 SWAP1 PUSH2 0x924 JUMP JUMPDEST PUSH2 0x2C2 SWAP2 SWAP1 PUSH2 0x924 JUMP JUMPDEST DUP2 MLOAD DUP2 LT PUSH2 0x2D3 JUMPI PUSH2 0x2D2 PUSH2 0x785 JUMP JUMPDEST JUMPDEST PUSH1 0x20 MUL PUSH1 0x20 ADD ADD DUP2 DUP2 MSTORE POP POP PUSH1 0xA DUP5 PUSH2 0x2EC SWAP2 SWAP1 PUSH2 0x8C2 JUMP JUMPDEST SWAP4 POP DUP1 DUP1 PUSH2 0x2F9 SWAP1 PUSH2 0x84B JUMP JUMPDEST SWAP2 POP POP PUSH2 0x294 JUMP JUMPDEST POP DUP2 DUP2 SWAP5 POP SWAP5 POP POP POP POP JUMPDEST SWAP2 POP SWAP2 JUMP JUMPDEST PUSH1 0x0 PUSH1 0x40 MLOAD SWAP1 POP SWAP1 JUMP JUMPDEST PUSH1 0x0 DUP1 REVERT JUMPDEST PUSH1 0x0 DUP1 REVERT JUMPDEST PUSH1 0x0 DUP1 REVERT JUMPDEST PUSH1 0x0 DUP1 REVERT JUMPDEST PUSH1 0x0 PUSH1 0x1F NOT PUSH1 0x1F DUP4 ADD AND SWAP1 POP SWAP2 SWAP1 POP JUMP JUMPDEST PUSH32 0x4E487B7100000000000000000000000000000000000000000000000000000000 PUSH1 0x0 MSTORE PUSH1 0x41 PUSH1 0x4 MSTORE PUSH1 0x24 PUSH1 0x0 REVERT JUMPDEST PUSH2 0x378 DUP3 PUSH2 0x32F JUMP JUMPDEST DUP2 ADD DUP2 DUP2 LT PUSH8 0xFFFFFFFFFFFFFFFF DUP3 GT OR ISZERO PUSH2 0x397 JUMPI PUSH2 0x396 PUSH2 0x340 JUMP JUMPDEST JUMPDEST DUP1 PUSH1 0x40 MSTORE POP POP POP JUMP JUMPDEST PUSH1 0x0 PUSH2 0x3AA PUSH2 0x311 JUMP JUMPDEST SWAP1 POP PUSH2 0x3B6 DUP3 DUP3 PUSH2 0x36F JUMP JUMPDEST SWAP2 SWAP1 POP JUMP JUMPDEST PUSH1 0x0 PUSH8 0xFFFFFFFFFFFFFFFF DUP3 GT ISZERO PUSH2 0x3D6 JUMPI PUSH2 0x3D5 PUSH2 0x340 JUMP JUMPDEST JUMPDEST PUSH2 0x3DF DUP3 PUSH2 0x32F JUMP JUMPDEST SWAP1 POP PUSH1 0x20 DUP2 ADD SWAP1 POP SWAP2 SWAP1 POP JUMP JUMPDEST DUP3 DUP2 DUP4 CALLDATACOPY PUSH1 0x0 DUP4 DUP4 ADD MSTORE POP POP POP JUMP JUMPDEST PUSH1 0x0 PUSH2 0x40E PUSH2 0x409 DUP5 PUSH2 0x3BB JUMP JUMPDEST PUSH2 0x3A0 JUMP JUMPDEST SWAP1 POP DUP3 DUP2 MSTORE PUSH1 0x20 DUP2 ADD DUP5 DUP5 DUP5 ADD GT ISZERO PUSH2 0x42A JUMPI PUSH2 0x429 PUSH2 0x32A JUMP JUMPDEST JUMPDEST PUSH2 0x435 DUP5 DUP3 DUP6 PUSH2 0x3EC JUMP JUMPDEST POP SWAP4 SWAP3 POP POP POP JUMP JUMPDEST PUSH1 0x0 DUP3 PUSH1 0x1F DUP4 ADD SLT PUSH2 0x452 JUMPI PUSH2 0x451 PUSH2 0x325 JUMP JUMPDEST JUMPDEST DUP2 CALLDATALOAD PUSH2 0x462 DUP5 DUP3 PUSH1 0x20 DUP7 ADD PUSH2 0x3FB JUMP JUMPDEST SWAP2 POP POP SWAP3 SWAP2 POP POP JUMP JUMPDEST PUSH1 0x0 PUSH1 0x20 DUP3 DUP5 SUB SLT ISZERO PUSH2 0x481 JUMPI PUSH2 0x480 PUSH2 0x31B JUMP JUMPDEST JUMPDEST PUSH1 0x0 DUP3 ADD CALLDATALOAD PUSH8 0xFFFFFFFFFFFFFFFF DUP2 GT ISZERO PUSH2 0x49F JUMPI PUSH2 0x49E PUSH2 0x320 JUMP JUMPDEST JUMPDEST PUSH2 0x4AB DUP5 DUP3 DUP6 ADD PUSH2 0x43D JUMP JUMPDEST SWAP2 POP POP SWAP3 SWAP2 POP POP JUMP JUMPDEST PUSH1 0x0 DUP2 SWAP1 POP SWAP2 SWAP1 POP JUMP JUMPDEST PUSH2 0x4C7 DUP2 PUSH2 0x4B4 JUMP JUMPDEST DUP3 MSTORE POP POP JUMP JUMPDEST PUSH1 0x0 DUP2 MLOAD SWAP1 POP SWAP2 SWAP1 POP JUMP JUMPDEST PUSH1 0x0 DUP3 DUP3 MSTORE PUSH1 0x20 DUP3 ADD SWAP1 POP SWAP3 SWAP2 POP POP JUMP JUMPDEST PUSH1 0x0 DUP2 SWAP1 POP PUSH1 0x20 DUP3 ADD SWAP1 POP SWAP2 SWAP1 POP JUMP JUMPDEST PUSH1 0x0 DUP2 MLOAD SWAP1 POP SWAP2 SWAP1 POP JUMP JUMPDEST PUSH1 0x0 DUP3 DUP3 MSTORE PUSH1 0x20 DUP3 ADD SWAP1 POP SWAP3 SWAP2 POP POP JUMP JUMPDEST PUSH1 0x0 JUMPDEST DUP4 DUP2 LT ISZERO PUSH2 0x533 JUMPI DUP1 DUP3 ADD MLOAD DUP2 DUP5 ADD MSTORE PUSH1 0x20 DUP2 ADD SWAP1 POP PUSH2 0x518 JUMP JUMPDEST PUSH1 0x0 DUP5 DUP5 ADD MSTORE POP POP POP POP JUMP JUMPDEST PUSH1 0x0 PUSH2 0x54A DUP3 PUSH2 0x4F9 JUMP JUMPDEST PUSH2 0x554 DUP2 DUP6 PUSH2 0x504 JUMP JUMPDEST SWAP4 POP PUSH2 0x564 DUP2 DUP6 PUSH1 0x20 DUP7 ADD PUSH2 0x515 JUMP JUMPDEST PUSH2 0x56D DUP2 PUSH2 0x32F JUMP JUMPDEST DUP5 ADD SWAP2 POP POP SWAP3 SWAP2 POP POP JUMP JUMPDEST PUSH1 0x0 PUSH2 0x584 DUP4 DUP4 PUSH2 0x53F JUMP JUMPDEST SWAP1 POP SWAP3 SWAP2 POP POP JUMP JUMPDEST PUSH1 0x0 PUSH1 0x20 DUP3 ADD SWAP1 POP SWAP2 SWAP1 POP JUMP JUMPDEST PUSH1 0x0 PUSH2 0x5A4 DUP3 PUSH2 0x4CD JUMP JUMPDEST PUSH2 0x5AE DUP2 DUP6 PUSH2 0x4D8 JUMP JUMPDEST SWAP4 POP DUP4 PUSH1 0x20 DUP3 MUL DUP6 ADD PUSH2 0x5C0 DUP6 PUSH2 0x4E9 JUMP JUMPDEST DUP1 PUSH1 0x0 JUMPDEST DUP6 DUP2 LT ISZERO PUSH2 0x5FC JUMPI DUP5 DUP5 SUB DUP10 MSTORE DUP2 MLOAD PUSH2 0x5DD DUP6 DUP3 PUSH2 0x578 JUMP JUMPDEST SWAP5 POP PUSH2 0x5E8 DUP4 PUSH2 0x58C JUMP JUMPDEST SWAP3 POP PUSH1 0x20 DUP11 ADD SWAP10 POP POP PUSH1 0x1 DUP2 ADD SWAP1 POP PUSH2 0x5C4 JUMP JUMPDEST POP DUP3 SWAP8 POP DUP8 SWAP6 POP POP POP POP POP POP SWAP3 SWAP2 POP POP JUMP JUMPDEST PUSH1 0x0 PUSH1 0x40 DUP3 ADD SWAP1 POP PUSH2 0x623 PUSH1 0x0 DUP4 ADD DUP6 PUSH2 0x4BE JUMP JUMPDEST DUP2 DUP2 SUB PUSH1 0x20 DUP4 ADD MSTORE PUSH2 0x635 DUP2 DUP5 PUSH2 0x599 JUMP JUMPDEST SWAP1 POP SWAP4 SWAP3 POP POP POP JUMP JUMPDEST PUSH2 0x647 DUP2 PUSH2 0x4B4 JUMP JUMPDEST DUP2 EQ PUSH2 0x652 JUMPI PUSH1 0x0 DUP1 REVERT JUMPDEST POP JUMP JUMPDEST PUSH1 0x0 DUP2 CALLDATALOAD SWAP1 POP PUSH2 0x664 DUP2 PUSH2 0x63E JUMP JUMPDEST SWAP3 SWAP2 POP POP JUMP JUMPDEST PUSH1 0x0 PUSH1 0x20 DUP3 DUP5 SUB SLT ISZERO PUSH2 0x680 JUMPI PUSH2 0x67F PUSH2 0x31B JUMP JUMPDEST JUMPDEST PUSH1 0x0 PUSH2 0x68E DUP5 DUP3 DUP6 ADD PUSH2 0x655 JUMP JUMPDEST SWAP2 POP POP SWAP3 SWAP2 POP POP JUMP JUMPDEST PUSH1 0x0 DUP2 MLOAD SWAP1 POP SWAP2 SWAP1 POP JUMP JUMPDEST PUSH1 0x0 DUP3 DUP3 MSTORE PUSH1 0x20 DUP3 ADD SWAP1 POP SWAP3 SWAP2 POP POP JUMP JUMPDEST PUSH1 0x0 DUP2 SWAP1 POP PUSH1 0x20 DUP3 ADD SWAP1 POP SWAP2 SWAP1 POP JUMP JUMPDEST PUSH2 0x6CC DUP2 PUSH2 0x4B4 JUMP JUMPDEST DUP3 MSTORE POP POP JUMP JUMPDEST PUSH1 0x0 PUSH2 0x6DE DUP4 DUP4 PUSH2 0x6C3 JUMP JUMPDEST PUSH1 0x20 DUP4 ADD SWAP1 POP SWAP3 SWAP2 POP POP JUMP JUMPDEST PUSH1 0x0 PUSH1 0x20 DUP3 ADD SWAP1 POP SWAP2 SWAP1 POP JUMP JUMPDEST PUSH1 0x0 PUSH2 0x702 DUP3 PUSH2 0x697 JUMP JUMPDEST PUSH2 0x70C DUP2 DUP6 PUSH2 0x6A2 JUMP JUMPDEST SWAP4 POP PUSH2 0x717 DUP4 PUSH2 0x6B3 JUMP JUMPDEST DUP1 PUSH1 0x0 JUMPDEST DUP4 DUP2 LT ISZERO PUSH2 0x748 JUMPI DUP2 MLOAD PUSH2 0x72F DUP9 DUP3 PUSH2 0x6D2 JUMP JUMPDEST SWAP8 POP PUSH2 0x73A DUP4 PUSH2 0x6EA JUMP JUMPDEST SWAP3 POP POP PUSH1 0x1 DUP2 ADD SWAP1 POP PUSH2 0x71B JUMP JUMPDEST POP DUP6 SWAP4 POP POP POP POP SWAP3 SWAP2 POP POP JUMP JUMPDEST PUSH1 0x0 PUSH1 0x40 DUP3 ADD SWAP1 POP PUSH2 0x76A PUSH1 0x0 DUP4 ADD DUP6 PUSH2 0x4BE JUMP JUMPDEST DUP2 DUP2 SUB PUSH1 0x20 DUP4 ADD MSTORE PUSH2 0x77C DUP2 DUP5 PUSH2 0x6F7 JUMP JUMPDEST SWAP1 POP SWAP4 SWAP3 POP POP POP JUMP JUMPDEST PUSH32 0x4E487B7100000000000000000000000000000000000000000000000000000000 PUSH1 0x0 MSTORE PUSH1 0x32 PUSH1 0x4 MSTORE PUSH1 0x24 PUSH1 0x0 REVERT JUMPDEST PUSH1 0x0 PUSH32 0xFF00000000000000000000000000000000000000000000000000000000000000 DUP3 AND SWAP1 POP SWAP2 SWAP1 POP JUMP JUMPDEST PUSH1 0x0 DUP2 SWAP1 POP SWAP2 SWAP1 POP JUMP JUMPDEST PUSH2 0x7FB PUSH2 0x7F6 DUP3 PUSH2 0x7B4 JUMP JUMPDEST PUSH2 0x7E0 JUMP JUMPDEST DUP3 MSTORE POP POP JUMP JUMPDEST PUSH1 0x0 PUSH2 0x80D DUP3 DUP5 PUSH2 0x7EA JUMP JUMPDEST PUSH1 0x1 DUP3 ADD SWAP2 POP DUP2 SWAP1 POP SWAP3 SWAP2 POP POP JUMP JUMPDEST PUSH32 0x4E487B7100000000000000000000000000000000000000000000000000000000 PUSH1 0x0 MSTORE PUSH1 0x11 PUSH1 0x4 MSTORE PUSH1 0x24 PUSH1 0x0 REVERT JUMPDEST PUSH1 0x0 PUSH2 0x856 DUP3 PUSH2 0x4B4 JUMP JUMPDEST SWAP2 POP PUSH32 0xFFFFFFFFFFFFFFFFFFFFFFFFFFFFFFFFFFFFFFFFFFFFFFFFFFFFFFFFFFFFFFFF DUP3 SUB PUSH2 0x888 JUMPI PUSH2 0x887 PUSH2 0x81C JUMP JUMPDEST JUMPDEST PUSH1 0x1 DUP3 ADD SWAP1 POP SWAP2 SWAP1 POP JUMP JUMPDEST PUSH32 0x4E487B7100000000000000000000000000000000000000000000000000000000 PUSH1 0x0 MSTORE PUSH1 0x12 PUSH1 0x4 MSTORE PUSH1 0x24 PUSH1 0x0 REVERT JUMPDEST PUSH1 0x0 PUSH2 0x8CD DUP3 PUSH2 0x4B4 JUMP JUMPDEST SWAP2 POP PUSH2 0x8D8 DUP4 PUSH2 0x4B4 JUMP JUMPDEST SWAP3 POP DUP3 PUSH2 0x8E8 JUMPI PUSH2 0x8E7 PUSH2 0x893 JUMP JUMPDEST JUMPDEST DUP3 DUP3 DIV SWAP1 POP SWAP3 SWAP2 POP POP JUMP JUMPDEST PUSH1 0x0 PUSH2 0x8FE DUP3 PUSH2 0x4B4 JUMP JUMPDEST SWAP2 POP PUSH2 0x909 DUP4 PUSH2 0x4B4 JUMP JUMPDEST SWAP3 POP DUP3 PUSH2 0x919 JUMPI PUSH2 0x918 PUSH2 0x893 JUMP JUMPDEST JUMPDEST DUP3 DUP3 MOD SWAP1 POP SWAP3 SWAP2 POP POP JUMP JUMPDEST PUSH1 0x0 PUSH2 0x92F DUP3 PUSH2 0x4B4 JUMP JUMPDEST SWAP2 POP PUSH2 0x93A DUP4 PUSH2 0x4B4 JUMP JUMPDEST SWAP3 POP DUP3 DUP3 SUB SWAP1 POP DUP2 DUP2 GT ISZERO PUSH2 0x952 JUMPI PUSH2 0x951 PUSH2 0x81C JUMP JUMPDEST JUMPDEST SWAP3 SWAP2 POP POP JUMP INVALID LOG2 PUSH5 0x6970667358 0x22 SLT KECCAK256 KECCAK256 PUSH17 0xA2DFAED3524E9AA0B5FDCA74039905CD73 DELEGATECALL SLOAD EXTCODEHASH 0xAA 0xB8 LT PUSH23 0xBC6A1D87535A64736F6C63430008120033000000000000 "
				},
				"gasEstimates": {
					"creation": {
						"codeDepositCost": "489200",
						"executionCost": "524",
						"totalCost": "489724"
					},
					"external": {
						"seperateNumber(uint256)": "infinite",
						"seperateString(string)": "infinite"
					}
				},
				"methodIdentifiers": {
					"seperateNumber(uint256)": "b5e71f15",
					"seperateString(string)": "a9593aa9"
				}
			},
			"storageLayout": {
				"storage": [],
				"types": null
			},
			"userdoc": {
				"kind": "user",
				"methods": {},
				"version": 1
			}
		}
	}
}