{
	"contracts/230522/initialization.sol": {
		"structuWithMapping": {
			"abi": [
				{
					"inputs": [
						{
							"internalType": "uint256",
							"name": "_n",
							"type": "uint256"
						}
					],
					"name": "getUser",
					"outputs": [
						{
							"internalType": "string",
							"name": "",
							"type": "string"
						},
						{
							"internalType": "address",
							"name": "",
							"type": "address"
						},
						{
							"internalType": "string[]",
							"name": "",
							"type": "string[]"
						}
					],
					"stateMutability": "view",
					"type": "function"
				},
				{
					"inputs": [],
					"name": "getUsers",
					"outputs": [
						{
							"internalType": "uint256",
							"name": "",
							"type": "uint256"
						}
					],
					"stateMutability": "view",
					"type": "function"
				},
				{
					"inputs": [
						{
							"internalType": "string",
							"name": "_name",
							"type": "string"
						}
					],
					"name": "setUser",
					"outputs": [],
					"stateMutability": "nonpayable",
					"type": "function"
				}
			],
			"devdoc": {
				"kind": "dev",
				"methods": {},
				"version": 1
			},
			"evm": {
				"assembly": "    /* \"contracts/230522/initialization.sol\":1763:2330  contract structuWithMapping {... */\n  mstore(0x40, 0x80)\n  callvalue\n  dup1\n  iszero\n  tag_1\n  jumpi\n  0x00\n  dup1\n  revert\ntag_1:\n  pop\n  dataSize(sub_0)\n  dup1\n  dataOffset(sub_0)\n  0x00\n  codecopy\n  0x00\n  return\nstop\n\nsub_0: assembly {\n        /* \"contracts/230522/initialization.sol\":1763:2330  contract structuWithMapping {... */\n      mstore(0x40, 0x80)\n      callvalue\n      dup1\n      iszero\n      tag_1\n      jumpi\n      0x00\n      dup1\n      revert\n    tag_1:\n      pop\n      jumpi(tag_2, lt(calldatasize, 0x04))\n      shr(0xe0, calldataload(0x00))\n      dup1\n      0xce8e3e\n      eq\n      tag_3\n      jumpi\n      dup1\n      0xb0467deb\n      eq\n      tag_4\n      jumpi\n      dup1\n      0xd0020fad\n      eq\n      tag_5\n      jumpi\n    tag_2:\n      0x00\n      dup1\n      revert\n        /* \"contracts/230522/initialization.sol\":2066:2151  function getUsers() public view returns(uint) {... */\n    tag_3:\n      tag_6\n      tag_7\n      jump\t// in\n    tag_6:\n      mload(0x40)\n      tag_8\n      swap2\n      swap1\n      tag_9\n      jump\t// in\n    tag_8:\n      mload(0x40)\n      dup1\n      swap2\n      sub\n      swap1\n      return\n        /* \"contracts/230522/initialization.sol\":2159:2325  function getUser(uint _n) public view returns(string memory, address, string[] memory) {... */\n    tag_4:\n      tag_10\n      0x04\n      dup1\n      calldatasize\n      sub\n      dup2\n      add\n      swap1\n      tag_11\n      swap2\n      swap1\n      tag_12\n      jump\t// in\n    tag_11:\n      tag_13\n      jump\t// in\n    tag_10:\n      mload(0x40)\n      tag_14\n      swap4\n      swap3\n      swap2\n      swap1\n      tag_15\n      jump\t// in\n    tag_14:\n      mload(0x40)\n      dup1\n      swap2\n      sub\n      swap1\n      return\n        /* \"contracts/230522/initialization.sol\":1961:2061  function setUser(string memory _name) public {... */\n    tag_5:\n      tag_16\n      0x04\n      dup1\n      calldatasize\n      sub\n      dup2\n      add\n      swap1\n      tag_17\n      swap2\n      swap1\n      tag_18\n      jump\t// in\n    tag_17:\n      tag_19\n      jump\t// in\n    tag_16:\n      stop\n        /* \"contracts/230522/initialization.sol\":2066:2151  function getUsers() public view returns(uint) {... */\n    tag_7:\n        /* \"contracts/230522/initialization.sol\":2106:2110  uint */\n      0x00\n        /* \"contracts/230522/initialization.sol\":2130:2135  Users */\n      dup1\n        /* \"contracts/230522/initialization.sol\":2130:2142  Users.length */\n      dup1\n      sload\n      swap1\n      pop\n        /* \"contracts/230522/initialization.sol\":2123:2143  return(Users.length) */\n      swap1\n      pop\n        /* \"contracts/230522/initialization.sol\":2066:2151  function getUsers() public view returns(uint) {... */\n      swap1\n      jump\t// out\n        /* \"contracts/230522/initialization.sol\":2159:2325  function getUser(uint _n) public view returns(string memory, address, string[] memory) {... */\n    tag_13:\n        /* \"contracts/230522/initialization.sol\":2205:2218  string memory */\n      0x60\n        /* \"contracts/230522/initialization.sol\":2220:2227  address */\n      0x00\n        /* \"contracts/230522/initialization.sol\":2229:2244  string[] memory */\n      0x60\n        /* \"contracts/230522/initialization.sol\":2265:2270  Users */\n      0x00\n        /* \"contracts/230522/initialization.sol\":2271:2273  _n */\n      dup5\n        /* \"contracts/230522/initialization.sol\":2265:2274  Users[_n] */\n      dup2\n      sload\n      dup2\n      lt\n      tag_22\n      jumpi\n      tag_23\n      tag_24\n      jump\t// in\n    tag_23:\n    tag_22:\n      swap1\n      0x00\n      mstore\n      keccak256(0x00, 0x20)\n      swap1\n      0x04\n      mul\n      add\n        /* \"contracts/230522/initialization.sol\":2265:2279  Users[_n].name */\n      0x00\n      add\n        /* \"contracts/230522/initialization.sol\":2281:2286  Users */\n      0x00\n        /* \"contracts/230522/initialization.sol\":2287:2289  _n */\n      dup6\n        /* \"contracts/230522/initialization.sol\":2281:2290  Users[_n] */\n      dup2\n      sload\n      dup2\n      lt\n      tag_26\n      jumpi\n      tag_27\n      tag_24\n      jump\t// in\n    tag_27:\n    tag_26:\n      swap1\n      0x00\n      mstore\n      keccak256(0x00, 0x20)\n      swap1\n      0x04\n      mul\n      add\n        /* \"contracts/230522/initialization.sol\":2281:2295  Users[_n].addr */\n      0x01\n      add\n      0x00\n      swap1\n      sload\n      swap1\n      0x0100\n      exp\n      swap1\n      div\n      0xffffffffffffffffffffffffffffffffffffffff\n      and\n        /* \"contracts/230522/initialization.sol\":2297:2302  Users */\n      0x00\n        /* \"contracts/230522/initialization.sol\":2303:2305  _n */\n      dup7\n        /* \"contracts/230522/initialization.sol\":2297:2306  Users[_n] */\n      dup2\n      sload\n      dup2\n      lt\n      tag_29\n      jumpi\n      tag_30\n      tag_24\n      jump\t// in\n    tag_30:\n    tag_29:\n      swap1\n      0x00\n      mstore\n      keccak256(0x00, 0x20)\n      swap1\n      0x04\n      mul\n      add\n        /* \"contracts/230522/initialization.sol\":2297:2316  Users[_n].suggested */\n      0x02\n      add\n        /* \"contracts/230522/initialization.sol\":2257:2317  return (Users[_n].name, Users[_n].addr, Users[_n].suggested) */\n      dup3\n      dup1\n      sload\n      tag_32\n      swap1\n      tag_33\n      jump\t// in\n    tag_32:\n      dup1\n      0x1f\n      add\n      0x20\n      dup1\n      swap2\n      div\n      mul\n      0x20\n      add\n      mload(0x40)\n      swap1\n      dup2\n      add\n      0x40\n      mstore\n      dup1\n      swap3\n      swap2\n      swap1\n      dup2\n      dup2\n      mstore\n      0x20\n      add\n      dup3\n      dup1\n      sload\n      tag_34\n      swap1\n      tag_33\n      jump\t// in\n    tag_34:\n      dup1\n      iszero\n      tag_35\n      jumpi\n      dup1\n      0x1f\n      lt\n      tag_36\n      jumpi\n      0x0100\n      dup1\n      dup4\n      sload\n      div\n      mul\n      dup4\n      mstore\n      swap2\n      0x20\n      add\n      swap2\n      jump(tag_35)\n    tag_36:\n      dup3\n      add\n      swap2\n      swap1\n      0x00\n      mstore\n      keccak256(0x00, 0x20)\n      swap1\n    tag_37:\n      dup2\n      sload\n      dup2\n      mstore\n      swap1\n      0x01\n      add\n      swap1\n      0x20\n      add\n      dup1\n      dup4\n      gt\n      tag_37\n      jumpi\n      dup3\n      swap1\n      sub\n      0x1f\n      and\n      dup3\n      add\n      swap2\n    tag_35:\n      pop\n      pop\n      pop\n      pop\n      pop\n      swap3\n      pop\n      dup1\n      dup1\n      sload\n      dup1\n      0x20\n      mul\n      0x20\n      add\n      mload(0x40)\n      swap1\n      dup2\n      add\n      0x40\n      mstore\n      dup1\n      swap3\n      swap2\n      swap1\n      dup2\n      dup2\n      mstore\n      0x20\n      add\n      0x00\n      swap1\n    tag_38:\n      dup3\n      dup3\n      lt\n      iszero\n      tag_39\n      jumpi\n      dup4\n      dup3\n      swap1\n      0x00\n      mstore\n      keccak256(0x00, 0x20)\n      add\n      dup1\n      sload\n      tag_41\n      swap1\n      tag_33\n      jump\t// in\n    tag_41:\n      dup1\n      0x1f\n      add\n      0x20\n      dup1\n      swap2\n      div\n      mul\n      0x20\n      add\n      mload(0x40)\n      swap1\n      dup2\n      add\n      0x40\n      mstore\n      dup1\n      swap3\n      swap2\n      swap1\n      dup2\n      dup2\n      mstore\n      0x20\n      add\n      dup3\n      dup1\n      sload\n      tag_42\n      swap1\n      tag_33\n      jump\t// in\n    tag_42:\n      dup1\n      iszero\n      tag_43\n      jumpi\n      dup1\n      0x1f\n      lt\n      tag_44\n      jumpi\n      0x0100\n      dup1\n      dup4\n      sload\n      div\n      mul\n      dup4\n      mstore\n      swap2\n      0x20\n      add\n      swap2\n      jump(tag_43)\n    tag_44:\n      dup3\n      add\n      swap2\n      swap1\n      0x00\n      mstore\n      keccak256(0x00, 0x20)\n      swap1\n    tag_45:\n      dup2\n      sload\n      dup2\n      mstore\n      swap1\n      0x01\n      add\n      swap1\n      0x20\n      add\n      dup1\n      dup4\n      gt\n      tag_45\n      jumpi\n      dup3\n      swap1\n      sub\n      0x1f\n      and\n      dup3\n      add\n      swap2\n    tag_43:\n      pop\n      pop\n      pop\n      pop\n      pop\n      dup2\n      mstore\n      0x20\n      add\n      swap1\n      0x01\n      add\n      swap1\n      jump(tag_38)\n    tag_39:\n      pop\n      pop\n      pop\n      pop\n      swap1\n      pop\n      swap3\n      pop\n      swap3\n      pop\n      swap3\n      pop\n        /* \"contracts/230522/initialization.sol\":2159:2325  function getUser(uint _n) public view returns(string memory, address, string[] memory) {... */\n      swap2\n      swap4\n      swap1\n      swap3\n      pop\n      jump\t// out\n        /* \"contracts/230522/initialization.sol\":1961:2061  function setUser(string memory _name) public {... */\n    tag_19:\n        /* \"contracts/230522/initialization.sol\":2017:2038  user storage _newuser */\n      0x00\n        /* \"contracts/230522/initialization.sol\":2041:2046  Users */\n      dup1\n        /* \"contracts/230522/initialization.sol\":2041:2053  Users.push() */\n      0x01\n      dup2\n      0x01\n      dup2\n      sload\n      add\n      dup1\n      dup3\n      sstore\n      dup1\n      swap2\n      pop\n      pop\n      sub\n      swap1\n      0x00\n      mstore\n      keccak256(0x00, 0x20)\n      swap1\n      0x04\n      mul\n      add\n        /* \"contracts/230522/initialization.sol\":2017:2053  user storage _newuser = Users.push() */\n      swap1\n      pop\n        /* \"contracts/230522/initialization.sol\":2006:2061  {... */\n      pop\n        /* \"contracts/230522/initialization.sol\":1961:2061  function setUser(string memory _name) public {... */\n      pop\n      jump\t// out\n        /* \"#utility.yul\":7:84   */\n    tag_48:\n        /* \"#utility.yul\":44:51   */\n      0x00\n        /* \"#utility.yul\":73:78   */\n      dup2\n        /* \"#utility.yul\":62:78   */\n      swap1\n      pop\n        /* \"#utility.yul\":7:84   */\n      swap2\n      swap1\n      pop\n      jump\t// out\n        /* \"#utility.yul\":90:208   */\n    tag_49:\n        /* \"#utility.yul\":177:201   */\n      tag_84\n        /* \"#utility.yul\":195:200   */\n      dup2\n        /* \"#utility.yul\":177:201   */\n      tag_48\n      jump\t// in\n    tag_84:\n        /* \"#utility.yul\":172:175   */\n      dup3\n        /* \"#utility.yul\":165:202   */\n      mstore\n        /* \"#utility.yul\":90:208   */\n      pop\n      pop\n      jump\t// out\n        /* \"#utility.yul\":214:436   */\n    tag_9:\n        /* \"#utility.yul\":307:311   */\n      0x00\n        /* \"#utility.yul\":345:347   */\n      0x20\n        /* \"#utility.yul\":334:343   */\n      dup3\n        /* \"#utility.yul\":330:348   */\n      add\n        /* \"#utility.yul\":322:348   */\n      swap1\n      pop\n        /* \"#utility.yul\":358:429   */\n      tag_86\n        /* \"#utility.yul\":426:427   */\n      0x00\n        /* \"#utility.yul\":415:424   */\n      dup4\n        /* \"#utility.yul\":411:428   */\n      add\n        /* \"#utility.yul\":402:408   */\n      dup5\n        /* \"#utility.yul\":358:429   */\n      tag_49\n      jump\t// in\n    tag_86:\n        /* \"#utility.yul\":214:436   */\n      swap3\n      swap2\n      pop\n      pop\n      jump\t// out\n        /* \"#utility.yul\":442:517   */\n    tag_50:\n        /* \"#utility.yul\":475:481   */\n      0x00\n        /* \"#utility.yul\":508:510   */\n      0x40\n        /* \"#utility.yul\":502:511   */\n      mload\n        /* \"#utility.yul\":492:511   */\n      swap1\n      pop\n        /* \"#utility.yul\":442:517   */\n      swap1\n      jump\t// out\n        /* \"#utility.yul\":523:640   */\n    tag_51:\n        /* \"#utility.yul\":632:633   */\n      0x00\n        /* \"#utility.yul\":629:630   */\n      dup1\n        /* \"#utility.yul\":622:634   */\n      revert\n        /* \"#utility.yul\":646:763   */\n    tag_52:\n        /* \"#utility.yul\":755:756   */\n      0x00\n        /* \"#utility.yul\":752:753   */\n      dup1\n        /* \"#utility.yul\":745:757   */\n      revert\n        /* \"#utility.yul\":769:891   */\n    tag_53:\n        /* \"#utility.yul\":842:866   */\n      tag_91\n        /* \"#utility.yul\":860:865   */\n      dup2\n        /* \"#utility.yul\":842:866   */\n      tag_48\n      jump\t// in\n    tag_91:\n        /* \"#utility.yul\":835:840   */\n      dup2\n        /* \"#utility.yul\":832:867   */\n      eq\n        /* \"#utility.yul\":822:885   */\n      tag_92\n      jumpi\n        /* \"#utility.yul\":881:882   */\n      0x00\n        /* \"#utility.yul\":878:879   */\n      dup1\n        /* \"#utility.yul\":871:883   */\n      revert\n        /* \"#utility.yul\":822:885   */\n    tag_92:\n        /* \"#utility.yul\":769:891   */\n      pop\n      jump\t// out\n        /* \"#utility.yul\":897:1036   */\n    tag_54:\n        /* \"#utility.yul\":943:948   */\n      0x00\n        /* \"#utility.yul\":981:987   */\n      dup2\n        /* \"#utility.yul\":968:988   */\n      calldataload\n        /* \"#utility.yul\":959:988   */\n      swap1\n      pop\n        /* \"#utility.yul\":997:1030   */\n      tag_94\n        /* \"#utility.yul\":1024:1029   */\n      dup2\n        /* \"#utility.yul\":997:1030   */\n      tag_53\n      jump\t// in\n    tag_94:\n        /* \"#utility.yul\":897:1036   */\n      swap3\n      swap2\n      pop\n      pop\n      jump\t// out\n        /* \"#utility.yul\":1042:1371   */\n    tag_12:\n        /* \"#utility.yul\":1101:1107   */\n      0x00\n        /* \"#utility.yul\":1150:1152   */\n      0x20\n        /* \"#utility.yul\":1138:1147   */\n      dup3\n        /* \"#utility.yul\":1129:1136   */\n      dup5\n        /* \"#utility.yul\":1125:1148   */\n      sub\n        /* \"#utility.yul\":1121:1153   */\n      slt\n        /* \"#utility.yul\":1118:1237   */\n      iszero\n      tag_96\n      jumpi\n        /* \"#utility.yul\":1156:1235   */\n      tag_97\n      tag_51\n      jump\t// in\n    tag_97:\n        /* \"#utility.yul\":1118:1237   */\n    tag_96:\n        /* \"#utility.yul\":1276:1277   */\n      0x00\n        /* \"#utility.yul\":1301:1354   */\n      tag_98\n        /* \"#utility.yul\":1346:1353   */\n      dup5\n        /* \"#utility.yul\":1337:1343   */\n      dup3\n        /* \"#utility.yul\":1326:1335   */\n      dup6\n        /* \"#utility.yul\":1322:1344   */\n      add\n        /* \"#utility.yul\":1301:1354   */\n      tag_54\n      jump\t// in\n    tag_98:\n        /* \"#utility.yul\":1291:1354   */\n      swap2\n      pop\n        /* \"#utility.yul\":1247:1364   */\n      pop\n        /* \"#utility.yul\":1042:1371   */\n      swap3\n      swap2\n      pop\n      pop\n      jump\t// out\n        /* \"#utility.yul\":1377:1476   */\n    tag_55:\n        /* \"#utility.yul\":1429:1435   */\n      0x00\n        /* \"#utility.yul\":1463:1468   */\n      dup2\n        /* \"#utility.yul\":1457:1469   */\n      mload\n        /* \"#utility.yul\":1447:1469   */\n      swap1\n      pop\n        /* \"#utility.yul\":1377:1476   */\n      swap2\n      swap1\n      pop\n      jump\t// out\n        /* \"#utility.yul\":1482:1651   */\n    tag_56:\n        /* \"#utility.yul\":1566:1577   */\n      0x00\n        /* \"#utility.yul\":1600:1606   */\n      dup3\n        /* \"#utility.yul\":1595:1598   */\n      dup3\n        /* \"#utility.yul\":1588:1607   */\n      mstore\n        /* \"#utility.yul\":1640:1644   */\n      0x20\n        /* \"#utility.yul\":1635:1638   */\n      dup3\n        /* \"#utility.yul\":1631:1645   */\n      add\n        /* \"#utility.yul\":1616:1645   */\n      swap1\n      pop\n        /* \"#utility.yul\":1482:1651   */\n      swap3\n      swap2\n      pop\n      pop\n      jump\t// out\n        /* \"#utility.yul\":1657:1903   */\n    tag_57:\n        /* \"#utility.yul\":1738:1739   */\n      0x00\n        /* \"#utility.yul\":1748:1861   */\n    tag_102:\n        /* \"#utility.yul\":1762:1768   */\n      dup4\n        /* \"#utility.yul\":1759:1760   */\n      dup2\n        /* \"#utility.yul\":1756:1769   */\n      lt\n        /* \"#utility.yul\":1748:1861   */\n      iszero\n      tag_104\n      jumpi\n        /* \"#utility.yul\":1847:1848   */\n      dup1\n        /* \"#utility.yul\":1842:1845   */\n      dup3\n        /* \"#utility.yul\":1838:1849   */\n      add\n        /* \"#utility.yul\":1832:1850   */\n      mload\n        /* \"#utility.yul\":1828:1829   */\n      dup2\n        /* \"#utility.yul\":1823:1826   */\n      dup5\n        /* \"#utility.yul\":1819:1830   */\n      add\n        /* \"#utility.yul\":1812:1851   */\n      mstore\n        /* \"#utility.yul\":1784:1786   */\n      0x20\n        /* \"#utility.yul\":1781:1782   */\n      dup2\n        /* \"#utility.yul\":1777:1787   */\n      add\n        /* \"#utility.yul\":1772:1787   */\n      swap1\n      pop\n        /* \"#utility.yul\":1748:1861   */\n      jump(tag_102)\n    tag_104:\n        /* \"#utility.yul\":1895:1896   */\n      0x00\n        /* \"#utility.yul\":1886:1892   */\n      dup5\n        /* \"#utility.yul\":1881:1884   */\n      dup5\n        /* \"#utility.yul\":1877:1893   */\n      add\n        /* \"#utility.yul\":1870:1897   */\n      mstore\n        /* \"#utility.yul\":1719:1903   */\n      pop\n        /* \"#utility.yul\":1657:1903   */\n      pop\n      pop\n      pop\n      jump\t// out\n        /* \"#utility.yul\":1909:2011   */\n    tag_58:\n        /* \"#utility.yul\":1950:1956   */\n      0x00\n        /* \"#utility.yul\":2001:2003   */\n      0x1f\n        /* \"#utility.yul\":1997:2004   */\n      not\n        /* \"#utility.yul\":1992:1994   */\n      0x1f\n        /* \"#utility.yul\":1985:1990   */\n      dup4\n        /* \"#utility.yul\":1981:1995   */\n      add\n        /* \"#utility.yul\":1977:2005   */\n      and\n        /* \"#utility.yul\":1967:2005   */\n      swap1\n      pop\n        /* \"#utility.yul\":1909:2011   */\n      swap2\n      swap1\n      pop\n      jump\t// out\n        /* \"#utility.yul\":2017:2394   */\n    tag_59:\n        /* \"#utility.yul\":2105:2108   */\n      0x00\n        /* \"#utility.yul\":2133:2172   */\n      tag_107\n        /* \"#utility.yul\":2166:2171   */\n      dup3\n        /* \"#utility.yul\":2133:2172   */\n      tag_55\n      jump\t// in\n    tag_107:\n        /* \"#utility.yul\":2188:2259   */\n      tag_108\n        /* \"#utility.yul\":2252:2258   */\n      dup2\n        /* \"#utility.yul\":2247:2250   */\n      dup6\n        /* \"#utility.yul\":2188:2259   */\n      tag_56\n      jump\t// in\n    tag_108:\n        /* \"#utility.yul\":2181:2259   */\n      swap4\n      pop\n        /* \"#utility.yul\":2268:2333   */\n      tag_109\n        /* \"#utility.yul\":2326:2332   */\n      dup2\n        /* \"#utility.yul\":2321:2324   */\n      dup6\n        /* \"#utility.yul\":2314:2318   */\n      0x20\n        /* \"#utility.yul\":2307:2312   */\n      dup7\n        /* \"#utility.yul\":2303:2319   */\n      add\n        /* \"#utility.yul\":2268:2333   */\n      tag_57\n      jump\t// in\n    tag_109:\n        /* \"#utility.yul\":2358:2387   */\n      tag_110\n        /* \"#utility.yul\":2380:2386   */\n      dup2\n        /* \"#utility.yul\":2358:2387   */\n      tag_58\n      jump\t// in\n    tag_110:\n        /* \"#utility.yul\":2353:2356   */\n      dup5\n        /* \"#utility.yul\":2349:2388   */\n      add\n        /* \"#utility.yul\":2342:2388   */\n      swap2\n      pop\n        /* \"#utility.yul\":2109:2394   */\n      pop\n        /* \"#utility.yul\":2017:2394   */\n      swap3\n      swap2\n      pop\n      pop\n      jump\t// out\n        /* \"#utility.yul\":2400:2526   */\n    tag_60:\n        /* \"#utility.yul\":2437:2444   */\n      0x00\n        /* \"#utility.yul\":2477:2519   */\n      0xffffffffffffffffffffffffffffffffffffffff\n        /* \"#utility.yul\":2470:2475   */\n      dup3\n        /* \"#utility.yul\":2466:2520   */\n      and\n        /* \"#utility.yul\":2455:2520   */\n      swap1\n      pop\n        /* \"#utility.yul\":2400:2526   */\n      swap2\n      swap1\n      pop\n      jump\t// out\n        /* \"#utility.yul\":2532:2628   */\n    tag_61:\n        /* \"#utility.yul\":2569:2576   */\n      0x00\n        /* \"#utility.yul\":2598:2622   */\n      tag_113\n        /* \"#utility.yul\":2616:2621   */\n      dup3\n        /* \"#utility.yul\":2598:2622   */\n      tag_60\n      jump\t// in\n    tag_113:\n        /* \"#utility.yul\":2587:2622   */\n      swap1\n      pop\n        /* \"#utility.yul\":2532:2628   */\n      swap2\n      swap1\n      pop\n      jump\t// out\n        /* \"#utility.yul\":2634:2752   */\n    tag_62:\n        /* \"#utility.yul\":2721:2745   */\n      tag_115\n        /* \"#utility.yul\":2739:2744   */\n      dup2\n        /* \"#utility.yul\":2721:2745   */\n      tag_61\n      jump\t// in\n    tag_115:\n        /* \"#utility.yul\":2716:2719   */\n      dup3\n        /* \"#utility.yul\":2709:2746   */\n      mstore\n        /* \"#utility.yul\":2634:2752   */\n      pop\n      pop\n      jump\t// out\n        /* \"#utility.yul\":2758:2882   */\n    tag_63:\n        /* \"#utility.yul\":2835:2841   */\n      0x00\n        /* \"#utility.yul\":2869:2874   */\n      dup2\n        /* \"#utility.yul\":2863:2875   */\n      mload\n        /* \"#utility.yul\":2853:2875   */\n      swap1\n      pop\n        /* \"#utility.yul\":2758:2882   */\n      swap2\n      swap1\n      pop\n      jump\t// out\n        /* \"#utility.yul\":2888:3082   */\n    tag_64:\n        /* \"#utility.yul\":2997:3008   */\n      0x00\n        /* \"#utility.yul\":3031:3037   */\n      dup3\n        /* \"#utility.yul\":3026:3029   */\n      dup3\n        /* \"#utility.yul\":3019:3038   */\n      mstore\n        /* \"#utility.yul\":3071:3075   */\n      0x20\n        /* \"#utility.yul\":3066:3069   */\n      dup3\n        /* \"#utility.yul\":3062:3076   */\n      add\n        /* \"#utility.yul\":3047:3076   */\n      swap1\n      pop\n        /* \"#utility.yul\":2888:3082   */\n      swap3\n      swap2\n      pop\n      pop\n      jump\t// out\n        /* \"#utility.yul\":3088:3230   */\n    tag_65:\n        /* \"#utility.yul\":3165:3169   */\n      0x00\n        /* \"#utility.yul\":3188:3191   */\n      dup2\n        /* \"#utility.yul\":3180:3191   */\n      swap1\n      pop\n        /* \"#utility.yul\":3218:3222   */\n      0x20\n        /* \"#utility.yul\":3213:3216   */\n      dup3\n        /* \"#utility.yul\":3209:3223   */\n      add\n        /* \"#utility.yul\":3201:3223   */\n      swap1\n      pop\n        /* \"#utility.yul\":3088:3230   */\n      swap2\n      swap1\n      pop\n      jump\t// out\n        /* \"#utility.yul\":3236:3395   */\n    tag_66:\n        /* \"#utility.yul\":3310:3321   */\n      0x00\n        /* \"#utility.yul\":3344:3350   */\n      dup3\n        /* \"#utility.yul\":3339:3342   */\n      dup3\n        /* \"#utility.yul\":3332:3351   */\n      mstore\n        /* \"#utility.yul\":3384:3388   */\n      0x20\n        /* \"#utility.yul\":3379:3382   */\n      dup3\n        /* \"#utility.yul\":3375:3389   */\n      add\n        /* \"#utility.yul\":3360:3389   */\n      swap1\n      pop\n        /* \"#utility.yul\":3236:3395   */\n      swap3\n      swap2\n      pop\n      pop\n      jump\t// out\n        /* \"#utility.yul\":3401:3758   */\n    tag_67:\n        /* \"#utility.yul\":3479:3482   */\n      0x00\n        /* \"#utility.yul\":3507:3546   */\n      tag_121\n        /* \"#utility.yul\":3540:3545   */\n      dup3\n        /* \"#utility.yul\":3507:3546   */\n      tag_55\n      jump\t// in\n    tag_121:\n        /* \"#utility.yul\":3562:3623   */\n      tag_122\n        /* \"#utility.yul\":3616:3622   */\n      dup2\n        /* \"#utility.yul\":3611:3614   */\n      dup6\n        /* \"#utility.yul\":3562:3623   */\n      tag_66\n      jump\t// in\n    tag_122:\n        /* \"#utility.yul\":3555:3623   */\n      swap4\n      pop\n        /* \"#utility.yul\":3632:3697   */\n      tag_123\n        /* \"#utility.yul\":3690:3696   */\n      dup2\n        /* \"#utility.yul\":3685:3688   */\n      dup6\n        /* \"#utility.yul\":3678:3682   */\n      0x20\n        /* \"#utility.yul\":3671:3676   */\n      dup7\n        /* \"#utility.yul\":3667:3683   */\n      add\n        /* \"#utility.yul\":3632:3697   */\n      tag_57\n      jump\t// in\n    tag_123:\n        /* \"#utility.yul\":3722:3751   */\n      tag_124\n        /* \"#utility.yul\":3744:3750   */\n      dup2\n        /* \"#utility.yul\":3722:3751   */\n      tag_58\n      jump\t// in\n    tag_124:\n        /* \"#utility.yul\":3717:3720   */\n      dup5\n        /* \"#utility.yul\":3713:3752   */\n      add\n        /* \"#utility.yul\":3706:3752   */\n      swap2\n      pop\n        /* \"#utility.yul\":3483:3758   */\n      pop\n        /* \"#utility.yul\":3401:3758   */\n      swap3\n      swap2\n      pop\n      pop\n      jump\t// out\n        /* \"#utility.yul\":3764:3960   */\n    tag_68:\n        /* \"#utility.yul\":3853:3863   */\n      0x00\n        /* \"#utility.yul\":3888:3954   */\n      tag_126\n        /* \"#utility.yul\":3950:3953   */\n      dup4\n        /* \"#utility.yul\":3942:3948   */\n      dup4\n        /* \"#utility.yul\":3888:3954   */\n      tag_67\n      jump\t// in\n    tag_126:\n        /* \"#utility.yul\":3874:3954   */\n      swap1\n      pop\n        /* \"#utility.yul\":3764:3960   */\n      swap3\n      swap2\n      pop\n      pop\n      jump\t// out\n        /* \"#utility.yul\":3966:4089   */\n    tag_69:\n        /* \"#utility.yul\":4046:4050   */\n      0x00\n        /* \"#utility.yul\":4078:4082   */\n      0x20\n        /* \"#utility.yul\":4073:4076   */\n      dup3\n        /* \"#utility.yul\":4069:4083   */\n      add\n        /* \"#utility.yul\":4061:4083   */\n      swap1\n      pop\n        /* \"#utility.yul\":3966:4089   */\n      swap2\n      swap1\n      pop\n      jump\t// out\n        /* \"#utility.yul\":4123:5114   */\n    tag_70:\n        /* \"#utility.yul\":4262:4265   */\n      0x00\n        /* \"#utility.yul\":4291:4355   */\n      tag_129\n        /* \"#utility.yul\":4349:4354   */\n      dup3\n        /* \"#utility.yul\":4291:4355   */\n      tag_63\n      jump\t// in\n    tag_129:\n        /* \"#utility.yul\":4371:4467   */\n      tag_130\n        /* \"#utility.yul\":4460:4466   */\n      dup2\n        /* \"#utility.yul\":4455:4458   */\n      dup6\n        /* \"#utility.yul\":4371:4467   */\n      tag_64\n      jump\t// in\n    tag_130:\n        /* \"#utility.yul\":4364:4467   */\n      swap4\n      pop\n        /* \"#utility.yul\":4493:4496   */\n      dup4\n        /* \"#utility.yul\":4538:4542   */\n      0x20\n        /* \"#utility.yul\":4530:4536   */\n      dup3\n        /* \"#utility.yul\":4526:4543   */\n      mul\n        /* \"#utility.yul\":4521:4524   */\n      dup6\n        /* \"#utility.yul\":4517:4544   */\n      add\n        /* \"#utility.yul\":4568:4634   */\n      tag_131\n        /* \"#utility.yul\":4628:4633   */\n      dup6\n        /* \"#utility.yul\":4568:4634   */\n      tag_65\n      jump\t// in\n    tag_131:\n        /* \"#utility.yul\":4657:4664   */\n      dup1\n        /* \"#utility.yul\":4688:4689   */\n      0x00\n        /* \"#utility.yul\":4673:5069   */\n    tag_132:\n        /* \"#utility.yul\":4698:4704   */\n      dup6\n        /* \"#utility.yul\":4695:4696   */\n      dup2\n        /* \"#utility.yul\":4692:4705   */\n      lt\n        /* \"#utility.yul\":4673:5069   */\n      iszero\n      tag_134\n      jumpi\n        /* \"#utility.yul\":4769:4778   */\n      dup5\n        /* \"#utility.yul\":4763:4767   */\n      dup5\n        /* \"#utility.yul\":4759:4779   */\n      sub\n        /* \"#utility.yul\":4754:4757   */\n      dup10\n        /* \"#utility.yul\":4747:4780   */\n      mstore\n        /* \"#utility.yul\":4820:4826   */\n      dup2\n        /* \"#utility.yul\":4814:4827   */\n      mload\n        /* \"#utility.yul\":4848:4932   */\n      tag_135\n        /* \"#utility.yul\":4927:4931   */\n      dup6\n        /* \"#utility.yul\":4912:4925   */\n      dup3\n        /* \"#utility.yul\":4848:4932   */\n      tag_68\n      jump\t// in\n    tag_135:\n        /* \"#utility.yul\":4840:4932   */\n      swap5\n      pop\n        /* \"#utility.yul\":4955:5025   */\n      tag_136\n        /* \"#utility.yul\":5018:5024   */\n      dup4\n        /* \"#utility.yul\":4955:5025   */\n      tag_69\n      jump\t// in\n    tag_136:\n        /* \"#utility.yul\":4945:5025   */\n      swap3\n      pop\n        /* \"#utility.yul\":5054:5058   */\n      0x20\n        /* \"#utility.yul\":5049:5052   */\n      dup11\n        /* \"#utility.yul\":5045:5059   */\n      add\n        /* \"#utility.yul\":5038:5059   */\n      swap10\n      pop\n        /* \"#utility.yul\":4733:5069   */\n      pop\n        /* \"#utility.yul\":4720:4721   */\n      0x01\n        /* \"#utility.yul\":4717:4718   */\n      dup2\n        /* \"#utility.yul\":4713:4722   */\n      add\n        /* \"#utility.yul\":4708:4722   */\n      swap1\n      pop\n        /* \"#utility.yul\":4673:5069   */\n      jump(tag_132)\n    tag_134:\n        /* \"#utility.yul\":4677:4691   */\n      pop\n        /* \"#utility.yul\":5085:5089   */\n      dup3\n        /* \"#utility.yul\":5078:5089   */\n      swap8\n      pop\n        /* \"#utility.yul\":5105:5108   */\n      dup8\n        /* \"#utility.yul\":5098:5108   */\n      swap6\n      pop\n        /* \"#utility.yul\":4267:5114   */\n      pop\n      pop\n      pop\n      pop\n      pop\n        /* \"#utility.yul\":4123:5114   */\n      swap3\n      swap2\n      pop\n      pop\n      jump\t// out\n        /* \"#utility.yul\":5120:5844   */\n    tag_15:\n        /* \"#utility.yul\":5359:5363   */\n      0x00\n        /* \"#utility.yul\":5397:5399   */\n      0x60\n        /* \"#utility.yul\":5386:5395   */\n      dup3\n        /* \"#utility.yul\":5382:5400   */\n      add\n        /* \"#utility.yul\":5374:5400   */\n      swap1\n      pop\n        /* \"#utility.yul\":5446:5455   */\n      dup2\n        /* \"#utility.yul\":5440:5444   */\n      dup2\n        /* \"#utility.yul\":5436:5456   */\n      sub\n        /* \"#utility.yul\":5432:5433   */\n      0x00\n        /* \"#utility.yul\":5421:5430   */\n      dup4\n        /* \"#utility.yul\":5417:5434   */\n      add\n        /* \"#utility.yul\":5410:5457   */\n      mstore\n        /* \"#utility.yul\":5474:5552   */\n      tag_138\n        /* \"#utility.yul\":5547:5551   */\n      dup2\n        /* \"#utility.yul\":5538:5544   */\n      dup7\n        /* \"#utility.yul\":5474:5552   */\n      tag_59\n      jump\t// in\n    tag_138:\n        /* \"#utility.yul\":5466:5552   */\n      swap1\n      pop\n        /* \"#utility.yul\":5562:5634   */\n      tag_139\n        /* \"#utility.yul\":5630:5632   */\n      0x20\n        /* \"#utility.yul\":5619:5628   */\n      dup4\n        /* \"#utility.yul\":5615:5633   */\n      add\n        /* \"#utility.yul\":5606:5612   */\n      dup6\n        /* \"#utility.yul\":5562:5634   */\n      tag_62\n      jump\t// in\n    tag_139:\n        /* \"#utility.yul\":5681:5690   */\n      dup2\n        /* \"#utility.yul\":5675:5679   */\n      dup2\n        /* \"#utility.yul\":5671:5691   */\n      sub\n        /* \"#utility.yul\":5666:5668   */\n      0x40\n        /* \"#utility.yul\":5655:5664   */\n      dup4\n        /* \"#utility.yul\":5651:5669   */\n      add\n        /* \"#utility.yul\":5644:5692   */\n      mstore\n        /* \"#utility.yul\":5709:5837   */\n      tag_140\n        /* \"#utility.yul\":5832:5836   */\n      dup2\n        /* \"#utility.yul\":5823:5829   */\n      dup5\n        /* \"#utility.yul\":5709:5837   */\n      tag_70\n      jump\t// in\n    tag_140:\n        /* \"#utility.yul\":5701:5837   */\n      swap1\n      pop\n        /* \"#utility.yul\":5120:5844   */\n      swap5\n      swap4\n      pop\n      pop\n      pop\n      pop\n      jump\t// out\n        /* \"#utility.yul\":5850:5967   */\n    tag_71:\n        /* \"#utility.yul\":5959:5960   */\n      0x00\n        /* \"#utility.yul\":5956:5957   */\n      dup1\n        /* \"#utility.yul\":5949:5961   */\n      revert\n        /* \"#utility.yul\":5973:6090   */\n    tag_72:\n        /* \"#utility.yul\":6082:6083   */\n      0x00\n        /* \"#utility.yul\":6079:6080   */\n      dup1\n        /* \"#utility.yul\":6072:6084   */\n      revert\n        /* \"#utility.yul\":6096:6276   */\n    tag_73:\n        /* \"#utility.yul\":6144:6221   */\n      0x4e487b7100000000000000000000000000000000000000000000000000000000\n        /* \"#utility.yul\":6141:6142   */\n      0x00\n        /* \"#utility.yul\":6134:6222   */\n      mstore\n        /* \"#utility.yul\":6241:6245   */\n      0x41\n        /* \"#utility.yul\":6238:6239   */\n      0x04\n        /* \"#utility.yul\":6231:6246   */\n      mstore\n        /* \"#utility.yul\":6265:6269   */\n      0x24\n        /* \"#utility.yul\":6262:6263   */\n      0x00\n        /* \"#utility.yul\":6255:6270   */\n      revert\n        /* \"#utility.yul\":6282:6563   */\n    tag_74:\n        /* \"#utility.yul\":6365:6392   */\n      tag_145\n        /* \"#utility.yul\":6387:6391   */\n      dup3\n        /* \"#utility.yul\":6365:6392   */\n      tag_58\n      jump\t// in\n    tag_145:\n        /* \"#utility.yul\":6357:6363   */\n      dup2\n        /* \"#utility.yul\":6353:6393   */\n      add\n        /* \"#utility.yul\":6495:6501   */\n      dup2\n        /* \"#utility.yul\":6483:6493   */\n      dup2\n        /* \"#utility.yul\":6480:6502   */\n      lt\n        /* \"#utility.yul\":6459:6477   */\n      0xffffffffffffffff\n        /* \"#utility.yul\":6447:6457   */\n      dup3\n        /* \"#utility.yul\":6444:6478   */\n      gt\n        /* \"#utility.yul\":6441:6503   */\n      or\n        /* \"#utility.yul\":6438:6526   */\n      iszero\n      tag_146\n      jumpi\n        /* \"#utility.yul\":6506:6524   */\n      tag_147\n      tag_73\n      jump\t// in\n    tag_147:\n        /* \"#utility.yul\":6438:6526   */\n    tag_146:\n        /* \"#utility.yul\":6546:6556   */\n      dup1\n        /* \"#utility.yul\":6542:6544   */\n      0x40\n        /* \"#utility.yul\":6535:6557   */\n      mstore\n        /* \"#utility.yul\":6325:6563   */\n      pop\n        /* \"#utility.yul\":6282:6563   */\n      pop\n      pop\n      jump\t// out\n        /* \"#utility.yul\":6569:6698   */\n    tag_75:\n        /* \"#utility.yul\":6603:6609   */\n      0x00\n        /* \"#utility.yul\":6630:6650   */\n      tag_149\n      tag_50\n      jump\t// in\n    tag_149:\n        /* \"#utility.yul\":6620:6650   */\n      swap1\n      pop\n        /* \"#utility.yul\":6659:6692   */\n      tag_150\n        /* \"#utility.yul\":6687:6691   */\n      dup3\n        /* \"#utility.yul\":6679:6685   */\n      dup3\n        /* \"#utility.yul\":6659:6692   */\n      tag_74\n      jump\t// in\n    tag_150:\n        /* \"#utility.yul\":6569:6698   */\n      swap2\n      swap1\n      pop\n      jump\t// out\n        /* \"#utility.yul\":6704:7012   */\n    tag_76:\n        /* \"#utility.yul\":6766:6770   */\n      0x00\n        /* \"#utility.yul\":6856:6874   */\n      0xffffffffffffffff\n        /* \"#utility.yul\":6848:6854   */\n      dup3\n        /* \"#utility.yul\":6845:6875   */\n      gt\n        /* \"#utility.yul\":6842:6898   */\n      iszero\n      tag_152\n      jumpi\n        /* \"#utility.yul\":6878:6896   */\n      tag_153\n      tag_73\n      jump\t// in\n    tag_153:\n        /* \"#utility.yul\":6842:6898   */\n    tag_152:\n        /* \"#utility.yul\":6916:6945   */\n      tag_154\n        /* \"#utility.yul\":6938:6944   */\n      dup3\n        /* \"#utility.yul\":6916:6945   */\n      tag_58\n      jump\t// in\n    tag_154:\n        /* \"#utility.yul\":6908:6945   */\n      swap1\n      pop\n        /* \"#utility.yul\":7000:7004   */\n      0x20\n        /* \"#utility.yul\":6994:6998   */\n      dup2\n        /* \"#utility.yul\":6990:7005   */\n      add\n        /* \"#utility.yul\":6982:7005   */\n      swap1\n      pop\n        /* \"#utility.yul\":6704:7012   */\n      swap2\n      swap1\n      pop\n      jump\t// out\n        /* \"#utility.yul\":7018:7164   */\n    tag_77:\n        /* \"#utility.yul\":7115:7121   */\n      dup3\n        /* \"#utility.yul\":7110:7113   */\n      dup2\n        /* \"#utility.yul\":7105:7108   */\n      dup4\n        /* \"#utility.yul\":7092:7122   */\n      calldatacopy\n        /* \"#utility.yul\":7156:7157   */\n      0x00\n        /* \"#utility.yul\":7147:7153   */\n      dup4\n        /* \"#utility.yul\":7142:7145   */\n      dup4\n        /* \"#utility.yul\":7138:7154   */\n      add\n        /* \"#utility.yul\":7131:7158   */\n      mstore\n        /* \"#utility.yul\":7018:7164   */\n      pop\n      pop\n      pop\n      jump\t// out\n        /* \"#utility.yul\":7170:7595   */\n    tag_78:\n        /* \"#utility.yul\":7248:7253   */\n      0x00\n        /* \"#utility.yul\":7273:7339   */\n      tag_157\n        /* \"#utility.yul\":7289:7338   */\n      tag_158\n        /* \"#utility.yul\":7331:7337   */\n      dup5\n        /* \"#utility.yul\":7289:7338   */\n      tag_76\n      jump\t// in\n    tag_158:\n        /* \"#utility.yul\":7273:7339   */\n      tag_75\n      jump\t// in\n    tag_157:\n        /* \"#utility.yul\":7264:7339   */\n      swap1\n      pop\n        /* \"#utility.yul\":7362:7368   */\n      dup3\n        /* \"#utility.yul\":7355:7360   */\n      dup2\n        /* \"#utility.yul\":7348:7369   */\n      mstore\n        /* \"#utility.yul\":7400:7404   */\n      0x20\n        /* \"#utility.yul\":7393:7398   */\n      dup2\n        /* \"#utility.yul\":7389:7405   */\n      add\n        /* \"#utility.yul\":7438:7441   */\n      dup5\n        /* \"#utility.yul\":7429:7435   */\n      dup5\n        /* \"#utility.yul\":7424:7427   */\n      dup5\n        /* \"#utility.yul\":7420:7436   */\n      add\n        /* \"#utility.yul\":7417:7442   */\n      gt\n        /* \"#utility.yul\":7414:7526   */\n      iszero\n      tag_159\n      jumpi\n        /* \"#utility.yul\":7445:7524   */\n      tag_160\n      tag_72\n      jump\t// in\n    tag_160:\n        /* \"#utility.yul\":7414:7526   */\n    tag_159:\n        /* \"#utility.yul\":7535:7589   */\n      tag_161\n        /* \"#utility.yul\":7582:7588   */\n      dup5\n        /* \"#utility.yul\":7577:7580   */\n      dup3\n        /* \"#utility.yul\":7572:7575   */\n      dup6\n        /* \"#utility.yul\":7535:7589   */\n      tag_77\n      jump\t// in\n    tag_161:\n        /* \"#utility.yul\":7254:7595   */\n      pop\n        /* \"#utility.yul\":7170:7595   */\n      swap4\n      swap3\n      pop\n      pop\n      pop\n      jump\t// out\n        /* \"#utility.yul\":7615:7955   */\n    tag_79:\n        /* \"#utility.yul\":7671:7676   */\n      0x00\n        /* \"#utility.yul\":7720:7723   */\n      dup3\n        /* \"#utility.yul\":7713:7717   */\n      0x1f\n        /* \"#utility.yul\":7705:7711   */\n      dup4\n        /* \"#utility.yul\":7701:7718   */\n      add\n        /* \"#utility.yul\":7697:7724   */\n      slt\n        /* \"#utility.yul\":7687:7809   */\n      tag_163\n      jumpi\n        /* \"#utility.yul\":7728:7807   */\n      tag_164\n      tag_71\n      jump\t// in\n    tag_164:\n        /* \"#utility.yul\":7687:7809   */\n    tag_163:\n        /* \"#utility.yul\":7845:7851   */\n      dup2\n        /* \"#utility.yul\":7832:7852   */\n      calldataload\n        /* \"#utility.yul\":7870:7949   */\n      tag_165\n        /* \"#utility.yul\":7945:7948   */\n      dup5\n        /* \"#utility.yul\":7937:7943   */\n      dup3\n        /* \"#utility.yul\":7930:7934   */\n      0x20\n        /* \"#utility.yul\":7922:7928   */\n      dup7\n        /* \"#utility.yul\":7918:7935   */\n      add\n        /* \"#utility.yul\":7870:7949   */\n      tag_78\n      jump\t// in\n    tag_165:\n        /* \"#utility.yul\":7861:7949   */\n      swap2\n      pop\n        /* \"#utility.yul\":7677:7955   */\n      pop\n        /* \"#utility.yul\":7615:7955   */\n      swap3\n      swap2\n      pop\n      pop\n      jump\t// out\n        /* \"#utility.yul\":7961:8470   */\n    tag_18:\n        /* \"#utility.yul\":8030:8036   */\n      0x00\n        /* \"#utility.yul\":8079:8081   */\n      0x20\n        /* \"#utility.yul\":8067:8076   */\n      dup3\n        /* \"#utility.yul\":8058:8065   */\n      dup5\n        /* \"#utility.yul\":8054:8077   */\n      sub\n        /* \"#utility.yul\":8050:8082   */\n      slt\n        /* \"#utility.yul\":8047:8166   */\n      iszero\n      tag_167\n      jumpi\n        /* \"#utility.yul\":8085:8164   */\n      tag_168\n      tag_51\n      jump\t// in\n    tag_168:\n        /* \"#utility.yul\":8047:8166   */\n    tag_167:\n        /* \"#utility.yul\":8233:8234   */\n      0x00\n        /* \"#utility.yul\":8222:8231   */\n      dup3\n        /* \"#utility.yul\":8218:8235   */\n      add\n        /* \"#utility.yul\":8205:8236   */\n      calldataload\n        /* \"#utility.yul\":8263:8281   */\n      0xffffffffffffffff\n        /* \"#utility.yul\":8255:8261   */\n      dup2\n        /* \"#utility.yul\":8252:8282   */\n      gt\n        /* \"#utility.yul\":8249:8366   */\n      iszero\n      tag_169\n      jumpi\n        /* \"#utility.yul\":8285:8364   */\n      tag_170\n      tag_52\n      jump\t// in\n    tag_170:\n        /* \"#utility.yul\":8249:8366   */\n    tag_169:\n        /* \"#utility.yul\":8390:8453   */\n      tag_171\n        /* \"#utility.yul\":8445:8452   */\n      dup5\n        /* \"#utility.yul\":8436:8442   */\n      dup3\n        /* \"#utility.yul\":8425:8434   */\n      dup6\n        /* \"#utility.yul\":8421:8443   */\n      add\n        /* \"#utility.yul\":8390:8453   */\n      tag_79\n      jump\t// in\n    tag_171:\n        /* \"#utility.yul\":8380:8453   */\n      swap2\n      pop\n        /* \"#utility.yul\":8176:8463   */\n      pop\n        /* \"#utility.yul\":7961:8470   */\n      swap3\n      swap2\n      pop\n      pop\n      jump\t// out\n        /* \"#utility.yul\":8476:8656   */\n    tag_24:\n        /* \"#utility.yul\":8524:8601   */\n      0x4e487b7100000000000000000000000000000000000000000000000000000000\n        /* \"#utility.yul\":8521:8522   */\n      0x00\n        /* \"#utility.yul\":8514:8602   */\n      mstore\n        /* \"#utility.yul\":8621:8625   */\n      0x32\n        /* \"#utility.yul\":8618:8619   */\n      0x04\n        /* \"#utility.yul\":8611:8626   */\n      mstore\n        /* \"#utility.yul\":8645:8649   */\n      0x24\n        /* \"#utility.yul\":8642:8643   */\n      0x00\n        /* \"#utility.yul\":8635:8650   */\n      revert\n        /* \"#utility.yul\":8662:8842   */\n    tag_80:\n        /* \"#utility.yul\":8710:8787   */\n      0x4e487b7100000000000000000000000000000000000000000000000000000000\n        /* \"#utility.yul\":8707:8708   */\n      0x00\n        /* \"#utility.yul\":8700:8788   */\n      mstore\n        /* \"#utility.yul\":8807:8811   */\n      0x22\n        /* \"#utility.yul\":8804:8805   */\n      0x04\n        /* \"#utility.yul\":8797:8812   */\n      mstore\n        /* \"#utility.yul\":8831:8835   */\n      0x24\n        /* \"#utility.yul\":8828:8829   */\n      0x00\n        /* \"#utility.yul\":8821:8836   */\n      revert\n        /* \"#utility.yul\":8848:9168   */\n    tag_33:\n        /* \"#utility.yul\":8892:8898   */\n      0x00\n        /* \"#utility.yul\":8929:8930   */\n      0x02\n        /* \"#utility.yul\":8923:8927   */\n      dup3\n        /* \"#utility.yul\":8919:8931   */\n      div\n        /* \"#utility.yul\":8909:8931   */\n      swap1\n      pop\n        /* \"#utility.yul\":8976:8977   */\n      0x01\n        /* \"#utility.yul\":8970:8974   */\n      dup3\n        /* \"#utility.yul\":8966:8978   */\n      and\n        /* \"#utility.yul\":8997:9015   */\n      dup1\n        /* \"#utility.yul\":8987:9068   */\n      tag_175\n      jumpi\n        /* \"#utility.yul\":9053:9057   */\n      0x7f\n        /* \"#utility.yul\":9045:9051   */\n      dup3\n        /* \"#utility.yul\":9041:9058   */\n      and\n        /* \"#utility.yul\":9031:9058   */\n      swap2\n      pop\n        /* \"#utility.yul\":8987:9068   */\n    tag_175:\n        /* \"#utility.yul\":9115:9117   */\n      0x20\n        /* \"#utility.yul\":9107:9113   */\n      dup3\n        /* \"#utility.yul\":9104:9118   */\n      lt\n        /* \"#utility.yul\":9084:9102   */\n      dup2\n        /* \"#utility.yul\":9081:9119   */\n      sub\n        /* \"#utility.yul\":9078:9162   */\n      tag_176\n      jumpi\n        /* \"#utility.yul\":9134:9152   */\n      tag_177\n      tag_80\n      jump\t// in\n    tag_177:\n        /* \"#utility.yul\":9078:9162   */\n    tag_176:\n        /* \"#utility.yul\":8899:9168   */\n      pop\n        /* \"#utility.yul\":8848:9168   */\n      swap2\n      swap1\n      pop\n      jump\t// out\n\n    auxdata: 0xa2646970667358221220d85d86187e532361fd1ac1f359bb2cecaa3dc2bc47cac1c76f617cdb4631e45a64736f6c63430008120033\n}\n",
				"bytecode": {
					"linkReferences": {},
					"object": "608060405234801561001057600080fd5b506107ec806100206000396000f3fe608060405234801561001057600080fd5b50600436106100405760003560e01c8062ce8e3e14610045578063b0467deb14610063578063d0020fad14610095575b600080fd5b61004d6100b1565b60405161005a91906102ff565b60405180910390f35b61007d6004803603810190610078919061035a565b6100bd565b60405161008c93929190610564565b60405180910390f35b6100af60048036038101906100aa91906106de565b6102bf565b005b60008080549050905090565b606060006060600084815481106100d7576100d6610727565b5b9060005260206000209060040201600001600085815481106100fc576100fb610727565b5b906000526020600020906004020160010160009054906101000a900473ffffffffffffffffffffffffffffffffffffffff166000868154811061014257610141610727565b5b906000526020600020906004020160020182805461015f90610785565b80601f016020809104026020016040519081016040528092919081815260200182805461018b90610785565b80156101d85780601f106101ad576101008083540402835291602001916101d8565b820191906000526020600020905b8154815290600101906020018083116101bb57829003601f168201915b5050505050925080805480602002602001604051908101604052809291908181526020016000905b828210156102ac57838290600052602060002001805461021f90610785565b80601f016020809104026020016040519081016040528092919081815260200182805461024b90610785565b80156102985780601f1061026d57610100808354040283529160200191610298565b820191906000526020600020905b81548152906001019060200180831161027b57829003601f168201915b505050505081526020019060010190610200565b5050505090509250925092509193909250565b60008060018160018154018082558091505003906000526020600020906004020190505050565b6000819050919050565b6102f9816102e6565b82525050565b600060208201905061031460008301846102f0565b92915050565b6000604051905090565b600080fd5b600080fd5b610337816102e6565b811461034257600080fd5b50565b6000813590506103548161032e565b92915050565b6000602082840312156103705761036f610324565b5b600061037e84828501610345565b91505092915050565b600081519050919050565b600082825260208201905092915050565b60005b838110156103c15780820151818401526020810190506103a6565b60008484015250505050565b6000601f19601f8301169050919050565b60006103e982610387565b6103f38185610392565b93506104038185602086016103a3565b61040c816103cd565b840191505092915050565b600073ffffffffffffffffffffffffffffffffffffffff82169050919050565b600061044282610417565b9050919050565b61045281610437565b82525050565b600081519050919050565b600082825260208201905092915050565b6000819050602082019050919050565b600082825260208201905092915050565b60006104a082610387565b6104aa8185610484565b93506104ba8185602086016103a3565b6104c3816103cd565b840191505092915050565b60006104da8383610495565b905092915050565b6000602082019050919050565b60006104fa82610458565b6105048185610463565b93508360208202850161051685610474565b8060005b85811015610552578484038952815161053385826104ce565b945061053e836104e2565b925060208a0199505060018101905061051a565b50829750879550505050505092915050565b6000606082019050818103600083015261057e81866103de565b905061058d6020830185610449565b818103604083015261059f81846104ef565b9050949350505050565b600080fd5b600080fd5b7f4e487b7100000000000000000000000000000000000000000000000000000000600052604160045260246000fd5b6105eb826103cd565b810181811067ffffffffffffffff8211171561060a576106096105b3565b5b80604052505050565b600061061d61031a565b905061062982826105e2565b919050565b600067ffffffffffffffff821115610649576106486105b3565b5b610652826103cd565b9050602081019050919050565b82818337600083830152505050565b600061068161067c8461062e565b610613565b90508281526020810184848401111561069d5761069c6105ae565b5b6106a884828561065f565b509392505050565b600082601f8301126106c5576106c46105a9565b5b81356106d584826020860161066e565b91505092915050565b6000602082840312156106f4576106f3610324565b5b600082013567ffffffffffffffff81111561071257610711610329565b5b61071e848285016106b0565b91505092915050565b7f4e487b7100000000000000000000000000000000000000000000000000000000600052603260045260246000fd5b7f4e487b7100000000000000000000000000000000000000000000000000000000600052602260045260246000fd5b6000600282049050600182168061079d57607f821691505b6020821081036107b0576107af610756565b5b5091905056fea2646970667358221220d85d86187e532361fd1ac1f359bb2cecaa3dc2bc47cac1c76f617cdb4631e45a64736f6c63430008120033",
					"opcodes": "PUSH1 0x80 PUSH1 0x40 MSTORE CALLVALUE DUP1 ISZERO PUSH2 0x10 JUMPI PUSH1 0x0 DUP1 REVERT JUMPDEST POP PUSH2 0x7EC DUP1 PUSH2 0x20 PUSH1 0x0 CODECOPY PUSH1 0x0 RETURN INVALID PUSH1 0x80 PUSH1 0x40 MSTORE CALLVALUE DUP1 ISZERO PUSH2 0x10 JUMPI PUSH1 0x0 DUP1 REVERT JUMPDEST POP PUSH1 0x4 CALLDATASIZE LT PUSH2 0x40 JUMPI PUSH1 0x0 CALLDATALOAD PUSH1 0xE0 SHR DUP1 PUSH3 0xCE8E3E EQ PUSH2 0x45 JUMPI DUP1 PUSH4 0xB0467DEB EQ PUSH2 0x63 JUMPI DUP1 PUSH4 0xD0020FAD EQ PUSH2 0x95 JUMPI JUMPDEST PUSH1 0x0 DUP1 REVERT JUMPDEST PUSH2 0x4D PUSH2 0xB1 JUMP JUMPDEST PUSH1 0x40 MLOAD PUSH2 0x5A SWAP2 SWAP1 PUSH2 0x2FF JUMP JUMPDEST PUSH1 0x40 MLOAD DUP1 SWAP2 SUB SWAP1 RETURN JUMPDEST PUSH2 0x7D PUSH1 0x4 DUP1 CALLDATASIZE SUB DUP2 ADD SWAP1 PUSH2 0x78 SWAP2 SWAP1 PUSH2 0x35A JUMP JUMPDEST PUSH2 0xBD JUMP JUMPDEST PUSH1 0x40 MLOAD PUSH2 0x8C SWAP4 SWAP3 SWAP2 SWAP1 PUSH2 0x564 JUMP JUMPDEST PUSH1 0x40 MLOAD DUP1 SWAP2 SUB SWAP1 RETURN JUMPDEST PUSH2 0xAF PUSH1 0x4 DUP1 CALLDATASIZE SUB DUP2 ADD SWAP1 PUSH2 0xAA SWAP2 SWAP1 PUSH2 0x6DE JUMP JUMPDEST PUSH2 0x2BF JUMP JUMPDEST STOP JUMPDEST PUSH1 0x0 DUP1 DUP1 SLOAD SWAP1 POP SWAP1 POP SWAP1 JUMP JUMPDEST PUSH1 0x60 PUSH1 0x0 PUSH1 0x60 PUSH1 0x0 DUP5 DUP2 SLOAD DUP2 LT PUSH2 0xD7 JUMPI PUSH2 0xD6 PUSH2 0x727 JUMP JUMPDEST JUMPDEST SWAP1 PUSH1 0x0 MSTORE PUSH1 0x20 PUSH1 0x0 KECCAK256 SWAP1 PUSH1 0x4 MUL ADD PUSH1 0x0 ADD PUSH1 0x0 DUP6 DUP2 SLOAD DUP2 LT PUSH2 0xFC JUMPI PUSH2 0xFB PUSH2 0x727 JUMP JUMPDEST JUMPDEST SWAP1 PUSH1 0x0 MSTORE PUSH1 0x20 PUSH1 0x0 KECCAK256 SWAP1 PUSH1 0x4 MUL ADD PUSH1 0x1 ADD PUSH1 0x0 SWAP1 SLOAD SWAP1 PUSH2 0x100 EXP SWAP1 DIV PUSH20 0xFFFFFFFFFFFFFFFFFFFFFFFFFFFFFFFFFFFFFFFF AND PUSH1 0x0 DUP7 DUP2 SLOAD DUP2 LT PUSH2 0x142 JUMPI PUSH2 0x141 PUSH2 0x727 JUMP JUMPDEST JUMPDEST SWAP1 PUSH1 0x0 MSTORE PUSH1 0x20 PUSH1 0x0 KECCAK256 SWAP1 PUSH1 0x4 MUL ADD PUSH1 0x2 ADD DUP3 DUP1 SLOAD PUSH2 0x15F SWAP1 PUSH2 0x785 JUMP JUMPDEST DUP1 PUSH1 0x1F ADD PUSH1 0x20 DUP1 SWAP2 DIV MUL PUSH1 0x20 ADD PUSH1 0x40 MLOAD SWAP1 DUP2 ADD PUSH1 0x40 MSTORE DUP1 SWAP3 SWAP2 SWAP1 DUP2 DUP2 MSTORE PUSH1 0x20 ADD DUP3 DUP1 SLOAD PUSH2 0x18B SWAP1 PUSH2 0x785 JUMP JUMPDEST DUP1 ISZERO PUSH2 0x1D8 JUMPI DUP1 PUSH1 0x1F LT PUSH2 0x1AD JUMPI PUSH2 0x100 DUP1 DUP4 SLOAD DIV MUL DUP4 MSTORE SWAP2 PUSH1 0x20 ADD SWAP2 PUSH2 0x1D8 JUMP JUMPDEST DUP3 ADD SWAP2 SWAP1 PUSH1 0x0 MSTORE PUSH1 0x20 PUSH1 0x0 KECCAK256 SWAP1 JUMPDEST DUP2 SLOAD DUP2 MSTORE SWAP1 PUSH1 0x1 ADD SWAP1 PUSH1 0x20 ADD DUP1 DUP4 GT PUSH2 0x1BB JUMPI DUP3 SWAP1 SUB PUSH1 0x1F AND DUP3 ADD SWAP2 JUMPDEST POP POP POP POP POP SWAP3 POP DUP1 DUP1 SLOAD DUP1 PUSH1 0x20 MUL PUSH1 0x20 ADD PUSH1 0x40 MLOAD SWAP1 DUP2 ADD PUSH1 0x40 MSTORE DUP1 SWAP3 SWAP2 SWAP1 DUP2 DUP2 MSTORE PUSH1 0x20 ADD PUSH1 0x0 SWAP1 JUMPDEST DUP3 DUP3 LT ISZERO PUSH2 0x2AC JUMPI DUP4 DUP3 SWAP1 PUSH1 0x0 MSTORE PUSH1 0x20 PUSH1 0x0 KECCAK256 ADD DUP1 SLOAD PUSH2 0x21F SWAP1 PUSH2 0x785 JUMP JUMPDEST DUP1 PUSH1 0x1F ADD PUSH1 0x20 DUP1 SWAP2 DIV MUL PUSH1 0x20 ADD PUSH1 0x40 MLOAD SWAP1 DUP2 ADD PUSH1 0x40 MSTORE DUP1 SWAP3 SWAP2 SWAP1 DUP2 DUP2 MSTORE PUSH1 0x20 ADD DUP3 DUP1 SLOAD PUSH2 0x24B SWAP1 PUSH2 0x785 JUMP JUMPDEST DUP1 ISZERO PUSH2 0x298 JUMPI DUP1 PUSH1 0x1F LT PUSH2 0x26D JUMPI PUSH2 0x100 DUP1 DUP4 SLOAD DIV MUL DUP4 MSTORE SWAP2 PUSH1 0x20 ADD SWAP2 PUSH2 0x298 JUMP JUMPDEST DUP3 ADD SWAP2 SWAP1 PUSH1 0x0 MSTORE PUSH1 0x20 PUSH1 0x0 KECCAK256 SWAP1 JUMPDEST DUP2 SLOAD DUP2 MSTORE SWAP1 PUSH1 0x1 ADD SWAP1 PUSH1 0x20 ADD DUP1 DUP4 GT PUSH2 0x27B JUMPI DUP3 SWAP1 SUB PUSH1 0x1F AND DUP3 ADD SWAP2 JUMPDEST POP POP POP POP POP DUP2 MSTORE PUSH1 0x20 ADD SWAP1 PUSH1 0x1 ADD SWAP1 PUSH2 0x200 JUMP JUMPDEST POP POP POP POP SWAP1 POP SWAP3 POP SWAP3 POP SWAP3 POP SWAP2 SWAP4 SWAP1 SWAP3 POP JUMP JUMPDEST PUSH1 0x0 DUP1 PUSH1 0x1 DUP2 PUSH1 0x1 DUP2 SLOAD ADD DUP1 DUP3 SSTORE DUP1 SWAP2 POP POP SUB SWAP1 PUSH1 0x0 MSTORE PUSH1 0x20 PUSH1 0x0 KECCAK256 SWAP1 PUSH1 0x4 MUL ADD SWAP1 POP POP POP JUMP JUMPDEST PUSH1 0x0 DUP2 SWAP1 POP SWAP2 SWAP1 POP JUMP JUMPDEST PUSH2 0x2F9 DUP2 PUSH2 0x2E6 JUMP JUMPDEST DUP3 MSTORE POP POP JUMP JUMPDEST PUSH1 0x0 PUSH1 0x20 DUP3 ADD SWAP1 POP PUSH2 0x314 PUSH1 0x0 DUP4 ADD DUP5 PUSH2 0x2F0 JUMP JUMPDEST SWAP3 SWAP2 POP POP JUMP JUMPDEST PUSH1 0x0 PUSH1 0x40 MLOAD SWAP1 POP SWAP1 JUMP JUMPDEST PUSH1 0x0 DUP1 REVERT JUMPDEST PUSH1 0x0 DUP1 REVERT JUMPDEST PUSH2 0x337 DUP2 PUSH2 0x2E6 JUMP JUMPDEST DUP2 EQ PUSH2 0x342 JUMPI PUSH1 0x0 DUP1 REVERT JUMPDEST POP JUMP JUMPDEST PUSH1 0x0 DUP2 CALLDATALOAD SWAP1 POP PUSH2 0x354 DUP2 PUSH2 0x32E JUMP JUMPDEST SWAP3 SWAP2 POP POP JUMP JUMPDEST PUSH1 0x0 PUSH1 0x20 DUP3 DUP5 SUB SLT ISZERO PUSH2 0x370 JUMPI PUSH2 0x36F PUSH2 0x324 JUMP JUMPDEST JUMPDEST PUSH1 0x0 PUSH2 0x37E DUP5 DUP3 DUP6 ADD PUSH2 0x345 JUMP JUMPDEST SWAP2 POP POP SWAP3 SWAP2 POP POP JUMP JUMPDEST PUSH1 0x0 DUP2 MLOAD SWAP1 POP SWAP2 SWAP1 POP JUMP JUMPDEST PUSH1 0x0 DUP3 DUP3 MSTORE PUSH1 0x20 DUP3 ADD SWAP1 POP SWAP3 SWAP2 POP POP JUMP JUMPDEST PUSH1 0x0 JUMPDEST DUP4 DUP2 LT ISZERO PUSH2 0x3C1 JUMPI DUP1 DUP3 ADD MLOAD DUP2 DUP5 ADD MSTORE PUSH1 0x20 DUP2 ADD SWAP1 POP PUSH2 0x3A6 JUMP JUMPDEST PUSH1 0x0 DUP5 DUP5 ADD MSTORE POP POP POP POP JUMP JUMPDEST PUSH1 0x0 PUSH1 0x1F NOT PUSH1 0x1F DUP4 ADD AND SWAP1 POP SWAP2 SWAP1 POP JUMP JUMPDEST PUSH1 0x0 PUSH2 0x3E9 DUP3 PUSH2 0x387 JUMP JUMPDEST PUSH2 0x3F3 DUP2 DUP6 PUSH2 0x392 JUMP JUMPDEST SWAP4 POP PUSH2 0x403 DUP2 DUP6 PUSH1 0x20 DUP7 ADD PUSH2 0x3A3 JUMP JUMPDEST PUSH2 0x40C DUP2 PUSH2 0x3CD JUMP JUMPDEST DUP5 ADD SWAP2 POP POP SWAP3 SWAP2 POP POP JUMP JUMPDEST PUSH1 0x0 PUSH20 0xFFFFFFFFFFFFFFFFFFFFFFFFFFFFFFFFFFFFFFFF DUP3 AND SWAP1 POP SWAP2 SWAP1 POP JUMP JUMPDEST PUSH1 0x0 PUSH2 0x442 DUP3 PUSH2 0x417 JUMP JUMPDEST SWAP1 POP SWAP2 SWAP1 POP JUMP JUMPDEST PUSH2 0x452 DUP2 PUSH2 0x437 JUMP JUMPDEST DUP3 MSTORE POP POP JUMP JUMPDEST PUSH1 0x0 DUP2 MLOAD SWAP1 POP SWAP2 SWAP1 POP JUMP JUMPDEST PUSH1 0x0 DUP3 DUP3 MSTORE PUSH1 0x20 DUP3 ADD SWAP1 POP SWAP3 SWAP2 POP POP JUMP JUMPDEST PUSH1 0x0 DUP2 SWAP1 POP PUSH1 0x20 DUP3 ADD SWAP1 POP SWAP2 SWAP1 POP JUMP JUMPDEST PUSH1 0x0 DUP3 DUP3 MSTORE PUSH1 0x20 DUP3 ADD SWAP1 POP SWAP3 SWAP2 POP POP JUMP JUMPDEST PUSH1 0x0 PUSH2 0x4A0 DUP3 PUSH2 0x387 JUMP JUMPDEST PUSH2 0x4AA DUP2 DUP6 PUSH2 0x484 JUMP JUMPDEST SWAP4 POP PUSH2 0x4BA DUP2 DUP6 PUSH1 0x20 DUP7 ADD PUSH2 0x3A3 JUMP JUMPDEST PUSH2 0x4C3 DUP2 PUSH2 0x3CD JUMP JUMPDEST DUP5 ADD SWAP2 POP POP SWAP3 SWAP2 POP POP JUMP JUMPDEST PUSH1 0x0 PUSH2 0x4DA DUP4 DUP4 PUSH2 0x495 JUMP JUMPDEST SWAP1 POP SWAP3 SWAP2 POP POP JUMP JUMPDEST PUSH1 0x0 PUSH1 0x20 DUP3 ADD SWAP1 POP SWAP2 SWAP1 POP JUMP JUMPDEST PUSH1 0x0 PUSH2 0x4FA DUP3 PUSH2 0x458 JUMP JUMPDEST PUSH2 0x504 DUP2 DUP6 PUSH2 0x463 JUMP JUMPDEST SWAP4 POP DUP4 PUSH1 0x20 DUP3 MUL DUP6 ADD PUSH2 0x516 DUP6 PUSH2 0x474 JUMP JUMPDEST DUP1 PUSH1 0x0 JUMPDEST DUP6 DUP2 LT ISZERO PUSH2 0x552 JUMPI DUP5 DUP5 SUB DUP10 MSTORE DUP2 MLOAD PUSH2 0x533 DUP6 DUP3 PUSH2 0x4CE JUMP JUMPDEST SWAP5 POP PUSH2 0x53E DUP4 PUSH2 0x4E2 JUMP JUMPDEST SWAP3 POP PUSH1 0x20 DUP11 ADD SWAP10 POP POP PUSH1 0x1 DUP2 ADD SWAP1 POP PUSH2 0x51A JUMP JUMPDEST POP DUP3 SWAP8 POP DUP8 SWAP6 POP POP POP POP POP POP SWAP3 SWAP2 POP POP JUMP JUMPDEST PUSH1 0x0 PUSH1 0x60 DUP3 ADD SWAP1 POP DUP2 DUP2 SUB PUSH1 0x0 DUP4 ADD MSTORE PUSH2 0x57E DUP2 DUP7 PUSH2 0x3DE JUMP JUMPDEST SWAP1 POP PUSH2 0x58D PUSH1 0x20 DUP4 ADD DUP6 PUSH2 0x449 JUMP JUMPDEST DUP2 DUP2 SUB PUSH1 0x40 DUP4 ADD MSTORE PUSH2 0x59F DUP2 DUP5 PUSH2 0x4EF JUMP JUMPDEST SWAP1 POP SWAP5 SWAP4 POP POP POP POP JUMP JUMPDEST PUSH1 0x0 DUP1 REVERT JUMPDEST PUSH1 0x0 DUP1 REVERT JUMPDEST PUSH32 0x4E487B7100000000000000000000000000000000000000000000000000000000 PUSH1 0x0 MSTORE PUSH1 0x41 PUSH1 0x4 MSTORE PUSH1 0x24 PUSH1 0x0 REVERT JUMPDEST PUSH2 0x5EB DUP3 PUSH2 0x3CD JUMP JUMPDEST DUP2 ADD DUP2 DUP2 LT PUSH8 0xFFFFFFFFFFFFFFFF DUP3 GT OR ISZERO PUSH2 0x60A JUMPI PUSH2 0x609 PUSH2 0x5B3 JUMP JUMPDEST JUMPDEST DUP1 PUSH1 0x40 MSTORE POP POP POP JUMP JUMPDEST PUSH1 0x0 PUSH2 0x61D PUSH2 0x31A JUMP JUMPDEST SWAP1 POP PUSH2 0x629 DUP3 DUP3 PUSH2 0x5E2 JUMP JUMPDEST SWAP2 SWAP1 POP JUMP JUMPDEST PUSH1 0x0 PUSH8 0xFFFFFFFFFFFFFFFF DUP3 GT ISZERO PUSH2 0x649 JUMPI PUSH2 0x648 PUSH2 0x5B3 JUMP JUMPDEST JUMPDEST PUSH2 0x652 DUP3 PUSH2 0x3CD JUMP JUMPDEST SWAP1 POP PUSH1 0x20 DUP2 ADD SWAP1 POP SWAP2 SWAP1 POP JUMP JUMPDEST DUP3 DUP2 DUP4 CALLDATACOPY PUSH1 0x0 DUP4 DUP4 ADD MSTORE POP POP POP JUMP JUMPDEST PUSH1 0x0 PUSH2 0x681 PUSH2 0x67C DUP5 PUSH2 0x62E JUMP JUMPDEST PUSH2 0x613 JUMP JUMPDEST SWAP1 POP DUP3 DUP2 MSTORE PUSH1 0x20 DUP2 ADD DUP5 DUP5 DUP5 ADD GT ISZERO PUSH2 0x69D JUMPI PUSH2 0x69C PUSH2 0x5AE JUMP JUMPDEST JUMPDEST PUSH2 0x6A8 DUP5 DUP3 DUP6 PUSH2 0x65F JUMP JUMPDEST POP SWAP4 SWAP3 POP POP POP JUMP JUMPDEST PUSH1 0x0 DUP3 PUSH1 0x1F DUP4 ADD SLT PUSH2 0x6C5 JUMPI PUSH2 0x6C4 PUSH2 0x5A9 JUMP JUMPDEST JUMPDEST DUP2 CALLDATALOAD PUSH2 0x6D5 DUP5 DUP3 PUSH1 0x20 DUP7 ADD PUSH2 0x66E JUMP JUMPDEST SWAP2 POP POP SWAP3 SWAP2 POP POP JUMP JUMPDEST PUSH1 0x0 PUSH1 0x20 DUP3 DUP5 SUB SLT ISZERO PUSH2 0x6F4 JUMPI PUSH2 0x6F3 PUSH2 0x324 JUMP JUMPDEST JUMPDEST PUSH1 0x0 DUP3 ADD CALLDATALOAD PUSH8 0xFFFFFFFFFFFFFFFF DUP2 GT ISZERO PUSH2 0x712 JUMPI PUSH2 0x711 PUSH2 0x329 JUMP JUMPDEST JUMPDEST PUSH2 0x71E DUP5 DUP3 DUP6 ADD PUSH2 0x6B0 JUMP JUMPDEST SWAP2 POP POP SWAP3 SWAP2 POP POP JUMP JUMPDEST PUSH32 0x4E487B7100000000000000000000000000000000000000000000000000000000 PUSH1 0x0 MSTORE PUSH1 0x32 PUSH1 0x4 MSTORE PUSH1 0x24 PUSH1 0x0 REVERT JUMPDEST PUSH32 0x4E487B7100000000000000000000000000000000000000000000000000000000 PUSH1 0x0 MSTORE PUSH1 0x22 PUSH1 0x4 MSTORE PUSH1 0x24 PUSH1 0x0 REVERT JUMPDEST PUSH1 0x0 PUSH1 0x2 DUP3 DIV SWAP1 POP PUSH1 0x1 DUP3 AND DUP1 PUSH2 0x79D JUMPI PUSH1 0x7F DUP3 AND SWAP2 POP JUMPDEST PUSH1 0x20 DUP3 LT DUP2 SUB PUSH2 0x7B0 JUMPI PUSH2 0x7AF PUSH2 0x756 JUMP JUMPDEST JUMPDEST POP SWAP2 SWAP1 POP JUMP INVALID LOG2 PUSH5 0x6970667358 0x22 SLT KECCAK256 0xD8 0x5D DUP7 XOR PUSH31 0x532361FD1AC1F359BB2CECAA3DC2BC47CAC1C76F617CDB4631E45A64736F6C PUSH4 0x43000812 STOP CALLER "
				},
				"gasEstimates": {
					"creation": {
						"codeDepositCost": "405600",
						"executionCost": "443",
						"totalCost": "406043"
					},
					"external": {
						"getUser(uint256)": "infinite",
						"getUsers()": "2423",
						"setUser(string)": "infinite"
					}
				},
				"methodIdentifiers": {
					"getUser(uint256)": "b0467deb",
					"getUsers()": "00ce8e3e",
					"setUser(string)": "d0020fad"
				}
			},
			"storageLayout": {
				"storage": [
					{
						"astId": 110,
						"contract": "contracts/230522/initialization.sol:structuWithMapping",
						"label": "Users",
						"offset": 0,
						"slot": "0",
						"type": "t_array(t_struct(user)106_storage)dyn_storage"
					}
				],
				"types": {
					"t_address": {
						"encoding": "inplace",
						"label": "address",
						"numberOfBytes": "20"
					},
					"t_array(t_string_storage)dyn_storage": {
						"base": "t_string_storage",
						"encoding": "dynamic_array",
						"label": "string[]",
						"numberOfBytes": "32"
					},
					"t_array(t_struct(user)106_storage)dyn_storage": {
						"base": "t_struct(user)106_storage",
						"encoding": "dynamic_array",
						"label": "struct structuWithMapping.user[]",
						"numberOfBytes": "32"
					},
					"t_bool": {
						"encoding": "inplace",
						"label": "bool",
						"numberOfBytes": "1"
					},
					"t_mapping(t_string_memory_ptr,t_bool)": {
						"encoding": "mapping",
						"key": "t_string_memory_ptr",
						"label": "mapping(string => bool)",
						"numberOfBytes": "32",
						"value": "t_bool"
					},
					"t_string_memory_ptr": {
						"encoding": "bytes",
						"label": "string",
						"numberOfBytes": "32"
					},
					"t_string_storage": {
						"encoding": "bytes",
						"label": "string",
						"numberOfBytes": "32"
					},
					"t_struct(user)106_storage": {
						"encoding": "inplace",
						"label": "struct structuWithMapping.user",
						"members": [
							{
								"astId": 96,
								"contract": "contracts/230522/initialization.sol:structuWithMapping",
								"label": "name",
								"offset": 0,
								"slot": "0",
								"type": "t_string_storage"
							},
							{
								"astId": 98,
								"contract": "contracts/230522/initialization.sol:structuWithMapping",
								"label": "addr",
								"offset": 0,
								"slot": "1",
								"type": "t_address"
							},
							{
								"astId": 101,
								"contract": "contracts/230522/initialization.sol:structuWithMapping",
								"label": "suggested",
								"offset": 0,
								"slot": "2",
								"type": "t_array(t_string_storage)dyn_storage"
							},
							{
								"astId": 105,
								"contract": "contracts/230522/initialization.sol:structuWithMapping",
								"label": "voted",
								"offset": 0,
								"slot": "3",
								"type": "t_mapping(t_string_memory_ptr,t_bool)"
							}
						],
						"numberOfBytes": "128"
					}
				}
			},
			"userdoc": {
				"kind": "user",
				"methods": {},
				"version": 1
			}
		}
	}
}