{
	"contracts/230522/quiz7.sol": {
		"Quiz7": {
			"abi": [
				{
					"inputs": [
						{
							"internalType": "uint256",
							"name": "number",
							"type": "uint256"
						}
					],
					"name": "Time1",
					"outputs": [
						{
							"internalType": "uint256",
							"name": "",
							"type": "uint256"
						},
						{
							"internalType": "uint256",
							"name": "",
							"type": "uint256"
						},
						{
							"internalType": "uint256",
							"name": "",
							"type": "uint256"
						}
					],
					"stateMutability": "pure",
					"type": "function"
				},
				{
					"inputs": [
						{
							"internalType": "uint256",
							"name": "number",
							"type": "uint256"
						}
					],
					"name": "Time2",
					"outputs": [
						{
							"internalType": "uint256",
							"name": "",
							"type": "uint256"
						},
						{
							"internalType": "string",
							"name": "",
							"type": "string"
						},
						{
							"internalType": "uint256",
							"name": "",
							"type": "uint256"
						},
						{
							"internalType": "string",
							"name": "",
							"type": "string"
						},
						{
							"internalType": "uint256",
							"name": "",
							"type": "uint256"
						},
						{
							"internalType": "string",
							"name": "",
							"type": "string"
						}
					],
					"stateMutability": "pure",
					"type": "function"
				}
			],
			"devdoc": {
				"kind": "dev",
				"methods": {},
				"version": 1
			},
			"evm": {
				"assembly": "    /* \"contracts/230522/quiz7.sol\":61:1465  contract Quiz7 {... */\n  mstore(0x40, 0x80)\n  callvalue\n  dup1\n  iszero\n  tag_1\n  jumpi\n  0x00\n  dup1\n  revert\ntag_1:\n  pop\n  dataSize(sub_0)\n  dup1\n  dataOffset(sub_0)\n  0x00\n  codecopy\n  0x00\n  return\nstop\n\nsub_0: assembly {\n        /* \"contracts/230522/quiz7.sol\":61:1465  contract Quiz7 {... */\n      mstore(0x40, 0x80)\n      callvalue\n      dup1\n      iszero\n      tag_1\n      jumpi\n      0x00\n      dup1\n      revert\n    tag_1:\n      pop\n      jumpi(tag_2, lt(calldatasize, 0x04))\n      shr(0xe0, calldataload(0x00))\n      dup1\n      0x437fefd7\n      eq\n      tag_3\n      jumpi\n      dup1\n      0xd150de65\n      eq\n      tag_4\n      jumpi\n    tag_2:\n      0x00\n      dup1\n      revert\n        /* \"contracts/230522/quiz7.sol\":238:508  function Time1(uint number) public pure returns(uint, uint, uint) {... */\n    tag_3:\n      tag_5\n      0x04\n      dup1\n      calldatasize\n      sub\n      dup2\n      add\n      swap1\n      tag_6\n      swap2\n      swap1\n      tag_7\n      jump\t// in\n    tag_6:\n      tag_8\n      jump\t// in\n    tag_5:\n      mload(0x40)\n      tag_9\n      swap4\n      swap3\n      swap2\n      swap1\n      tag_10\n      jump\t// in\n    tag_9:\n      mload(0x40)\n      dup1\n      swap2\n      sub\n      swap1\n      return\n        /* \"contracts/230522/quiz7.sol\":516:889  function Time2(uint number) public pure returns(uint,string memory,uint,string memory,uint,string memory) {... */\n    tag_4:\n      tag_11\n      0x04\n      dup1\n      calldatasize\n      sub\n      dup2\n      add\n      swap1\n      tag_12\n      swap2\n      swap1\n      tag_7\n      jump\t// in\n    tag_12:\n      tag_13\n      jump\t// in\n    tag_11:\n      mload(0x40)\n      tag_14\n      swap7\n      swap6\n      swap5\n      swap4\n      swap3\n      swap2\n      swap1\n      tag_15\n      jump\t// in\n    tag_14:\n      mload(0x40)\n      dup1\n      swap2\n      sub\n      swap1\n      return\n        /* \"contracts/230522/quiz7.sol\":238:508  function Time1(uint number) public pure returns(uint, uint, uint) {... */\n    tag_8:\n        /* \"contracts/230522/quiz7.sol\":286:290  uint */\n      0x00\n        /* \"contracts/230522/quiz7.sol\":292:296  uint */\n      dup1\n        /* \"contracts/230522/quiz7.sol\":298:302  uint */\n      0x00\n        /* \"contracts/230522/quiz7.sol\":315:324  uint hour */\n      dup1\n        /* \"contracts/230522/quiz7.sol\":336:340  3600 */\n      0x0e10\n        /* \"contracts/230522/quiz7.sol\":327:333  number */\n      dup6\n        /* \"contracts/230522/quiz7.sol\":327:340  number / 3600 */\n      tag_17\n      swap2\n      swap1\n      tag_18\n      jump\t// in\n    tag_17:\n        /* \"contracts/230522/quiz7.sol\":315:340  uint hour = number / 3600 */\n      swap1\n      pop\n        /* \"contracts/230522/quiz7.sol\":351:362  uint minute */\n      0x00\n        /* \"contracts/230522/quiz7.sol\":392:394  60 */\n      0x3c\n        /* \"contracts/230522/quiz7.sol\":383:387  3600 */\n      0x0e10\n        /* \"contracts/230522/quiz7.sol\":376:380  hour */\n      dup4\n        /* \"contracts/230522/quiz7.sol\":376:387  hour * 3600 */\n      tag_19\n      swap2\n      swap1\n      tag_20\n      jump\t// in\n    tag_19:\n        /* \"contracts/230522/quiz7.sol\":366:372  number */\n      dup8\n        /* \"contracts/230522/quiz7.sol\":366:388  number - (hour * 3600) */\n      tag_21\n      swap2\n      swap1\n      tag_22\n      jump\t// in\n    tag_21:\n        /* \"contracts/230522/quiz7.sol\":365:394  (number - (hour * 3600)) / 60 */\n      tag_23\n      swap2\n      swap1\n      tag_18\n      jump\t// in\n    tag_23:\n        /* \"contracts/230522/quiz7.sol\":351:394  uint minute = (number - (hour * 3600)) / 60 */\n      swap1\n      pop\n        /* \"contracts/230522/quiz7.sol\":405:416  uint second */\n      0x00\n        /* \"contracts/230522/quiz7.sol\":454:456  60 */\n      0x3c\n        /* \"contracts/230522/quiz7.sol\":445:451  minute */\n      dup3\n        /* \"contracts/230522/quiz7.sol\":445:456  minute * 60 */\n      tag_24\n      swap2\n      swap1\n      tag_20\n      jump\t// in\n    tag_24:\n        /* \"contracts/230522/quiz7.sol\":436:440  3600 */\n      0x0e10\n        /* \"contracts/230522/quiz7.sol\":429:433  hour */\n      dup5\n        /* \"contracts/230522/quiz7.sol\":429:440  hour * 3600 */\n      tag_25\n      swap2\n      swap1\n      tag_20\n      jump\t// in\n    tag_25:\n        /* \"contracts/230522/quiz7.sol\":420:426  number */\n      dup9\n        /* \"contracts/230522/quiz7.sol\":420:441  number- (hour * 3600) */\n      tag_26\n      swap2\n      swap1\n      tag_22\n      jump\t// in\n    tag_26:\n        /* \"contracts/230522/quiz7.sol\":420:457  number- (hour * 3600) - (minute * 60) */\n      tag_27\n      swap2\n      swap1\n      tag_22\n      jump\t// in\n    tag_27:\n        /* \"contracts/230522/quiz7.sol\":405:458  uint second = (number- (hour * 3600) - (minute * 60)) */\n      swap1\n      pop\n        /* \"contracts/230522/quiz7.sol\":479:483  hour */\n      dup3\n        /* \"contracts/230522/quiz7.sol\":485:491  minute */\n      dup3\n        /* \"contracts/230522/quiz7.sol\":493:499  second */\n      dup3\n        /* \"contracts/230522/quiz7.sol\":471:500  return (hour, minute, second) */\n      swap6\n      pop\n      swap6\n      pop\n      swap6\n      pop\n      pop\n      pop\n      pop\n        /* \"contracts/230522/quiz7.sol\":238:508  function Time1(uint number) public pure returns(uint, uint, uint) {... */\n      swap2\n      swap4\n      swap1\n      swap3\n      pop\n      jump\t// out\n        /* \"contracts/230522/quiz7.sol\":516:889  function Time2(uint number) public pure returns(uint,string memory,uint,string memory,uint,string memory) {... */\n    tag_13:\n        /* \"contracts/230522/quiz7.sol\":564:568  uint */\n      0x00\n        /* \"contracts/230522/quiz7.sol\":569:582  string memory */\n      0x60\n        /* \"contracts/230522/quiz7.sol\":583:587  uint */\n      0x00\n        /* \"contracts/230522/quiz7.sol\":588:601  string memory */\n      0x60\n        /* \"contracts/230522/quiz7.sol\":602:606  uint */\n      0x00\n        /* \"contracts/230522/quiz7.sol\":607:620  string memory */\n      0x60\n        /* \"contracts/230522/quiz7.sol\":633:642  uint hour */\n      0x00\n        /* \"contracts/230522/quiz7.sol\":652:656  3600 */\n      0x0e10\n        /* \"contracts/230522/quiz7.sol\":645:651  number */\n      dup9\n        /* \"contracts/230522/quiz7.sol\":645:656  number/3600 */\n      tag_29\n      swap2\n      swap1\n      tag_18\n      jump\t// in\n    tag_29:\n        /* \"contracts/230522/quiz7.sol\":633:656  uint hour = number/3600 */\n      swap1\n      pop\n        /* \"contracts/230522/quiz7.sol\":667:678  uint minute */\n      0x00\n        /* \"contracts/230522/quiz7.sol\":695:697  60 */\n      0x3c\n        /* \"contracts/230522/quiz7.sol\":689:693  3600 */\n      0x0e10\n        /* \"contracts/230522/quiz7.sol\":682:688  number */\n      dup11\n        /* \"contracts/230522/quiz7.sol\":682:693  number%3600 */\n      tag_30\n      swap2\n      swap1\n      tag_31\n      jump\t// in\n    tag_30:\n        /* \"contracts/230522/quiz7.sol\":681:697  (number%3600)/60 */\n      tag_32\n      swap2\n      swap1\n      tag_18\n      jump\t// in\n    tag_32:\n        /* \"contracts/230522/quiz7.sol\":667:697  uint minute = (number%3600)/60 */\n      swap1\n      pop\n        /* \"contracts/230522/quiz7.sol\":708:719  uint second */\n      0x00\n        /* \"contracts/230522/quiz7.sol\":736:738  60 */\n      0x3c\n        /* \"contracts/230522/quiz7.sol\":730:734  3600 */\n      0x0e10\n        /* \"contracts/230522/quiz7.sol\":723:729  number */\n      dup12\n        /* \"contracts/230522/quiz7.sol\":723:734  number%3600 */\n      tag_33\n      swap2\n      swap1\n      tag_31\n      jump\t// in\n    tag_33:\n        /* \"contracts/230522/quiz7.sol\":722:738  (number%3600)%60 */\n      tag_34\n      swap2\n      swap1\n      tag_31\n      jump\t// in\n    tag_34:\n        /* \"contracts/230522/quiz7.sol\":708:738  uint second = (number%3600)%60 */\n      swap1\n      pop\n        /* \"contracts/230522/quiz7.sol\":759:763  hour */\n      dup3\n        /* \"contracts/230522/quiz7.sol\":771:795  abi.encodePacked(\"hour\") */\n      add(0x20, mload(0x40))\n      tag_35\n      swap1\n      tag_36\n      jump\t// in\n    tag_35:\n      mload(0x40)\n      0x20\n      dup2\n      dup4\n      sub\n      sub\n      dup2\n      mstore\n      swap1\n      0x40\n      mstore\n        /* \"contracts/230522/quiz7.sol\":797:803  minute */\n      dup4\n        /* \"contracts/230522/quiz7.sol\":811:837  abi.encodePacked(\"minute\") */\n      add(0x20, mload(0x40))\n      tag_37\n      swap1\n      tag_38\n      jump\t// in\n    tag_37:\n      mload(0x40)\n      0x20\n      dup2\n      dup4\n      sub\n      sub\n      dup2\n      mstore\n      swap1\n      0x40\n      mstore\n        /* \"contracts/230522/quiz7.sol\":839:845  second */\n      dup5\n        /* \"contracts/230522/quiz7.sol\":853:879  abi.encodePacked(\"second\") */\n      add(0x20, mload(0x40))\n      tag_39\n      swap1\n      tag_40\n      jump\t// in\n    tag_39:\n      mload(0x40)\n      0x20\n      dup2\n      dup4\n      sub\n      sub\n      dup2\n      mstore\n      swap1\n      0x40\n      mstore\n        /* \"contracts/230522/quiz7.sol\":751:881  return (hour,string(abi.encodePacked(\"hour\")),minute,string(abi.encodePacked(\"minute\")),second,string(abi.encodePacked(\"second\"))) */\n      swap9\n      pop\n      swap9\n      pop\n      swap9\n      pop\n      swap9\n      pop\n      swap9\n      pop\n      swap9\n      pop\n      pop\n      pop\n      pop\n        /* \"contracts/230522/quiz7.sol\":516:889  function Time2(uint number) public pure returns(uint,string memory,uint,string memory,uint,string memory) {... */\n      swap2\n      swap4\n      swap6\n      pop\n      swap2\n      swap4\n      swap6\n      jump\t// out\n        /* \"#utility.yul\":88:205   */\n    tag_42:\n        /* \"#utility.yul\":197:198   */\n      0x00\n        /* \"#utility.yul\":194:195   */\n      dup1\n        /* \"#utility.yul\":187:199   */\n      revert\n        /* \"#utility.yul\":334:411   */\n    tag_44:\n        /* \"#utility.yul\":371:378   */\n      0x00\n        /* \"#utility.yul\":400:405   */\n      dup2\n        /* \"#utility.yul\":389:405   */\n      swap1\n      pop\n        /* \"#utility.yul\":334:411   */\n      swap2\n      swap1\n      pop\n      jump\t// out\n        /* \"#utility.yul\":417:539   */\n    tag_45:\n        /* \"#utility.yul\":490:514   */\n      tag_68\n        /* \"#utility.yul\":508:513   */\n      dup2\n        /* \"#utility.yul\":490:514   */\n      tag_44\n      jump\t// in\n    tag_68:\n        /* \"#utility.yul\":483:488   */\n      dup2\n        /* \"#utility.yul\":480:515   */\n      eq\n        /* \"#utility.yul\":470:533   */\n      tag_69\n      jumpi\n        /* \"#utility.yul\":529:530   */\n      0x00\n        /* \"#utility.yul\":526:527   */\n      dup1\n        /* \"#utility.yul\":519:531   */\n      revert\n        /* \"#utility.yul\":470:533   */\n    tag_69:\n        /* \"#utility.yul\":417:539   */\n      pop\n      jump\t// out\n        /* \"#utility.yul\":545:684   */\n    tag_46:\n        /* \"#utility.yul\":591:596   */\n      0x00\n        /* \"#utility.yul\":629:635   */\n      dup2\n        /* \"#utility.yul\":616:636   */\n      calldataload\n        /* \"#utility.yul\":607:636   */\n      swap1\n      pop\n        /* \"#utility.yul\":645:678   */\n      tag_71\n        /* \"#utility.yul\":672:677   */\n      dup2\n        /* \"#utility.yul\":645:678   */\n      tag_45\n      jump\t// in\n    tag_71:\n        /* \"#utility.yul\":545:684   */\n      swap3\n      swap2\n      pop\n      pop\n      jump\t// out\n        /* \"#utility.yul\":690:1019   */\n    tag_7:\n        /* \"#utility.yul\":749:755   */\n      0x00\n        /* \"#utility.yul\":798:800   */\n      0x20\n        /* \"#utility.yul\":786:795   */\n      dup3\n        /* \"#utility.yul\":777:784   */\n      dup5\n        /* \"#utility.yul\":773:796   */\n      sub\n        /* \"#utility.yul\":769:801   */\n      slt\n        /* \"#utility.yul\":766:885   */\n      iszero\n      tag_73\n      jumpi\n        /* \"#utility.yul\":804:883   */\n      tag_74\n      tag_42\n      jump\t// in\n    tag_74:\n        /* \"#utility.yul\":766:885   */\n    tag_73:\n        /* \"#utility.yul\":924:925   */\n      0x00\n        /* \"#utility.yul\":949:1002   */\n      tag_75\n        /* \"#utility.yul\":994:1001   */\n      dup5\n        /* \"#utility.yul\":985:991   */\n      dup3\n        /* \"#utility.yul\":974:983   */\n      dup6\n        /* \"#utility.yul\":970:992   */\n      add\n        /* \"#utility.yul\":949:1002   */\n      tag_46\n      jump\t// in\n    tag_75:\n        /* \"#utility.yul\":939:1002   */\n      swap2\n      pop\n        /* \"#utility.yul\":895:1012   */\n      pop\n        /* \"#utility.yul\":690:1019   */\n      swap3\n      swap2\n      pop\n      pop\n      jump\t// out\n        /* \"#utility.yul\":1025:1143   */\n    tag_47:\n        /* \"#utility.yul\":1112:1136   */\n      tag_77\n        /* \"#utility.yul\":1130:1135   */\n      dup2\n        /* \"#utility.yul\":1112:1136   */\n      tag_44\n      jump\t// in\n    tag_77:\n        /* \"#utility.yul\":1107:1110   */\n      dup3\n        /* \"#utility.yul\":1100:1137   */\n      mstore\n        /* \"#utility.yul\":1025:1143   */\n      pop\n      pop\n      jump\t// out\n        /* \"#utility.yul\":1149:1591   */\n    tag_10:\n        /* \"#utility.yul\":1298:1302   */\n      0x00\n        /* \"#utility.yul\":1336:1338   */\n      0x60\n        /* \"#utility.yul\":1325:1334   */\n      dup3\n        /* \"#utility.yul\":1321:1339   */\n      add\n        /* \"#utility.yul\":1313:1339   */\n      swap1\n      pop\n        /* \"#utility.yul\":1349:1420   */\n      tag_79\n        /* \"#utility.yul\":1417:1418   */\n      0x00\n        /* \"#utility.yul\":1406:1415   */\n      dup4\n        /* \"#utility.yul\":1402:1419   */\n      add\n        /* \"#utility.yul\":1393:1399   */\n      dup7\n        /* \"#utility.yul\":1349:1420   */\n      tag_47\n      jump\t// in\n    tag_79:\n        /* \"#utility.yul\":1430:1502   */\n      tag_80\n        /* \"#utility.yul\":1498:1500   */\n      0x20\n        /* \"#utility.yul\":1487:1496   */\n      dup4\n        /* \"#utility.yul\":1483:1501   */\n      add\n        /* \"#utility.yul\":1474:1480   */\n      dup6\n        /* \"#utility.yul\":1430:1502   */\n      tag_47\n      jump\t// in\n    tag_80:\n        /* \"#utility.yul\":1512:1584   */\n      tag_81\n        /* \"#utility.yul\":1580:1582   */\n      0x40\n        /* \"#utility.yul\":1569:1578   */\n      dup4\n        /* \"#utility.yul\":1565:1583   */\n      add\n        /* \"#utility.yul\":1556:1562   */\n      dup5\n        /* \"#utility.yul\":1512:1584   */\n      tag_47\n      jump\t// in\n    tag_81:\n        /* \"#utility.yul\":1149:1591   */\n      swap5\n      swap4\n      pop\n      pop\n      pop\n      pop\n      jump\t// out\n        /* \"#utility.yul\":1597:1696   */\n    tag_48:\n        /* \"#utility.yul\":1649:1655   */\n      0x00\n        /* \"#utility.yul\":1683:1688   */\n      dup2\n        /* \"#utility.yul\":1677:1689   */\n      mload\n        /* \"#utility.yul\":1667:1689   */\n      swap1\n      pop\n        /* \"#utility.yul\":1597:1696   */\n      swap2\n      swap1\n      pop\n      jump\t// out\n        /* \"#utility.yul\":1702:1871   */\n    tag_49:\n        /* \"#utility.yul\":1786:1797   */\n      0x00\n        /* \"#utility.yul\":1820:1826   */\n      dup3\n        /* \"#utility.yul\":1815:1818   */\n      dup3\n        /* \"#utility.yul\":1808:1827   */\n      mstore\n        /* \"#utility.yul\":1860:1864   */\n      0x20\n        /* \"#utility.yul\":1855:1858   */\n      dup3\n        /* \"#utility.yul\":1851:1865   */\n      add\n        /* \"#utility.yul\":1836:1865   */\n      swap1\n      pop\n        /* \"#utility.yul\":1702:1871   */\n      swap3\n      swap2\n      pop\n      pop\n      jump\t// out\n        /* \"#utility.yul\":1877:2123   */\n    tag_50:\n        /* \"#utility.yul\":1958:1959   */\n      0x00\n        /* \"#utility.yul\":1968:2081   */\n    tag_85:\n        /* \"#utility.yul\":1982:1988   */\n      dup4\n        /* \"#utility.yul\":1979:1980   */\n      dup2\n        /* \"#utility.yul\":1976:1989   */\n      lt\n        /* \"#utility.yul\":1968:2081   */\n      iszero\n      tag_87\n      jumpi\n        /* \"#utility.yul\":2067:2068   */\n      dup1\n        /* \"#utility.yul\":2062:2065   */\n      dup3\n        /* \"#utility.yul\":2058:2069   */\n      add\n        /* \"#utility.yul\":2052:2070   */\n      mload\n        /* \"#utility.yul\":2048:2049   */\n      dup2\n        /* \"#utility.yul\":2043:2046   */\n      dup5\n        /* \"#utility.yul\":2039:2050   */\n      add\n        /* \"#utility.yul\":2032:2071   */\n      mstore\n        /* \"#utility.yul\":2004:2006   */\n      0x20\n        /* \"#utility.yul\":2001:2002   */\n      dup2\n        /* \"#utility.yul\":1997:2007   */\n      add\n        /* \"#utility.yul\":1992:2007   */\n      swap1\n      pop\n        /* \"#utility.yul\":1968:2081   */\n      jump(tag_85)\n    tag_87:\n        /* \"#utility.yul\":2115:2116   */\n      0x00\n        /* \"#utility.yul\":2106:2112   */\n      dup5\n        /* \"#utility.yul\":2101:2104   */\n      dup5\n        /* \"#utility.yul\":2097:2113   */\n      add\n        /* \"#utility.yul\":2090:2117   */\n      mstore\n        /* \"#utility.yul\":1939:2123   */\n      pop\n        /* \"#utility.yul\":1877:2123   */\n      pop\n      pop\n      pop\n      jump\t// out\n        /* \"#utility.yul\":2129:2231   */\n    tag_51:\n        /* \"#utility.yul\":2170:2176   */\n      0x00\n        /* \"#utility.yul\":2221:2223   */\n      0x1f\n        /* \"#utility.yul\":2217:2224   */\n      not\n        /* \"#utility.yul\":2212:2214   */\n      0x1f\n        /* \"#utility.yul\":2205:2210   */\n      dup4\n        /* \"#utility.yul\":2201:2215   */\n      add\n        /* \"#utility.yul\":2197:2225   */\n      and\n        /* \"#utility.yul\":2187:2225   */\n      swap1\n      pop\n        /* \"#utility.yul\":2129:2231   */\n      swap2\n      swap1\n      pop\n      jump\t// out\n        /* \"#utility.yul\":2237:2614   */\n    tag_52:\n        /* \"#utility.yul\":2325:2328   */\n      0x00\n        /* \"#utility.yul\":2353:2392   */\n      tag_90\n        /* \"#utility.yul\":2386:2391   */\n      dup3\n        /* \"#utility.yul\":2353:2392   */\n      tag_48\n      jump\t// in\n    tag_90:\n        /* \"#utility.yul\":2408:2479   */\n      tag_91\n        /* \"#utility.yul\":2472:2478   */\n      dup2\n        /* \"#utility.yul\":2467:2470   */\n      dup6\n        /* \"#utility.yul\":2408:2479   */\n      tag_49\n      jump\t// in\n    tag_91:\n        /* \"#utility.yul\":2401:2479   */\n      swap4\n      pop\n        /* \"#utility.yul\":2488:2553   */\n      tag_92\n        /* \"#utility.yul\":2546:2552   */\n      dup2\n        /* \"#utility.yul\":2541:2544   */\n      dup6\n        /* \"#utility.yul\":2534:2538   */\n      0x20\n        /* \"#utility.yul\":2527:2532   */\n      dup7\n        /* \"#utility.yul\":2523:2539   */\n      add\n        /* \"#utility.yul\":2488:2553   */\n      tag_50\n      jump\t// in\n    tag_92:\n        /* \"#utility.yul\":2578:2607   */\n      tag_93\n        /* \"#utility.yul\":2600:2606   */\n      dup2\n        /* \"#utility.yul\":2578:2607   */\n      tag_51\n      jump\t// in\n    tag_93:\n        /* \"#utility.yul\":2573:2576   */\n      dup5\n        /* \"#utility.yul\":2569:2608   */\n      add\n        /* \"#utility.yul\":2562:2608   */\n      swap2\n      pop\n        /* \"#utility.yul\":2329:2614   */\n      pop\n        /* \"#utility.yul\":2237:2614   */\n      swap3\n      swap2\n      pop\n      pop\n      jump\t// out\n        /* \"#utility.yul\":2620:3668   */\n    tag_15:\n        /* \"#utility.yul\":2913:2917   */\n      0x00\n        /* \"#utility.yul\":2951:2954   */\n      0xc0\n        /* \"#utility.yul\":2940:2949   */\n      dup3\n        /* \"#utility.yul\":2936:2955   */\n      add\n        /* \"#utility.yul\":2928:2955   */\n      swap1\n      pop\n        /* \"#utility.yul\":2965:3036   */\n      tag_95\n        /* \"#utility.yul\":3033:3034   */\n      0x00\n        /* \"#utility.yul\":3022:3031   */\n      dup4\n        /* \"#utility.yul\":3018:3035   */\n      add\n        /* \"#utility.yul\":3009:3015   */\n      dup10\n        /* \"#utility.yul\":2965:3036   */\n      tag_47\n      jump\t// in\n    tag_95:\n        /* \"#utility.yul\":3083:3092   */\n      dup2\n        /* \"#utility.yul\":3077:3081   */\n      dup2\n        /* \"#utility.yul\":3073:3093   */\n      sub\n        /* \"#utility.yul\":3068:3070   */\n      0x20\n        /* \"#utility.yul\":3057:3066   */\n      dup4\n        /* \"#utility.yul\":3053:3071   */\n      add\n        /* \"#utility.yul\":3046:3094   */\n      mstore\n        /* \"#utility.yul\":3111:3189   */\n      tag_96\n        /* \"#utility.yul\":3184:3188   */\n      dup2\n        /* \"#utility.yul\":3175:3181   */\n      dup9\n        /* \"#utility.yul\":3111:3189   */\n      tag_52\n      jump\t// in\n    tag_96:\n        /* \"#utility.yul\":3103:3189   */\n      swap1\n      pop\n        /* \"#utility.yul\":3199:3271   */\n      tag_97\n        /* \"#utility.yul\":3267:3269   */\n      0x40\n        /* \"#utility.yul\":3256:3265   */\n      dup4\n        /* \"#utility.yul\":3252:3270   */\n      add\n        /* \"#utility.yul\":3243:3249   */\n      dup8\n        /* \"#utility.yul\":3199:3271   */\n      tag_47\n      jump\t// in\n    tag_97:\n        /* \"#utility.yul\":3318:3327   */\n      dup2\n        /* \"#utility.yul\":3312:3316   */\n      dup2\n        /* \"#utility.yul\":3308:3328   */\n      sub\n        /* \"#utility.yul\":3303:3305   */\n      0x60\n        /* \"#utility.yul\":3292:3301   */\n      dup4\n        /* \"#utility.yul\":3288:3306   */\n      add\n        /* \"#utility.yul\":3281:3329   */\n      mstore\n        /* \"#utility.yul\":3346:3424   */\n      tag_98\n        /* \"#utility.yul\":3419:3423   */\n      dup2\n        /* \"#utility.yul\":3410:3416   */\n      dup7\n        /* \"#utility.yul\":3346:3424   */\n      tag_52\n      jump\t// in\n    tag_98:\n        /* \"#utility.yul\":3338:3424   */\n      swap1\n      pop\n        /* \"#utility.yul\":3434:3507   */\n      tag_99\n        /* \"#utility.yul\":3502:3505   */\n      0x80\n        /* \"#utility.yul\":3491:3500   */\n      dup4\n        /* \"#utility.yul\":3487:3506   */\n      add\n        /* \"#utility.yul\":3478:3484   */\n      dup6\n        /* \"#utility.yul\":3434:3507   */\n      tag_47\n      jump\t// in\n    tag_99:\n        /* \"#utility.yul\":3555:3564   */\n      dup2\n        /* \"#utility.yul\":3549:3553   */\n      dup2\n        /* \"#utility.yul\":3545:3565   */\n      sub\n        /* \"#utility.yul\":3539:3542   */\n      0xa0\n        /* \"#utility.yul\":3528:3537   */\n      dup4\n        /* \"#utility.yul\":3524:3543   */\n      add\n        /* \"#utility.yul\":3517:3566   */\n      mstore\n        /* \"#utility.yul\":3583:3661   */\n      tag_100\n        /* \"#utility.yul\":3656:3660   */\n      dup2\n        /* \"#utility.yul\":3647:3653   */\n      dup5\n        /* \"#utility.yul\":3583:3661   */\n      tag_52\n      jump\t// in\n    tag_100:\n        /* \"#utility.yul\":3575:3661   */\n      swap1\n      pop\n        /* \"#utility.yul\":2620:3668   */\n      swap8\n      swap7\n      pop\n      pop\n      pop\n      pop\n      pop\n      pop\n      pop\n      jump\t// out\n        /* \"#utility.yul\":3674:3854   */\n    tag_53:\n        /* \"#utility.yul\":3722:3799   */\n      0x4e487b7100000000000000000000000000000000000000000000000000000000\n        /* \"#utility.yul\":3719:3720   */\n      0x00\n        /* \"#utility.yul\":3712:3800   */\n      mstore\n        /* \"#utility.yul\":3819:3823   */\n      0x12\n        /* \"#utility.yul\":3816:3817   */\n      0x04\n        /* \"#utility.yul\":3809:3824   */\n      mstore\n        /* \"#utility.yul\":3843:3847   */\n      0x24\n        /* \"#utility.yul\":3840:3841   */\n      0x00\n        /* \"#utility.yul\":3833:3848   */\n      revert\n        /* \"#utility.yul\":3860:4040   */\n    tag_54:\n        /* \"#utility.yul\":3908:3985   */\n      0x4e487b7100000000000000000000000000000000000000000000000000000000\n        /* \"#utility.yul\":3905:3906   */\n      0x00\n        /* \"#utility.yul\":3898:3986   */\n      mstore\n        /* \"#utility.yul\":4005:4009   */\n      0x11\n        /* \"#utility.yul\":4002:4003   */\n      0x04\n        /* \"#utility.yul\":3995:4010   */\n      mstore\n        /* \"#utility.yul\":4029:4033   */\n      0x24\n        /* \"#utility.yul\":4026:4027   */\n      0x00\n        /* \"#utility.yul\":4019:4034   */\n      revert\n        /* \"#utility.yul\":4046:4231   */\n    tag_18:\n        /* \"#utility.yul\":4086:4087   */\n      0x00\n        /* \"#utility.yul\":4103:4123   */\n      tag_104\n        /* \"#utility.yul\":4121:4122   */\n      dup3\n        /* \"#utility.yul\":4103:4123   */\n      tag_44\n      jump\t// in\n    tag_104:\n        /* \"#utility.yul\":4098:4123   */\n      swap2\n      pop\n        /* \"#utility.yul\":4137:4157   */\n      tag_105\n        /* \"#utility.yul\":4155:4156   */\n      dup4\n        /* \"#utility.yul\":4137:4157   */\n      tag_44\n      jump\t// in\n    tag_105:\n        /* \"#utility.yul\":4132:4157   */\n      swap3\n      pop\n        /* \"#utility.yul\":4176:4177   */\n      dup3\n        /* \"#utility.yul\":4166:4201   */\n      tag_106\n      jumpi\n        /* \"#utility.yul\":4181:4199   */\n      tag_107\n      tag_53\n      jump\t// in\n    tag_107:\n        /* \"#utility.yul\":4166:4201   */\n    tag_106:\n        /* \"#utility.yul\":4223:4224   */\n      dup3\n        /* \"#utility.yul\":4220:4221   */\n      dup3\n        /* \"#utility.yul\":4216:4225   */\n      div\n        /* \"#utility.yul\":4211:4225   */\n      swap1\n      pop\n        /* \"#utility.yul\":4046:4231   */\n      swap3\n      swap2\n      pop\n      pop\n      jump\t// out\n        /* \"#utility.yul\":4237:4647   */\n    tag_20:\n        /* \"#utility.yul\":4277:4284   */\n      0x00\n        /* \"#utility.yul\":4300:4320   */\n      tag_109\n        /* \"#utility.yul\":4318:4319   */\n      dup3\n        /* \"#utility.yul\":4300:4320   */\n      tag_44\n      jump\t// in\n    tag_109:\n        /* \"#utility.yul\":4295:4320   */\n      swap2\n      pop\n        /* \"#utility.yul\":4334:4354   */\n      tag_110\n        /* \"#utility.yul\":4352:4353   */\n      dup4\n        /* \"#utility.yul\":4334:4354   */\n      tag_44\n      jump\t// in\n    tag_110:\n        /* \"#utility.yul\":4329:4354   */\n      swap3\n      pop\n        /* \"#utility.yul\":4389:4390   */\n      dup3\n        /* \"#utility.yul\":4386:4387   */\n      dup3\n        /* \"#utility.yul\":4382:4391   */\n      mul\n        /* \"#utility.yul\":4411:4441   */\n      tag_111\n        /* \"#utility.yul\":4429:4440   */\n      dup2\n        /* \"#utility.yul\":4411:4441   */\n      tag_44\n      jump\t// in\n    tag_111:\n        /* \"#utility.yul\":4400:4441   */\n      swap2\n      pop\n        /* \"#utility.yul\":4590:4591   */\n      dup3\n        /* \"#utility.yul\":4581:4588   */\n      dup3\n        /* \"#utility.yul\":4577:4592   */\n      div\n        /* \"#utility.yul\":4574:4575   */\n      dup5\n        /* \"#utility.yul\":4571:4593   */\n      eq\n        /* \"#utility.yul\":4551:4552   */\n      dup4\n        /* \"#utility.yul\":4544:4553   */\n      iszero\n        /* \"#utility.yul\":4524:4607   */\n      or\n        /* \"#utility.yul\":4501:4640   */\n      tag_112\n      jumpi\n        /* \"#utility.yul\":4620:4638   */\n      tag_113\n      tag_54\n      jump\t// in\n    tag_113:\n        /* \"#utility.yul\":4501:4640   */\n    tag_112:\n        /* \"#utility.yul\":4285:4647   */\n      pop\n        /* \"#utility.yul\":4237:4647   */\n      swap3\n      swap2\n      pop\n      pop\n      jump\t// out\n        /* \"#utility.yul\":4653:4847   */\n    tag_22:\n        /* \"#utility.yul\":4693:4697   */\n      0x00\n        /* \"#utility.yul\":4713:4733   */\n      tag_115\n        /* \"#utility.yul\":4731:4732   */\n      dup3\n        /* \"#utility.yul\":4713:4733   */\n      tag_44\n      jump\t// in\n    tag_115:\n        /* \"#utility.yul\":4708:4733   */\n      swap2\n      pop\n        /* \"#utility.yul\":4747:4767   */\n      tag_116\n        /* \"#utility.yul\":4765:4766   */\n      dup4\n        /* \"#utility.yul\":4747:4767   */\n      tag_44\n      jump\t// in\n    tag_116:\n        /* \"#utility.yul\":4742:4767   */\n      swap3\n      pop\n        /* \"#utility.yul\":4791:4792   */\n      dup3\n        /* \"#utility.yul\":4788:4789   */\n      dup3\n        /* \"#utility.yul\":4784:4793   */\n      sub\n        /* \"#utility.yul\":4776:4793   */\n      swap1\n      pop\n        /* \"#utility.yul\":4815:4816   */\n      dup2\n        /* \"#utility.yul\":4809:4813   */\n      dup2\n        /* \"#utility.yul\":4806:4817   */\n      gt\n        /* \"#utility.yul\":4803:4840   */\n      iszero\n      tag_117\n      jumpi\n        /* \"#utility.yul\":4820:4838   */\n      tag_118\n      tag_54\n      jump\t// in\n    tag_118:\n        /* \"#utility.yul\":4803:4840   */\n    tag_117:\n        /* \"#utility.yul\":4653:4847   */\n      swap3\n      swap2\n      pop\n      pop\n      jump\t// out\n        /* \"#utility.yul\":4853:5029   */\n    tag_31:\n        /* \"#utility.yul\":4885:4886   */\n      0x00\n        /* \"#utility.yul\":4902:4922   */\n      tag_120\n        /* \"#utility.yul\":4920:4921   */\n      dup3\n        /* \"#utility.yul\":4902:4922   */\n      tag_44\n      jump\t// in\n    tag_120:\n        /* \"#utility.yul\":4897:4922   */\n      swap2\n      pop\n        /* \"#utility.yul\":4936:4956   */\n      tag_121\n        /* \"#utility.yul\":4954:4955   */\n      dup4\n        /* \"#utility.yul\":4936:4956   */\n      tag_44\n      jump\t// in\n    tag_121:\n        /* \"#utility.yul\":4931:4956   */\n      swap3\n      pop\n        /* \"#utility.yul\":4975:4976   */\n      dup3\n        /* \"#utility.yul\":4965:5000   */\n      tag_122\n      jumpi\n        /* \"#utility.yul\":4980:4998   */\n      tag_123\n      tag_53\n      jump\t// in\n    tag_123:\n        /* \"#utility.yul\":4965:5000   */\n    tag_122:\n        /* \"#utility.yul\":5021:5022   */\n      dup3\n        /* \"#utility.yul\":5018:5019   */\n      dup3\n        /* \"#utility.yul\":5014:5023   */\n      mod\n        /* \"#utility.yul\":5009:5023   */\n      swap1\n      pop\n        /* \"#utility.yul\":4853:5029   */\n      swap3\n      swap2\n      pop\n      pop\n      jump\t// out\n        /* \"#utility.yul\":5035:5183   */\n    tag_55:\n        /* \"#utility.yul\":5137:5148   */\n      0x00\n        /* \"#utility.yul\":5174:5177   */\n      dup2\n        /* \"#utility.yul\":5159:5177   */\n      swap1\n      pop\n        /* \"#utility.yul\":5035:5183   */\n      swap3\n      swap2\n      pop\n      pop\n      jump\t// out\n        /* \"#utility.yul\":5189:5343   */\n    tag_56:\n        /* \"#utility.yul\":5329:5335   */\n      0x686f757200000000000000000000000000000000000000000000000000000000\n        /* \"#utility.yul\":5325:5326   */\n      0x00\n        /* \"#utility.yul\":5317:5323   */\n      dup3\n        /* \"#utility.yul\":5313:5327   */\n      add\n        /* \"#utility.yul\":5306:5336   */\n      mstore\n        /* \"#utility.yul\":5189:5343   */\n      pop\n      jump\t// out\n        /* \"#utility.yul\":5349:5749   */\n    tag_57:\n        /* \"#utility.yul\":5509:5512   */\n      0x00\n        /* \"#utility.yul\":5530:5614   */\n      tag_127\n        /* \"#utility.yul\":5612:5613   */\n      0x04\n        /* \"#utility.yul\":5607:5610   */\n      dup4\n        /* \"#utility.yul\":5530:5614   */\n      tag_55\n      jump\t// in\n    tag_127:\n        /* \"#utility.yul\":5523:5614   */\n      swap2\n      pop\n        /* \"#utility.yul\":5623:5716   */\n      tag_128\n        /* \"#utility.yul\":5712:5715   */\n      dup3\n        /* \"#utility.yul\":5623:5716   */\n      tag_56\n      jump\t// in\n    tag_128:\n        /* \"#utility.yul\":5741:5742   */\n      0x04\n        /* \"#utility.yul\":5736:5739   */\n      dup3\n        /* \"#utility.yul\":5732:5743   */\n      add\n        /* \"#utility.yul\":5725:5743   */\n      swap1\n      pop\n        /* \"#utility.yul\":5349:5749   */\n      swap2\n      swap1\n      pop\n      jump\t// out\n        /* \"#utility.yul\":5755:6136   */\n    tag_36:\n        /* \"#utility.yul\":5940:5943   */\n      0x00\n        /* \"#utility.yul\":5962:6110   */\n      tag_130\n        /* \"#utility.yul\":6106:6109   */\n      dup3\n        /* \"#utility.yul\":5962:6110   */\n      tag_57\n      jump\t// in\n    tag_130:\n        /* \"#utility.yul\":5955:6110   */\n      swap2\n      pop\n        /* \"#utility.yul\":6127:6130   */\n      dup2\n        /* \"#utility.yul\":6120:6130   */\n      swap1\n      pop\n        /* \"#utility.yul\":5755:6136   */\n      swap2\n      swap1\n      pop\n      jump\t// out\n        /* \"#utility.yul\":6142:6298   */\n    tag_58:\n        /* \"#utility.yul\":6282:6290   */\n      0x6d696e7574650000000000000000000000000000000000000000000000000000\n        /* \"#utility.yul\":6278:6279   */\n      0x00\n        /* \"#utility.yul\":6270:6276   */\n      dup3\n        /* \"#utility.yul\":6266:6280   */\n      add\n        /* \"#utility.yul\":6259:6291   */\n      mstore\n        /* \"#utility.yul\":6142:6298   */\n      pop\n      jump\t// out\n        /* \"#utility.yul\":6304:6704   */\n    tag_59:\n        /* \"#utility.yul\":6464:6467   */\n      0x00\n        /* \"#utility.yul\":6485:6569   */\n      tag_133\n        /* \"#utility.yul\":6567:6568   */\n      0x06\n        /* \"#utility.yul\":6562:6565   */\n      dup4\n        /* \"#utility.yul\":6485:6569   */\n      tag_55\n      jump\t// in\n    tag_133:\n        /* \"#utility.yul\":6478:6569   */\n      swap2\n      pop\n        /* \"#utility.yul\":6578:6671   */\n      tag_134\n        /* \"#utility.yul\":6667:6670   */\n      dup3\n        /* \"#utility.yul\":6578:6671   */\n      tag_58\n      jump\t// in\n    tag_134:\n        /* \"#utility.yul\":6696:6697   */\n      0x06\n        /* \"#utility.yul\":6691:6694   */\n      dup3\n        /* \"#utility.yul\":6687:6698   */\n      add\n        /* \"#utility.yul\":6680:6698   */\n      swap1\n      pop\n        /* \"#utility.yul\":6304:6704   */\n      swap2\n      swap1\n      pop\n      jump\t// out\n        /* \"#utility.yul\":6710:7091   */\n    tag_38:\n        /* \"#utility.yul\":6895:6898   */\n      0x00\n        /* \"#utility.yul\":6917:7065   */\n      tag_136\n        /* \"#utility.yul\":7061:7064   */\n      dup3\n        /* \"#utility.yul\":6917:7065   */\n      tag_59\n      jump\t// in\n    tag_136:\n        /* \"#utility.yul\":6910:7065   */\n      swap2\n      pop\n        /* \"#utility.yul\":7082:7085   */\n      dup2\n        /* \"#utility.yul\":7075:7085   */\n      swap1\n      pop\n        /* \"#utility.yul\":6710:7091   */\n      swap2\n      swap1\n      pop\n      jump\t// out\n        /* \"#utility.yul\":7097:7253   */\n    tag_60:\n        /* \"#utility.yul\":7237:7245   */\n      0x7365636f6e640000000000000000000000000000000000000000000000000000\n        /* \"#utility.yul\":7233:7234   */\n      0x00\n        /* \"#utility.yul\":7225:7231   */\n      dup3\n        /* \"#utility.yul\":7221:7235   */\n      add\n        /* \"#utility.yul\":7214:7246   */\n      mstore\n        /* \"#utility.yul\":7097:7253   */\n      pop\n      jump\t// out\n        /* \"#utility.yul\":7259:7659   */\n    tag_61:\n        /* \"#utility.yul\":7419:7422   */\n      0x00\n        /* \"#utility.yul\":7440:7524   */\n      tag_139\n        /* \"#utility.yul\":7522:7523   */\n      0x06\n        /* \"#utility.yul\":7517:7520   */\n      dup4\n        /* \"#utility.yul\":7440:7524   */\n      tag_55\n      jump\t// in\n    tag_139:\n        /* \"#utility.yul\":7433:7524   */\n      swap2\n      pop\n        /* \"#utility.yul\":7533:7626   */\n      tag_140\n        /* \"#utility.yul\":7622:7625   */\n      dup3\n        /* \"#utility.yul\":7533:7626   */\n      tag_60\n      jump\t// in\n    tag_140:\n        /* \"#utility.yul\":7651:7652   */\n      0x06\n        /* \"#utility.yul\":7646:7649   */\n      dup3\n        /* \"#utility.yul\":7642:7653   */\n      add\n        /* \"#utility.yul\":7635:7653   */\n      swap1\n      pop\n        /* \"#utility.yul\":7259:7659   */\n      swap2\n      swap1\n      pop\n      jump\t// out\n        /* \"#utility.yul\":7665:8046   */\n    tag_40:\n        /* \"#utility.yul\":7850:7853   */\n      0x00\n        /* \"#utility.yul\":7872:8020   */\n      tag_142\n        /* \"#utility.yul\":8016:8019   */\n      dup3\n        /* \"#utility.yul\":7872:8020   */\n      tag_61\n      jump\t// in\n    tag_142:\n        /* \"#utility.yul\":7865:8020   */\n      swap2\n      pop\n        /* \"#utility.yul\":8037:8040   */\n      dup2\n        /* \"#utility.yul\":8030:8040   */\n      swap1\n      pop\n        /* \"#utility.yul\":7665:8046   */\n      swap2\n      swap1\n      pop\n      jump\t// out\n\n    auxdata: 0xa264697066735822122090d7c06cbe2b942112a22fbf49f67fcd98500d7fa9e38f8d082545435400817a64736f6c63430008120033\n}\n",
				"bytecode": {
					"linkReferences": {},
					"object": "608060405234801561001057600080fd5b50610645806100206000396000f3fe608060405234801561001057600080fd5b50600436106100365760003560e01c8063437fefd71461003b578063d150de651461006d575b600080fd5b61005560048036038101906100509190610232565b6100a2565b6040516100649392919061026e565b60405180910390f35b61008760048036038101906100829190610232565b610128565b60405161009996959493929190610335565b60405180910390f35b600080600080610e10856100b69190610409565b90506000603c610e10836100ca919061043a565b876100d5919061047c565b6100df9190610409565b90506000603c826100f0919061043a565b610e10846100fe919061043a565b88610109919061047c565b610113919061047c565b90508282829550955095505050509193909250565b6000606060006060600060606000610e10886101449190610409565b90506000603c610e108a61015891906104b0565b6101629190610409565b90506000603c610e108b61017691906104b0565b61018091906104b0565b90508260405160200161019290610538565b604051602081830303815290604052836040516020016101b190610599565b604051602081830303815290604052846040516020016101d0906105fa565b60405160208183030381529060405298509850985098509850985050505091939550919395565b600080fd5b6000819050919050565b61020f816101fc565b811461021a57600080fd5b50565b60008135905061022c81610206565b92915050565b600060208284031215610248576102476101f7565b5b60006102568482850161021d565b91505092915050565b610268816101fc565b82525050565b6000606082019050610283600083018661025f565b610290602083018561025f565b61029d604083018461025f565b949350505050565b600081519050919050565b600082825260208201905092915050565b60005b838110156102df5780820151818401526020810190506102c4565b60008484015250505050565b6000601f19601f8301169050919050565b6000610307826102a5565b61031181856102b0565b93506103218185602086016102c1565b61032a816102eb565b840191505092915050565b600060c08201905061034a600083018961025f565b818103602083015261035c81886102fc565b905061036b604083018761025f565b818103606083015261037d81866102fc565b905061038c608083018561025f565b81810360a083015261039e81846102fc565b9050979650505050505050565b7f4e487b7100000000000000000000000000000000000000000000000000000000600052601260045260246000fd5b7f4e487b7100000000000000000000000000000000000000000000000000000000600052601160045260246000fd5b6000610414826101fc565b915061041f836101fc565b92508261042f5761042e6103ab565b5b828204905092915050565b6000610445826101fc565b9150610450836101fc565b925082820261045e816101fc565b91508282048414831517610475576104746103da565b5b5092915050565b6000610487826101fc565b9150610492836101fc565b92508282039050818111156104aa576104a96103da565b5b92915050565b60006104bb826101fc565b91506104c6836101fc565b9250826104d6576104d56103ab565b5b828206905092915050565b600081905092915050565b7f686f757200000000000000000000000000000000000000000000000000000000600082015250565b60006105226004836104e1565b915061052d826104ec565b600482019050919050565b600061054382610515565b9150819050919050565b7f6d696e7574650000000000000000000000000000000000000000000000000000600082015250565b60006105836006836104e1565b915061058e8261054d565b600682019050919050565b60006105a482610576565b9150819050919050565b7f7365636f6e640000000000000000000000000000000000000000000000000000600082015250565b60006105e46006836104e1565b91506105ef826105ae565b600682019050919050565b6000610605826105d7565b915081905091905056fea264697066735822122090d7c06cbe2b942112a22fbf49f67fcd98500d7fa9e38f8d082545435400817a64736f6c63430008120033",
					"opcodes": "PUSH1 0x80 PUSH1 0x40 MSTORE CALLVALUE DUP1 ISZERO PUSH2 0x10 JUMPI PUSH1 0x0 DUP1 REVERT JUMPDEST POP PUSH2 0x645 DUP1 PUSH2 0x20 PUSH1 0x0 CODECOPY PUSH1 0x0 RETURN INVALID PUSH1 0x80 PUSH1 0x40 MSTORE CALLVALUE DUP1 ISZERO PUSH2 0x10 JUMPI PUSH1 0x0 DUP1 REVERT JUMPDEST POP PUSH1 0x4 CALLDATASIZE LT PUSH2 0x36 JUMPI PUSH1 0x0 CALLDATALOAD PUSH1 0xE0 SHR DUP1 PUSH4 0x437FEFD7 EQ PUSH2 0x3B JUMPI DUP1 PUSH4 0xD150DE65 EQ PUSH2 0x6D JUMPI JUMPDEST PUSH1 0x0 DUP1 REVERT JUMPDEST PUSH2 0x55 PUSH1 0x4 DUP1 CALLDATASIZE SUB DUP2 ADD SWAP1 PUSH2 0x50 SWAP2 SWAP1 PUSH2 0x232 JUMP JUMPDEST PUSH2 0xA2 JUMP JUMPDEST PUSH1 0x40 MLOAD PUSH2 0x64 SWAP4 SWAP3 SWAP2 SWAP1 PUSH2 0x26E JUMP JUMPDEST PUSH1 0x40 MLOAD DUP1 SWAP2 SUB SWAP1 RETURN JUMPDEST PUSH2 0x87 PUSH1 0x4 DUP1 CALLDATASIZE SUB DUP2 ADD SWAP1 PUSH2 0x82 SWAP2 SWAP1 PUSH2 0x232 JUMP JUMPDEST PUSH2 0x128 JUMP JUMPDEST PUSH1 0x40 MLOAD PUSH2 0x99 SWAP7 SWAP6 SWAP5 SWAP4 SWAP3 SWAP2 SWAP1 PUSH2 0x335 JUMP JUMPDEST PUSH1 0x40 MLOAD DUP1 SWAP2 SUB SWAP1 RETURN JUMPDEST PUSH1 0x0 DUP1 PUSH1 0x0 DUP1 PUSH2 0xE10 DUP6 PUSH2 0xB6 SWAP2 SWAP1 PUSH2 0x409 JUMP JUMPDEST SWAP1 POP PUSH1 0x0 PUSH1 0x3C PUSH2 0xE10 DUP4 PUSH2 0xCA SWAP2 SWAP1 PUSH2 0x43A JUMP JUMPDEST DUP8 PUSH2 0xD5 SWAP2 SWAP1 PUSH2 0x47C JUMP JUMPDEST PUSH2 0xDF SWAP2 SWAP1 PUSH2 0x409 JUMP JUMPDEST SWAP1 POP PUSH1 0x0 PUSH1 0x3C DUP3 PUSH2 0xF0 SWAP2 SWAP1 PUSH2 0x43A JUMP JUMPDEST PUSH2 0xE10 DUP5 PUSH2 0xFE SWAP2 SWAP1 PUSH2 0x43A JUMP JUMPDEST DUP9 PUSH2 0x109 SWAP2 SWAP1 PUSH2 0x47C JUMP JUMPDEST PUSH2 0x113 SWAP2 SWAP1 PUSH2 0x47C JUMP JUMPDEST SWAP1 POP DUP3 DUP3 DUP3 SWAP6 POP SWAP6 POP SWAP6 POP POP POP POP SWAP2 SWAP4 SWAP1 SWAP3 POP JUMP JUMPDEST PUSH1 0x0 PUSH1 0x60 PUSH1 0x0 PUSH1 0x60 PUSH1 0x0 PUSH1 0x60 PUSH1 0x0 PUSH2 0xE10 DUP9 PUSH2 0x144 SWAP2 SWAP1 PUSH2 0x409 JUMP JUMPDEST SWAP1 POP PUSH1 0x0 PUSH1 0x3C PUSH2 0xE10 DUP11 PUSH2 0x158 SWAP2 SWAP1 PUSH2 0x4B0 JUMP JUMPDEST PUSH2 0x162 SWAP2 SWAP1 PUSH2 0x409 JUMP JUMPDEST SWAP1 POP PUSH1 0x0 PUSH1 0x3C PUSH2 0xE10 DUP12 PUSH2 0x176 SWAP2 SWAP1 PUSH2 0x4B0 JUMP JUMPDEST PUSH2 0x180 SWAP2 SWAP1 PUSH2 0x4B0 JUMP JUMPDEST SWAP1 POP DUP3 PUSH1 0x40 MLOAD PUSH1 0x20 ADD PUSH2 0x192 SWAP1 PUSH2 0x538 JUMP JUMPDEST PUSH1 0x40 MLOAD PUSH1 0x20 DUP2 DUP4 SUB SUB DUP2 MSTORE SWAP1 PUSH1 0x40 MSTORE DUP4 PUSH1 0x40 MLOAD PUSH1 0x20 ADD PUSH2 0x1B1 SWAP1 PUSH2 0x599 JUMP JUMPDEST PUSH1 0x40 MLOAD PUSH1 0x20 DUP2 DUP4 SUB SUB DUP2 MSTORE SWAP1 PUSH1 0x40 MSTORE DUP5 PUSH1 0x40 MLOAD PUSH1 0x20 ADD PUSH2 0x1D0 SWAP1 PUSH2 0x5FA JUMP JUMPDEST PUSH1 0x40 MLOAD PUSH1 0x20 DUP2 DUP4 SUB SUB DUP2 MSTORE SWAP1 PUSH1 0x40 MSTORE SWAP9 POP SWAP9 POP SWAP9 POP SWAP9 POP SWAP9 POP SWAP9 POP POP POP POP SWAP2 SWAP4 SWAP6 POP SWAP2 SWAP4 SWAP6 JUMP JUMPDEST PUSH1 0x0 DUP1 REVERT JUMPDEST PUSH1 0x0 DUP2 SWAP1 POP SWAP2 SWAP1 POP JUMP JUMPDEST PUSH2 0x20F DUP2 PUSH2 0x1FC JUMP JUMPDEST DUP2 EQ PUSH2 0x21A JUMPI PUSH1 0x0 DUP1 REVERT JUMPDEST POP JUMP JUMPDEST PUSH1 0x0 DUP2 CALLDATALOAD SWAP1 POP PUSH2 0x22C DUP2 PUSH2 0x206 JUMP JUMPDEST SWAP3 SWAP2 POP POP JUMP JUMPDEST PUSH1 0x0 PUSH1 0x20 DUP3 DUP5 SUB SLT ISZERO PUSH2 0x248 JUMPI PUSH2 0x247 PUSH2 0x1F7 JUMP JUMPDEST JUMPDEST PUSH1 0x0 PUSH2 0x256 DUP5 DUP3 DUP6 ADD PUSH2 0x21D JUMP JUMPDEST SWAP2 POP POP SWAP3 SWAP2 POP POP JUMP JUMPDEST PUSH2 0x268 DUP2 PUSH2 0x1FC JUMP JUMPDEST DUP3 MSTORE POP POP JUMP JUMPDEST PUSH1 0x0 PUSH1 0x60 DUP3 ADD SWAP1 POP PUSH2 0x283 PUSH1 0x0 DUP4 ADD DUP7 PUSH2 0x25F JUMP JUMPDEST PUSH2 0x290 PUSH1 0x20 DUP4 ADD DUP6 PUSH2 0x25F JUMP JUMPDEST PUSH2 0x29D PUSH1 0x40 DUP4 ADD DUP5 PUSH2 0x25F JUMP JUMPDEST SWAP5 SWAP4 POP POP POP POP JUMP JUMPDEST PUSH1 0x0 DUP2 MLOAD SWAP1 POP SWAP2 SWAP1 POP JUMP JUMPDEST PUSH1 0x0 DUP3 DUP3 MSTORE PUSH1 0x20 DUP3 ADD SWAP1 POP SWAP3 SWAP2 POP POP JUMP JUMPDEST PUSH1 0x0 JUMPDEST DUP4 DUP2 LT ISZERO PUSH2 0x2DF JUMPI DUP1 DUP3 ADD MLOAD DUP2 DUP5 ADD MSTORE PUSH1 0x20 DUP2 ADD SWAP1 POP PUSH2 0x2C4 JUMP JUMPDEST PUSH1 0x0 DUP5 DUP5 ADD MSTORE POP POP POP POP JUMP JUMPDEST PUSH1 0x0 PUSH1 0x1F NOT PUSH1 0x1F DUP4 ADD AND SWAP1 POP SWAP2 SWAP1 POP JUMP JUMPDEST PUSH1 0x0 PUSH2 0x307 DUP3 PUSH2 0x2A5 JUMP JUMPDEST PUSH2 0x311 DUP2 DUP6 PUSH2 0x2B0 JUMP JUMPDEST SWAP4 POP PUSH2 0x321 DUP2 DUP6 PUSH1 0x20 DUP7 ADD PUSH2 0x2C1 JUMP JUMPDEST PUSH2 0x32A DUP2 PUSH2 0x2EB JUMP JUMPDEST DUP5 ADD SWAP2 POP POP SWAP3 SWAP2 POP POP JUMP JUMPDEST PUSH1 0x0 PUSH1 0xC0 DUP3 ADD SWAP1 POP PUSH2 0x34A PUSH1 0x0 DUP4 ADD DUP10 PUSH2 0x25F JUMP JUMPDEST DUP2 DUP2 SUB PUSH1 0x20 DUP4 ADD MSTORE PUSH2 0x35C DUP2 DUP9 PUSH2 0x2FC JUMP JUMPDEST SWAP1 POP PUSH2 0x36B PUSH1 0x40 DUP4 ADD DUP8 PUSH2 0x25F JUMP JUMPDEST DUP2 DUP2 SUB PUSH1 0x60 DUP4 ADD MSTORE PUSH2 0x37D DUP2 DUP7 PUSH2 0x2FC JUMP JUMPDEST SWAP1 POP PUSH2 0x38C PUSH1 0x80 DUP4 ADD DUP6 PUSH2 0x25F JUMP JUMPDEST DUP2 DUP2 SUB PUSH1 0xA0 DUP4 ADD MSTORE PUSH2 0x39E DUP2 DUP5 PUSH2 0x2FC JUMP JUMPDEST SWAP1 POP SWAP8 SWAP7 POP POP POP POP POP POP POP JUMP JUMPDEST PUSH32 0x4E487B7100000000000000000000000000000000000000000000000000000000 PUSH1 0x0 MSTORE PUSH1 0x12 PUSH1 0x4 MSTORE PUSH1 0x24 PUSH1 0x0 REVERT JUMPDEST PUSH32 0x4E487B7100000000000000000000000000000000000000000000000000000000 PUSH1 0x0 MSTORE PUSH1 0x11 PUSH1 0x4 MSTORE PUSH1 0x24 PUSH1 0x0 REVERT JUMPDEST PUSH1 0x0 PUSH2 0x414 DUP3 PUSH2 0x1FC JUMP JUMPDEST SWAP2 POP PUSH2 0x41F DUP4 PUSH2 0x1FC JUMP JUMPDEST SWAP3 POP DUP3 PUSH2 0x42F JUMPI PUSH2 0x42E PUSH2 0x3AB JUMP JUMPDEST JUMPDEST DUP3 DUP3 DIV SWAP1 POP SWAP3 SWAP2 POP POP JUMP JUMPDEST PUSH1 0x0 PUSH2 0x445 DUP3 PUSH2 0x1FC JUMP JUMPDEST SWAP2 POP PUSH2 0x450 DUP4 PUSH2 0x1FC JUMP JUMPDEST SWAP3 POP DUP3 DUP3 MUL PUSH2 0x45E DUP2 PUSH2 0x1FC JUMP JUMPDEST SWAP2 POP DUP3 DUP3 DIV DUP5 EQ DUP4 ISZERO OR PUSH2 0x475 JUMPI PUSH2 0x474 PUSH2 0x3DA JUMP JUMPDEST JUMPDEST POP SWAP3 SWAP2 POP POP JUMP JUMPDEST PUSH1 0x0 PUSH2 0x487 DUP3 PUSH2 0x1FC JUMP JUMPDEST SWAP2 POP PUSH2 0x492 DUP4 PUSH2 0x1FC JUMP JUMPDEST SWAP3 POP DUP3 DUP3 SUB SWAP1 POP DUP2 DUP2 GT ISZERO PUSH2 0x4AA JUMPI PUSH2 0x4A9 PUSH2 0x3DA JUMP JUMPDEST JUMPDEST SWAP3 SWAP2 POP POP JUMP JUMPDEST PUSH1 0x0 PUSH2 0x4BB DUP3 PUSH2 0x1FC JUMP JUMPDEST SWAP2 POP PUSH2 0x4C6 DUP4 PUSH2 0x1FC JUMP JUMPDEST SWAP3 POP DUP3 PUSH2 0x4D6 JUMPI PUSH2 0x4D5 PUSH2 0x3AB JUMP JUMPDEST JUMPDEST DUP3 DUP3 MOD SWAP1 POP SWAP3 SWAP2 POP POP JUMP JUMPDEST PUSH1 0x0 DUP2 SWAP1 POP SWAP3 SWAP2 POP POP JUMP JUMPDEST PUSH32 0x686F757200000000000000000000000000000000000000000000000000000000 PUSH1 0x0 DUP3 ADD MSTORE POP JUMP JUMPDEST PUSH1 0x0 PUSH2 0x522 PUSH1 0x4 DUP4 PUSH2 0x4E1 JUMP JUMPDEST SWAP2 POP PUSH2 0x52D DUP3 PUSH2 0x4EC JUMP JUMPDEST PUSH1 0x4 DUP3 ADD SWAP1 POP SWAP2 SWAP1 POP JUMP JUMPDEST PUSH1 0x0 PUSH2 0x543 DUP3 PUSH2 0x515 JUMP JUMPDEST SWAP2 POP DUP2 SWAP1 POP SWAP2 SWAP1 POP JUMP JUMPDEST PUSH32 0x6D696E7574650000000000000000000000000000000000000000000000000000 PUSH1 0x0 DUP3 ADD MSTORE POP JUMP JUMPDEST PUSH1 0x0 PUSH2 0x583 PUSH1 0x6 DUP4 PUSH2 0x4E1 JUMP JUMPDEST SWAP2 POP PUSH2 0x58E DUP3 PUSH2 0x54D JUMP JUMPDEST PUSH1 0x6 DUP3 ADD SWAP1 POP SWAP2 SWAP1 POP JUMP JUMPDEST PUSH1 0x0 PUSH2 0x5A4 DUP3 PUSH2 0x576 JUMP JUMPDEST SWAP2 POP DUP2 SWAP1 POP SWAP2 SWAP1 POP JUMP JUMPDEST PUSH32 0x7365636F6E640000000000000000000000000000000000000000000000000000 PUSH1 0x0 DUP3 ADD MSTORE POP JUMP JUMPDEST PUSH1 0x0 PUSH2 0x5E4 PUSH1 0x6 DUP4 PUSH2 0x4E1 JUMP JUMPDEST SWAP2 POP PUSH2 0x5EF DUP3 PUSH2 0x5AE JUMP JUMPDEST PUSH1 0x6 DUP3 ADD SWAP1 POP SWAP2 SWAP1 POP JUMP JUMPDEST PUSH1 0x0 PUSH2 0x605 DUP3 PUSH2 0x5D7 JUMP JUMPDEST SWAP2 POP DUP2 SWAP1 POP SWAP2 SWAP1 POP JUMP INVALID LOG2 PUSH5 0x6970667358 0x22 SLT KECCAK256 SWAP1 0xD7 0xC0 PUSH13 0xBE2B942112A22FBF49F67FCD98 POP 0xD PUSH32 0xA9E38F8D082545435400817A64736F6C63430008120033000000000000000000 "
				},
				"gasEstimates": {
					"creation": {
						"codeDepositCost": "321000",
						"executionCost": "362",
						"totalCost": "321362"
					},
					"external": {
						"Time1(uint256)": "infinite",
						"Time2(uint256)": "infinite"
					},
					"internal": {
						"atoi(uint256)": "infinite"
					}
				},
				"methodIdentifiers": {
					"Time1(uint256)": "437fefd7",
					"Time2(uint256)": "d150de65"
				}
			},
			"storageLayout": {
				"storage": [],
				"types": null
			},
			"userdoc": {
				"kind": "user",
				"methods": {},
				"version": 1
			}
		}
	}
}