{
	"data": {
		"bytecode": {
			"linkReferences": {},
			"object": "6080604052604051610010906100e0565b604051809103906000f08015801561002c573d6000803e3d6000fd5b506000806101000a81548173ffffffffffffffffffffffffffffffffffffffff021916908373ffffffffffffffffffffffffffffffffffffffff16021790555034801561007857600080fd5b506040516105ce3803806105ce833981810160405281019061009a9190610150565b806000806101000a81548173ffffffffffffffffffffffffffffffffffffffff021916908373ffffffffffffffffffffffffffffffffffffffff1602179055505061017d565b6102a08061032e83390190565b600080fd5b600073ffffffffffffffffffffffffffffffffffffffff82169050919050565b600061011d826100f2565b9050919050565b61012d81610112565b811461013857600080fd5b50565b60008151905061014a81610124565b92915050565b600060208284031215610166576101656100ed565b5b60006101748482850161013b565b91505092915050565b6101a28061018c6000396000f3fe608060405234801561001057600080fd5b506004361061002b5760003560e01c806309cdcf9b14610030575b600080fd5b61004a60048036038101906100459190610115565b61004c565b005b60008054906101000a900473ffffffffffffffffffffffffffffffffffffffff1673ffffffffffffffffffffffffffffffffffffffff1663ee919d50826040518263ffffffff1660e01b81526004016100a59190610151565b600060405180830381600087803b1580156100bf57600080fd5b505af11580156100d3573d6000803e3d6000fd5b5050505050565b600080fd5b6000819050919050565b6100f2816100df565b81146100fd57600080fd5b50565b60008135905061010f816100e9565b92915050565b60006020828403121561012b5761012a6100da565b5b600061013984828501610100565b91505092915050565b61014b816100df565b82525050565b60006020820190506101666000830184610142565b9291505056fea2646970667358221220ea139d0ebcdae986b77aaaa4af4a9718d00e7da977be59822fb222cf94cfbfa364736f6c63430008120033608060405234801561001057600080fd5b50610280806100206000396000f3fe608060405234801561001057600080fd5b50600436106100415760003560e01c80630dbe671f14610046578063e022d77c14610064578063ee919d5014610094575b600080fd5b61004e6100b0565b60405161005b9190610107565b60405180910390f35b61007e60048036038101906100799190610153565b6100b6565b60405161008b9190610107565b60405180910390f35b6100ae60048036038101906100a991906101ba565b6100e4565b005b60005481565b6000818385876100c69190610216565b6100d09190610216565b6100da9190610216565b9050949350505050565b8060008190555050565b6000819050919050565b610101816100ee565b82525050565b600060208201905061011c60008301846100f8565b92915050565b600080fd5b610130816100ee565b811461013b57600080fd5b50565b60008135905061014d81610127565b92915050565b6000806000806080858703121561016d5761016c610122565b5b600061017b8782880161013e565b945050602061018c8782880161013e565b935050604061019d8782880161013e565b92505060606101ae8782880161013e565b91505092959194509250565b6000602082840312156101d0576101cf610122565b5b60006101de8482850161013e565b91505092915050565b7f4e487b7100000000000000000000000000000000000000000000000000000000600052601160045260246000fd5b6000610221826100ee565b915061022c836100ee565b9250828201905080821115610244576102436101e7565b5b9291505056fea26469706673582212209e6ef74641187934be3daf7f8ae83996969d7a9aa3311b9fb7834bf4824bab5d64736f6c63430008120033",
			"opcodes": "PUSH1 0x80 PUSH1 0x40 MSTORE PUSH1 0x40 MLOAD PUSH2 0x10 SWAP1 PUSH2 0xE0 JUMP JUMPDEST PUSH1 0x40 MLOAD DUP1 SWAP2 SUB SWAP1 PUSH1 0x0 CREATE DUP1 ISZERO DUP1 ISZERO PUSH2 0x2C JUMPI RETURNDATASIZE PUSH1 0x0 DUP1 RETURNDATACOPY RETURNDATASIZE PUSH1 0x0 REVERT JUMPDEST POP PUSH1 0x0 DUP1 PUSH2 0x100 EXP DUP2 SLOAD DUP2 PUSH20 0xFFFFFFFFFFFFFFFFFFFFFFFFFFFFFFFFFFFFFFFF MUL NOT AND SWAP1 DUP4 PUSH20 0xFFFFFFFFFFFFFFFFFFFFFFFFFFFFFFFFFFFFFFFF AND MUL OR SWAP1 SSTORE POP CALLVALUE DUP1 ISZERO PUSH2 0x78 JUMPI PUSH1 0x0 DUP1 REVERT JUMPDEST POP PUSH1 0x40 MLOAD PUSH2 0x5CE CODESIZE SUB DUP1 PUSH2 0x5CE DUP4 CODECOPY DUP2 DUP2 ADD PUSH1 0x40 MSTORE DUP2 ADD SWAP1 PUSH2 0x9A SWAP2 SWAP1 PUSH2 0x150 JUMP JUMPDEST DUP1 PUSH1 0x0 DUP1 PUSH2 0x100 EXP DUP2 SLOAD DUP2 PUSH20 0xFFFFFFFFFFFFFFFFFFFFFFFFFFFFFFFFFFFFFFFF MUL NOT AND SWAP1 DUP4 PUSH20 0xFFFFFFFFFFFFFFFFFFFFFFFFFFFFFFFFFFFFFFFF AND MUL OR SWAP1 SSTORE POP POP PUSH2 0x17D JUMP JUMPDEST PUSH2 0x2A0 DUP1 PUSH2 0x32E DUP4 CODECOPY ADD SWAP1 JUMP JUMPDEST PUSH1 0x0 DUP1 REVERT JUMPDEST PUSH1 0x0 PUSH20 0xFFFFFFFFFFFFFFFFFFFFFFFFFFFFFFFFFFFFFFFF DUP3 AND SWAP1 POP SWAP2 SWAP1 POP JUMP JUMPDEST PUSH1 0x0 PUSH2 0x11D DUP3 PUSH2 0xF2 JUMP JUMPDEST SWAP1 POP SWAP2 SWAP1 POP JUMP JUMPDEST PUSH2 0x12D DUP2 PUSH2 0x112 JUMP JUMPDEST DUP2 EQ PUSH2 0x138 JUMPI PUSH1 0x0 DUP1 REVERT JUMPDEST POP JUMP JUMPDEST PUSH1 0x0 DUP2 MLOAD SWAP1 POP PUSH2 0x14A DUP2 PUSH2 0x124 JUMP JUMPDEST SWAP3 SWAP2 POP POP JUMP JUMPDEST PUSH1 0x0 PUSH1 0x20 DUP3 DUP5 SUB SLT ISZERO PUSH2 0x166 JUMPI PUSH2 0x165 PUSH2 0xED JUMP JUMPDEST JUMPDEST PUSH1 0x0 PUSH2 0x174 DUP5 DUP3 DUP6 ADD PUSH2 0x13B JUMP JUMPDEST SWAP2 POP POP SWAP3 SWAP2 POP POP JUMP JUMPDEST PUSH2 0x1A2 DUP1 PUSH2 0x18C PUSH1 0x0 CODECOPY PUSH1 0x0 RETURN INVALID PUSH1 0x80 PUSH1 0x40 MSTORE CALLVALUE DUP1 ISZERO PUSH2 0x10 JUMPI PUSH1 0x0 DUP1 REVERT JUMPDEST POP PUSH1 0x4 CALLDATASIZE LT PUSH2 0x2B JUMPI PUSH1 0x0 CALLDATALOAD PUSH1 0xE0 SHR DUP1 PUSH4 0x9CDCF9B EQ PUSH2 0x30 JUMPI JUMPDEST PUSH1 0x0 DUP1 REVERT JUMPDEST PUSH2 0x4A PUSH1 0x4 DUP1 CALLDATASIZE SUB DUP2 ADD SWAP1 PUSH2 0x45 SWAP2 SWAP1 PUSH2 0x115 JUMP JUMPDEST PUSH2 0x4C JUMP JUMPDEST STOP JUMPDEST PUSH1 0x0 DUP1 SLOAD SWAP1 PUSH2 0x100 EXP SWAP1 DIV PUSH20 0xFFFFFFFFFFFFFFFFFFFFFFFFFFFFFFFFFFFFFFFF AND PUSH20 0xFFFFFFFFFFFFFFFFFFFFFFFFFFFFFFFFFFFFFFFF AND PUSH4 0xEE919D50 DUP3 PUSH1 0x40 MLOAD DUP3 PUSH4 0xFFFFFFFF AND PUSH1 0xE0 SHL DUP2 MSTORE PUSH1 0x4 ADD PUSH2 0xA5 SWAP2 SWAP1 PUSH2 0x151 JUMP JUMPDEST PUSH1 0x0 PUSH1 0x40 MLOAD DUP1 DUP4 SUB DUP2 PUSH1 0x0 DUP8 DUP1 EXTCODESIZE ISZERO DUP1 ISZERO PUSH2 0xBF JUMPI PUSH1 0x0 DUP1 REVERT JUMPDEST POP GAS CALL ISZERO DUP1 ISZERO PUSH2 0xD3 JUMPI RETURNDATASIZE PUSH1 0x0 DUP1 RETURNDATACOPY RETURNDATASIZE PUSH1 0x0 REVERT JUMPDEST POP POP POP POP POP JUMP JUMPDEST PUSH1 0x0 DUP1 REVERT JUMPDEST PUSH1 0x0 DUP2 SWAP1 POP SWAP2 SWAP1 POP JUMP JUMPDEST PUSH2 0xF2 DUP2 PUSH2 0xDF JUMP JUMPDEST DUP2 EQ PUSH2 0xFD JUMPI PUSH1 0x0 DUP1 REVERT JUMPDEST POP JUMP JUMPDEST PUSH1 0x0 DUP2 CALLDATALOAD SWAP1 POP PUSH2 0x10F DUP2 PUSH2 0xE9 JUMP JUMPDEST SWAP3 SWAP2 POP POP JUMP JUMPDEST PUSH1 0x0 PUSH1 0x20 DUP3 DUP5 SUB SLT ISZERO PUSH2 0x12B JUMPI PUSH2 0x12A PUSH2 0xDA JUMP JUMPDEST JUMPDEST PUSH1 0x0 PUSH2 0x139 DUP5 DUP3 DUP6 ADD PUSH2 0x100 JUMP JUMPDEST SWAP2 POP POP SWAP3 SWAP2 POP POP JUMP JUMPDEST PUSH2 0x14B DUP2 PUSH2 0xDF JUMP JUMPDEST DUP3 MSTORE POP POP JUMP JUMPDEST PUSH1 0x0 PUSH1 0x20 DUP3 ADD SWAP1 POP PUSH2 0x166 PUSH1 0x0 DUP4 ADD DUP5 PUSH2 0x142 JUMP JUMPDEST SWAP3 SWAP2 POP POP JUMP INVALID LOG2 PUSH5 0x6970667358 0x22 SLT KECCAK256 0xEA SGT SWAP14 0xE 0xBC 0xDA 0xE9 DUP7 0xB7 PUSH27 0xAAA4AF4A9718D00E7DA977BE59822FB222CF94CFBFA364736F6C63 NUMBER STOP ADDMOD SLT STOP CALLER PUSH1 0x80 PUSH1 0x40 MSTORE CALLVALUE DUP1 ISZERO PUSH2 0x10 JUMPI PUSH1 0x0 DUP1 REVERT JUMPDEST POP PUSH2 0x280 DUP1 PUSH2 0x20 PUSH1 0x0 CODECOPY PUSH1 0x0 RETURN INVALID PUSH1 0x80 PUSH1 0x40 MSTORE CALLVALUE DUP1 ISZERO PUSH2 0x10 JUMPI PUSH1 0x0 DUP1 REVERT JUMPDEST POP PUSH1 0x4 CALLDATASIZE LT PUSH2 0x41 JUMPI PUSH1 0x0 CALLDATALOAD PUSH1 0xE0 SHR DUP1 PUSH4 0xDBE671F EQ PUSH2 0x46 JUMPI DUP1 PUSH4 0xE022D77C EQ PUSH2 0x64 JUMPI DUP1 PUSH4 0xEE919D50 EQ PUSH2 0x94 JUMPI JUMPDEST PUSH1 0x0 DUP1 REVERT JUMPDEST PUSH2 0x4E PUSH2 0xB0 JUMP JUMPDEST PUSH1 0x40 MLOAD PUSH2 0x5B SWAP2 SWAP1 PUSH2 0x107 JUMP JUMPDEST PUSH1 0x40 MLOAD DUP1 SWAP2 SUB SWAP1 RETURN JUMPDEST PUSH2 0x7E PUSH1 0x4 DUP1 CALLDATASIZE SUB DUP2 ADD SWAP1 PUSH2 0x79 SWAP2 SWAP1 PUSH2 0x153 JUMP JUMPDEST PUSH2 0xB6 JUMP JUMPDEST PUSH1 0x40 MLOAD PUSH2 0x8B SWAP2 SWAP1 PUSH2 0x107 JUMP JUMPDEST PUSH1 0x40 MLOAD DUP1 SWAP2 SUB SWAP1 RETURN JUMPDEST PUSH2 0xAE PUSH1 0x4 DUP1 CALLDATASIZE SUB DUP2 ADD SWAP1 PUSH2 0xA9 SWAP2 SWAP1 PUSH2 0x1BA JUMP JUMPDEST PUSH2 0xE4 JUMP JUMPDEST STOP JUMPDEST PUSH1 0x0 SLOAD DUP2 JUMP JUMPDEST PUSH1 0x0 DUP2 DUP4 DUP6 DUP8 PUSH2 0xC6 SWAP2 SWAP1 PUSH2 0x216 JUMP JUMPDEST PUSH2 0xD0 SWAP2 SWAP1 PUSH2 0x216 JUMP JUMPDEST PUSH2 0xDA SWAP2 SWAP1 PUSH2 0x216 JUMP JUMPDEST SWAP1 POP SWAP5 SWAP4 POP POP POP POP JUMP JUMPDEST DUP1 PUSH1 0x0 DUP2 SWAP1 SSTORE POP POP JUMP JUMPDEST PUSH1 0x0 DUP2 SWAP1 POP SWAP2 SWAP1 POP JUMP JUMPDEST PUSH2 0x101 DUP2 PUSH2 0xEE JUMP JUMPDEST DUP3 MSTORE POP POP JUMP JUMPDEST PUSH1 0x0 PUSH1 0x20 DUP3 ADD SWAP1 POP PUSH2 0x11C PUSH1 0x0 DUP4 ADD DUP5 PUSH2 0xF8 JUMP JUMPDEST SWAP3 SWAP2 POP POP JUMP JUMPDEST PUSH1 0x0 DUP1 REVERT JUMPDEST PUSH2 0x130 DUP2 PUSH2 0xEE JUMP JUMPDEST DUP2 EQ PUSH2 0x13B JUMPI PUSH1 0x0 DUP1 REVERT JUMPDEST POP JUMP JUMPDEST PUSH1 0x0 DUP2 CALLDATALOAD SWAP1 POP PUSH2 0x14D DUP2 PUSH2 0x127 JUMP JUMPDEST SWAP3 SWAP2 POP POP JUMP JUMPDEST PUSH1 0x0 DUP1 PUSH1 0x0 DUP1 PUSH1 0x80 DUP6 DUP8 SUB SLT ISZERO PUSH2 0x16D JUMPI PUSH2 0x16C PUSH2 0x122 JUMP JUMPDEST JUMPDEST PUSH1 0x0 PUSH2 0x17B DUP8 DUP3 DUP9 ADD PUSH2 0x13E JUMP JUMPDEST SWAP5 POP POP PUSH1 0x20 PUSH2 0x18C DUP8 DUP3 DUP9 ADD PUSH2 0x13E JUMP JUMPDEST SWAP4 POP POP PUSH1 0x40 PUSH2 0x19D DUP8 DUP3 DUP9 ADD PUSH2 0x13E JUMP JUMPDEST SWAP3 POP POP PUSH1 0x60 PUSH2 0x1AE DUP8 DUP3 DUP9 ADD PUSH2 0x13E JUMP JUMPDEST SWAP2 POP POP SWAP3 SWAP6 SWAP2 SWAP5 POP SWAP3 POP JUMP JUMPDEST PUSH1 0x0 PUSH1 0x20 DUP3 DUP5 SUB SLT ISZERO PUSH2 0x1D0 JUMPI PUSH2 0x1CF PUSH2 0x122 JUMP JUMPDEST JUMPDEST PUSH1 0x0 PUSH2 0x1DE DUP5 DUP3 DUP6 ADD PUSH2 0x13E JUMP JUMPDEST SWAP2 POP POP SWAP3 SWAP2 POP POP JUMP JUMPDEST PUSH32 0x4E487B7100000000000000000000000000000000000000000000000000000000 PUSH1 0x0 MSTORE PUSH1 0x11 PUSH1 0x4 MSTORE PUSH1 0x24 PUSH1 0x0 REVERT JUMPDEST PUSH1 0x0 PUSH2 0x221 DUP3 PUSH2 0xEE JUMP JUMPDEST SWAP2 POP PUSH2 0x22C DUP4 PUSH2 0xEE JUMP JUMPDEST SWAP3 POP DUP3 DUP3 ADD SWAP1 POP DUP1 DUP3 GT ISZERO PUSH2 0x244 JUMPI PUSH2 0x243 PUSH2 0x1E7 JUMP JUMPDEST JUMPDEST SWAP3 SWAP2 POP POP JUMP INVALID LOG2 PUSH5 0x6970667358 0x22 SLT KECCAK256 SWAP15 PUSH15 0xF74641187934BE3DAF7F8AE8399696 SWAP14 PUSH27 0x9AA3311B9FB7834BF4824BAB5D64736F6C63430008120033000000 "
		},
		"gasEstimates": {
			"creation": {
				"codeDepositCost": "83600",
				"executionCost": "infinite",
				"totalCost": "infinite"
			},
			"external": {
				"setB(uint256)": "infinite"
			}
		},
		"methodIdentifiers": {
			"setB(uint256)": "09cdcf9b"
		}
	},
	"abi": [
		{
			"inputs": [
				{
					"internalType": "address",
					"name": "Aaddress",
					"type": "address"
				}
			],
			"stateMutability": "nonpayable",
			"type": "constructor"
		},
		{
			"inputs": [
				{
					"internalType": "uint256",
					"name": "_b",
					"type": "uint256"
				}
			],
			"name": "setB",
			"outputs": [],
			"stateMutability": "nonpayable",
			"type": "function"
		}
	]
}