{
	"contracts/230523/quiz7.sol": {
		"Q7": {
			"abi": [
				{
					"inputs": [
						{
							"internalType": "uint256",
							"name": "_n",
							"type": "uint256"
						}
					],
					"name": "setTime",
					"outputs": [
						{
							"internalType": "string",
							"name": "",
							"type": "string"
						}
					],
					"stateMutability": "pure",
					"type": "function"
				}
			],
			"devdoc": {
				"kind": "dev",
				"methods": {},
				"version": 1
			},
			"evm": {
				"assembly": "    /* \"contracts/230523/quiz7.sol\":61:1369  contract Q7 {... */\n  mstore(0x40, 0x80)\n  callvalue\n  dup1\n  iszero\n  tag_1\n  jumpi\n  0x00\n  dup1\n  revert\ntag_1:\n  pop\n  dataSize(sub_0)\n  dup1\n  dataOffset(sub_0)\n  0x00\n  codecopy\n  0x00\n  return\nstop\n\nsub_0: assembly {\n        /* \"contracts/230523/quiz7.sol\":61:1369  contract Q7 {... */\n      mstore(0x40, 0x80)\n      callvalue\n      dup1\n      iszero\n      tag_1\n      jumpi\n      0x00\n      dup1\n      revert\n    tag_1:\n      pop\n      jumpi(tag_2, lt(calldatasize, 0x04))\n      shr(0xe0, calldataload(0x00))\n      dup1\n      0x3beb26c4\n      eq\n      tag_3\n      jumpi\n    tag_2:\n      0x00\n      dup1\n      revert\n        /* \"contracts/230523/quiz7.sol\":235:775  function setTime(uint _n) public pure returns(string memory) {... */\n    tag_3:\n      tag_4\n      0x04\n      dup1\n      calldatasize\n      sub\n      dup2\n      add\n      swap1\n      tag_5\n      swap2\n      swap1\n      tag_6\n      jump\t// in\n    tag_5:\n      tag_7\n      jump\t// in\n    tag_4:\n      mload(0x40)\n      tag_8\n      swap2\n      swap1\n      tag_9\n      jump\t// in\n    tag_8:\n      mload(0x40)\n      dup1\n      swap2\n      sub\n      swap1\n      return\n    tag_7:\n        /* \"contracts/230523/quiz7.sol\":281:294  string memory */\n      0x60\n        /* \"contracts/230523/quiz7.sol\":307:316  uint hour */\n      0x00\n        /* \"contracts/230523/quiz7.sol\":322:326  3600 */\n      0x0e10\n        /* \"contracts/230523/quiz7.sol\":319:321  _n */\n      dup4\n        /* \"contracts/230523/quiz7.sol\":319:326  _n/3600 */\n      tag_11\n      swap2\n      swap1\n      tag_12\n      jump\t// in\n    tag_11:\n        /* \"contracts/230523/quiz7.sol\":307:326  uint hour = _n/3600 */\n      swap1\n      pop\n        /* \"contracts/230523/quiz7.sol\":337:348  uint minute */\n      0x00\n        /* \"contracts/230523/quiz7.sol\":361:363  60 */\n      0x3c\n        /* \"contracts/230523/quiz7.sol\":355:359  3600 */\n      0x0e10\n        /* \"contracts/230523/quiz7.sol\":352:354  _n */\n      dup6\n        /* \"contracts/230523/quiz7.sol\":352:359  _n%3600 */\n      tag_13\n      swap2\n      swap1\n      tag_14\n      jump\t// in\n    tag_13:\n        /* \"contracts/230523/quiz7.sol\":351:363  (_n%3600)/60 */\n      tag_15\n      swap2\n      swap1\n      tag_12\n      jump\t// in\n    tag_15:\n        /* \"contracts/230523/quiz7.sol\":337:363  uint minute = (_n%3600)/60 */\n      swap1\n      pop\n        /* \"contracts/230523/quiz7.sol\":396:407  uint second */\n      0x00\n        /* \"contracts/230523/quiz7.sol\":413:415  60 */\n      0x3c\n        /* \"contracts/230523/quiz7.sol\":410:412  _n */\n      dup6\n        /* \"contracts/230523/quiz7.sol\":410:415  _n%60 */\n      tag_16\n      swap2\n      swap1\n      tag_14\n      jump\t// in\n    tag_16:\n        /* \"contracts/230523/quiz7.sol\":396:415  uint second = _n%60 */\n      swap1\n      pop\n        /* \"contracts/230523/quiz7.sol\":438:439  0 */\n      0x00\n        /* \"contracts/230523/quiz7.sol\":431:435  hour */\n      dup4\n        /* \"contracts/230523/quiz7.sol\":431:439  hour > 0 */\n      gt\n        /* \"contracts/230523/quiz7.sol\":428:768  if(hour > 0) {... */\n      iszero\n      tag_17\n      jumpi\n        /* \"contracts/230523/quiz7.sol\":487:499  concat(hour) */\n      tag_18\n        /* \"contracts/230523/quiz7.sol\":494:498  hour */\n      dup4\n        /* \"contracts/230523/quiz7.sol\":487:493  concat */\n      tag_19\n        /* \"contracts/230523/quiz7.sol\":487:499  concat(hour) */\n      jump\t// in\n    tag_18:\n        /* \"contracts/230523/quiz7.sol\":507:521  concat(minute) */\n      tag_20\n        /* \"contracts/230523/quiz7.sol\":514:520  minute */\n      dup4\n        /* \"contracts/230523/quiz7.sol\":507:513  concat */\n      tag_19\n        /* \"contracts/230523/quiz7.sol\":507:521  concat(minute) */\n      jump\t// in\n    tag_20:\n        /* \"contracts/230523/quiz7.sol\":529:543  concat(second) */\n      tag_21\n        /* \"contracts/230523/quiz7.sol\":536:542  second */\n      dup4\n        /* \"contracts/230523/quiz7.sol\":529:535  concat */\n      tag_19\n        /* \"contracts/230523/quiz7.sol\":529:543  concat(second) */\n      jump\t// in\n    tag_21:\n        /* \"contracts/230523/quiz7.sol\":470:549  abi.encodePacked(concat(hour), \"h \", concat(minute), \"m \", concat(second), \"s\") */\n      add(0x20, mload(0x40))\n      tag_22\n      swap4\n      swap3\n      swap2\n      swap1\n      tag_23\n      jump\t// in\n    tag_22:\n      mload(0x40)\n      0x20\n      dup2\n      dup4\n      sub\n      sub\n      dup2\n      mstore\n      swap1\n      0x40\n      mstore\n        /* \"contracts/230523/quiz7.sol\":456:550  return string(abi.encodePacked(concat(hour), \"h \", concat(minute), \"m \", concat(second), \"s\")) */\n      swap4\n      pop\n      pop\n      pop\n      pop\n      jump(tag_10)\n        /* \"contracts/230523/quiz7.sol\":428:768  if(hour > 0) {... */\n    tag_17:\n        /* \"contracts/230523/quiz7.sol\":580:581  0 */\n      0x00\n        /* \"contracts/230523/quiz7.sol\":571:577  minute */\n      dup3\n        /* \"contracts/230523/quiz7.sol\":571:581  minute > 0 */\n      gt\n        /* \"contracts/230523/quiz7.sol\":568:768  if(minute > 0) {... */\n      iszero\n      tag_25\n      jumpi\n        /* \"contracts/230523/quiz7.sol\":629:643  concat(minute) */\n      tag_26\n        /* \"contracts/230523/quiz7.sol\":636:642  minute */\n      dup3\n        /* \"contracts/230523/quiz7.sol\":629:635  concat */\n      tag_19\n        /* \"contracts/230523/quiz7.sol\":629:643  concat(minute) */\n      jump\t// in\n    tag_26:\n        /* \"contracts/230523/quiz7.sol\":651:665  concat(second) */\n      tag_27\n        /* \"contracts/230523/quiz7.sol\":658:664  second */\n      dup3\n        /* \"contracts/230523/quiz7.sol\":651:657  concat */\n      tag_19\n        /* \"contracts/230523/quiz7.sol\":651:665  concat(second) */\n      jump\t// in\n    tag_27:\n        /* \"contracts/230523/quiz7.sol\":612:671  abi.encodePacked(concat(minute), \"m \", concat(second), \"s\") */\n      add(0x20, mload(0x40))\n      tag_28\n      swap3\n      swap2\n      swap1\n      tag_29\n      jump\t// in\n    tag_28:\n      mload(0x40)\n      0x20\n      dup2\n      dup4\n      sub\n      sub\n      dup2\n      mstore\n      swap1\n      0x40\n      mstore\n        /* \"contracts/230523/quiz7.sol\":598:672  return string(abi.encodePacked(concat(minute), \"m \", concat(second), \"s\")) */\n      swap4\n      pop\n      pop\n      pop\n      pop\n      jump(tag_10)\n        /* \"contracts/230523/quiz7.sol\":568:768  if(minute > 0) {... */\n    tag_25:\n        /* \"contracts/230523/quiz7.sol\":735:749  concat(second) */\n      tag_31\n        /* \"contracts/230523/quiz7.sol\":742:748  second */\n      dup2\n        /* \"contracts/230523/quiz7.sol\":735:741  concat */\n      tag_19\n        /* \"contracts/230523/quiz7.sol\":735:749  concat(second) */\n      jump\t// in\n    tag_31:\n        /* \"contracts/230523/quiz7.sol\":718:755  abi.encodePacked(concat(second), \"s\") */\n      add(0x20, mload(0x40))\n      tag_32\n      swap2\n      swap1\n      tag_33\n      jump\t// in\n    tag_32:\n      mload(0x40)\n      0x20\n      dup2\n      dup4\n      sub\n      sub\n      dup2\n      mstore\n      swap1\n      0x40\n      mstore\n        /* \"contracts/230523/quiz7.sol\":704:756  return string(abi.encodePacked(concat(second), \"s\")) */\n      swap4\n      pop\n      pop\n      pop\n      pop\n        /* \"contracts/230523/quiz7.sol\":235:775  function setTime(uint _n) public pure returns(string memory) {... */\n    tag_10:\n      swap2\n      swap1\n      pop\n      jump\t// out\n        /* \"contracts/230523/quiz7.sol\":783:1366  function concat(uint n) internal pure returns(string memory) {... */\n    tag_19:\n        /* \"contracts/230523/quiz7.sol\":829:842  string memory */\n      0x60\n        /* \"contracts/230523/quiz7.sol\":855:865  uint count */\n      0x00\n        /* \"contracts/230523/quiz7.sol\":876:886  uint copyA */\n      dup1\n        /* \"contracts/230523/quiz7.sol\":889:890  n */\n      dup4\n        /* \"contracts/230523/quiz7.sol\":876:890  uint copyA = n */\n      swap1\n      pop\n        /* \"contracts/230523/quiz7.sol\":901:979  while(copyA != 0) {... */\n    tag_35:\n        /* \"contracts/230523/quiz7.sol\":916:917  0 */\n      0x00\n        /* \"contracts/230523/quiz7.sol\":907:912  copyA */\n      dup2\n        /* \"contracts/230523/quiz7.sol\":907:917  copyA != 0 */\n      eq\n        /* \"contracts/230523/quiz7.sol\":901:979  while(copyA != 0) {... */\n      tag_36\n      jumpi\n        /* \"contracts/230523/quiz7.sol\":943:945  10 */\n      0x0a\n        /* \"contracts/230523/quiz7.sol\":934:945  copyA /= 10 */\n      dup2\n      tag_37\n      swap2\n      swap1\n      tag_12\n      jump\t// in\n    tag_37:\n      swap1\n      pop\n        /* \"contracts/230523/quiz7.sol\":960:967  count++ */\n      dup2\n      dup1\n      tag_38\n      swap1\n      tag_39\n      jump\t// in\n    tag_38:\n      swap3\n      pop\n      pop\n        /* \"contracts/230523/quiz7.sol\":901:979  while(copyA != 0) {... */\n      jump(tag_35)\n    tag_36:\n        /* \"contracts/230523/quiz7.sol\":991:1015  uint[] memory NumToArray */\n      0x00\n        /* \"contracts/230523/quiz7.sol\":1029:1034  count */\n      dup3\n        /* \"contracts/230523/quiz7.sol\":1018:1035  new uint[](count) */\n      0xffffffffffffffff\n      dup2\n      gt\n      iszero\n      tag_40\n      jumpi\n      tag_41\n      tag_42\n      jump\t// in\n    tag_41:\n    tag_40:\n      mload(0x40)\n      swap1\n      dup1\n      dup3\n      mstore\n      dup1\n      0x20\n      mul\n      0x20\n      add\n      dup3\n      add\n      0x40\n      mstore\n      dup1\n      iszero\n      tag_43\n      jumpi\n      dup2\n      0x20\n      add\n      0x20\n      dup3\n      mul\n      dup1\n      calldatasize\n      dup4\n      calldatacopy\n      dup1\n      dup3\n      add\n      swap2\n      pop\n      pop\n      swap1\n      pop\n    tag_43:\n      pop\n        /* \"contracts/230523/quiz7.sol\":991:1035  uint[] memory NumToArray = new uint[](count) */\n      swap1\n      pop\n        /* \"contracts/230523/quiz7.sol\":1054:1055  n */\n      dup5\n        /* \"contracts/230523/quiz7.sol\":1046:1055  copyA = n */\n      swap2\n      pop\n        /* \"contracts/230523/quiz7.sol\":1066:1080  uint copyCount */\n      0x00\n        /* \"contracts/230523/quiz7.sol\":1083:1088  count */\n      dup4\n        /* \"contracts/230523/quiz7.sol\":1066:1088  uint copyCount = count */\n      swap1\n      pop\n        /* \"contracts/230523/quiz7.sol\":1099:1205  while(copyA != 0) {... */\n    tag_44:\n        /* \"contracts/230523/quiz7.sol\":1114:1115  0 */\n      0x00\n        /* \"contracts/230523/quiz7.sol\":1105:1110  copyA */\n      dup4\n        /* \"contracts/230523/quiz7.sol\":1105:1115  copyA != 0 */\n      eq\n        /* \"contracts/230523/quiz7.sol\":1099:1205  while(copyA != 0) {... */\n      tag_45\n      jumpi\n        /* \"contracts/230523/quiz7.sol\":1165:1167  10 */\n      0x0a\n        /* \"contracts/230523/quiz7.sol\":1159:1164  copyA */\n      dup4\n        /* \"contracts/230523/quiz7.sol\":1159:1167  copyA%10 */\n      tag_46\n      swap2\n      swap1\n      tag_14\n      jump\t// in\n    tag_46:\n        /* \"contracts/230523/quiz7.sol\":1132:1142  NumToArray */\n      dup3\n        /* \"contracts/230523/quiz7.sol\":1143:1154  --copyCount */\n      dup3\n      tag_47\n      swap1\n      tag_48\n      jump\t// in\n    tag_47:\n      swap3\n      pop\n      dup3\n        /* \"contracts/230523/quiz7.sol\":1132:1155  NumToArray[--copyCount] */\n      dup2\n      mload\n      dup2\n      lt\n      tag_49\n      jumpi\n      tag_50\n      tag_51\n      jump\t// in\n    tag_50:\n    tag_49:\n      0x20\n      mul\n      0x20\n      add\n      add\n        /* \"contracts/230523/quiz7.sol\":1132:1167  NumToArray[--copyCount] =  copyA%10 */\n      dup2\n      dup2\n      mstore\n      pop\n      pop\n        /* \"contracts/230523/quiz7.sol\":1191:1193  10 */\n      0x0a\n        /* \"contracts/230523/quiz7.sol\":1182:1193  copyA /= 10 */\n      dup4\n      tag_52\n      swap2\n      swap1\n      tag_12\n      jump\t// in\n    tag_52:\n      swap3\n      pop\n        /* \"contracts/230523/quiz7.sol\":1099:1205  while(copyA != 0) {... */\n      jump(tag_44)\n    tag_45:\n        /* \"contracts/230523/quiz7.sol\":1229:1235  uint i */\n      0x00\n        /* \"contracts/230523/quiz7.sol\":1225:1303  for(uint i = 0; i < count; i++) {... */\n    tag_53:\n        /* \"contracts/230523/quiz7.sol\":1245:1250  count */\n      dup5\n        /* \"contracts/230523/quiz7.sol\":1241:1242  i */\n      dup2\n        /* \"contracts/230523/quiz7.sol\":1241:1250  i < count */\n      lt\n        /* \"contracts/230523/quiz7.sol\":1225:1303  for(uint i = 0; i < count; i++) {... */\n      iszero\n      tag_54\n      jumpi\n        /* \"contracts/230523/quiz7.sol\":1289:1291  48 */\n      0x30\n        /* \"contracts/230523/quiz7.sol\":1272:1282  NumToArray */\n      dup4\n        /* \"contracts/230523/quiz7.sol\":1283:1284  i */\n      dup3\n        /* \"contracts/230523/quiz7.sol\":1272:1285  NumToArray[i] */\n      dup2\n      mload\n      dup2\n      lt\n      tag_56\n      jumpi\n      tag_57\n      tag_51\n      jump\t// in\n    tag_57:\n    tag_56:\n      0x20\n      mul\n      0x20\n      add\n      add\n        /* \"contracts/230523/quiz7.sol\":1272:1291  NumToArray[i] += 48 */\n      dup2\n      dup2\n      mload\n      tag_58\n      swap2\n      swap1\n      tag_59\n      jump\t// in\n    tag_58:\n      swap2\n      pop\n      dup2\n      dup2\n      mstore\n      pop\n      pop\n        /* \"contracts/230523/quiz7.sol\":1252:1255  i++ */\n      dup1\n      dup1\n      tag_60\n      swap1\n      tag_39\n      jump\t// in\n    tag_60:\n      swap2\n      pop\n      pop\n        /* \"contracts/230523/quiz7.sol\":1225:1303  for(uint i = 0; i < count; i++) {... */\n      jump(tag_53)\n    tag_54:\n      pop\n        /* \"contracts/230523/quiz7.sol\":1346:1356  NumToArray */\n      dup2\n        /* \"contracts/230523/quiz7.sol\":1329:1357  abi.encodePacked(NumToArray) */\n      add(0x20, mload(0x40))\n      tag_61\n      swap2\n      swap1\n      tag_62\n      jump\t// in\n    tag_61:\n      mload(0x40)\n      0x20\n      dup2\n      dup4\n      sub\n      sub\n      dup2\n      mstore\n      swap1\n      0x40\n      mstore\n        /* \"contracts/230523/quiz7.sol\":1315:1358  return string(abi.encodePacked(NumToArray)) */\n      swap5\n      pop\n      pop\n      pop\n      pop\n      pop\n        /* \"contracts/230523/quiz7.sol\":783:1366  function concat(uint n) internal pure returns(string memory) {... */\n      swap2\n      swap1\n      pop\n      jump\t// out\n        /* \"#utility.yul\":88:205   */\n    tag_64:\n        /* \"#utility.yul\":197:198   */\n      0x00\n        /* \"#utility.yul\":194:195   */\n      dup1\n        /* \"#utility.yul\":187:199   */\n      revert\n        /* \"#utility.yul\":334:411   */\n    tag_66:\n        /* \"#utility.yul\":371:378   */\n      0x00\n        /* \"#utility.yul\":400:405   */\n      dup2\n        /* \"#utility.yul\":389:405   */\n      swap1\n      pop\n        /* \"#utility.yul\":334:411   */\n      swap2\n      swap1\n      pop\n      jump\t// out\n        /* \"#utility.yul\":417:539   */\n    tag_67:\n        /* \"#utility.yul\":490:514   */\n      tag_97\n        /* \"#utility.yul\":508:513   */\n      dup2\n        /* \"#utility.yul\":490:514   */\n      tag_66\n      jump\t// in\n    tag_97:\n        /* \"#utility.yul\":483:488   */\n      dup2\n        /* \"#utility.yul\":480:515   */\n      eq\n        /* \"#utility.yul\":470:533   */\n      tag_98\n      jumpi\n        /* \"#utility.yul\":529:530   */\n      0x00\n        /* \"#utility.yul\":526:527   */\n      dup1\n        /* \"#utility.yul\":519:531   */\n      revert\n        /* \"#utility.yul\":470:533   */\n    tag_98:\n        /* \"#utility.yul\":417:539   */\n      pop\n      jump\t// out\n        /* \"#utility.yul\":545:684   */\n    tag_68:\n        /* \"#utility.yul\":591:596   */\n      0x00\n        /* \"#utility.yul\":629:635   */\n      dup2\n        /* \"#utility.yul\":616:636   */\n      calldataload\n        /* \"#utility.yul\":607:636   */\n      swap1\n      pop\n        /* \"#utility.yul\":645:678   */\n      tag_100\n        /* \"#utility.yul\":672:677   */\n      dup2\n        /* \"#utility.yul\":645:678   */\n      tag_67\n      jump\t// in\n    tag_100:\n        /* \"#utility.yul\":545:684   */\n      swap3\n      swap2\n      pop\n      pop\n      jump\t// out\n        /* \"#utility.yul\":690:1019   */\n    tag_6:\n        /* \"#utility.yul\":749:755   */\n      0x00\n        /* \"#utility.yul\":798:800   */\n      0x20\n        /* \"#utility.yul\":786:795   */\n      dup3\n        /* \"#utility.yul\":777:784   */\n      dup5\n        /* \"#utility.yul\":773:796   */\n      sub\n        /* \"#utility.yul\":769:801   */\n      slt\n        /* \"#utility.yul\":766:885   */\n      iszero\n      tag_102\n      jumpi\n        /* \"#utility.yul\":804:883   */\n      tag_103\n      tag_64\n      jump\t// in\n    tag_103:\n        /* \"#utility.yul\":766:885   */\n    tag_102:\n        /* \"#utility.yul\":924:925   */\n      0x00\n        /* \"#utility.yul\":949:1002   */\n      tag_104\n        /* \"#utility.yul\":994:1001   */\n      dup5\n        /* \"#utility.yul\":985:991   */\n      dup3\n        /* \"#utility.yul\":974:983   */\n      dup6\n        /* \"#utility.yul\":970:992   */\n      add\n        /* \"#utility.yul\":949:1002   */\n      tag_68\n      jump\t// in\n    tag_104:\n        /* \"#utility.yul\":939:1002   */\n      swap2\n      pop\n        /* \"#utility.yul\":895:1012   */\n      pop\n        /* \"#utility.yul\":690:1019   */\n      swap3\n      swap2\n      pop\n      pop\n      jump\t// out\n        /* \"#utility.yul\":1025:1124   */\n    tag_69:\n        /* \"#utility.yul\":1077:1083   */\n      0x00\n        /* \"#utility.yul\":1111:1116   */\n      dup2\n        /* \"#utility.yul\":1105:1117   */\n      mload\n        /* \"#utility.yul\":1095:1117   */\n      swap1\n      pop\n        /* \"#utility.yul\":1025:1124   */\n      swap2\n      swap1\n      pop\n      jump\t// out\n        /* \"#utility.yul\":1130:1299   */\n    tag_70:\n        /* \"#utility.yul\":1214:1225   */\n      0x00\n        /* \"#utility.yul\":1248:1254   */\n      dup3\n        /* \"#utility.yul\":1243:1246   */\n      dup3\n        /* \"#utility.yul\":1236:1255   */\n      mstore\n        /* \"#utility.yul\":1288:1292   */\n      0x20\n        /* \"#utility.yul\":1283:1286   */\n      dup3\n        /* \"#utility.yul\":1279:1293   */\n      add\n        /* \"#utility.yul\":1264:1293   */\n      swap1\n      pop\n        /* \"#utility.yul\":1130:1299   */\n      swap3\n      swap2\n      pop\n      pop\n      jump\t// out\n        /* \"#utility.yul\":1305:1551   */\n    tag_71:\n        /* \"#utility.yul\":1386:1387   */\n      0x00\n        /* \"#utility.yul\":1396:1509   */\n    tag_108:\n        /* \"#utility.yul\":1410:1416   */\n      dup4\n        /* \"#utility.yul\":1407:1408   */\n      dup2\n        /* \"#utility.yul\":1404:1417   */\n      lt\n        /* \"#utility.yul\":1396:1509   */\n      iszero\n      tag_110\n      jumpi\n        /* \"#utility.yul\":1495:1496   */\n      dup1\n        /* \"#utility.yul\":1490:1493   */\n      dup3\n        /* \"#utility.yul\":1486:1497   */\n      add\n        /* \"#utility.yul\":1480:1498   */\n      mload\n        /* \"#utility.yul\":1476:1477   */\n      dup2\n        /* \"#utility.yul\":1471:1474   */\n      dup5\n        /* \"#utility.yul\":1467:1478   */\n      add\n        /* \"#utility.yul\":1460:1499   */\n      mstore\n        /* \"#utility.yul\":1432:1434   */\n      0x20\n        /* \"#utility.yul\":1429:1430   */\n      dup2\n        /* \"#utility.yul\":1425:1435   */\n      add\n        /* \"#utility.yul\":1420:1435   */\n      swap1\n      pop\n        /* \"#utility.yul\":1396:1509   */\n      jump(tag_108)\n    tag_110:\n        /* \"#utility.yul\":1543:1544   */\n      0x00\n        /* \"#utility.yul\":1534:1540   */\n      dup5\n        /* \"#utility.yul\":1529:1532   */\n      dup5\n        /* \"#utility.yul\":1525:1541   */\n      add\n        /* \"#utility.yul\":1518:1545   */\n      mstore\n        /* \"#utility.yul\":1367:1551   */\n      pop\n        /* \"#utility.yul\":1305:1551   */\n      pop\n      pop\n      pop\n      jump\t// out\n        /* \"#utility.yul\":1557:1659   */\n    tag_72:\n        /* \"#utility.yul\":1598:1604   */\n      0x00\n        /* \"#utility.yul\":1649:1651   */\n      0x1f\n        /* \"#utility.yul\":1645:1652   */\n      not\n        /* \"#utility.yul\":1640:1642   */\n      0x1f\n        /* \"#utility.yul\":1633:1638   */\n      dup4\n        /* \"#utility.yul\":1629:1643   */\n      add\n        /* \"#utility.yul\":1625:1653   */\n      and\n        /* \"#utility.yul\":1615:1653   */\n      swap1\n      pop\n        /* \"#utility.yul\":1557:1659   */\n      swap2\n      swap1\n      pop\n      jump\t// out\n        /* \"#utility.yul\":1665:2042   */\n    tag_73:\n        /* \"#utility.yul\":1753:1756   */\n      0x00\n        /* \"#utility.yul\":1781:1820   */\n      tag_113\n        /* \"#utility.yul\":1814:1819   */\n      dup3\n        /* \"#utility.yul\":1781:1820   */\n      tag_69\n      jump\t// in\n    tag_113:\n        /* \"#utility.yul\":1836:1907   */\n      tag_114\n        /* \"#utility.yul\":1900:1906   */\n      dup2\n        /* \"#utility.yul\":1895:1898   */\n      dup6\n        /* \"#utility.yul\":1836:1907   */\n      tag_70\n      jump\t// in\n    tag_114:\n        /* \"#utility.yul\":1829:1907   */\n      swap4\n      pop\n        /* \"#utility.yul\":1916:1981   */\n      tag_115\n        /* \"#utility.yul\":1974:1980   */\n      dup2\n        /* \"#utility.yul\":1969:1972   */\n      dup6\n        /* \"#utility.yul\":1962:1966   */\n      0x20\n        /* \"#utility.yul\":1955:1960   */\n      dup7\n        /* \"#utility.yul\":1951:1967   */\n      add\n        /* \"#utility.yul\":1916:1981   */\n      tag_71\n      jump\t// in\n    tag_115:\n        /* \"#utility.yul\":2006:2035   */\n      tag_116\n        /* \"#utility.yul\":2028:2034   */\n      dup2\n        /* \"#utility.yul\":2006:2035   */\n      tag_72\n      jump\t// in\n    tag_116:\n        /* \"#utility.yul\":2001:2004   */\n      dup5\n        /* \"#utility.yul\":1997:2036   */\n      add\n        /* \"#utility.yul\":1990:2036   */\n      swap2\n      pop\n        /* \"#utility.yul\":1757:2042   */\n      pop\n        /* \"#utility.yul\":1665:2042   */\n      swap3\n      swap2\n      pop\n      pop\n      jump\t// out\n        /* \"#utility.yul\":2048:2361   */\n    tag_9:\n        /* \"#utility.yul\":2161:2165   */\n      0x00\n        /* \"#utility.yul\":2199:2201   */\n      0x20\n        /* \"#utility.yul\":2188:2197   */\n      dup3\n        /* \"#utility.yul\":2184:2202   */\n      add\n        /* \"#utility.yul\":2176:2202   */\n      swap1\n      pop\n        /* \"#utility.yul\":2248:2257   */\n      dup2\n        /* \"#utility.yul\":2242:2246   */\n      dup2\n        /* \"#utility.yul\":2238:2258   */\n      sub\n        /* \"#utility.yul\":2234:2235   */\n      0x00\n        /* \"#utility.yul\":2223:2232   */\n      dup4\n        /* \"#utility.yul\":2219:2236   */\n      add\n        /* \"#utility.yul\":2212:2259   */\n      mstore\n        /* \"#utility.yul\":2276:2354   */\n      tag_118\n        /* \"#utility.yul\":2349:2353   */\n      dup2\n        /* \"#utility.yul\":2340:2346   */\n      dup5\n        /* \"#utility.yul\":2276:2354   */\n      tag_73\n      jump\t// in\n    tag_118:\n        /* \"#utility.yul\":2268:2354   */\n      swap1\n      pop\n        /* \"#utility.yul\":2048:2361   */\n      swap3\n      swap2\n      pop\n      pop\n      jump\t// out\n        /* \"#utility.yul\":2367:2547   */\n    tag_74:\n        /* \"#utility.yul\":2415:2492   */\n      0x4e487b7100000000000000000000000000000000000000000000000000000000\n        /* \"#utility.yul\":2412:2413   */\n      0x00\n        /* \"#utility.yul\":2405:2493   */\n      mstore\n        /* \"#utility.yul\":2512:2516   */\n      0x12\n        /* \"#utility.yul\":2509:2510   */\n      0x04\n        /* \"#utility.yul\":2502:2517   */\n      mstore\n        /* \"#utility.yul\":2536:2540   */\n      0x24\n        /* \"#utility.yul\":2533:2534   */\n      0x00\n        /* \"#utility.yul\":2526:2541   */\n      revert\n        /* \"#utility.yul\":2553:2733   */\n    tag_75:\n        /* \"#utility.yul\":2601:2678   */\n      0x4e487b7100000000000000000000000000000000000000000000000000000000\n        /* \"#utility.yul\":2598:2599   */\n      0x00\n        /* \"#utility.yul\":2591:2679   */\n      mstore\n        /* \"#utility.yul\":2698:2702   */\n      0x11\n        /* \"#utility.yul\":2695:2696   */\n      0x04\n        /* \"#utility.yul\":2688:2703   */\n      mstore\n        /* \"#utility.yul\":2722:2726   */\n      0x24\n        /* \"#utility.yul\":2719:2720   */\n      0x00\n        /* \"#utility.yul\":2712:2727   */\n      revert\n        /* \"#utility.yul\":2739:2924   */\n    tag_12:\n        /* \"#utility.yul\":2779:2780   */\n      0x00\n        /* \"#utility.yul\":2796:2816   */\n      tag_122\n        /* \"#utility.yul\":2814:2815   */\n      dup3\n        /* \"#utility.yul\":2796:2816   */\n      tag_66\n      jump\t// in\n    tag_122:\n        /* \"#utility.yul\":2791:2816   */\n      swap2\n      pop\n        /* \"#utility.yul\":2830:2850   */\n      tag_123\n        /* \"#utility.yul\":2848:2849   */\n      dup4\n        /* \"#utility.yul\":2830:2850   */\n      tag_66\n      jump\t// in\n    tag_123:\n        /* \"#utility.yul\":2825:2850   */\n      swap3\n      pop\n        /* \"#utility.yul\":2869:2870   */\n      dup3\n        /* \"#utility.yul\":2859:2894   */\n      tag_124\n      jumpi\n        /* \"#utility.yul\":2874:2892   */\n      tag_125\n      tag_74\n      jump\t// in\n    tag_125:\n        /* \"#utility.yul\":2859:2894   */\n    tag_124:\n        /* \"#utility.yul\":2916:2917   */\n      dup3\n        /* \"#utility.yul\":2913:2914   */\n      dup3\n        /* \"#utility.yul\":2909:2918   */\n      div\n        /* \"#utility.yul\":2904:2918   */\n      swap1\n      pop\n        /* \"#utility.yul\":2739:2924   */\n      swap3\n      swap2\n      pop\n      pop\n      jump\t// out\n        /* \"#utility.yul\":2930:3106   */\n    tag_14:\n        /* \"#utility.yul\":2962:2963   */\n      0x00\n        /* \"#utility.yul\":2979:2999   */\n      tag_127\n        /* \"#utility.yul\":2997:2998   */\n      dup3\n        /* \"#utility.yul\":2979:2999   */\n      tag_66\n      jump\t// in\n    tag_127:\n        /* \"#utility.yul\":2974:2999   */\n      swap2\n      pop\n        /* \"#utility.yul\":3013:3033   */\n      tag_128\n        /* \"#utility.yul\":3031:3032   */\n      dup4\n        /* \"#utility.yul\":3013:3033   */\n      tag_66\n      jump\t// in\n    tag_128:\n        /* \"#utility.yul\":3008:3033   */\n      swap3\n      pop\n        /* \"#utility.yul\":3052:3053   */\n      dup3\n        /* \"#utility.yul\":3042:3077   */\n      tag_129\n      jumpi\n        /* \"#utility.yul\":3057:3075   */\n      tag_130\n      tag_74\n      jump\t// in\n    tag_130:\n        /* \"#utility.yul\":3042:3077   */\n    tag_129:\n        /* \"#utility.yul\":3098:3099   */\n      dup3\n        /* \"#utility.yul\":3095:3096   */\n      dup3\n        /* \"#utility.yul\":3091:3100   */\n      mod\n        /* \"#utility.yul\":3086:3100   */\n      swap1\n      pop\n        /* \"#utility.yul\":2930:3106   */\n      swap3\n      swap2\n      pop\n      pop\n      jump\t// out\n        /* \"#utility.yul\":3112:3260   */\n    tag_76:\n        /* \"#utility.yul\":3214:3225   */\n      0x00\n        /* \"#utility.yul\":3251:3254   */\n      dup2\n        /* \"#utility.yul\":3236:3254   */\n      swap1\n      pop\n        /* \"#utility.yul\":3112:3260   */\n      swap3\n      swap2\n      pop\n      pop\n      jump\t// out\n        /* \"#utility.yul\":3266:3656   */\n    tag_77:\n        /* \"#utility.yul\":3372:3375   */\n      0x00\n        /* \"#utility.yul\":3400:3439   */\n      tag_133\n        /* \"#utility.yul\":3433:3438   */\n      dup3\n        /* \"#utility.yul\":3400:3439   */\n      tag_69\n      jump\t// in\n    tag_133:\n        /* \"#utility.yul\":3455:3544   */\n      tag_134\n        /* \"#utility.yul\":3537:3543   */\n      dup2\n        /* \"#utility.yul\":3532:3535   */\n      dup6\n        /* \"#utility.yul\":3455:3544   */\n      tag_76\n      jump\t// in\n    tag_134:\n        /* \"#utility.yul\":3448:3544   */\n      swap4\n      pop\n        /* \"#utility.yul\":3553:3618   */\n      tag_135\n        /* \"#utility.yul\":3611:3617   */\n      dup2\n        /* \"#utility.yul\":3606:3609   */\n      dup6\n        /* \"#utility.yul\":3599:3603   */\n      0x20\n        /* \"#utility.yul\":3592:3597   */\n      dup7\n        /* \"#utility.yul\":3588:3604   */\n      add\n        /* \"#utility.yul\":3553:3618   */\n      tag_71\n      jump\t// in\n    tag_135:\n        /* \"#utility.yul\":3643:3649   */\n      dup1\n        /* \"#utility.yul\":3638:3641   */\n      dup5\n        /* \"#utility.yul\":3634:3650   */\n      add\n        /* \"#utility.yul\":3627:3650   */\n      swap2\n      pop\n        /* \"#utility.yul\":3376:3656   */\n      pop\n        /* \"#utility.yul\":3266:3656   */\n      swap3\n      swap2\n      pop\n      pop\n      jump\t// out\n        /* \"#utility.yul\":3662:3814   */\n    tag_78:\n        /* \"#utility.yul\":3802:3806   */\n      0x6820000000000000000000000000000000000000000000000000000000000000\n        /* \"#utility.yul\":3798:3799   */\n      0x00\n        /* \"#utility.yul\":3790:3796   */\n      dup3\n        /* \"#utility.yul\":3786:3800   */\n      add\n        /* \"#utility.yul\":3779:3807   */\n      mstore\n        /* \"#utility.yul\":3662:3814   */\n      pop\n      jump\t// out\n        /* \"#utility.yul\":3820:4220   */\n    tag_79:\n        /* \"#utility.yul\":3980:3983   */\n      0x00\n        /* \"#utility.yul\":4001:4085   */\n      tag_138\n        /* \"#utility.yul\":4083:4084   */\n      0x02\n        /* \"#utility.yul\":4078:4081   */\n      dup4\n        /* \"#utility.yul\":4001:4085   */\n      tag_76\n      jump\t// in\n    tag_138:\n        /* \"#utility.yul\":3994:4085   */\n      swap2\n      pop\n        /* \"#utility.yul\":4094:4187   */\n      tag_139\n        /* \"#utility.yul\":4183:4186   */\n      dup3\n        /* \"#utility.yul\":4094:4187   */\n      tag_78\n      jump\t// in\n    tag_139:\n        /* \"#utility.yul\":4212:4213   */\n      0x02\n        /* \"#utility.yul\":4207:4210   */\n      dup3\n        /* \"#utility.yul\":4203:4214   */\n      add\n        /* \"#utility.yul\":4196:4214   */\n      swap1\n      pop\n        /* \"#utility.yul\":3820:4220   */\n      swap2\n      swap1\n      pop\n      jump\t// out\n        /* \"#utility.yul\":4226:4378   */\n    tag_80:\n        /* \"#utility.yul\":4366:4370   */\n      0x6d20000000000000000000000000000000000000000000000000000000000000\n        /* \"#utility.yul\":4362:4363   */\n      0x00\n        /* \"#utility.yul\":4354:4360   */\n      dup3\n        /* \"#utility.yul\":4350:4364   */\n      add\n        /* \"#utility.yul\":4343:4371   */\n      mstore\n        /* \"#utility.yul\":4226:4378   */\n      pop\n      jump\t// out\n        /* \"#utility.yul\":4384:4784   */\n    tag_81:\n        /* \"#utility.yul\":4544:4547   */\n      0x00\n        /* \"#utility.yul\":4565:4649   */\n      tag_142\n        /* \"#utility.yul\":4647:4648   */\n      0x02\n        /* \"#utility.yul\":4642:4645   */\n      dup4\n        /* \"#utility.yul\":4565:4649   */\n      tag_76\n      jump\t// in\n    tag_142:\n        /* \"#utility.yul\":4558:4649   */\n      swap2\n      pop\n        /* \"#utility.yul\":4658:4751   */\n      tag_143\n        /* \"#utility.yul\":4747:4750   */\n      dup3\n        /* \"#utility.yul\":4658:4751   */\n      tag_80\n      jump\t// in\n    tag_143:\n        /* \"#utility.yul\":4776:4777   */\n      0x02\n        /* \"#utility.yul\":4771:4774   */\n      dup3\n        /* \"#utility.yul\":4767:4778   */\n      add\n        /* \"#utility.yul\":4760:4778   */\n      swap1\n      pop\n        /* \"#utility.yul\":4384:4784   */\n      swap2\n      swap1\n      pop\n      jump\t// out\n        /* \"#utility.yul\":4790:4941   */\n    tag_82:\n        /* \"#utility.yul\":4930:4933   */\n      0x7300000000000000000000000000000000000000000000000000000000000000\n        /* \"#utility.yul\":4926:4927   */\n      0x00\n        /* \"#utility.yul\":4918:4924   */\n      dup3\n        /* \"#utility.yul\":4914:4928   */\n      add\n        /* \"#utility.yul\":4907:4934   */\n      mstore\n        /* \"#utility.yul\":4790:4941   */\n      pop\n      jump\t// out\n        /* \"#utility.yul\":4947:5347   */\n    tag_83:\n        /* \"#utility.yul\":5107:5110   */\n      0x00\n        /* \"#utility.yul\":5128:5212   */\n      tag_146\n        /* \"#utility.yul\":5210:5211   */\n      0x01\n        /* \"#utility.yul\":5205:5208   */\n      dup4\n        /* \"#utility.yul\":5128:5212   */\n      tag_76\n      jump\t// in\n    tag_146:\n        /* \"#utility.yul\":5121:5212   */\n      swap2\n      pop\n        /* \"#utility.yul\":5221:5314   */\n      tag_147\n        /* \"#utility.yul\":5310:5313   */\n      dup3\n        /* \"#utility.yul\":5221:5314   */\n      tag_82\n      jump\t// in\n    tag_147:\n        /* \"#utility.yul\":5339:5340   */\n      0x01\n        /* \"#utility.yul\":5334:5337   */\n      dup3\n        /* \"#utility.yul\":5330:5341   */\n      add\n        /* \"#utility.yul\":5323:5341   */\n      swap1\n      pop\n        /* \"#utility.yul\":4947:5347   */\n      swap2\n      swap1\n      pop\n      jump\t// out\n        /* \"#utility.yul\":5353:6746   */\n    tag_23:\n        /* \"#utility.yul\":5884:5887   */\n      0x00\n        /* \"#utility.yul\":5906:6001   */\n      tag_149\n        /* \"#utility.yul\":5997:6000   */\n      dup3\n        /* \"#utility.yul\":5988:5994   */\n      dup7\n        /* \"#utility.yul\":5906:6001   */\n      tag_77\n      jump\t// in\n    tag_149:\n        /* \"#utility.yul\":5899:6001   */\n      swap2\n      pop\n        /* \"#utility.yul\":6018:6166   */\n      tag_150\n        /* \"#utility.yul\":6162:6165   */\n      dup3\n        /* \"#utility.yul\":6018:6166   */\n      tag_79\n      jump\t// in\n    tag_150:\n        /* \"#utility.yul\":6011:6166   */\n      swap2\n      pop\n        /* \"#utility.yul\":6183:6278   */\n      tag_151\n        /* \"#utility.yul\":6274:6277   */\n      dup3\n        /* \"#utility.yul\":6265:6271   */\n      dup6\n        /* \"#utility.yul\":6183:6278   */\n      tag_77\n      jump\t// in\n    tag_151:\n        /* \"#utility.yul\":6176:6278   */\n      swap2\n      pop\n        /* \"#utility.yul\":6295:6443   */\n      tag_152\n        /* \"#utility.yul\":6439:6442   */\n      dup3\n        /* \"#utility.yul\":6295:6443   */\n      tag_81\n      jump\t// in\n    tag_152:\n        /* \"#utility.yul\":6288:6443   */\n      swap2\n      pop\n        /* \"#utility.yul\":6460:6555   */\n      tag_153\n        /* \"#utility.yul\":6551:6554   */\n      dup3\n        /* \"#utility.yul\":6542:6548   */\n      dup5\n        /* \"#utility.yul\":6460:6555   */\n      tag_77\n      jump\t// in\n    tag_153:\n        /* \"#utility.yul\":6453:6555   */\n      swap2\n      pop\n        /* \"#utility.yul\":6572:6720   */\n      tag_154\n        /* \"#utility.yul\":6716:6719   */\n      dup3\n        /* \"#utility.yul\":6572:6720   */\n      tag_83\n      jump\t// in\n    tag_154:\n        /* \"#utility.yul\":6565:6720   */\n      swap2\n      pop\n        /* \"#utility.yul\":6737:6740   */\n      dup2\n        /* \"#utility.yul\":6730:6740   */\n      swap1\n      pop\n        /* \"#utility.yul\":5353:6746   */\n      swap5\n      swap4\n      pop\n      pop\n      pop\n      pop\n      jump\t// out\n        /* \"#utility.yul\":6752:7719   */\n    tag_29:\n        /* \"#utility.yul\":7134:7137   */\n      0x00\n        /* \"#utility.yul\":7156:7251   */\n      tag_156\n        /* \"#utility.yul\":7247:7250   */\n      dup3\n        /* \"#utility.yul\":7238:7244   */\n      dup6\n        /* \"#utility.yul\":7156:7251   */\n      tag_77\n      jump\t// in\n    tag_156:\n        /* \"#utility.yul\":7149:7251   */\n      swap2\n      pop\n        /* \"#utility.yul\":7268:7416   */\n      tag_157\n        /* \"#utility.yul\":7412:7415   */\n      dup3\n        /* \"#utility.yul\":7268:7416   */\n      tag_81\n      jump\t// in\n    tag_157:\n        /* \"#utility.yul\":7261:7416   */\n      swap2\n      pop\n        /* \"#utility.yul\":7433:7528   */\n      tag_158\n        /* \"#utility.yul\":7524:7527   */\n      dup3\n        /* \"#utility.yul\":7515:7521   */\n      dup5\n        /* \"#utility.yul\":7433:7528   */\n      tag_77\n      jump\t// in\n    tag_158:\n        /* \"#utility.yul\":7426:7528   */\n      swap2\n      pop\n        /* \"#utility.yul\":7545:7693   */\n      tag_159\n        /* \"#utility.yul\":7689:7692   */\n      dup3\n        /* \"#utility.yul\":7545:7693   */\n      tag_83\n      jump\t// in\n    tag_159:\n        /* \"#utility.yul\":7538:7693   */\n      swap2\n      pop\n        /* \"#utility.yul\":7710:7713   */\n      dup2\n        /* \"#utility.yul\":7703:7713   */\n      swap1\n      pop\n        /* \"#utility.yul\":6752:7719   */\n      swap4\n      swap3\n      pop\n      pop\n      pop\n      jump\t// out\n        /* \"#utility.yul\":7725:8266   */\n    tag_33:\n        /* \"#utility.yul\":7958:7961   */\n      0x00\n        /* \"#utility.yul\":7980:8075   */\n      tag_161\n        /* \"#utility.yul\":8071:8074   */\n      dup3\n        /* \"#utility.yul\":8062:8068   */\n      dup5\n        /* \"#utility.yul\":7980:8075   */\n      tag_77\n      jump\t// in\n    tag_161:\n        /* \"#utility.yul\":7973:8075   */\n      swap2\n      pop\n        /* \"#utility.yul\":8092:8240   */\n      tag_162\n        /* \"#utility.yul\":8236:8239   */\n      dup3\n        /* \"#utility.yul\":8092:8240   */\n      tag_83\n      jump\t// in\n    tag_162:\n        /* \"#utility.yul\":8085:8240   */\n      swap2\n      pop\n        /* \"#utility.yul\":8257:8260   */\n      dup2\n        /* \"#utility.yul\":8250:8260   */\n      swap1\n      pop\n        /* \"#utility.yul\":7725:8266   */\n      swap3\n      swap2\n      pop\n      pop\n      jump\t// out\n        /* \"#utility.yul\":8272:8505   */\n    tag_39:\n        /* \"#utility.yul\":8311:8314   */\n      0x00\n        /* \"#utility.yul\":8334:8358   */\n      tag_164\n        /* \"#utility.yul\":8352:8357   */\n      dup3\n        /* \"#utility.yul\":8334:8358   */\n      tag_66\n      jump\t// in\n    tag_164:\n        /* \"#utility.yul\":8325:8358   */\n      swap2\n      pop\n        /* \"#utility.yul\":8380:8446   */\n      0xffffffffffffffffffffffffffffffffffffffffffffffffffffffffffffffff\n        /* \"#utility.yul\":8373:8378   */\n      dup3\n        /* \"#utility.yul\":8370:8447   */\n      sub\n        /* \"#utility.yul\":8367:8470   */\n      tag_165\n      jumpi\n        /* \"#utility.yul\":8450:8468   */\n      tag_166\n      tag_75\n      jump\t// in\n    tag_166:\n        /* \"#utility.yul\":8367:8470   */\n    tag_165:\n        /* \"#utility.yul\":8497:8498   */\n      0x01\n        /* \"#utility.yul\":8490:8495   */\n      dup3\n        /* \"#utility.yul\":8486:8499   */\n      add\n        /* \"#utility.yul\":8479:8499   */\n      swap1\n      pop\n        /* \"#utility.yul\":8272:8505   */\n      swap2\n      swap1\n      pop\n      jump\t// out\n        /* \"#utility.yul\":8511:8691   */\n    tag_42:\n        /* \"#utility.yul\":8559:8636   */\n      0x4e487b7100000000000000000000000000000000000000000000000000000000\n        /* \"#utility.yul\":8556:8557   */\n      0x00\n        /* \"#utility.yul\":8549:8637   */\n      mstore\n        /* \"#utility.yul\":8656:8660   */\n      0x41\n        /* \"#utility.yul\":8653:8654   */\n      0x04\n        /* \"#utility.yul\":8646:8661   */\n      mstore\n        /* \"#utility.yul\":8680:8684   */\n      0x24\n        /* \"#utility.yul\":8677:8678   */\n      0x00\n        /* \"#utility.yul\":8670:8685   */\n      revert\n        /* \"#utility.yul\":8697:8868   */\n    tag_48:\n        /* \"#utility.yul\":8736:8739   */\n      0x00\n        /* \"#utility.yul\":8759:8783   */\n      tag_169\n        /* \"#utility.yul\":8777:8782   */\n      dup3\n        /* \"#utility.yul\":8759:8783   */\n      tag_66\n      jump\t// in\n    tag_169:\n        /* \"#utility.yul\":8750:8783   */\n      swap2\n      pop\n        /* \"#utility.yul\":8805:8809   */\n      0x00\n        /* \"#utility.yul\":8798:8803   */\n      dup3\n        /* \"#utility.yul\":8795:8810   */\n      sub\n        /* \"#utility.yul\":8792:8833   */\n      tag_170\n      jumpi\n        /* \"#utility.yul\":8813:8831   */\n      tag_171\n      tag_75\n      jump\t// in\n    tag_171:\n        /* \"#utility.yul\":8792:8833   */\n    tag_170:\n        /* \"#utility.yul\":8860:8861   */\n      0x01\n        /* \"#utility.yul\":8853:8858   */\n      dup3\n        /* \"#utility.yul\":8849:8862   */\n      sub\n        /* \"#utility.yul\":8842:8862   */\n      swap1\n      pop\n        /* \"#utility.yul\":8697:8868   */\n      swap2\n      swap1\n      pop\n      jump\t// out\n        /* \"#utility.yul\":8874:9054   */\n    tag_51:\n        /* \"#utility.yul\":8922:8999   */\n      0x4e487b7100000000000000000000000000000000000000000000000000000000\n        /* \"#utility.yul\":8919:8920   */\n      0x00\n        /* \"#utility.yul\":8912:9000   */\n      mstore\n        /* \"#utility.yul\":9019:9023   */\n      0x32\n        /* \"#utility.yul\":9016:9017   */\n      0x04\n        /* \"#utility.yul\":9009:9024   */\n      mstore\n        /* \"#utility.yul\":9043:9047   */\n      0x24\n        /* \"#utility.yul\":9040:9041   */\n      0x00\n        /* \"#utility.yul\":9033:9048   */\n      revert\n        /* \"#utility.yul\":9060:9251   */\n    tag_59:\n        /* \"#utility.yul\":9100:9103   */\n      0x00\n        /* \"#utility.yul\":9119:9139   */\n      tag_174\n        /* \"#utility.yul\":9137:9138   */\n      dup3\n        /* \"#utility.yul\":9119:9139   */\n      tag_66\n      jump\t// in\n    tag_174:\n        /* \"#utility.yul\":9114:9139   */\n      swap2\n      pop\n        /* \"#utility.yul\":9153:9173   */\n      tag_175\n        /* \"#utility.yul\":9171:9172   */\n      dup4\n        /* \"#utility.yul\":9153:9173   */\n      tag_66\n      jump\t// in\n    tag_175:\n        /* \"#utility.yul\":9148:9173   */\n      swap3\n      pop\n        /* \"#utility.yul\":9196:9197   */\n      dup3\n        /* \"#utility.yul\":9193:9194   */\n      dup3\n        /* \"#utility.yul\":9189:9198   */\n      add\n        /* \"#utility.yul\":9182:9198   */\n      swap1\n      pop\n        /* \"#utility.yul\":9217:9220   */\n      dup1\n        /* \"#utility.yul\":9214:9215   */\n      dup3\n        /* \"#utility.yul\":9211:9221   */\n      gt\n        /* \"#utility.yul\":9208:9244   */\n      iszero\n      tag_176\n      jumpi\n        /* \"#utility.yul\":9224:9242   */\n      tag_177\n      tag_75\n      jump\t// in\n    tag_177:\n        /* \"#utility.yul\":9208:9244   */\n    tag_176:\n        /* \"#utility.yul\":9060:9251   */\n      swap3\n      swap2\n      pop\n      pop\n      jump\t// out\n        /* \"#utility.yul\":9257:9371   */\n    tag_84:\n        /* \"#utility.yul\":9324:9330   */\n      0x00\n        /* \"#utility.yul\":9358:9363   */\n      dup2\n        /* \"#utility.yul\":9352:9364   */\n      mload\n        /* \"#utility.yul\":9342:9364   */\n      swap1\n      pop\n        /* \"#utility.yul\":9257:9371   */\n      swap2\n      swap1\n      pop\n      jump\t// out\n        /* \"#utility.yul\":9377:9540   */\n    tag_85:\n        /* \"#utility.yul\":9494:9505   */\n      0x00\n        /* \"#utility.yul\":9531:9534   */\n      dup2\n        /* \"#utility.yul\":9516:9534   */\n      swap1\n      pop\n        /* \"#utility.yul\":9377:9540   */\n      swap3\n      swap2\n      pop\n      pop\n      jump\t// out\n        /* \"#utility.yul\":9546:9678   */\n    tag_86:\n        /* \"#utility.yul\":9613:9617   */\n      0x00\n        /* \"#utility.yul\":9636:9639   */\n      dup2\n        /* \"#utility.yul\":9628:9639   */\n      swap1\n      pop\n        /* \"#utility.yul\":9666:9670   */\n      0x20\n        /* \"#utility.yul\":9661:9664   */\n      dup3\n        /* \"#utility.yul\":9657:9671   */\n      add\n        /* \"#utility.yul\":9649:9671   */\n      swap1\n      pop\n        /* \"#utility.yul\":9546:9678   */\n      swap2\n      swap1\n      pop\n      jump\t// out\n        /* \"#utility.yul\":9684:9800   */\n    tag_87:\n        /* \"#utility.yul\":9769:9793   */\n      tag_182\n        /* \"#utility.yul\":9787:9792   */\n      dup2\n        /* \"#utility.yul\":9769:9793   */\n      tag_66\n      jump\t// in\n    tag_182:\n        /* \"#utility.yul\":9764:9767   */\n      dup3\n        /* \"#utility.yul\":9757:9794   */\n      mstore\n        /* \"#utility.yul\":9684:9800   */\n      pop\n      pop\n      jump\t// out\n        /* \"#utility.yul\":9806:10001   */\n    tag_88:\n        /* \"#utility.yul\":9883:9893   */\n      0x00\n        /* \"#utility.yul\":9904:9958   */\n      tag_184\n        /* \"#utility.yul\":9954:9957   */\n      dup4\n        /* \"#utility.yul\":9946:9952   */\n      dup4\n        /* \"#utility.yul\":9904:9958   */\n      tag_87\n      jump\t// in\n    tag_184:\n        /* \"#utility.yul\":9990:9994   */\n      0x20\n        /* \"#utility.yul\":9985:9988   */\n      dup4\n        /* \"#utility.yul\":9981:9995   */\n      add\n        /* \"#utility.yul\":9967:9995   */\n      swap1\n      pop\n        /* \"#utility.yul\":9806:10001   */\n      swap3\n      swap2\n      pop\n      pop\n      jump\t// out\n        /* \"#utility.yul\":10007:10120   */\n    tag_89:\n        /* \"#utility.yul\":10077:10081   */\n      0x00\n        /* \"#utility.yul\":10109:10113   */\n      0x20\n        /* \"#utility.yul\":10104:10107   */\n      dup3\n        /* \"#utility.yul\":10100:10114   */\n      add\n        /* \"#utility.yul\":10092:10114   */\n      swap1\n      pop\n        /* \"#utility.yul\":10007:10120   */\n      swap2\n      swap1\n      pop\n      jump\t// out\n        /* \"#utility.yul\":10156:10932   */\n    tag_90:\n        /* \"#utility.yul\":10293:10296   */\n      0x00\n        /* \"#utility.yul\":10322:10376   */\n      tag_187\n        /* \"#utility.yul\":10370:10375   */\n      dup3\n        /* \"#utility.yul\":10322:10376   */\n      tag_84\n      jump\t// in\n    tag_187:\n        /* \"#utility.yul\":10392:10496   */\n      tag_188\n        /* \"#utility.yul\":10489:10495   */\n      dup2\n        /* \"#utility.yul\":10484:10487   */\n      dup6\n        /* \"#utility.yul\":10392:10496   */\n      tag_85\n      jump\t// in\n    tag_188:\n        /* \"#utility.yul\":10385:10496   */\n      swap4\n      pop\n        /* \"#utility.yul\":10520:10576   */\n      tag_189\n        /* \"#utility.yul\":10570:10575   */\n      dup4\n        /* \"#utility.yul\":10520:10576   */\n      tag_86\n      jump\t// in\n    tag_189:\n        /* \"#utility.yul\":10599:10606   */\n      dup1\n        /* \"#utility.yul\":10630:10631   */\n      0x00\n        /* \"#utility.yul\":10615:10907   */\n    tag_190:\n        /* \"#utility.yul\":10640:10646   */\n      dup4\n        /* \"#utility.yul\":10637:10638   */\n      dup2\n        /* \"#utility.yul\":10634:10647   */\n      lt\n        /* \"#utility.yul\":10615:10907   */\n      iszero\n      tag_192\n      jumpi\n        /* \"#utility.yul\":10716:10722   */\n      dup2\n        /* \"#utility.yul\":10710:10723   */\n      mload\n        /* \"#utility.yul\":10743:10814   */\n      tag_193\n        /* \"#utility.yul\":10810:10813   */\n      dup9\n        /* \"#utility.yul\":10795:10808   */\n      dup3\n        /* \"#utility.yul\":10743:10814   */\n      tag_88\n      jump\t// in\n    tag_193:\n        /* \"#utility.yul\":10736:10814   */\n      swap8\n      pop\n        /* \"#utility.yul\":10837:10897   */\n      tag_194\n        /* \"#utility.yul\":10890:10896   */\n      dup4\n        /* \"#utility.yul\":10837:10897   */\n      tag_89\n      jump\t// in\n    tag_194:\n        /* \"#utility.yul\":10827:10897   */\n      swap3\n      pop\n        /* \"#utility.yul\":10675:10907   */\n      pop\n        /* \"#utility.yul\":10662:10663   */\n      0x01\n        /* \"#utility.yul\":10659:10660   */\n      dup2\n        /* \"#utility.yul\":10655:10664   */\n      add\n        /* \"#utility.yul\":10650:10664   */\n      swap1\n      pop\n        /* \"#utility.yul\":10615:10907   */\n      jump(tag_190)\n    tag_192:\n        /* \"#utility.yul\":10619:10633   */\n      pop\n        /* \"#utility.yul\":10923:10926   */\n      dup6\n        /* \"#utility.yul\":10916:10926   */\n      swap4\n      pop\n        /* \"#utility.yul\":10298:10932   */\n      pop\n      pop\n      pop\n        /* \"#utility.yul\":10156:10932   */\n      swap3\n      swap2\n      pop\n      pop\n      jump\t// out\n        /* \"#utility.yul\":10938:11273   */\n    tag_62:\n        /* \"#utility.yul\":11100:11103   */\n      0x00\n        /* \"#utility.yul\":11122:11247   */\n      tag_196\n        /* \"#utility.yul\":11243:11246   */\n      dup3\n        /* \"#utility.yul\":11234:11240   */\n      dup5\n        /* \"#utility.yul\":11122:11247   */\n      tag_90\n      jump\t// in\n    tag_196:\n        /* \"#utility.yul\":11115:11247   */\n      swap2\n      pop\n        /* \"#utility.yul\":11264:11267   */\n      dup2\n        /* \"#utility.yul\":11257:11267   */\n      swap1\n      pop\n        /* \"#utility.yul\":10938:11273   */\n      swap3\n      swap2\n      pop\n      pop\n      jump\t// out\n\n    auxdata: 0xa26469706673582212207c635c7c6dda432d66a5c5e4b888d6044496ee373459b11b94f0ce3fe067678c64736f6c63430008120033\n}\n",
				"bytecode": {
					"linkReferences": {},
					"object": "608060405234801561001057600080fd5b50610871806100206000396000f3fe608060405234801561001057600080fd5b506004361061002b5760003560e01c80633beb26c414610030575b600080fd5b61004a600480360381019061004591906102fc565b610060565b60405161005791906103b9565b60405180910390f35b60606000610e10836100729190610439565b90506000603c610e1085610086919061046a565b6100909190610439565b90506000603c856100a1919061046a565b905060008311156100f2576100b58361016a565b6100be8361016a565b6100c78361016a565b6040516020016100d9939291906105bb565b6040516020818303038152906040529350505050610165565b6000821115610137576101048261016a565b61010d8261016a565b60405160200161011e92919061060d565b6040516020818303038152906040529350505050610165565b6101408161016a565b6040516020016101509190610647565b60405160208183030381529060405293505050505b919050565b60606000808390505b6000811461019d57600a816101889190610439565b9050818061019590610669565b925050610173565b60008267ffffffffffffffff8111156101b9576101b86106b1565b5b6040519080825280602002602001820160405280156101e75781602001602082028036833780820191505090505b50905084915060008390505b6000831461024757600a83610208919061046a565b8282610213906106e0565b9250828151811061022757610226610709565b5b602002602001018181525050600a836102409190610439565b92506101f3565b60005b8481101561029557603083828151811061026757610266610709565b5b6020026020010181815161027b9190610738565b91508181525050808061028d90610669565b91505061024a565b50816040516020016102a79190610824565b604051602081830303815290604052945050505050919050565b600080fd5b6000819050919050565b6102d9816102c6565b81146102e457600080fd5b50565b6000813590506102f6816102d0565b92915050565b600060208284031215610312576103116102c1565b5b6000610320848285016102e7565b91505092915050565b600081519050919050565b600082825260208201905092915050565b60005b83811015610363578082015181840152602081019050610348565b60008484015250505050565b6000601f19601f8301169050919050565b600061038b82610329565b6103958185610334565b93506103a5818560208601610345565b6103ae8161036f565b840191505092915050565b600060208201905081810360008301526103d38184610380565b905092915050565b7f4e487b7100000000000000000000000000000000000000000000000000000000600052601260045260246000fd5b7f4e487b7100000000000000000000000000000000000000000000000000000000600052601160045260246000fd5b6000610444826102c6565b915061044f836102c6565b92508261045f5761045e6103db565b5b828204905092915050565b6000610475826102c6565b9150610480836102c6565b9250826104905761048f6103db565b5b828206905092915050565b600081905092915050565b60006104b182610329565b6104bb818561049b565b93506104cb818560208601610345565b80840191505092915050565b7f6820000000000000000000000000000000000000000000000000000000000000600082015250565b600061050d60028361049b565b9150610518826104d7565b600282019050919050565b7f6d20000000000000000000000000000000000000000000000000000000000000600082015250565b600061055960028361049b565b915061056482610523565b600282019050919050565b7f7300000000000000000000000000000000000000000000000000000000000000600082015250565b60006105a560018361049b565b91506105b08261056f565b600182019050919050565b60006105c782866104a6565b91506105d282610500565b91506105de82856104a6565b91506105e98261054c565b91506105f582846104a6565b915061060082610598565b9150819050949350505050565b600061061982856104a6565b91506106248261054c565b915061063082846104a6565b915061063b82610598565b91508190509392505050565b600061065382846104a6565b915061065e82610598565b915081905092915050565b6000610674826102c6565b91507fffffffffffffffffffffffffffffffffffffffffffffffffffffffffffffffff82036106a6576106a561040a565b5b600182019050919050565b7f4e487b7100000000000000000000000000000000000000000000000000000000600052604160045260246000fd5b60006106eb826102c6565b9150600082036106fe576106fd61040a565b5b600182039050919050565b7f4e487b7100000000000000000000000000000000000000000000000000000000600052603260045260246000fd5b6000610743826102c6565b915061074e836102c6565b92508282019050808211156107665761076561040a565b5b92915050565b600081519050919050565b600081905092915050565b6000819050602082019050919050565b61079b816102c6565b82525050565b60006107ad8383610792565b60208301905092915050565b6000602082019050919050565b60006107d18261076c565b6107db8185610777565b93506107e683610782565b8060005b838110156108175781516107fe88826107a1565b9750610809836107b9565b9250506001810190506107ea565b5085935050505092915050565b600061083082846107c6565b91508190509291505056fea26469706673582212207c635c7c6dda432d66a5c5e4b888d6044496ee373459b11b94f0ce3fe067678c64736f6c63430008120033",
					"opcodes": "PUSH1 0x80 PUSH1 0x40 MSTORE CALLVALUE DUP1 ISZERO PUSH2 0x10 JUMPI PUSH1 0x0 DUP1 REVERT JUMPDEST POP PUSH2 0x871 DUP1 PUSH2 0x20 PUSH1 0x0 CODECOPY PUSH1 0x0 RETURN INVALID PUSH1 0x80 PUSH1 0x40 MSTORE CALLVALUE DUP1 ISZERO PUSH2 0x10 JUMPI PUSH1 0x0 DUP1 REVERT JUMPDEST POP PUSH1 0x4 CALLDATASIZE LT PUSH2 0x2B JUMPI PUSH1 0x0 CALLDATALOAD PUSH1 0xE0 SHR DUP1 PUSH4 0x3BEB26C4 EQ PUSH2 0x30 JUMPI JUMPDEST PUSH1 0x0 DUP1 REVERT JUMPDEST PUSH2 0x4A PUSH1 0x4 DUP1 CALLDATASIZE SUB DUP2 ADD SWAP1 PUSH2 0x45 SWAP2 SWAP1 PUSH2 0x2FC JUMP JUMPDEST PUSH2 0x60 JUMP JUMPDEST PUSH1 0x40 MLOAD PUSH2 0x57 SWAP2 SWAP1 PUSH2 0x3B9 JUMP JUMPDEST PUSH1 0x40 MLOAD DUP1 SWAP2 SUB SWAP1 RETURN JUMPDEST PUSH1 0x60 PUSH1 0x0 PUSH2 0xE10 DUP4 PUSH2 0x72 SWAP2 SWAP1 PUSH2 0x439 JUMP JUMPDEST SWAP1 POP PUSH1 0x0 PUSH1 0x3C PUSH2 0xE10 DUP6 PUSH2 0x86 SWAP2 SWAP1 PUSH2 0x46A JUMP JUMPDEST PUSH2 0x90 SWAP2 SWAP1 PUSH2 0x439 JUMP JUMPDEST SWAP1 POP PUSH1 0x0 PUSH1 0x3C DUP6 PUSH2 0xA1 SWAP2 SWAP1 PUSH2 0x46A JUMP JUMPDEST SWAP1 POP PUSH1 0x0 DUP4 GT ISZERO PUSH2 0xF2 JUMPI PUSH2 0xB5 DUP4 PUSH2 0x16A JUMP JUMPDEST PUSH2 0xBE DUP4 PUSH2 0x16A JUMP JUMPDEST PUSH2 0xC7 DUP4 PUSH2 0x16A JUMP JUMPDEST PUSH1 0x40 MLOAD PUSH1 0x20 ADD PUSH2 0xD9 SWAP4 SWAP3 SWAP2 SWAP1 PUSH2 0x5BB JUMP JUMPDEST PUSH1 0x40 MLOAD PUSH1 0x20 DUP2 DUP4 SUB SUB DUP2 MSTORE SWAP1 PUSH1 0x40 MSTORE SWAP4 POP POP POP POP PUSH2 0x165 JUMP JUMPDEST PUSH1 0x0 DUP3 GT ISZERO PUSH2 0x137 JUMPI PUSH2 0x104 DUP3 PUSH2 0x16A JUMP JUMPDEST PUSH2 0x10D DUP3 PUSH2 0x16A JUMP JUMPDEST PUSH1 0x40 MLOAD PUSH1 0x20 ADD PUSH2 0x11E SWAP3 SWAP2 SWAP1 PUSH2 0x60D JUMP JUMPDEST PUSH1 0x40 MLOAD PUSH1 0x20 DUP2 DUP4 SUB SUB DUP2 MSTORE SWAP1 PUSH1 0x40 MSTORE SWAP4 POP POP POP POP PUSH2 0x165 JUMP JUMPDEST PUSH2 0x140 DUP2 PUSH2 0x16A JUMP JUMPDEST PUSH1 0x40 MLOAD PUSH1 0x20 ADD PUSH2 0x150 SWAP2 SWAP1 PUSH2 0x647 JUMP JUMPDEST PUSH1 0x40 MLOAD PUSH1 0x20 DUP2 DUP4 SUB SUB DUP2 MSTORE SWAP1 PUSH1 0x40 MSTORE SWAP4 POP POP POP POP JUMPDEST SWAP2 SWAP1 POP JUMP JUMPDEST PUSH1 0x60 PUSH1 0x0 DUP1 DUP4 SWAP1 POP JUMPDEST PUSH1 0x0 DUP2 EQ PUSH2 0x19D JUMPI PUSH1 0xA DUP2 PUSH2 0x188 SWAP2 SWAP1 PUSH2 0x439 JUMP JUMPDEST SWAP1 POP DUP2 DUP1 PUSH2 0x195 SWAP1 PUSH2 0x669 JUMP JUMPDEST SWAP3 POP POP PUSH2 0x173 JUMP JUMPDEST PUSH1 0x0 DUP3 PUSH8 0xFFFFFFFFFFFFFFFF DUP2 GT ISZERO PUSH2 0x1B9 JUMPI PUSH2 0x1B8 PUSH2 0x6B1 JUMP JUMPDEST JUMPDEST PUSH1 0x40 MLOAD SWAP1 DUP1 DUP3 MSTORE DUP1 PUSH1 0x20 MUL PUSH1 0x20 ADD DUP3 ADD PUSH1 0x40 MSTORE DUP1 ISZERO PUSH2 0x1E7 JUMPI DUP2 PUSH1 0x20 ADD PUSH1 0x20 DUP3 MUL DUP1 CALLDATASIZE DUP4 CALLDATACOPY DUP1 DUP3 ADD SWAP2 POP POP SWAP1 POP JUMPDEST POP SWAP1 POP DUP5 SWAP2 POP PUSH1 0x0 DUP4 SWAP1 POP JUMPDEST PUSH1 0x0 DUP4 EQ PUSH2 0x247 JUMPI PUSH1 0xA DUP4 PUSH2 0x208 SWAP2 SWAP1 PUSH2 0x46A JUMP JUMPDEST DUP3 DUP3 PUSH2 0x213 SWAP1 PUSH2 0x6E0 JUMP JUMPDEST SWAP3 POP DUP3 DUP2 MLOAD DUP2 LT PUSH2 0x227 JUMPI PUSH2 0x226 PUSH2 0x709 JUMP JUMPDEST JUMPDEST PUSH1 0x20 MUL PUSH1 0x20 ADD ADD DUP2 DUP2 MSTORE POP POP PUSH1 0xA DUP4 PUSH2 0x240 SWAP2 SWAP1 PUSH2 0x439 JUMP JUMPDEST SWAP3 POP PUSH2 0x1F3 JUMP JUMPDEST PUSH1 0x0 JUMPDEST DUP5 DUP2 LT ISZERO PUSH2 0x295 JUMPI PUSH1 0x30 DUP4 DUP3 DUP2 MLOAD DUP2 LT PUSH2 0x267 JUMPI PUSH2 0x266 PUSH2 0x709 JUMP JUMPDEST JUMPDEST PUSH1 0x20 MUL PUSH1 0x20 ADD ADD DUP2 DUP2 MLOAD PUSH2 0x27B SWAP2 SWAP1 PUSH2 0x738 JUMP JUMPDEST SWAP2 POP DUP2 DUP2 MSTORE POP POP DUP1 DUP1 PUSH2 0x28D SWAP1 PUSH2 0x669 JUMP JUMPDEST SWAP2 POP POP PUSH2 0x24A JUMP JUMPDEST POP DUP2 PUSH1 0x40 MLOAD PUSH1 0x20 ADD PUSH2 0x2A7 SWAP2 SWAP1 PUSH2 0x824 JUMP JUMPDEST PUSH1 0x40 MLOAD PUSH1 0x20 DUP2 DUP4 SUB SUB DUP2 MSTORE SWAP1 PUSH1 0x40 MSTORE SWAP5 POP POP POP POP POP SWAP2 SWAP1 POP JUMP JUMPDEST PUSH1 0x0 DUP1 REVERT JUMPDEST PUSH1 0x0 DUP2 SWAP1 POP SWAP2 SWAP1 POP JUMP JUMPDEST PUSH2 0x2D9 DUP2 PUSH2 0x2C6 JUMP JUMPDEST DUP2 EQ PUSH2 0x2E4 JUMPI PUSH1 0x0 DUP1 REVERT JUMPDEST POP JUMP JUMPDEST PUSH1 0x0 DUP2 CALLDATALOAD SWAP1 POP PUSH2 0x2F6 DUP2 PUSH2 0x2D0 JUMP JUMPDEST SWAP3 SWAP2 POP POP JUMP JUMPDEST PUSH1 0x0 PUSH1 0x20 DUP3 DUP5 SUB SLT ISZERO PUSH2 0x312 JUMPI PUSH2 0x311 PUSH2 0x2C1 JUMP JUMPDEST JUMPDEST PUSH1 0x0 PUSH2 0x320 DUP5 DUP3 DUP6 ADD PUSH2 0x2E7 JUMP JUMPDEST SWAP2 POP POP SWAP3 SWAP2 POP POP JUMP JUMPDEST PUSH1 0x0 DUP2 MLOAD SWAP1 POP SWAP2 SWAP1 POP JUMP JUMPDEST PUSH1 0x0 DUP3 DUP3 MSTORE PUSH1 0x20 DUP3 ADD SWAP1 POP SWAP3 SWAP2 POP POP JUMP JUMPDEST PUSH1 0x0 JUMPDEST DUP4 DUP2 LT ISZERO PUSH2 0x363 JUMPI DUP1 DUP3 ADD MLOAD DUP2 DUP5 ADD MSTORE PUSH1 0x20 DUP2 ADD SWAP1 POP PUSH2 0x348 JUMP JUMPDEST PUSH1 0x0 DUP5 DUP5 ADD MSTORE POP POP POP POP JUMP JUMPDEST PUSH1 0x0 PUSH1 0x1F NOT PUSH1 0x1F DUP4 ADD AND SWAP1 POP SWAP2 SWAP1 POP JUMP JUMPDEST PUSH1 0x0 PUSH2 0x38B DUP3 PUSH2 0x329 JUMP JUMPDEST PUSH2 0x395 DUP2 DUP6 PUSH2 0x334 JUMP JUMPDEST SWAP4 POP PUSH2 0x3A5 DUP2 DUP6 PUSH1 0x20 DUP7 ADD PUSH2 0x345 JUMP JUMPDEST PUSH2 0x3AE DUP2 PUSH2 0x36F JUMP JUMPDEST DUP5 ADD SWAP2 POP POP SWAP3 SWAP2 POP POP JUMP JUMPDEST PUSH1 0x0 PUSH1 0x20 DUP3 ADD SWAP1 POP DUP2 DUP2 SUB PUSH1 0x0 DUP4 ADD MSTORE PUSH2 0x3D3 DUP2 DUP5 PUSH2 0x380 JUMP JUMPDEST SWAP1 POP SWAP3 SWAP2 POP POP JUMP JUMPDEST PUSH32 0x4E487B7100000000000000000000000000000000000000000000000000000000 PUSH1 0x0 MSTORE PUSH1 0x12 PUSH1 0x4 MSTORE PUSH1 0x24 PUSH1 0x0 REVERT JUMPDEST PUSH32 0x4E487B7100000000000000000000000000000000000000000000000000000000 PUSH1 0x0 MSTORE PUSH1 0x11 PUSH1 0x4 MSTORE PUSH1 0x24 PUSH1 0x0 REVERT JUMPDEST PUSH1 0x0 PUSH2 0x444 DUP3 PUSH2 0x2C6 JUMP JUMPDEST SWAP2 POP PUSH2 0x44F DUP4 PUSH2 0x2C6 JUMP JUMPDEST SWAP3 POP DUP3 PUSH2 0x45F JUMPI PUSH2 0x45E PUSH2 0x3DB JUMP JUMPDEST JUMPDEST DUP3 DUP3 DIV SWAP1 POP SWAP3 SWAP2 POP POP JUMP JUMPDEST PUSH1 0x0 PUSH2 0x475 DUP3 PUSH2 0x2C6 JUMP JUMPDEST SWAP2 POP PUSH2 0x480 DUP4 PUSH2 0x2C6 JUMP JUMPDEST SWAP3 POP DUP3 PUSH2 0x490 JUMPI PUSH2 0x48F PUSH2 0x3DB JUMP JUMPDEST JUMPDEST DUP3 DUP3 MOD SWAP1 POP SWAP3 SWAP2 POP POP JUMP JUMPDEST PUSH1 0x0 DUP2 SWAP1 POP SWAP3 SWAP2 POP POP JUMP JUMPDEST PUSH1 0x0 PUSH2 0x4B1 DUP3 PUSH2 0x329 JUMP JUMPDEST PUSH2 0x4BB DUP2 DUP6 PUSH2 0x49B JUMP JUMPDEST SWAP4 POP PUSH2 0x4CB DUP2 DUP6 PUSH1 0x20 DUP7 ADD PUSH2 0x345 JUMP JUMPDEST DUP1 DUP5 ADD SWAP2 POP POP SWAP3 SWAP2 POP POP JUMP JUMPDEST PUSH32 0x6820000000000000000000000000000000000000000000000000000000000000 PUSH1 0x0 DUP3 ADD MSTORE POP JUMP JUMPDEST PUSH1 0x0 PUSH2 0x50D PUSH1 0x2 DUP4 PUSH2 0x49B JUMP JUMPDEST SWAP2 POP PUSH2 0x518 DUP3 PUSH2 0x4D7 JUMP JUMPDEST PUSH1 0x2 DUP3 ADD SWAP1 POP SWAP2 SWAP1 POP JUMP JUMPDEST PUSH32 0x6D20000000000000000000000000000000000000000000000000000000000000 PUSH1 0x0 DUP3 ADD MSTORE POP JUMP JUMPDEST PUSH1 0x0 PUSH2 0x559 PUSH1 0x2 DUP4 PUSH2 0x49B JUMP JUMPDEST SWAP2 POP PUSH2 0x564 DUP3 PUSH2 0x523 JUMP JUMPDEST PUSH1 0x2 DUP3 ADD SWAP1 POP SWAP2 SWAP1 POP JUMP JUMPDEST PUSH32 0x7300000000000000000000000000000000000000000000000000000000000000 PUSH1 0x0 DUP3 ADD MSTORE POP JUMP JUMPDEST PUSH1 0x0 PUSH2 0x5A5 PUSH1 0x1 DUP4 PUSH2 0x49B JUMP JUMPDEST SWAP2 POP PUSH2 0x5B0 DUP3 PUSH2 0x56F JUMP JUMPDEST PUSH1 0x1 DUP3 ADD SWAP1 POP SWAP2 SWAP1 POP JUMP JUMPDEST PUSH1 0x0 PUSH2 0x5C7 DUP3 DUP7 PUSH2 0x4A6 JUMP JUMPDEST SWAP2 POP PUSH2 0x5D2 DUP3 PUSH2 0x500 JUMP JUMPDEST SWAP2 POP PUSH2 0x5DE DUP3 DUP6 PUSH2 0x4A6 JUMP JUMPDEST SWAP2 POP PUSH2 0x5E9 DUP3 PUSH2 0x54C JUMP JUMPDEST SWAP2 POP PUSH2 0x5F5 DUP3 DUP5 PUSH2 0x4A6 JUMP JUMPDEST SWAP2 POP PUSH2 0x600 DUP3 PUSH2 0x598 JUMP JUMPDEST SWAP2 POP DUP2 SWAP1 POP SWAP5 SWAP4 POP POP POP POP JUMP JUMPDEST PUSH1 0x0 PUSH2 0x619 DUP3 DUP6 PUSH2 0x4A6 JUMP JUMPDEST SWAP2 POP PUSH2 0x624 DUP3 PUSH2 0x54C JUMP JUMPDEST SWAP2 POP PUSH2 0x630 DUP3 DUP5 PUSH2 0x4A6 JUMP JUMPDEST SWAP2 POP PUSH2 0x63B DUP3 PUSH2 0x598 JUMP JUMPDEST SWAP2 POP DUP2 SWAP1 POP SWAP4 SWAP3 POP POP POP JUMP JUMPDEST PUSH1 0x0 PUSH2 0x653 DUP3 DUP5 PUSH2 0x4A6 JUMP JUMPDEST SWAP2 POP PUSH2 0x65E DUP3 PUSH2 0x598 JUMP JUMPDEST SWAP2 POP DUP2 SWAP1 POP SWAP3 SWAP2 POP POP JUMP JUMPDEST PUSH1 0x0 PUSH2 0x674 DUP3 PUSH2 0x2C6 JUMP JUMPDEST SWAP2 POP PUSH32 0xFFFFFFFFFFFFFFFFFFFFFFFFFFFFFFFFFFFFFFFFFFFFFFFFFFFFFFFFFFFFFFFF DUP3 SUB PUSH2 0x6A6 JUMPI PUSH2 0x6A5 PUSH2 0x40A JUMP JUMPDEST JUMPDEST PUSH1 0x1 DUP3 ADD SWAP1 POP SWAP2 SWAP1 POP JUMP JUMPDEST PUSH32 0x4E487B7100000000000000000000000000000000000000000000000000000000 PUSH1 0x0 MSTORE PUSH1 0x41 PUSH1 0x4 MSTORE PUSH1 0x24 PUSH1 0x0 REVERT JUMPDEST PUSH1 0x0 PUSH2 0x6EB DUP3 PUSH2 0x2C6 JUMP JUMPDEST SWAP2 POP PUSH1 0x0 DUP3 SUB PUSH2 0x6FE JUMPI PUSH2 0x6FD PUSH2 0x40A JUMP JUMPDEST JUMPDEST PUSH1 0x1 DUP3 SUB SWAP1 POP SWAP2 SWAP1 POP JUMP JUMPDEST PUSH32 0x4E487B7100000000000000000000000000000000000000000000000000000000 PUSH1 0x0 MSTORE PUSH1 0x32 PUSH1 0x4 MSTORE PUSH1 0x24 PUSH1 0x0 REVERT JUMPDEST PUSH1 0x0 PUSH2 0x743 DUP3 PUSH2 0x2C6 JUMP JUMPDEST SWAP2 POP PUSH2 0x74E DUP4 PUSH2 0x2C6 JUMP JUMPDEST SWAP3 POP DUP3 DUP3 ADD SWAP1 POP DUP1 DUP3 GT ISZERO PUSH2 0x766 JUMPI PUSH2 0x765 PUSH2 0x40A JUMP JUMPDEST JUMPDEST SWAP3 SWAP2 POP POP JUMP JUMPDEST PUSH1 0x0 DUP2 MLOAD SWAP1 POP SWAP2 SWAP1 POP JUMP JUMPDEST PUSH1 0x0 DUP2 SWAP1 POP SWAP3 SWAP2 POP POP JUMP JUMPDEST PUSH1 0x0 DUP2 SWAP1 POP PUSH1 0x20 DUP3 ADD SWAP1 POP SWAP2 SWAP1 POP JUMP JUMPDEST PUSH2 0x79B DUP2 PUSH2 0x2C6 JUMP JUMPDEST DUP3 MSTORE POP POP JUMP JUMPDEST PUSH1 0x0 PUSH2 0x7AD DUP4 DUP4 PUSH2 0x792 JUMP JUMPDEST PUSH1 0x20 DUP4 ADD SWAP1 POP SWAP3 SWAP2 POP POP JUMP JUMPDEST PUSH1 0x0 PUSH1 0x20 DUP3 ADD SWAP1 POP SWAP2 SWAP1 POP JUMP JUMPDEST PUSH1 0x0 PUSH2 0x7D1 DUP3 PUSH2 0x76C JUMP JUMPDEST PUSH2 0x7DB DUP2 DUP6 PUSH2 0x777 JUMP JUMPDEST SWAP4 POP PUSH2 0x7E6 DUP4 PUSH2 0x782 JUMP JUMPDEST DUP1 PUSH1 0x0 JUMPDEST DUP4 DUP2 LT ISZERO PUSH2 0x817 JUMPI DUP2 MLOAD PUSH2 0x7FE DUP9 DUP3 PUSH2 0x7A1 JUMP JUMPDEST SWAP8 POP PUSH2 0x809 DUP4 PUSH2 0x7B9 JUMP JUMPDEST SWAP3 POP POP PUSH1 0x1 DUP2 ADD SWAP1 POP PUSH2 0x7EA JUMP JUMPDEST POP DUP6 SWAP4 POP POP POP POP SWAP3 SWAP2 POP POP JUMP JUMPDEST PUSH1 0x0 PUSH2 0x830 DUP3 DUP5 PUSH2 0x7C6 JUMP JUMPDEST SWAP2 POP DUP2 SWAP1 POP SWAP3 SWAP2 POP POP JUMP INVALID LOG2 PUSH5 0x6970667358 0x22 SLT KECCAK256 PUSH29 0x635C7C6DDA432D66A5C5E4B888D6044496EE373459B11B94F0CE3FE067 PUSH8 0x8C64736F6C634300 ADDMOD SLT STOP CALLER "
				},
				"gasEstimates": {
					"creation": {
						"codeDepositCost": "432200",
						"executionCost": "468",
						"totalCost": "432668"
					},
					"external": {
						"setTime(uint256)": "infinite"
					},
					"internal": {
						"concat(uint256)": "infinite"
					}
				},
				"methodIdentifiers": {
					"setTime(uint256)": "3beb26c4"
				}
			},
			"storageLayout": {
				"storage": [],
				"types": null
			},
			"userdoc": {
				"kind": "user",
				"methods": {},
				"version": 1
			}
		}
	}
}