{
	"contracts/230523/a.sol": {
		"A": {
			"abi": [
				{
					"inputs": [
						{
							"internalType": "uint256",
							"name": "_a",
							"type": "uint256"
						},
						{
							"internalType": "uint256",
							"name": "_b",
							"type": "uint256"
						}
					],
					"name": "add",
					"outputs": [
						{
							"internalType": "uint256",
							"name": "",
							"type": "uint256"
						}
					],
					"stateMutability": "view",
					"type": "function"
				},
				{
					"inputs": [
						{
							"internalType": "uint256",
							"name": "_a",
							"type": "uint256"
						},
						{
							"internalType": "uint256",
							"name": "_b",
							"type": "uint256"
						}
					],
					"name": "multi",
					"outputs": [
						{
							"internalType": "uint256",
							"name": "",
							"type": "uint256"
						}
					],
					"stateMutability": "view",
					"type": "function"
				}
			],
			"devdoc": {
				"kind": "dev",
				"methods": {},
				"version": 1
			},
			"evm": {
				"assembly": "    /* \"contracts/230523/a.sol\":138:472  contract A {... */\n  mstore(0x40, 0x80)\n    /* \"contracts/230523/a.sol\":180:201  new B_SmartContract() */\n  mload(0x40)\n  tag_1\n  swap1\n  tag_2\n  jump\t// in\ntag_1:\n  mload(0x40)\n  dup1\n  swap2\n  sub\n  swap1\n  0x00\n  create\n  dup1\n  iszero\n  dup1\n  iszero\n  tag_3\n  jumpi\n  returndatasize\n  0x00\n  dup1\n  returndatacopy\n  revert(0x00, returndatasize)\ntag_3:\n  pop\n    /* \"contracts/230523/a.sol\":156:201  B_SmartContract b_con = new B_SmartContract() */\n  0x00\n  dup1\n  0x0100\n  exp\n  dup2\n  sload\n  dup2\n  0xffffffffffffffffffffffffffffffffffffffff\n  mul\n  not\n  and\n  swap1\n  dup4\n  0xffffffffffffffffffffffffffffffffffffffff\n  and\n  mul\n  or\n  swap1\n  sstore\n  pop\n    /* \"contracts/230523/a.sol\":227:243  new D_Contract() */\n  mload(0x40)\n  tag_4\n  swap1\n  tag_5\n  jump\t// in\ntag_4:\n  mload(0x40)\n  dup1\n  swap2\n  sub\n  swap1\n  0x00\n  create\n  dup1\n  iszero\n  dup1\n  iszero\n  tag_6\n  jumpi\n  returndatasize\n  0x00\n  dup1\n  returndatacopy\n  revert(0x00, returndatasize)\ntag_6:\n  pop\n    /* \"contracts/230523/a.sol\":208:243  D_Contract d_con = new D_Contract() */\n  0x01\n  exp(0x0100, 0x00)\n  dup2\n  sload\n  dup2\n  0xffffffffffffffffffffffffffffffffffffffff\n  mul\n  not\n  and\n  swap1\n  dup4\n  0xffffffffffffffffffffffffffffffffffffffff\n  and\n  mul\n  or\n  swap1\n  sstore\n  pop\n    /* \"contracts/230523/a.sol\":138:472  contract A {... */\n  callvalue\n  dup1\n  iszero\n  tag_7\n  jumpi\n  0x00\n  dup1\n  revert\ntag_7:\n  pop\n  jump(tag_8)\ntag_2:\n  dataSize(sub_1)\n  dup1\n  dataOffset(sub_1)\n  dup4\n  codecopy\n  add\n  swap1\n  jump\t// out\ntag_5:\n  dataSize(sub_2)\n  dup1\n  dataOffset(sub_2)\n  dup4\n  codecopy\n  add\n  swap1\n  jump\t// out\ntag_8:\n  dataSize(sub_0)\n  dup1\n  dataOffset(sub_0)\n  0x00\n  codecopy\n  0x00\n  return\nstop\n\nsub_0: assembly {\n        /* \"contracts/230523/a.sol\":138:472  contract A {... */\n      mstore(0x40, 0x80)\n      callvalue\n      dup1\n      iszero\n      tag_1\n      jumpi\n      0x00\n      dup1\n      revert\n    tag_1:\n      pop\n      jumpi(tag_2, lt(calldatasize, 0x04))\n      shr(0xe0, calldataload(0x00))\n      dup1\n      0x5171762c\n      eq\n      tag_3\n      jumpi\n      dup1\n      0x771602f7\n      eq\n      tag_4\n      jumpi\n    tag_2:\n      0x00\n      dup1\n      revert\n        /* \"contracts/230523/a.sol\":361:469  function multi(uint _a, uint _b) public view returns(uint) {... */\n    tag_3:\n      tag_5\n      0x04\n      dup1\n      calldatasize\n      sub\n      dup2\n      add\n      swap1\n      tag_6\n      swap2\n      swap1\n      tag_7\n      jump\t// in\n    tag_6:\n      tag_8\n      jump\t// in\n    tag_5:\n      mload(0x40)\n      tag_9\n      swap2\n      swap1\n      tag_10\n      jump\t// in\n    tag_9:\n      mload(0x40)\n      dup1\n      swap2\n      sub\n      swap1\n      return\n        /* \"contracts/230523/a.sol\":252:353  function add(uint _a, uint _b) public view returns (uint) {... */\n    tag_4:\n      tag_11\n      0x04\n      dup1\n      calldatasize\n      sub\n      dup2\n      add\n      swap1\n      tag_12\n      swap2\n      swap1\n      tag_7\n      jump\t// in\n    tag_12:\n      tag_13\n      jump\t// in\n    tag_11:\n      mload(0x40)\n      tag_14\n      swap2\n      swap1\n      tag_10\n      jump\t// in\n    tag_14:\n      mload(0x40)\n      dup1\n      swap2\n      sub\n      swap1\n      return\n        /* \"contracts/230523/a.sol\":361:469  function multi(uint _a, uint _b) public view returns(uint) {... */\n    tag_8:\n        /* \"contracts/230523/a.sol\":414:418  uint */\n      0x00\n        /* \"contracts/230523/a.sol\":438:443  d_con */\n      0x01\n      0x00\n      swap1\n      sload\n      swap1\n      0x0100\n      exp\n      swap1\n      div\n      0xffffffffffffffffffffffffffffffffffffffff\n      and\n        /* \"contracts/230523/a.sol\":438:453  d_con.multiplay */\n      0xffffffffffffffffffffffffffffffffffffffff\n      and\n      0x561a822e\n        /* \"contracts/230523/a.sol\":454:456  _a */\n      dup5\n        /* \"contracts/230523/a.sol\":458:460  _b */\n      dup5\n        /* \"contracts/230523/a.sol\":438:461  d_con.multiplay(_a, _b) */\n      mload(0x40)\n      dup4\n      0xffffffff\n      and\n      0xe0\n      shl\n      dup2\n      mstore\n      0x04\n      add\n      tag_16\n      swap3\n      swap2\n      swap1\n      tag_17\n      jump\t// in\n    tag_16:\n      0x20\n      mload(0x40)\n      dup1\n      dup4\n      sub\n      dup2\n      dup7\n      gas\n      staticcall\n      iszero\n      dup1\n      iszero\n      tag_19\n      jumpi\n      returndatasize\n      0x00\n      dup1\n      returndatacopy\n      revert(0x00, returndatasize)\n    tag_19:\n      pop\n      pop\n      pop\n      pop\n      mload(0x40)\n      returndatasize\n      not(0x1f)\n      0x1f\n      dup3\n      add\n      and\n      dup3\n      add\n      dup1\n      0x40\n      mstore\n      pop\n      dup2\n      add\n      swap1\n      tag_20\n      swap2\n      swap1\n      tag_21\n      jump\t// in\n    tag_20:\n        /* \"contracts/230523/a.sol\":431:461  return d_con.multiplay(_a, _b) */\n      swap1\n      pop\n        /* \"contracts/230523/a.sol\":361:469  function multi(uint _a, uint _b) public view returns(uint) {... */\n      swap3\n      swap2\n      pop\n      pop\n      jump\t// out\n        /* \"contracts/230523/a.sol\":252:353  function add(uint _a, uint _b) public view returns (uint) {... */\n    tag_13:\n        /* \"contracts/230523/a.sol\":304:308  uint */\n      0x00\n        /* \"contracts/230523/a.sol\":328:333  b_con */\n      dup1\n      0x00\n      swap1\n      sload\n      swap1\n      0x0100\n      exp\n      swap1\n      div\n      0xffffffffffffffffffffffffffffffffffffffff\n      and\n        /* \"contracts/230523/a.sol\":328:337  b_con.add */\n      0xffffffffffffffffffffffffffffffffffffffff\n      and\n      0x771602f7\n        /* \"contracts/230523/a.sol\":338:340  _a */\n      dup5\n        /* \"contracts/230523/a.sol\":342:344  _b */\n      dup5\n        /* \"contracts/230523/a.sol\":328:345  b_con.add(_a, _b) */\n      mload(0x40)\n      dup4\n      0xffffffff\n      and\n      0xe0\n      shl\n      dup2\n      mstore\n      0x04\n      add\n      tag_23\n      swap3\n      swap2\n      swap1\n      tag_17\n      jump\t// in\n    tag_23:\n      0x20\n      mload(0x40)\n      dup1\n      dup4\n      sub\n      dup2\n      dup7\n      gas\n      staticcall\n      iszero\n      dup1\n      iszero\n      tag_25\n      jumpi\n      returndatasize\n      0x00\n      dup1\n      returndatacopy\n      revert(0x00, returndatasize)\n    tag_25:\n      pop\n      pop\n      pop\n      pop\n      mload(0x40)\n      returndatasize\n      not(0x1f)\n      0x1f\n      dup3\n      add\n      and\n      dup3\n      add\n      dup1\n      0x40\n      mstore\n      pop\n      dup2\n      add\n      swap1\n      tag_26\n      swap2\n      swap1\n      tag_21\n      jump\t// in\n    tag_26:\n        /* \"contracts/230523/a.sol\":321:345  return b_con.add(_a, _b) */\n      swap1\n      pop\n        /* \"contracts/230523/a.sol\":252:353  function add(uint _a, uint _b) public view returns (uint) {... */\n      swap3\n      swap2\n      pop\n      pop\n      jump\t// out\n        /* \"#utility.yul\":88:205   */\n    tag_28:\n        /* \"#utility.yul\":197:198   */\n      0x00\n        /* \"#utility.yul\":194:195   */\n      dup1\n        /* \"#utility.yul\":187:199   */\n      revert\n        /* \"#utility.yul\":334:411   */\n    tag_30:\n        /* \"#utility.yul\":371:378   */\n      0x00\n        /* \"#utility.yul\":400:405   */\n      dup2\n        /* \"#utility.yul\":389:405   */\n      swap1\n      pop\n        /* \"#utility.yul\":334:411   */\n      swap2\n      swap1\n      pop\n      jump\t// out\n        /* \"#utility.yul\":417:539   */\n    tag_31:\n        /* \"#utility.yul\":490:514   */\n      tag_41\n        /* \"#utility.yul\":508:513   */\n      dup2\n        /* \"#utility.yul\":490:514   */\n      tag_30\n      jump\t// in\n    tag_41:\n        /* \"#utility.yul\":483:488   */\n      dup2\n        /* \"#utility.yul\":480:515   */\n      eq\n        /* \"#utility.yul\":470:533   */\n      tag_42\n      jumpi\n        /* \"#utility.yul\":529:530   */\n      0x00\n        /* \"#utility.yul\":526:527   */\n      dup1\n        /* \"#utility.yul\":519:531   */\n      revert\n        /* \"#utility.yul\":470:533   */\n    tag_42:\n        /* \"#utility.yul\":417:539   */\n      pop\n      jump\t// out\n        /* \"#utility.yul\":545:684   */\n    tag_32:\n        /* \"#utility.yul\":591:596   */\n      0x00\n        /* \"#utility.yul\":629:635   */\n      dup2\n        /* \"#utility.yul\":616:636   */\n      calldataload\n        /* \"#utility.yul\":607:636   */\n      swap1\n      pop\n        /* \"#utility.yul\":645:678   */\n      tag_44\n        /* \"#utility.yul\":672:677   */\n      dup2\n        /* \"#utility.yul\":645:678   */\n      tag_31\n      jump\t// in\n    tag_44:\n        /* \"#utility.yul\":545:684   */\n      swap3\n      swap2\n      pop\n      pop\n      jump\t// out\n        /* \"#utility.yul\":690:1164   */\n    tag_7:\n        /* \"#utility.yul\":758:764   */\n      0x00\n        /* \"#utility.yul\":766:772   */\n      dup1\n        /* \"#utility.yul\":815:817   */\n      0x40\n        /* \"#utility.yul\":803:812   */\n      dup4\n        /* \"#utility.yul\":794:801   */\n      dup6\n        /* \"#utility.yul\":790:813   */\n      sub\n        /* \"#utility.yul\":786:818   */\n      slt\n        /* \"#utility.yul\":783:902   */\n      iszero\n      tag_46\n      jumpi\n        /* \"#utility.yul\":821:900   */\n      tag_47\n      tag_28\n      jump\t// in\n    tag_47:\n        /* \"#utility.yul\":783:902   */\n    tag_46:\n        /* \"#utility.yul\":941:942   */\n      0x00\n        /* \"#utility.yul\":966:1019   */\n      tag_48\n        /* \"#utility.yul\":1011:1018   */\n      dup6\n        /* \"#utility.yul\":1002:1008   */\n      dup3\n        /* \"#utility.yul\":991:1000   */\n      dup7\n        /* \"#utility.yul\":987:1009   */\n      add\n        /* \"#utility.yul\":966:1019   */\n      tag_32\n      jump\t// in\n    tag_48:\n        /* \"#utility.yul\":956:1019   */\n      swap3\n      pop\n        /* \"#utility.yul\":912:1029   */\n      pop\n        /* \"#utility.yul\":1068:1070   */\n      0x20\n        /* \"#utility.yul\":1094:1147   */\n      tag_49\n        /* \"#utility.yul\":1139:1146   */\n      dup6\n        /* \"#utility.yul\":1130:1136   */\n      dup3\n        /* \"#utility.yul\":1119:1128   */\n      dup7\n        /* \"#utility.yul\":1115:1137   */\n      add\n        /* \"#utility.yul\":1094:1147   */\n      tag_32\n      jump\t// in\n    tag_49:\n        /* \"#utility.yul\":1084:1147   */\n      swap2\n      pop\n        /* \"#utility.yul\":1039:1157   */\n      pop\n        /* \"#utility.yul\":690:1164   */\n      swap3\n      pop\n      swap3\n      swap1\n      pop\n      jump\t// out\n        /* \"#utility.yul\":1170:1288   */\n    tag_33:\n        /* \"#utility.yul\":1257:1281   */\n      tag_51\n        /* \"#utility.yul\":1275:1280   */\n      dup2\n        /* \"#utility.yul\":1257:1281   */\n      tag_30\n      jump\t// in\n    tag_51:\n        /* \"#utility.yul\":1252:1255   */\n      dup3\n        /* \"#utility.yul\":1245:1282   */\n      mstore\n        /* \"#utility.yul\":1170:1288   */\n      pop\n      pop\n      jump\t// out\n        /* \"#utility.yul\":1294:1516   */\n    tag_10:\n        /* \"#utility.yul\":1387:1391   */\n      0x00\n        /* \"#utility.yul\":1425:1427   */\n      0x20\n        /* \"#utility.yul\":1414:1423   */\n      dup3\n        /* \"#utility.yul\":1410:1428   */\n      add\n        /* \"#utility.yul\":1402:1428   */\n      swap1\n      pop\n        /* \"#utility.yul\":1438:1509   */\n      tag_53\n        /* \"#utility.yul\":1506:1507   */\n      0x00\n        /* \"#utility.yul\":1495:1504   */\n      dup4\n        /* \"#utility.yul\":1491:1508   */\n      add\n        /* \"#utility.yul\":1482:1488   */\n      dup5\n        /* \"#utility.yul\":1438:1509   */\n      tag_33\n      jump\t// in\n    tag_53:\n        /* \"#utility.yul\":1294:1516   */\n      swap3\n      swap2\n      pop\n      pop\n      jump\t// out\n        /* \"#utility.yul\":1522:1854   */\n    tag_17:\n        /* \"#utility.yul\":1643:1647   */\n      0x00\n        /* \"#utility.yul\":1681:1683   */\n      0x40\n        /* \"#utility.yul\":1670:1679   */\n      dup3\n        /* \"#utility.yul\":1666:1684   */\n      add\n        /* \"#utility.yul\":1658:1684   */\n      swap1\n      pop\n        /* \"#utility.yul\":1694:1765   */\n      tag_55\n        /* \"#utility.yul\":1762:1763   */\n      0x00\n        /* \"#utility.yul\":1751:1760   */\n      dup4\n        /* \"#utility.yul\":1747:1764   */\n      add\n        /* \"#utility.yul\":1738:1744   */\n      dup6\n        /* \"#utility.yul\":1694:1765   */\n      tag_33\n      jump\t// in\n    tag_55:\n        /* \"#utility.yul\":1775:1847   */\n      tag_56\n        /* \"#utility.yul\":1843:1845   */\n      0x20\n        /* \"#utility.yul\":1832:1841   */\n      dup4\n        /* \"#utility.yul\":1828:1846   */\n      add\n        /* \"#utility.yul\":1819:1825   */\n      dup5\n        /* \"#utility.yul\":1775:1847   */\n      tag_33\n      jump\t// in\n    tag_56:\n        /* \"#utility.yul\":1522:1854   */\n      swap4\n      swap3\n      pop\n      pop\n      pop\n      jump\t// out\n        /* \"#utility.yul\":1860:2003   */\n    tag_34:\n        /* \"#utility.yul\":1917:1922   */\n      0x00\n        /* \"#utility.yul\":1948:1954   */\n      dup2\n        /* \"#utility.yul\":1942:1955   */\n      mload\n        /* \"#utility.yul\":1933:1955   */\n      swap1\n      pop\n        /* \"#utility.yul\":1964:1997   */\n      tag_58\n        /* \"#utility.yul\":1991:1996   */\n      dup2\n        /* \"#utility.yul\":1964:1997   */\n      tag_31\n      jump\t// in\n    tag_58:\n        /* \"#utility.yul\":1860:2003   */\n      swap3\n      swap2\n      pop\n      pop\n      jump\t// out\n        /* \"#utility.yul\":2009:2360   */\n    tag_21:\n        /* \"#utility.yul\":2079:2085   */\n      0x00\n        /* \"#utility.yul\":2128:2130   */\n      0x20\n        /* \"#utility.yul\":2116:2125   */\n      dup3\n        /* \"#utility.yul\":2107:2114   */\n      dup5\n        /* \"#utility.yul\":2103:2126   */\n      sub\n        /* \"#utility.yul\":2099:2131   */\n      slt\n        /* \"#utility.yul\":2096:2215   */\n      iszero\n      tag_60\n      jumpi\n        /* \"#utility.yul\":2134:2213   */\n      tag_61\n      tag_28\n      jump\t// in\n    tag_61:\n        /* \"#utility.yul\":2096:2215   */\n    tag_60:\n        /* \"#utility.yul\":2254:2255   */\n      0x00\n        /* \"#utility.yul\":2279:2343   */\n      tag_62\n        /* \"#utility.yul\":2335:2342   */\n      dup5\n        /* \"#utility.yul\":2326:2332   */\n      dup3\n        /* \"#utility.yul\":2315:2324   */\n      dup6\n        /* \"#utility.yul\":2311:2333   */\n      add\n        /* \"#utility.yul\":2279:2343   */\n      tag_34\n      jump\t// in\n    tag_62:\n        /* \"#utility.yul\":2269:2343   */\n      swap2\n      pop\n        /* \"#utility.yul\":2225:2353   */\n      pop\n        /* \"#utility.yul\":2009:2360   */\n      swap3\n      swap2\n      pop\n      pop\n      jump\t// out\n\n    auxdata: 0xa26469706673582212205971eafb46849624bc06f81841d7c8c9cd67814f5d1566c9faa4137cac53a54d64736f6c63430008120033\n}\n\nsub_1: assembly {\n        /* \"contracts/230523/b.sol\":61:188  contract B_SmartContract {... */\n      mstore(0x40, 0x80)\n      callvalue\n      dup1\n      iszero\n      tag_1\n      jumpi\n      0x00\n      dup1\n      revert\n    tag_1:\n      pop\n      dataSize(sub_0)\n      dup1\n      dataOffset(sub_0)\n      0x00\n      codecopy\n      0x00\n      return\n    stop\n\n    sub_0: assembly {\n            /* \"contracts/230523/b.sol\":61:188  contract B_SmartContract {... */\n          mstore(0x40, 0x80)\n          callvalue\n          dup1\n          iszero\n          tag_1\n          jumpi\n          0x00\n          dup1\n          revert\n        tag_1:\n          pop\n          jumpi(tag_2, lt(calldatasize, 0x04))\n          shr(0xe0, calldataload(0x00))\n          dup1\n          0x771602f7\n          eq\n          tag_3\n          jumpi\n        tag_2:\n          0x00\n          dup1\n          revert\n            /* \"contracts/230523/b.sol\":93:185  function add(uint _a, uint _b) public pure returns(uint) {... */\n        tag_3:\n          tag_4\n          0x04\n          dup1\n          calldatasize\n          sub\n          dup2\n          add\n          swap1\n          tag_5\n          swap2\n          swap1\n          tag_6\n          jump\t// in\n        tag_5:\n          tag_7\n          jump\t// in\n        tag_4:\n          mload(0x40)\n          tag_8\n          swap2\n          swap1\n          tag_9\n          jump\t// in\n        tag_8:\n          mload(0x40)\n          dup1\n          swap2\n          sub\n          swap1\n          return\n        tag_7:\n            /* \"contracts/230523/b.sol\":144:148  uint */\n          0x00\n            /* \"contracts/230523/b.sol\":174:176  _b */\n          dup2\n            /* \"contracts/230523/b.sol\":171:173  _a */\n          dup4\n            /* \"contracts/230523/b.sol\":168:170  _a */\n          dup5\n            /* \"contracts/230523/b.sol\":168:173  _a+_a */\n          tag_11\n          swap2\n          swap1\n          tag_12\n          jump\t// in\n        tag_11:\n            /* \"contracts/230523/b.sol\":168:176  _a+_a+_b */\n          tag_13\n          swap2\n          swap1\n          tag_12\n          jump\t// in\n        tag_13:\n            /* \"contracts/230523/b.sol\":161:177  return(_a+_a+_b) */\n          swap1\n          pop\n            /* \"contracts/230523/b.sol\":93:185  function add(uint _a, uint _b) public pure returns(uint) {... */\n          swap3\n          swap2\n          pop\n          pop\n          jump\t// out\n            /* \"#utility.yul\":88:205   */\n        tag_15:\n            /* \"#utility.yul\":197:198   */\n          0x00\n            /* \"#utility.yul\":194:195   */\n          dup1\n            /* \"#utility.yul\":187:199   */\n          revert\n            /* \"#utility.yul\":334:411   */\n        tag_17:\n            /* \"#utility.yul\":371:378   */\n          0x00\n            /* \"#utility.yul\":400:405   */\n          dup2\n            /* \"#utility.yul\":389:405   */\n          swap1\n          pop\n            /* \"#utility.yul\":334:411   */\n          swap2\n          swap1\n          pop\n          jump\t// out\n            /* \"#utility.yul\":417:539   */\n        tag_18:\n            /* \"#utility.yul\":490:514   */\n          tag_28\n            /* \"#utility.yul\":508:513   */\n          dup2\n            /* \"#utility.yul\":490:514   */\n          tag_17\n          jump\t// in\n        tag_28:\n            /* \"#utility.yul\":483:488   */\n          dup2\n            /* \"#utility.yul\":480:515   */\n          eq\n            /* \"#utility.yul\":470:533   */\n          tag_29\n          jumpi\n            /* \"#utility.yul\":529:530   */\n          0x00\n            /* \"#utility.yul\":526:527   */\n          dup1\n            /* \"#utility.yul\":519:531   */\n          revert\n            /* \"#utility.yul\":470:533   */\n        tag_29:\n            /* \"#utility.yul\":417:539   */\n          pop\n          jump\t// out\n            /* \"#utility.yul\":545:684   */\n        tag_19:\n            /* \"#utility.yul\":591:596   */\n          0x00\n            /* \"#utility.yul\":629:635   */\n          dup2\n            /* \"#utility.yul\":616:636   */\n          calldataload\n            /* \"#utility.yul\":607:636   */\n          swap1\n          pop\n            /* \"#utility.yul\":645:678   */\n          tag_31\n            /* \"#utility.yul\":672:677   */\n          dup2\n            /* \"#utility.yul\":645:678   */\n          tag_18\n          jump\t// in\n        tag_31:\n            /* \"#utility.yul\":545:684   */\n          swap3\n          swap2\n          pop\n          pop\n          jump\t// out\n            /* \"#utility.yul\":690:1164   */\n        tag_6:\n            /* \"#utility.yul\":758:764   */\n          0x00\n            /* \"#utility.yul\":766:772   */\n          dup1\n            /* \"#utility.yul\":815:817   */\n          0x40\n            /* \"#utility.yul\":803:812   */\n          dup4\n            /* \"#utility.yul\":794:801   */\n          dup6\n            /* \"#utility.yul\":790:813   */\n          sub\n            /* \"#utility.yul\":786:818   */\n          slt\n            /* \"#utility.yul\":783:902   */\n          iszero\n          tag_33\n          jumpi\n            /* \"#utility.yul\":821:900   */\n          tag_34\n          tag_15\n          jump\t// in\n        tag_34:\n            /* \"#utility.yul\":783:902   */\n        tag_33:\n            /* \"#utility.yul\":941:942   */\n          0x00\n            /* \"#utility.yul\":966:1019   */\n          tag_35\n            /* \"#utility.yul\":1011:1018   */\n          dup6\n            /* \"#utility.yul\":1002:1008   */\n          dup3\n            /* \"#utility.yul\":991:1000   */\n          dup7\n            /* \"#utility.yul\":987:1009   */\n          add\n            /* \"#utility.yul\":966:1019   */\n          tag_19\n          jump\t// in\n        tag_35:\n            /* \"#utility.yul\":956:1019   */\n          swap3\n          pop\n            /* \"#utility.yul\":912:1029   */\n          pop\n            /* \"#utility.yul\":1068:1070   */\n          0x20\n            /* \"#utility.yul\":1094:1147   */\n          tag_36\n            /* \"#utility.yul\":1139:1146   */\n          dup6\n            /* \"#utility.yul\":1130:1136   */\n          dup3\n            /* \"#utility.yul\":1119:1128   */\n          dup7\n            /* \"#utility.yul\":1115:1137   */\n          add\n            /* \"#utility.yul\":1094:1147   */\n          tag_19\n          jump\t// in\n        tag_36:\n            /* \"#utility.yul\":1084:1147   */\n          swap2\n          pop\n            /* \"#utility.yul\":1039:1157   */\n          pop\n            /* \"#utility.yul\":690:1164   */\n          swap3\n          pop\n          swap3\n          swap1\n          pop\n          jump\t// out\n            /* \"#utility.yul\":1170:1288   */\n        tag_20:\n            /* \"#utility.yul\":1257:1281   */\n          tag_38\n            /* \"#utility.yul\":1275:1280   */\n          dup2\n            /* \"#utility.yul\":1257:1281   */\n          tag_17\n          jump\t// in\n        tag_38:\n            /* \"#utility.yul\":1252:1255   */\n          dup3\n            /* \"#utility.yul\":1245:1282   */\n          mstore\n            /* \"#utility.yul\":1170:1288   */\n          pop\n          pop\n          jump\t// out\n            /* \"#utility.yul\":1294:1516   */\n        tag_9:\n            /* \"#utility.yul\":1387:1391   */\n          0x00\n            /* \"#utility.yul\":1425:1427   */\n          0x20\n            /* \"#utility.yul\":1414:1423   */\n          dup3\n            /* \"#utility.yul\":1410:1428   */\n          add\n            /* \"#utility.yul\":1402:1428   */\n          swap1\n          pop\n            /* \"#utility.yul\":1438:1509   */\n          tag_40\n            /* \"#utility.yul\":1506:1507   */\n          0x00\n            /* \"#utility.yul\":1495:1504   */\n          dup4\n            /* \"#utility.yul\":1491:1508   */\n          add\n            /* \"#utility.yul\":1482:1488   */\n          dup5\n            /* \"#utility.yul\":1438:1509   */\n          tag_20\n          jump\t// in\n        tag_40:\n            /* \"#utility.yul\":1294:1516   */\n          swap3\n          swap2\n          pop\n          pop\n          jump\t// out\n            /* \"#utility.yul\":1522:1702   */\n        tag_21:\n            /* \"#utility.yul\":1570:1647   */\n          0x4e487b7100000000000000000000000000000000000000000000000000000000\n            /* \"#utility.yul\":1567:1568   */\n          0x00\n            /* \"#utility.yul\":1560:1648   */\n          mstore\n            /* \"#utility.yul\":1667:1671   */\n          0x11\n            /* \"#utility.yul\":1664:1665   */\n          0x04\n            /* \"#utility.yul\":1657:1672   */\n          mstore\n            /* \"#utility.yul\":1691:1695   */\n          0x24\n            /* \"#utility.yul\":1688:1689   */\n          0x00\n            /* \"#utility.yul\":1681:1696   */\n          revert\n            /* \"#utility.yul\":1708:1899   */\n        tag_12:\n            /* \"#utility.yul\":1748:1751   */\n          0x00\n            /* \"#utility.yul\":1767:1787   */\n          tag_43\n            /* \"#utility.yul\":1785:1786   */\n          dup3\n            /* \"#utility.yul\":1767:1787   */\n          tag_17\n          jump\t// in\n        tag_43:\n            /* \"#utility.yul\":1762:1787   */\n          swap2\n          pop\n            /* \"#utility.yul\":1801:1821   */\n          tag_44\n            /* \"#utility.yul\":1819:1820   */\n          dup4\n            /* \"#utility.yul\":1801:1821   */\n          tag_17\n          jump\t// in\n        tag_44:\n            /* \"#utility.yul\":1796:1821   */\n          swap3\n          pop\n            /* \"#utility.yul\":1844:1845   */\n          dup3\n            /* \"#utility.yul\":1841:1842   */\n          dup3\n            /* \"#utility.yul\":1837:1846   */\n          add\n            /* \"#utility.yul\":1830:1846   */\n          swap1\n          pop\n            /* \"#utility.yul\":1865:1868   */\n          dup1\n            /* \"#utility.yul\":1862:1863   */\n          dup3\n            /* \"#utility.yul\":1859:1869   */\n          gt\n            /* \"#utility.yul\":1856:1892   */\n          iszero\n          tag_45\n          jumpi\n            /* \"#utility.yul\":1872:1890   */\n          tag_46\n          tag_21\n          jump\t// in\n        tag_46:\n            /* \"#utility.yul\":1856:1892   */\n        tag_45:\n            /* \"#utility.yul\":1708:1899   */\n          swap3\n          swap2\n          pop\n          pop\n          jump\t// out\n\n        auxdata: 0xa264697066735822122076b3da41c8a277af513ce40396a8b65459b9dbfde21eea715ad13e8be78edd4864736f6c63430008120033\n    }\n}\n\nsub_2: assembly {\n        /* \"contracts/230523/d/dd.sol\":61:185  contract D_Contract {... */\n      mstore(0x40, 0x80)\n      callvalue\n      dup1\n      iszero\n      tag_1\n      jumpi\n      0x00\n      dup1\n      revert\n    tag_1:\n      pop\n      dataSize(sub_0)\n      dup1\n      dataOffset(sub_0)\n      0x00\n      codecopy\n      0x00\n      return\n    stop\n\n    sub_0: assembly {\n            /* \"contracts/230523/d/dd.sol\":61:185  contract D_Contract {... */\n          mstore(0x40, 0x80)\n          callvalue\n          dup1\n          iszero\n          tag_1\n          jumpi\n          0x00\n          dup1\n          revert\n        tag_1:\n          pop\n          jumpi(tag_2, lt(calldatasize, 0x04))\n          shr(0xe0, calldataload(0x00))\n          dup1\n          0x561a822e\n          eq\n          tag_3\n          jumpi\n        tag_2:\n          0x00\n          dup1\n          revert\n            /* \"contracts/230523/d/dd.sol\":88:182  function multiplay(uint _a, uint _b) public pure returns(uint) {... */\n        tag_3:\n          tag_4\n          0x04\n          dup1\n          calldatasize\n          sub\n          dup2\n          add\n          swap1\n          tag_5\n          swap2\n          swap1\n          tag_6\n          jump\t// in\n        tag_5:\n          tag_7\n          jump\t// in\n        tag_4:\n          mload(0x40)\n          tag_8\n          swap2\n          swap1\n          tag_9\n          jump\t// in\n        tag_8:\n          mload(0x40)\n          dup1\n          swap2\n          sub\n          swap1\n          return\n        tag_7:\n            /* \"contracts/230523/d/dd.sol\":145:149  uint */\n          0x00\n            /* \"contracts/230523/d/dd.sol\":172:174  _b */\n          dup2\n            /* \"contracts/230523/d/dd.sol\":169:171  _a */\n          dup4\n            /* \"contracts/230523/d/dd.sol\":169:174  _a*_b */\n          tag_11\n          swap2\n          swap1\n          tag_12\n          jump\t// in\n        tag_11:\n            /* \"contracts/230523/d/dd.sol\":162:174  return _a*_b */\n          swap1\n          pop\n            /* \"contracts/230523/d/dd.sol\":88:182  function multiplay(uint _a, uint _b) public pure returns(uint) {... */\n          swap3\n          swap2\n          pop\n          pop\n          jump\t// out\n            /* \"#utility.yul\":88:205   */\n        tag_14:\n            /* \"#utility.yul\":197:198   */\n          0x00\n            /* \"#utility.yul\":194:195   */\n          dup1\n            /* \"#utility.yul\":187:199   */\n          revert\n            /* \"#utility.yul\":334:411   */\n        tag_16:\n            /* \"#utility.yul\":371:378   */\n          0x00\n            /* \"#utility.yul\":400:405   */\n          dup2\n            /* \"#utility.yul\":389:405   */\n          swap1\n          pop\n            /* \"#utility.yul\":334:411   */\n          swap2\n          swap1\n          pop\n          jump\t// out\n            /* \"#utility.yul\":417:539   */\n        tag_17:\n            /* \"#utility.yul\":490:514   */\n          tag_27\n            /* \"#utility.yul\":508:513   */\n          dup2\n            /* \"#utility.yul\":490:514   */\n          tag_16\n          jump\t// in\n        tag_27:\n            /* \"#utility.yul\":483:488   */\n          dup2\n            /* \"#utility.yul\":480:515   */\n          eq\n            /* \"#utility.yul\":470:533   */\n          tag_28\n          jumpi\n            /* \"#utility.yul\":529:530   */\n          0x00\n            /* \"#utility.yul\":526:527   */\n          dup1\n            /* \"#utility.yul\":519:531   */\n          revert\n            /* \"#utility.yul\":470:533   */\n        tag_28:\n            /* \"#utility.yul\":417:539   */\n          pop\n          jump\t// out\n            /* \"#utility.yul\":545:684   */\n        tag_18:\n            /* \"#utility.yul\":591:596   */\n          0x00\n            /* \"#utility.yul\":629:635   */\n          dup2\n            /* \"#utility.yul\":616:636   */\n          calldataload\n            /* \"#utility.yul\":607:636   */\n          swap1\n          pop\n            /* \"#utility.yul\":645:678   */\n          tag_30\n            /* \"#utility.yul\":672:677   */\n          dup2\n            /* \"#utility.yul\":645:678   */\n          tag_17\n          jump\t// in\n        tag_30:\n            /* \"#utility.yul\":545:684   */\n          swap3\n          swap2\n          pop\n          pop\n          jump\t// out\n            /* \"#utility.yul\":690:1164   */\n        tag_6:\n            /* \"#utility.yul\":758:764   */\n          0x00\n            /* \"#utility.yul\":766:772   */\n          dup1\n            /* \"#utility.yul\":815:817   */\n          0x40\n            /* \"#utility.yul\":803:812   */\n          dup4\n            /* \"#utility.yul\":794:801   */\n          dup6\n            /* \"#utility.yul\":790:813   */\n          sub\n            /* \"#utility.yul\":786:818   */\n          slt\n            /* \"#utility.yul\":783:902   */\n          iszero\n          tag_32\n          jumpi\n            /* \"#utility.yul\":821:900   */\n          tag_33\n          tag_14\n          jump\t// in\n        tag_33:\n            /* \"#utility.yul\":783:902   */\n        tag_32:\n            /* \"#utility.yul\":941:942   */\n          0x00\n            /* \"#utility.yul\":966:1019   */\n          tag_34\n            /* \"#utility.yul\":1011:1018   */\n          dup6\n            /* \"#utility.yul\":1002:1008   */\n          dup3\n            /* \"#utility.yul\":991:1000   */\n          dup7\n            /* \"#utility.yul\":987:1009   */\n          add\n            /* \"#utility.yul\":966:1019   */\n          tag_18\n          jump\t// in\n        tag_34:\n            /* \"#utility.yul\":956:1019   */\n          swap3\n          pop\n            /* \"#utility.yul\":912:1029   */\n          pop\n            /* \"#utility.yul\":1068:1070   */\n          0x20\n            /* \"#utility.yul\":1094:1147   */\n          tag_35\n            /* \"#utility.yul\":1139:1146   */\n          dup6\n            /* \"#utility.yul\":1130:1136   */\n          dup3\n            /* \"#utility.yul\":1119:1128   */\n          dup7\n            /* \"#utility.yul\":1115:1137   */\n          add\n            /* \"#utility.yul\":1094:1147   */\n          tag_18\n          jump\t// in\n        tag_35:\n            /* \"#utility.yul\":1084:1147   */\n          swap2\n          pop\n            /* \"#utility.yul\":1039:1157   */\n          pop\n            /* \"#utility.yul\":690:1164   */\n          swap3\n          pop\n          swap3\n          swap1\n          pop\n          jump\t// out\n            /* \"#utility.yul\":1170:1288   */\n        tag_19:\n            /* \"#utility.yul\":1257:1281   */\n          tag_37\n            /* \"#utility.yul\":1275:1280   */\n          dup2\n            /* \"#utility.yul\":1257:1281   */\n          tag_16\n          jump\t// in\n        tag_37:\n            /* \"#utility.yul\":1252:1255   */\n          dup3\n            /* \"#utility.yul\":1245:1282   */\n          mstore\n            /* \"#utility.yul\":1170:1288   */\n          pop\n          pop\n          jump\t// out\n            /* \"#utility.yul\":1294:1516   */\n        tag_9:\n            /* \"#utility.yul\":1387:1391   */\n          0x00\n            /* \"#utility.yul\":1425:1427   */\n          0x20\n            /* \"#utility.yul\":1414:1423   */\n          dup3\n            /* \"#utility.yul\":1410:1428   */\n          add\n            /* \"#utility.yul\":1402:1428   */\n          swap1\n          pop\n            /* \"#utility.yul\":1438:1509   */\n          tag_39\n            /* \"#utility.yul\":1506:1507   */\n          0x00\n            /* \"#utility.yul\":1495:1504   */\n          dup4\n            /* \"#utility.yul\":1491:1508   */\n          add\n            /* \"#utility.yul\":1482:1488   */\n          dup5\n            /* \"#utility.yul\":1438:1509   */\n          tag_19\n          jump\t// in\n        tag_39:\n            /* \"#utility.yul\":1294:1516   */\n          swap3\n          swap2\n          pop\n          pop\n          jump\t// out\n            /* \"#utility.yul\":1522:1702   */\n        tag_20:\n            /* \"#utility.yul\":1570:1647   */\n          0x4e487b7100000000000000000000000000000000000000000000000000000000\n            /* \"#utility.yul\":1567:1568   */\n          0x00\n            /* \"#utility.yul\":1560:1648   */\n          mstore\n            /* \"#utility.yul\":1667:1671   */\n          0x11\n            /* \"#utility.yul\":1664:1665   */\n          0x04\n            /* \"#utility.yul\":1657:1672   */\n          mstore\n            /* \"#utility.yul\":1691:1695   */\n          0x24\n            /* \"#utility.yul\":1688:1689   */\n          0x00\n            /* \"#utility.yul\":1681:1696   */\n          revert\n            /* \"#utility.yul\":1708:2118   */\n        tag_12:\n            /* \"#utility.yul\":1748:1755   */\n          0x00\n            /* \"#utility.yul\":1771:1791   */\n          tag_42\n            /* \"#utility.yul\":1789:1790   */\n          dup3\n            /* \"#utility.yul\":1771:1791   */\n          tag_16\n          jump\t// in\n        tag_42:\n            /* \"#utility.yul\":1766:1791   */\n          swap2\n          pop\n            /* \"#utility.yul\":1805:1825   */\n          tag_43\n            /* \"#utility.yul\":1823:1824   */\n          dup4\n            /* \"#utility.yul\":1805:1825   */\n          tag_16\n          jump\t// in\n        tag_43:\n            /* \"#utility.yul\":1800:1825   */\n          swap3\n          pop\n            /* \"#utility.yul\":1860:1861   */\n          dup3\n            /* \"#utility.yul\":1857:1858   */\n          dup3\n            /* \"#utility.yul\":1853:1862   */\n          mul\n            /* \"#utility.yul\":1882:1912   */\n          tag_44\n            /* \"#utility.yul\":1900:1911   */\n          dup2\n            /* \"#utility.yul\":1882:1912   */\n          tag_16\n          jump\t// in\n        tag_44:\n            /* \"#utility.yul\":1871:1912   */\n          swap2\n          pop\n            /* \"#utility.yul\":2061:2062   */\n          dup3\n            /* \"#utility.yul\":2052:2059   */\n          dup3\n            /* \"#utility.yul\":2048:2063   */\n          div\n            /* \"#utility.yul\":2045:2046   */\n          dup5\n            /* \"#utility.yul\":2042:2064   */\n          eq\n            /* \"#utility.yul\":2022:2023   */\n          dup4\n            /* \"#utility.yul\":2015:2024   */\n          iszero\n            /* \"#utility.yul\":1995:2078   */\n          or\n            /* \"#utility.yul\":1972:2111   */\n          tag_45\n          jumpi\n            /* \"#utility.yul\":2091:2109   */\n          tag_46\n          tag_20\n          jump\t// in\n        tag_46:\n            /* \"#utility.yul\":1972:2111   */\n        tag_45:\n            /* \"#utility.yul\":1756:2118   */\n          pop\n            /* \"#utility.yul\":1708:2118   */\n          swap3\n          swap2\n          pop\n          pop\n          jump\t// out\n\n        auxdata: 0xa2646970667358221220946c1bce5b4f3b5bea8c9959b8365ecce9c417f10f4dc0783b86f6f21a2617a164736f6c63430008120033\n    }\n}\n",
				"bytecode": {
					"linkReferences": {},
					"object": "6080604052604051610010906100e7565b604051809103906000f08015801561002c573d6000803e3d6000fd5b506000806101000a81548173ffffffffffffffffffffffffffffffffffffffff021916908373ffffffffffffffffffffffffffffffffffffffff160217905550604051610078906100f4565b604051809103906000f080158015610094573d6000803e3d6000fd5b50600160006101000a81548173ffffffffffffffffffffffffffffffffffffffff021916908373ffffffffffffffffffffffffffffffffffffffff1602179055503480156100e157600080fd5b50610101565b6101df8061044083390190565b6101e28061061f83390190565b610330806101106000396000f3fe608060405234801561001057600080fd5b50600436106100365760003560e01c80635171762c1461003b578063771602f71461006b575b600080fd5b61005560048036038101906100509190610225565b61009b565b6040516100629190610274565b60405180910390f35b61008560048036038101906100809190610225565b610143565b6040516100929190610274565b60405180910390f35b6000600160009054906101000a900473ffffffffffffffffffffffffffffffffffffffff1673ffffffffffffffffffffffffffffffffffffffff1663561a822e84846040518363ffffffff1660e01b81526004016100fa92919061028f565b602060405180830381865afa158015610117573d6000803e3d6000fd5b505050506040513d601f19601f8201168201806040525081019061013b91906102cd565b905092915050565b60008060009054906101000a900473ffffffffffffffffffffffffffffffffffffffff1673ffffffffffffffffffffffffffffffffffffffff1663771602f784846040518363ffffffff1660e01b81526004016101a192919061028f565b602060405180830381865afa1580156101be573d6000803e3d6000fd5b505050506040513d601f19601f820116820180604052508101906101e291906102cd565b905092915050565b600080fd5b6000819050919050565b610202816101ef565b811461020d57600080fd5b50565b60008135905061021f816101f9565b92915050565b6000806040838503121561023c5761023b6101ea565b5b600061024a85828601610210565b925050602061025b85828601610210565b9150509250929050565b61026e816101ef565b82525050565b60006020820190506102896000830184610265565b92915050565b60006040820190506102a46000830185610265565b6102b16020830184610265565b9392505050565b6000815190506102c7816101f9565b92915050565b6000602082840312156102e3576102e26101ea565b5b60006102f1848285016102b8565b9150509291505056fea26469706673582212205971eafb46849624bc06f81841d7c8c9cd67814f5d1566c9faa4137cac53a54d64736f6c63430008120033608060405234801561001057600080fd5b506101bf806100206000396000f3fe608060405234801561001057600080fd5b506004361061002b5760003560e01c8063771602f714610030575b600080fd5b61004a600480360381019061004591906100bc565b610060565b604051610057919061010b565b60405180910390f35b600081838461006f9190610155565b6100799190610155565b905092915050565b600080fd5b6000819050919050565b61009981610086565b81146100a457600080fd5b50565b6000813590506100b681610090565b92915050565b600080604083850312156100d3576100d2610081565b5b60006100e1858286016100a7565b92505060206100f2858286016100a7565b9150509250929050565b61010581610086565b82525050565b600060208201905061012060008301846100fc565b92915050565b7f4e487b7100000000000000000000000000000000000000000000000000000000600052601160045260246000fd5b600061016082610086565b915061016b83610086565b925082820190508082111561018357610182610126565b5b9291505056fea264697066735822122076b3da41c8a277af513ce40396a8b65459b9dbfde21eea715ad13e8be78edd4864736f6c63430008120033608060405234801561001057600080fd5b506101c2806100206000396000f3fe608060405234801561001057600080fd5b506004361061002b5760003560e01c8063561a822e14610030575b600080fd5b61004a600480360381019061004591906100b1565b610060565b6040516100579190610100565b60405180910390f35b6000818361006e919061014a565b905092915050565b600080fd5b6000819050919050565b61008e8161007b565b811461009957600080fd5b50565b6000813590506100ab81610085565b92915050565b600080604083850312156100c8576100c7610076565b5b60006100d68582860161009c565b92505060206100e78582860161009c565b9150509250929050565b6100fa8161007b565b82525050565b600060208201905061011560008301846100f1565b92915050565b7f4e487b7100000000000000000000000000000000000000000000000000000000600052601160045260246000fd5b60006101558261007b565b91506101608361007b565b925082820261016e8161007b565b915082820484148315176101855761018461011b565b5b509291505056fea2646970667358221220946c1bce5b4f3b5bea8c9959b8365ecce9c417f10f4dc0783b86f6f21a2617a164736f6c63430008120033",
					"opcodes": "PUSH1 0x80 PUSH1 0x40 MSTORE PUSH1 0x40 MLOAD PUSH2 0x10 SWAP1 PUSH2 0xE7 JUMP JUMPDEST PUSH1 0x40 MLOAD DUP1 SWAP2 SUB SWAP1 PUSH1 0x0 CREATE DUP1 ISZERO DUP1 ISZERO PUSH2 0x2C JUMPI RETURNDATASIZE PUSH1 0x0 DUP1 RETURNDATACOPY RETURNDATASIZE PUSH1 0x0 REVERT JUMPDEST POP PUSH1 0x0 DUP1 PUSH2 0x100 EXP DUP2 SLOAD DUP2 PUSH20 0xFFFFFFFFFFFFFFFFFFFFFFFFFFFFFFFFFFFFFFFF MUL NOT AND SWAP1 DUP4 PUSH20 0xFFFFFFFFFFFFFFFFFFFFFFFFFFFFFFFFFFFFFFFF AND MUL OR SWAP1 SSTORE POP PUSH1 0x40 MLOAD PUSH2 0x78 SWAP1 PUSH2 0xF4 JUMP JUMPDEST PUSH1 0x40 MLOAD DUP1 SWAP2 SUB SWAP1 PUSH1 0x0 CREATE DUP1 ISZERO DUP1 ISZERO PUSH2 0x94 JUMPI RETURNDATASIZE PUSH1 0x0 DUP1 RETURNDATACOPY RETURNDATASIZE PUSH1 0x0 REVERT JUMPDEST POP PUSH1 0x1 PUSH1 0x0 PUSH2 0x100 EXP DUP2 SLOAD DUP2 PUSH20 0xFFFFFFFFFFFFFFFFFFFFFFFFFFFFFFFFFFFFFFFF MUL NOT AND SWAP1 DUP4 PUSH20 0xFFFFFFFFFFFFFFFFFFFFFFFFFFFFFFFFFFFFFFFF AND MUL OR SWAP1 SSTORE POP CALLVALUE DUP1 ISZERO PUSH2 0xE1 JUMPI PUSH1 0x0 DUP1 REVERT JUMPDEST POP PUSH2 0x101 JUMP JUMPDEST PUSH2 0x1DF DUP1 PUSH2 0x440 DUP4 CODECOPY ADD SWAP1 JUMP JUMPDEST PUSH2 0x1E2 DUP1 PUSH2 0x61F DUP4 CODECOPY ADD SWAP1 JUMP JUMPDEST PUSH2 0x330 DUP1 PUSH2 0x110 PUSH1 0x0 CODECOPY PUSH1 0x0 RETURN INVALID PUSH1 0x80 PUSH1 0x40 MSTORE CALLVALUE DUP1 ISZERO PUSH2 0x10 JUMPI PUSH1 0x0 DUP1 REVERT JUMPDEST POP PUSH1 0x4 CALLDATASIZE LT PUSH2 0x36 JUMPI PUSH1 0x0 CALLDATALOAD PUSH1 0xE0 SHR DUP1 PUSH4 0x5171762C EQ PUSH2 0x3B JUMPI DUP1 PUSH4 0x771602F7 EQ PUSH2 0x6B JUMPI JUMPDEST PUSH1 0x0 DUP1 REVERT JUMPDEST PUSH2 0x55 PUSH1 0x4 DUP1 CALLDATASIZE SUB DUP2 ADD SWAP1 PUSH2 0x50 SWAP2 SWAP1 PUSH2 0x225 JUMP JUMPDEST PUSH2 0x9B JUMP JUMPDEST PUSH1 0x40 MLOAD PUSH2 0x62 SWAP2 SWAP1 PUSH2 0x274 JUMP JUMPDEST PUSH1 0x40 MLOAD DUP1 SWAP2 SUB SWAP1 RETURN JUMPDEST PUSH2 0x85 PUSH1 0x4 DUP1 CALLDATASIZE SUB DUP2 ADD SWAP1 PUSH2 0x80 SWAP2 SWAP1 PUSH2 0x225 JUMP JUMPDEST PUSH2 0x143 JUMP JUMPDEST PUSH1 0x40 MLOAD PUSH2 0x92 SWAP2 SWAP1 PUSH2 0x274 JUMP JUMPDEST PUSH1 0x40 MLOAD DUP1 SWAP2 SUB SWAP1 RETURN JUMPDEST PUSH1 0x0 PUSH1 0x1 PUSH1 0x0 SWAP1 SLOAD SWAP1 PUSH2 0x100 EXP SWAP1 DIV PUSH20 0xFFFFFFFFFFFFFFFFFFFFFFFFFFFFFFFFFFFFFFFF AND PUSH20 0xFFFFFFFFFFFFFFFFFFFFFFFFFFFFFFFFFFFFFFFF AND PUSH4 0x561A822E DUP5 DUP5 PUSH1 0x40 MLOAD DUP4 PUSH4 0xFFFFFFFF AND PUSH1 0xE0 SHL DUP2 MSTORE PUSH1 0x4 ADD PUSH2 0xFA SWAP3 SWAP2 SWAP1 PUSH2 0x28F JUMP JUMPDEST PUSH1 0x20 PUSH1 0x40 MLOAD DUP1 DUP4 SUB DUP2 DUP7 GAS STATICCALL ISZERO DUP1 ISZERO PUSH2 0x117 JUMPI RETURNDATASIZE PUSH1 0x0 DUP1 RETURNDATACOPY RETURNDATASIZE PUSH1 0x0 REVERT JUMPDEST POP POP POP POP PUSH1 0x40 MLOAD RETURNDATASIZE PUSH1 0x1F NOT PUSH1 0x1F DUP3 ADD AND DUP3 ADD DUP1 PUSH1 0x40 MSTORE POP DUP2 ADD SWAP1 PUSH2 0x13B SWAP2 SWAP1 PUSH2 0x2CD JUMP JUMPDEST SWAP1 POP SWAP3 SWAP2 POP POP JUMP JUMPDEST PUSH1 0x0 DUP1 PUSH1 0x0 SWAP1 SLOAD SWAP1 PUSH2 0x100 EXP SWAP1 DIV PUSH20 0xFFFFFFFFFFFFFFFFFFFFFFFFFFFFFFFFFFFFFFFF AND PUSH20 0xFFFFFFFFFFFFFFFFFFFFFFFFFFFFFFFFFFFFFFFF AND PUSH4 0x771602F7 DUP5 DUP5 PUSH1 0x40 MLOAD DUP4 PUSH4 0xFFFFFFFF AND PUSH1 0xE0 SHL DUP2 MSTORE PUSH1 0x4 ADD PUSH2 0x1A1 SWAP3 SWAP2 SWAP1 PUSH2 0x28F JUMP JUMPDEST PUSH1 0x20 PUSH1 0x40 MLOAD DUP1 DUP4 SUB DUP2 DUP7 GAS STATICCALL ISZERO DUP1 ISZERO PUSH2 0x1BE JUMPI RETURNDATASIZE PUSH1 0x0 DUP1 RETURNDATACOPY RETURNDATASIZE PUSH1 0x0 REVERT JUMPDEST POP POP POP POP PUSH1 0x40 MLOAD RETURNDATASIZE PUSH1 0x1F NOT PUSH1 0x1F DUP3 ADD AND DUP3 ADD DUP1 PUSH1 0x40 MSTORE POP DUP2 ADD SWAP1 PUSH2 0x1E2 SWAP2 SWAP1 PUSH2 0x2CD JUMP JUMPDEST SWAP1 POP SWAP3 SWAP2 POP POP JUMP JUMPDEST PUSH1 0x0 DUP1 REVERT JUMPDEST PUSH1 0x0 DUP2 SWAP1 POP SWAP2 SWAP1 POP JUMP JUMPDEST PUSH2 0x202 DUP2 PUSH2 0x1EF JUMP JUMPDEST DUP2 EQ PUSH2 0x20D JUMPI PUSH1 0x0 DUP1 REVERT JUMPDEST POP JUMP JUMPDEST PUSH1 0x0 DUP2 CALLDATALOAD SWAP1 POP PUSH2 0x21F DUP2 PUSH2 0x1F9 JUMP JUMPDEST SWAP3 SWAP2 POP POP JUMP JUMPDEST PUSH1 0x0 DUP1 PUSH1 0x40 DUP4 DUP6 SUB SLT ISZERO PUSH2 0x23C JUMPI PUSH2 0x23B PUSH2 0x1EA JUMP JUMPDEST JUMPDEST PUSH1 0x0 PUSH2 0x24A DUP6 DUP3 DUP7 ADD PUSH2 0x210 JUMP JUMPDEST SWAP3 POP POP PUSH1 0x20 PUSH2 0x25B DUP6 DUP3 DUP7 ADD PUSH2 0x210 JUMP JUMPDEST SWAP2 POP POP SWAP3 POP SWAP3 SWAP1 POP JUMP JUMPDEST PUSH2 0x26E DUP2 PUSH2 0x1EF JUMP JUMPDEST DUP3 MSTORE POP POP JUMP JUMPDEST PUSH1 0x0 PUSH1 0x20 DUP3 ADD SWAP1 POP PUSH2 0x289 PUSH1 0x0 DUP4 ADD DUP5 PUSH2 0x265 JUMP JUMPDEST SWAP3 SWAP2 POP POP JUMP JUMPDEST PUSH1 0x0 PUSH1 0x40 DUP3 ADD SWAP1 POP PUSH2 0x2A4 PUSH1 0x0 DUP4 ADD DUP6 PUSH2 0x265 JUMP JUMPDEST PUSH2 0x2B1 PUSH1 0x20 DUP4 ADD DUP5 PUSH2 0x265 JUMP JUMPDEST SWAP4 SWAP3 POP POP POP JUMP JUMPDEST PUSH1 0x0 DUP2 MLOAD SWAP1 POP PUSH2 0x2C7 DUP2 PUSH2 0x1F9 JUMP JUMPDEST SWAP3 SWAP2 POP POP JUMP JUMPDEST PUSH1 0x0 PUSH1 0x20 DUP3 DUP5 SUB SLT ISZERO PUSH2 0x2E3 JUMPI PUSH2 0x2E2 PUSH2 0x1EA JUMP JUMPDEST JUMPDEST PUSH1 0x0 PUSH2 0x2F1 DUP5 DUP3 DUP6 ADD PUSH2 0x2B8 JUMP JUMPDEST SWAP2 POP POP SWAP3 SWAP2 POP POP JUMP INVALID LOG2 PUSH5 0x6970667358 0x22 SLT KECCAK256 MSIZE PUSH18 0xEAFB46849624BC06F81841D7C8C9CD67814F 0x5D ISZERO PUSH7 0xC9FAA4137CAC53 0xA5 0x4D PUSH5 0x736F6C6343 STOP ADDMOD SLT STOP CALLER PUSH1 0x80 PUSH1 0x40 MSTORE CALLVALUE DUP1 ISZERO PUSH2 0x10 JUMPI PUSH1 0x0 DUP1 REVERT JUMPDEST POP PUSH2 0x1BF DUP1 PUSH2 0x20 PUSH1 0x0 CODECOPY PUSH1 0x0 RETURN INVALID PUSH1 0x80 PUSH1 0x40 MSTORE CALLVALUE DUP1 ISZERO PUSH2 0x10 JUMPI PUSH1 0x0 DUP1 REVERT JUMPDEST POP PUSH1 0x4 CALLDATASIZE LT PUSH2 0x2B JUMPI PUSH1 0x0 CALLDATALOAD PUSH1 0xE0 SHR DUP1 PUSH4 0x771602F7 EQ PUSH2 0x30 JUMPI JUMPDEST PUSH1 0x0 DUP1 REVERT JUMPDEST PUSH2 0x4A PUSH1 0x4 DUP1 CALLDATASIZE SUB DUP2 ADD SWAP1 PUSH2 0x45 SWAP2 SWAP1 PUSH2 0xBC JUMP JUMPDEST PUSH2 0x60 JUMP JUMPDEST PUSH1 0x40 MLOAD PUSH2 0x57 SWAP2 SWAP1 PUSH2 0x10B JUMP JUMPDEST PUSH1 0x40 MLOAD DUP1 SWAP2 SUB SWAP1 RETURN JUMPDEST PUSH1 0x0 DUP2 DUP4 DUP5 PUSH2 0x6F SWAP2 SWAP1 PUSH2 0x155 JUMP JUMPDEST PUSH2 0x79 SWAP2 SWAP1 PUSH2 0x155 JUMP JUMPDEST SWAP1 POP SWAP3 SWAP2 POP POP JUMP JUMPDEST PUSH1 0x0 DUP1 REVERT JUMPDEST PUSH1 0x0 DUP2 SWAP1 POP SWAP2 SWAP1 POP JUMP JUMPDEST PUSH2 0x99 DUP2 PUSH2 0x86 JUMP JUMPDEST DUP2 EQ PUSH2 0xA4 JUMPI PUSH1 0x0 DUP1 REVERT JUMPDEST POP JUMP JUMPDEST PUSH1 0x0 DUP2 CALLDATALOAD SWAP1 POP PUSH2 0xB6 DUP2 PUSH2 0x90 JUMP JUMPDEST SWAP3 SWAP2 POP POP JUMP JUMPDEST PUSH1 0x0 DUP1 PUSH1 0x40 DUP4 DUP6 SUB SLT ISZERO PUSH2 0xD3 JUMPI PUSH2 0xD2 PUSH2 0x81 JUMP JUMPDEST JUMPDEST PUSH1 0x0 PUSH2 0xE1 DUP6 DUP3 DUP7 ADD PUSH2 0xA7 JUMP JUMPDEST SWAP3 POP POP PUSH1 0x20 PUSH2 0xF2 DUP6 DUP3 DUP7 ADD PUSH2 0xA7 JUMP JUMPDEST SWAP2 POP POP SWAP3 POP SWAP3 SWAP1 POP JUMP JUMPDEST PUSH2 0x105 DUP2 PUSH2 0x86 JUMP JUMPDEST DUP3 MSTORE POP POP JUMP JUMPDEST PUSH1 0x0 PUSH1 0x20 DUP3 ADD SWAP1 POP PUSH2 0x120 PUSH1 0x0 DUP4 ADD DUP5 PUSH2 0xFC JUMP JUMPDEST SWAP3 SWAP2 POP POP JUMP JUMPDEST PUSH32 0x4E487B7100000000000000000000000000000000000000000000000000000000 PUSH1 0x0 MSTORE PUSH1 0x11 PUSH1 0x4 MSTORE PUSH1 0x24 PUSH1 0x0 REVERT JUMPDEST PUSH1 0x0 PUSH2 0x160 DUP3 PUSH2 0x86 JUMP JUMPDEST SWAP2 POP PUSH2 0x16B DUP4 PUSH2 0x86 JUMP JUMPDEST SWAP3 POP DUP3 DUP3 ADD SWAP1 POP DUP1 DUP3 GT ISZERO PUSH2 0x183 JUMPI PUSH2 0x182 PUSH2 0x126 JUMP JUMPDEST JUMPDEST SWAP3 SWAP2 POP POP JUMP INVALID LOG2 PUSH5 0x6970667358 0x22 SLT KECCAK256 PUSH23 0xB3DA41C8A277AF513CE40396A8B65459B9DBFDE21EEA71 GAS 0xD1 RETURNDATACOPY DUP12 0xE7 DUP15 0xDD BASEFEE PUSH5 0x736F6C6343 STOP ADDMOD SLT STOP CALLER PUSH1 0x80 PUSH1 0x40 MSTORE CALLVALUE DUP1 ISZERO PUSH2 0x10 JUMPI PUSH1 0x0 DUP1 REVERT JUMPDEST POP PUSH2 0x1C2 DUP1 PUSH2 0x20 PUSH1 0x0 CODECOPY PUSH1 0x0 RETURN INVALID PUSH1 0x80 PUSH1 0x40 MSTORE CALLVALUE DUP1 ISZERO PUSH2 0x10 JUMPI PUSH1 0x0 DUP1 REVERT JUMPDEST POP PUSH1 0x4 CALLDATASIZE LT PUSH2 0x2B JUMPI PUSH1 0x0 CALLDATALOAD PUSH1 0xE0 SHR DUP1 PUSH4 0x561A822E EQ PUSH2 0x30 JUMPI JUMPDEST PUSH1 0x0 DUP1 REVERT JUMPDEST PUSH2 0x4A PUSH1 0x4 DUP1 CALLDATASIZE SUB DUP2 ADD SWAP1 PUSH2 0x45 SWAP2 SWAP1 PUSH2 0xB1 JUMP JUMPDEST PUSH2 0x60 JUMP JUMPDEST PUSH1 0x40 MLOAD PUSH2 0x57 SWAP2 SWAP1 PUSH2 0x100 JUMP JUMPDEST PUSH1 0x40 MLOAD DUP1 SWAP2 SUB SWAP1 RETURN JUMPDEST PUSH1 0x0 DUP2 DUP4 PUSH2 0x6E SWAP2 SWAP1 PUSH2 0x14A JUMP JUMPDEST SWAP1 POP SWAP3 SWAP2 POP POP JUMP JUMPDEST PUSH1 0x0 DUP1 REVERT JUMPDEST PUSH1 0x0 DUP2 SWAP1 POP SWAP2 SWAP1 POP JUMP JUMPDEST PUSH2 0x8E DUP2 PUSH2 0x7B JUMP JUMPDEST DUP2 EQ PUSH2 0x99 JUMPI PUSH1 0x0 DUP1 REVERT JUMPDEST POP JUMP JUMPDEST PUSH1 0x0 DUP2 CALLDATALOAD SWAP1 POP PUSH2 0xAB DUP2 PUSH2 0x85 JUMP JUMPDEST SWAP3 SWAP2 POP POP JUMP JUMPDEST PUSH1 0x0 DUP1 PUSH1 0x40 DUP4 DUP6 SUB SLT ISZERO PUSH2 0xC8 JUMPI PUSH2 0xC7 PUSH2 0x76 JUMP JUMPDEST JUMPDEST PUSH1 0x0 PUSH2 0xD6 DUP6 DUP3 DUP7 ADD PUSH2 0x9C JUMP JUMPDEST SWAP3 POP POP PUSH1 0x20 PUSH2 0xE7 DUP6 DUP3 DUP7 ADD PUSH2 0x9C JUMP JUMPDEST SWAP2 POP POP SWAP3 POP SWAP3 SWAP1 POP JUMP JUMPDEST PUSH2 0xFA DUP2 PUSH2 0x7B JUMP JUMPDEST DUP3 MSTORE POP POP JUMP JUMPDEST PUSH1 0x0 PUSH1 0x20 DUP3 ADD SWAP1 POP PUSH2 0x115 PUSH1 0x0 DUP4 ADD DUP5 PUSH2 0xF1 JUMP JUMPDEST SWAP3 SWAP2 POP POP JUMP JUMPDEST PUSH32 0x4E487B7100000000000000000000000000000000000000000000000000000000 PUSH1 0x0 MSTORE PUSH1 0x11 PUSH1 0x4 MSTORE PUSH1 0x24 PUSH1 0x0 REVERT JUMPDEST PUSH1 0x0 PUSH2 0x155 DUP3 PUSH2 0x7B JUMP JUMPDEST SWAP2 POP PUSH2 0x160 DUP4 PUSH2 0x7B JUMP JUMPDEST SWAP3 POP DUP3 DUP3 MUL PUSH2 0x16E DUP2 PUSH2 0x7B JUMP JUMPDEST SWAP2 POP DUP3 DUP3 DIV DUP5 EQ DUP4 ISZERO OR PUSH2 0x185 JUMPI PUSH2 0x184 PUSH2 0x11B JUMP JUMPDEST JUMPDEST POP SWAP3 SWAP2 POP POP JUMP INVALID LOG2 PUSH5 0x6970667358 0x22 SLT KECCAK256 SWAP5 PUSH13 0x1BCE5B4F3B5BEA8C9959B8365E 0xCC 0xE9 0xC4 OR CALL 0xF 0x4D 0xC0 PUSH25 0x3B86F6F21A2617A164736F6C63430008120033000000000000 "
				},
				"gasEstimates": {
					"creation": {
						"codeDepositCost": "163200",
						"executionCost": "infinite",
						"totalCost": "infinite"
					},
					"external": {
						"add(uint256,uint256)": "infinite",
						"multi(uint256,uint256)": "infinite"
					}
				},
				"methodIdentifiers": {
					"add(uint256,uint256)": "771602f7",
					"multi(uint256,uint256)": "5171762c"
				}
			},
			"storageLayout": {
				"storage": [
					{
						"astId": 10,
						"contract": "contracts/230523/a.sol:A",
						"label": "b_con",
						"offset": 0,
						"slot": "0",
						"type": "t_contract(B_SmartContract)70"
					},
					{
						"astId": 17,
						"contract": "contracts/230523/a.sol:A",
						"label": "d_con",
						"offset": 0,
						"slot": "1",
						"type": "t_contract(D_Contract)87"
					}
				],
				"types": {
					"t_contract(B_SmartContract)70": {
						"encoding": "inplace",
						"label": "contract B_SmartContract",
						"numberOfBytes": "20"
					},
					"t_contract(D_Contract)87": {
						"encoding": "inplace",
						"label": "contract D_Contract",
						"numberOfBytes": "20"
					}
				}
			},
			"userdoc": {
				"kind": "user",
				"methods": {},
				"version": 1
			}
		}
	}
}