{
	"contracts/230523/concat.sol": {
		"Q5": {
			"abi": [
				{
					"inputs": [
						{
							"internalType": "uint256",
							"name": "_n",
							"type": "uint256"
						}
					],
					"name": "divideNumber",
					"outputs": [
						{
							"internalType": "uint256[]",
							"name": "",
							"type": "uint256[]"
						}
					],
					"stateMutability": "pure",
					"type": "function"
				},
				{
					"inputs": [
						{
							"internalType": "uint256",
							"name": "_n",
							"type": "uint256"
						}
					],
					"name": "getLength",
					"outputs": [
						{
							"internalType": "uint256",
							"name": "",
							"type": "uint256"
						}
					],
					"stateMutability": "pure",
					"type": "function"
				}
			],
			"devdoc": {
				"kind": "dev",
				"methods": {},
				"version": 1
			},
			"evm": {
				"assembly": "    /* \"contracts/230523/concat.sol\":1873:2332  contract Q5 {... */\n  mstore(0x40, 0x80)\n  callvalue\n  dup1\n  iszero\n  tag_1\n  jumpi\n  0x00\n  dup1\n  revert\ntag_1:\n  pop\n  dataSize(sub_0)\n  dup1\n  dataOffset(sub_0)\n  0x00\n  codecopy\n  0x00\n  return\nstop\n\nsub_0: assembly {\n        /* \"contracts/230523/concat.sol\":1873:2332  contract Q5 {... */\n      mstore(0x40, 0x80)\n      callvalue\n      dup1\n      iszero\n      tag_1\n      jumpi\n      0x00\n      dup1\n      revert\n    tag_1:\n      pop\n      jumpi(tag_2, lt(calldatasize, 0x04))\n      shr(0xe0, calldataload(0x00))\n      dup1\n      0x0986e647\n      eq\n      tag_3\n      jumpi\n      dup1\n      0x2ac45d9c\n      eq\n      tag_4\n      jumpi\n    tag_2:\n      0x00\n      dup1\n      revert\n        /* \"contracts/230523/concat.sol\":2172:2329  function getLength(uint _n) public pure returns(uint) {... */\n    tag_3:\n      tag_5\n      0x04\n      dup1\n      calldatasize\n      sub\n      dup2\n      add\n      swap1\n      tag_6\n      swap2\n      swap1\n      tag_7\n      jump\t// in\n    tag_6:\n      tag_8\n      jump\t// in\n    tag_5:\n      mload(0x40)\n      tag_9\n      swap2\n      swap1\n      tag_10\n      jump\t// in\n    tag_9:\n      mload(0x40)\n      dup1\n      swap2\n      sub\n      swap1\n      return\n        /* \"contracts/230523/concat.sol\":1892:2164  function divideNumber(uint _n) public pure returns(uint[] memory) {... */\n    tag_4:\n      tag_11\n      0x04\n      dup1\n      calldatasize\n      sub\n      dup2\n      add\n      swap1\n      tag_12\n      swap2\n      swap1\n      tag_7\n      jump\t// in\n    tag_12:\n      tag_13\n      jump\t// in\n    tag_11:\n      mload(0x40)\n      tag_14\n      swap2\n      swap1\n      tag_15\n      jump\t// in\n    tag_14:\n      mload(0x40)\n      dup1\n      swap2\n      sub\n      swap1\n      return\n        /* \"contracts/230523/concat.sol\":2172:2329  function getLength(uint _n) public pure returns(uint) {... */\n    tag_8:\n        /* \"contracts/230523/concat.sol\":2220:2224  uint */\n      0x00\n        /* \"contracts/230523/concat.sol\":2237:2243  uint a */\n      dup1\n        /* \"contracts/230523/concat.sol\":2254:2303  while(_n >= 10**a) {... */\n    tag_17:\n        /* \"contracts/230523/concat.sol\":2270:2271  a */\n      dup1\n        /* \"contracts/230523/concat.sol\":2266:2268  10 */\n      0x0a\n        /* \"contracts/230523/concat.sol\":2266:2271  10**a */\n      tag_19\n      swap2\n      swap1\n      tag_20\n      jump\t// in\n    tag_19:\n        /* \"contracts/230523/concat.sol\":2260:2262  _n */\n      dup4\n        /* \"contracts/230523/concat.sol\":2260:2271  _n >= 10**a */\n      lt\n        /* \"contracts/230523/concat.sol\":2254:2303  while(_n >= 10**a) {... */\n      tag_18\n      jumpi\n        /* \"contracts/230523/concat.sol\":2288:2291  a++ */\n      dup1\n      dup1\n      tag_21\n      swap1\n      tag_22\n      jump\t// in\n    tag_21:\n      swap2\n      pop\n      pop\n        /* \"contracts/230523/concat.sol\":2254:2303  while(_n >= 10**a) {... */\n      jump(tag_17)\n    tag_18:\n        /* \"contracts/230523/concat.sol\":2320:2321  a */\n      dup1\n        /* \"contracts/230523/concat.sol\":2313:2321  return a */\n      swap2\n      pop\n      pop\n        /* \"contracts/230523/concat.sol\":2172:2329  function getLength(uint _n) public pure returns(uint) {... */\n      swap2\n      swap1\n      pop\n      jump\t// out\n        /* \"contracts/230523/concat.sol\":1892:2164  function divideNumber(uint _n) public pure returns(uint[] memory) {... */\n    tag_13:\n        /* \"contracts/230523/concat.sol\":1943:1956  uint[] memory */\n      0x60\n        /* \"contracts/230523/concat.sol\":1969:1984  uint[] memory b */\n      0x00\n        /* \"contracts/230523/concat.sol\":1998:2011  getLength(_n) */\n      tag_24\n        /* \"contracts/230523/concat.sol\":2008:2010  _n */\n      dup4\n        /* \"contracts/230523/concat.sol\":1998:2007  getLength */\n      tag_8\n        /* \"contracts/230523/concat.sol\":1998:2011  getLength(_n) */\n      jump\t// in\n    tag_24:\n        /* \"contracts/230523/concat.sol\":1987:2012  new uint[](getLength(_n)) */\n      0xffffffffffffffff\n      dup2\n      gt\n      iszero\n      tag_25\n      jumpi\n      tag_26\n      tag_27\n      jump\t// in\n    tag_26:\n    tag_25:\n      mload(0x40)\n      swap1\n      dup1\n      dup3\n      mstore\n      dup1\n      0x20\n      mul\n      0x20\n      add\n      dup3\n      add\n      0x40\n      mstore\n      dup1\n      iszero\n      tag_28\n      jumpi\n      dup2\n      0x20\n      add\n      0x20\n      dup3\n      mul\n      dup1\n      calldatasize\n      dup4\n      calldatacopy\n      dup1\n      dup3\n      add\n      swap2\n      pop\n      pop\n      swap1\n      pop\n    tag_28:\n      pop\n        /* \"contracts/230523/concat.sol\":1969:2012  uint[] memory b = new uint[](getLength(_n)) */\n      swap1\n      pop\n        /* \"contracts/230523/concat.sol\":2025:2031  uint i */\n      0x00\n        /* \"contracts/230523/concat.sol\":2032:2045  getLength(_n) */\n      tag_29\n        /* \"contracts/230523/concat.sol\":2042:2044  _n */\n      dup5\n        /* \"contracts/230523/concat.sol\":2032:2041  getLength */\n      tag_8\n        /* \"contracts/230523/concat.sol\":2032:2045  getLength(_n) */\n      jump\t// in\n    tag_29:\n        /* \"contracts/230523/concat.sol\":2025:2045  uint i=getLength(_n) */\n      swap1\n      pop\n        /* \"contracts/230523/concat.sol\":2056:2136  while(_n !=0) {... */\n    tag_30:\n        /* \"contracts/230523/concat.sol\":2067:2068  0 */\n      0x00\n        /* \"contracts/230523/concat.sol\":2062:2064  _n */\n      dup5\n        /* \"contracts/230523/concat.sol\":2062:2068  _n !=0 */\n      eq\n        /* \"contracts/230523/concat.sol\":2056:2136  while(_n !=0) {... */\n      tag_31\n      jumpi\n        /* \"contracts/230523/concat.sol\":2097:2099  10 */\n      0x0a\n        /* \"contracts/230523/concat.sol\":2094:2096  _n */\n      dup5\n        /* \"contracts/230523/concat.sol\":2094:2099  _n%10 */\n      tag_32\n      swap2\n      swap1\n      tag_33\n      jump\t// in\n    tag_32:\n        /* \"contracts/230523/concat.sol\":2085:2086  b */\n      dup3\n        /* \"contracts/230523/concat.sol\":2087:2090  --i */\n      dup3\n      tag_34\n      swap1\n      tag_35\n      jump\t// in\n    tag_34:\n      swap3\n      pop\n      dup3\n        /* \"contracts/230523/concat.sol\":2085:2091  b[--i] */\n      dup2\n      mload\n      dup2\n      lt\n      tag_36\n      jumpi\n      tag_37\n      tag_38\n      jump\t// in\n    tag_37:\n    tag_36:\n      0x20\n      mul\n      0x20\n      add\n      add\n        /* \"contracts/230523/concat.sol\":2085:2099  b[--i] = _n%10 */\n      dup2\n      dup2\n      mstore\n      pop\n      pop\n        /* \"contracts/230523/concat.sol\":2122:2124  10 */\n      0x0a\n        /* \"contracts/230523/concat.sol\":2119:2121  _n */\n      dup5\n        /* \"contracts/230523/concat.sol\":2119:2124  _n/10 */\n      tag_39\n      swap2\n      swap1\n      tag_40\n      jump\t// in\n    tag_39:\n        /* \"contracts/230523/concat.sol\":2114:2124  _n = _n/10 */\n      swap4\n      pop\n        /* \"contracts/230523/concat.sol\":2056:2136  while(_n !=0) {... */\n      jump(tag_30)\n    tag_31:\n        /* \"contracts/230523/concat.sol\":2154:2155  b */\n      dup2\n        /* \"contracts/230523/concat.sol\":2146:2156  return (b) */\n      swap3\n      pop\n      pop\n      pop\n        /* \"contracts/230523/concat.sol\":1892:2164  function divideNumber(uint _n) public pure returns(uint[] memory) {... */\n      swap2\n      swap1\n      pop\n      jump\t// out\n        /* \"#utility.yul\":88:205   */\n    tag_42:\n        /* \"#utility.yul\":197:198   */\n      0x00\n        /* \"#utility.yul\":194:195   */\n      dup1\n        /* \"#utility.yul\":187:199   */\n      revert\n        /* \"#utility.yul\":334:411   */\n    tag_44:\n        /* \"#utility.yul\":371:378   */\n      0x00\n        /* \"#utility.yul\":400:405   */\n      dup2\n        /* \"#utility.yul\":389:405   */\n      swap1\n      pop\n        /* \"#utility.yul\":334:411   */\n      swap2\n      swap1\n      pop\n      jump\t// out\n        /* \"#utility.yul\":417:539   */\n    tag_45:\n        /* \"#utility.yul\":490:514   */\n      tag_66\n        /* \"#utility.yul\":508:513   */\n      dup2\n        /* \"#utility.yul\":490:514   */\n      tag_44\n      jump\t// in\n    tag_66:\n        /* \"#utility.yul\":483:488   */\n      dup2\n        /* \"#utility.yul\":480:515   */\n      eq\n        /* \"#utility.yul\":470:533   */\n      tag_67\n      jumpi\n        /* \"#utility.yul\":529:530   */\n      0x00\n        /* \"#utility.yul\":526:527   */\n      dup1\n        /* \"#utility.yul\":519:531   */\n      revert\n        /* \"#utility.yul\":470:533   */\n    tag_67:\n        /* \"#utility.yul\":417:539   */\n      pop\n      jump\t// out\n        /* \"#utility.yul\":545:684   */\n    tag_46:\n        /* \"#utility.yul\":591:596   */\n      0x00\n        /* \"#utility.yul\":629:635   */\n      dup2\n        /* \"#utility.yul\":616:636   */\n      calldataload\n        /* \"#utility.yul\":607:636   */\n      swap1\n      pop\n        /* \"#utility.yul\":645:678   */\n      tag_69\n        /* \"#utility.yul\":672:677   */\n      dup2\n        /* \"#utility.yul\":645:678   */\n      tag_45\n      jump\t// in\n    tag_69:\n        /* \"#utility.yul\":545:684   */\n      swap3\n      swap2\n      pop\n      pop\n      jump\t// out\n        /* \"#utility.yul\":690:1019   */\n    tag_7:\n        /* \"#utility.yul\":749:755   */\n      0x00\n        /* \"#utility.yul\":798:800   */\n      0x20\n        /* \"#utility.yul\":786:795   */\n      dup3\n        /* \"#utility.yul\":777:784   */\n      dup5\n        /* \"#utility.yul\":773:796   */\n      sub\n        /* \"#utility.yul\":769:801   */\n      slt\n        /* \"#utility.yul\":766:885   */\n      iszero\n      tag_71\n      jumpi\n        /* \"#utility.yul\":804:883   */\n      tag_72\n      tag_42\n      jump\t// in\n    tag_72:\n        /* \"#utility.yul\":766:885   */\n    tag_71:\n        /* \"#utility.yul\":924:925   */\n      0x00\n        /* \"#utility.yul\":949:1002   */\n      tag_73\n        /* \"#utility.yul\":994:1001   */\n      dup5\n        /* \"#utility.yul\":985:991   */\n      dup3\n        /* \"#utility.yul\":974:983   */\n      dup6\n        /* \"#utility.yul\":970:992   */\n      add\n        /* \"#utility.yul\":949:1002   */\n      tag_46\n      jump\t// in\n    tag_73:\n        /* \"#utility.yul\":939:1002   */\n      swap2\n      pop\n        /* \"#utility.yul\":895:1012   */\n      pop\n        /* \"#utility.yul\":690:1019   */\n      swap3\n      swap2\n      pop\n      pop\n      jump\t// out\n        /* \"#utility.yul\":1025:1143   */\n    tag_47:\n        /* \"#utility.yul\":1112:1136   */\n      tag_75\n        /* \"#utility.yul\":1130:1135   */\n      dup2\n        /* \"#utility.yul\":1112:1136   */\n      tag_44\n      jump\t// in\n    tag_75:\n        /* \"#utility.yul\":1107:1110   */\n      dup3\n        /* \"#utility.yul\":1100:1137   */\n      mstore\n        /* \"#utility.yul\":1025:1143   */\n      pop\n      pop\n      jump\t// out\n        /* \"#utility.yul\":1149:1371   */\n    tag_10:\n        /* \"#utility.yul\":1242:1246   */\n      0x00\n        /* \"#utility.yul\":1280:1282   */\n      0x20\n        /* \"#utility.yul\":1269:1278   */\n      dup3\n        /* \"#utility.yul\":1265:1283   */\n      add\n        /* \"#utility.yul\":1257:1283   */\n      swap1\n      pop\n        /* \"#utility.yul\":1293:1364   */\n      tag_77\n        /* \"#utility.yul\":1361:1362   */\n      0x00\n        /* \"#utility.yul\":1350:1359   */\n      dup4\n        /* \"#utility.yul\":1346:1363   */\n      add\n        /* \"#utility.yul\":1337:1343   */\n      dup5\n        /* \"#utility.yul\":1293:1364   */\n      tag_47\n      jump\t// in\n    tag_77:\n        /* \"#utility.yul\":1149:1371   */\n      swap3\n      swap2\n      pop\n      pop\n      jump\t// out\n        /* \"#utility.yul\":1377:1491   */\n    tag_48:\n        /* \"#utility.yul\":1444:1450   */\n      0x00\n        /* \"#utility.yul\":1478:1483   */\n      dup2\n        /* \"#utility.yul\":1472:1484   */\n      mload\n        /* \"#utility.yul\":1462:1484   */\n      swap1\n      pop\n        /* \"#utility.yul\":1377:1491   */\n      swap2\n      swap1\n      pop\n      jump\t// out\n        /* \"#utility.yul\":1497:1681   */\n    tag_49:\n        /* \"#utility.yul\":1596:1607   */\n      0x00\n        /* \"#utility.yul\":1630:1636   */\n      dup3\n        /* \"#utility.yul\":1625:1628   */\n      dup3\n        /* \"#utility.yul\":1618:1637   */\n      mstore\n        /* \"#utility.yul\":1670:1674   */\n      0x20\n        /* \"#utility.yul\":1665:1668   */\n      dup3\n        /* \"#utility.yul\":1661:1675   */\n      add\n        /* \"#utility.yul\":1646:1675   */\n      swap1\n      pop\n        /* \"#utility.yul\":1497:1681   */\n      swap3\n      swap2\n      pop\n      pop\n      jump\t// out\n        /* \"#utility.yul\":1687:1819   */\n    tag_50:\n        /* \"#utility.yul\":1754:1758   */\n      0x00\n        /* \"#utility.yul\":1777:1780   */\n      dup2\n        /* \"#utility.yul\":1769:1780   */\n      swap1\n      pop\n        /* \"#utility.yul\":1807:1811   */\n      0x20\n        /* \"#utility.yul\":1802:1805   */\n      dup3\n        /* \"#utility.yul\":1798:1812   */\n      add\n        /* \"#utility.yul\":1790:1812   */\n      swap1\n      pop\n        /* \"#utility.yul\":1687:1819   */\n      swap2\n      swap1\n      pop\n      jump\t// out\n        /* \"#utility.yul\":1825:1933   */\n    tag_51:\n        /* \"#utility.yul\":1902:1926   */\n      tag_82\n        /* \"#utility.yul\":1920:1925   */\n      dup2\n        /* \"#utility.yul\":1902:1926   */\n      tag_44\n      jump\t// in\n    tag_82:\n        /* \"#utility.yul\":1897:1900   */\n      dup3\n        /* \"#utility.yul\":1890:1927   */\n      mstore\n        /* \"#utility.yul\":1825:1933   */\n      pop\n      pop\n      jump\t// out\n        /* \"#utility.yul\":1939:2118   */\n    tag_52:\n        /* \"#utility.yul\":2008:2018   */\n      0x00\n        /* \"#utility.yul\":2029:2075   */\n      tag_84\n        /* \"#utility.yul\":2071:2074   */\n      dup4\n        /* \"#utility.yul\":2063:2069   */\n      dup4\n        /* \"#utility.yul\":2029:2075   */\n      tag_51\n      jump\t// in\n    tag_84:\n        /* \"#utility.yul\":2107:2111   */\n      0x20\n        /* \"#utility.yul\":2102:2105   */\n      dup4\n        /* \"#utility.yul\":2098:2112   */\n      add\n        /* \"#utility.yul\":2084:2112   */\n      swap1\n      pop\n        /* \"#utility.yul\":1939:2118   */\n      swap3\n      swap2\n      pop\n      pop\n      jump\t// out\n        /* \"#utility.yul\":2124:2237   */\n    tag_53:\n        /* \"#utility.yul\":2194:2198   */\n      0x00\n        /* \"#utility.yul\":2226:2230   */\n      0x20\n        /* \"#utility.yul\":2221:2224   */\n      dup3\n        /* \"#utility.yul\":2217:2231   */\n      add\n        /* \"#utility.yul\":2209:2231   */\n      swap1\n      pop\n        /* \"#utility.yul\":2124:2237   */\n      swap2\n      swap1\n      pop\n      jump\t// out\n        /* \"#utility.yul\":2273:3005   */\n    tag_54:\n        /* \"#utility.yul\":2392:2395   */\n      0x00\n        /* \"#utility.yul\":2421:2475   */\n      tag_87\n        /* \"#utility.yul\":2469:2474   */\n      dup3\n        /* \"#utility.yul\":2421:2475   */\n      tag_48\n      jump\t// in\n    tag_87:\n        /* \"#utility.yul\":2491:2577   */\n      tag_88\n        /* \"#utility.yul\":2570:2576   */\n      dup2\n        /* \"#utility.yul\":2565:2568   */\n      dup6\n        /* \"#utility.yul\":2491:2577   */\n      tag_49\n      jump\t// in\n    tag_88:\n        /* \"#utility.yul\":2484:2577   */\n      swap4\n      pop\n        /* \"#utility.yul\":2601:2657   */\n      tag_89\n        /* \"#utility.yul\":2651:2656   */\n      dup4\n        /* \"#utility.yul\":2601:2657   */\n      tag_50\n      jump\t// in\n    tag_89:\n        /* \"#utility.yul\":2680:2687   */\n      dup1\n        /* \"#utility.yul\":2711:2712   */\n      0x00\n        /* \"#utility.yul\":2696:2980   */\n    tag_90:\n        /* \"#utility.yul\":2721:2727   */\n      dup4\n        /* \"#utility.yul\":2718:2719   */\n      dup2\n        /* \"#utility.yul\":2715:2728   */\n      lt\n        /* \"#utility.yul\":2696:2980   */\n      iszero\n      tag_92\n      jumpi\n        /* \"#utility.yul\":2797:2803   */\n      dup2\n        /* \"#utility.yul\":2791:2804   */\n      mload\n        /* \"#utility.yul\":2824:2887   */\n      tag_93\n        /* \"#utility.yul\":2883:2886   */\n      dup9\n        /* \"#utility.yul\":2868:2881   */\n      dup3\n        /* \"#utility.yul\":2824:2887   */\n      tag_52\n      jump\t// in\n    tag_93:\n        /* \"#utility.yul\":2817:2887   */\n      swap8\n      pop\n        /* \"#utility.yul\":2910:2970   */\n      tag_94\n        /* \"#utility.yul\":2963:2969   */\n      dup4\n        /* \"#utility.yul\":2910:2970   */\n      tag_53\n      jump\t// in\n    tag_94:\n        /* \"#utility.yul\":2900:2970   */\n      swap3\n      pop\n        /* \"#utility.yul\":2756:2980   */\n      pop\n        /* \"#utility.yul\":2743:2744   */\n      0x01\n        /* \"#utility.yul\":2740:2741   */\n      dup2\n        /* \"#utility.yul\":2736:2745   */\n      add\n        /* \"#utility.yul\":2731:2745   */\n      swap1\n      pop\n        /* \"#utility.yul\":2696:2980   */\n      jump(tag_90)\n    tag_92:\n        /* \"#utility.yul\":2700:2714   */\n      pop\n        /* \"#utility.yul\":2996:2999   */\n      dup6\n        /* \"#utility.yul\":2989:2999   */\n      swap4\n      pop\n        /* \"#utility.yul\":2397:3005   */\n      pop\n      pop\n      pop\n        /* \"#utility.yul\":2273:3005   */\n      swap3\n      swap2\n      pop\n      pop\n      jump\t// out\n        /* \"#utility.yul\":3011:3384   */\n    tag_15:\n        /* \"#utility.yul\":3154:3158   */\n      0x00\n        /* \"#utility.yul\":3192:3194   */\n      0x20\n        /* \"#utility.yul\":3181:3190   */\n      dup3\n        /* \"#utility.yul\":3177:3195   */\n      add\n        /* \"#utility.yul\":3169:3195   */\n      swap1\n      pop\n        /* \"#utility.yul\":3241:3250   */\n      dup2\n        /* \"#utility.yul\":3235:3239   */\n      dup2\n        /* \"#utility.yul\":3231:3251   */\n      sub\n        /* \"#utility.yul\":3227:3228   */\n      0x00\n        /* \"#utility.yul\":3216:3225   */\n      dup4\n        /* \"#utility.yul\":3212:3229   */\n      add\n        /* \"#utility.yul\":3205:3252   */\n      mstore\n        /* \"#utility.yul\":3269:3377   */\n      tag_96\n        /* \"#utility.yul\":3372:3376   */\n      dup2\n        /* \"#utility.yul\":3363:3369   */\n      dup5\n        /* \"#utility.yul\":3269:3377   */\n      tag_54\n      jump\t// in\n    tag_96:\n        /* \"#utility.yul\":3261:3377   */\n      swap1\n      pop\n        /* \"#utility.yul\":3011:3384   */\n      swap3\n      swap2\n      pop\n      pop\n      jump\t// out\n        /* \"#utility.yul\":3390:3570   */\n    tag_55:\n        /* \"#utility.yul\":3438:3515   */\n      0x4e487b7100000000000000000000000000000000000000000000000000000000\n        /* \"#utility.yul\":3435:3436   */\n      0x00\n        /* \"#utility.yul\":3428:3516   */\n      mstore\n        /* \"#utility.yul\":3535:3539   */\n      0x11\n        /* \"#utility.yul\":3532:3533   */\n      0x04\n        /* \"#utility.yul\":3525:3540   */\n      mstore\n        /* \"#utility.yul\":3559:3563   */\n      0x24\n        /* \"#utility.yul\":3556:3557   */\n      0x00\n        /* \"#utility.yul\":3549:3564   */\n      revert\n        /* \"#utility.yul\":3576:3678   */\n    tag_56:\n        /* \"#utility.yul\":3618:3626   */\n      0x00\n        /* \"#utility.yul\":3665:3670   */\n      dup2\n        /* \"#utility.yul\":3662:3663   */\n      0x01\n        /* \"#utility.yul\":3658:3671   */\n      shr\n        /* \"#utility.yul\":3637:3671   */\n      swap1\n      pop\n        /* \"#utility.yul\":3576:3678   */\n      swap2\n      swap1\n      pop\n      jump\t// out\n        /* \"#utility.yul\":3684:4532   */\n    tag_57:\n        /* \"#utility.yul\":3745:3750   */\n      0x00\n        /* \"#utility.yul\":3752:3756   */\n      dup1\n        /* \"#utility.yul\":3776:3782   */\n      dup3\n        /* \"#utility.yul\":3767:3782   */\n      swap2\n      pop\n        /* \"#utility.yul\":3800:3805   */\n      dup4\n        /* \"#utility.yul\":3791:3805   */\n      swap1\n      pop\n        /* \"#utility.yul\":3814:4526   */\n    tag_100:\n        /* \"#utility.yul\":3835:3836   */\n      0x01\n        /* \"#utility.yul\":3825:3833   */\n      dup6\n        /* \"#utility.yul\":3822:3837   */\n      gt\n        /* \"#utility.yul\":3814:4526   */\n      iszero\n      tag_102\n      jumpi\n        /* \"#utility.yul\":3930:3934   */\n      dup1\n        /* \"#utility.yul\":3925:3928   */\n      dup7\n        /* \"#utility.yul\":3921:3935   */\n      div\n        /* \"#utility.yul\":3915:3919   */\n      dup2\n        /* \"#utility.yul\":3912:3936   */\n      gt\n        /* \"#utility.yul\":3909:3959   */\n      iszero\n      tag_103\n      jumpi\n        /* \"#utility.yul\":3939:3957   */\n      tag_104\n      tag_55\n      jump\t// in\n    tag_104:\n        /* \"#utility.yul\":3909:3959   */\n    tag_103:\n        /* \"#utility.yul\":3989:3990   */\n      0x01\n        /* \"#utility.yul\":3979:3987   */\n      dup6\n        /* \"#utility.yul\":3975:3991   */\n      and\n        /* \"#utility.yul\":3972:4423   */\n      iszero\n      tag_105\n      jumpi\n        /* \"#utility.yul\":4404:4408   */\n      dup1\n        /* \"#utility.yul\":4397:4402   */\n      dup3\n        /* \"#utility.yul\":4393:4409   */\n      mul\n        /* \"#utility.yul\":4384:4409   */\n      swap2\n      pop\n        /* \"#utility.yul\":3972:4423   */\n    tag_105:\n        /* \"#utility.yul\":4454:4458   */\n      dup1\n        /* \"#utility.yul\":4448:4452   */\n      dup2\n        /* \"#utility.yul\":4444:4459   */\n      mul\n        /* \"#utility.yul\":4436:4459   */\n      swap1\n      pop\n        /* \"#utility.yul\":4484:4516   */\n      tag_106\n        /* \"#utility.yul\":4507:4515   */\n      dup6\n        /* \"#utility.yul\":4484:4516   */\n      tag_56\n      jump\t// in\n    tag_106:\n        /* \"#utility.yul\":4472:4516   */\n      swap5\n      pop\n        /* \"#utility.yul\":3814:4526   */\n      jump(tag_100)\n    tag_102:\n        /* \"#utility.yul\":3684:4532   */\n      swap5\n      pop\n      swap5\n      swap3\n      pop\n      pop\n      pop\n      jump\t// out\n        /* \"#utility.yul\":4538:5611   */\n    tag_58:\n        /* \"#utility.yul\":4592:4597   */\n      0x00\n        /* \"#utility.yul\":4783:4791   */\n      dup3\n        /* \"#utility.yul\":4773:4813   */\n      tag_108\n      jumpi\n        /* \"#utility.yul\":4804:4805   */\n      0x01\n        /* \"#utility.yul\":4795:4805   */\n      swap1\n      pop\n        /* \"#utility.yul\":4806:4811   */\n      jump(tag_107)\n        /* \"#utility.yul\":4773:4813   */\n    tag_108:\n        /* \"#utility.yul\":4832:4836   */\n      dup2\n        /* \"#utility.yul\":4822:4858   */\n      tag_109\n      jumpi\n        /* \"#utility.yul\":4849:4850   */\n      0x00\n        /* \"#utility.yul\":4840:4850   */\n      swap1\n      pop\n        /* \"#utility.yul\":4851:4856   */\n      jump(tag_107)\n        /* \"#utility.yul\":4822:4858   */\n    tag_109:\n        /* \"#utility.yul\":4918:4922   */\n      dup2\n        /* \"#utility.yul\":4966:4967   */\n      0x01\n        /* \"#utility.yul\":4961:4988   */\n      dup2\n      eq\n      tag_111\n      jumpi\n        /* \"#utility.yul\":5002:5003   */\n      0x02\n        /* \"#utility.yul\":4997:5188   */\n      dup2\n      eq\n      tag_112\n      jumpi\n        /* \"#utility.yul\":4911:5188   */\n      jump(tag_110)\n        /* \"#utility.yul\":4961:4988   */\n    tag_111:\n        /* \"#utility.yul\":4979:4980   */\n      0x01\n        /* \"#utility.yul\":4970:4980   */\n      swap2\n      pop\n        /* \"#utility.yul\":4981:4986   */\n      pop\n      jump(tag_107)\n        /* \"#utility.yul\":4997:5188   */\n    tag_112:\n        /* \"#utility.yul\":5042:5045   */\n      0xff\n        /* \"#utility.yul\":5032:5040   */\n      dup5\n        /* \"#utility.yul\":5029:5046   */\n      gt\n        /* \"#utility.yul\":5026:5069   */\n      iszero\n      tag_113\n      jumpi\n        /* \"#utility.yul\":5049:5067   */\n      tag_114\n      tag_55\n      jump\t// in\n    tag_114:\n        /* \"#utility.yul\":5026:5069   */\n    tag_113:\n        /* \"#utility.yul\":5098:5106   */\n      dup4\n        /* \"#utility.yul\":5095:5096   */\n      0x02\n        /* \"#utility.yul\":5091:5107   */\n      exp\n        /* \"#utility.yul\":5082:5107   */\n      swap2\n      pop\n        /* \"#utility.yul\":5133:5136   */\n      dup5\n        /* \"#utility.yul\":5126:5131   */\n      dup3\n        /* \"#utility.yul\":5123:5137   */\n      gt\n        /* \"#utility.yul\":5120:5160   */\n      iszero\n      tag_115\n      jumpi\n        /* \"#utility.yul\":5140:5158   */\n      tag_116\n      tag_55\n      jump\t// in\n    tag_116:\n        /* \"#utility.yul\":5120:5160   */\n    tag_115:\n        /* \"#utility.yul\":5173:5178   */\n      pop\n      jump(tag_107)\n        /* \"#utility.yul\":4911:5188   */\n    tag_110:\n      pop\n        /* \"#utility.yul\":5297:5299   */\n      0x20\n        /* \"#utility.yul\":5287:5295   */\n      dup4\n        /* \"#utility.yul\":5284:5300   */\n      lt\n        /* \"#utility.yul\":5278:5281   */\n      0x0133\n        /* \"#utility.yul\":5272:5276   */\n      dup4\n        /* \"#utility.yul\":5269:5282   */\n      lt\n        /* \"#utility.yul\":5265:5301   */\n      and\n        /* \"#utility.yul\":5247:5249   */\n      0x4e\n        /* \"#utility.yul\":5237:5245   */\n      dup5\n        /* \"#utility.yul\":5234:5250   */\n      lt\n        /* \"#utility.yul\":5229:5231   */\n      0x0b\n        /* \"#utility.yul\":5223:5227   */\n      dup5\n        /* \"#utility.yul\":5220:5232   */\n      lt\n        /* \"#utility.yul\":5216:5251   */\n      and\n        /* \"#utility.yul\":5200:5311   */\n      or\n        /* \"#utility.yul\":5197:5443   */\n      iszero\n      tag_117\n      jumpi\n        /* \"#utility.yul\":5353:5361   */\n      dup3\n        /* \"#utility.yul\":5347:5351   */\n      dup3\n        /* \"#utility.yul\":5343:5362   */\n      exp\n        /* \"#utility.yul\":5334:5362   */\n      swap1\n      pop\n        /* \"#utility.yul\":5388:5391   */\n      dup4\n        /* \"#utility.yul\":5381:5386   */\n      dup2\n        /* \"#utility.yul\":5378:5392   */\n      gt\n        /* \"#utility.yul\":5375:5415   */\n      iszero\n      tag_118\n      jumpi\n        /* \"#utility.yul\":5395:5413   */\n      tag_119\n      tag_55\n      jump\t// in\n    tag_119:\n        /* \"#utility.yul\":5375:5415   */\n    tag_118:\n        /* \"#utility.yul\":5428:5433   */\n      jump(tag_107)\n        /* \"#utility.yul\":5197:5443   */\n    tag_117:\n        /* \"#utility.yul\":5468:5510   */\n      tag_120\n        /* \"#utility.yul\":5506:5509   */\n      dup5\n        /* \"#utility.yul\":5496:5504   */\n      dup5\n        /* \"#utility.yul\":5490:5494   */\n      dup5\n        /* \"#utility.yul\":5487:5488   */\n      0x01\n        /* \"#utility.yul\":5468:5510   */\n      tag_57\n      jump\t// in\n    tag_120:\n        /* \"#utility.yul\":5453:5510   */\n      swap3\n      pop\n      swap1\n      pop\n        /* \"#utility.yul\":5542:5546   */\n      dup2\n        /* \"#utility.yul\":5537:5540   */\n      dup5\n        /* \"#utility.yul\":5533:5547   */\n      div\n        /* \"#utility.yul\":5526:5531   */\n      dup2\n        /* \"#utility.yul\":5523:5548   */\n      gt\n        /* \"#utility.yul\":5520:5571   */\n      iszero\n      tag_121\n      jumpi\n        /* \"#utility.yul\":5551:5569   */\n      tag_122\n      tag_55\n      jump\t// in\n    tag_122:\n        /* \"#utility.yul\":5520:5571   */\n    tag_121:\n        /* \"#utility.yul\":5600:5604   */\n      dup2\n        /* \"#utility.yul\":5593:5598   */\n      dup2\n        /* \"#utility.yul\":5589:5605   */\n      mul\n        /* \"#utility.yul\":5580:5605   */\n      swap1\n      pop\n        /* \"#utility.yul\":4538:5611   */\n    tag_107:\n      swap4\n      swap3\n      pop\n      pop\n      pop\n      jump\t// out\n        /* \"#utility.yul\":5617:5902   */\n    tag_20:\n        /* \"#utility.yul\":5677:5682   */\n      0x00\n        /* \"#utility.yul\":5701:5724   */\n      tag_124\n        /* \"#utility.yul\":5719:5723   */\n      dup3\n        /* \"#utility.yul\":5701:5724   */\n      tag_44\n      jump\t// in\n    tag_124:\n        /* \"#utility.yul\":5693:5724   */\n      swap2\n      pop\n        /* \"#utility.yul\":5745:5772   */\n      tag_125\n        /* \"#utility.yul\":5763:5771   */\n      dup4\n        /* \"#utility.yul\":5745:5772   */\n      tag_44\n      jump\t// in\n    tag_125:\n        /* \"#utility.yul\":5733:5772   */\n      swap3\n      pop\n        /* \"#utility.yul\":5791:5895   */\n      tag_126\n        /* \"#utility.yul\":5828:5894   */\n      0xffffffffffffffffffffffffffffffffffffffffffffffffffffffffffffffff\n        /* \"#utility.yul\":5818:5826   */\n      dup5\n        /* \"#utility.yul\":5812:5816   */\n      dup5\n        /* \"#utility.yul\":5791:5895   */\n      tag_58\n      jump\t// in\n    tag_126:\n        /* \"#utility.yul\":5782:5895   */\n      swap1\n      pop\n        /* \"#utility.yul\":5617:5902   */\n      swap3\n      swap2\n      pop\n      pop\n      jump\t// out\n        /* \"#utility.yul\":5908:6141   */\n    tag_22:\n        /* \"#utility.yul\":5947:5950   */\n      0x00\n        /* \"#utility.yul\":5970:5994   */\n      tag_128\n        /* \"#utility.yul\":5988:5993   */\n      dup3\n        /* \"#utility.yul\":5970:5994   */\n      tag_44\n      jump\t// in\n    tag_128:\n        /* \"#utility.yul\":5961:5994   */\n      swap2\n      pop\n        /* \"#utility.yul\":6016:6082   */\n      0xffffffffffffffffffffffffffffffffffffffffffffffffffffffffffffffff\n        /* \"#utility.yul\":6009:6014   */\n      dup3\n        /* \"#utility.yul\":6006:6083   */\n      sub\n        /* \"#utility.yul\":6003:6106   */\n      tag_129\n      jumpi\n        /* \"#utility.yul\":6086:6104   */\n      tag_130\n      tag_55\n      jump\t// in\n    tag_130:\n        /* \"#utility.yul\":6003:6106   */\n    tag_129:\n        /* \"#utility.yul\":6133:6134   */\n      0x01\n        /* \"#utility.yul\":6126:6131   */\n      dup3\n        /* \"#utility.yul\":6122:6135   */\n      add\n        /* \"#utility.yul\":6115:6135   */\n      swap1\n      pop\n        /* \"#utility.yul\":5908:6141   */\n      swap2\n      swap1\n      pop\n      jump\t// out\n        /* \"#utility.yul\":6147:6327   */\n    tag_27:\n        /* \"#utility.yul\":6195:6272   */\n      0x4e487b7100000000000000000000000000000000000000000000000000000000\n        /* \"#utility.yul\":6192:6193   */\n      0x00\n        /* \"#utility.yul\":6185:6273   */\n      mstore\n        /* \"#utility.yul\":6292:6296   */\n      0x41\n        /* \"#utility.yul\":6289:6290   */\n      0x04\n        /* \"#utility.yul\":6282:6297   */\n      mstore\n        /* \"#utility.yul\":6316:6320   */\n      0x24\n        /* \"#utility.yul\":6313:6314   */\n      0x00\n        /* \"#utility.yul\":6306:6321   */\n      revert\n        /* \"#utility.yul\":6333:6513   */\n    tag_59:\n        /* \"#utility.yul\":6381:6458   */\n      0x4e487b7100000000000000000000000000000000000000000000000000000000\n        /* \"#utility.yul\":6378:6379   */\n      0x00\n        /* \"#utility.yul\":6371:6459   */\n      mstore\n        /* \"#utility.yul\":6478:6482   */\n      0x12\n        /* \"#utility.yul\":6475:6476   */\n      0x04\n        /* \"#utility.yul\":6468:6483   */\n      mstore\n        /* \"#utility.yul\":6502:6506   */\n      0x24\n        /* \"#utility.yul\":6499:6500   */\n      0x00\n        /* \"#utility.yul\":6492:6507   */\n      revert\n        /* \"#utility.yul\":6519:6695   */\n    tag_33:\n        /* \"#utility.yul\":6551:6552   */\n      0x00\n        /* \"#utility.yul\":6568:6588   */\n      tag_134\n        /* \"#utility.yul\":6586:6587   */\n      dup3\n        /* \"#utility.yul\":6568:6588   */\n      tag_44\n      jump\t// in\n    tag_134:\n        /* \"#utility.yul\":6563:6588   */\n      swap2\n      pop\n        /* \"#utility.yul\":6602:6622   */\n      tag_135\n        /* \"#utility.yul\":6620:6621   */\n      dup4\n        /* \"#utility.yul\":6602:6622   */\n      tag_44\n      jump\t// in\n    tag_135:\n        /* \"#utility.yul\":6597:6622   */\n      swap3\n      pop\n        /* \"#utility.yul\":6641:6642   */\n      dup3\n        /* \"#utility.yul\":6631:6666   */\n      tag_136\n      jumpi\n        /* \"#utility.yul\":6646:6664   */\n      tag_137\n      tag_59\n      jump\t// in\n    tag_137:\n        /* \"#utility.yul\":6631:6666   */\n    tag_136:\n        /* \"#utility.yul\":6687:6688   */\n      dup3\n        /* \"#utility.yul\":6684:6685   */\n      dup3\n        /* \"#utility.yul\":6680:6689   */\n      mod\n        /* \"#utility.yul\":6675:6689   */\n      swap1\n      pop\n        /* \"#utility.yul\":6519:6695   */\n      swap3\n      swap2\n      pop\n      pop\n      jump\t// out\n        /* \"#utility.yul\":6701:6872   */\n    tag_35:\n        /* \"#utility.yul\":6740:6743   */\n      0x00\n        /* \"#utility.yul\":6763:6787   */\n      tag_139\n        /* \"#utility.yul\":6781:6786   */\n      dup3\n        /* \"#utility.yul\":6763:6787   */\n      tag_44\n      jump\t// in\n    tag_139:\n        /* \"#utility.yul\":6754:6787   */\n      swap2\n      pop\n        /* \"#utility.yul\":6809:6813   */\n      0x00\n        /* \"#utility.yul\":6802:6807   */\n      dup3\n        /* \"#utility.yul\":6799:6814   */\n      sub\n        /* \"#utility.yul\":6796:6837   */\n      tag_140\n      jumpi\n        /* \"#utility.yul\":6817:6835   */\n      tag_141\n      tag_55\n      jump\t// in\n    tag_141:\n        /* \"#utility.yul\":6796:6837   */\n    tag_140:\n        /* \"#utility.yul\":6864:6865   */\n      0x01\n        /* \"#utility.yul\":6857:6862   */\n      dup3\n        /* \"#utility.yul\":6853:6866   */\n      sub\n        /* \"#utility.yul\":6846:6866   */\n      swap1\n      pop\n        /* \"#utility.yul\":6701:6872   */\n      swap2\n      swap1\n      pop\n      jump\t// out\n        /* \"#utility.yul\":6878:7058   */\n    tag_38:\n        /* \"#utility.yul\":6926:7003   */\n      0x4e487b7100000000000000000000000000000000000000000000000000000000\n        /* \"#utility.yul\":6923:6924   */\n      0x00\n        /* \"#utility.yul\":6916:7004   */\n      mstore\n        /* \"#utility.yul\":7023:7027   */\n      0x32\n        /* \"#utility.yul\":7020:7021   */\n      0x04\n        /* \"#utility.yul\":7013:7028   */\n      mstore\n        /* \"#utility.yul\":7047:7051   */\n      0x24\n        /* \"#utility.yul\":7044:7045   */\n      0x00\n        /* \"#utility.yul\":7037:7052   */\n      revert\n        /* \"#utility.yul\":7064:7249   */\n    tag_40:\n        /* \"#utility.yul\":7104:7105   */\n      0x00\n        /* \"#utility.yul\":7121:7141   */\n      tag_144\n        /* \"#utility.yul\":7139:7140   */\n      dup3\n        /* \"#utility.yul\":7121:7141   */\n      tag_44\n      jump\t// in\n    tag_144:\n        /* \"#utility.yul\":7116:7141   */\n      swap2\n      pop\n        /* \"#utility.yul\":7155:7175   */\n      tag_145\n        /* \"#utility.yul\":7173:7174   */\n      dup4\n        /* \"#utility.yul\":7155:7175   */\n      tag_44\n      jump\t// in\n    tag_145:\n        /* \"#utility.yul\":7150:7175   */\n      swap3\n      pop\n        /* \"#utility.yul\":7194:7195   */\n      dup3\n        /* \"#utility.yul\":7184:7219   */\n      tag_146\n      jumpi\n        /* \"#utility.yul\":7199:7217   */\n      tag_147\n      tag_59\n      jump\t// in\n    tag_147:\n        /* \"#utility.yul\":7184:7219   */\n    tag_146:\n        /* \"#utility.yul\":7241:7242   */\n      dup3\n        /* \"#utility.yul\":7238:7239   */\n      dup3\n        /* \"#utility.yul\":7234:7243   */\n      div\n        /* \"#utility.yul\":7229:7243   */\n      swap1\n      pop\n        /* \"#utility.yul\":7064:7249   */\n      swap3\n      swap2\n      pop\n      pop\n      jump\t// out\n\n    auxdata: 0xa26469706673582212207ba4e48867c770a2f48965d4cb0163598a248fd56b1026113ebf26c9d01131c664736f6c63430008120033\n}\n",
				"bytecode": {
					"linkReferences": {},
					"object": "608060405234801561001057600080fd5b50610646806100206000396000f3fe608060405234801561001057600080fd5b50600436106100365760003560e01c80630986e6471461003b5780632ac45d9c1461006b575b600080fd5b610055600480360381019061005091906101cc565b61009b565b6040516100629190610208565b60405180910390f35b610085600480360381019061008091906101cc565b6100ce565b60405161009291906102e1565b60405180910390f35b6000805b80600a6100ac9190610465565b83106100c55780806100bd906104b0565b91505061009f565b80915050919050565b606060006100db8361009b565b67ffffffffffffffff8111156100f4576100f36104f8565b5b6040519080825280602002602001820160405280156101225781602001602082028036833780820191505090505b50905060006101308461009b565b90505b6000841461018757600a846101489190610556565b828261015390610587565b92508281518110610167576101666105b0565b5b602002602001018181525050600a8461018091906105df565b9350610133565b8192505050919050565b600080fd5b6000819050919050565b6101a981610196565b81146101b457600080fd5b50565b6000813590506101c6816101a0565b92915050565b6000602082840312156101e2576101e1610191565b5b60006101f0848285016101b7565b91505092915050565b61020281610196565b82525050565b600060208201905061021d60008301846101f9565b92915050565b600081519050919050565b600082825260208201905092915050565b6000819050602082019050919050565b61025881610196565b82525050565b600061026a838361024f565b60208301905092915050565b6000602082019050919050565b600061028e82610223565b610298818561022e565b93506102a38361023f565b8060005b838110156102d45781516102bb888261025e565b97506102c683610276565b9250506001810190506102a7565b5085935050505092915050565b600060208201905081810360008301526102fb8184610283565b905092915050565b7f4e487b7100000000000000000000000000000000000000000000000000000000600052601160045260246000fd5b60008160011c9050919050565b6000808291508390505b60018511156103895780860481111561036557610364610303565b5b60018516156103745780820291505b808102905061038285610332565b9450610349565b94509492505050565b6000826103a2576001905061045e565b816103b0576000905061045e565b81600181146103c657600281146103d0576103ff565b600191505061045e565b60ff8411156103e2576103e1610303565b5b8360020a9150848211156103f9576103f8610303565b5b5061045e565b5060208310610133831016604e8410600b84101617156104345782820a90508381111561042f5761042e610303565b5b61045e565b610441848484600161033f565b9250905081840481111561045857610457610303565b5b81810290505b9392505050565b600061047082610196565b915061047b83610196565b92506104a87fffffffffffffffffffffffffffffffffffffffffffffffffffffffffffffffff8484610392565b905092915050565b60006104bb82610196565b91507fffffffffffffffffffffffffffffffffffffffffffffffffffffffffffffffff82036104ed576104ec610303565b5b600182019050919050565b7f4e487b7100000000000000000000000000000000000000000000000000000000600052604160045260246000fd5b7f4e487b7100000000000000000000000000000000000000000000000000000000600052601260045260246000fd5b600061056182610196565b915061056c83610196565b92508261057c5761057b610527565b5b828206905092915050565b600061059282610196565b9150600082036105a5576105a4610303565b5b600182039050919050565b7f4e487b7100000000000000000000000000000000000000000000000000000000600052603260045260246000fd5b60006105ea82610196565b91506105f583610196565b92508261060557610604610527565b5b82820490509291505056fea26469706673582212207ba4e48867c770a2f48965d4cb0163598a248fd56b1026113ebf26c9d01131c664736f6c63430008120033",
					"opcodes": "PUSH1 0x80 PUSH1 0x40 MSTORE CALLVALUE DUP1 ISZERO PUSH2 0x10 JUMPI PUSH1 0x0 DUP1 REVERT JUMPDEST POP PUSH2 0x646 DUP1 PUSH2 0x20 PUSH1 0x0 CODECOPY PUSH1 0x0 RETURN INVALID PUSH1 0x80 PUSH1 0x40 MSTORE CALLVALUE DUP1 ISZERO PUSH2 0x10 JUMPI PUSH1 0x0 DUP1 REVERT JUMPDEST POP PUSH1 0x4 CALLDATASIZE LT PUSH2 0x36 JUMPI PUSH1 0x0 CALLDATALOAD PUSH1 0xE0 SHR DUP1 PUSH4 0x986E647 EQ PUSH2 0x3B JUMPI DUP1 PUSH4 0x2AC45D9C EQ PUSH2 0x6B JUMPI JUMPDEST PUSH1 0x0 DUP1 REVERT JUMPDEST PUSH2 0x55 PUSH1 0x4 DUP1 CALLDATASIZE SUB DUP2 ADD SWAP1 PUSH2 0x50 SWAP2 SWAP1 PUSH2 0x1CC JUMP JUMPDEST PUSH2 0x9B JUMP JUMPDEST PUSH1 0x40 MLOAD PUSH2 0x62 SWAP2 SWAP1 PUSH2 0x208 JUMP JUMPDEST PUSH1 0x40 MLOAD DUP1 SWAP2 SUB SWAP1 RETURN JUMPDEST PUSH2 0x85 PUSH1 0x4 DUP1 CALLDATASIZE SUB DUP2 ADD SWAP1 PUSH2 0x80 SWAP2 SWAP1 PUSH2 0x1CC JUMP JUMPDEST PUSH2 0xCE JUMP JUMPDEST PUSH1 0x40 MLOAD PUSH2 0x92 SWAP2 SWAP1 PUSH2 0x2E1 JUMP JUMPDEST PUSH1 0x40 MLOAD DUP1 SWAP2 SUB SWAP1 RETURN JUMPDEST PUSH1 0x0 DUP1 JUMPDEST DUP1 PUSH1 0xA PUSH2 0xAC SWAP2 SWAP1 PUSH2 0x465 JUMP JUMPDEST DUP4 LT PUSH2 0xC5 JUMPI DUP1 DUP1 PUSH2 0xBD SWAP1 PUSH2 0x4B0 JUMP JUMPDEST SWAP2 POP POP PUSH2 0x9F JUMP JUMPDEST DUP1 SWAP2 POP POP SWAP2 SWAP1 POP JUMP JUMPDEST PUSH1 0x60 PUSH1 0x0 PUSH2 0xDB DUP4 PUSH2 0x9B JUMP JUMPDEST PUSH8 0xFFFFFFFFFFFFFFFF DUP2 GT ISZERO PUSH2 0xF4 JUMPI PUSH2 0xF3 PUSH2 0x4F8 JUMP JUMPDEST JUMPDEST PUSH1 0x40 MLOAD SWAP1 DUP1 DUP3 MSTORE DUP1 PUSH1 0x20 MUL PUSH1 0x20 ADD DUP3 ADD PUSH1 0x40 MSTORE DUP1 ISZERO PUSH2 0x122 JUMPI DUP2 PUSH1 0x20 ADD PUSH1 0x20 DUP3 MUL DUP1 CALLDATASIZE DUP4 CALLDATACOPY DUP1 DUP3 ADD SWAP2 POP POP SWAP1 POP JUMPDEST POP SWAP1 POP PUSH1 0x0 PUSH2 0x130 DUP5 PUSH2 0x9B JUMP JUMPDEST SWAP1 POP JUMPDEST PUSH1 0x0 DUP5 EQ PUSH2 0x187 JUMPI PUSH1 0xA DUP5 PUSH2 0x148 SWAP2 SWAP1 PUSH2 0x556 JUMP JUMPDEST DUP3 DUP3 PUSH2 0x153 SWAP1 PUSH2 0x587 JUMP JUMPDEST SWAP3 POP DUP3 DUP2 MLOAD DUP2 LT PUSH2 0x167 JUMPI PUSH2 0x166 PUSH2 0x5B0 JUMP JUMPDEST JUMPDEST PUSH1 0x20 MUL PUSH1 0x20 ADD ADD DUP2 DUP2 MSTORE POP POP PUSH1 0xA DUP5 PUSH2 0x180 SWAP2 SWAP1 PUSH2 0x5DF JUMP JUMPDEST SWAP4 POP PUSH2 0x133 JUMP JUMPDEST DUP2 SWAP3 POP POP POP SWAP2 SWAP1 POP JUMP JUMPDEST PUSH1 0x0 DUP1 REVERT JUMPDEST PUSH1 0x0 DUP2 SWAP1 POP SWAP2 SWAP1 POP JUMP JUMPDEST PUSH2 0x1A9 DUP2 PUSH2 0x196 JUMP JUMPDEST DUP2 EQ PUSH2 0x1B4 JUMPI PUSH1 0x0 DUP1 REVERT JUMPDEST POP JUMP JUMPDEST PUSH1 0x0 DUP2 CALLDATALOAD SWAP1 POP PUSH2 0x1C6 DUP2 PUSH2 0x1A0 JUMP JUMPDEST SWAP3 SWAP2 POP POP JUMP JUMPDEST PUSH1 0x0 PUSH1 0x20 DUP3 DUP5 SUB SLT ISZERO PUSH2 0x1E2 JUMPI PUSH2 0x1E1 PUSH2 0x191 JUMP JUMPDEST JUMPDEST PUSH1 0x0 PUSH2 0x1F0 DUP5 DUP3 DUP6 ADD PUSH2 0x1B7 JUMP JUMPDEST SWAP2 POP POP SWAP3 SWAP2 POP POP JUMP JUMPDEST PUSH2 0x202 DUP2 PUSH2 0x196 JUMP JUMPDEST DUP3 MSTORE POP POP JUMP JUMPDEST PUSH1 0x0 PUSH1 0x20 DUP3 ADD SWAP1 POP PUSH2 0x21D PUSH1 0x0 DUP4 ADD DUP5 PUSH2 0x1F9 JUMP JUMPDEST SWAP3 SWAP2 POP POP JUMP JUMPDEST PUSH1 0x0 DUP2 MLOAD SWAP1 POP SWAP2 SWAP1 POP JUMP JUMPDEST PUSH1 0x0 DUP3 DUP3 MSTORE PUSH1 0x20 DUP3 ADD SWAP1 POP SWAP3 SWAP2 POP POP JUMP JUMPDEST PUSH1 0x0 DUP2 SWAP1 POP PUSH1 0x20 DUP3 ADD SWAP1 POP SWAP2 SWAP1 POP JUMP JUMPDEST PUSH2 0x258 DUP2 PUSH2 0x196 JUMP JUMPDEST DUP3 MSTORE POP POP JUMP JUMPDEST PUSH1 0x0 PUSH2 0x26A DUP4 DUP4 PUSH2 0x24F JUMP JUMPDEST PUSH1 0x20 DUP4 ADD SWAP1 POP SWAP3 SWAP2 POP POP JUMP JUMPDEST PUSH1 0x0 PUSH1 0x20 DUP3 ADD SWAP1 POP SWAP2 SWAP1 POP JUMP JUMPDEST PUSH1 0x0 PUSH2 0x28E DUP3 PUSH2 0x223 JUMP JUMPDEST PUSH2 0x298 DUP2 DUP6 PUSH2 0x22E JUMP JUMPDEST SWAP4 POP PUSH2 0x2A3 DUP4 PUSH2 0x23F JUMP JUMPDEST DUP1 PUSH1 0x0 JUMPDEST DUP4 DUP2 LT ISZERO PUSH2 0x2D4 JUMPI DUP2 MLOAD PUSH2 0x2BB DUP9 DUP3 PUSH2 0x25E JUMP JUMPDEST SWAP8 POP PUSH2 0x2C6 DUP4 PUSH2 0x276 JUMP JUMPDEST SWAP3 POP POP PUSH1 0x1 DUP2 ADD SWAP1 POP PUSH2 0x2A7 JUMP JUMPDEST POP DUP6 SWAP4 POP POP POP POP SWAP3 SWAP2 POP POP JUMP JUMPDEST PUSH1 0x0 PUSH1 0x20 DUP3 ADD SWAP1 POP DUP2 DUP2 SUB PUSH1 0x0 DUP4 ADD MSTORE PUSH2 0x2FB DUP2 DUP5 PUSH2 0x283 JUMP JUMPDEST SWAP1 POP SWAP3 SWAP2 POP POP JUMP JUMPDEST PUSH32 0x4E487B7100000000000000000000000000000000000000000000000000000000 PUSH1 0x0 MSTORE PUSH1 0x11 PUSH1 0x4 MSTORE PUSH1 0x24 PUSH1 0x0 REVERT JUMPDEST PUSH1 0x0 DUP2 PUSH1 0x1 SHR SWAP1 POP SWAP2 SWAP1 POP JUMP JUMPDEST PUSH1 0x0 DUP1 DUP3 SWAP2 POP DUP4 SWAP1 POP JUMPDEST PUSH1 0x1 DUP6 GT ISZERO PUSH2 0x389 JUMPI DUP1 DUP7 DIV DUP2 GT ISZERO PUSH2 0x365 JUMPI PUSH2 0x364 PUSH2 0x303 JUMP JUMPDEST JUMPDEST PUSH1 0x1 DUP6 AND ISZERO PUSH2 0x374 JUMPI DUP1 DUP3 MUL SWAP2 POP JUMPDEST DUP1 DUP2 MUL SWAP1 POP PUSH2 0x382 DUP6 PUSH2 0x332 JUMP JUMPDEST SWAP5 POP PUSH2 0x349 JUMP JUMPDEST SWAP5 POP SWAP5 SWAP3 POP POP POP JUMP JUMPDEST PUSH1 0x0 DUP3 PUSH2 0x3A2 JUMPI PUSH1 0x1 SWAP1 POP PUSH2 0x45E JUMP JUMPDEST DUP2 PUSH2 0x3B0 JUMPI PUSH1 0x0 SWAP1 POP PUSH2 0x45E JUMP JUMPDEST DUP2 PUSH1 0x1 DUP2 EQ PUSH2 0x3C6 JUMPI PUSH1 0x2 DUP2 EQ PUSH2 0x3D0 JUMPI PUSH2 0x3FF JUMP JUMPDEST PUSH1 0x1 SWAP2 POP POP PUSH2 0x45E JUMP JUMPDEST PUSH1 0xFF DUP5 GT ISZERO PUSH2 0x3E2 JUMPI PUSH2 0x3E1 PUSH2 0x303 JUMP JUMPDEST JUMPDEST DUP4 PUSH1 0x2 EXP SWAP2 POP DUP5 DUP3 GT ISZERO PUSH2 0x3F9 JUMPI PUSH2 0x3F8 PUSH2 0x303 JUMP JUMPDEST JUMPDEST POP PUSH2 0x45E JUMP JUMPDEST POP PUSH1 0x20 DUP4 LT PUSH2 0x133 DUP4 LT AND PUSH1 0x4E DUP5 LT PUSH1 0xB DUP5 LT AND OR ISZERO PUSH2 0x434 JUMPI DUP3 DUP3 EXP SWAP1 POP DUP4 DUP2 GT ISZERO PUSH2 0x42F JUMPI PUSH2 0x42E PUSH2 0x303 JUMP JUMPDEST JUMPDEST PUSH2 0x45E JUMP JUMPDEST PUSH2 0x441 DUP5 DUP5 DUP5 PUSH1 0x1 PUSH2 0x33F JUMP JUMPDEST SWAP3 POP SWAP1 POP DUP2 DUP5 DIV DUP2 GT ISZERO PUSH2 0x458 JUMPI PUSH2 0x457 PUSH2 0x303 JUMP JUMPDEST JUMPDEST DUP2 DUP2 MUL SWAP1 POP JUMPDEST SWAP4 SWAP3 POP POP POP JUMP JUMPDEST PUSH1 0x0 PUSH2 0x470 DUP3 PUSH2 0x196 JUMP JUMPDEST SWAP2 POP PUSH2 0x47B DUP4 PUSH2 0x196 JUMP JUMPDEST SWAP3 POP PUSH2 0x4A8 PUSH32 0xFFFFFFFFFFFFFFFFFFFFFFFFFFFFFFFFFFFFFFFFFFFFFFFFFFFFFFFFFFFFFFFF DUP5 DUP5 PUSH2 0x392 JUMP JUMPDEST SWAP1 POP SWAP3 SWAP2 POP POP JUMP JUMPDEST PUSH1 0x0 PUSH2 0x4BB DUP3 PUSH2 0x196 JUMP JUMPDEST SWAP2 POP PUSH32 0xFFFFFFFFFFFFFFFFFFFFFFFFFFFFFFFFFFFFFFFFFFFFFFFFFFFFFFFFFFFFFFFF DUP3 SUB PUSH2 0x4ED JUMPI PUSH2 0x4EC PUSH2 0x303 JUMP JUMPDEST JUMPDEST PUSH1 0x1 DUP3 ADD SWAP1 POP SWAP2 SWAP1 POP JUMP JUMPDEST PUSH32 0x4E487B7100000000000000000000000000000000000000000000000000000000 PUSH1 0x0 MSTORE PUSH1 0x41 PUSH1 0x4 MSTORE PUSH1 0x24 PUSH1 0x0 REVERT JUMPDEST PUSH32 0x4E487B7100000000000000000000000000000000000000000000000000000000 PUSH1 0x0 MSTORE PUSH1 0x12 PUSH1 0x4 MSTORE PUSH1 0x24 PUSH1 0x0 REVERT JUMPDEST PUSH1 0x0 PUSH2 0x561 DUP3 PUSH2 0x196 JUMP JUMPDEST SWAP2 POP PUSH2 0x56C DUP4 PUSH2 0x196 JUMP JUMPDEST SWAP3 POP DUP3 PUSH2 0x57C JUMPI PUSH2 0x57B PUSH2 0x527 JUMP JUMPDEST JUMPDEST DUP3 DUP3 MOD SWAP1 POP SWAP3 SWAP2 POP POP JUMP JUMPDEST PUSH1 0x0 PUSH2 0x592 DUP3 PUSH2 0x196 JUMP JUMPDEST SWAP2 POP PUSH1 0x0 DUP3 SUB PUSH2 0x5A5 JUMPI PUSH2 0x5A4 PUSH2 0x303 JUMP JUMPDEST JUMPDEST PUSH1 0x1 DUP3 SUB SWAP1 POP SWAP2 SWAP1 POP JUMP JUMPDEST PUSH32 0x4E487B7100000000000000000000000000000000000000000000000000000000 PUSH1 0x0 MSTORE PUSH1 0x32 PUSH1 0x4 MSTORE PUSH1 0x24 PUSH1 0x0 REVERT JUMPDEST PUSH1 0x0 PUSH2 0x5EA DUP3 PUSH2 0x196 JUMP JUMPDEST SWAP2 POP PUSH2 0x5F5 DUP4 PUSH2 0x196 JUMP JUMPDEST SWAP3 POP DUP3 PUSH2 0x605 JUMPI PUSH2 0x604 PUSH2 0x527 JUMP JUMPDEST JUMPDEST DUP3 DUP3 DIV SWAP1 POP SWAP3 SWAP2 POP POP JUMP INVALID LOG2 PUSH5 0x6970667358 0x22 SLT KECCAK256 PUSH28 0xA4E48867C770A2F48965D4CB0163598A248FD56B1026113EBF26C9D0 GT BALANCE 0xC6 PUSH5 0x736F6C6343 STOP ADDMOD SLT STOP CALLER "
				},
				"gasEstimates": {
					"creation": {
						"codeDepositCost": "321200",
						"executionCost": "362",
						"totalCost": "321562"
					},
					"external": {
						"divideNumber(uint256)": "infinite",
						"getLength(uint256)": "infinite"
					}
				},
				"methodIdentifiers": {
					"divideNumber(uint256)": "2ac45d9c",
					"getLength(uint256)": "0986e647"
				}
			},
			"storageLayout": {
				"storage": [],
				"types": null
			},
			"userdoc": {
				"kind": "user",
				"methods": {},
				"version": 1
			}
		}
	}
}