{
	"contracts/230523/concat.sol": {
		"CONCAT": {
			"abi": [
				{
					"inputs": [
						{
							"internalType": "string",
							"name": "a",
							"type": "string"
						},
						{
							"internalType": "string",
							"name": "b",
							"type": "string"
						}
					],
					"name": "concat1",
					"outputs": [
						{
							"internalType": "string",
							"name": "",
							"type": "string"
						}
					],
					"stateMutability": "pure",
					"type": "function"
				},
				{
					"inputs": [
						{
							"internalType": "string",
							"name": "a",
							"type": "string"
						},
						{
							"internalType": "string",
							"name": "b",
							"type": "string"
						}
					],
					"name": "concat2",
					"outputs": [
						{
							"internalType": "string",
							"name": "",
							"type": "string"
						}
					],
					"stateMutability": "pure",
					"type": "function"
				},
				{
					"inputs": [
						{
							"internalType": "uint256",
							"name": "a",
							"type": "uint256"
						},
						{
							"internalType": "string",
							"name": "b",
							"type": "string"
						},
						{
							"internalType": "string",
							"name": "c",
							"type": "string"
						}
					],
					"name": "concat3",
					"outputs": [
						{
							"internalType": "string",
							"name": "",
							"type": "string"
						}
					],
					"stateMutability": "pure",
					"type": "function"
				},
				{
					"inputs": [
						{
							"internalType": "uint256",
							"name": "a",
							"type": "uint256"
						},
						{
							"internalType": "uint256",
							"name": "b",
							"type": "uint256"
						},
						{
							"internalType": "uint256",
							"name": "c",
							"type": "uint256"
						}
					],
					"name": "concat4",
					"outputs": [
						{
							"internalType": "string",
							"name": "",
							"type": "string"
						}
					],
					"stateMutability": "pure",
					"type": "function"
				},
				{
					"inputs": [
						{
							"internalType": "uint256",
							"name": "a",
							"type": "uint256"
						}
					],
					"name": "concat5",
					"outputs": [
						{
							"internalType": "string",
							"name": "",
							"type": "string"
						}
					],
					"stateMutability": "view",
					"type": "function"
				},
				{
					"inputs": [
						{
							"internalType": "uint256",
							"name": "n",
							"type": "uint256"
						}
					],
					"name": "concat6",
					"outputs": [
						{
							"internalType": "string",
							"name": "",
							"type": "string"
						}
					],
					"stateMutability": "pure",
					"type": "function"
				},
				{
					"inputs": [
						{
							"internalType": "uint256",
							"name": "a",
							"type": "uint256"
						},
						{
							"internalType": "string",
							"name": "b",
							"type": "string"
						}
					],
					"name": "returnEncodePacked",
					"outputs": [
						{
							"internalType": "bytes",
							"name": "",
							"type": "bytes"
						},
						{
							"internalType": "bytes",
							"name": "",
							"type": "bytes"
						}
					],
					"stateMutability": "pure",
					"type": "function"
				}
			],
			"devdoc": {
				"kind": "dev",
				"methods": {},
				"version": 1
			},
			"evm": {
				"assembly": "    /* \"contracts/230523/concat.sol\":61:1869  contract CONCAT {... */\n  mstore(0x40, 0x80)\n    /* \"contracts/230523/concat.sol\":952:960  new Q5() */\n  mload(0x40)\n  tag_1\n  swap1\n  tag_2\n  jump\t// in\ntag_1:\n  mload(0x40)\n  dup1\n  swap2\n  sub\n  swap1\n  0x00\n  create\n  dup1\n  iszero\n  dup1\n  iszero\n  tag_3\n  jumpi\n  returndatasize\n  0x00\n  dup1\n  returndatacopy\n  revert(0x00, returndatasize)\ntag_3:\n  pop\n    /* \"contracts/230523/concat.sol\":944:960  Q5 q5 = new Q5() */\n  0x00\n  dup1\n  0x0100\n  exp\n  dup2\n  sload\n  dup2\n  0xffffffffffffffffffffffffffffffffffffffff\n  mul\n  not\n  and\n  swap1\n  dup4\n  0xffffffffffffffffffffffffffffffffffffffff\n  and\n  mul\n  or\n  swap1\n  sstore\n  pop\n    /* \"contracts/230523/concat.sol\":61:1869  contract CONCAT {... */\n  callvalue\n  dup1\n  iszero\n  tag_4\n  jumpi\n  0x00\n  dup1\n  revert\ntag_4:\n  pop\n  jump(tag_5)\ntag_2:\n  dataSize(sub_1)\n  dup1\n  dataOffset(sub_1)\n  dup4\n  codecopy\n  add\n  swap1\n  jump\t// out\ntag_5:\n  dataSize(sub_0)\n  dup1\n  dataOffset(sub_0)\n  0x00\n  codecopy\n  0x00\n  return\nstop\n\nsub_0: assembly {\n        /* \"contracts/230523/concat.sol\":61:1869  contract CONCAT {... */\n      mstore(0x40, 0x80)\n      callvalue\n      dup1\n      iszero\n      tag_1\n      jumpi\n      0x00\n      dup1\n      revert\n    tag_1:\n      pop\n      jumpi(tag_2, lt(calldatasize, 0x04))\n      shr(0xe0, calldataload(0x00))\n      dup1\n      0x68677523\n      gt\n      tag_10\n      jumpi\n      dup1\n      0x68677523\n      eq\n      tag_6\n      jumpi\n      dup1\n      0xa8e61fb5\n      eq\n      tag_7\n      jumpi\n      dup1\n      0xbcbdef66\n      eq\n      tag_8\n      jumpi\n      dup1\n      0xd52f327d\n      eq\n      tag_9\n      jumpi\n      jump(tag_2)\n    tag_10:\n      dup1\n      0x09c3f4cf\n      eq\n      tag_3\n      jumpi\n      dup1\n      0x252a1437\n      eq\n      tag_4\n      jumpi\n      dup1\n      0x3d9799b4\n      eq\n      tag_5\n      jumpi\n    tag_2:\n      0x00\n      dup1\n      revert\n        /* \"contracts/230523/concat.sol\":1284:1866  function concat6(uint n) public pure returns(string memory) {... */\n    tag_3:\n      tag_11\n      0x04\n      dup1\n      calldatasize\n      sub\n      dup2\n      add\n      swap1\n      tag_12\n      swap2\n      swap1\n      tag_13\n      jump\t// in\n    tag_12:\n      tag_14\n      jump\t// in\n    tag_11:\n      mload(0x40)\n      tag_15\n      swap2\n      swap1\n      tag_16\n      jump\t// in\n    tag_15:\n      mload(0x40)\n      dup1\n      swap2\n      sub\n      swap1\n      return\n        /* \"contracts/230523/concat.sol\":233:402  function concat2(string memory a, string memory b) public pure returns(string memory) {... */\n    tag_4:\n      tag_17\n      0x04\n      dup1\n      calldatasize\n      sub\n      dup2\n      add\n      swap1\n      tag_18\n      swap2\n      swap1\n      tag_19\n      jump\t// in\n    tag_18:\n      tag_20\n      jump\t// in\n    tag_17:\n      mload(0x40)\n      tag_21\n      swap2\n      swap1\n      tag_16\n      jump\t// in\n    tag_21:\n      mload(0x40)\n      dup1\n      swap2\n      sub\n      swap1\n      return\n        /* \"contracts/230523/concat.sol\":84:225  function concat1(string memory a, string memory b) public pure returns(string memory) {... */\n    tag_5:\n      tag_22\n      0x04\n      dup1\n      calldatasize\n      sub\n      dup2\n      add\n      swap1\n      tag_23\n      swap2\n      swap1\n      tag_19\n      jump\t// in\n    tag_23:\n      tag_24\n      jump\t// in\n    tag_22:\n      mload(0x40)\n      tag_25\n      swap2\n      swap1\n      tag_16\n      jump\t// in\n    tag_25:\n      mload(0x40)\n      dup1\n      swap2\n      sub\n      swap1\n      return\n        /* \"contracts/230523/concat.sol\":569:738  function returnEncodePacked(uint a, string memory b) public pure returns(bytes memory, bytes memory) {... */\n    tag_6:\n      tag_26\n      0x04\n      dup1\n      calldatasize\n      sub\n      dup2\n      add\n      swap1\n      tag_27\n      swap2\n      swap1\n      tag_28\n      jump\t// in\n    tag_27:\n      tag_29\n      jump\t// in\n    tag_26:\n      mload(0x40)\n      tag_30\n      swap3\n      swap2\n      swap1\n      tag_31\n      jump\t// in\n    tag_30:\n      mload(0x40)\n      dup1\n      swap2\n      sub\n      swap1\n      return\n        /* \"contracts/230523/concat.sol\":969:1276  function concat5(uint a) public view returns(string memory) {... */\n    tag_7:\n      tag_32\n      0x04\n      dup1\n      calldatasize\n      sub\n      dup2\n      add\n      swap1\n      tag_33\n      swap2\n      swap1\n      tag_13\n      jump\t// in\n    tag_33:\n      tag_34\n      jump\t// in\n    tag_32:\n      mload(0x40)\n      tag_35\n      swap2\n      swap1\n      tag_16\n      jump\t// in\n    tag_35:\n      mload(0x40)\n      dup1\n      swap2\n      sub\n      swap1\n      return\n        /* \"contracts/230523/concat.sol\":746:936  function concat4(uint a, uint b, uint c) public pure returns(string memory) {... */\n    tag_8:\n      tag_36\n      0x04\n      dup1\n      calldatasize\n      sub\n      dup2\n      add\n      swap1\n      tag_37\n      swap2\n      swap1\n      tag_38\n      jump\t// in\n    tag_37:\n      tag_39\n      jump\t// in\n    tag_36:\n      mload(0x40)\n      tag_40\n      swap2\n      swap1\n      tag_16\n      jump\t// in\n    tag_40:\n      mload(0x40)\n      dup1\n      swap2\n      sub\n      swap1\n      return\n        /* \"contracts/230523/concat.sol\":410:561  function concat3(uint a, string memory b, string memory c) public pure returns(string memory) {... */\n    tag_9:\n      tag_41\n      0x04\n      dup1\n      calldatasize\n      sub\n      dup2\n      add\n      swap1\n      tag_42\n      swap2\n      swap1\n      tag_43\n      jump\t// in\n    tag_42:\n      tag_44\n      jump\t// in\n    tag_41:\n      mload(0x40)\n      tag_45\n      swap2\n      swap1\n      tag_16\n      jump\t// in\n    tag_45:\n      mload(0x40)\n      dup1\n      swap2\n      sub\n      swap1\n      return\n        /* \"contracts/230523/concat.sol\":1284:1866  function concat6(uint n) public pure returns(string memory) {... */\n    tag_14:\n        /* \"contracts/230523/concat.sol\":1329:1342  string memory */\n      0x60\n        /* \"contracts/230523/concat.sol\":1355:1365  uint count */\n      0x00\n        /* \"contracts/230523/concat.sol\":1376:1386  uint copyA */\n      dup1\n        /* \"contracts/230523/concat.sol\":1389:1390  n */\n      dup4\n        /* \"contracts/230523/concat.sol\":1376:1390  uint copyA = n */\n      swap1\n      pop\n        /* \"contracts/230523/concat.sol\":1401:1479  while(copyA != 0) {... */\n    tag_47:\n        /* \"contracts/230523/concat.sol\":1416:1417  0 */\n      0x00\n        /* \"contracts/230523/concat.sol\":1407:1412  copyA */\n      dup2\n        /* \"contracts/230523/concat.sol\":1407:1417  copyA != 0 */\n      eq\n        /* \"contracts/230523/concat.sol\":1401:1479  while(copyA != 0) {... */\n      tag_48\n      jumpi\n        /* \"contracts/230523/concat.sol\":1443:1445  10 */\n      0x0a\n        /* \"contracts/230523/concat.sol\":1434:1445  copyA /= 10 */\n      dup2\n      tag_49\n      swap2\n      swap1\n      tag_50\n      jump\t// in\n    tag_49:\n      swap1\n      pop\n        /* \"contracts/230523/concat.sol\":1460:1467  count++ */\n      dup2\n      dup1\n      tag_51\n      swap1\n      tag_52\n      jump\t// in\n    tag_51:\n      swap3\n      pop\n      pop\n        /* \"contracts/230523/concat.sol\":1401:1479  while(copyA != 0) {... */\n      jump(tag_47)\n    tag_48:\n        /* \"contracts/230523/concat.sol\":1491:1515  uint[] memory NumToArray */\n      0x00\n        /* \"contracts/230523/concat.sol\":1529:1534  count */\n      dup3\n        /* \"contracts/230523/concat.sol\":1518:1535  new uint[](count) */\n      0xffffffffffffffff\n      dup2\n      gt\n      iszero\n      tag_53\n      jumpi\n      tag_54\n      tag_55\n      jump\t// in\n    tag_54:\n    tag_53:\n      mload(0x40)\n      swap1\n      dup1\n      dup3\n      mstore\n      dup1\n      0x20\n      mul\n      0x20\n      add\n      dup3\n      add\n      0x40\n      mstore\n      dup1\n      iszero\n      tag_56\n      jumpi\n      dup2\n      0x20\n      add\n      0x20\n      dup3\n      mul\n      dup1\n      calldatasize\n      dup4\n      calldatacopy\n      dup1\n      dup3\n      add\n      swap2\n      pop\n      pop\n      swap1\n      pop\n    tag_56:\n      pop\n        /* \"contracts/230523/concat.sol\":1491:1535  uint[] memory NumToArray = new uint[](count) */\n      swap1\n      pop\n        /* \"contracts/230523/concat.sol\":1554:1555  n */\n      dup5\n        /* \"contracts/230523/concat.sol\":1546:1555  copyA = n */\n      swap2\n      pop\n        /* \"contracts/230523/concat.sol\":1566:1580  uint copyCount */\n      0x00\n        /* \"contracts/230523/concat.sol\":1583:1588  count */\n      dup4\n        /* \"contracts/230523/concat.sol\":1566:1588  uint copyCount = count */\n      swap1\n      pop\n        /* \"contracts/230523/concat.sol\":1599:1705  while(copyA != 0) {... */\n    tag_57:\n        /* \"contracts/230523/concat.sol\":1614:1615  0 */\n      0x00\n        /* \"contracts/230523/concat.sol\":1605:1610  copyA */\n      dup4\n        /* \"contracts/230523/concat.sol\":1605:1615  copyA != 0 */\n      eq\n        /* \"contracts/230523/concat.sol\":1599:1705  while(copyA != 0) {... */\n      tag_58\n      jumpi\n        /* \"contracts/230523/concat.sol\":1665:1667  10 */\n      0x0a\n        /* \"contracts/230523/concat.sol\":1659:1664  copyA */\n      dup4\n        /* \"contracts/230523/concat.sol\":1659:1667  copyA%10 */\n      tag_59\n      swap2\n      swap1\n      tag_60\n      jump\t// in\n    tag_59:\n        /* \"contracts/230523/concat.sol\":1632:1642  NumToArray */\n      dup3\n        /* \"contracts/230523/concat.sol\":1643:1654  --copyCount */\n      dup3\n      tag_61\n      swap1\n      tag_62\n      jump\t// in\n    tag_61:\n      swap3\n      pop\n      dup3\n        /* \"contracts/230523/concat.sol\":1632:1655  NumToArray[--copyCount] */\n      dup2\n      mload\n      dup2\n      lt\n      tag_63\n      jumpi\n      tag_64\n      tag_65\n      jump\t// in\n    tag_64:\n    tag_63:\n      0x20\n      mul\n      0x20\n      add\n      add\n        /* \"contracts/230523/concat.sol\":1632:1667  NumToArray[--copyCount] =  copyA%10 */\n      dup2\n      dup2\n      mstore\n      pop\n      pop\n        /* \"contracts/230523/concat.sol\":1691:1693  10 */\n      0x0a\n        /* \"contracts/230523/concat.sol\":1682:1693  copyA /= 10 */\n      dup4\n      tag_66\n      swap2\n      swap1\n      tag_50\n      jump\t// in\n    tag_66:\n      swap3\n      pop\n        /* \"contracts/230523/concat.sol\":1599:1705  while(copyA != 0) {... */\n      jump(tag_57)\n    tag_58:\n        /* \"contracts/230523/concat.sol\":1729:1735  uint i */\n      0x00\n        /* \"contracts/230523/concat.sol\":1725:1803  for(uint i = 0; i < count; i++) {... */\n    tag_67:\n        /* \"contracts/230523/concat.sol\":1745:1750  count */\n      dup5\n        /* \"contracts/230523/concat.sol\":1741:1742  i */\n      dup2\n        /* \"contracts/230523/concat.sol\":1741:1750  i < count */\n      lt\n        /* \"contracts/230523/concat.sol\":1725:1803  for(uint i = 0; i < count; i++) {... */\n      iszero\n      tag_68\n      jumpi\n        /* \"contracts/230523/concat.sol\":1789:1791  48 */\n      0x30\n        /* \"contracts/230523/concat.sol\":1772:1782  NumToArray */\n      dup4\n        /* \"contracts/230523/concat.sol\":1783:1784  i */\n      dup3\n        /* \"contracts/230523/concat.sol\":1772:1785  NumToArray[i] */\n      dup2\n      mload\n      dup2\n      lt\n      tag_70\n      jumpi\n      tag_71\n      tag_65\n      jump\t// in\n    tag_71:\n    tag_70:\n      0x20\n      mul\n      0x20\n      add\n      add\n        /* \"contracts/230523/concat.sol\":1772:1791  NumToArray[i] += 48 */\n      dup2\n      dup2\n      mload\n      tag_72\n      swap2\n      swap1\n      tag_73\n      jump\t// in\n    tag_72:\n      swap2\n      pop\n      dup2\n      dup2\n      mstore\n      pop\n      pop\n        /* \"contracts/230523/concat.sol\":1752:1755  i++ */\n      dup1\n      dup1\n      tag_74\n      swap1\n      tag_52\n      jump\t// in\n    tag_74:\n      swap2\n      pop\n      pop\n        /* \"contracts/230523/concat.sol\":1725:1803  for(uint i = 0; i < count; i++) {... */\n      jump(tag_67)\n    tag_68:\n      pop\n        /* \"contracts/230523/concat.sol\":1846:1856  NumToArray */\n      dup2\n        /* \"contracts/230523/concat.sol\":1829:1857  abi.encodePacked(NumToArray) */\n      add(0x20, mload(0x40))\n      tag_75\n      swap2\n      swap1\n      tag_76\n      jump\t// in\n    tag_75:\n      mload(0x40)\n      0x20\n      dup2\n      dup4\n      sub\n      sub\n      dup2\n      mstore\n      swap1\n      0x40\n      mstore\n        /* \"contracts/230523/concat.sol\":1815:1858  return string(abi.encodePacked(NumToArray)) */\n      swap5\n      pop\n      pop\n      pop\n      pop\n      pop\n        /* \"contracts/230523/concat.sol\":1284:1866  function concat6(uint n) public pure returns(string memory) {... */\n      swap2\n      swap1\n      pop\n      jump\t// out\n        /* \"contracts/230523/concat.sol\":233:402  function concat2(string memory a, string memory b) public pure returns(string memory) {... */\n    tag_20:\n        /* \"contracts/230523/concat.sol\":304:317  string memory */\n      0x60\n        /* \"contracts/230523/concat.sol\":351:352  a */\n      dup3\n        /* \"contracts/230523/concat.sol\":358:359  a */\n      dup4\n        /* \"contracts/230523/concat.sol\":361:362  a */\n      dup5\n        /* \"contracts/230523/concat.sol\":369:370  b */\n      dup5\n        /* \"contracts/230523/concat.sol\":377:378  b */\n      dup6\n        /* \"contracts/230523/concat.sol\":380:381  b */\n      dup7\n        /* \"contracts/230523/concat.sol\":337:382  string.concat(a,\":\", a, a, \" \", b, \":\", b, b) */\n      add(0x20, mload(0x40))\n      tag_78\n      swap7\n      swap6\n      swap5\n      swap4\n      swap3\n      swap2\n      swap1\n      tag_79\n      jump\t// in\n    tag_78:\n      mload(0x40)\n      0x20\n      dup2\n      dup4\n      sub\n      sub\n      dup2\n      mstore\n      swap1\n      0x40\n      mstore\n        /* \"contracts/230523/concat.sol\":330:382  return string.concat(a,\":\", a, a, \" \", b, \":\", b, b) */\n      swap1\n      pop\n        /* \"contracts/230523/concat.sol\":233:402  function concat2(string memory a, string memory b) public pure returns(string memory) {... */\n      swap3\n      swap2\n      pop\n      pop\n      jump\t// out\n        /* \"contracts/230523/concat.sol\":84:225  function concat1(string memory a, string memory b) public pure returns(string memory) {... */\n    tag_24:\n        /* \"contracts/230523/concat.sol\":155:168  string memory */\n      0x60\n        /* \"contracts/230523/concat.sol\":212:213  a */\n      dup3\n        /* \"contracts/230523/concat.sol\":214:215  b */\n      dup3\n        /* \"contracts/230523/concat.sol\":195:216  abi.encodePacked(a,b) */\n      add(0x20, mload(0x40))\n      tag_81\n      swap3\n      swap2\n      swap1\n      tag_82\n      jump\t// in\n    tag_81:\n      mload(0x40)\n      0x20\n      dup2\n      dup4\n      sub\n      sub\n      dup2\n      mstore\n      swap1\n      0x40\n      mstore\n        /* \"contracts/230523/concat.sol\":181:217  return string(abi.encodePacked(a,b)) */\n      swap1\n      pop\n        /* \"contracts/230523/concat.sol\":84:225  function concat1(string memory a, string memory b) public pure returns(string memory) {... */\n      swap3\n      swap2\n      pop\n      pop\n      jump\t// out\n        /* \"contracts/230523/concat.sol\":569:738  function returnEncodePacked(uint a, string memory b) public pure returns(bytes memory, bytes memory) {... */\n    tag_29:\n        /* \"contracts/230523/concat.sol\":642:654  bytes memory */\n      0x60\n        /* \"contracts/230523/concat.sol\":656:668  bytes memory */\n      dup1\n        /* \"contracts/230523/concat.sol\":706:707  a */\n      dup4\n        /* \"contracts/230523/concat.sol\":689:708  abi.encodePacked(a) */\n      add(0x20, mload(0x40))\n      tag_84\n      swap2\n      swap1\n      tag_85\n      jump\t// in\n    tag_84:\n      mload(0x40)\n      0x20\n      dup2\n      dup4\n      sub\n      sub\n      dup2\n      mstore\n      swap1\n      0x40\n      mstore\n        /* \"contracts/230523/concat.sol\":727:728  b */\n      dup4\n        /* \"contracts/230523/concat.sol\":710:729  abi.encodePacked(b) */\n      add(0x20, mload(0x40))\n      tag_86\n      swap2\n      swap1\n      tag_87\n      jump\t// in\n    tag_86:\n      mload(0x40)\n      0x20\n      dup2\n      dup4\n      sub\n      sub\n      dup2\n      mstore\n      swap1\n      0x40\n      mstore\n        /* \"contracts/230523/concat.sol\":681:730  return (abi.encodePacked(a), abi.encodePacked(b)) */\n      swap2\n      pop\n      swap2\n      pop\n        /* \"contracts/230523/concat.sol\":569:738  function returnEncodePacked(uint a, string memory b) public pure returns(bytes memory, bytes memory) {... */\n      swap3\n      pop\n      swap3\n      swap1\n      pop\n      jump\t// out\n        /* \"contracts/230523/concat.sol\":969:1276  function concat5(uint a) public view returns(string memory) {... */\n    tag_34:\n        /* \"contracts/230523/concat.sol\":1014:1027  string memory */\n      0x60\n        /* \"contracts/230523/concat.sol\":1040:1046  uint b */\n      0x00\n        /* \"contracts/230523/concat.sol\":1049:1051  q5 */\n      dup1\n      0x00\n      swap1\n      sload\n      swap1\n      0x0100\n      exp\n      swap1\n      div\n      0xffffffffffffffffffffffffffffffffffffffff\n      and\n        /* \"contracts/230523/concat.sol\":1049:1061  q5.getLength */\n      0xffffffffffffffffffffffffffffffffffffffff\n      and\n      0x0986e647\n        /* \"contracts/230523/concat.sol\":1062:1063  a */\n      dup5\n        /* \"contracts/230523/concat.sol\":1049:1064  q5.getLength(a) */\n      mload(0x40)\n      dup3\n      0xffffffff\n      and\n      0xe0\n      shl\n      dup2\n      mstore\n      0x04\n      add\n      tag_89\n      swap2\n      swap1\n      tag_90\n      jump\t// in\n    tag_89:\n      0x20\n      mload(0x40)\n      dup1\n      dup4\n      sub\n      dup2\n      dup7\n      gas\n      staticcall\n      iszero\n      dup1\n      iszero\n      tag_92\n      jumpi\n      returndatasize\n      0x00\n      dup1\n      returndatacopy\n      revert(0x00, returndatasize)\n    tag_92:\n      pop\n      pop\n      pop\n      pop\n      mload(0x40)\n      returndatasize\n      not(0x1f)\n      0x1f\n      dup3\n      add\n      and\n      dup3\n      add\n      dup1\n      0x40\n      mstore\n      pop\n      dup2\n      add\n      swap1\n      tag_93\n      swap2\n      swap1\n      tag_94\n      jump\t// in\n    tag_93:\n        /* \"contracts/230523/concat.sol\":1040:1064  uint b = q5.getLength(a) */\n      swap1\n      pop\n        /* \"contracts/230523/concat.sol\":1075:1090  uint[] memory c */\n      0x00\n        /* \"contracts/230523/concat.sol\":1104:1105  b */\n      dup2\n        /* \"contracts/230523/concat.sol\":1093:1106  new uint[](b) */\n      0xffffffffffffffff\n      dup2\n      gt\n      iszero\n      tag_95\n      jumpi\n      tag_96\n      tag_55\n      jump\t// in\n    tag_96:\n    tag_95:\n      mload(0x40)\n      swap1\n      dup1\n      dup3\n      mstore\n      dup1\n      0x20\n      mul\n      0x20\n      add\n      dup3\n      add\n      0x40\n      mstore\n      dup1\n      iszero\n      tag_97\n      jumpi\n      dup2\n      0x20\n      add\n      0x20\n      dup3\n      mul\n      dup1\n      calldatasize\n      dup4\n      calldatacopy\n      dup1\n      dup3\n      add\n      swap2\n      pop\n      pop\n      swap1\n      pop\n    tag_97:\n      pop\n        /* \"contracts/230523/concat.sol\":1075:1106  uint[] memory c = new uint[](b) */\n      swap1\n      pop\n        /* \"contracts/230523/concat.sol\":1121:1123  q5 */\n      0x00\n      dup1\n      sload\n      swap1\n      0x0100\n      exp\n      swap1\n      div\n      0xffffffffffffffffffffffffffffffffffffffff\n      and\n        /* \"contracts/230523/concat.sol\":1121:1136  q5.divideNumber */\n      0xffffffffffffffffffffffffffffffffffffffff\n      and\n      0x2ac45d9c\n        /* \"contracts/230523/concat.sol\":1137:1138  a */\n      dup6\n        /* \"contracts/230523/concat.sol\":1121:1139  q5.divideNumber(a) */\n      mload(0x40)\n      dup3\n      0xffffffff\n      and\n      0xe0\n      shl\n      dup2\n      mstore\n      0x04\n      add\n      tag_98\n      swap2\n      swap1\n      tag_90\n      jump\t// in\n    tag_98:\n      0x00\n      mload(0x40)\n      dup1\n      dup4\n      sub\n      dup2\n      dup7\n      gas\n      staticcall\n      iszero\n      dup1\n      iszero\n      tag_100\n      jumpi\n      returndatasize\n      0x00\n      dup1\n      returndatacopy\n      revert(0x00, returndatasize)\n    tag_100:\n      pop\n      pop\n      pop\n      pop\n      mload(0x40)\n      returndatasize\n      0x00\n      dup3\n      returndatacopy\n      returndatasize\n      not(0x1f)\n      0x1f\n      dup3\n      add\n      and\n      dup3\n      add\n      dup1\n      0x40\n      mstore\n      pop\n      dup2\n      add\n      swap1\n      tag_101\n      swap2\n      swap1\n      tag_102\n      jump\t// in\n    tag_101:\n        /* \"contracts/230523/concat.sol\":1117:1139  c = q5.divideNumber(a) */\n      swap1\n      pop\n        /* \"contracts/230523/concat.sol\":1154:1160  uint i */\n      0x00\n        /* \"contracts/230523/concat.sol\":1150:1222  for(uint i = 0; i < c.length; i++) {... */\n    tag_103:\n        /* \"contracts/230523/concat.sol\":1170:1171  c */\n      dup2\n        /* \"contracts/230523/concat.sol\":1170:1178  c.length */\n      mload\n        /* \"contracts/230523/concat.sol\":1166:1167  i */\n      dup2\n        /* \"contracts/230523/concat.sol\":1166:1178  i < c.length */\n      lt\n        /* \"contracts/230523/concat.sol\":1150:1222  for(uint i = 0; i < c.length; i++) {... */\n      iszero\n      tag_104\n      jumpi\n        /* \"contracts/230523/concat.sol\":1208:1210  48 */\n      0x30\n        /* \"contracts/230523/concat.sol\":1200:1201  c */\n      dup3\n        /* \"contracts/230523/concat.sol\":1202:1203  i */\n      dup3\n        /* \"contracts/230523/concat.sol\":1200:1204  c[i] */\n      dup2\n      mload\n      dup2\n      lt\n      tag_106\n      jumpi\n      tag_107\n      tag_65\n      jump\t// in\n    tag_107:\n    tag_106:\n      0x20\n      mul\n      0x20\n      add\n      add\n        /* \"contracts/230523/concat.sol\":1200:1210  c[i] += 48 */\n      dup2\n      dup2\n      mload\n      tag_108\n      swap2\n      swap1\n      tag_73\n      jump\t// in\n    tag_108:\n      swap2\n      pop\n      dup2\n      dup2\n      mstore\n      pop\n      pop\n        /* \"contracts/230523/concat.sol\":1180:1183  i++ */\n      dup1\n      dup1\n      tag_109\n      swap1\n      tag_52\n      jump\t// in\n    tag_109:\n      swap2\n      pop\n      pop\n        /* \"contracts/230523/concat.sol\":1150:1222  for(uint i = 0; i < c.length; i++) {... */\n      jump(tag_103)\n    tag_104:\n      pop\n        /* \"contracts/230523/concat.sol\":1265:1266  c */\n      dup1\n        /* \"contracts/230523/concat.sol\":1248:1267  abi.encodePacked(c) */\n      add(0x20, mload(0x40))\n      tag_110\n      swap2\n      swap1\n      tag_76\n      jump\t// in\n    tag_110:\n      mload(0x40)\n      0x20\n      dup2\n      dup4\n      sub\n      sub\n      dup2\n      mstore\n      swap1\n      0x40\n      mstore\n        /* \"contracts/230523/concat.sol\":1234:1268  return string(abi.encodePacked(c)) */\n      swap3\n      pop\n      pop\n      pop\n        /* \"contracts/230523/concat.sol\":969:1276  function concat5(uint a) public view returns(string memory) {... */\n      swap2\n      swap1\n      pop\n      jump\t// out\n        /* \"contracts/230523/concat.sol\":746:936  function concat4(uint a, uint b, uint c) public pure returns(string memory) {... */\n    tag_39:\n        /* \"contracts/230523/concat.sol\":807:820  string memory */\n      0x60\n        /* \"contracts/230523/concat.sol\":839:841  48 */\n      0x30\n        /* \"contracts/230523/concat.sol\":837:838  a */\n      dup5\n        /* \"contracts/230523/concat.sol\":837:841  a+48 */\n      tag_112\n      swap2\n      swap1\n      tag_73\n      jump\t// in\n    tag_112:\n        /* \"contracts/230523/concat.sol\":833:841  a = a+48 */\n      swap4\n      pop\n        /* \"contracts/230523/concat.sol\":858:860  48 */\n      0x30\n        /* \"contracts/230523/concat.sol\":856:857  b */\n      dup4\n        /* \"contracts/230523/concat.sol\":856:860  b+48 */\n      tag_113\n      swap2\n      swap1\n      tag_73\n      jump\t// in\n    tag_113:\n        /* \"contracts/230523/concat.sol\":852:860  b = b+48 */\n      swap3\n      pop\n        /* \"contracts/230523/concat.sol\":877:879  48 */\n      0x30\n        /* \"contracts/230523/concat.sol\":875:876  c */\n      dup3\n        /* \"contracts/230523/concat.sol\":875:879  c+48 */\n      tag_114\n      swap2\n      swap1\n      tag_73\n      jump\t// in\n    tag_114:\n        /* \"contracts/230523/concat.sol\":871:879  c = c+48 */\n      swap2\n      pop\n        /* \"contracts/230523/concat.sol\":921:922  a */\n      dup4\n        /* \"contracts/230523/concat.sol\":923:924  b */\n      dup4\n        /* \"contracts/230523/concat.sol\":925:926  c */\n      dup4\n        /* \"contracts/230523/concat.sol\":904:927  abi.encodePacked(a,b,c) */\n      add(0x20, mload(0x40))\n      tag_115\n      swap4\n      swap3\n      swap2\n      swap1\n      tag_116\n      jump\t// in\n    tag_115:\n      mload(0x40)\n      0x20\n      dup2\n      dup4\n      sub\n      sub\n      dup2\n      mstore\n      swap1\n      0x40\n      mstore\n        /* \"contracts/230523/concat.sol\":890:928  return string(abi.encodePacked(a,b,c)) */\n      swap1\n      pop\n        /* \"contracts/230523/concat.sol\":746:936  function concat4(uint a, uint b, uint c) public pure returns(string memory) {... */\n      swap4\n      swap3\n      pop\n      pop\n      pop\n      jump\t// out\n        /* \"contracts/230523/concat.sol\":410:561  function concat3(uint a, string memory b, string memory c) public pure returns(string memory) {... */\n    tag_44:\n        /* \"contracts/230523/concat.sol\":489:502  string memory */\n      0x60\n        /* \"contracts/230523/concat.sol\":546:547  a */\n      dup4\n        /* \"contracts/230523/concat.sol\":548:549  b */\n      dup4\n        /* \"contracts/230523/concat.sol\":550:551  c */\n      dup4\n        /* \"contracts/230523/concat.sol\":529:552  abi.encodePacked(a,b,c) */\n      add(0x20, mload(0x40))\n      tag_118\n      swap4\n      swap3\n      swap2\n      swap1\n      tag_119\n      jump\t// in\n    tag_118:\n      mload(0x40)\n      0x20\n      dup2\n      dup4\n      sub\n      sub\n      dup2\n      mstore\n      swap1\n      0x40\n      mstore\n        /* \"contracts/230523/concat.sol\":515:553  return string(abi.encodePacked(a,b,c)) */\n      swap1\n      pop\n        /* \"contracts/230523/concat.sol\":410:561  function concat3(uint a, string memory b, string memory c) public pure returns(string memory) {... */\n      swap4\n      swap3\n      pop\n      pop\n      pop\n      jump\t// out\n        /* \"#utility.yul\":7:82   */\n    tag_120:\n        /* \"#utility.yul\":40:46   */\n      0x00\n        /* \"#utility.yul\":73:75   */\n      0x40\n        /* \"#utility.yul\":67:76   */\n      mload\n        /* \"#utility.yul\":57:76   */\n      swap1\n      pop\n        /* \"#utility.yul\":7:82   */\n      swap1\n      jump\t// out\n        /* \"#utility.yul\":88:205   */\n    tag_121:\n        /* \"#utility.yul\":197:198   */\n      0x00\n        /* \"#utility.yul\":194:195   */\n      dup1\n        /* \"#utility.yul\":187:199   */\n      revert\n        /* \"#utility.yul\":211:328   */\n    tag_122:\n        /* \"#utility.yul\":320:321   */\n      0x00\n        /* \"#utility.yul\":317:318   */\n      dup1\n        /* \"#utility.yul\":310:322   */\n      revert\n        /* \"#utility.yul\":334:411   */\n    tag_123:\n        /* \"#utility.yul\":371:378   */\n      0x00\n        /* \"#utility.yul\":400:405   */\n      dup2\n        /* \"#utility.yul\":389:405   */\n      swap1\n      pop\n        /* \"#utility.yul\":334:411   */\n      swap2\n      swap1\n      pop\n      jump\t// out\n        /* \"#utility.yul\":417:539   */\n    tag_124:\n        /* \"#utility.yul\":490:514   */\n      tag_169\n        /* \"#utility.yul\":508:513   */\n      dup2\n        /* \"#utility.yul\":490:514   */\n      tag_123\n      jump\t// in\n    tag_169:\n        /* \"#utility.yul\":483:488   */\n      dup2\n        /* \"#utility.yul\":480:515   */\n      eq\n        /* \"#utility.yul\":470:533   */\n      tag_170\n      jumpi\n        /* \"#utility.yul\":529:530   */\n      0x00\n        /* \"#utility.yul\":526:527   */\n      dup1\n        /* \"#utility.yul\":519:531   */\n      revert\n        /* \"#utility.yul\":470:533   */\n    tag_170:\n        /* \"#utility.yul\":417:539   */\n      pop\n      jump\t// out\n        /* \"#utility.yul\":545:684   */\n    tag_125:\n        /* \"#utility.yul\":591:596   */\n      0x00\n        /* \"#utility.yul\":629:635   */\n      dup2\n        /* \"#utility.yul\":616:636   */\n      calldataload\n        /* \"#utility.yul\":607:636   */\n      swap1\n      pop\n        /* \"#utility.yul\":645:678   */\n      tag_172\n        /* \"#utility.yul\":672:677   */\n      dup2\n        /* \"#utility.yul\":645:678   */\n      tag_124\n      jump\t// in\n    tag_172:\n        /* \"#utility.yul\":545:684   */\n      swap3\n      swap2\n      pop\n      pop\n      jump\t// out\n        /* \"#utility.yul\":690:1019   */\n    tag_13:\n        /* \"#utility.yul\":749:755   */\n      0x00\n        /* \"#utility.yul\":798:800   */\n      0x20\n        /* \"#utility.yul\":786:795   */\n      dup3\n        /* \"#utility.yul\":777:784   */\n      dup5\n        /* \"#utility.yul\":773:796   */\n      sub\n        /* \"#utility.yul\":769:801   */\n      slt\n        /* \"#utility.yul\":766:885   */\n      iszero\n      tag_174\n      jumpi\n        /* \"#utility.yul\":804:883   */\n      tag_175\n      tag_121\n      jump\t// in\n    tag_175:\n        /* \"#utility.yul\":766:885   */\n    tag_174:\n        /* \"#utility.yul\":924:925   */\n      0x00\n        /* \"#utility.yul\":949:1002   */\n      tag_176\n        /* \"#utility.yul\":994:1001   */\n      dup5\n        /* \"#utility.yul\":985:991   */\n      dup3\n        /* \"#utility.yul\":974:983   */\n      dup6\n        /* \"#utility.yul\":970:992   */\n      add\n        /* \"#utility.yul\":949:1002   */\n      tag_125\n      jump\t// in\n    tag_176:\n        /* \"#utility.yul\":939:1002   */\n      swap2\n      pop\n        /* \"#utility.yul\":895:1012   */\n      pop\n        /* \"#utility.yul\":690:1019   */\n      swap3\n      swap2\n      pop\n      pop\n      jump\t// out\n        /* \"#utility.yul\":1025:1124   */\n    tag_126:\n        /* \"#utility.yul\":1077:1083   */\n      0x00\n        /* \"#utility.yul\":1111:1116   */\n      dup2\n        /* \"#utility.yul\":1105:1117   */\n      mload\n        /* \"#utility.yul\":1095:1117   */\n      swap1\n      pop\n        /* \"#utility.yul\":1025:1124   */\n      swap2\n      swap1\n      pop\n      jump\t// out\n        /* \"#utility.yul\":1130:1299   */\n    tag_127:\n        /* \"#utility.yul\":1214:1225   */\n      0x00\n        /* \"#utility.yul\":1248:1254   */\n      dup3\n        /* \"#utility.yul\":1243:1246   */\n      dup3\n        /* \"#utility.yul\":1236:1255   */\n      mstore\n        /* \"#utility.yul\":1288:1292   */\n      0x20\n        /* \"#utility.yul\":1283:1286   */\n      dup3\n        /* \"#utility.yul\":1279:1293   */\n      add\n        /* \"#utility.yul\":1264:1293   */\n      swap1\n      pop\n        /* \"#utility.yul\":1130:1299   */\n      swap3\n      swap2\n      pop\n      pop\n      jump\t// out\n        /* \"#utility.yul\":1305:1551   */\n    tag_128:\n        /* \"#utility.yul\":1386:1387   */\n      0x00\n        /* \"#utility.yul\":1396:1509   */\n    tag_180:\n        /* \"#utility.yul\":1410:1416   */\n      dup4\n        /* \"#utility.yul\":1407:1408   */\n      dup2\n        /* \"#utility.yul\":1404:1417   */\n      lt\n        /* \"#utility.yul\":1396:1509   */\n      iszero\n      tag_182\n      jumpi\n        /* \"#utility.yul\":1495:1496   */\n      dup1\n        /* \"#utility.yul\":1490:1493   */\n      dup3\n        /* \"#utility.yul\":1486:1497   */\n      add\n        /* \"#utility.yul\":1480:1498   */\n      mload\n        /* \"#utility.yul\":1476:1477   */\n      dup2\n        /* \"#utility.yul\":1471:1474   */\n      dup5\n        /* \"#utility.yul\":1467:1478   */\n      add\n        /* \"#utility.yul\":1460:1499   */\n      mstore\n        /* \"#utility.yul\":1432:1434   */\n      0x20\n        /* \"#utility.yul\":1429:1430   */\n      dup2\n        /* \"#utility.yul\":1425:1435   */\n      add\n        /* \"#utility.yul\":1420:1435   */\n      swap1\n      pop\n        /* \"#utility.yul\":1396:1509   */\n      jump(tag_180)\n    tag_182:\n        /* \"#utility.yul\":1543:1544   */\n      0x00\n        /* \"#utility.yul\":1534:1540   */\n      dup5\n        /* \"#utility.yul\":1529:1532   */\n      dup5\n        /* \"#utility.yul\":1525:1541   */\n      add\n        /* \"#utility.yul\":1518:1545   */\n      mstore\n        /* \"#utility.yul\":1367:1551   */\n      pop\n        /* \"#utility.yul\":1305:1551   */\n      pop\n      pop\n      pop\n      jump\t// out\n        /* \"#utility.yul\":1557:1659   */\n    tag_129:\n        /* \"#utility.yul\":1598:1604   */\n      0x00\n        /* \"#utility.yul\":1649:1651   */\n      0x1f\n        /* \"#utility.yul\":1645:1652   */\n      not\n        /* \"#utility.yul\":1640:1642   */\n      0x1f\n        /* \"#utility.yul\":1633:1638   */\n      dup4\n        /* \"#utility.yul\":1629:1643   */\n      add\n        /* \"#utility.yul\":1625:1653   */\n      and\n        /* \"#utility.yul\":1615:1653   */\n      swap1\n      pop\n        /* \"#utility.yul\":1557:1659   */\n      swap2\n      swap1\n      pop\n      jump\t// out\n        /* \"#utility.yul\":1665:2042   */\n    tag_130:\n        /* \"#utility.yul\":1753:1756   */\n      0x00\n        /* \"#utility.yul\":1781:1820   */\n      tag_185\n        /* \"#utility.yul\":1814:1819   */\n      dup3\n        /* \"#utility.yul\":1781:1820   */\n      tag_126\n      jump\t// in\n    tag_185:\n        /* \"#utility.yul\":1836:1907   */\n      tag_186\n        /* \"#utility.yul\":1900:1906   */\n      dup2\n        /* \"#utility.yul\":1895:1898   */\n      dup6\n        /* \"#utility.yul\":1836:1907   */\n      tag_127\n      jump\t// in\n    tag_186:\n        /* \"#utility.yul\":1829:1907   */\n      swap4\n      pop\n        /* \"#utility.yul\":1916:1981   */\n      tag_187\n        /* \"#utility.yul\":1974:1980   */\n      dup2\n        /* \"#utility.yul\":1969:1972   */\n      dup6\n        /* \"#utility.yul\":1962:1966   */\n      0x20\n        /* \"#utility.yul\":1955:1960   */\n      dup7\n        /* \"#utility.yul\":1951:1967   */\n      add\n        /* \"#utility.yul\":1916:1981   */\n      tag_128\n      jump\t// in\n    tag_187:\n        /* \"#utility.yul\":2006:2035   */\n      tag_188\n        /* \"#utility.yul\":2028:2034   */\n      dup2\n        /* \"#utility.yul\":2006:2035   */\n      tag_129\n      jump\t// in\n    tag_188:\n        /* \"#utility.yul\":2001:2004   */\n      dup5\n        /* \"#utility.yul\":1997:2036   */\n      add\n        /* \"#utility.yul\":1990:2036   */\n      swap2\n      pop\n        /* \"#utility.yul\":1757:2042   */\n      pop\n        /* \"#utility.yul\":1665:2042   */\n      swap3\n      swap2\n      pop\n      pop\n      jump\t// out\n        /* \"#utility.yul\":2048:2361   */\n    tag_16:\n        /* \"#utility.yul\":2161:2165   */\n      0x00\n        /* \"#utility.yul\":2199:2201   */\n      0x20\n        /* \"#utility.yul\":2188:2197   */\n      dup3\n        /* \"#utility.yul\":2184:2202   */\n      add\n        /* \"#utility.yul\":2176:2202   */\n      swap1\n      pop\n        /* \"#utility.yul\":2248:2257   */\n      dup2\n        /* \"#utility.yul\":2242:2246   */\n      dup2\n        /* \"#utility.yul\":2238:2258   */\n      sub\n        /* \"#utility.yul\":2234:2235   */\n      0x00\n        /* \"#utility.yul\":2223:2232   */\n      dup4\n        /* \"#utility.yul\":2219:2236   */\n      add\n        /* \"#utility.yul\":2212:2259   */\n      mstore\n        /* \"#utility.yul\":2276:2354   */\n      tag_190\n        /* \"#utility.yul\":2349:2353   */\n      dup2\n        /* \"#utility.yul\":2340:2346   */\n      dup5\n        /* \"#utility.yul\":2276:2354   */\n      tag_130\n      jump\t// in\n    tag_190:\n        /* \"#utility.yul\":2268:2354   */\n      swap1\n      pop\n        /* \"#utility.yul\":2048:2361   */\n      swap3\n      swap2\n      pop\n      pop\n      jump\t// out\n        /* \"#utility.yul\":2367:2484   */\n    tag_131:\n        /* \"#utility.yul\":2476:2477   */\n      0x00\n        /* \"#utility.yul\":2473:2474   */\n      dup1\n        /* \"#utility.yul\":2466:2478   */\n      revert\n        /* \"#utility.yul\":2490:2607   */\n    tag_132:\n        /* \"#utility.yul\":2599:2600   */\n      0x00\n        /* \"#utility.yul\":2596:2597   */\n      dup1\n        /* \"#utility.yul\":2589:2601   */\n      revert\n        /* \"#utility.yul\":2613:2793   */\n    tag_55:\n        /* \"#utility.yul\":2661:2738   */\n      0x4e487b7100000000000000000000000000000000000000000000000000000000\n        /* \"#utility.yul\":2658:2659   */\n      0x00\n        /* \"#utility.yul\":2651:2739   */\n      mstore\n        /* \"#utility.yul\":2758:2762   */\n      0x41\n        /* \"#utility.yul\":2755:2756   */\n      0x04\n        /* \"#utility.yul\":2748:2763   */\n      mstore\n        /* \"#utility.yul\":2782:2786   */\n      0x24\n        /* \"#utility.yul\":2779:2780   */\n      0x00\n        /* \"#utility.yul\":2772:2787   */\n      revert\n        /* \"#utility.yul\":2799:3080   */\n    tag_133:\n        /* \"#utility.yul\":2882:2909   */\n      tag_195\n        /* \"#utility.yul\":2904:2908   */\n      dup3\n        /* \"#utility.yul\":2882:2909   */\n      tag_129\n      jump\t// in\n    tag_195:\n        /* \"#utility.yul\":2874:2880   */\n      dup2\n        /* \"#utility.yul\":2870:2910   */\n      add\n        /* \"#utility.yul\":3012:3018   */\n      dup2\n        /* \"#utility.yul\":3000:3010   */\n      dup2\n        /* \"#utility.yul\":2997:3019   */\n      lt\n        /* \"#utility.yul\":2976:2994   */\n      0xffffffffffffffff\n        /* \"#utility.yul\":2964:2974   */\n      dup3\n        /* \"#utility.yul\":2961:2995   */\n      gt\n        /* \"#utility.yul\":2958:3020   */\n      or\n        /* \"#utility.yul\":2955:3043   */\n      iszero\n      tag_196\n      jumpi\n        /* \"#utility.yul\":3023:3041   */\n      tag_197\n      tag_55\n      jump\t// in\n    tag_197:\n        /* \"#utility.yul\":2955:3043   */\n    tag_196:\n        /* \"#utility.yul\":3063:3073   */\n      dup1\n        /* \"#utility.yul\":3059:3061   */\n      0x40\n        /* \"#utility.yul\":3052:3074   */\n      mstore\n        /* \"#utility.yul\":2842:3080   */\n      pop\n        /* \"#utility.yul\":2799:3080   */\n      pop\n      pop\n      jump\t// out\n        /* \"#utility.yul\":3086:3215   */\n    tag_134:\n        /* \"#utility.yul\":3120:3126   */\n      0x00\n        /* \"#utility.yul\":3147:3167   */\n      tag_199\n      tag_120\n      jump\t// in\n    tag_199:\n        /* \"#utility.yul\":3137:3167   */\n      swap1\n      pop\n        /* \"#utility.yul\":3176:3209   */\n      tag_200\n        /* \"#utility.yul\":3204:3208   */\n      dup3\n        /* \"#utility.yul\":3196:3202   */\n      dup3\n        /* \"#utility.yul\":3176:3209   */\n      tag_133\n      jump\t// in\n    tag_200:\n        /* \"#utility.yul\":3086:3215   */\n      swap2\n      swap1\n      pop\n      jump\t// out\n        /* \"#utility.yul\":3221:3529   */\n    tag_135:\n        /* \"#utility.yul\":3283:3287   */\n      0x00\n        /* \"#utility.yul\":3373:3391   */\n      0xffffffffffffffff\n        /* \"#utility.yul\":3365:3371   */\n      dup3\n        /* \"#utility.yul\":3362:3392   */\n      gt\n        /* \"#utility.yul\":3359:3415   */\n      iszero\n      tag_202\n      jumpi\n        /* \"#utility.yul\":3395:3413   */\n      tag_203\n      tag_55\n      jump\t// in\n    tag_203:\n        /* \"#utility.yul\":3359:3415   */\n    tag_202:\n        /* \"#utility.yul\":3433:3462   */\n      tag_204\n        /* \"#utility.yul\":3455:3461   */\n      dup3\n        /* \"#utility.yul\":3433:3462   */\n      tag_129\n      jump\t// in\n    tag_204:\n        /* \"#utility.yul\":3425:3462   */\n      swap1\n      pop\n        /* \"#utility.yul\":3517:3521   */\n      0x20\n        /* \"#utility.yul\":3511:3515   */\n      dup2\n        /* \"#utility.yul\":3507:3522   */\n      add\n        /* \"#utility.yul\":3499:3522   */\n      swap1\n      pop\n        /* \"#utility.yul\":3221:3529   */\n      swap2\n      swap1\n      pop\n      jump\t// out\n        /* \"#utility.yul\":3535:3681   */\n    tag_136:\n        /* \"#utility.yul\":3632:3638   */\n      dup3\n        /* \"#utility.yul\":3627:3630   */\n      dup2\n        /* \"#utility.yul\":3622:3625   */\n      dup4\n        /* \"#utility.yul\":3609:3639   */\n      calldatacopy\n        /* \"#utility.yul\":3673:3674   */\n      0x00\n        /* \"#utility.yul\":3664:3670   */\n      dup4\n        /* \"#utility.yul\":3659:3662   */\n      dup4\n        /* \"#utility.yul\":3655:3671   */\n      add\n        /* \"#utility.yul\":3648:3675   */\n      mstore\n        /* \"#utility.yul\":3535:3681   */\n      pop\n      pop\n      pop\n      jump\t// out\n        /* \"#utility.yul\":3687:4112   */\n    tag_137:\n        /* \"#utility.yul\":3765:3770   */\n      0x00\n        /* \"#utility.yul\":3790:3856   */\n      tag_207\n        /* \"#utility.yul\":3806:3855   */\n      tag_208\n        /* \"#utility.yul\":3848:3854   */\n      dup5\n        /* \"#utility.yul\":3806:3855   */\n      tag_135\n      jump\t// in\n    tag_208:\n        /* \"#utility.yul\":3790:3856   */\n      tag_134\n      jump\t// in\n    tag_207:\n        /* \"#utility.yul\":3781:3856   */\n      swap1\n      pop\n        /* \"#utility.yul\":3879:3885   */\n      dup3\n        /* \"#utility.yul\":3872:3877   */\n      dup2\n        /* \"#utility.yul\":3865:3886   */\n      mstore\n        /* \"#utility.yul\":3917:3921   */\n      0x20\n        /* \"#utility.yul\":3910:3915   */\n      dup2\n        /* \"#utility.yul\":3906:3922   */\n      add\n        /* \"#utility.yul\":3955:3958   */\n      dup5\n        /* \"#utility.yul\":3946:3952   */\n      dup5\n        /* \"#utility.yul\":3941:3944   */\n      dup5\n        /* \"#utility.yul\":3937:3953   */\n      add\n        /* \"#utility.yul\":3934:3959   */\n      gt\n        /* \"#utility.yul\":3931:4043   */\n      iszero\n      tag_209\n      jumpi\n        /* \"#utility.yul\":3962:4041   */\n      tag_210\n      tag_132\n      jump\t// in\n    tag_210:\n        /* \"#utility.yul\":3931:4043   */\n    tag_209:\n        /* \"#utility.yul\":4052:4106   */\n      tag_211\n        /* \"#utility.yul\":4099:4105   */\n      dup5\n        /* \"#utility.yul\":4094:4097   */\n      dup3\n        /* \"#utility.yul\":4089:4092   */\n      dup6\n        /* \"#utility.yul\":4052:4106   */\n      tag_136\n      jump\t// in\n    tag_211:\n        /* \"#utility.yul\":3771:4112   */\n      pop\n        /* \"#utility.yul\":3687:4112   */\n      swap4\n      swap3\n      pop\n      pop\n      pop\n      jump\t// out\n        /* \"#utility.yul\":4132:4472   */\n    tag_138:\n        /* \"#utility.yul\":4188:4193   */\n      0x00\n        /* \"#utility.yul\":4237:4240   */\n      dup3\n        /* \"#utility.yul\":4230:4234   */\n      0x1f\n        /* \"#utility.yul\":4222:4228   */\n      dup4\n        /* \"#utility.yul\":4218:4235   */\n      add\n        /* \"#utility.yul\":4214:4241   */\n      slt\n        /* \"#utility.yul\":4204:4326   */\n      tag_213\n      jumpi\n        /* \"#utility.yul\":4245:4324   */\n      tag_214\n      tag_131\n      jump\t// in\n    tag_214:\n        /* \"#utility.yul\":4204:4326   */\n    tag_213:\n        /* \"#utility.yul\":4362:4368   */\n      dup2\n        /* \"#utility.yul\":4349:4369   */\n      calldataload\n        /* \"#utility.yul\":4387:4466   */\n      tag_215\n        /* \"#utility.yul\":4462:4465   */\n      dup5\n        /* \"#utility.yul\":4454:4460   */\n      dup3\n        /* \"#utility.yul\":4447:4451   */\n      0x20\n        /* \"#utility.yul\":4439:4445   */\n      dup7\n        /* \"#utility.yul\":4435:4452   */\n      add\n        /* \"#utility.yul\":4387:4466   */\n      tag_137\n      jump\t// in\n    tag_215:\n        /* \"#utility.yul\":4378:4466   */\n      swap2\n      pop\n        /* \"#utility.yul\":4194:4472   */\n      pop\n        /* \"#utility.yul\":4132:4472   */\n      swap3\n      swap2\n      pop\n      pop\n      jump\t// out\n        /* \"#utility.yul\":4478:5312   */\n    tag_19:\n        /* \"#utility.yul\":4566:4572   */\n      0x00\n        /* \"#utility.yul\":4574:4580   */\n      dup1\n        /* \"#utility.yul\":4623:4625   */\n      0x40\n        /* \"#utility.yul\":4611:4620   */\n      dup4\n        /* \"#utility.yul\":4602:4609   */\n      dup6\n        /* \"#utility.yul\":4598:4621   */\n      sub\n        /* \"#utility.yul\":4594:4626   */\n      slt\n        /* \"#utility.yul\":4591:4710   */\n      iszero\n      tag_217\n      jumpi\n        /* \"#utility.yul\":4629:4708   */\n      tag_218\n      tag_121\n      jump\t// in\n    tag_218:\n        /* \"#utility.yul\":4591:4710   */\n    tag_217:\n        /* \"#utility.yul\":4777:4778   */\n      0x00\n        /* \"#utility.yul\":4766:4775   */\n      dup4\n        /* \"#utility.yul\":4762:4779   */\n      add\n        /* \"#utility.yul\":4749:4780   */\n      calldataload\n        /* \"#utility.yul\":4807:4825   */\n      0xffffffffffffffff\n        /* \"#utility.yul\":4799:4805   */\n      dup2\n        /* \"#utility.yul\":4796:4826   */\n      gt\n        /* \"#utility.yul\":4793:4910   */\n      iszero\n      tag_219\n      jumpi\n        /* \"#utility.yul\":4829:4908   */\n      tag_220\n      tag_122\n      jump\t// in\n    tag_220:\n        /* \"#utility.yul\":4793:4910   */\n    tag_219:\n        /* \"#utility.yul\":4934:4997   */\n      tag_221\n        /* \"#utility.yul\":4989:4996   */\n      dup6\n        /* \"#utility.yul\":4980:4986   */\n      dup3\n        /* \"#utility.yul\":4969:4978   */\n      dup7\n        /* \"#utility.yul\":4965:4987   */\n      add\n        /* \"#utility.yul\":4934:4997   */\n      tag_138\n      jump\t// in\n    tag_221:\n        /* \"#utility.yul\":4924:4997   */\n      swap3\n      pop\n        /* \"#utility.yul\":4720:5007   */\n      pop\n        /* \"#utility.yul\":5074:5076   */\n      0x20\n        /* \"#utility.yul\":5063:5072   */\n      dup4\n        /* \"#utility.yul\":5059:5077   */\n      add\n        /* \"#utility.yul\":5046:5078   */\n      calldataload\n        /* \"#utility.yul\":5105:5123   */\n      0xffffffffffffffff\n        /* \"#utility.yul\":5097:5103   */\n      dup2\n        /* \"#utility.yul\":5094:5124   */\n      gt\n        /* \"#utility.yul\":5091:5208   */\n      iszero\n      tag_222\n      jumpi\n        /* \"#utility.yul\":5127:5206   */\n      tag_223\n      tag_122\n      jump\t// in\n    tag_223:\n        /* \"#utility.yul\":5091:5208   */\n    tag_222:\n        /* \"#utility.yul\":5232:5295   */\n      tag_224\n        /* \"#utility.yul\":5287:5294   */\n      dup6\n        /* \"#utility.yul\":5278:5284   */\n      dup3\n        /* \"#utility.yul\":5267:5276   */\n      dup7\n        /* \"#utility.yul\":5263:5285   */\n      add\n        /* \"#utility.yul\":5232:5295   */\n      tag_138\n      jump\t// in\n    tag_224:\n        /* \"#utility.yul\":5222:5295   */\n      swap2\n      pop\n        /* \"#utility.yul\":5017:5305   */\n      pop\n        /* \"#utility.yul\":4478:5312   */\n      swap3\n      pop\n      swap3\n      swap1\n      pop\n      jump\t// out\n        /* \"#utility.yul\":5318:5972   */\n    tag_28:\n        /* \"#utility.yul\":5396:5402   */\n      0x00\n        /* \"#utility.yul\":5404:5410   */\n      dup1\n        /* \"#utility.yul\":5453:5455   */\n      0x40\n        /* \"#utility.yul\":5441:5450   */\n      dup4\n        /* \"#utility.yul\":5432:5439   */\n      dup6\n        /* \"#utility.yul\":5428:5451   */\n      sub\n        /* \"#utility.yul\":5424:5456   */\n      slt\n        /* \"#utility.yul\":5421:5540   */\n      iszero\n      tag_226\n      jumpi\n        /* \"#utility.yul\":5459:5538   */\n      tag_227\n      tag_121\n      jump\t// in\n    tag_227:\n        /* \"#utility.yul\":5421:5540   */\n    tag_226:\n        /* \"#utility.yul\":5579:5580   */\n      0x00\n        /* \"#utility.yul\":5604:5657   */\n      tag_228\n        /* \"#utility.yul\":5649:5656   */\n      dup6\n        /* \"#utility.yul\":5640:5646   */\n      dup3\n        /* \"#utility.yul\":5629:5638   */\n      dup7\n        /* \"#utility.yul\":5625:5647   */\n      add\n        /* \"#utility.yul\":5604:5657   */\n      tag_125\n      jump\t// in\n    tag_228:\n        /* \"#utility.yul\":5594:5657   */\n      swap3\n      pop\n        /* \"#utility.yul\":5550:5667   */\n      pop\n        /* \"#utility.yul\":5734:5736   */\n      0x20\n        /* \"#utility.yul\":5723:5732   */\n      dup4\n        /* \"#utility.yul\":5719:5737   */\n      add\n        /* \"#utility.yul\":5706:5738   */\n      calldataload\n        /* \"#utility.yul\":5765:5783   */\n      0xffffffffffffffff\n        /* \"#utility.yul\":5757:5763   */\n      dup2\n        /* \"#utility.yul\":5754:5784   */\n      gt\n        /* \"#utility.yul\":5751:5868   */\n      iszero\n      tag_229\n      jumpi\n        /* \"#utility.yul\":5787:5866   */\n      tag_230\n      tag_122\n      jump\t// in\n    tag_230:\n        /* \"#utility.yul\":5751:5868   */\n    tag_229:\n        /* \"#utility.yul\":5892:5955   */\n      tag_231\n        /* \"#utility.yul\":5947:5954   */\n      dup6\n        /* \"#utility.yul\":5938:5944   */\n      dup3\n        /* \"#utility.yul\":5927:5936   */\n      dup7\n        /* \"#utility.yul\":5923:5945   */\n      add\n        /* \"#utility.yul\":5892:5955   */\n      tag_138\n      jump\t// in\n    tag_231:\n        /* \"#utility.yul\":5882:5955   */\n      swap2\n      pop\n        /* \"#utility.yul\":5677:5965   */\n      pop\n        /* \"#utility.yul\":5318:5972   */\n      swap3\n      pop\n      swap3\n      swap1\n      pop\n      jump\t// out\n        /* \"#utility.yul\":5978:6076   */\n    tag_139:\n        /* \"#utility.yul\":6029:6035   */\n      0x00\n        /* \"#utility.yul\":6063:6068   */\n      dup2\n        /* \"#utility.yul\":6057:6069   */\n      mload\n        /* \"#utility.yul\":6047:6069   */\n      swap1\n      pop\n        /* \"#utility.yul\":5978:6076   */\n      swap2\n      swap1\n      pop\n      jump\t// out\n        /* \"#utility.yul\":6082:6250   */\n    tag_140:\n        /* \"#utility.yul\":6165:6176   */\n      0x00\n        /* \"#utility.yul\":6199:6205   */\n      dup3\n        /* \"#utility.yul\":6194:6197   */\n      dup3\n        /* \"#utility.yul\":6187:6206   */\n      mstore\n        /* \"#utility.yul\":6239:6243   */\n      0x20\n        /* \"#utility.yul\":6234:6237   */\n      dup3\n        /* \"#utility.yul\":6230:6244   */\n      add\n        /* \"#utility.yul\":6215:6244   */\n      swap1\n      pop\n        /* \"#utility.yul\":6082:6250   */\n      swap3\n      swap2\n      pop\n      pop\n      jump\t// out\n        /* \"#utility.yul\":6256:6629   */\n    tag_141:\n        /* \"#utility.yul\":6342:6345   */\n      0x00\n        /* \"#utility.yul\":6370:6408   */\n      tag_235\n        /* \"#utility.yul\":6402:6407   */\n      dup3\n        /* \"#utility.yul\":6370:6408   */\n      tag_139\n      jump\t// in\n    tag_235:\n        /* \"#utility.yul\":6424:6494   */\n      tag_236\n        /* \"#utility.yul\":6487:6493   */\n      dup2\n        /* \"#utility.yul\":6482:6485   */\n      dup6\n        /* \"#utility.yul\":6424:6494   */\n      tag_140\n      jump\t// in\n    tag_236:\n        /* \"#utility.yul\":6417:6494   */\n      swap4\n      pop\n        /* \"#utility.yul\":6503:6568   */\n      tag_237\n        /* \"#utility.yul\":6561:6567   */\n      dup2\n        /* \"#utility.yul\":6556:6559   */\n      dup6\n        /* \"#utility.yul\":6549:6553   */\n      0x20\n        /* \"#utility.yul\":6542:6547   */\n      dup7\n        /* \"#utility.yul\":6538:6554   */\n      add\n        /* \"#utility.yul\":6503:6568   */\n      tag_128\n      jump\t// in\n    tag_237:\n        /* \"#utility.yul\":6593:6622   */\n      tag_238\n        /* \"#utility.yul\":6615:6621   */\n      dup2\n        /* \"#utility.yul\":6593:6622   */\n      tag_129\n      jump\t// in\n    tag_238:\n        /* \"#utility.yul\":6588:6591   */\n      dup5\n        /* \"#utility.yul\":6584:6623   */\n      add\n        /* \"#utility.yul\":6577:6623   */\n      swap2\n      pop\n        /* \"#utility.yul\":6346:6629   */\n      pop\n        /* \"#utility.yul\":6256:6629   */\n      swap3\n      swap2\n      pop\n      pop\n      jump\t// out\n        /* \"#utility.yul\":6635:7141   */\n    tag_31:\n        /* \"#utility.yul\":6792:6796   */\n      0x00\n        /* \"#utility.yul\":6830:6832   */\n      0x40\n        /* \"#utility.yul\":6819:6828   */\n      dup3\n        /* \"#utility.yul\":6815:6833   */\n      add\n        /* \"#utility.yul\":6807:6833   */\n      swap1\n      pop\n        /* \"#utility.yul\":6879:6888   */\n      dup2\n        /* \"#utility.yul\":6873:6877   */\n      dup2\n        /* \"#utility.yul\":6869:6889   */\n      sub\n        /* \"#utility.yul\":6865:6866   */\n      0x00\n        /* \"#utility.yul\":6854:6863   */\n      dup4\n        /* \"#utility.yul\":6850:6867   */\n      add\n        /* \"#utility.yul\":6843:6890   */\n      mstore\n        /* \"#utility.yul\":6907:6983   */\n      tag_240\n        /* \"#utility.yul\":6978:6982   */\n      dup2\n        /* \"#utility.yul\":6969:6975   */\n      dup6\n        /* \"#utility.yul\":6907:6983   */\n      tag_141\n      jump\t// in\n    tag_240:\n        /* \"#utility.yul\":6899:6983   */\n      swap1\n      pop\n        /* \"#utility.yul\":7030:7039   */\n      dup2\n        /* \"#utility.yul\":7024:7028   */\n      dup2\n        /* \"#utility.yul\":7020:7040   */\n      sub\n        /* \"#utility.yul\":7015:7017   */\n      0x20\n        /* \"#utility.yul\":7004:7013   */\n      dup4\n        /* \"#utility.yul\":7000:7018   */\n      add\n        /* \"#utility.yul\":6993:7041   */\n      mstore\n        /* \"#utility.yul\":7058:7134   */\n      tag_241\n        /* \"#utility.yul\":7129:7133   */\n      dup2\n        /* \"#utility.yul\":7120:7126   */\n      dup5\n        /* \"#utility.yul\":7058:7134   */\n      tag_141\n      jump\t// in\n    tag_241:\n        /* \"#utility.yul\":7050:7134   */\n      swap1\n      pop\n        /* \"#utility.yul\":6635:7141   */\n      swap4\n      swap3\n      pop\n      pop\n      pop\n      jump\t// out\n        /* \"#utility.yul\":7147:7766   */\n    tag_38:\n        /* \"#utility.yul\":7224:7230   */\n      0x00\n        /* \"#utility.yul\":7232:7238   */\n      dup1\n        /* \"#utility.yul\":7240:7246   */\n      0x00\n        /* \"#utility.yul\":7289:7291   */\n      0x60\n        /* \"#utility.yul\":7277:7286   */\n      dup5\n        /* \"#utility.yul\":7268:7275   */\n      dup7\n        /* \"#utility.yul\":7264:7287   */\n      sub\n        /* \"#utility.yul\":7260:7292   */\n      slt\n        /* \"#utility.yul\":7257:7376   */\n      iszero\n      tag_243\n      jumpi\n        /* \"#utility.yul\":7295:7374   */\n      tag_244\n      tag_121\n      jump\t// in\n    tag_244:\n        /* \"#utility.yul\":7257:7376   */\n    tag_243:\n        /* \"#utility.yul\":7415:7416   */\n      0x00\n        /* \"#utility.yul\":7440:7493   */\n      tag_245\n        /* \"#utility.yul\":7485:7492   */\n      dup7\n        /* \"#utility.yul\":7476:7482   */\n      dup3\n        /* \"#utility.yul\":7465:7474   */\n      dup8\n        /* \"#utility.yul\":7461:7483   */\n      add\n        /* \"#utility.yul\":7440:7493   */\n      tag_125\n      jump\t// in\n    tag_245:\n        /* \"#utility.yul\":7430:7493   */\n      swap4\n      pop\n        /* \"#utility.yul\":7386:7503   */\n      pop\n        /* \"#utility.yul\":7542:7544   */\n      0x20\n        /* \"#utility.yul\":7568:7621   */\n      tag_246\n        /* \"#utility.yul\":7613:7620   */\n      dup7\n        /* \"#utility.yul\":7604:7610   */\n      dup3\n        /* \"#utility.yul\":7593:7602   */\n      dup8\n        /* \"#utility.yul\":7589:7611   */\n      add\n        /* \"#utility.yul\":7568:7621   */\n      tag_125\n      jump\t// in\n    tag_246:\n        /* \"#utility.yul\":7558:7621   */\n      swap3\n      pop\n        /* \"#utility.yul\":7513:7631   */\n      pop\n        /* \"#utility.yul\":7670:7672   */\n      0x40\n        /* \"#utility.yul\":7696:7749   */\n      tag_247\n        /* \"#utility.yul\":7741:7748   */\n      dup7\n        /* \"#utility.yul\":7732:7738   */\n      dup3\n        /* \"#utility.yul\":7721:7730   */\n      dup8\n        /* \"#utility.yul\":7717:7739   */\n      add\n        /* \"#utility.yul\":7696:7749   */\n      tag_125\n      jump\t// in\n    tag_247:\n        /* \"#utility.yul\":7686:7749   */\n      swap2\n      pop\n        /* \"#utility.yul\":7641:7759   */\n      pop\n        /* \"#utility.yul\":7147:7766   */\n      swap3\n      pop\n      swap3\n      pop\n      swap3\n      jump\t// out\n        /* \"#utility.yul\":7772:8751   */\n    tag_43:\n        /* \"#utility.yul\":7869:7875   */\n      0x00\n        /* \"#utility.yul\":7877:7883   */\n      dup1\n        /* \"#utility.yul\":7885:7891   */\n      0x00\n        /* \"#utility.yul\":7934:7936   */\n      0x60\n        /* \"#utility.yul\":7922:7931   */\n      dup5\n        /* \"#utility.yul\":7913:7920   */\n      dup7\n        /* \"#utility.yul\":7909:7932   */\n      sub\n        /* \"#utility.yul\":7905:7937   */\n      slt\n        /* \"#utility.yul\":7902:8021   */\n      iszero\n      tag_249\n      jumpi\n        /* \"#utility.yul\":7940:8019   */\n      tag_250\n      tag_121\n      jump\t// in\n    tag_250:\n        /* \"#utility.yul\":7902:8021   */\n    tag_249:\n        /* \"#utility.yul\":8060:8061   */\n      0x00\n        /* \"#utility.yul\":8085:8138   */\n      tag_251\n        /* \"#utility.yul\":8130:8137   */\n      dup7\n        /* \"#utility.yul\":8121:8127   */\n      dup3\n        /* \"#utility.yul\":8110:8119   */\n      dup8\n        /* \"#utility.yul\":8106:8128   */\n      add\n        /* \"#utility.yul\":8085:8138   */\n      tag_125\n      jump\t// in\n    tag_251:\n        /* \"#utility.yul\":8075:8138   */\n      swap4\n      pop\n        /* \"#utility.yul\":8031:8148   */\n      pop\n        /* \"#utility.yul\":8215:8217   */\n      0x20\n        /* \"#utility.yul\":8204:8213   */\n      dup5\n        /* \"#utility.yul\":8200:8218   */\n      add\n        /* \"#utility.yul\":8187:8219   */\n      calldataload\n        /* \"#utility.yul\":8246:8264   */\n      0xffffffffffffffff\n        /* \"#utility.yul\":8238:8244   */\n      dup2\n        /* \"#utility.yul\":8235:8265   */\n      gt\n        /* \"#utility.yul\":8232:8349   */\n      iszero\n      tag_252\n      jumpi\n        /* \"#utility.yul\":8268:8347   */\n      tag_253\n      tag_122\n      jump\t// in\n    tag_253:\n        /* \"#utility.yul\":8232:8349   */\n    tag_252:\n        /* \"#utility.yul\":8373:8436   */\n      tag_254\n        /* \"#utility.yul\":8428:8435   */\n      dup7\n        /* \"#utility.yul\":8419:8425   */\n      dup3\n        /* \"#utility.yul\":8408:8417   */\n      dup8\n        /* \"#utility.yul\":8404:8426   */\n      add\n        /* \"#utility.yul\":8373:8436   */\n      tag_138\n      jump\t// in\n    tag_254:\n        /* \"#utility.yul\":8363:8436   */\n      swap3\n      pop\n        /* \"#utility.yul\":8158:8446   */\n      pop\n        /* \"#utility.yul\":8513:8515   */\n      0x40\n        /* \"#utility.yul\":8502:8511   */\n      dup5\n        /* \"#utility.yul\":8498:8516   */\n      add\n        /* \"#utility.yul\":8485:8517   */\n      calldataload\n        /* \"#utility.yul\":8544:8562   */\n      0xffffffffffffffff\n        /* \"#utility.yul\":8536:8542   */\n      dup2\n        /* \"#utility.yul\":8533:8563   */\n      gt\n        /* \"#utility.yul\":8530:8647   */\n      iszero\n      tag_255\n      jumpi\n        /* \"#utility.yul\":8566:8645   */\n      tag_256\n      tag_122\n      jump\t// in\n    tag_256:\n        /* \"#utility.yul\":8530:8647   */\n    tag_255:\n        /* \"#utility.yul\":8671:8734   */\n      tag_257\n        /* \"#utility.yul\":8726:8733   */\n      dup7\n        /* \"#utility.yul\":8717:8723   */\n      dup3\n        /* \"#utility.yul\":8706:8715   */\n      dup8\n        /* \"#utility.yul\":8702:8724   */\n      add\n        /* \"#utility.yul\":8671:8734   */\n      tag_138\n      jump\t// in\n    tag_257:\n        /* \"#utility.yul\":8661:8734   */\n      swap2\n      pop\n        /* \"#utility.yul\":8456:8744   */\n      pop\n        /* \"#utility.yul\":7772:8751   */\n      swap3\n      pop\n      swap3\n      pop\n      swap3\n      jump\t// out\n        /* \"#utility.yul\":8757:8937   */\n    tag_142:\n        /* \"#utility.yul\":8805:8882   */\n      0x4e487b7100000000000000000000000000000000000000000000000000000000\n        /* \"#utility.yul\":8802:8803   */\n      0x00\n        /* \"#utility.yul\":8795:8883   */\n      mstore\n        /* \"#utility.yul\":8902:8906   */\n      0x12\n        /* \"#utility.yul\":8899:8900   */\n      0x04\n        /* \"#utility.yul\":8892:8907   */\n      mstore\n        /* \"#utility.yul\":8926:8930   */\n      0x24\n        /* \"#utility.yul\":8923:8924   */\n      0x00\n        /* \"#utility.yul\":8916:8931   */\n      revert\n        /* \"#utility.yul\":8943:9123   */\n    tag_143:\n        /* \"#utility.yul\":8991:9068   */\n      0x4e487b7100000000000000000000000000000000000000000000000000000000\n        /* \"#utility.yul\":8988:8989   */\n      0x00\n        /* \"#utility.yul\":8981:9069   */\n      mstore\n        /* \"#utility.yul\":9088:9092   */\n      0x11\n        /* \"#utility.yul\":9085:9086   */\n      0x04\n        /* \"#utility.yul\":9078:9093   */\n      mstore\n        /* \"#utility.yul\":9112:9116   */\n      0x24\n        /* \"#utility.yul\":9109:9110   */\n      0x00\n        /* \"#utility.yul\":9102:9117   */\n      revert\n        /* \"#utility.yul\":9129:9314   */\n    tag_50:\n        /* \"#utility.yul\":9169:9170   */\n      0x00\n        /* \"#utility.yul\":9186:9206   */\n      tag_261\n        /* \"#utility.yul\":9204:9205   */\n      dup3\n        /* \"#utility.yul\":9186:9206   */\n      tag_123\n      jump\t// in\n    tag_261:\n        /* \"#utility.yul\":9181:9206   */\n      swap2\n      pop\n        /* \"#utility.yul\":9220:9240   */\n      tag_262\n        /* \"#utility.yul\":9238:9239   */\n      dup4\n        /* \"#utility.yul\":9220:9240   */\n      tag_123\n      jump\t// in\n    tag_262:\n        /* \"#utility.yul\":9215:9240   */\n      swap3\n      pop\n        /* \"#utility.yul\":9259:9260   */\n      dup3\n        /* \"#utility.yul\":9249:9284   */\n      tag_263\n      jumpi\n        /* \"#utility.yul\":9264:9282   */\n      tag_264\n      tag_142\n      jump\t// in\n    tag_264:\n        /* \"#utility.yul\":9249:9284   */\n    tag_263:\n        /* \"#utility.yul\":9306:9307   */\n      dup3\n        /* \"#utility.yul\":9303:9304   */\n      dup3\n        /* \"#utility.yul\":9299:9308   */\n      div\n        /* \"#utility.yul\":9294:9308   */\n      swap1\n      pop\n        /* \"#utility.yul\":9129:9314   */\n      swap3\n      swap2\n      pop\n      pop\n      jump\t// out\n        /* \"#utility.yul\":9320:9553   */\n    tag_52:\n        /* \"#utility.yul\":9359:9362   */\n      0x00\n        /* \"#utility.yul\":9382:9406   */\n      tag_266\n        /* \"#utility.yul\":9400:9405   */\n      dup3\n        /* \"#utility.yul\":9382:9406   */\n      tag_123\n      jump\t// in\n    tag_266:\n        /* \"#utility.yul\":9373:9406   */\n      swap2\n      pop\n        /* \"#utility.yul\":9428:9494   */\n      0xffffffffffffffffffffffffffffffffffffffffffffffffffffffffffffffff\n        /* \"#utility.yul\":9421:9426   */\n      dup3\n        /* \"#utility.yul\":9418:9495   */\n      sub\n        /* \"#utility.yul\":9415:9518   */\n      tag_267\n      jumpi\n        /* \"#utility.yul\":9498:9516   */\n      tag_268\n      tag_143\n      jump\t// in\n    tag_268:\n        /* \"#utility.yul\":9415:9518   */\n    tag_267:\n        /* \"#utility.yul\":9545:9546   */\n      0x01\n        /* \"#utility.yul\":9538:9543   */\n      dup3\n        /* \"#utility.yul\":9534:9547   */\n      add\n        /* \"#utility.yul\":9527:9547   */\n      swap1\n      pop\n        /* \"#utility.yul\":9320:9553   */\n      swap2\n      swap1\n      pop\n      jump\t// out\n        /* \"#utility.yul\":9559:9735   */\n    tag_60:\n        /* \"#utility.yul\":9591:9592   */\n      0x00\n        /* \"#utility.yul\":9608:9628   */\n      tag_270\n        /* \"#utility.yul\":9626:9627   */\n      dup3\n        /* \"#utility.yul\":9608:9628   */\n      tag_123\n      jump\t// in\n    tag_270:\n        /* \"#utility.yul\":9603:9628   */\n      swap2\n      pop\n        /* \"#utility.yul\":9642:9662   */\n      tag_271\n        /* \"#utility.yul\":9660:9661   */\n      dup4\n        /* \"#utility.yul\":9642:9662   */\n      tag_123\n      jump\t// in\n    tag_271:\n        /* \"#utility.yul\":9637:9662   */\n      swap3\n      pop\n        /* \"#utility.yul\":9681:9682   */\n      dup3\n        /* \"#utility.yul\":9671:9706   */\n      tag_272\n      jumpi\n        /* \"#utility.yul\":9686:9704   */\n      tag_273\n      tag_142\n      jump\t// in\n    tag_273:\n        /* \"#utility.yul\":9671:9706   */\n    tag_272:\n        /* \"#utility.yul\":9727:9728   */\n      dup3\n        /* \"#utility.yul\":9724:9725   */\n      dup3\n        /* \"#utility.yul\":9720:9729   */\n      mod\n        /* \"#utility.yul\":9715:9729   */\n      swap1\n      pop\n        /* \"#utility.yul\":9559:9735   */\n      swap3\n      swap2\n      pop\n      pop\n      jump\t// out\n        /* \"#utility.yul\":9741:9912   */\n    tag_62:\n        /* \"#utility.yul\":9780:9783   */\n      0x00\n        /* \"#utility.yul\":9803:9827   */\n      tag_275\n        /* \"#utility.yul\":9821:9826   */\n      dup3\n        /* \"#utility.yul\":9803:9827   */\n      tag_123\n      jump\t// in\n    tag_275:\n        /* \"#utility.yul\":9794:9827   */\n      swap2\n      pop\n        /* \"#utility.yul\":9849:9853   */\n      0x00\n        /* \"#utility.yul\":9842:9847   */\n      dup3\n        /* \"#utility.yul\":9839:9854   */\n      sub\n        /* \"#utility.yul\":9836:9877   */\n      tag_276\n      jumpi\n        /* \"#utility.yul\":9857:9875   */\n      tag_277\n      tag_143\n      jump\t// in\n    tag_277:\n        /* \"#utility.yul\":9836:9877   */\n    tag_276:\n        /* \"#utility.yul\":9904:9905   */\n      0x01\n        /* \"#utility.yul\":9897:9902   */\n      dup3\n        /* \"#utility.yul\":9893:9906   */\n      sub\n        /* \"#utility.yul\":9886:9906   */\n      swap1\n      pop\n        /* \"#utility.yul\":9741:9912   */\n      swap2\n      swap1\n      pop\n      jump\t// out\n        /* \"#utility.yul\":9918:10098   */\n    tag_65:\n        /* \"#utility.yul\":9966:10043   */\n      0x4e487b7100000000000000000000000000000000000000000000000000000000\n        /* \"#utility.yul\":9963:9964   */\n      0x00\n        /* \"#utility.yul\":9956:10044   */\n      mstore\n        /* \"#utility.yul\":10063:10067   */\n      0x32\n        /* \"#utility.yul\":10060:10061   */\n      0x04\n        /* \"#utility.yul\":10053:10068   */\n      mstore\n        /* \"#utility.yul\":10087:10091   */\n      0x24\n        /* \"#utility.yul\":10084:10085   */\n      0x00\n        /* \"#utility.yul\":10077:10092   */\n      revert\n        /* \"#utility.yul\":10104:10295   */\n    tag_73:\n        /* \"#utility.yul\":10144:10147   */\n      0x00\n        /* \"#utility.yul\":10163:10183   */\n      tag_280\n        /* \"#utility.yul\":10181:10182   */\n      dup3\n        /* \"#utility.yul\":10163:10183   */\n      tag_123\n      jump\t// in\n    tag_280:\n        /* \"#utility.yul\":10158:10183   */\n      swap2\n      pop\n        /* \"#utility.yul\":10197:10217   */\n      tag_281\n        /* \"#utility.yul\":10215:10216   */\n      dup4\n        /* \"#utility.yul\":10197:10217   */\n      tag_123\n      jump\t// in\n    tag_281:\n        /* \"#utility.yul\":10192:10217   */\n      swap3\n      pop\n        /* \"#utility.yul\":10240:10241   */\n      dup3\n        /* \"#utility.yul\":10237:10238   */\n      dup3\n        /* \"#utility.yul\":10233:10242   */\n      add\n        /* \"#utility.yul\":10226:10242   */\n      swap1\n      pop\n        /* \"#utility.yul\":10261:10264   */\n      dup1\n        /* \"#utility.yul\":10258:10259   */\n      dup3\n        /* \"#utility.yul\":10255:10265   */\n      gt\n        /* \"#utility.yul\":10252:10288   */\n      iszero\n      tag_282\n      jumpi\n        /* \"#utility.yul\":10268:10286   */\n      tag_283\n      tag_143\n      jump\t// in\n    tag_283:\n        /* \"#utility.yul\":10252:10288   */\n    tag_282:\n        /* \"#utility.yul\":10104:10295   */\n      swap3\n      swap2\n      pop\n      pop\n      jump\t// out\n        /* \"#utility.yul\":10301:10415   */\n    tag_144:\n        /* \"#utility.yul\":10368:10374   */\n      0x00\n        /* \"#utility.yul\":10402:10407   */\n      dup2\n        /* \"#utility.yul\":10396:10408   */\n      mload\n        /* \"#utility.yul\":10386:10408   */\n      swap1\n      pop\n        /* \"#utility.yul\":10301:10415   */\n      swap2\n      swap1\n      pop\n      jump\t// out\n        /* \"#utility.yul\":10421:10584   */\n    tag_145:\n        /* \"#utility.yul\":10538:10549   */\n      0x00\n        /* \"#utility.yul\":10575:10578   */\n      dup2\n        /* \"#utility.yul\":10560:10578   */\n      swap1\n      pop\n        /* \"#utility.yul\":10421:10584   */\n      swap3\n      swap2\n      pop\n      pop\n      jump\t// out\n        /* \"#utility.yul\":10590:10722   */\n    tag_146:\n        /* \"#utility.yul\":10657:10661   */\n      0x00\n        /* \"#utility.yul\":10680:10683   */\n      dup2\n        /* \"#utility.yul\":10672:10683   */\n      swap1\n      pop\n        /* \"#utility.yul\":10710:10714   */\n      0x20\n        /* \"#utility.yul\":10705:10708   */\n      dup3\n        /* \"#utility.yul\":10701:10715   */\n      add\n        /* \"#utility.yul\":10693:10715   */\n      swap1\n      pop\n        /* \"#utility.yul\":10590:10722   */\n      swap2\n      swap1\n      pop\n      jump\t// out\n        /* \"#utility.yul\":10728:10844   */\n    tag_147:\n        /* \"#utility.yul\":10813:10837   */\n      tag_288\n        /* \"#utility.yul\":10831:10836   */\n      dup2\n        /* \"#utility.yul\":10813:10837   */\n      tag_123\n      jump\t// in\n    tag_288:\n        /* \"#utility.yul\":10808:10811   */\n      dup3\n        /* \"#utility.yul\":10801:10838   */\n      mstore\n        /* \"#utility.yul\":10728:10844   */\n      pop\n      pop\n      jump\t// out\n        /* \"#utility.yul\":10850:11045   */\n    tag_148:\n        /* \"#utility.yul\":10927:10937   */\n      0x00\n        /* \"#utility.yul\":10948:11002   */\n      tag_290\n        /* \"#utility.yul\":10998:11001   */\n      dup4\n        /* \"#utility.yul\":10990:10996   */\n      dup4\n        /* \"#utility.yul\":10948:11002   */\n      tag_147\n      jump\t// in\n    tag_290:\n        /* \"#utility.yul\":11034:11038   */\n      0x20\n        /* \"#utility.yul\":11029:11032   */\n      dup4\n        /* \"#utility.yul\":11025:11039   */\n      add\n        /* \"#utility.yul\":11011:11039   */\n      swap1\n      pop\n        /* \"#utility.yul\":10850:11045   */\n      swap3\n      swap2\n      pop\n      pop\n      jump\t// out\n        /* \"#utility.yul\":11051:11164   */\n    tag_149:\n        /* \"#utility.yul\":11121:11125   */\n      0x00\n        /* \"#utility.yul\":11153:11157   */\n      0x20\n        /* \"#utility.yul\":11148:11151   */\n      dup3\n        /* \"#utility.yul\":11144:11158   */\n      add\n        /* \"#utility.yul\":11136:11158   */\n      swap1\n      pop\n        /* \"#utility.yul\":11051:11164   */\n      swap2\n      swap1\n      pop\n      jump\t// out\n        /* \"#utility.yul\":11200:11976   */\n    tag_150:\n        /* \"#utility.yul\":11337:11340   */\n      0x00\n        /* \"#utility.yul\":11366:11420   */\n      tag_293\n        /* \"#utility.yul\":11414:11419   */\n      dup3\n        /* \"#utility.yul\":11366:11420   */\n      tag_144\n      jump\t// in\n    tag_293:\n        /* \"#utility.yul\":11436:11540   */\n      tag_294\n        /* \"#utility.yul\":11533:11539   */\n      dup2\n        /* \"#utility.yul\":11528:11531   */\n      dup6\n        /* \"#utility.yul\":11436:11540   */\n      tag_145\n      jump\t// in\n    tag_294:\n        /* \"#utility.yul\":11429:11540   */\n      swap4\n      pop\n        /* \"#utility.yul\":11564:11620   */\n      tag_295\n        /* \"#utility.yul\":11614:11619   */\n      dup4\n        /* \"#utility.yul\":11564:11620   */\n      tag_146\n      jump\t// in\n    tag_295:\n        /* \"#utility.yul\":11643:11650   */\n      dup1\n        /* \"#utility.yul\":11674:11675   */\n      0x00\n        /* \"#utility.yul\":11659:11951   */\n    tag_296:\n        /* \"#utility.yul\":11684:11690   */\n      dup4\n        /* \"#utility.yul\":11681:11682   */\n      dup2\n        /* \"#utility.yul\":11678:11691   */\n      lt\n        /* \"#utility.yul\":11659:11951   */\n      iszero\n      tag_298\n      jumpi\n        /* \"#utility.yul\":11760:11766   */\n      dup2\n        /* \"#utility.yul\":11754:11767   */\n      mload\n        /* \"#utility.yul\":11787:11858   */\n      tag_299\n        /* \"#utility.yul\":11854:11857   */\n      dup9\n        /* \"#utility.yul\":11839:11852   */\n      dup3\n        /* \"#utility.yul\":11787:11858   */\n      tag_148\n      jump\t// in\n    tag_299:\n        /* \"#utility.yul\":11780:11858   */\n      swap8\n      pop\n        /* \"#utility.yul\":11881:11941   */\n      tag_300\n        /* \"#utility.yul\":11934:11940   */\n      dup4\n        /* \"#utility.yul\":11881:11941   */\n      tag_149\n      jump\t// in\n    tag_300:\n        /* \"#utility.yul\":11871:11941   */\n      swap3\n      pop\n        /* \"#utility.yul\":11719:11951   */\n      pop\n        /* \"#utility.yul\":11706:11707   */\n      0x01\n        /* \"#utility.yul\":11703:11704   */\n      dup2\n        /* \"#utility.yul\":11699:11708   */\n      add\n        /* \"#utility.yul\":11694:11708   */\n      swap1\n      pop\n        /* \"#utility.yul\":11659:11951   */\n      jump(tag_296)\n    tag_298:\n        /* \"#utility.yul\":11663:11677   */\n      pop\n        /* \"#utility.yul\":11967:11970   */\n      dup6\n        /* \"#utility.yul\":11960:11970   */\n      swap4\n      pop\n        /* \"#utility.yul\":11342:11976   */\n      pop\n      pop\n      pop\n        /* \"#utility.yul\":11200:11976   */\n      swap3\n      swap2\n      pop\n      pop\n      jump\t// out\n        /* \"#utility.yul\":11982:12317   */\n    tag_76:\n        /* \"#utility.yul\":12144:12147   */\n      0x00\n        /* \"#utility.yul\":12166:12291   */\n      tag_302\n        /* \"#utility.yul\":12287:12290   */\n      dup3\n        /* \"#utility.yul\":12278:12284   */\n      dup5\n        /* \"#utility.yul\":12166:12291   */\n      tag_150\n      jump\t// in\n    tag_302:\n        /* \"#utility.yul\":12159:12291   */\n      swap2\n      pop\n        /* \"#utility.yul\":12308:12311   */\n      dup2\n        /* \"#utility.yul\":12301:12311   */\n      swap1\n      pop\n        /* \"#utility.yul\":11982:12317   */\n      swap3\n      swap2\n      pop\n      pop\n      jump\t// out\n        /* \"#utility.yul\":12323:12471   */\n    tag_151:\n        /* \"#utility.yul\":12425:12436   */\n      0x00\n        /* \"#utility.yul\":12462:12465   */\n      dup2\n        /* \"#utility.yul\":12447:12465   */\n      swap1\n      pop\n        /* \"#utility.yul\":12323:12471   */\n      swap3\n      swap2\n      pop\n      pop\n      jump\t// out\n        /* \"#utility.yul\":12477:12867   */\n    tag_152:\n        /* \"#utility.yul\":12583:12586   */\n      0x00\n        /* \"#utility.yul\":12611:12650   */\n      tag_305\n        /* \"#utility.yul\":12644:12649   */\n      dup3\n        /* \"#utility.yul\":12611:12650   */\n      tag_126\n      jump\t// in\n    tag_305:\n        /* \"#utility.yul\":12666:12755   */\n      tag_306\n        /* \"#utility.yul\":12748:12754   */\n      dup2\n        /* \"#utility.yul\":12743:12746   */\n      dup6\n        /* \"#utility.yul\":12666:12755   */\n      tag_151\n      jump\t// in\n    tag_306:\n        /* \"#utility.yul\":12659:12755   */\n      swap4\n      pop\n        /* \"#utility.yul\":12764:12829   */\n      tag_307\n        /* \"#utility.yul\":12822:12828   */\n      dup2\n        /* \"#utility.yul\":12817:12820   */\n      dup6\n        /* \"#utility.yul\":12810:12814   */\n      0x20\n        /* \"#utility.yul\":12803:12808   */\n      dup7\n        /* \"#utility.yul\":12799:12815   */\n      add\n        /* \"#utility.yul\":12764:12829   */\n      tag_128\n      jump\t// in\n    tag_307:\n        /* \"#utility.yul\":12854:12860   */\n      dup1\n        /* \"#utility.yul\":12849:12852   */\n      dup5\n        /* \"#utility.yul\":12845:12861   */\n      add\n        /* \"#utility.yul\":12838:12861   */\n      swap2\n      pop\n        /* \"#utility.yul\":12587:12867   */\n      pop\n        /* \"#utility.yul\":12477:12867   */\n      swap3\n      swap2\n      pop\n      pop\n      jump\t// out\n        /* \"#utility.yul\":12873:13051   */\n    tag_153:\n        /* \"#utility.yul\":13041:13044   */\n      0x3a00000000000000000000000000000000000000000000000000000000000000\n        /* \"#utility.yul\":13036:13039   */\n      dup2\n        /* \"#utility.yul\":13029:13045   */\n      mstore\n        /* \"#utility.yul\":12873:13051   */\n      pop\n      jump\t// out\n        /* \"#utility.yul\":13057:13235   */\n    tag_154:\n        /* \"#utility.yul\":13225:13228   */\n      0x2000000000000000000000000000000000000000000000000000000000000000\n        /* \"#utility.yul\":13220:13223   */\n      dup2\n        /* \"#utility.yul\":13213:13229   */\n      mstore\n        /* \"#utility.yul\":13057:13235   */\n      pop\n      jump\t// out\n        /* \"#utility.yul\":13241:15108   */\n    tag_79:\n        /* \"#utility.yul\":13883:13886   */\n      0x00\n        /* \"#utility.yul\":13905:14000   */\n      tag_311\n        /* \"#utility.yul\":13996:13999   */\n      dup3\n        /* \"#utility.yul\":13987:13993   */\n      dup10\n        /* \"#utility.yul\":13905:14000   */\n      tag_152\n      jump\t// in\n    tag_311:\n        /* \"#utility.yul\":13898:14000   */\n      swap2\n      pop\n        /* \"#utility.yul\":14010:14147   */\n      tag_312\n        /* \"#utility.yul\":14143:14146   */\n      dup3\n        /* \"#utility.yul\":14010:14147   */\n      tag_153\n      jump\t// in\n    tag_312:\n        /* \"#utility.yul\":14172:14173   */\n      0x01\n        /* \"#utility.yul\":14167:14170   */\n      dup3\n        /* \"#utility.yul\":14163:14174   */\n      add\n        /* \"#utility.yul\":14156:14174   */\n      swap2\n      pop\n        /* \"#utility.yul\":14191:14286   */\n      tag_313\n        /* \"#utility.yul\":14282:14285   */\n      dup3\n        /* \"#utility.yul\":14273:14279   */\n      dup9\n        /* \"#utility.yul\":14191:14286   */\n      tag_152\n      jump\t// in\n    tag_313:\n        /* \"#utility.yul\":14184:14286   */\n      swap2\n      pop\n        /* \"#utility.yul\":14303:14398   */\n      tag_314\n        /* \"#utility.yul\":14394:14397   */\n      dup3\n        /* \"#utility.yul\":14385:14391   */\n      dup8\n        /* \"#utility.yul\":14303:14398   */\n      tag_152\n      jump\t// in\n    tag_314:\n        /* \"#utility.yul\":14296:14398   */\n      swap2\n      pop\n        /* \"#utility.yul\":14408:14545   */\n      tag_315\n        /* \"#utility.yul\":14541:14544   */\n      dup3\n        /* \"#utility.yul\":14408:14545   */\n      tag_154\n      jump\t// in\n    tag_315:\n        /* \"#utility.yul\":14570:14571   */\n      0x01\n        /* \"#utility.yul\":14565:14568   */\n      dup3\n        /* \"#utility.yul\":14561:14572   */\n      add\n        /* \"#utility.yul\":14554:14572   */\n      swap2\n      pop\n        /* \"#utility.yul\":14589:14684   */\n      tag_316\n        /* \"#utility.yul\":14680:14683   */\n      dup3\n        /* \"#utility.yul\":14671:14677   */\n      dup7\n        /* \"#utility.yul\":14589:14684   */\n      tag_152\n      jump\t// in\n    tag_316:\n        /* \"#utility.yul\":14582:14684   */\n      swap2\n      pop\n        /* \"#utility.yul\":14694:14831   */\n      tag_317\n        /* \"#utility.yul\":14827:14830   */\n      dup3\n        /* \"#utility.yul\":14694:14831   */\n      tag_153\n      jump\t// in\n    tag_317:\n        /* \"#utility.yul\":14856:14857   */\n      0x01\n        /* \"#utility.yul\":14851:14854   */\n      dup3\n        /* \"#utility.yul\":14847:14858   */\n      add\n        /* \"#utility.yul\":14840:14858   */\n      swap2\n      pop\n        /* \"#utility.yul\":14875:14970   */\n      tag_318\n        /* \"#utility.yul\":14966:14969   */\n      dup3\n        /* \"#utility.yul\":14957:14963   */\n      dup6\n        /* \"#utility.yul\":14875:14970   */\n      tag_152\n      jump\t// in\n    tag_318:\n        /* \"#utility.yul\":14868:14970   */\n      swap2\n      pop\n        /* \"#utility.yul\":14987:15082   */\n      tag_319\n        /* \"#utility.yul\":15078:15081   */\n      dup3\n        /* \"#utility.yul\":15069:15075   */\n      dup5\n        /* \"#utility.yul\":14987:15082   */\n      tag_152\n      jump\t// in\n    tag_319:\n        /* \"#utility.yul\":14980:15082   */\n      swap2\n      pop\n        /* \"#utility.yul\":15099:15102   */\n      dup2\n        /* \"#utility.yul\":15092:15102   */\n      swap1\n      pop\n        /* \"#utility.yul\":13241:15108   */\n      swap8\n      swap7\n      pop\n      pop\n      pop\n      pop\n      pop\n      pop\n      pop\n      jump\t// out\n        /* \"#utility.yul\":15114:15549   */\n    tag_82:\n        /* \"#utility.yul\":15294:15297   */\n      0x00\n        /* \"#utility.yul\":15316:15411   */\n      tag_321\n        /* \"#utility.yul\":15407:15410   */\n      dup3\n        /* \"#utility.yul\":15398:15404   */\n      dup6\n        /* \"#utility.yul\":15316:15411   */\n      tag_152\n      jump\t// in\n    tag_321:\n        /* \"#utility.yul\":15309:15411   */\n      swap2\n      pop\n        /* \"#utility.yul\":15428:15523   */\n      tag_322\n        /* \"#utility.yul\":15519:15522   */\n      dup3\n        /* \"#utility.yul\":15510:15516   */\n      dup5\n        /* \"#utility.yul\":15428:15523   */\n      tag_152\n      jump\t// in\n    tag_322:\n        /* \"#utility.yul\":15421:15523   */\n      swap2\n      pop\n        /* \"#utility.yul\":15540:15543   */\n      dup2\n        /* \"#utility.yul\":15533:15543   */\n      swap1\n      pop\n        /* \"#utility.yul\":15114:15549   */\n      swap4\n      swap3\n      pop\n      pop\n      pop\n      jump\t// out\n        /* \"#utility.yul\":15555:15634   */\n    tag_155:\n        /* \"#utility.yul\":15594:15601   */\n      0x00\n        /* \"#utility.yul\":15623:15628   */\n      dup2\n        /* \"#utility.yul\":15612:15628   */\n      swap1\n      pop\n        /* \"#utility.yul\":15555:15634   */\n      swap2\n      swap1\n      pop\n      jump\t// out\n        /* \"#utility.yul\":15640:15797   */\n    tag_156:\n        /* \"#utility.yul\":15745:15790   */\n      tag_325\n        /* \"#utility.yul\":15765:15789   */\n      tag_326\n        /* \"#utility.yul\":15783:15788   */\n      dup3\n        /* \"#utility.yul\":15765:15789   */\n      tag_123\n      jump\t// in\n    tag_326:\n        /* \"#utility.yul\":15745:15790   */\n      tag_155\n      jump\t// in\n    tag_325:\n        /* \"#utility.yul\":15740:15743   */\n      dup3\n        /* \"#utility.yul\":15733:15791   */\n      mstore\n        /* \"#utility.yul\":15640:15797   */\n      pop\n      pop\n      jump\t// out\n        /* \"#utility.yul\":15803:16059   */\n    tag_85:\n        /* \"#utility.yul\":15915:15918   */\n      0x00\n        /* \"#utility.yul\":15930:16005   */\n      tag_328\n        /* \"#utility.yul\":16001:16004   */\n      dup3\n        /* \"#utility.yul\":15992:15998   */\n      dup5\n        /* \"#utility.yul\":15930:16005   */\n      tag_156\n      jump\t// in\n    tag_328:\n        /* \"#utility.yul\":16030:16032   */\n      0x20\n        /* \"#utility.yul\":16025:16028   */\n      dup3\n        /* \"#utility.yul\":16021:16033   */\n      add\n        /* \"#utility.yul\":16014:16033   */\n      swap2\n      pop\n        /* \"#utility.yul\":16050:16053   */\n      dup2\n        /* \"#utility.yul\":16043:16053   */\n      swap1\n      pop\n        /* \"#utility.yul\":15803:16059   */\n      swap3\n      swap2\n      pop\n      pop\n      jump\t// out\n        /* \"#utility.yul\":16065:16340   */\n    tag_87:\n        /* \"#utility.yul\":16197:16200   */\n      0x00\n        /* \"#utility.yul\":16219:16314   */\n      tag_330\n        /* \"#utility.yul\":16310:16313   */\n      dup3\n        /* \"#utility.yul\":16301:16307   */\n      dup5\n        /* \"#utility.yul\":16219:16314   */\n      tag_152\n      jump\t// in\n    tag_330:\n        /* \"#utility.yul\":16212:16314   */\n      swap2\n      pop\n        /* \"#utility.yul\":16331:16334   */\n      dup2\n        /* \"#utility.yul\":16324:16334   */\n      swap1\n      pop\n        /* \"#utility.yul\":16065:16340   */\n      swap3\n      swap2\n      pop\n      pop\n      jump\t// out\n        /* \"#utility.yul\":16346:16464   */\n    tag_157:\n        /* \"#utility.yul\":16433:16457   */\n      tag_332\n        /* \"#utility.yul\":16451:16456   */\n      dup2\n        /* \"#utility.yul\":16433:16457   */\n      tag_123\n      jump\t// in\n    tag_332:\n        /* \"#utility.yul\":16428:16431   */\n      dup3\n        /* \"#utility.yul\":16421:16458   */\n      mstore\n        /* \"#utility.yul\":16346:16464   */\n      pop\n      pop\n      jump\t// out\n        /* \"#utility.yul\":16470:16692   */\n    tag_90:\n        /* \"#utility.yul\":16563:16567   */\n      0x00\n        /* \"#utility.yul\":16601:16603   */\n      0x20\n        /* \"#utility.yul\":16590:16599   */\n      dup3\n        /* \"#utility.yul\":16586:16604   */\n      add\n        /* \"#utility.yul\":16578:16604   */\n      swap1\n      pop\n        /* \"#utility.yul\":16614:16685   */\n      tag_334\n        /* \"#utility.yul\":16682:16683   */\n      0x00\n        /* \"#utility.yul\":16671:16680   */\n      dup4\n        /* \"#utility.yul\":16667:16684   */\n      add\n        /* \"#utility.yul\":16658:16664   */\n      dup5\n        /* \"#utility.yul\":16614:16685   */\n      tag_157\n      jump\t// in\n    tag_334:\n        /* \"#utility.yul\":16470:16692   */\n      swap3\n      swap2\n      pop\n      pop\n      jump\t// out\n        /* \"#utility.yul\":16698:16841   */\n    tag_158:\n        /* \"#utility.yul\":16755:16760   */\n      0x00\n        /* \"#utility.yul\":16786:16792   */\n      dup2\n        /* \"#utility.yul\":16780:16793   */\n      mload\n        /* \"#utility.yul\":16771:16793   */\n      swap1\n      pop\n        /* \"#utility.yul\":16802:16835   */\n      tag_336\n        /* \"#utility.yul\":16829:16834   */\n      dup2\n        /* \"#utility.yul\":16802:16835   */\n      tag_124\n      jump\t// in\n    tag_336:\n        /* \"#utility.yul\":16698:16841   */\n      swap3\n      swap2\n      pop\n      pop\n      jump\t// out\n        /* \"#utility.yul\":16847:17198   */\n    tag_94:\n        /* \"#utility.yul\":16917:16923   */\n      0x00\n        /* \"#utility.yul\":16966:16968   */\n      0x20\n        /* \"#utility.yul\":16954:16963   */\n      dup3\n        /* \"#utility.yul\":16945:16952   */\n      dup5\n        /* \"#utility.yul\":16941:16964   */\n      sub\n        /* \"#utility.yul\":16937:16969   */\n      slt\n        /* \"#utility.yul\":16934:17053   */\n      iszero\n      tag_338\n      jumpi\n        /* \"#utility.yul\":16972:17051   */\n      tag_339\n      tag_121\n      jump\t// in\n    tag_339:\n        /* \"#utility.yul\":16934:17053   */\n    tag_338:\n        /* \"#utility.yul\":17092:17093   */\n      0x00\n        /* \"#utility.yul\":17117:17181   */\n      tag_340\n        /* \"#utility.yul\":17173:17180   */\n      dup5\n        /* \"#utility.yul\":17164:17170   */\n      dup3\n        /* \"#utility.yul\":17153:17162   */\n      dup6\n        /* \"#utility.yul\":17149:17171   */\n      add\n        /* \"#utility.yul\":17117:17181   */\n      tag_158\n      jump\t// in\n    tag_340:\n        /* \"#utility.yul\":17107:17181   */\n      swap2\n      pop\n        /* \"#utility.yul\":17063:17191   */\n      pop\n        /* \"#utility.yul\":16847:17198   */\n      swap3\n      swap2\n      pop\n      pop\n      jump\t// out\n        /* \"#utility.yul\":17204:17515   */\n    tag_159:\n        /* \"#utility.yul\":17281:17285   */\n      0x00\n        /* \"#utility.yul\":17371:17389   */\n      0xffffffffffffffff\n        /* \"#utility.yul\":17363:17369   */\n      dup3\n        /* \"#utility.yul\":17360:17390   */\n      gt\n        /* \"#utility.yul\":17357:17413   */\n      iszero\n      tag_342\n      jumpi\n        /* \"#utility.yul\":17393:17411   */\n      tag_343\n      tag_55\n      jump\t// in\n    tag_343:\n        /* \"#utility.yul\":17357:17413   */\n    tag_342:\n        /* \"#utility.yul\":17443:17447   */\n      0x20\n        /* \"#utility.yul\":17435:17441   */\n      dup3\n        /* \"#utility.yul\":17431:17448   */\n      mul\n        /* \"#utility.yul\":17423:17448   */\n      swap1\n      pop\n        /* \"#utility.yul\":17503:17507   */\n      0x20\n        /* \"#utility.yul\":17497:17501   */\n      dup2\n        /* \"#utility.yul\":17493:17508   */\n      add\n        /* \"#utility.yul\":17485:17508   */\n      swap1\n      pop\n        /* \"#utility.yul\":17204:17515   */\n      swap2\n      swap1\n      pop\n      jump\t// out\n        /* \"#utility.yul\":17521:17638   */\n    tag_160:\n        /* \"#utility.yul\":17630:17631   */\n      0x00\n        /* \"#utility.yul\":17627:17628   */\n      dup1\n        /* \"#utility.yul\":17620:17632   */\n      revert\n        /* \"#utility.yul\":17661:18393   */\n    tag_161:\n        /* \"#utility.yul\":17768:17773   */\n      0x00\n        /* \"#utility.yul\":17793:17874   */\n      tag_346\n        /* \"#utility.yul\":17809:17873   */\n      tag_347\n        /* \"#utility.yul\":17866:17872   */\n      dup5\n        /* \"#utility.yul\":17809:17873   */\n      tag_159\n      jump\t// in\n    tag_347:\n        /* \"#utility.yul\":17793:17874   */\n      tag_134\n      jump\t// in\n    tag_346:\n        /* \"#utility.yul\":17784:17874   */\n      swap1\n      pop\n        /* \"#utility.yul\":17894:17899   */\n      dup1\n        /* \"#utility.yul\":17923:17929   */\n      dup4\n        /* \"#utility.yul\":17916:17921   */\n      dup3\n        /* \"#utility.yul\":17909:17930   */\n      mstore\n        /* \"#utility.yul\":17957:17961   */\n      0x20\n        /* \"#utility.yul\":17950:17955   */\n      dup3\n        /* \"#utility.yul\":17946:17962   */\n      add\n        /* \"#utility.yul\":17939:17962   */\n      swap1\n      pop\n        /* \"#utility.yul\":18010:18014   */\n      0x20\n        /* \"#utility.yul\":18002:18008   */\n      dup5\n        /* \"#utility.yul\":17998:18015   */\n      mul\n        /* \"#utility.yul\":17990:17996   */\n      dup4\n        /* \"#utility.yul\":17986:18016   */\n      add\n        /* \"#utility.yul\":18039:18042   */\n      dup6\n        /* \"#utility.yul\":18031:18037   */\n      dup2\n        /* \"#utility.yul\":18028:18043   */\n      gt\n        /* \"#utility.yul\":18025:18147   */\n      iszero\n      tag_348\n      jumpi\n        /* \"#utility.yul\":18058:18137   */\n      tag_349\n      tag_160\n      jump\t// in\n    tag_349:\n        /* \"#utility.yul\":18025:18147   */\n    tag_348:\n        /* \"#utility.yul\":18173:18179   */\n      dup4\n        /* \"#utility.yul\":18156:18387   */\n    tag_350:\n        /* \"#utility.yul\":18190:18196   */\n      dup2\n        /* \"#utility.yul\":18185:18188   */\n      dup2\n        /* \"#utility.yul\":18182:18197   */\n      lt\n        /* \"#utility.yul\":18156:18387   */\n      iszero\n      tag_352\n      jumpi\n        /* \"#utility.yul\":18265:18268   */\n      dup1\n        /* \"#utility.yul\":18294:18342   */\n      tag_353\n        /* \"#utility.yul\":18338:18341   */\n      dup9\n        /* \"#utility.yul\":18326:18336   */\n      dup3\n        /* \"#utility.yul\":18294:18342   */\n      tag_158\n      jump\t// in\n    tag_353:\n        /* \"#utility.yul\":18289:18292   */\n      dup5\n        /* \"#utility.yul\":18282:18343   */\n      mstore\n        /* \"#utility.yul\":18372:18376   */\n      0x20\n        /* \"#utility.yul\":18367:18370   */\n      dup5\n        /* \"#utility.yul\":18363:18377   */\n      add\n        /* \"#utility.yul\":18356:18377   */\n      swap4\n      pop\n        /* \"#utility.yul\":18232:18387   */\n      pop\n        /* \"#utility.yul\":18216:18220   */\n      0x20\n        /* \"#utility.yul\":18211:18214   */\n      dup2\n        /* \"#utility.yul\":18207:18221   */\n      add\n        /* \"#utility.yul\":18200:18221   */\n      swap1\n      pop\n        /* \"#utility.yul\":18156:18387   */\n      jump(tag_350)\n    tag_352:\n        /* \"#utility.yul\":18160:18181   */\n      pop\n        /* \"#utility.yul\":17774:18393   */\n      pop\n      pop\n        /* \"#utility.yul\":17661:18393   */\n      swap4\n      swap3\n      pop\n      pop\n      pop\n      jump\t// out\n        /* \"#utility.yul\":18416:18801   */\n    tag_162:\n        /* \"#utility.yul\":18498:18503   */\n      0x00\n        /* \"#utility.yul\":18547:18550   */\n      dup3\n        /* \"#utility.yul\":18540:18544   */\n      0x1f\n        /* \"#utility.yul\":18532:18538   */\n      dup4\n        /* \"#utility.yul\":18528:18545   */\n      add\n        /* \"#utility.yul\":18524:18551   */\n      slt\n        /* \"#utility.yul\":18514:18636   */\n      tag_355\n      jumpi\n        /* \"#utility.yul\":18555:18634   */\n      tag_356\n      tag_131\n      jump\t// in\n    tag_356:\n        /* \"#utility.yul\":18514:18636   */\n    tag_355:\n        /* \"#utility.yul\":18665:18671   */\n      dup2\n        /* \"#utility.yul\":18659:18672   */\n      mload\n        /* \"#utility.yul\":18690:18795   */\n      tag_357\n        /* \"#utility.yul\":18791:18794   */\n      dup5\n        /* \"#utility.yul\":18783:18789   */\n      dup3\n        /* \"#utility.yul\":18776:18780   */\n      0x20\n        /* \"#utility.yul\":18768:18774   */\n      dup7\n        /* \"#utility.yul\":18764:18781   */\n      add\n        /* \"#utility.yul\":18690:18795   */\n      tag_161\n      jump\t// in\n    tag_357:\n        /* \"#utility.yul\":18681:18795   */\n      swap2\n      pop\n        /* \"#utility.yul\":18504:18801   */\n      pop\n        /* \"#utility.yul\":18416:18801   */\n      swap3\n      swap2\n      pop\n      pop\n      jump\t// out\n        /* \"#utility.yul\":18807:19361   */\n    tag_102:\n        /* \"#utility.yul\":18902:18908   */\n      0x00\n        /* \"#utility.yul\":18951:18953   */\n      0x20\n        /* \"#utility.yul\":18939:18948   */\n      dup3\n        /* \"#utility.yul\":18930:18937   */\n      dup5\n        /* \"#utility.yul\":18926:18949   */\n      sub\n        /* \"#utility.yul\":18922:18954   */\n      slt\n        /* \"#utility.yul\":18919:19038   */\n      iszero\n      tag_359\n      jumpi\n        /* \"#utility.yul\":18957:19036   */\n      tag_360\n      tag_121\n      jump\t// in\n    tag_360:\n        /* \"#utility.yul\":18919:19038   */\n    tag_359:\n        /* \"#utility.yul\":19098:19099   */\n      0x00\n        /* \"#utility.yul\":19087:19096   */\n      dup3\n        /* \"#utility.yul\":19083:19100   */\n      add\n        /* \"#utility.yul\":19077:19101   */\n      mload\n        /* \"#utility.yul\":19128:19146   */\n      0xffffffffffffffff\n        /* \"#utility.yul\":19120:19126   */\n      dup2\n        /* \"#utility.yul\":19117:19147   */\n      gt\n        /* \"#utility.yul\":19114:19231   */\n      iszero\n      tag_361\n      jumpi\n        /* \"#utility.yul\":19150:19229   */\n      tag_362\n      tag_122\n      jump\t// in\n    tag_362:\n        /* \"#utility.yul\":19114:19231   */\n    tag_361:\n        /* \"#utility.yul\":19255:19344   */\n      tag_363\n        /* \"#utility.yul\":19336:19343   */\n      dup5\n        /* \"#utility.yul\":19327:19333   */\n      dup3\n        /* \"#utility.yul\":19316:19325   */\n      dup6\n        /* \"#utility.yul\":19312:19334   */\n      add\n        /* \"#utility.yul\":19255:19344   */\n      tag_162\n      jump\t// in\n    tag_363:\n        /* \"#utility.yul\":19245:19344   */\n      swap2\n      pop\n        /* \"#utility.yul\":19048:19354   */\n      pop\n        /* \"#utility.yul\":18807:19361   */\n      swap3\n      swap2\n      pop\n      pop\n      jump\t// out\n        /* \"#utility.yul\":19367:19905   */\n    tag_116:\n        /* \"#utility.yul\":19535:19538   */\n      0x00\n        /* \"#utility.yul\":19550:19625   */\n      tag_365\n        /* \"#utility.yul\":19621:19624   */\n      dup3\n        /* \"#utility.yul\":19612:19618   */\n      dup7\n        /* \"#utility.yul\":19550:19625   */\n      tag_156\n      jump\t// in\n    tag_365:\n        /* \"#utility.yul\":19650:19652   */\n      0x20\n        /* \"#utility.yul\":19645:19648   */\n      dup3\n        /* \"#utility.yul\":19641:19653   */\n      add\n        /* \"#utility.yul\":19634:19653   */\n      swap2\n      pop\n        /* \"#utility.yul\":19663:19738   */\n      tag_366\n        /* \"#utility.yul\":19734:19737   */\n      dup3\n        /* \"#utility.yul\":19725:19731   */\n      dup6\n        /* \"#utility.yul\":19663:19738   */\n      tag_156\n      jump\t// in\n    tag_366:\n        /* \"#utility.yul\":19763:19765   */\n      0x20\n        /* \"#utility.yul\":19758:19761   */\n      dup3\n        /* \"#utility.yul\":19754:19766   */\n      add\n        /* \"#utility.yul\":19747:19766   */\n      swap2\n      pop\n        /* \"#utility.yul\":19776:19851   */\n      tag_367\n        /* \"#utility.yul\":19847:19850   */\n      dup3\n        /* \"#utility.yul\":19838:19844   */\n      dup5\n        /* \"#utility.yul\":19776:19851   */\n      tag_156\n      jump\t// in\n    tag_367:\n        /* \"#utility.yul\":19876:19878   */\n      0x20\n        /* \"#utility.yul\":19871:19874   */\n      dup3\n        /* \"#utility.yul\":19867:19879   */\n      add\n        /* \"#utility.yul\":19860:19879   */\n      swap2\n      pop\n        /* \"#utility.yul\":19896:19899   */\n      dup2\n        /* \"#utility.yul\":19889:19899   */\n      swap1\n      pop\n        /* \"#utility.yul\":19367:19905   */\n      swap5\n      swap4\n      pop\n      pop\n      pop\n      pop\n      jump\t// out\n        /* \"#utility.yul\":19911:20487   */\n    tag_119:\n        /* \"#utility.yul\":20119:20122   */\n      0x00\n        /* \"#utility.yul\":20134:20209   */\n      tag_369\n        /* \"#utility.yul\":20205:20208   */\n      dup3\n        /* \"#utility.yul\":20196:20202   */\n      dup7\n        /* \"#utility.yul\":20134:20209   */\n      tag_156\n      jump\t// in\n    tag_369:\n        /* \"#utility.yul\":20234:20236   */\n      0x20\n        /* \"#utility.yul\":20229:20232   */\n      dup3\n        /* \"#utility.yul\":20225:20237   */\n      add\n        /* \"#utility.yul\":20218:20237   */\n      swap2\n      pop\n        /* \"#utility.yul\":20254:20349   */\n      tag_370\n        /* \"#utility.yul\":20345:20348   */\n      dup3\n        /* \"#utility.yul\":20336:20342   */\n      dup6\n        /* \"#utility.yul\":20254:20349   */\n      tag_152\n      jump\t// in\n    tag_370:\n        /* \"#utility.yul\":20247:20349   */\n      swap2\n      pop\n        /* \"#utility.yul\":20366:20461   */\n      tag_371\n        /* \"#utility.yul\":20457:20460   */\n      dup3\n        /* \"#utility.yul\":20448:20454   */\n      dup5\n        /* \"#utility.yul\":20366:20461   */\n      tag_152\n      jump\t// in\n    tag_371:\n        /* \"#utility.yul\":20359:20461   */\n      swap2\n      pop\n        /* \"#utility.yul\":20478:20481   */\n      dup2\n        /* \"#utility.yul\":20471:20481   */\n      swap1\n      pop\n        /* \"#utility.yul\":19911:20487   */\n      swap5\n      swap4\n      pop\n      pop\n      pop\n      pop\n      jump\t// out\n\n    auxdata: 0xa26469706673582212209c7bd72304ab0c9c5128884ebd0c91dcf875811d6fbd8148a1ef53c504d8899664736f6c63430008120033\n}\n\nsub_1: assembly {\n        /* \"contracts/230523/concat.sol\":1873:2332  contract Q5 {... */\n      mstore(0x40, 0x80)\n      callvalue\n      dup1\n      iszero\n      tag_1\n      jumpi\n      0x00\n      dup1\n      revert\n    tag_1:\n      pop\n      dataSize(sub_0)\n      dup1\n      dataOffset(sub_0)\n      0x00\n      codecopy\n      0x00\n      return\n    stop\n\n    sub_0: assembly {\n            /* \"contracts/230523/concat.sol\":1873:2332  contract Q5 {... */\n          mstore(0x40, 0x80)\n          callvalue\n          dup1\n          iszero\n          tag_1\n          jumpi\n          0x00\n          dup1\n          revert\n        tag_1:\n          pop\n          jumpi(tag_2, lt(calldatasize, 0x04))\n          shr(0xe0, calldataload(0x00))\n          dup1\n          0x0986e647\n          eq\n          tag_3\n          jumpi\n          dup1\n          0x2ac45d9c\n          eq\n          tag_4\n          jumpi\n        tag_2:\n          0x00\n          dup1\n          revert\n            /* \"contracts/230523/concat.sol\":2172:2329  function getLength(uint _n) public pure returns(uint) {... */\n        tag_3:\n          tag_5\n          0x04\n          dup1\n          calldatasize\n          sub\n          dup2\n          add\n          swap1\n          tag_6\n          swap2\n          swap1\n          tag_7\n          jump\t// in\n        tag_6:\n          tag_8\n          jump\t// in\n        tag_5:\n          mload(0x40)\n          tag_9\n          swap2\n          swap1\n          tag_10\n          jump\t// in\n        tag_9:\n          mload(0x40)\n          dup1\n          swap2\n          sub\n          swap1\n          return\n            /* \"contracts/230523/concat.sol\":1892:2164  function divideNumber(uint _n) public pure returns(uint[] memory) {... */\n        tag_4:\n          tag_11\n          0x04\n          dup1\n          calldatasize\n          sub\n          dup2\n          add\n          swap1\n          tag_12\n          swap2\n          swap1\n          tag_7\n          jump\t// in\n        tag_12:\n          tag_13\n          jump\t// in\n        tag_11:\n          mload(0x40)\n          tag_14\n          swap2\n          swap1\n          tag_15\n          jump\t// in\n        tag_14:\n          mload(0x40)\n          dup1\n          swap2\n          sub\n          swap1\n          return\n            /* \"contracts/230523/concat.sol\":2172:2329  function getLength(uint _n) public pure returns(uint) {... */\n        tag_8:\n            /* \"contracts/230523/concat.sol\":2220:2224  uint */\n          0x00\n            /* \"contracts/230523/concat.sol\":2237:2243  uint a */\n          dup1\n            /* \"contracts/230523/concat.sol\":2254:2303  while(_n >= 10**a) {... */\n        tag_17:\n            /* \"contracts/230523/concat.sol\":2270:2271  a */\n          dup1\n            /* \"contracts/230523/concat.sol\":2266:2268  10 */\n          0x0a\n            /* \"contracts/230523/concat.sol\":2266:2271  10**a */\n          tag_19\n          swap2\n          swap1\n          tag_20\n          jump\t// in\n        tag_19:\n            /* \"contracts/230523/concat.sol\":2260:2262  _n */\n          dup4\n            /* \"contracts/230523/concat.sol\":2260:2271  _n >= 10**a */\n          lt\n            /* \"contracts/230523/concat.sol\":2254:2303  while(_n >= 10**a) {... */\n          tag_18\n          jumpi\n            /* \"contracts/230523/concat.sol\":2288:2291  a++ */\n          dup1\n          dup1\n          tag_21\n          swap1\n          tag_22\n          jump\t// in\n        tag_21:\n          swap2\n          pop\n          pop\n            /* \"contracts/230523/concat.sol\":2254:2303  while(_n >= 10**a) {... */\n          jump(tag_17)\n        tag_18:\n            /* \"contracts/230523/concat.sol\":2320:2321  a */\n          dup1\n            /* \"contracts/230523/concat.sol\":2313:2321  return a */\n          swap2\n          pop\n          pop\n            /* \"contracts/230523/concat.sol\":2172:2329  function getLength(uint _n) public pure returns(uint) {... */\n          swap2\n          swap1\n          pop\n          jump\t// out\n            /* \"contracts/230523/concat.sol\":1892:2164  function divideNumber(uint _n) public pure returns(uint[] memory) {... */\n        tag_13:\n            /* \"contracts/230523/concat.sol\":1943:1956  uint[] memory */\n          0x60\n            /* \"contracts/230523/concat.sol\":1969:1984  uint[] memory b */\n          0x00\n            /* \"contracts/230523/concat.sol\":1998:2011  getLength(_n) */\n          tag_24\n            /* \"contracts/230523/concat.sol\":2008:2010  _n */\n          dup4\n            /* \"contracts/230523/concat.sol\":1998:2007  getLength */\n          tag_8\n            /* \"contracts/230523/concat.sol\":1998:2011  getLength(_n) */\n          jump\t// in\n        tag_24:\n            /* \"contracts/230523/concat.sol\":1987:2012  new uint[](getLength(_n)) */\n          0xffffffffffffffff\n          dup2\n          gt\n          iszero\n          tag_25\n          jumpi\n          tag_26\n          tag_27\n          jump\t// in\n        tag_26:\n        tag_25:\n          mload(0x40)\n          swap1\n          dup1\n          dup3\n          mstore\n          dup1\n          0x20\n          mul\n          0x20\n          add\n          dup3\n          add\n          0x40\n          mstore\n          dup1\n          iszero\n          tag_28\n          jumpi\n          dup2\n          0x20\n          add\n          0x20\n          dup3\n          mul\n          dup1\n          calldatasize\n          dup4\n          calldatacopy\n          dup1\n          dup3\n          add\n          swap2\n          pop\n          pop\n          swap1\n          pop\n        tag_28:\n          pop\n            /* \"contracts/230523/concat.sol\":1969:2012  uint[] memory b = new uint[](getLength(_n)) */\n          swap1\n          pop\n            /* \"contracts/230523/concat.sol\":2025:2031  uint i */\n          0x00\n            /* \"contracts/230523/concat.sol\":2032:2045  getLength(_n) */\n          tag_29\n            /* \"contracts/230523/concat.sol\":2042:2044  _n */\n          dup5\n            /* \"contracts/230523/concat.sol\":2032:2041  getLength */\n          tag_8\n            /* \"contracts/230523/concat.sol\":2032:2045  getLength(_n) */\n          jump\t// in\n        tag_29:\n            /* \"contracts/230523/concat.sol\":2025:2045  uint i=getLength(_n) */\n          swap1\n          pop\n            /* \"contracts/230523/concat.sol\":2056:2136  while(_n !=0) {... */\n        tag_30:\n            /* \"contracts/230523/concat.sol\":2067:2068  0 */\n          0x00\n            /* \"contracts/230523/concat.sol\":2062:2064  _n */\n          dup5\n            /* \"contracts/230523/concat.sol\":2062:2068  _n !=0 */\n          eq\n            /* \"contracts/230523/concat.sol\":2056:2136  while(_n !=0) {... */\n          tag_31\n          jumpi\n            /* \"contracts/230523/concat.sol\":2097:2099  10 */\n          0x0a\n            /* \"contracts/230523/concat.sol\":2094:2096  _n */\n          dup5\n            /* \"contracts/230523/concat.sol\":2094:2099  _n%10 */\n          tag_32\n          swap2\n          swap1\n          tag_33\n          jump\t// in\n        tag_32:\n            /* \"contracts/230523/concat.sol\":2085:2086  b */\n          dup3\n            /* \"contracts/230523/concat.sol\":2087:2090  --i */\n          dup3\n          tag_34\n          swap1\n          tag_35\n          jump\t// in\n        tag_34:\n          swap3\n          pop\n          dup3\n            /* \"contracts/230523/concat.sol\":2085:2091  b[--i] */\n          dup2\n          mload\n          dup2\n          lt\n          tag_36\n          jumpi\n          tag_37\n          tag_38\n          jump\t// in\n        tag_37:\n        tag_36:\n          0x20\n          mul\n          0x20\n          add\n          add\n            /* \"contracts/230523/concat.sol\":2085:2099  b[--i] = _n%10 */\n          dup2\n          dup2\n          mstore\n          pop\n          pop\n            /* \"contracts/230523/concat.sol\":2122:2124  10 */\n          0x0a\n            /* \"contracts/230523/concat.sol\":2119:2121  _n */\n          dup5\n            /* \"contracts/230523/concat.sol\":2119:2124  _n/10 */\n          tag_39\n          swap2\n          swap1\n          tag_40\n          jump\t// in\n        tag_39:\n            /* \"contracts/230523/concat.sol\":2114:2124  _n = _n/10 */\n          swap4\n          pop\n            /* \"contracts/230523/concat.sol\":2056:2136  while(_n !=0) {... */\n          jump(tag_30)\n        tag_31:\n            /* \"contracts/230523/concat.sol\":2154:2155  b */\n          dup2\n            /* \"contracts/230523/concat.sol\":2146:2156  return (b) */\n          swap3\n          pop\n          pop\n          pop\n            /* \"contracts/230523/concat.sol\":1892:2164  function divideNumber(uint _n) public pure returns(uint[] memory) {... */\n          swap2\n          swap1\n          pop\n          jump\t// out\n            /* \"#utility.yul\":88:205   */\n        tag_42:\n            /* \"#utility.yul\":197:198   */\n          0x00\n            /* \"#utility.yul\":194:195   */\n          dup1\n            /* \"#utility.yul\":187:199   */\n          revert\n            /* \"#utility.yul\":334:411   */\n        tag_44:\n            /* \"#utility.yul\":371:378   */\n          0x00\n            /* \"#utility.yul\":400:405   */\n          dup2\n            /* \"#utility.yul\":389:405   */\n          swap1\n          pop\n            /* \"#utility.yul\":334:411   */\n          swap2\n          swap1\n          pop\n          jump\t// out\n            /* \"#utility.yul\":417:539   */\n        tag_45:\n            /* \"#utility.yul\":490:514   */\n          tag_66\n            /* \"#utility.yul\":508:513   */\n          dup2\n            /* \"#utility.yul\":490:514   */\n          tag_44\n          jump\t// in\n        tag_66:\n            /* \"#utility.yul\":483:488   */\n          dup2\n            /* \"#utility.yul\":480:515   */\n          eq\n            /* \"#utility.yul\":470:533   */\n          tag_67\n          jumpi\n            /* \"#utility.yul\":529:530   */\n          0x00\n            /* \"#utility.yul\":526:527   */\n          dup1\n            /* \"#utility.yul\":519:531   */\n          revert\n            /* \"#utility.yul\":470:533   */\n        tag_67:\n            /* \"#utility.yul\":417:539   */\n          pop\n          jump\t// out\n            /* \"#utility.yul\":545:684   */\n        tag_46:\n            /* \"#utility.yul\":591:596   */\n          0x00\n            /* \"#utility.yul\":629:635   */\n          dup2\n            /* \"#utility.yul\":616:636   */\n          calldataload\n            /* \"#utility.yul\":607:636   */\n          swap1\n          pop\n            /* \"#utility.yul\":645:678   */\n          tag_69\n            /* \"#utility.yul\":672:677   */\n          dup2\n            /* \"#utility.yul\":645:678   */\n          tag_45\n          jump\t// in\n        tag_69:\n            /* \"#utility.yul\":545:684   */\n          swap3\n          swap2\n          pop\n          pop\n          jump\t// out\n            /* \"#utility.yul\":690:1019   */\n        tag_7:\n            /* \"#utility.yul\":749:755   */\n          0x00\n            /* \"#utility.yul\":798:800   */\n          0x20\n            /* \"#utility.yul\":786:795   */\n          dup3\n            /* \"#utility.yul\":777:784   */\n          dup5\n            /* \"#utility.yul\":773:796   */\n          sub\n            /* \"#utility.yul\":769:801   */\n          slt\n            /* \"#utility.yul\":766:885   */\n          iszero\n          tag_71\n          jumpi\n            /* \"#utility.yul\":804:883   */\n          tag_72\n          tag_42\n          jump\t// in\n        tag_72:\n            /* \"#utility.yul\":766:885   */\n        tag_71:\n            /* \"#utility.yul\":924:925   */\n          0x00\n            /* \"#utility.yul\":949:1002   */\n          tag_73\n            /* \"#utility.yul\":994:1001   */\n          dup5\n            /* \"#utility.yul\":985:991   */\n          dup3\n            /* \"#utility.yul\":974:983   */\n          dup6\n            /* \"#utility.yul\":970:992   */\n          add\n            /* \"#utility.yul\":949:1002   */\n          tag_46\n          jump\t// in\n        tag_73:\n            /* \"#utility.yul\":939:1002   */\n          swap2\n          pop\n            /* \"#utility.yul\":895:1012   */\n          pop\n            /* \"#utility.yul\":690:1019   */\n          swap3\n          swap2\n          pop\n          pop\n          jump\t// out\n            /* \"#utility.yul\":1025:1143   */\n        tag_47:\n            /* \"#utility.yul\":1112:1136   */\n          tag_75\n            /* \"#utility.yul\":1130:1135   */\n          dup2\n            /* \"#utility.yul\":1112:1136   */\n          tag_44\n          jump\t// in\n        tag_75:\n            /* \"#utility.yul\":1107:1110   */\n          dup3\n            /* \"#utility.yul\":1100:1137   */\n          mstore\n            /* \"#utility.yul\":1025:1143   */\n          pop\n          pop\n          jump\t// out\n            /* \"#utility.yul\":1149:1371   */\n        tag_10:\n            /* \"#utility.yul\":1242:1246   */\n          0x00\n            /* \"#utility.yul\":1280:1282   */\n          0x20\n            /* \"#utility.yul\":1269:1278   */\n          dup3\n            /* \"#utility.yul\":1265:1283   */\n          add\n            /* \"#utility.yul\":1257:1283   */\n          swap1\n          pop\n            /* \"#utility.yul\":1293:1364   */\n          tag_77\n            /* \"#utility.yul\":1361:1362   */\n          0x00\n            /* \"#utility.yul\":1350:1359   */\n          dup4\n            /* \"#utility.yul\":1346:1363   */\n          add\n            /* \"#utility.yul\":1337:1343   */\n          dup5\n            /* \"#utility.yul\":1293:1364   */\n          tag_47\n          jump\t// in\n        tag_77:\n            /* \"#utility.yul\":1149:1371   */\n          swap3\n          swap2\n          pop\n          pop\n          jump\t// out\n            /* \"#utility.yul\":1377:1491   */\n        tag_48:\n            /* \"#utility.yul\":1444:1450   */\n          0x00\n            /* \"#utility.yul\":1478:1483   */\n          dup2\n            /* \"#utility.yul\":1472:1484   */\n          mload\n            /* \"#utility.yul\":1462:1484   */\n          swap1\n          pop\n            /* \"#utility.yul\":1377:1491   */\n          swap2\n          swap1\n          pop\n          jump\t// out\n            /* \"#utility.yul\":1497:1681   */\n        tag_49:\n            /* \"#utility.yul\":1596:1607   */\n          0x00\n            /* \"#utility.yul\":1630:1636   */\n          dup3\n            /* \"#utility.yul\":1625:1628   */\n          dup3\n            /* \"#utility.yul\":1618:1637   */\n          mstore\n            /* \"#utility.yul\":1670:1674   */\n          0x20\n            /* \"#utility.yul\":1665:1668   */\n          dup3\n            /* \"#utility.yul\":1661:1675   */\n          add\n            /* \"#utility.yul\":1646:1675   */\n          swap1\n          pop\n            /* \"#utility.yul\":1497:1681   */\n          swap3\n          swap2\n          pop\n          pop\n          jump\t// out\n            /* \"#utility.yul\":1687:1819   */\n        tag_50:\n            /* \"#utility.yul\":1754:1758   */\n          0x00\n            /* \"#utility.yul\":1777:1780   */\n          dup2\n            /* \"#utility.yul\":1769:1780   */\n          swap1\n          pop\n            /* \"#utility.yul\":1807:1811   */\n          0x20\n            /* \"#utility.yul\":1802:1805   */\n          dup3\n            /* \"#utility.yul\":1798:1812   */\n          add\n            /* \"#utility.yul\":1790:1812   */\n          swap1\n          pop\n            /* \"#utility.yul\":1687:1819   */\n          swap2\n          swap1\n          pop\n          jump\t// out\n            /* \"#utility.yul\":1825:1933   */\n        tag_51:\n            /* \"#utility.yul\":1902:1926   */\n          tag_82\n            /* \"#utility.yul\":1920:1925   */\n          dup2\n            /* \"#utility.yul\":1902:1926   */\n          tag_44\n          jump\t// in\n        tag_82:\n            /* \"#utility.yul\":1897:1900   */\n          dup3\n            /* \"#utility.yul\":1890:1927   */\n          mstore\n            /* \"#utility.yul\":1825:1933   */\n          pop\n          pop\n          jump\t// out\n            /* \"#utility.yul\":1939:2118   */\n        tag_52:\n            /* \"#utility.yul\":2008:2018   */\n          0x00\n            /* \"#utility.yul\":2029:2075   */\n          tag_84\n            /* \"#utility.yul\":2071:2074   */\n          dup4\n            /* \"#utility.yul\":2063:2069   */\n          dup4\n            /* \"#utility.yul\":2029:2075   */\n          tag_51\n          jump\t// in\n        tag_84:\n            /* \"#utility.yul\":2107:2111   */\n          0x20\n            /* \"#utility.yul\":2102:2105   */\n          dup4\n            /* \"#utility.yul\":2098:2112   */\n          add\n            /* \"#utility.yul\":2084:2112   */\n          swap1\n          pop\n            /* \"#utility.yul\":1939:2118   */\n          swap3\n          swap2\n          pop\n          pop\n          jump\t// out\n            /* \"#utility.yul\":2124:2237   */\n        tag_53:\n            /* \"#utility.yul\":2194:2198   */\n          0x00\n            /* \"#utility.yul\":2226:2230   */\n          0x20\n            /* \"#utility.yul\":2221:2224   */\n          dup3\n            /* \"#utility.yul\":2217:2231   */\n          add\n            /* \"#utility.yul\":2209:2231   */\n          swap1\n          pop\n            /* \"#utility.yul\":2124:2237   */\n          swap2\n          swap1\n          pop\n          jump\t// out\n            /* \"#utility.yul\":2273:3005   */\n        tag_54:\n            /* \"#utility.yul\":2392:2395   */\n          0x00\n            /* \"#utility.yul\":2421:2475   */\n          tag_87\n            /* \"#utility.yul\":2469:2474   */\n          dup3\n            /* \"#utility.yul\":2421:2475   */\n          tag_48\n          jump\t// in\n        tag_87:\n            /* \"#utility.yul\":2491:2577   */\n          tag_88\n            /* \"#utility.yul\":2570:2576   */\n          dup2\n            /* \"#utility.yul\":2565:2568   */\n          dup6\n            /* \"#utility.yul\":2491:2577   */\n          tag_49\n          jump\t// in\n        tag_88:\n            /* \"#utility.yul\":2484:2577   */\n          swap4\n          pop\n            /* \"#utility.yul\":2601:2657   */\n          tag_89\n            /* \"#utility.yul\":2651:2656   */\n          dup4\n            /* \"#utility.yul\":2601:2657   */\n          tag_50\n          jump\t// in\n        tag_89:\n            /* \"#utility.yul\":2680:2687   */\n          dup1\n            /* \"#utility.yul\":2711:2712   */\n          0x00\n            /* \"#utility.yul\":2696:2980   */\n        tag_90:\n            /* \"#utility.yul\":2721:2727   */\n          dup4\n            /* \"#utility.yul\":2718:2719   */\n          dup2\n            /* \"#utility.yul\":2715:2728   */\n          lt\n            /* \"#utility.yul\":2696:2980   */\n          iszero\n          tag_92\n          jumpi\n            /* \"#utility.yul\":2797:2803   */\n          dup2\n            /* \"#utility.yul\":2791:2804   */\n          mload\n            /* \"#utility.yul\":2824:2887   */\n          tag_93\n            /* \"#utility.yul\":2883:2886   */\n          dup9\n            /* \"#utility.yul\":2868:2881   */\n          dup3\n            /* \"#utility.yul\":2824:2887   */\n          tag_52\n          jump\t// in\n        tag_93:\n            /* \"#utility.yul\":2817:2887   */\n          swap8\n          pop\n            /* \"#utility.yul\":2910:2970   */\n          tag_94\n            /* \"#utility.yul\":2963:2969   */\n          dup4\n            /* \"#utility.yul\":2910:2970   */\n          tag_53\n          jump\t// in\n        tag_94:\n            /* \"#utility.yul\":2900:2970   */\n          swap3\n          pop\n            /* \"#utility.yul\":2756:2980   */\n          pop\n            /* \"#utility.yul\":2743:2744   */\n          0x01\n            /* \"#utility.yul\":2740:2741   */\n          dup2\n            /* \"#utility.yul\":2736:2745   */\n          add\n            /* \"#utility.yul\":2731:2745   */\n          swap1\n          pop\n            /* \"#utility.yul\":2696:2980   */\n          jump(tag_90)\n        tag_92:\n            /* \"#utility.yul\":2700:2714   */\n          pop\n            /* \"#utility.yul\":2996:2999   */\n          dup6\n            /* \"#utility.yul\":2989:2999   */\n          swap4\n          pop\n            /* \"#utility.yul\":2397:3005   */\n          pop\n          pop\n          pop\n            /* \"#utility.yul\":2273:3005   */\n          swap3\n          swap2\n          pop\n          pop\n          jump\t// out\n            /* \"#utility.yul\":3011:3384   */\n        tag_15:\n            /* \"#utility.yul\":3154:3158   */\n          0x00\n            /* \"#utility.yul\":3192:3194   */\n          0x20\n            /* \"#utility.yul\":3181:3190   */\n          dup3\n            /* \"#utility.yul\":3177:3195   */\n          add\n            /* \"#utility.yul\":3169:3195   */\n          swap1\n          pop\n            /* \"#utility.yul\":3241:3250   */\n          dup2\n            /* \"#utility.yul\":3235:3239   */\n          dup2\n            /* \"#utility.yul\":3231:3251   */\n          sub\n            /* \"#utility.yul\":3227:3228   */\n          0x00\n            /* \"#utility.yul\":3216:3225   */\n          dup4\n            /* \"#utility.yul\":3212:3229   */\n          add\n            /* \"#utility.yul\":3205:3252   */\n          mstore\n            /* \"#utility.yul\":3269:3377   */\n          tag_96\n            /* \"#utility.yul\":3372:3376   */\n          dup2\n            /* \"#utility.yul\":3363:3369   */\n          dup5\n            /* \"#utility.yul\":3269:3377   */\n          tag_54\n          jump\t// in\n        tag_96:\n            /* \"#utility.yul\":3261:3377   */\n          swap1\n          pop\n            /* \"#utility.yul\":3011:3384   */\n          swap3\n          swap2\n          pop\n          pop\n          jump\t// out\n            /* \"#utility.yul\":3390:3570   */\n        tag_55:\n            /* \"#utility.yul\":3438:3515   */\n          0x4e487b7100000000000000000000000000000000000000000000000000000000\n            /* \"#utility.yul\":3435:3436   */\n          0x00\n            /* \"#utility.yul\":3428:3516   */\n          mstore\n            /* \"#utility.yul\":3535:3539   */\n          0x11\n            /* \"#utility.yul\":3532:3533   */\n          0x04\n            /* \"#utility.yul\":3525:3540   */\n          mstore\n            /* \"#utility.yul\":3559:3563   */\n          0x24\n            /* \"#utility.yul\":3556:3557   */\n          0x00\n            /* \"#utility.yul\":3549:3564   */\n          revert\n            /* \"#utility.yul\":3576:3678   */\n        tag_56:\n            /* \"#utility.yul\":3618:3626   */\n          0x00\n            /* \"#utility.yul\":3665:3670   */\n          dup2\n            /* \"#utility.yul\":3662:3663   */\n          0x01\n            /* \"#utility.yul\":3658:3671   */\n          shr\n            /* \"#utility.yul\":3637:3671   */\n          swap1\n          pop\n            /* \"#utility.yul\":3576:3678   */\n          swap2\n          swap1\n          pop\n          jump\t// out\n            /* \"#utility.yul\":3684:4532   */\n        tag_57:\n            /* \"#utility.yul\":3745:3750   */\n          0x00\n            /* \"#utility.yul\":3752:3756   */\n          dup1\n            /* \"#utility.yul\":3776:3782   */\n          dup3\n            /* \"#utility.yul\":3767:3782   */\n          swap2\n          pop\n            /* \"#utility.yul\":3800:3805   */\n          dup4\n            /* \"#utility.yul\":3791:3805   */\n          swap1\n          pop\n            /* \"#utility.yul\":3814:4526   */\n        tag_100:\n            /* \"#utility.yul\":3835:3836   */\n          0x01\n            /* \"#utility.yul\":3825:3833   */\n          dup6\n            /* \"#utility.yul\":3822:3837   */\n          gt\n            /* \"#utility.yul\":3814:4526   */\n          iszero\n          tag_102\n          jumpi\n            /* \"#utility.yul\":3930:3934   */\n          dup1\n            /* \"#utility.yul\":3925:3928   */\n          dup7\n            /* \"#utility.yul\":3921:3935   */\n          div\n            /* \"#utility.yul\":3915:3919   */\n          dup2\n            /* \"#utility.yul\":3912:3936   */\n          gt\n            /* \"#utility.yul\":3909:3959   */\n          iszero\n          tag_103\n          jumpi\n            /* \"#utility.yul\":3939:3957   */\n          tag_104\n          tag_55\n          jump\t// in\n        tag_104:\n            /* \"#utility.yul\":3909:3959   */\n        tag_103:\n            /* \"#utility.yul\":3989:3990   */\n          0x01\n            /* \"#utility.yul\":3979:3987   */\n          dup6\n            /* \"#utility.yul\":3975:3991   */\n          and\n            /* \"#utility.yul\":3972:4423   */\n          iszero\n          tag_105\n          jumpi\n            /* \"#utility.yul\":4404:4408   */\n          dup1\n            /* \"#utility.yul\":4397:4402   */\n          dup3\n            /* \"#utility.yul\":4393:4409   */\n          mul\n            /* \"#utility.yul\":4384:4409   */\n          swap2\n          pop\n            /* \"#utility.yul\":3972:4423   */\n        tag_105:\n            /* \"#utility.yul\":4454:4458   */\n          dup1\n            /* \"#utility.yul\":4448:4452   */\n          dup2\n            /* \"#utility.yul\":4444:4459   */\n          mul\n            /* \"#utility.yul\":4436:4459   */\n          swap1\n          pop\n            /* \"#utility.yul\":4484:4516   */\n          tag_106\n            /* \"#utility.yul\":4507:4515   */\n          dup6\n            /* \"#utility.yul\":4484:4516   */\n          tag_56\n          jump\t// in\n        tag_106:\n            /* \"#utility.yul\":4472:4516   */\n          swap5\n          pop\n            /* \"#utility.yul\":3814:4526   */\n          jump(tag_100)\n        tag_102:\n            /* \"#utility.yul\":3684:4532   */\n          swap5\n          pop\n          swap5\n          swap3\n          pop\n          pop\n          pop\n          jump\t// out\n            /* \"#utility.yul\":4538:5611   */\n        tag_58:\n            /* \"#utility.yul\":4592:4597   */\n          0x00\n            /* \"#utility.yul\":4783:4791   */\n          dup3\n            /* \"#utility.yul\":4773:4813   */\n          tag_108\n          jumpi\n            /* \"#utility.yul\":4804:4805   */\n          0x01\n            /* \"#utility.yul\":4795:4805   */\n          swap1\n          pop\n            /* \"#utility.yul\":4806:4811   */\n          jump(tag_107)\n            /* \"#utility.yul\":4773:4813   */\n        tag_108:\n            /* \"#utility.yul\":4832:4836   */\n          dup2\n            /* \"#utility.yul\":4822:4858   */\n          tag_109\n          jumpi\n            /* \"#utility.yul\":4849:4850   */\n          0x00\n            /* \"#utility.yul\":4840:4850   */\n          swap1\n          pop\n            /* \"#utility.yul\":4851:4856   */\n          jump(tag_107)\n            /* \"#utility.yul\":4822:4858   */\n        tag_109:\n            /* \"#utility.yul\":4918:4922   */\n          dup2\n            /* \"#utility.yul\":4966:4967   */\n          0x01\n            /* \"#utility.yul\":4961:4988   */\n          dup2\n          eq\n          tag_111\n          jumpi\n            /* \"#utility.yul\":5002:5003   */\n          0x02\n            /* \"#utility.yul\":4997:5188   */\n          dup2\n          eq\n          tag_112\n          jumpi\n            /* \"#utility.yul\":4911:5188   */\n          jump(tag_110)\n            /* \"#utility.yul\":4961:4988   */\n        tag_111:\n            /* \"#utility.yul\":4979:4980   */\n          0x01\n            /* \"#utility.yul\":4970:4980   */\n          swap2\n          pop\n            /* \"#utility.yul\":4981:4986   */\n          pop\n          jump(tag_107)\n            /* \"#utility.yul\":4997:5188   */\n        tag_112:\n            /* \"#utility.yul\":5042:5045   */\n          0xff\n            /* \"#utility.yul\":5032:5040   */\n          dup5\n            /* \"#utility.yul\":5029:5046   */\n          gt\n            /* \"#utility.yul\":5026:5069   */\n          iszero\n          tag_113\n          jumpi\n            /* \"#utility.yul\":5049:5067   */\n          tag_114\n          tag_55\n          jump\t// in\n        tag_114:\n            /* \"#utility.yul\":5026:5069   */\n        tag_113:\n            /* \"#utility.yul\":5098:5106   */\n          dup4\n            /* \"#utility.yul\":5095:5096   */\n          0x02\n            /* \"#utility.yul\":5091:5107   */\n          exp\n            /* \"#utility.yul\":5082:5107   */\n          swap2\n          pop\n            /* \"#utility.yul\":5133:5136   */\n          dup5\n            /* \"#utility.yul\":5126:5131   */\n          dup3\n            /* \"#utility.yul\":5123:5137   */\n          gt\n            /* \"#utility.yul\":5120:5160   */\n          iszero\n          tag_115\n          jumpi\n            /* \"#utility.yul\":5140:5158   */\n          tag_116\n          tag_55\n          jump\t// in\n        tag_116:\n            /* \"#utility.yul\":5120:5160   */\n        tag_115:\n            /* \"#utility.yul\":5173:5178   */\n          pop\n          jump(tag_107)\n            /* \"#utility.yul\":4911:5188   */\n        tag_110:\n          pop\n            /* \"#utility.yul\":5297:5299   */\n          0x20\n            /* \"#utility.yul\":5287:5295   */\n          dup4\n            /* \"#utility.yul\":5284:5300   */\n          lt\n            /* \"#utility.yul\":5278:5281   */\n          0x0133\n            /* \"#utility.yul\":5272:5276   */\n          dup4\n            /* \"#utility.yul\":5269:5282   */\n          lt\n            /* \"#utility.yul\":5265:5301   */\n          and\n            /* \"#utility.yul\":5247:5249   */\n          0x4e\n            /* \"#utility.yul\":5237:5245   */\n          dup5\n            /* \"#utility.yul\":5234:5250   */\n          lt\n            /* \"#utility.yul\":5229:5231   */\n          0x0b\n            /* \"#utility.yul\":5223:5227   */\n          dup5\n            /* \"#utility.yul\":5220:5232   */\n          lt\n            /* \"#utility.yul\":5216:5251   */\n          and\n            /* \"#utility.yul\":5200:5311   */\n          or\n            /* \"#utility.yul\":5197:5443   */\n          iszero\n          tag_117\n          jumpi\n            /* \"#utility.yul\":5353:5361   */\n          dup3\n            /* \"#utility.yul\":5347:5351   */\n          dup3\n            /* \"#utility.yul\":5343:5362   */\n          exp\n            /* \"#utility.yul\":5334:5362   */\n          swap1\n          pop\n            /* \"#utility.yul\":5388:5391   */\n          dup4\n            /* \"#utility.yul\":5381:5386   */\n          dup2\n            /* \"#utility.yul\":5378:5392   */\n          gt\n            /* \"#utility.yul\":5375:5415   */\n          iszero\n          tag_118\n          jumpi\n            /* \"#utility.yul\":5395:5413   */\n          tag_119\n          tag_55\n          jump\t// in\n        tag_119:\n            /* \"#utility.yul\":5375:5415   */\n        tag_118:\n            /* \"#utility.yul\":5428:5433   */\n          jump(tag_107)\n            /* \"#utility.yul\":5197:5443   */\n        tag_117:\n            /* \"#utility.yul\":5468:5510   */\n          tag_120\n            /* \"#utility.yul\":5506:5509   */\n          dup5\n            /* \"#utility.yul\":5496:5504   */\n          dup5\n            /* \"#utility.yul\":5490:5494   */\n          dup5\n            /* \"#utility.yul\":5487:5488   */\n          0x01\n            /* \"#utility.yul\":5468:5510   */\n          tag_57\n          jump\t// in\n        tag_120:\n            /* \"#utility.yul\":5453:5510   */\n          swap3\n          pop\n          swap1\n          pop\n            /* \"#utility.yul\":5542:5546   */\n          dup2\n            /* \"#utility.yul\":5537:5540   */\n          dup5\n            /* \"#utility.yul\":5533:5547   */\n          div\n            /* \"#utility.yul\":5526:5531   */\n          dup2\n            /* \"#utility.yul\":5523:5548   */\n          gt\n            /* \"#utility.yul\":5520:5571   */\n          iszero\n          tag_121\n          jumpi\n            /* \"#utility.yul\":5551:5569   */\n          tag_122\n          tag_55\n          jump\t// in\n        tag_122:\n            /* \"#utility.yul\":5520:5571   */\n        tag_121:\n            /* \"#utility.yul\":5600:5604   */\n          dup2\n            /* \"#utility.yul\":5593:5598   */\n          dup2\n            /* \"#utility.yul\":5589:5605   */\n          mul\n            /* \"#utility.yul\":5580:5605   */\n          swap1\n          pop\n            /* \"#utility.yul\":4538:5611   */\n        tag_107:\n          swap4\n          swap3\n          pop\n          pop\n          pop\n          jump\t// out\n            /* \"#utility.yul\":5617:5902   */\n        tag_20:\n            /* \"#utility.yul\":5677:5682   */\n          0x00\n            /* \"#utility.yul\":5701:5724   */\n          tag_124\n            /* \"#utility.yul\":5719:5723   */\n          dup3\n            /* \"#utility.yul\":5701:5724   */\n          tag_44\n          jump\t// in\n        tag_124:\n            /* \"#utility.yul\":5693:5724   */\n          swap2\n          pop\n            /* \"#utility.yul\":5745:5772   */\n          tag_125\n            /* \"#utility.yul\":5763:5771   */\n          dup4\n            /* \"#utility.yul\":5745:5772   */\n          tag_44\n          jump\t// in\n        tag_125:\n            /* \"#utility.yul\":5733:5772   */\n          swap3\n          pop\n            /* \"#utility.yul\":5791:5895   */\n          tag_126\n            /* \"#utility.yul\":5828:5894   */\n          0xffffffffffffffffffffffffffffffffffffffffffffffffffffffffffffffff\n            /* \"#utility.yul\":5818:5826   */\n          dup5\n            /* \"#utility.yul\":5812:5816   */\n          dup5\n            /* \"#utility.yul\":5791:5895   */\n          tag_58\n          jump\t// in\n        tag_126:\n            /* \"#utility.yul\":5782:5895   */\n          swap1\n          pop\n            /* \"#utility.yul\":5617:5902   */\n          swap3\n          swap2\n          pop\n          pop\n          jump\t// out\n            /* \"#utility.yul\":5908:6141   */\n        tag_22:\n            /* \"#utility.yul\":5947:5950   */\n          0x00\n            /* \"#utility.yul\":5970:5994   */\n          tag_128\n            /* \"#utility.yul\":5988:5993   */\n          dup3\n            /* \"#utility.yul\":5970:5994   */\n          tag_44\n          jump\t// in\n        tag_128:\n            /* \"#utility.yul\":5961:5994   */\n          swap2\n          pop\n            /* \"#utility.yul\":6016:6082   */\n          0xffffffffffffffffffffffffffffffffffffffffffffffffffffffffffffffff\n            /* \"#utility.yul\":6009:6014   */\n          dup3\n            /* \"#utility.yul\":6006:6083   */\n          sub\n            /* \"#utility.yul\":6003:6106   */\n          tag_129\n          jumpi\n            /* \"#utility.yul\":6086:6104   */\n          tag_130\n          tag_55\n          jump\t// in\n        tag_130:\n            /* \"#utility.yul\":6003:6106   */\n        tag_129:\n            /* \"#utility.yul\":6133:6134   */\n          0x01\n            /* \"#utility.yul\":6126:6131   */\n          dup3\n            /* \"#utility.yul\":6122:6135   */\n          add\n            /* \"#utility.yul\":6115:6135   */\n          swap1\n          pop\n            /* \"#utility.yul\":5908:6141   */\n          swap2\n          swap1\n          pop\n          jump\t// out\n            /* \"#utility.yul\":6147:6327   */\n        tag_27:\n            /* \"#utility.yul\":6195:6272   */\n          0x4e487b7100000000000000000000000000000000000000000000000000000000\n            /* \"#utility.yul\":6192:6193   */\n          0x00\n            /* \"#utility.yul\":6185:6273   */\n          mstore\n            /* \"#utility.yul\":6292:6296   */\n          0x41\n            /* \"#utility.yul\":6289:6290   */\n          0x04\n            /* \"#utility.yul\":6282:6297   */\n          mstore\n            /* \"#utility.yul\":6316:6320   */\n          0x24\n            /* \"#utility.yul\":6313:6314   */\n          0x00\n            /* \"#utility.yul\":6306:6321   */\n          revert\n            /* \"#utility.yul\":6333:6513   */\n        tag_59:\n            /* \"#utility.yul\":6381:6458   */\n          0x4e487b7100000000000000000000000000000000000000000000000000000000\n            /* \"#utility.yul\":6378:6379   */\n          0x00\n            /* \"#utility.yul\":6371:6459   */\n          mstore\n            /* \"#utility.yul\":6478:6482   */\n          0x12\n            /* \"#utility.yul\":6475:6476   */\n          0x04\n            /* \"#utility.yul\":6468:6483   */\n          mstore\n            /* \"#utility.yul\":6502:6506   */\n          0x24\n            /* \"#utility.yul\":6499:6500   */\n          0x00\n            /* \"#utility.yul\":6492:6507   */\n          revert\n            /* \"#utility.yul\":6519:6695   */\n        tag_33:\n            /* \"#utility.yul\":6551:6552   */\n          0x00\n            /* \"#utility.yul\":6568:6588   */\n          tag_134\n            /* \"#utility.yul\":6586:6587   */\n          dup3\n            /* \"#utility.yul\":6568:6588   */\n          tag_44\n          jump\t// in\n        tag_134:\n            /* \"#utility.yul\":6563:6588   */\n          swap2\n          pop\n            /* \"#utility.yul\":6602:6622   */\n          tag_135\n            /* \"#utility.yul\":6620:6621   */\n          dup4\n            /* \"#utility.yul\":6602:6622   */\n          tag_44\n          jump\t// in\n        tag_135:\n            /* \"#utility.yul\":6597:6622   */\n          swap3\n          pop\n            /* \"#utility.yul\":6641:6642   */\n          dup3\n            /* \"#utility.yul\":6631:6666   */\n          tag_136\n          jumpi\n            /* \"#utility.yul\":6646:6664   */\n          tag_137\n          tag_59\n          jump\t// in\n        tag_137:\n            /* \"#utility.yul\":6631:6666   */\n        tag_136:\n            /* \"#utility.yul\":6687:6688   */\n          dup3\n            /* \"#utility.yul\":6684:6685   */\n          dup3\n            /* \"#utility.yul\":6680:6689   */\n          mod\n            /* \"#utility.yul\":6675:6689   */\n          swap1\n          pop\n            /* \"#utility.yul\":6519:6695   */\n          swap3\n          swap2\n          pop\n          pop\n          jump\t// out\n            /* \"#utility.yul\":6701:6872   */\n        tag_35:\n            /* \"#utility.yul\":6740:6743   */\n          0x00\n            /* \"#utility.yul\":6763:6787   */\n          tag_139\n            /* \"#utility.yul\":6781:6786   */\n          dup3\n            /* \"#utility.yul\":6763:6787   */\n          tag_44\n          jump\t// in\n        tag_139:\n            /* \"#utility.yul\":6754:6787   */\n          swap2\n          pop\n            /* \"#utility.yul\":6809:6813   */\n          0x00\n            /* \"#utility.yul\":6802:6807   */\n          dup3\n            /* \"#utility.yul\":6799:6814   */\n          sub\n            /* \"#utility.yul\":6796:6837   */\n          tag_140\n          jumpi\n            /* \"#utility.yul\":6817:6835   */\n          tag_141\n          tag_55\n          jump\t// in\n        tag_141:\n            /* \"#utility.yul\":6796:6837   */\n        tag_140:\n            /* \"#utility.yul\":6864:6865   */\n          0x01\n            /* \"#utility.yul\":6857:6862   */\n          dup3\n            /* \"#utility.yul\":6853:6866   */\n          sub\n            /* \"#utility.yul\":6846:6866   */\n          swap1\n          pop\n            /* \"#utility.yul\":6701:6872   */\n          swap2\n          swap1\n          pop\n          jump\t// out\n            /* \"#utility.yul\":6878:7058   */\n        tag_38:\n            /* \"#utility.yul\":6926:7003   */\n          0x4e487b7100000000000000000000000000000000000000000000000000000000\n            /* \"#utility.yul\":6923:6924   */\n          0x00\n            /* \"#utility.yul\":6916:7004   */\n          mstore\n            /* \"#utility.yul\":7023:7027   */\n          0x32\n            /* \"#utility.yul\":7020:7021   */\n          0x04\n            /* \"#utility.yul\":7013:7028   */\n          mstore\n            /* \"#utility.yul\":7047:7051   */\n          0x24\n            /* \"#utility.yul\":7044:7045   */\n          0x00\n            /* \"#utility.yul\":7037:7052   */\n          revert\n            /* \"#utility.yul\":7064:7249   */\n        tag_40:\n            /* \"#utility.yul\":7104:7105   */\n          0x00\n            /* \"#utility.yul\":7121:7141   */\n          tag_144\n            /* \"#utility.yul\":7139:7140   */\n          dup3\n            /* \"#utility.yul\":7121:7141   */\n          tag_44\n          jump\t// in\n        tag_144:\n            /* \"#utility.yul\":7116:7141   */\n          swap2\n          pop\n            /* \"#utility.yul\":7155:7175   */\n          tag_145\n            /* \"#utility.yul\":7173:7174   */\n          dup4\n            /* \"#utility.yul\":7155:7175   */\n          tag_44\n          jump\t// in\n        tag_145:\n            /* \"#utility.yul\":7150:7175   */\n          swap3\n          pop\n            /* \"#utility.yul\":7194:7195   */\n          dup3\n            /* \"#utility.yul\":7184:7219   */\n          tag_146\n          jumpi\n            /* \"#utility.yul\":7199:7217   */\n          tag_147\n          tag_59\n          jump\t// in\n        tag_147:\n            /* \"#utility.yul\":7184:7219   */\n        tag_146:\n            /* \"#utility.yul\":7241:7242   */\n          dup3\n            /* \"#utility.yul\":7238:7239   */\n          dup3\n            /* \"#utility.yul\":7234:7243   */\n          div\n            /* \"#utility.yul\":7229:7243   */\n          swap1\n          pop\n            /* \"#utility.yul\":7064:7249   */\n          swap3\n          swap2\n          pop\n          pop\n          jump\t// out\n\n        auxdata: 0xa26469706673582212207ba4e48867c770a2f48965d4cb0163598a248fd56b1026113ebf26c9d01131c664736f6c63430008120033\n    }\n}\n",
				"bytecode": {
					"linkReferences": {},
					"object": "60806040526040516100109061007e565b604051809103906000f08015801561002c573d6000803e3d6000fd5b506000806101000a81548173ffffffffffffffffffffffffffffffffffffffff021916908373ffffffffffffffffffffffffffffffffffffffff16021790555034801561007857600080fd5b5061008b565b610666806111ad83390190565b6111138061009a6000396000f3fe608060405234801561001057600080fd5b506004361061007d5760003560e01c8063686775231161005b5780636867752314610112578063a8e61fb514610143578063bcbdef6614610173578063d52f327d146101a35761007d565b806309c3f4cf14610082578063252a1437146100b25780633d9799b4146100e2575b600080fd5b61009c600480360381019061009791906106b5565b6101d3565b6040516100a99190610772565b60405180910390f35b6100cc60048036038101906100c791906108c9565b61032a565b6040516100d99190610772565b60405180910390f35b6100fc60048036038101906100f791906108c9565b61035e565b6040516101099190610772565b60405180910390f35b61012c60048036038101906101279190610941565b61038a565b60405161013a9291906109f2565b60405180910390f35b61015d600480360381019061015891906106b5565b6103d8565b60405161016a9190610772565b60405180910390f35b61018d60048036038101906101889190610a29565b6105e0565b60405161019a9190610772565b60405180910390f35b6101bd60048036038101906101b89190610a7c565b61063c565b6040516101ca9190610772565b60405180910390f35b60606000808390505b6000811461020657600a816101f19190610b65565b905081806101fe90610b96565b9250506101dc565b60008267ffffffffffffffff8111156102225761022161079e565b5b6040519080825280602002602001820160405280156102505781602001602082028036833780820191505090505b50905084915060008390505b600083146102b057600a836102719190610bde565b828261027c90610c0f565b925082815181106102905761028f610c38565b5b602002602001018181525050600a836102a99190610b65565b925061025c565b60005b848110156102fe5760308382815181106102d0576102cf610c38565b5b602002602001018181516102e49190610c67565b9150818152505080806102f690610b96565b9150506102b3565b50816040516020016103109190610d53565b604051602081830303815290604052945050505050919050565b606082838484858660405160200161034796959493929190610df2565b604051602081830303815290604052905092915050565b60608282604051602001610373929190610e77565b604051602081830303815290604052905092915050565b6060808360405160200161039e9190610ebc565b604051602081830303815290604052836040516020016103be9190610ed7565b604051602081830303815290604052915091509250929050565b606060008060009054906101000a900473ffffffffffffffffffffffffffffffffffffffff1673ffffffffffffffffffffffffffffffffffffffff16630986e647846040518263ffffffff1660e01b81526004016104369190610efd565b602060405180830381865afa158015610453573d6000803e3d6000fd5b505050506040513d601f19601f820116820180604052508101906104779190610f2d565b905060008167ffffffffffffffff8111156104955761049461079e565b5b6040519080825280602002602001820160405280156104c35781602001602082028036833780820191505090505b50905060008054906101000a900473ffffffffffffffffffffffffffffffffffffffff1673ffffffffffffffffffffffffffffffffffffffff16632ac45d9c856040518263ffffffff1660e01b815260040161051f9190610efd565b600060405180830381865afa15801561053c573d6000803e3d6000fd5b505050506040513d6000823e3d601f19601f820116820180604052508101906105659190611022565b905060005b81518110156105b657603082828151811061058857610587610c38565b5b6020026020010181815161059c9190610c67565b9150818152505080806105ae90610b96565b91505061056a565b50806040516020016105c89190610d53565b60405160208183030381529060405292505050919050565b60606030846105ef9190610c67565b93506030836105fe9190610c67565b925060308261060d9190610c67565b91508383836040516020016106249392919061106b565b60405160208183030381529060405290509392505050565b6060838383604051602001610653939291906110a8565b60405160208183030381529060405290509392505050565b6000604051905090565b600080fd5b600080fd5b6000819050919050565b6106928161067f565b811461069d57600080fd5b50565b6000813590506106af81610689565b92915050565b6000602082840312156106cb576106ca610675565b5b60006106d9848285016106a0565b91505092915050565b600081519050919050565b600082825260208201905092915050565b60005b8381101561071c578082015181840152602081019050610701565b60008484015250505050565b6000601f19601f8301169050919050565b6000610744826106e2565b61074e81856106ed565b935061075e8185602086016106fe565b61076781610728565b840191505092915050565b6000602082019050818103600083015261078c8184610739565b905092915050565b600080fd5b600080fd5b7f4e487b7100000000000000000000000000000000000000000000000000000000600052604160045260246000fd5b6107d682610728565b810181811067ffffffffffffffff821117156107f5576107f461079e565b5b80604052505050565b600061080861066b565b905061081482826107cd565b919050565b600067ffffffffffffffff8211156108345761083361079e565b5b61083d82610728565b9050602081019050919050565b82818337600083830152505050565b600061086c61086784610819565b6107fe565b90508281526020810184848401111561088857610887610799565b5b61089384828561084a565b509392505050565b600082601f8301126108b0576108af610794565b5b81356108c0848260208601610859565b91505092915050565b600080604083850312156108e0576108df610675565b5b600083013567ffffffffffffffff8111156108fe576108fd61067a565b5b61090a8582860161089b565b925050602083013567ffffffffffffffff81111561092b5761092a61067a565b5b6109378582860161089b565b9150509250929050565b6000806040838503121561095857610957610675565b5b6000610966858286016106a0565b925050602083013567ffffffffffffffff8111156109875761098661067a565b5b6109938582860161089b565b9150509250929050565b600081519050919050565b600082825260208201905092915050565b60006109c48261099d565b6109ce81856109a8565b93506109de8185602086016106fe565b6109e781610728565b840191505092915050565b60006040820190508181036000830152610a0c81856109b9565b90508181036020830152610a2081846109b9565b90509392505050565b600080600060608486031215610a4257610a41610675565b5b6000610a50868287016106a0565b9350506020610a61868287016106a0565b9250506040610a72868287016106a0565b9150509250925092565b600080600060608486031215610a9557610a94610675565b5b6000610aa3868287016106a0565b935050602084013567ffffffffffffffff811115610ac457610ac361067a565b5b610ad08682870161089b565b925050604084013567ffffffffffffffff811115610af157610af061067a565b5b610afd8682870161089b565b9150509250925092565b7f4e487b7100000000000000000000000000000000000000000000000000000000600052601260045260246000fd5b7f4e487b7100000000000000000000000000000000000000000000000000000000600052601160045260246000fd5b6000610b708261067f565b9150610b7b8361067f565b925082610b8b57610b8a610b07565b5b828204905092915050565b6000610ba18261067f565b91507fffffffffffffffffffffffffffffffffffffffffffffffffffffffffffffffff8203610bd357610bd2610b36565b5b600182019050919050565b6000610be98261067f565b9150610bf48361067f565b925082610c0457610c03610b07565b5b828206905092915050565b6000610c1a8261067f565b915060008203610c2d57610c2c610b36565b5b600182039050919050565b7f4e487b7100000000000000000000000000000000000000000000000000000000600052603260045260246000fd5b6000610c728261067f565b9150610c7d8361067f565b9250828201905080821115610c9557610c94610b36565b5b92915050565b600081519050919050565b600081905092915050565b6000819050602082019050919050565b610cca8161067f565b82525050565b6000610cdc8383610cc1565b60208301905092915050565b6000602082019050919050565b6000610d0082610c9b565b610d0a8185610ca6565b9350610d1583610cb1565b8060005b83811015610d46578151610d2d8882610cd0565b9750610d3883610ce8565b925050600181019050610d19565b5085935050505092915050565b6000610d5f8284610cf5565b915081905092915050565b600081905092915050565b6000610d80826106e2565b610d8a8185610d6a565b9350610d9a8185602086016106fe565b80840191505092915050565b7f3a00000000000000000000000000000000000000000000000000000000000000815250565b7f2000000000000000000000000000000000000000000000000000000000000000815250565b6000610dfe8289610d75565b9150610e0982610da6565b600182019150610e198288610d75565b9150610e258287610d75565b9150610e3082610dcc565b600182019150610e408286610d75565b9150610e4b82610da6565b600182019150610e5b8285610d75565b9150610e678284610d75565b9150819050979650505050505050565b6000610e838285610d75565b9150610e8f8284610d75565b91508190509392505050565b6000819050919050565b610eb6610eb18261067f565b610e9b565b82525050565b6000610ec88284610ea5565b60208201915081905092915050565b6000610ee38284610d75565b915081905092915050565b610ef78161067f565b82525050565b6000602082019050610f126000830184610eee565b92915050565b600081519050610f2781610689565b92915050565b600060208284031215610f4357610f42610675565b5b6000610f5184828501610f18565b91505092915050565b600067ffffffffffffffff821115610f7557610f7461079e565b5b602082029050602081019050919050565b600080fd5b6000610f9e610f9984610f5a565b6107fe565b90508083825260208201905060208402830185811115610fc157610fc0610f86565b5b835b81811015610fea5780610fd68882610f18565b845260208401935050602081019050610fc3565b5050509392505050565b600082601f83011261100957611008610794565b5b8151611019848260208601610f8b565b91505092915050565b60006020828403121561103857611037610675565b5b600082015167ffffffffffffffff8111156110565761105561067a565b5b61106284828501610ff4565b91505092915050565b60006110778286610ea5565b6020820191506110878285610ea5565b6020820191506110978284610ea5565b602082019150819050949350505050565b60006110b48286610ea5565b6020820191506110c48285610d75565b91506110d08284610d75565b915081905094935050505056fea26469706673582212209c7bd72304ab0c9c5128884ebd0c91dcf875811d6fbd8148a1ef53c504d8899664736f6c63430008120033608060405234801561001057600080fd5b50610646806100206000396000f3fe608060405234801561001057600080fd5b50600436106100365760003560e01c80630986e6471461003b5780632ac45d9c1461006b575b600080fd5b610055600480360381019061005091906101cc565b61009b565b6040516100629190610208565b60405180910390f35b610085600480360381019061008091906101cc565b6100ce565b60405161009291906102e1565b60405180910390f35b6000805b80600a6100ac9190610465565b83106100c55780806100bd906104b0565b91505061009f565b80915050919050565b606060006100db8361009b565b67ffffffffffffffff8111156100f4576100f36104f8565b5b6040519080825280602002602001820160405280156101225781602001602082028036833780820191505090505b50905060006101308461009b565b90505b6000841461018757600a846101489190610556565b828261015390610587565b92508281518110610167576101666105b0565b5b602002602001018181525050600a8461018091906105df565b9350610133565b8192505050919050565b600080fd5b6000819050919050565b6101a981610196565b81146101b457600080fd5b50565b6000813590506101c6816101a0565b92915050565b6000602082840312156101e2576101e1610191565b5b60006101f0848285016101b7565b91505092915050565b61020281610196565b82525050565b600060208201905061021d60008301846101f9565b92915050565b600081519050919050565b600082825260208201905092915050565b6000819050602082019050919050565b61025881610196565b82525050565b600061026a838361024f565b60208301905092915050565b6000602082019050919050565b600061028e82610223565b610298818561022e565b93506102a38361023f565b8060005b838110156102d45781516102bb888261025e565b97506102c683610276565b9250506001810190506102a7565b5085935050505092915050565b600060208201905081810360008301526102fb8184610283565b905092915050565b7f4e487b7100000000000000000000000000000000000000000000000000000000600052601160045260246000fd5b60008160011c9050919050565b6000808291508390505b60018511156103895780860481111561036557610364610303565b5b60018516156103745780820291505b808102905061038285610332565b9450610349565b94509492505050565b6000826103a2576001905061045e565b816103b0576000905061045e565b81600181146103c657600281146103d0576103ff565b600191505061045e565b60ff8411156103e2576103e1610303565b5b8360020a9150848211156103f9576103f8610303565b5b5061045e565b5060208310610133831016604e8410600b84101617156104345782820a90508381111561042f5761042e610303565b5b61045e565b610441848484600161033f565b9250905081840481111561045857610457610303565b5b81810290505b9392505050565b600061047082610196565b915061047b83610196565b92506104a87fffffffffffffffffffffffffffffffffffffffffffffffffffffffffffffffff8484610392565b905092915050565b60006104bb82610196565b91507fffffffffffffffffffffffffffffffffffffffffffffffffffffffffffffffff82036104ed576104ec610303565b5b600182019050919050565b7f4e487b7100000000000000000000000000000000000000000000000000000000600052604160045260246000fd5b7f4e487b7100000000000000000000000000000000000000000000000000000000600052601260045260246000fd5b600061056182610196565b915061056c83610196565b92508261057c5761057b610527565b5b828206905092915050565b600061059282610196565b9150600082036105a5576105a4610303565b5b600182039050919050565b7f4e487b7100000000000000000000000000000000000000000000000000000000600052603260045260246000fd5b60006105ea82610196565b91506105f583610196565b92508261060557610604610527565b5b82820490509291505056fea26469706673582212207ba4e48867c770a2f48965d4cb0163598a248fd56b1026113ebf26c9d01131c664736f6c63430008120033",
					"opcodes": "PUSH1 0x80 PUSH1 0x40 MSTORE PUSH1 0x40 MLOAD PUSH2 0x10 SWAP1 PUSH2 0x7E JUMP JUMPDEST PUSH1 0x40 MLOAD DUP1 SWAP2 SUB SWAP1 PUSH1 0x0 CREATE DUP1 ISZERO DUP1 ISZERO PUSH2 0x2C JUMPI RETURNDATASIZE PUSH1 0x0 DUP1 RETURNDATACOPY RETURNDATASIZE PUSH1 0x0 REVERT JUMPDEST POP PUSH1 0x0 DUP1 PUSH2 0x100 EXP DUP2 SLOAD DUP2 PUSH20 0xFFFFFFFFFFFFFFFFFFFFFFFFFFFFFFFFFFFFFFFF MUL NOT AND SWAP1 DUP4 PUSH20 0xFFFFFFFFFFFFFFFFFFFFFFFFFFFFFFFFFFFFFFFF AND MUL OR SWAP1 SSTORE POP CALLVALUE DUP1 ISZERO PUSH2 0x78 JUMPI PUSH1 0x0 DUP1 REVERT JUMPDEST POP PUSH2 0x8B JUMP JUMPDEST PUSH2 0x666 DUP1 PUSH2 0x11AD DUP4 CODECOPY ADD SWAP1 JUMP JUMPDEST PUSH2 0x1113 DUP1 PUSH2 0x9A PUSH1 0x0 CODECOPY PUSH1 0x0 RETURN INVALID PUSH1 0x80 PUSH1 0x40 MSTORE CALLVALUE DUP1 ISZERO PUSH2 0x10 JUMPI PUSH1 0x0 DUP1 REVERT JUMPDEST POP PUSH1 0x4 CALLDATASIZE LT PUSH2 0x7D JUMPI PUSH1 0x0 CALLDATALOAD PUSH1 0xE0 SHR DUP1 PUSH4 0x68677523 GT PUSH2 0x5B JUMPI DUP1 PUSH4 0x68677523 EQ PUSH2 0x112 JUMPI DUP1 PUSH4 0xA8E61FB5 EQ PUSH2 0x143 JUMPI DUP1 PUSH4 0xBCBDEF66 EQ PUSH2 0x173 JUMPI DUP1 PUSH4 0xD52F327D EQ PUSH2 0x1A3 JUMPI PUSH2 0x7D JUMP JUMPDEST DUP1 PUSH4 0x9C3F4CF EQ PUSH2 0x82 JUMPI DUP1 PUSH4 0x252A1437 EQ PUSH2 0xB2 JUMPI DUP1 PUSH4 0x3D9799B4 EQ PUSH2 0xE2 JUMPI JUMPDEST PUSH1 0x0 DUP1 REVERT JUMPDEST PUSH2 0x9C PUSH1 0x4 DUP1 CALLDATASIZE SUB DUP2 ADD SWAP1 PUSH2 0x97 SWAP2 SWAP1 PUSH2 0x6B5 JUMP JUMPDEST PUSH2 0x1D3 JUMP JUMPDEST PUSH1 0x40 MLOAD PUSH2 0xA9 SWAP2 SWAP1 PUSH2 0x772 JUMP JUMPDEST PUSH1 0x40 MLOAD DUP1 SWAP2 SUB SWAP1 RETURN JUMPDEST PUSH2 0xCC PUSH1 0x4 DUP1 CALLDATASIZE SUB DUP2 ADD SWAP1 PUSH2 0xC7 SWAP2 SWAP1 PUSH2 0x8C9 JUMP JUMPDEST PUSH2 0x32A JUMP JUMPDEST PUSH1 0x40 MLOAD PUSH2 0xD9 SWAP2 SWAP1 PUSH2 0x772 JUMP JUMPDEST PUSH1 0x40 MLOAD DUP1 SWAP2 SUB SWAP1 RETURN JUMPDEST PUSH2 0xFC PUSH1 0x4 DUP1 CALLDATASIZE SUB DUP2 ADD SWAP1 PUSH2 0xF7 SWAP2 SWAP1 PUSH2 0x8C9 JUMP JUMPDEST PUSH2 0x35E JUMP JUMPDEST PUSH1 0x40 MLOAD PUSH2 0x109 SWAP2 SWAP1 PUSH2 0x772 JUMP JUMPDEST PUSH1 0x40 MLOAD DUP1 SWAP2 SUB SWAP1 RETURN JUMPDEST PUSH2 0x12C PUSH1 0x4 DUP1 CALLDATASIZE SUB DUP2 ADD SWAP1 PUSH2 0x127 SWAP2 SWAP1 PUSH2 0x941 JUMP JUMPDEST PUSH2 0x38A JUMP JUMPDEST PUSH1 0x40 MLOAD PUSH2 0x13A SWAP3 SWAP2 SWAP1 PUSH2 0x9F2 JUMP JUMPDEST PUSH1 0x40 MLOAD DUP1 SWAP2 SUB SWAP1 RETURN JUMPDEST PUSH2 0x15D PUSH1 0x4 DUP1 CALLDATASIZE SUB DUP2 ADD SWAP1 PUSH2 0x158 SWAP2 SWAP1 PUSH2 0x6B5 JUMP JUMPDEST PUSH2 0x3D8 JUMP JUMPDEST PUSH1 0x40 MLOAD PUSH2 0x16A SWAP2 SWAP1 PUSH2 0x772 JUMP JUMPDEST PUSH1 0x40 MLOAD DUP1 SWAP2 SUB SWAP1 RETURN JUMPDEST PUSH2 0x18D PUSH1 0x4 DUP1 CALLDATASIZE SUB DUP2 ADD SWAP1 PUSH2 0x188 SWAP2 SWAP1 PUSH2 0xA29 JUMP JUMPDEST PUSH2 0x5E0 JUMP JUMPDEST PUSH1 0x40 MLOAD PUSH2 0x19A SWAP2 SWAP1 PUSH2 0x772 JUMP JUMPDEST PUSH1 0x40 MLOAD DUP1 SWAP2 SUB SWAP1 RETURN JUMPDEST PUSH2 0x1BD PUSH1 0x4 DUP1 CALLDATASIZE SUB DUP2 ADD SWAP1 PUSH2 0x1B8 SWAP2 SWAP1 PUSH2 0xA7C JUMP JUMPDEST PUSH2 0x63C JUMP JUMPDEST PUSH1 0x40 MLOAD PUSH2 0x1CA SWAP2 SWAP1 PUSH2 0x772 JUMP JUMPDEST PUSH1 0x40 MLOAD DUP1 SWAP2 SUB SWAP1 RETURN JUMPDEST PUSH1 0x60 PUSH1 0x0 DUP1 DUP4 SWAP1 POP JUMPDEST PUSH1 0x0 DUP2 EQ PUSH2 0x206 JUMPI PUSH1 0xA DUP2 PUSH2 0x1F1 SWAP2 SWAP1 PUSH2 0xB65 JUMP JUMPDEST SWAP1 POP DUP2 DUP1 PUSH2 0x1FE SWAP1 PUSH2 0xB96 JUMP JUMPDEST SWAP3 POP POP PUSH2 0x1DC JUMP JUMPDEST PUSH1 0x0 DUP3 PUSH8 0xFFFFFFFFFFFFFFFF DUP2 GT ISZERO PUSH2 0x222 JUMPI PUSH2 0x221 PUSH2 0x79E JUMP JUMPDEST JUMPDEST PUSH1 0x40 MLOAD SWAP1 DUP1 DUP3 MSTORE DUP1 PUSH1 0x20 MUL PUSH1 0x20 ADD DUP3 ADD PUSH1 0x40 MSTORE DUP1 ISZERO PUSH2 0x250 JUMPI DUP2 PUSH1 0x20 ADD PUSH1 0x20 DUP3 MUL DUP1 CALLDATASIZE DUP4 CALLDATACOPY DUP1 DUP3 ADD SWAP2 POP POP SWAP1 POP JUMPDEST POP SWAP1 POP DUP5 SWAP2 POP PUSH1 0x0 DUP4 SWAP1 POP JUMPDEST PUSH1 0x0 DUP4 EQ PUSH2 0x2B0 JUMPI PUSH1 0xA DUP4 PUSH2 0x271 SWAP2 SWAP1 PUSH2 0xBDE JUMP JUMPDEST DUP3 DUP3 PUSH2 0x27C SWAP1 PUSH2 0xC0F JUMP JUMPDEST SWAP3 POP DUP3 DUP2 MLOAD DUP2 LT PUSH2 0x290 JUMPI PUSH2 0x28F PUSH2 0xC38 JUMP JUMPDEST JUMPDEST PUSH1 0x20 MUL PUSH1 0x20 ADD ADD DUP2 DUP2 MSTORE POP POP PUSH1 0xA DUP4 PUSH2 0x2A9 SWAP2 SWAP1 PUSH2 0xB65 JUMP JUMPDEST SWAP3 POP PUSH2 0x25C JUMP JUMPDEST PUSH1 0x0 JUMPDEST DUP5 DUP2 LT ISZERO PUSH2 0x2FE JUMPI PUSH1 0x30 DUP4 DUP3 DUP2 MLOAD DUP2 LT PUSH2 0x2D0 JUMPI PUSH2 0x2CF PUSH2 0xC38 JUMP JUMPDEST JUMPDEST PUSH1 0x20 MUL PUSH1 0x20 ADD ADD DUP2 DUP2 MLOAD PUSH2 0x2E4 SWAP2 SWAP1 PUSH2 0xC67 JUMP JUMPDEST SWAP2 POP DUP2 DUP2 MSTORE POP POP DUP1 DUP1 PUSH2 0x2F6 SWAP1 PUSH2 0xB96 JUMP JUMPDEST SWAP2 POP POP PUSH2 0x2B3 JUMP JUMPDEST POP DUP2 PUSH1 0x40 MLOAD PUSH1 0x20 ADD PUSH2 0x310 SWAP2 SWAP1 PUSH2 0xD53 JUMP JUMPDEST PUSH1 0x40 MLOAD PUSH1 0x20 DUP2 DUP4 SUB SUB DUP2 MSTORE SWAP1 PUSH1 0x40 MSTORE SWAP5 POP POP POP POP POP SWAP2 SWAP1 POP JUMP JUMPDEST PUSH1 0x60 DUP3 DUP4 DUP5 DUP5 DUP6 DUP7 PUSH1 0x40 MLOAD PUSH1 0x20 ADD PUSH2 0x347 SWAP7 SWAP6 SWAP5 SWAP4 SWAP3 SWAP2 SWAP1 PUSH2 0xDF2 JUMP JUMPDEST PUSH1 0x40 MLOAD PUSH1 0x20 DUP2 DUP4 SUB SUB DUP2 MSTORE SWAP1 PUSH1 0x40 MSTORE SWAP1 POP SWAP3 SWAP2 POP POP JUMP JUMPDEST PUSH1 0x60 DUP3 DUP3 PUSH1 0x40 MLOAD PUSH1 0x20 ADD PUSH2 0x373 SWAP3 SWAP2 SWAP1 PUSH2 0xE77 JUMP JUMPDEST PUSH1 0x40 MLOAD PUSH1 0x20 DUP2 DUP4 SUB SUB DUP2 MSTORE SWAP1 PUSH1 0x40 MSTORE SWAP1 POP SWAP3 SWAP2 POP POP JUMP JUMPDEST PUSH1 0x60 DUP1 DUP4 PUSH1 0x40 MLOAD PUSH1 0x20 ADD PUSH2 0x39E SWAP2 SWAP1 PUSH2 0xEBC JUMP JUMPDEST PUSH1 0x40 MLOAD PUSH1 0x20 DUP2 DUP4 SUB SUB DUP2 MSTORE SWAP1 PUSH1 0x40 MSTORE DUP4 PUSH1 0x40 MLOAD PUSH1 0x20 ADD PUSH2 0x3BE SWAP2 SWAP1 PUSH2 0xED7 JUMP JUMPDEST PUSH1 0x40 MLOAD PUSH1 0x20 DUP2 DUP4 SUB SUB DUP2 MSTORE SWAP1 PUSH1 0x40 MSTORE SWAP2 POP SWAP2 POP SWAP3 POP SWAP3 SWAP1 POP JUMP JUMPDEST PUSH1 0x60 PUSH1 0x0 DUP1 PUSH1 0x0 SWAP1 SLOAD SWAP1 PUSH2 0x100 EXP SWAP1 DIV PUSH20 0xFFFFFFFFFFFFFFFFFFFFFFFFFFFFFFFFFFFFFFFF AND PUSH20 0xFFFFFFFFFFFFFFFFFFFFFFFFFFFFFFFFFFFFFFFF AND PUSH4 0x986E647 DUP5 PUSH1 0x40 MLOAD DUP3 PUSH4 0xFFFFFFFF AND PUSH1 0xE0 SHL DUP2 MSTORE PUSH1 0x4 ADD PUSH2 0x436 SWAP2 SWAP1 PUSH2 0xEFD JUMP JUMPDEST PUSH1 0x20 PUSH1 0x40 MLOAD DUP1 DUP4 SUB DUP2 DUP7 GAS STATICCALL ISZERO DUP1 ISZERO PUSH2 0x453 JUMPI RETURNDATASIZE PUSH1 0x0 DUP1 RETURNDATACOPY RETURNDATASIZE PUSH1 0x0 REVERT JUMPDEST POP POP POP POP PUSH1 0x40 MLOAD RETURNDATASIZE PUSH1 0x1F NOT PUSH1 0x1F DUP3 ADD AND DUP3 ADD DUP1 PUSH1 0x40 MSTORE POP DUP2 ADD SWAP1 PUSH2 0x477 SWAP2 SWAP1 PUSH2 0xF2D JUMP JUMPDEST SWAP1 POP PUSH1 0x0 DUP2 PUSH8 0xFFFFFFFFFFFFFFFF DUP2 GT ISZERO PUSH2 0x495 JUMPI PUSH2 0x494 PUSH2 0x79E JUMP JUMPDEST JUMPDEST PUSH1 0x40 MLOAD SWAP1 DUP1 DUP3 MSTORE DUP1 PUSH1 0x20 MUL PUSH1 0x20 ADD DUP3 ADD PUSH1 0x40 MSTORE DUP1 ISZERO PUSH2 0x4C3 JUMPI DUP2 PUSH1 0x20 ADD PUSH1 0x20 DUP3 MUL DUP1 CALLDATASIZE DUP4 CALLDATACOPY DUP1 DUP3 ADD SWAP2 POP POP SWAP1 POP JUMPDEST POP SWAP1 POP PUSH1 0x0 DUP1 SLOAD SWAP1 PUSH2 0x100 EXP SWAP1 DIV PUSH20 0xFFFFFFFFFFFFFFFFFFFFFFFFFFFFFFFFFFFFFFFF AND PUSH20 0xFFFFFFFFFFFFFFFFFFFFFFFFFFFFFFFFFFFFFFFF AND PUSH4 0x2AC45D9C DUP6 PUSH1 0x40 MLOAD DUP3 PUSH4 0xFFFFFFFF AND PUSH1 0xE0 SHL DUP2 MSTORE PUSH1 0x4 ADD PUSH2 0x51F SWAP2 SWAP1 PUSH2 0xEFD JUMP JUMPDEST PUSH1 0x0 PUSH1 0x40 MLOAD DUP1 DUP4 SUB DUP2 DUP7 GAS STATICCALL ISZERO DUP1 ISZERO PUSH2 0x53C JUMPI RETURNDATASIZE PUSH1 0x0 DUP1 RETURNDATACOPY RETURNDATASIZE PUSH1 0x0 REVERT JUMPDEST POP POP POP POP PUSH1 0x40 MLOAD RETURNDATASIZE PUSH1 0x0 DUP3 RETURNDATACOPY RETURNDATASIZE PUSH1 0x1F NOT PUSH1 0x1F DUP3 ADD AND DUP3 ADD DUP1 PUSH1 0x40 MSTORE POP DUP2 ADD SWAP1 PUSH2 0x565 SWAP2 SWAP1 PUSH2 0x1022 JUMP JUMPDEST SWAP1 POP PUSH1 0x0 JUMPDEST DUP2 MLOAD DUP2 LT ISZERO PUSH2 0x5B6 JUMPI PUSH1 0x30 DUP3 DUP3 DUP2 MLOAD DUP2 LT PUSH2 0x588 JUMPI PUSH2 0x587 PUSH2 0xC38 JUMP JUMPDEST JUMPDEST PUSH1 0x20 MUL PUSH1 0x20 ADD ADD DUP2 DUP2 MLOAD PUSH2 0x59C SWAP2 SWAP1 PUSH2 0xC67 JUMP JUMPDEST SWAP2 POP DUP2 DUP2 MSTORE POP POP DUP1 DUP1 PUSH2 0x5AE SWAP1 PUSH2 0xB96 JUMP JUMPDEST SWAP2 POP POP PUSH2 0x56A JUMP JUMPDEST POP DUP1 PUSH1 0x40 MLOAD PUSH1 0x20 ADD PUSH2 0x5C8 SWAP2 SWAP1 PUSH2 0xD53 JUMP JUMPDEST PUSH1 0x40 MLOAD PUSH1 0x20 DUP2 DUP4 SUB SUB DUP2 MSTORE SWAP1 PUSH1 0x40 MSTORE SWAP3 POP POP POP SWAP2 SWAP1 POP JUMP JUMPDEST PUSH1 0x60 PUSH1 0x30 DUP5 PUSH2 0x5EF SWAP2 SWAP1 PUSH2 0xC67 JUMP JUMPDEST SWAP4 POP PUSH1 0x30 DUP4 PUSH2 0x5FE SWAP2 SWAP1 PUSH2 0xC67 JUMP JUMPDEST SWAP3 POP PUSH1 0x30 DUP3 PUSH2 0x60D SWAP2 SWAP1 PUSH2 0xC67 JUMP JUMPDEST SWAP2 POP DUP4 DUP4 DUP4 PUSH1 0x40 MLOAD PUSH1 0x20 ADD PUSH2 0x624 SWAP4 SWAP3 SWAP2 SWAP1 PUSH2 0x106B JUMP JUMPDEST PUSH1 0x40 MLOAD PUSH1 0x20 DUP2 DUP4 SUB SUB DUP2 MSTORE SWAP1 PUSH1 0x40 MSTORE SWAP1 POP SWAP4 SWAP3 POP POP POP JUMP JUMPDEST PUSH1 0x60 DUP4 DUP4 DUP4 PUSH1 0x40 MLOAD PUSH1 0x20 ADD PUSH2 0x653 SWAP4 SWAP3 SWAP2 SWAP1 PUSH2 0x10A8 JUMP JUMPDEST PUSH1 0x40 MLOAD PUSH1 0x20 DUP2 DUP4 SUB SUB DUP2 MSTORE SWAP1 PUSH1 0x40 MSTORE SWAP1 POP SWAP4 SWAP3 POP POP POP JUMP JUMPDEST PUSH1 0x0 PUSH1 0x40 MLOAD SWAP1 POP SWAP1 JUMP JUMPDEST PUSH1 0x0 DUP1 REVERT JUMPDEST PUSH1 0x0 DUP1 REVERT JUMPDEST PUSH1 0x0 DUP2 SWAP1 POP SWAP2 SWAP1 POP JUMP JUMPDEST PUSH2 0x692 DUP2 PUSH2 0x67F JUMP JUMPDEST DUP2 EQ PUSH2 0x69D JUMPI PUSH1 0x0 DUP1 REVERT JUMPDEST POP JUMP JUMPDEST PUSH1 0x0 DUP2 CALLDATALOAD SWAP1 POP PUSH2 0x6AF DUP2 PUSH2 0x689 JUMP JUMPDEST SWAP3 SWAP2 POP POP JUMP JUMPDEST PUSH1 0x0 PUSH1 0x20 DUP3 DUP5 SUB SLT ISZERO PUSH2 0x6CB JUMPI PUSH2 0x6CA PUSH2 0x675 JUMP JUMPDEST JUMPDEST PUSH1 0x0 PUSH2 0x6D9 DUP5 DUP3 DUP6 ADD PUSH2 0x6A0 JUMP JUMPDEST SWAP2 POP POP SWAP3 SWAP2 POP POP JUMP JUMPDEST PUSH1 0x0 DUP2 MLOAD SWAP1 POP SWAP2 SWAP1 POP JUMP JUMPDEST PUSH1 0x0 DUP3 DUP3 MSTORE PUSH1 0x20 DUP3 ADD SWAP1 POP SWAP3 SWAP2 POP POP JUMP JUMPDEST PUSH1 0x0 JUMPDEST DUP4 DUP2 LT ISZERO PUSH2 0x71C JUMPI DUP1 DUP3 ADD MLOAD DUP2 DUP5 ADD MSTORE PUSH1 0x20 DUP2 ADD SWAP1 POP PUSH2 0x701 JUMP JUMPDEST PUSH1 0x0 DUP5 DUP5 ADD MSTORE POP POP POP POP JUMP JUMPDEST PUSH1 0x0 PUSH1 0x1F NOT PUSH1 0x1F DUP4 ADD AND SWAP1 POP SWAP2 SWAP1 POP JUMP JUMPDEST PUSH1 0x0 PUSH2 0x744 DUP3 PUSH2 0x6E2 JUMP JUMPDEST PUSH2 0x74E DUP2 DUP6 PUSH2 0x6ED JUMP JUMPDEST SWAP4 POP PUSH2 0x75E DUP2 DUP6 PUSH1 0x20 DUP7 ADD PUSH2 0x6FE JUMP JUMPDEST PUSH2 0x767 DUP2 PUSH2 0x728 JUMP JUMPDEST DUP5 ADD SWAP2 POP POP SWAP3 SWAP2 POP POP JUMP JUMPDEST PUSH1 0x0 PUSH1 0x20 DUP3 ADD SWAP1 POP DUP2 DUP2 SUB PUSH1 0x0 DUP4 ADD MSTORE PUSH2 0x78C DUP2 DUP5 PUSH2 0x739 JUMP JUMPDEST SWAP1 POP SWAP3 SWAP2 POP POP JUMP JUMPDEST PUSH1 0x0 DUP1 REVERT JUMPDEST PUSH1 0x0 DUP1 REVERT JUMPDEST PUSH32 0x4E487B7100000000000000000000000000000000000000000000000000000000 PUSH1 0x0 MSTORE PUSH1 0x41 PUSH1 0x4 MSTORE PUSH1 0x24 PUSH1 0x0 REVERT JUMPDEST PUSH2 0x7D6 DUP3 PUSH2 0x728 JUMP JUMPDEST DUP2 ADD DUP2 DUP2 LT PUSH8 0xFFFFFFFFFFFFFFFF DUP3 GT OR ISZERO PUSH2 0x7F5 JUMPI PUSH2 0x7F4 PUSH2 0x79E JUMP JUMPDEST JUMPDEST DUP1 PUSH1 0x40 MSTORE POP POP POP JUMP JUMPDEST PUSH1 0x0 PUSH2 0x808 PUSH2 0x66B JUMP JUMPDEST SWAP1 POP PUSH2 0x814 DUP3 DUP3 PUSH2 0x7CD JUMP JUMPDEST SWAP2 SWAP1 POP JUMP JUMPDEST PUSH1 0x0 PUSH8 0xFFFFFFFFFFFFFFFF DUP3 GT ISZERO PUSH2 0x834 JUMPI PUSH2 0x833 PUSH2 0x79E JUMP JUMPDEST JUMPDEST PUSH2 0x83D DUP3 PUSH2 0x728 JUMP JUMPDEST SWAP1 POP PUSH1 0x20 DUP2 ADD SWAP1 POP SWAP2 SWAP1 POP JUMP JUMPDEST DUP3 DUP2 DUP4 CALLDATACOPY PUSH1 0x0 DUP4 DUP4 ADD MSTORE POP POP POP JUMP JUMPDEST PUSH1 0x0 PUSH2 0x86C PUSH2 0x867 DUP5 PUSH2 0x819 JUMP JUMPDEST PUSH2 0x7FE JUMP JUMPDEST SWAP1 POP DUP3 DUP2 MSTORE PUSH1 0x20 DUP2 ADD DUP5 DUP5 DUP5 ADD GT ISZERO PUSH2 0x888 JUMPI PUSH2 0x887 PUSH2 0x799 JUMP JUMPDEST JUMPDEST PUSH2 0x893 DUP5 DUP3 DUP6 PUSH2 0x84A JUMP JUMPDEST POP SWAP4 SWAP3 POP POP POP JUMP JUMPDEST PUSH1 0x0 DUP3 PUSH1 0x1F DUP4 ADD SLT PUSH2 0x8B0 JUMPI PUSH2 0x8AF PUSH2 0x794 JUMP JUMPDEST JUMPDEST DUP2 CALLDATALOAD PUSH2 0x8C0 DUP5 DUP3 PUSH1 0x20 DUP7 ADD PUSH2 0x859 JUMP JUMPDEST SWAP2 POP POP SWAP3 SWAP2 POP POP JUMP JUMPDEST PUSH1 0x0 DUP1 PUSH1 0x40 DUP4 DUP6 SUB SLT ISZERO PUSH2 0x8E0 JUMPI PUSH2 0x8DF PUSH2 0x675 JUMP JUMPDEST JUMPDEST PUSH1 0x0 DUP4 ADD CALLDATALOAD PUSH8 0xFFFFFFFFFFFFFFFF DUP2 GT ISZERO PUSH2 0x8FE JUMPI PUSH2 0x8FD PUSH2 0x67A JUMP JUMPDEST JUMPDEST PUSH2 0x90A DUP6 DUP3 DUP7 ADD PUSH2 0x89B JUMP JUMPDEST SWAP3 POP POP PUSH1 0x20 DUP4 ADD CALLDATALOAD PUSH8 0xFFFFFFFFFFFFFFFF DUP2 GT ISZERO PUSH2 0x92B JUMPI PUSH2 0x92A PUSH2 0x67A JUMP JUMPDEST JUMPDEST PUSH2 0x937 DUP6 DUP3 DUP7 ADD PUSH2 0x89B JUMP JUMPDEST SWAP2 POP POP SWAP3 POP SWAP3 SWAP1 POP JUMP JUMPDEST PUSH1 0x0 DUP1 PUSH1 0x40 DUP4 DUP6 SUB SLT ISZERO PUSH2 0x958 JUMPI PUSH2 0x957 PUSH2 0x675 JUMP JUMPDEST JUMPDEST PUSH1 0x0 PUSH2 0x966 DUP6 DUP3 DUP7 ADD PUSH2 0x6A0 JUMP JUMPDEST SWAP3 POP POP PUSH1 0x20 DUP4 ADD CALLDATALOAD PUSH8 0xFFFFFFFFFFFFFFFF DUP2 GT ISZERO PUSH2 0x987 JUMPI PUSH2 0x986 PUSH2 0x67A JUMP JUMPDEST JUMPDEST PUSH2 0x993 DUP6 DUP3 DUP7 ADD PUSH2 0x89B JUMP JUMPDEST SWAP2 POP POP SWAP3 POP SWAP3 SWAP1 POP JUMP JUMPDEST PUSH1 0x0 DUP2 MLOAD SWAP1 POP SWAP2 SWAP1 POP JUMP JUMPDEST PUSH1 0x0 DUP3 DUP3 MSTORE PUSH1 0x20 DUP3 ADD SWAP1 POP SWAP3 SWAP2 POP POP JUMP JUMPDEST PUSH1 0x0 PUSH2 0x9C4 DUP3 PUSH2 0x99D JUMP JUMPDEST PUSH2 0x9CE DUP2 DUP6 PUSH2 0x9A8 JUMP JUMPDEST SWAP4 POP PUSH2 0x9DE DUP2 DUP6 PUSH1 0x20 DUP7 ADD PUSH2 0x6FE JUMP JUMPDEST PUSH2 0x9E7 DUP2 PUSH2 0x728 JUMP JUMPDEST DUP5 ADD SWAP2 POP POP SWAP3 SWAP2 POP POP JUMP JUMPDEST PUSH1 0x0 PUSH1 0x40 DUP3 ADD SWAP1 POP DUP2 DUP2 SUB PUSH1 0x0 DUP4 ADD MSTORE PUSH2 0xA0C DUP2 DUP6 PUSH2 0x9B9 JUMP JUMPDEST SWAP1 POP DUP2 DUP2 SUB PUSH1 0x20 DUP4 ADD MSTORE PUSH2 0xA20 DUP2 DUP5 PUSH2 0x9B9 JUMP JUMPDEST SWAP1 POP SWAP4 SWAP3 POP POP POP JUMP JUMPDEST PUSH1 0x0 DUP1 PUSH1 0x0 PUSH1 0x60 DUP5 DUP7 SUB SLT ISZERO PUSH2 0xA42 JUMPI PUSH2 0xA41 PUSH2 0x675 JUMP JUMPDEST JUMPDEST PUSH1 0x0 PUSH2 0xA50 DUP7 DUP3 DUP8 ADD PUSH2 0x6A0 JUMP JUMPDEST SWAP4 POP POP PUSH1 0x20 PUSH2 0xA61 DUP7 DUP3 DUP8 ADD PUSH2 0x6A0 JUMP JUMPDEST SWAP3 POP POP PUSH1 0x40 PUSH2 0xA72 DUP7 DUP3 DUP8 ADD PUSH2 0x6A0 JUMP JUMPDEST SWAP2 POP POP SWAP3 POP SWAP3 POP SWAP3 JUMP JUMPDEST PUSH1 0x0 DUP1 PUSH1 0x0 PUSH1 0x60 DUP5 DUP7 SUB SLT ISZERO PUSH2 0xA95 JUMPI PUSH2 0xA94 PUSH2 0x675 JUMP JUMPDEST JUMPDEST PUSH1 0x0 PUSH2 0xAA3 DUP7 DUP3 DUP8 ADD PUSH2 0x6A0 JUMP JUMPDEST SWAP4 POP POP PUSH1 0x20 DUP5 ADD CALLDATALOAD PUSH8 0xFFFFFFFFFFFFFFFF DUP2 GT ISZERO PUSH2 0xAC4 JUMPI PUSH2 0xAC3 PUSH2 0x67A JUMP JUMPDEST JUMPDEST PUSH2 0xAD0 DUP7 DUP3 DUP8 ADD PUSH2 0x89B JUMP JUMPDEST SWAP3 POP POP PUSH1 0x40 DUP5 ADD CALLDATALOAD PUSH8 0xFFFFFFFFFFFFFFFF DUP2 GT ISZERO PUSH2 0xAF1 JUMPI PUSH2 0xAF0 PUSH2 0x67A JUMP JUMPDEST JUMPDEST PUSH2 0xAFD DUP7 DUP3 DUP8 ADD PUSH2 0x89B JUMP JUMPDEST SWAP2 POP POP SWAP3 POP SWAP3 POP SWAP3 JUMP JUMPDEST PUSH32 0x4E487B7100000000000000000000000000000000000000000000000000000000 PUSH1 0x0 MSTORE PUSH1 0x12 PUSH1 0x4 MSTORE PUSH1 0x24 PUSH1 0x0 REVERT JUMPDEST PUSH32 0x4E487B7100000000000000000000000000000000000000000000000000000000 PUSH1 0x0 MSTORE PUSH1 0x11 PUSH1 0x4 MSTORE PUSH1 0x24 PUSH1 0x0 REVERT JUMPDEST PUSH1 0x0 PUSH2 0xB70 DUP3 PUSH2 0x67F JUMP JUMPDEST SWAP2 POP PUSH2 0xB7B DUP4 PUSH2 0x67F JUMP JUMPDEST SWAP3 POP DUP3 PUSH2 0xB8B JUMPI PUSH2 0xB8A PUSH2 0xB07 JUMP JUMPDEST JUMPDEST DUP3 DUP3 DIV SWAP1 POP SWAP3 SWAP2 POP POP JUMP JUMPDEST PUSH1 0x0 PUSH2 0xBA1 DUP3 PUSH2 0x67F JUMP JUMPDEST SWAP2 POP PUSH32 0xFFFFFFFFFFFFFFFFFFFFFFFFFFFFFFFFFFFFFFFFFFFFFFFFFFFFFFFFFFFFFFFF DUP3 SUB PUSH2 0xBD3 JUMPI PUSH2 0xBD2 PUSH2 0xB36 JUMP JUMPDEST JUMPDEST PUSH1 0x1 DUP3 ADD SWAP1 POP SWAP2 SWAP1 POP JUMP JUMPDEST PUSH1 0x0 PUSH2 0xBE9 DUP3 PUSH2 0x67F JUMP JUMPDEST SWAP2 POP PUSH2 0xBF4 DUP4 PUSH2 0x67F JUMP JUMPDEST SWAP3 POP DUP3 PUSH2 0xC04 JUMPI PUSH2 0xC03 PUSH2 0xB07 JUMP JUMPDEST JUMPDEST DUP3 DUP3 MOD SWAP1 POP SWAP3 SWAP2 POP POP JUMP JUMPDEST PUSH1 0x0 PUSH2 0xC1A DUP3 PUSH2 0x67F JUMP JUMPDEST SWAP2 POP PUSH1 0x0 DUP3 SUB PUSH2 0xC2D JUMPI PUSH2 0xC2C PUSH2 0xB36 JUMP JUMPDEST JUMPDEST PUSH1 0x1 DUP3 SUB SWAP1 POP SWAP2 SWAP1 POP JUMP JUMPDEST PUSH32 0x4E487B7100000000000000000000000000000000000000000000000000000000 PUSH1 0x0 MSTORE PUSH1 0x32 PUSH1 0x4 MSTORE PUSH1 0x24 PUSH1 0x0 REVERT JUMPDEST PUSH1 0x0 PUSH2 0xC72 DUP3 PUSH2 0x67F JUMP JUMPDEST SWAP2 POP PUSH2 0xC7D DUP4 PUSH2 0x67F JUMP JUMPDEST SWAP3 POP DUP3 DUP3 ADD SWAP1 POP DUP1 DUP3 GT ISZERO PUSH2 0xC95 JUMPI PUSH2 0xC94 PUSH2 0xB36 JUMP JUMPDEST JUMPDEST SWAP3 SWAP2 POP POP JUMP JUMPDEST PUSH1 0x0 DUP2 MLOAD SWAP1 POP SWAP2 SWAP1 POP JUMP JUMPDEST PUSH1 0x0 DUP2 SWAP1 POP SWAP3 SWAP2 POP POP JUMP JUMPDEST PUSH1 0x0 DUP2 SWAP1 POP PUSH1 0x20 DUP3 ADD SWAP1 POP SWAP2 SWAP1 POP JUMP JUMPDEST PUSH2 0xCCA DUP2 PUSH2 0x67F JUMP JUMPDEST DUP3 MSTORE POP POP JUMP JUMPDEST PUSH1 0x0 PUSH2 0xCDC DUP4 DUP4 PUSH2 0xCC1 JUMP JUMPDEST PUSH1 0x20 DUP4 ADD SWAP1 POP SWAP3 SWAP2 POP POP JUMP JUMPDEST PUSH1 0x0 PUSH1 0x20 DUP3 ADD SWAP1 POP SWAP2 SWAP1 POP JUMP JUMPDEST PUSH1 0x0 PUSH2 0xD00 DUP3 PUSH2 0xC9B JUMP JUMPDEST PUSH2 0xD0A DUP2 DUP6 PUSH2 0xCA6 JUMP JUMPDEST SWAP4 POP PUSH2 0xD15 DUP4 PUSH2 0xCB1 JUMP JUMPDEST DUP1 PUSH1 0x0 JUMPDEST DUP4 DUP2 LT ISZERO PUSH2 0xD46 JUMPI DUP2 MLOAD PUSH2 0xD2D DUP9 DUP3 PUSH2 0xCD0 JUMP JUMPDEST SWAP8 POP PUSH2 0xD38 DUP4 PUSH2 0xCE8 JUMP JUMPDEST SWAP3 POP POP PUSH1 0x1 DUP2 ADD SWAP1 POP PUSH2 0xD19 JUMP JUMPDEST POP DUP6 SWAP4 POP POP POP POP SWAP3 SWAP2 POP POP JUMP JUMPDEST PUSH1 0x0 PUSH2 0xD5F DUP3 DUP5 PUSH2 0xCF5 JUMP JUMPDEST SWAP2 POP DUP2 SWAP1 POP SWAP3 SWAP2 POP POP JUMP JUMPDEST PUSH1 0x0 DUP2 SWAP1 POP SWAP3 SWAP2 POP POP JUMP JUMPDEST PUSH1 0x0 PUSH2 0xD80 DUP3 PUSH2 0x6E2 JUMP JUMPDEST PUSH2 0xD8A DUP2 DUP6 PUSH2 0xD6A JUMP JUMPDEST SWAP4 POP PUSH2 0xD9A DUP2 DUP6 PUSH1 0x20 DUP7 ADD PUSH2 0x6FE JUMP JUMPDEST DUP1 DUP5 ADD SWAP2 POP POP SWAP3 SWAP2 POP POP JUMP JUMPDEST PUSH32 0x3A00000000000000000000000000000000000000000000000000000000000000 DUP2 MSTORE POP JUMP JUMPDEST PUSH32 0x2000000000000000000000000000000000000000000000000000000000000000 DUP2 MSTORE POP JUMP JUMPDEST PUSH1 0x0 PUSH2 0xDFE DUP3 DUP10 PUSH2 0xD75 JUMP JUMPDEST SWAP2 POP PUSH2 0xE09 DUP3 PUSH2 0xDA6 JUMP JUMPDEST PUSH1 0x1 DUP3 ADD SWAP2 POP PUSH2 0xE19 DUP3 DUP9 PUSH2 0xD75 JUMP JUMPDEST SWAP2 POP PUSH2 0xE25 DUP3 DUP8 PUSH2 0xD75 JUMP JUMPDEST SWAP2 POP PUSH2 0xE30 DUP3 PUSH2 0xDCC JUMP JUMPDEST PUSH1 0x1 DUP3 ADD SWAP2 POP PUSH2 0xE40 DUP3 DUP7 PUSH2 0xD75 JUMP JUMPDEST SWAP2 POP PUSH2 0xE4B DUP3 PUSH2 0xDA6 JUMP JUMPDEST PUSH1 0x1 DUP3 ADD SWAP2 POP PUSH2 0xE5B DUP3 DUP6 PUSH2 0xD75 JUMP JUMPDEST SWAP2 POP PUSH2 0xE67 DUP3 DUP5 PUSH2 0xD75 JUMP JUMPDEST SWAP2 POP DUP2 SWAP1 POP SWAP8 SWAP7 POP POP POP POP POP POP POP JUMP JUMPDEST PUSH1 0x0 PUSH2 0xE83 DUP3 DUP6 PUSH2 0xD75 JUMP JUMPDEST SWAP2 POP PUSH2 0xE8F DUP3 DUP5 PUSH2 0xD75 JUMP JUMPDEST SWAP2 POP DUP2 SWAP1 POP SWAP4 SWAP3 POP POP POP JUMP JUMPDEST PUSH1 0x0 DUP2 SWAP1 POP SWAP2 SWAP1 POP JUMP JUMPDEST PUSH2 0xEB6 PUSH2 0xEB1 DUP3 PUSH2 0x67F JUMP JUMPDEST PUSH2 0xE9B JUMP JUMPDEST DUP3 MSTORE POP POP JUMP JUMPDEST PUSH1 0x0 PUSH2 0xEC8 DUP3 DUP5 PUSH2 0xEA5 JUMP JUMPDEST PUSH1 0x20 DUP3 ADD SWAP2 POP DUP2 SWAP1 POP SWAP3 SWAP2 POP POP JUMP JUMPDEST PUSH1 0x0 PUSH2 0xEE3 DUP3 DUP5 PUSH2 0xD75 JUMP JUMPDEST SWAP2 POP DUP2 SWAP1 POP SWAP3 SWAP2 POP POP JUMP JUMPDEST PUSH2 0xEF7 DUP2 PUSH2 0x67F JUMP JUMPDEST DUP3 MSTORE POP POP JUMP JUMPDEST PUSH1 0x0 PUSH1 0x20 DUP3 ADD SWAP1 POP PUSH2 0xF12 PUSH1 0x0 DUP4 ADD DUP5 PUSH2 0xEEE JUMP JUMPDEST SWAP3 SWAP2 POP POP JUMP JUMPDEST PUSH1 0x0 DUP2 MLOAD SWAP1 POP PUSH2 0xF27 DUP2 PUSH2 0x689 JUMP JUMPDEST SWAP3 SWAP2 POP POP JUMP JUMPDEST PUSH1 0x0 PUSH1 0x20 DUP3 DUP5 SUB SLT ISZERO PUSH2 0xF43 JUMPI PUSH2 0xF42 PUSH2 0x675 JUMP JUMPDEST JUMPDEST PUSH1 0x0 PUSH2 0xF51 DUP5 DUP3 DUP6 ADD PUSH2 0xF18 JUMP JUMPDEST SWAP2 POP POP SWAP3 SWAP2 POP POP JUMP JUMPDEST PUSH1 0x0 PUSH8 0xFFFFFFFFFFFFFFFF DUP3 GT ISZERO PUSH2 0xF75 JUMPI PUSH2 0xF74 PUSH2 0x79E JUMP JUMPDEST JUMPDEST PUSH1 0x20 DUP3 MUL SWAP1 POP PUSH1 0x20 DUP2 ADD SWAP1 POP SWAP2 SWAP1 POP JUMP JUMPDEST PUSH1 0x0 DUP1 REVERT JUMPDEST PUSH1 0x0 PUSH2 0xF9E PUSH2 0xF99 DUP5 PUSH2 0xF5A JUMP JUMPDEST PUSH2 0x7FE JUMP JUMPDEST SWAP1 POP DUP1 DUP4 DUP3 MSTORE PUSH1 0x20 DUP3 ADD SWAP1 POP PUSH1 0x20 DUP5 MUL DUP4 ADD DUP6 DUP2 GT ISZERO PUSH2 0xFC1 JUMPI PUSH2 0xFC0 PUSH2 0xF86 JUMP JUMPDEST JUMPDEST DUP4 JUMPDEST DUP2 DUP2 LT ISZERO PUSH2 0xFEA JUMPI DUP1 PUSH2 0xFD6 DUP9 DUP3 PUSH2 0xF18 JUMP JUMPDEST DUP5 MSTORE PUSH1 0x20 DUP5 ADD SWAP4 POP POP PUSH1 0x20 DUP2 ADD SWAP1 POP PUSH2 0xFC3 JUMP JUMPDEST POP POP POP SWAP4 SWAP3 POP POP POP JUMP JUMPDEST PUSH1 0x0 DUP3 PUSH1 0x1F DUP4 ADD SLT PUSH2 0x1009 JUMPI PUSH2 0x1008 PUSH2 0x794 JUMP JUMPDEST JUMPDEST DUP2 MLOAD PUSH2 0x1019 DUP5 DUP3 PUSH1 0x20 DUP7 ADD PUSH2 0xF8B JUMP JUMPDEST SWAP2 POP POP SWAP3 SWAP2 POP POP JUMP JUMPDEST PUSH1 0x0 PUSH1 0x20 DUP3 DUP5 SUB SLT ISZERO PUSH2 0x1038 JUMPI PUSH2 0x1037 PUSH2 0x675 JUMP JUMPDEST JUMPDEST PUSH1 0x0 DUP3 ADD MLOAD PUSH8 0xFFFFFFFFFFFFFFFF DUP2 GT ISZERO PUSH2 0x1056 JUMPI PUSH2 0x1055 PUSH2 0x67A JUMP JUMPDEST JUMPDEST PUSH2 0x1062 DUP5 DUP3 DUP6 ADD PUSH2 0xFF4 JUMP JUMPDEST SWAP2 POP POP SWAP3 SWAP2 POP POP JUMP JUMPDEST PUSH1 0x0 PUSH2 0x1077 DUP3 DUP7 PUSH2 0xEA5 JUMP JUMPDEST PUSH1 0x20 DUP3 ADD SWAP2 POP PUSH2 0x1087 DUP3 DUP6 PUSH2 0xEA5 JUMP JUMPDEST PUSH1 0x20 DUP3 ADD SWAP2 POP PUSH2 0x1097 DUP3 DUP5 PUSH2 0xEA5 JUMP JUMPDEST PUSH1 0x20 DUP3 ADD SWAP2 POP DUP2 SWAP1 POP SWAP5 SWAP4 POP POP POP POP JUMP JUMPDEST PUSH1 0x0 PUSH2 0x10B4 DUP3 DUP7 PUSH2 0xEA5 JUMP JUMPDEST PUSH1 0x20 DUP3 ADD SWAP2 POP PUSH2 0x10C4 DUP3 DUP6 PUSH2 0xD75 JUMP JUMPDEST SWAP2 POP PUSH2 0x10D0 DUP3 DUP5 PUSH2 0xD75 JUMP JUMPDEST SWAP2 POP DUP2 SWAP1 POP SWAP5 SWAP4 POP POP POP POP JUMP INVALID LOG2 PUSH5 0x6970667358 0x22 SLT KECCAK256 SWAP13 PUSH28 0xD72304AB0C9C5128884EBD0C91DCF875811D6FBD8148A1EF53C504D8 DUP10 SWAP7 PUSH5 0x736F6C6343 STOP ADDMOD SLT STOP CALLER PUSH1 0x80 PUSH1 0x40 MSTORE CALLVALUE DUP1 ISZERO PUSH2 0x10 JUMPI PUSH1 0x0 DUP1 REVERT JUMPDEST POP PUSH2 0x646 DUP1 PUSH2 0x20 PUSH1 0x0 CODECOPY PUSH1 0x0 RETURN INVALID PUSH1 0x80 PUSH1 0x40 MSTORE CALLVALUE DUP1 ISZERO PUSH2 0x10 JUMPI PUSH1 0x0 DUP1 REVERT JUMPDEST POP PUSH1 0x4 CALLDATASIZE LT PUSH2 0x36 JUMPI PUSH1 0x0 CALLDATALOAD PUSH1 0xE0 SHR DUP1 PUSH4 0x986E647 EQ PUSH2 0x3B JUMPI DUP1 PUSH4 0x2AC45D9C EQ PUSH2 0x6B JUMPI JUMPDEST PUSH1 0x0 DUP1 REVERT JUMPDEST PUSH2 0x55 PUSH1 0x4 DUP1 CALLDATASIZE SUB DUP2 ADD SWAP1 PUSH2 0x50 SWAP2 SWAP1 PUSH2 0x1CC JUMP JUMPDEST PUSH2 0x9B JUMP JUMPDEST PUSH1 0x40 MLOAD PUSH2 0x62 SWAP2 SWAP1 PUSH2 0x208 JUMP JUMPDEST PUSH1 0x40 MLOAD DUP1 SWAP2 SUB SWAP1 RETURN JUMPDEST PUSH2 0x85 PUSH1 0x4 DUP1 CALLDATASIZE SUB DUP2 ADD SWAP1 PUSH2 0x80 SWAP2 SWAP1 PUSH2 0x1CC JUMP JUMPDEST PUSH2 0xCE JUMP JUMPDEST PUSH1 0x40 MLOAD PUSH2 0x92 SWAP2 SWAP1 PUSH2 0x2E1 JUMP JUMPDEST PUSH1 0x40 MLOAD DUP1 SWAP2 SUB SWAP1 RETURN JUMPDEST PUSH1 0x0 DUP1 JUMPDEST DUP1 PUSH1 0xA PUSH2 0xAC SWAP2 SWAP1 PUSH2 0x465 JUMP JUMPDEST DUP4 LT PUSH2 0xC5 JUMPI DUP1 DUP1 PUSH2 0xBD SWAP1 PUSH2 0x4B0 JUMP JUMPDEST SWAP2 POP POP PUSH2 0x9F JUMP JUMPDEST DUP1 SWAP2 POP POP SWAP2 SWAP1 POP JUMP JUMPDEST PUSH1 0x60 PUSH1 0x0 PUSH2 0xDB DUP4 PUSH2 0x9B JUMP JUMPDEST PUSH8 0xFFFFFFFFFFFFFFFF DUP2 GT ISZERO PUSH2 0xF4 JUMPI PUSH2 0xF3 PUSH2 0x4F8 JUMP JUMPDEST JUMPDEST PUSH1 0x40 MLOAD SWAP1 DUP1 DUP3 MSTORE DUP1 PUSH1 0x20 MUL PUSH1 0x20 ADD DUP3 ADD PUSH1 0x40 MSTORE DUP1 ISZERO PUSH2 0x122 JUMPI DUP2 PUSH1 0x20 ADD PUSH1 0x20 DUP3 MUL DUP1 CALLDATASIZE DUP4 CALLDATACOPY DUP1 DUP3 ADD SWAP2 POP POP SWAP1 POP JUMPDEST POP SWAP1 POP PUSH1 0x0 PUSH2 0x130 DUP5 PUSH2 0x9B JUMP JUMPDEST SWAP1 POP JUMPDEST PUSH1 0x0 DUP5 EQ PUSH2 0x187 JUMPI PUSH1 0xA DUP5 PUSH2 0x148 SWAP2 SWAP1 PUSH2 0x556 JUMP JUMPDEST DUP3 DUP3 PUSH2 0x153 SWAP1 PUSH2 0x587 JUMP JUMPDEST SWAP3 POP DUP3 DUP2 MLOAD DUP2 LT PUSH2 0x167 JUMPI PUSH2 0x166 PUSH2 0x5B0 JUMP JUMPDEST JUMPDEST PUSH1 0x20 MUL PUSH1 0x20 ADD ADD DUP2 DUP2 MSTORE POP POP PUSH1 0xA DUP5 PUSH2 0x180 SWAP2 SWAP1 PUSH2 0x5DF JUMP JUMPDEST SWAP4 POP PUSH2 0x133 JUMP JUMPDEST DUP2 SWAP3 POP POP POP SWAP2 SWAP1 POP JUMP JUMPDEST PUSH1 0x0 DUP1 REVERT JUMPDEST PUSH1 0x0 DUP2 SWAP1 POP SWAP2 SWAP1 POP JUMP JUMPDEST PUSH2 0x1A9 DUP2 PUSH2 0x196 JUMP JUMPDEST DUP2 EQ PUSH2 0x1B4 JUMPI PUSH1 0x0 DUP1 REVERT JUMPDEST POP JUMP JUMPDEST PUSH1 0x0 DUP2 CALLDATALOAD SWAP1 POP PUSH2 0x1C6 DUP2 PUSH2 0x1A0 JUMP JUMPDEST SWAP3 SWAP2 POP POP JUMP JUMPDEST PUSH1 0x0 PUSH1 0x20 DUP3 DUP5 SUB SLT ISZERO PUSH2 0x1E2 JUMPI PUSH2 0x1E1 PUSH2 0x191 JUMP JUMPDEST JUMPDEST PUSH1 0x0 PUSH2 0x1F0 DUP5 DUP3 DUP6 ADD PUSH2 0x1B7 JUMP JUMPDEST SWAP2 POP POP SWAP3 SWAP2 POP POP JUMP JUMPDEST PUSH2 0x202 DUP2 PUSH2 0x196 JUMP JUMPDEST DUP3 MSTORE POP POP JUMP JUMPDEST PUSH1 0x0 PUSH1 0x20 DUP3 ADD SWAP1 POP PUSH2 0x21D PUSH1 0x0 DUP4 ADD DUP5 PUSH2 0x1F9 JUMP JUMPDEST SWAP3 SWAP2 POP POP JUMP JUMPDEST PUSH1 0x0 DUP2 MLOAD SWAP1 POP SWAP2 SWAP1 POP JUMP JUMPDEST PUSH1 0x0 DUP3 DUP3 MSTORE PUSH1 0x20 DUP3 ADD SWAP1 POP SWAP3 SWAP2 POP POP JUMP JUMPDEST PUSH1 0x0 DUP2 SWAP1 POP PUSH1 0x20 DUP3 ADD SWAP1 POP SWAP2 SWAP1 POP JUMP JUMPDEST PUSH2 0x258 DUP2 PUSH2 0x196 JUMP JUMPDEST DUP3 MSTORE POP POP JUMP JUMPDEST PUSH1 0x0 PUSH2 0x26A DUP4 DUP4 PUSH2 0x24F JUMP JUMPDEST PUSH1 0x20 DUP4 ADD SWAP1 POP SWAP3 SWAP2 POP POP JUMP JUMPDEST PUSH1 0x0 PUSH1 0x20 DUP3 ADD SWAP1 POP SWAP2 SWAP1 POP JUMP JUMPDEST PUSH1 0x0 PUSH2 0x28E DUP3 PUSH2 0x223 JUMP JUMPDEST PUSH2 0x298 DUP2 DUP6 PUSH2 0x22E JUMP JUMPDEST SWAP4 POP PUSH2 0x2A3 DUP4 PUSH2 0x23F JUMP JUMPDEST DUP1 PUSH1 0x0 JUMPDEST DUP4 DUP2 LT ISZERO PUSH2 0x2D4 JUMPI DUP2 MLOAD PUSH2 0x2BB DUP9 DUP3 PUSH2 0x25E JUMP JUMPDEST SWAP8 POP PUSH2 0x2C6 DUP4 PUSH2 0x276 JUMP JUMPDEST SWAP3 POP POP PUSH1 0x1 DUP2 ADD SWAP1 POP PUSH2 0x2A7 JUMP JUMPDEST POP DUP6 SWAP4 POP POP POP POP SWAP3 SWAP2 POP POP JUMP JUMPDEST PUSH1 0x0 PUSH1 0x20 DUP3 ADD SWAP1 POP DUP2 DUP2 SUB PUSH1 0x0 DUP4 ADD MSTORE PUSH2 0x2FB DUP2 DUP5 PUSH2 0x283 JUMP JUMPDEST SWAP1 POP SWAP3 SWAP2 POP POP JUMP JUMPDEST PUSH32 0x4E487B7100000000000000000000000000000000000000000000000000000000 PUSH1 0x0 MSTORE PUSH1 0x11 PUSH1 0x4 MSTORE PUSH1 0x24 PUSH1 0x0 REVERT JUMPDEST PUSH1 0x0 DUP2 PUSH1 0x1 SHR SWAP1 POP SWAP2 SWAP1 POP JUMP JUMPDEST PUSH1 0x0 DUP1 DUP3 SWAP2 POP DUP4 SWAP1 POP JUMPDEST PUSH1 0x1 DUP6 GT ISZERO PUSH2 0x389 JUMPI DUP1 DUP7 DIV DUP2 GT ISZERO PUSH2 0x365 JUMPI PUSH2 0x364 PUSH2 0x303 JUMP JUMPDEST JUMPDEST PUSH1 0x1 DUP6 AND ISZERO PUSH2 0x374 JUMPI DUP1 DUP3 MUL SWAP2 POP JUMPDEST DUP1 DUP2 MUL SWAP1 POP PUSH2 0x382 DUP6 PUSH2 0x332 JUMP JUMPDEST SWAP5 POP PUSH2 0x349 JUMP JUMPDEST SWAP5 POP SWAP5 SWAP3 POP POP POP JUMP JUMPDEST PUSH1 0x0 DUP3 PUSH2 0x3A2 JUMPI PUSH1 0x1 SWAP1 POP PUSH2 0x45E JUMP JUMPDEST DUP2 PUSH2 0x3B0 JUMPI PUSH1 0x0 SWAP1 POP PUSH2 0x45E JUMP JUMPDEST DUP2 PUSH1 0x1 DUP2 EQ PUSH2 0x3C6 JUMPI PUSH1 0x2 DUP2 EQ PUSH2 0x3D0 JUMPI PUSH2 0x3FF JUMP JUMPDEST PUSH1 0x1 SWAP2 POP POP PUSH2 0x45E JUMP JUMPDEST PUSH1 0xFF DUP5 GT ISZERO PUSH2 0x3E2 JUMPI PUSH2 0x3E1 PUSH2 0x303 JUMP JUMPDEST JUMPDEST DUP4 PUSH1 0x2 EXP SWAP2 POP DUP5 DUP3 GT ISZERO PUSH2 0x3F9 JUMPI PUSH2 0x3F8 PUSH2 0x303 JUMP JUMPDEST JUMPDEST POP PUSH2 0x45E JUMP JUMPDEST POP PUSH1 0x20 DUP4 LT PUSH2 0x133 DUP4 LT AND PUSH1 0x4E DUP5 LT PUSH1 0xB DUP5 LT AND OR ISZERO PUSH2 0x434 JUMPI DUP3 DUP3 EXP SWAP1 POP DUP4 DUP2 GT ISZERO PUSH2 0x42F JUMPI PUSH2 0x42E PUSH2 0x303 JUMP JUMPDEST JUMPDEST PUSH2 0x45E JUMP JUMPDEST PUSH2 0x441 DUP5 DUP5 DUP5 PUSH1 0x1 PUSH2 0x33F JUMP JUMPDEST SWAP3 POP SWAP1 POP DUP2 DUP5 DIV DUP2 GT ISZERO PUSH2 0x458 JUMPI PUSH2 0x457 PUSH2 0x303 JUMP JUMPDEST JUMPDEST DUP2 DUP2 MUL SWAP1 POP JUMPDEST SWAP4 SWAP3 POP POP POP JUMP JUMPDEST PUSH1 0x0 PUSH2 0x470 DUP3 PUSH2 0x196 JUMP JUMPDEST SWAP2 POP PUSH2 0x47B DUP4 PUSH2 0x196 JUMP JUMPDEST SWAP3 POP PUSH2 0x4A8 PUSH32 0xFFFFFFFFFFFFFFFFFFFFFFFFFFFFFFFFFFFFFFFFFFFFFFFFFFFFFFFFFFFFFFFF DUP5 DUP5 PUSH2 0x392 JUMP JUMPDEST SWAP1 POP SWAP3 SWAP2 POP POP JUMP JUMPDEST PUSH1 0x0 PUSH2 0x4BB DUP3 PUSH2 0x196 JUMP JUMPDEST SWAP2 POP PUSH32 0xFFFFFFFFFFFFFFFFFFFFFFFFFFFFFFFFFFFFFFFFFFFFFFFFFFFFFFFFFFFFFFFF DUP3 SUB PUSH2 0x4ED JUMPI PUSH2 0x4EC PUSH2 0x303 JUMP JUMPDEST JUMPDEST PUSH1 0x1 DUP3 ADD SWAP1 POP SWAP2 SWAP1 POP JUMP JUMPDEST PUSH32 0x4E487B7100000000000000000000000000000000000000000000000000000000 PUSH1 0x0 MSTORE PUSH1 0x41 PUSH1 0x4 MSTORE PUSH1 0x24 PUSH1 0x0 REVERT JUMPDEST PUSH32 0x4E487B7100000000000000000000000000000000000000000000000000000000 PUSH1 0x0 MSTORE PUSH1 0x12 PUSH1 0x4 MSTORE PUSH1 0x24 PUSH1 0x0 REVERT JUMPDEST PUSH1 0x0 PUSH2 0x561 DUP3 PUSH2 0x196 JUMP JUMPDEST SWAP2 POP PUSH2 0x56C DUP4 PUSH2 0x196 JUMP JUMPDEST SWAP3 POP DUP3 PUSH2 0x57C JUMPI PUSH2 0x57B PUSH2 0x527 JUMP JUMPDEST JUMPDEST DUP3 DUP3 MOD SWAP1 POP SWAP3 SWAP2 POP POP JUMP JUMPDEST PUSH1 0x0 PUSH2 0x592 DUP3 PUSH2 0x196 JUMP JUMPDEST SWAP2 POP PUSH1 0x0 DUP3 SUB PUSH2 0x5A5 JUMPI PUSH2 0x5A4 PUSH2 0x303 JUMP JUMPDEST JUMPDEST PUSH1 0x1 DUP3 SUB SWAP1 POP SWAP2 SWAP1 POP JUMP JUMPDEST PUSH32 0x4E487B7100000000000000000000000000000000000000000000000000000000 PUSH1 0x0 MSTORE PUSH1 0x32 PUSH1 0x4 MSTORE PUSH1 0x24 PUSH1 0x0 REVERT JUMPDEST PUSH1 0x0 PUSH2 0x5EA DUP3 PUSH2 0x196 JUMP JUMPDEST SWAP2 POP PUSH2 0x5F5 DUP4 PUSH2 0x196 JUMP JUMPDEST SWAP3 POP DUP3 PUSH2 0x605 JUMPI PUSH2 0x604 PUSH2 0x527 JUMP JUMPDEST JUMPDEST DUP3 DUP3 DIV SWAP1 POP SWAP3 SWAP2 POP POP JUMP INVALID LOG2 PUSH5 0x6970667358 0x22 SLT KECCAK256 PUSH28 0xA4E48867C770A2F48965D4CB0163598A248FD56B1026113EBF26C9D0 GT BALANCE 0xC6 PUSH5 0x736F6C6343 STOP ADDMOD SLT STOP CALLER "
				},
				"gasEstimates": {
					"creation": {
						"codeDepositCost": "874200",
						"executionCost": "infinite",
						"totalCost": "infinite"
					},
					"external": {
						"concat1(string,string)": "infinite",
						"concat2(string,string)": "infinite",
						"concat3(uint256,string,string)": "infinite",
						"concat4(uint256,uint256,uint256)": "infinite",
						"concat5(uint256)": "infinite",
						"concat6(uint256)": "infinite",
						"returnEncodePacked(uint256,string)": "infinite"
					}
				},
				"methodIdentifiers": {
					"concat1(string,string)": "3d9799b4",
					"concat2(string,string)": "252a1437",
					"concat3(uint256,string,string)": "d52f327d",
					"concat4(uint256,uint256,uint256)": "bcbdef66",
					"concat5(uint256)": "a8e61fb5",
					"concat6(uint256)": "09c3f4cf",
					"returnEncodePacked(uint256,string)": "68677523"
				}
			},
			"storageLayout": {
				"storage": [
					{
						"astId": 135,
						"contract": "contracts/230523/concat.sol:CONCAT",
						"label": "q5",
						"offset": 0,
						"slot": "0",
						"type": "t_contract(Q5)361"
					}
				],
				"types": {
					"t_contract(Q5)361": {
						"encoding": "inplace",
						"label": "contract Q5",
						"numberOfBytes": "20"
					}
				}
			},
			"userdoc": {
				"kind": "user",
				"methods": {},
				"version": 1
			}
		}
	}
}