{
	"data": {
		"bytecode": {
			"linkReferences": {},
			"object": "608060405234801561001057600080fd5b50610841806100206000396000f3fe608060405234801561001057600080fd5b50600436106100575760003560e01c8063252a14371461005c5780633d9799b41461008c578063a8e61fb5146100bc578063bcbdef66146100ec578063f932028f1461011c575b600080fd5b61007660048036038101906100719190610398565b61014c565b604051610083919061048f565b60405180910390f35b6100a660048036038101906100a19190610398565b610180565b6040516100b3919061048f565b60405180910390f35b6100d660048036038101906100d191906104e7565b6101ac565b6040516100e3919061048f565b60405180910390f35b61010660048036038101906101019190610514565b6101b3565b604051610113919061048f565b60405180910390f35b61013660048036038101906101319190610567565b61020f565b604051610143919061048f565b60405180910390f35b606082828485868660405160200161016996959493929190610670565b604051602081830303815290604052905092915050565b606082826040516020016101959291906106f5565b604051602081830303815290604052905092915050565b6060919050565b60606030846101c29190610748565b93506030836101d19190610748565b92506030826101e09190610748565b91508383836040516020016101f79392919061079d565b60405160208183030381529060405290509392505050565b6060838383604051602001610226939291906107da565b60405160208183030381529060405290509392505050565b6000604051905090565b600080fd5b600080fd5b600080fd5b600080fd5b6000601f19601f8301169050919050565b7f4e487b7100000000000000000000000000000000000000000000000000000000600052604160045260246000fd5b6102a58261025c565b810181811067ffffffffffffffff821117156102c4576102c361026d565b5b80604052505050565b60006102d761023e565b90506102e3828261029c565b919050565b600067ffffffffffffffff8211156103035761030261026d565b5b61030c8261025c565b9050602081019050919050565b82818337600083830152505050565b600061033b610336846102e8565b6102cd565b90508281526020810184848401111561035757610356610257565b5b610362848285610319565b509392505050565b600082601f83011261037f5761037e610252565b5b813561038f848260208601610328565b91505092915050565b600080604083850312156103af576103ae610248565b5b600083013567ffffffffffffffff8111156103cd576103cc61024d565b5b6103d98582860161036a565b925050602083013567ffffffffffffffff8111156103fa576103f961024d565b5b6104068582860161036a565b9150509250929050565b600081519050919050565b600082825260208201905092915050565b60005b8381101561044a57808201518184015260208101905061042f565b60008484015250505050565b600061046182610410565b61046b818561041b565b935061047b81856020860161042c565b6104848161025c565b840191505092915050565b600060208201905081810360008301526104a98184610456565b905092915050565b6000819050919050565b6104c4816104b1565b81146104cf57600080fd5b50565b6000813590506104e1816104bb565b92915050565b6000602082840312156104fd576104fc610248565b5b600061050b848285016104d2565b91505092915050565b60008060006060848603121561052d5761052c610248565b5b600061053b868287016104d2565b935050602061054c868287016104d2565b925050604061055d868287016104d2565b9150509250925092565b6000806000606084860312156105805761057f610248565b5b600084013567ffffffffffffffff81111561059e5761059d61024d565b5b6105aa8682870161036a565b935050602084013567ffffffffffffffff8111156105cb576105ca61024d565b5b6105d78682870161036a565b925050604084013567ffffffffffffffff8111156105f8576105f761024d565b5b6106048682870161036a565b9150509250925092565b600081905092915050565b600061062482610410565b61062e818561060e565b935061063e81856020860161042c565b80840191505092915050565b7f203a200000000000000000000000000000000000000000000000000000000000815250565b600061067c8289610619565b91506106878261064a565b6003820191506106978288610619565b91506106a28261064a565b6003820191506106b28287610619565b91506106be8286610619565b91506106c98261064a565b6003820191506106d98285610619565b91506106e58284610619565b9150819050979650505050505050565b60006107018285610619565b915061070d8284610619565b91508190509392505050565b7f4e487b7100000000000000000000000000000000000000000000000000000000600052601160045260246000fd5b6000610753826104b1565b915061075e836104b1565b925082820190508082111561077657610775610719565b5b92915050565b6000819050919050565b610797610792826104b1565b61077c565b82525050565b60006107a98286610786565b6020820191506107b98285610786565b6020820191506107c98284610786565b602082019150819050949350505050565b60006107e68286610619565b91506107f28285610619565b91506107fe8284610619565b915081905094935050505056fea26469706673582212206d6ef9120228c5a1cdc56cba08983841df97d21c8bb5ef4da71df466310bfb0d64736f6c63430008120033",
			"opcodes": "PUSH1 0x80 PUSH1 0x40 MSTORE CALLVALUE DUP1 ISZERO PUSH2 0x10 JUMPI PUSH1 0x0 DUP1 REVERT JUMPDEST POP PUSH2 0x841 DUP1 PUSH2 0x20 PUSH1 0x0 CODECOPY PUSH1 0x0 RETURN INVALID PUSH1 0x80 PUSH1 0x40 MSTORE CALLVALUE DUP1 ISZERO PUSH2 0x10 JUMPI PUSH1 0x0 DUP1 REVERT JUMPDEST POP PUSH1 0x4 CALLDATASIZE LT PUSH2 0x57 JUMPI PUSH1 0x0 CALLDATALOAD PUSH1 0xE0 SHR DUP1 PUSH4 0x252A1437 EQ PUSH2 0x5C JUMPI DUP1 PUSH4 0x3D9799B4 EQ PUSH2 0x8C JUMPI DUP1 PUSH4 0xA8E61FB5 EQ PUSH2 0xBC JUMPI DUP1 PUSH4 0xBCBDEF66 EQ PUSH2 0xEC JUMPI DUP1 PUSH4 0xF932028F EQ PUSH2 0x11C JUMPI JUMPDEST PUSH1 0x0 DUP1 REVERT JUMPDEST PUSH2 0x76 PUSH1 0x4 DUP1 CALLDATASIZE SUB DUP2 ADD SWAP1 PUSH2 0x71 SWAP2 SWAP1 PUSH2 0x398 JUMP JUMPDEST PUSH2 0x14C JUMP JUMPDEST PUSH1 0x40 MLOAD PUSH2 0x83 SWAP2 SWAP1 PUSH2 0x48F JUMP JUMPDEST PUSH1 0x40 MLOAD DUP1 SWAP2 SUB SWAP1 RETURN JUMPDEST PUSH2 0xA6 PUSH1 0x4 DUP1 CALLDATASIZE SUB DUP2 ADD SWAP1 PUSH2 0xA1 SWAP2 SWAP1 PUSH2 0x398 JUMP JUMPDEST PUSH2 0x180 JUMP JUMPDEST PUSH1 0x40 MLOAD PUSH2 0xB3 SWAP2 SWAP1 PUSH2 0x48F JUMP JUMPDEST PUSH1 0x40 MLOAD DUP1 SWAP2 SUB SWAP1 RETURN JUMPDEST PUSH2 0xD6 PUSH1 0x4 DUP1 CALLDATASIZE SUB DUP2 ADD SWAP1 PUSH2 0xD1 SWAP2 SWAP1 PUSH2 0x4E7 JUMP JUMPDEST PUSH2 0x1AC JUMP JUMPDEST PUSH1 0x40 MLOAD PUSH2 0xE3 SWAP2 SWAP1 PUSH2 0x48F JUMP JUMPDEST PUSH1 0x40 MLOAD DUP1 SWAP2 SUB SWAP1 RETURN JUMPDEST PUSH2 0x106 PUSH1 0x4 DUP1 CALLDATASIZE SUB DUP2 ADD SWAP1 PUSH2 0x101 SWAP2 SWAP1 PUSH2 0x514 JUMP JUMPDEST PUSH2 0x1B3 JUMP JUMPDEST PUSH1 0x40 MLOAD PUSH2 0x113 SWAP2 SWAP1 PUSH2 0x48F JUMP JUMPDEST PUSH1 0x40 MLOAD DUP1 SWAP2 SUB SWAP1 RETURN JUMPDEST PUSH2 0x136 PUSH1 0x4 DUP1 CALLDATASIZE SUB DUP2 ADD SWAP1 PUSH2 0x131 SWAP2 SWAP1 PUSH2 0x567 JUMP JUMPDEST PUSH2 0x20F JUMP JUMPDEST PUSH1 0x40 MLOAD PUSH2 0x143 SWAP2 SWAP1 PUSH2 0x48F JUMP JUMPDEST PUSH1 0x40 MLOAD DUP1 SWAP2 SUB SWAP1 RETURN JUMPDEST PUSH1 0x60 DUP3 DUP3 DUP5 DUP6 DUP7 DUP7 PUSH1 0x40 MLOAD PUSH1 0x20 ADD PUSH2 0x169 SWAP7 SWAP6 SWAP5 SWAP4 SWAP3 SWAP2 SWAP1 PUSH2 0x670 JUMP JUMPDEST PUSH1 0x40 MLOAD PUSH1 0x20 DUP2 DUP4 SUB SUB DUP2 MSTORE SWAP1 PUSH1 0x40 MSTORE SWAP1 POP SWAP3 SWAP2 POP POP JUMP JUMPDEST PUSH1 0x60 DUP3 DUP3 PUSH1 0x40 MLOAD PUSH1 0x20 ADD PUSH2 0x195 SWAP3 SWAP2 SWAP1 PUSH2 0x6F5 JUMP JUMPDEST PUSH1 0x40 MLOAD PUSH1 0x20 DUP2 DUP4 SUB SUB DUP2 MSTORE SWAP1 PUSH1 0x40 MSTORE SWAP1 POP SWAP3 SWAP2 POP POP JUMP JUMPDEST PUSH1 0x60 SWAP2 SWAP1 POP JUMP JUMPDEST PUSH1 0x60 PUSH1 0x30 DUP5 PUSH2 0x1C2 SWAP2 SWAP1 PUSH2 0x748 JUMP JUMPDEST SWAP4 POP PUSH1 0x30 DUP4 PUSH2 0x1D1 SWAP2 SWAP1 PUSH2 0x748 JUMP JUMPDEST SWAP3 POP PUSH1 0x30 DUP3 PUSH2 0x1E0 SWAP2 SWAP1 PUSH2 0x748 JUMP JUMPDEST SWAP2 POP DUP4 DUP4 DUP4 PUSH1 0x40 MLOAD PUSH1 0x20 ADD PUSH2 0x1F7 SWAP4 SWAP3 SWAP2 SWAP1 PUSH2 0x79D JUMP JUMPDEST PUSH1 0x40 MLOAD PUSH1 0x20 DUP2 DUP4 SUB SUB DUP2 MSTORE SWAP1 PUSH1 0x40 MSTORE SWAP1 POP SWAP4 SWAP3 POP POP POP JUMP JUMPDEST PUSH1 0x60 DUP4 DUP4 DUP4 PUSH1 0x40 MLOAD PUSH1 0x20 ADD PUSH2 0x226 SWAP4 SWAP3 SWAP2 SWAP1 PUSH2 0x7DA JUMP JUMPDEST PUSH1 0x40 MLOAD PUSH1 0x20 DUP2 DUP4 SUB SUB DUP2 MSTORE SWAP1 PUSH1 0x40 MSTORE SWAP1 POP SWAP4 SWAP3 POP POP POP JUMP JUMPDEST PUSH1 0x0 PUSH1 0x40 MLOAD SWAP1 POP SWAP1 JUMP JUMPDEST PUSH1 0x0 DUP1 REVERT JUMPDEST PUSH1 0x0 DUP1 REVERT JUMPDEST PUSH1 0x0 DUP1 REVERT JUMPDEST PUSH1 0x0 DUP1 REVERT JUMPDEST PUSH1 0x0 PUSH1 0x1F NOT PUSH1 0x1F DUP4 ADD AND SWAP1 POP SWAP2 SWAP1 POP JUMP JUMPDEST PUSH32 0x4E487B7100000000000000000000000000000000000000000000000000000000 PUSH1 0x0 MSTORE PUSH1 0x41 PUSH1 0x4 MSTORE PUSH1 0x24 PUSH1 0x0 REVERT JUMPDEST PUSH2 0x2A5 DUP3 PUSH2 0x25C JUMP JUMPDEST DUP2 ADD DUP2 DUP2 LT PUSH8 0xFFFFFFFFFFFFFFFF DUP3 GT OR ISZERO PUSH2 0x2C4 JUMPI PUSH2 0x2C3 PUSH2 0x26D JUMP JUMPDEST JUMPDEST DUP1 PUSH1 0x40 MSTORE POP POP POP JUMP JUMPDEST PUSH1 0x0 PUSH2 0x2D7 PUSH2 0x23E JUMP JUMPDEST SWAP1 POP PUSH2 0x2E3 DUP3 DUP3 PUSH2 0x29C JUMP JUMPDEST SWAP2 SWAP1 POP JUMP JUMPDEST PUSH1 0x0 PUSH8 0xFFFFFFFFFFFFFFFF DUP3 GT ISZERO PUSH2 0x303 JUMPI PUSH2 0x302 PUSH2 0x26D JUMP JUMPDEST JUMPDEST PUSH2 0x30C DUP3 PUSH2 0x25C JUMP JUMPDEST SWAP1 POP PUSH1 0x20 DUP2 ADD SWAP1 POP SWAP2 SWAP1 POP JUMP JUMPDEST DUP3 DUP2 DUP4 CALLDATACOPY PUSH1 0x0 DUP4 DUP4 ADD MSTORE POP POP POP JUMP JUMPDEST PUSH1 0x0 PUSH2 0x33B PUSH2 0x336 DUP5 PUSH2 0x2E8 JUMP JUMPDEST PUSH2 0x2CD JUMP JUMPDEST SWAP1 POP DUP3 DUP2 MSTORE PUSH1 0x20 DUP2 ADD DUP5 DUP5 DUP5 ADD GT ISZERO PUSH2 0x357 JUMPI PUSH2 0x356 PUSH2 0x257 JUMP JUMPDEST JUMPDEST PUSH2 0x362 DUP5 DUP3 DUP6 PUSH2 0x319 JUMP JUMPDEST POP SWAP4 SWAP3 POP POP POP JUMP JUMPDEST PUSH1 0x0 DUP3 PUSH1 0x1F DUP4 ADD SLT PUSH2 0x37F JUMPI PUSH2 0x37E PUSH2 0x252 JUMP JUMPDEST JUMPDEST DUP2 CALLDATALOAD PUSH2 0x38F DUP5 DUP3 PUSH1 0x20 DUP7 ADD PUSH2 0x328 JUMP JUMPDEST SWAP2 POP POP SWAP3 SWAP2 POP POP JUMP JUMPDEST PUSH1 0x0 DUP1 PUSH1 0x40 DUP4 DUP6 SUB SLT ISZERO PUSH2 0x3AF JUMPI PUSH2 0x3AE PUSH2 0x248 JUMP JUMPDEST JUMPDEST PUSH1 0x0 DUP4 ADD CALLDATALOAD PUSH8 0xFFFFFFFFFFFFFFFF DUP2 GT ISZERO PUSH2 0x3CD JUMPI PUSH2 0x3CC PUSH2 0x24D JUMP JUMPDEST JUMPDEST PUSH2 0x3D9 DUP6 DUP3 DUP7 ADD PUSH2 0x36A JUMP JUMPDEST SWAP3 POP POP PUSH1 0x20 DUP4 ADD CALLDATALOAD PUSH8 0xFFFFFFFFFFFFFFFF DUP2 GT ISZERO PUSH2 0x3FA JUMPI PUSH2 0x3F9 PUSH2 0x24D JUMP JUMPDEST JUMPDEST PUSH2 0x406 DUP6 DUP3 DUP7 ADD PUSH2 0x36A JUMP JUMPDEST SWAP2 POP POP SWAP3 POP SWAP3 SWAP1 POP JUMP JUMPDEST PUSH1 0x0 DUP2 MLOAD SWAP1 POP SWAP2 SWAP1 POP JUMP JUMPDEST PUSH1 0x0 DUP3 DUP3 MSTORE PUSH1 0x20 DUP3 ADD SWAP1 POP SWAP3 SWAP2 POP POP JUMP JUMPDEST PUSH1 0x0 JUMPDEST DUP4 DUP2 LT ISZERO PUSH2 0x44A JUMPI DUP1 DUP3 ADD MLOAD DUP2 DUP5 ADD MSTORE PUSH1 0x20 DUP2 ADD SWAP1 POP PUSH2 0x42F JUMP JUMPDEST PUSH1 0x0 DUP5 DUP5 ADD MSTORE POP POP POP POP JUMP JUMPDEST PUSH1 0x0 PUSH2 0x461 DUP3 PUSH2 0x410 JUMP JUMPDEST PUSH2 0x46B DUP2 DUP6 PUSH2 0x41B JUMP JUMPDEST SWAP4 POP PUSH2 0x47B DUP2 DUP6 PUSH1 0x20 DUP7 ADD PUSH2 0x42C JUMP JUMPDEST PUSH2 0x484 DUP2 PUSH2 0x25C JUMP JUMPDEST DUP5 ADD SWAP2 POP POP SWAP3 SWAP2 POP POP JUMP JUMPDEST PUSH1 0x0 PUSH1 0x20 DUP3 ADD SWAP1 POP DUP2 DUP2 SUB PUSH1 0x0 DUP4 ADD MSTORE PUSH2 0x4A9 DUP2 DUP5 PUSH2 0x456 JUMP JUMPDEST SWAP1 POP SWAP3 SWAP2 POP POP JUMP JUMPDEST PUSH1 0x0 DUP2 SWAP1 POP SWAP2 SWAP1 POP JUMP JUMPDEST PUSH2 0x4C4 DUP2 PUSH2 0x4B1 JUMP JUMPDEST DUP2 EQ PUSH2 0x4CF JUMPI PUSH1 0x0 DUP1 REVERT JUMPDEST POP JUMP JUMPDEST PUSH1 0x0 DUP2 CALLDATALOAD SWAP1 POP PUSH2 0x4E1 DUP2 PUSH2 0x4BB JUMP JUMPDEST SWAP3 SWAP2 POP POP JUMP JUMPDEST PUSH1 0x0 PUSH1 0x20 DUP3 DUP5 SUB SLT ISZERO PUSH2 0x4FD JUMPI PUSH2 0x4FC PUSH2 0x248 JUMP JUMPDEST JUMPDEST PUSH1 0x0 PUSH2 0x50B DUP5 DUP3 DUP6 ADD PUSH2 0x4D2 JUMP JUMPDEST SWAP2 POP POP SWAP3 SWAP2 POP POP JUMP JUMPDEST PUSH1 0x0 DUP1 PUSH1 0x0 PUSH1 0x60 DUP5 DUP7 SUB SLT ISZERO PUSH2 0x52D JUMPI PUSH2 0x52C PUSH2 0x248 JUMP JUMPDEST JUMPDEST PUSH1 0x0 PUSH2 0x53B DUP7 DUP3 DUP8 ADD PUSH2 0x4D2 JUMP JUMPDEST SWAP4 POP POP PUSH1 0x20 PUSH2 0x54C DUP7 DUP3 DUP8 ADD PUSH2 0x4D2 JUMP JUMPDEST SWAP3 POP POP PUSH1 0x40 PUSH2 0x55D DUP7 DUP3 DUP8 ADD PUSH2 0x4D2 JUMP JUMPDEST SWAP2 POP POP SWAP3 POP SWAP3 POP SWAP3 JUMP JUMPDEST PUSH1 0x0 DUP1 PUSH1 0x0 PUSH1 0x60 DUP5 DUP7 SUB SLT ISZERO PUSH2 0x580 JUMPI PUSH2 0x57F PUSH2 0x248 JUMP JUMPDEST JUMPDEST PUSH1 0x0 DUP5 ADD CALLDATALOAD PUSH8 0xFFFFFFFFFFFFFFFF DUP2 GT ISZERO PUSH2 0x59E JUMPI PUSH2 0x59D PUSH2 0x24D JUMP JUMPDEST JUMPDEST PUSH2 0x5AA DUP7 DUP3 DUP8 ADD PUSH2 0x36A JUMP JUMPDEST SWAP4 POP POP PUSH1 0x20 DUP5 ADD CALLDATALOAD PUSH8 0xFFFFFFFFFFFFFFFF DUP2 GT ISZERO PUSH2 0x5CB JUMPI PUSH2 0x5CA PUSH2 0x24D JUMP JUMPDEST JUMPDEST PUSH2 0x5D7 DUP7 DUP3 DUP8 ADD PUSH2 0x36A JUMP JUMPDEST SWAP3 POP POP PUSH1 0x40 DUP5 ADD CALLDATALOAD PUSH8 0xFFFFFFFFFFFFFFFF DUP2 GT ISZERO PUSH2 0x5F8 JUMPI PUSH2 0x5F7 PUSH2 0x24D JUMP JUMPDEST JUMPDEST PUSH2 0x604 DUP7 DUP3 DUP8 ADD PUSH2 0x36A JUMP JUMPDEST SWAP2 POP POP SWAP3 POP SWAP3 POP SWAP3 JUMP JUMPDEST PUSH1 0x0 DUP2 SWAP1 POP SWAP3 SWAP2 POP POP JUMP JUMPDEST PUSH1 0x0 PUSH2 0x624 DUP3 PUSH2 0x410 JUMP JUMPDEST PUSH2 0x62E DUP2 DUP6 PUSH2 0x60E JUMP JUMPDEST SWAP4 POP PUSH2 0x63E DUP2 DUP6 PUSH1 0x20 DUP7 ADD PUSH2 0x42C JUMP JUMPDEST DUP1 DUP5 ADD SWAP2 POP POP SWAP3 SWAP2 POP POP JUMP JUMPDEST PUSH32 0x203A200000000000000000000000000000000000000000000000000000000000 DUP2 MSTORE POP JUMP JUMPDEST PUSH1 0x0 PUSH2 0x67C DUP3 DUP10 PUSH2 0x619 JUMP JUMPDEST SWAP2 POP PUSH2 0x687 DUP3 PUSH2 0x64A JUMP JUMPDEST PUSH1 0x3 DUP3 ADD SWAP2 POP PUSH2 0x697 DUP3 DUP9 PUSH2 0x619 JUMP JUMPDEST SWAP2 POP PUSH2 0x6A2 DUP3 PUSH2 0x64A JUMP JUMPDEST PUSH1 0x3 DUP3 ADD SWAP2 POP PUSH2 0x6B2 DUP3 DUP8 PUSH2 0x619 JUMP JUMPDEST SWAP2 POP PUSH2 0x6BE DUP3 DUP7 PUSH2 0x619 JUMP JUMPDEST SWAP2 POP PUSH2 0x6C9 DUP3 PUSH2 0x64A JUMP JUMPDEST PUSH1 0x3 DUP3 ADD SWAP2 POP PUSH2 0x6D9 DUP3 DUP6 PUSH2 0x619 JUMP JUMPDEST SWAP2 POP PUSH2 0x6E5 DUP3 DUP5 PUSH2 0x619 JUMP JUMPDEST SWAP2 POP DUP2 SWAP1 POP SWAP8 SWAP7 POP POP POP POP POP POP POP JUMP JUMPDEST PUSH1 0x0 PUSH2 0x701 DUP3 DUP6 PUSH2 0x619 JUMP JUMPDEST SWAP2 POP PUSH2 0x70D DUP3 DUP5 PUSH2 0x619 JUMP JUMPDEST SWAP2 POP DUP2 SWAP1 POP SWAP4 SWAP3 POP POP POP JUMP JUMPDEST PUSH32 0x4E487B7100000000000000000000000000000000000000000000000000000000 PUSH1 0x0 MSTORE PUSH1 0x11 PUSH1 0x4 MSTORE PUSH1 0x24 PUSH1 0x0 REVERT JUMPDEST PUSH1 0x0 PUSH2 0x753 DUP3 PUSH2 0x4B1 JUMP JUMPDEST SWAP2 POP PUSH2 0x75E DUP4 PUSH2 0x4B1 JUMP JUMPDEST SWAP3 POP DUP3 DUP3 ADD SWAP1 POP DUP1 DUP3 GT ISZERO PUSH2 0x776 JUMPI PUSH2 0x775 PUSH2 0x719 JUMP JUMPDEST JUMPDEST SWAP3 SWAP2 POP POP JUMP JUMPDEST PUSH1 0x0 DUP2 SWAP1 POP SWAP2 SWAP1 POP JUMP JUMPDEST PUSH2 0x797 PUSH2 0x792 DUP3 PUSH2 0x4B1 JUMP JUMPDEST PUSH2 0x77C JUMP JUMPDEST DUP3 MSTORE POP POP JUMP JUMPDEST PUSH1 0x0 PUSH2 0x7A9 DUP3 DUP7 PUSH2 0x786 JUMP JUMPDEST PUSH1 0x20 DUP3 ADD SWAP2 POP PUSH2 0x7B9 DUP3 DUP6 PUSH2 0x786 JUMP JUMPDEST PUSH1 0x20 DUP3 ADD SWAP2 POP PUSH2 0x7C9 DUP3 DUP5 PUSH2 0x786 JUMP JUMPDEST PUSH1 0x20 DUP3 ADD SWAP2 POP DUP2 SWAP1 POP SWAP5 SWAP4 POP POP POP POP JUMP JUMPDEST PUSH1 0x0 PUSH2 0x7E6 DUP3 DUP7 PUSH2 0x619 JUMP JUMPDEST SWAP2 POP PUSH2 0x7F2 DUP3 DUP6 PUSH2 0x619 JUMP JUMPDEST SWAP2 POP PUSH2 0x7FE DUP3 DUP5 PUSH2 0x619 JUMP JUMPDEST SWAP2 POP DUP2 SWAP1 POP SWAP5 SWAP4 POP POP POP POP JUMP INVALID LOG2 PUSH5 0x6970667358 0x22 SLT KECCAK256 PUSH14 0x6EF9120228C5A1CDC56CBA089838 COINBASE 0xDF SWAP8 0xD2 SHR DUP12 0xB5 0xEF 0x4D 0xA7 SAR DELEGATECALL PUSH7 0x310BFB0D64736F PUSH13 0x63430008120033000000000000 "
		},
		"gasEstimates": {
			"creation": {
				"codeDepositCost": "422600",
				"executionCost": "461",
				"totalCost": "423061"
			},
			"external": {
				"concat1(string,string)": "infinite",
				"concat2(string,string)": "infinite",
				"concat3(string,string,string)": "infinite",
				"concat4(uint256,uint256,uint256)": "infinite",
				"concat5(uint256)": "infinite"
			}
		},
		"methodIdentifiers": {
			"concat1(string,string)": "3d9799b4",
			"concat2(string,string)": "252a1437",
			"concat3(string,string,string)": "f932028f",
			"concat4(uint256,uint256,uint256)": "bcbdef66",
			"concat5(uint256)": "a8e61fb5"
		}
	},
	"abi": [
		{
			"inputs": [
				{
					"internalType": "string",
					"name": "a",
					"type": "string"
				},
				{
					"internalType": "string",
					"name": "b",
					"type": "string"
				}
			],
			"name": "concat1",
			"outputs": [
				{
					"internalType": "string",
					"name": "",
					"type": "string"
				}
			],
			"stateMutability": "pure",
			"type": "function"
		},
		{
			"inputs": [
				{
					"internalType": "string",
					"name": "a",
					"type": "string"
				},
				{
					"internalType": "string",
					"name": "b",
					"type": "string"
				}
			],
			"name": "concat2",
			"outputs": [
				{
					"internalType": "string",
					"name": "",
					"type": "string"
				}
			],
			"stateMutability": "pure",
			"type": "function"
		},
		{
			"inputs": [
				{
					"internalType": "string",
					"name": "a",
					"type": "string"
				},
				{
					"internalType": "string",
					"name": "b",
					"type": "string"
				},
				{
					"internalType": "string",
					"name": "c",
					"type": "string"
				}
			],
			"name": "concat3",
			"outputs": [
				{
					"internalType": "string",
					"name": "",
					"type": "string"
				}
			],
			"stateMutability": "pure",
			"type": "function"
		},
		{
			"inputs": [
				{
					"internalType": "uint256",
					"name": "a",
					"type": "uint256"
				},
				{
					"internalType": "uint256",
					"name": "b",
					"type": "uint256"
				},
				{
					"internalType": "uint256",
					"name": "c",
					"type": "uint256"
				}
			],
			"name": "concat4",
			"outputs": [
				{
					"internalType": "string",
					"name": "",
					"type": "string"
				}
			],
			"stateMutability": "pure",
			"type": "function"
		},
		{
			"inputs": [
				{
					"internalType": "uint256",
					"name": "a",
					"type": "uint256"
				}
			],
			"name": "concat5",
			"outputs": [
				{
					"internalType": "string",
					"name": "",
					"type": "string"
				}
			],
			"stateMutability": "pure",
			"type": "function"
		}
	]
}