{
	"data": {
		"bytecode": {
			"linkReferences": {},
			"object": "608060405234801561001057600080fd5b506105d0806100206000396000f3fe60806040526004361061001e5760003560e01c8063d47dd40214610023575b600080fd5b61003d600480360381019061003891906102a0565b610053565b60405161004a91906103e4565b60405180910390f35b606066b1a2bc2ec50000341461009e576040517f08c379a000000000000000000000000000000000000000000000000000000000815260040161009590610452565b60405180910390fd5b6030876100ab91906104a1565b96506030866100ba91906104a1565b95506030856100c991906104a1565b94506030846100d891906104a1565b93508686868686866040516020016100f596959493929190610532565b60405160208183030381529060405290509695505050505050565b6000604051905090565b600080fd5b600080fd5b6000819050919050565b61013781610124565b811461014257600080fd5b50565b6000813590506101548161012e565b92915050565b600080fd5b600080fd5b6000601f19601f8301169050919050565b7f4e487b7100000000000000000000000000000000000000000000000000000000600052604160045260246000fd5b6101ad82610164565b810181811067ffffffffffffffff821117156101cc576101cb610175565b5b80604052505050565b60006101df610110565b90506101eb82826101a4565b919050565b600067ffffffffffffffff82111561020b5761020a610175565b5b61021482610164565b9050602081019050919050565b82818337600083830152505050565b600061024361023e846101f0565b6101d5565b90508281526020810184848401111561025f5761025e61015f565b5b61026a848285610221565b509392505050565b600082601f8301126102875761028661015a565b5b8135610297848260208601610230565b91505092915050565b60008060008060008060c087890312156102bd576102bc61011a565b5b60006102cb89828a01610145565b96505060206102dc89828a01610145565b95505060406102ed89828a01610145565b94505060606102fe89828a01610145565b935050608087013567ffffffffffffffff81111561031f5761031e61011f565b5b61032b89828a01610272565b92505060a087013567ffffffffffffffff81111561034c5761034b61011f565b5b61035889828a01610272565b9150509295509295509295565b600081519050919050565b600082825260208201905092915050565b60005b8381101561039f578082015181840152602081019050610384565b60008484015250505050565b60006103b682610365565b6103c08185610370565b93506103d0818560208601610381565b6103d981610164565b840191505092915050565b600060208201905081810360008301526103fe81846103ab565b905092915050565b7f67697665206d6520302e30356574682021000000000000000000000000000000600082015250565b600061043c601183610370565b915061044782610406565b602082019050919050565b6000602082019050818103600083015261046b8161042f565b9050919050565b7f4e487b7100000000000000000000000000000000000000000000000000000000600052601160045260246000fd5b60006104ac82610124565b91506104b783610124565b92508282019050808211156104cf576104ce610472565b5b92915050565b6000819050919050565b6104f06104eb82610124565b6104d5565b82525050565b600081905092915050565b600061050c82610365565b61051681856104f6565b9350610526818560208601610381565b80840191505092915050565b600061053e82896104df565b60208201915061054e82886104df565b60208201915061055e82876104df565b60208201915061056e82866104df565b60208201915061057e8285610501565b915061058a8284610501565b915081905097965050505050505056fea2646970667358221220704d12d2e58273d1e7438d8ad93c175ee6662946df52d0978abcf270d46438ef64736f6c63430008120033",
			"opcodes": "PUSH1 0x80 PUSH1 0x40 MSTORE CALLVALUE DUP1 ISZERO PUSH2 0x10 JUMPI PUSH1 0x0 DUP1 REVERT JUMPDEST POP PUSH2 0x5D0 DUP1 PUSH2 0x20 PUSH1 0x0 CODECOPY PUSH1 0x0 RETURN INVALID PUSH1 0x80 PUSH1 0x40 MSTORE PUSH1 0x4 CALLDATASIZE LT PUSH2 0x1E JUMPI PUSH1 0x0 CALLDATALOAD PUSH1 0xE0 SHR DUP1 PUSH4 0xD47DD402 EQ PUSH2 0x23 JUMPI JUMPDEST PUSH1 0x0 DUP1 REVERT JUMPDEST PUSH2 0x3D PUSH1 0x4 DUP1 CALLDATASIZE SUB DUP2 ADD SWAP1 PUSH2 0x38 SWAP2 SWAP1 PUSH2 0x2A0 JUMP JUMPDEST PUSH2 0x53 JUMP JUMPDEST PUSH1 0x40 MLOAD PUSH2 0x4A SWAP2 SWAP1 PUSH2 0x3E4 JUMP JUMPDEST PUSH1 0x40 MLOAD DUP1 SWAP2 SUB SWAP1 RETURN JUMPDEST PUSH1 0x60 PUSH7 0xB1A2BC2EC50000 CALLVALUE EQ PUSH2 0x9E JUMPI PUSH1 0x40 MLOAD PUSH32 0x8C379A000000000000000000000000000000000000000000000000000000000 DUP2 MSTORE PUSH1 0x4 ADD PUSH2 0x95 SWAP1 PUSH2 0x452 JUMP JUMPDEST PUSH1 0x40 MLOAD DUP1 SWAP2 SUB SWAP1 REVERT JUMPDEST PUSH1 0x30 DUP8 PUSH2 0xAB SWAP2 SWAP1 PUSH2 0x4A1 JUMP JUMPDEST SWAP7 POP PUSH1 0x30 DUP7 PUSH2 0xBA SWAP2 SWAP1 PUSH2 0x4A1 JUMP JUMPDEST SWAP6 POP PUSH1 0x30 DUP6 PUSH2 0xC9 SWAP2 SWAP1 PUSH2 0x4A1 JUMP JUMPDEST SWAP5 POP PUSH1 0x30 DUP5 PUSH2 0xD8 SWAP2 SWAP1 PUSH2 0x4A1 JUMP JUMPDEST SWAP4 POP DUP7 DUP7 DUP7 DUP7 DUP7 DUP7 PUSH1 0x40 MLOAD PUSH1 0x20 ADD PUSH2 0xF5 SWAP7 SWAP6 SWAP5 SWAP4 SWAP3 SWAP2 SWAP1 PUSH2 0x532 JUMP JUMPDEST PUSH1 0x40 MLOAD PUSH1 0x20 DUP2 DUP4 SUB SUB DUP2 MSTORE SWAP1 PUSH1 0x40 MSTORE SWAP1 POP SWAP7 SWAP6 POP POP POP POP POP POP JUMP JUMPDEST PUSH1 0x0 PUSH1 0x40 MLOAD SWAP1 POP SWAP1 JUMP JUMPDEST PUSH1 0x0 DUP1 REVERT JUMPDEST PUSH1 0x0 DUP1 REVERT JUMPDEST PUSH1 0x0 DUP2 SWAP1 POP SWAP2 SWAP1 POP JUMP JUMPDEST PUSH2 0x137 DUP2 PUSH2 0x124 JUMP JUMPDEST DUP2 EQ PUSH2 0x142 JUMPI PUSH1 0x0 DUP1 REVERT JUMPDEST POP JUMP JUMPDEST PUSH1 0x0 DUP2 CALLDATALOAD SWAP1 POP PUSH2 0x154 DUP2 PUSH2 0x12E JUMP JUMPDEST SWAP3 SWAP2 POP POP JUMP JUMPDEST PUSH1 0x0 DUP1 REVERT JUMPDEST PUSH1 0x0 DUP1 REVERT JUMPDEST PUSH1 0x0 PUSH1 0x1F NOT PUSH1 0x1F DUP4 ADD AND SWAP1 POP SWAP2 SWAP1 POP JUMP JUMPDEST PUSH32 0x4E487B7100000000000000000000000000000000000000000000000000000000 PUSH1 0x0 MSTORE PUSH1 0x41 PUSH1 0x4 MSTORE PUSH1 0x24 PUSH1 0x0 REVERT JUMPDEST PUSH2 0x1AD DUP3 PUSH2 0x164 JUMP JUMPDEST DUP2 ADD DUP2 DUP2 LT PUSH8 0xFFFFFFFFFFFFFFFF DUP3 GT OR ISZERO PUSH2 0x1CC JUMPI PUSH2 0x1CB PUSH2 0x175 JUMP JUMPDEST JUMPDEST DUP1 PUSH1 0x40 MSTORE POP POP POP JUMP JUMPDEST PUSH1 0x0 PUSH2 0x1DF PUSH2 0x110 JUMP JUMPDEST SWAP1 POP PUSH2 0x1EB DUP3 DUP3 PUSH2 0x1A4 JUMP JUMPDEST SWAP2 SWAP1 POP JUMP JUMPDEST PUSH1 0x0 PUSH8 0xFFFFFFFFFFFFFFFF DUP3 GT ISZERO PUSH2 0x20B JUMPI PUSH2 0x20A PUSH2 0x175 JUMP JUMPDEST JUMPDEST PUSH2 0x214 DUP3 PUSH2 0x164 JUMP JUMPDEST SWAP1 POP PUSH1 0x20 DUP2 ADD SWAP1 POP SWAP2 SWAP1 POP JUMP JUMPDEST DUP3 DUP2 DUP4 CALLDATACOPY PUSH1 0x0 DUP4 DUP4 ADD MSTORE POP POP POP JUMP JUMPDEST PUSH1 0x0 PUSH2 0x243 PUSH2 0x23E DUP5 PUSH2 0x1F0 JUMP JUMPDEST PUSH2 0x1D5 JUMP JUMPDEST SWAP1 POP DUP3 DUP2 MSTORE PUSH1 0x20 DUP2 ADD DUP5 DUP5 DUP5 ADD GT ISZERO PUSH2 0x25F JUMPI PUSH2 0x25E PUSH2 0x15F JUMP JUMPDEST JUMPDEST PUSH2 0x26A DUP5 DUP3 DUP6 PUSH2 0x221 JUMP JUMPDEST POP SWAP4 SWAP3 POP POP POP JUMP JUMPDEST PUSH1 0x0 DUP3 PUSH1 0x1F DUP4 ADD SLT PUSH2 0x287 JUMPI PUSH2 0x286 PUSH2 0x15A JUMP JUMPDEST JUMPDEST DUP2 CALLDATALOAD PUSH2 0x297 DUP5 DUP3 PUSH1 0x20 DUP7 ADD PUSH2 0x230 JUMP JUMPDEST SWAP2 POP POP SWAP3 SWAP2 POP POP JUMP JUMPDEST PUSH1 0x0 DUP1 PUSH1 0x0 DUP1 PUSH1 0x0 DUP1 PUSH1 0xC0 DUP8 DUP10 SUB SLT ISZERO PUSH2 0x2BD JUMPI PUSH2 0x2BC PUSH2 0x11A JUMP JUMPDEST JUMPDEST PUSH1 0x0 PUSH2 0x2CB DUP10 DUP3 DUP11 ADD PUSH2 0x145 JUMP JUMPDEST SWAP7 POP POP PUSH1 0x20 PUSH2 0x2DC DUP10 DUP3 DUP11 ADD PUSH2 0x145 JUMP JUMPDEST SWAP6 POP POP PUSH1 0x40 PUSH2 0x2ED DUP10 DUP3 DUP11 ADD PUSH2 0x145 JUMP JUMPDEST SWAP5 POP POP PUSH1 0x60 PUSH2 0x2FE DUP10 DUP3 DUP11 ADD PUSH2 0x145 JUMP JUMPDEST SWAP4 POP POP PUSH1 0x80 DUP8 ADD CALLDATALOAD PUSH8 0xFFFFFFFFFFFFFFFF DUP2 GT ISZERO PUSH2 0x31F JUMPI PUSH2 0x31E PUSH2 0x11F JUMP JUMPDEST JUMPDEST PUSH2 0x32B DUP10 DUP3 DUP11 ADD PUSH2 0x272 JUMP JUMPDEST SWAP3 POP POP PUSH1 0xA0 DUP8 ADD CALLDATALOAD PUSH8 0xFFFFFFFFFFFFFFFF DUP2 GT ISZERO PUSH2 0x34C JUMPI PUSH2 0x34B PUSH2 0x11F JUMP JUMPDEST JUMPDEST PUSH2 0x358 DUP10 DUP3 DUP11 ADD PUSH2 0x272 JUMP JUMPDEST SWAP2 POP POP SWAP3 SWAP6 POP SWAP3 SWAP6 POP SWAP3 SWAP6 JUMP JUMPDEST PUSH1 0x0 DUP2 MLOAD SWAP1 POP SWAP2 SWAP1 POP JUMP JUMPDEST PUSH1 0x0 DUP3 DUP3 MSTORE PUSH1 0x20 DUP3 ADD SWAP1 POP SWAP3 SWAP2 POP POP JUMP JUMPDEST PUSH1 0x0 JUMPDEST DUP4 DUP2 LT ISZERO PUSH2 0x39F JUMPI DUP1 DUP3 ADD MLOAD DUP2 DUP5 ADD MSTORE PUSH1 0x20 DUP2 ADD SWAP1 POP PUSH2 0x384 JUMP JUMPDEST PUSH1 0x0 DUP5 DUP5 ADD MSTORE POP POP POP POP JUMP JUMPDEST PUSH1 0x0 PUSH2 0x3B6 DUP3 PUSH2 0x365 JUMP JUMPDEST PUSH2 0x3C0 DUP2 DUP6 PUSH2 0x370 JUMP JUMPDEST SWAP4 POP PUSH2 0x3D0 DUP2 DUP6 PUSH1 0x20 DUP7 ADD PUSH2 0x381 JUMP JUMPDEST PUSH2 0x3D9 DUP2 PUSH2 0x164 JUMP JUMPDEST DUP5 ADD SWAP2 POP POP SWAP3 SWAP2 POP POP JUMP JUMPDEST PUSH1 0x0 PUSH1 0x20 DUP3 ADD SWAP1 POP DUP2 DUP2 SUB PUSH1 0x0 DUP4 ADD MSTORE PUSH2 0x3FE DUP2 DUP5 PUSH2 0x3AB JUMP JUMPDEST SWAP1 POP SWAP3 SWAP2 POP POP JUMP JUMPDEST PUSH32 0x67697665206D6520302E30356574682021000000000000000000000000000000 PUSH1 0x0 DUP3 ADD MSTORE POP JUMP JUMPDEST PUSH1 0x0 PUSH2 0x43C PUSH1 0x11 DUP4 PUSH2 0x370 JUMP JUMPDEST SWAP2 POP PUSH2 0x447 DUP3 PUSH2 0x406 JUMP JUMPDEST PUSH1 0x20 DUP3 ADD SWAP1 POP SWAP2 SWAP1 POP JUMP JUMPDEST PUSH1 0x0 PUSH1 0x20 DUP3 ADD SWAP1 POP DUP2 DUP2 SUB PUSH1 0x0 DUP4 ADD MSTORE PUSH2 0x46B DUP2 PUSH2 0x42F JUMP JUMPDEST SWAP1 POP SWAP2 SWAP1 POP JUMP JUMPDEST PUSH32 0x4E487B7100000000000000000000000000000000000000000000000000000000 PUSH1 0x0 MSTORE PUSH1 0x11 PUSH1 0x4 MSTORE PUSH1 0x24 PUSH1 0x0 REVERT JUMPDEST PUSH1 0x0 PUSH2 0x4AC DUP3 PUSH2 0x124 JUMP JUMPDEST SWAP2 POP PUSH2 0x4B7 DUP4 PUSH2 0x124 JUMP JUMPDEST SWAP3 POP DUP3 DUP3 ADD SWAP1 POP DUP1 DUP3 GT ISZERO PUSH2 0x4CF JUMPI PUSH2 0x4CE PUSH2 0x472 JUMP JUMPDEST JUMPDEST SWAP3 SWAP2 POP POP JUMP JUMPDEST PUSH1 0x0 DUP2 SWAP1 POP SWAP2 SWAP1 POP JUMP JUMPDEST PUSH2 0x4F0 PUSH2 0x4EB DUP3 PUSH2 0x124 JUMP JUMPDEST PUSH2 0x4D5 JUMP JUMPDEST DUP3 MSTORE POP POP JUMP JUMPDEST PUSH1 0x0 DUP2 SWAP1 POP SWAP3 SWAP2 POP POP JUMP JUMPDEST PUSH1 0x0 PUSH2 0x50C DUP3 PUSH2 0x365 JUMP JUMPDEST PUSH2 0x516 DUP2 DUP6 PUSH2 0x4F6 JUMP JUMPDEST SWAP4 POP PUSH2 0x526 DUP2 DUP6 PUSH1 0x20 DUP7 ADD PUSH2 0x381 JUMP JUMPDEST DUP1 DUP5 ADD SWAP2 POP POP SWAP3 SWAP2 POP POP JUMP JUMPDEST PUSH1 0x0 PUSH2 0x53E DUP3 DUP10 PUSH2 0x4DF JUMP JUMPDEST PUSH1 0x20 DUP3 ADD SWAP2 POP PUSH2 0x54E DUP3 DUP9 PUSH2 0x4DF JUMP JUMPDEST PUSH1 0x20 DUP3 ADD SWAP2 POP PUSH2 0x55E DUP3 DUP8 PUSH2 0x4DF JUMP JUMPDEST PUSH1 0x20 DUP3 ADD SWAP2 POP PUSH2 0x56E DUP3 DUP7 PUSH2 0x4DF JUMP JUMPDEST PUSH1 0x20 DUP3 ADD SWAP2 POP PUSH2 0x57E DUP3 DUP6 PUSH2 0x501 JUMP JUMPDEST SWAP2 POP PUSH2 0x58A DUP3 DUP5 PUSH2 0x501 JUMP JUMPDEST SWAP2 POP DUP2 SWAP1 POP SWAP8 SWAP7 POP POP POP POP POP POP POP JUMP INVALID LOG2 PUSH5 0x6970667358 0x22 SLT KECCAK256 PUSH17 0x4D12D2E58273D1E7438D8AD93C175EE666 0x29 CHAINID 0xDF MSTORE 0xD0 SWAP8 DUP11 0xBC CALLCODE PUSH17 0xD46438EF64736F6C634300081200330000 "
		},
		"gasEstimates": {
			"creation": {
				"codeDepositCost": "297600",
				"executionCost": "337",
				"totalCost": "297937"
			},
			"external": {
				"lottoGame(uint256,uint256,uint256,uint256,string,string)": "infinite"
			}
		},
		"methodIdentifiers": {
			"lottoGame(uint256,uint256,uint256,uint256,string,string)": "d47dd402"
		}
	},
	"abi": [
		{
			"inputs": [
				{
					"internalType": "uint256",
					"name": "a",
					"type": "uint256"
				},
				{
					"internalType": "uint256",
					"name": "b",
					"type": "uint256"
				},
				{
					"internalType": "uint256",
					"name": "c",
					"type": "uint256"
				},
				{
					"internalType": "uint256",
					"name": "d",
					"type": "uint256"
				},
				{
					"internalType": "string",
					"name": "e",
					"type": "string"
				},
				{
					"internalType": "string",
					"name": "f",
					"type": "string"
				}
			],
			"name": "lottoGame",
			"outputs": [
				{
					"internalType": "string",
					"name": "",
					"type": "string"
				}
			],
			"stateMutability": "payable",
			"type": "function"
		}
	]
}