{
	"contracts/230504/5_Struct.sol": {
		"QUIZ": {
			"abi": [
				{
					"inputs": [],
					"name": "getLength",
					"outputs": [
						{
							"internalType": "uint256",
							"name": "",
							"type": "uint256"
						}
					],
					"stateMutability": "view",
					"type": "function"
				},
				{
					"inputs": [
						{
							"internalType": "uint256",
							"name": "_n",
							"type": "uint256"
						}
					],
					"name": "getStudent",
					"outputs": [
						{
							"components": [
								{
									"internalType": "string",
									"name": "name",
									"type": "string"
								},
								{
									"internalType": "bool",
									"name": "isMale",
									"type": "bool"
								},
								{
									"internalType": "uint256",
									"name": "number",
									"type": "uint256"
								},
								{
									"internalType": "uint256",
									"name": "birth",
									"type": "uint256"
								}
							],
							"internalType": "struct QUIZ.Student",
							"name": "",
							"type": "tuple"
						}
					],
					"stateMutability": "view",
					"type": "function"
				},
				{
					"inputs": [],
					"name": "getStudent",
					"outputs": [
						{
							"components": [
								{
									"internalType": "string",
									"name": "name",
									"type": "string"
								},
								{
									"internalType": "bool",
									"name": "isMale",
									"type": "bool"
								},
								{
									"internalType": "uint256",
									"name": "number",
									"type": "uint256"
								},
								{
									"internalType": "uint256",
									"name": "birth",
									"type": "uint256"
								}
							],
							"internalType": "struct QUIZ.Student",
							"name": "",
							"type": "tuple"
						}
					],
					"stateMutability": "view",
					"type": "function"
				},
				{
					"inputs": [],
					"name": "getStudents",
					"outputs": [
						{
							"components": [
								{
									"internalType": "string",
									"name": "name",
									"type": "string"
								},
								{
									"internalType": "bool",
									"name": "isMale",
									"type": "bool"
								},
								{
									"internalType": "uint256",
									"name": "number",
									"type": "uint256"
								},
								{
									"internalType": "uint256",
									"name": "birth",
									"type": "uint256"
								}
							],
							"internalType": "struct QUIZ.Student[]",
							"name": "",
							"type": "tuple[]"
						}
					],
					"stateMutability": "view",
					"type": "function"
				},
				{
					"inputs": [],
					"name": "popStudent",
					"outputs": [],
					"stateMutability": "nonpayable",
					"type": "function"
				},
				{
					"inputs": [
						{
							"internalType": "string",
							"name": "_name",
							"type": "string"
						},
						{
							"internalType": "bool",
							"name": "_isMale",
							"type": "bool"
						},
						{
							"internalType": "uint256",
							"name": "_number",
							"type": "uint256"
						},
						{
							"internalType": "uint256",
							"name": "_birth",
							"type": "uint256"
						}
					],
					"name": "pushStudent",
					"outputs": [],
					"stateMutability": "nonpayable",
					"type": "function"
				},
				{
					"inputs": [
						{
							"internalType": "string",
							"name": "_name",
							"type": "string"
						},
						{
							"internalType": "bool",
							"name": "_isMale",
							"type": "bool"
						},
						{
							"internalType": "uint256",
							"name": "_number",
							"type": "uint256"
						},
						{
							"internalType": "uint256",
							"name": "_birth",
							"type": "uint256"
						}
					],
					"name": "setStudent",
					"outputs": [],
					"stateMutability": "nonpayable",
					"type": "function"
				}
			],
			"devdoc": {
				"kind": "dev",
				"methods": {},
				"version": 1
			},
			"evm": {
				"assembly": "    /* \"contracts/230504/5_Struct.sol\":535:1791  contract QUIZ {... */\n  mstore(0x40, 0x80)\n  callvalue\n  dup1\n  iszero\n  tag_1\n  jumpi\n  0x00\n  dup1\n  revert\ntag_1:\n  pop\n  dataSize(sub_0)\n  dup1\n  dataOffset(sub_0)\n  0x00\n  codecopy\n  0x00\n  return\nstop\n\nsub_0: assembly {\n        /* \"contracts/230504/5_Struct.sol\":535:1791  contract QUIZ {... */\n      mstore(0x40, 0x80)\n      callvalue\n      dup1\n      iszero\n      tag_1\n      jumpi\n      0x00\n      dup1\n      revert\n    tag_1:\n      pop\n      jumpi(tag_2, lt(calldatasize, 0x04))\n      shr(0xe0, calldataload(0x00))\n      dup1\n      0xbe1c766b\n      gt\n      tag_10\n      jumpi\n      dup1\n      0xbe1c766b\n      eq\n      tag_6\n      jumpi\n      dup1\n      0xf1d064b3\n      eq\n      tag_7\n      jumpi\n      dup1\n      0xfb8f686c\n      eq\n      tag_8\n      jumpi\n      dup1\n      0xfc4b6863\n      eq\n      tag_9\n      jumpi\n      jump(tag_2)\n    tag_10:\n      dup1\n      0x41571887\n      eq\n      tag_3\n      jumpi\n      dup1\n      0x642f9163\n      eq\n      tag_4\n      jumpi\n      dup1\n      0xb439548d\n      eq\n      tag_5\n      jumpi\n    tag_2:\n      0x00\n      dup1\n      revert\n        /* \"contracts/230504/5_Struct.sol\":1412:1474  function popStudent() public {... */\n    tag_3:\n      tag_11\n      tag_12\n      jump\t// in\n    tag_11:\n      stop\n        /* \"contracts/230504/5_Struct.sol\":1578:1685  function getStudent(uint _n) public view returns(Student memory) {... */\n    tag_4:\n      tag_13\n      0x04\n      dup1\n      calldatasize\n      sub\n      dup2\n      add\n      swap1\n      tag_14\n      swap2\n      swap1\n      tag_15\n      jump\t// in\n    tag_14:\n      tag_16\n      jump\t// in\n    tag_13:\n      mload(0x40)\n      tag_17\n      swap2\n      swap1\n      tag_18\n      jump\t// in\n    tag_17:\n      mload(0x40)\n      dup1\n      swap2\n      sub\n      swap1\n      return\n        /* \"contracts/230504/5_Struct.sol\":1086:1172  function getStudent() public view returns (Student memory) {... */\n    tag_5:\n      tag_19\n      tag_20\n      jump\t// in\n    tag_19:\n      mload(0x40)\n      tag_21\n      swap2\n      swap1\n      tag_18\n      jump\t// in\n    tag_21:\n      mload(0x40)\n      dup1\n      swap2\n      sub\n      swap1\n      return\n        /* \"contracts/230504/5_Struct.sol\":1482:1570  function getLength() public view returns(uint) {... */\n    tag_6:\n      tag_22\n      tag_23\n      jump\t// in\n    tag_22:\n      mload(0x40)\n      tag_24\n      swap2\n      swap1\n      tag_25\n      jump\t// in\n    tag_24:\n      mload(0x40)\n      dup1\n      swap2\n      sub\n      swap1\n      return\n        /* \"contracts/230504/5_Struct.sol\":1693:1788  function getStudents() public view returns(Student[] memory) {... */\n    tag_7:\n      tag_26\n      tag_27\n      jump\t// in\n    tag_26:\n      mload(0x40)\n      tag_28\n      swap2\n      swap1\n      tag_29\n      jump\t// in\n    tag_28:\n      mload(0x40)\n      dup1\n      swap2\n      sub\n      swap1\n      return\n        /* \"contracts/230504/5_Struct.sol\":1180:1404  function pushStudent(string memory _name, bool _isMale, uint _number, uint _birth) public {... */\n    tag_8:\n      tag_30\n      0x04\n      dup1\n      calldatasize\n      sub\n      dup2\n      add\n      swap1\n      tag_31\n      swap2\n      swap1\n      tag_32\n      jump\t// in\n    tag_31:\n      tag_33\n      jump\t// in\n    tag_30:\n      stop\n        /* \"contracts/230504/5_Struct.sol\":813:1078  function setStudent(string memory _name, bool _isMale, uint _number, uint _birth) public {... */\n    tag_9:\n      tag_34\n      0x04\n      dup1\n      calldatasize\n      sub\n      dup2\n      add\n      swap1\n      tag_35\n      swap2\n      swap1\n      tag_32\n      jump\t// in\n    tag_35:\n      tag_36\n      jump\t// in\n    tag_34:\n      stop\n        /* \"contracts/230504/5_Struct.sol\":1412:1474  function popStudent() public {... */\n    tag_12:\n        /* \"contracts/230504/5_Struct.sol\":1452:1460  students */\n      0x04\n        /* \"contracts/230504/5_Struct.sol\":1452:1466  students.pop() */\n      dup1\n      sload\n      dup1\n      tag_38\n      jumpi\n      tag_39\n      tag_40\n      jump\t// in\n    tag_39:\n    tag_38:\n      0x01\n      swap1\n      sub\n      dup2\n      dup2\n      swap1\n      0x00\n      mstore\n      keccak256(0x00, 0x20)\n      swap1\n      0x04\n      mul\n      add\n      0x00\n      dup1\n      dup3\n      add\n      0x00\n      tag_42\n      swap2\n      swap1\n      tag_43\n      jump\t// in\n    tag_42:\n      0x01\n      dup3\n      add\n      exp(0x0100, 0x00)\n      dup2\n      sload\n      swap1\n      0xff\n      mul\n      not\n      and\n      swap1\n      sstore\n      0x02\n      dup3\n      add\n      0x00\n      swap1\n      sstore\n      0x03\n      dup3\n      add\n      0x00\n      swap1\n      sstore\n      pop\n      pop\n      swap1\n      sstore\n        /* \"contracts/230504/5_Struct.sol\":1412:1474  function popStudent() public {... */\n      jump\t// out\n        /* \"contracts/230504/5_Struct.sol\":1578:1685  function getStudent(uint _n) public view returns(Student memory) {... */\n    tag_16:\n        /* \"contracts/230504/5_Struct.sol\":1627:1641  Student memory */\n      tag_44\n      tag_45\n      jump\t// in\n    tag_44:\n        /* \"contracts/230504/5_Struct.sol\":1661:1669  students */\n      0x04\n        /* \"contracts/230504/5_Struct.sol\":1675:1676  1 */\n      0x01\n        /* \"contracts/230504/5_Struct.sol\":1670:1672  _n */\n      dup4\n        /* \"contracts/230504/5_Struct.sol\":1670:1676  _n - 1 */\n      tag_47\n      swap2\n      swap1\n      tag_48\n      jump\t// in\n    tag_47:\n        /* \"contracts/230504/5_Struct.sol\":1661:1677  students[_n - 1] */\n      dup2\n      sload\n      dup2\n      lt\n      tag_49\n      jumpi\n      tag_50\n      tag_51\n      jump\t// in\n    tag_50:\n    tag_49:\n      swap1\n      0x00\n      mstore\n      keccak256(0x00, 0x20)\n      swap1\n      0x04\n      mul\n      add\n        /* \"contracts/230504/5_Struct.sol\":1654:1677  return students[_n - 1] */\n      mload(0x40)\n      dup1\n      0x80\n      add\n      0x40\n      mstore\n      swap1\n      dup2\n      0x00\n      dup3\n      add\n      dup1\n      sload\n      tag_53\n      swap1\n      tag_54\n      jump\t// in\n    tag_53:\n      dup1\n      0x1f\n      add\n      0x20\n      dup1\n      swap2\n      div\n      mul\n      0x20\n      add\n      mload(0x40)\n      swap1\n      dup2\n      add\n      0x40\n      mstore\n      dup1\n      swap3\n      swap2\n      swap1\n      dup2\n      dup2\n      mstore\n      0x20\n      add\n      dup3\n      dup1\n      sload\n      tag_55\n      swap1\n      tag_54\n      jump\t// in\n    tag_55:\n      dup1\n      iszero\n      tag_56\n      jumpi\n      dup1\n      0x1f\n      lt\n      tag_57\n      jumpi\n      0x0100\n      dup1\n      dup4\n      sload\n      div\n      mul\n      dup4\n      mstore\n      swap2\n      0x20\n      add\n      swap2\n      jump(tag_56)\n    tag_57:\n      dup3\n      add\n      swap2\n      swap1\n      0x00\n      mstore\n      keccak256(0x00, 0x20)\n      swap1\n    tag_58:\n      dup2\n      sload\n      dup2\n      mstore\n      swap1\n      0x01\n      add\n      swap1\n      0x20\n      add\n      dup1\n      dup4\n      gt\n      tag_58\n      jumpi\n      dup3\n      swap1\n      sub\n      0x1f\n      and\n      dup3\n      add\n      swap2\n    tag_56:\n      pop\n      pop\n      pop\n      pop\n      pop\n      dup2\n      mstore\n      0x20\n      add\n      0x01\n      dup3\n      add\n      0x00\n      swap1\n      sload\n      swap1\n      0x0100\n      exp\n      swap1\n      div\n      0xff\n      and\n      iszero\n      iszero\n      iszero\n      iszero\n      dup2\n      mstore\n      0x20\n      add\n      0x02\n      dup3\n      add\n      sload\n      dup2\n      mstore\n      0x20\n      add\n      0x03\n      dup3\n      add\n      sload\n      dup2\n      mstore\n      pop\n      pop\n      swap1\n      pop\n        /* \"contracts/230504/5_Struct.sol\":1578:1685  function getStudent(uint _n) public view returns(Student memory) {... */\n      swap2\n      swap1\n      pop\n      jump\t// out\n        /* \"contracts/230504/5_Struct.sol\":1086:1172  function getStudent() public view returns (Student memory) {... */\n    tag_20:\n        /* \"contracts/230504/5_Struct.sol\":1129:1143  Student memory */\n      tag_59\n      tag_45\n      jump\t// in\n    tag_59:\n        /* \"contracts/230504/5_Struct.sol\":1163:1164  s */\n      0x00\n        /* \"contracts/230504/5_Struct.sol\":1156:1164  return s */\n      mload(0x40)\n      dup1\n      0x80\n      add\n      0x40\n      mstore\n      swap1\n      dup2\n      0x00\n      dup3\n      add\n      dup1\n      sload\n      tag_61\n      swap1\n      tag_54\n      jump\t// in\n    tag_61:\n      dup1\n      0x1f\n      add\n      0x20\n      dup1\n      swap2\n      div\n      mul\n      0x20\n      add\n      mload(0x40)\n      swap1\n      dup2\n      add\n      0x40\n      mstore\n      dup1\n      swap3\n      swap2\n      swap1\n      dup2\n      dup2\n      mstore\n      0x20\n      add\n      dup3\n      dup1\n      sload\n      tag_62\n      swap1\n      tag_54\n      jump\t// in\n    tag_62:\n      dup1\n      iszero\n      tag_63\n      jumpi\n      dup1\n      0x1f\n      lt\n      tag_64\n      jumpi\n      0x0100\n      dup1\n      dup4\n      sload\n      div\n      mul\n      dup4\n      mstore\n      swap2\n      0x20\n      add\n      swap2\n      jump(tag_63)\n    tag_64:\n      dup3\n      add\n      swap2\n      swap1\n      0x00\n      mstore\n      keccak256(0x00, 0x20)\n      swap1\n    tag_65:\n      dup2\n      sload\n      dup2\n      mstore\n      swap1\n      0x01\n      add\n      swap1\n      0x20\n      add\n      dup1\n      dup4\n      gt\n      tag_65\n      jumpi\n      dup3\n      swap1\n      sub\n      0x1f\n      and\n      dup3\n      add\n      swap2\n    tag_63:\n      pop\n      pop\n      pop\n      pop\n      pop\n      dup2\n      mstore\n      0x20\n      add\n      0x01\n      dup3\n      add\n      0x00\n      swap1\n      sload\n      swap1\n      0x0100\n      exp\n      swap1\n      div\n      0xff\n      and\n      iszero\n      iszero\n      iszero\n      iszero\n      dup2\n      mstore\n      0x20\n      add\n      0x02\n      dup3\n      add\n      sload\n      dup2\n      mstore\n      0x20\n      add\n      0x03\n      dup3\n      add\n      sload\n      dup2\n      mstore\n      pop\n      pop\n      swap1\n      pop\n        /* \"contracts/230504/5_Struct.sol\":1086:1172  function getStudent() public view returns (Student memory) {... */\n      swap1\n      jump\t// out\n        /* \"contracts/230504/5_Struct.sol\":1482:1570  function getLength() public view returns(uint) {... */\n    tag_23:\n        /* \"contracts/230504/5_Struct.sol\":1523:1527  uint */\n      0x00\n        /* \"contracts/230504/5_Struct.sol\":1547:1555  students */\n      0x04\n        /* \"contracts/230504/5_Struct.sol\":1547:1562  students.length */\n      dup1\n      sload\n      swap1\n      pop\n        /* \"contracts/230504/5_Struct.sol\":1540:1562  return students.length */\n      swap1\n      pop\n        /* \"contracts/230504/5_Struct.sol\":1482:1570  function getLength() public view returns(uint) {... */\n      swap1\n      jump\t// out\n        /* \"contracts/230504/5_Struct.sol\":1693:1788  function getStudents() public view returns(Student[] memory) {... */\n    tag_27:\n        /* \"contracts/230504/5_Struct.sol\":1736:1752  Student[] memory */\n      0x60\n        /* \"contracts/230504/5_Struct.sol\":1772:1780  students */\n      0x04\n        /* \"contracts/230504/5_Struct.sol\":1765:1780  return students */\n      dup1\n      sload\n      dup1\n      0x20\n      mul\n      0x20\n      add\n      mload(0x40)\n      swap1\n      dup2\n      add\n      0x40\n      mstore\n      dup1\n      swap3\n      swap2\n      swap1\n      dup2\n      dup2\n      mstore\n      0x20\n      add\n      0x00\n      swap1\n    tag_68:\n      dup3\n      dup3\n      lt\n      iszero\n      tag_69\n      jumpi\n      dup4\n      dup3\n      swap1\n      0x00\n      mstore\n      keccak256(0x00, 0x20)\n      swap1\n      0x04\n      mul\n      add\n      mload(0x40)\n      dup1\n      0x80\n      add\n      0x40\n      mstore\n      swap1\n      dup2\n      0x00\n      dup3\n      add\n      dup1\n      sload\n      tag_71\n      swap1\n      tag_54\n      jump\t// in\n    tag_71:\n      dup1\n      0x1f\n      add\n      0x20\n      dup1\n      swap2\n      div\n      mul\n      0x20\n      add\n      mload(0x40)\n      swap1\n      dup2\n      add\n      0x40\n      mstore\n      dup1\n      swap3\n      swap2\n      swap1\n      dup2\n      dup2\n      mstore\n      0x20\n      add\n      dup3\n      dup1\n      sload\n      tag_72\n      swap1\n      tag_54\n      jump\t// in\n    tag_72:\n      dup1\n      iszero\n      tag_73\n      jumpi\n      dup1\n      0x1f\n      lt\n      tag_74\n      jumpi\n      0x0100\n      dup1\n      dup4\n      sload\n      div\n      mul\n      dup4\n      mstore\n      swap2\n      0x20\n      add\n      swap2\n      jump(tag_73)\n    tag_74:\n      dup3\n      add\n      swap2\n      swap1\n      0x00\n      mstore\n      keccak256(0x00, 0x20)\n      swap1\n    tag_75:\n      dup2\n      sload\n      dup2\n      mstore\n      swap1\n      0x01\n      add\n      swap1\n      0x20\n      add\n      dup1\n      dup4\n      gt\n      tag_75\n      jumpi\n      dup3\n      swap1\n      sub\n      0x1f\n      and\n      dup3\n      add\n      swap2\n    tag_73:\n      pop\n      pop\n      pop\n      pop\n      pop\n      dup2\n      mstore\n      0x20\n      add\n      0x01\n      dup3\n      add\n      0x00\n      swap1\n      sload\n      swap1\n      0x0100\n      exp\n      swap1\n      div\n      0xff\n      and\n      iszero\n      iszero\n      iszero\n      iszero\n      dup2\n      mstore\n      0x20\n      add\n      0x02\n      dup3\n      add\n      sload\n      dup2\n      mstore\n      0x20\n      add\n      0x03\n      dup3\n      add\n      sload\n      dup2\n      mstore\n      pop\n      pop\n      dup2\n      mstore\n      0x20\n      add\n      swap1\n      0x01\n      add\n      swap1\n      jump(tag_68)\n    tag_69:\n      pop\n      pop\n      pop\n      pop\n      swap1\n      pop\n        /* \"contracts/230504/5_Struct.sol\":1693:1788  function getStudents() public view returns(Student[] memory) {... */\n      swap1\n      jump\t// out\n        /* \"contracts/230504/5_Struct.sol\":1180:1404  function pushStudent(string memory _name, bool _isMale, uint _number, uint _birth) public {... */\n    tag_33:\n        /* \"contracts/230504/5_Struct.sol\":1281:1289  students */\n      0x04\n        /* \"contracts/230504/5_Struct.sol\":1295:1335  Student(_name, _isMale, _number, _birth) */\n      mload(0x40)\n      dup1\n      0x80\n      add\n      0x40\n      mstore\n      dup1\n        /* \"contracts/230504/5_Struct.sol\":1303:1308  _name */\n      dup7\n        /* \"contracts/230504/5_Struct.sol\":1295:1335  Student(_name, _isMale, _number, _birth) */\n      dup2\n      mstore\n      0x20\n      add\n        /* \"contracts/230504/5_Struct.sol\":1310:1317  _isMale */\n      dup6\n        /* \"contracts/230504/5_Struct.sol\":1295:1335  Student(_name, _isMale, _number, _birth) */\n      iszero\n      iszero\n      dup2\n      mstore\n      0x20\n      add\n        /* \"contracts/230504/5_Struct.sol\":1319:1326  _number */\n      dup5\n        /* \"contracts/230504/5_Struct.sol\":1295:1335  Student(_name, _isMale, _number, _birth) */\n      dup2\n      mstore\n      0x20\n      add\n        /* \"contracts/230504/5_Struct.sol\":1328:1334  _birth */\n      dup4\n        /* \"contracts/230504/5_Struct.sol\":1295:1335  Student(_name, _isMale, _number, _birth) */\n      dup2\n      mstore\n      pop\n        /* \"contracts/230504/5_Struct.sol\":1281:1336  students.push(Student(_name, _isMale, _number, _birth)) */\n      swap1\n      dup1\n      0x01\n      dup2\n      sload\n      add\n      dup1\n      dup3\n      sstore\n      dup1\n      swap2\n      pop\n      pop\n      0x01\n      swap1\n      sub\n      swap1\n      0x00\n      mstore\n      keccak256(0x00, 0x20)\n      swap1\n      0x04\n      mul\n      add\n      0x00\n      swap1\n      swap2\n      swap1\n      swap2\n      swap1\n      swap2\n      pop\n      0x00\n      dup3\n      add\n      mload\n      dup2\n      0x00\n      add\n      swap1\n      dup2\n      tag_78\n      swap2\n      swap1\n      tag_79\n      jump\t// in\n    tag_78:\n      pop\n      0x20\n      dup3\n      add\n      mload\n      dup2\n      0x01\n      add\n      exp(0x0100, 0x00)\n      dup2\n      sload\n      dup2\n      0xff\n      mul\n      not\n      and\n      swap1\n      dup4\n      iszero\n      iszero\n      mul\n      or\n      swap1\n      sstore\n      pop\n      0x40\n      dup3\n      add\n      mload\n      dup2\n      0x02\n      add\n      sstore\n      0x60\n      dup3\n      add\n      mload\n      dup2\n      0x03\n      add\n      sstore\n      pop\n      pop\n        /* \"contracts/230504/5_Struct.sol\":1180:1404  function pushStudent(string memory _name, bool _isMale, uint _number, uint _birth) public {... */\n      pop\n      pop\n      pop\n      pop\n      jump\t// out\n        /* \"contracts/230504/5_Struct.sol\":813:1078  function setStudent(string memory _name, bool _isMale, uint _number, uint _birth) public {... */\n    tag_36:\n        /* \"contracts/230504/5_Struct.sol\":980:985  _name */\n      dup4\n        /* \"contracts/230504/5_Struct.sol\":971:972  s */\n      0x00\n        /* \"contracts/230504/5_Struct.sol\":971:977  s.name */\n      dup1\n      add\n        /* \"contracts/230504/5_Struct.sol\":971:985  s.name = _name */\n      swap1\n      dup2\n      tag_81\n      swap2\n      swap1\n      tag_79\n      jump\t// in\n    tag_81:\n      pop\n        /* \"contracts/230504/5_Struct.sol\":1007:1014  _isMale */\n      dup3\n        /* \"contracts/230504/5_Struct.sol\":996:997  s */\n      0x00\n        /* \"contracts/230504/5_Struct.sol\":996:1004  s.isMale */\n      0x01\n      add\n      0x00\n        /* \"contracts/230504/5_Struct.sol\":996:1014  s.isMale = _isMale */\n      0x0100\n      exp\n      dup2\n      sload\n      dup2\n      0xff\n      mul\n      not\n      and\n      swap1\n      dup4\n      iszero\n      iszero\n      mul\n      or\n      swap1\n      sstore\n      pop\n        /* \"contracts/230504/5_Struct.sol\":1036:1043  _number */\n      dup2\n        /* \"contracts/230504/5_Struct.sol\":1025:1026  s */\n      0x00\n        /* \"contracts/230504/5_Struct.sol\":1025:1033  s.number */\n      0x02\n      add\n        /* \"contracts/230504/5_Struct.sol\":1025:1043  s.number = _number */\n      dup2\n      swap1\n      sstore\n      pop\n        /* \"contracts/230504/5_Struct.sol\":1064:1070  _birth */\n      dup1\n        /* \"contracts/230504/5_Struct.sol\":1054:1055  s */\n      0x00\n        /* \"contracts/230504/5_Struct.sol\":1054:1061  s.birth */\n      0x03\n      add\n        /* \"contracts/230504/5_Struct.sol\":1054:1070  s.birth = _birth */\n      dup2\n      swap1\n      sstore\n      pop\n        /* \"contracts/230504/5_Struct.sol\":813:1078  function setStudent(string memory _name, bool _isMale, uint _number, uint _birth) public {... */\n      pop\n      pop\n      pop\n      pop\n      jump\t// out\n    tag_43:\n      pop\n      dup1\n      sload\n      tag_82\n      swap1\n      tag_54\n      jump\t// in\n    tag_82:\n      0x00\n      dup3\n      sstore\n      dup1\n      0x1f\n      lt\n      tag_84\n      jumpi\n      pop\n      jump(tag_83)\n    tag_84:\n      0x1f\n      add\n      0x20\n      swap1\n      div\n      swap1\n      0x00\n      mstore\n      keccak256(0x00, 0x20)\n      swap1\n      dup2\n      add\n      swap1\n      tag_85\n      swap2\n      swap1\n      tag_86\n      jump\t// in\n    tag_85:\n    tag_83:\n      pop\n      jump\t// out\n    tag_45:\n      mload(0x40)\n      dup1\n      0x80\n      add\n      0x40\n      mstore\n      dup1\n      0x60\n      dup2\n      mstore\n      0x20\n      add\n      iszero(iszero(0x00))\n      dup2\n      mstore\n      0x20\n      add\n      0x00\n      dup2\n      mstore\n      0x20\n      add\n      0x00\n      dup2\n      mstore\n      pop\n      swap1\n      jump\t// out\n    tag_86:\n    tag_87:\n      dup1\n      dup3\n      gt\n      iszero\n      tag_88\n      jumpi\n      0x00\n      dup2\n      0x00\n      swap1\n      sstore\n      pop\n      0x01\n      add\n      jump(tag_87)\n    tag_88:\n      pop\n      swap1\n      jump\t// out\n        /* \"#utility.yul\":7:82   */\n    tag_89:\n        /* \"#utility.yul\":40:46   */\n      0x00\n        /* \"#utility.yul\":73:75   */\n      0x40\n        /* \"#utility.yul\":67:76   */\n      mload\n        /* \"#utility.yul\":57:76   */\n      swap1\n      pop\n        /* \"#utility.yul\":7:82   */\n      swap1\n      jump\t// out\n        /* \"#utility.yul\":88:205   */\n    tag_90:\n        /* \"#utility.yul\":197:198   */\n      0x00\n        /* \"#utility.yul\":194:195   */\n      dup1\n        /* \"#utility.yul\":187:199   */\n      revert\n        /* \"#utility.yul\":211:328   */\n    tag_91:\n        /* \"#utility.yul\":320:321   */\n      0x00\n        /* \"#utility.yul\":317:318   */\n      dup1\n        /* \"#utility.yul\":310:322   */\n      revert\n        /* \"#utility.yul\":334:411   */\n    tag_92:\n        /* \"#utility.yul\":371:378   */\n      0x00\n        /* \"#utility.yul\":400:405   */\n      dup2\n        /* \"#utility.yul\":389:405   */\n      swap1\n      pop\n        /* \"#utility.yul\":334:411   */\n      swap2\n      swap1\n      pop\n      jump\t// out\n        /* \"#utility.yul\":417:539   */\n    tag_93:\n        /* \"#utility.yul\":490:514   */\n      tag_146\n        /* \"#utility.yul\":508:513   */\n      dup2\n        /* \"#utility.yul\":490:514   */\n      tag_92\n      jump\t// in\n    tag_146:\n        /* \"#utility.yul\":483:488   */\n      dup2\n        /* \"#utility.yul\":480:515   */\n      eq\n        /* \"#utility.yul\":470:533   */\n      tag_147\n      jumpi\n        /* \"#utility.yul\":529:530   */\n      0x00\n        /* \"#utility.yul\":526:527   */\n      dup1\n        /* \"#utility.yul\":519:531   */\n      revert\n        /* \"#utility.yul\":470:533   */\n    tag_147:\n        /* \"#utility.yul\":417:539   */\n      pop\n      jump\t// out\n        /* \"#utility.yul\":545:684   */\n    tag_94:\n        /* \"#utility.yul\":591:596   */\n      0x00\n        /* \"#utility.yul\":629:635   */\n      dup2\n        /* \"#utility.yul\":616:636   */\n      calldataload\n        /* \"#utility.yul\":607:636   */\n      swap1\n      pop\n        /* \"#utility.yul\":645:678   */\n      tag_149\n        /* \"#utility.yul\":672:677   */\n      dup2\n        /* \"#utility.yul\":645:678   */\n      tag_93\n      jump\t// in\n    tag_149:\n        /* \"#utility.yul\":545:684   */\n      swap3\n      swap2\n      pop\n      pop\n      jump\t// out\n        /* \"#utility.yul\":690:1019   */\n    tag_15:\n        /* \"#utility.yul\":749:755   */\n      0x00\n        /* \"#utility.yul\":798:800   */\n      0x20\n        /* \"#utility.yul\":786:795   */\n      dup3\n        /* \"#utility.yul\":777:784   */\n      dup5\n        /* \"#utility.yul\":773:796   */\n      sub\n        /* \"#utility.yul\":769:801   */\n      slt\n        /* \"#utility.yul\":766:885   */\n      iszero\n      tag_151\n      jumpi\n        /* \"#utility.yul\":804:883   */\n      tag_152\n      tag_90\n      jump\t// in\n    tag_152:\n        /* \"#utility.yul\":766:885   */\n    tag_151:\n        /* \"#utility.yul\":924:925   */\n      0x00\n        /* \"#utility.yul\":949:1002   */\n      tag_153\n        /* \"#utility.yul\":994:1001   */\n      dup5\n        /* \"#utility.yul\":985:991   */\n      dup3\n        /* \"#utility.yul\":974:983   */\n      dup6\n        /* \"#utility.yul\":970:992   */\n      add\n        /* \"#utility.yul\":949:1002   */\n      tag_94\n      jump\t// in\n    tag_153:\n        /* \"#utility.yul\":939:1002   */\n      swap2\n      pop\n        /* \"#utility.yul\":895:1012   */\n      pop\n        /* \"#utility.yul\":690:1019   */\n      swap3\n      swap2\n      pop\n      pop\n      jump\t// out\n        /* \"#utility.yul\":1025:1124   */\n    tag_95:\n        /* \"#utility.yul\":1077:1083   */\n      0x00\n        /* \"#utility.yul\":1111:1116   */\n      dup2\n        /* \"#utility.yul\":1105:1117   */\n      mload\n        /* \"#utility.yul\":1095:1117   */\n      swap1\n      pop\n        /* \"#utility.yul\":1025:1124   */\n      swap2\n      swap1\n      pop\n      jump\t// out\n        /* \"#utility.yul\":1130:1289   */\n    tag_96:\n        /* \"#utility.yul\":1204:1215   */\n      0x00\n        /* \"#utility.yul\":1238:1244   */\n      dup3\n        /* \"#utility.yul\":1233:1236   */\n      dup3\n        /* \"#utility.yul\":1226:1245   */\n      mstore\n        /* \"#utility.yul\":1278:1282   */\n      0x20\n        /* \"#utility.yul\":1273:1276   */\n      dup3\n        /* \"#utility.yul\":1269:1283   */\n      add\n        /* \"#utility.yul\":1254:1283   */\n      swap1\n      pop\n        /* \"#utility.yul\":1130:1289   */\n      swap3\n      swap2\n      pop\n      pop\n      jump\t// out\n        /* \"#utility.yul\":1295:1541   */\n    tag_97:\n        /* \"#utility.yul\":1376:1377   */\n      0x00\n        /* \"#utility.yul\":1386:1499   */\n    tag_157:\n        /* \"#utility.yul\":1400:1406   */\n      dup4\n        /* \"#utility.yul\":1397:1398   */\n      dup2\n        /* \"#utility.yul\":1394:1407   */\n      lt\n        /* \"#utility.yul\":1386:1499   */\n      iszero\n      tag_159\n      jumpi\n        /* \"#utility.yul\":1485:1486   */\n      dup1\n        /* \"#utility.yul\":1480:1483   */\n      dup3\n        /* \"#utility.yul\":1476:1487   */\n      add\n        /* \"#utility.yul\":1470:1488   */\n      mload\n        /* \"#utility.yul\":1466:1467   */\n      dup2\n        /* \"#utility.yul\":1461:1464   */\n      dup5\n        /* \"#utility.yul\":1457:1468   */\n      add\n        /* \"#utility.yul\":1450:1489   */\n      mstore\n        /* \"#utility.yul\":1422:1424   */\n      0x20\n        /* \"#utility.yul\":1419:1420   */\n      dup2\n        /* \"#utility.yul\":1415:1425   */\n      add\n        /* \"#utility.yul\":1410:1425   */\n      swap1\n      pop\n        /* \"#utility.yul\":1386:1499   */\n      jump(tag_157)\n    tag_159:\n        /* \"#utility.yul\":1533:1534   */\n      0x00\n        /* \"#utility.yul\":1524:1530   */\n      dup5\n        /* \"#utility.yul\":1519:1522   */\n      dup5\n        /* \"#utility.yul\":1515:1531   */\n      add\n        /* \"#utility.yul\":1508:1535   */\n      mstore\n        /* \"#utility.yul\":1357:1541   */\n      pop\n        /* \"#utility.yul\":1295:1541   */\n      pop\n      pop\n      pop\n      jump\t// out\n        /* \"#utility.yul\":1547:1649   */\n    tag_98:\n        /* \"#utility.yul\":1588:1594   */\n      0x00\n        /* \"#utility.yul\":1639:1641   */\n      0x1f\n        /* \"#utility.yul\":1635:1642   */\n      not\n        /* \"#utility.yul\":1630:1632   */\n      0x1f\n        /* \"#utility.yul\":1623:1628   */\n      dup4\n        /* \"#utility.yul\":1619:1633   */\n      add\n        /* \"#utility.yul\":1615:1643   */\n      and\n        /* \"#utility.yul\":1605:1643   */\n      swap1\n      pop\n        /* \"#utility.yul\":1547:1649   */\n      swap2\n      swap1\n      pop\n      jump\t// out\n        /* \"#utility.yul\":1655:2012   */\n    tag_99:\n        /* \"#utility.yul\":1733:1736   */\n      0x00\n        /* \"#utility.yul\":1761:1800   */\n      tag_162\n        /* \"#utility.yul\":1794:1799   */\n      dup3\n        /* \"#utility.yul\":1761:1800   */\n      tag_95\n      jump\t// in\n    tag_162:\n        /* \"#utility.yul\":1816:1877   */\n      tag_163\n        /* \"#utility.yul\":1870:1876   */\n      dup2\n        /* \"#utility.yul\":1865:1868   */\n      dup6\n        /* \"#utility.yul\":1816:1877   */\n      tag_96\n      jump\t// in\n    tag_163:\n        /* \"#utility.yul\":1809:1877   */\n      swap4\n      pop\n        /* \"#utility.yul\":1886:1951   */\n      tag_164\n        /* \"#utility.yul\":1944:1950   */\n      dup2\n        /* \"#utility.yul\":1939:1942   */\n      dup6\n        /* \"#utility.yul\":1932:1936   */\n      0x20\n        /* \"#utility.yul\":1925:1930   */\n      dup7\n        /* \"#utility.yul\":1921:1937   */\n      add\n        /* \"#utility.yul\":1886:1951   */\n      tag_97\n      jump\t// in\n    tag_164:\n        /* \"#utility.yul\":1976:2005   */\n      tag_165\n        /* \"#utility.yul\":1998:2004   */\n      dup2\n        /* \"#utility.yul\":1976:2005   */\n      tag_98\n      jump\t// in\n    tag_165:\n        /* \"#utility.yul\":1971:1974   */\n      dup5\n        /* \"#utility.yul\":1967:2006   */\n      add\n        /* \"#utility.yul\":1960:2006   */\n      swap2\n      pop\n        /* \"#utility.yul\":1737:2012   */\n      pop\n        /* \"#utility.yul\":1655:2012   */\n      swap3\n      swap2\n      pop\n      pop\n      jump\t// out\n        /* \"#utility.yul\":2018:2108   */\n    tag_100:\n        /* \"#utility.yul\":2052:2059   */\n      0x00\n        /* \"#utility.yul\":2095:2100   */\n      dup2\n        /* \"#utility.yul\":2088:2101   */\n      iszero\n        /* \"#utility.yul\":2081:2102   */\n      iszero\n        /* \"#utility.yul\":2070:2102   */\n      swap1\n      pop\n        /* \"#utility.yul\":2018:2108   */\n      swap2\n      swap1\n      pop\n      jump\t// out\n        /* \"#utility.yul\":2114:2213   */\n    tag_101:\n        /* \"#utility.yul\":2185:2206   */\n      tag_168\n        /* \"#utility.yul\":2200:2205   */\n      dup2\n        /* \"#utility.yul\":2185:2206   */\n      tag_100\n      jump\t// in\n    tag_168:\n        /* \"#utility.yul\":2180:2183   */\n      dup3\n        /* \"#utility.yul\":2173:2207   */\n      mstore\n        /* \"#utility.yul\":2114:2213   */\n      pop\n      pop\n      jump\t// out\n        /* \"#utility.yul\":2219:2327   */\n    tag_102:\n        /* \"#utility.yul\":2296:2320   */\n      tag_170\n        /* \"#utility.yul\":2314:2319   */\n      dup2\n        /* \"#utility.yul\":2296:2320   */\n      tag_92\n      jump\t// in\n    tag_170:\n        /* \"#utility.yul\":2291:2294   */\n      dup3\n        /* \"#utility.yul\":2284:2321   */\n      mstore\n        /* \"#utility.yul\":2219:2327   */\n      pop\n      pop\n      jump\t// out\n        /* \"#utility.yul\":2383:3332   */\n    tag_103:\n        /* \"#utility.yul\":2498:2501   */\n      0x00\n        /* \"#utility.yul\":2534:2538   */\n      0x80\n        /* \"#utility.yul\":2529:2532   */\n      dup4\n        /* \"#utility.yul\":2525:2539   */\n      add\n        /* \"#utility.yul\":2621:2625   */\n      0x00\n        /* \"#utility.yul\":2614:2619   */\n      dup4\n        /* \"#utility.yul\":2610:2626   */\n      add\n        /* \"#utility.yul\":2604:2627   */\n      mload\n        /* \"#utility.yul\":2674:2677   */\n      dup5\n        /* \"#utility.yul\":2668:2672   */\n      dup3\n        /* \"#utility.yul\":2664:2678   */\n      sub\n        /* \"#utility.yul\":2657:2661   */\n      0x00\n        /* \"#utility.yul\":2652:2655   */\n      dup7\n        /* \"#utility.yul\":2648:2662   */\n      add\n        /* \"#utility.yul\":2641:2679   */\n      mstore\n        /* \"#utility.yul\":2700:2773   */\n      tag_172\n        /* \"#utility.yul\":2768:2772   */\n      dup3\n        /* \"#utility.yul\":2754:2766   */\n      dup3\n        /* \"#utility.yul\":2700:2773   */\n      tag_99\n      jump\t// in\n    tag_172:\n        /* \"#utility.yul\":2692:2773   */\n      swap2\n      pop\n        /* \"#utility.yul\":2549:2784   */\n      pop\n        /* \"#utility.yul\":2868:2872   */\n      0x20\n        /* \"#utility.yul\":2861:2866   */\n      dup4\n        /* \"#utility.yul\":2857:2873   */\n      add\n        /* \"#utility.yul\":2851:2874   */\n      mload\n        /* \"#utility.yul\":2887:2944   */\n      tag_173\n        /* \"#utility.yul\":2938:2942   */\n      0x20\n        /* \"#utility.yul\":2933:2936   */\n      dup7\n        /* \"#utility.yul\":2929:2943   */\n      add\n        /* \"#utility.yul\":2915:2927   */\n      dup3\n        /* \"#utility.yul\":2887:2944   */\n      tag_101\n      jump\t// in\n    tag_173:\n        /* \"#utility.yul\":2794:2954   */\n      pop\n        /* \"#utility.yul\":3038:3042   */\n      0x40\n        /* \"#utility.yul\":3031:3036   */\n      dup4\n        /* \"#utility.yul\":3027:3043   */\n      add\n        /* \"#utility.yul\":3021:3044   */\n      mload\n        /* \"#utility.yul\":3057:3120   */\n      tag_174\n        /* \"#utility.yul\":3114:3118   */\n      0x40\n        /* \"#utility.yul\":3109:3112   */\n      dup7\n        /* \"#utility.yul\":3105:3119   */\n      add\n        /* \"#utility.yul\":3091:3103   */\n      dup3\n        /* \"#utility.yul\":3057:3120   */\n      tag_102\n      jump\t// in\n    tag_174:\n        /* \"#utility.yul\":2964:3130   */\n      pop\n        /* \"#utility.yul\":3213:3217   */\n      0x60\n        /* \"#utility.yul\":3206:3211   */\n      dup4\n        /* \"#utility.yul\":3202:3218   */\n      add\n        /* \"#utility.yul\":3196:3219   */\n      mload\n        /* \"#utility.yul\":3232:3295   */\n      tag_175\n        /* \"#utility.yul\":3289:3293   */\n      0x60\n        /* \"#utility.yul\":3284:3287   */\n      dup7\n        /* \"#utility.yul\":3280:3294   */\n      add\n        /* \"#utility.yul\":3266:3278   */\n      dup3\n        /* \"#utility.yul\":3232:3295   */\n      tag_102\n      jump\t// in\n    tag_175:\n        /* \"#utility.yul\":3140:3305   */\n      pop\n        /* \"#utility.yul\":3322:3326   */\n      dup1\n        /* \"#utility.yul\":3315:3326   */\n      swap2\n      pop\n        /* \"#utility.yul\":2503:3332   */\n      pop\n        /* \"#utility.yul\":2383:3332   */\n      swap3\n      swap2\n      pop\n      pop\n      jump\t// out\n        /* \"#utility.yul\":3338:3703   */\n    tag_18:\n        /* \"#utility.yul\":3477:3481   */\n      0x00\n        /* \"#utility.yul\":3515:3517   */\n      0x20\n        /* \"#utility.yul\":3504:3513   */\n      dup3\n        /* \"#utility.yul\":3500:3518   */\n      add\n        /* \"#utility.yul\":3492:3518   */\n      swap1\n      pop\n        /* \"#utility.yul\":3564:3573   */\n      dup2\n        /* \"#utility.yul\":3558:3562   */\n      dup2\n        /* \"#utility.yul\":3554:3574   */\n      sub\n        /* \"#utility.yul\":3550:3551   */\n      0x00\n        /* \"#utility.yul\":3539:3548   */\n      dup4\n        /* \"#utility.yul\":3535:3552   */\n      add\n        /* \"#utility.yul\":3528:3575   */\n      mstore\n        /* \"#utility.yul\":3592:3696   */\n      tag_177\n        /* \"#utility.yul\":3691:3695   */\n      dup2\n        /* \"#utility.yul\":3682:3688   */\n      dup5\n        /* \"#utility.yul\":3592:3696   */\n      tag_103\n      jump\t// in\n    tag_177:\n        /* \"#utility.yul\":3584:3696   */\n      swap1\n      pop\n        /* \"#utility.yul\":3338:3703   */\n      swap3\n      swap2\n      pop\n      pop\n      jump\t// out\n        /* \"#utility.yul\":3709:3827   */\n    tag_104:\n        /* \"#utility.yul\":3796:3820   */\n      tag_179\n        /* \"#utility.yul\":3814:3819   */\n      dup2\n        /* \"#utility.yul\":3796:3820   */\n      tag_92\n      jump\t// in\n    tag_179:\n        /* \"#utility.yul\":3791:3794   */\n      dup3\n        /* \"#utility.yul\":3784:3821   */\n      mstore\n        /* \"#utility.yul\":3709:3827   */\n      pop\n      pop\n      jump\t// out\n        /* \"#utility.yul\":3833:4055   */\n    tag_25:\n        /* \"#utility.yul\":3926:3930   */\n      0x00\n        /* \"#utility.yul\":3964:3966   */\n      0x20\n        /* \"#utility.yul\":3953:3962   */\n      dup3\n        /* \"#utility.yul\":3949:3967   */\n      add\n        /* \"#utility.yul\":3941:3967   */\n      swap1\n      pop\n        /* \"#utility.yul\":3977:4048   */\n      tag_181\n        /* \"#utility.yul\":4045:4046   */\n      0x00\n        /* \"#utility.yul\":4034:4043   */\n      dup4\n        /* \"#utility.yul\":4030:4047   */\n      add\n        /* \"#utility.yul\":4021:4027   */\n      dup5\n        /* \"#utility.yul\":3977:4048   */\n      tag_104\n      jump\t// in\n    tag_181:\n        /* \"#utility.yul\":3833:4055   */\n      swap3\n      swap2\n      pop\n      pop\n      jump\t// out\n        /* \"#utility.yul\":4061:4198   */\n    tag_105:\n        /* \"#utility.yul\":4151:4157   */\n      0x00\n        /* \"#utility.yul\":4185:4190   */\n      dup2\n        /* \"#utility.yul\":4179:4191   */\n      mload\n        /* \"#utility.yul\":4169:4191   */\n      swap1\n      pop\n        /* \"#utility.yul\":4061:4198   */\n      swap2\n      swap1\n      pop\n      jump\t// out\n        /* \"#utility.yul\":4204:4411   */\n    tag_106:\n        /* \"#utility.yul\":4326:4337   */\n      0x00\n        /* \"#utility.yul\":4360:4366   */\n      dup3\n        /* \"#utility.yul\":4355:4358   */\n      dup3\n        /* \"#utility.yul\":4348:4367   */\n      mstore\n        /* \"#utility.yul\":4400:4404   */\n      0x20\n        /* \"#utility.yul\":4395:4398   */\n      dup3\n        /* \"#utility.yul\":4391:4405   */\n      add\n        /* \"#utility.yul\":4376:4405   */\n      swap1\n      pop\n        /* \"#utility.yul\":4204:4411   */\n      swap3\n      swap2\n      pop\n      pop\n      jump\t// out\n        /* \"#utility.yul\":4417:4572   */\n    tag_107:\n        /* \"#utility.yul\":4507:4511   */\n      0x00\n        /* \"#utility.yul\":4530:4533   */\n      dup2\n        /* \"#utility.yul\":4522:4533   */\n      swap1\n      pop\n        /* \"#utility.yul\":4560:4564   */\n      0x20\n        /* \"#utility.yul\":4555:4558   */\n      dup3\n        /* \"#utility.yul\":4551:4565   */\n      add\n        /* \"#utility.yul\":4543:4565   */\n      swap1\n      pop\n        /* \"#utility.yul\":4417:4572   */\n      swap2\n      swap1\n      pop\n      jump\t// out\n        /* \"#utility.yul\":4628:5567   */\n    tag_108:\n        /* \"#utility.yul\":4733:4736   */\n      0x00\n        /* \"#utility.yul\":4769:4773   */\n      0x80\n        /* \"#utility.yul\":4764:4767   */\n      dup4\n        /* \"#utility.yul\":4760:4774   */\n      add\n        /* \"#utility.yul\":4856:4860   */\n      0x00\n        /* \"#utility.yul\":4849:4854   */\n      dup4\n        /* \"#utility.yul\":4845:4861   */\n      add\n        /* \"#utility.yul\":4839:4862   */\n      mload\n        /* \"#utility.yul\":4909:4912   */\n      dup5\n        /* \"#utility.yul\":4903:4907   */\n      dup3\n        /* \"#utility.yul\":4899:4913   */\n      sub\n        /* \"#utility.yul\":4892:4896   */\n      0x00\n        /* \"#utility.yul\":4887:4890   */\n      dup7\n        /* \"#utility.yul\":4883:4897   */\n      add\n        /* \"#utility.yul\":4876:4914   */\n      mstore\n        /* \"#utility.yul\":4935:5008   */\n      tag_186\n        /* \"#utility.yul\":5003:5007   */\n      dup3\n        /* \"#utility.yul\":4989:5001   */\n      dup3\n        /* \"#utility.yul\":4935:5008   */\n      tag_99\n      jump\t// in\n    tag_186:\n        /* \"#utility.yul\":4927:5008   */\n      swap2\n      pop\n        /* \"#utility.yul\":4784:5019   */\n      pop\n        /* \"#utility.yul\":5103:5107   */\n      0x20\n        /* \"#utility.yul\":5096:5101   */\n      dup4\n        /* \"#utility.yul\":5092:5108   */\n      add\n        /* \"#utility.yul\":5086:5109   */\n      mload\n        /* \"#utility.yul\":5122:5179   */\n      tag_187\n        /* \"#utility.yul\":5173:5177   */\n      0x20\n        /* \"#utility.yul\":5168:5171   */\n      dup7\n        /* \"#utility.yul\":5164:5178   */\n      add\n        /* \"#utility.yul\":5150:5162   */\n      dup3\n        /* \"#utility.yul\":5122:5179   */\n      tag_101\n      jump\t// in\n    tag_187:\n        /* \"#utility.yul\":5029:5189   */\n      pop\n        /* \"#utility.yul\":5273:5277   */\n      0x40\n        /* \"#utility.yul\":5266:5271   */\n      dup4\n        /* \"#utility.yul\":5262:5278   */\n      add\n        /* \"#utility.yul\":5256:5279   */\n      mload\n        /* \"#utility.yul\":5292:5355   */\n      tag_188\n        /* \"#utility.yul\":5349:5353   */\n      0x40\n        /* \"#utility.yul\":5344:5347   */\n      dup7\n        /* \"#utility.yul\":5340:5354   */\n      add\n        /* \"#utility.yul\":5326:5338   */\n      dup3\n        /* \"#utility.yul\":5292:5355   */\n      tag_102\n      jump\t// in\n    tag_188:\n        /* \"#utility.yul\":5199:5365   */\n      pop\n        /* \"#utility.yul\":5448:5452   */\n      0x60\n        /* \"#utility.yul\":5441:5446   */\n      dup4\n        /* \"#utility.yul\":5437:5453   */\n      add\n        /* \"#utility.yul\":5431:5454   */\n      mload\n        /* \"#utility.yul\":5467:5530   */\n      tag_189\n        /* \"#utility.yul\":5524:5528   */\n      0x60\n        /* \"#utility.yul\":5519:5522   */\n      dup7\n        /* \"#utility.yul\":5515:5529   */\n      add\n        /* \"#utility.yul\":5501:5513   */\n      dup3\n        /* \"#utility.yul\":5467:5530   */\n      tag_102\n      jump\t// in\n    tag_189:\n        /* \"#utility.yul\":5375:5540   */\n      pop\n        /* \"#utility.yul\":5557:5561   */\n      dup1\n        /* \"#utility.yul\":5550:5561   */\n      swap2\n      pop\n        /* \"#utility.yul\":4738:5567   */\n      pop\n        /* \"#utility.yul\":4628:5567   */\n      swap3\n      swap2\n      pop\n      pop\n      jump\t// out\n        /* \"#utility.yul\":5573:5821   */\n    tag_109:\n        /* \"#utility.yul\":5688:5698   */\n      0x00\n        /* \"#utility.yul\":5723:5815   */\n      tag_191\n        /* \"#utility.yul\":5811:5814   */\n      dup4\n        /* \"#utility.yul\":5803:5809   */\n      dup4\n        /* \"#utility.yul\":5723:5815   */\n      tag_108\n      jump\t// in\n    tag_191:\n        /* \"#utility.yul\":5709:5815   */\n      swap1\n      pop\n        /* \"#utility.yul\":5573:5821   */\n      swap3\n      swap2\n      pop\n      pop\n      jump\t// out\n        /* \"#utility.yul\":5827:5963   */\n    tag_110:\n        /* \"#utility.yul\":5920:5924   */\n      0x00\n        /* \"#utility.yul\":5952:5956   */\n      0x20\n        /* \"#utility.yul\":5947:5950   */\n      dup3\n        /* \"#utility.yul\":5943:5957   */\n      add\n        /* \"#utility.yul\":5935:5957   */\n      swap1\n      pop\n        /* \"#utility.yul\":5827:5963   */\n      swap2\n      swap1\n      pop\n      jump\t// out\n        /* \"#utility.yul\":6023:7118   */\n    tag_111:\n        /* \"#utility.yul\":6188:6191   */\n      0x00\n        /* \"#utility.yul\":6217:6294   */\n      tag_194\n        /* \"#utility.yul\":6288:6293   */\n      dup3\n        /* \"#utility.yul\":6217:6294   */\n      tag_105\n      jump\t// in\n    tag_194:\n        /* \"#utility.yul\":6310:6419   */\n      tag_195\n        /* \"#utility.yul\":6412:6418   */\n      dup2\n        /* \"#utility.yul\":6407:6410   */\n      dup6\n        /* \"#utility.yul\":6310:6419   */\n      tag_106\n      jump\t// in\n    tag_195:\n        /* \"#utility.yul\":6303:6419   */\n      swap4\n      pop\n        /* \"#utility.yul\":6445:6448   */\n      dup4\n        /* \"#utility.yul\":6490:6494   */\n      0x20\n        /* \"#utility.yul\":6482:6488   */\n      dup3\n        /* \"#utility.yul\":6478:6495   */\n      mul\n        /* \"#utility.yul\":6473:6476   */\n      dup6\n        /* \"#utility.yul\":6469:6496   */\n      add\n        /* \"#utility.yul\":6520:6599   */\n      tag_196\n        /* \"#utility.yul\":6593:6598   */\n      dup6\n        /* \"#utility.yul\":6520:6599   */\n      tag_107\n      jump\t// in\n    tag_196:\n        /* \"#utility.yul\":6622:6629   */\n      dup1\n        /* \"#utility.yul\":6653:6654   */\n      0x00\n        /* \"#utility.yul\":6638:7073   */\n    tag_197:\n        /* \"#utility.yul\":6663:6669   */\n      dup6\n        /* \"#utility.yul\":6660:6661   */\n      dup2\n        /* \"#utility.yul\":6657:6670   */\n      lt\n        /* \"#utility.yul\":6638:7073   */\n      iszero\n      tag_199\n      jumpi\n        /* \"#utility.yul\":6734:6743   */\n      dup5\n        /* \"#utility.yul\":6728:6732   */\n      dup5\n        /* \"#utility.yul\":6724:6744   */\n      sub\n        /* \"#utility.yul\":6719:6722   */\n      dup10\n        /* \"#utility.yul\":6712:6745   */\n      mstore\n        /* \"#utility.yul\":6785:6791   */\n      dup2\n        /* \"#utility.yul\":6779:6792   */\n      mload\n        /* \"#utility.yul\":6813:6923   */\n      tag_200\n        /* \"#utility.yul\":6918:6922   */\n      dup6\n        /* \"#utility.yul\":6903:6916   */\n      dup3\n        /* \"#utility.yul\":6813:6923   */\n      tag_109\n      jump\t// in\n    tag_200:\n        /* \"#utility.yul\":6805:6923   */\n      swap5\n      pop\n        /* \"#utility.yul\":6946:7029   */\n      tag_201\n        /* \"#utility.yul\":7022:7028   */\n      dup4\n        /* \"#utility.yul\":6946:7029   */\n      tag_110\n      jump\t// in\n    tag_201:\n        /* \"#utility.yul\":6936:7029   */\n      swap3\n      pop\n        /* \"#utility.yul\":7058:7062   */\n      0x20\n        /* \"#utility.yul\":7053:7056   */\n      dup11\n        /* \"#utility.yul\":7049:7063   */\n      add\n        /* \"#utility.yul\":7042:7063   */\n      swap10\n      pop\n        /* \"#utility.yul\":6698:7073   */\n      pop\n        /* \"#utility.yul\":6685:6686   */\n      0x01\n        /* \"#utility.yul\":6682:6683   */\n      dup2\n        /* \"#utility.yul\":6678:6687   */\n      add\n        /* \"#utility.yul\":6673:6687   */\n      swap1\n      pop\n        /* \"#utility.yul\":6638:7073   */\n      jump(tag_197)\n    tag_199:\n        /* \"#utility.yul\":6642:6656   */\n      pop\n        /* \"#utility.yul\":7089:7093   */\n      dup3\n        /* \"#utility.yul\":7082:7093   */\n      swap8\n      pop\n        /* \"#utility.yul\":7109:7112   */\n      dup8\n        /* \"#utility.yul\":7102:7112   */\n      swap6\n      pop\n        /* \"#utility.yul\":6193:7118   */\n      pop\n      pop\n      pop\n      pop\n      pop\n        /* \"#utility.yul\":6023:7118   */\n      swap3\n      swap2\n      pop\n      pop\n      jump\t// out\n        /* \"#utility.yul\":7124:7589   */\n    tag_29:\n        /* \"#utility.yul\":7313:7317   */\n      0x00\n        /* \"#utility.yul\":7351:7353   */\n      0x20\n        /* \"#utility.yul\":7340:7349   */\n      dup3\n        /* \"#utility.yul\":7336:7354   */\n      add\n        /* \"#utility.yul\":7328:7354   */\n      swap1\n      pop\n        /* \"#utility.yul\":7400:7409   */\n      dup2\n        /* \"#utility.yul\":7394:7398   */\n      dup2\n        /* \"#utility.yul\":7390:7410   */\n      sub\n        /* \"#utility.yul\":7386:7387   */\n      0x00\n        /* \"#utility.yul\":7375:7384   */\n      dup4\n        /* \"#utility.yul\":7371:7388   */\n      add\n        /* \"#utility.yul\":7364:7411   */\n      mstore\n        /* \"#utility.yul\":7428:7582   */\n      tag_203\n        /* \"#utility.yul\":7577:7581   */\n      dup2\n        /* \"#utility.yul\":7568:7574   */\n      dup5\n        /* \"#utility.yul\":7428:7582   */\n      tag_111\n      jump\t// in\n    tag_203:\n        /* \"#utility.yul\":7420:7582   */\n      swap1\n      pop\n        /* \"#utility.yul\":7124:7589   */\n      swap3\n      swap2\n      pop\n      pop\n      jump\t// out\n        /* \"#utility.yul\":7595:7712   */\n    tag_112:\n        /* \"#utility.yul\":7704:7705   */\n      0x00\n        /* \"#utility.yul\":7701:7702   */\n      dup1\n        /* \"#utility.yul\":7694:7706   */\n      revert\n        /* \"#utility.yul\":7718:7835   */\n    tag_113:\n        /* \"#utility.yul\":7827:7828   */\n      0x00\n        /* \"#utility.yul\":7824:7825   */\n      dup1\n        /* \"#utility.yul\":7817:7829   */\n      revert\n        /* \"#utility.yul\":7841:8021   */\n    tag_114:\n        /* \"#utility.yul\":7889:7966   */\n      0x4e487b7100000000000000000000000000000000000000000000000000000000\n        /* \"#utility.yul\":7886:7887   */\n      0x00\n        /* \"#utility.yul\":7879:7967   */\n      mstore\n        /* \"#utility.yul\":7986:7990   */\n      0x41\n        /* \"#utility.yul\":7983:7984   */\n      0x04\n        /* \"#utility.yul\":7976:7991   */\n      mstore\n        /* \"#utility.yul\":8010:8014   */\n      0x24\n        /* \"#utility.yul\":8007:8008   */\n      0x00\n        /* \"#utility.yul\":8000:8015   */\n      revert\n        /* \"#utility.yul\":8027:8308   */\n    tag_115:\n        /* \"#utility.yul\":8110:8137   */\n      tag_208\n        /* \"#utility.yul\":8132:8136   */\n      dup3\n        /* \"#utility.yul\":8110:8137   */\n      tag_98\n      jump\t// in\n    tag_208:\n        /* \"#utility.yul\":8102:8108   */\n      dup2\n        /* \"#utility.yul\":8098:8138   */\n      add\n        /* \"#utility.yul\":8240:8246   */\n      dup2\n        /* \"#utility.yul\":8228:8238   */\n      dup2\n        /* \"#utility.yul\":8225:8247   */\n      lt\n        /* \"#utility.yul\":8204:8222   */\n      0xffffffffffffffff\n        /* \"#utility.yul\":8192:8202   */\n      dup3\n        /* \"#utility.yul\":8189:8223   */\n      gt\n        /* \"#utility.yul\":8186:8248   */\n      or\n        /* \"#utility.yul\":8183:8271   */\n      iszero\n      tag_209\n      jumpi\n        /* \"#utility.yul\":8251:8269   */\n      tag_210\n      tag_114\n      jump\t// in\n    tag_210:\n        /* \"#utility.yul\":8183:8271   */\n    tag_209:\n        /* \"#utility.yul\":8291:8301   */\n      dup1\n        /* \"#utility.yul\":8287:8289   */\n      0x40\n        /* \"#utility.yul\":8280:8302   */\n      mstore\n        /* \"#utility.yul\":8070:8308   */\n      pop\n        /* \"#utility.yul\":8027:8308   */\n      pop\n      pop\n      jump\t// out\n        /* \"#utility.yul\":8314:8443   */\n    tag_116:\n        /* \"#utility.yul\":8348:8354   */\n      0x00\n        /* \"#utility.yul\":8375:8395   */\n      tag_212\n      tag_89\n      jump\t// in\n    tag_212:\n        /* \"#utility.yul\":8365:8395   */\n      swap1\n      pop\n        /* \"#utility.yul\":8404:8437   */\n      tag_213\n        /* \"#utility.yul\":8432:8436   */\n      dup3\n        /* \"#utility.yul\":8424:8430   */\n      dup3\n        /* \"#utility.yul\":8404:8437   */\n      tag_115\n      jump\t// in\n    tag_213:\n        /* \"#utility.yul\":8314:8443   */\n      swap2\n      swap1\n      pop\n      jump\t// out\n        /* \"#utility.yul\":8449:8757   */\n    tag_117:\n        /* \"#utility.yul\":8511:8515   */\n      0x00\n        /* \"#utility.yul\":8601:8619   */\n      0xffffffffffffffff\n        /* \"#utility.yul\":8593:8599   */\n      dup3\n        /* \"#utility.yul\":8590:8620   */\n      gt\n        /* \"#utility.yul\":8587:8643   */\n      iszero\n      tag_215\n      jumpi\n        /* \"#utility.yul\":8623:8641   */\n      tag_216\n      tag_114\n      jump\t// in\n    tag_216:\n        /* \"#utility.yul\":8587:8643   */\n    tag_215:\n        /* \"#utility.yul\":8661:8690   */\n      tag_217\n        /* \"#utility.yul\":8683:8689   */\n      dup3\n        /* \"#utility.yul\":8661:8690   */\n      tag_98\n      jump\t// in\n    tag_217:\n        /* \"#utility.yul\":8653:8690   */\n      swap1\n      pop\n        /* \"#utility.yul\":8745:8749   */\n      0x20\n        /* \"#utility.yul\":8739:8743   */\n      dup2\n        /* \"#utility.yul\":8735:8750   */\n      add\n        /* \"#utility.yul\":8727:8750   */\n      swap1\n      pop\n        /* \"#utility.yul\":8449:8757   */\n      swap2\n      swap1\n      pop\n      jump\t// out\n        /* \"#utility.yul\":8763:8909   */\n    tag_118:\n        /* \"#utility.yul\":8860:8866   */\n      dup3\n        /* \"#utility.yul\":8855:8858   */\n      dup2\n        /* \"#utility.yul\":8850:8853   */\n      dup4\n        /* \"#utility.yul\":8837:8867   */\n      calldatacopy\n        /* \"#utility.yul\":8901:8902   */\n      0x00\n        /* \"#utility.yul\":8892:8898   */\n      dup4\n        /* \"#utility.yul\":8887:8890   */\n      dup4\n        /* \"#utility.yul\":8883:8899   */\n      add\n        /* \"#utility.yul\":8876:8903   */\n      mstore\n        /* \"#utility.yul\":8763:8909   */\n      pop\n      pop\n      pop\n      jump\t// out\n        /* \"#utility.yul\":8915:9340   */\n    tag_119:\n        /* \"#utility.yul\":8993:8998   */\n      0x00\n        /* \"#utility.yul\":9018:9084   */\n      tag_220\n        /* \"#utility.yul\":9034:9083   */\n      tag_221\n        /* \"#utility.yul\":9076:9082   */\n      dup5\n        /* \"#utility.yul\":9034:9083   */\n      tag_117\n      jump\t// in\n    tag_221:\n        /* \"#utility.yul\":9018:9084   */\n      tag_116\n      jump\t// in\n    tag_220:\n        /* \"#utility.yul\":9009:9084   */\n      swap1\n      pop\n        /* \"#utility.yul\":9107:9113   */\n      dup3\n        /* \"#utility.yul\":9100:9105   */\n      dup2\n        /* \"#utility.yul\":9093:9114   */\n      mstore\n        /* \"#utility.yul\":9145:9149   */\n      0x20\n        /* \"#utility.yul\":9138:9143   */\n      dup2\n        /* \"#utility.yul\":9134:9150   */\n      add\n        /* \"#utility.yul\":9183:9186   */\n      dup5\n        /* \"#utility.yul\":9174:9180   */\n      dup5\n        /* \"#utility.yul\":9169:9172   */\n      dup5\n        /* \"#utility.yul\":9165:9181   */\n      add\n        /* \"#utility.yul\":9162:9187   */\n      gt\n        /* \"#utility.yul\":9159:9271   */\n      iszero\n      tag_222\n      jumpi\n        /* \"#utility.yul\":9190:9269   */\n      tag_223\n      tag_113\n      jump\t// in\n    tag_223:\n        /* \"#utility.yul\":9159:9271   */\n    tag_222:\n        /* \"#utility.yul\":9280:9334   */\n      tag_224\n        /* \"#utility.yul\":9327:9333   */\n      dup5\n        /* \"#utility.yul\":9322:9325   */\n      dup3\n        /* \"#utility.yul\":9317:9320   */\n      dup6\n        /* \"#utility.yul\":9280:9334   */\n      tag_118\n      jump\t// in\n    tag_224:\n        /* \"#utility.yul\":8999:9340   */\n      pop\n        /* \"#utility.yul\":8915:9340   */\n      swap4\n      swap3\n      pop\n      pop\n      pop\n      jump\t// out\n        /* \"#utility.yul\":9360:9700   */\n    tag_120:\n        /* \"#utility.yul\":9416:9421   */\n      0x00\n        /* \"#utility.yul\":9465:9468   */\n      dup3\n        /* \"#utility.yul\":9458:9462   */\n      0x1f\n        /* \"#utility.yul\":9450:9456   */\n      dup4\n        /* \"#utility.yul\":9446:9463   */\n      add\n        /* \"#utility.yul\":9442:9469   */\n      slt\n        /* \"#utility.yul\":9432:9554   */\n      tag_226\n      jumpi\n        /* \"#utility.yul\":9473:9552   */\n      tag_227\n      tag_112\n      jump\t// in\n    tag_227:\n        /* \"#utility.yul\":9432:9554   */\n    tag_226:\n        /* \"#utility.yul\":9590:9596   */\n      dup2\n        /* \"#utility.yul\":9577:9597   */\n      calldataload\n        /* \"#utility.yul\":9615:9694   */\n      tag_228\n        /* \"#utility.yul\":9690:9693   */\n      dup5\n        /* \"#utility.yul\":9682:9688   */\n      dup3\n        /* \"#utility.yul\":9675:9679   */\n      0x20\n        /* \"#utility.yul\":9667:9673   */\n      dup7\n        /* \"#utility.yul\":9663:9680   */\n      add\n        /* \"#utility.yul\":9615:9694   */\n      tag_119\n      jump\t// in\n    tag_228:\n        /* \"#utility.yul\":9606:9694   */\n      swap2\n      pop\n        /* \"#utility.yul\":9422:9700   */\n      pop\n        /* \"#utility.yul\":9360:9700   */\n      swap3\n      swap2\n      pop\n      pop\n      jump\t// out\n        /* \"#utility.yul\":9706:9822   */\n    tag_121:\n        /* \"#utility.yul\":9776:9797   */\n      tag_230\n        /* \"#utility.yul\":9791:9796   */\n      dup2\n        /* \"#utility.yul\":9776:9797   */\n      tag_100\n      jump\t// in\n    tag_230:\n        /* \"#utility.yul\":9769:9774   */\n      dup2\n        /* \"#utility.yul\":9766:9798   */\n      eq\n        /* \"#utility.yul\":9756:9816   */\n      tag_231\n      jumpi\n        /* \"#utility.yul\":9812:9813   */\n      0x00\n        /* \"#utility.yul\":9809:9810   */\n      dup1\n        /* \"#utility.yul\":9802:9814   */\n      revert\n        /* \"#utility.yul\":9756:9816   */\n    tag_231:\n        /* \"#utility.yul\":9706:9822   */\n      pop\n      jump\t// out\n        /* \"#utility.yul\":9828:9961   */\n    tag_122:\n        /* \"#utility.yul\":9871:9876   */\n      0x00\n        /* \"#utility.yul\":9909:9915   */\n      dup2\n        /* \"#utility.yul\":9896:9916   */\n      calldataload\n        /* \"#utility.yul\":9887:9916   */\n      swap1\n      pop\n        /* \"#utility.yul\":9925:9955   */\n      tag_233\n        /* \"#utility.yul\":9949:9954   */\n      dup2\n        /* \"#utility.yul\":9925:9955   */\n      tag_121\n      jump\t// in\n    tag_233:\n        /* \"#utility.yul\":9828:9961   */\n      swap3\n      swap2\n      pop\n      pop\n      jump\t// out\n        /* \"#utility.yul\":9967:10906   */\n    tag_32:\n        /* \"#utility.yul\":10060:10066   */\n      0x00\n        /* \"#utility.yul\":10068:10074   */\n      dup1\n        /* \"#utility.yul\":10076:10082   */\n      0x00\n        /* \"#utility.yul\":10084:10090   */\n      dup1\n        /* \"#utility.yul\":10133:10136   */\n      0x80\n        /* \"#utility.yul\":10121:10130   */\n      dup6\n        /* \"#utility.yul\":10112:10119   */\n      dup8\n        /* \"#utility.yul\":10108:10131   */\n      sub\n        /* \"#utility.yul\":10104:10137   */\n      slt\n        /* \"#utility.yul\":10101:10221   */\n      iszero\n      tag_235\n      jumpi\n        /* \"#utility.yul\":10140:10219   */\n      tag_236\n      tag_90\n      jump\t// in\n    tag_236:\n        /* \"#utility.yul\":10101:10221   */\n    tag_235:\n        /* \"#utility.yul\":10288:10289   */\n      0x00\n        /* \"#utility.yul\":10277:10286   */\n      dup6\n        /* \"#utility.yul\":10273:10290   */\n      add\n        /* \"#utility.yul\":10260:10291   */\n      calldataload\n        /* \"#utility.yul\":10318:10336   */\n      0xffffffffffffffff\n        /* \"#utility.yul\":10310:10316   */\n      dup2\n        /* \"#utility.yul\":10307:10337   */\n      gt\n        /* \"#utility.yul\":10304:10421   */\n      iszero\n      tag_237\n      jumpi\n        /* \"#utility.yul\":10340:10419   */\n      tag_238\n      tag_91\n      jump\t// in\n    tag_238:\n        /* \"#utility.yul\":10304:10421   */\n    tag_237:\n        /* \"#utility.yul\":10445:10508   */\n      tag_239\n        /* \"#utility.yul\":10500:10507   */\n      dup8\n        /* \"#utility.yul\":10491:10497   */\n      dup3\n        /* \"#utility.yul\":10480:10489   */\n      dup9\n        /* \"#utility.yul\":10476:10498   */\n      add\n        /* \"#utility.yul\":10445:10508   */\n      tag_120\n      jump\t// in\n    tag_239:\n        /* \"#utility.yul\":10435:10508   */\n      swap5\n      pop\n        /* \"#utility.yul\":10231:10518   */\n      pop\n        /* \"#utility.yul\":10557:10559   */\n      0x20\n        /* \"#utility.yul\":10583:10633   */\n      tag_240\n        /* \"#utility.yul\":10625:10632   */\n      dup8\n        /* \"#utility.yul\":10616:10622   */\n      dup3\n        /* \"#utility.yul\":10605:10614   */\n      dup9\n        /* \"#utility.yul\":10601:10623   */\n      add\n        /* \"#utility.yul\":10583:10633   */\n      tag_122\n      jump\t// in\n    tag_240:\n        /* \"#utility.yul\":10573:10633   */\n      swap4\n      pop\n        /* \"#utility.yul\":10528:10643   */\n      pop\n        /* \"#utility.yul\":10682:10684   */\n      0x40\n        /* \"#utility.yul\":10708:10761   */\n      tag_241\n        /* \"#utility.yul\":10753:10760   */\n      dup8\n        /* \"#utility.yul\":10744:10750   */\n      dup3\n        /* \"#utility.yul\":10733:10742   */\n      dup9\n        /* \"#utility.yul\":10729:10751   */\n      add\n        /* \"#utility.yul\":10708:10761   */\n      tag_94\n      jump\t// in\n    tag_241:\n        /* \"#utility.yul\":10698:10761   */\n      swap3\n      pop\n        /* \"#utility.yul\":10653:10771   */\n      pop\n        /* \"#utility.yul\":10810:10812   */\n      0x60\n        /* \"#utility.yul\":10836:10889   */\n      tag_242\n        /* \"#utility.yul\":10881:10888   */\n      dup8\n        /* \"#utility.yul\":10872:10878   */\n      dup3\n        /* \"#utility.yul\":10861:10870   */\n      dup9\n        /* \"#utility.yul\":10857:10879   */\n      add\n        /* \"#utility.yul\":10836:10889   */\n      tag_94\n      jump\t// in\n    tag_242:\n        /* \"#utility.yul\":10826:10889   */\n      swap2\n      pop\n        /* \"#utility.yul\":10781:10899   */\n      pop\n        /* \"#utility.yul\":9967:10906   */\n      swap3\n      swap6\n      swap2\n      swap5\n      pop\n      swap3\n      pop\n      jump\t// out\n        /* \"#utility.yul\":10912:11092   */\n    tag_40:\n        /* \"#utility.yul\":10960:11037   */\n      0x4e487b7100000000000000000000000000000000000000000000000000000000\n        /* \"#utility.yul\":10957:10958   */\n      0x00\n        /* \"#utility.yul\":10950:11038   */\n      mstore\n        /* \"#utility.yul\":11057:11061   */\n      0x31\n        /* \"#utility.yul\":11054:11055   */\n      0x04\n        /* \"#utility.yul\":11047:11062   */\n      mstore\n        /* \"#utility.yul\":11081:11085   */\n      0x24\n        /* \"#utility.yul\":11078:11079   */\n      0x00\n        /* \"#utility.yul\":11071:11086   */\n      revert\n        /* \"#utility.yul\":11098:11278   */\n    tag_123:\n        /* \"#utility.yul\":11146:11223   */\n      0x4e487b7100000000000000000000000000000000000000000000000000000000\n        /* \"#utility.yul\":11143:11144   */\n      0x00\n        /* \"#utility.yul\":11136:11224   */\n      mstore\n        /* \"#utility.yul\":11243:11247   */\n      0x11\n        /* \"#utility.yul\":11240:11241   */\n      0x04\n        /* \"#utility.yul\":11233:11248   */\n      mstore\n        /* \"#utility.yul\":11267:11271   */\n      0x24\n        /* \"#utility.yul\":11264:11265   */\n      0x00\n        /* \"#utility.yul\":11257:11272   */\n      revert\n        /* \"#utility.yul\":11284:11478   */\n    tag_48:\n        /* \"#utility.yul\":11324:11328   */\n      0x00\n        /* \"#utility.yul\":11344:11364   */\n      tag_246\n        /* \"#utility.yul\":11362:11363   */\n      dup3\n        /* \"#utility.yul\":11344:11364   */\n      tag_92\n      jump\t// in\n    tag_246:\n        /* \"#utility.yul\":11339:11364   */\n      swap2\n      pop\n        /* \"#utility.yul\":11378:11398   */\n      tag_247\n        /* \"#utility.yul\":11396:11397   */\n      dup4\n        /* \"#utility.yul\":11378:11398   */\n      tag_92\n      jump\t// in\n    tag_247:\n        /* \"#utility.yul\":11373:11398   */\n      swap3\n      pop\n        /* \"#utility.yul\":11422:11423   */\n      dup3\n        /* \"#utility.yul\":11419:11420   */\n      dup3\n        /* \"#utility.yul\":11415:11424   */\n      sub\n        /* \"#utility.yul\":11407:11424   */\n      swap1\n      pop\n        /* \"#utility.yul\":11446:11447   */\n      dup2\n        /* \"#utility.yul\":11440:11444   */\n      dup2\n        /* \"#utility.yul\":11437:11448   */\n      gt\n        /* \"#utility.yul\":11434:11471   */\n      iszero\n      tag_248\n      jumpi\n        /* \"#utility.yul\":11451:11469   */\n      tag_249\n      tag_123\n      jump\t// in\n    tag_249:\n        /* \"#utility.yul\":11434:11471   */\n    tag_248:\n        /* \"#utility.yul\":11284:11478   */\n      swap3\n      swap2\n      pop\n      pop\n      jump\t// out\n        /* \"#utility.yul\":11484:11664   */\n    tag_51:\n        /* \"#utility.yul\":11532:11609   */\n      0x4e487b7100000000000000000000000000000000000000000000000000000000\n        /* \"#utility.yul\":11529:11530   */\n      0x00\n        /* \"#utility.yul\":11522:11610   */\n      mstore\n        /* \"#utility.yul\":11629:11633   */\n      0x32\n        /* \"#utility.yul\":11626:11627   */\n      0x04\n        /* \"#utility.yul\":11619:11634   */\n      mstore\n        /* \"#utility.yul\":11653:11657   */\n      0x24\n        /* \"#utility.yul\":11650:11651   */\n      0x00\n        /* \"#utility.yul\":11643:11658   */\n      revert\n        /* \"#utility.yul\":11670:11850   */\n    tag_124:\n        /* \"#utility.yul\":11718:11795   */\n      0x4e487b7100000000000000000000000000000000000000000000000000000000\n        /* \"#utility.yul\":11715:11716   */\n      0x00\n        /* \"#utility.yul\":11708:11796   */\n      mstore\n        /* \"#utility.yul\":11815:11819   */\n      0x22\n        /* \"#utility.yul\":11812:11813   */\n      0x04\n        /* \"#utility.yul\":11805:11820   */\n      mstore\n        /* \"#utility.yul\":11839:11843   */\n      0x24\n        /* \"#utility.yul\":11836:11837   */\n      0x00\n        /* \"#utility.yul\":11829:11844   */\n      revert\n        /* \"#utility.yul\":11856:12176   */\n    tag_54:\n        /* \"#utility.yul\":11900:11906   */\n      0x00\n        /* \"#utility.yul\":11937:11938   */\n      0x02\n        /* \"#utility.yul\":11931:11935   */\n      dup3\n        /* \"#utility.yul\":11927:11939   */\n      div\n        /* \"#utility.yul\":11917:11939   */\n      swap1\n      pop\n        /* \"#utility.yul\":11984:11985   */\n      0x01\n        /* \"#utility.yul\":11978:11982   */\n      dup3\n        /* \"#utility.yul\":11974:11986   */\n      and\n        /* \"#utility.yul\":12005:12023   */\n      dup1\n        /* \"#utility.yul\":11995:12076   */\n      tag_253\n      jumpi\n        /* \"#utility.yul\":12061:12065   */\n      0x7f\n        /* \"#utility.yul\":12053:12059   */\n      dup3\n        /* \"#utility.yul\":12049:12066   */\n      and\n        /* \"#utility.yul\":12039:12066   */\n      swap2\n      pop\n        /* \"#utility.yul\":11995:12076   */\n    tag_253:\n        /* \"#utility.yul\":12123:12125   */\n      0x20\n        /* \"#utility.yul\":12115:12121   */\n      dup3\n        /* \"#utility.yul\":12112:12126   */\n      lt\n        /* \"#utility.yul\":12092:12110   */\n      dup2\n        /* \"#utility.yul\":12089:12127   */\n      sub\n        /* \"#utility.yul\":12086:12170   */\n      tag_254\n      jumpi\n        /* \"#utility.yul\":12142:12160   */\n      tag_255\n      tag_124\n      jump\t// in\n    tag_255:\n        /* \"#utility.yul\":12086:12170   */\n    tag_254:\n        /* \"#utility.yul\":11907:12176   */\n      pop\n        /* \"#utility.yul\":11856:12176   */\n      swap2\n      swap1\n      pop\n      jump\t// out\n        /* \"#utility.yul\":12182:12323   */\n    tag_125:\n        /* \"#utility.yul\":12231:12235   */\n      0x00\n        /* \"#utility.yul\":12254:12257   */\n      dup2\n        /* \"#utility.yul\":12246:12257   */\n      swap1\n      pop\n        /* \"#utility.yul\":12277:12280   */\n      dup2\n        /* \"#utility.yul\":12274:12275   */\n      0x00\n        /* \"#utility.yul\":12267:12281   */\n      mstore\n        /* \"#utility.yul\":12311:12315   */\n      0x20\n        /* \"#utility.yul\":12308:12309   */\n      0x00\n        /* \"#utility.yul\":12298:12316   */\n      keccak256\n        /* \"#utility.yul\":12290:12316   */\n      swap1\n      pop\n        /* \"#utility.yul\":12182:12323   */\n      swap2\n      swap1\n      pop\n      jump\t// out\n        /* \"#utility.yul\":12329:12422   */\n    tag_126:\n        /* \"#utility.yul\":12366:12372   */\n      0x00\n        /* \"#utility.yul\":12413:12415   */\n      0x20\n        /* \"#utility.yul\":12408:12410   */\n      0x1f\n        /* \"#utility.yul\":12401:12406   */\n      dup4\n        /* \"#utility.yul\":12397:12411   */\n      add\n        /* \"#utility.yul\":12393:12416   */\n      div\n        /* \"#utility.yul\":12383:12416   */\n      swap1\n      pop\n        /* \"#utility.yul\":12329:12422   */\n      swap2\n      swap1\n      pop\n      jump\t// out\n        /* \"#utility.yul\":12428:12535   */\n    tag_127:\n        /* \"#utility.yul\":12472:12480   */\n      0x00\n        /* \"#utility.yul\":12522:12527   */\n      dup3\n        /* \"#utility.yul\":12516:12520   */\n      dup3\n        /* \"#utility.yul\":12512:12528   */\n      shl\n        /* \"#utility.yul\":12491:12528   */\n      swap1\n      pop\n        /* \"#utility.yul\":12428:12535   */\n      swap3\n      swap2\n      pop\n      pop\n      jump\t// out\n        /* \"#utility.yul\":12541:12934   */\n    tag_128:\n        /* \"#utility.yul\":12610:12616   */\n      0x00\n        /* \"#utility.yul\":12660:12661   */\n      0x08\n        /* \"#utility.yul\":12648:12658   */\n      dup4\n        /* \"#utility.yul\":12644:12662   */\n      mul\n        /* \"#utility.yul\":12683:12780   */\n      tag_260\n        /* \"#utility.yul\":12713:12779   */\n      0xffffffffffffffffffffffffffffffffffffffffffffffffffffffffffffffff\n        /* \"#utility.yul\":12702:12711   */\n      dup3\n        /* \"#utility.yul\":12683:12780   */\n      tag_127\n      jump\t// in\n    tag_260:\n        /* \"#utility.yul\":12801:12840   */\n      tag_261\n        /* \"#utility.yul\":12831:12839   */\n      dup7\n        /* \"#utility.yul\":12820:12829   */\n      dup4\n        /* \"#utility.yul\":12801:12840   */\n      tag_127\n      jump\t// in\n    tag_261:\n        /* \"#utility.yul\":12789:12840   */\n      swap6\n      pop\n        /* \"#utility.yul\":12873:12877   */\n      dup1\n        /* \"#utility.yul\":12869:12878   */\n      not\n        /* \"#utility.yul\":12862:12867   */\n      dup5\n        /* \"#utility.yul\":12858:12879   */\n      and\n        /* \"#utility.yul\":12849:12879   */\n      swap4\n      pop\n        /* \"#utility.yul\":12922:12926   */\n      dup1\n        /* \"#utility.yul\":12912:12920   */\n      dup7\n        /* \"#utility.yul\":12908:12927   */\n      and\n        /* \"#utility.yul\":12901:12906   */\n      dup5\n        /* \"#utility.yul\":12898:12928   */\n      or\n        /* \"#utility.yul\":12888:12928   */\n      swap3\n      pop\n        /* \"#utility.yul\":12617:12934   */\n      pop\n      pop\n        /* \"#utility.yul\":12541:12934   */\n      swap4\n      swap3\n      pop\n      pop\n      pop\n      jump\t// out\n        /* \"#utility.yul\":12940:13000   */\n    tag_129:\n        /* \"#utility.yul\":12968:12971   */\n      0x00\n        /* \"#utility.yul\":12989:12994   */\n      dup2\n        /* \"#utility.yul\":12982:12994   */\n      swap1\n      pop\n        /* \"#utility.yul\":12940:13000   */\n      swap2\n      swap1\n      pop\n      jump\t// out\n        /* \"#utility.yul\":13006:13148   */\n    tag_130:\n        /* \"#utility.yul\":13056:13065   */\n      0x00\n        /* \"#utility.yul\":13089:13142   */\n      tag_264\n        /* \"#utility.yul\":13107:13141   */\n      tag_265\n        /* \"#utility.yul\":13116:13140   */\n      tag_266\n        /* \"#utility.yul\":13134:13139   */\n      dup5\n        /* \"#utility.yul\":13116:13140   */\n      tag_92\n      jump\t// in\n    tag_266:\n        /* \"#utility.yul\":13107:13141   */\n      tag_129\n      jump\t// in\n    tag_265:\n        /* \"#utility.yul\":13089:13142   */\n      tag_92\n      jump\t// in\n    tag_264:\n        /* \"#utility.yul\":13076:13142   */\n      swap1\n      pop\n        /* \"#utility.yul\":13006:13148   */\n      swap2\n      swap1\n      pop\n      jump\t// out\n        /* \"#utility.yul\":13154:13229   */\n    tag_131:\n        /* \"#utility.yul\":13197:13200   */\n      0x00\n        /* \"#utility.yul\":13218:13223   */\n      dup2\n        /* \"#utility.yul\":13211:13223   */\n      swap1\n      pop\n        /* \"#utility.yul\":13154:13229   */\n      swap2\n      swap1\n      pop\n      jump\t// out\n        /* \"#utility.yul\":13235:13504   */\n    tag_132:\n        /* \"#utility.yul\":13345:13384   */\n      tag_269\n        /* \"#utility.yul\":13376:13383   */\n      dup4\n        /* \"#utility.yul\":13345:13384   */\n      tag_130\n      jump\t// in\n    tag_269:\n        /* \"#utility.yul\":13406:13497   */\n      tag_270\n        /* \"#utility.yul\":13455:13496   */\n      tag_271\n        /* \"#utility.yul\":13479:13495   */\n      dup3\n        /* \"#utility.yul\":13455:13496   */\n      tag_131\n      jump\t// in\n    tag_271:\n        /* \"#utility.yul\":13447:13453   */\n      dup5\n        /* \"#utility.yul\":13440:13444   */\n      dup5\n        /* \"#utility.yul\":13434:13445   */\n      sload\n        /* \"#utility.yul\":13406:13497   */\n      tag_128\n      jump\t// in\n    tag_270:\n        /* \"#utility.yul\":13400:13404   */\n      dup3\n        /* \"#utility.yul\":13393:13498   */\n      sstore\n        /* \"#utility.yul\":13311:13504   */\n      pop\n        /* \"#utility.yul\":13235:13504   */\n      pop\n      pop\n      pop\n      jump\t// out\n        /* \"#utility.yul\":13510:13583   */\n    tag_133:\n        /* \"#utility.yul\":13555:13558   */\n      0x00\n        /* \"#utility.yul\":13510:13583   */\n      swap1\n      jump\t// out\n        /* \"#utility.yul\":13589:13778   */\n    tag_134:\n        /* \"#utility.yul\":13666:13698   */\n      tag_274\n      tag_133\n      jump\t// in\n    tag_274:\n        /* \"#utility.yul\":13707:13772   */\n      tag_275\n        /* \"#utility.yul\":13765:13771   */\n      dup2\n        /* \"#utility.yul\":13757:13763   */\n      dup5\n        /* \"#utility.yul\":13751:13755   */\n      dup5\n        /* \"#utility.yul\":13707:13772   */\n      tag_132\n      jump\t// in\n    tag_275:\n        /* \"#utility.yul\":13642:13778   */\n      pop\n        /* \"#utility.yul\":13589:13778   */\n      pop\n      pop\n      jump\t// out\n        /* \"#utility.yul\":13784:13970   */\n    tag_135:\n        /* \"#utility.yul\":13844:13964   */\n    tag_277:\n        /* \"#utility.yul\":13861:13864   */\n      dup2\n        /* \"#utility.yul\":13854:13859   */\n      dup2\n        /* \"#utility.yul\":13851:13865   */\n      lt\n        /* \"#utility.yul\":13844:13964   */\n      iszero\n      tag_279\n      jumpi\n        /* \"#utility.yul\":13915:13954   */\n      tag_280\n        /* \"#utility.yul\":13952:13953   */\n      0x00\n        /* \"#utility.yul\":13945:13950   */\n      dup3\n        /* \"#utility.yul\":13915:13954   */\n      tag_134\n      jump\t// in\n    tag_280:\n        /* \"#utility.yul\":13888:13889   */\n      0x01\n        /* \"#utility.yul\":13881:13886   */\n      dup2\n        /* \"#utility.yul\":13877:13890   */\n      add\n        /* \"#utility.yul\":13868:13890   */\n      swap1\n      pop\n        /* \"#utility.yul\":13844:13964   */\n      jump(tag_277)\n    tag_279:\n        /* \"#utility.yul\":13784:13970   */\n      pop\n      pop\n      jump\t// out\n        /* \"#utility.yul\":13976:14519   */\n    tag_136:\n        /* \"#utility.yul\":14077:14079   */\n      0x1f\n        /* \"#utility.yul\":14072:14075   */\n      dup3\n        /* \"#utility.yul\":14069:14080   */\n      gt\n        /* \"#utility.yul\":14066:14512   */\n      iszero\n      tag_282\n      jumpi\n        /* \"#utility.yul\":14111:14149   */\n      tag_283\n        /* \"#utility.yul\":14143:14148   */\n      dup2\n        /* \"#utility.yul\":14111:14149   */\n      tag_125\n      jump\t// in\n    tag_283:\n        /* \"#utility.yul\":14195:14224   */\n      tag_284\n        /* \"#utility.yul\":14213:14223   */\n      dup5\n        /* \"#utility.yul\":14195:14224   */\n      tag_126\n      jump\t// in\n    tag_284:\n        /* \"#utility.yul\":14185:14193   */\n      dup2\n        /* \"#utility.yul\":14181:14225   */\n      add\n        /* \"#utility.yul\":14378:14380   */\n      0x20\n        /* \"#utility.yul\":14366:14376   */\n      dup6\n        /* \"#utility.yul\":14363:14381   */\n      lt\n        /* \"#utility.yul\":14360:14409   */\n      iszero\n      tag_285\n      jumpi\n        /* \"#utility.yul\":14399:14407   */\n      dup2\n        /* \"#utility.yul\":14384:14407   */\n      swap1\n      pop\n        /* \"#utility.yul\":14360:14409   */\n    tag_285:\n        /* \"#utility.yul\":14422:14502   */\n      tag_286\n        /* \"#utility.yul\":14478:14500   */\n      tag_287\n        /* \"#utility.yul\":14496:14499   */\n      dup6\n        /* \"#utility.yul\":14478:14500   */\n      tag_126\n      jump\t// in\n    tag_287:\n        /* \"#utility.yul\":14468:14476   */\n      dup4\n        /* \"#utility.yul\":14464:14501   */\n      add\n        /* \"#utility.yul\":14451:14462   */\n      dup3\n        /* \"#utility.yul\":14422:14502   */\n      tag_135\n      jump\t// in\n    tag_286:\n        /* \"#utility.yul\":14081:14512   */\n      pop\n      pop\n        /* \"#utility.yul\":14066:14512   */\n    tag_282:\n        /* \"#utility.yul\":13976:14519   */\n      pop\n      pop\n      pop\n      jump\t// out\n        /* \"#utility.yul\":14525:14642   */\n    tag_137:\n        /* \"#utility.yul\":14579:14587   */\n      0x00\n        /* \"#utility.yul\":14629:14634   */\n      dup3\n        /* \"#utility.yul\":14623:14627   */\n      dup3\n        /* \"#utility.yul\":14619:14635   */\n      shr\n        /* \"#utility.yul\":14598:14635   */\n      swap1\n      pop\n        /* \"#utility.yul\":14525:14642   */\n      swap3\n      swap2\n      pop\n      pop\n      jump\t// out\n        /* \"#utility.yul\":14648:14817   */\n    tag_138:\n        /* \"#utility.yul\":14692:14698   */\n      0x00\n        /* \"#utility.yul\":14725:14776   */\n      tag_290\n        /* \"#utility.yul\":14773:14774   */\n      0x00\n        /* \"#utility.yul\":14769:14775   */\n      not\n        /* \"#utility.yul\":14761:14766   */\n      dup5\n        /* \"#utility.yul\":14758:14759   */\n      0x08\n        /* \"#utility.yul\":14754:14767   */\n      mul\n        /* \"#utility.yul\":14725:14776   */\n      tag_137\n      jump\t// in\n    tag_290:\n        /* \"#utility.yul\":14721:14777   */\n      not\n        /* \"#utility.yul\":14806:14810   */\n      dup1\n        /* \"#utility.yul\":14800:14804   */\n      dup4\n        /* \"#utility.yul\":14796:14811   */\n      and\n        /* \"#utility.yul\":14786:14811   */\n      swap2\n      pop\n        /* \"#utility.yul\":14699:14817   */\n      pop\n        /* \"#utility.yul\":14648:14817   */\n      swap3\n      swap2\n      pop\n      pop\n      jump\t// out\n        /* \"#utility.yul\":14822:15117   */\n    tag_139:\n        /* \"#utility.yul\":14898:14902   */\n      0x00\n        /* \"#utility.yul\":15044:15073   */\n      tag_292\n        /* \"#utility.yul\":15069:15072   */\n      dup4\n        /* \"#utility.yul\":15063:15067   */\n      dup4\n        /* \"#utility.yul\":15044:15073   */\n      tag_138\n      jump\t// in\n    tag_292:\n        /* \"#utility.yul\":15036:15073   */\n      swap2\n      pop\n        /* \"#utility.yul\":15106:15109   */\n      dup3\n        /* \"#utility.yul\":15103:15104   */\n      0x02\n        /* \"#utility.yul\":15099:15110   */\n      mul\n        /* \"#utility.yul\":15093:15097   */\n      dup3\n        /* \"#utility.yul\":15090:15111   */\n      or\n        /* \"#utility.yul\":15082:15111   */\n      swap1\n      pop\n        /* \"#utility.yul\":14822:15117   */\n      swap3\n      swap2\n      pop\n      pop\n      jump\t// out\n        /* \"#utility.yul\":15122:16517   */\n    tag_79:\n        /* \"#utility.yul\":15239:15276   */\n      tag_294\n        /* \"#utility.yul\":15272:15275   */\n      dup3\n        /* \"#utility.yul\":15239:15276   */\n      tag_95\n      jump\t// in\n    tag_294:\n        /* \"#utility.yul\":15341:15359   */\n      0xffffffffffffffff\n        /* \"#utility.yul\":15333:15339   */\n      dup2\n        /* \"#utility.yul\":15330:15360   */\n      gt\n        /* \"#utility.yul\":15327:15383   */\n      iszero\n      tag_295\n      jumpi\n        /* \"#utility.yul\":15363:15381   */\n      tag_296\n      tag_114\n      jump\t// in\n    tag_296:\n        /* \"#utility.yul\":15327:15383   */\n    tag_295:\n        /* \"#utility.yul\":15407:15445   */\n      tag_297\n        /* \"#utility.yul\":15439:15443   */\n      dup3\n        /* \"#utility.yul\":15433:15444   */\n      sload\n        /* \"#utility.yul\":15407:15445   */\n      tag_54\n      jump\t// in\n    tag_297:\n        /* \"#utility.yul\":15492:15559   */\n      tag_298\n        /* \"#utility.yul\":15552:15558   */\n      dup3\n        /* \"#utility.yul\":15544:15550   */\n      dup3\n        /* \"#utility.yul\":15538:15542   */\n      dup6\n        /* \"#utility.yul\":15492:15559   */\n      tag_136\n      jump\t// in\n    tag_298:\n        /* \"#utility.yul\":15586:15587   */\n      0x00\n        /* \"#utility.yul\":15610:15614   */\n      0x20\n        /* \"#utility.yul\":15597:15614   */\n      swap1\n      pop\n        /* \"#utility.yul\":15642:15644   */\n      0x1f\n        /* \"#utility.yul\":15634:15640   */\n      dup4\n        /* \"#utility.yul\":15631:15645   */\n      gt\n        /* \"#utility.yul\":15659:15660   */\n      0x01\n        /* \"#utility.yul\":15654:16272   */\n      dup2\n      eq\n      tag_300\n      jumpi\n        /* \"#utility.yul\":16316:16317   */\n      0x00\n        /* \"#utility.yul\":16333:16339   */\n      dup5\n        /* \"#utility.yul\":16330:16407   */\n      iszero\n      tag_301\n      jumpi\n        /* \"#utility.yul\":16382:16391   */\n      dup3\n        /* \"#utility.yul\":16377:16380   */\n      dup8\n        /* \"#utility.yul\":16373:16392   */\n      add\n        /* \"#utility.yul\":16367:16393   */\n      mload\n        /* \"#utility.yul\":16358:16393   */\n      swap1\n      pop\n        /* \"#utility.yul\":16330:16407   */\n    tag_301:\n        /* \"#utility.yul\":16433:16500   */\n      tag_302\n        /* \"#utility.yul\":16493:16499   */\n      dup6\n        /* \"#utility.yul\":16486:16491   */\n      dup3\n        /* \"#utility.yul\":16433:16500   */\n      tag_139\n      jump\t// in\n    tag_302:\n        /* \"#utility.yul\":16427:16431   */\n      dup7\n        /* \"#utility.yul\":16420:16501   */\n      sstore\n        /* \"#utility.yul\":16289:16511   */\n      pop\n        /* \"#utility.yul\":15624:16511   */\n      jump(tag_299)\n        /* \"#utility.yul\":15654:16272   */\n    tag_300:\n        /* \"#utility.yul\":15706:15710   */\n      0x1f\n        /* \"#utility.yul\":15702:15711   */\n      not\n        /* \"#utility.yul\":15694:15700   */\n      dup5\n        /* \"#utility.yul\":15690:15712   */\n      and\n        /* \"#utility.yul\":15740:15777   */\n      tag_303\n        /* \"#utility.yul\":15772:15776   */\n      dup7\n        /* \"#utility.yul\":15740:15777   */\n      tag_125\n      jump\t// in\n    tag_303:\n        /* \"#utility.yul\":15799:15800   */\n      0x00\n        /* \"#utility.yul\":15813:16021   */\n    tag_304:\n        /* \"#utility.yul\":15827:15834   */\n      dup3\n        /* \"#utility.yul\":15824:15825   */\n      dup2\n        /* \"#utility.yul\":15821:15835   */\n      lt\n        /* \"#utility.yul\":15813:16021   */\n      iszero\n      tag_306\n      jumpi\n        /* \"#utility.yul\":15906:15915   */\n      dup5\n        /* \"#utility.yul\":15901:15904   */\n      dup10\n        /* \"#utility.yul\":15897:15916   */\n      add\n        /* \"#utility.yul\":15891:15917   */\n      mload\n        /* \"#utility.yul\":15883:15889   */\n      dup3\n        /* \"#utility.yul\":15876:15918   */\n      sstore\n        /* \"#utility.yul\":15957:15958   */\n      0x01\n        /* \"#utility.yul\":15949:15955   */\n      dup3\n        /* \"#utility.yul\":15945:15959   */\n      add\n        /* \"#utility.yul\":15935:15959   */\n      swap2\n      pop\n        /* \"#utility.yul\":16004:16006   */\n      0x20\n        /* \"#utility.yul\":15993:16002   */\n      dup6\n        /* \"#utility.yul\":15989:16007   */\n      add\n        /* \"#utility.yul\":15976:16007   */\n      swap5\n      pop\n        /* \"#utility.yul\":15850:15854   */\n      0x20\n        /* \"#utility.yul\":15847:15848   */\n      dup2\n        /* \"#utility.yul\":15843:15855   */\n      add\n        /* \"#utility.yul\":15838:15855   */\n      swap1\n      pop\n        /* \"#utility.yul\":15813:16021   */\n      jump(tag_304)\n    tag_306:\n        /* \"#utility.yul\":16049:16055   */\n      dup7\n        /* \"#utility.yul\":16040:16047   */\n      dup4\n        /* \"#utility.yul\":16037:16056   */\n      lt\n        /* \"#utility.yul\":16034:16213   */\n      iszero\n      tag_307\n      jumpi\n        /* \"#utility.yul\":16107:16116   */\n      dup5\n        /* \"#utility.yul\":16102:16105   */\n      dup10\n        /* \"#utility.yul\":16098:16117   */\n      add\n        /* \"#utility.yul\":16092:16118   */\n      mload\n        /* \"#utility.yul\":16150:16198   */\n      tag_308\n        /* \"#utility.yul\":16192:16196   */\n      0x1f\n        /* \"#utility.yul\":16184:16190   */\n      dup10\n        /* \"#utility.yul\":16180:16197   */\n      and\n        /* \"#utility.yul\":16169:16178   */\n      dup3\n        /* \"#utility.yul\":16150:16198   */\n      tag_138\n      jump\t// in\n    tag_308:\n        /* \"#utility.yul\":16142:16148   */\n      dup4\n        /* \"#utility.yul\":16135:16199   */\n      sstore\n        /* \"#utility.yul\":16057:16213   */\n      pop\n        /* \"#utility.yul\":16034:16213   */\n    tag_307:\n        /* \"#utility.yul\":16259:16260   */\n      0x01\n        /* \"#utility.yul\":16255:16256   */\n      0x02\n        /* \"#utility.yul\":16247:16253   */\n      dup9\n        /* \"#utility.yul\":16243:16257   */\n      mul\n        /* \"#utility.yul\":16239:16261   */\n      add\n        /* \"#utility.yul\":16233:16237   */\n      dup9\n        /* \"#utility.yul\":16226:16262   */\n      sstore\n        /* \"#utility.yul\":15661:16272   */\n      pop\n      pop\n      pop\n        /* \"#utility.yul\":15624:16511   */\n    tag_299:\n      pop\n        /* \"#utility.yul\":15214:16517   */\n      pop\n      pop\n      pop\n        /* \"#utility.yul\":15122:16517   */\n      pop\n      pop\n      jump\t// out\n\n    auxdata: 0xa264697066735822122079e3cf170b7fc926cb7e45331dc12d0b5e89c13e4e26eeb4578a1e32f067305164736f6c63430008120033\n}\n",
				"bytecode": {
					"linkReferences": {},
					"object": "608060405234801561001057600080fd5b50610f10806100206000396000f3fe608060405234801561001057600080fd5b506004361061007d5760003560e01c8063be1c766b1161005b578063be1c766b146100da578063f1d064b3146100f8578063fb8f686c14610116578063fc4b6863146101325761007d565b80634157188714610082578063642f91631461008c578063b439548d146100bc575b600080fd5b61008a61014e565b005b6100a660048036038101906100a1919061067a565b6101af565b6040516100b391906107c4565b60405180910390f35b6100c46102b8565b6040516100d191906107c4565b60405180910390f35b6100e2610393565b6040516100ef91906107f5565b60405180910390f35b6101006103a0565b60405161010d9190610935565b60405180910390f35b610130600480360381019061012b9190610ab8565b6104c0565b005b61014c60048036038101906101479190610ab8565b610560565b005b60048054806101605761015f610b3b565b5b60019003818190600052602060002090600402016000808201600061018591906105a9565b6001820160006101000a81549060ff02191690556002820160009055600382016000905550509055565b6101b76105e9565b60046001836101c69190610b99565b815481106101d7576101d6610bcd565b5b906000526020600020906004020160405180608001604052908160008201805461020090610c2b565b80601f016020809104026020016040519081016040528092919081815260200182805461022c90610c2b565b80156102795780601f1061024e57610100808354040283529160200191610279565b820191906000526020600020905b81548152906001019060200180831161025c57829003601f168201915b505050505081526020016001820160009054906101000a900460ff16151515158152602001600282015481526020016003820154815250509050919050565b6102c06105e9565b60006040518060800160405290816000820180546102dd90610c2b565b80601f016020809104026020016040519081016040528092919081815260200182805461030990610c2b565b80156103565780601f1061032b57610100808354040283529160200191610356565b820191906000526020600020905b81548152906001019060200180831161033957829003601f168201915b505050505081526020016001820160009054906101000a900460ff1615151515815260200160028201548152602001600382015481525050905090565b6000600480549050905090565b60606004805480602002602001604051908101604052809291908181526020016000905b828210156104b757838290600052602060002090600402016040518060800160405290816000820180546103f790610c2b565b80601f016020809104026020016040519081016040528092919081815260200182805461042390610c2b565b80156104705780601f1061044557610100808354040283529160200191610470565b820191906000526020600020905b81548152906001019060200180831161045357829003601f168201915b505050505081526020016001820160009054906101000a900460ff1615151515815260200160028201548152602001600382015481525050815260200190600101906103c4565b50505050905090565b60046040518060800160405280868152602001851515815260200184815260200183815250908060018154018082558091505060019003906000526020600020906004020160009091909190915060008201518160000190816105239190610e08565b5060208201518160010160006101000a81548160ff0219169083151502179055506040820151816002015560608201518160030155505050505050565b836000800190816105719190610e08565b5082600060010160006101000a81548160ff021916908315150217905550816000600201819055508060006003018190555050505050565b5080546105b590610c2b565b6000825580601f106105c757506105e6565b601f0160209004906000526020600020908101906105e59190610613565b5b50565b60405180608001604052806060815260200160001515815260200160008152602001600081525090565b5b8082111561062c576000816000905550600101610614565b5090565b6000604051905090565b600080fd5b600080fd5b6000819050919050565b61065781610644565b811461066257600080fd5b50565b6000813590506106748161064e565b92915050565b6000602082840312156106905761068f61063a565b5b600061069e84828501610665565b91505092915050565b600081519050919050565b600082825260208201905092915050565b60005b838110156106e15780820151818401526020810190506106c6565b60008484015250505050565b6000601f19601f8301169050919050565b6000610709826106a7565b61071381856106b2565b93506107238185602086016106c3565b61072c816106ed565b840191505092915050565b60008115159050919050565b61074c81610737565b82525050565b61075b81610644565b82525050565b6000608083016000830151848203600086015261077e82826106fe565b91505060208301516107936020860182610743565b5060408301516107a66040860182610752565b5060608301516107b96060860182610752565b508091505092915050565b600060208201905081810360008301526107de8184610761565b905092915050565b6107ef81610644565b82525050565b600060208201905061080a60008301846107e6565b92915050565b600081519050919050565b600082825260208201905092915050565b6000819050602082019050919050565b6000608083016000830151848203600086015261085982826106fe565b915050602083015161086e6020860182610743565b5060408301516108816040860182610752565b5060608301516108946060860182610752565b508091505092915050565b60006108ab838361083c565b905092915050565b6000602082019050919050565b60006108cb82610810565b6108d5818561081b565b9350836020820285016108e78561082c565b8060005b858110156109235784840389528151610904858261089f565b945061090f836108b3565b925060208a019950506001810190506108eb565b50829750879550505050505092915050565b6000602082019050818103600083015261094f81846108c0565b905092915050565b600080fd5b600080fd5b7f4e487b7100000000000000000000000000000000000000000000000000000000600052604160045260246000fd5b610999826106ed565b810181811067ffffffffffffffff821117156109b8576109b7610961565b5b80604052505050565b60006109cb610630565b90506109d78282610990565b919050565b600067ffffffffffffffff8211156109f7576109f6610961565b5b610a00826106ed565b9050602081019050919050565b82818337600083830152505050565b6000610a2f610a2a846109dc565b6109c1565b905082815260208101848484011115610a4b57610a4a61095c565b5b610a56848285610a0d565b509392505050565b600082601f830112610a7357610a72610957565b5b8135610a83848260208601610a1c565b91505092915050565b610a9581610737565b8114610aa057600080fd5b50565b600081359050610ab281610a8c565b92915050565b60008060008060808587031215610ad257610ad161063a565b5b600085013567ffffffffffffffff811115610af057610aef61063f565b5b610afc87828801610a5e565b9450506020610b0d87828801610aa3565b9350506040610b1e87828801610665565b9250506060610b2f87828801610665565b91505092959194509250565b7f4e487b7100000000000000000000000000000000000000000000000000000000600052603160045260246000fd5b7f4e487b7100000000000000000000000000000000000000000000000000000000600052601160045260246000fd5b6000610ba482610644565b9150610baf83610644565b9250828203905081811115610bc757610bc6610b6a565b5b92915050565b7f4e487b7100000000000000000000000000000000000000000000000000000000600052603260045260246000fd5b7f4e487b7100000000000000000000000000000000000000000000000000000000600052602260045260246000fd5b60006002820490506001821680610c4357607f821691505b602082108103610c5657610c55610bfc565b5b50919050565b60008190508160005260206000209050919050565b60006020601f8301049050919050565b600082821b905092915050565b600060088302610cbe7fffffffffffffffffffffffffffffffffffffffffffffffffffffffffffffffff82610c81565b610cc88683610c81565b95508019841693508086168417925050509392505050565b6000819050919050565b6000610d05610d00610cfb84610644565b610ce0565b610644565b9050919050565b6000819050919050565b610d1f83610cea565b610d33610d2b82610d0c565b848454610c8e565b825550505050565b600090565b610d48610d3b565b610d53818484610d16565b505050565b5b81811015610d7757610d6c600082610d40565b600181019050610d59565b5050565b601f821115610dbc57610d8d81610c5c565b610d9684610c71565b81016020851015610da5578190505b610db9610db185610c71565b830182610d58565b50505b505050565b600082821c905092915050565b6000610ddf60001984600802610dc1565b1980831691505092915050565b6000610df88383610dce565b9150826002028217905092915050565b610e11826106a7565b67ffffffffffffffff811115610e2a57610e29610961565b5b610e348254610c2b565b610e3f828285610d7b565b600060209050601f831160018114610e725760008415610e60578287015190505b610e6a8582610dec565b865550610ed2565b601f198416610e8086610c5c565b60005b82811015610ea857848901518255600182019150602085019450602081019050610e83565b86831015610ec55784890151610ec1601f891682610dce565b8355505b6001600288020188555050505b50505050505056fea264697066735822122079e3cf170b7fc926cb7e45331dc12d0b5e89c13e4e26eeb4578a1e32f067305164736f6c63430008120033",
					"opcodes": "PUSH1 0x80 PUSH1 0x40 MSTORE CALLVALUE DUP1 ISZERO PUSH2 0x10 JUMPI PUSH1 0x0 DUP1 REVERT JUMPDEST POP PUSH2 0xF10 DUP1 PUSH2 0x20 PUSH1 0x0 CODECOPY PUSH1 0x0 RETURN INVALID PUSH1 0x80 PUSH1 0x40 MSTORE CALLVALUE DUP1 ISZERO PUSH2 0x10 JUMPI PUSH1 0x0 DUP1 REVERT JUMPDEST POP PUSH1 0x4 CALLDATASIZE LT PUSH2 0x7D JUMPI PUSH1 0x0 CALLDATALOAD PUSH1 0xE0 SHR DUP1 PUSH4 0xBE1C766B GT PUSH2 0x5B JUMPI DUP1 PUSH4 0xBE1C766B EQ PUSH2 0xDA JUMPI DUP1 PUSH4 0xF1D064B3 EQ PUSH2 0xF8 JUMPI DUP1 PUSH4 0xFB8F686C EQ PUSH2 0x116 JUMPI DUP1 PUSH4 0xFC4B6863 EQ PUSH2 0x132 JUMPI PUSH2 0x7D JUMP JUMPDEST DUP1 PUSH4 0x41571887 EQ PUSH2 0x82 JUMPI DUP1 PUSH4 0x642F9163 EQ PUSH2 0x8C JUMPI DUP1 PUSH4 0xB439548D EQ PUSH2 0xBC JUMPI JUMPDEST PUSH1 0x0 DUP1 REVERT JUMPDEST PUSH2 0x8A PUSH2 0x14E JUMP JUMPDEST STOP JUMPDEST PUSH2 0xA6 PUSH1 0x4 DUP1 CALLDATASIZE SUB DUP2 ADD SWAP1 PUSH2 0xA1 SWAP2 SWAP1 PUSH2 0x67A JUMP JUMPDEST PUSH2 0x1AF JUMP JUMPDEST PUSH1 0x40 MLOAD PUSH2 0xB3 SWAP2 SWAP1 PUSH2 0x7C4 JUMP JUMPDEST PUSH1 0x40 MLOAD DUP1 SWAP2 SUB SWAP1 RETURN JUMPDEST PUSH2 0xC4 PUSH2 0x2B8 JUMP JUMPDEST PUSH1 0x40 MLOAD PUSH2 0xD1 SWAP2 SWAP1 PUSH2 0x7C4 JUMP JUMPDEST PUSH1 0x40 MLOAD DUP1 SWAP2 SUB SWAP1 RETURN JUMPDEST PUSH2 0xE2 PUSH2 0x393 JUMP JUMPDEST PUSH1 0x40 MLOAD PUSH2 0xEF SWAP2 SWAP1 PUSH2 0x7F5 JUMP JUMPDEST PUSH1 0x40 MLOAD DUP1 SWAP2 SUB SWAP1 RETURN JUMPDEST PUSH2 0x100 PUSH2 0x3A0 JUMP JUMPDEST PUSH1 0x40 MLOAD PUSH2 0x10D SWAP2 SWAP1 PUSH2 0x935 JUMP JUMPDEST PUSH1 0x40 MLOAD DUP1 SWAP2 SUB SWAP1 RETURN JUMPDEST PUSH2 0x130 PUSH1 0x4 DUP1 CALLDATASIZE SUB DUP2 ADD SWAP1 PUSH2 0x12B SWAP2 SWAP1 PUSH2 0xAB8 JUMP JUMPDEST PUSH2 0x4C0 JUMP JUMPDEST STOP JUMPDEST PUSH2 0x14C PUSH1 0x4 DUP1 CALLDATASIZE SUB DUP2 ADD SWAP1 PUSH2 0x147 SWAP2 SWAP1 PUSH2 0xAB8 JUMP JUMPDEST PUSH2 0x560 JUMP JUMPDEST STOP JUMPDEST PUSH1 0x4 DUP1 SLOAD DUP1 PUSH2 0x160 JUMPI PUSH2 0x15F PUSH2 0xB3B JUMP JUMPDEST JUMPDEST PUSH1 0x1 SWAP1 SUB DUP2 DUP2 SWAP1 PUSH1 0x0 MSTORE PUSH1 0x20 PUSH1 0x0 KECCAK256 SWAP1 PUSH1 0x4 MUL ADD PUSH1 0x0 DUP1 DUP3 ADD PUSH1 0x0 PUSH2 0x185 SWAP2 SWAP1 PUSH2 0x5A9 JUMP JUMPDEST PUSH1 0x1 DUP3 ADD PUSH1 0x0 PUSH2 0x100 EXP DUP2 SLOAD SWAP1 PUSH1 0xFF MUL NOT AND SWAP1 SSTORE PUSH1 0x2 DUP3 ADD PUSH1 0x0 SWAP1 SSTORE PUSH1 0x3 DUP3 ADD PUSH1 0x0 SWAP1 SSTORE POP POP SWAP1 SSTORE JUMP JUMPDEST PUSH2 0x1B7 PUSH2 0x5E9 JUMP JUMPDEST PUSH1 0x4 PUSH1 0x1 DUP4 PUSH2 0x1C6 SWAP2 SWAP1 PUSH2 0xB99 JUMP JUMPDEST DUP2 SLOAD DUP2 LT PUSH2 0x1D7 JUMPI PUSH2 0x1D6 PUSH2 0xBCD JUMP JUMPDEST JUMPDEST SWAP1 PUSH1 0x0 MSTORE PUSH1 0x20 PUSH1 0x0 KECCAK256 SWAP1 PUSH1 0x4 MUL ADD PUSH1 0x40 MLOAD DUP1 PUSH1 0x80 ADD PUSH1 0x40 MSTORE SWAP1 DUP2 PUSH1 0x0 DUP3 ADD DUP1 SLOAD PUSH2 0x200 SWAP1 PUSH2 0xC2B JUMP JUMPDEST DUP1 PUSH1 0x1F ADD PUSH1 0x20 DUP1 SWAP2 DIV MUL PUSH1 0x20 ADD PUSH1 0x40 MLOAD SWAP1 DUP2 ADD PUSH1 0x40 MSTORE DUP1 SWAP3 SWAP2 SWAP1 DUP2 DUP2 MSTORE PUSH1 0x20 ADD DUP3 DUP1 SLOAD PUSH2 0x22C SWAP1 PUSH2 0xC2B JUMP JUMPDEST DUP1 ISZERO PUSH2 0x279 JUMPI DUP1 PUSH1 0x1F LT PUSH2 0x24E JUMPI PUSH2 0x100 DUP1 DUP4 SLOAD DIV MUL DUP4 MSTORE SWAP2 PUSH1 0x20 ADD SWAP2 PUSH2 0x279 JUMP JUMPDEST DUP3 ADD SWAP2 SWAP1 PUSH1 0x0 MSTORE PUSH1 0x20 PUSH1 0x0 KECCAK256 SWAP1 JUMPDEST DUP2 SLOAD DUP2 MSTORE SWAP1 PUSH1 0x1 ADD SWAP1 PUSH1 0x20 ADD DUP1 DUP4 GT PUSH2 0x25C JUMPI DUP3 SWAP1 SUB PUSH1 0x1F AND DUP3 ADD SWAP2 JUMPDEST POP POP POP POP POP DUP2 MSTORE PUSH1 0x20 ADD PUSH1 0x1 DUP3 ADD PUSH1 0x0 SWAP1 SLOAD SWAP1 PUSH2 0x100 EXP SWAP1 DIV PUSH1 0xFF AND ISZERO ISZERO ISZERO ISZERO DUP2 MSTORE PUSH1 0x20 ADD PUSH1 0x2 DUP3 ADD SLOAD DUP2 MSTORE PUSH1 0x20 ADD PUSH1 0x3 DUP3 ADD SLOAD DUP2 MSTORE POP POP SWAP1 POP SWAP2 SWAP1 POP JUMP JUMPDEST PUSH2 0x2C0 PUSH2 0x5E9 JUMP JUMPDEST PUSH1 0x0 PUSH1 0x40 MLOAD DUP1 PUSH1 0x80 ADD PUSH1 0x40 MSTORE SWAP1 DUP2 PUSH1 0x0 DUP3 ADD DUP1 SLOAD PUSH2 0x2DD SWAP1 PUSH2 0xC2B JUMP JUMPDEST DUP1 PUSH1 0x1F ADD PUSH1 0x20 DUP1 SWAP2 DIV MUL PUSH1 0x20 ADD PUSH1 0x40 MLOAD SWAP1 DUP2 ADD PUSH1 0x40 MSTORE DUP1 SWAP3 SWAP2 SWAP1 DUP2 DUP2 MSTORE PUSH1 0x20 ADD DUP3 DUP1 SLOAD PUSH2 0x309 SWAP1 PUSH2 0xC2B JUMP JUMPDEST DUP1 ISZERO PUSH2 0x356 JUMPI DUP1 PUSH1 0x1F LT PUSH2 0x32B JUMPI PUSH2 0x100 DUP1 DUP4 SLOAD DIV MUL DUP4 MSTORE SWAP2 PUSH1 0x20 ADD SWAP2 PUSH2 0x356 JUMP JUMPDEST DUP3 ADD SWAP2 SWAP1 PUSH1 0x0 MSTORE PUSH1 0x20 PUSH1 0x0 KECCAK256 SWAP1 JUMPDEST DUP2 SLOAD DUP2 MSTORE SWAP1 PUSH1 0x1 ADD SWAP1 PUSH1 0x20 ADD DUP1 DUP4 GT PUSH2 0x339 JUMPI DUP3 SWAP1 SUB PUSH1 0x1F AND DUP3 ADD SWAP2 JUMPDEST POP POP POP POP POP DUP2 MSTORE PUSH1 0x20 ADD PUSH1 0x1 DUP3 ADD PUSH1 0x0 SWAP1 SLOAD SWAP1 PUSH2 0x100 EXP SWAP1 DIV PUSH1 0xFF AND ISZERO ISZERO ISZERO ISZERO DUP2 MSTORE PUSH1 0x20 ADD PUSH1 0x2 DUP3 ADD SLOAD DUP2 MSTORE PUSH1 0x20 ADD PUSH1 0x3 DUP3 ADD SLOAD DUP2 MSTORE POP POP SWAP1 POP SWAP1 JUMP JUMPDEST PUSH1 0x0 PUSH1 0x4 DUP1 SLOAD SWAP1 POP SWAP1 POP SWAP1 JUMP JUMPDEST PUSH1 0x60 PUSH1 0x4 DUP1 SLOAD DUP1 PUSH1 0x20 MUL PUSH1 0x20 ADD PUSH1 0x40 MLOAD SWAP1 DUP2 ADD PUSH1 0x40 MSTORE DUP1 SWAP3 SWAP2 SWAP1 DUP2 DUP2 MSTORE PUSH1 0x20 ADD PUSH1 0x0 SWAP1 JUMPDEST DUP3 DUP3 LT ISZERO PUSH2 0x4B7 JUMPI DUP4 DUP3 SWAP1 PUSH1 0x0 MSTORE PUSH1 0x20 PUSH1 0x0 KECCAK256 SWAP1 PUSH1 0x4 MUL ADD PUSH1 0x40 MLOAD DUP1 PUSH1 0x80 ADD PUSH1 0x40 MSTORE SWAP1 DUP2 PUSH1 0x0 DUP3 ADD DUP1 SLOAD PUSH2 0x3F7 SWAP1 PUSH2 0xC2B JUMP JUMPDEST DUP1 PUSH1 0x1F ADD PUSH1 0x20 DUP1 SWAP2 DIV MUL PUSH1 0x20 ADD PUSH1 0x40 MLOAD SWAP1 DUP2 ADD PUSH1 0x40 MSTORE DUP1 SWAP3 SWAP2 SWAP1 DUP2 DUP2 MSTORE PUSH1 0x20 ADD DUP3 DUP1 SLOAD PUSH2 0x423 SWAP1 PUSH2 0xC2B JUMP JUMPDEST DUP1 ISZERO PUSH2 0x470 JUMPI DUP1 PUSH1 0x1F LT PUSH2 0x445 JUMPI PUSH2 0x100 DUP1 DUP4 SLOAD DIV MUL DUP4 MSTORE SWAP2 PUSH1 0x20 ADD SWAP2 PUSH2 0x470 JUMP JUMPDEST DUP3 ADD SWAP2 SWAP1 PUSH1 0x0 MSTORE PUSH1 0x20 PUSH1 0x0 KECCAK256 SWAP1 JUMPDEST DUP2 SLOAD DUP2 MSTORE SWAP1 PUSH1 0x1 ADD SWAP1 PUSH1 0x20 ADD DUP1 DUP4 GT PUSH2 0x453 JUMPI DUP3 SWAP1 SUB PUSH1 0x1F AND DUP3 ADD SWAP2 JUMPDEST POP POP POP POP POP DUP2 MSTORE PUSH1 0x20 ADD PUSH1 0x1 DUP3 ADD PUSH1 0x0 SWAP1 SLOAD SWAP1 PUSH2 0x100 EXP SWAP1 DIV PUSH1 0xFF AND ISZERO ISZERO ISZERO ISZERO DUP2 MSTORE PUSH1 0x20 ADD PUSH1 0x2 DUP3 ADD SLOAD DUP2 MSTORE PUSH1 0x20 ADD PUSH1 0x3 DUP3 ADD SLOAD DUP2 MSTORE POP POP DUP2 MSTORE PUSH1 0x20 ADD SWAP1 PUSH1 0x1 ADD SWAP1 PUSH2 0x3C4 JUMP JUMPDEST POP POP POP POP SWAP1 POP SWAP1 JUMP JUMPDEST PUSH1 0x4 PUSH1 0x40 MLOAD DUP1 PUSH1 0x80 ADD PUSH1 0x40 MSTORE DUP1 DUP7 DUP2 MSTORE PUSH1 0x20 ADD DUP6 ISZERO ISZERO DUP2 MSTORE PUSH1 0x20 ADD DUP5 DUP2 MSTORE PUSH1 0x20 ADD DUP4 DUP2 MSTORE POP SWAP1 DUP1 PUSH1 0x1 DUP2 SLOAD ADD DUP1 DUP3 SSTORE DUP1 SWAP2 POP POP PUSH1 0x1 SWAP1 SUB SWAP1 PUSH1 0x0 MSTORE PUSH1 0x20 PUSH1 0x0 KECCAK256 SWAP1 PUSH1 0x4 MUL ADD PUSH1 0x0 SWAP1 SWAP2 SWAP1 SWAP2 SWAP1 SWAP2 POP PUSH1 0x0 DUP3 ADD MLOAD DUP2 PUSH1 0x0 ADD SWAP1 DUP2 PUSH2 0x523 SWAP2 SWAP1 PUSH2 0xE08 JUMP JUMPDEST POP PUSH1 0x20 DUP3 ADD MLOAD DUP2 PUSH1 0x1 ADD PUSH1 0x0 PUSH2 0x100 EXP DUP2 SLOAD DUP2 PUSH1 0xFF MUL NOT AND SWAP1 DUP4 ISZERO ISZERO MUL OR SWAP1 SSTORE POP PUSH1 0x40 DUP3 ADD MLOAD DUP2 PUSH1 0x2 ADD SSTORE PUSH1 0x60 DUP3 ADD MLOAD DUP2 PUSH1 0x3 ADD SSTORE POP POP POP POP POP POP JUMP JUMPDEST DUP4 PUSH1 0x0 DUP1 ADD SWAP1 DUP2 PUSH2 0x571 SWAP2 SWAP1 PUSH2 0xE08 JUMP JUMPDEST POP DUP3 PUSH1 0x0 PUSH1 0x1 ADD PUSH1 0x0 PUSH2 0x100 EXP DUP2 SLOAD DUP2 PUSH1 0xFF MUL NOT AND SWAP1 DUP4 ISZERO ISZERO MUL OR SWAP1 SSTORE POP DUP2 PUSH1 0x0 PUSH1 0x2 ADD DUP2 SWAP1 SSTORE POP DUP1 PUSH1 0x0 PUSH1 0x3 ADD DUP2 SWAP1 SSTORE POP POP POP POP POP JUMP JUMPDEST POP DUP1 SLOAD PUSH2 0x5B5 SWAP1 PUSH2 0xC2B JUMP JUMPDEST PUSH1 0x0 DUP3 SSTORE DUP1 PUSH1 0x1F LT PUSH2 0x5C7 JUMPI POP PUSH2 0x5E6 JUMP JUMPDEST PUSH1 0x1F ADD PUSH1 0x20 SWAP1 DIV SWAP1 PUSH1 0x0 MSTORE PUSH1 0x20 PUSH1 0x0 KECCAK256 SWAP1 DUP2 ADD SWAP1 PUSH2 0x5E5 SWAP2 SWAP1 PUSH2 0x613 JUMP JUMPDEST JUMPDEST POP JUMP JUMPDEST PUSH1 0x40 MLOAD DUP1 PUSH1 0x80 ADD PUSH1 0x40 MSTORE DUP1 PUSH1 0x60 DUP2 MSTORE PUSH1 0x20 ADD PUSH1 0x0 ISZERO ISZERO DUP2 MSTORE PUSH1 0x20 ADD PUSH1 0x0 DUP2 MSTORE PUSH1 0x20 ADD PUSH1 0x0 DUP2 MSTORE POP SWAP1 JUMP JUMPDEST JUMPDEST DUP1 DUP3 GT ISZERO PUSH2 0x62C JUMPI PUSH1 0x0 DUP2 PUSH1 0x0 SWAP1 SSTORE POP PUSH1 0x1 ADD PUSH2 0x614 JUMP JUMPDEST POP SWAP1 JUMP JUMPDEST PUSH1 0x0 PUSH1 0x40 MLOAD SWAP1 POP SWAP1 JUMP JUMPDEST PUSH1 0x0 DUP1 REVERT JUMPDEST PUSH1 0x0 DUP1 REVERT JUMPDEST PUSH1 0x0 DUP2 SWAP1 POP SWAP2 SWAP1 POP JUMP JUMPDEST PUSH2 0x657 DUP2 PUSH2 0x644 JUMP JUMPDEST DUP2 EQ PUSH2 0x662 JUMPI PUSH1 0x0 DUP1 REVERT JUMPDEST POP JUMP JUMPDEST PUSH1 0x0 DUP2 CALLDATALOAD SWAP1 POP PUSH2 0x674 DUP2 PUSH2 0x64E JUMP JUMPDEST SWAP3 SWAP2 POP POP JUMP JUMPDEST PUSH1 0x0 PUSH1 0x20 DUP3 DUP5 SUB SLT ISZERO PUSH2 0x690 JUMPI PUSH2 0x68F PUSH2 0x63A JUMP JUMPDEST JUMPDEST PUSH1 0x0 PUSH2 0x69E DUP5 DUP3 DUP6 ADD PUSH2 0x665 JUMP JUMPDEST SWAP2 POP POP SWAP3 SWAP2 POP POP JUMP JUMPDEST PUSH1 0x0 DUP2 MLOAD SWAP1 POP SWAP2 SWAP1 POP JUMP JUMPDEST PUSH1 0x0 DUP3 DUP3 MSTORE PUSH1 0x20 DUP3 ADD SWAP1 POP SWAP3 SWAP2 POP POP JUMP JUMPDEST PUSH1 0x0 JUMPDEST DUP4 DUP2 LT ISZERO PUSH2 0x6E1 JUMPI DUP1 DUP3 ADD MLOAD DUP2 DUP5 ADD MSTORE PUSH1 0x20 DUP2 ADD SWAP1 POP PUSH2 0x6C6 JUMP JUMPDEST PUSH1 0x0 DUP5 DUP5 ADD MSTORE POP POP POP POP JUMP JUMPDEST PUSH1 0x0 PUSH1 0x1F NOT PUSH1 0x1F DUP4 ADD AND SWAP1 POP SWAP2 SWAP1 POP JUMP JUMPDEST PUSH1 0x0 PUSH2 0x709 DUP3 PUSH2 0x6A7 JUMP JUMPDEST PUSH2 0x713 DUP2 DUP6 PUSH2 0x6B2 JUMP JUMPDEST SWAP4 POP PUSH2 0x723 DUP2 DUP6 PUSH1 0x20 DUP7 ADD PUSH2 0x6C3 JUMP JUMPDEST PUSH2 0x72C DUP2 PUSH2 0x6ED JUMP JUMPDEST DUP5 ADD SWAP2 POP POP SWAP3 SWAP2 POP POP JUMP JUMPDEST PUSH1 0x0 DUP2 ISZERO ISZERO SWAP1 POP SWAP2 SWAP1 POP JUMP JUMPDEST PUSH2 0x74C DUP2 PUSH2 0x737 JUMP JUMPDEST DUP3 MSTORE POP POP JUMP JUMPDEST PUSH2 0x75B DUP2 PUSH2 0x644 JUMP JUMPDEST DUP3 MSTORE POP POP JUMP JUMPDEST PUSH1 0x0 PUSH1 0x80 DUP4 ADD PUSH1 0x0 DUP4 ADD MLOAD DUP5 DUP3 SUB PUSH1 0x0 DUP7 ADD MSTORE PUSH2 0x77E DUP3 DUP3 PUSH2 0x6FE JUMP JUMPDEST SWAP2 POP POP PUSH1 0x20 DUP4 ADD MLOAD PUSH2 0x793 PUSH1 0x20 DUP7 ADD DUP3 PUSH2 0x743 JUMP JUMPDEST POP PUSH1 0x40 DUP4 ADD MLOAD PUSH2 0x7A6 PUSH1 0x40 DUP7 ADD DUP3 PUSH2 0x752 JUMP JUMPDEST POP PUSH1 0x60 DUP4 ADD MLOAD PUSH2 0x7B9 PUSH1 0x60 DUP7 ADD DUP3 PUSH2 0x752 JUMP JUMPDEST POP DUP1 SWAP2 POP POP SWAP3 SWAP2 POP POP JUMP JUMPDEST PUSH1 0x0 PUSH1 0x20 DUP3 ADD SWAP1 POP DUP2 DUP2 SUB PUSH1 0x0 DUP4 ADD MSTORE PUSH2 0x7DE DUP2 DUP5 PUSH2 0x761 JUMP JUMPDEST SWAP1 POP SWAP3 SWAP2 POP POP JUMP JUMPDEST PUSH2 0x7EF DUP2 PUSH2 0x644 JUMP JUMPDEST DUP3 MSTORE POP POP JUMP JUMPDEST PUSH1 0x0 PUSH1 0x20 DUP3 ADD SWAP1 POP PUSH2 0x80A PUSH1 0x0 DUP4 ADD DUP5 PUSH2 0x7E6 JUMP JUMPDEST SWAP3 SWAP2 POP POP JUMP JUMPDEST PUSH1 0x0 DUP2 MLOAD SWAP1 POP SWAP2 SWAP1 POP JUMP JUMPDEST PUSH1 0x0 DUP3 DUP3 MSTORE PUSH1 0x20 DUP3 ADD SWAP1 POP SWAP3 SWAP2 POP POP JUMP JUMPDEST PUSH1 0x0 DUP2 SWAP1 POP PUSH1 0x20 DUP3 ADD SWAP1 POP SWAP2 SWAP1 POP JUMP JUMPDEST PUSH1 0x0 PUSH1 0x80 DUP4 ADD PUSH1 0x0 DUP4 ADD MLOAD DUP5 DUP3 SUB PUSH1 0x0 DUP7 ADD MSTORE PUSH2 0x859 DUP3 DUP3 PUSH2 0x6FE JUMP JUMPDEST SWAP2 POP POP PUSH1 0x20 DUP4 ADD MLOAD PUSH2 0x86E PUSH1 0x20 DUP7 ADD DUP3 PUSH2 0x743 JUMP JUMPDEST POP PUSH1 0x40 DUP4 ADD MLOAD PUSH2 0x881 PUSH1 0x40 DUP7 ADD DUP3 PUSH2 0x752 JUMP JUMPDEST POP PUSH1 0x60 DUP4 ADD MLOAD PUSH2 0x894 PUSH1 0x60 DUP7 ADD DUP3 PUSH2 0x752 JUMP JUMPDEST POP DUP1 SWAP2 POP POP SWAP3 SWAP2 POP POP JUMP JUMPDEST PUSH1 0x0 PUSH2 0x8AB DUP4 DUP4 PUSH2 0x83C JUMP JUMPDEST SWAP1 POP SWAP3 SWAP2 POP POP JUMP JUMPDEST PUSH1 0x0 PUSH1 0x20 DUP3 ADD SWAP1 POP SWAP2 SWAP1 POP JUMP JUMPDEST PUSH1 0x0 PUSH2 0x8CB DUP3 PUSH2 0x810 JUMP JUMPDEST PUSH2 0x8D5 DUP2 DUP6 PUSH2 0x81B JUMP JUMPDEST SWAP4 POP DUP4 PUSH1 0x20 DUP3 MUL DUP6 ADD PUSH2 0x8E7 DUP6 PUSH2 0x82C JUMP JUMPDEST DUP1 PUSH1 0x0 JUMPDEST DUP6 DUP2 LT ISZERO PUSH2 0x923 JUMPI DUP5 DUP5 SUB DUP10 MSTORE DUP2 MLOAD PUSH2 0x904 DUP6 DUP3 PUSH2 0x89F JUMP JUMPDEST SWAP5 POP PUSH2 0x90F DUP4 PUSH2 0x8B3 JUMP JUMPDEST SWAP3 POP PUSH1 0x20 DUP11 ADD SWAP10 POP POP PUSH1 0x1 DUP2 ADD SWAP1 POP PUSH2 0x8EB JUMP JUMPDEST POP DUP3 SWAP8 POP DUP8 SWAP6 POP POP POP POP POP POP SWAP3 SWAP2 POP POP JUMP JUMPDEST PUSH1 0x0 PUSH1 0x20 DUP3 ADD SWAP1 POP DUP2 DUP2 SUB PUSH1 0x0 DUP4 ADD MSTORE PUSH2 0x94F DUP2 DUP5 PUSH2 0x8C0 JUMP JUMPDEST SWAP1 POP SWAP3 SWAP2 POP POP JUMP JUMPDEST PUSH1 0x0 DUP1 REVERT JUMPDEST PUSH1 0x0 DUP1 REVERT JUMPDEST PUSH32 0x4E487B7100000000000000000000000000000000000000000000000000000000 PUSH1 0x0 MSTORE PUSH1 0x41 PUSH1 0x4 MSTORE PUSH1 0x24 PUSH1 0x0 REVERT JUMPDEST PUSH2 0x999 DUP3 PUSH2 0x6ED JUMP JUMPDEST DUP2 ADD DUP2 DUP2 LT PUSH8 0xFFFFFFFFFFFFFFFF DUP3 GT OR ISZERO PUSH2 0x9B8 JUMPI PUSH2 0x9B7 PUSH2 0x961 JUMP JUMPDEST JUMPDEST DUP1 PUSH1 0x40 MSTORE POP POP POP JUMP JUMPDEST PUSH1 0x0 PUSH2 0x9CB PUSH2 0x630 JUMP JUMPDEST SWAP1 POP PUSH2 0x9D7 DUP3 DUP3 PUSH2 0x990 JUMP JUMPDEST SWAP2 SWAP1 POP JUMP JUMPDEST PUSH1 0x0 PUSH8 0xFFFFFFFFFFFFFFFF DUP3 GT ISZERO PUSH2 0x9F7 JUMPI PUSH2 0x9F6 PUSH2 0x961 JUMP JUMPDEST JUMPDEST PUSH2 0xA00 DUP3 PUSH2 0x6ED JUMP JUMPDEST SWAP1 POP PUSH1 0x20 DUP2 ADD SWAP1 POP SWAP2 SWAP1 POP JUMP JUMPDEST DUP3 DUP2 DUP4 CALLDATACOPY PUSH1 0x0 DUP4 DUP4 ADD MSTORE POP POP POP JUMP JUMPDEST PUSH1 0x0 PUSH2 0xA2F PUSH2 0xA2A DUP5 PUSH2 0x9DC JUMP JUMPDEST PUSH2 0x9C1 JUMP JUMPDEST SWAP1 POP DUP3 DUP2 MSTORE PUSH1 0x20 DUP2 ADD DUP5 DUP5 DUP5 ADD GT ISZERO PUSH2 0xA4B JUMPI PUSH2 0xA4A PUSH2 0x95C JUMP JUMPDEST JUMPDEST PUSH2 0xA56 DUP5 DUP3 DUP6 PUSH2 0xA0D JUMP JUMPDEST POP SWAP4 SWAP3 POP POP POP JUMP JUMPDEST PUSH1 0x0 DUP3 PUSH1 0x1F DUP4 ADD SLT PUSH2 0xA73 JUMPI PUSH2 0xA72 PUSH2 0x957 JUMP JUMPDEST JUMPDEST DUP2 CALLDATALOAD PUSH2 0xA83 DUP5 DUP3 PUSH1 0x20 DUP7 ADD PUSH2 0xA1C JUMP JUMPDEST SWAP2 POP POP SWAP3 SWAP2 POP POP JUMP JUMPDEST PUSH2 0xA95 DUP2 PUSH2 0x737 JUMP JUMPDEST DUP2 EQ PUSH2 0xAA0 JUMPI PUSH1 0x0 DUP1 REVERT JUMPDEST POP JUMP JUMPDEST PUSH1 0x0 DUP2 CALLDATALOAD SWAP1 POP PUSH2 0xAB2 DUP2 PUSH2 0xA8C JUMP JUMPDEST SWAP3 SWAP2 POP POP JUMP JUMPDEST PUSH1 0x0 DUP1 PUSH1 0x0 DUP1 PUSH1 0x80 DUP6 DUP8 SUB SLT ISZERO PUSH2 0xAD2 JUMPI PUSH2 0xAD1 PUSH2 0x63A JUMP JUMPDEST JUMPDEST PUSH1 0x0 DUP6 ADD CALLDATALOAD PUSH8 0xFFFFFFFFFFFFFFFF DUP2 GT ISZERO PUSH2 0xAF0 JUMPI PUSH2 0xAEF PUSH2 0x63F JUMP JUMPDEST JUMPDEST PUSH2 0xAFC DUP8 DUP3 DUP9 ADD PUSH2 0xA5E JUMP JUMPDEST SWAP5 POP POP PUSH1 0x20 PUSH2 0xB0D DUP8 DUP3 DUP9 ADD PUSH2 0xAA3 JUMP JUMPDEST SWAP4 POP POP PUSH1 0x40 PUSH2 0xB1E DUP8 DUP3 DUP9 ADD PUSH2 0x665 JUMP JUMPDEST SWAP3 POP POP PUSH1 0x60 PUSH2 0xB2F DUP8 DUP3 DUP9 ADD PUSH2 0x665 JUMP JUMPDEST SWAP2 POP POP SWAP3 SWAP6 SWAP2 SWAP5 POP SWAP3 POP JUMP JUMPDEST PUSH32 0x4E487B7100000000000000000000000000000000000000000000000000000000 PUSH1 0x0 MSTORE PUSH1 0x31 PUSH1 0x4 MSTORE PUSH1 0x24 PUSH1 0x0 REVERT JUMPDEST PUSH32 0x4E487B7100000000000000000000000000000000000000000000000000000000 PUSH1 0x0 MSTORE PUSH1 0x11 PUSH1 0x4 MSTORE PUSH1 0x24 PUSH1 0x0 REVERT JUMPDEST PUSH1 0x0 PUSH2 0xBA4 DUP3 PUSH2 0x644 JUMP JUMPDEST SWAP2 POP PUSH2 0xBAF DUP4 PUSH2 0x644 JUMP JUMPDEST SWAP3 POP DUP3 DUP3 SUB SWAP1 POP DUP2 DUP2 GT ISZERO PUSH2 0xBC7 JUMPI PUSH2 0xBC6 PUSH2 0xB6A JUMP JUMPDEST JUMPDEST SWAP3 SWAP2 POP POP JUMP JUMPDEST PUSH32 0x4E487B7100000000000000000000000000000000000000000000000000000000 PUSH1 0x0 MSTORE PUSH1 0x32 PUSH1 0x4 MSTORE PUSH1 0x24 PUSH1 0x0 REVERT JUMPDEST PUSH32 0x4E487B7100000000000000000000000000000000000000000000000000000000 PUSH1 0x0 MSTORE PUSH1 0x22 PUSH1 0x4 MSTORE PUSH1 0x24 PUSH1 0x0 REVERT JUMPDEST PUSH1 0x0 PUSH1 0x2 DUP3 DIV SWAP1 POP PUSH1 0x1 DUP3 AND DUP1 PUSH2 0xC43 JUMPI PUSH1 0x7F DUP3 AND SWAP2 POP JUMPDEST PUSH1 0x20 DUP3 LT DUP2 SUB PUSH2 0xC56 JUMPI PUSH2 0xC55 PUSH2 0xBFC JUMP JUMPDEST JUMPDEST POP SWAP2 SWAP1 POP JUMP JUMPDEST PUSH1 0x0 DUP2 SWAP1 POP DUP2 PUSH1 0x0 MSTORE PUSH1 0x20 PUSH1 0x0 KECCAK256 SWAP1 POP SWAP2 SWAP1 POP JUMP JUMPDEST PUSH1 0x0 PUSH1 0x20 PUSH1 0x1F DUP4 ADD DIV SWAP1 POP SWAP2 SWAP1 POP JUMP JUMPDEST PUSH1 0x0 DUP3 DUP3 SHL SWAP1 POP SWAP3 SWAP2 POP POP JUMP JUMPDEST PUSH1 0x0 PUSH1 0x8 DUP4 MUL PUSH2 0xCBE PUSH32 0xFFFFFFFFFFFFFFFFFFFFFFFFFFFFFFFFFFFFFFFFFFFFFFFFFFFFFFFFFFFFFFFF DUP3 PUSH2 0xC81 JUMP JUMPDEST PUSH2 0xCC8 DUP7 DUP4 PUSH2 0xC81 JUMP JUMPDEST SWAP6 POP DUP1 NOT DUP5 AND SWAP4 POP DUP1 DUP7 AND DUP5 OR SWAP3 POP POP POP SWAP4 SWAP3 POP POP POP JUMP JUMPDEST PUSH1 0x0 DUP2 SWAP1 POP SWAP2 SWAP1 POP JUMP JUMPDEST PUSH1 0x0 PUSH2 0xD05 PUSH2 0xD00 PUSH2 0xCFB DUP5 PUSH2 0x644 JUMP JUMPDEST PUSH2 0xCE0 JUMP JUMPDEST PUSH2 0x644 JUMP JUMPDEST SWAP1 POP SWAP2 SWAP1 POP JUMP JUMPDEST PUSH1 0x0 DUP2 SWAP1 POP SWAP2 SWAP1 POP JUMP JUMPDEST PUSH2 0xD1F DUP4 PUSH2 0xCEA JUMP JUMPDEST PUSH2 0xD33 PUSH2 0xD2B DUP3 PUSH2 0xD0C JUMP JUMPDEST DUP5 DUP5 SLOAD PUSH2 0xC8E JUMP JUMPDEST DUP3 SSTORE POP POP POP POP JUMP JUMPDEST PUSH1 0x0 SWAP1 JUMP JUMPDEST PUSH2 0xD48 PUSH2 0xD3B JUMP JUMPDEST PUSH2 0xD53 DUP2 DUP5 DUP5 PUSH2 0xD16 JUMP JUMPDEST POP POP POP JUMP JUMPDEST JUMPDEST DUP2 DUP2 LT ISZERO PUSH2 0xD77 JUMPI PUSH2 0xD6C PUSH1 0x0 DUP3 PUSH2 0xD40 JUMP JUMPDEST PUSH1 0x1 DUP2 ADD SWAP1 POP PUSH2 0xD59 JUMP JUMPDEST POP POP JUMP JUMPDEST PUSH1 0x1F DUP3 GT ISZERO PUSH2 0xDBC JUMPI PUSH2 0xD8D DUP2 PUSH2 0xC5C JUMP JUMPDEST PUSH2 0xD96 DUP5 PUSH2 0xC71 JUMP JUMPDEST DUP2 ADD PUSH1 0x20 DUP6 LT ISZERO PUSH2 0xDA5 JUMPI DUP2 SWAP1 POP JUMPDEST PUSH2 0xDB9 PUSH2 0xDB1 DUP6 PUSH2 0xC71 JUMP JUMPDEST DUP4 ADD DUP3 PUSH2 0xD58 JUMP JUMPDEST POP POP JUMPDEST POP POP POP JUMP JUMPDEST PUSH1 0x0 DUP3 DUP3 SHR SWAP1 POP SWAP3 SWAP2 POP POP JUMP JUMPDEST PUSH1 0x0 PUSH2 0xDDF PUSH1 0x0 NOT DUP5 PUSH1 0x8 MUL PUSH2 0xDC1 JUMP JUMPDEST NOT DUP1 DUP4 AND SWAP2 POP POP SWAP3 SWAP2 POP POP JUMP JUMPDEST PUSH1 0x0 PUSH2 0xDF8 DUP4 DUP4 PUSH2 0xDCE JUMP JUMPDEST SWAP2 POP DUP3 PUSH1 0x2 MUL DUP3 OR SWAP1 POP SWAP3 SWAP2 POP POP JUMP JUMPDEST PUSH2 0xE11 DUP3 PUSH2 0x6A7 JUMP JUMPDEST PUSH8 0xFFFFFFFFFFFFFFFF DUP2 GT ISZERO PUSH2 0xE2A JUMPI PUSH2 0xE29 PUSH2 0x961 JUMP JUMPDEST JUMPDEST PUSH2 0xE34 DUP3 SLOAD PUSH2 0xC2B JUMP JUMPDEST PUSH2 0xE3F DUP3 DUP3 DUP6 PUSH2 0xD7B JUMP JUMPDEST PUSH1 0x0 PUSH1 0x20 SWAP1 POP PUSH1 0x1F DUP4 GT PUSH1 0x1 DUP2 EQ PUSH2 0xE72 JUMPI PUSH1 0x0 DUP5 ISZERO PUSH2 0xE60 JUMPI DUP3 DUP8 ADD MLOAD SWAP1 POP JUMPDEST PUSH2 0xE6A DUP6 DUP3 PUSH2 0xDEC JUMP JUMPDEST DUP7 SSTORE POP PUSH2 0xED2 JUMP JUMPDEST PUSH1 0x1F NOT DUP5 AND PUSH2 0xE80 DUP7 PUSH2 0xC5C JUMP JUMPDEST PUSH1 0x0 JUMPDEST DUP3 DUP2 LT ISZERO PUSH2 0xEA8 JUMPI DUP5 DUP10 ADD MLOAD DUP3 SSTORE PUSH1 0x1 DUP3 ADD SWAP2 POP PUSH1 0x20 DUP6 ADD SWAP5 POP PUSH1 0x20 DUP2 ADD SWAP1 POP PUSH2 0xE83 JUMP JUMPDEST DUP7 DUP4 LT ISZERO PUSH2 0xEC5 JUMPI DUP5 DUP10 ADD MLOAD PUSH2 0xEC1 PUSH1 0x1F DUP10 AND DUP3 PUSH2 0xDCE JUMP JUMPDEST DUP4 SSTORE POP JUMPDEST PUSH1 0x1 PUSH1 0x2 DUP9 MUL ADD DUP9 SSTORE POP POP POP JUMPDEST POP POP POP POP POP POP JUMP INVALID LOG2 PUSH5 0x6970667358 0x22 SLT KECCAK256 PUSH26 0xE3CF170B7FC926CB7E45331DC12D0B5E89C13E4E26EEB4578A1E ORIGIN CREATE PUSH8 0x305164736F6C6343 STOP ADDMOD SLT STOP CALLER "
				},
				"gasEstimates": {
					"creation": {
						"codeDepositCost": "771200",
						"executionCost": "805",
						"totalCost": "772005"
					},
					"external": {
						"getLength()": "2445",
						"getStudent()": "infinite",
						"getStudent(uint256)": "infinite",
						"getStudents()": "infinite",
						"popStudent()": "infinite",
						"pushStudent(string,bool,uint256,uint256)": "infinite",
						"setStudent(string,bool,uint256,uint256)": "infinite"
					}
				},
				"methodIdentifiers": {
					"getLength()": "be1c766b",
					"getStudent()": "b439548d",
					"getStudent(uint256)": "642f9163",
					"getStudents()": "f1d064b3",
					"popStudent()": "41571887",
					"pushStudent(string,bool,uint256,uint256)": "fb8f686c",
					"setStudent(string,bool,uint256,uint256)": "fc4b6863"
				}
			},
			"storageLayout": {
				"storage": [
					{
						"astId": 46,
						"contract": "contracts/230504/5_Struct.sol:QUIZ",
						"label": "s",
						"offset": 0,
						"slot": "0",
						"type": "t_struct(Student)43_storage"
					},
					{
						"astId": 50,
						"contract": "contracts/230504/5_Struct.sol:QUIZ",
						"label": "students",
						"offset": 0,
						"slot": "4",
						"type": "t_array(t_struct(Student)43_storage)dyn_storage"
					}
				],
				"types": {
					"t_array(t_struct(Student)43_storage)dyn_storage": {
						"base": "t_struct(Student)43_storage",
						"encoding": "dynamic_array",
						"label": "struct QUIZ.Student[]",
						"numberOfBytes": "32"
					},
					"t_bool": {
						"encoding": "inplace",
						"label": "bool",
						"numberOfBytes": "1"
					},
					"t_string_storage": {
						"encoding": "bytes",
						"label": "string",
						"numberOfBytes": "32"
					},
					"t_struct(Student)43_storage": {
						"encoding": "inplace",
						"label": "struct QUIZ.Student",
						"members": [
							{
								"astId": 36,
								"contract": "contracts/230504/5_Struct.sol:QUIZ",
								"label": "name",
								"offset": 0,
								"slot": "0",
								"type": "t_string_storage"
							},
							{
								"astId": 38,
								"contract": "contracts/230504/5_Struct.sol:QUIZ",
								"label": "isMale",
								"offset": 0,
								"slot": "1",
								"type": "t_bool"
							},
							{
								"astId": 40,
								"contract": "contracts/230504/5_Struct.sol:QUIZ",
								"label": "number",
								"offset": 0,
								"slot": "2",
								"type": "t_uint256"
							},
							{
								"astId": 42,
								"contract": "contracts/230504/5_Struct.sol:QUIZ",
								"label": "birth",
								"offset": 0,
								"slot": "3",
								"type": "t_uint256"
							}
						],
						"numberOfBytes": "128"
					},
					"t_uint256": {
						"encoding": "inplace",
						"label": "uint256",
						"numberOfBytes": "32"
					}
				}
			},
			"userdoc": {
				"kind": "user",
				"methods": {},
				"version": 1
			}
		}
	}
}