{
	"contracts/230504/2_Bytes.sol": {
		"BYTES": {
			"abi": [
				{
					"inputs": [],
					"name": "getABCD",
					"outputs": [
						{
							"internalType": "bytes",
							"name": "",
							"type": "bytes"
						},
						{
							"internalType": "bytes1",
							"name": "",
							"type": "bytes1"
						},
						{
							"internalType": "bytes2",
							"name": "",
							"type": "bytes2"
						},
						{
							"internalType": "bytes32",
							"name": "",
							"type": "bytes32"
						}
					],
					"stateMutability": "view",
					"type": "function"
				},
				{
					"inputs": [],
					"name": "getE",
					"outputs": [
						{
							"internalType": "bytes",
							"name": "",
							"type": "bytes"
						}
					],
					"stateMutability": "view",
					"type": "function"
				},
				{
					"inputs": [
						{
							"internalType": "bytes",
							"name": "_a",
							"type": "bytes"
						},
						{
							"internalType": "bytes1",
							"name": "_b",
							"type": "bytes1"
						},
						{
							"internalType": "bytes2",
							"name": "_c",
							"type": "bytes2"
						},
						{
							"internalType": "bytes32",
							"name": "_d",
							"type": "bytes32"
						}
					],
					"name": "setABCD",
					"outputs": [],
					"stateMutability": "nonpayable",
					"type": "function"
				}
			],
			"devdoc": {
				"kind": "dev",
				"methods": {},
				"version": 1
			},
			"evm": {
				"assembly": "    /* \"contracts/230504/2_Bytes.sol\":764:1431  contract BYTES {... */\n  mstore(0x40, 0x80)\n    /* \"contracts/230504/2_Bytes.sol\":1043:1060  bytes e = \"hello\" */\n  mload(0x40)\n  dup1\n  0x40\n  add\n  0x40\n  mstore\n  dup1\n  0x05\n  dup2\n  mstore\n  0x20\n  add\n  0x68656c6c6f000000000000000000000000000000000000000000000000000000\n  dup2\n  mstore\n  pop\n  0x03\n  swap1\n  dup2\n  tag_1\n  swap2\n  swap1\n  tag_2\n  jump\t// in\ntag_1:\n  pop\n    /* \"contracts/230504/2_Bytes.sol\":764:1431  contract BYTES {... */\n  callvalue\n  dup1\n  iszero\n  tag_3\n  jumpi\n  0x00\n  dup1\n  revert\ntag_3:\n  pop\n  jump(tag_4)\n    /* \"#utility.yul\":7:106   */\ntag_5:\n    /* \"#utility.yul\":59:65   */\n  0x00\n    /* \"#utility.yul\":93:98   */\n  dup2\n    /* \"#utility.yul\":87:99   */\n  mload\n    /* \"#utility.yul\":77:99   */\n  swap1\n  pop\n    /* \"#utility.yul\":7:106   */\n  swap2\n  swap1\n  pop\n  jump\t// out\n    /* \"#utility.yul\":112:292   */\ntag_6:\n    /* \"#utility.yul\":160:237   */\n  0x4e487b7100000000000000000000000000000000000000000000000000000000\n    /* \"#utility.yul\":157:158   */\n  0x00\n    /* \"#utility.yul\":150:238   */\n  mstore\n    /* \"#utility.yul\":257:261   */\n  0x41\n    /* \"#utility.yul\":254:255   */\n  0x04\n    /* \"#utility.yul\":247:262   */\n  mstore\n    /* \"#utility.yul\":281:285   */\n  0x24\n    /* \"#utility.yul\":278:279   */\n  0x00\n    /* \"#utility.yul\":271:286   */\n  revert\n    /* \"#utility.yul\":298:478   */\ntag_7:\n    /* \"#utility.yul\":346:423   */\n  0x4e487b7100000000000000000000000000000000000000000000000000000000\n    /* \"#utility.yul\":343:344   */\n  0x00\n    /* \"#utility.yul\":336:424   */\n  mstore\n    /* \"#utility.yul\":443:447   */\n  0x22\n    /* \"#utility.yul\":440:441   */\n  0x04\n    /* \"#utility.yul\":433:448   */\n  mstore\n    /* \"#utility.yul\":467:471   */\n  0x24\n    /* \"#utility.yul\":464:465   */\n  0x00\n    /* \"#utility.yul\":457:472   */\n  revert\n    /* \"#utility.yul\":484:804   */\ntag_8:\n    /* \"#utility.yul\":528:534   */\n  0x00\n    /* \"#utility.yul\":565:566   */\n  0x02\n    /* \"#utility.yul\":559:563   */\n  dup3\n    /* \"#utility.yul\":555:567   */\n  div\n    /* \"#utility.yul\":545:567   */\n  swap1\n  pop\n    /* \"#utility.yul\":612:613   */\n  0x01\n    /* \"#utility.yul\":606:610   */\n  dup3\n    /* \"#utility.yul\":602:614   */\n  and\n    /* \"#utility.yul\":633:651   */\n  dup1\n    /* \"#utility.yul\":623:704   */\n  tag_30\n  jumpi\n    /* \"#utility.yul\":689:693   */\n  0x7f\n    /* \"#utility.yul\":681:687   */\n  dup3\n    /* \"#utility.yul\":677:694   */\n  and\n    /* \"#utility.yul\":667:694   */\n  swap2\n  pop\n    /* \"#utility.yul\":623:704   */\ntag_30:\n    /* \"#utility.yul\":751:753   */\n  0x20\n    /* \"#utility.yul\":743:749   */\n  dup3\n    /* \"#utility.yul\":740:754   */\n  lt\n    /* \"#utility.yul\":720:738   */\n  dup2\n    /* \"#utility.yul\":717:755   */\n  sub\n    /* \"#utility.yul\":714:798   */\n  tag_31\n  jumpi\n    /* \"#utility.yul\":770:788   */\n  tag_32\n  tag_7\n  jump\t// in\ntag_32:\n    /* \"#utility.yul\":714:798   */\ntag_31:\n    /* \"#utility.yul\":535:804   */\n  pop\n    /* \"#utility.yul\":484:804   */\n  swap2\n  swap1\n  pop\n  jump\t// out\n    /* \"#utility.yul\":810:950   */\ntag_9:\n    /* \"#utility.yul\":858:862   */\n  0x00\n    /* \"#utility.yul\":881:884   */\n  dup2\n    /* \"#utility.yul\":873:884   */\n  swap1\n  pop\n    /* \"#utility.yul\":904:907   */\n  dup2\n    /* \"#utility.yul\":901:902   */\n  0x00\n    /* \"#utility.yul\":894:908   */\n  mstore\n    /* \"#utility.yul\":938:942   */\n  0x20\n    /* \"#utility.yul\":935:936   */\n  0x00\n    /* \"#utility.yul\":925:943   */\n  keccak256\n    /* \"#utility.yul\":917:943   */\n  swap1\n  pop\n    /* \"#utility.yul\":810:950   */\n  swap2\n  swap1\n  pop\n  jump\t// out\n    /* \"#utility.yul\":956:1049   */\ntag_10:\n    /* \"#utility.yul\":993:999   */\n  0x00\n    /* \"#utility.yul\":1040:1042   */\n  0x20\n    /* \"#utility.yul\":1035:1037   */\n  0x1f\n    /* \"#utility.yul\":1028:1033   */\n  dup4\n    /* \"#utility.yul\":1024:1038   */\n  add\n    /* \"#utility.yul\":1020:1043   */\n  div\n    /* \"#utility.yul\":1010:1043   */\n  swap1\n  pop\n    /* \"#utility.yul\":956:1049   */\n  swap2\n  swap1\n  pop\n  jump\t// out\n    /* \"#utility.yul\":1055:1162   */\ntag_11:\n    /* \"#utility.yul\":1099:1107   */\n  0x00\n    /* \"#utility.yul\":1149:1154   */\n  dup3\n    /* \"#utility.yul\":1143:1147   */\n  dup3\n    /* \"#utility.yul\":1139:1155   */\n  shl\n    /* \"#utility.yul\":1118:1155   */\n  swap1\n  pop\n    /* \"#utility.yul\":1055:1162   */\n  swap3\n  swap2\n  pop\n  pop\n  jump\t// out\n    /* \"#utility.yul\":1168:1561   */\ntag_12:\n    /* \"#utility.yul\":1237:1243   */\n  0x00\n    /* \"#utility.yul\":1287:1288   */\n  0x08\n    /* \"#utility.yul\":1275:1285   */\n  dup4\n    /* \"#utility.yul\":1271:1289   */\n  mul\n    /* \"#utility.yul\":1310:1407   */\n  tag_37\n    /* \"#utility.yul\":1340:1406   */\n  0xffffffffffffffffffffffffffffffffffffffffffffffffffffffffffffffff\n    /* \"#utility.yul\":1329:1338   */\n  dup3\n    /* \"#utility.yul\":1310:1407   */\n  tag_11\n  jump\t// in\ntag_37:\n    /* \"#utility.yul\":1428:1467   */\n  tag_38\n    /* \"#utility.yul\":1458:1466   */\n  dup7\n    /* \"#utility.yul\":1447:1456   */\n  dup4\n    /* \"#utility.yul\":1428:1467   */\n  tag_11\n  jump\t// in\ntag_38:\n    /* \"#utility.yul\":1416:1467   */\n  swap6\n  pop\n    /* \"#utility.yul\":1500:1504   */\n  dup1\n    /* \"#utility.yul\":1496:1505   */\n  not\n    /* \"#utility.yul\":1489:1494   */\n  dup5\n    /* \"#utility.yul\":1485:1506   */\n  and\n    /* \"#utility.yul\":1476:1506   */\n  swap4\n  pop\n    /* \"#utility.yul\":1549:1553   */\n  dup1\n    /* \"#utility.yul\":1539:1547   */\n  dup7\n    /* \"#utility.yul\":1535:1554   */\n  and\n    /* \"#utility.yul\":1528:1533   */\n  dup5\n    /* \"#utility.yul\":1525:1555   */\n  or\n    /* \"#utility.yul\":1515:1555   */\n  swap3\n  pop\n    /* \"#utility.yul\":1244:1561   */\n  pop\n  pop\n    /* \"#utility.yul\":1168:1561   */\n  swap4\n  swap3\n  pop\n  pop\n  pop\n  jump\t// out\n    /* \"#utility.yul\":1567:1644   */\ntag_13:\n    /* \"#utility.yul\":1604:1611   */\n  0x00\n    /* \"#utility.yul\":1633:1638   */\n  dup2\n    /* \"#utility.yul\":1622:1638   */\n  swap1\n  pop\n    /* \"#utility.yul\":1567:1644   */\n  swap2\n  swap1\n  pop\n  jump\t// out\n    /* \"#utility.yul\":1650:1710   */\ntag_14:\n    /* \"#utility.yul\":1678:1681   */\n  0x00\n    /* \"#utility.yul\":1699:1704   */\n  dup2\n    /* \"#utility.yul\":1692:1704   */\n  swap1\n  pop\n    /* \"#utility.yul\":1650:1710   */\n  swap2\n  swap1\n  pop\n  jump\t// out\n    /* \"#utility.yul\":1716:1858   */\ntag_15:\n    /* \"#utility.yul\":1766:1775   */\n  0x00\n    /* \"#utility.yul\":1799:1852   */\n  tag_42\n    /* \"#utility.yul\":1817:1851   */\n  tag_43\n    /* \"#utility.yul\":1826:1850   */\n  tag_44\n    /* \"#utility.yul\":1844:1849   */\n  dup5\n    /* \"#utility.yul\":1826:1850   */\n  tag_13\n  jump\t// in\ntag_44:\n    /* \"#utility.yul\":1817:1851   */\n  tag_14\n  jump\t// in\ntag_43:\n    /* \"#utility.yul\":1799:1852   */\n  tag_13\n  jump\t// in\ntag_42:\n    /* \"#utility.yul\":1786:1852   */\n  swap1\n  pop\n    /* \"#utility.yul\":1716:1858   */\n  swap2\n  swap1\n  pop\n  jump\t// out\n    /* \"#utility.yul\":1864:1939   */\ntag_16:\n    /* \"#utility.yul\":1907:1910   */\n  0x00\n    /* \"#utility.yul\":1928:1933   */\n  dup2\n    /* \"#utility.yul\":1921:1933   */\n  swap1\n  pop\n    /* \"#utility.yul\":1864:1939   */\n  swap2\n  swap1\n  pop\n  jump\t// out\n    /* \"#utility.yul\":1945:2214   */\ntag_17:\n    /* \"#utility.yul\":2055:2094   */\n  tag_47\n    /* \"#utility.yul\":2086:2093   */\n  dup4\n    /* \"#utility.yul\":2055:2094   */\n  tag_15\n  jump\t// in\ntag_47:\n    /* \"#utility.yul\":2116:2207   */\n  tag_48\n    /* \"#utility.yul\":2165:2206   */\n  tag_49\n    /* \"#utility.yul\":2189:2205   */\n  dup3\n    /* \"#utility.yul\":2165:2206   */\n  tag_16\n  jump\t// in\ntag_49:\n    /* \"#utility.yul\":2157:2163   */\n  dup5\n    /* \"#utility.yul\":2150:2154   */\n  dup5\n    /* \"#utility.yul\":2144:2155   */\n  sload\n    /* \"#utility.yul\":2116:2207   */\n  tag_12\n  jump\t// in\ntag_48:\n    /* \"#utility.yul\":2110:2114   */\n  dup3\n    /* \"#utility.yul\":2103:2208   */\n  sstore\n    /* \"#utility.yul\":2021:2214   */\n  pop\n    /* \"#utility.yul\":1945:2214   */\n  pop\n  pop\n  pop\n  jump\t// out\n    /* \"#utility.yul\":2220:2293   */\ntag_18:\n    /* \"#utility.yul\":2265:2268   */\n  0x00\n    /* \"#utility.yul\":2220:2293   */\n  swap1\n  jump\t// out\n    /* \"#utility.yul\":2299:2488   */\ntag_19:\n    /* \"#utility.yul\":2376:2408   */\n  tag_52\n  tag_18\n  jump\t// in\ntag_52:\n    /* \"#utility.yul\":2417:2482   */\n  tag_53\n    /* \"#utility.yul\":2475:2481   */\n  dup2\n    /* \"#utility.yul\":2467:2473   */\n  dup5\n    /* \"#utility.yul\":2461:2465   */\n  dup5\n    /* \"#utility.yul\":2417:2482   */\n  tag_17\n  jump\t// in\ntag_53:\n    /* \"#utility.yul\":2352:2488   */\n  pop\n    /* \"#utility.yul\":2299:2488   */\n  pop\n  pop\n  jump\t// out\n    /* \"#utility.yul\":2494:2680   */\ntag_20:\n    /* \"#utility.yul\":2554:2674   */\ntag_55:\n    /* \"#utility.yul\":2571:2574   */\n  dup2\n    /* \"#utility.yul\":2564:2569   */\n  dup2\n    /* \"#utility.yul\":2561:2575   */\n  lt\n    /* \"#utility.yul\":2554:2674   */\n  iszero\n  tag_57\n  jumpi\n    /* \"#utility.yul\":2625:2664   */\n  tag_58\n    /* \"#utility.yul\":2662:2663   */\n  0x00\n    /* \"#utility.yul\":2655:2660   */\n  dup3\n    /* \"#utility.yul\":2625:2664   */\n  tag_19\n  jump\t// in\ntag_58:\n    /* \"#utility.yul\":2598:2599   */\n  0x01\n    /* \"#utility.yul\":2591:2596   */\n  dup2\n    /* \"#utility.yul\":2587:2600   */\n  add\n    /* \"#utility.yul\":2578:2600   */\n  swap1\n  pop\n    /* \"#utility.yul\":2554:2674   */\n  jump(tag_55)\ntag_57:\n    /* \"#utility.yul\":2494:2680   */\n  pop\n  pop\n  jump\t// out\n    /* \"#utility.yul\":2686:3227   */\ntag_21:\n    /* \"#utility.yul\":2786:2788   */\n  0x1f\n    /* \"#utility.yul\":2781:2784   */\n  dup3\n    /* \"#utility.yul\":2778:2789   */\n  gt\n    /* \"#utility.yul\":2775:3220   */\n  iszero\n  tag_60\n  jumpi\n    /* \"#utility.yul\":2820:2857   */\n  tag_61\n    /* \"#utility.yul\":2851:2856   */\n  dup2\n    /* \"#utility.yul\":2820:2857   */\n  tag_9\n  jump\t// in\ntag_61:\n    /* \"#utility.yul\":2903:2932   */\n  tag_62\n    /* \"#utility.yul\":2921:2931   */\n  dup5\n    /* \"#utility.yul\":2903:2932   */\n  tag_10\n  jump\t// in\ntag_62:\n    /* \"#utility.yul\":2893:2901   */\n  dup2\n    /* \"#utility.yul\":2889:2933   */\n  add\n    /* \"#utility.yul\":3086:3088   */\n  0x20\n    /* \"#utility.yul\":3074:3084   */\n  dup6\n    /* \"#utility.yul\":3071:3089   */\n  lt\n    /* \"#utility.yul\":3068:3117   */\n  iszero\n  tag_63\n  jumpi\n    /* \"#utility.yul\":3107:3115   */\n  dup2\n    /* \"#utility.yul\":3092:3115   */\n  swap1\n  pop\n    /* \"#utility.yul\":3068:3117   */\ntag_63:\n    /* \"#utility.yul\":3130:3210   */\n  tag_64\n    /* \"#utility.yul\":3186:3208   */\n  tag_65\n    /* \"#utility.yul\":3204:3207   */\n  dup6\n    /* \"#utility.yul\":3186:3208   */\n  tag_10\n  jump\t// in\ntag_65:\n    /* \"#utility.yul\":3176:3184   */\n  dup4\n    /* \"#utility.yul\":3172:3209   */\n  add\n    /* \"#utility.yul\":3159:3170   */\n  dup3\n    /* \"#utility.yul\":3130:3210   */\n  tag_20\n  jump\t// in\ntag_64:\n    /* \"#utility.yul\":2790:3220   */\n  pop\n  pop\n    /* \"#utility.yul\":2775:3220   */\ntag_60:\n    /* \"#utility.yul\":2686:3227   */\n  pop\n  pop\n  pop\n  jump\t// out\n    /* \"#utility.yul\":3233:3350   */\ntag_22:\n    /* \"#utility.yul\":3287:3295   */\n  0x00\n    /* \"#utility.yul\":3337:3342   */\n  dup3\n    /* \"#utility.yul\":3331:3335   */\n  dup3\n    /* \"#utility.yul\":3327:3343   */\n  shr\n    /* \"#utility.yul\":3306:3343   */\n  swap1\n  pop\n    /* \"#utility.yul\":3233:3350   */\n  swap3\n  swap2\n  pop\n  pop\n  jump\t// out\n    /* \"#utility.yul\":3356:3525   */\ntag_23:\n    /* \"#utility.yul\":3400:3406   */\n  0x00\n    /* \"#utility.yul\":3433:3484   */\n  tag_68\n    /* \"#utility.yul\":3481:3482   */\n  0x00\n    /* \"#utility.yul\":3477:3483   */\n  not\n    /* \"#utility.yul\":3469:3474   */\n  dup5\n    /* \"#utility.yul\":3466:3467   */\n  0x08\n    /* \"#utility.yul\":3462:3475   */\n  mul\n    /* \"#utility.yul\":3433:3484   */\n  tag_22\n  jump\t// in\ntag_68:\n    /* \"#utility.yul\":3429:3485   */\n  not\n    /* \"#utility.yul\":3514:3518   */\n  dup1\n    /* \"#utility.yul\":3508:3512   */\n  dup4\n    /* \"#utility.yul\":3504:3519   */\n  and\n    /* \"#utility.yul\":3494:3519   */\n  swap2\n  pop\n    /* \"#utility.yul\":3407:3525   */\n  pop\n    /* \"#utility.yul\":3356:3525   */\n  swap3\n  swap2\n  pop\n  pop\n  jump\t// out\n    /* \"#utility.yul\":3530:3825   */\ntag_24:\n    /* \"#utility.yul\":3606:3610   */\n  0x00\n    /* \"#utility.yul\":3752:3781   */\n  tag_70\n    /* \"#utility.yul\":3777:3780   */\n  dup4\n    /* \"#utility.yul\":3771:3775   */\n  dup4\n    /* \"#utility.yul\":3752:3781   */\n  tag_23\n  jump\t// in\ntag_70:\n    /* \"#utility.yul\":3744:3781   */\n  swap2\n  pop\n    /* \"#utility.yul\":3814:3817   */\n  dup3\n    /* \"#utility.yul\":3811:3812   */\n  0x02\n    /* \"#utility.yul\":3807:3818   */\n  mul\n    /* \"#utility.yul\":3801:3805   */\n  dup3\n    /* \"#utility.yul\":3798:3819   */\n  or\n    /* \"#utility.yul\":3790:3819   */\n  swap1\n  pop\n    /* \"#utility.yul\":3530:3825   */\n  swap3\n  swap2\n  pop\n  pop\n  jump\t// out\n    /* \"#utility.yul\":3830:5222   */\ntag_2:\n    /* \"#utility.yul\":3946:3983   */\n  tag_72\n    /* \"#utility.yul\":3979:3982   */\n  dup3\n    /* \"#utility.yul\":3946:3983   */\n  tag_5\n  jump\t// in\ntag_72:\n    /* \"#utility.yul\":4048:4066   */\n  0xffffffffffffffff\n    /* \"#utility.yul\":4040:4046   */\n  dup2\n    /* \"#utility.yul\":4037:4067   */\n  gt\n    /* \"#utility.yul\":4034:4090   */\n  iszero\n  tag_73\n  jumpi\n    /* \"#utility.yul\":4070:4088   */\n  tag_74\n  tag_6\n  jump\t// in\ntag_74:\n    /* \"#utility.yul\":4034:4090   */\ntag_73:\n    /* \"#utility.yul\":4114:4152   */\n  tag_75\n    /* \"#utility.yul\":4146:4150   */\n  dup3\n    /* \"#utility.yul\":4140:4151   */\n  sload\n    /* \"#utility.yul\":4114:4152   */\n  tag_8\n  jump\t// in\ntag_75:\n    /* \"#utility.yul\":4199:4265   */\n  tag_76\n    /* \"#utility.yul\":4258:4264   */\n  dup3\n    /* \"#utility.yul\":4250:4256   */\n  dup3\n    /* \"#utility.yul\":4244:4248   */\n  dup6\n    /* \"#utility.yul\":4199:4265   */\n  tag_21\n  jump\t// in\ntag_76:\n    /* \"#utility.yul\":4292:4293   */\n  0x00\n    /* \"#utility.yul\":4316:4320   */\n  0x20\n    /* \"#utility.yul\":4303:4320   */\n  swap1\n  pop\n    /* \"#utility.yul\":4348:4350   */\n  0x1f\n    /* \"#utility.yul\":4340:4346   */\n  dup4\n    /* \"#utility.yul\":4337:4351   */\n  gt\n    /* \"#utility.yul\":4365:4366   */\n  0x01\n    /* \"#utility.yul\":4360:4977   */\n  dup2\n  eq\n  tag_78\n  jumpi\n    /* \"#utility.yul\":5021:5022   */\n  0x00\n    /* \"#utility.yul\":5038:5044   */\n  dup5\n    /* \"#utility.yul\":5035:5112   */\n  iszero\n  tag_79\n  jumpi\n    /* \"#utility.yul\":5087:5096   */\n  dup3\n    /* \"#utility.yul\":5082:5085   */\n  dup8\n    /* \"#utility.yul\":5078:5097   */\n  add\n    /* \"#utility.yul\":5072:5098   */\n  mload\n    /* \"#utility.yul\":5063:5098   */\n  swap1\n  pop\n    /* \"#utility.yul\":5035:5112   */\ntag_79:\n    /* \"#utility.yul\":5138:5205   */\n  tag_80\n    /* \"#utility.yul\":5198:5204   */\n  dup6\n    /* \"#utility.yul\":5191:5196   */\n  dup3\n    /* \"#utility.yul\":5138:5205   */\n  tag_24\n  jump\t// in\ntag_80:\n    /* \"#utility.yul\":5132:5136   */\n  dup7\n    /* \"#utility.yul\":5125:5206   */\n  sstore\n    /* \"#utility.yul\":4994:5216   */\n  pop\n    /* \"#utility.yul\":4330:5216   */\n  jump(tag_77)\n    /* \"#utility.yul\":4360:4977   */\ntag_78:\n    /* \"#utility.yul\":4412:4416   */\n  0x1f\n    /* \"#utility.yul\":4408:4417   */\n  not\n    /* \"#utility.yul\":4400:4406   */\n  dup5\n    /* \"#utility.yul\":4396:4418   */\n  and\n    /* \"#utility.yul\":4446:4482   */\n  tag_81\n    /* \"#utility.yul\":4477:4481   */\n  dup7\n    /* \"#utility.yul\":4446:4482   */\n  tag_9\n  jump\t// in\ntag_81:\n    /* \"#utility.yul\":4504:4505   */\n  0x00\n    /* \"#utility.yul\":4518:4726   */\ntag_82:\n    /* \"#utility.yul\":4532:4539   */\n  dup3\n    /* \"#utility.yul\":4529:4530   */\n  dup2\n    /* \"#utility.yul\":4526:4540   */\n  lt\n    /* \"#utility.yul\":4518:4726   */\n  iszero\n  tag_84\n  jumpi\n    /* \"#utility.yul\":4611:4620   */\n  dup5\n    /* \"#utility.yul\":4606:4609   */\n  dup10\n    /* \"#utility.yul\":4602:4621   */\n  add\n    /* \"#utility.yul\":4596:4622   */\n  mload\n    /* \"#utility.yul\":4588:4594   */\n  dup3\n    /* \"#utility.yul\":4581:4623   */\n  sstore\n    /* \"#utility.yul\":4662:4663   */\n  0x01\n    /* \"#utility.yul\":4654:4660   */\n  dup3\n    /* \"#utility.yul\":4650:4664   */\n  add\n    /* \"#utility.yul\":4640:4664   */\n  swap2\n  pop\n    /* \"#utility.yul\":4709:4711   */\n  0x20\n    /* \"#utility.yul\":4698:4707   */\n  dup6\n    /* \"#utility.yul\":4694:4712   */\n  add\n    /* \"#utility.yul\":4681:4712   */\n  swap5\n  pop\n    /* \"#utility.yul\":4555:4559   */\n  0x20\n    /* \"#utility.yul\":4552:4553   */\n  dup2\n    /* \"#utility.yul\":4548:4560   */\n  add\n    /* \"#utility.yul\":4543:4560   */\n  swap1\n  pop\n    /* \"#utility.yul\":4518:4726   */\n  jump(tag_82)\ntag_84:\n    /* \"#utility.yul\":4754:4760   */\n  dup7\n    /* \"#utility.yul\":4745:4752   */\n  dup4\n    /* \"#utility.yul\":4742:4761   */\n  lt\n    /* \"#utility.yul\":4739:4918   */\n  iszero\n  tag_85\n  jumpi\n    /* \"#utility.yul\":4812:4821   */\n  dup5\n    /* \"#utility.yul\":4807:4810   */\n  dup10\n    /* \"#utility.yul\":4803:4822   */\n  add\n    /* \"#utility.yul\":4797:4823   */\n  mload\n    /* \"#utility.yul\":4855:4903   */\n  tag_86\n    /* \"#utility.yul\":4897:4901   */\n  0x1f\n    /* \"#utility.yul\":4889:4895   */\n  dup10\n    /* \"#utility.yul\":4885:4902   */\n  and\n    /* \"#utility.yul\":4874:4883   */\n  dup3\n    /* \"#utility.yul\":4855:4903   */\n  tag_23\n  jump\t// in\ntag_86:\n    /* \"#utility.yul\":4847:4853   */\n  dup4\n    /* \"#utility.yul\":4840:4904   */\n  sstore\n    /* \"#utility.yul\":4762:4918   */\n  pop\n    /* \"#utility.yul\":4739:4918   */\ntag_85:\n    /* \"#utility.yul\":4964:4965   */\n  0x01\n    /* \"#utility.yul\":4960:4961   */\n  0x02\n    /* \"#utility.yul\":4952:4958   */\n  dup9\n    /* \"#utility.yul\":4948:4962   */\n  mul\n    /* \"#utility.yul\":4944:4966   */\n  add\n    /* \"#utility.yul\":4938:4942   */\n  dup9\n    /* \"#utility.yul\":4931:4967   */\n  sstore\n    /* \"#utility.yul\":4367:4977   */\n  pop\n  pop\n  pop\n    /* \"#utility.yul\":4330:5216   */\ntag_77:\n  pop\n    /* \"#utility.yul\":3921:5222   */\n  pop\n  pop\n  pop\n    /* \"#utility.yul\":3830:5222   */\n  pop\n  pop\n  jump\t// out\n    /* \"contracts/230504/2_Bytes.sol\":764:1431  contract BYTES {... */\ntag_4:\n  dataSize(sub_0)\n  dup1\n  dataOffset(sub_0)\n  0x00\n  codecopy\n  0x00\n  return\nstop\n\nsub_0: assembly {\n        /* \"contracts/230504/2_Bytes.sol\":764:1431  contract BYTES {... */\n      mstore(0x40, 0x80)\n      callvalue\n      dup1\n      iszero\n      tag_1\n      jumpi\n      0x00\n      dup1\n      revert\n    tag_1:\n      pop\n      jumpi(tag_2, lt(calldatasize, 0x04))\n      shr(0xe0, calldataload(0x00))\n      dup1\n      0x48aa931e\n      eq\n      tag_3\n      jumpi\n      dup1\n      0xb1cb267b\n      eq\n      tag_4\n      jumpi\n      dup1\n      0xc736694e\n      eq\n      tag_5\n      jumpi\n    tag_2:\n      0x00\n      dup1\n      revert\n        /* \"contracts/230504/2_Bytes.sol\":1071:1222  function setABCD(bytes memory _a, bytes1 _b, bytes2 _c, bytes32 _d) public {... */\n    tag_3:\n      tag_6\n      0x04\n      dup1\n      calldatasize\n      sub\n      dup2\n      add\n      swap1\n      tag_7\n      swap2\n      swap1\n      tag_8\n      jump\t// in\n    tag_7:\n      tag_9\n      jump\t// in\n    tag_6:\n      stop\n        /* \"contracts/230504/2_Bytes.sol\":1350:1428  function getE() public view returns (bytes memory) {... */\n    tag_4:\n      tag_10\n      tag_11\n      jump\t// in\n    tag_10:\n      mload(0x40)\n      tag_12\n      swap2\n      swap1\n      tag_13\n      jump\t// in\n    tag_12:\n      mload(0x40)\n      dup1\n      swap2\n      sub\n      swap1\n      return\n        /* \"contracts/230504/2_Bytes.sol\":1230:1342  function getABCD() public view returns(bytes memory, bytes1, bytes2, bytes32) {... */\n    tag_5:\n      tag_14\n      tag_15\n      jump\t// in\n    tag_14:\n      mload(0x40)\n      tag_16\n      swap5\n      swap4\n      swap3\n      swap2\n      swap1\n      tag_17\n      jump\t// in\n    tag_16:\n      mload(0x40)\n      dup1\n      swap2\n      sub\n      swap1\n      return\n        /* \"contracts/230504/2_Bytes.sol\":1071:1222  function setABCD(bytes memory _a, bytes1 _b, bytes2 _c, bytes32 _d) public {... */\n    tag_9:\n        /* \"contracts/230504/2_Bytes.sol\":1161:1163  _a */\n      dup4\n        /* \"contracts/230504/2_Bytes.sol\":1157:1158  a */\n      0x00\n        /* \"contracts/230504/2_Bytes.sol\":1157:1163  a = _a */\n      swap1\n      dup2\n      tag_19\n      swap2\n      swap1\n      tag_20\n      jump\t// in\n    tag_19:\n      pop\n        /* \"contracts/230504/2_Bytes.sol\":1178:1180  _b */\n      dup3\n        /* \"contracts/230504/2_Bytes.sol\":1174:1175  b */\n      0x01\n      0x00\n        /* \"contracts/230504/2_Bytes.sol\":1174:1180  b = _b */\n      0x0100\n      exp\n      dup2\n      sload\n      dup2\n      0xff\n      mul\n      not\n      and\n      swap1\n      dup4\n      0xf8\n      shr\n      mul\n      or\n      swap1\n      sstore\n      pop\n        /* \"contracts/230504/2_Bytes.sol\":1195:1197  _c */\n      dup2\n        /* \"contracts/230504/2_Bytes.sol\":1191:1192  c */\n      0x01\n      dup1\n        /* \"contracts/230504/2_Bytes.sol\":1191:1197  c = _c */\n      0x0100\n      exp\n      dup2\n      sload\n      dup2\n      0xffff\n      mul\n      not\n      and\n      swap1\n      dup4\n      0xf0\n      shr\n      mul\n      or\n      swap1\n      sstore\n      pop\n        /* \"contracts/230504/2_Bytes.sol\":1212:1214  _d */\n      dup1\n        /* \"contracts/230504/2_Bytes.sol\":1208:1209  d */\n      0x02\n        /* \"contracts/230504/2_Bytes.sol\":1208:1214  d = _d */\n      dup2\n      swap1\n      sstore\n      pop\n        /* \"contracts/230504/2_Bytes.sol\":1071:1222  function setABCD(bytes memory _a, bytes1 _b, bytes2 _c, bytes32 _d) public {... */\n      pop\n      pop\n      pop\n      pop\n      jump\t// out\n        /* \"contracts/230504/2_Bytes.sol\":1350:1428  function getE() public view returns (bytes memory) {... */\n    tag_11:\n        /* \"contracts/230504/2_Bytes.sol\":1387:1399  bytes memory */\n      0x60\n        /* \"contracts/230504/2_Bytes.sol\":1419:1420  e */\n      0x03\n        /* \"contracts/230504/2_Bytes.sol\":1412:1420  return e */\n      dup1\n      sload\n      tag_22\n      swap1\n      tag_23\n      jump\t// in\n    tag_22:\n      dup1\n      0x1f\n      add\n      0x20\n      dup1\n      swap2\n      div\n      mul\n      0x20\n      add\n      mload(0x40)\n      swap1\n      dup2\n      add\n      0x40\n      mstore\n      dup1\n      swap3\n      swap2\n      swap1\n      dup2\n      dup2\n      mstore\n      0x20\n      add\n      dup3\n      dup1\n      sload\n      tag_24\n      swap1\n      tag_23\n      jump\t// in\n    tag_24:\n      dup1\n      iszero\n      tag_25\n      jumpi\n      dup1\n      0x1f\n      lt\n      tag_26\n      jumpi\n      0x0100\n      dup1\n      dup4\n      sload\n      div\n      mul\n      dup4\n      mstore\n      swap2\n      0x20\n      add\n      swap2\n      jump(tag_25)\n    tag_26:\n      dup3\n      add\n      swap2\n      swap1\n      0x00\n      mstore\n      keccak256(0x00, 0x20)\n      swap1\n    tag_27:\n      dup2\n      sload\n      dup2\n      mstore\n      swap1\n      0x01\n      add\n      swap1\n      0x20\n      add\n      dup1\n      dup4\n      gt\n      tag_27\n      jumpi\n      dup3\n      swap1\n      sub\n      0x1f\n      and\n      dup3\n      add\n      swap2\n    tag_25:\n      pop\n      pop\n      pop\n      pop\n      pop\n      swap1\n      pop\n        /* \"contracts/230504/2_Bytes.sol\":1350:1428  function getE() public view returns (bytes memory) {... */\n      swap1\n      jump\t// out\n        /* \"contracts/230504/2_Bytes.sol\":1230:1342  function getABCD() public view returns(bytes memory, bytes1, bytes2, bytes32) {... */\n    tag_15:\n        /* \"contracts/230504/2_Bytes.sol\":1269:1281  bytes memory */\n      0x60\n        /* \"contracts/230504/2_Bytes.sol\":1283:1289  bytes1 */\n      0x00\n        /* \"contracts/230504/2_Bytes.sol\":1291:1297  bytes2 */\n      dup1\n        /* \"contracts/230504/2_Bytes.sol\":1299:1306  bytes32 */\n      0x00\n        /* \"contracts/230504/2_Bytes.sol\":1326:1327  a */\n      dup1\n        /* \"contracts/230504/2_Bytes.sol\":1328:1329  b */\n      0x01\n      0x00\n      swap1\n      sload\n      swap1\n      0x0100\n      exp\n      swap1\n      div\n      0xf8\n      shl\n        /* \"contracts/230504/2_Bytes.sol\":1330:1331  c */\n      0x01\n      dup1\n      sload\n      swap1\n      0x0100\n      exp\n      swap1\n      div\n      0xf0\n      shl\n        /* \"contracts/230504/2_Bytes.sol\":1332:1333  d */\n      sload(0x02)\n        /* \"contracts/230504/2_Bytes.sol\":1319:1334  return(a,b,c,d) */\n      dup4\n      dup1\n      sload\n      tag_29\n      swap1\n      tag_23\n      jump\t// in\n    tag_29:\n      dup1\n      0x1f\n      add\n      0x20\n      dup1\n      swap2\n      div\n      mul\n      0x20\n      add\n      mload(0x40)\n      swap1\n      dup2\n      add\n      0x40\n      mstore\n      dup1\n      swap3\n      swap2\n      swap1\n      dup2\n      dup2\n      mstore\n      0x20\n      add\n      dup3\n      dup1\n      sload\n      tag_30\n      swap1\n      tag_23\n      jump\t// in\n    tag_30:\n      dup1\n      iszero\n      tag_31\n      jumpi\n      dup1\n      0x1f\n      lt\n      tag_32\n      jumpi\n      0x0100\n      dup1\n      dup4\n      sload\n      div\n      mul\n      dup4\n      mstore\n      swap2\n      0x20\n      add\n      swap2\n      jump(tag_31)\n    tag_32:\n      dup3\n      add\n      swap2\n      swap1\n      0x00\n      mstore\n      keccak256(0x00, 0x20)\n      swap1\n    tag_33:\n      dup2\n      sload\n      dup2\n      mstore\n      swap1\n      0x01\n      add\n      swap1\n      0x20\n      add\n      dup1\n      dup4\n      gt\n      tag_33\n      jumpi\n      dup3\n      swap1\n      sub\n      0x1f\n      and\n      dup3\n      add\n      swap2\n    tag_31:\n      pop\n      pop\n      pop\n      pop\n      pop\n      swap4\n      pop\n      swap4\n      pop\n      swap4\n      pop\n      swap4\n      pop\n      swap4\n      pop\n        /* \"contracts/230504/2_Bytes.sol\":1230:1342  function getABCD() public view returns(bytes memory, bytes1, bytes2, bytes32) {... */\n      swap1\n      swap2\n      swap3\n      swap4\n      jump\t// out\n        /* \"#utility.yul\":7:82   */\n    tag_34:\n        /* \"#utility.yul\":40:46   */\n      0x00\n        /* \"#utility.yul\":73:75   */\n      0x40\n        /* \"#utility.yul\":67:76   */\n      mload\n        /* \"#utility.yul\":57:76   */\n      swap1\n      pop\n        /* \"#utility.yul\":7:82   */\n      swap1\n      jump\t// out\n        /* \"#utility.yul\":88:205   */\n    tag_35:\n        /* \"#utility.yul\":197:198   */\n      0x00\n        /* \"#utility.yul\":194:195   */\n      dup1\n        /* \"#utility.yul\":187:199   */\n      revert\n        /* \"#utility.yul\":211:328   */\n    tag_36:\n        /* \"#utility.yul\":320:321   */\n      0x00\n        /* \"#utility.yul\":317:318   */\n      dup1\n        /* \"#utility.yul\":310:322   */\n      revert\n        /* \"#utility.yul\":334:451   */\n    tag_37:\n        /* \"#utility.yul\":443:444   */\n      0x00\n        /* \"#utility.yul\":440:441   */\n      dup1\n        /* \"#utility.yul\":433:445   */\n      revert\n        /* \"#utility.yul\":457:574   */\n    tag_38:\n        /* \"#utility.yul\":566:567   */\n      0x00\n        /* \"#utility.yul\":563:564   */\n      dup1\n        /* \"#utility.yul\":556:568   */\n      revert\n        /* \"#utility.yul\":580:682   */\n    tag_39:\n        /* \"#utility.yul\":621:627   */\n      0x00\n        /* \"#utility.yul\":672:674   */\n      0x1f\n        /* \"#utility.yul\":668:675   */\n      not\n        /* \"#utility.yul\":663:665   */\n      0x1f\n        /* \"#utility.yul\":656:661   */\n      dup4\n        /* \"#utility.yul\":652:666   */\n      add\n        /* \"#utility.yul\":648:676   */\n      and\n        /* \"#utility.yul\":638:676   */\n      swap1\n      pop\n        /* \"#utility.yul\":580:682   */\n      swap2\n      swap1\n      pop\n      jump\t// out\n        /* \"#utility.yul\":688:868   */\n    tag_40:\n        /* \"#utility.yul\":736:813   */\n      0x4e487b7100000000000000000000000000000000000000000000000000000000\n        /* \"#utility.yul\":733:734   */\n      0x00\n        /* \"#utility.yul\":726:814   */\n      mstore\n        /* \"#utility.yul\":833:837   */\n      0x41\n        /* \"#utility.yul\":830:831   */\n      0x04\n        /* \"#utility.yul\":823:838   */\n      mstore\n        /* \"#utility.yul\":857:861   */\n      0x24\n        /* \"#utility.yul\":854:855   */\n      0x00\n        /* \"#utility.yul\":847:862   */\n      revert\n        /* \"#utility.yul\":874:1155   */\n    tag_41:\n        /* \"#utility.yul\":957:984   */\n      tag_89\n        /* \"#utility.yul\":979:983   */\n      dup3\n        /* \"#utility.yul\":957:984   */\n      tag_39\n      jump\t// in\n    tag_89:\n        /* \"#utility.yul\":949:955   */\n      dup2\n        /* \"#utility.yul\":945:985   */\n      add\n        /* \"#utility.yul\":1087:1093   */\n      dup2\n        /* \"#utility.yul\":1075:1085   */\n      dup2\n        /* \"#utility.yul\":1072:1094   */\n      lt\n        /* \"#utility.yul\":1051:1069   */\n      0xffffffffffffffff\n        /* \"#utility.yul\":1039:1049   */\n      dup3\n        /* \"#utility.yul\":1036:1070   */\n      gt\n        /* \"#utility.yul\":1033:1095   */\n      or\n        /* \"#utility.yul\":1030:1118   */\n      iszero\n      tag_90\n      jumpi\n        /* \"#utility.yul\":1098:1116   */\n      tag_91\n      tag_40\n      jump\t// in\n    tag_91:\n        /* \"#utility.yul\":1030:1118   */\n    tag_90:\n        /* \"#utility.yul\":1138:1148   */\n      dup1\n        /* \"#utility.yul\":1134:1136   */\n      0x40\n        /* \"#utility.yul\":1127:1149   */\n      mstore\n        /* \"#utility.yul\":917:1155   */\n      pop\n        /* \"#utility.yul\":874:1155   */\n      pop\n      pop\n      jump\t// out\n        /* \"#utility.yul\":1161:1290   */\n    tag_42:\n        /* \"#utility.yul\":1195:1201   */\n      0x00\n        /* \"#utility.yul\":1222:1242   */\n      tag_93\n      tag_34\n      jump\t// in\n    tag_93:\n        /* \"#utility.yul\":1212:1242   */\n      swap1\n      pop\n        /* \"#utility.yul\":1251:1284   */\n      tag_94\n        /* \"#utility.yul\":1279:1283   */\n      dup3\n        /* \"#utility.yul\":1271:1277   */\n      dup3\n        /* \"#utility.yul\":1251:1284   */\n      tag_41\n      jump\t// in\n    tag_94:\n        /* \"#utility.yul\":1161:1290   */\n      swap2\n      swap1\n      pop\n      jump\t// out\n        /* \"#utility.yul\":1296:1603   */\n    tag_43:\n        /* \"#utility.yul\":1357:1361   */\n      0x00\n        /* \"#utility.yul\":1447:1465   */\n      0xffffffffffffffff\n        /* \"#utility.yul\":1439:1445   */\n      dup3\n        /* \"#utility.yul\":1436:1466   */\n      gt\n        /* \"#utility.yul\":1433:1489   */\n      iszero\n      tag_96\n      jumpi\n        /* \"#utility.yul\":1469:1487   */\n      tag_97\n      tag_40\n      jump\t// in\n    tag_97:\n        /* \"#utility.yul\":1433:1489   */\n    tag_96:\n        /* \"#utility.yul\":1507:1536   */\n      tag_98\n        /* \"#utility.yul\":1529:1535   */\n      dup3\n        /* \"#utility.yul\":1507:1536   */\n      tag_39\n      jump\t// in\n    tag_98:\n        /* \"#utility.yul\":1499:1536   */\n      swap1\n      pop\n        /* \"#utility.yul\":1591:1595   */\n      0x20\n        /* \"#utility.yul\":1585:1589   */\n      dup2\n        /* \"#utility.yul\":1581:1596   */\n      add\n        /* \"#utility.yul\":1573:1596   */\n      swap1\n      pop\n        /* \"#utility.yul\":1296:1603   */\n      swap2\n      swap1\n      pop\n      jump\t// out\n        /* \"#utility.yul\":1609:1755   */\n    tag_44:\n        /* \"#utility.yul\":1706:1712   */\n      dup3\n        /* \"#utility.yul\":1701:1704   */\n      dup2\n        /* \"#utility.yul\":1696:1699   */\n      dup4\n        /* \"#utility.yul\":1683:1713   */\n      calldatacopy\n        /* \"#utility.yul\":1747:1748   */\n      0x00\n        /* \"#utility.yul\":1738:1744   */\n      dup4\n        /* \"#utility.yul\":1733:1736   */\n      dup4\n        /* \"#utility.yul\":1729:1745   */\n      add\n        /* \"#utility.yul\":1722:1749   */\n      mstore\n        /* \"#utility.yul\":1609:1755   */\n      pop\n      pop\n      pop\n      jump\t// out\n        /* \"#utility.yul\":1761:2184   */\n    tag_45:\n        /* \"#utility.yul\":1838:1843   */\n      0x00\n        /* \"#utility.yul\":1863:1928   */\n      tag_101\n        /* \"#utility.yul\":1879:1927   */\n      tag_102\n        /* \"#utility.yul\":1920:1926   */\n      dup5\n        /* \"#utility.yul\":1879:1927   */\n      tag_43\n      jump\t// in\n    tag_102:\n        /* \"#utility.yul\":1863:1928   */\n      tag_42\n      jump\t// in\n    tag_101:\n        /* \"#utility.yul\":1854:1928   */\n      swap1\n      pop\n        /* \"#utility.yul\":1951:1957   */\n      dup3\n        /* \"#utility.yul\":1944:1949   */\n      dup2\n        /* \"#utility.yul\":1937:1958   */\n      mstore\n        /* \"#utility.yul\":1989:1993   */\n      0x20\n        /* \"#utility.yul\":1982:1987   */\n      dup2\n        /* \"#utility.yul\":1978:1994   */\n      add\n        /* \"#utility.yul\":2027:2030   */\n      dup5\n        /* \"#utility.yul\":2018:2024   */\n      dup5\n        /* \"#utility.yul\":2013:2016   */\n      dup5\n        /* \"#utility.yul\":2009:2025   */\n      add\n        /* \"#utility.yul\":2006:2031   */\n      gt\n        /* \"#utility.yul\":2003:2115   */\n      iszero\n      tag_103\n      jumpi\n        /* \"#utility.yul\":2034:2113   */\n      tag_104\n      tag_38\n      jump\t// in\n    tag_104:\n        /* \"#utility.yul\":2003:2115   */\n    tag_103:\n        /* \"#utility.yul\":2124:2178   */\n      tag_105\n        /* \"#utility.yul\":2171:2177   */\n      dup5\n        /* \"#utility.yul\":2166:2169   */\n      dup3\n        /* \"#utility.yul\":2161:2164   */\n      dup6\n        /* \"#utility.yul\":2124:2178   */\n      tag_44\n      jump\t// in\n    tag_105:\n        /* \"#utility.yul\":1844:2184   */\n      pop\n        /* \"#utility.yul\":1761:2184   */\n      swap4\n      swap3\n      pop\n      pop\n      pop\n      jump\t// out\n        /* \"#utility.yul\":2203:2541   */\n    tag_46:\n        /* \"#utility.yul\":2258:2263   */\n      0x00\n        /* \"#utility.yul\":2307:2310   */\n      dup3\n        /* \"#utility.yul\":2300:2304   */\n      0x1f\n        /* \"#utility.yul\":2292:2298   */\n      dup4\n        /* \"#utility.yul\":2288:2305   */\n      add\n        /* \"#utility.yul\":2284:2311   */\n      slt\n        /* \"#utility.yul\":2274:2396   */\n      tag_107\n      jumpi\n        /* \"#utility.yul\":2315:2394   */\n      tag_108\n      tag_37\n      jump\t// in\n    tag_108:\n        /* \"#utility.yul\":2274:2396   */\n    tag_107:\n        /* \"#utility.yul\":2432:2438   */\n      dup2\n        /* \"#utility.yul\":2419:2439   */\n      calldataload\n        /* \"#utility.yul\":2457:2535   */\n      tag_109\n        /* \"#utility.yul\":2531:2534   */\n      dup5\n        /* \"#utility.yul\":2523:2529   */\n      dup3\n        /* \"#utility.yul\":2516:2520   */\n      0x20\n        /* \"#utility.yul\":2508:2514   */\n      dup7\n        /* \"#utility.yul\":2504:2521   */\n      add\n        /* \"#utility.yul\":2457:2535   */\n      tag_45\n      jump\t// in\n    tag_109:\n        /* \"#utility.yul\":2448:2535   */\n      swap2\n      pop\n        /* \"#utility.yul\":2264:2541   */\n      pop\n        /* \"#utility.yul\":2203:2541   */\n      swap3\n      swap2\n      pop\n      pop\n      jump\t// out\n        /* \"#utility.yul\":2547:2696   */\n    tag_47:\n        /* \"#utility.yul\":2583:2590   */\n      0x00\n        /* \"#utility.yul\":2623:2689   */\n      0xff00000000000000000000000000000000000000000000000000000000000000\n        /* \"#utility.yul\":2616:2621   */\n      dup3\n        /* \"#utility.yul\":2612:2690   */\n      and\n        /* \"#utility.yul\":2601:2690   */\n      swap1\n      pop\n        /* \"#utility.yul\":2547:2696   */\n      swap2\n      swap1\n      pop\n      jump\t// out\n        /* \"#utility.yul\":2702:2822   */\n    tag_48:\n        /* \"#utility.yul\":2774:2797   */\n      tag_112\n        /* \"#utility.yul\":2791:2796   */\n      dup2\n        /* \"#utility.yul\":2774:2797   */\n      tag_47\n      jump\t// in\n    tag_112:\n        /* \"#utility.yul\":2767:2772   */\n      dup2\n        /* \"#utility.yul\":2764:2798   */\n      eq\n        /* \"#utility.yul\":2754:2816   */\n      tag_113\n      jumpi\n        /* \"#utility.yul\":2812:2813   */\n      0x00\n        /* \"#utility.yul\":2809:2810   */\n      dup1\n        /* \"#utility.yul\":2802:2814   */\n      revert\n        /* \"#utility.yul\":2754:2816   */\n    tag_113:\n        /* \"#utility.yul\":2702:2822   */\n      pop\n      jump\t// out\n        /* \"#utility.yul\":2828:2965   */\n    tag_49:\n        /* \"#utility.yul\":2873:2878   */\n      0x00\n        /* \"#utility.yul\":2911:2917   */\n      dup2\n        /* \"#utility.yul\":2898:2918   */\n      calldataload\n        /* \"#utility.yul\":2889:2918   */\n      swap1\n      pop\n        /* \"#utility.yul\":2927:2959   */\n      tag_115\n        /* \"#utility.yul\":2953:2958   */\n      dup2\n        /* \"#utility.yul\":2927:2959   */\n      tag_48\n      jump\t// in\n    tag_115:\n        /* \"#utility.yul\":2828:2965   */\n      swap3\n      swap2\n      pop\n      pop\n      jump\t// out\n        /* \"#utility.yul\":2971:3120   */\n    tag_50:\n        /* \"#utility.yul\":3007:3014   */\n      0x00\n        /* \"#utility.yul\":3047:3113   */\n      0xffff000000000000000000000000000000000000000000000000000000000000\n        /* \"#utility.yul\":3040:3045   */\n      dup3\n        /* \"#utility.yul\":3036:3114   */\n      and\n        /* \"#utility.yul\":3025:3114   */\n      swap1\n      pop\n        /* \"#utility.yul\":2971:3120   */\n      swap2\n      swap1\n      pop\n      jump\t// out\n        /* \"#utility.yul\":3126:3246   */\n    tag_51:\n        /* \"#utility.yul\":3198:3221   */\n      tag_118\n        /* \"#utility.yul\":3215:3220   */\n      dup2\n        /* \"#utility.yul\":3198:3221   */\n      tag_50\n      jump\t// in\n    tag_118:\n        /* \"#utility.yul\":3191:3196   */\n      dup2\n        /* \"#utility.yul\":3188:3222   */\n      eq\n        /* \"#utility.yul\":3178:3240   */\n      tag_119\n      jumpi\n        /* \"#utility.yul\":3236:3237   */\n      0x00\n        /* \"#utility.yul\":3233:3234   */\n      dup1\n        /* \"#utility.yul\":3226:3238   */\n      revert\n        /* \"#utility.yul\":3178:3240   */\n    tag_119:\n        /* \"#utility.yul\":3126:3246   */\n      pop\n      jump\t// out\n        /* \"#utility.yul\":3252:3389   */\n    tag_52:\n        /* \"#utility.yul\":3297:3302   */\n      0x00\n        /* \"#utility.yul\":3335:3341   */\n      dup2\n        /* \"#utility.yul\":3322:3342   */\n      calldataload\n        /* \"#utility.yul\":3313:3342   */\n      swap1\n      pop\n        /* \"#utility.yul\":3351:3383   */\n      tag_121\n        /* \"#utility.yul\":3377:3382   */\n      dup2\n        /* \"#utility.yul\":3351:3383   */\n      tag_51\n      jump\t// in\n    tag_121:\n        /* \"#utility.yul\":3252:3389   */\n      swap3\n      swap2\n      pop\n      pop\n      jump\t// out\n        /* \"#utility.yul\":3395:3472   */\n    tag_53:\n        /* \"#utility.yul\":3432:3439   */\n      0x00\n        /* \"#utility.yul\":3461:3466   */\n      dup2\n        /* \"#utility.yul\":3450:3466   */\n      swap1\n      pop\n        /* \"#utility.yul\":3395:3472   */\n      swap2\n      swap1\n      pop\n      jump\t// out\n        /* \"#utility.yul\":3478:3600   */\n    tag_54:\n        /* \"#utility.yul\":3551:3575   */\n      tag_124\n        /* \"#utility.yul\":3569:3574   */\n      dup2\n        /* \"#utility.yul\":3551:3575   */\n      tag_53\n      jump\t// in\n    tag_124:\n        /* \"#utility.yul\":3544:3549   */\n      dup2\n        /* \"#utility.yul\":3541:3576   */\n      eq\n        /* \"#utility.yul\":3531:3594   */\n      tag_125\n      jumpi\n        /* \"#utility.yul\":3590:3591   */\n      0x00\n        /* \"#utility.yul\":3587:3588   */\n      dup1\n        /* \"#utility.yul\":3580:3592   */\n      revert\n        /* \"#utility.yul\":3531:3594   */\n    tag_125:\n        /* \"#utility.yul\":3478:3600   */\n      pop\n      jump\t// out\n        /* \"#utility.yul\":3606:3745   */\n    tag_55:\n        /* \"#utility.yul\":3652:3657   */\n      0x00\n        /* \"#utility.yul\":3690:3696   */\n      dup2\n        /* \"#utility.yul\":3677:3697   */\n      calldataload\n        /* \"#utility.yul\":3668:3697   */\n      swap1\n      pop\n        /* \"#utility.yul\":3706:3739   */\n      tag_127\n        /* \"#utility.yul\":3733:3738   */\n      dup2\n        /* \"#utility.yul\":3706:3739   */\n      tag_54\n      jump\t// in\n    tag_127:\n        /* \"#utility.yul\":3606:3745   */\n      swap3\n      swap2\n      pop\n      pop\n      jump\t// out\n        /* \"#utility.yul\":3751:4690   */\n    tag_8:\n        /* \"#utility.yul\":3844:3850   */\n      0x00\n        /* \"#utility.yul\":3852:3858   */\n      dup1\n        /* \"#utility.yul\":3860:3866   */\n      0x00\n        /* \"#utility.yul\":3868:3874   */\n      dup1\n        /* \"#utility.yul\":3917:3920   */\n      0x80\n        /* \"#utility.yul\":3905:3914   */\n      dup6\n        /* \"#utility.yul\":3896:3903   */\n      dup8\n        /* \"#utility.yul\":3892:3915   */\n      sub\n        /* \"#utility.yul\":3888:3921   */\n      slt\n        /* \"#utility.yul\":3885:4005   */\n      iszero\n      tag_129\n      jumpi\n        /* \"#utility.yul\":3924:4003   */\n      tag_130\n      tag_35\n      jump\t// in\n    tag_130:\n        /* \"#utility.yul\":3885:4005   */\n    tag_129:\n        /* \"#utility.yul\":4072:4073   */\n      0x00\n        /* \"#utility.yul\":4061:4070   */\n      dup6\n        /* \"#utility.yul\":4057:4074   */\n      add\n        /* \"#utility.yul\":4044:4075   */\n      calldataload\n        /* \"#utility.yul\":4102:4120   */\n      0xffffffffffffffff\n        /* \"#utility.yul\":4094:4100   */\n      dup2\n        /* \"#utility.yul\":4091:4121   */\n      gt\n        /* \"#utility.yul\":4088:4205   */\n      iszero\n      tag_131\n      jumpi\n        /* \"#utility.yul\":4124:4203   */\n      tag_132\n      tag_36\n      jump\t// in\n    tag_132:\n        /* \"#utility.yul\":4088:4205   */\n    tag_131:\n        /* \"#utility.yul\":4229:4291   */\n      tag_133\n        /* \"#utility.yul\":4283:4290   */\n      dup8\n        /* \"#utility.yul\":4274:4280   */\n      dup3\n        /* \"#utility.yul\":4263:4272   */\n      dup9\n        /* \"#utility.yul\":4259:4281   */\n      add\n        /* \"#utility.yul\":4229:4291   */\n      tag_46\n      jump\t// in\n    tag_133:\n        /* \"#utility.yul\":4219:4291   */\n      swap5\n      pop\n        /* \"#utility.yul\":4015:4301   */\n      pop\n        /* \"#utility.yul\":4340:4342   */\n      0x20\n        /* \"#utility.yul\":4366:4418   */\n      tag_134\n        /* \"#utility.yul\":4410:4417   */\n      dup8\n        /* \"#utility.yul\":4401:4407   */\n      dup3\n        /* \"#utility.yul\":4390:4399   */\n      dup9\n        /* \"#utility.yul\":4386:4408   */\n      add\n        /* \"#utility.yul\":4366:4418   */\n      tag_49\n      jump\t// in\n    tag_134:\n        /* \"#utility.yul\":4356:4418   */\n      swap4\n      pop\n        /* \"#utility.yul\":4311:4428   */\n      pop\n        /* \"#utility.yul\":4467:4469   */\n      0x40\n        /* \"#utility.yul\":4493:4545   */\n      tag_135\n        /* \"#utility.yul\":4537:4544   */\n      dup8\n        /* \"#utility.yul\":4528:4534   */\n      dup3\n        /* \"#utility.yul\":4517:4526   */\n      dup9\n        /* \"#utility.yul\":4513:4535   */\n      add\n        /* \"#utility.yul\":4493:4545   */\n      tag_52\n      jump\t// in\n    tag_135:\n        /* \"#utility.yul\":4483:4545   */\n      swap3\n      pop\n        /* \"#utility.yul\":4438:4555   */\n      pop\n        /* \"#utility.yul\":4594:4596   */\n      0x60\n        /* \"#utility.yul\":4620:4673   */\n      tag_136\n        /* \"#utility.yul\":4665:4672   */\n      dup8\n        /* \"#utility.yul\":4656:4662   */\n      dup3\n        /* \"#utility.yul\":4645:4654   */\n      dup9\n        /* \"#utility.yul\":4641:4663   */\n      add\n        /* \"#utility.yul\":4620:4673   */\n      tag_55\n      jump\t// in\n    tag_136:\n        /* \"#utility.yul\":4610:4673   */\n      swap2\n      pop\n        /* \"#utility.yul\":4565:4683   */\n      pop\n        /* \"#utility.yul\":3751:4690   */\n      swap3\n      swap6\n      swap2\n      swap5\n      pop\n      swap3\n      pop\n      jump\t// out\n        /* \"#utility.yul\":4696:4794   */\n    tag_56:\n        /* \"#utility.yul\":4747:4753   */\n      0x00\n        /* \"#utility.yul\":4781:4786   */\n      dup2\n        /* \"#utility.yul\":4775:4787   */\n      mload\n        /* \"#utility.yul\":4765:4787   */\n      swap1\n      pop\n        /* \"#utility.yul\":4696:4794   */\n      swap2\n      swap1\n      pop\n      jump\t// out\n        /* \"#utility.yul\":4800:4968   */\n    tag_57:\n        /* \"#utility.yul\":4883:4894   */\n      0x00\n        /* \"#utility.yul\":4917:4923   */\n      dup3\n        /* \"#utility.yul\":4912:4915   */\n      dup3\n        /* \"#utility.yul\":4905:4924   */\n      mstore\n        /* \"#utility.yul\":4957:4961   */\n      0x20\n        /* \"#utility.yul\":4952:4955   */\n      dup3\n        /* \"#utility.yul\":4948:4962   */\n      add\n        /* \"#utility.yul\":4933:4962   */\n      swap1\n      pop\n        /* \"#utility.yul\":4800:4968   */\n      swap3\n      swap2\n      pop\n      pop\n      jump\t// out\n        /* \"#utility.yul\":4974:5220   */\n    tag_58:\n        /* \"#utility.yul\":5055:5056   */\n      0x00\n        /* \"#utility.yul\":5065:5178   */\n    tag_140:\n        /* \"#utility.yul\":5079:5085   */\n      dup4\n        /* \"#utility.yul\":5076:5077   */\n      dup2\n        /* \"#utility.yul\":5073:5086   */\n      lt\n        /* \"#utility.yul\":5065:5178   */\n      iszero\n      tag_142\n      jumpi\n        /* \"#utility.yul\":5164:5165   */\n      dup1\n        /* \"#utility.yul\":5159:5162   */\n      dup3\n        /* \"#utility.yul\":5155:5166   */\n      add\n        /* \"#utility.yul\":5149:5167   */\n      mload\n        /* \"#utility.yul\":5145:5146   */\n      dup2\n        /* \"#utility.yul\":5140:5143   */\n      dup5\n        /* \"#utility.yul\":5136:5147   */\n      add\n        /* \"#utility.yul\":5129:5168   */\n      mstore\n        /* \"#utility.yul\":5101:5103   */\n      0x20\n        /* \"#utility.yul\":5098:5099   */\n      dup2\n        /* \"#utility.yul\":5094:5104   */\n      add\n        /* \"#utility.yul\":5089:5104   */\n      swap1\n      pop\n        /* \"#utility.yul\":5065:5178   */\n      jump(tag_140)\n    tag_142:\n        /* \"#utility.yul\":5212:5213   */\n      0x00\n        /* \"#utility.yul\":5203:5209   */\n      dup5\n        /* \"#utility.yul\":5198:5201   */\n      dup5\n        /* \"#utility.yul\":5194:5210   */\n      add\n        /* \"#utility.yul\":5187:5214   */\n      mstore\n        /* \"#utility.yul\":5036:5220   */\n      pop\n        /* \"#utility.yul\":4974:5220   */\n      pop\n      pop\n      pop\n      jump\t// out\n        /* \"#utility.yul\":5226:5599   */\n    tag_59:\n        /* \"#utility.yul\":5312:5315   */\n      0x00\n        /* \"#utility.yul\":5340:5378   */\n      tag_144\n        /* \"#utility.yul\":5372:5377   */\n      dup3\n        /* \"#utility.yul\":5340:5378   */\n      tag_56\n      jump\t// in\n    tag_144:\n        /* \"#utility.yul\":5394:5464   */\n      tag_145\n        /* \"#utility.yul\":5457:5463   */\n      dup2\n        /* \"#utility.yul\":5452:5455   */\n      dup6\n        /* \"#utility.yul\":5394:5464   */\n      tag_57\n      jump\t// in\n    tag_145:\n        /* \"#utility.yul\":5387:5464   */\n      swap4\n      pop\n        /* \"#utility.yul\":5473:5538   */\n      tag_146\n        /* \"#utility.yul\":5531:5537   */\n      dup2\n        /* \"#utility.yul\":5526:5529   */\n      dup6\n        /* \"#utility.yul\":5519:5523   */\n      0x20\n        /* \"#utility.yul\":5512:5517   */\n      dup7\n        /* \"#utility.yul\":5508:5524   */\n      add\n        /* \"#utility.yul\":5473:5538   */\n      tag_58\n      jump\t// in\n    tag_146:\n        /* \"#utility.yul\":5563:5592   */\n      tag_147\n        /* \"#utility.yul\":5585:5591   */\n      dup2\n        /* \"#utility.yul\":5563:5592   */\n      tag_39\n      jump\t// in\n    tag_147:\n        /* \"#utility.yul\":5558:5561   */\n      dup5\n        /* \"#utility.yul\":5554:5593   */\n      add\n        /* \"#utility.yul\":5547:5593   */\n      swap2\n      pop\n        /* \"#utility.yul\":5316:5599   */\n      pop\n        /* \"#utility.yul\":5226:5599   */\n      swap3\n      swap2\n      pop\n      pop\n      jump\t// out\n        /* \"#utility.yul\":5605:5914   */\n    tag_13:\n        /* \"#utility.yul\":5716:5720   */\n      0x00\n        /* \"#utility.yul\":5754:5756   */\n      0x20\n        /* \"#utility.yul\":5743:5752   */\n      dup3\n        /* \"#utility.yul\":5739:5757   */\n      add\n        /* \"#utility.yul\":5731:5757   */\n      swap1\n      pop\n        /* \"#utility.yul\":5803:5812   */\n      dup2\n        /* \"#utility.yul\":5797:5801   */\n      dup2\n        /* \"#utility.yul\":5793:5813   */\n      sub\n        /* \"#utility.yul\":5789:5790   */\n      0x00\n        /* \"#utility.yul\":5778:5787   */\n      dup4\n        /* \"#utility.yul\":5774:5791   */\n      add\n        /* \"#utility.yul\":5767:5814   */\n      mstore\n        /* \"#utility.yul\":5831:5907   */\n      tag_149\n        /* \"#utility.yul\":5902:5906   */\n      dup2\n        /* \"#utility.yul\":5893:5899   */\n      dup5\n        /* \"#utility.yul\":5831:5907   */\n      tag_59\n      jump\t// in\n    tag_149:\n        /* \"#utility.yul\":5823:5907   */\n      swap1\n      pop\n        /* \"#utility.yul\":5605:5914   */\n      swap3\n      swap2\n      pop\n      pop\n      jump\t// out\n        /* \"#utility.yul\":5920:6035   */\n    tag_60:\n        /* \"#utility.yul\":6005:6028   */\n      tag_151\n        /* \"#utility.yul\":6022:6027   */\n      dup2\n        /* \"#utility.yul\":6005:6028   */\n      tag_47\n      jump\t// in\n    tag_151:\n        /* \"#utility.yul\":6000:6003   */\n      dup3\n        /* \"#utility.yul\":5993:6029   */\n      mstore\n        /* \"#utility.yul\":5920:6035   */\n      pop\n      pop\n      jump\t// out\n        /* \"#utility.yul\":6041:6156   */\n    tag_61:\n        /* \"#utility.yul\":6126:6149   */\n      tag_153\n        /* \"#utility.yul\":6143:6148   */\n      dup2\n        /* \"#utility.yul\":6126:6149   */\n      tag_50\n      jump\t// in\n    tag_153:\n        /* \"#utility.yul\":6121:6124   */\n      dup3\n        /* \"#utility.yul\":6114:6150   */\n      mstore\n        /* \"#utility.yul\":6041:6156   */\n      pop\n      pop\n      jump\t// out\n        /* \"#utility.yul\":6162:6280   */\n    tag_62:\n        /* \"#utility.yul\":6249:6273   */\n      tag_155\n        /* \"#utility.yul\":6267:6272   */\n      dup2\n        /* \"#utility.yul\":6249:6273   */\n      tag_53\n      jump\t// in\n    tag_155:\n        /* \"#utility.yul\":6244:6247   */\n      dup3\n        /* \"#utility.yul\":6237:6274   */\n      mstore\n        /* \"#utility.yul\":6162:6280   */\n      pop\n      pop\n      jump\t// out\n        /* \"#utility.yul\":6286:6918   */\n    tag_17:\n        /* \"#utility.yul\":6477:6481   */\n      0x00\n        /* \"#utility.yul\":6515:6518   */\n      0x80\n        /* \"#utility.yul\":6504:6513   */\n      dup3\n        /* \"#utility.yul\":6500:6519   */\n      add\n        /* \"#utility.yul\":6492:6519   */\n      swap1\n      pop\n        /* \"#utility.yul\":6565:6574   */\n      dup2\n        /* \"#utility.yul\":6559:6563   */\n      dup2\n        /* \"#utility.yul\":6555:6575   */\n      sub\n        /* \"#utility.yul\":6551:6552   */\n      0x00\n        /* \"#utility.yul\":6540:6549   */\n      dup4\n        /* \"#utility.yul\":6536:6553   */\n      add\n        /* \"#utility.yul\":6529:6576   */\n      mstore\n        /* \"#utility.yul\":6593:6669   */\n      tag_157\n        /* \"#utility.yul\":6664:6668   */\n      dup2\n        /* \"#utility.yul\":6655:6661   */\n      dup8\n        /* \"#utility.yul\":6593:6669   */\n      tag_59\n      jump\t// in\n    tag_157:\n        /* \"#utility.yul\":6585:6669   */\n      swap1\n      pop\n        /* \"#utility.yul\":6679:6749   */\n      tag_158\n        /* \"#utility.yul\":6745:6747   */\n      0x20\n        /* \"#utility.yul\":6734:6743   */\n      dup4\n        /* \"#utility.yul\":6730:6748   */\n      add\n        /* \"#utility.yul\":6721:6727   */\n      dup7\n        /* \"#utility.yul\":6679:6749   */\n      tag_60\n      jump\t// in\n    tag_158:\n        /* \"#utility.yul\":6759:6829   */\n      tag_159\n        /* \"#utility.yul\":6825:6827   */\n      0x40\n        /* \"#utility.yul\":6814:6823   */\n      dup4\n        /* \"#utility.yul\":6810:6828   */\n      add\n        /* \"#utility.yul\":6801:6807   */\n      dup6\n        /* \"#utility.yul\":6759:6829   */\n      tag_61\n      jump\t// in\n    tag_159:\n        /* \"#utility.yul\":6839:6911   */\n      tag_160\n        /* \"#utility.yul\":6907:6909   */\n      0x60\n        /* \"#utility.yul\":6896:6905   */\n      dup4\n        /* \"#utility.yul\":6892:6910   */\n      add\n        /* \"#utility.yul\":6883:6889   */\n      dup5\n        /* \"#utility.yul\":6839:6911   */\n      tag_62\n      jump\t// in\n    tag_160:\n        /* \"#utility.yul\":6286:6918   */\n      swap6\n      swap5\n      pop\n      pop\n      pop\n      pop\n      pop\n      jump\t// out\n        /* \"#utility.yul\":6924:7104   */\n    tag_63:\n        /* \"#utility.yul\":6972:7049   */\n      0x4e487b7100000000000000000000000000000000000000000000000000000000\n        /* \"#utility.yul\":6969:6970   */\n      0x00\n        /* \"#utility.yul\":6962:7050   */\n      mstore\n        /* \"#utility.yul\":7069:7073   */\n      0x22\n        /* \"#utility.yul\":7066:7067   */\n      0x04\n        /* \"#utility.yul\":7059:7074   */\n      mstore\n        /* \"#utility.yul\":7093:7097   */\n      0x24\n        /* \"#utility.yul\":7090:7091   */\n      0x00\n        /* \"#utility.yul\":7083:7098   */\n      revert\n        /* \"#utility.yul\":7110:7430   */\n    tag_23:\n        /* \"#utility.yul\":7154:7160   */\n      0x00\n        /* \"#utility.yul\":7191:7192   */\n      0x02\n        /* \"#utility.yul\":7185:7189   */\n      dup3\n        /* \"#utility.yul\":7181:7193   */\n      div\n        /* \"#utility.yul\":7171:7193   */\n      swap1\n      pop\n        /* \"#utility.yul\":7238:7239   */\n      0x01\n        /* \"#utility.yul\":7232:7236   */\n      dup3\n        /* \"#utility.yul\":7228:7240   */\n      and\n        /* \"#utility.yul\":7259:7277   */\n      dup1\n        /* \"#utility.yul\":7249:7330   */\n      tag_163\n      jumpi\n        /* \"#utility.yul\":7315:7319   */\n      0x7f\n        /* \"#utility.yul\":7307:7313   */\n      dup3\n        /* \"#utility.yul\":7303:7320   */\n      and\n        /* \"#utility.yul\":7293:7320   */\n      swap2\n      pop\n        /* \"#utility.yul\":7249:7330   */\n    tag_163:\n        /* \"#utility.yul\":7377:7379   */\n      0x20\n        /* \"#utility.yul\":7369:7375   */\n      dup3\n        /* \"#utility.yul\":7366:7380   */\n      lt\n        /* \"#utility.yul\":7346:7364   */\n      dup2\n        /* \"#utility.yul\":7343:7381   */\n      sub\n        /* \"#utility.yul\":7340:7424   */\n      tag_164\n      jumpi\n        /* \"#utility.yul\":7396:7414   */\n      tag_165\n      tag_63\n      jump\t// in\n    tag_165:\n        /* \"#utility.yul\":7340:7424   */\n    tag_164:\n        /* \"#utility.yul\":7161:7430   */\n      pop\n        /* \"#utility.yul\":7110:7430   */\n      swap2\n      swap1\n      pop\n      jump\t// out\n        /* \"#utility.yul\":7436:7576   */\n    tag_64:\n        /* \"#utility.yul\":7484:7488   */\n      0x00\n        /* \"#utility.yul\":7507:7510   */\n      dup2\n        /* \"#utility.yul\":7499:7510   */\n      swap1\n      pop\n        /* \"#utility.yul\":7530:7533   */\n      dup2\n        /* \"#utility.yul\":7527:7528   */\n      0x00\n        /* \"#utility.yul\":7520:7534   */\n      mstore\n        /* \"#utility.yul\":7564:7568   */\n      0x20\n        /* \"#utility.yul\":7561:7562   */\n      0x00\n        /* \"#utility.yul\":7551:7569   */\n      keccak256\n        /* \"#utility.yul\":7543:7569   */\n      swap1\n      pop\n        /* \"#utility.yul\":7436:7576   */\n      swap2\n      swap1\n      pop\n      jump\t// out\n        /* \"#utility.yul\":7582:7675   */\n    tag_65:\n        /* \"#utility.yul\":7619:7625   */\n      0x00\n        /* \"#utility.yul\":7666:7668   */\n      0x20\n        /* \"#utility.yul\":7661:7663   */\n      0x1f\n        /* \"#utility.yul\":7654:7659   */\n      dup4\n        /* \"#utility.yul\":7650:7664   */\n      add\n        /* \"#utility.yul\":7646:7669   */\n      div\n        /* \"#utility.yul\":7636:7669   */\n      swap1\n      pop\n        /* \"#utility.yul\":7582:7675   */\n      swap2\n      swap1\n      pop\n      jump\t// out\n        /* \"#utility.yul\":7681:7788   */\n    tag_66:\n        /* \"#utility.yul\":7725:7733   */\n      0x00\n        /* \"#utility.yul\":7775:7780   */\n      dup3\n        /* \"#utility.yul\":7769:7773   */\n      dup3\n        /* \"#utility.yul\":7765:7781   */\n      shl\n        /* \"#utility.yul\":7744:7781   */\n      swap1\n      pop\n        /* \"#utility.yul\":7681:7788   */\n      swap3\n      swap2\n      pop\n      pop\n      jump\t// out\n        /* \"#utility.yul\":7794:8187   */\n    tag_67:\n        /* \"#utility.yul\":7863:7869   */\n      0x00\n        /* \"#utility.yul\":7913:7914   */\n      0x08\n        /* \"#utility.yul\":7901:7911   */\n      dup4\n        /* \"#utility.yul\":7897:7915   */\n      mul\n        /* \"#utility.yul\":7936:8033   */\n      tag_170\n        /* \"#utility.yul\":7966:8032   */\n      0xffffffffffffffffffffffffffffffffffffffffffffffffffffffffffffffff\n        /* \"#utility.yul\":7955:7964   */\n      dup3\n        /* \"#utility.yul\":7936:8033   */\n      tag_66\n      jump\t// in\n    tag_170:\n        /* \"#utility.yul\":8054:8093   */\n      tag_171\n        /* \"#utility.yul\":8084:8092   */\n      dup7\n        /* \"#utility.yul\":8073:8082   */\n      dup4\n        /* \"#utility.yul\":8054:8093   */\n      tag_66\n      jump\t// in\n    tag_171:\n        /* \"#utility.yul\":8042:8093   */\n      swap6\n      pop\n        /* \"#utility.yul\":8126:8130   */\n      dup1\n        /* \"#utility.yul\":8122:8131   */\n      not\n        /* \"#utility.yul\":8115:8120   */\n      dup5\n        /* \"#utility.yul\":8111:8132   */\n      and\n        /* \"#utility.yul\":8102:8132   */\n      swap4\n      pop\n        /* \"#utility.yul\":8175:8179   */\n      dup1\n        /* \"#utility.yul\":8165:8173   */\n      dup7\n        /* \"#utility.yul\":8161:8180   */\n      and\n        /* \"#utility.yul\":8154:8159   */\n      dup5\n        /* \"#utility.yul\":8151:8181   */\n      or\n        /* \"#utility.yul\":8141:8181   */\n      swap3\n      pop\n        /* \"#utility.yul\":7870:8187   */\n      pop\n      pop\n        /* \"#utility.yul\":7794:8187   */\n      swap4\n      swap3\n      pop\n      pop\n      pop\n      jump\t// out\n        /* \"#utility.yul\":8193:8270   */\n    tag_68:\n        /* \"#utility.yul\":8230:8237   */\n      0x00\n        /* \"#utility.yul\":8259:8264   */\n      dup2\n        /* \"#utility.yul\":8248:8264   */\n      swap1\n      pop\n        /* \"#utility.yul\":8193:8270   */\n      swap2\n      swap1\n      pop\n      jump\t// out\n        /* \"#utility.yul\":8276:8336   */\n    tag_69:\n        /* \"#utility.yul\":8304:8307   */\n      0x00\n        /* \"#utility.yul\":8325:8330   */\n      dup2\n        /* \"#utility.yul\":8318:8330   */\n      swap1\n      pop\n        /* \"#utility.yul\":8276:8336   */\n      swap2\n      swap1\n      pop\n      jump\t// out\n        /* \"#utility.yul\":8342:8484   */\n    tag_70:\n        /* \"#utility.yul\":8392:8401   */\n      0x00\n        /* \"#utility.yul\":8425:8478   */\n      tag_175\n        /* \"#utility.yul\":8443:8477   */\n      tag_176\n        /* \"#utility.yul\":8452:8476   */\n      tag_177\n        /* \"#utility.yul\":8470:8475   */\n      dup5\n        /* \"#utility.yul\":8452:8476   */\n      tag_68\n      jump\t// in\n    tag_177:\n        /* \"#utility.yul\":8443:8477   */\n      tag_69\n      jump\t// in\n    tag_176:\n        /* \"#utility.yul\":8425:8478   */\n      tag_68\n      jump\t// in\n    tag_175:\n        /* \"#utility.yul\":8412:8478   */\n      swap1\n      pop\n        /* \"#utility.yul\":8342:8484   */\n      swap2\n      swap1\n      pop\n      jump\t// out\n        /* \"#utility.yul\":8490:8565   */\n    tag_71:\n        /* \"#utility.yul\":8533:8536   */\n      0x00\n        /* \"#utility.yul\":8554:8559   */\n      dup2\n        /* \"#utility.yul\":8547:8559   */\n      swap1\n      pop\n        /* \"#utility.yul\":8490:8565   */\n      swap2\n      swap1\n      pop\n      jump\t// out\n        /* \"#utility.yul\":8571:8840   */\n    tag_72:\n        /* \"#utility.yul\":8681:8720   */\n      tag_180\n        /* \"#utility.yul\":8712:8719   */\n      dup4\n        /* \"#utility.yul\":8681:8720   */\n      tag_70\n      jump\t// in\n    tag_180:\n        /* \"#utility.yul\":8742:8833   */\n      tag_181\n        /* \"#utility.yul\":8791:8832   */\n      tag_182\n        /* \"#utility.yul\":8815:8831   */\n      dup3\n        /* \"#utility.yul\":8791:8832   */\n      tag_71\n      jump\t// in\n    tag_182:\n        /* \"#utility.yul\":8783:8789   */\n      dup5\n        /* \"#utility.yul\":8776:8780   */\n      dup5\n        /* \"#utility.yul\":8770:8781   */\n      sload\n        /* \"#utility.yul\":8742:8833   */\n      tag_67\n      jump\t// in\n    tag_181:\n        /* \"#utility.yul\":8736:8740   */\n      dup3\n        /* \"#utility.yul\":8729:8834   */\n      sstore\n        /* \"#utility.yul\":8647:8840   */\n      pop\n        /* \"#utility.yul\":8571:8840   */\n      pop\n      pop\n      pop\n      jump\t// out\n        /* \"#utility.yul\":8846:8919   */\n    tag_73:\n        /* \"#utility.yul\":8891:8894   */\n      0x00\n        /* \"#utility.yul\":8846:8919   */\n      swap1\n      jump\t// out\n        /* \"#utility.yul\":8925:9114   */\n    tag_74:\n        /* \"#utility.yul\":9002:9034   */\n      tag_185\n      tag_73\n      jump\t// in\n    tag_185:\n        /* \"#utility.yul\":9043:9108   */\n      tag_186\n        /* \"#utility.yul\":9101:9107   */\n      dup2\n        /* \"#utility.yul\":9093:9099   */\n      dup5\n        /* \"#utility.yul\":9087:9091   */\n      dup5\n        /* \"#utility.yul\":9043:9108   */\n      tag_72\n      jump\t// in\n    tag_186:\n        /* \"#utility.yul\":8978:9114   */\n      pop\n        /* \"#utility.yul\":8925:9114   */\n      pop\n      pop\n      jump\t// out\n        /* \"#utility.yul\":9120:9306   */\n    tag_75:\n        /* \"#utility.yul\":9180:9300   */\n    tag_188:\n        /* \"#utility.yul\":9197:9200   */\n      dup2\n        /* \"#utility.yul\":9190:9195   */\n      dup2\n        /* \"#utility.yul\":9187:9201   */\n      lt\n        /* \"#utility.yul\":9180:9300   */\n      iszero\n      tag_190\n      jumpi\n        /* \"#utility.yul\":9251:9290   */\n      tag_191\n        /* \"#utility.yul\":9288:9289   */\n      0x00\n        /* \"#utility.yul\":9281:9286   */\n      dup3\n        /* \"#utility.yul\":9251:9290   */\n      tag_74\n      jump\t// in\n    tag_191:\n        /* \"#utility.yul\":9224:9225   */\n      0x01\n        /* \"#utility.yul\":9217:9222   */\n      dup2\n        /* \"#utility.yul\":9213:9226   */\n      add\n        /* \"#utility.yul\":9204:9226   */\n      swap1\n      pop\n        /* \"#utility.yul\":9180:9300   */\n      jump(tag_188)\n    tag_190:\n        /* \"#utility.yul\":9120:9306   */\n      pop\n      pop\n      jump\t// out\n        /* \"#utility.yul\":9312:9853   */\n    tag_76:\n        /* \"#utility.yul\":9412:9414   */\n      0x1f\n        /* \"#utility.yul\":9407:9410   */\n      dup3\n        /* \"#utility.yul\":9404:9415   */\n      gt\n        /* \"#utility.yul\":9401:9846   */\n      iszero\n      tag_193\n      jumpi\n        /* \"#utility.yul\":9446:9483   */\n      tag_194\n        /* \"#utility.yul\":9477:9482   */\n      dup2\n        /* \"#utility.yul\":9446:9483   */\n      tag_64\n      jump\t// in\n    tag_194:\n        /* \"#utility.yul\":9529:9558   */\n      tag_195\n        /* \"#utility.yul\":9547:9557   */\n      dup5\n        /* \"#utility.yul\":9529:9558   */\n      tag_65\n      jump\t// in\n    tag_195:\n        /* \"#utility.yul\":9519:9527   */\n      dup2\n        /* \"#utility.yul\":9515:9559   */\n      add\n        /* \"#utility.yul\":9712:9714   */\n      0x20\n        /* \"#utility.yul\":9700:9710   */\n      dup6\n        /* \"#utility.yul\":9697:9715   */\n      lt\n        /* \"#utility.yul\":9694:9743   */\n      iszero\n      tag_196\n      jumpi\n        /* \"#utility.yul\":9733:9741   */\n      dup2\n        /* \"#utility.yul\":9718:9741   */\n      swap1\n      pop\n        /* \"#utility.yul\":9694:9743   */\n    tag_196:\n        /* \"#utility.yul\":9756:9836   */\n      tag_197\n        /* \"#utility.yul\":9812:9834   */\n      tag_198\n        /* \"#utility.yul\":9830:9833   */\n      dup6\n        /* \"#utility.yul\":9812:9834   */\n      tag_65\n      jump\t// in\n    tag_198:\n        /* \"#utility.yul\":9802:9810   */\n      dup4\n        /* \"#utility.yul\":9798:9835   */\n      add\n        /* \"#utility.yul\":9785:9796   */\n      dup3\n        /* \"#utility.yul\":9756:9836   */\n      tag_75\n      jump\t// in\n    tag_197:\n        /* \"#utility.yul\":9416:9846   */\n      pop\n      pop\n        /* \"#utility.yul\":9401:9846   */\n    tag_193:\n        /* \"#utility.yul\":9312:9853   */\n      pop\n      pop\n      pop\n      jump\t// out\n        /* \"#utility.yul\":9859:9976   */\n    tag_77:\n        /* \"#utility.yul\":9913:9921   */\n      0x00\n        /* \"#utility.yul\":9963:9968   */\n      dup3\n        /* \"#utility.yul\":9957:9961   */\n      dup3\n        /* \"#utility.yul\":9953:9969   */\n      shr\n        /* \"#utility.yul\":9932:9969   */\n      swap1\n      pop\n        /* \"#utility.yul\":9859:9976   */\n      swap3\n      swap2\n      pop\n      pop\n      jump\t// out\n        /* \"#utility.yul\":9982:10151   */\n    tag_78:\n        /* \"#utility.yul\":10026:10032   */\n      0x00\n        /* \"#utility.yul\":10059:10110   */\n      tag_201\n        /* \"#utility.yul\":10107:10108   */\n      0x00\n        /* \"#utility.yul\":10103:10109   */\n      not\n        /* \"#utility.yul\":10095:10100   */\n      dup5\n        /* \"#utility.yul\":10092:10093   */\n      0x08\n        /* \"#utility.yul\":10088:10101   */\n      mul\n        /* \"#utility.yul\":10059:10110   */\n      tag_77\n      jump\t// in\n    tag_201:\n        /* \"#utility.yul\":10055:10111   */\n      not\n        /* \"#utility.yul\":10140:10144   */\n      dup1\n        /* \"#utility.yul\":10134:10138   */\n      dup4\n        /* \"#utility.yul\":10130:10145   */\n      and\n        /* \"#utility.yul\":10120:10145   */\n      swap2\n      pop\n        /* \"#utility.yul\":10033:10151   */\n      pop\n        /* \"#utility.yul\":9982:10151   */\n      swap3\n      swap2\n      pop\n      pop\n      jump\t// out\n        /* \"#utility.yul\":10156:10451   */\n    tag_79:\n        /* \"#utility.yul\":10232:10236   */\n      0x00\n        /* \"#utility.yul\":10378:10407   */\n      tag_203\n        /* \"#utility.yul\":10403:10406   */\n      dup4\n        /* \"#utility.yul\":10397:10401   */\n      dup4\n        /* \"#utility.yul\":10378:10407   */\n      tag_78\n      jump\t// in\n    tag_203:\n        /* \"#utility.yul\":10370:10407   */\n      swap2\n      pop\n        /* \"#utility.yul\":10440:10443   */\n      dup3\n        /* \"#utility.yul\":10437:10438   */\n      0x02\n        /* \"#utility.yul\":10433:10444   */\n      mul\n        /* \"#utility.yul\":10427:10431   */\n      dup3\n        /* \"#utility.yul\":10424:10445   */\n      or\n        /* \"#utility.yul\":10416:10445   */\n      swap1\n      pop\n        /* \"#utility.yul\":10156:10451   */\n      swap3\n      swap2\n      pop\n      pop\n      jump\t// out\n        /* \"#utility.yul\":10456:11846   */\n    tag_20:\n        /* \"#utility.yul\":10571:10607   */\n      tag_205\n        /* \"#utility.yul\":10603:10606   */\n      dup3\n        /* \"#utility.yul\":10571:10607   */\n      tag_56\n      jump\t// in\n    tag_205:\n        /* \"#utility.yul\":10672:10690   */\n      0xffffffffffffffff\n        /* \"#utility.yul\":10664:10670   */\n      dup2\n        /* \"#utility.yul\":10661:10691   */\n      gt\n        /* \"#utility.yul\":10658:10714   */\n      iszero\n      tag_206\n      jumpi\n        /* \"#utility.yul\":10694:10712   */\n      tag_207\n      tag_40\n      jump\t// in\n    tag_207:\n        /* \"#utility.yul\":10658:10714   */\n    tag_206:\n        /* \"#utility.yul\":10738:10776   */\n      tag_208\n        /* \"#utility.yul\":10770:10774   */\n      dup3\n        /* \"#utility.yul\":10764:10775   */\n      sload\n        /* \"#utility.yul\":10738:10776   */\n      tag_23\n      jump\t// in\n    tag_208:\n        /* \"#utility.yul\":10823:10889   */\n      tag_209\n        /* \"#utility.yul\":10882:10888   */\n      dup3\n        /* \"#utility.yul\":10874:10880   */\n      dup3\n        /* \"#utility.yul\":10868:10872   */\n      dup6\n        /* \"#utility.yul\":10823:10889   */\n      tag_76\n      jump\t// in\n    tag_209:\n        /* \"#utility.yul\":10916:10917   */\n      0x00\n        /* \"#utility.yul\":10940:10944   */\n      0x20\n        /* \"#utility.yul\":10927:10944   */\n      swap1\n      pop\n        /* \"#utility.yul\":10972:10974   */\n      0x1f\n        /* \"#utility.yul\":10964:10970   */\n      dup4\n        /* \"#utility.yul\":10961:10975   */\n      gt\n        /* \"#utility.yul\":10989:10990   */\n      0x01\n        /* \"#utility.yul\":10984:11601   */\n      dup2\n      eq\n      tag_211\n      jumpi\n        /* \"#utility.yul\":11645:11646   */\n      0x00\n        /* \"#utility.yul\":11662:11668   */\n      dup5\n        /* \"#utility.yul\":11659:11736   */\n      iszero\n      tag_212\n      jumpi\n        /* \"#utility.yul\":11711:11720   */\n      dup3\n        /* \"#utility.yul\":11706:11709   */\n      dup8\n        /* \"#utility.yul\":11702:11721   */\n      add\n        /* \"#utility.yul\":11696:11722   */\n      mload\n        /* \"#utility.yul\":11687:11722   */\n      swap1\n      pop\n        /* \"#utility.yul\":11659:11736   */\n    tag_212:\n        /* \"#utility.yul\":11762:11829   */\n      tag_213\n        /* \"#utility.yul\":11822:11828   */\n      dup6\n        /* \"#utility.yul\":11815:11820   */\n      dup3\n        /* \"#utility.yul\":11762:11829   */\n      tag_79\n      jump\t// in\n    tag_213:\n        /* \"#utility.yul\":11756:11760   */\n      dup7\n        /* \"#utility.yul\":11749:11830   */\n      sstore\n        /* \"#utility.yul\":11618:11840   */\n      pop\n        /* \"#utility.yul\":10954:11840   */\n      jump(tag_210)\n        /* \"#utility.yul\":10984:11601   */\n    tag_211:\n        /* \"#utility.yul\":11036:11040   */\n      0x1f\n        /* \"#utility.yul\":11032:11041   */\n      not\n        /* \"#utility.yul\":11024:11030   */\n      dup5\n        /* \"#utility.yul\":11020:11042   */\n      and\n        /* \"#utility.yul\":11070:11106   */\n      tag_214\n        /* \"#utility.yul\":11101:11105   */\n      dup7\n        /* \"#utility.yul\":11070:11106   */\n      tag_64\n      jump\t// in\n    tag_214:\n        /* \"#utility.yul\":11128:11129   */\n      0x00\n        /* \"#utility.yul\":11142:11350   */\n    tag_215:\n        /* \"#utility.yul\":11156:11163   */\n      dup3\n        /* \"#utility.yul\":11153:11154   */\n      dup2\n        /* \"#utility.yul\":11150:11164   */\n      lt\n        /* \"#utility.yul\":11142:11350   */\n      iszero\n      tag_217\n      jumpi\n        /* \"#utility.yul\":11235:11244   */\n      dup5\n        /* \"#utility.yul\":11230:11233   */\n      dup10\n        /* \"#utility.yul\":11226:11245   */\n      add\n        /* \"#utility.yul\":11220:11246   */\n      mload\n        /* \"#utility.yul\":11212:11218   */\n      dup3\n        /* \"#utility.yul\":11205:11247   */\n      sstore\n        /* \"#utility.yul\":11286:11287   */\n      0x01\n        /* \"#utility.yul\":11278:11284   */\n      dup3\n        /* \"#utility.yul\":11274:11288   */\n      add\n        /* \"#utility.yul\":11264:11288   */\n      swap2\n      pop\n        /* \"#utility.yul\":11333:11335   */\n      0x20\n        /* \"#utility.yul\":11322:11331   */\n      dup6\n        /* \"#utility.yul\":11318:11336   */\n      add\n        /* \"#utility.yul\":11305:11336   */\n      swap5\n      pop\n        /* \"#utility.yul\":11179:11183   */\n      0x20\n        /* \"#utility.yul\":11176:11177   */\n      dup2\n        /* \"#utility.yul\":11172:11184   */\n      add\n        /* \"#utility.yul\":11167:11184   */\n      swap1\n      pop\n        /* \"#utility.yul\":11142:11350   */\n      jump(tag_215)\n    tag_217:\n        /* \"#utility.yul\":11378:11384   */\n      dup7\n        /* \"#utility.yul\":11369:11376   */\n      dup4\n        /* \"#utility.yul\":11366:11385   */\n      lt\n        /* \"#utility.yul\":11363:11542   */\n      iszero\n      tag_218\n      jumpi\n        /* \"#utility.yul\":11436:11445   */\n      dup5\n        /* \"#utility.yul\":11431:11434   */\n      dup10\n        /* \"#utility.yul\":11427:11446   */\n      add\n        /* \"#utility.yul\":11421:11447   */\n      mload\n        /* \"#utility.yul\":11479:11527   */\n      tag_219\n        /* \"#utility.yul\":11521:11525   */\n      0x1f\n        /* \"#utility.yul\":11513:11519   */\n      dup10\n        /* \"#utility.yul\":11509:11526   */\n      and\n        /* \"#utility.yul\":11498:11507   */\n      dup3\n        /* \"#utility.yul\":11479:11527   */\n      tag_78\n      jump\t// in\n    tag_219:\n        /* \"#utility.yul\":11471:11477   */\n      dup4\n        /* \"#utility.yul\":11464:11528   */\n      sstore\n        /* \"#utility.yul\":11386:11542   */\n      pop\n        /* \"#utility.yul\":11363:11542   */\n    tag_218:\n        /* \"#utility.yul\":11588:11589   */\n      0x01\n        /* \"#utility.yul\":11584:11585   */\n      0x02\n        /* \"#utility.yul\":11576:11582   */\n      dup9\n        /* \"#utility.yul\":11572:11586   */\n      mul\n        /* \"#utility.yul\":11568:11590   */\n      add\n        /* \"#utility.yul\":11562:11566   */\n      dup9\n        /* \"#utility.yul\":11555:11591   */\n      sstore\n        /* \"#utility.yul\":10991:11601   */\n      pop\n      pop\n      pop\n        /* \"#utility.yul\":10954:11840   */\n    tag_210:\n      pop\n        /* \"#utility.yul\":10546:11846   */\n      pop\n      pop\n      pop\n        /* \"#utility.yul\":10456:11846   */\n      pop\n      pop\n      jump\t// out\n\n    auxdata: 0xa26469706673582212201dfbef66f0e280078901aabd1166105bb44d0e6745ac21fb7cfe3fa28cfe182564736f6c63430008120033\n}\n",
				"bytecode": {
					"linkReferences": {},
					"object": "60806040526040518060400160405280600581526020017f68656c6c6f000000000000000000000000000000000000000000000000000000815250600390816200004a9190620002d9565b503480156200005857600080fd5b50620003c0565b600081519050919050565b7f4e487b7100000000000000000000000000000000000000000000000000000000600052604160045260246000fd5b7f4e487b7100000000000000000000000000000000000000000000000000000000600052602260045260246000fd5b60006002820490506001821680620000e157607f821691505b602082108103620000f757620000f662000099565b5b50919050565b60008190508160005260206000209050919050565b60006020601f8301049050919050565b600082821b905092915050565b600060088302620001617fffffffffffffffffffffffffffffffffffffffffffffffffffffffffffffffff8262000122565b6200016d868362000122565b95508019841693508086168417925050509392505050565b6000819050919050565b6000819050919050565b6000620001ba620001b4620001ae8462000185565b6200018f565b62000185565b9050919050565b6000819050919050565b620001d68362000199565b620001ee620001e582620001c1565b8484546200012f565b825550505050565b600090565b62000205620001f6565b62000212818484620001cb565b505050565b5b818110156200023a576200022e600082620001fb565b60018101905062000218565b5050565b601f82111562000289576200025381620000fd565b6200025e8462000112565b810160208510156200026e578190505b620002866200027d8562000112565b83018262000217565b50505b505050565b600082821c905092915050565b6000620002ae600019846008026200028e565b1980831691505092915050565b6000620002c983836200029b565b9150826002028217905092915050565b620002e4826200005f565b67ffffffffffffffff8111156200030057620002ff6200006a565b5b6200030c8254620000c8565b620003198282856200023e565b600060209050601f8311600181146200035157600084156200033c578287015190505b620003488582620002bb565b865550620003b8565b601f1984166200036186620000fd565b60005b828110156200038b5784890151825560018201915060208501945060208101905062000364565b86831015620003ab5784890151620003a7601f8916826200029b565b8355505b6001600288020188555050505b505050505050565b61094480620003d06000396000f3fe608060405234801561001057600080fd5b50600436106100415760003560e01c806348aa931e14610046578063b1cb267b14610062578063c736694e14610080575b600080fd5b610060600480360381019061005b9190610489565b6100a1565b005b61006a6100f4565b604051610077919061058b565b60405180910390f35b610088610186565b60405161009894939291906105da565b60405180910390f35b83600090816100b0919061083c565b5082600160006101000a81548160ff021916908360f81c0217905550816001806101000a81548161ffff021916908360f01c02179055508060028190555050505050565b60606003805461010390610655565b80601f016020809104026020016040519081016040528092919081815260200182805461012f90610655565b801561017c5780601f106101515761010080835404028352916020019161017c565b820191906000526020600020905b81548152906001019060200180831161015f57829003601f168201915b5050505050905090565b6060600080600080600160009054906101000a900460f81b60018054906101000a900460f01b6002548380546101bb90610655565b80601f01602080910402602001604051908101604052809291908181526020018280546101e790610655565b80156102345780601f1061020957610100808354040283529160200191610234565b820191906000526020600020905b81548152906001019060200180831161021757829003601f168201915b50505050509350935093509350935090919293565b6000604051905090565b600080fd5b600080fd5b600080fd5b600080fd5b6000601f19601f8301169050919050565b7f4e487b7100000000000000000000000000000000000000000000000000000000600052604160045260246000fd5b6102b082610267565b810181811067ffffffffffffffff821117156102cf576102ce610278565b5b80604052505050565b60006102e2610249565b90506102ee82826102a7565b919050565b600067ffffffffffffffff82111561030e5761030d610278565b5b61031782610267565b9050602081019050919050565b82818337600083830152505050565b6000610346610341846102f3565b6102d8565b90508281526020810184848401111561036257610361610262565b5b61036d848285610324565b509392505050565b600082601f83011261038a5761038961025d565b5b813561039a848260208601610333565b91505092915050565b60007fff0000000000000000000000000000000000000000000000000000000000000082169050919050565b6103d8816103a3565b81146103e357600080fd5b50565b6000813590506103f5816103cf565b92915050565b60007fffff00000000000000000000000000000000000000000000000000000000000082169050919050565b610430816103fb565b811461043b57600080fd5b50565b60008135905061044d81610427565b92915050565b6000819050919050565b61046681610453565b811461047157600080fd5b50565b6000813590506104838161045d565b92915050565b600080600080608085870312156104a3576104a2610253565b5b600085013567ffffffffffffffff8111156104c1576104c0610258565b5b6104cd87828801610375565b94505060206104de878288016103e6565b93505060406104ef8782880161043e565b925050606061050087828801610474565b91505092959194509250565b600081519050919050565b600082825260208201905092915050565b60005b8381101561054657808201518184015260208101905061052b565b60008484015250505050565b600061055d8261050c565b6105678185610517565b9350610577818560208601610528565b61058081610267565b840191505092915050565b600060208201905081810360008301526105a58184610552565b905092915050565b6105b6816103a3565b82525050565b6105c5816103fb565b82525050565b6105d481610453565b82525050565b600060808201905081810360008301526105f48187610552565b905061060360208301866105ad565b61061060408301856105bc565b61061d60608301846105cb565b95945050505050565b7f4e487b7100000000000000000000000000000000000000000000000000000000600052602260045260246000fd5b6000600282049050600182168061066d57607f821691505b6020821081036106805761067f610626565b5b50919050565b60008190508160005260206000209050919050565b60006020601f8301049050919050565b600082821b905092915050565b6000600883026106e87fffffffffffffffffffffffffffffffffffffffffffffffffffffffffffffffff826106ab565b6106f286836106ab565b95508019841693508086168417925050509392505050565b6000819050919050565b6000819050919050565b600061073961073461072f8461070a565b610714565b61070a565b9050919050565b6000819050919050565b6107538361071e565b61076761075f82610740565b8484546106b8565b825550505050565b600090565b61077c61076f565b61078781848461074a565b505050565b5b818110156107ab576107a0600082610774565b60018101905061078d565b5050565b601f8211156107f0576107c181610686565b6107ca8461069b565b810160208510156107d9578190505b6107ed6107e58561069b565b83018261078c565b50505b505050565b600082821c905092915050565b6000610813600019846008026107f5565b1980831691505092915050565b600061082c8383610802565b9150826002028217905092915050565b6108458261050c565b67ffffffffffffffff81111561085e5761085d610278565b5b6108688254610655565b6108738282856107af565b600060209050601f8311600181146108a65760008415610894578287015190505b61089e8582610820565b865550610906565b601f1984166108b486610686565b60005b828110156108dc578489015182556001820191506020850194506020810190506108b7565b868310156108f957848901516108f5601f891682610802565b8355505b6001600288020188555050505b50505050505056fea26469706673582212201dfbef66f0e280078901aabd1166105bb44d0e6745ac21fb7cfe3fa28cfe182564736f6c63430008120033",
					"opcodes": "PUSH1 0x80 PUSH1 0x40 MSTORE PUSH1 0x40 MLOAD DUP1 PUSH1 0x40 ADD PUSH1 0x40 MSTORE DUP1 PUSH1 0x5 DUP2 MSTORE PUSH1 0x20 ADD PUSH32 0x68656C6C6F000000000000000000000000000000000000000000000000000000 DUP2 MSTORE POP PUSH1 0x3 SWAP1 DUP2 PUSH3 0x4A SWAP2 SWAP1 PUSH3 0x2D9 JUMP JUMPDEST POP CALLVALUE DUP1 ISZERO PUSH3 0x58 JUMPI PUSH1 0x0 DUP1 REVERT JUMPDEST POP PUSH3 0x3C0 JUMP JUMPDEST PUSH1 0x0 DUP2 MLOAD SWAP1 POP SWAP2 SWAP1 POP JUMP JUMPDEST PUSH32 0x4E487B7100000000000000000000000000000000000000000000000000000000 PUSH1 0x0 MSTORE PUSH1 0x41 PUSH1 0x4 MSTORE PUSH1 0x24 PUSH1 0x0 REVERT JUMPDEST PUSH32 0x4E487B7100000000000000000000000000000000000000000000000000000000 PUSH1 0x0 MSTORE PUSH1 0x22 PUSH1 0x4 MSTORE PUSH1 0x24 PUSH1 0x0 REVERT JUMPDEST PUSH1 0x0 PUSH1 0x2 DUP3 DIV SWAP1 POP PUSH1 0x1 DUP3 AND DUP1 PUSH3 0xE1 JUMPI PUSH1 0x7F DUP3 AND SWAP2 POP JUMPDEST PUSH1 0x20 DUP3 LT DUP2 SUB PUSH3 0xF7 JUMPI PUSH3 0xF6 PUSH3 0x99 JUMP JUMPDEST JUMPDEST POP SWAP2 SWAP1 POP JUMP JUMPDEST PUSH1 0x0 DUP2 SWAP1 POP DUP2 PUSH1 0x0 MSTORE PUSH1 0x20 PUSH1 0x0 KECCAK256 SWAP1 POP SWAP2 SWAP1 POP JUMP JUMPDEST PUSH1 0x0 PUSH1 0x20 PUSH1 0x1F DUP4 ADD DIV SWAP1 POP SWAP2 SWAP1 POP JUMP JUMPDEST PUSH1 0x0 DUP3 DUP3 SHL SWAP1 POP SWAP3 SWAP2 POP POP JUMP JUMPDEST PUSH1 0x0 PUSH1 0x8 DUP4 MUL PUSH3 0x161 PUSH32 0xFFFFFFFFFFFFFFFFFFFFFFFFFFFFFFFFFFFFFFFFFFFFFFFFFFFFFFFFFFFFFFFF DUP3 PUSH3 0x122 JUMP JUMPDEST PUSH3 0x16D DUP7 DUP4 PUSH3 0x122 JUMP JUMPDEST SWAP6 POP DUP1 NOT DUP5 AND SWAP4 POP DUP1 DUP7 AND DUP5 OR SWAP3 POP POP POP SWAP4 SWAP3 POP POP POP JUMP JUMPDEST PUSH1 0x0 DUP2 SWAP1 POP SWAP2 SWAP1 POP JUMP JUMPDEST PUSH1 0x0 DUP2 SWAP1 POP SWAP2 SWAP1 POP JUMP JUMPDEST PUSH1 0x0 PUSH3 0x1BA PUSH3 0x1B4 PUSH3 0x1AE DUP5 PUSH3 0x185 JUMP JUMPDEST PUSH3 0x18F JUMP JUMPDEST PUSH3 0x185 JUMP JUMPDEST SWAP1 POP SWAP2 SWAP1 POP JUMP JUMPDEST PUSH1 0x0 DUP2 SWAP1 POP SWAP2 SWAP1 POP JUMP JUMPDEST PUSH3 0x1D6 DUP4 PUSH3 0x199 JUMP JUMPDEST PUSH3 0x1EE PUSH3 0x1E5 DUP3 PUSH3 0x1C1 JUMP JUMPDEST DUP5 DUP5 SLOAD PUSH3 0x12F JUMP JUMPDEST DUP3 SSTORE POP POP POP POP JUMP JUMPDEST PUSH1 0x0 SWAP1 JUMP JUMPDEST PUSH3 0x205 PUSH3 0x1F6 JUMP JUMPDEST PUSH3 0x212 DUP2 DUP5 DUP5 PUSH3 0x1CB JUMP JUMPDEST POP POP POP JUMP JUMPDEST JUMPDEST DUP2 DUP2 LT ISZERO PUSH3 0x23A JUMPI PUSH3 0x22E PUSH1 0x0 DUP3 PUSH3 0x1FB JUMP JUMPDEST PUSH1 0x1 DUP2 ADD SWAP1 POP PUSH3 0x218 JUMP JUMPDEST POP POP JUMP JUMPDEST PUSH1 0x1F DUP3 GT ISZERO PUSH3 0x289 JUMPI PUSH3 0x253 DUP2 PUSH3 0xFD JUMP JUMPDEST PUSH3 0x25E DUP5 PUSH3 0x112 JUMP JUMPDEST DUP2 ADD PUSH1 0x20 DUP6 LT ISZERO PUSH3 0x26E JUMPI DUP2 SWAP1 POP JUMPDEST PUSH3 0x286 PUSH3 0x27D DUP6 PUSH3 0x112 JUMP JUMPDEST DUP4 ADD DUP3 PUSH3 0x217 JUMP JUMPDEST POP POP JUMPDEST POP POP POP JUMP JUMPDEST PUSH1 0x0 DUP3 DUP3 SHR SWAP1 POP SWAP3 SWAP2 POP POP JUMP JUMPDEST PUSH1 0x0 PUSH3 0x2AE PUSH1 0x0 NOT DUP5 PUSH1 0x8 MUL PUSH3 0x28E JUMP JUMPDEST NOT DUP1 DUP4 AND SWAP2 POP POP SWAP3 SWAP2 POP POP JUMP JUMPDEST PUSH1 0x0 PUSH3 0x2C9 DUP4 DUP4 PUSH3 0x29B JUMP JUMPDEST SWAP2 POP DUP3 PUSH1 0x2 MUL DUP3 OR SWAP1 POP SWAP3 SWAP2 POP POP JUMP JUMPDEST PUSH3 0x2E4 DUP3 PUSH3 0x5F JUMP JUMPDEST PUSH8 0xFFFFFFFFFFFFFFFF DUP2 GT ISZERO PUSH3 0x300 JUMPI PUSH3 0x2FF PUSH3 0x6A JUMP JUMPDEST JUMPDEST PUSH3 0x30C DUP3 SLOAD PUSH3 0xC8 JUMP JUMPDEST PUSH3 0x319 DUP3 DUP3 DUP6 PUSH3 0x23E JUMP JUMPDEST PUSH1 0x0 PUSH1 0x20 SWAP1 POP PUSH1 0x1F DUP4 GT PUSH1 0x1 DUP2 EQ PUSH3 0x351 JUMPI PUSH1 0x0 DUP5 ISZERO PUSH3 0x33C JUMPI DUP3 DUP8 ADD MLOAD SWAP1 POP JUMPDEST PUSH3 0x348 DUP6 DUP3 PUSH3 0x2BB JUMP JUMPDEST DUP7 SSTORE POP PUSH3 0x3B8 JUMP JUMPDEST PUSH1 0x1F NOT DUP5 AND PUSH3 0x361 DUP7 PUSH3 0xFD JUMP JUMPDEST PUSH1 0x0 JUMPDEST DUP3 DUP2 LT ISZERO PUSH3 0x38B JUMPI DUP5 DUP10 ADD MLOAD DUP3 SSTORE PUSH1 0x1 DUP3 ADD SWAP2 POP PUSH1 0x20 DUP6 ADD SWAP5 POP PUSH1 0x20 DUP2 ADD SWAP1 POP PUSH3 0x364 JUMP JUMPDEST DUP7 DUP4 LT ISZERO PUSH3 0x3AB JUMPI DUP5 DUP10 ADD MLOAD PUSH3 0x3A7 PUSH1 0x1F DUP10 AND DUP3 PUSH3 0x29B JUMP JUMPDEST DUP4 SSTORE POP JUMPDEST PUSH1 0x1 PUSH1 0x2 DUP9 MUL ADD DUP9 SSTORE POP POP POP JUMPDEST POP POP POP POP POP POP JUMP JUMPDEST PUSH2 0x944 DUP1 PUSH3 0x3D0 PUSH1 0x0 CODECOPY PUSH1 0x0 RETURN INVALID PUSH1 0x80 PUSH1 0x40 MSTORE CALLVALUE DUP1 ISZERO PUSH2 0x10 JUMPI PUSH1 0x0 DUP1 REVERT JUMPDEST POP PUSH1 0x4 CALLDATASIZE LT PUSH2 0x41 JUMPI PUSH1 0x0 CALLDATALOAD PUSH1 0xE0 SHR DUP1 PUSH4 0x48AA931E EQ PUSH2 0x46 JUMPI DUP1 PUSH4 0xB1CB267B EQ PUSH2 0x62 JUMPI DUP1 PUSH4 0xC736694E EQ PUSH2 0x80 JUMPI JUMPDEST PUSH1 0x0 DUP1 REVERT JUMPDEST PUSH2 0x60 PUSH1 0x4 DUP1 CALLDATASIZE SUB DUP2 ADD SWAP1 PUSH2 0x5B SWAP2 SWAP1 PUSH2 0x489 JUMP JUMPDEST PUSH2 0xA1 JUMP JUMPDEST STOP JUMPDEST PUSH2 0x6A PUSH2 0xF4 JUMP JUMPDEST PUSH1 0x40 MLOAD PUSH2 0x77 SWAP2 SWAP1 PUSH2 0x58B JUMP JUMPDEST PUSH1 0x40 MLOAD DUP1 SWAP2 SUB SWAP1 RETURN JUMPDEST PUSH2 0x88 PUSH2 0x186 JUMP JUMPDEST PUSH1 0x40 MLOAD PUSH2 0x98 SWAP5 SWAP4 SWAP3 SWAP2 SWAP1 PUSH2 0x5DA JUMP JUMPDEST PUSH1 0x40 MLOAD DUP1 SWAP2 SUB SWAP1 RETURN JUMPDEST DUP4 PUSH1 0x0 SWAP1 DUP2 PUSH2 0xB0 SWAP2 SWAP1 PUSH2 0x83C JUMP JUMPDEST POP DUP3 PUSH1 0x1 PUSH1 0x0 PUSH2 0x100 EXP DUP2 SLOAD DUP2 PUSH1 0xFF MUL NOT AND SWAP1 DUP4 PUSH1 0xF8 SHR MUL OR SWAP1 SSTORE POP DUP2 PUSH1 0x1 DUP1 PUSH2 0x100 EXP DUP2 SLOAD DUP2 PUSH2 0xFFFF MUL NOT AND SWAP1 DUP4 PUSH1 0xF0 SHR MUL OR SWAP1 SSTORE POP DUP1 PUSH1 0x2 DUP2 SWAP1 SSTORE POP POP POP POP POP JUMP JUMPDEST PUSH1 0x60 PUSH1 0x3 DUP1 SLOAD PUSH2 0x103 SWAP1 PUSH2 0x655 JUMP JUMPDEST DUP1 PUSH1 0x1F ADD PUSH1 0x20 DUP1 SWAP2 DIV MUL PUSH1 0x20 ADD PUSH1 0x40 MLOAD SWAP1 DUP2 ADD PUSH1 0x40 MSTORE DUP1 SWAP3 SWAP2 SWAP1 DUP2 DUP2 MSTORE PUSH1 0x20 ADD DUP3 DUP1 SLOAD PUSH2 0x12F SWAP1 PUSH2 0x655 JUMP JUMPDEST DUP1 ISZERO PUSH2 0x17C JUMPI DUP1 PUSH1 0x1F LT PUSH2 0x151 JUMPI PUSH2 0x100 DUP1 DUP4 SLOAD DIV MUL DUP4 MSTORE SWAP2 PUSH1 0x20 ADD SWAP2 PUSH2 0x17C JUMP JUMPDEST DUP3 ADD SWAP2 SWAP1 PUSH1 0x0 MSTORE PUSH1 0x20 PUSH1 0x0 KECCAK256 SWAP1 JUMPDEST DUP2 SLOAD DUP2 MSTORE SWAP1 PUSH1 0x1 ADD SWAP1 PUSH1 0x20 ADD DUP1 DUP4 GT PUSH2 0x15F JUMPI DUP3 SWAP1 SUB PUSH1 0x1F AND DUP3 ADD SWAP2 JUMPDEST POP POP POP POP POP SWAP1 POP SWAP1 JUMP JUMPDEST PUSH1 0x60 PUSH1 0x0 DUP1 PUSH1 0x0 DUP1 PUSH1 0x1 PUSH1 0x0 SWAP1 SLOAD SWAP1 PUSH2 0x100 EXP SWAP1 DIV PUSH1 0xF8 SHL PUSH1 0x1 DUP1 SLOAD SWAP1 PUSH2 0x100 EXP SWAP1 DIV PUSH1 0xF0 SHL PUSH1 0x2 SLOAD DUP4 DUP1 SLOAD PUSH2 0x1BB SWAP1 PUSH2 0x655 JUMP JUMPDEST DUP1 PUSH1 0x1F ADD PUSH1 0x20 DUP1 SWAP2 DIV MUL PUSH1 0x20 ADD PUSH1 0x40 MLOAD SWAP1 DUP2 ADD PUSH1 0x40 MSTORE DUP1 SWAP3 SWAP2 SWAP1 DUP2 DUP2 MSTORE PUSH1 0x20 ADD DUP3 DUP1 SLOAD PUSH2 0x1E7 SWAP1 PUSH2 0x655 JUMP JUMPDEST DUP1 ISZERO PUSH2 0x234 JUMPI DUP1 PUSH1 0x1F LT PUSH2 0x209 JUMPI PUSH2 0x100 DUP1 DUP4 SLOAD DIV MUL DUP4 MSTORE SWAP2 PUSH1 0x20 ADD SWAP2 PUSH2 0x234 JUMP JUMPDEST DUP3 ADD SWAP2 SWAP1 PUSH1 0x0 MSTORE PUSH1 0x20 PUSH1 0x0 KECCAK256 SWAP1 JUMPDEST DUP2 SLOAD DUP2 MSTORE SWAP1 PUSH1 0x1 ADD SWAP1 PUSH1 0x20 ADD DUP1 DUP4 GT PUSH2 0x217 JUMPI DUP3 SWAP1 SUB PUSH1 0x1F AND DUP3 ADD SWAP2 JUMPDEST POP POP POP POP POP SWAP4 POP SWAP4 POP SWAP4 POP SWAP4 POP SWAP4 POP SWAP1 SWAP2 SWAP3 SWAP4 JUMP JUMPDEST PUSH1 0x0 PUSH1 0x40 MLOAD SWAP1 POP SWAP1 JUMP JUMPDEST PUSH1 0x0 DUP1 REVERT JUMPDEST PUSH1 0x0 DUP1 REVERT JUMPDEST PUSH1 0x0 DUP1 REVERT JUMPDEST PUSH1 0x0 DUP1 REVERT JUMPDEST PUSH1 0x0 PUSH1 0x1F NOT PUSH1 0x1F DUP4 ADD AND SWAP1 POP SWAP2 SWAP1 POP JUMP JUMPDEST PUSH32 0x4E487B7100000000000000000000000000000000000000000000000000000000 PUSH1 0x0 MSTORE PUSH1 0x41 PUSH1 0x4 MSTORE PUSH1 0x24 PUSH1 0x0 REVERT JUMPDEST PUSH2 0x2B0 DUP3 PUSH2 0x267 JUMP JUMPDEST DUP2 ADD DUP2 DUP2 LT PUSH8 0xFFFFFFFFFFFFFFFF DUP3 GT OR ISZERO PUSH2 0x2CF JUMPI PUSH2 0x2CE PUSH2 0x278 JUMP JUMPDEST JUMPDEST DUP1 PUSH1 0x40 MSTORE POP POP POP JUMP JUMPDEST PUSH1 0x0 PUSH2 0x2E2 PUSH2 0x249 JUMP JUMPDEST SWAP1 POP PUSH2 0x2EE DUP3 DUP3 PUSH2 0x2A7 JUMP JUMPDEST SWAP2 SWAP1 POP JUMP JUMPDEST PUSH1 0x0 PUSH8 0xFFFFFFFFFFFFFFFF DUP3 GT ISZERO PUSH2 0x30E JUMPI PUSH2 0x30D PUSH2 0x278 JUMP JUMPDEST JUMPDEST PUSH2 0x317 DUP3 PUSH2 0x267 JUMP JUMPDEST SWAP1 POP PUSH1 0x20 DUP2 ADD SWAP1 POP SWAP2 SWAP1 POP JUMP JUMPDEST DUP3 DUP2 DUP4 CALLDATACOPY PUSH1 0x0 DUP4 DUP4 ADD MSTORE POP POP POP JUMP JUMPDEST PUSH1 0x0 PUSH2 0x346 PUSH2 0x341 DUP5 PUSH2 0x2F3 JUMP JUMPDEST PUSH2 0x2D8 JUMP JUMPDEST SWAP1 POP DUP3 DUP2 MSTORE PUSH1 0x20 DUP2 ADD DUP5 DUP5 DUP5 ADD GT ISZERO PUSH2 0x362 JUMPI PUSH2 0x361 PUSH2 0x262 JUMP JUMPDEST JUMPDEST PUSH2 0x36D DUP5 DUP3 DUP6 PUSH2 0x324 JUMP JUMPDEST POP SWAP4 SWAP3 POP POP POP JUMP JUMPDEST PUSH1 0x0 DUP3 PUSH1 0x1F DUP4 ADD SLT PUSH2 0x38A JUMPI PUSH2 0x389 PUSH2 0x25D JUMP JUMPDEST JUMPDEST DUP2 CALLDATALOAD PUSH2 0x39A DUP5 DUP3 PUSH1 0x20 DUP7 ADD PUSH2 0x333 JUMP JUMPDEST SWAP2 POP POP SWAP3 SWAP2 POP POP JUMP JUMPDEST PUSH1 0x0 PUSH32 0xFF00000000000000000000000000000000000000000000000000000000000000 DUP3 AND SWAP1 POP SWAP2 SWAP1 POP JUMP JUMPDEST PUSH2 0x3D8 DUP2 PUSH2 0x3A3 JUMP JUMPDEST DUP2 EQ PUSH2 0x3E3 JUMPI PUSH1 0x0 DUP1 REVERT JUMPDEST POP JUMP JUMPDEST PUSH1 0x0 DUP2 CALLDATALOAD SWAP1 POP PUSH2 0x3F5 DUP2 PUSH2 0x3CF JUMP JUMPDEST SWAP3 SWAP2 POP POP JUMP JUMPDEST PUSH1 0x0 PUSH32 0xFFFF000000000000000000000000000000000000000000000000000000000000 DUP3 AND SWAP1 POP SWAP2 SWAP1 POP JUMP JUMPDEST PUSH2 0x430 DUP2 PUSH2 0x3FB JUMP JUMPDEST DUP2 EQ PUSH2 0x43B JUMPI PUSH1 0x0 DUP1 REVERT JUMPDEST POP JUMP JUMPDEST PUSH1 0x0 DUP2 CALLDATALOAD SWAP1 POP PUSH2 0x44D DUP2 PUSH2 0x427 JUMP JUMPDEST SWAP3 SWAP2 POP POP JUMP JUMPDEST PUSH1 0x0 DUP2 SWAP1 POP SWAP2 SWAP1 POP JUMP JUMPDEST PUSH2 0x466 DUP2 PUSH2 0x453 JUMP JUMPDEST DUP2 EQ PUSH2 0x471 JUMPI PUSH1 0x0 DUP1 REVERT JUMPDEST POP JUMP JUMPDEST PUSH1 0x0 DUP2 CALLDATALOAD SWAP1 POP PUSH2 0x483 DUP2 PUSH2 0x45D JUMP JUMPDEST SWAP3 SWAP2 POP POP JUMP JUMPDEST PUSH1 0x0 DUP1 PUSH1 0x0 DUP1 PUSH1 0x80 DUP6 DUP8 SUB SLT ISZERO PUSH2 0x4A3 JUMPI PUSH2 0x4A2 PUSH2 0x253 JUMP JUMPDEST JUMPDEST PUSH1 0x0 DUP6 ADD CALLDATALOAD PUSH8 0xFFFFFFFFFFFFFFFF DUP2 GT ISZERO PUSH2 0x4C1 JUMPI PUSH2 0x4C0 PUSH2 0x258 JUMP JUMPDEST JUMPDEST PUSH2 0x4CD DUP8 DUP3 DUP9 ADD PUSH2 0x375 JUMP JUMPDEST SWAP5 POP POP PUSH1 0x20 PUSH2 0x4DE DUP8 DUP3 DUP9 ADD PUSH2 0x3E6 JUMP JUMPDEST SWAP4 POP POP PUSH1 0x40 PUSH2 0x4EF DUP8 DUP3 DUP9 ADD PUSH2 0x43E JUMP JUMPDEST SWAP3 POP POP PUSH1 0x60 PUSH2 0x500 DUP8 DUP3 DUP9 ADD PUSH2 0x474 JUMP JUMPDEST SWAP2 POP POP SWAP3 SWAP6 SWAP2 SWAP5 POP SWAP3 POP JUMP JUMPDEST PUSH1 0x0 DUP2 MLOAD SWAP1 POP SWAP2 SWAP1 POP JUMP JUMPDEST PUSH1 0x0 DUP3 DUP3 MSTORE PUSH1 0x20 DUP3 ADD SWAP1 POP SWAP3 SWAP2 POP POP JUMP JUMPDEST PUSH1 0x0 JUMPDEST DUP4 DUP2 LT ISZERO PUSH2 0x546 JUMPI DUP1 DUP3 ADD MLOAD DUP2 DUP5 ADD MSTORE PUSH1 0x20 DUP2 ADD SWAP1 POP PUSH2 0x52B JUMP JUMPDEST PUSH1 0x0 DUP5 DUP5 ADD MSTORE POP POP POP POP JUMP JUMPDEST PUSH1 0x0 PUSH2 0x55D DUP3 PUSH2 0x50C JUMP JUMPDEST PUSH2 0x567 DUP2 DUP6 PUSH2 0x517 JUMP JUMPDEST SWAP4 POP PUSH2 0x577 DUP2 DUP6 PUSH1 0x20 DUP7 ADD PUSH2 0x528 JUMP JUMPDEST PUSH2 0x580 DUP2 PUSH2 0x267 JUMP JUMPDEST DUP5 ADD SWAP2 POP POP SWAP3 SWAP2 POP POP JUMP JUMPDEST PUSH1 0x0 PUSH1 0x20 DUP3 ADD SWAP1 POP DUP2 DUP2 SUB PUSH1 0x0 DUP4 ADD MSTORE PUSH2 0x5A5 DUP2 DUP5 PUSH2 0x552 JUMP JUMPDEST SWAP1 POP SWAP3 SWAP2 POP POP JUMP JUMPDEST PUSH2 0x5B6 DUP2 PUSH2 0x3A3 JUMP JUMPDEST DUP3 MSTORE POP POP JUMP JUMPDEST PUSH2 0x5C5 DUP2 PUSH2 0x3FB JUMP JUMPDEST DUP3 MSTORE POP POP JUMP JUMPDEST PUSH2 0x5D4 DUP2 PUSH2 0x453 JUMP JUMPDEST DUP3 MSTORE POP POP JUMP JUMPDEST PUSH1 0x0 PUSH1 0x80 DUP3 ADD SWAP1 POP DUP2 DUP2 SUB PUSH1 0x0 DUP4 ADD MSTORE PUSH2 0x5F4 DUP2 DUP8 PUSH2 0x552 JUMP JUMPDEST SWAP1 POP PUSH2 0x603 PUSH1 0x20 DUP4 ADD DUP7 PUSH2 0x5AD JUMP JUMPDEST PUSH2 0x610 PUSH1 0x40 DUP4 ADD DUP6 PUSH2 0x5BC JUMP JUMPDEST PUSH2 0x61D PUSH1 0x60 DUP4 ADD DUP5 PUSH2 0x5CB JUMP JUMPDEST SWAP6 SWAP5 POP POP POP POP POP JUMP JUMPDEST PUSH32 0x4E487B7100000000000000000000000000000000000000000000000000000000 PUSH1 0x0 MSTORE PUSH1 0x22 PUSH1 0x4 MSTORE PUSH1 0x24 PUSH1 0x0 REVERT JUMPDEST PUSH1 0x0 PUSH1 0x2 DUP3 DIV SWAP1 POP PUSH1 0x1 DUP3 AND DUP1 PUSH2 0x66D JUMPI PUSH1 0x7F DUP3 AND SWAP2 POP JUMPDEST PUSH1 0x20 DUP3 LT DUP2 SUB PUSH2 0x680 JUMPI PUSH2 0x67F PUSH2 0x626 JUMP JUMPDEST JUMPDEST POP SWAP2 SWAP1 POP JUMP JUMPDEST PUSH1 0x0 DUP2 SWAP1 POP DUP2 PUSH1 0x0 MSTORE PUSH1 0x20 PUSH1 0x0 KECCAK256 SWAP1 POP SWAP2 SWAP1 POP JUMP JUMPDEST PUSH1 0x0 PUSH1 0x20 PUSH1 0x1F DUP4 ADD DIV SWAP1 POP SWAP2 SWAP1 POP JUMP JUMPDEST PUSH1 0x0 DUP3 DUP3 SHL SWAP1 POP SWAP3 SWAP2 POP POP JUMP JUMPDEST PUSH1 0x0 PUSH1 0x8 DUP4 MUL PUSH2 0x6E8 PUSH32 0xFFFFFFFFFFFFFFFFFFFFFFFFFFFFFFFFFFFFFFFFFFFFFFFFFFFFFFFFFFFFFFFF DUP3 PUSH2 0x6AB JUMP JUMPDEST PUSH2 0x6F2 DUP7 DUP4 PUSH2 0x6AB JUMP JUMPDEST SWAP6 POP DUP1 NOT DUP5 AND SWAP4 POP DUP1 DUP7 AND DUP5 OR SWAP3 POP POP POP SWAP4 SWAP3 POP POP POP JUMP JUMPDEST PUSH1 0x0 DUP2 SWAP1 POP SWAP2 SWAP1 POP JUMP JUMPDEST PUSH1 0x0 DUP2 SWAP1 POP SWAP2 SWAP1 POP JUMP JUMPDEST PUSH1 0x0 PUSH2 0x739 PUSH2 0x734 PUSH2 0x72F DUP5 PUSH2 0x70A JUMP JUMPDEST PUSH2 0x714 JUMP JUMPDEST PUSH2 0x70A JUMP JUMPDEST SWAP1 POP SWAP2 SWAP1 POP JUMP JUMPDEST PUSH1 0x0 DUP2 SWAP1 POP SWAP2 SWAP1 POP JUMP JUMPDEST PUSH2 0x753 DUP4 PUSH2 0x71E JUMP JUMPDEST PUSH2 0x767 PUSH2 0x75F DUP3 PUSH2 0x740 JUMP JUMPDEST DUP5 DUP5 SLOAD PUSH2 0x6B8 JUMP JUMPDEST DUP3 SSTORE POP POP POP POP JUMP JUMPDEST PUSH1 0x0 SWAP1 JUMP JUMPDEST PUSH2 0x77C PUSH2 0x76F JUMP JUMPDEST PUSH2 0x787 DUP2 DUP5 DUP5 PUSH2 0x74A JUMP JUMPDEST POP POP POP JUMP JUMPDEST JUMPDEST DUP2 DUP2 LT ISZERO PUSH2 0x7AB JUMPI PUSH2 0x7A0 PUSH1 0x0 DUP3 PUSH2 0x774 JUMP JUMPDEST PUSH1 0x1 DUP2 ADD SWAP1 POP PUSH2 0x78D JUMP JUMPDEST POP POP JUMP JUMPDEST PUSH1 0x1F DUP3 GT ISZERO PUSH2 0x7F0 JUMPI PUSH2 0x7C1 DUP2 PUSH2 0x686 JUMP JUMPDEST PUSH2 0x7CA DUP5 PUSH2 0x69B JUMP JUMPDEST DUP2 ADD PUSH1 0x20 DUP6 LT ISZERO PUSH2 0x7D9 JUMPI DUP2 SWAP1 POP JUMPDEST PUSH2 0x7ED PUSH2 0x7E5 DUP6 PUSH2 0x69B JUMP JUMPDEST DUP4 ADD DUP3 PUSH2 0x78C JUMP JUMPDEST POP POP JUMPDEST POP POP POP JUMP JUMPDEST PUSH1 0x0 DUP3 DUP3 SHR SWAP1 POP SWAP3 SWAP2 POP POP JUMP JUMPDEST PUSH1 0x0 PUSH2 0x813 PUSH1 0x0 NOT DUP5 PUSH1 0x8 MUL PUSH2 0x7F5 JUMP JUMPDEST NOT DUP1 DUP4 AND SWAP2 POP POP SWAP3 SWAP2 POP POP JUMP JUMPDEST PUSH1 0x0 PUSH2 0x82C DUP4 DUP4 PUSH2 0x802 JUMP JUMPDEST SWAP2 POP DUP3 PUSH1 0x2 MUL DUP3 OR SWAP1 POP SWAP3 SWAP2 POP POP JUMP JUMPDEST PUSH2 0x845 DUP3 PUSH2 0x50C JUMP JUMPDEST PUSH8 0xFFFFFFFFFFFFFFFF DUP2 GT ISZERO PUSH2 0x85E JUMPI PUSH2 0x85D PUSH2 0x278 JUMP JUMPDEST JUMPDEST PUSH2 0x868 DUP3 SLOAD PUSH2 0x655 JUMP JUMPDEST PUSH2 0x873 DUP3 DUP3 DUP6 PUSH2 0x7AF JUMP JUMPDEST PUSH1 0x0 PUSH1 0x20 SWAP1 POP PUSH1 0x1F DUP4 GT PUSH1 0x1 DUP2 EQ PUSH2 0x8A6 JUMPI PUSH1 0x0 DUP5 ISZERO PUSH2 0x894 JUMPI DUP3 DUP8 ADD MLOAD SWAP1 POP JUMPDEST PUSH2 0x89E DUP6 DUP3 PUSH2 0x820 JUMP JUMPDEST DUP7 SSTORE POP PUSH2 0x906 JUMP JUMPDEST PUSH1 0x1F NOT DUP5 AND PUSH2 0x8B4 DUP7 PUSH2 0x686 JUMP JUMPDEST PUSH1 0x0 JUMPDEST DUP3 DUP2 LT ISZERO PUSH2 0x8DC JUMPI DUP5 DUP10 ADD MLOAD DUP3 SSTORE PUSH1 0x1 DUP3 ADD SWAP2 POP PUSH1 0x20 DUP6 ADD SWAP5 POP PUSH1 0x20 DUP2 ADD SWAP1 POP PUSH2 0x8B7 JUMP JUMPDEST DUP7 DUP4 LT ISZERO PUSH2 0x8F9 JUMPI DUP5 DUP10 ADD MLOAD PUSH2 0x8F5 PUSH1 0x1F DUP10 AND DUP3 PUSH2 0x802 JUMP JUMPDEST DUP4 SSTORE POP JUMPDEST PUSH1 0x1 PUSH1 0x2 DUP9 MUL ADD DUP9 SSTORE POP POP POP JUMPDEST POP POP POP POP POP POP JUMP INVALID LOG2 PUSH5 0x6970667358 0x22 SLT KECCAK256 SAR 0xFB 0xEF PUSH7 0xF0E280078901AA 0xBD GT PUSH7 0x105BB44D0E6745 0xAC 0x21 0xFB PUSH29 0xFE3FA28CFE182564736F6C634300081200330000000000000000000000 "
				},
				"gasEstimates": {
					"creation": {
						"codeDepositCost": "474400",
						"executionCost": "infinite",
						"totalCost": "infinite"
					},
					"external": {
						"getABCD()": "infinite",
						"getE()": "infinite",
						"setABCD(bytes,bytes1,bytes2,bytes32)": "infinite"
					}
				},
				"methodIdentifiers": {
					"getABCD()": "c736694e",
					"getE()": "b1cb267b",
					"setABCD(bytes,bytes1,bytes2,bytes32)": "48aa931e"
				}
			},
			"storageLayout": {
				"storage": [
					{
						"astId": 3,
						"contract": "contracts/230504/2_Bytes.sol:BYTES",
						"label": "a",
						"offset": 0,
						"slot": "0",
						"type": "t_bytes_storage"
					},
					{
						"astId": 5,
						"contract": "contracts/230504/2_Bytes.sol:BYTES",
						"label": "b",
						"offset": 0,
						"slot": "1",
						"type": "t_bytes1"
					},
					{
						"astId": 7,
						"contract": "contracts/230504/2_Bytes.sol:BYTES",
						"label": "c",
						"offset": 1,
						"slot": "1",
						"type": "t_bytes2"
					},
					{
						"astId": 9,
						"contract": "contracts/230504/2_Bytes.sol:BYTES",
						"label": "d",
						"offset": 0,
						"slot": "2",
						"type": "t_bytes32"
					},
					{
						"astId": 12,
						"contract": "contracts/230504/2_Bytes.sol:BYTES",
						"label": "e",
						"offset": 0,
						"slot": "3",
						"type": "t_bytes_storage"
					}
				],
				"types": {
					"t_bytes1": {
						"encoding": "inplace",
						"label": "bytes1",
						"numberOfBytes": "1"
					},
					"t_bytes2": {
						"encoding": "inplace",
						"label": "bytes2",
						"numberOfBytes": "2"
					},
					"t_bytes32": {
						"encoding": "inplace",
						"label": "bytes32",
						"numberOfBytes": "32"
					},
					"t_bytes_storage": {
						"encoding": "bytes",
						"label": "bytes",
						"numberOfBytes": "32"
					}
				}
			},
			"userdoc": {
				"kind": "user",
				"methods": {},
				"version": 1
			}
		}
	}
}