{
	"contracts/230504/3_StringAndBytes.sol": {
		"StringAndBytes": {
			"abi": [
				{
					"inputs": [
						{
							"internalType": "bytes",
							"name": "_a",
							"type": "bytes"
						}
					],
					"name": "BytesToString",
					"outputs": [
						{
							"internalType": "string",
							"name": "",
							"type": "string"
						}
					],
					"stateMutability": "pure",
					"type": "function"
				},
				{
					"inputs": [
						{
							"internalType": "string",
							"name": "_a",
							"type": "string"
						}
					],
					"name": "BytesToString3",
					"outputs": [
						{
							"internalType": "string",
							"name": "",
							"type": "string"
						}
					],
					"stateMutability": "pure",
					"type": "function"
				},
				{
					"inputs": [],
					"name": "StringToBytes",
					"outputs": [
						{
							"internalType": "bytes",
							"name": "",
							"type": "bytes"
						}
					],
					"stateMutability": "view",
					"type": "function"
				},
				{
					"inputs": [],
					"name": "StringToBytes2",
					"outputs": [
						{
							"internalType": "bytes1",
							"name": "",
							"type": "bytes1"
						},
						{
							"internalType": "bytes1",
							"name": "",
							"type": "bytes1"
						},
						{
							"internalType": "bytes1",
							"name": "",
							"type": "bytes1"
						}
					],
					"stateMutability": "view",
					"type": "function"
				},
				{
					"inputs": [
						{
							"internalType": "string",
							"name": "_a",
							"type": "string"
						}
					],
					"name": "bytesToString2",
					"outputs": [
						{
							"internalType": "bytes1",
							"name": "",
							"type": "bytes1"
						}
					],
					"stateMutability": "pure",
					"type": "function"
				},
				{
					"inputs": [
						{
							"internalType": "string",
							"name": "_a",
							"type": "string"
						},
						{
							"internalType": "uint256",
							"name": "_n",
							"type": "uint256"
						}
					],
					"name": "bytesToString4",
					"outputs": [
						{
							"internalType": "string",
							"name": "",
							"type": "string"
						}
					],
					"stateMutability": "pure",
					"type": "function"
				},
				{
					"inputs": [],
					"name": "getString",
					"outputs": [
						{
							"internalType": "string",
							"name": "",
							"type": "string"
						}
					],
					"stateMutability": "view",
					"type": "function"
				},
				{
					"inputs": [
						{
							"internalType": "string",
							"name": "_a",
							"type": "string"
						}
					],
					"name": "setString",
					"outputs": [],
					"stateMutability": "nonpayable",
					"type": "function"
				}
			],
			"devdoc": {
				"kind": "dev",
				"methods": {},
				"version": 1
			},
			"evm": {
				"assembly": "    /* \"contracts/230504/3_StringAndBytes.sol\":67:1434  contract StringAndBytes {... */\n  mstore(0x40, 0x80)\n  callvalue\n  dup1\n  iszero\n  tag_1\n  jumpi\n  0x00\n  dup1\n  revert\ntag_1:\n  pop\n  dataSize(sub_0)\n  dup1\n  dataOffset(sub_0)\n  0x00\n  codecopy\n  0x00\n  return\nstop\n\nsub_0: assembly {\n        /* \"contracts/230504/3_StringAndBytes.sol\":67:1434  contract StringAndBytes {... */\n      mstore(0x40, 0x80)\n      callvalue\n      dup1\n      iszero\n      tag_1\n      jumpi\n      0x00\n      dup1\n      revert\n    tag_1:\n      pop\n      jumpi(tag_2, lt(calldatasize, 0x04))\n      shr(0xe0, calldataload(0x00))\n      dup1\n      0x9249f58f\n      gt\n      tag_11\n      jumpi\n      dup1\n      0x9249f58f\n      eq\n      tag_7\n      jumpi\n      dup1\n      0xbbd52d91\n      eq\n      tag_8\n      jumpi\n      dup1\n      0xc0e41704\n      eq\n      tag_9\n      jumpi\n      dup1\n      0xd2599825\n      eq\n      tag_10\n      jumpi\n      jump(tag_2)\n    tag_11:\n      dup1\n      0x01fd9fce\n      eq\n      tag_3\n      jumpi\n      dup1\n      0x4a76dd3a\n      eq\n      tag_4\n      jumpi\n      dup1\n      0x7fcaf666\n      eq\n      tag_5\n      jumpi\n      dup1\n      0x89ea642f\n      eq\n      tag_6\n      jumpi\n    tag_2:\n      0x00\n      dup1\n      revert\n        /* \"contracts/230504/3_StringAndBytes.sol\":1141:1429  function bytesToString4(string memory _a, uint _n) public  pure returns (string memory) {... */\n    tag_3:\n      tag_12\n      0x04\n      dup1\n      calldatasize\n      sub\n      dup2\n      add\n      swap1\n      tag_13\n      swap2\n      swap1\n      tag_14\n      jump\t// in\n    tag_13:\n      tag_15\n      jump\t// in\n    tag_12:\n      mload(0x40)\n      tag_16\n      swap2\n      swap1\n      tag_17\n      jump\t// in\n    tag_16:\n      mload(0x40)\n      dup1\n      swap2\n      sub\n      swap1\n      return\n        /* \"contracts/230504/3_StringAndBytes.sol\":706:940  function bytesToString2(string memory _a) public pure returns(bytes1) {... */\n    tag_4:\n      tag_18\n      0x04\n      dup1\n      calldatasize\n      sub\n      dup2\n      add\n      swap1\n      tag_19\n      swap2\n      swap1\n      tag_20\n      jump\t// in\n    tag_19:\n      tag_21\n      jump\t// in\n    tag_18:\n      mload(0x40)\n      tag_22\n      swap2\n      swap1\n      tag_23\n      jump\t// in\n    tag_22:\n      mload(0x40)\n      dup1\n      swap2\n      sub\n      swap1\n      return\n        /* \"contracts/230504/3_StringAndBytes.sol\":115:184  function setString(string memory _a) public {... */\n    tag_5:\n      tag_24\n      0x04\n      dup1\n      calldatasize\n      sub\n      dup2\n      add\n      swap1\n      tag_25\n      swap2\n      swap1\n      tag_20\n      jump\t// in\n    tag_25:\n      tag_26\n      jump\t// in\n    tag_24:\n      stop\n        /* \"contracts/230504/3_StringAndBytes.sol\":192:275  function getString() public view returns (string memory){... */\n    tag_6:\n      tag_27\n      tag_28\n      jump\t// in\n    tag_27:\n      mload(0x40)\n      tag_29\n      swap2\n      swap1\n      tag_17\n      jump\t// in\n    tag_29:\n      mload(0x40)\n      dup1\n      swap2\n      sub\n      swap1\n      return\n        /* \"contracts/230504/3_StringAndBytes.sol\":527:638  function BytesToString(bytes memory _a) public pure returns (string memory){... */\n    tag_7:\n      tag_30\n      0x04\n      dup1\n      calldatasize\n      sub\n      dup2\n      add\n      swap1\n      tag_31\n      swap2\n      swap1\n      tag_32\n      jump\t// in\n    tag_31:\n      tag_33\n      jump\t// in\n    tag_30:\n      mload(0x40)\n      tag_34\n      swap2\n      swap1\n      tag_17\n      jump\t// in\n    tag_34:\n      mload(0x40)\n      dup1\n      swap2\n      sub\n      swap1\n      return\n        /* \"contracts/230504/3_StringAndBytes.sol\":948:1133  function BytesToString3(string memory _a) public pure returns (string memory){... */\n    tag_8:\n      tag_35\n      0x04\n      dup1\n      calldatasize\n      sub\n      dup2\n      add\n      swap1\n      tag_36\n      swap2\n      swap1\n      tag_20\n      jump\t// in\n    tag_36:\n      tag_37\n      jump\t// in\n    tag_35:\n      mload(0x40)\n      tag_38\n      swap2\n      swap1\n      tag_17\n      jump\t// in\n    tag_38:\n      mload(0x40)\n      dup1\n      swap2\n      sub\n      swap1\n      return\n        /* \"contracts/230504/3_StringAndBytes.sol\":384:519  function StringToBytes2() public view returns (bytes1, bytes1, bytes1){... */\n    tag_9:\n      tag_39\n      tag_40\n      jump\t// in\n    tag_39:\n      mload(0x40)\n      tag_41\n      swap4\n      swap3\n      swap2\n      swap1\n      tag_42\n      jump\t// in\n    tag_41:\n      mload(0x40)\n      dup1\n      swap2\n      sub\n      swap1\n      return\n        /* \"contracts/230504/3_StringAndBytes.sol\":283:376  function StringToBytes() public view returns (bytes memory){... */\n    tag_10:\n      tag_43\n      tag_44\n      jump\t// in\n    tag_43:\n      mload(0x40)\n      tag_45\n      swap2\n      swap1\n      tag_46\n      jump\t// in\n    tag_45:\n      mload(0x40)\n      dup1\n      swap2\n      sub\n      swap1\n      return\n        /* \"contracts/230504/3_StringAndBytes.sol\":1141:1429  function bytesToString4(string memory _a, uint _n) public  pure returns (string memory) {... */\n    tag_15:\n        /* \"contracts/230504/3_StringAndBytes.sol\":1214:1227  string memory */\n      0x60\n        /* \"contracts/230504/3_StringAndBytes.sol\":1240:1255  bytes memory _b */\n      0x00\n        /* \"contracts/230504/3_StringAndBytes.sol\":1268:1269  1 */\n      0x01\n        /* \"contracts/230504/3_StringAndBytes.sol\":1258:1270  new bytes(1) */\n      0xffffffffffffffff\n      dup2\n      gt\n      iszero\n      tag_48\n      jumpi\n      tag_49\n      tag_50\n      jump\t// in\n    tag_49:\n    tag_48:\n      mload(0x40)\n      swap1\n      dup1\n      dup3\n      mstore\n      dup1\n      0x1f\n      add\n      not(0x1f)\n      and\n      0x20\n      add\n      dup3\n      add\n      0x40\n      mstore\n      dup1\n      iszero\n      tag_51\n      jumpi\n      dup2\n      0x20\n      add\n      0x01\n      dup3\n      mul\n      dup1\n      calldatasize\n      dup4\n      calldatacopy\n      dup1\n      dup3\n      add\n      swap2\n      pop\n      pop\n      swap1\n      pop\n    tag_51:\n      pop\n        /* \"contracts/230504/3_StringAndBytes.sol\":1240:1270  bytes memory _b = new bytes(1) */\n      swap1\n      pop\n        /* \"contracts/230504/3_StringAndBytes.sol\":1295:1297  _a */\n      dup4\n        /* \"contracts/230504/3_StringAndBytes.sol\":1304:1305  1 */\n      0x01\n        /* \"contracts/230504/3_StringAndBytes.sol\":1299:1301  _n */\n      dup5\n        /* \"contracts/230504/3_StringAndBytes.sol\":1299:1305  _n - 1 */\n      tag_52\n      swap2\n      swap1\n      tag_53\n      jump\t// in\n    tag_52:\n        /* \"contracts/230504/3_StringAndBytes.sol\":1289:1306  bytes(_a)[_n - 1] */\n      dup2\n      mload\n      dup2\n      lt\n      tag_54\n      jumpi\n      tag_55\n      tag_56\n      jump\t// in\n    tag_55:\n    tag_54:\n      0x20\n      add\n      add\n      mload\n      0xf8\n      shr\n      0xf8\n      shl\n        /* \"contracts/230504/3_StringAndBytes.sol\":1281:1283  _b */\n      dup2\n        /* \"contracts/230504/3_StringAndBytes.sol\":1284:1285  0 */\n      0x00\n        /* \"contracts/230504/3_StringAndBytes.sol\":1281:1286  _b[0] */\n      dup2\n      mload\n      dup2\n      lt\n      tag_57\n      jumpi\n      tag_58\n      tag_56\n      jump\t// in\n    tag_58:\n    tag_57:\n      0x20\n      add\n      add\n        /* \"contracts/230504/3_StringAndBytes.sol\":1281:1306  _b[0] = bytes(_a)[_n - 1] */\n      swap1\n      not(0xffffffffffffffffffffffffffffffffffffffffffffffffffffffffffffff)\n      and\n      swap1\n      dup2\n      0x00\n      byte\n      swap1\n      mstore8\n      pop\n        /* \"contracts/230504/3_StringAndBytes.sol\":1418:1420  _b */\n      dup1\n        /* \"contracts/230504/3_StringAndBytes.sol\":1404:1421  return string(_b) */\n      swap2\n      pop\n      pop\n        /* \"contracts/230504/3_StringAndBytes.sol\":1141:1429  function bytesToString4(string memory _a, uint _n) public  pure returns (string memory) {... */\n      swap3\n      swap2\n      pop\n      pop\n      jump\t// out\n        /* \"contracts/230504/3_StringAndBytes.sol\":706:940  function bytesToString2(string memory _a) public pure returns(bytes1) {... */\n    tag_21:\n        /* \"contracts/230504/3_StringAndBytes.sol\":768:774  bytes1 */\n      0x00\n        /* \"contracts/230504/3_StringAndBytes.sol\":787:802  bytes memory _b */\n      0x60\n        /* \"contracts/230504/3_StringAndBytes.sol\":857:859  _a */\n      dup3\n        /* \"contracts/230504/3_StringAndBytes.sol\":846:860  _b = bytes(_a) */\n      swap1\n      pop\n        /* \"contracts/230504/3_StringAndBytes.sol\":927:929  _b */\n      dup1\n        /* \"contracts/230504/3_StringAndBytes.sol\":930:931  0 */\n      0x00\n        /* \"contracts/230504/3_StringAndBytes.sol\":927:932  _b[0] */\n      dup2\n      mload\n      dup2\n      lt\n      tag_60\n      jumpi\n      tag_61\n      tag_56\n      jump\t// in\n    tag_61:\n    tag_60:\n      0x20\n      add\n      add\n      mload\n      0xf8\n      shr\n      0xf8\n      shl\n        /* \"contracts/230504/3_StringAndBytes.sol\":920:932  return _b[0] */\n      swap2\n      pop\n      pop\n        /* \"contracts/230504/3_StringAndBytes.sol\":706:940  function bytesToString2(string memory _a) public pure returns(bytes1) {... */\n      swap2\n      swap1\n      pop\n      jump\t// out\n        /* \"contracts/230504/3_StringAndBytes.sol\":115:184  function setString(string memory _a) public {... */\n    tag_26:\n        /* \"contracts/230504/3_StringAndBytes.sol\":174:176  _a */\n      dup1\n        /* \"contracts/230504/3_StringAndBytes.sol\":170:171  a */\n      0x00\n        /* \"contracts/230504/3_StringAndBytes.sol\":170:176  a = _a */\n      swap1\n      dup2\n      tag_63\n      swap2\n      swap1\n      tag_64\n      jump\t// in\n    tag_63:\n      pop\n        /* \"contracts/230504/3_StringAndBytes.sol\":115:184  function setString(string memory _a) public {... */\n      pop\n      jump\t// out\n        /* \"contracts/230504/3_StringAndBytes.sol\":192:275  function getString() public view returns (string memory){... */\n    tag_28:\n        /* \"contracts/230504/3_StringAndBytes.sol\":234:247  string memory */\n      0x60\n        /* \"contracts/230504/3_StringAndBytes.sol\":266:267  a */\n      0x00\n        /* \"contracts/230504/3_StringAndBytes.sol\":259:267  return a */\n      dup1\n      sload\n      tag_66\n      swap1\n      tag_67\n      jump\t// in\n    tag_66:\n      dup1\n      0x1f\n      add\n      0x20\n      dup1\n      swap2\n      div\n      mul\n      0x20\n      add\n      mload(0x40)\n      swap1\n      dup2\n      add\n      0x40\n      mstore\n      dup1\n      swap3\n      swap2\n      swap1\n      dup2\n      dup2\n      mstore\n      0x20\n      add\n      dup3\n      dup1\n      sload\n      tag_68\n      swap1\n      tag_67\n      jump\t// in\n    tag_68:\n      dup1\n      iszero\n      tag_69\n      jumpi\n      dup1\n      0x1f\n      lt\n      tag_70\n      jumpi\n      0x0100\n      dup1\n      dup4\n      sload\n      div\n      mul\n      dup4\n      mstore\n      swap2\n      0x20\n      add\n      swap2\n      jump(tag_69)\n    tag_70:\n      dup3\n      add\n      swap2\n      swap1\n      0x00\n      mstore\n      keccak256(0x00, 0x20)\n      swap1\n    tag_71:\n      dup2\n      sload\n      dup2\n      mstore\n      swap1\n      0x01\n      add\n      swap1\n      0x20\n      add\n      dup1\n      dup4\n      gt\n      tag_71\n      jumpi\n      dup3\n      swap1\n      sub\n      0x1f\n      and\n      dup3\n      add\n      swap2\n    tag_69:\n      pop\n      pop\n      pop\n      pop\n      pop\n      swap1\n      pop\n        /* \"contracts/230504/3_StringAndBytes.sol\":192:275  function getString() public view returns (string memory){... */\n      swap1\n      jump\t// out\n        /* \"contracts/230504/3_StringAndBytes.sol\":527:638  function BytesToString(bytes memory _a) public pure returns (string memory){... */\n    tag_33:\n        /* \"contracts/230504/3_StringAndBytes.sol\":588:601  string memory */\n      0x60\n        /* \"contracts/230504/3_StringAndBytes.sol\":627:629  _a */\n      dup2\n        /* \"contracts/230504/3_StringAndBytes.sol\":613:630  return string(_a) */\n      swap1\n      pop\n        /* \"contracts/230504/3_StringAndBytes.sol\":527:638  function BytesToString(bytes memory _a) public pure returns (string memory){... */\n      swap2\n      swap1\n      pop\n      jump\t// out\n        /* \"contracts/230504/3_StringAndBytes.sol\":948:1133  function BytesToString3(string memory _a) public pure returns (string memory){... */\n    tag_37:\n        /* \"contracts/230504/3_StringAndBytes.sol\":1011:1024  string memory */\n      0x60\n        /* \"contracts/230504/3_StringAndBytes.sol\":1036:1051  bytes memory _b */\n      0x00\n        /* \"contracts/230504/3_StringAndBytes.sol\":1064:1065  1 */\n      0x01\n        /* \"contracts/230504/3_StringAndBytes.sol\":1054:1066  new bytes(1) */\n      0xffffffffffffffff\n      dup2\n      gt\n      iszero\n      tag_74\n      jumpi\n      tag_75\n      tag_50\n      jump\t// in\n    tag_75:\n    tag_74:\n      mload(0x40)\n      swap1\n      dup1\n      dup3\n      mstore\n      dup1\n      0x1f\n      add\n      not(0x1f)\n      and\n      0x20\n      add\n      dup3\n      add\n      0x40\n      mstore\n      dup1\n      iszero\n      tag_76\n      jumpi\n      dup2\n      0x20\n      add\n      0x01\n      dup3\n      mul\n      dup1\n      calldatasize\n      dup4\n      calldatacopy\n      dup1\n      dup3\n      add\n      swap2\n      pop\n      pop\n      swap1\n      pop\n    tag_76:\n      pop\n        /* \"contracts/230504/3_StringAndBytes.sol\":1036:1066  bytes memory _b = new bytes(1) */\n      swap1\n      pop\n        /* \"contracts/230504/3_StringAndBytes.sol\":1091:1093  _a */\n      dup3\n        /* \"contracts/230504/3_StringAndBytes.sol\":1095:1096  0 */\n      0x00\n        /* \"contracts/230504/3_StringAndBytes.sol\":1085:1097  bytes(_a)[0] */\n      dup2\n      mload\n      dup2\n      lt\n      tag_77\n      jumpi\n      tag_78\n      tag_56\n      jump\t// in\n    tag_78:\n    tag_77:\n      0x20\n      add\n      add\n      mload\n      0xf8\n      shr\n      0xf8\n      shl\n        /* \"contracts/230504/3_StringAndBytes.sol\":1077:1079  _b */\n      dup2\n        /* \"contracts/230504/3_StringAndBytes.sol\":1080:1081  0 */\n      0x00\n        /* \"contracts/230504/3_StringAndBytes.sol\":1077:1082  _b[0] */\n      dup2\n      mload\n      dup2\n      lt\n      tag_79\n      jumpi\n      tag_80\n      tag_56\n      jump\t// in\n    tag_80:\n    tag_79:\n      0x20\n      add\n      add\n        /* \"contracts/230504/3_StringAndBytes.sol\":1077:1097  _b[0] = bytes(_a)[0] */\n      swap1\n      not(0xffffffffffffffffffffffffffffffffffffffffffffffffffffffffffffff)\n      and\n      swap1\n      dup2\n      0x00\n      byte\n      swap1\n      mstore8\n      pop\n        /* \"contracts/230504/3_StringAndBytes.sol\":1122:1124  _b */\n      dup1\n        /* \"contracts/230504/3_StringAndBytes.sol\":1108:1125  return string(_b) */\n      swap2\n      pop\n      pop\n        /* \"contracts/230504/3_StringAndBytes.sol\":948:1133  function BytesToString3(string memory _a) public pure returns (string memory){... */\n      swap2\n      swap1\n      pop\n      jump\t// out\n        /* \"contracts/230504/3_StringAndBytes.sol\":384:519  function StringToBytes2() public view returns (bytes1, bytes1, bytes1){... */\n    tag_40:\n        /* \"contracts/230504/3_StringAndBytes.sol\":431:437  bytes1 */\n      0x00\n        /* \"contracts/230504/3_StringAndBytes.sol\":439:445  bytes1 */\n      dup1\n        /* \"contracts/230504/3_StringAndBytes.sol\":447:453  bytes1 */\n      0x00\n        /* \"contracts/230504/3_StringAndBytes.sol\":479:480  a */\n      dup1\n        /* \"contracts/230504/3_StringAndBytes.sol\":482:483  0 */\n      0x00\n        /* \"contracts/230504/3_StringAndBytes.sol\":473:484  bytes(a)[0] */\n      dup2\n      sload\n      tag_82\n      swap1\n      tag_67\n      jump\t// in\n    tag_82:\n      dup2\n      lt\n      tag_83\n      jumpi\n      tag_84\n      tag_56\n      jump\t// in\n    tag_84:\n    tag_83:\n      dup2\n      sload\n      0x01\n      and\n      iszero\n      tag_85\n      jumpi\n      swap1\n      0x00\n      mstore\n      keccak256(0x00, 0x20)\n      swap1\n      0x20\n      swap2\n      dup3\n      dup3\n      div\n      add\n      swap2\n      swap1\n      mod\n    tag_85:\n      swap1\n      sload\n      swap1\n      byte\n      0x0100000000000000000000000000000000000000000000000000000000000000\n      mul\n        /* \"contracts/230504/3_StringAndBytes.sol\":492:493  a */\n      0x00\n        /* \"contracts/230504/3_StringAndBytes.sol\":495:496  1 */\n      0x01\n        /* \"contracts/230504/3_StringAndBytes.sol\":486:497  bytes(a)[1] */\n      dup2\n      sload\n      tag_86\n      swap1\n      tag_67\n      jump\t// in\n    tag_86:\n      dup2\n      lt\n      tag_87\n      jumpi\n      tag_88\n      tag_56\n      jump\t// in\n    tag_88:\n    tag_87:\n      dup2\n      sload\n      0x01\n      and\n      iszero\n      tag_89\n      jumpi\n      swap1\n      0x00\n      mstore\n      keccak256(0x00, 0x20)\n      swap1\n      0x20\n      swap2\n      dup3\n      dup3\n      div\n      add\n      swap2\n      swap1\n      mod\n    tag_89:\n      swap1\n      sload\n      swap1\n      byte\n      0x0100000000000000000000000000000000000000000000000000000000000000\n      mul\n        /* \"contracts/230504/3_StringAndBytes.sol\":505:506  a */\n      0x00\n        /* \"contracts/230504/3_StringAndBytes.sol\":508:509  2 */\n      0x02\n        /* \"contracts/230504/3_StringAndBytes.sol\":499:510  bytes(a)[2] */\n      dup2\n      sload\n      tag_90\n      swap1\n      tag_67\n      jump\t// in\n    tag_90:\n      dup2\n      lt\n      tag_91\n      jumpi\n      tag_92\n      tag_56\n      jump\t// in\n    tag_92:\n    tag_91:\n      dup2\n      sload\n      0x01\n      and\n      iszero\n      tag_93\n      jumpi\n      swap1\n      0x00\n      mstore\n      keccak256(0x00, 0x20)\n      swap1\n      0x20\n      swap2\n      dup3\n      dup3\n      div\n      add\n      swap2\n      swap1\n      mod\n    tag_93:\n      swap1\n      sload\n      swap1\n      byte\n      0x0100000000000000000000000000000000000000000000000000000000000000\n      mul\n        /* \"contracts/230504/3_StringAndBytes.sol\":465:511  return (bytes(a)[0], bytes(a)[1], bytes(a)[2]) */\n      swap3\n      pop\n      swap3\n      pop\n      swap3\n      pop\n        /* \"contracts/230504/3_StringAndBytes.sol\":384:519  function StringToBytes2() public view returns (bytes1, bytes1, bytes1){... */\n      swap1\n      swap2\n      swap3\n      jump\t// out\n        /* \"contracts/230504/3_StringAndBytes.sol\":283:376  function StringToBytes() public view returns (bytes memory){... */\n    tag_44:\n        /* \"contracts/230504/3_StringAndBytes.sol\":329:341  bytes memory */\n      0x60\n        /* \"contracts/230504/3_StringAndBytes.sol\":366:367  a */\n      0x00\n        /* \"contracts/230504/3_StringAndBytes.sol\":353:368  return bytes(a) */\n      dup1\n      sload\n      tag_95\n      swap1\n      tag_67\n      jump\t// in\n    tag_95:\n      dup1\n      0x1f\n      add\n      0x20\n      dup1\n      swap2\n      div\n      mul\n      0x20\n      add\n      mload(0x40)\n      swap1\n      dup2\n      add\n      0x40\n      mstore\n      dup1\n      swap3\n      swap2\n      swap1\n      dup2\n      dup2\n      mstore\n      0x20\n      add\n      dup3\n      dup1\n      sload\n      tag_96\n      swap1\n      tag_67\n      jump\t// in\n    tag_96:\n      dup1\n      iszero\n      tag_97\n      jumpi\n      dup1\n      0x1f\n      lt\n      tag_98\n      jumpi\n      0x0100\n      dup1\n      dup4\n      sload\n      div\n      mul\n      dup4\n      mstore\n      swap2\n      0x20\n      add\n      swap2\n      jump(tag_97)\n    tag_98:\n      dup3\n      add\n      swap2\n      swap1\n      0x00\n      mstore\n      keccak256(0x00, 0x20)\n      swap1\n    tag_99:\n      dup2\n      sload\n      dup2\n      mstore\n      swap1\n      0x01\n      add\n      swap1\n      0x20\n      add\n      dup1\n      dup4\n      gt\n      tag_99\n      jumpi\n      dup3\n      swap1\n      sub\n      0x1f\n      and\n      dup3\n      add\n      swap2\n    tag_97:\n      pop\n      pop\n      pop\n      pop\n      pop\n      swap1\n      pop\n        /* \"contracts/230504/3_StringAndBytes.sol\":283:376  function StringToBytes() public view returns (bytes memory){... */\n      swap1\n      jump\t// out\n        /* \"#utility.yul\":7:82   */\n    tag_100:\n        /* \"#utility.yul\":40:46   */\n      0x00\n        /* \"#utility.yul\":73:75   */\n      0x40\n        /* \"#utility.yul\":67:76   */\n      mload\n        /* \"#utility.yul\":57:76   */\n      swap1\n      pop\n        /* \"#utility.yul\":7:82   */\n      swap1\n      jump\t// out\n        /* \"#utility.yul\":88:205   */\n    tag_101:\n        /* \"#utility.yul\":197:198   */\n      0x00\n        /* \"#utility.yul\":194:195   */\n      dup1\n        /* \"#utility.yul\":187:199   */\n      revert\n        /* \"#utility.yul\":211:328   */\n    tag_102:\n        /* \"#utility.yul\":320:321   */\n      0x00\n        /* \"#utility.yul\":317:318   */\n      dup1\n        /* \"#utility.yul\":310:322   */\n      revert\n        /* \"#utility.yul\":334:451   */\n    tag_103:\n        /* \"#utility.yul\":443:444   */\n      0x00\n        /* \"#utility.yul\":440:441   */\n      dup1\n        /* \"#utility.yul\":433:445   */\n      revert\n        /* \"#utility.yul\":457:574   */\n    tag_104:\n        /* \"#utility.yul\":566:567   */\n      0x00\n        /* \"#utility.yul\":563:564   */\n      dup1\n        /* \"#utility.yul\":556:568   */\n      revert\n        /* \"#utility.yul\":580:682   */\n    tag_105:\n        /* \"#utility.yul\":621:627   */\n      0x00\n        /* \"#utility.yul\":672:674   */\n      0x1f\n        /* \"#utility.yul\":668:675   */\n      not\n        /* \"#utility.yul\":663:665   */\n      0x1f\n        /* \"#utility.yul\":656:661   */\n      dup4\n        /* \"#utility.yul\":652:666   */\n      add\n        /* \"#utility.yul\":648:676   */\n      and\n        /* \"#utility.yul\":638:676   */\n      swap1\n      pop\n        /* \"#utility.yul\":580:682   */\n      swap2\n      swap1\n      pop\n      jump\t// out\n        /* \"#utility.yul\":688:868   */\n    tag_50:\n        /* \"#utility.yul\":736:813   */\n      0x4e487b7100000000000000000000000000000000000000000000000000000000\n        /* \"#utility.yul\":733:734   */\n      0x00\n        /* \"#utility.yul\":726:814   */\n      mstore\n        /* \"#utility.yul\":833:837   */\n      0x41\n        /* \"#utility.yul\":830:831   */\n      0x04\n        /* \"#utility.yul\":823:838   */\n      mstore\n        /* \"#utility.yul\":857:861   */\n      0x24\n        /* \"#utility.yul\":854:855   */\n      0x00\n        /* \"#utility.yul\":847:862   */\n      revert\n        /* \"#utility.yul\":874:1155   */\n    tag_106:\n        /* \"#utility.yul\":957:984   */\n      tag_153\n        /* \"#utility.yul\":979:983   */\n      dup3\n        /* \"#utility.yul\":957:984   */\n      tag_105\n      jump\t// in\n    tag_153:\n        /* \"#utility.yul\":949:955   */\n      dup2\n        /* \"#utility.yul\":945:985   */\n      add\n        /* \"#utility.yul\":1087:1093   */\n      dup2\n        /* \"#utility.yul\":1075:1085   */\n      dup2\n        /* \"#utility.yul\":1072:1094   */\n      lt\n        /* \"#utility.yul\":1051:1069   */\n      0xffffffffffffffff\n        /* \"#utility.yul\":1039:1049   */\n      dup3\n        /* \"#utility.yul\":1036:1070   */\n      gt\n        /* \"#utility.yul\":1033:1095   */\n      or\n        /* \"#utility.yul\":1030:1118   */\n      iszero\n      tag_154\n      jumpi\n        /* \"#utility.yul\":1098:1116   */\n      tag_155\n      tag_50\n      jump\t// in\n    tag_155:\n        /* \"#utility.yul\":1030:1118   */\n    tag_154:\n        /* \"#utility.yul\":1138:1148   */\n      dup1\n        /* \"#utility.yul\":1134:1136   */\n      0x40\n        /* \"#utility.yul\":1127:1149   */\n      mstore\n        /* \"#utility.yul\":917:1155   */\n      pop\n        /* \"#utility.yul\":874:1155   */\n      pop\n      pop\n      jump\t// out\n        /* \"#utility.yul\":1161:1290   */\n    tag_107:\n        /* \"#utility.yul\":1195:1201   */\n      0x00\n        /* \"#utility.yul\":1222:1242   */\n      tag_157\n      tag_100\n      jump\t// in\n    tag_157:\n        /* \"#utility.yul\":1212:1242   */\n      swap1\n      pop\n        /* \"#utility.yul\":1251:1284   */\n      tag_158\n        /* \"#utility.yul\":1279:1283   */\n      dup3\n        /* \"#utility.yul\":1271:1277   */\n      dup3\n        /* \"#utility.yul\":1251:1284   */\n      tag_106\n      jump\t// in\n    tag_158:\n        /* \"#utility.yul\":1161:1290   */\n      swap2\n      swap1\n      pop\n      jump\t// out\n        /* \"#utility.yul\":1296:1604   */\n    tag_108:\n        /* \"#utility.yul\":1358:1362   */\n      0x00\n        /* \"#utility.yul\":1448:1466   */\n      0xffffffffffffffff\n        /* \"#utility.yul\":1440:1446   */\n      dup3\n        /* \"#utility.yul\":1437:1467   */\n      gt\n        /* \"#utility.yul\":1434:1490   */\n      iszero\n      tag_160\n      jumpi\n        /* \"#utility.yul\":1470:1488   */\n      tag_161\n      tag_50\n      jump\t// in\n    tag_161:\n        /* \"#utility.yul\":1434:1490   */\n    tag_160:\n        /* \"#utility.yul\":1508:1537   */\n      tag_162\n        /* \"#utility.yul\":1530:1536   */\n      dup3\n        /* \"#utility.yul\":1508:1537   */\n      tag_105\n      jump\t// in\n    tag_162:\n        /* \"#utility.yul\":1500:1537   */\n      swap1\n      pop\n        /* \"#utility.yul\":1592:1596   */\n      0x20\n        /* \"#utility.yul\":1586:1590   */\n      dup2\n        /* \"#utility.yul\":1582:1597   */\n      add\n        /* \"#utility.yul\":1574:1597   */\n      swap1\n      pop\n        /* \"#utility.yul\":1296:1604   */\n      swap2\n      swap1\n      pop\n      jump\t// out\n        /* \"#utility.yul\":1610:1756   */\n    tag_109:\n        /* \"#utility.yul\":1707:1713   */\n      dup3\n        /* \"#utility.yul\":1702:1705   */\n      dup2\n        /* \"#utility.yul\":1697:1700   */\n      dup4\n        /* \"#utility.yul\":1684:1714   */\n      calldatacopy\n        /* \"#utility.yul\":1748:1749   */\n      0x00\n        /* \"#utility.yul\":1739:1745   */\n      dup4\n        /* \"#utility.yul\":1734:1737   */\n      dup4\n        /* \"#utility.yul\":1730:1746   */\n      add\n        /* \"#utility.yul\":1723:1750   */\n      mstore\n        /* \"#utility.yul\":1610:1756   */\n      pop\n      pop\n      pop\n      jump\t// out\n        /* \"#utility.yul\":1762:2187   */\n    tag_110:\n        /* \"#utility.yul\":1840:1845   */\n      0x00\n        /* \"#utility.yul\":1865:1931   */\n      tag_165\n        /* \"#utility.yul\":1881:1930   */\n      tag_166\n        /* \"#utility.yul\":1923:1929   */\n      dup5\n        /* \"#utility.yul\":1881:1930   */\n      tag_108\n      jump\t// in\n    tag_166:\n        /* \"#utility.yul\":1865:1931   */\n      tag_107\n      jump\t// in\n    tag_165:\n        /* \"#utility.yul\":1856:1931   */\n      swap1\n      pop\n        /* \"#utility.yul\":1954:1960   */\n      dup3\n        /* \"#utility.yul\":1947:1952   */\n      dup2\n        /* \"#utility.yul\":1940:1961   */\n      mstore\n        /* \"#utility.yul\":1992:1996   */\n      0x20\n        /* \"#utility.yul\":1985:1990   */\n      dup2\n        /* \"#utility.yul\":1981:1997   */\n      add\n        /* \"#utility.yul\":2030:2033   */\n      dup5\n        /* \"#utility.yul\":2021:2027   */\n      dup5\n        /* \"#utility.yul\":2016:2019   */\n      dup5\n        /* \"#utility.yul\":2012:2028   */\n      add\n        /* \"#utility.yul\":2009:2034   */\n      gt\n        /* \"#utility.yul\":2006:2118   */\n      iszero\n      tag_167\n      jumpi\n        /* \"#utility.yul\":2037:2116   */\n      tag_168\n      tag_104\n      jump\t// in\n    tag_168:\n        /* \"#utility.yul\":2006:2118   */\n    tag_167:\n        /* \"#utility.yul\":2127:2181   */\n      tag_169\n        /* \"#utility.yul\":2174:2180   */\n      dup5\n        /* \"#utility.yul\":2169:2172   */\n      dup3\n        /* \"#utility.yul\":2164:2167   */\n      dup6\n        /* \"#utility.yul\":2127:2181   */\n      tag_109\n      jump\t// in\n    tag_169:\n        /* \"#utility.yul\":1846:2187   */\n      pop\n        /* \"#utility.yul\":1762:2187   */\n      swap4\n      swap3\n      pop\n      pop\n      pop\n      jump\t// out\n        /* \"#utility.yul\":2207:2547   */\n    tag_111:\n        /* \"#utility.yul\":2263:2268   */\n      0x00\n        /* \"#utility.yul\":2312:2315   */\n      dup3\n        /* \"#utility.yul\":2305:2309   */\n      0x1f\n        /* \"#utility.yul\":2297:2303   */\n      dup4\n        /* \"#utility.yul\":2293:2310   */\n      add\n        /* \"#utility.yul\":2289:2316   */\n      slt\n        /* \"#utility.yul\":2279:2401   */\n      tag_171\n      jumpi\n        /* \"#utility.yul\":2320:2399   */\n      tag_172\n      tag_103\n      jump\t// in\n    tag_172:\n        /* \"#utility.yul\":2279:2401   */\n    tag_171:\n        /* \"#utility.yul\":2437:2443   */\n      dup2\n        /* \"#utility.yul\":2424:2444   */\n      calldataload\n        /* \"#utility.yul\":2462:2541   */\n      tag_173\n        /* \"#utility.yul\":2537:2540   */\n      dup5\n        /* \"#utility.yul\":2529:2535   */\n      dup3\n        /* \"#utility.yul\":2522:2526   */\n      0x20\n        /* \"#utility.yul\":2514:2520   */\n      dup7\n        /* \"#utility.yul\":2510:2527   */\n      add\n        /* \"#utility.yul\":2462:2541   */\n      tag_110\n      jump\t// in\n    tag_173:\n        /* \"#utility.yul\":2453:2541   */\n      swap2\n      pop\n        /* \"#utility.yul\":2269:2547   */\n      pop\n        /* \"#utility.yul\":2207:2547   */\n      swap3\n      swap2\n      pop\n      pop\n      jump\t// out\n        /* \"#utility.yul\":2553:2630   */\n    tag_112:\n        /* \"#utility.yul\":2590:2597   */\n      0x00\n        /* \"#utility.yul\":2619:2624   */\n      dup2\n        /* \"#utility.yul\":2608:2624   */\n      swap1\n      pop\n        /* \"#utility.yul\":2553:2630   */\n      swap2\n      swap1\n      pop\n      jump\t// out\n        /* \"#utility.yul\":2636:2758   */\n    tag_113:\n        /* \"#utility.yul\":2709:2733   */\n      tag_176\n        /* \"#utility.yul\":2727:2732   */\n      dup2\n        /* \"#utility.yul\":2709:2733   */\n      tag_112\n      jump\t// in\n    tag_176:\n        /* \"#utility.yul\":2702:2707   */\n      dup2\n        /* \"#utility.yul\":2699:2734   */\n      eq\n        /* \"#utility.yul\":2689:2752   */\n      tag_177\n      jumpi\n        /* \"#utility.yul\":2748:2749   */\n      0x00\n        /* \"#utility.yul\":2745:2746   */\n      dup1\n        /* \"#utility.yul\":2738:2750   */\n      revert\n        /* \"#utility.yul\":2689:2752   */\n    tag_177:\n        /* \"#utility.yul\":2636:2758   */\n      pop\n      jump\t// out\n        /* \"#utility.yul\":2764:2903   */\n    tag_114:\n        /* \"#utility.yul\":2810:2815   */\n      0x00\n        /* \"#utility.yul\":2848:2854   */\n      dup2\n        /* \"#utility.yul\":2835:2855   */\n      calldataload\n        /* \"#utility.yul\":2826:2855   */\n      swap1\n      pop\n        /* \"#utility.yul\":2864:2897   */\n      tag_179\n        /* \"#utility.yul\":2891:2896   */\n      dup2\n        /* \"#utility.yul\":2864:2897   */\n      tag_113\n      jump\t// in\n    tag_179:\n        /* \"#utility.yul\":2764:2903   */\n      swap3\n      swap2\n      pop\n      pop\n      jump\t// out\n        /* \"#utility.yul\":2909:3563   */\n    tag_14:\n        /* \"#utility.yul\":2987:2993   */\n      0x00\n        /* \"#utility.yul\":2995:3001   */\n      dup1\n        /* \"#utility.yul\":3044:3046   */\n      0x40\n        /* \"#utility.yul\":3032:3041   */\n      dup4\n        /* \"#utility.yul\":3023:3030   */\n      dup6\n        /* \"#utility.yul\":3019:3042   */\n      sub\n        /* \"#utility.yul\":3015:3047   */\n      slt\n        /* \"#utility.yul\":3012:3131   */\n      iszero\n      tag_181\n      jumpi\n        /* \"#utility.yul\":3050:3129   */\n      tag_182\n      tag_101\n      jump\t// in\n    tag_182:\n        /* \"#utility.yul\":3012:3131   */\n    tag_181:\n        /* \"#utility.yul\":3198:3199   */\n      0x00\n        /* \"#utility.yul\":3187:3196   */\n      dup4\n        /* \"#utility.yul\":3183:3200   */\n      add\n        /* \"#utility.yul\":3170:3201   */\n      calldataload\n        /* \"#utility.yul\":3228:3246   */\n      0xffffffffffffffff\n        /* \"#utility.yul\":3220:3226   */\n      dup2\n        /* \"#utility.yul\":3217:3247   */\n      gt\n        /* \"#utility.yul\":3214:3331   */\n      iszero\n      tag_183\n      jumpi\n        /* \"#utility.yul\":3250:3329   */\n      tag_184\n      tag_102\n      jump\t// in\n    tag_184:\n        /* \"#utility.yul\":3214:3331   */\n    tag_183:\n        /* \"#utility.yul\":3355:3418   */\n      tag_185\n        /* \"#utility.yul\":3410:3417   */\n      dup6\n        /* \"#utility.yul\":3401:3407   */\n      dup3\n        /* \"#utility.yul\":3390:3399   */\n      dup7\n        /* \"#utility.yul\":3386:3408   */\n      add\n        /* \"#utility.yul\":3355:3418   */\n      tag_111\n      jump\t// in\n    tag_185:\n        /* \"#utility.yul\":3345:3418   */\n      swap3\n      pop\n        /* \"#utility.yul\":3141:3428   */\n      pop\n        /* \"#utility.yul\":3467:3469   */\n      0x20\n        /* \"#utility.yul\":3493:3546   */\n      tag_186\n        /* \"#utility.yul\":3538:3545   */\n      dup6\n        /* \"#utility.yul\":3529:3535   */\n      dup3\n        /* \"#utility.yul\":3518:3527   */\n      dup7\n        /* \"#utility.yul\":3514:3536   */\n      add\n        /* \"#utility.yul\":3493:3546   */\n      tag_114\n      jump\t// in\n    tag_186:\n        /* \"#utility.yul\":3483:3546   */\n      swap2\n      pop\n        /* \"#utility.yul\":3438:3556   */\n      pop\n        /* \"#utility.yul\":2909:3563   */\n      swap3\n      pop\n      swap3\n      swap1\n      pop\n      jump\t// out\n        /* \"#utility.yul\":3569:3668   */\n    tag_115:\n        /* \"#utility.yul\":3621:3627   */\n      0x00\n        /* \"#utility.yul\":3655:3660   */\n      dup2\n        /* \"#utility.yul\":3649:3661   */\n      mload\n        /* \"#utility.yul\":3639:3661   */\n      swap1\n      pop\n        /* \"#utility.yul\":3569:3668   */\n      swap2\n      swap1\n      pop\n      jump\t// out\n        /* \"#utility.yul\":3674:3843   */\n    tag_116:\n        /* \"#utility.yul\":3758:3769   */\n      0x00\n        /* \"#utility.yul\":3792:3798   */\n      dup3\n        /* \"#utility.yul\":3787:3790   */\n      dup3\n        /* \"#utility.yul\":3780:3799   */\n      mstore\n        /* \"#utility.yul\":3832:3836   */\n      0x20\n        /* \"#utility.yul\":3827:3830   */\n      dup3\n        /* \"#utility.yul\":3823:3837   */\n      add\n        /* \"#utility.yul\":3808:3837   */\n      swap1\n      pop\n        /* \"#utility.yul\":3674:3843   */\n      swap3\n      swap2\n      pop\n      pop\n      jump\t// out\n        /* \"#utility.yul\":3849:4095   */\n    tag_117:\n        /* \"#utility.yul\":3930:3931   */\n      0x00\n        /* \"#utility.yul\":3940:4053   */\n    tag_190:\n        /* \"#utility.yul\":3954:3960   */\n      dup4\n        /* \"#utility.yul\":3951:3952   */\n      dup2\n        /* \"#utility.yul\":3948:3961   */\n      lt\n        /* \"#utility.yul\":3940:4053   */\n      iszero\n      tag_192\n      jumpi\n        /* \"#utility.yul\":4039:4040   */\n      dup1\n        /* \"#utility.yul\":4034:4037   */\n      dup3\n        /* \"#utility.yul\":4030:4041   */\n      add\n        /* \"#utility.yul\":4024:4042   */\n      mload\n        /* \"#utility.yul\":4020:4021   */\n      dup2\n        /* \"#utility.yul\":4015:4018   */\n      dup5\n        /* \"#utility.yul\":4011:4022   */\n      add\n        /* \"#utility.yul\":4004:4043   */\n      mstore\n        /* \"#utility.yul\":3976:3978   */\n      0x20\n        /* \"#utility.yul\":3973:3974   */\n      dup2\n        /* \"#utility.yul\":3969:3979   */\n      add\n        /* \"#utility.yul\":3964:3979   */\n      swap1\n      pop\n        /* \"#utility.yul\":3940:4053   */\n      jump(tag_190)\n    tag_192:\n        /* \"#utility.yul\":4087:4088   */\n      0x00\n        /* \"#utility.yul\":4078:4084   */\n      dup5\n        /* \"#utility.yul\":4073:4076   */\n      dup5\n        /* \"#utility.yul\":4069:4085   */\n      add\n        /* \"#utility.yul\":4062:4089   */\n      mstore\n        /* \"#utility.yul\":3911:4095   */\n      pop\n        /* \"#utility.yul\":3849:4095   */\n      pop\n      pop\n      pop\n      jump\t// out\n        /* \"#utility.yul\":4101:4478   */\n    tag_118:\n        /* \"#utility.yul\":4189:4192   */\n      0x00\n        /* \"#utility.yul\":4217:4256   */\n      tag_194\n        /* \"#utility.yul\":4250:4255   */\n      dup3\n        /* \"#utility.yul\":4217:4256   */\n      tag_115\n      jump\t// in\n    tag_194:\n        /* \"#utility.yul\":4272:4343   */\n      tag_195\n        /* \"#utility.yul\":4336:4342   */\n      dup2\n        /* \"#utility.yul\":4331:4334   */\n      dup6\n        /* \"#utility.yul\":4272:4343   */\n      tag_116\n      jump\t// in\n    tag_195:\n        /* \"#utility.yul\":4265:4343   */\n      swap4\n      pop\n        /* \"#utility.yul\":4352:4417   */\n      tag_196\n        /* \"#utility.yul\":4410:4416   */\n      dup2\n        /* \"#utility.yul\":4405:4408   */\n      dup6\n        /* \"#utility.yul\":4398:4402   */\n      0x20\n        /* \"#utility.yul\":4391:4396   */\n      dup7\n        /* \"#utility.yul\":4387:4403   */\n      add\n        /* \"#utility.yul\":4352:4417   */\n      tag_117\n      jump\t// in\n    tag_196:\n        /* \"#utility.yul\":4442:4471   */\n      tag_197\n        /* \"#utility.yul\":4464:4470   */\n      dup2\n        /* \"#utility.yul\":4442:4471   */\n      tag_105\n      jump\t// in\n    tag_197:\n        /* \"#utility.yul\":4437:4440   */\n      dup5\n        /* \"#utility.yul\":4433:4472   */\n      add\n        /* \"#utility.yul\":4426:4472   */\n      swap2\n      pop\n        /* \"#utility.yul\":4193:4478   */\n      pop\n        /* \"#utility.yul\":4101:4478   */\n      swap3\n      swap2\n      pop\n      pop\n      jump\t// out\n        /* \"#utility.yul\":4484:4797   */\n    tag_17:\n        /* \"#utility.yul\":4597:4601   */\n      0x00\n        /* \"#utility.yul\":4635:4637   */\n      0x20\n        /* \"#utility.yul\":4624:4633   */\n      dup3\n        /* \"#utility.yul\":4620:4638   */\n      add\n        /* \"#utility.yul\":4612:4638   */\n      swap1\n      pop\n        /* \"#utility.yul\":4684:4693   */\n      dup2\n        /* \"#utility.yul\":4678:4682   */\n      dup2\n        /* \"#utility.yul\":4674:4694   */\n      sub\n        /* \"#utility.yul\":4670:4671   */\n      0x00\n        /* \"#utility.yul\":4659:4668   */\n      dup4\n        /* \"#utility.yul\":4655:4672   */\n      add\n        /* \"#utility.yul\":4648:4695   */\n      mstore\n        /* \"#utility.yul\":4712:4790   */\n      tag_199\n        /* \"#utility.yul\":4785:4789   */\n      dup2\n        /* \"#utility.yul\":4776:4782   */\n      dup5\n        /* \"#utility.yul\":4712:4790   */\n      tag_118\n      jump\t// in\n    tag_199:\n        /* \"#utility.yul\":4704:4790   */\n      swap1\n      pop\n        /* \"#utility.yul\":4484:4797   */\n      swap3\n      swap2\n      pop\n      pop\n      jump\t// out\n        /* \"#utility.yul\":4803:5312   */\n    tag_20:\n        /* \"#utility.yul\":4872:4878   */\n      0x00\n        /* \"#utility.yul\":4921:4923   */\n      0x20\n        /* \"#utility.yul\":4909:4918   */\n      dup3\n        /* \"#utility.yul\":4900:4907   */\n      dup5\n        /* \"#utility.yul\":4896:4919   */\n      sub\n        /* \"#utility.yul\":4892:4924   */\n      slt\n        /* \"#utility.yul\":4889:5008   */\n      iszero\n      tag_201\n      jumpi\n        /* \"#utility.yul\":4927:5006   */\n      tag_202\n      tag_101\n      jump\t// in\n    tag_202:\n        /* \"#utility.yul\":4889:5008   */\n    tag_201:\n        /* \"#utility.yul\":5075:5076   */\n      0x00\n        /* \"#utility.yul\":5064:5073   */\n      dup3\n        /* \"#utility.yul\":5060:5077   */\n      add\n        /* \"#utility.yul\":5047:5078   */\n      calldataload\n        /* \"#utility.yul\":5105:5123   */\n      0xffffffffffffffff\n        /* \"#utility.yul\":5097:5103   */\n      dup2\n        /* \"#utility.yul\":5094:5124   */\n      gt\n        /* \"#utility.yul\":5091:5208   */\n      iszero\n      tag_203\n      jumpi\n        /* \"#utility.yul\":5127:5206   */\n      tag_204\n      tag_102\n      jump\t// in\n    tag_204:\n        /* \"#utility.yul\":5091:5208   */\n    tag_203:\n        /* \"#utility.yul\":5232:5295   */\n      tag_205\n        /* \"#utility.yul\":5287:5294   */\n      dup5\n        /* \"#utility.yul\":5278:5284   */\n      dup3\n        /* \"#utility.yul\":5267:5276   */\n      dup6\n        /* \"#utility.yul\":5263:5285   */\n      add\n        /* \"#utility.yul\":5232:5295   */\n      tag_111\n      jump\t// in\n    tag_205:\n        /* \"#utility.yul\":5222:5295   */\n      swap2\n      pop\n        /* \"#utility.yul\":5018:5305   */\n      pop\n        /* \"#utility.yul\":4803:5312   */\n      swap3\n      swap2\n      pop\n      pop\n      jump\t// out\n        /* \"#utility.yul\":5318:5467   */\n    tag_119:\n        /* \"#utility.yul\":5354:5361   */\n      0x00\n        /* \"#utility.yul\":5394:5460   */\n      0xff00000000000000000000000000000000000000000000000000000000000000\n        /* \"#utility.yul\":5387:5392   */\n      dup3\n        /* \"#utility.yul\":5383:5461   */\n      and\n        /* \"#utility.yul\":5372:5461   */\n      swap1\n      pop\n        /* \"#utility.yul\":5318:5467   */\n      swap2\n      swap1\n      pop\n      jump\t// out\n        /* \"#utility.yul\":5473:5588   */\n    tag_120:\n        /* \"#utility.yul\":5558:5581   */\n      tag_208\n        /* \"#utility.yul\":5575:5580   */\n      dup2\n        /* \"#utility.yul\":5558:5581   */\n      tag_119\n      jump\t// in\n    tag_208:\n        /* \"#utility.yul\":5553:5556   */\n      dup3\n        /* \"#utility.yul\":5546:5582   */\n      mstore\n        /* \"#utility.yul\":5473:5588   */\n      pop\n      pop\n      jump\t// out\n        /* \"#utility.yul\":5594:5812   */\n    tag_23:\n        /* \"#utility.yul\":5685:5689   */\n      0x00\n        /* \"#utility.yul\":5723:5725   */\n      0x20\n        /* \"#utility.yul\":5712:5721   */\n      dup3\n        /* \"#utility.yul\":5708:5726   */\n      add\n        /* \"#utility.yul\":5700:5726   */\n      swap1\n      pop\n        /* \"#utility.yul\":5736:5805   */\n      tag_210\n        /* \"#utility.yul\":5802:5803   */\n      0x00\n        /* \"#utility.yul\":5791:5800   */\n      dup4\n        /* \"#utility.yul\":5787:5804   */\n      add\n        /* \"#utility.yul\":5778:5784   */\n      dup5\n        /* \"#utility.yul\":5736:5805   */\n      tag_120\n      jump\t// in\n    tag_210:\n        /* \"#utility.yul\":5594:5812   */\n      swap3\n      swap2\n      pop\n      pop\n      jump\t// out\n        /* \"#utility.yul\":5818:6125   */\n    tag_121:\n        /* \"#utility.yul\":5879:5883   */\n      0x00\n        /* \"#utility.yul\":5969:5987   */\n      0xffffffffffffffff\n        /* \"#utility.yul\":5961:5967   */\n      dup3\n        /* \"#utility.yul\":5958:5988   */\n      gt\n        /* \"#utility.yul\":5955:6011   */\n      iszero\n      tag_212\n      jumpi\n        /* \"#utility.yul\":5991:6009   */\n      tag_213\n      tag_50\n      jump\t// in\n    tag_213:\n        /* \"#utility.yul\":5955:6011   */\n    tag_212:\n        /* \"#utility.yul\":6029:6058   */\n      tag_214\n        /* \"#utility.yul\":6051:6057   */\n      dup3\n        /* \"#utility.yul\":6029:6058   */\n      tag_105\n      jump\t// in\n    tag_214:\n        /* \"#utility.yul\":6021:6058   */\n      swap1\n      pop\n        /* \"#utility.yul\":6113:6117   */\n      0x20\n        /* \"#utility.yul\":6107:6111   */\n      dup2\n        /* \"#utility.yul\":6103:6118   */\n      add\n        /* \"#utility.yul\":6095:6118   */\n      swap1\n      pop\n        /* \"#utility.yul\":5818:6125   */\n      swap2\n      swap1\n      pop\n      jump\t// out\n        /* \"#utility.yul\":6131:6554   */\n    tag_122:\n        /* \"#utility.yul\":6208:6213   */\n      0x00\n        /* \"#utility.yul\":6233:6298   */\n      tag_216\n        /* \"#utility.yul\":6249:6297   */\n      tag_217\n        /* \"#utility.yul\":6290:6296   */\n      dup5\n        /* \"#utility.yul\":6249:6297   */\n      tag_121\n      jump\t// in\n    tag_217:\n        /* \"#utility.yul\":6233:6298   */\n      tag_107\n      jump\t// in\n    tag_216:\n        /* \"#utility.yul\":6224:6298   */\n      swap1\n      pop\n        /* \"#utility.yul\":6321:6327   */\n      dup3\n        /* \"#utility.yul\":6314:6319   */\n      dup2\n        /* \"#utility.yul\":6307:6328   */\n      mstore\n        /* \"#utility.yul\":6359:6363   */\n      0x20\n        /* \"#utility.yul\":6352:6357   */\n      dup2\n        /* \"#utility.yul\":6348:6364   */\n      add\n        /* \"#utility.yul\":6397:6400   */\n      dup5\n        /* \"#utility.yul\":6388:6394   */\n      dup5\n        /* \"#utility.yul\":6383:6386   */\n      dup5\n        /* \"#utility.yul\":6379:6395   */\n      add\n        /* \"#utility.yul\":6376:6401   */\n      gt\n        /* \"#utility.yul\":6373:6485   */\n      iszero\n      tag_218\n      jumpi\n        /* \"#utility.yul\":6404:6483   */\n      tag_219\n      tag_104\n      jump\t// in\n    tag_219:\n        /* \"#utility.yul\":6373:6485   */\n    tag_218:\n        /* \"#utility.yul\":6494:6548   */\n      tag_220\n        /* \"#utility.yul\":6541:6547   */\n      dup5\n        /* \"#utility.yul\":6536:6539   */\n      dup3\n        /* \"#utility.yul\":6531:6534   */\n      dup6\n        /* \"#utility.yul\":6494:6548   */\n      tag_109\n      jump\t// in\n    tag_220:\n        /* \"#utility.yul\":6214:6554   */\n      pop\n        /* \"#utility.yul\":6131:6554   */\n      swap4\n      swap3\n      pop\n      pop\n      pop\n      jump\t// out\n        /* \"#utility.yul\":6573:6911   */\n    tag_123:\n        /* \"#utility.yul\":6628:6633   */\n      0x00\n        /* \"#utility.yul\":6677:6680   */\n      dup3\n        /* \"#utility.yul\":6670:6674   */\n      0x1f\n        /* \"#utility.yul\":6662:6668   */\n      dup4\n        /* \"#utility.yul\":6658:6675   */\n      add\n        /* \"#utility.yul\":6654:6681   */\n      slt\n        /* \"#utility.yul\":6644:6766   */\n      tag_222\n      jumpi\n        /* \"#utility.yul\":6685:6764   */\n      tag_223\n      tag_103\n      jump\t// in\n    tag_223:\n        /* \"#utility.yul\":6644:6766   */\n    tag_222:\n        /* \"#utility.yul\":6802:6808   */\n      dup2\n        /* \"#utility.yul\":6789:6809   */\n      calldataload\n        /* \"#utility.yul\":6827:6905   */\n      tag_224\n        /* \"#utility.yul\":6901:6904   */\n      dup5\n        /* \"#utility.yul\":6893:6899   */\n      dup3\n        /* \"#utility.yul\":6886:6890   */\n      0x20\n        /* \"#utility.yul\":6878:6884   */\n      dup7\n        /* \"#utility.yul\":6874:6891   */\n      add\n        /* \"#utility.yul\":6827:6905   */\n      tag_122\n      jump\t// in\n    tag_224:\n        /* \"#utility.yul\":6818:6905   */\n      swap2\n      pop\n        /* \"#utility.yul\":6634:6911   */\n      pop\n        /* \"#utility.yul\":6573:6911   */\n      swap3\n      swap2\n      pop\n      pop\n      jump\t// out\n        /* \"#utility.yul\":6917:7424   */\n    tag_32:\n        /* \"#utility.yul\":6985:6991   */\n      0x00\n        /* \"#utility.yul\":7034:7036   */\n      0x20\n        /* \"#utility.yul\":7022:7031   */\n      dup3\n        /* \"#utility.yul\":7013:7020   */\n      dup5\n        /* \"#utility.yul\":7009:7032   */\n      sub\n        /* \"#utility.yul\":7005:7037   */\n      slt\n        /* \"#utility.yul\":7002:7121   */\n      iszero\n      tag_226\n      jumpi\n        /* \"#utility.yul\":7040:7119   */\n      tag_227\n      tag_101\n      jump\t// in\n    tag_227:\n        /* \"#utility.yul\":7002:7121   */\n    tag_226:\n        /* \"#utility.yul\":7188:7189   */\n      0x00\n        /* \"#utility.yul\":7177:7186   */\n      dup3\n        /* \"#utility.yul\":7173:7190   */\n      add\n        /* \"#utility.yul\":7160:7191   */\n      calldataload\n        /* \"#utility.yul\":7218:7236   */\n      0xffffffffffffffff\n        /* \"#utility.yul\":7210:7216   */\n      dup2\n        /* \"#utility.yul\":7207:7237   */\n      gt\n        /* \"#utility.yul\":7204:7321   */\n      iszero\n      tag_228\n      jumpi\n        /* \"#utility.yul\":7240:7319   */\n      tag_229\n      tag_102\n      jump\t// in\n    tag_229:\n        /* \"#utility.yul\":7204:7321   */\n    tag_228:\n        /* \"#utility.yul\":7345:7407   */\n      tag_230\n        /* \"#utility.yul\":7399:7406   */\n      dup5\n        /* \"#utility.yul\":7390:7396   */\n      dup3\n        /* \"#utility.yul\":7379:7388   */\n      dup6\n        /* \"#utility.yul\":7375:7397   */\n      add\n        /* \"#utility.yul\":7345:7407   */\n      tag_123\n      jump\t// in\n    tag_230:\n        /* \"#utility.yul\":7335:7407   */\n      swap2\n      pop\n        /* \"#utility.yul\":7131:7417   */\n      pop\n        /* \"#utility.yul\":6917:7424   */\n      swap3\n      swap2\n      pop\n      pop\n      jump\t// out\n        /* \"#utility.yul\":7430:7860   */\n    tag_42:\n        /* \"#utility.yul\":7573:7577   */\n      0x00\n        /* \"#utility.yul\":7611:7613   */\n      0x60\n        /* \"#utility.yul\":7600:7609   */\n      dup3\n        /* \"#utility.yul\":7596:7614   */\n      add\n        /* \"#utility.yul\":7588:7614   */\n      swap1\n      pop\n        /* \"#utility.yul\":7624:7693   */\n      tag_232\n        /* \"#utility.yul\":7690:7691   */\n      0x00\n        /* \"#utility.yul\":7679:7688   */\n      dup4\n        /* \"#utility.yul\":7675:7692   */\n      add\n        /* \"#utility.yul\":7666:7672   */\n      dup7\n        /* \"#utility.yul\":7624:7693   */\n      tag_120\n      jump\t// in\n    tag_232:\n        /* \"#utility.yul\":7703:7773   */\n      tag_233\n        /* \"#utility.yul\":7769:7771   */\n      0x20\n        /* \"#utility.yul\":7758:7767   */\n      dup4\n        /* \"#utility.yul\":7754:7772   */\n      add\n        /* \"#utility.yul\":7745:7751   */\n      dup6\n        /* \"#utility.yul\":7703:7773   */\n      tag_120\n      jump\t// in\n    tag_233:\n        /* \"#utility.yul\":7783:7853   */\n      tag_234\n        /* \"#utility.yul\":7849:7851   */\n      0x40\n        /* \"#utility.yul\":7838:7847   */\n      dup4\n        /* \"#utility.yul\":7834:7852   */\n      add\n        /* \"#utility.yul\":7825:7831   */\n      dup5\n        /* \"#utility.yul\":7783:7853   */\n      tag_120\n      jump\t// in\n    tag_234:\n        /* \"#utility.yul\":7430:7860   */\n      swap5\n      swap4\n      pop\n      pop\n      pop\n      pop\n      jump\t// out\n        /* \"#utility.yul\":7866:7964   */\n    tag_124:\n        /* \"#utility.yul\":7917:7923   */\n      0x00\n        /* \"#utility.yul\":7951:7956   */\n      dup2\n        /* \"#utility.yul\":7945:7957   */\n      mload\n        /* \"#utility.yul\":7935:7957   */\n      swap1\n      pop\n        /* \"#utility.yul\":7866:7964   */\n      swap2\n      swap1\n      pop\n      jump\t// out\n        /* \"#utility.yul\":7970:8138   */\n    tag_125:\n        /* \"#utility.yul\":8053:8064   */\n      0x00\n        /* \"#utility.yul\":8087:8093   */\n      dup3\n        /* \"#utility.yul\":8082:8085   */\n      dup3\n        /* \"#utility.yul\":8075:8094   */\n      mstore\n        /* \"#utility.yul\":8127:8131   */\n      0x20\n        /* \"#utility.yul\":8122:8125   */\n      dup3\n        /* \"#utility.yul\":8118:8132   */\n      add\n        /* \"#utility.yul\":8103:8132   */\n      swap1\n      pop\n        /* \"#utility.yul\":7970:8138   */\n      swap3\n      swap2\n      pop\n      pop\n      jump\t// out\n        /* \"#utility.yul\":8144:8517   */\n    tag_126:\n        /* \"#utility.yul\":8230:8233   */\n      0x00\n        /* \"#utility.yul\":8258:8296   */\n      tag_238\n        /* \"#utility.yul\":8290:8295   */\n      dup3\n        /* \"#utility.yul\":8258:8296   */\n      tag_124\n      jump\t// in\n    tag_238:\n        /* \"#utility.yul\":8312:8382   */\n      tag_239\n        /* \"#utility.yul\":8375:8381   */\n      dup2\n        /* \"#utility.yul\":8370:8373   */\n      dup6\n        /* \"#utility.yul\":8312:8382   */\n      tag_125\n      jump\t// in\n    tag_239:\n        /* \"#utility.yul\":8305:8382   */\n      swap4\n      pop\n        /* \"#utility.yul\":8391:8456   */\n      tag_240\n        /* \"#utility.yul\":8449:8455   */\n      dup2\n        /* \"#utility.yul\":8444:8447   */\n      dup6\n        /* \"#utility.yul\":8437:8441   */\n      0x20\n        /* \"#utility.yul\":8430:8435   */\n      dup7\n        /* \"#utility.yul\":8426:8442   */\n      add\n        /* \"#utility.yul\":8391:8456   */\n      tag_117\n      jump\t// in\n    tag_240:\n        /* \"#utility.yul\":8481:8510   */\n      tag_241\n        /* \"#utility.yul\":8503:8509   */\n      dup2\n        /* \"#utility.yul\":8481:8510   */\n      tag_105\n      jump\t// in\n    tag_241:\n        /* \"#utility.yul\":8476:8479   */\n      dup5\n        /* \"#utility.yul\":8472:8511   */\n      add\n        /* \"#utility.yul\":8465:8511   */\n      swap2\n      pop\n        /* \"#utility.yul\":8234:8517   */\n      pop\n        /* \"#utility.yul\":8144:8517   */\n      swap3\n      swap2\n      pop\n      pop\n      jump\t// out\n        /* \"#utility.yul\":8523:8832   */\n    tag_46:\n        /* \"#utility.yul\":8634:8638   */\n      0x00\n        /* \"#utility.yul\":8672:8674   */\n      0x20\n        /* \"#utility.yul\":8661:8670   */\n      dup3\n        /* \"#utility.yul\":8657:8675   */\n      add\n        /* \"#utility.yul\":8649:8675   */\n      swap1\n      pop\n        /* \"#utility.yul\":8721:8730   */\n      dup2\n        /* \"#utility.yul\":8715:8719   */\n      dup2\n        /* \"#utility.yul\":8711:8731   */\n      sub\n        /* \"#utility.yul\":8707:8708   */\n      0x00\n        /* \"#utility.yul\":8696:8705   */\n      dup4\n        /* \"#utility.yul\":8692:8709   */\n      add\n        /* \"#utility.yul\":8685:8732   */\n      mstore\n        /* \"#utility.yul\":8749:8825   */\n      tag_243\n        /* \"#utility.yul\":8820:8824   */\n      dup2\n        /* \"#utility.yul\":8811:8817   */\n      dup5\n        /* \"#utility.yul\":8749:8825   */\n      tag_126\n      jump\t// in\n    tag_243:\n        /* \"#utility.yul\":8741:8825   */\n      swap1\n      pop\n        /* \"#utility.yul\":8523:8832   */\n      swap3\n      swap2\n      pop\n      pop\n      jump\t// out\n        /* \"#utility.yul\":8838:9018   */\n    tag_127:\n        /* \"#utility.yul\":8886:8963   */\n      0x4e487b7100000000000000000000000000000000000000000000000000000000\n        /* \"#utility.yul\":8883:8884   */\n      0x00\n        /* \"#utility.yul\":8876:8964   */\n      mstore\n        /* \"#utility.yul\":8983:8987   */\n      0x11\n        /* \"#utility.yul\":8980:8981   */\n      0x04\n        /* \"#utility.yul\":8973:8988   */\n      mstore\n        /* \"#utility.yul\":9007:9011   */\n      0x24\n        /* \"#utility.yul\":9004:9005   */\n      0x00\n        /* \"#utility.yul\":8997:9012   */\n      revert\n        /* \"#utility.yul\":9024:9218   */\n    tag_53:\n        /* \"#utility.yul\":9064:9068   */\n      0x00\n        /* \"#utility.yul\":9084:9104   */\n      tag_246\n        /* \"#utility.yul\":9102:9103   */\n      dup3\n        /* \"#utility.yul\":9084:9104   */\n      tag_112\n      jump\t// in\n    tag_246:\n        /* \"#utility.yul\":9079:9104   */\n      swap2\n      pop\n        /* \"#utility.yul\":9118:9138   */\n      tag_247\n        /* \"#utility.yul\":9136:9137   */\n      dup4\n        /* \"#utility.yul\":9118:9138   */\n      tag_112\n      jump\t// in\n    tag_247:\n        /* \"#utility.yul\":9113:9138   */\n      swap3\n      pop\n        /* \"#utility.yul\":9162:9163   */\n      dup3\n        /* \"#utility.yul\":9159:9160   */\n      dup3\n        /* \"#utility.yul\":9155:9164   */\n      sub\n        /* \"#utility.yul\":9147:9164   */\n      swap1\n      pop\n        /* \"#utility.yul\":9186:9187   */\n      dup2\n        /* \"#utility.yul\":9180:9184   */\n      dup2\n        /* \"#utility.yul\":9177:9188   */\n      gt\n        /* \"#utility.yul\":9174:9211   */\n      iszero\n      tag_248\n      jumpi\n        /* \"#utility.yul\":9191:9209   */\n      tag_249\n      tag_127\n      jump\t// in\n    tag_249:\n        /* \"#utility.yul\":9174:9211   */\n    tag_248:\n        /* \"#utility.yul\":9024:9218   */\n      swap3\n      swap2\n      pop\n      pop\n      jump\t// out\n        /* \"#utility.yul\":9224:9404   */\n    tag_56:\n        /* \"#utility.yul\":9272:9349   */\n      0x4e487b7100000000000000000000000000000000000000000000000000000000\n        /* \"#utility.yul\":9269:9270   */\n      0x00\n        /* \"#utility.yul\":9262:9350   */\n      mstore\n        /* \"#utility.yul\":9369:9373   */\n      0x32\n        /* \"#utility.yul\":9366:9367   */\n      0x04\n        /* \"#utility.yul\":9359:9374   */\n      mstore\n        /* \"#utility.yul\":9393:9397   */\n      0x24\n        /* \"#utility.yul\":9390:9391   */\n      0x00\n        /* \"#utility.yul\":9383:9398   */\n      revert\n        /* \"#utility.yul\":9410:9590   */\n    tag_128:\n        /* \"#utility.yul\":9458:9535   */\n      0x4e487b7100000000000000000000000000000000000000000000000000000000\n        /* \"#utility.yul\":9455:9456   */\n      0x00\n        /* \"#utility.yul\":9448:9536   */\n      mstore\n        /* \"#utility.yul\":9555:9559   */\n      0x22\n        /* \"#utility.yul\":9552:9553   */\n      0x04\n        /* \"#utility.yul\":9545:9560   */\n      mstore\n        /* \"#utility.yul\":9579:9583   */\n      0x24\n        /* \"#utility.yul\":9576:9577   */\n      0x00\n        /* \"#utility.yul\":9569:9584   */\n      revert\n        /* \"#utility.yul\":9596:9916   */\n    tag_67:\n        /* \"#utility.yul\":9640:9646   */\n      0x00\n        /* \"#utility.yul\":9677:9678   */\n      0x02\n        /* \"#utility.yul\":9671:9675   */\n      dup3\n        /* \"#utility.yul\":9667:9679   */\n      div\n        /* \"#utility.yul\":9657:9679   */\n      swap1\n      pop\n        /* \"#utility.yul\":9724:9725   */\n      0x01\n        /* \"#utility.yul\":9718:9722   */\n      dup3\n        /* \"#utility.yul\":9714:9726   */\n      and\n        /* \"#utility.yul\":9745:9763   */\n      dup1\n        /* \"#utility.yul\":9735:9816   */\n      tag_253\n      jumpi\n        /* \"#utility.yul\":9801:9805   */\n      0x7f\n        /* \"#utility.yul\":9793:9799   */\n      dup3\n        /* \"#utility.yul\":9789:9806   */\n      and\n        /* \"#utility.yul\":9779:9806   */\n      swap2\n      pop\n        /* \"#utility.yul\":9735:9816   */\n    tag_253:\n        /* \"#utility.yul\":9863:9865   */\n      0x20\n        /* \"#utility.yul\":9855:9861   */\n      dup3\n        /* \"#utility.yul\":9852:9866   */\n      lt\n        /* \"#utility.yul\":9832:9850   */\n      dup2\n        /* \"#utility.yul\":9829:9867   */\n      sub\n        /* \"#utility.yul\":9826:9910   */\n      tag_254\n      jumpi\n        /* \"#utility.yul\":9882:9900   */\n      tag_255\n      tag_128\n      jump\t// in\n    tag_255:\n        /* \"#utility.yul\":9826:9910   */\n    tag_254:\n        /* \"#utility.yul\":9647:9916   */\n      pop\n        /* \"#utility.yul\":9596:9916   */\n      swap2\n      swap1\n      pop\n      jump\t// out\n        /* \"#utility.yul\":9922:10063   */\n    tag_129:\n        /* \"#utility.yul\":9971:9975   */\n      0x00\n        /* \"#utility.yul\":9994:9997   */\n      dup2\n        /* \"#utility.yul\":9986:9997   */\n      swap1\n      pop\n        /* \"#utility.yul\":10017:10020   */\n      dup2\n        /* \"#utility.yul\":10014:10015   */\n      0x00\n        /* \"#utility.yul\":10007:10021   */\n      mstore\n        /* \"#utility.yul\":10051:10055   */\n      0x20\n        /* \"#utility.yul\":10048:10049   */\n      0x00\n        /* \"#utility.yul\":10038:10056   */\n      keccak256\n        /* \"#utility.yul\":10030:10056   */\n      swap1\n      pop\n        /* \"#utility.yul\":9922:10063   */\n      swap2\n      swap1\n      pop\n      jump\t// out\n        /* \"#utility.yul\":10069:10162   */\n    tag_130:\n        /* \"#utility.yul\":10106:10112   */\n      0x00\n        /* \"#utility.yul\":10153:10155   */\n      0x20\n        /* \"#utility.yul\":10148:10150   */\n      0x1f\n        /* \"#utility.yul\":10141:10146   */\n      dup4\n        /* \"#utility.yul\":10137:10151   */\n      add\n        /* \"#utility.yul\":10133:10156   */\n      div\n        /* \"#utility.yul\":10123:10156   */\n      swap1\n      pop\n        /* \"#utility.yul\":10069:10162   */\n      swap2\n      swap1\n      pop\n      jump\t// out\n        /* \"#utility.yul\":10168:10275   */\n    tag_131:\n        /* \"#utility.yul\":10212:10220   */\n      0x00\n        /* \"#utility.yul\":10262:10267   */\n      dup3\n        /* \"#utility.yul\":10256:10260   */\n      dup3\n        /* \"#utility.yul\":10252:10268   */\n      shl\n        /* \"#utility.yul\":10231:10268   */\n      swap1\n      pop\n        /* \"#utility.yul\":10168:10275   */\n      swap3\n      swap2\n      pop\n      pop\n      jump\t// out\n        /* \"#utility.yul\":10281:10674   */\n    tag_132:\n        /* \"#utility.yul\":10350:10356   */\n      0x00\n        /* \"#utility.yul\":10400:10401   */\n      0x08\n        /* \"#utility.yul\":10388:10398   */\n      dup4\n        /* \"#utility.yul\":10384:10402   */\n      mul\n        /* \"#utility.yul\":10423:10520   */\n      tag_260\n        /* \"#utility.yul\":10453:10519   */\n      0xffffffffffffffffffffffffffffffffffffffffffffffffffffffffffffffff\n        /* \"#utility.yul\":10442:10451   */\n      dup3\n        /* \"#utility.yul\":10423:10520   */\n      tag_131\n      jump\t// in\n    tag_260:\n        /* \"#utility.yul\":10541:10580   */\n      tag_261\n        /* \"#utility.yul\":10571:10579   */\n      dup7\n        /* \"#utility.yul\":10560:10569   */\n      dup4\n        /* \"#utility.yul\":10541:10580   */\n      tag_131\n      jump\t// in\n    tag_261:\n        /* \"#utility.yul\":10529:10580   */\n      swap6\n      pop\n        /* \"#utility.yul\":10613:10617   */\n      dup1\n        /* \"#utility.yul\":10609:10618   */\n      not\n        /* \"#utility.yul\":10602:10607   */\n      dup5\n        /* \"#utility.yul\":10598:10619   */\n      and\n        /* \"#utility.yul\":10589:10619   */\n      swap4\n      pop\n        /* \"#utility.yul\":10662:10666   */\n      dup1\n        /* \"#utility.yul\":10652:10660   */\n      dup7\n        /* \"#utility.yul\":10648:10667   */\n      and\n        /* \"#utility.yul\":10641:10646   */\n      dup5\n        /* \"#utility.yul\":10638:10668   */\n      or\n        /* \"#utility.yul\":10628:10668   */\n      swap3\n      pop\n        /* \"#utility.yul\":10357:10674   */\n      pop\n      pop\n        /* \"#utility.yul\":10281:10674   */\n      swap4\n      swap3\n      pop\n      pop\n      pop\n      jump\t// out\n        /* \"#utility.yul\":10680:10740   */\n    tag_133:\n        /* \"#utility.yul\":10708:10711   */\n      0x00\n        /* \"#utility.yul\":10729:10734   */\n      dup2\n        /* \"#utility.yul\":10722:10734   */\n      swap1\n      pop\n        /* \"#utility.yul\":10680:10740   */\n      swap2\n      swap1\n      pop\n      jump\t// out\n        /* \"#utility.yul\":10746:10888   */\n    tag_134:\n        /* \"#utility.yul\":10796:10805   */\n      0x00\n        /* \"#utility.yul\":10829:10882   */\n      tag_264\n        /* \"#utility.yul\":10847:10881   */\n      tag_265\n        /* \"#utility.yul\":10856:10880   */\n      tag_266\n        /* \"#utility.yul\":10874:10879   */\n      dup5\n        /* \"#utility.yul\":10856:10880   */\n      tag_112\n      jump\t// in\n    tag_266:\n        /* \"#utility.yul\":10847:10881   */\n      tag_133\n      jump\t// in\n    tag_265:\n        /* \"#utility.yul\":10829:10882   */\n      tag_112\n      jump\t// in\n    tag_264:\n        /* \"#utility.yul\":10816:10882   */\n      swap1\n      pop\n        /* \"#utility.yul\":10746:10888   */\n      swap2\n      swap1\n      pop\n      jump\t// out\n        /* \"#utility.yul\":10894:10969   */\n    tag_135:\n        /* \"#utility.yul\":10937:10940   */\n      0x00\n        /* \"#utility.yul\":10958:10963   */\n      dup2\n        /* \"#utility.yul\":10951:10963   */\n      swap1\n      pop\n        /* \"#utility.yul\":10894:10969   */\n      swap2\n      swap1\n      pop\n      jump\t// out\n        /* \"#utility.yul\":10975:11244   */\n    tag_136:\n        /* \"#utility.yul\":11085:11124   */\n      tag_269\n        /* \"#utility.yul\":11116:11123   */\n      dup4\n        /* \"#utility.yul\":11085:11124   */\n      tag_134\n      jump\t// in\n    tag_269:\n        /* \"#utility.yul\":11146:11237   */\n      tag_270\n        /* \"#utility.yul\":11195:11236   */\n      tag_271\n        /* \"#utility.yul\":11219:11235   */\n      dup3\n        /* \"#utility.yul\":11195:11236   */\n      tag_135\n      jump\t// in\n    tag_271:\n        /* \"#utility.yul\":11187:11193   */\n      dup5\n        /* \"#utility.yul\":11180:11184   */\n      dup5\n        /* \"#utility.yul\":11174:11185   */\n      sload\n        /* \"#utility.yul\":11146:11237   */\n      tag_132\n      jump\t// in\n    tag_270:\n        /* \"#utility.yul\":11140:11144   */\n      dup3\n        /* \"#utility.yul\":11133:11238   */\n      sstore\n        /* \"#utility.yul\":11051:11244   */\n      pop\n        /* \"#utility.yul\":10975:11244   */\n      pop\n      pop\n      pop\n      jump\t// out\n        /* \"#utility.yul\":11250:11323   */\n    tag_137:\n        /* \"#utility.yul\":11295:11298   */\n      0x00\n        /* \"#utility.yul\":11250:11323   */\n      swap1\n      jump\t// out\n        /* \"#utility.yul\":11329:11518   */\n    tag_138:\n        /* \"#utility.yul\":11406:11438   */\n      tag_274\n      tag_137\n      jump\t// in\n    tag_274:\n        /* \"#utility.yul\":11447:11512   */\n      tag_275\n        /* \"#utility.yul\":11505:11511   */\n      dup2\n        /* \"#utility.yul\":11497:11503   */\n      dup5\n        /* \"#utility.yul\":11491:11495   */\n      dup5\n        /* \"#utility.yul\":11447:11512   */\n      tag_136\n      jump\t// in\n    tag_275:\n        /* \"#utility.yul\":11382:11518   */\n      pop\n        /* \"#utility.yul\":11329:11518   */\n      pop\n      pop\n      jump\t// out\n        /* \"#utility.yul\":11524:11710   */\n    tag_139:\n        /* \"#utility.yul\":11584:11704   */\n    tag_277:\n        /* \"#utility.yul\":11601:11604   */\n      dup2\n        /* \"#utility.yul\":11594:11599   */\n      dup2\n        /* \"#utility.yul\":11591:11605   */\n      lt\n        /* \"#utility.yul\":11584:11704   */\n      iszero\n      tag_279\n      jumpi\n        /* \"#utility.yul\":11655:11694   */\n      tag_280\n        /* \"#utility.yul\":11692:11693   */\n      0x00\n        /* \"#utility.yul\":11685:11690   */\n      dup3\n        /* \"#utility.yul\":11655:11694   */\n      tag_138\n      jump\t// in\n    tag_280:\n        /* \"#utility.yul\":11628:11629   */\n      0x01\n        /* \"#utility.yul\":11621:11626   */\n      dup2\n        /* \"#utility.yul\":11617:11630   */\n      add\n        /* \"#utility.yul\":11608:11630   */\n      swap1\n      pop\n        /* \"#utility.yul\":11584:11704   */\n      jump(tag_277)\n    tag_279:\n        /* \"#utility.yul\":11524:11710   */\n      pop\n      pop\n      jump\t// out\n        /* \"#utility.yul\":11716:12259   */\n    tag_140:\n        /* \"#utility.yul\":11817:11819   */\n      0x1f\n        /* \"#utility.yul\":11812:11815   */\n      dup3\n        /* \"#utility.yul\":11809:11820   */\n      gt\n        /* \"#utility.yul\":11806:12252   */\n      iszero\n      tag_282\n      jumpi\n        /* \"#utility.yul\":11851:11889   */\n      tag_283\n        /* \"#utility.yul\":11883:11888   */\n      dup2\n        /* \"#utility.yul\":11851:11889   */\n      tag_129\n      jump\t// in\n    tag_283:\n        /* \"#utility.yul\":11935:11964   */\n      tag_284\n        /* \"#utility.yul\":11953:11963   */\n      dup5\n        /* \"#utility.yul\":11935:11964   */\n      tag_130\n      jump\t// in\n    tag_284:\n        /* \"#utility.yul\":11925:11933   */\n      dup2\n        /* \"#utility.yul\":11921:11965   */\n      add\n        /* \"#utility.yul\":12118:12120   */\n      0x20\n        /* \"#utility.yul\":12106:12116   */\n      dup6\n        /* \"#utility.yul\":12103:12121   */\n      lt\n        /* \"#utility.yul\":12100:12149   */\n      iszero\n      tag_285\n      jumpi\n        /* \"#utility.yul\":12139:12147   */\n      dup2\n        /* \"#utility.yul\":12124:12147   */\n      swap1\n      pop\n        /* \"#utility.yul\":12100:12149   */\n    tag_285:\n        /* \"#utility.yul\":12162:12242   */\n      tag_286\n        /* \"#utility.yul\":12218:12240   */\n      tag_287\n        /* \"#utility.yul\":12236:12239   */\n      dup6\n        /* \"#utility.yul\":12218:12240   */\n      tag_130\n      jump\t// in\n    tag_287:\n        /* \"#utility.yul\":12208:12216   */\n      dup4\n        /* \"#utility.yul\":12204:12241   */\n      add\n        /* \"#utility.yul\":12191:12202   */\n      dup3\n        /* \"#utility.yul\":12162:12242   */\n      tag_139\n      jump\t// in\n    tag_286:\n        /* \"#utility.yul\":11821:12252   */\n      pop\n      pop\n        /* \"#utility.yul\":11806:12252   */\n    tag_282:\n        /* \"#utility.yul\":11716:12259   */\n      pop\n      pop\n      pop\n      jump\t// out\n        /* \"#utility.yul\":12265:12382   */\n    tag_141:\n        /* \"#utility.yul\":12319:12327   */\n      0x00\n        /* \"#utility.yul\":12369:12374   */\n      dup3\n        /* \"#utility.yul\":12363:12367   */\n      dup3\n        /* \"#utility.yul\":12359:12375   */\n      shr\n        /* \"#utility.yul\":12338:12375   */\n      swap1\n      pop\n        /* \"#utility.yul\":12265:12382   */\n      swap3\n      swap2\n      pop\n      pop\n      jump\t// out\n        /* \"#utility.yul\":12388:12557   */\n    tag_142:\n        /* \"#utility.yul\":12432:12438   */\n      0x00\n        /* \"#utility.yul\":12465:12516   */\n      tag_290\n        /* \"#utility.yul\":12513:12514   */\n      0x00\n        /* \"#utility.yul\":12509:12515   */\n      not\n        /* \"#utility.yul\":12501:12506   */\n      dup5\n        /* \"#utility.yul\":12498:12499   */\n      0x08\n        /* \"#utility.yul\":12494:12507   */\n      mul\n        /* \"#utility.yul\":12465:12516   */\n      tag_141\n      jump\t// in\n    tag_290:\n        /* \"#utility.yul\":12461:12517   */\n      not\n        /* \"#utility.yul\":12546:12550   */\n      dup1\n        /* \"#utility.yul\":12540:12544   */\n      dup4\n        /* \"#utility.yul\":12536:12551   */\n      and\n        /* \"#utility.yul\":12526:12551   */\n      swap2\n      pop\n        /* \"#utility.yul\":12439:12557   */\n      pop\n        /* \"#utility.yul\":12388:12557   */\n      swap3\n      swap2\n      pop\n      pop\n      jump\t// out\n        /* \"#utility.yul\":12562:12857   */\n    tag_143:\n        /* \"#utility.yul\":12638:12642   */\n      0x00\n        /* \"#utility.yul\":12784:12813   */\n      tag_292\n        /* \"#utility.yul\":12809:12812   */\n      dup4\n        /* \"#utility.yul\":12803:12807   */\n      dup4\n        /* \"#utility.yul\":12784:12813   */\n      tag_142\n      jump\t// in\n    tag_292:\n        /* \"#utility.yul\":12776:12813   */\n      swap2\n      pop\n        /* \"#utility.yul\":12846:12849   */\n      dup3\n        /* \"#utility.yul\":12843:12844   */\n      0x02\n        /* \"#utility.yul\":12839:12850   */\n      mul\n        /* \"#utility.yul\":12833:12837   */\n      dup3\n        /* \"#utility.yul\":12830:12851   */\n      or\n        /* \"#utility.yul\":12822:12851   */\n      swap1\n      pop\n        /* \"#utility.yul\":12562:12857   */\n      swap3\n      swap2\n      pop\n      pop\n      jump\t// out\n        /* \"#utility.yul\":12862:14257   */\n    tag_64:\n        /* \"#utility.yul\":12979:13016   */\n      tag_294\n        /* \"#utility.yul\":13012:13015   */\n      dup3\n        /* \"#utility.yul\":12979:13016   */\n      tag_115\n      jump\t// in\n    tag_294:\n        /* \"#utility.yul\":13081:13099   */\n      0xffffffffffffffff\n        /* \"#utility.yul\":13073:13079   */\n      dup2\n        /* \"#utility.yul\":13070:13100   */\n      gt\n        /* \"#utility.yul\":13067:13123   */\n      iszero\n      tag_295\n      jumpi\n        /* \"#utility.yul\":13103:13121   */\n      tag_296\n      tag_50\n      jump\t// in\n    tag_296:\n        /* \"#utility.yul\":13067:13123   */\n    tag_295:\n        /* \"#utility.yul\":13147:13185   */\n      tag_297\n        /* \"#utility.yul\":13179:13183   */\n      dup3\n        /* \"#utility.yul\":13173:13184   */\n      sload\n        /* \"#utility.yul\":13147:13185   */\n      tag_67\n      jump\t// in\n    tag_297:\n        /* \"#utility.yul\":13232:13299   */\n      tag_298\n        /* \"#utility.yul\":13292:13298   */\n      dup3\n        /* \"#utility.yul\":13284:13290   */\n      dup3\n        /* \"#utility.yul\":13278:13282   */\n      dup6\n        /* \"#utility.yul\":13232:13299   */\n      tag_140\n      jump\t// in\n    tag_298:\n        /* \"#utility.yul\":13326:13327   */\n      0x00\n        /* \"#utility.yul\":13350:13354   */\n      0x20\n        /* \"#utility.yul\":13337:13354   */\n      swap1\n      pop\n        /* \"#utility.yul\":13382:13384   */\n      0x1f\n        /* \"#utility.yul\":13374:13380   */\n      dup4\n        /* \"#utility.yul\":13371:13385   */\n      gt\n        /* \"#utility.yul\":13399:13400   */\n      0x01\n        /* \"#utility.yul\":13394:14012   */\n      dup2\n      eq\n      tag_300\n      jumpi\n        /* \"#utility.yul\":14056:14057   */\n      0x00\n        /* \"#utility.yul\":14073:14079   */\n      dup5\n        /* \"#utility.yul\":14070:14147   */\n      iszero\n      tag_301\n      jumpi\n        /* \"#utility.yul\":14122:14131   */\n      dup3\n        /* \"#utility.yul\":14117:14120   */\n      dup8\n        /* \"#utility.yul\":14113:14132   */\n      add\n        /* \"#utility.yul\":14107:14133   */\n      mload\n        /* \"#utility.yul\":14098:14133   */\n      swap1\n      pop\n        /* \"#utility.yul\":14070:14147   */\n    tag_301:\n        /* \"#utility.yul\":14173:14240   */\n      tag_302\n        /* \"#utility.yul\":14233:14239   */\n      dup6\n        /* \"#utility.yul\":14226:14231   */\n      dup3\n        /* \"#utility.yul\":14173:14240   */\n      tag_143\n      jump\t// in\n    tag_302:\n        /* \"#utility.yul\":14167:14171   */\n      dup7\n        /* \"#utility.yul\":14160:14241   */\n      sstore\n        /* \"#utility.yul\":14029:14251   */\n      pop\n        /* \"#utility.yul\":13364:14251   */\n      jump(tag_299)\n        /* \"#utility.yul\":13394:14012   */\n    tag_300:\n        /* \"#utility.yul\":13446:13450   */\n      0x1f\n        /* \"#utility.yul\":13442:13451   */\n      not\n        /* \"#utility.yul\":13434:13440   */\n      dup5\n        /* \"#utility.yul\":13430:13452   */\n      and\n        /* \"#utility.yul\":13480:13517   */\n      tag_303\n        /* \"#utility.yul\":13512:13516   */\n      dup7\n        /* \"#utility.yul\":13480:13517   */\n      tag_129\n      jump\t// in\n    tag_303:\n        /* \"#utility.yul\":13539:13540   */\n      0x00\n        /* \"#utility.yul\":13553:13761   */\n    tag_304:\n        /* \"#utility.yul\":13567:13574   */\n      dup3\n        /* \"#utility.yul\":13564:13565   */\n      dup2\n        /* \"#utility.yul\":13561:13575   */\n      lt\n        /* \"#utility.yul\":13553:13761   */\n      iszero\n      tag_306\n      jumpi\n        /* \"#utility.yul\":13646:13655   */\n      dup5\n        /* \"#utility.yul\":13641:13644   */\n      dup10\n        /* \"#utility.yul\":13637:13656   */\n      add\n        /* \"#utility.yul\":13631:13657   */\n      mload\n        /* \"#utility.yul\":13623:13629   */\n      dup3\n        /* \"#utility.yul\":13616:13658   */\n      sstore\n        /* \"#utility.yul\":13697:13698   */\n      0x01\n        /* \"#utility.yul\":13689:13695   */\n      dup3\n        /* \"#utility.yul\":13685:13699   */\n      add\n        /* \"#utility.yul\":13675:13699   */\n      swap2\n      pop\n        /* \"#utility.yul\":13744:13746   */\n      0x20\n        /* \"#utility.yul\":13733:13742   */\n      dup6\n        /* \"#utility.yul\":13729:13747   */\n      add\n        /* \"#utility.yul\":13716:13747   */\n      swap5\n      pop\n        /* \"#utility.yul\":13590:13594   */\n      0x20\n        /* \"#utility.yul\":13587:13588   */\n      dup2\n        /* \"#utility.yul\":13583:13595   */\n      add\n        /* \"#utility.yul\":13578:13595   */\n      swap1\n      pop\n        /* \"#utility.yul\":13553:13761   */\n      jump(tag_304)\n    tag_306:\n        /* \"#utility.yul\":13789:13795   */\n      dup7\n        /* \"#utility.yul\":13780:13787   */\n      dup4\n        /* \"#utility.yul\":13777:13796   */\n      lt\n        /* \"#utility.yul\":13774:13953   */\n      iszero\n      tag_307\n      jumpi\n        /* \"#utility.yul\":13847:13856   */\n      dup5\n        /* \"#utility.yul\":13842:13845   */\n      dup10\n        /* \"#utility.yul\":13838:13857   */\n      add\n        /* \"#utility.yul\":13832:13858   */\n      mload\n        /* \"#utility.yul\":13890:13938   */\n      tag_308\n        /* \"#utility.yul\":13932:13936   */\n      0x1f\n        /* \"#utility.yul\":13924:13930   */\n      dup10\n        /* \"#utility.yul\":13920:13937   */\n      and\n        /* \"#utility.yul\":13909:13918   */\n      dup3\n        /* \"#utility.yul\":13890:13938   */\n      tag_142\n      jump\t// in\n    tag_308:\n        /* \"#utility.yul\":13882:13888   */\n      dup4\n        /* \"#utility.yul\":13875:13939   */\n      sstore\n        /* \"#utility.yul\":13797:13953   */\n      pop\n        /* \"#utility.yul\":13774:13953   */\n    tag_307:\n        /* \"#utility.yul\":13999:14000   */\n      0x01\n        /* \"#utility.yul\":13995:13996   */\n      0x02\n        /* \"#utility.yul\":13987:13993   */\n      dup9\n        /* \"#utility.yul\":13983:13997   */\n      mul\n        /* \"#utility.yul\":13979:14001   */\n      add\n        /* \"#utility.yul\":13973:13977   */\n      dup9\n        /* \"#utility.yul\":13966:14002   */\n      sstore\n        /* \"#utility.yul\":13401:14012   */\n      pop\n      pop\n      pop\n        /* \"#utility.yul\":13364:14251   */\n    tag_299:\n      pop\n        /* \"#utility.yul\":12954:14257   */\n      pop\n      pop\n      pop\n        /* \"#utility.yul\":12862:14257   */\n      pop\n      pop\n      jump\t// out\n\n    auxdata: 0xa26469706673582212202204f058564311c6615a58fa799496d9e5c12a504d16d6f442c0aa9affbaf87564736f6c63430008120033\n}\n",
				"bytecode": {
					"linkReferences": {},
					"object": "608060405234801561001057600080fd5b50610e60806100206000396000f3fe608060405234801561001057600080fd5b50600436106100885760003560e01c80639249f58f1161005b5780639249f58f14610127578063bbd52d9114610157578063c0e4170414610187578063d2599825146101a757610088565b806301fd9fce1461008d5780634a76dd3a146100bd5780637fcaf666146100ed57806389ea642f14610109575b600080fd5b6100a760048036038101906100a29190610786565b6101c5565b6040516100b49190610861565b60405180910390f35b6100d760048036038101906100d29190610883565b610290565b6040516100e49190610907565b60405180910390f35b61010760048036038101906101029190610883565b6102be565b005b6101116102d1565b60405161011e9190610861565b60405180910390f35b610141600480360381019061013c91906109c3565b610363565b60405161014e9190610861565b60405180910390f35b610171600480360381019061016c9190610883565b61036d565b60405161017e9190610861565b60405180910390f35b61018f61042c565b60405161019e93929190610a0c565b60405180910390f35b6101af610564565b6040516101bc9190610a98565b60405180910390f35b60606000600167ffffffffffffffff8111156101e4576101e3610625565b5b6040519080825280601f01601f1916602001820160405280156102165781602001600182028036833780820191505090505b509050836001846102279190610ae9565b8151811061023857610237610b1d565b5b602001015160f81c60f81b8160008151811061025757610256610b1d565b5b60200101907effffffffffffffffffffffffffffffffffffffffffffffffffffffffffffff1916908160001a9053508091505092915050565b60006060829050806000815181106102ab576102aa610b1d565b5b602001015160f81c60f81b915050919050565b80600090816102cd9190610d58565b5050565b6060600080546102e090610b7b565b80601f016020809104026020016040519081016040528092919081815260200182805461030c90610b7b565b80156103595780601f1061032e57610100808354040283529160200191610359565b820191906000526020600020905b81548152906001019060200180831161033c57829003601f168201915b5050505050905090565b6060819050919050565b60606000600167ffffffffffffffff81111561038c5761038b610625565b5b6040519080825280601f01601f1916602001820160405280156103be5781602001600182028036833780820191505090505b509050826000815181106103d5576103d4610b1d565b5b602001015160f81c60f81b816000815181106103f4576103f3610b1d565b5b60200101907effffffffffffffffffffffffffffffffffffffffffffffffffffffffffffff1916908160001a90535080915050919050565b6000806000806000815461043f90610b7b565b811061044e5761044d610b1d565b5b81546001161561046d5790600052602060002090602091828204019190065b9054901a7f0100000000000000000000000000000000000000000000000000000000000000026000600181546104a290610b7b565b81106104b1576104b0610b1d565b5b8154600116156104d05790600052602060002090602091828204019190065b9054901a7f01000000000000000000000000000000000000000000000000000000000000000260006002815461050590610b7b565b811061051457610513610b1d565b5b8154600116156105335790600052602060002090602091828204019190065b9054901a7f010000000000000000000000000000000000000000000000000000000000000002925092509250909192565b60606000805461057390610b7b565b80601f016020809104026020016040519081016040528092919081815260200182805461059f90610b7b565b80156105ec5780601f106105c1576101008083540402835291602001916105ec565b820191906000526020600020905b8154815290600101906020018083116105cf57829003601f168201915b5050505050905090565b6000604051905090565b600080fd5b600080fd5b600080fd5b600080fd5b6000601f19601f8301169050919050565b7f4e487b7100000000000000000000000000000000000000000000000000000000600052604160045260246000fd5b61065d82610614565b810181811067ffffffffffffffff8211171561067c5761067b610625565b5b80604052505050565b600061068f6105f6565b905061069b8282610654565b919050565b600067ffffffffffffffff8211156106bb576106ba610625565b5b6106c482610614565b9050602081019050919050565b82818337600083830152505050565b60006106f36106ee846106a0565b610685565b90508281526020810184848401111561070f5761070e61060f565b5b61071a8482856106d1565b509392505050565b600082601f8301126107375761073661060a565b5b81356107478482602086016106e0565b91505092915050565b6000819050919050565b61076381610750565b811461076e57600080fd5b50565b6000813590506107808161075a565b92915050565b6000806040838503121561079d5761079c610600565b5b600083013567ffffffffffffffff8111156107bb576107ba610605565b5b6107c785828601610722565b92505060206107d885828601610771565b9150509250929050565b600081519050919050565b600082825260208201905092915050565b60005b8381101561081c578082015181840152602081019050610801565b60008484015250505050565b6000610833826107e2565b61083d81856107ed565b935061084d8185602086016107fe565b61085681610614565b840191505092915050565b6000602082019050818103600083015261087b8184610828565b905092915050565b60006020828403121561089957610898610600565b5b600082013567ffffffffffffffff8111156108b7576108b6610605565b5b6108c384828501610722565b91505092915050565b60007fff0000000000000000000000000000000000000000000000000000000000000082169050919050565b610901816108cc565b82525050565b600060208201905061091c60008301846108f8565b92915050565b600067ffffffffffffffff82111561093d5761093c610625565b5b61094682610614565b9050602081019050919050565b600061096661096184610922565b610685565b9050828152602081018484840111156109825761098161060f565b5b61098d8482856106d1565b509392505050565b600082601f8301126109aa576109a961060a565b5b81356109ba848260208601610953565b91505092915050565b6000602082840312156109d9576109d8610600565b5b600082013567ffffffffffffffff8111156109f7576109f6610605565b5b610a0384828501610995565b91505092915050565b6000606082019050610a2160008301866108f8565b610a2e60208301856108f8565b610a3b60408301846108f8565b949350505050565b600081519050919050565b600082825260208201905092915050565b6000610a6a82610a43565b610a748185610a4e565b9350610a848185602086016107fe565b610a8d81610614565b840191505092915050565b60006020820190508181036000830152610ab28184610a5f565b905092915050565b7f4e487b7100000000000000000000000000000000000000000000000000000000600052601160045260246000fd5b6000610af482610750565b9150610aff83610750565b9250828203905081811115610b1757610b16610aba565b5b92915050565b7f4e487b7100000000000000000000000000000000000000000000000000000000600052603260045260246000fd5b7f4e487b7100000000000000000000000000000000000000000000000000000000600052602260045260246000fd5b60006002820490506001821680610b9357607f821691505b602082108103610ba657610ba5610b4c565b5b50919050565b60008190508160005260206000209050919050565b60006020601f8301049050919050565b600082821b905092915050565b600060088302610c0e7fffffffffffffffffffffffffffffffffffffffffffffffffffffffffffffffff82610bd1565b610c188683610bd1565b95508019841693508086168417925050509392505050565b6000819050919050565b6000610c55610c50610c4b84610750565b610c30565b610750565b9050919050565b6000819050919050565b610c6f83610c3a565b610c83610c7b82610c5c565b848454610bde565b825550505050565b600090565b610c98610c8b565b610ca3818484610c66565b505050565b5b81811015610cc757610cbc600082610c90565b600181019050610ca9565b5050565b601f821115610d0c57610cdd81610bac565b610ce684610bc1565b81016020851015610cf5578190505b610d09610d0185610bc1565b830182610ca8565b50505b505050565b600082821c905092915050565b6000610d2f60001984600802610d11565b1980831691505092915050565b6000610d488383610d1e565b9150826002028217905092915050565b610d61826107e2565b67ffffffffffffffff811115610d7a57610d79610625565b5b610d848254610b7b565b610d8f828285610ccb565b600060209050601f831160018114610dc25760008415610db0578287015190505b610dba8582610d3c565b865550610e22565b601f198416610dd086610bac565b60005b82811015610df857848901518255600182019150602085019450602081019050610dd3565b86831015610e155784890151610e11601f891682610d1e565b8355505b6001600288020188555050505b50505050505056fea26469706673582212202204f058564311c6615a58fa799496d9e5c12a504d16d6f442c0aa9affbaf87564736f6c63430008120033",
					"opcodes": "PUSH1 0x80 PUSH1 0x40 MSTORE CALLVALUE DUP1 ISZERO PUSH2 0x10 JUMPI PUSH1 0x0 DUP1 REVERT JUMPDEST POP PUSH2 0xE60 DUP1 PUSH2 0x20 PUSH1 0x0 CODECOPY PUSH1 0x0 RETURN INVALID PUSH1 0x80 PUSH1 0x40 MSTORE CALLVALUE DUP1 ISZERO PUSH2 0x10 JUMPI PUSH1 0x0 DUP1 REVERT JUMPDEST POP PUSH1 0x4 CALLDATASIZE LT PUSH2 0x88 JUMPI PUSH1 0x0 CALLDATALOAD PUSH1 0xE0 SHR DUP1 PUSH4 0x9249F58F GT PUSH2 0x5B JUMPI DUP1 PUSH4 0x9249F58F EQ PUSH2 0x127 JUMPI DUP1 PUSH4 0xBBD52D91 EQ PUSH2 0x157 JUMPI DUP1 PUSH4 0xC0E41704 EQ PUSH2 0x187 JUMPI DUP1 PUSH4 0xD2599825 EQ PUSH2 0x1A7 JUMPI PUSH2 0x88 JUMP JUMPDEST DUP1 PUSH4 0x1FD9FCE EQ PUSH2 0x8D JUMPI DUP1 PUSH4 0x4A76DD3A EQ PUSH2 0xBD JUMPI DUP1 PUSH4 0x7FCAF666 EQ PUSH2 0xED JUMPI DUP1 PUSH4 0x89EA642F EQ PUSH2 0x109 JUMPI JUMPDEST PUSH1 0x0 DUP1 REVERT JUMPDEST PUSH2 0xA7 PUSH1 0x4 DUP1 CALLDATASIZE SUB DUP2 ADD SWAP1 PUSH2 0xA2 SWAP2 SWAP1 PUSH2 0x786 JUMP JUMPDEST PUSH2 0x1C5 JUMP JUMPDEST PUSH1 0x40 MLOAD PUSH2 0xB4 SWAP2 SWAP1 PUSH2 0x861 JUMP JUMPDEST PUSH1 0x40 MLOAD DUP1 SWAP2 SUB SWAP1 RETURN JUMPDEST PUSH2 0xD7 PUSH1 0x4 DUP1 CALLDATASIZE SUB DUP2 ADD SWAP1 PUSH2 0xD2 SWAP2 SWAP1 PUSH2 0x883 JUMP JUMPDEST PUSH2 0x290 JUMP JUMPDEST PUSH1 0x40 MLOAD PUSH2 0xE4 SWAP2 SWAP1 PUSH2 0x907 JUMP JUMPDEST PUSH1 0x40 MLOAD DUP1 SWAP2 SUB SWAP1 RETURN JUMPDEST PUSH2 0x107 PUSH1 0x4 DUP1 CALLDATASIZE SUB DUP2 ADD SWAP1 PUSH2 0x102 SWAP2 SWAP1 PUSH2 0x883 JUMP JUMPDEST PUSH2 0x2BE JUMP JUMPDEST STOP JUMPDEST PUSH2 0x111 PUSH2 0x2D1 JUMP JUMPDEST PUSH1 0x40 MLOAD PUSH2 0x11E SWAP2 SWAP1 PUSH2 0x861 JUMP JUMPDEST PUSH1 0x40 MLOAD DUP1 SWAP2 SUB SWAP1 RETURN JUMPDEST PUSH2 0x141 PUSH1 0x4 DUP1 CALLDATASIZE SUB DUP2 ADD SWAP1 PUSH2 0x13C SWAP2 SWAP1 PUSH2 0x9C3 JUMP JUMPDEST PUSH2 0x363 JUMP JUMPDEST PUSH1 0x40 MLOAD PUSH2 0x14E SWAP2 SWAP1 PUSH2 0x861 JUMP JUMPDEST PUSH1 0x40 MLOAD DUP1 SWAP2 SUB SWAP1 RETURN JUMPDEST PUSH2 0x171 PUSH1 0x4 DUP1 CALLDATASIZE SUB DUP2 ADD SWAP1 PUSH2 0x16C SWAP2 SWAP1 PUSH2 0x883 JUMP JUMPDEST PUSH2 0x36D JUMP JUMPDEST PUSH1 0x40 MLOAD PUSH2 0x17E SWAP2 SWAP1 PUSH2 0x861 JUMP JUMPDEST PUSH1 0x40 MLOAD DUP1 SWAP2 SUB SWAP1 RETURN JUMPDEST PUSH2 0x18F PUSH2 0x42C JUMP JUMPDEST PUSH1 0x40 MLOAD PUSH2 0x19E SWAP4 SWAP3 SWAP2 SWAP1 PUSH2 0xA0C JUMP JUMPDEST PUSH1 0x40 MLOAD DUP1 SWAP2 SUB SWAP1 RETURN JUMPDEST PUSH2 0x1AF PUSH2 0x564 JUMP JUMPDEST PUSH1 0x40 MLOAD PUSH2 0x1BC SWAP2 SWAP1 PUSH2 0xA98 JUMP JUMPDEST PUSH1 0x40 MLOAD DUP1 SWAP2 SUB SWAP1 RETURN JUMPDEST PUSH1 0x60 PUSH1 0x0 PUSH1 0x1 PUSH8 0xFFFFFFFFFFFFFFFF DUP2 GT ISZERO PUSH2 0x1E4 JUMPI PUSH2 0x1E3 PUSH2 0x625 JUMP JUMPDEST JUMPDEST PUSH1 0x40 MLOAD SWAP1 DUP1 DUP3 MSTORE DUP1 PUSH1 0x1F ADD PUSH1 0x1F NOT AND PUSH1 0x20 ADD DUP3 ADD PUSH1 0x40 MSTORE DUP1 ISZERO PUSH2 0x216 JUMPI DUP2 PUSH1 0x20 ADD PUSH1 0x1 DUP3 MUL DUP1 CALLDATASIZE DUP4 CALLDATACOPY DUP1 DUP3 ADD SWAP2 POP POP SWAP1 POP JUMPDEST POP SWAP1 POP DUP4 PUSH1 0x1 DUP5 PUSH2 0x227 SWAP2 SWAP1 PUSH2 0xAE9 JUMP JUMPDEST DUP2 MLOAD DUP2 LT PUSH2 0x238 JUMPI PUSH2 0x237 PUSH2 0xB1D JUMP JUMPDEST JUMPDEST PUSH1 0x20 ADD ADD MLOAD PUSH1 0xF8 SHR PUSH1 0xF8 SHL DUP2 PUSH1 0x0 DUP2 MLOAD DUP2 LT PUSH2 0x257 JUMPI PUSH2 0x256 PUSH2 0xB1D JUMP JUMPDEST JUMPDEST PUSH1 0x20 ADD ADD SWAP1 PUSH31 0xFFFFFFFFFFFFFFFFFFFFFFFFFFFFFFFFFFFFFFFFFFFFFFFFFFFFFFFFFFFFFF NOT AND SWAP1 DUP2 PUSH1 0x0 BYTE SWAP1 MSTORE8 POP DUP1 SWAP2 POP POP SWAP3 SWAP2 POP POP JUMP JUMPDEST PUSH1 0x0 PUSH1 0x60 DUP3 SWAP1 POP DUP1 PUSH1 0x0 DUP2 MLOAD DUP2 LT PUSH2 0x2AB JUMPI PUSH2 0x2AA PUSH2 0xB1D JUMP JUMPDEST JUMPDEST PUSH1 0x20 ADD ADD MLOAD PUSH1 0xF8 SHR PUSH1 0xF8 SHL SWAP2 POP POP SWAP2 SWAP1 POP JUMP JUMPDEST DUP1 PUSH1 0x0 SWAP1 DUP2 PUSH2 0x2CD SWAP2 SWAP1 PUSH2 0xD58 JUMP JUMPDEST POP POP JUMP JUMPDEST PUSH1 0x60 PUSH1 0x0 DUP1 SLOAD PUSH2 0x2E0 SWAP1 PUSH2 0xB7B JUMP JUMPDEST DUP1 PUSH1 0x1F ADD PUSH1 0x20 DUP1 SWAP2 DIV MUL PUSH1 0x20 ADD PUSH1 0x40 MLOAD SWAP1 DUP2 ADD PUSH1 0x40 MSTORE DUP1 SWAP3 SWAP2 SWAP1 DUP2 DUP2 MSTORE PUSH1 0x20 ADD DUP3 DUP1 SLOAD PUSH2 0x30C SWAP1 PUSH2 0xB7B JUMP JUMPDEST DUP1 ISZERO PUSH2 0x359 JUMPI DUP1 PUSH1 0x1F LT PUSH2 0x32E JUMPI PUSH2 0x100 DUP1 DUP4 SLOAD DIV MUL DUP4 MSTORE SWAP2 PUSH1 0x20 ADD SWAP2 PUSH2 0x359 JUMP JUMPDEST DUP3 ADD SWAP2 SWAP1 PUSH1 0x0 MSTORE PUSH1 0x20 PUSH1 0x0 KECCAK256 SWAP1 JUMPDEST DUP2 SLOAD DUP2 MSTORE SWAP1 PUSH1 0x1 ADD SWAP1 PUSH1 0x20 ADD DUP1 DUP4 GT PUSH2 0x33C JUMPI DUP3 SWAP1 SUB PUSH1 0x1F AND DUP3 ADD SWAP2 JUMPDEST POP POP POP POP POP SWAP1 POP SWAP1 JUMP JUMPDEST PUSH1 0x60 DUP2 SWAP1 POP SWAP2 SWAP1 POP JUMP JUMPDEST PUSH1 0x60 PUSH1 0x0 PUSH1 0x1 PUSH8 0xFFFFFFFFFFFFFFFF DUP2 GT ISZERO PUSH2 0x38C JUMPI PUSH2 0x38B PUSH2 0x625 JUMP JUMPDEST JUMPDEST PUSH1 0x40 MLOAD SWAP1 DUP1 DUP3 MSTORE DUP1 PUSH1 0x1F ADD PUSH1 0x1F NOT AND PUSH1 0x20 ADD DUP3 ADD PUSH1 0x40 MSTORE DUP1 ISZERO PUSH2 0x3BE JUMPI DUP2 PUSH1 0x20 ADD PUSH1 0x1 DUP3 MUL DUP1 CALLDATASIZE DUP4 CALLDATACOPY DUP1 DUP3 ADD SWAP2 POP POP SWAP1 POP JUMPDEST POP SWAP1 POP DUP3 PUSH1 0x0 DUP2 MLOAD DUP2 LT PUSH2 0x3D5 JUMPI PUSH2 0x3D4 PUSH2 0xB1D JUMP JUMPDEST JUMPDEST PUSH1 0x20 ADD ADD MLOAD PUSH1 0xF8 SHR PUSH1 0xF8 SHL DUP2 PUSH1 0x0 DUP2 MLOAD DUP2 LT PUSH2 0x3F4 JUMPI PUSH2 0x3F3 PUSH2 0xB1D JUMP JUMPDEST JUMPDEST PUSH1 0x20 ADD ADD SWAP1 PUSH31 0xFFFFFFFFFFFFFFFFFFFFFFFFFFFFFFFFFFFFFFFFFFFFFFFFFFFFFFFFFFFFFF NOT AND SWAP1 DUP2 PUSH1 0x0 BYTE SWAP1 MSTORE8 POP DUP1 SWAP2 POP POP SWAP2 SWAP1 POP JUMP JUMPDEST PUSH1 0x0 DUP1 PUSH1 0x0 DUP1 PUSH1 0x0 DUP2 SLOAD PUSH2 0x43F SWAP1 PUSH2 0xB7B JUMP JUMPDEST DUP2 LT PUSH2 0x44E JUMPI PUSH2 0x44D PUSH2 0xB1D JUMP JUMPDEST JUMPDEST DUP2 SLOAD PUSH1 0x1 AND ISZERO PUSH2 0x46D JUMPI SWAP1 PUSH1 0x0 MSTORE PUSH1 0x20 PUSH1 0x0 KECCAK256 SWAP1 PUSH1 0x20 SWAP2 DUP3 DUP3 DIV ADD SWAP2 SWAP1 MOD JUMPDEST SWAP1 SLOAD SWAP1 BYTE PUSH32 0x100000000000000000000000000000000000000000000000000000000000000 MUL PUSH1 0x0 PUSH1 0x1 DUP2 SLOAD PUSH2 0x4A2 SWAP1 PUSH2 0xB7B JUMP JUMPDEST DUP2 LT PUSH2 0x4B1 JUMPI PUSH2 0x4B0 PUSH2 0xB1D JUMP JUMPDEST JUMPDEST DUP2 SLOAD PUSH1 0x1 AND ISZERO PUSH2 0x4D0 JUMPI SWAP1 PUSH1 0x0 MSTORE PUSH1 0x20 PUSH1 0x0 KECCAK256 SWAP1 PUSH1 0x20 SWAP2 DUP3 DUP3 DIV ADD SWAP2 SWAP1 MOD JUMPDEST SWAP1 SLOAD SWAP1 BYTE PUSH32 0x100000000000000000000000000000000000000000000000000000000000000 MUL PUSH1 0x0 PUSH1 0x2 DUP2 SLOAD PUSH2 0x505 SWAP1 PUSH2 0xB7B JUMP JUMPDEST DUP2 LT PUSH2 0x514 JUMPI PUSH2 0x513 PUSH2 0xB1D JUMP JUMPDEST JUMPDEST DUP2 SLOAD PUSH1 0x1 AND ISZERO PUSH2 0x533 JUMPI SWAP1 PUSH1 0x0 MSTORE PUSH1 0x20 PUSH1 0x0 KECCAK256 SWAP1 PUSH1 0x20 SWAP2 DUP3 DUP3 DIV ADD SWAP2 SWAP1 MOD JUMPDEST SWAP1 SLOAD SWAP1 BYTE PUSH32 0x100000000000000000000000000000000000000000000000000000000000000 MUL SWAP3 POP SWAP3 POP SWAP3 POP SWAP1 SWAP2 SWAP3 JUMP JUMPDEST PUSH1 0x60 PUSH1 0x0 DUP1 SLOAD PUSH2 0x573 SWAP1 PUSH2 0xB7B JUMP JUMPDEST DUP1 PUSH1 0x1F ADD PUSH1 0x20 DUP1 SWAP2 DIV MUL PUSH1 0x20 ADD PUSH1 0x40 MLOAD SWAP1 DUP2 ADD PUSH1 0x40 MSTORE DUP1 SWAP3 SWAP2 SWAP1 DUP2 DUP2 MSTORE PUSH1 0x20 ADD DUP3 DUP1 SLOAD PUSH2 0x59F SWAP1 PUSH2 0xB7B JUMP JUMPDEST DUP1 ISZERO PUSH2 0x5EC JUMPI DUP1 PUSH1 0x1F LT PUSH2 0x5C1 JUMPI PUSH2 0x100 DUP1 DUP4 SLOAD DIV MUL DUP4 MSTORE SWAP2 PUSH1 0x20 ADD SWAP2 PUSH2 0x5EC JUMP JUMPDEST DUP3 ADD SWAP2 SWAP1 PUSH1 0x0 MSTORE PUSH1 0x20 PUSH1 0x0 KECCAK256 SWAP1 JUMPDEST DUP2 SLOAD DUP2 MSTORE SWAP1 PUSH1 0x1 ADD SWAP1 PUSH1 0x20 ADD DUP1 DUP4 GT PUSH2 0x5CF JUMPI DUP3 SWAP1 SUB PUSH1 0x1F AND DUP3 ADD SWAP2 JUMPDEST POP POP POP POP POP SWAP1 POP SWAP1 JUMP JUMPDEST PUSH1 0x0 PUSH1 0x40 MLOAD SWAP1 POP SWAP1 JUMP JUMPDEST PUSH1 0x0 DUP1 REVERT JUMPDEST PUSH1 0x0 DUP1 REVERT JUMPDEST PUSH1 0x0 DUP1 REVERT JUMPDEST PUSH1 0x0 DUP1 REVERT JUMPDEST PUSH1 0x0 PUSH1 0x1F NOT PUSH1 0x1F DUP4 ADD AND SWAP1 POP SWAP2 SWAP1 POP JUMP JUMPDEST PUSH32 0x4E487B7100000000000000000000000000000000000000000000000000000000 PUSH1 0x0 MSTORE PUSH1 0x41 PUSH1 0x4 MSTORE PUSH1 0x24 PUSH1 0x0 REVERT JUMPDEST PUSH2 0x65D DUP3 PUSH2 0x614 JUMP JUMPDEST DUP2 ADD DUP2 DUP2 LT PUSH8 0xFFFFFFFFFFFFFFFF DUP3 GT OR ISZERO PUSH2 0x67C JUMPI PUSH2 0x67B PUSH2 0x625 JUMP JUMPDEST JUMPDEST DUP1 PUSH1 0x40 MSTORE POP POP POP JUMP JUMPDEST PUSH1 0x0 PUSH2 0x68F PUSH2 0x5F6 JUMP JUMPDEST SWAP1 POP PUSH2 0x69B DUP3 DUP3 PUSH2 0x654 JUMP JUMPDEST SWAP2 SWAP1 POP JUMP JUMPDEST PUSH1 0x0 PUSH8 0xFFFFFFFFFFFFFFFF DUP3 GT ISZERO PUSH2 0x6BB JUMPI PUSH2 0x6BA PUSH2 0x625 JUMP JUMPDEST JUMPDEST PUSH2 0x6C4 DUP3 PUSH2 0x614 JUMP JUMPDEST SWAP1 POP PUSH1 0x20 DUP2 ADD SWAP1 POP SWAP2 SWAP1 POP JUMP JUMPDEST DUP3 DUP2 DUP4 CALLDATACOPY PUSH1 0x0 DUP4 DUP4 ADD MSTORE POP POP POP JUMP JUMPDEST PUSH1 0x0 PUSH2 0x6F3 PUSH2 0x6EE DUP5 PUSH2 0x6A0 JUMP JUMPDEST PUSH2 0x685 JUMP JUMPDEST SWAP1 POP DUP3 DUP2 MSTORE PUSH1 0x20 DUP2 ADD DUP5 DUP5 DUP5 ADD GT ISZERO PUSH2 0x70F JUMPI PUSH2 0x70E PUSH2 0x60F JUMP JUMPDEST JUMPDEST PUSH2 0x71A DUP5 DUP3 DUP6 PUSH2 0x6D1 JUMP JUMPDEST POP SWAP4 SWAP3 POP POP POP JUMP JUMPDEST PUSH1 0x0 DUP3 PUSH1 0x1F DUP4 ADD SLT PUSH2 0x737 JUMPI PUSH2 0x736 PUSH2 0x60A JUMP JUMPDEST JUMPDEST DUP2 CALLDATALOAD PUSH2 0x747 DUP5 DUP3 PUSH1 0x20 DUP7 ADD PUSH2 0x6E0 JUMP JUMPDEST SWAP2 POP POP SWAP3 SWAP2 POP POP JUMP JUMPDEST PUSH1 0x0 DUP2 SWAP1 POP SWAP2 SWAP1 POP JUMP JUMPDEST PUSH2 0x763 DUP2 PUSH2 0x750 JUMP JUMPDEST DUP2 EQ PUSH2 0x76E JUMPI PUSH1 0x0 DUP1 REVERT JUMPDEST POP JUMP JUMPDEST PUSH1 0x0 DUP2 CALLDATALOAD SWAP1 POP PUSH2 0x780 DUP2 PUSH2 0x75A JUMP JUMPDEST SWAP3 SWAP2 POP POP JUMP JUMPDEST PUSH1 0x0 DUP1 PUSH1 0x40 DUP4 DUP6 SUB SLT ISZERO PUSH2 0x79D JUMPI PUSH2 0x79C PUSH2 0x600 JUMP JUMPDEST JUMPDEST PUSH1 0x0 DUP4 ADD CALLDATALOAD PUSH8 0xFFFFFFFFFFFFFFFF DUP2 GT ISZERO PUSH2 0x7BB JUMPI PUSH2 0x7BA PUSH2 0x605 JUMP JUMPDEST JUMPDEST PUSH2 0x7C7 DUP6 DUP3 DUP7 ADD PUSH2 0x722 JUMP JUMPDEST SWAP3 POP POP PUSH1 0x20 PUSH2 0x7D8 DUP6 DUP3 DUP7 ADD PUSH2 0x771 JUMP JUMPDEST SWAP2 POP POP SWAP3 POP SWAP3 SWAP1 POP JUMP JUMPDEST PUSH1 0x0 DUP2 MLOAD SWAP1 POP SWAP2 SWAP1 POP JUMP JUMPDEST PUSH1 0x0 DUP3 DUP3 MSTORE PUSH1 0x20 DUP3 ADD SWAP1 POP SWAP3 SWAP2 POP POP JUMP JUMPDEST PUSH1 0x0 JUMPDEST DUP4 DUP2 LT ISZERO PUSH2 0x81C JUMPI DUP1 DUP3 ADD MLOAD DUP2 DUP5 ADD MSTORE PUSH1 0x20 DUP2 ADD SWAP1 POP PUSH2 0x801 JUMP JUMPDEST PUSH1 0x0 DUP5 DUP5 ADD MSTORE POP POP POP POP JUMP JUMPDEST PUSH1 0x0 PUSH2 0x833 DUP3 PUSH2 0x7E2 JUMP JUMPDEST PUSH2 0x83D DUP2 DUP6 PUSH2 0x7ED JUMP JUMPDEST SWAP4 POP PUSH2 0x84D DUP2 DUP6 PUSH1 0x20 DUP7 ADD PUSH2 0x7FE JUMP JUMPDEST PUSH2 0x856 DUP2 PUSH2 0x614 JUMP JUMPDEST DUP5 ADD SWAP2 POP POP SWAP3 SWAP2 POP POP JUMP JUMPDEST PUSH1 0x0 PUSH1 0x20 DUP3 ADD SWAP1 POP DUP2 DUP2 SUB PUSH1 0x0 DUP4 ADD MSTORE PUSH2 0x87B DUP2 DUP5 PUSH2 0x828 JUMP JUMPDEST SWAP1 POP SWAP3 SWAP2 POP POP JUMP JUMPDEST PUSH1 0x0 PUSH1 0x20 DUP3 DUP5 SUB SLT ISZERO PUSH2 0x899 JUMPI PUSH2 0x898 PUSH2 0x600 JUMP JUMPDEST JUMPDEST PUSH1 0x0 DUP3 ADD CALLDATALOAD PUSH8 0xFFFFFFFFFFFFFFFF DUP2 GT ISZERO PUSH2 0x8B7 JUMPI PUSH2 0x8B6 PUSH2 0x605 JUMP JUMPDEST JUMPDEST PUSH2 0x8C3 DUP5 DUP3 DUP6 ADD PUSH2 0x722 JUMP JUMPDEST SWAP2 POP POP SWAP3 SWAP2 POP POP JUMP JUMPDEST PUSH1 0x0 PUSH32 0xFF00000000000000000000000000000000000000000000000000000000000000 DUP3 AND SWAP1 POP SWAP2 SWAP1 POP JUMP JUMPDEST PUSH2 0x901 DUP2 PUSH2 0x8CC JUMP JUMPDEST DUP3 MSTORE POP POP JUMP JUMPDEST PUSH1 0x0 PUSH1 0x20 DUP3 ADD SWAP1 POP PUSH2 0x91C PUSH1 0x0 DUP4 ADD DUP5 PUSH2 0x8F8 JUMP JUMPDEST SWAP3 SWAP2 POP POP JUMP JUMPDEST PUSH1 0x0 PUSH8 0xFFFFFFFFFFFFFFFF DUP3 GT ISZERO PUSH2 0x93D JUMPI PUSH2 0x93C PUSH2 0x625 JUMP JUMPDEST JUMPDEST PUSH2 0x946 DUP3 PUSH2 0x614 JUMP JUMPDEST SWAP1 POP PUSH1 0x20 DUP2 ADD SWAP1 POP SWAP2 SWAP1 POP JUMP JUMPDEST PUSH1 0x0 PUSH2 0x966 PUSH2 0x961 DUP5 PUSH2 0x922 JUMP JUMPDEST PUSH2 0x685 JUMP JUMPDEST SWAP1 POP DUP3 DUP2 MSTORE PUSH1 0x20 DUP2 ADD DUP5 DUP5 DUP5 ADD GT ISZERO PUSH2 0x982 JUMPI PUSH2 0x981 PUSH2 0x60F JUMP JUMPDEST JUMPDEST PUSH2 0x98D DUP5 DUP3 DUP6 PUSH2 0x6D1 JUMP JUMPDEST POP SWAP4 SWAP3 POP POP POP JUMP JUMPDEST PUSH1 0x0 DUP3 PUSH1 0x1F DUP4 ADD SLT PUSH2 0x9AA JUMPI PUSH2 0x9A9 PUSH2 0x60A JUMP JUMPDEST JUMPDEST DUP2 CALLDATALOAD PUSH2 0x9BA DUP5 DUP3 PUSH1 0x20 DUP7 ADD PUSH2 0x953 JUMP JUMPDEST SWAP2 POP POP SWAP3 SWAP2 POP POP JUMP JUMPDEST PUSH1 0x0 PUSH1 0x20 DUP3 DUP5 SUB SLT ISZERO PUSH2 0x9D9 JUMPI PUSH2 0x9D8 PUSH2 0x600 JUMP JUMPDEST JUMPDEST PUSH1 0x0 DUP3 ADD CALLDATALOAD PUSH8 0xFFFFFFFFFFFFFFFF DUP2 GT ISZERO PUSH2 0x9F7 JUMPI PUSH2 0x9F6 PUSH2 0x605 JUMP JUMPDEST JUMPDEST PUSH2 0xA03 DUP5 DUP3 DUP6 ADD PUSH2 0x995 JUMP JUMPDEST SWAP2 POP POP SWAP3 SWAP2 POP POP JUMP JUMPDEST PUSH1 0x0 PUSH1 0x60 DUP3 ADD SWAP1 POP PUSH2 0xA21 PUSH1 0x0 DUP4 ADD DUP7 PUSH2 0x8F8 JUMP JUMPDEST PUSH2 0xA2E PUSH1 0x20 DUP4 ADD DUP6 PUSH2 0x8F8 JUMP JUMPDEST PUSH2 0xA3B PUSH1 0x40 DUP4 ADD DUP5 PUSH2 0x8F8 JUMP JUMPDEST SWAP5 SWAP4 POP POP POP POP JUMP JUMPDEST PUSH1 0x0 DUP2 MLOAD SWAP1 POP SWAP2 SWAP1 POP JUMP JUMPDEST PUSH1 0x0 DUP3 DUP3 MSTORE PUSH1 0x20 DUP3 ADD SWAP1 POP SWAP3 SWAP2 POP POP JUMP JUMPDEST PUSH1 0x0 PUSH2 0xA6A DUP3 PUSH2 0xA43 JUMP JUMPDEST PUSH2 0xA74 DUP2 DUP6 PUSH2 0xA4E JUMP JUMPDEST SWAP4 POP PUSH2 0xA84 DUP2 DUP6 PUSH1 0x20 DUP7 ADD PUSH2 0x7FE JUMP JUMPDEST PUSH2 0xA8D DUP2 PUSH2 0x614 JUMP JUMPDEST DUP5 ADD SWAP2 POP POP SWAP3 SWAP2 POP POP JUMP JUMPDEST PUSH1 0x0 PUSH1 0x20 DUP3 ADD SWAP1 POP DUP2 DUP2 SUB PUSH1 0x0 DUP4 ADD MSTORE PUSH2 0xAB2 DUP2 DUP5 PUSH2 0xA5F JUMP JUMPDEST SWAP1 POP SWAP3 SWAP2 POP POP JUMP JUMPDEST PUSH32 0x4E487B7100000000000000000000000000000000000000000000000000000000 PUSH1 0x0 MSTORE PUSH1 0x11 PUSH1 0x4 MSTORE PUSH1 0x24 PUSH1 0x0 REVERT JUMPDEST PUSH1 0x0 PUSH2 0xAF4 DUP3 PUSH2 0x750 JUMP JUMPDEST SWAP2 POP PUSH2 0xAFF DUP4 PUSH2 0x750 JUMP JUMPDEST SWAP3 POP DUP3 DUP3 SUB SWAP1 POP DUP2 DUP2 GT ISZERO PUSH2 0xB17 JUMPI PUSH2 0xB16 PUSH2 0xABA JUMP JUMPDEST JUMPDEST SWAP3 SWAP2 POP POP JUMP JUMPDEST PUSH32 0x4E487B7100000000000000000000000000000000000000000000000000000000 PUSH1 0x0 MSTORE PUSH1 0x32 PUSH1 0x4 MSTORE PUSH1 0x24 PUSH1 0x0 REVERT JUMPDEST PUSH32 0x4E487B7100000000000000000000000000000000000000000000000000000000 PUSH1 0x0 MSTORE PUSH1 0x22 PUSH1 0x4 MSTORE PUSH1 0x24 PUSH1 0x0 REVERT JUMPDEST PUSH1 0x0 PUSH1 0x2 DUP3 DIV SWAP1 POP PUSH1 0x1 DUP3 AND DUP1 PUSH2 0xB93 JUMPI PUSH1 0x7F DUP3 AND SWAP2 POP JUMPDEST PUSH1 0x20 DUP3 LT DUP2 SUB PUSH2 0xBA6 JUMPI PUSH2 0xBA5 PUSH2 0xB4C JUMP JUMPDEST JUMPDEST POP SWAP2 SWAP1 POP JUMP JUMPDEST PUSH1 0x0 DUP2 SWAP1 POP DUP2 PUSH1 0x0 MSTORE PUSH1 0x20 PUSH1 0x0 KECCAK256 SWAP1 POP SWAP2 SWAP1 POP JUMP JUMPDEST PUSH1 0x0 PUSH1 0x20 PUSH1 0x1F DUP4 ADD DIV SWAP1 POP SWAP2 SWAP1 POP JUMP JUMPDEST PUSH1 0x0 DUP3 DUP3 SHL SWAP1 POP SWAP3 SWAP2 POP POP JUMP JUMPDEST PUSH1 0x0 PUSH1 0x8 DUP4 MUL PUSH2 0xC0E PUSH32 0xFFFFFFFFFFFFFFFFFFFFFFFFFFFFFFFFFFFFFFFFFFFFFFFFFFFFFFFFFFFFFFFF DUP3 PUSH2 0xBD1 JUMP JUMPDEST PUSH2 0xC18 DUP7 DUP4 PUSH2 0xBD1 JUMP JUMPDEST SWAP6 POP DUP1 NOT DUP5 AND SWAP4 POP DUP1 DUP7 AND DUP5 OR SWAP3 POP POP POP SWAP4 SWAP3 POP POP POP JUMP JUMPDEST PUSH1 0x0 DUP2 SWAP1 POP SWAP2 SWAP1 POP JUMP JUMPDEST PUSH1 0x0 PUSH2 0xC55 PUSH2 0xC50 PUSH2 0xC4B DUP5 PUSH2 0x750 JUMP JUMPDEST PUSH2 0xC30 JUMP JUMPDEST PUSH2 0x750 JUMP JUMPDEST SWAP1 POP SWAP2 SWAP1 POP JUMP JUMPDEST PUSH1 0x0 DUP2 SWAP1 POP SWAP2 SWAP1 POP JUMP JUMPDEST PUSH2 0xC6F DUP4 PUSH2 0xC3A JUMP JUMPDEST PUSH2 0xC83 PUSH2 0xC7B DUP3 PUSH2 0xC5C JUMP JUMPDEST DUP5 DUP5 SLOAD PUSH2 0xBDE JUMP JUMPDEST DUP3 SSTORE POP POP POP POP JUMP JUMPDEST PUSH1 0x0 SWAP1 JUMP JUMPDEST PUSH2 0xC98 PUSH2 0xC8B JUMP JUMPDEST PUSH2 0xCA3 DUP2 DUP5 DUP5 PUSH2 0xC66 JUMP JUMPDEST POP POP POP JUMP JUMPDEST JUMPDEST DUP2 DUP2 LT ISZERO PUSH2 0xCC7 JUMPI PUSH2 0xCBC PUSH1 0x0 DUP3 PUSH2 0xC90 JUMP JUMPDEST PUSH1 0x1 DUP2 ADD SWAP1 POP PUSH2 0xCA9 JUMP JUMPDEST POP POP JUMP JUMPDEST PUSH1 0x1F DUP3 GT ISZERO PUSH2 0xD0C JUMPI PUSH2 0xCDD DUP2 PUSH2 0xBAC JUMP JUMPDEST PUSH2 0xCE6 DUP5 PUSH2 0xBC1 JUMP JUMPDEST DUP2 ADD PUSH1 0x20 DUP6 LT ISZERO PUSH2 0xCF5 JUMPI DUP2 SWAP1 POP JUMPDEST PUSH2 0xD09 PUSH2 0xD01 DUP6 PUSH2 0xBC1 JUMP JUMPDEST DUP4 ADD DUP3 PUSH2 0xCA8 JUMP JUMPDEST POP POP JUMPDEST POP POP POP JUMP JUMPDEST PUSH1 0x0 DUP3 DUP3 SHR SWAP1 POP SWAP3 SWAP2 POP POP JUMP JUMPDEST PUSH1 0x0 PUSH2 0xD2F PUSH1 0x0 NOT DUP5 PUSH1 0x8 MUL PUSH2 0xD11 JUMP JUMPDEST NOT DUP1 DUP4 AND SWAP2 POP POP SWAP3 SWAP2 POP POP JUMP JUMPDEST PUSH1 0x0 PUSH2 0xD48 DUP4 DUP4 PUSH2 0xD1E JUMP JUMPDEST SWAP2 POP DUP3 PUSH1 0x2 MUL DUP3 OR SWAP1 POP SWAP3 SWAP2 POP POP JUMP JUMPDEST PUSH2 0xD61 DUP3 PUSH2 0x7E2 JUMP JUMPDEST PUSH8 0xFFFFFFFFFFFFFFFF DUP2 GT ISZERO PUSH2 0xD7A JUMPI PUSH2 0xD79 PUSH2 0x625 JUMP JUMPDEST JUMPDEST PUSH2 0xD84 DUP3 SLOAD PUSH2 0xB7B JUMP JUMPDEST PUSH2 0xD8F DUP3 DUP3 DUP6 PUSH2 0xCCB JUMP JUMPDEST PUSH1 0x0 PUSH1 0x20 SWAP1 POP PUSH1 0x1F DUP4 GT PUSH1 0x1 DUP2 EQ PUSH2 0xDC2 JUMPI PUSH1 0x0 DUP5 ISZERO PUSH2 0xDB0 JUMPI DUP3 DUP8 ADD MLOAD SWAP1 POP JUMPDEST PUSH2 0xDBA DUP6 DUP3 PUSH2 0xD3C JUMP JUMPDEST DUP7 SSTORE POP PUSH2 0xE22 JUMP JUMPDEST PUSH1 0x1F NOT DUP5 AND PUSH2 0xDD0 DUP7 PUSH2 0xBAC JUMP JUMPDEST PUSH1 0x0 JUMPDEST DUP3 DUP2 LT ISZERO PUSH2 0xDF8 JUMPI DUP5 DUP10 ADD MLOAD DUP3 SSTORE PUSH1 0x1 DUP3 ADD SWAP2 POP PUSH1 0x20 DUP6 ADD SWAP5 POP PUSH1 0x20 DUP2 ADD SWAP1 POP PUSH2 0xDD3 JUMP JUMPDEST DUP7 DUP4 LT ISZERO PUSH2 0xE15 JUMPI DUP5 DUP10 ADD MLOAD PUSH2 0xE11 PUSH1 0x1F DUP10 AND DUP3 PUSH2 0xD1E JUMP JUMPDEST DUP4 SSTORE POP JUMPDEST PUSH1 0x1 PUSH1 0x2 DUP9 MUL ADD DUP9 SSTORE POP POP POP JUMPDEST POP POP POP POP POP POP JUMP INVALID LOG2 PUSH5 0x6970667358 0x22 SLT KECCAK256 0x22 DIV CREATE PC JUMP NUMBER GT 0xC6 PUSH2 0x5A58 STATICCALL PUSH26 0x9496D9E5C12A504D16D6F442C0AA9AFFBAF87564736F6C634300 ADDMOD SLT STOP CALLER "
				},
				"gasEstimates": {
					"creation": {
						"codeDepositCost": "736000",
						"executionCost": "766",
						"totalCost": "736766"
					},
					"external": {
						"BytesToString(bytes)": "infinite",
						"BytesToString3(string)": "infinite",
						"StringToBytes()": "infinite",
						"StringToBytes2()": "infinite",
						"bytesToString2(string)": "infinite",
						"bytesToString4(string,uint256)": "infinite",
						"getString()": "infinite",
						"setString(string)": "infinite"
					}
				},
				"methodIdentifiers": {
					"BytesToString(bytes)": "9249f58f",
					"BytesToString3(string)": "bbd52d91",
					"StringToBytes()": "d2599825",
					"StringToBytes2()": "c0e41704",
					"bytesToString2(string)": "4a76dd3a",
					"bytesToString4(string,uint256)": "01fd9fce",
					"getString()": "89ea642f",
					"setString(string)": "7fcaf666"
				}
			},
			"storageLayout": {
				"storage": [
					{
						"astId": 3,
						"contract": "contracts/230504/3_StringAndBytes.sol:StringAndBytes",
						"label": "a",
						"offset": 0,
						"slot": "0",
						"type": "t_string_storage"
					}
				],
				"types": {
					"t_string_storage": {
						"encoding": "bytes",
						"label": "string",
						"numberOfBytes": "32"
					}
				}
			},
			"userdoc": {
				"kind": "user",
				"methods": {},
				"version": 1
			}
		}
	}
}