{
	"contracts/230504/3_StringAndBytes.sol": {
		"LocalVariable": {
			"abi": [
				{
					"inputs": [],
					"name": "A",
					"outputs": [
						{
							"internalType": "uint256",
							"name": "",
							"type": "uint256"
						}
					],
					"stateMutability": "pure",
					"type": "function"
				}
			],
			"devdoc": {
				"kind": "dev",
				"methods": {},
				"version": 1
			},
			"evm": {
				"assembly": "    /* \"contracts/230504/3_StringAndBytes.sol\":1438:1585  contract LocalVariable {... */\n  mstore(0x40, 0x80)\n  callvalue\n  dup1\n  iszero\n  tag_1\n  jumpi\n  0x00\n  dup1\n  revert\ntag_1:\n  pop\n  dataSize(sub_0)\n  dup1\n  dataOffset(sub_0)\n  0x00\n  codecopy\n  0x00\n  return\nstop\n\nsub_0: assembly {\n        /* \"contracts/230504/3_StringAndBytes.sol\":1438:1585  contract LocalVariable {... */\n      mstore(0x40, 0x80)\n      callvalue\n      dup1\n      iszero\n      tag_1\n      jumpi\n      0x00\n      dup1\n      revert\n    tag_1:\n      pop\n      jumpi(tag_2, lt(calldatasize, 0x04))\n      shr(0xe0, calldataload(0x00))\n      dup1\n      0xf446c1d0\n      eq\n      tag_3\n      jumpi\n    tag_2:\n      0x00\n      dup1\n      revert\n        /* \"contracts/230504/3_StringAndBytes.sol\":1468:1582  function A() public pure returns(uint) {... */\n    tag_3:\n      tag_4\n      tag_5\n      jump\t// in\n    tag_4:\n      mload(0x40)\n      tag_6\n      swap2\n      swap1\n      tag_7\n      jump\t// in\n    tag_6:\n      mload(0x40)\n      dup1\n      swap2\n      sub\n      swap1\n      return\n    tag_5:\n        /* \"contracts/230504/3_StringAndBytes.sol\":1501:1505  uint */\n      0x00\n        /* \"contracts/230504/3_StringAndBytes.sol\":1518:1524  uint a */\n      dup1\n        /* \"contracts/230504/3_StringAndBytes.sol\":1527:1528  5 */\n      0x05\n        /* \"contracts/230504/3_StringAndBytes.sol\":1518:1528  uint a = 5 */\n      swap1\n      pop\n        /* \"contracts/230504/3_StringAndBytes.sol\":1539:1545  uint b */\n      0x00\n        /* \"contracts/230504/3_StringAndBytes.sol\":1548:1549  7 */\n      0x07\n        /* \"contracts/230504/3_StringAndBytes.sol\":1539:1549  uint b = 7 */\n      swap1\n      pop\n        /* \"contracts/230504/3_StringAndBytes.sol\":1572:1573  b */\n      dup1\n        /* \"contracts/230504/3_StringAndBytes.sol\":1568:1569  a */\n      dup3\n        /* \"contracts/230504/3_StringAndBytes.sol\":1568:1573  a + b */\n      tag_9\n      swap2\n      swap1\n      tag_10\n      jump\t// in\n    tag_9:\n        /* \"contracts/230504/3_StringAndBytes.sol\":1560:1574  return (a + b) */\n      swap3\n      pop\n      pop\n      pop\n        /* \"contracts/230504/3_StringAndBytes.sol\":1468:1582  function A() public pure returns(uint) {... */\n      swap1\n      jump\t// out\n        /* \"#utility.yul\":7:84   */\n    tag_11:\n        /* \"#utility.yul\":44:51   */\n      0x00\n        /* \"#utility.yul\":73:78   */\n      dup2\n        /* \"#utility.yul\":62:78   */\n      swap1\n      pop\n        /* \"#utility.yul\":7:84   */\n      swap2\n      swap1\n      pop\n      jump\t// out\n        /* \"#utility.yul\":90:208   */\n    tag_12:\n        /* \"#utility.yul\":177:201   */\n      tag_17\n        /* \"#utility.yul\":195:200   */\n      dup2\n        /* \"#utility.yul\":177:201   */\n      tag_11\n      jump\t// in\n    tag_17:\n        /* \"#utility.yul\":172:175   */\n      dup3\n        /* \"#utility.yul\":165:202   */\n      mstore\n        /* \"#utility.yul\":90:208   */\n      pop\n      pop\n      jump\t// out\n        /* \"#utility.yul\":214:436   */\n    tag_7:\n        /* \"#utility.yul\":307:311   */\n      0x00\n        /* \"#utility.yul\":345:347   */\n      0x20\n        /* \"#utility.yul\":334:343   */\n      dup3\n        /* \"#utility.yul\":330:348   */\n      add\n        /* \"#utility.yul\":322:348   */\n      swap1\n      pop\n        /* \"#utility.yul\":358:429   */\n      tag_19\n        /* \"#utility.yul\":426:427   */\n      0x00\n        /* \"#utility.yul\":415:424   */\n      dup4\n        /* \"#utility.yul\":411:428   */\n      add\n        /* \"#utility.yul\":402:408   */\n      dup5\n        /* \"#utility.yul\":358:429   */\n      tag_12\n      jump\t// in\n    tag_19:\n        /* \"#utility.yul\":214:436   */\n      swap3\n      swap2\n      pop\n      pop\n      jump\t// out\n        /* \"#utility.yul\":442:622   */\n    tag_13:\n        /* \"#utility.yul\":490:567   */\n      0x4e487b7100000000000000000000000000000000000000000000000000000000\n        /* \"#utility.yul\":487:488   */\n      0x00\n        /* \"#utility.yul\":480:568   */\n      mstore\n        /* \"#utility.yul\":587:591   */\n      0x11\n        /* \"#utility.yul\":584:585   */\n      0x04\n        /* \"#utility.yul\":577:592   */\n      mstore\n        /* \"#utility.yul\":611:615   */\n      0x24\n        /* \"#utility.yul\":608:609   */\n      0x00\n        /* \"#utility.yul\":601:616   */\n      revert\n        /* \"#utility.yul\":628:819   */\n    tag_10:\n        /* \"#utility.yul\":668:671   */\n      0x00\n        /* \"#utility.yul\":687:707   */\n      tag_22\n        /* \"#utility.yul\":705:706   */\n      dup3\n        /* \"#utility.yul\":687:707   */\n      tag_11\n      jump\t// in\n    tag_22:\n        /* \"#utility.yul\":682:707   */\n      swap2\n      pop\n        /* \"#utility.yul\":721:741   */\n      tag_23\n        /* \"#utility.yul\":739:740   */\n      dup4\n        /* \"#utility.yul\":721:741   */\n      tag_11\n      jump\t// in\n    tag_23:\n        /* \"#utility.yul\":716:741   */\n      swap3\n      pop\n        /* \"#utility.yul\":764:765   */\n      dup3\n        /* \"#utility.yul\":761:762   */\n      dup3\n        /* \"#utility.yul\":757:766   */\n      add\n        /* \"#utility.yul\":750:766   */\n      swap1\n      pop\n        /* \"#utility.yul\":785:788   */\n      dup1\n        /* \"#utility.yul\":782:783   */\n      dup3\n        /* \"#utility.yul\":779:789   */\n      gt\n        /* \"#utility.yul\":776:812   */\n      iszero\n      tag_24\n      jumpi\n        /* \"#utility.yul\":792:810   */\n      tag_25\n      tag_13\n      jump\t// in\n    tag_25:\n        /* \"#utility.yul\":776:812   */\n    tag_24:\n        /* \"#utility.yul\":628:819   */\n      swap3\n      swap2\n      pop\n      pop\n      jump\t// out\n\n    auxdata: 0xa26469706673582212205805fef5e18fc2b5e8f75d25bc8d0fe6db2fa3445badab1573c02c646edd324664736f6c63430008120033\n}\n",
				"bytecode": {
					"linkReferences": {},
					"object": "608060405234801561001057600080fd5b50610127806100206000396000f3fe6080604052348015600f57600080fd5b506004361060285760003560e01c8063f446c1d014602d575b600080fd5b60336047565b604051603e9190607c565b60405180910390f35b600080600590506000600790508082605e919060c4565b9250505090565b6000819050919050565b6076816065565b82525050565b6000602082019050608f6000830184606f565b92915050565b7f4e487b7100000000000000000000000000000000000000000000000000000000600052601160045260246000fd5b600060cd826065565b915060d6836065565b925082820190508082111560eb5760ea6095565b5b9291505056fea26469706673582212205805fef5e18fc2b5e8f75d25bc8d0fe6db2fa3445badab1573c02c646edd324664736f6c63430008120033",
					"opcodes": "PUSH1 0x80 PUSH1 0x40 MSTORE CALLVALUE DUP1 ISZERO PUSH2 0x10 JUMPI PUSH1 0x0 DUP1 REVERT JUMPDEST POP PUSH2 0x127 DUP1 PUSH2 0x20 PUSH1 0x0 CODECOPY PUSH1 0x0 RETURN INVALID PUSH1 0x80 PUSH1 0x40 MSTORE CALLVALUE DUP1 ISZERO PUSH1 0xF JUMPI PUSH1 0x0 DUP1 REVERT JUMPDEST POP PUSH1 0x4 CALLDATASIZE LT PUSH1 0x28 JUMPI PUSH1 0x0 CALLDATALOAD PUSH1 0xE0 SHR DUP1 PUSH4 0xF446C1D0 EQ PUSH1 0x2D JUMPI JUMPDEST PUSH1 0x0 DUP1 REVERT JUMPDEST PUSH1 0x33 PUSH1 0x47 JUMP JUMPDEST PUSH1 0x40 MLOAD PUSH1 0x3E SWAP2 SWAP1 PUSH1 0x7C JUMP JUMPDEST PUSH1 0x40 MLOAD DUP1 SWAP2 SUB SWAP1 RETURN JUMPDEST PUSH1 0x0 DUP1 PUSH1 0x5 SWAP1 POP PUSH1 0x0 PUSH1 0x7 SWAP1 POP DUP1 DUP3 PUSH1 0x5E SWAP2 SWAP1 PUSH1 0xC4 JUMP JUMPDEST SWAP3 POP POP POP SWAP1 JUMP JUMPDEST PUSH1 0x0 DUP2 SWAP1 POP SWAP2 SWAP1 POP JUMP JUMPDEST PUSH1 0x76 DUP2 PUSH1 0x65 JUMP JUMPDEST DUP3 MSTORE POP POP JUMP JUMPDEST PUSH1 0x0 PUSH1 0x20 DUP3 ADD SWAP1 POP PUSH1 0x8F PUSH1 0x0 DUP4 ADD DUP5 PUSH1 0x6F JUMP JUMPDEST SWAP3 SWAP2 POP POP JUMP JUMPDEST PUSH32 0x4E487B7100000000000000000000000000000000000000000000000000000000 PUSH1 0x0 MSTORE PUSH1 0x11 PUSH1 0x4 MSTORE PUSH1 0x24 PUSH1 0x0 REVERT JUMPDEST PUSH1 0x0 PUSH1 0xCD DUP3 PUSH1 0x65 JUMP JUMPDEST SWAP2 POP PUSH1 0xD6 DUP4 PUSH1 0x65 JUMP JUMPDEST SWAP3 POP DUP3 DUP3 ADD SWAP1 POP DUP1 DUP3 GT ISZERO PUSH1 0xEB JUMPI PUSH1 0xEA PUSH1 0x95 JUMP JUMPDEST JUMPDEST SWAP3 SWAP2 POP POP JUMP INVALID LOG2 PUSH5 0x6970667358 0x22 SLT KECCAK256 PC SDIV INVALID CREATE2 0xE1 DUP16 0xC2 0xB5 0xE8 0xF7 0x5D 0x25 0xBC DUP14 0xF 0xE6 0xDB 0x2F LOG3 PREVRANDAO JUMPDEST 0xAD 0xAB ISZERO PUSH20 0xC02C646EDD324664736F6C634300081200330000 "
				},
				"gasEstimates": {
					"creation": {
						"codeDepositCost": "59000",
						"executionCost": "111",
						"totalCost": "59111"
					},
					"external": {
						"A()": "infinite"
					}
				},
				"methodIdentifiers": {
					"A()": "f446c1d0"
				}
			},
			"storageLayout": {
				"storage": [],
				"types": null
			},
			"userdoc": {
				"kind": "user",
				"methods": {},
				"version": 1
			}
		}
	}
}