{
	"data": {
		"bytecode": {
			"linkReferences": {},
			"object": "608060405234801561001057600080fd5b50610d19806100206000396000f3fe608060405234801561001057600080fd5b506004361061004b5760003560e01c8062ce8e3e1461005057806327d3410c1461006e578063b0467deb1461008a578063d0020fad146100bc575b600080fd5b6100586100d8565b604051610065919061041c565b60405180910390f35b610088600480360381019061008391906105c9565b6100e5565b005b6100a4600480360381019061009f9190610651565b610120565b6040516100b39392919061084a565b60405180910390f35b6100d660048036038101906100d1919061088f565b610322565b005b6000600280549050905090565b6000826040516100f59190610914565b908152602001604051809103902060040160008154809291906101179061095a565b91905055505050565b6060600060606002848154811061013a576101396109a2565b5b90600052602060002090600402016000016002858154811061015f5761015e6109a2565b5b906000526020600020906004020160010160009054906101000a900473ffffffffffffffffffffffffffffffffffffffff16600286815481106101a5576101a46109a2565b5b90600052602060002090600402016002018280546101c290610a00565b80601f01602080910402602001604051908101604052809291908181526020018280546101ee90610a00565b801561023b5780601f106102105761010080835404028352916020019161023b565b820191906000526020600020905b81548152906001019060200180831161021e57829003601f168201915b5050505050925080805480602002602001604051908101604052809291908181526020016000905b8282101561030f57838290600052602060002001805461028290610a00565b80601f01602080910402602001604051908101604052809291908181526020018280546102ae90610a00565b80156102fb5780601f106102d0576101008083540402835291602001916102fb565b820191906000526020600020905b8154815290600101906020018083116102de57829003601f168201915b505050505081526020019060010190610263565b5050505090509250925092509193909250565b600060026001816001815401808255809150500390600052602060002090600402019050816002600160028054905061035b9190610a31565b8154811061036c5761036b6109a2565b5b906000526020600020906004020160000190816103899190610c11565b50336002600160028054905061039f9190610a31565b815481106103b0576103af6109a2565b5b906000526020600020906004020160010160006101000a81548173ffffffffffffffffffffffffffffffffffffffff021916908373ffffffffffffffffffffffffffffffffffffffff1602179055505050565b6000819050919050565b61041681610403565b82525050565b6000602082019050610431600083018461040d565b92915050565b6000604051905090565b600080fd5b600080fd5b600080fd5b600080fd5b6000601f19601f8301169050919050565b7f4e487b7100000000000000000000000000000000000000000000000000000000600052604160045260246000fd5b61049e82610455565b810181811067ffffffffffffffff821117156104bd576104bc610466565b5b80604052505050565b60006104d0610437565b90506104dc8282610495565b919050565b600067ffffffffffffffff8211156104fc576104fb610466565b5b61050582610455565b9050602081019050919050565b82818337600083830152505050565b600061053461052f846104e1565b6104c6565b9050828152602081018484840111156105505761054f610450565b5b61055b848285610512565b509392505050565b600082601f8301126105785761057761044b565b5b8135610588848260208601610521565b91505092915050565b60008115159050919050565b6105a681610591565b81146105b157600080fd5b50565b6000813590506105c38161059d565b92915050565b600080604083850312156105e0576105df610441565b5b600083013567ffffffffffffffff8111156105fe576105fd610446565b5b61060a85828601610563565b925050602061061b858286016105b4565b9150509250929050565b61062e81610403565b811461063957600080fd5b50565b60008135905061064b81610625565b92915050565b60006020828403121561066757610666610441565b5b60006106758482850161063c565b91505092915050565b600081519050919050565b600082825260208201905092915050565b60005b838110156106b857808201518184015260208101905061069d565b60008484015250505050565b60006106cf8261067e565b6106d98185610689565b93506106e981856020860161069a565b6106f281610455565b840191505092915050565b600073ffffffffffffffffffffffffffffffffffffffff82169050919050565b6000610728826106fd565b9050919050565b6107388161071d565b82525050565b600081519050919050565b600082825260208201905092915050565b6000819050602082019050919050565b600082825260208201905092915050565b60006107868261067e565b610790818561076a565b93506107a081856020860161069a565b6107a981610455565b840191505092915050565b60006107c0838361077b565b905092915050565b6000602082019050919050565b60006107e08261073e565b6107ea8185610749565b9350836020820285016107fc8561075a565b8060005b85811015610838578484038952815161081985826107b4565b9450610824836107c8565b925060208a01995050600181019050610800565b50829750879550505050505092915050565b6000606082019050818103600083015261086481866106c4565b9050610873602083018561072f565b818103604083015261088581846107d5565b9050949350505050565b6000602082840312156108a5576108a4610441565b5b600082013567ffffffffffffffff8111156108c3576108c2610446565b5b6108cf84828501610563565b91505092915050565b600081905092915050565b60006108ee8261067e565b6108f881856108d8565b935061090881856020860161069a565b80840191505092915050565b600061092082846108e3565b915081905092915050565b7f4e487b7100000000000000000000000000000000000000000000000000000000600052601160045260246000fd5b600061096582610403565b91507fffffffffffffffffffffffffffffffffffffffffffffffffffffffffffffffff82036109975761099661092b565b5b600182019050919050565b7f4e487b7100000000000000000000000000000000000000000000000000000000600052603260045260246000fd5b7f4e487b7100000000000000000000000000000000000000000000000000000000600052602260045260246000fd5b60006002820490506001821680610a1857607f821691505b602082108103610a2b57610a2a6109d1565b5b50919050565b6000610a3c82610403565b9150610a4783610403565b9250828203905081811115610a5f57610a5e61092b565b5b92915050565b60008190508160005260206000209050919050565b60006020601f8301049050919050565b600082821b905092915050565b600060088302610ac77fffffffffffffffffffffffffffffffffffffffffffffffffffffffffffffffff82610a8a565b610ad18683610a8a565b95508019841693508086168417925050509392505050565b6000819050919050565b6000610b0e610b09610b0484610403565b610ae9565b610403565b9050919050565b6000819050919050565b610b2883610af3565b610b3c610b3482610b15565b848454610a97565b825550505050565b600090565b610b51610b44565b610b5c818484610b1f565b505050565b5b81811015610b8057610b75600082610b49565b600181019050610b62565b5050565b601f821115610bc557610b9681610a65565b610b9f84610a7a565b81016020851015610bae578190505b610bc2610bba85610a7a565b830182610b61565b50505b505050565b600082821c905092915050565b6000610be860001984600802610bca565b1980831691505092915050565b6000610c018383610bd7565b9150826002028217905092915050565b610c1a8261067e565b67ffffffffffffffff811115610c3357610c32610466565b5b610c3d8254610a00565b610c48828285610b84565b600060209050601f831160018114610c7b5760008415610c69578287015190505b610c738582610bf5565b865550610cdb565b601f198416610c8986610a65565b60005b82811015610cb157848901518255600182019150602085019450602081019050610c8c565b86831015610cce5784890151610cca601f891682610bd7565b8355505b6001600288020188555050505b50505050505056fea26469706673582212208d0deb54571c2a7d7c5be2bba55abbb6723feb85771ba7531976bb43e428d19564736f6c63430008120033",
			"opcodes": "PUSH1 0x80 PUSH1 0x40 MSTORE CALLVALUE DUP1 ISZERO PUSH2 0x10 JUMPI PUSH1 0x0 DUP1 REVERT JUMPDEST POP PUSH2 0xD19 DUP1 PUSH2 0x20 PUSH1 0x0 CODECOPY PUSH1 0x0 RETURN INVALID PUSH1 0x80 PUSH1 0x40 MSTORE CALLVALUE DUP1 ISZERO PUSH2 0x10 JUMPI PUSH1 0x0 DUP1 REVERT JUMPDEST POP PUSH1 0x4 CALLDATASIZE LT PUSH2 0x4B JUMPI PUSH1 0x0 CALLDATALOAD PUSH1 0xE0 SHR DUP1 PUSH3 0xCE8E3E EQ PUSH2 0x50 JUMPI DUP1 PUSH4 0x27D3410C EQ PUSH2 0x6E JUMPI DUP1 PUSH4 0xB0467DEB EQ PUSH2 0x8A JUMPI DUP1 PUSH4 0xD0020FAD EQ PUSH2 0xBC JUMPI JUMPDEST PUSH1 0x0 DUP1 REVERT JUMPDEST PUSH2 0x58 PUSH2 0xD8 JUMP JUMPDEST PUSH1 0x40 MLOAD PUSH2 0x65 SWAP2 SWAP1 PUSH2 0x41C JUMP JUMPDEST PUSH1 0x40 MLOAD DUP1 SWAP2 SUB SWAP1 RETURN JUMPDEST PUSH2 0x88 PUSH1 0x4 DUP1 CALLDATASIZE SUB DUP2 ADD SWAP1 PUSH2 0x83 SWAP2 SWAP1 PUSH2 0x5C9 JUMP JUMPDEST PUSH2 0xE5 JUMP JUMPDEST STOP JUMPDEST PUSH2 0xA4 PUSH1 0x4 DUP1 CALLDATASIZE SUB DUP2 ADD SWAP1 PUSH2 0x9F SWAP2 SWAP1 PUSH2 0x651 JUMP JUMPDEST PUSH2 0x120 JUMP JUMPDEST PUSH1 0x40 MLOAD PUSH2 0xB3 SWAP4 SWAP3 SWAP2 SWAP1 PUSH2 0x84A JUMP JUMPDEST PUSH1 0x40 MLOAD DUP1 SWAP2 SUB SWAP1 RETURN JUMPDEST PUSH2 0xD6 PUSH1 0x4 DUP1 CALLDATASIZE SUB DUP2 ADD SWAP1 PUSH2 0xD1 SWAP2 SWAP1 PUSH2 0x88F JUMP JUMPDEST PUSH2 0x322 JUMP JUMPDEST STOP JUMPDEST PUSH1 0x0 PUSH1 0x2 DUP1 SLOAD SWAP1 POP SWAP1 POP SWAP1 JUMP JUMPDEST PUSH1 0x0 DUP3 PUSH1 0x40 MLOAD PUSH2 0xF5 SWAP2 SWAP1 PUSH2 0x914 JUMP JUMPDEST SWAP1 DUP2 MSTORE PUSH1 0x20 ADD PUSH1 0x40 MLOAD DUP1 SWAP2 SUB SWAP1 KECCAK256 PUSH1 0x4 ADD PUSH1 0x0 DUP2 SLOAD DUP1 SWAP3 SWAP2 SWAP1 PUSH2 0x117 SWAP1 PUSH2 0x95A JUMP JUMPDEST SWAP2 SWAP1 POP SSTORE POP POP POP JUMP JUMPDEST PUSH1 0x60 PUSH1 0x0 PUSH1 0x60 PUSH1 0x2 DUP5 DUP2 SLOAD DUP2 LT PUSH2 0x13A JUMPI PUSH2 0x139 PUSH2 0x9A2 JUMP JUMPDEST JUMPDEST SWAP1 PUSH1 0x0 MSTORE PUSH1 0x20 PUSH1 0x0 KECCAK256 SWAP1 PUSH1 0x4 MUL ADD PUSH1 0x0 ADD PUSH1 0x2 DUP6 DUP2 SLOAD DUP2 LT PUSH2 0x15F JUMPI PUSH2 0x15E PUSH2 0x9A2 JUMP JUMPDEST JUMPDEST SWAP1 PUSH1 0x0 MSTORE PUSH1 0x20 PUSH1 0x0 KECCAK256 SWAP1 PUSH1 0x4 MUL ADD PUSH1 0x1 ADD PUSH1 0x0 SWAP1 SLOAD SWAP1 PUSH2 0x100 EXP SWAP1 DIV PUSH20 0xFFFFFFFFFFFFFFFFFFFFFFFFFFFFFFFFFFFFFFFF AND PUSH1 0x2 DUP7 DUP2 SLOAD DUP2 LT PUSH2 0x1A5 JUMPI PUSH2 0x1A4 PUSH2 0x9A2 JUMP JUMPDEST JUMPDEST SWAP1 PUSH1 0x0 MSTORE PUSH1 0x20 PUSH1 0x0 KECCAK256 SWAP1 PUSH1 0x4 MUL ADD PUSH1 0x2 ADD DUP3 DUP1 SLOAD PUSH2 0x1C2 SWAP1 PUSH2 0xA00 JUMP JUMPDEST DUP1 PUSH1 0x1F ADD PUSH1 0x20 DUP1 SWAP2 DIV MUL PUSH1 0x20 ADD PUSH1 0x40 MLOAD SWAP1 DUP2 ADD PUSH1 0x40 MSTORE DUP1 SWAP3 SWAP2 SWAP1 DUP2 DUP2 MSTORE PUSH1 0x20 ADD DUP3 DUP1 SLOAD PUSH2 0x1EE SWAP1 PUSH2 0xA00 JUMP JUMPDEST DUP1 ISZERO PUSH2 0x23B JUMPI DUP1 PUSH1 0x1F LT PUSH2 0x210 JUMPI PUSH2 0x100 DUP1 DUP4 SLOAD DIV MUL DUP4 MSTORE SWAP2 PUSH1 0x20 ADD SWAP2 PUSH2 0x23B JUMP JUMPDEST DUP3 ADD SWAP2 SWAP1 PUSH1 0x0 MSTORE PUSH1 0x20 PUSH1 0x0 KECCAK256 SWAP1 JUMPDEST DUP2 SLOAD DUP2 MSTORE SWAP1 PUSH1 0x1 ADD SWAP1 PUSH1 0x20 ADD DUP1 DUP4 GT PUSH2 0x21E JUMPI DUP3 SWAP1 SUB PUSH1 0x1F AND DUP3 ADD SWAP2 JUMPDEST POP POP POP POP POP SWAP3 POP DUP1 DUP1 SLOAD DUP1 PUSH1 0x20 MUL PUSH1 0x20 ADD PUSH1 0x40 MLOAD SWAP1 DUP2 ADD PUSH1 0x40 MSTORE DUP1 SWAP3 SWAP2 SWAP1 DUP2 DUP2 MSTORE PUSH1 0x20 ADD PUSH1 0x0 SWAP1 JUMPDEST DUP3 DUP3 LT ISZERO PUSH2 0x30F JUMPI DUP4 DUP3 SWAP1 PUSH1 0x0 MSTORE PUSH1 0x20 PUSH1 0x0 KECCAK256 ADD DUP1 SLOAD PUSH2 0x282 SWAP1 PUSH2 0xA00 JUMP JUMPDEST DUP1 PUSH1 0x1F ADD PUSH1 0x20 DUP1 SWAP2 DIV MUL PUSH1 0x20 ADD PUSH1 0x40 MLOAD SWAP1 DUP2 ADD PUSH1 0x40 MSTORE DUP1 SWAP3 SWAP2 SWAP1 DUP2 DUP2 MSTORE PUSH1 0x20 ADD DUP3 DUP1 SLOAD PUSH2 0x2AE SWAP1 PUSH2 0xA00 JUMP JUMPDEST DUP1 ISZERO PUSH2 0x2FB JUMPI DUP1 PUSH1 0x1F LT PUSH2 0x2D0 JUMPI PUSH2 0x100 DUP1 DUP4 SLOAD DIV MUL DUP4 MSTORE SWAP2 PUSH1 0x20 ADD SWAP2 PUSH2 0x2FB JUMP JUMPDEST DUP3 ADD SWAP2 SWAP1 PUSH1 0x0 MSTORE PUSH1 0x20 PUSH1 0x0 KECCAK256 SWAP1 JUMPDEST DUP2 SLOAD DUP2 MSTORE SWAP1 PUSH1 0x1 ADD SWAP1 PUSH1 0x20 ADD DUP1 DUP4 GT PUSH2 0x2DE JUMPI DUP3 SWAP1 SUB PUSH1 0x1F AND DUP3 ADD SWAP2 JUMPDEST POP POP POP POP POP DUP2 MSTORE PUSH1 0x20 ADD SWAP1 PUSH1 0x1 ADD SWAP1 PUSH2 0x263 JUMP JUMPDEST POP POP POP POP SWAP1 POP SWAP3 POP SWAP3 POP SWAP3 POP SWAP2 SWAP4 SWAP1 SWAP3 POP JUMP JUMPDEST PUSH1 0x0 PUSH1 0x2 PUSH1 0x1 DUP2 PUSH1 0x1 DUP2 SLOAD ADD DUP1 DUP3 SSTORE DUP1 SWAP2 POP POP SUB SWAP1 PUSH1 0x0 MSTORE PUSH1 0x20 PUSH1 0x0 KECCAK256 SWAP1 PUSH1 0x4 MUL ADD SWAP1 POP DUP2 PUSH1 0x2 PUSH1 0x1 PUSH1 0x2 DUP1 SLOAD SWAP1 POP PUSH2 0x35B SWAP2 SWAP1 PUSH2 0xA31 JUMP JUMPDEST DUP2 SLOAD DUP2 LT PUSH2 0x36C JUMPI PUSH2 0x36B PUSH2 0x9A2 JUMP JUMPDEST JUMPDEST SWAP1 PUSH1 0x0 MSTORE PUSH1 0x20 PUSH1 0x0 KECCAK256 SWAP1 PUSH1 0x4 MUL ADD PUSH1 0x0 ADD SWAP1 DUP2 PUSH2 0x389 SWAP2 SWAP1 PUSH2 0xC11 JUMP JUMPDEST POP CALLER PUSH1 0x2 PUSH1 0x1 PUSH1 0x2 DUP1 SLOAD SWAP1 POP PUSH2 0x39F SWAP2 SWAP1 PUSH2 0xA31 JUMP JUMPDEST DUP2 SLOAD DUP2 LT PUSH2 0x3B0 JUMPI PUSH2 0x3AF PUSH2 0x9A2 JUMP JUMPDEST JUMPDEST SWAP1 PUSH1 0x0 MSTORE PUSH1 0x20 PUSH1 0x0 KECCAK256 SWAP1 PUSH1 0x4 MUL ADD PUSH1 0x1 ADD PUSH1 0x0 PUSH2 0x100 EXP DUP2 SLOAD DUP2 PUSH20 0xFFFFFFFFFFFFFFFFFFFFFFFFFFFFFFFFFFFFFFFF MUL NOT AND SWAP1 DUP4 PUSH20 0xFFFFFFFFFFFFFFFFFFFFFFFFFFFFFFFFFFFFFFFF AND MUL OR SWAP1 SSTORE POP POP POP JUMP JUMPDEST PUSH1 0x0 DUP2 SWAP1 POP SWAP2 SWAP1 POP JUMP JUMPDEST PUSH2 0x416 DUP2 PUSH2 0x403 JUMP JUMPDEST DUP3 MSTORE POP POP JUMP JUMPDEST PUSH1 0x0 PUSH1 0x20 DUP3 ADD SWAP1 POP PUSH2 0x431 PUSH1 0x0 DUP4 ADD DUP5 PUSH2 0x40D JUMP JUMPDEST SWAP3 SWAP2 POP POP JUMP JUMPDEST PUSH1 0x0 PUSH1 0x40 MLOAD SWAP1 POP SWAP1 JUMP JUMPDEST PUSH1 0x0 DUP1 REVERT JUMPDEST PUSH1 0x0 DUP1 REVERT JUMPDEST PUSH1 0x0 DUP1 REVERT JUMPDEST PUSH1 0x0 DUP1 REVERT JUMPDEST PUSH1 0x0 PUSH1 0x1F NOT PUSH1 0x1F DUP4 ADD AND SWAP1 POP SWAP2 SWAP1 POP JUMP JUMPDEST PUSH32 0x4E487B7100000000000000000000000000000000000000000000000000000000 PUSH1 0x0 MSTORE PUSH1 0x41 PUSH1 0x4 MSTORE PUSH1 0x24 PUSH1 0x0 REVERT JUMPDEST PUSH2 0x49E DUP3 PUSH2 0x455 JUMP JUMPDEST DUP2 ADD DUP2 DUP2 LT PUSH8 0xFFFFFFFFFFFFFFFF DUP3 GT OR ISZERO PUSH2 0x4BD JUMPI PUSH2 0x4BC PUSH2 0x466 JUMP JUMPDEST JUMPDEST DUP1 PUSH1 0x40 MSTORE POP POP POP JUMP JUMPDEST PUSH1 0x0 PUSH2 0x4D0 PUSH2 0x437 JUMP JUMPDEST SWAP1 POP PUSH2 0x4DC DUP3 DUP3 PUSH2 0x495 JUMP JUMPDEST SWAP2 SWAP1 POP JUMP JUMPDEST PUSH1 0x0 PUSH8 0xFFFFFFFFFFFFFFFF DUP3 GT ISZERO PUSH2 0x4FC JUMPI PUSH2 0x4FB PUSH2 0x466 JUMP JUMPDEST JUMPDEST PUSH2 0x505 DUP3 PUSH2 0x455 JUMP JUMPDEST SWAP1 POP PUSH1 0x20 DUP2 ADD SWAP1 POP SWAP2 SWAP1 POP JUMP JUMPDEST DUP3 DUP2 DUP4 CALLDATACOPY PUSH1 0x0 DUP4 DUP4 ADD MSTORE POP POP POP JUMP JUMPDEST PUSH1 0x0 PUSH2 0x534 PUSH2 0x52F DUP5 PUSH2 0x4E1 JUMP JUMPDEST PUSH2 0x4C6 JUMP JUMPDEST SWAP1 POP DUP3 DUP2 MSTORE PUSH1 0x20 DUP2 ADD DUP5 DUP5 DUP5 ADD GT ISZERO PUSH2 0x550 JUMPI PUSH2 0x54F PUSH2 0x450 JUMP JUMPDEST JUMPDEST PUSH2 0x55B DUP5 DUP3 DUP6 PUSH2 0x512 JUMP JUMPDEST POP SWAP4 SWAP3 POP POP POP JUMP JUMPDEST PUSH1 0x0 DUP3 PUSH1 0x1F DUP4 ADD SLT PUSH2 0x578 JUMPI PUSH2 0x577 PUSH2 0x44B JUMP JUMPDEST JUMPDEST DUP2 CALLDATALOAD PUSH2 0x588 DUP5 DUP3 PUSH1 0x20 DUP7 ADD PUSH2 0x521 JUMP JUMPDEST SWAP2 POP POP SWAP3 SWAP2 POP POP JUMP JUMPDEST PUSH1 0x0 DUP2 ISZERO ISZERO SWAP1 POP SWAP2 SWAP1 POP JUMP JUMPDEST PUSH2 0x5A6 DUP2 PUSH2 0x591 JUMP JUMPDEST DUP2 EQ PUSH2 0x5B1 JUMPI PUSH1 0x0 DUP1 REVERT JUMPDEST POP JUMP JUMPDEST PUSH1 0x0 DUP2 CALLDATALOAD SWAP1 POP PUSH2 0x5C3 DUP2 PUSH2 0x59D JUMP JUMPDEST SWAP3 SWAP2 POP POP JUMP JUMPDEST PUSH1 0x0 DUP1 PUSH1 0x40 DUP4 DUP6 SUB SLT ISZERO PUSH2 0x5E0 JUMPI PUSH2 0x5DF PUSH2 0x441 JUMP JUMPDEST JUMPDEST PUSH1 0x0 DUP4 ADD CALLDATALOAD PUSH8 0xFFFFFFFFFFFFFFFF DUP2 GT ISZERO PUSH2 0x5FE JUMPI PUSH2 0x5FD PUSH2 0x446 JUMP JUMPDEST JUMPDEST PUSH2 0x60A DUP6 DUP3 DUP7 ADD PUSH2 0x563 JUMP JUMPDEST SWAP3 POP POP PUSH1 0x20 PUSH2 0x61B DUP6 DUP3 DUP7 ADD PUSH2 0x5B4 JUMP JUMPDEST SWAP2 POP POP SWAP3 POP SWAP3 SWAP1 POP JUMP JUMPDEST PUSH2 0x62E DUP2 PUSH2 0x403 JUMP JUMPDEST DUP2 EQ PUSH2 0x639 JUMPI PUSH1 0x0 DUP1 REVERT JUMPDEST POP JUMP JUMPDEST PUSH1 0x0 DUP2 CALLDATALOAD SWAP1 POP PUSH2 0x64B DUP2 PUSH2 0x625 JUMP JUMPDEST SWAP3 SWAP2 POP POP JUMP JUMPDEST PUSH1 0x0 PUSH1 0x20 DUP3 DUP5 SUB SLT ISZERO PUSH2 0x667 JUMPI PUSH2 0x666 PUSH2 0x441 JUMP JUMPDEST JUMPDEST PUSH1 0x0 PUSH2 0x675 DUP5 DUP3 DUP6 ADD PUSH2 0x63C JUMP JUMPDEST SWAP2 POP POP SWAP3 SWAP2 POP POP JUMP JUMPDEST PUSH1 0x0 DUP2 MLOAD SWAP1 POP SWAP2 SWAP1 POP JUMP JUMPDEST PUSH1 0x0 DUP3 DUP3 MSTORE PUSH1 0x20 DUP3 ADD SWAP1 POP SWAP3 SWAP2 POP POP JUMP JUMPDEST PUSH1 0x0 JUMPDEST DUP4 DUP2 LT ISZERO PUSH2 0x6B8 JUMPI DUP1 DUP3 ADD MLOAD DUP2 DUP5 ADD MSTORE PUSH1 0x20 DUP2 ADD SWAP1 POP PUSH2 0x69D JUMP JUMPDEST PUSH1 0x0 DUP5 DUP5 ADD MSTORE POP POP POP POP JUMP JUMPDEST PUSH1 0x0 PUSH2 0x6CF DUP3 PUSH2 0x67E JUMP JUMPDEST PUSH2 0x6D9 DUP2 DUP6 PUSH2 0x689 JUMP JUMPDEST SWAP4 POP PUSH2 0x6E9 DUP2 DUP6 PUSH1 0x20 DUP7 ADD PUSH2 0x69A JUMP JUMPDEST PUSH2 0x6F2 DUP2 PUSH2 0x455 JUMP JUMPDEST DUP5 ADD SWAP2 POP POP SWAP3 SWAP2 POP POP JUMP JUMPDEST PUSH1 0x0 PUSH20 0xFFFFFFFFFFFFFFFFFFFFFFFFFFFFFFFFFFFFFFFF DUP3 AND SWAP1 POP SWAP2 SWAP1 POP JUMP JUMPDEST PUSH1 0x0 PUSH2 0x728 DUP3 PUSH2 0x6FD JUMP JUMPDEST SWAP1 POP SWAP2 SWAP1 POP JUMP JUMPDEST PUSH2 0x738 DUP2 PUSH2 0x71D JUMP JUMPDEST DUP3 MSTORE POP POP JUMP JUMPDEST PUSH1 0x0 DUP2 MLOAD SWAP1 POP SWAP2 SWAP1 POP JUMP JUMPDEST PUSH1 0x0 DUP3 DUP3 MSTORE PUSH1 0x20 DUP3 ADD SWAP1 POP SWAP3 SWAP2 POP POP JUMP JUMPDEST PUSH1 0x0 DUP2 SWAP1 POP PUSH1 0x20 DUP3 ADD SWAP1 POP SWAP2 SWAP1 POP JUMP JUMPDEST PUSH1 0x0 DUP3 DUP3 MSTORE PUSH1 0x20 DUP3 ADD SWAP1 POP SWAP3 SWAP2 POP POP JUMP JUMPDEST PUSH1 0x0 PUSH2 0x786 DUP3 PUSH2 0x67E JUMP JUMPDEST PUSH2 0x790 DUP2 DUP6 PUSH2 0x76A JUMP JUMPDEST SWAP4 POP PUSH2 0x7A0 DUP2 DUP6 PUSH1 0x20 DUP7 ADD PUSH2 0x69A JUMP JUMPDEST PUSH2 0x7A9 DUP2 PUSH2 0x455 JUMP JUMPDEST DUP5 ADD SWAP2 POP POP SWAP3 SWAP2 POP POP JUMP JUMPDEST PUSH1 0x0 PUSH2 0x7C0 DUP4 DUP4 PUSH2 0x77B JUMP JUMPDEST SWAP1 POP SWAP3 SWAP2 POP POP JUMP JUMPDEST PUSH1 0x0 PUSH1 0x20 DUP3 ADD SWAP1 POP SWAP2 SWAP1 POP JUMP JUMPDEST PUSH1 0x0 PUSH2 0x7E0 DUP3 PUSH2 0x73E JUMP JUMPDEST PUSH2 0x7EA DUP2 DUP6 PUSH2 0x749 JUMP JUMPDEST SWAP4 POP DUP4 PUSH1 0x20 DUP3 MUL DUP6 ADD PUSH2 0x7FC DUP6 PUSH2 0x75A JUMP JUMPDEST DUP1 PUSH1 0x0 JUMPDEST DUP6 DUP2 LT ISZERO PUSH2 0x838 JUMPI DUP5 DUP5 SUB DUP10 MSTORE DUP2 MLOAD PUSH2 0x819 DUP6 DUP3 PUSH2 0x7B4 JUMP JUMPDEST SWAP5 POP PUSH2 0x824 DUP4 PUSH2 0x7C8 JUMP JUMPDEST SWAP3 POP PUSH1 0x20 DUP11 ADD SWAP10 POP POP PUSH1 0x1 DUP2 ADD SWAP1 POP PUSH2 0x800 JUMP JUMPDEST POP DUP3 SWAP8 POP DUP8 SWAP6 POP POP POP POP POP POP SWAP3 SWAP2 POP POP JUMP JUMPDEST PUSH1 0x0 PUSH1 0x60 DUP3 ADD SWAP1 POP DUP2 DUP2 SUB PUSH1 0x0 DUP4 ADD MSTORE PUSH2 0x864 DUP2 DUP7 PUSH2 0x6C4 JUMP JUMPDEST SWAP1 POP PUSH2 0x873 PUSH1 0x20 DUP4 ADD DUP6 PUSH2 0x72F JUMP JUMPDEST DUP2 DUP2 SUB PUSH1 0x40 DUP4 ADD MSTORE PUSH2 0x885 DUP2 DUP5 PUSH2 0x7D5 JUMP JUMPDEST SWAP1 POP SWAP5 SWAP4 POP POP POP POP JUMP JUMPDEST PUSH1 0x0 PUSH1 0x20 DUP3 DUP5 SUB SLT ISZERO PUSH2 0x8A5 JUMPI PUSH2 0x8A4 PUSH2 0x441 JUMP JUMPDEST JUMPDEST PUSH1 0x0 DUP3 ADD CALLDATALOAD PUSH8 0xFFFFFFFFFFFFFFFF DUP2 GT ISZERO PUSH2 0x8C3 JUMPI PUSH2 0x8C2 PUSH2 0x446 JUMP JUMPDEST JUMPDEST PUSH2 0x8CF DUP5 DUP3 DUP6 ADD PUSH2 0x563 JUMP JUMPDEST SWAP2 POP POP SWAP3 SWAP2 POP POP JUMP JUMPDEST PUSH1 0x0 DUP2 SWAP1 POP SWAP3 SWAP2 POP POP JUMP JUMPDEST PUSH1 0x0 PUSH2 0x8EE DUP3 PUSH2 0x67E JUMP JUMPDEST PUSH2 0x8F8 DUP2 DUP6 PUSH2 0x8D8 JUMP JUMPDEST SWAP4 POP PUSH2 0x908 DUP2 DUP6 PUSH1 0x20 DUP7 ADD PUSH2 0x69A JUMP JUMPDEST DUP1 DUP5 ADD SWAP2 POP POP SWAP3 SWAP2 POP POP JUMP JUMPDEST PUSH1 0x0 PUSH2 0x920 DUP3 DUP5 PUSH2 0x8E3 JUMP JUMPDEST SWAP2 POP DUP2 SWAP1 POP SWAP3 SWAP2 POP POP JUMP JUMPDEST PUSH32 0x4E487B7100000000000000000000000000000000000000000000000000000000 PUSH1 0x0 MSTORE PUSH1 0x11 PUSH1 0x4 MSTORE PUSH1 0x24 PUSH1 0x0 REVERT JUMPDEST PUSH1 0x0 PUSH2 0x965 DUP3 PUSH2 0x403 JUMP JUMPDEST SWAP2 POP PUSH32 0xFFFFFFFFFFFFFFFFFFFFFFFFFFFFFFFFFFFFFFFFFFFFFFFFFFFFFFFFFFFFFFFF DUP3 SUB PUSH2 0x997 JUMPI PUSH2 0x996 PUSH2 0x92B JUMP JUMPDEST JUMPDEST PUSH1 0x1 DUP3 ADD SWAP1 POP SWAP2 SWAP1 POP JUMP JUMPDEST PUSH32 0x4E487B7100000000000000000000000000000000000000000000000000000000 PUSH1 0x0 MSTORE PUSH1 0x32 PUSH1 0x4 MSTORE PUSH1 0x24 PUSH1 0x0 REVERT JUMPDEST PUSH32 0x4E487B7100000000000000000000000000000000000000000000000000000000 PUSH1 0x0 MSTORE PUSH1 0x22 PUSH1 0x4 MSTORE PUSH1 0x24 PUSH1 0x0 REVERT JUMPDEST PUSH1 0x0 PUSH1 0x2 DUP3 DIV SWAP1 POP PUSH1 0x1 DUP3 AND DUP1 PUSH2 0xA18 JUMPI PUSH1 0x7F DUP3 AND SWAP2 POP JUMPDEST PUSH1 0x20 DUP3 LT DUP2 SUB PUSH2 0xA2B JUMPI PUSH2 0xA2A PUSH2 0x9D1 JUMP JUMPDEST JUMPDEST POP SWAP2 SWAP1 POP JUMP JUMPDEST PUSH1 0x0 PUSH2 0xA3C DUP3 PUSH2 0x403 JUMP JUMPDEST SWAP2 POP PUSH2 0xA47 DUP4 PUSH2 0x403 JUMP JUMPDEST SWAP3 POP DUP3 DUP3 SUB SWAP1 POP DUP2 DUP2 GT ISZERO PUSH2 0xA5F JUMPI PUSH2 0xA5E PUSH2 0x92B JUMP JUMPDEST JUMPDEST SWAP3 SWAP2 POP POP JUMP JUMPDEST PUSH1 0x0 DUP2 SWAP1 POP DUP2 PUSH1 0x0 MSTORE PUSH1 0x20 PUSH1 0x0 KECCAK256 SWAP1 POP SWAP2 SWAP1 POP JUMP JUMPDEST PUSH1 0x0 PUSH1 0x20 PUSH1 0x1F DUP4 ADD DIV SWAP1 POP SWAP2 SWAP1 POP JUMP JUMPDEST PUSH1 0x0 DUP3 DUP3 SHL SWAP1 POP SWAP3 SWAP2 POP POP JUMP JUMPDEST PUSH1 0x0 PUSH1 0x8 DUP4 MUL PUSH2 0xAC7 PUSH32 0xFFFFFFFFFFFFFFFFFFFFFFFFFFFFFFFFFFFFFFFFFFFFFFFFFFFFFFFFFFFFFFFF DUP3 PUSH2 0xA8A JUMP JUMPDEST PUSH2 0xAD1 DUP7 DUP4 PUSH2 0xA8A JUMP JUMPDEST SWAP6 POP DUP1 NOT DUP5 AND SWAP4 POP DUP1 DUP7 AND DUP5 OR SWAP3 POP POP POP SWAP4 SWAP3 POP POP POP JUMP JUMPDEST PUSH1 0x0 DUP2 SWAP1 POP SWAP2 SWAP1 POP JUMP JUMPDEST PUSH1 0x0 PUSH2 0xB0E PUSH2 0xB09 PUSH2 0xB04 DUP5 PUSH2 0x403 JUMP JUMPDEST PUSH2 0xAE9 JUMP JUMPDEST PUSH2 0x403 JUMP JUMPDEST SWAP1 POP SWAP2 SWAP1 POP JUMP JUMPDEST PUSH1 0x0 DUP2 SWAP1 POP SWAP2 SWAP1 POP JUMP JUMPDEST PUSH2 0xB28 DUP4 PUSH2 0xAF3 JUMP JUMPDEST PUSH2 0xB3C PUSH2 0xB34 DUP3 PUSH2 0xB15 JUMP JUMPDEST DUP5 DUP5 SLOAD PUSH2 0xA97 JUMP JUMPDEST DUP3 SSTORE POP POP POP POP JUMP JUMPDEST PUSH1 0x0 SWAP1 JUMP JUMPDEST PUSH2 0xB51 PUSH2 0xB44 JUMP JUMPDEST PUSH2 0xB5C DUP2 DUP5 DUP5 PUSH2 0xB1F JUMP JUMPDEST POP POP POP JUMP JUMPDEST JUMPDEST DUP2 DUP2 LT ISZERO PUSH2 0xB80 JUMPI PUSH2 0xB75 PUSH1 0x0 DUP3 PUSH2 0xB49 JUMP JUMPDEST PUSH1 0x1 DUP2 ADD SWAP1 POP PUSH2 0xB62 JUMP JUMPDEST POP POP JUMP JUMPDEST PUSH1 0x1F DUP3 GT ISZERO PUSH2 0xBC5 JUMPI PUSH2 0xB96 DUP2 PUSH2 0xA65 JUMP JUMPDEST PUSH2 0xB9F DUP5 PUSH2 0xA7A JUMP JUMPDEST DUP2 ADD PUSH1 0x20 DUP6 LT ISZERO PUSH2 0xBAE JUMPI DUP2 SWAP1 POP JUMPDEST PUSH2 0xBC2 PUSH2 0xBBA DUP6 PUSH2 0xA7A JUMP JUMPDEST DUP4 ADD DUP3 PUSH2 0xB61 JUMP JUMPDEST POP POP JUMPDEST POP POP POP JUMP JUMPDEST PUSH1 0x0 DUP3 DUP3 SHR SWAP1 POP SWAP3 SWAP2 POP POP JUMP JUMPDEST PUSH1 0x0 PUSH2 0xBE8 PUSH1 0x0 NOT DUP5 PUSH1 0x8 MUL PUSH2 0xBCA JUMP JUMPDEST NOT DUP1 DUP4 AND SWAP2 POP POP SWAP3 SWAP2 POP POP JUMP JUMPDEST PUSH1 0x0 PUSH2 0xC01 DUP4 DUP4 PUSH2 0xBD7 JUMP JUMPDEST SWAP2 POP DUP3 PUSH1 0x2 MUL DUP3 OR SWAP1 POP SWAP3 SWAP2 POP POP JUMP JUMPDEST PUSH2 0xC1A DUP3 PUSH2 0x67E JUMP JUMPDEST PUSH8 0xFFFFFFFFFFFFFFFF DUP2 GT ISZERO PUSH2 0xC33 JUMPI PUSH2 0xC32 PUSH2 0x466 JUMP JUMPDEST JUMPDEST PUSH2 0xC3D DUP3 SLOAD PUSH2 0xA00 JUMP JUMPDEST PUSH2 0xC48 DUP3 DUP3 DUP6 PUSH2 0xB84 JUMP JUMPDEST PUSH1 0x0 PUSH1 0x20 SWAP1 POP PUSH1 0x1F DUP4 GT PUSH1 0x1 DUP2 EQ PUSH2 0xC7B JUMPI PUSH1 0x0 DUP5 ISZERO PUSH2 0xC69 JUMPI DUP3 DUP8 ADD MLOAD SWAP1 POP JUMPDEST PUSH2 0xC73 DUP6 DUP3 PUSH2 0xBF5 JUMP JUMPDEST DUP7 SSTORE POP PUSH2 0xCDB JUMP JUMPDEST PUSH1 0x1F NOT DUP5 AND PUSH2 0xC89 DUP7 PUSH2 0xA65 JUMP JUMPDEST PUSH1 0x0 JUMPDEST DUP3 DUP2 LT ISZERO PUSH2 0xCB1 JUMPI DUP5 DUP10 ADD MLOAD DUP3 SSTORE PUSH1 0x1 DUP3 ADD SWAP2 POP PUSH1 0x20 DUP6 ADD SWAP5 POP PUSH1 0x20 DUP2 ADD SWAP1 POP PUSH2 0xC8C JUMP JUMPDEST DUP7 DUP4 LT ISZERO PUSH2 0xCCE JUMPI DUP5 DUP10 ADD MLOAD PUSH2 0xCCA PUSH1 0x1F DUP10 AND DUP3 PUSH2 0xBD7 JUMP JUMPDEST DUP4 SSTORE POP JUMPDEST PUSH1 0x1 PUSH1 0x2 DUP9 MUL ADD DUP9 SSTORE POP POP POP JUMPDEST POP POP POP POP POP POP JUMP INVALID LOG2 PUSH5 0x6970667358 0x22 SLT KECCAK256 DUP14 0xD 0xEB SLOAD JUMPI SHR 0x2A PUSH30 0x7C5BE2BBA55ABBB6723FEB85771BA7531976BB43E428D19564736F6C6343 STOP ADDMOD SLT STOP CALLER "
		},
		"gasEstimates": {
			"creation": {
				"codeDepositCost": "670600",
				"executionCost": "702",
				"totalCost": "671302"
			},
			"external": {
				"getUser(uint256)": "infinite",
				"getUsers()": "2423",
				"setUser(string)": "infinite",
				"vote(string,bool)": "infinite"
			}
		},
		"methodIdentifiers": {
			"getUser(uint256)": "b0467deb",
			"getUsers()": "00ce8e3e",
			"setUser(string)": "d0020fad",
			"vote(string,bool)": "27d3410c"
		}
	},
	"abi": [
		{
			"inputs": [
				{
					"internalType": "uint256",
					"name": "_n",
					"type": "uint256"
				}
			],
			"name": "getUser",
			"outputs": [
				{
					"internalType": "string",
					"name": "",
					"type": "string"
				},
				{
					"internalType": "address",
					"name": "",
					"type": "address"
				},
				{
					"internalType": "string[]",
					"name": "",
					"type": "string[]"
				}
			],
			"stateMutability": "view",
			"type": "function"
		},
		{
			"inputs": [],
			"name": "getUsers",
			"outputs": [
				{
					"internalType": "uint256",
					"name": "",
					"type": "uint256"
				}
			],
			"stateMutability": "view",
			"type": "function"
		},
		{
			"inputs": [
				{
					"internalType": "string",
					"name": "_name",
					"type": "string"
				}
			],
			"name": "setUser",
			"outputs": [],
			"stateMutability": "nonpayable",
			"type": "function"
		},
		{
			"inputs": [
				{
					"internalType": "string",
					"name": "_title",
					"type": "string"
				},
				{
					"internalType": "bool",
					"name": "_vote",
					"type": "bool"
				}
			],
			"name": "vote",
			"outputs": [],
			"stateMutability": "nonpayable",
			"type": "function"
		}
	]
}