{
	"contracts/230531/note.sol": {
		"note": {
			"abi": [
				{
					"inputs": [
						{
							"internalType": "uint256",
							"name": "n",
							"type": "uint256"
						}
					],
					"name": "NineMultiplication",
					"outputs": [
						{
							"internalType": "string[]",
							"name": "",
							"type": "string[]"
						}
					],
					"stateMutability": "pure",
					"type": "function"
				}
			],
			"devdoc": {
				"kind": "dev",
				"methods": {},
				"version": 1
			},
			"evm": {
				"assembly": "    /* \"contracts/230531/note.sol\":354:746  contract note {... */\n  mstore(0x40, 0x80)\n  callvalue\n  dup1\n  iszero\n  tag_1\n  jumpi\n  0x00\n  dup1\n  revert\ntag_1:\n  pop\n  dataSize(sub_0)\n  dup1\n  dataOffset(sub_0)\n  0x00\n  codecopy\n  0x00\n  return\nstop\n\nsub_0: assembly {\n        /* \"contracts/230531/note.sol\":354:746  contract note {... */\n      mstore(0x40, 0x80)\n      callvalue\n      dup1\n      iszero\n      tag_1\n      jumpi\n      0x00\n      dup1\n      revert\n    tag_1:\n      pop\n      jumpi(tag_2, lt(calldatasize, 0x04))\n      shr(0xe0, calldataload(0x00))\n      dup1\n      0x7c81936a\n      eq\n      tag_3\n      jumpi\n    tag_2:\n      0x00\n      dup1\n      revert\n        /* \"contracts/230531/note.sol\":375:743  function NineMultiplication(uint n) public pure returns(string[] memory) {... */\n    tag_3:\n      tag_4\n      0x04\n      dup1\n      calldatasize\n      sub\n      dup2\n      add\n      swap1\n      tag_5\n      swap2\n      swap1\n      tag_6\n      jump\t// in\n    tag_5:\n      tag_7\n      jump\t// in\n    tag_4:\n      mload(0x40)\n      tag_8\n      swap2\n      swap1\n      tag_9\n      jump\t// in\n    tag_8:\n      mload(0x40)\n      dup1\n      swap2\n      sub\n      swap1\n      return\n    tag_7:\n        /* \"contracts/230531/note.sol\":431:446  string[] memory */\n      0x60\n        /* \"contracts/230531/note.sol\":469:470  0 */\n      0x00\n        /* \"contracts/230531/note.sol\":467:468  n */\n      dup3\n        /* \"contracts/230531/note.sol\":467:470  n>0 */\n      gt\n        /* \"contracts/230531/note.sol\":467:478  n>0 && n<10 */\n      dup1\n      iszero\n      tag_11\n      jumpi\n      pop\n        /* \"contracts/230531/note.sol\":476:478  10 */\n      0x0a\n        /* \"contracts/230531/note.sol\":474:475  n */\n      dup3\n        /* \"contracts/230531/note.sol\":474:478  n<10 */\n      lt\n        /* \"contracts/230531/note.sol\":467:478  n>0 && n<10 */\n    tag_11:\n        /* \"contracts/230531/note.sol\":459:479  require(n>0 && n<10) */\n      tag_12\n      jumpi\n      0x00\n      dup1\n      revert\n    tag_12:\n        /* \"contracts/230531/note.sol\":490:511  string[] memory Array */\n      0x00\n        /* \"contracts/230531/note.sol\":527:528  9 */\n      0x09\n        /* \"contracts/230531/note.sol\":514:529  new string[](9) */\n      0xffffffffffffffff\n      dup2\n      gt\n      iszero\n      tag_13\n      jumpi\n      tag_14\n      tag_15\n      jump\t// in\n    tag_14:\n    tag_13:\n      mload(0x40)\n      swap1\n      dup1\n      dup3\n      mstore\n      dup1\n      0x20\n      mul\n      0x20\n      add\n      dup3\n      add\n      0x40\n      mstore\n      dup1\n      iszero\n      tag_16\n      jumpi\n      dup2\n      0x20\n      add\n    tag_17:\n      0x60\n      dup2\n      mstore\n      0x20\n      add\n      swap1\n      0x01\n      swap1\n      sub\n      swap1\n      dup2\n      tag_17\n      jumpi\n      swap1\n      pop\n    tag_16:\n      pop\n        /* \"contracts/230531/note.sol\":490:529  string[] memory Array = new string[](9) */\n      swap1\n      pop\n        /* \"contracts/230531/note.sol\":544:550  uint i */\n      0x00\n        /* \"contracts/230531/note.sol\":540:711  for(uint i=0; i<9; i++) {... */\n    tag_18:\n        /* \"contracts/230531/note.sol\":556:557  9 */\n      0x09\n        /* \"contracts/230531/note.sol\":554:555  i */\n      dup2\n        /* \"contracts/230531/note.sol\":554:557  i<9 */\n      lt\n        /* \"contracts/230531/note.sol\":540:711  for(uint i=0; i<9; i++) {... */\n      iszero\n      tag_19\n      jumpi\n        /* \"contracts/230531/note.sol\":614:633  Strings.toString(n) */\n      tag_21\n        /* \"contracts/230531/note.sol\":631:632  n */\n      dup5\n        /* \"contracts/230531/note.sol\":614:630  Strings.toString */\n      tag_22\n        /* \"contracts/230531/note.sol\":614:633  Strings.toString(n) */\n      jump\t// in\n    tag_21:\n        /* \"contracts/230531/note.sol\":642:663  Strings.toString(i+1) */\n      tag_23\n        /* \"contracts/230531/note.sol\":661:662  1 */\n      0x01\n        /* \"contracts/230531/note.sol\":659:660  i */\n      dup4\n        /* \"contracts/230531/note.sol\":659:662  i+1 */\n      tag_24\n      swap2\n      swap1\n      tag_25\n      jump\t// in\n    tag_24:\n        /* \"contracts/230531/note.sol\":642:658  Strings.toString */\n      tag_22\n        /* \"contracts/230531/note.sol\":642:663  Strings.toString(i+1) */\n      jump\t// in\n    tag_23:\n        /* \"contracts/230531/note.sol\":672:697  Strings.toString(n*(i+1)) */\n      tag_26\n        /* \"contracts/230531/note.sol\":694:695  1 */\n      0x01\n        /* \"contracts/230531/note.sol\":692:693  i */\n      dup5\n        /* \"contracts/230531/note.sol\":692:695  i+1 */\n      tag_27\n      swap2\n      swap1\n      tag_25\n      jump\t// in\n    tag_27:\n        /* \"contracts/230531/note.sol\":689:690  n */\n      dup8\n        /* \"contracts/230531/note.sol\":689:696  n*(i+1) */\n      tag_28\n      swap2\n      swap1\n      tag_29\n      jump\t// in\n    tag_28:\n        /* \"contracts/230531/note.sol\":672:688  Strings.toString */\n      tag_22\n        /* \"contracts/230531/note.sol\":672:697  Strings.toString(n*(i+1)) */\n      jump\t// in\n    tag_26:\n        /* \"contracts/230531/note.sol\":597:698  abi.encodePacked(Strings.toString(n), ' X ', Strings.toString(i+1), ' = ', Strings.toString(n*(i+1))) */\n      add(0x20, mload(0x40))\n      tag_30\n      swap4\n      swap3\n      swap2\n      swap1\n      tag_31\n      jump\t// in\n    tag_30:\n      mload(0x40)\n      0x20\n      dup2\n      dup4\n      sub\n      sub\n      dup2\n      mstore\n      swap1\n      0x40\n      mstore\n        /* \"contracts/230531/note.sol\":579:584  Array */\n      dup3\n        /* \"contracts/230531/note.sol\":585:586  i */\n      dup3\n        /* \"contracts/230531/note.sol\":579:587  Array[i] */\n      dup2\n      mload\n      dup2\n      lt\n      tag_32\n      jumpi\n      tag_33\n      tag_34\n      jump\t// in\n    tag_33:\n    tag_32:\n      0x20\n      mul\n      0x20\n      add\n      add\n        /* \"contracts/230531/note.sol\":579:699  Array[i] = string(abi.encodePacked(Strings.toString(n), ' X ', Strings.toString(i+1), ' = ', Strings.toString(n*(i+1)))) */\n      dup2\n      swap1\n      mstore\n      pop\n        /* \"contracts/230531/note.sol\":559:562  i++ */\n      dup1\n      dup1\n      tag_35\n      swap1\n      tag_36\n      jump\t// in\n    tag_35:\n      swap2\n      pop\n      pop\n        /* \"contracts/230531/note.sol\":540:711  for(uint i=0; i<9; i++) {... */\n      jump(tag_18)\n    tag_19:\n      pop\n        /* \"contracts/230531/note.sol\":730:735  Array */\n      dup1\n        /* \"contracts/230531/note.sol\":723:735  return Array */\n      swap2\n      pop\n      pop\n        /* \"contracts/230531/note.sol\":375:743  function NineMultiplication(uint n) public pure returns(string[] memory) {... */\n      swap2\n      swap1\n      pop\n      jump\t// out\n        /* \"@openzeppelin/contracts/utils/Strings.sol\":415:1111  function toString(uint256 value) internal pure returns (string memory) {... */\n    tag_22:\n        /* \"@openzeppelin/contracts/utils/Strings.sol\":471:484  string memory */\n      0x60\n        /* \"@openzeppelin/contracts/utils/Strings.sol\":520:534  uint256 length */\n      0x00\n        /* \"@openzeppelin/contracts/utils/Strings.sol\":557:558  1 */\n      0x01\n        /* \"@openzeppelin/contracts/utils/Strings.sol\":537:554  Math.log10(value) */\n      tag_38\n        /* \"@openzeppelin/contracts/utils/Strings.sol\":548:553  value */\n      dup5\n        /* \"@openzeppelin/contracts/utils/Strings.sol\":537:547  Math.log10 */\n      tag_39\n        /* \"@openzeppelin/contracts/utils/Strings.sol\":537:554  Math.log10(value) */\n      jump\t// in\n    tag_38:\n        /* \"@openzeppelin/contracts/utils/Strings.sol\":537:558  Math.log10(value) + 1 */\n      add\n        /* \"@openzeppelin/contracts/utils/Strings.sol\":520:558  uint256 length = Math.log10(value) + 1 */\n      swap1\n      pop\n        /* \"@openzeppelin/contracts/utils/Strings.sol\":572:592  string memory buffer */\n      0x00\n        /* \"@openzeppelin/contracts/utils/Strings.sol\":606:612  length */\n      dup2\n        /* \"@openzeppelin/contracts/utils/Strings.sol\":595:613  new string(length) */\n      0xffffffffffffffff\n      dup2\n      gt\n      iszero\n      tag_40\n      jumpi\n      tag_41\n      tag_15\n      jump\t// in\n    tag_41:\n    tag_40:\n      mload(0x40)\n      swap1\n      dup1\n      dup3\n      mstore\n      dup1\n      0x1f\n      add\n      not(0x1f)\n      and\n      0x20\n      add\n      dup3\n      add\n      0x40\n      mstore\n      dup1\n      iszero\n      tag_42\n      jumpi\n      dup2\n      0x20\n      add\n      0x01\n      dup3\n      mul\n      dup1\n      calldatasize\n      dup4\n      calldatacopy\n      dup1\n      dup3\n      add\n      swap2\n      pop\n      pop\n      swap1\n      pop\n    tag_42:\n      pop\n        /* \"@openzeppelin/contracts/utils/Strings.sol\":572:613  string memory buffer = new string(length) */\n      swap1\n      pop\n        /* \"@openzeppelin/contracts/utils/Strings.sol\":627:638  uint256 ptr */\n      0x00\n        /* \"@openzeppelin/contracts/utils/Strings.sol\":753:759  length */\n      dup3\n        /* \"@openzeppelin/contracts/utils/Strings.sol\":749:751  32 */\n      0x20\n        /* \"@openzeppelin/contracts/utils/Strings.sol\":745:760  add(32, length) */\n      add\n        /* \"@openzeppelin/contracts/utils/Strings.sol\":737:743  buffer */\n      dup3\n        /* \"@openzeppelin/contracts/utils/Strings.sol\":733:761  add(buffer, add(32, length)) */\n      add\n        /* \"@openzeppelin/contracts/utils/Strings.sol\":726:761  ptr := add(buffer, add(32, length)) */\n      swap1\n      pop\n        /* \"@openzeppelin/contracts/utils/Strings.sol\":788:1068  while (true) {... */\n    tag_43:\n        /* \"@openzeppelin/contracts/utils/Strings.sol\":795:799  true */\n      0x01\n        /* \"@openzeppelin/contracts/utils/Strings.sol\":788:1068  while (true) {... */\n      iszero\n      tag_44\n      jumpi\n        /* \"@openzeppelin/contracts/utils/Strings.sol\":819:824  ptr-- */\n      dup1\n      dup1\n      0x01\n      swap1\n      sub\n      swap2\n      pop\n      pop\n        /* \"@openzeppelin/contracts/utils/Strings.sol\":958:966  _SYMBOLS */\n      0x3031323334353637383961626364656600000000000000000000000000000000\n        /* \"@openzeppelin/contracts/utils/Strings.sol\":953:955  10 */\n      0x0a\n        /* \"@openzeppelin/contracts/utils/Strings.sol\":946:951  value */\n      dup7\n        /* \"@openzeppelin/contracts/utils/Strings.sol\":942:956  mod(value, 10) */\n      mod\n        /* \"@openzeppelin/contracts/utils/Strings.sol\":937:967  byte(mod(value, 10), _SYMBOLS) */\n      byte\n        /* \"@openzeppelin/contracts/utils/Strings.sol\":932:935  ptr */\n      dup2\n        /* \"@openzeppelin/contracts/utils/Strings.sol\":924:968  mstore8(ptr, byte(mod(value, 10), _SYMBOLS)) */\n      mstore8\n        /* \"@openzeppelin/contracts/utils/Strings.sol\":1012:1014  10 */\n      0x0a\n        /* \"@openzeppelin/contracts/utils/Strings.sol\":1003:1014  value /= 10 */\n      dup6\n      dup2\n      tag_45\n      jumpi\n      tag_46\n      tag_47\n      jump\t// in\n    tag_46:\n    tag_45:\n      div\n      swap5\n      pop\n        /* \"@openzeppelin/contracts/utils/Strings.sol\":1045:1046  0 */\n      0x00\n        /* \"@openzeppelin/contracts/utils/Strings.sol\":1036:1041  value */\n      dup6\n        /* \"@openzeppelin/contracts/utils/Strings.sol\":1036:1046  value == 0 */\n      sub\n        /* \"@openzeppelin/contracts/utils/Strings.sol\":788:1068  while (true) {... */\n      tag_43\n        /* \"@openzeppelin/contracts/utils/Strings.sol\":1032:1053  if (value == 0) break */\n      jumpi\n        /* \"@openzeppelin/contracts/utils/Strings.sol\":788:1068  while (true) {... */\n    tag_44:\n        /* \"@openzeppelin/contracts/utils/Strings.sol\":1088:1094  buffer */\n      dup2\n        /* \"@openzeppelin/contracts/utils/Strings.sol\":1081:1094  return buffer */\n      swap4\n      pop\n      pop\n      pop\n      pop\n        /* \"@openzeppelin/contracts/utils/Strings.sol\":415:1111  function toString(uint256 value) internal pure returns (string memory) {... */\n      swap2\n      swap1\n      pop\n      jump\t// out\n        /* \"@openzeppelin/contracts/utils/math/Math.sol\":9889:10779  function log10(uint256 value) internal pure returns (uint256) {... */\n    tag_39:\n        /* \"@openzeppelin/contracts/utils/math/Math.sol\":9942:9949  uint256 */\n      0x00\n        /* \"@openzeppelin/contracts/utils/math/Math.sol\":9961:9975  uint256 result */\n      dup1\n        /* \"@openzeppelin/contracts/utils/math/Math.sol\":9978:9979  0 */\n      0x00\n        /* \"@openzeppelin/contracts/utils/math/Math.sol\":9961:9979  uint256 result = 0 */\n      swap1\n      pop\n        /* \"@openzeppelin/contracts/utils/math/Math.sol\":10026:10032  10**64 */\n      0x184f03e93ff9f4daa797ed6e38ed64bf6a1f010000000000000000\n        /* \"@openzeppelin/contracts/utils/math/Math.sol\":10017:10022  value */\n      dup4\n        /* \"@openzeppelin/contracts/utils/math/Math.sol\":10017:10032  value >= 10**64 */\n      lt\n        /* \"@openzeppelin/contracts/utils/math/Math.sol\":10013:10112  if (value >= 10**64) {... */\n      tag_50\n      jumpi\n        /* \"@openzeppelin/contracts/utils/math/Math.sol\":10061:10067  10**64 */\n      0x184f03e93ff9f4daa797ed6e38ed64bf6a1f010000000000000000\n        /* \"@openzeppelin/contracts/utils/math/Math.sol\":10052:10067  value /= 10**64 */\n      dup4\n      dup2\n      tag_51\n      jumpi\n      tag_52\n      tag_47\n      jump\t// in\n    tag_52:\n    tag_51:\n      div\n      swap3\n      pop\n        /* \"@openzeppelin/contracts/utils/math/Math.sol\":10095:10097  64 */\n      0x40\n        /* \"@openzeppelin/contracts/utils/math/Math.sol\":10085:10097  result += 64 */\n      dup2\n      add\n      swap1\n      pop\n        /* \"@openzeppelin/contracts/utils/math/Math.sol\":10013:10112  if (value >= 10**64) {... */\n    tag_50:\n        /* \"@openzeppelin/contracts/utils/math/Math.sol\":10138:10144  10**32 */\n      0x04ee2d6d415b85acef8100000000\n        /* \"@openzeppelin/contracts/utils/math/Math.sol\":10129:10134  value */\n      dup4\n        /* \"@openzeppelin/contracts/utils/math/Math.sol\":10129:10144  value >= 10**32 */\n      lt\n        /* \"@openzeppelin/contracts/utils/math/Math.sol\":10125:10224  if (value >= 10**32) {... */\n      tag_53\n      jumpi\n        /* \"@openzeppelin/contracts/utils/math/Math.sol\":10173:10179  10**32 */\n      0x04ee2d6d415b85acef8100000000\n        /* \"@openzeppelin/contracts/utils/math/Math.sol\":10164:10179  value /= 10**32 */\n      dup4\n      dup2\n      tag_54\n      jumpi\n      tag_55\n      tag_47\n      jump\t// in\n    tag_55:\n    tag_54:\n      div\n      swap3\n      pop\n        /* \"@openzeppelin/contracts/utils/math/Math.sol\":10207:10209  32 */\n      0x20\n        /* \"@openzeppelin/contracts/utils/math/Math.sol\":10197:10209  result += 32 */\n      dup2\n      add\n      swap1\n      pop\n        /* \"@openzeppelin/contracts/utils/math/Math.sol\":10125:10224  if (value >= 10**32) {... */\n    tag_53:\n        /* \"@openzeppelin/contracts/utils/math/Math.sol\":10250:10256  10**16 */\n      0x2386f26fc10000\n        /* \"@openzeppelin/contracts/utils/math/Math.sol\":10241:10246  value */\n      dup4\n        /* \"@openzeppelin/contracts/utils/math/Math.sol\":10241:10256  value >= 10**16 */\n      lt\n        /* \"@openzeppelin/contracts/utils/math/Math.sol\":10237:10336  if (value >= 10**16) {... */\n      tag_56\n      jumpi\n        /* \"@openzeppelin/contracts/utils/math/Math.sol\":10285:10291  10**16 */\n      0x2386f26fc10000\n        /* \"@openzeppelin/contracts/utils/math/Math.sol\":10276:10291  value /= 10**16 */\n      dup4\n      dup2\n      tag_57\n      jumpi\n      tag_58\n      tag_47\n      jump\t// in\n    tag_58:\n    tag_57:\n      div\n      swap3\n      pop\n        /* \"@openzeppelin/contracts/utils/math/Math.sol\":10319:10321  16 */\n      0x10\n        /* \"@openzeppelin/contracts/utils/math/Math.sol\":10309:10321  result += 16 */\n      dup2\n      add\n      swap1\n      pop\n        /* \"@openzeppelin/contracts/utils/math/Math.sol\":10237:10336  if (value >= 10**16) {... */\n    tag_56:\n        /* \"@openzeppelin/contracts/utils/math/Math.sol\":10362:10367  10**8 */\n      0x05f5e100\n        /* \"@openzeppelin/contracts/utils/math/Math.sol\":10353:10358  value */\n      dup4\n        /* \"@openzeppelin/contracts/utils/math/Math.sol\":10353:10367  value >= 10**8 */\n      lt\n        /* \"@openzeppelin/contracts/utils/math/Math.sol\":10349:10445  if (value >= 10**8) {... */\n      tag_59\n      jumpi\n        /* \"@openzeppelin/contracts/utils/math/Math.sol\":10396:10401  10**8 */\n      0x05f5e100\n        /* \"@openzeppelin/contracts/utils/math/Math.sol\":10387:10401  value /= 10**8 */\n      dup4\n      dup2\n      tag_60\n      jumpi\n      tag_61\n      tag_47\n      jump\t// in\n    tag_61:\n    tag_60:\n      div\n      swap3\n      pop\n        /* \"@openzeppelin/contracts/utils/math/Math.sol\":10429:10430  8 */\n      0x08\n        /* \"@openzeppelin/contracts/utils/math/Math.sol\":10419:10430  result += 8 */\n      dup2\n      add\n      swap1\n      pop\n        /* \"@openzeppelin/contracts/utils/math/Math.sol\":10349:10445  if (value >= 10**8) {... */\n    tag_59:\n        /* \"@openzeppelin/contracts/utils/math/Math.sol\":10471:10476  10**4 */\n      0x2710\n        /* \"@openzeppelin/contracts/utils/math/Math.sol\":10462:10467  value */\n      dup4\n        /* \"@openzeppelin/contracts/utils/math/Math.sol\":10462:10476  value >= 10**4 */\n      lt\n        /* \"@openzeppelin/contracts/utils/math/Math.sol\":10458:10554  if (value >= 10**4) {... */\n      tag_62\n      jumpi\n        /* \"@openzeppelin/contracts/utils/math/Math.sol\":10505:10510  10**4 */\n      0x2710\n        /* \"@openzeppelin/contracts/utils/math/Math.sol\":10496:10510  value /= 10**4 */\n      dup4\n      dup2\n      tag_63\n      jumpi\n      tag_64\n      tag_47\n      jump\t// in\n    tag_64:\n    tag_63:\n      div\n      swap3\n      pop\n        /* \"@openzeppelin/contracts/utils/math/Math.sol\":10538:10539  4 */\n      0x04\n        /* \"@openzeppelin/contracts/utils/math/Math.sol\":10528:10539  result += 4 */\n      dup2\n      add\n      swap1\n      pop\n        /* \"@openzeppelin/contracts/utils/math/Math.sol\":10458:10554  if (value >= 10**4) {... */\n    tag_62:\n        /* \"@openzeppelin/contracts/utils/math/Math.sol\":10580:10585  10**2 */\n      0x64\n        /* \"@openzeppelin/contracts/utils/math/Math.sol\":10571:10576  value */\n      dup4\n        /* \"@openzeppelin/contracts/utils/math/Math.sol\":10571:10585  value >= 10**2 */\n      lt\n        /* \"@openzeppelin/contracts/utils/math/Math.sol\":10567:10663  if (value >= 10**2) {... */\n      tag_65\n      jumpi\n        /* \"@openzeppelin/contracts/utils/math/Math.sol\":10614:10619  10**2 */\n      0x64\n        /* \"@openzeppelin/contracts/utils/math/Math.sol\":10605:10619  value /= 10**2 */\n      dup4\n      dup2\n      tag_66\n      jumpi\n      tag_67\n      tag_47\n      jump\t// in\n    tag_67:\n    tag_66:\n      div\n      swap3\n      pop\n        /* \"@openzeppelin/contracts/utils/math/Math.sol\":10647:10648  2 */\n      0x02\n        /* \"@openzeppelin/contracts/utils/math/Math.sol\":10637:10648  result += 2 */\n      dup2\n      add\n      swap1\n      pop\n        /* \"@openzeppelin/contracts/utils/math/Math.sol\":10567:10663  if (value >= 10**2) {... */\n    tag_65:\n        /* \"@openzeppelin/contracts/utils/math/Math.sol\":10689:10694  10**1 */\n      0x0a\n        /* \"@openzeppelin/contracts/utils/math/Math.sol\":10680:10685  value */\n      dup4\n        /* \"@openzeppelin/contracts/utils/math/Math.sol\":10680:10694  value >= 10**1 */\n      lt\n        /* \"@openzeppelin/contracts/utils/math/Math.sol\":10676:10740  if (value >= 10**1) {... */\n      tag_68\n      jumpi\n        /* \"@openzeppelin/contracts/utils/math/Math.sol\":10724:10725  1 */\n      0x01\n        /* \"@openzeppelin/contracts/utils/math/Math.sol\":10714:10725  result += 1 */\n      dup2\n      add\n      swap1\n      pop\n        /* \"@openzeppelin/contracts/utils/math/Math.sol\":10676:10740  if (value >= 10**1) {... */\n    tag_68:\n        /* \"@openzeppelin/contracts/utils/math/Math.sol\":10766:10772  result */\n      dup1\n        /* \"@openzeppelin/contracts/utils/math/Math.sol\":10759:10772  return result */\n      swap2\n      pop\n      pop\n        /* \"@openzeppelin/contracts/utils/math/Math.sol\":9889:10779  function log10(uint256 value) internal pure returns (uint256) {... */\n      swap2\n      swap1\n      pop\n      jump\t// out\n        /* \"#utility.yul\":88:205   */\n    tag_70:\n        /* \"#utility.yul\":197:198   */\n      0x00\n        /* \"#utility.yul\":194:195   */\n      dup1\n        /* \"#utility.yul\":187:199   */\n      revert\n        /* \"#utility.yul\":334:411   */\n    tag_72:\n        /* \"#utility.yul\":371:378   */\n      0x00\n        /* \"#utility.yul\":400:405   */\n      dup2\n        /* \"#utility.yul\":389:405   */\n      swap1\n      pop\n        /* \"#utility.yul\":334:411   */\n      swap2\n      swap1\n      pop\n      jump\t// out\n        /* \"#utility.yul\":417:539   */\n    tag_73:\n        /* \"#utility.yul\":490:514   */\n      tag_99\n        /* \"#utility.yul\":508:513   */\n      dup2\n        /* \"#utility.yul\":490:514   */\n      tag_72\n      jump\t// in\n    tag_99:\n        /* \"#utility.yul\":483:488   */\n      dup2\n        /* \"#utility.yul\":480:515   */\n      eq\n        /* \"#utility.yul\":470:533   */\n      tag_100\n      jumpi\n        /* \"#utility.yul\":529:530   */\n      0x00\n        /* \"#utility.yul\":526:527   */\n      dup1\n        /* \"#utility.yul\":519:531   */\n      revert\n        /* \"#utility.yul\":470:533   */\n    tag_100:\n        /* \"#utility.yul\":417:539   */\n      pop\n      jump\t// out\n        /* \"#utility.yul\":545:684   */\n    tag_74:\n        /* \"#utility.yul\":591:596   */\n      0x00\n        /* \"#utility.yul\":629:635   */\n      dup2\n        /* \"#utility.yul\":616:636   */\n      calldataload\n        /* \"#utility.yul\":607:636   */\n      swap1\n      pop\n        /* \"#utility.yul\":645:678   */\n      tag_102\n        /* \"#utility.yul\":672:677   */\n      dup2\n        /* \"#utility.yul\":645:678   */\n      tag_73\n      jump\t// in\n    tag_102:\n        /* \"#utility.yul\":545:684   */\n      swap3\n      swap2\n      pop\n      pop\n      jump\t// out\n        /* \"#utility.yul\":690:1019   */\n    tag_6:\n        /* \"#utility.yul\":749:755   */\n      0x00\n        /* \"#utility.yul\":798:800   */\n      0x20\n        /* \"#utility.yul\":786:795   */\n      dup3\n        /* \"#utility.yul\":777:784   */\n      dup5\n        /* \"#utility.yul\":773:796   */\n      sub\n        /* \"#utility.yul\":769:801   */\n      slt\n        /* \"#utility.yul\":766:885   */\n      iszero\n      tag_104\n      jumpi\n        /* \"#utility.yul\":804:883   */\n      tag_105\n      tag_70\n      jump\t// in\n    tag_105:\n        /* \"#utility.yul\":766:885   */\n    tag_104:\n        /* \"#utility.yul\":924:925   */\n      0x00\n        /* \"#utility.yul\":949:1002   */\n      tag_106\n        /* \"#utility.yul\":994:1001   */\n      dup5\n        /* \"#utility.yul\":985:991   */\n      dup3\n        /* \"#utility.yul\":974:983   */\n      dup6\n        /* \"#utility.yul\":970:992   */\n      add\n        /* \"#utility.yul\":949:1002   */\n      tag_74\n      jump\t// in\n    tag_106:\n        /* \"#utility.yul\":939:1002   */\n      swap2\n      pop\n        /* \"#utility.yul\":895:1012   */\n      pop\n        /* \"#utility.yul\":690:1019   */\n      swap3\n      swap2\n      pop\n      pop\n      jump\t// out\n        /* \"#utility.yul\":1025:1149   */\n    tag_75:\n        /* \"#utility.yul\":1102:1108   */\n      0x00\n        /* \"#utility.yul\":1136:1141   */\n      dup2\n        /* \"#utility.yul\":1130:1142   */\n      mload\n        /* \"#utility.yul\":1120:1142   */\n      swap1\n      pop\n        /* \"#utility.yul\":1025:1149   */\n      swap2\n      swap1\n      pop\n      jump\t// out\n        /* \"#utility.yul\":1155:1349   */\n    tag_76:\n        /* \"#utility.yul\":1264:1275   */\n      0x00\n        /* \"#utility.yul\":1298:1304   */\n      dup3\n        /* \"#utility.yul\":1293:1296   */\n      dup3\n        /* \"#utility.yul\":1286:1305   */\n      mstore\n        /* \"#utility.yul\":1338:1342   */\n      0x20\n        /* \"#utility.yul\":1333:1336   */\n      dup3\n        /* \"#utility.yul\":1329:1343   */\n      add\n        /* \"#utility.yul\":1314:1343   */\n      swap1\n      pop\n        /* \"#utility.yul\":1155:1349   */\n      swap3\n      swap2\n      pop\n      pop\n      jump\t// out\n        /* \"#utility.yul\":1355:1497   */\n    tag_77:\n        /* \"#utility.yul\":1432:1436   */\n      0x00\n        /* \"#utility.yul\":1455:1458   */\n      dup2\n        /* \"#utility.yul\":1447:1458   */\n      swap1\n      pop\n        /* \"#utility.yul\":1485:1489   */\n      0x20\n        /* \"#utility.yul\":1480:1483   */\n      dup3\n        /* \"#utility.yul\":1476:1490   */\n      add\n        /* \"#utility.yul\":1468:1490   */\n      swap1\n      pop\n        /* \"#utility.yul\":1355:1497   */\n      swap2\n      swap1\n      pop\n      jump\t// out\n        /* \"#utility.yul\":1503:1602   */\n    tag_78:\n        /* \"#utility.yul\":1555:1561   */\n      0x00\n        /* \"#utility.yul\":1589:1594   */\n      dup2\n        /* \"#utility.yul\":1583:1595   */\n      mload\n        /* \"#utility.yul\":1573:1595   */\n      swap1\n      pop\n        /* \"#utility.yul\":1503:1602   */\n      swap2\n      swap1\n      pop\n      jump\t// out\n        /* \"#utility.yul\":1608:1767   */\n    tag_79:\n        /* \"#utility.yul\":1682:1693   */\n      0x00\n        /* \"#utility.yul\":1716:1722   */\n      dup3\n        /* \"#utility.yul\":1711:1714   */\n      dup3\n        /* \"#utility.yul\":1704:1723   */\n      mstore\n        /* \"#utility.yul\":1756:1760   */\n      0x20\n        /* \"#utility.yul\":1751:1754   */\n      dup3\n        /* \"#utility.yul\":1747:1761   */\n      add\n        /* \"#utility.yul\":1732:1761   */\n      swap1\n      pop\n        /* \"#utility.yul\":1608:1767   */\n      swap3\n      swap2\n      pop\n      pop\n      jump\t// out\n        /* \"#utility.yul\":1773:2019   */\n    tag_80:\n        /* \"#utility.yul\":1854:1855   */\n      0x00\n        /* \"#utility.yul\":1864:1977   */\n    tag_113:\n        /* \"#utility.yul\":1878:1884   */\n      dup4\n        /* \"#utility.yul\":1875:1876   */\n      dup2\n        /* \"#utility.yul\":1872:1885   */\n      lt\n        /* \"#utility.yul\":1864:1977   */\n      iszero\n      tag_115\n      jumpi\n        /* \"#utility.yul\":1963:1964   */\n      dup1\n        /* \"#utility.yul\":1958:1961   */\n      dup3\n        /* \"#utility.yul\":1954:1965   */\n      add\n        /* \"#utility.yul\":1948:1966   */\n      mload\n        /* \"#utility.yul\":1944:1945   */\n      dup2\n        /* \"#utility.yul\":1939:1942   */\n      dup5\n        /* \"#utility.yul\":1935:1946   */\n      add\n        /* \"#utility.yul\":1928:1967   */\n      mstore\n        /* \"#utility.yul\":1900:1902   */\n      0x20\n        /* \"#utility.yul\":1897:1898   */\n      dup2\n        /* \"#utility.yul\":1893:1903   */\n      add\n        /* \"#utility.yul\":1888:1903   */\n      swap1\n      pop\n        /* \"#utility.yul\":1864:1977   */\n      jump(tag_113)\n    tag_115:\n        /* \"#utility.yul\":2011:2012   */\n      0x00\n        /* \"#utility.yul\":2002:2008   */\n      dup5\n        /* \"#utility.yul\":1997:2000   */\n      dup5\n        /* \"#utility.yul\":1993:2009   */\n      add\n        /* \"#utility.yul\":1986:2013   */\n      mstore\n        /* \"#utility.yul\":1835:2019   */\n      pop\n        /* \"#utility.yul\":1773:2019   */\n      pop\n      pop\n      pop\n      jump\t// out\n        /* \"#utility.yul\":2025:2127   */\n    tag_81:\n        /* \"#utility.yul\":2066:2072   */\n      0x00\n        /* \"#utility.yul\":2117:2119   */\n      0x1f\n        /* \"#utility.yul\":2113:2120   */\n      not\n        /* \"#utility.yul\":2108:2110   */\n      0x1f\n        /* \"#utility.yul\":2101:2106   */\n      dup4\n        /* \"#utility.yul\":2097:2111   */\n      add\n        /* \"#utility.yul\":2093:2121   */\n      and\n        /* \"#utility.yul\":2083:2121   */\n      swap1\n      pop\n        /* \"#utility.yul\":2025:2127   */\n      swap2\n      swap1\n      pop\n      jump\t// out\n        /* \"#utility.yul\":2133:2490   */\n    tag_82:\n        /* \"#utility.yul\":2211:2214   */\n      0x00\n        /* \"#utility.yul\":2239:2278   */\n      tag_118\n        /* \"#utility.yul\":2272:2277   */\n      dup3\n        /* \"#utility.yul\":2239:2278   */\n      tag_78\n      jump\t// in\n    tag_118:\n        /* \"#utility.yul\":2294:2355   */\n      tag_119\n        /* \"#utility.yul\":2348:2354   */\n      dup2\n        /* \"#utility.yul\":2343:2346   */\n      dup6\n        /* \"#utility.yul\":2294:2355   */\n      tag_79\n      jump\t// in\n    tag_119:\n        /* \"#utility.yul\":2287:2355   */\n      swap4\n      pop\n        /* \"#utility.yul\":2364:2429   */\n      tag_120\n        /* \"#utility.yul\":2422:2428   */\n      dup2\n        /* \"#utility.yul\":2417:2420   */\n      dup6\n        /* \"#utility.yul\":2410:2414   */\n      0x20\n        /* \"#utility.yul\":2403:2408   */\n      dup7\n        /* \"#utility.yul\":2399:2415   */\n      add\n        /* \"#utility.yul\":2364:2429   */\n      tag_80\n      jump\t// in\n    tag_120:\n        /* \"#utility.yul\":2454:2483   */\n      tag_121\n        /* \"#utility.yul\":2476:2482   */\n      dup2\n        /* \"#utility.yul\":2454:2483   */\n      tag_81\n      jump\t// in\n    tag_121:\n        /* \"#utility.yul\":2449:2452   */\n      dup5\n        /* \"#utility.yul\":2445:2484   */\n      add\n        /* \"#utility.yul\":2438:2484   */\n      swap2\n      pop\n        /* \"#utility.yul\":2215:2490   */\n      pop\n        /* \"#utility.yul\":2133:2490   */\n      swap3\n      swap2\n      pop\n      pop\n      jump\t// out\n        /* \"#utility.yul\":2496:2692   */\n    tag_83:\n        /* \"#utility.yul\":2585:2595   */\n      0x00\n        /* \"#utility.yul\":2620:2686   */\n      tag_123\n        /* \"#utility.yul\":2682:2685   */\n      dup4\n        /* \"#utility.yul\":2674:2680   */\n      dup4\n        /* \"#utility.yul\":2620:2686   */\n      tag_82\n      jump\t// in\n    tag_123:\n        /* \"#utility.yul\":2606:2686   */\n      swap1\n      pop\n        /* \"#utility.yul\":2496:2692   */\n      swap3\n      swap2\n      pop\n      pop\n      jump\t// out\n        /* \"#utility.yul\":2698:2821   */\n    tag_84:\n        /* \"#utility.yul\":2778:2782   */\n      0x00\n        /* \"#utility.yul\":2810:2814   */\n      0x20\n        /* \"#utility.yul\":2805:2808   */\n      dup3\n        /* \"#utility.yul\":2801:2815   */\n      add\n        /* \"#utility.yul\":2793:2815   */\n      swap1\n      pop\n        /* \"#utility.yul\":2698:2821   */\n      swap2\n      swap1\n      pop\n      jump\t// out\n        /* \"#utility.yul\":2855:3846   */\n    tag_85:\n        /* \"#utility.yul\":2994:2997   */\n      0x00\n        /* \"#utility.yul\":3023:3087   */\n      tag_126\n        /* \"#utility.yul\":3081:3086   */\n      dup3\n        /* \"#utility.yul\":3023:3087   */\n      tag_75\n      jump\t// in\n    tag_126:\n        /* \"#utility.yul\":3103:3199   */\n      tag_127\n        /* \"#utility.yul\":3192:3198   */\n      dup2\n        /* \"#utility.yul\":3187:3190   */\n      dup6\n        /* \"#utility.yul\":3103:3199   */\n      tag_76\n      jump\t// in\n    tag_127:\n        /* \"#utility.yul\":3096:3199   */\n      swap4\n      pop\n        /* \"#utility.yul\":3225:3228   */\n      dup4\n        /* \"#utility.yul\":3270:3274   */\n      0x20\n        /* \"#utility.yul\":3262:3268   */\n      dup3\n        /* \"#utility.yul\":3258:3275   */\n      mul\n        /* \"#utility.yul\":3253:3256   */\n      dup6\n        /* \"#utility.yul\":3249:3276   */\n      add\n        /* \"#utility.yul\":3300:3366   */\n      tag_128\n        /* \"#utility.yul\":3360:3365   */\n      dup6\n        /* \"#utility.yul\":3300:3366   */\n      tag_77\n      jump\t// in\n    tag_128:\n        /* \"#utility.yul\":3389:3396   */\n      dup1\n        /* \"#utility.yul\":3420:3421   */\n      0x00\n        /* \"#utility.yul\":3405:3801   */\n    tag_129:\n        /* \"#utility.yul\":3430:3436   */\n      dup6\n        /* \"#utility.yul\":3427:3428   */\n      dup2\n        /* \"#utility.yul\":3424:3437   */\n      lt\n        /* \"#utility.yul\":3405:3801   */\n      iszero\n      tag_131\n      jumpi\n        /* \"#utility.yul\":3501:3510   */\n      dup5\n        /* \"#utility.yul\":3495:3499   */\n      dup5\n        /* \"#utility.yul\":3491:3511   */\n      sub\n        /* \"#utility.yul\":3486:3489   */\n      dup10\n        /* \"#utility.yul\":3479:3512   */\n      mstore\n        /* \"#utility.yul\":3552:3558   */\n      dup2\n        /* \"#utility.yul\":3546:3559   */\n      mload\n        /* \"#utility.yul\":3580:3664   */\n      tag_132\n        /* \"#utility.yul\":3659:3663   */\n      dup6\n        /* \"#utility.yul\":3644:3657   */\n      dup3\n        /* \"#utility.yul\":3580:3664   */\n      tag_83\n      jump\t// in\n    tag_132:\n        /* \"#utility.yul\":3572:3664   */\n      swap5\n      pop\n        /* \"#utility.yul\":3687:3757   */\n      tag_133\n        /* \"#utility.yul\":3750:3756   */\n      dup4\n        /* \"#utility.yul\":3687:3757   */\n      tag_84\n      jump\t// in\n    tag_133:\n        /* \"#utility.yul\":3677:3757   */\n      swap3\n      pop\n        /* \"#utility.yul\":3786:3790   */\n      0x20\n        /* \"#utility.yul\":3781:3784   */\n      dup11\n        /* \"#utility.yul\":3777:3791   */\n      add\n        /* \"#utility.yul\":3770:3791   */\n      swap10\n      pop\n        /* \"#utility.yul\":3465:3801   */\n      pop\n        /* \"#utility.yul\":3452:3453   */\n      0x01\n        /* \"#utility.yul\":3449:3450   */\n      dup2\n        /* \"#utility.yul\":3445:3454   */\n      add\n        /* \"#utility.yul\":3440:3454   */\n      swap1\n      pop\n        /* \"#utility.yul\":3405:3801   */\n      jump(tag_129)\n    tag_131:\n        /* \"#utility.yul\":3409:3423   */\n      pop\n        /* \"#utility.yul\":3817:3821   */\n      dup3\n        /* \"#utility.yul\":3810:3821   */\n      swap8\n      pop\n        /* \"#utility.yul\":3837:3840   */\n      dup8\n        /* \"#utility.yul\":3830:3840   */\n      swap6\n      pop\n        /* \"#utility.yul\":2999:3846   */\n      pop\n      pop\n      pop\n      pop\n      pop\n        /* \"#utility.yul\":2855:3846   */\n      swap3\n      swap2\n      pop\n      pop\n      jump\t// out\n        /* \"#utility.yul\":3852:4265   */\n    tag_9:\n        /* \"#utility.yul\":4015:4019   */\n      0x00\n        /* \"#utility.yul\":4053:4055   */\n      0x20\n        /* \"#utility.yul\":4042:4051   */\n      dup3\n        /* \"#utility.yul\":4038:4056   */\n      add\n        /* \"#utility.yul\":4030:4056   */\n      swap1\n      pop\n        /* \"#utility.yul\":4102:4111   */\n      dup2\n        /* \"#utility.yul\":4096:4100   */\n      dup2\n        /* \"#utility.yul\":4092:4112   */\n      sub\n        /* \"#utility.yul\":4088:4089   */\n      0x00\n        /* \"#utility.yul\":4077:4086   */\n      dup4\n        /* \"#utility.yul\":4073:4090   */\n      add\n        /* \"#utility.yul\":4066:4113   */\n      mstore\n        /* \"#utility.yul\":4130:4258   */\n      tag_135\n        /* \"#utility.yul\":4253:4257   */\n      dup2\n        /* \"#utility.yul\":4244:4250   */\n      dup5\n        /* \"#utility.yul\":4130:4258   */\n      tag_85\n      jump\t// in\n    tag_135:\n        /* \"#utility.yul\":4122:4258   */\n      swap1\n      pop\n        /* \"#utility.yul\":3852:4265   */\n      swap3\n      swap2\n      pop\n      pop\n      jump\t// out\n        /* \"#utility.yul\":4271:4451   */\n    tag_15:\n        /* \"#utility.yul\":4319:4396   */\n      0x4e487b7100000000000000000000000000000000000000000000000000000000\n        /* \"#utility.yul\":4316:4317   */\n      0x00\n        /* \"#utility.yul\":4309:4397   */\n      mstore\n        /* \"#utility.yul\":4416:4420   */\n      0x41\n        /* \"#utility.yul\":4413:4414   */\n      0x04\n        /* \"#utility.yul\":4406:4421   */\n      mstore\n        /* \"#utility.yul\":4440:4444   */\n      0x24\n        /* \"#utility.yul\":4437:4438   */\n      0x00\n        /* \"#utility.yul\":4430:4445   */\n      revert\n        /* \"#utility.yul\":4457:4637   */\n    tag_86:\n        /* \"#utility.yul\":4505:4582   */\n      0x4e487b7100000000000000000000000000000000000000000000000000000000\n        /* \"#utility.yul\":4502:4503   */\n      0x00\n        /* \"#utility.yul\":4495:4583   */\n      mstore\n        /* \"#utility.yul\":4602:4606   */\n      0x11\n        /* \"#utility.yul\":4599:4600   */\n      0x04\n        /* \"#utility.yul\":4592:4607   */\n      mstore\n        /* \"#utility.yul\":4626:4630   */\n      0x24\n        /* \"#utility.yul\":4623:4624   */\n      0x00\n        /* \"#utility.yul\":4616:4631   */\n      revert\n        /* \"#utility.yul\":4643:4834   */\n    tag_25:\n        /* \"#utility.yul\":4683:4686   */\n      0x00\n        /* \"#utility.yul\":4702:4722   */\n      tag_139\n        /* \"#utility.yul\":4720:4721   */\n      dup3\n        /* \"#utility.yul\":4702:4722   */\n      tag_72\n      jump\t// in\n    tag_139:\n        /* \"#utility.yul\":4697:4722   */\n      swap2\n      pop\n        /* \"#utility.yul\":4736:4756   */\n      tag_140\n        /* \"#utility.yul\":4754:4755   */\n      dup4\n        /* \"#utility.yul\":4736:4756   */\n      tag_72\n      jump\t// in\n    tag_140:\n        /* \"#utility.yul\":4731:4756   */\n      swap3\n      pop\n        /* \"#utility.yul\":4779:4780   */\n      dup3\n        /* \"#utility.yul\":4776:4777   */\n      dup3\n        /* \"#utility.yul\":4772:4781   */\n      add\n        /* \"#utility.yul\":4765:4781   */\n      swap1\n      pop\n        /* \"#utility.yul\":4800:4803   */\n      dup1\n        /* \"#utility.yul\":4797:4798   */\n      dup3\n        /* \"#utility.yul\":4794:4804   */\n      gt\n        /* \"#utility.yul\":4791:4827   */\n      iszero\n      tag_141\n      jumpi\n        /* \"#utility.yul\":4807:4825   */\n      tag_142\n      tag_86\n      jump\t// in\n    tag_142:\n        /* \"#utility.yul\":4791:4827   */\n    tag_141:\n        /* \"#utility.yul\":4643:4834   */\n      swap3\n      swap2\n      pop\n      pop\n      jump\t// out\n        /* \"#utility.yul\":4840:5250   */\n    tag_29:\n        /* \"#utility.yul\":4880:4887   */\n      0x00\n        /* \"#utility.yul\":4903:4923   */\n      tag_144\n        /* \"#utility.yul\":4921:4922   */\n      dup3\n        /* \"#utility.yul\":4903:4923   */\n      tag_72\n      jump\t// in\n    tag_144:\n        /* \"#utility.yul\":4898:4923   */\n      swap2\n      pop\n        /* \"#utility.yul\":4937:4957   */\n      tag_145\n        /* \"#utility.yul\":4955:4956   */\n      dup4\n        /* \"#utility.yul\":4937:4957   */\n      tag_72\n      jump\t// in\n    tag_145:\n        /* \"#utility.yul\":4932:4957   */\n      swap3\n      pop\n        /* \"#utility.yul\":4992:4993   */\n      dup3\n        /* \"#utility.yul\":4989:4990   */\n      dup3\n        /* \"#utility.yul\":4985:4994   */\n      mul\n        /* \"#utility.yul\":5014:5044   */\n      tag_146\n        /* \"#utility.yul\":5032:5043   */\n      dup2\n        /* \"#utility.yul\":5014:5044   */\n      tag_72\n      jump\t// in\n    tag_146:\n        /* \"#utility.yul\":5003:5044   */\n      swap2\n      pop\n        /* \"#utility.yul\":5193:5194   */\n      dup3\n        /* \"#utility.yul\":5184:5191   */\n      dup3\n        /* \"#utility.yul\":5180:5195   */\n      div\n        /* \"#utility.yul\":5177:5178   */\n      dup5\n        /* \"#utility.yul\":5174:5196   */\n      eq\n        /* \"#utility.yul\":5154:5155   */\n      dup4\n        /* \"#utility.yul\":5147:5156   */\n      iszero\n        /* \"#utility.yul\":5127:5210   */\n      or\n        /* \"#utility.yul\":5104:5243   */\n      tag_147\n      jumpi\n        /* \"#utility.yul\":5223:5241   */\n      tag_148\n      tag_86\n      jump\t// in\n    tag_148:\n        /* \"#utility.yul\":5104:5243   */\n    tag_147:\n        /* \"#utility.yul\":4888:5250   */\n      pop\n        /* \"#utility.yul\":4840:5250   */\n      swap3\n      swap2\n      pop\n      pop\n      jump\t// out\n        /* \"#utility.yul\":5256:5404   */\n    tag_87:\n        /* \"#utility.yul\":5358:5369   */\n      0x00\n        /* \"#utility.yul\":5395:5398   */\n      dup2\n        /* \"#utility.yul\":5380:5398   */\n      swap1\n      pop\n        /* \"#utility.yul\":5256:5404   */\n      swap3\n      swap2\n      pop\n      pop\n      jump\t// out\n        /* \"#utility.yul\":5410:5800   */\n    tag_88:\n        /* \"#utility.yul\":5516:5519   */\n      0x00\n        /* \"#utility.yul\":5544:5583   */\n      tag_151\n        /* \"#utility.yul\":5577:5582   */\n      dup3\n        /* \"#utility.yul\":5544:5583   */\n      tag_78\n      jump\t// in\n    tag_151:\n        /* \"#utility.yul\":5599:5688   */\n      tag_152\n        /* \"#utility.yul\":5681:5687   */\n      dup2\n        /* \"#utility.yul\":5676:5679   */\n      dup6\n        /* \"#utility.yul\":5599:5688   */\n      tag_87\n      jump\t// in\n    tag_152:\n        /* \"#utility.yul\":5592:5688   */\n      swap4\n      pop\n        /* \"#utility.yul\":5697:5762   */\n      tag_153\n        /* \"#utility.yul\":5755:5761   */\n      dup2\n        /* \"#utility.yul\":5750:5753   */\n      dup6\n        /* \"#utility.yul\":5743:5747   */\n      0x20\n        /* \"#utility.yul\":5736:5741   */\n      dup7\n        /* \"#utility.yul\":5732:5748   */\n      add\n        /* \"#utility.yul\":5697:5762   */\n      tag_80\n      jump\t// in\n    tag_153:\n        /* \"#utility.yul\":5787:5793   */\n      dup1\n        /* \"#utility.yul\":5782:5785   */\n      dup5\n        /* \"#utility.yul\":5778:5794   */\n      add\n        /* \"#utility.yul\":5771:5794   */\n      swap2\n      pop\n        /* \"#utility.yul\":5520:5800   */\n      pop\n        /* \"#utility.yul\":5410:5800   */\n      swap3\n      swap2\n      pop\n      pop\n      jump\t// out\n        /* \"#utility.yul\":5806:5959   */\n    tag_89:\n        /* \"#utility.yul\":5946:5951   */\n      0x2058200000000000000000000000000000000000000000000000000000000000\n        /* \"#utility.yul\":5942:5943   */\n      0x00\n        /* \"#utility.yul\":5934:5940   */\n      dup3\n        /* \"#utility.yul\":5930:5944   */\n      add\n        /* \"#utility.yul\":5923:5952   */\n      mstore\n        /* \"#utility.yul\":5806:5959   */\n      pop\n      jump\t// out\n        /* \"#utility.yul\":5965:6365   */\n    tag_90:\n        /* \"#utility.yul\":6125:6128   */\n      0x00\n        /* \"#utility.yul\":6146:6230   */\n      tag_156\n        /* \"#utility.yul\":6228:6229   */\n      0x03\n        /* \"#utility.yul\":6223:6226   */\n      dup4\n        /* \"#utility.yul\":6146:6230   */\n      tag_87\n      jump\t// in\n    tag_156:\n        /* \"#utility.yul\":6139:6230   */\n      swap2\n      pop\n        /* \"#utility.yul\":6239:6332   */\n      tag_157\n        /* \"#utility.yul\":6328:6331   */\n      dup3\n        /* \"#utility.yul\":6239:6332   */\n      tag_89\n      jump\t// in\n    tag_157:\n        /* \"#utility.yul\":6357:6358   */\n      0x03\n        /* \"#utility.yul\":6352:6355   */\n      dup3\n        /* \"#utility.yul\":6348:6359   */\n      add\n        /* \"#utility.yul\":6341:6359   */\n      swap1\n      pop\n        /* \"#utility.yul\":5965:6365   */\n      swap2\n      swap1\n      pop\n      jump\t// out\n        /* \"#utility.yul\":6371:6524   */\n    tag_91:\n        /* \"#utility.yul\":6511:6516   */\n      0x203d200000000000000000000000000000000000000000000000000000000000\n        /* \"#utility.yul\":6507:6508   */\n      0x00\n        /* \"#utility.yul\":6499:6505   */\n      dup3\n        /* \"#utility.yul\":6495:6509   */\n      add\n        /* \"#utility.yul\":6488:6517   */\n      mstore\n        /* \"#utility.yul\":6371:6524   */\n      pop\n      jump\t// out\n        /* \"#utility.yul\":6530:6930   */\n    tag_92:\n        /* \"#utility.yul\":6690:6693   */\n      0x00\n        /* \"#utility.yul\":6711:6795   */\n      tag_160\n        /* \"#utility.yul\":6793:6794   */\n      0x03\n        /* \"#utility.yul\":6788:6791   */\n      dup4\n        /* \"#utility.yul\":6711:6795   */\n      tag_87\n      jump\t// in\n    tag_160:\n        /* \"#utility.yul\":6704:6795   */\n      swap2\n      pop\n        /* \"#utility.yul\":6804:6897   */\n      tag_161\n        /* \"#utility.yul\":6893:6896   */\n      dup3\n        /* \"#utility.yul\":6804:6897   */\n      tag_91\n      jump\t// in\n    tag_161:\n        /* \"#utility.yul\":6922:6923   */\n      0x03\n        /* \"#utility.yul\":6917:6920   */\n      dup3\n        /* \"#utility.yul\":6913:6924   */\n      add\n        /* \"#utility.yul\":6906:6924   */\n      swap1\n      pop\n        /* \"#utility.yul\":6530:6930   */\n      swap2\n      swap1\n      pop\n      jump\t// out\n        /* \"#utility.yul\":6936:8063   */\n    tag_31:\n        /* \"#utility.yul\":7366:7369   */\n      0x00\n        /* \"#utility.yul\":7388:7483   */\n      tag_163\n        /* \"#utility.yul\":7479:7482   */\n      dup3\n        /* \"#utility.yul\":7470:7476   */\n      dup7\n        /* \"#utility.yul\":7388:7483   */\n      tag_88\n      jump\t// in\n    tag_163:\n        /* \"#utility.yul\":7381:7483   */\n      swap2\n      pop\n        /* \"#utility.yul\":7500:7648   */\n      tag_164\n        /* \"#utility.yul\":7644:7647   */\n      dup3\n        /* \"#utility.yul\":7500:7648   */\n      tag_90\n      jump\t// in\n    tag_164:\n        /* \"#utility.yul\":7493:7648   */\n      swap2\n      pop\n        /* \"#utility.yul\":7665:7760   */\n      tag_165\n        /* \"#utility.yul\":7756:7759   */\n      dup3\n        /* \"#utility.yul\":7747:7753   */\n      dup6\n        /* \"#utility.yul\":7665:7760   */\n      tag_88\n      jump\t// in\n    tag_165:\n        /* \"#utility.yul\":7658:7760   */\n      swap2\n      pop\n        /* \"#utility.yul\":7777:7925   */\n      tag_166\n        /* \"#utility.yul\":7921:7924   */\n      dup3\n        /* \"#utility.yul\":7777:7925   */\n      tag_92\n      jump\t// in\n    tag_166:\n        /* \"#utility.yul\":7770:7925   */\n      swap2\n      pop\n        /* \"#utility.yul\":7942:8037   */\n      tag_167\n        /* \"#utility.yul\":8033:8036   */\n      dup3\n        /* \"#utility.yul\":8024:8030   */\n      dup5\n        /* \"#utility.yul\":7942:8037   */\n      tag_88\n      jump\t// in\n    tag_167:\n        /* \"#utility.yul\":7935:8037   */\n      swap2\n      pop\n        /* \"#utility.yul\":8054:8057   */\n      dup2\n        /* \"#utility.yul\":8047:8057   */\n      swap1\n      pop\n        /* \"#utility.yul\":6936:8063   */\n      swap5\n      swap4\n      pop\n      pop\n      pop\n      pop\n      jump\t// out\n        /* \"#utility.yul\":8069:8249   */\n    tag_34:\n        /* \"#utility.yul\":8117:8194   */\n      0x4e487b7100000000000000000000000000000000000000000000000000000000\n        /* \"#utility.yul\":8114:8115   */\n      0x00\n        /* \"#utility.yul\":8107:8195   */\n      mstore\n        /* \"#utility.yul\":8214:8218   */\n      0x32\n        /* \"#utility.yul\":8211:8212   */\n      0x04\n        /* \"#utility.yul\":8204:8219   */\n      mstore\n        /* \"#utility.yul\":8238:8242   */\n      0x24\n        /* \"#utility.yul\":8235:8236   */\n      0x00\n        /* \"#utility.yul\":8228:8243   */\n      revert\n        /* \"#utility.yul\":8255:8488   */\n    tag_36:\n        /* \"#utility.yul\":8294:8297   */\n      0x00\n        /* \"#utility.yul\":8317:8341   */\n      tag_170\n        /* \"#utility.yul\":8335:8340   */\n      dup3\n        /* \"#utility.yul\":8317:8341   */\n      tag_72\n      jump\t// in\n    tag_170:\n        /* \"#utility.yul\":8308:8341   */\n      swap2\n      pop\n        /* \"#utility.yul\":8363:8429   */\n      0xffffffffffffffffffffffffffffffffffffffffffffffffffffffffffffffff\n        /* \"#utility.yul\":8356:8361   */\n      dup3\n        /* \"#utility.yul\":8353:8430   */\n      sub\n        /* \"#utility.yul\":8350:8453   */\n      tag_171\n      jumpi\n        /* \"#utility.yul\":8433:8451   */\n      tag_172\n      tag_86\n      jump\t// in\n    tag_172:\n        /* \"#utility.yul\":8350:8453   */\n    tag_171:\n        /* \"#utility.yul\":8480:8481   */\n      0x01\n        /* \"#utility.yul\":8473:8478   */\n      dup3\n        /* \"#utility.yul\":8469:8482   */\n      add\n        /* \"#utility.yul\":8462:8482   */\n      swap1\n      pop\n        /* \"#utility.yul\":8255:8488   */\n      swap2\n      swap1\n      pop\n      jump\t// out\n        /* \"#utility.yul\":8494:8674   */\n    tag_47:\n        /* \"#utility.yul\":8542:8619   */\n      0x4e487b7100000000000000000000000000000000000000000000000000000000\n        /* \"#utility.yul\":8539:8540   */\n      0x00\n        /* \"#utility.yul\":8532:8620   */\n      mstore\n        /* \"#utility.yul\":8639:8643   */\n      0x12\n        /* \"#utility.yul\":8636:8637   */\n      0x04\n        /* \"#utility.yul\":8629:8644   */\n      mstore\n        /* \"#utility.yul\":8663:8667   */\n      0x24\n        /* \"#utility.yul\":8660:8661   */\n      0x00\n        /* \"#utility.yul\":8653:8668   */\n      revert\n\n    auxdata: 0xa26469706673582212200d84bac5b1f0dd93ab132685825bc083783dcd90783cac34a5f4befec715490864736f6c63430008120033\n}\n",
				"bytecode": {
					"linkReferences": {},
					"object": "608060405234801561001057600080fd5b5061083c806100206000396000f3fe608060405234801561001057600080fd5b506004361061002b5760003560e01c80637c81936a14610030575b600080fd5b61004a600480360381019061004591906103d0565b610060565b604051610057919061054f565b60405180910390f35b60606000821180156100725750600a82105b61007b57600080fd5b6000600967ffffffffffffffff81111561009857610097610571565b5b6040519080825280602002602001820160405280156100cb57816020015b60608152602001906001900390816100b65790505b50905060005b600981101561016a576100e384610174565b6100f86001836100f391906105cf565b610174565b61011860018461010891906105cf565b876101139190610603565b610174565b60405160200161012a93929190610719565b60405160208183030381529060405282828151811061014c5761014b610760565b5b602002602001018190525080806101629061078f565b9150506100d1565b5080915050919050565b60606000600161018384610242565b01905060008167ffffffffffffffff8111156101a2576101a1610571565b5b6040519080825280601f01601f1916602001820160405280156101d45781602001600182028036833780820191505090505b509050600082602001820190505b600115610237578080600190039150507f3031323334353637383961626364656600000000000000000000000000000000600a86061a8153600a858161022b5761022a6107d7565b5b049450600085036101e2575b819350505050919050565b600080600090507a184f03e93ff9f4daa797ed6e38ed64bf6a1f01000000000000000083106102a0577a184f03e93ff9f4daa797ed6e38ed64bf6a1f0100000000000000008381610296576102956107d7565b5b0492506040810190505b6d04ee2d6d415b85acef810000000083106102dd576d04ee2d6d415b85acef810000000083816102d3576102d26107d7565b5b0492506020810190505b662386f26fc10000831061030c57662386f26fc100008381610302576103016107d7565b5b0492506010810190505b6305f5e1008310610335576305f5e100838161032b5761032a6107d7565b5b0492506008810190505b612710831061035a5761271083816103505761034f6107d7565b5b0492506004810190505b6064831061037d5760648381610373576103726107d7565b5b0492506002810190505b600a831061038c576001810190505b80915050919050565b600080fd5b6000819050919050565b6103ad8161039a565b81146103b857600080fd5b50565b6000813590506103ca816103a4565b92915050565b6000602082840312156103e6576103e5610395565b5b60006103f4848285016103bb565b91505092915050565b600081519050919050565b600082825260208201905092915050565b6000819050602082019050919050565b600081519050919050565b600082825260208201905092915050565b60005b83811015610463578082015181840152602081019050610448565b60008484015250505050565b6000601f19601f8301169050919050565b600061048b82610429565b6104958185610434565b93506104a5818560208601610445565b6104ae8161046f565b840191505092915050565b60006104c58383610480565b905092915050565b6000602082019050919050565b60006104e5826103fd565b6104ef8185610408565b93508360208202850161050185610419565b8060005b8581101561053d578484038952815161051e85826104b9565b9450610529836104cd565b925060208a01995050600181019050610505565b50829750879550505050505092915050565b6000602082019050818103600083015261056981846104da565b905092915050565b7f4e487b7100000000000000000000000000000000000000000000000000000000600052604160045260246000fd5b7f4e487b7100000000000000000000000000000000000000000000000000000000600052601160045260246000fd5b60006105da8261039a565b91506105e58361039a565b92508282019050808211156105fd576105fc6105a0565b5b92915050565b600061060e8261039a565b91506106198361039a565b92508282026106278161039a565b9150828204841483151761063e5761063d6105a0565b5b5092915050565b600081905092915050565b600061065b82610429565b6106658185610645565b9350610675818560208601610445565b80840191505092915050565b7f2058200000000000000000000000000000000000000000000000000000000000600082015250565b60006106b7600383610645565b91506106c282610681565b600382019050919050565b7f203d200000000000000000000000000000000000000000000000000000000000600082015250565b6000610703600383610645565b915061070e826106cd565b600382019050919050565b60006107258286610650565b9150610730826106aa565b915061073c8285610650565b9150610747826106f6565b91506107538284610650565b9150819050949350505050565b7f4e487b7100000000000000000000000000000000000000000000000000000000600052603260045260246000fd5b600061079a8261039a565b91507fffffffffffffffffffffffffffffffffffffffffffffffffffffffffffffffff82036107cc576107cb6105a0565b5b600182019050919050565b7f4e487b7100000000000000000000000000000000000000000000000000000000600052601260045260246000fdfea26469706673582212200d84bac5b1f0dd93ab132685825bc083783dcd90783cac34a5f4befec715490864736f6c63430008120033",
					"opcodes": "PUSH1 0x80 PUSH1 0x40 MSTORE CALLVALUE DUP1 ISZERO PUSH2 0x10 JUMPI PUSH1 0x0 DUP1 REVERT JUMPDEST POP PUSH2 0x83C DUP1 PUSH2 0x20 PUSH1 0x0 CODECOPY PUSH1 0x0 RETURN INVALID PUSH1 0x80 PUSH1 0x40 MSTORE CALLVALUE DUP1 ISZERO PUSH2 0x10 JUMPI PUSH1 0x0 DUP1 REVERT JUMPDEST POP PUSH1 0x4 CALLDATASIZE LT PUSH2 0x2B JUMPI PUSH1 0x0 CALLDATALOAD PUSH1 0xE0 SHR DUP1 PUSH4 0x7C81936A EQ PUSH2 0x30 JUMPI JUMPDEST PUSH1 0x0 DUP1 REVERT JUMPDEST PUSH2 0x4A PUSH1 0x4 DUP1 CALLDATASIZE SUB DUP2 ADD SWAP1 PUSH2 0x45 SWAP2 SWAP1 PUSH2 0x3D0 JUMP JUMPDEST PUSH2 0x60 JUMP JUMPDEST PUSH1 0x40 MLOAD PUSH2 0x57 SWAP2 SWAP1 PUSH2 0x54F JUMP JUMPDEST PUSH1 0x40 MLOAD DUP1 SWAP2 SUB SWAP1 RETURN JUMPDEST PUSH1 0x60 PUSH1 0x0 DUP3 GT DUP1 ISZERO PUSH2 0x72 JUMPI POP PUSH1 0xA DUP3 LT JUMPDEST PUSH2 0x7B JUMPI PUSH1 0x0 DUP1 REVERT JUMPDEST PUSH1 0x0 PUSH1 0x9 PUSH8 0xFFFFFFFFFFFFFFFF DUP2 GT ISZERO PUSH2 0x98 JUMPI PUSH2 0x97 PUSH2 0x571 JUMP JUMPDEST JUMPDEST PUSH1 0x40 MLOAD SWAP1 DUP1 DUP3 MSTORE DUP1 PUSH1 0x20 MUL PUSH1 0x20 ADD DUP3 ADD PUSH1 0x40 MSTORE DUP1 ISZERO PUSH2 0xCB JUMPI DUP2 PUSH1 0x20 ADD JUMPDEST PUSH1 0x60 DUP2 MSTORE PUSH1 0x20 ADD SWAP1 PUSH1 0x1 SWAP1 SUB SWAP1 DUP2 PUSH2 0xB6 JUMPI SWAP1 POP JUMPDEST POP SWAP1 POP PUSH1 0x0 JUMPDEST PUSH1 0x9 DUP2 LT ISZERO PUSH2 0x16A JUMPI PUSH2 0xE3 DUP5 PUSH2 0x174 JUMP JUMPDEST PUSH2 0xF8 PUSH1 0x1 DUP4 PUSH2 0xF3 SWAP2 SWAP1 PUSH2 0x5CF JUMP JUMPDEST PUSH2 0x174 JUMP JUMPDEST PUSH2 0x118 PUSH1 0x1 DUP5 PUSH2 0x108 SWAP2 SWAP1 PUSH2 0x5CF JUMP JUMPDEST DUP8 PUSH2 0x113 SWAP2 SWAP1 PUSH2 0x603 JUMP JUMPDEST PUSH2 0x174 JUMP JUMPDEST PUSH1 0x40 MLOAD PUSH1 0x20 ADD PUSH2 0x12A SWAP4 SWAP3 SWAP2 SWAP1 PUSH2 0x719 JUMP JUMPDEST PUSH1 0x40 MLOAD PUSH1 0x20 DUP2 DUP4 SUB SUB DUP2 MSTORE SWAP1 PUSH1 0x40 MSTORE DUP3 DUP3 DUP2 MLOAD DUP2 LT PUSH2 0x14C JUMPI PUSH2 0x14B PUSH2 0x760 JUMP JUMPDEST JUMPDEST PUSH1 0x20 MUL PUSH1 0x20 ADD ADD DUP2 SWAP1 MSTORE POP DUP1 DUP1 PUSH2 0x162 SWAP1 PUSH2 0x78F JUMP JUMPDEST SWAP2 POP POP PUSH2 0xD1 JUMP JUMPDEST POP DUP1 SWAP2 POP POP SWAP2 SWAP1 POP JUMP JUMPDEST PUSH1 0x60 PUSH1 0x0 PUSH1 0x1 PUSH2 0x183 DUP5 PUSH2 0x242 JUMP JUMPDEST ADD SWAP1 POP PUSH1 0x0 DUP2 PUSH8 0xFFFFFFFFFFFFFFFF DUP2 GT ISZERO PUSH2 0x1A2 JUMPI PUSH2 0x1A1 PUSH2 0x571 JUMP JUMPDEST JUMPDEST PUSH1 0x40 MLOAD SWAP1 DUP1 DUP3 MSTORE DUP1 PUSH1 0x1F ADD PUSH1 0x1F NOT AND PUSH1 0x20 ADD DUP3 ADD PUSH1 0x40 MSTORE DUP1 ISZERO PUSH2 0x1D4 JUMPI DUP2 PUSH1 0x20 ADD PUSH1 0x1 DUP3 MUL DUP1 CALLDATASIZE DUP4 CALLDATACOPY DUP1 DUP3 ADD SWAP2 POP POP SWAP1 POP JUMPDEST POP SWAP1 POP PUSH1 0x0 DUP3 PUSH1 0x20 ADD DUP3 ADD SWAP1 POP JUMPDEST PUSH1 0x1 ISZERO PUSH2 0x237 JUMPI DUP1 DUP1 PUSH1 0x1 SWAP1 SUB SWAP2 POP POP PUSH32 0x3031323334353637383961626364656600000000000000000000000000000000 PUSH1 0xA DUP7 MOD BYTE DUP2 MSTORE8 PUSH1 0xA DUP6 DUP2 PUSH2 0x22B JUMPI PUSH2 0x22A PUSH2 0x7D7 JUMP JUMPDEST JUMPDEST DIV SWAP5 POP PUSH1 0x0 DUP6 SUB PUSH2 0x1E2 JUMPI JUMPDEST DUP2 SWAP4 POP POP POP POP SWAP2 SWAP1 POP JUMP JUMPDEST PUSH1 0x0 DUP1 PUSH1 0x0 SWAP1 POP PUSH27 0x184F03E93FF9F4DAA797ED6E38ED64BF6A1F010000000000000000 DUP4 LT PUSH2 0x2A0 JUMPI PUSH27 0x184F03E93FF9F4DAA797ED6E38ED64BF6A1F010000000000000000 DUP4 DUP2 PUSH2 0x296 JUMPI PUSH2 0x295 PUSH2 0x7D7 JUMP JUMPDEST JUMPDEST DIV SWAP3 POP PUSH1 0x40 DUP2 ADD SWAP1 POP JUMPDEST PUSH14 0x4EE2D6D415B85ACEF8100000000 DUP4 LT PUSH2 0x2DD JUMPI PUSH14 0x4EE2D6D415B85ACEF8100000000 DUP4 DUP2 PUSH2 0x2D3 JUMPI PUSH2 0x2D2 PUSH2 0x7D7 JUMP JUMPDEST JUMPDEST DIV SWAP3 POP PUSH1 0x20 DUP2 ADD SWAP1 POP JUMPDEST PUSH7 0x2386F26FC10000 DUP4 LT PUSH2 0x30C JUMPI PUSH7 0x2386F26FC10000 DUP4 DUP2 PUSH2 0x302 JUMPI PUSH2 0x301 PUSH2 0x7D7 JUMP JUMPDEST JUMPDEST DIV SWAP3 POP PUSH1 0x10 DUP2 ADD SWAP1 POP JUMPDEST PUSH4 0x5F5E100 DUP4 LT PUSH2 0x335 JUMPI PUSH4 0x5F5E100 DUP4 DUP2 PUSH2 0x32B JUMPI PUSH2 0x32A PUSH2 0x7D7 JUMP JUMPDEST JUMPDEST DIV SWAP3 POP PUSH1 0x8 DUP2 ADD SWAP1 POP JUMPDEST PUSH2 0x2710 DUP4 LT PUSH2 0x35A JUMPI PUSH2 0x2710 DUP4 DUP2 PUSH2 0x350 JUMPI PUSH2 0x34F PUSH2 0x7D7 JUMP JUMPDEST JUMPDEST DIV SWAP3 POP PUSH1 0x4 DUP2 ADD SWAP1 POP JUMPDEST PUSH1 0x64 DUP4 LT PUSH2 0x37D JUMPI PUSH1 0x64 DUP4 DUP2 PUSH2 0x373 JUMPI PUSH2 0x372 PUSH2 0x7D7 JUMP JUMPDEST JUMPDEST DIV SWAP3 POP PUSH1 0x2 DUP2 ADD SWAP1 POP JUMPDEST PUSH1 0xA DUP4 LT PUSH2 0x38C JUMPI PUSH1 0x1 DUP2 ADD SWAP1 POP JUMPDEST DUP1 SWAP2 POP POP SWAP2 SWAP1 POP JUMP JUMPDEST PUSH1 0x0 DUP1 REVERT JUMPDEST PUSH1 0x0 DUP2 SWAP1 POP SWAP2 SWAP1 POP JUMP JUMPDEST PUSH2 0x3AD DUP2 PUSH2 0x39A JUMP JUMPDEST DUP2 EQ PUSH2 0x3B8 JUMPI PUSH1 0x0 DUP1 REVERT JUMPDEST POP JUMP JUMPDEST PUSH1 0x0 DUP2 CALLDATALOAD SWAP1 POP PUSH2 0x3CA DUP2 PUSH2 0x3A4 JUMP JUMPDEST SWAP3 SWAP2 POP POP JUMP JUMPDEST PUSH1 0x0 PUSH1 0x20 DUP3 DUP5 SUB SLT ISZERO PUSH2 0x3E6 JUMPI PUSH2 0x3E5 PUSH2 0x395 JUMP JUMPDEST JUMPDEST PUSH1 0x0 PUSH2 0x3F4 DUP5 DUP3 DUP6 ADD PUSH2 0x3BB JUMP JUMPDEST SWAP2 POP POP SWAP3 SWAP2 POP POP JUMP JUMPDEST PUSH1 0x0 DUP2 MLOAD SWAP1 POP SWAP2 SWAP1 POP JUMP JUMPDEST PUSH1 0x0 DUP3 DUP3 MSTORE PUSH1 0x20 DUP3 ADD SWAP1 POP SWAP3 SWAP2 POP POP JUMP JUMPDEST PUSH1 0x0 DUP2 SWAP1 POP PUSH1 0x20 DUP3 ADD SWAP1 POP SWAP2 SWAP1 POP JUMP JUMPDEST PUSH1 0x0 DUP2 MLOAD SWAP1 POP SWAP2 SWAP1 POP JUMP JUMPDEST PUSH1 0x0 DUP3 DUP3 MSTORE PUSH1 0x20 DUP3 ADD SWAP1 POP SWAP3 SWAP2 POP POP JUMP JUMPDEST PUSH1 0x0 JUMPDEST DUP4 DUP2 LT ISZERO PUSH2 0x463 JUMPI DUP1 DUP3 ADD MLOAD DUP2 DUP5 ADD MSTORE PUSH1 0x20 DUP2 ADD SWAP1 POP PUSH2 0x448 JUMP JUMPDEST PUSH1 0x0 DUP5 DUP5 ADD MSTORE POP POP POP POP JUMP JUMPDEST PUSH1 0x0 PUSH1 0x1F NOT PUSH1 0x1F DUP4 ADD AND SWAP1 POP SWAP2 SWAP1 POP JUMP JUMPDEST PUSH1 0x0 PUSH2 0x48B DUP3 PUSH2 0x429 JUMP JUMPDEST PUSH2 0x495 DUP2 DUP6 PUSH2 0x434 JUMP JUMPDEST SWAP4 POP PUSH2 0x4A5 DUP2 DUP6 PUSH1 0x20 DUP7 ADD PUSH2 0x445 JUMP JUMPDEST PUSH2 0x4AE DUP2 PUSH2 0x46F JUMP JUMPDEST DUP5 ADD SWAP2 POP POP SWAP3 SWAP2 POP POP JUMP JUMPDEST PUSH1 0x0 PUSH2 0x4C5 DUP4 DUP4 PUSH2 0x480 JUMP JUMPDEST SWAP1 POP SWAP3 SWAP2 POP POP JUMP JUMPDEST PUSH1 0x0 PUSH1 0x20 DUP3 ADD SWAP1 POP SWAP2 SWAP1 POP JUMP JUMPDEST PUSH1 0x0 PUSH2 0x4E5 DUP3 PUSH2 0x3FD JUMP JUMPDEST PUSH2 0x4EF DUP2 DUP6 PUSH2 0x408 JUMP JUMPDEST SWAP4 POP DUP4 PUSH1 0x20 DUP3 MUL DUP6 ADD PUSH2 0x501 DUP6 PUSH2 0x419 JUMP JUMPDEST DUP1 PUSH1 0x0 JUMPDEST DUP6 DUP2 LT ISZERO PUSH2 0x53D JUMPI DUP5 DUP5 SUB DUP10 MSTORE DUP2 MLOAD PUSH2 0x51E DUP6 DUP3 PUSH2 0x4B9 JUMP JUMPDEST SWAP5 POP PUSH2 0x529 DUP4 PUSH2 0x4CD JUMP JUMPDEST SWAP3 POP PUSH1 0x20 DUP11 ADD SWAP10 POP POP PUSH1 0x1 DUP2 ADD SWAP1 POP PUSH2 0x505 JUMP JUMPDEST POP DUP3 SWAP8 POP DUP8 SWAP6 POP POP POP POP POP POP SWAP3 SWAP2 POP POP JUMP JUMPDEST PUSH1 0x0 PUSH1 0x20 DUP3 ADD SWAP1 POP DUP2 DUP2 SUB PUSH1 0x0 DUP4 ADD MSTORE PUSH2 0x569 DUP2 DUP5 PUSH2 0x4DA JUMP JUMPDEST SWAP1 POP SWAP3 SWAP2 POP POP JUMP JUMPDEST PUSH32 0x4E487B7100000000000000000000000000000000000000000000000000000000 PUSH1 0x0 MSTORE PUSH1 0x41 PUSH1 0x4 MSTORE PUSH1 0x24 PUSH1 0x0 REVERT JUMPDEST PUSH32 0x4E487B7100000000000000000000000000000000000000000000000000000000 PUSH1 0x0 MSTORE PUSH1 0x11 PUSH1 0x4 MSTORE PUSH1 0x24 PUSH1 0x0 REVERT JUMPDEST PUSH1 0x0 PUSH2 0x5DA DUP3 PUSH2 0x39A JUMP JUMPDEST SWAP2 POP PUSH2 0x5E5 DUP4 PUSH2 0x39A JUMP JUMPDEST SWAP3 POP DUP3 DUP3 ADD SWAP1 POP DUP1 DUP3 GT ISZERO PUSH2 0x5FD JUMPI PUSH2 0x5FC PUSH2 0x5A0 JUMP JUMPDEST JUMPDEST SWAP3 SWAP2 POP POP JUMP JUMPDEST PUSH1 0x0 PUSH2 0x60E DUP3 PUSH2 0x39A JUMP JUMPDEST SWAP2 POP PUSH2 0x619 DUP4 PUSH2 0x39A JUMP JUMPDEST SWAP3 POP DUP3 DUP3 MUL PUSH2 0x627 DUP2 PUSH2 0x39A JUMP JUMPDEST SWAP2 POP DUP3 DUP3 DIV DUP5 EQ DUP4 ISZERO OR PUSH2 0x63E JUMPI PUSH2 0x63D PUSH2 0x5A0 JUMP JUMPDEST JUMPDEST POP SWAP3 SWAP2 POP POP JUMP JUMPDEST PUSH1 0x0 DUP2 SWAP1 POP SWAP3 SWAP2 POP POP JUMP JUMPDEST PUSH1 0x0 PUSH2 0x65B DUP3 PUSH2 0x429 JUMP JUMPDEST PUSH2 0x665 DUP2 DUP6 PUSH2 0x645 JUMP JUMPDEST SWAP4 POP PUSH2 0x675 DUP2 DUP6 PUSH1 0x20 DUP7 ADD PUSH2 0x445 JUMP JUMPDEST DUP1 DUP5 ADD SWAP2 POP POP SWAP3 SWAP2 POP POP JUMP JUMPDEST PUSH32 0x2058200000000000000000000000000000000000000000000000000000000000 PUSH1 0x0 DUP3 ADD MSTORE POP JUMP JUMPDEST PUSH1 0x0 PUSH2 0x6B7 PUSH1 0x3 DUP4 PUSH2 0x645 JUMP JUMPDEST SWAP2 POP PUSH2 0x6C2 DUP3 PUSH2 0x681 JUMP JUMPDEST PUSH1 0x3 DUP3 ADD SWAP1 POP SWAP2 SWAP1 POP JUMP JUMPDEST PUSH32 0x203D200000000000000000000000000000000000000000000000000000000000 PUSH1 0x0 DUP3 ADD MSTORE POP JUMP JUMPDEST PUSH1 0x0 PUSH2 0x703 PUSH1 0x3 DUP4 PUSH2 0x645 JUMP JUMPDEST SWAP2 POP PUSH2 0x70E DUP3 PUSH2 0x6CD JUMP JUMPDEST PUSH1 0x3 DUP3 ADD SWAP1 POP SWAP2 SWAP1 POP JUMP JUMPDEST PUSH1 0x0 PUSH2 0x725 DUP3 DUP7 PUSH2 0x650 JUMP JUMPDEST SWAP2 POP PUSH2 0x730 DUP3 PUSH2 0x6AA JUMP JUMPDEST SWAP2 POP PUSH2 0x73C DUP3 DUP6 PUSH2 0x650 JUMP JUMPDEST SWAP2 POP PUSH2 0x747 DUP3 PUSH2 0x6F6 JUMP JUMPDEST SWAP2 POP PUSH2 0x753 DUP3 DUP5 PUSH2 0x650 JUMP JUMPDEST SWAP2 POP DUP2 SWAP1 POP SWAP5 SWAP4 POP POP POP POP JUMP JUMPDEST PUSH32 0x4E487B7100000000000000000000000000000000000000000000000000000000 PUSH1 0x0 MSTORE PUSH1 0x32 PUSH1 0x4 MSTORE PUSH1 0x24 PUSH1 0x0 REVERT JUMPDEST PUSH1 0x0 PUSH2 0x79A DUP3 PUSH2 0x39A JUMP JUMPDEST SWAP2 POP PUSH32 0xFFFFFFFFFFFFFFFFFFFFFFFFFFFFFFFFFFFFFFFFFFFFFFFFFFFFFFFFFFFFFFFF DUP3 SUB PUSH2 0x7CC JUMPI PUSH2 0x7CB PUSH2 0x5A0 JUMP JUMPDEST JUMPDEST PUSH1 0x1 DUP3 ADD SWAP1 POP SWAP2 SWAP1 POP JUMP JUMPDEST PUSH32 0x4E487B7100000000000000000000000000000000000000000000000000000000 PUSH1 0x0 MSTORE PUSH1 0x12 PUSH1 0x4 MSTORE PUSH1 0x24 PUSH1 0x0 REVERT INVALID LOG2 PUSH5 0x6970667358 0x22 SLT KECCAK256 0xD DUP5 0xBA 0xC5 0xB1 CREATE 0xDD SWAP4 0xAB SGT 0x26 DUP6 DUP3 JUMPDEST 0xC0 DUP4 PUSH25 0x3DCD90783CAC34A5F4BEFEC715490864736F6C634300081200 CALLER "
				},
				"gasEstimates": {
					"creation": {
						"codeDepositCost": "421600",
						"executionCost": "455",
						"totalCost": "422055"
					},
					"external": {
						"NineMultiplication(uint256)": "infinite"
					}
				},
				"methodIdentifiers": {
					"NineMultiplication(uint256)": "7c81936a"
				}
			},
			"storageLayout": {
				"storage": [],
				"types": null
			},
			"userdoc": {
				"kind": "user",
				"methods": {},
				"version": 1
			}
		}
	}
}