{
	"contracts/230515/1_require.sol": {
		"REQUIRE2": {
			"abi": [
				{
					"inputs": [],
					"name": "Require1",
					"outputs": [
						{
							"internalType": "uint256",
							"name": "",
							"type": "uint256"
						}
					],
					"stateMutability": "pure",
					"type": "function"
				},
				{
					"inputs": [],
					"name": "Require2",
					"outputs": [
						{
							"internalType": "uint256",
							"name": "",
							"type": "uint256"
						}
					],
					"stateMutability": "pure",
					"type": "function"
				},
				{
					"inputs": [],
					"name": "Require3",
					"outputs": [],
					"stateMutability": "nonpayable",
					"type": "function"
				},
				{
					"inputs": [],
					"name": "Require4",
					"outputs": [],
					"stateMutability": "nonpayable",
					"type": "function"
				},
				{
					"inputs": [
						{
							"internalType": "uint256",
							"name": "_n",
							"type": "uint256"
						}
					],
					"name": "Require5",
					"outputs": [
						{
							"internalType": "bool",
							"name": "",
							"type": "bool"
						}
					],
					"stateMutability": "pure",
					"type": "function"
				},
				{
					"inputs": [
						{
							"internalType": "uint256",
							"name": "_n",
							"type": "uint256"
						}
					],
					"name": "Require6",
					"outputs": [
						{
							"internalType": "uint256",
							"name": "",
							"type": "uint256"
						}
					],
					"stateMutability": "pure",
					"type": "function"
				},
				{
					"inputs": [],
					"name": "getA",
					"outputs": [
						{
							"internalType": "uint256",
							"name": "",
							"type": "uint256"
						}
					],
					"stateMutability": "view",
					"type": "function"
				},
				{
					"inputs": [],
					"name": "getBool",
					"outputs": [
						{
							"internalType": "bool",
							"name": "",
							"type": "bool"
						}
					],
					"stateMutability": "pure",
					"type": "function"
				},
				{
					"inputs": [],
					"name": "setAasFive",
					"outputs": [],
					"stateMutability": "nonpayable",
					"type": "function"
				}
			],
			"devdoc": {
				"kind": "dev",
				"methods": {},
				"version": 1
			},
			"evm": {
				"assembly": "    /* \"contracts/230515/1_require.sol\":661:2090  contract REQUIRE2{... */\n  mstore(0x40, 0x80)\n    /* \"contracts/230515/1_require.sol\":1129:1130  1 */\n  0x01\n    /* \"contracts/230515/1_require.sol\":1120:1130  uint a = 1 */\n  0x00\n  sstore\n    /* \"contracts/230515/1_require.sol\":661:2090  contract REQUIRE2{... */\n  callvalue\n  dup1\n  iszero\n  tag_1\n  jumpi\n  0x00\n  dup1\n  revert\ntag_1:\n  pop\n  dataSize(sub_0)\n  dup1\n  dataOffset(sub_0)\n  0x00\n  codecopy\n  0x00\n  return\nstop\n\nsub_0: assembly {\n        /* \"contracts/230515/1_require.sol\":661:2090  contract REQUIRE2{... */\n      mstore(0x40, 0x80)\n      callvalue\n      dup1\n      iszero\n      tag_1\n      jumpi\n      0x00\n      dup1\n      revert\n    tag_1:\n      pop\n      jumpi(tag_2, lt(calldatasize, 0x04))\n      shr(0xe0, calldataload(0x00))\n      dup1\n      0x95f05c78\n      gt\n      tag_12\n      jumpi\n      dup1\n      0x95f05c78\n      eq\n      tag_7\n      jumpi\n      dup1\n      0xd46300fd\n      eq\n      tag_8\n      jumpi\n      dup1\n      0xdcbf7746\n      eq\n      tag_9\n      jumpi\n      dup1\n      0xdde07ac4\n      eq\n      tag_10\n      jumpi\n      dup1\n      0xfdc4dd0b\n      eq\n      tag_11\n      jumpi\n      jump(tag_2)\n    tag_12:\n      dup1\n      0x12a7b914\n      eq\n      tag_3\n      jumpi\n      dup1\n      0x6f89b4c5\n      eq\n      tag_4\n      jumpi\n      dup1\n      0x7938d4c0\n      eq\n      tag_5\n      jumpi\n      dup1\n      0x7a72b903\n      eq\n      tag_6\n      jumpi\n    tag_2:\n      0x00\n      dup1\n      revert\n        /* \"contracts/230515/1_require.sol\":685:774  function getBool() public pure returns(bool) {... */\n    tag_3:\n      tag_13\n      tag_14\n      jump\t// in\n    tag_13:\n      mload(0x40)\n      tag_15\n      swap2\n      swap1\n      tag_16\n      jump\t// in\n    tag_15:\n      mload(0x40)\n      dup1\n      swap2\n      sub\n      swap1\n      return\n        /* \"contracts/230515/1_require.sol\":949:1112  function Require2() public pure returns(uint) {... */\n    tag_4:\n      tag_17\n      tag_18\n      jump\t// in\n    tag_17:\n      mload(0x40)\n      tag_19\n      swap2\n      swap1\n      tag_20\n      jump\t// in\n    tag_19:\n      mload(0x40)\n      dup1\n      swap2\n      sub\n      swap1\n      return\n        /* \"contracts/230515/1_require.sol\":1817:2087  function Require6(uint _n) public pure returns(uint) {... */\n    tag_5:\n      tag_21\n      0x04\n      dup1\n      calldatasize\n      sub\n      dup2\n      add\n      swap1\n      tag_22\n      swap2\n      swap1\n      tag_23\n      jump\t// in\n    tag_22:\n      tag_24\n      jump\t// in\n    tag_21:\n      mload(0x40)\n      tag_25\n      swap2\n      swap1\n      tag_20\n      jump\t// in\n    tag_25:\n      mload(0x40)\n      dup1\n      swap2\n      sub\n      swap1\n      return\n        /* \"contracts/230515/1_require.sol\":1408:1461  function setAasFive() public {... */\n    tag_6:\n      tag_26\n      tag_27\n      jump\t// in\n    tag_26:\n      stop\n        /* \"contracts/230515/1_require.sol\":1216:1400  function Require3() public {... */\n    tag_7:\n      tag_28\n      tag_29\n      jump\t// in\n    tag_28:\n      stop\n        /* \"contracts/230515/1_require.sol\":1139:1208  function getA() public view returns(uint) {... */\n    tag_8:\n      tag_30\n      tag_31\n      jump\t// in\n    tag_30:\n      mload(0x40)\n      tag_32\n      swap2\n      swap1\n      tag_20\n      jump\t// in\n    tag_32:\n      mload(0x40)\n      dup1\n      swap2\n      sub\n      swap1\n      return\n        /* \"contracts/230515/1_require.sol\":1469:1674  function Require4() public {... */\n    tag_9:\n      tag_33\n      tag_34\n      jump\t// in\n    tag_33:\n      stop\n        /* \"contracts/230515/1_require.sol\":782:941  function Require1() public pure returns(uint) {... */\n    tag_10:\n      tag_35\n      tag_36\n      jump\t// in\n    tag_35:\n      mload(0x40)\n      tag_37\n      swap2\n      swap1\n      tag_20\n      jump\t// in\n    tag_37:\n      mload(0x40)\n      dup1\n      swap2\n      sub\n      swap1\n      return\n        /* \"contracts/230515/1_require.sol\":1682:1809  function Require5(uint _n) public pure returns(bool) {... */\n    tag_11:\n      tag_38\n      0x04\n      dup1\n      calldatasize\n      sub\n      dup2\n      add\n      swap1\n      tag_39\n      swap2\n      swap1\n      tag_23\n      jump\t// in\n    tag_39:\n      tag_40\n      jump\t// in\n    tag_38:\n      mload(0x40)\n      tag_41\n      swap2\n      swap1\n      tag_16\n      jump\t// in\n    tag_41:\n      mload(0x40)\n      dup1\n      swap2\n      sub\n      swap1\n      return\n        /* \"contracts/230515/1_require.sol\":685:774  function getBool() public pure returns(bool) {... */\n    tag_14:\n        /* \"contracts/230515/1_require.sol\":724:728  bool */\n      0x00\n        /* \"contracts/230515/1_require.sol\":741:747  bool a */\n      dup1\n        /* \"contracts/230515/1_require.sol\":765:766  a */\n      dup1\n        /* \"contracts/230515/1_require.sol\":758:766  return a */\n      swap2\n      pop\n      pop\n        /* \"contracts/230515/1_require.sol\":685:774  function getBool() public pure returns(bool) {... */\n      swap1\n      jump\t// out\n        /* \"contracts/230515/1_require.sol\":949:1112  function Require2() public pure returns(uint) {... */\n    tag_18:\n        /* \"contracts/230515/1_require.sol\":989:993  uint */\n      0x00\n        /* \"contracts/230515/1_require.sol\":1006:1012  uint a */\n      dup1\n        /* \"contracts/230515/1_require.sol\":1014:1015  1 */\n      0x01\n        /* \"contracts/230515/1_require.sol\":1006:1015  uint a= 1 */\n      swap1\n      pop\n        /* \"contracts/230515/1_require.sol\":1026:1032  bool b */\n      0x00\n        /* \"contracts/230515/1_require.sol\":1050:1051  a */\n      dup2\n        /* \"contracts/230515/1_require.sol\":1043:1051  return a */\n      swap3\n      pop\n      pop\n      pop\n        /* \"contracts/230515/1_require.sol\":949:1112  function Require2() public pure returns(uint) {... */\n      swap1\n      jump\t// out\n        /* \"contracts/230515/1_require.sol\":1817:2087  function Require6(uint _n) public pure returns(uint) {... */\n    tag_24:\n        /* \"contracts/230515/1_require.sol\":1864:1868  uint */\n      0x00\n        /* \"contracts/230515/1_require.sol\":1924:1925  0 */\n      dup1\n        /* \"contracts/230515/1_require.sol\":1919:1920  3 */\n      0x03\n        /* \"contracts/230515/1_require.sol\":1916:1918  _n */\n      dup4\n        /* \"contracts/230515/1_require.sol\":1916:1920  _n%3 */\n      tag_48\n      swap2\n      swap1\n      tag_49\n      jump\t// in\n    tag_48:\n        /* \"contracts/230515/1_require.sol\":1916:1925  _n%3 == 0 */\n      sub\n        /* \"contracts/230515/1_require.sol\":1913:2080  if(_n%3 == 0) {... */\n      tag_50\n      jumpi\n        /* \"contracts/230515/1_require.sol\":1956:1957  0 */\n      0x00\n        /* \"contracts/230515/1_require.sol\":1953:1954  3 */\n      0x03\n        /* \"contracts/230515/1_require.sol\":1950:1952  _n */\n      dup4\n        /* \"contracts/230515/1_require.sol\":1950:1954  _n%3 */\n      tag_51\n      swap2\n      swap1\n      tag_49\n      jump\t// in\n    tag_51:\n        /* \"contracts/230515/1_require.sol\":1950:1957  _n%3!=0 */\n      sub\n        /* \"contracts/230515/1_require.sol\":1942:1966  require(_n%3!=0, \"nope\") */\n      tag_52\n      jumpi\n      mload(0x40)\n      0x08c379a000000000000000000000000000000000000000000000000000000000\n      dup2\n      mstore\n      0x04\n      add\n      tag_53\n      swap1\n      tag_54\n      jump\t// in\n    tag_53:\n      mload(0x40)\n      dup1\n      swap2\n      sub\n      swap1\n      revert\n    tag_52:\n        /* \"contracts/230515/1_require.sol\":1913:2080  if(_n%3 == 0) {... */\n      jump(tag_55)\n    tag_50:\n        /* \"contracts/230515/1_require.sol\":1995:1996  1 */\n      0x01\n        /* \"contracts/230515/1_require.sol\":1990:1991  3 */\n      0x03\n        /* \"contracts/230515/1_require.sol\":1987:1989  _n */\n      dup4\n        /* \"contracts/230515/1_require.sol\":1987:1991  _n%3 */\n      tag_56\n      swap2\n      swap1\n      tag_49\n      jump\t// in\n    tag_56:\n        /* \"contracts/230515/1_require.sol\":1987:1996  _n%3 == 1 */\n      sub\n        /* \"contracts/230515/1_require.sol\":1984:2080  if(_n%3 == 1) {... */\n      tag_57\n      jumpi\n        /* \"contracts/230515/1_require.sol\":2023:2024  3 */\n      0x03\n        /* \"contracts/230515/1_require.sol\":2020:2022  _n */\n      dup3\n        /* \"contracts/230515/1_require.sol\":2020:2024  _n%3 */\n      tag_58\n      swap2\n      swap1\n      tag_49\n      jump\t// in\n    tag_58:\n        /* \"contracts/230515/1_require.sol\":2013:2024  return _n%3 */\n      swap1\n      pop\n      jump(tag_47)\n        /* \"contracts/230515/1_require.sol\":1984:2080  if(_n%3 == 1) {... */\n    tag_57:\n        /* \"contracts/230515/1_require.sol\":2067:2068  3 */\n      0x03\n        /* \"contracts/230515/1_require.sol\":2064:2066  _n */\n      dup3\n        /* \"contracts/230515/1_require.sol\":2064:2068  _n%3 */\n      tag_60\n      swap2\n      swap1\n      tag_49\n      jump\t// in\n    tag_60:\n        /* \"contracts/230515/1_require.sol\":2057:2068  return _n%3 */\n      swap1\n      pop\n      jump(tag_47)\n        /* \"contracts/230515/1_require.sol\":1913:2080  if(_n%3 == 0) {... */\n    tag_55:\n        /* \"contracts/230515/1_require.sol\":1817:2087  function Require6(uint _n) public pure returns(uint) {... */\n    tag_47:\n      swap2\n      swap1\n      pop\n      jump\t// out\n        /* \"contracts/230515/1_require.sol\":1408:1461  function setAasFive() public {... */\n    tag_27:\n        /* \"contracts/230515/1_require.sol\":1452:1453  5 */\n      0x05\n        /* \"contracts/230515/1_require.sol\":1448:1449  a */\n      0x00\n        /* \"contracts/230515/1_require.sol\":1448:1453  a = 5 */\n      dup2\n      swap1\n      sstore\n      pop\n        /* \"contracts/230515/1_require.sol\":1408:1461  function setAasFive() public {... */\n      jump\t// out\n        /* \"contracts/230515/1_require.sol\":1216:1400  function Require3() public {... */\n    tag_29:\n        /* \"contracts/230515/1_require.sol\":1254:1260  bool c */\n      0x00\n        /* \"contracts/230515/1_require.sol\":1275:1276  5 */\n      0x05\n        /* \"contracts/230515/1_require.sol\":1271:1272  a */\n      0x00\n        /* \"contracts/230515/1_require.sol\":1271:1276  a = 5 */\n      dup2\n      swap1\n      sstore\n      pop\n        /* \"contracts/230515/1_require.sol\":1295:1296  c */\n      dup1\n        /* \"contracts/230515/1_require.sol\":1287:1306  require(c, \"error\") */\n      tag_63\n      jumpi\n      mload(0x40)\n      0x08c379a000000000000000000000000000000000000000000000000000000000\n      dup2\n      mstore\n      0x04\n      add\n      tag_64\n      swap1\n      tag_65\n      jump\t// in\n    tag_64:\n      mload(0x40)\n      dup1\n      swap2\n      sub\n      swap1\n      revert\n    tag_63:\n        /* \"contracts/230515/1_require.sol\":1243:1400  {... */\n      pop\n        /* \"contracts/230515/1_require.sol\":1216:1400  function Require3() public {... */\n      jump\t// out\n        /* \"contracts/230515/1_require.sol\":1139:1208  function getA() public view returns(uint) {... */\n    tag_31:\n        /* \"contracts/230515/1_require.sol\":1175:1179  uint */\n      0x00\n        /* \"contracts/230515/1_require.sol\":1199:1200  a */\n      dup1\n      sload\n        /* \"contracts/230515/1_require.sol\":1192:1200  return a */\n      swap1\n      pop\n        /* \"contracts/230515/1_require.sol\":1139:1208  function getA() public view returns(uint) {... */\n      swap1\n      jump\t// out\n        /* \"contracts/230515/1_require.sol\":1469:1674  function Require4() public {... */\n    tag_34:\n        /* \"contracts/230515/1_require.sol\":1507:1513  bool c */\n      0x00\n        /* \"contracts/230515/1_require.sol\":1524:1536  setAasFive() */\n      tag_68\n        /* \"contracts/230515/1_require.sol\":1524:1534  setAasFive */\n      tag_27\n        /* \"contracts/230515/1_require.sol\":1524:1536  setAasFive() */\n      jump\t// in\n    tag_68:\n        /* \"contracts/230515/1_require.sol\":1615:1616  c */\n      dup1\n        /* \"contracts/230515/1_require.sol\":1607:1626  require(c, \"error\") */\n      tag_69\n      jumpi\n      mload(0x40)\n      0x08c379a000000000000000000000000000000000000000000000000000000000\n      dup2\n      mstore\n      0x04\n      add\n      tag_70\n      swap1\n      tag_65\n      jump\t// in\n    tag_70:\n      mload(0x40)\n      dup1\n      swap2\n      sub\n      swap1\n      revert\n    tag_69:\n        /* \"contracts/230515/1_require.sol\":1496:1674  {... */\n      pop\n        /* \"contracts/230515/1_require.sol\":1469:1674  function Require4() public {... */\n      jump\t// out\n        /* \"contracts/230515/1_require.sol\":782:941  function Require1() public pure returns(uint) {... */\n    tag_36:\n        /* \"contracts/230515/1_require.sol\":822:826  uint */\n      0x00\n        /* \"contracts/230515/1_require.sol\":839:845  uint a */\n      dup1\n        /* \"contracts/230515/1_require.sol\":847:848  1 */\n      0x01\n        /* \"contracts/230515/1_require.sol\":839:848  uint a= 1 */\n      swap1\n      pop\n        /* \"contracts/230515/1_require.sol\":859:865  bool b */\n      0x00\n        /* \"contracts/230515/1_require.sol\":884:885  b */\n      dup1\n        /* \"contracts/230515/1_require.sol\":876:895  require(b, \"Error\") */\n      tag_72\n      jumpi\n      mload(0x40)\n      0x08c379a000000000000000000000000000000000000000000000000000000000\n      dup2\n      mstore\n      0x04\n      add\n      tag_73\n      swap1\n      tag_46\n      jump\t// in\n    tag_73:\n      mload(0x40)\n      dup1\n      swap2\n      sub\n      swap1\n      revert\n    tag_72:\n        /* \"contracts/230515/1_require.sol\":932:933  a */\n      dup2\n        /* \"contracts/230515/1_require.sol\":925:933  return a */\n      swap3\n      pop\n      pop\n      pop\n        /* \"contracts/230515/1_require.sol\":782:941  function Require1() public pure returns(uint) {... */\n      swap1\n      jump\t// out\n        /* \"contracts/230515/1_require.sol\":1682:1809  function Require5(uint _n) public pure returns(bool) {... */\n    tag_40:\n        /* \"contracts/230515/1_require.sol\":1729:1733  bool */\n      0x00\n        /* \"contracts/230515/1_require.sol\":1760:1761  0 */\n      dup1\n        /* \"contracts/230515/1_require.sol\":1757:1758  5 */\n      0x05\n        /* \"contracts/230515/1_require.sol\":1754:1756  _n */\n      dup4\n        /* \"contracts/230515/1_require.sol\":1754:1758  _n%5 */\n      tag_75\n      swap2\n      swap1\n      tag_49\n      jump\t// in\n    tag_75:\n        /* \"contracts/230515/1_require.sol\":1754:1761  _n%5==0 */\n      eq\n        /* \"contracts/230515/1_require.sol\":1754:1770  _n%5==0 && _n>10 */\n      dup1\n      iszero\n      tag_76\n      jumpi\n      pop\n        /* \"contracts/230515/1_require.sol\":1768:1770  10 */\n      0x0a\n        /* \"contracts/230515/1_require.sol\":1765:1767  _n */\n      dup3\n        /* \"contracts/230515/1_require.sol\":1765:1770  _n>10 */\n      gt\n        /* \"contracts/230515/1_require.sol\":1754:1770  _n%5==0 && _n>10 */\n    tag_76:\n        /* \"contracts/230515/1_require.sol\":1746:1779  require(_n%5==0 && _n>10, \"Nope\") */\n      tag_77\n      jumpi\n      mload(0x40)\n      0x08c379a000000000000000000000000000000000000000000000000000000000\n      dup2\n      mstore\n      0x04\n      add\n      tag_78\n      swap1\n      tag_79\n      jump\t// in\n    tag_78:\n      mload(0x40)\n      dup1\n      swap2\n      sub\n      swap1\n      revert\n    tag_77:\n        /* \"contracts/230515/1_require.sol\":1797:1801  true */\n      0x01\n        /* \"contracts/230515/1_require.sol\":1790:1801  return true */\n      swap1\n      pop\n        /* \"contracts/230515/1_require.sol\":1682:1809  function Require5(uint _n) public pure returns(bool) {... */\n      swap2\n      swap1\n      pop\n      jump\t// out\n        /* \"#utility.yul\":7:97   */\n    tag_80:\n        /* \"#utility.yul\":41:48   */\n      0x00\n        /* \"#utility.yul\":84:89   */\n      dup2\n        /* \"#utility.yul\":77:90   */\n      iszero\n        /* \"#utility.yul\":70:91   */\n      iszero\n        /* \"#utility.yul\":59:91   */\n      swap1\n      pop\n        /* \"#utility.yul\":7:97   */\n      swap2\n      swap1\n      pop\n      jump\t// out\n        /* \"#utility.yul\":103:212   */\n    tag_81:\n        /* \"#utility.yul\":184:205   */\n      tag_102\n        /* \"#utility.yul\":199:204   */\n      dup2\n        /* \"#utility.yul\":184:205   */\n      tag_80\n      jump\t// in\n    tag_102:\n        /* \"#utility.yul\":179:182   */\n      dup3\n        /* \"#utility.yul\":172:206   */\n      mstore\n        /* \"#utility.yul\":103:212   */\n      pop\n      pop\n      jump\t// out\n        /* \"#utility.yul\":218:428   */\n    tag_16:\n        /* \"#utility.yul\":305:309   */\n      0x00\n        /* \"#utility.yul\":343:345   */\n      0x20\n        /* \"#utility.yul\":332:341   */\n      dup3\n        /* \"#utility.yul\":328:346   */\n      add\n        /* \"#utility.yul\":320:346   */\n      swap1\n      pop\n        /* \"#utility.yul\":356:421   */\n      tag_104\n        /* \"#utility.yul\":418:419   */\n      0x00\n        /* \"#utility.yul\":407:416   */\n      dup4\n        /* \"#utility.yul\":403:420   */\n      add\n        /* \"#utility.yul\":394:400   */\n      dup5\n        /* \"#utility.yul\":356:421   */\n      tag_81\n      jump\t// in\n    tag_104:\n        /* \"#utility.yul\":218:428   */\n      swap3\n      swap2\n      pop\n      pop\n      jump\t// out\n        /* \"#utility.yul\":434:511   */\n    tag_82:\n        /* \"#utility.yul\":471:478   */\n      0x00\n        /* \"#utility.yul\":500:505   */\n      dup2\n        /* \"#utility.yul\":489:505   */\n      swap1\n      pop\n        /* \"#utility.yul\":434:511   */\n      swap2\n      swap1\n      pop\n      jump\t// out\n        /* \"#utility.yul\":517:635   */\n    tag_83:\n        /* \"#utility.yul\":604:628   */\n      tag_107\n        /* \"#utility.yul\":622:627   */\n      dup2\n        /* \"#utility.yul\":604:628   */\n      tag_82\n      jump\t// in\n    tag_107:\n        /* \"#utility.yul\":599:602   */\n      dup3\n        /* \"#utility.yul\":592:629   */\n      mstore\n        /* \"#utility.yul\":517:635   */\n      pop\n      pop\n      jump\t// out\n        /* \"#utility.yul\":641:863   */\n    tag_20:\n        /* \"#utility.yul\":734:738   */\n      0x00\n        /* \"#utility.yul\":772:774   */\n      0x20\n        /* \"#utility.yul\":761:770   */\n      dup3\n        /* \"#utility.yul\":757:775   */\n      add\n        /* \"#utility.yul\":749:775   */\n      swap1\n      pop\n        /* \"#utility.yul\":785:856   */\n      tag_109\n        /* \"#utility.yul\":853:854   */\n      0x00\n        /* \"#utility.yul\":842:851   */\n      dup4\n        /* \"#utility.yul\":838:855   */\n      add\n        /* \"#utility.yul\":829:835   */\n      dup5\n        /* \"#utility.yul\":785:856   */\n      tag_83\n      jump\t// in\n    tag_109:\n        /* \"#utility.yul\":641:863   */\n      swap3\n      swap2\n      pop\n      pop\n      jump\t// out\n        /* \"#utility.yul\":950:1067   */\n    tag_85:\n        /* \"#utility.yul\":1059:1060   */\n      0x00\n        /* \"#utility.yul\":1056:1057   */\n      dup1\n        /* \"#utility.yul\":1049:1061   */\n      revert\n        /* \"#utility.yul\":1196:1318   */\n    tag_87:\n        /* \"#utility.yul\":1269:1293   */\n      tag_114\n        /* \"#utility.yul\":1287:1292   */\n      dup2\n        /* \"#utility.yul\":1269:1293   */\n      tag_82\n      jump\t// in\n    tag_114:\n        /* \"#utility.yul\":1262:1267   */\n      dup2\n        /* \"#utility.yul\":1259:1294   */\n      eq\n        /* \"#utility.yul\":1249:1312   */\n      tag_115\n      jumpi\n        /* \"#utility.yul\":1308:1309   */\n      0x00\n        /* \"#utility.yul\":1305:1306   */\n      dup1\n        /* \"#utility.yul\":1298:1310   */\n      revert\n        /* \"#utility.yul\":1249:1312   */\n    tag_115:\n        /* \"#utility.yul\":1196:1318   */\n      pop\n      jump\t// out\n        /* \"#utility.yul\":1324:1463   */\n    tag_88:\n        /* \"#utility.yul\":1370:1375   */\n      0x00\n        /* \"#utility.yul\":1408:1414   */\n      dup2\n        /* \"#utility.yul\":1395:1415   */\n      calldataload\n        /* \"#utility.yul\":1386:1415   */\n      swap1\n      pop\n        /* \"#utility.yul\":1424:1457   */\n      tag_117\n        /* \"#utility.yul\":1451:1456   */\n      dup2\n        /* \"#utility.yul\":1424:1457   */\n      tag_87\n      jump\t// in\n    tag_117:\n        /* \"#utility.yul\":1324:1463   */\n      swap3\n      swap2\n      pop\n      pop\n      jump\t// out\n        /* \"#utility.yul\":1469:1798   */\n    tag_23:\n        /* \"#utility.yul\":1528:1534   */\n      0x00\n        /* \"#utility.yul\":1577:1579   */\n      0x20\n        /* \"#utility.yul\":1565:1574   */\n      dup3\n        /* \"#utility.yul\":1556:1563   */\n      dup5\n        /* \"#utility.yul\":1552:1575   */\n      sub\n        /* \"#utility.yul\":1548:1580   */\n      slt\n        /* \"#utility.yul\":1545:1664   */\n      iszero\n      tag_119\n      jumpi\n        /* \"#utility.yul\":1583:1662   */\n      tag_120\n      tag_85\n      jump\t// in\n    tag_120:\n        /* \"#utility.yul\":1545:1664   */\n    tag_119:\n        /* \"#utility.yul\":1703:1704   */\n      0x00\n        /* \"#utility.yul\":1728:1781   */\n      tag_121\n        /* \"#utility.yul\":1773:1780   */\n      dup5\n        /* \"#utility.yul\":1764:1770   */\n      dup3\n        /* \"#utility.yul\":1753:1762   */\n      dup6\n        /* \"#utility.yul\":1749:1771   */\n      add\n        /* \"#utility.yul\":1728:1781   */\n      tag_88\n      jump\t// in\n    tag_121:\n        /* \"#utility.yul\":1718:1781   */\n      swap2\n      pop\n        /* \"#utility.yul\":1674:1791   */\n      pop\n        /* \"#utility.yul\":1469:1798   */\n      swap3\n      swap2\n      pop\n      pop\n      jump\t// out\n        /* \"#utility.yul\":1804:1973   */\n    tag_89:\n        /* \"#utility.yul\":1888:1899   */\n      0x00\n        /* \"#utility.yul\":1922:1928   */\n      dup3\n        /* \"#utility.yul\":1917:1920   */\n      dup3\n        /* \"#utility.yul\":1910:1929   */\n      mstore\n        /* \"#utility.yul\":1962:1966   */\n      0x20\n        /* \"#utility.yul\":1957:1960   */\n      dup3\n        /* \"#utility.yul\":1953:1967   */\n      add\n        /* \"#utility.yul\":1938:1967   */\n      swap1\n      pop\n        /* \"#utility.yul\":1804:1973   */\n      swap3\n      swap2\n      pop\n      pop\n      jump\t// out\n        /* \"#utility.yul\":1979:2134   */\n    tag_90:\n        /* \"#utility.yul\":2119:2126   */\n      0x4572726f72000000000000000000000000000000000000000000000000000000\n        /* \"#utility.yul\":2115:2116   */\n      0x00\n        /* \"#utility.yul\":2107:2113   */\n      dup3\n        /* \"#utility.yul\":2103:2117   */\n      add\n        /* \"#utility.yul\":2096:2127   */\n      mstore\n        /* \"#utility.yul\":1979:2134   */\n      pop\n      jump\t// out\n        /* \"#utility.yul\":2140:2505   */\n    tag_91:\n        /* \"#utility.yul\":2282:2285   */\n      0x00\n        /* \"#utility.yul\":2303:2369   */\n      tag_125\n        /* \"#utility.yul\":2367:2368   */\n      0x05\n        /* \"#utility.yul\":2362:2365   */\n      dup4\n        /* \"#utility.yul\":2303:2369   */\n      tag_89\n      jump\t// in\n    tag_125:\n        /* \"#utility.yul\":2296:2369   */\n      swap2\n      pop\n        /* \"#utility.yul\":2378:2471   */\n      tag_126\n        /* \"#utility.yul\":2467:2470   */\n      dup3\n        /* \"#utility.yul\":2378:2471   */\n      tag_90\n      jump\t// in\n    tag_126:\n        /* \"#utility.yul\":2496:2498   */\n      0x20\n        /* \"#utility.yul\":2491:2494   */\n      dup3\n        /* \"#utility.yul\":2487:2499   */\n      add\n        /* \"#utility.yul\":2480:2499   */\n      swap1\n      pop\n        /* \"#utility.yul\":2140:2505   */\n      swap2\n      swap1\n      pop\n      jump\t// out\n        /* \"#utility.yul\":2511:2930   */\n    tag_46:\n        /* \"#utility.yul\":2677:2681   */\n      0x00\n        /* \"#utility.yul\":2715:2717   */\n      0x20\n        /* \"#utility.yul\":2704:2713   */\n      dup3\n        /* \"#utility.yul\":2700:2718   */\n      add\n        /* \"#utility.yul\":2692:2718   */\n      swap1\n      pop\n        /* \"#utility.yul\":2764:2773   */\n      dup2\n        /* \"#utility.yul\":2758:2762   */\n      dup2\n        /* \"#utility.yul\":2754:2774   */\n      sub\n        /* \"#utility.yul\":2750:2751   */\n      0x00\n        /* \"#utility.yul\":2739:2748   */\n      dup4\n        /* \"#utility.yul\":2735:2752   */\n      add\n        /* \"#utility.yul\":2728:2775   */\n      mstore\n        /* \"#utility.yul\":2792:2923   */\n      tag_128\n        /* \"#utility.yul\":2918:2922   */\n      dup2\n        /* \"#utility.yul\":2792:2923   */\n      tag_91\n      jump\t// in\n    tag_128:\n        /* \"#utility.yul\":2784:2923   */\n      swap1\n      pop\n        /* \"#utility.yul\":2511:2930   */\n      swap2\n      swap1\n      pop\n      jump\t// out\n        /* \"#utility.yul\":2936:3116   */\n    tag_92:\n        /* \"#utility.yul\":2984:3061   */\n      0x4e487b7100000000000000000000000000000000000000000000000000000000\n        /* \"#utility.yul\":2981:2982   */\n      0x00\n        /* \"#utility.yul\":2974:3062   */\n      mstore\n        /* \"#utility.yul\":3081:3085   */\n      0x12\n        /* \"#utility.yul\":3078:3079   */\n      0x04\n        /* \"#utility.yul\":3071:3086   */\n      mstore\n        /* \"#utility.yul\":3105:3109   */\n      0x24\n        /* \"#utility.yul\":3102:3103   */\n      0x00\n        /* \"#utility.yul\":3095:3110   */\n      revert\n        /* \"#utility.yul\":3122:3298   */\n    tag_49:\n        /* \"#utility.yul\":3154:3155   */\n      0x00\n        /* \"#utility.yul\":3171:3191   */\n      tag_131\n        /* \"#utility.yul\":3189:3190   */\n      dup3\n        /* \"#utility.yul\":3171:3191   */\n      tag_82\n      jump\t// in\n    tag_131:\n        /* \"#utility.yul\":3166:3191   */\n      swap2\n      pop\n        /* \"#utility.yul\":3205:3225   */\n      tag_132\n        /* \"#utility.yul\":3223:3224   */\n      dup4\n        /* \"#utility.yul\":3205:3225   */\n      tag_82\n      jump\t// in\n    tag_132:\n        /* \"#utility.yul\":3200:3225   */\n      swap3\n      pop\n        /* \"#utility.yul\":3244:3245   */\n      dup3\n        /* \"#utility.yul\":3234:3269   */\n      tag_133\n      jumpi\n        /* \"#utility.yul\":3249:3267   */\n      tag_134\n      tag_92\n      jump\t// in\n    tag_134:\n        /* \"#utility.yul\":3234:3269   */\n    tag_133:\n        /* \"#utility.yul\":3290:3291   */\n      dup3\n        /* \"#utility.yul\":3287:3288   */\n      dup3\n        /* \"#utility.yul\":3283:3292   */\n      mod\n        /* \"#utility.yul\":3278:3292   */\n      swap1\n      pop\n        /* \"#utility.yul\":3122:3298   */\n      swap3\n      swap2\n      pop\n      pop\n      jump\t// out\n        /* \"#utility.yul\":3304:3458   */\n    tag_93:\n        /* \"#utility.yul\":3444:3450   */\n      0x6e6f706500000000000000000000000000000000000000000000000000000000\n        /* \"#utility.yul\":3440:3441   */\n      0x00\n        /* \"#utility.yul\":3432:3438   */\n      dup3\n        /* \"#utility.yul\":3428:3442   */\n      add\n        /* \"#utility.yul\":3421:3451   */\n      mstore\n        /* \"#utility.yul\":3304:3458   */\n      pop\n      jump\t// out\n        /* \"#utility.yul\":3464:3829   */\n    tag_94:\n        /* \"#utility.yul\":3606:3609   */\n      0x00\n        /* \"#utility.yul\":3627:3693   */\n      tag_137\n        /* \"#utility.yul\":3691:3692   */\n      0x04\n        /* \"#utility.yul\":3686:3689   */\n      dup4\n        /* \"#utility.yul\":3627:3693   */\n      tag_89\n      jump\t// in\n    tag_137:\n        /* \"#utility.yul\":3620:3693   */\n      swap2\n      pop\n        /* \"#utility.yul\":3702:3795   */\n      tag_138\n        /* \"#utility.yul\":3791:3794   */\n      dup3\n        /* \"#utility.yul\":3702:3795   */\n      tag_93\n      jump\t// in\n    tag_138:\n        /* \"#utility.yul\":3820:3822   */\n      0x20\n        /* \"#utility.yul\":3815:3818   */\n      dup3\n        /* \"#utility.yul\":3811:3823   */\n      add\n        /* \"#utility.yul\":3804:3823   */\n      swap1\n      pop\n        /* \"#utility.yul\":3464:3829   */\n      swap2\n      swap1\n      pop\n      jump\t// out\n        /* \"#utility.yul\":3835:4254   */\n    tag_54:\n        /* \"#utility.yul\":4001:4005   */\n      0x00\n        /* \"#utility.yul\":4039:4041   */\n      0x20\n        /* \"#utility.yul\":4028:4037   */\n      dup3\n        /* \"#utility.yul\":4024:4042   */\n      add\n        /* \"#utility.yul\":4016:4042   */\n      swap1\n      pop\n        /* \"#utility.yul\":4088:4097   */\n      dup2\n        /* \"#utility.yul\":4082:4086   */\n      dup2\n        /* \"#utility.yul\":4078:4098   */\n      sub\n        /* \"#utility.yul\":4074:4075   */\n      0x00\n        /* \"#utility.yul\":4063:4072   */\n      dup4\n        /* \"#utility.yul\":4059:4076   */\n      add\n        /* \"#utility.yul\":4052:4099   */\n      mstore\n        /* \"#utility.yul\":4116:4247   */\n      tag_140\n        /* \"#utility.yul\":4242:4246   */\n      dup2\n        /* \"#utility.yul\":4116:4247   */\n      tag_94\n      jump\t// in\n    tag_140:\n        /* \"#utility.yul\":4108:4247   */\n      swap1\n      pop\n        /* \"#utility.yul\":3835:4254   */\n      swap2\n      swap1\n      pop\n      jump\t// out\n        /* \"#utility.yul\":4260:4415   */\n    tag_95:\n        /* \"#utility.yul\":4400:4407   */\n      0x6572726f72000000000000000000000000000000000000000000000000000000\n        /* \"#utility.yul\":4396:4397   */\n      0x00\n        /* \"#utility.yul\":4388:4394   */\n      dup3\n        /* \"#utility.yul\":4384:4398   */\n      add\n        /* \"#utility.yul\":4377:4408   */\n      mstore\n        /* \"#utility.yul\":4260:4415   */\n      pop\n      jump\t// out\n        /* \"#utility.yul\":4421:4786   */\n    tag_96:\n        /* \"#utility.yul\":4563:4566   */\n      0x00\n        /* \"#utility.yul\":4584:4650   */\n      tag_143\n        /* \"#utility.yul\":4648:4649   */\n      0x05\n        /* \"#utility.yul\":4643:4646   */\n      dup4\n        /* \"#utility.yul\":4584:4650   */\n      tag_89\n      jump\t// in\n    tag_143:\n        /* \"#utility.yul\":4577:4650   */\n      swap2\n      pop\n        /* \"#utility.yul\":4659:4752   */\n      tag_144\n        /* \"#utility.yul\":4748:4751   */\n      dup3\n        /* \"#utility.yul\":4659:4752   */\n      tag_95\n      jump\t// in\n    tag_144:\n        /* \"#utility.yul\":4777:4779   */\n      0x20\n        /* \"#utility.yul\":4772:4775   */\n      dup3\n        /* \"#utility.yul\":4768:4780   */\n      add\n        /* \"#utility.yul\":4761:4780   */\n      swap1\n      pop\n        /* \"#utility.yul\":4421:4786   */\n      swap2\n      swap1\n      pop\n      jump\t// out\n        /* \"#utility.yul\":4792:5211   */\n    tag_65:\n        /* \"#utility.yul\":4958:4962   */\n      0x00\n        /* \"#utility.yul\":4996:4998   */\n      0x20\n        /* \"#utility.yul\":4985:4994   */\n      dup3\n        /* \"#utility.yul\":4981:4999   */\n      add\n        /* \"#utility.yul\":4973:4999   */\n      swap1\n      pop\n        /* \"#utility.yul\":5045:5054   */\n      dup2\n        /* \"#utility.yul\":5039:5043   */\n      dup2\n        /* \"#utility.yul\":5035:5055   */\n      sub\n        /* \"#utility.yul\":5031:5032   */\n      0x00\n        /* \"#utility.yul\":5020:5029   */\n      dup4\n        /* \"#utility.yul\":5016:5033   */\n      add\n        /* \"#utility.yul\":5009:5056   */\n      mstore\n        /* \"#utility.yul\":5073:5204   */\n      tag_146\n        /* \"#utility.yul\":5199:5203   */\n      dup2\n        /* \"#utility.yul\":5073:5204   */\n      tag_96\n      jump\t// in\n    tag_146:\n        /* \"#utility.yul\":5065:5204   */\n      swap1\n      pop\n        /* \"#utility.yul\":4792:5211   */\n      swap2\n      swap1\n      pop\n      jump\t// out\n        /* \"#utility.yul\":5217:5371   */\n    tag_97:\n        /* \"#utility.yul\":5357:5363   */\n      0x4e6f706500000000000000000000000000000000000000000000000000000000\n        /* \"#utility.yul\":5353:5354   */\n      0x00\n        /* \"#utility.yul\":5345:5351   */\n      dup3\n        /* \"#utility.yul\":5341:5355   */\n      add\n        /* \"#utility.yul\":5334:5364   */\n      mstore\n        /* \"#utility.yul\":5217:5371   */\n      pop\n      jump\t// out\n        /* \"#utility.yul\":5377:5742   */\n    tag_98:\n        /* \"#utility.yul\":5519:5522   */\n      0x00\n        /* \"#utility.yul\":5540:5606   */\n      tag_149\n        /* \"#utility.yul\":5604:5605   */\n      0x04\n        /* \"#utility.yul\":5599:5602   */\n      dup4\n        /* \"#utility.yul\":5540:5606   */\n      tag_89\n      jump\t// in\n    tag_149:\n        /* \"#utility.yul\":5533:5606   */\n      swap2\n      pop\n        /* \"#utility.yul\":5615:5708   */\n      tag_150\n        /* \"#utility.yul\":5704:5707   */\n      dup3\n        /* \"#utility.yul\":5615:5708   */\n      tag_97\n      jump\t// in\n    tag_150:\n        /* \"#utility.yul\":5733:5735   */\n      0x20\n        /* \"#utility.yul\":5728:5731   */\n      dup3\n        /* \"#utility.yul\":5724:5736   */\n      add\n        /* \"#utility.yul\":5717:5736   */\n      swap1\n      pop\n        /* \"#utility.yul\":5377:5742   */\n      swap2\n      swap1\n      pop\n      jump\t// out\n        /* \"#utility.yul\":5748:6167   */\n    tag_79:\n        /* \"#utility.yul\":5914:5918   */\n      0x00\n        /* \"#utility.yul\":5952:5954   */\n      0x20\n        /* \"#utility.yul\":5941:5950   */\n      dup3\n        /* \"#utility.yul\":5937:5955   */\n      add\n        /* \"#utility.yul\":5929:5955   */\n      swap1\n      pop\n        /* \"#utility.yul\":6001:6010   */\n      dup2\n        /* \"#utility.yul\":5995:5999   */\n      dup2\n        /* \"#utility.yul\":5991:6011   */\n      sub\n        /* \"#utility.yul\":5987:5988   */\n      0x00\n        /* \"#utility.yul\":5976:5985   */\n      dup4\n        /* \"#utility.yul\":5972:5989   */\n      add\n        /* \"#utility.yul\":5965:6012   */\n      mstore\n        /* \"#utility.yul\":6029:6160   */\n      tag_152\n        /* \"#utility.yul\":6155:6159   */\n      dup2\n        /* \"#utility.yul\":6029:6160   */\n      tag_98\n      jump\t// in\n    tag_152:\n        /* \"#utility.yul\":6021:6160   */\n      swap1\n      pop\n        /* \"#utility.yul\":5748:6167   */\n      swap2\n      swap1\n      pop\n      jump\t// out\n\n    auxdata: 0xa2646970667358221220cb1fd79c322036f1920a69d32fd748ef70559894f99ca9786471f87b1fae13c864736f6c63430008120033\n}\n",
				"bytecode": {
					"linkReferences": {},
					"object": "6080604052600160005534801561001557600080fd5b506106d6806100256000396000f3fe608060405234801561001057600080fd5b50600436106100935760003560e01c806395f05c781161006657806395f05c781461010e578063d46300fd14610118578063dcbf774614610136578063dde07ac414610140578063fdc4dd0b1461015e57610093565b806312a7b914146100985780636f89b4c5146100b65780637938d4c0146100d45780637a72b90314610104575b600080fd5b6100a061018e565b6040516100ad91906103d2565b60405180910390f35b6100be610198565b6040516100cb9190610406565b60405180910390f35b6100ee60048036038101906100e99190610452565b6101a9565b6040516100fb9190610406565b60405180910390f35b61010c610254565b005b61011661025e565b005b6101206102ab565b60405161012d9190610406565b60405180910390f35b61013e6102b4565b005b610148610301565b6040516101559190610406565b60405180910390f35b61017860048036038101906101739190610452565b610352565b60405161018591906103d2565b60405180910390f35b6000808091505090565b600080600190506000819250505090565b6000806003836101b9919061052b565b036102125760006003836101cd919061052b565b0361020d576040517f08c379a0000000000000000000000000000000000000000000000000000000008152600401610204906105a8565b60405180910390fd5b61024e565b6001600383610221919061052b565b0361023a57600382610233919061052b565b905061024f565b600382610247919061052b565b905061024f565b5b919050565b6005600081905550565b60006005600081905550806102a8576040517f08c379a000000000000000000000000000000000000000000000000000000000815260040161029f90610614565b60405180910390fd5b50565b60008054905090565b60006102be610254565b806102fe576040517f08c379a00000000000000000000000000000000000000000000000000000000081526004016102f590610614565b60405180910390fd5b50565b6000806001905060008061034a576040517f08c379a0000000000000000000000000000000000000000000000000000000008152600401610341906104dc565b60405180910390fd5b819250505090565b600080600583610362919061052b565b14801561036f5750600a82115b6103ae576040517f08c379a00000000000000000000000000000000000000000000000000000000081526004016103a590610680565b60405180910390fd5b60019050919050565b60008115159050919050565b6103cc816103b7565b82525050565b60006020820190506103e760008301846103c3565b92915050565b6000819050919050565b610400816103ed565b82525050565b600060208201905061041b60008301846103f7565b92915050565b600080fd5b61042f816103ed565b811461043a57600080fd5b50565b60008135905061044c81610426565b92915050565b60006020828403121561046857610467610421565b5b60006104768482850161043d565b91505092915050565b600082825260208201905092915050565b7f4572726f72000000000000000000000000000000000000000000000000000000600082015250565b60006104c660058361047f565b91506104d182610490565b602082019050919050565b600060208201905081810360008301526104f5816104b9565b9050919050565b7f4e487b7100000000000000000000000000000000000000000000000000000000600052601260045260246000fd5b6000610536826103ed565b9150610541836103ed565b925082610551576105506104fc565b5b828206905092915050565b7f6e6f706500000000000000000000000000000000000000000000000000000000600082015250565b600061059260048361047f565b915061059d8261055c565b602082019050919050565b600060208201905081810360008301526105c181610585565b9050919050565b7f6572726f72000000000000000000000000000000000000000000000000000000600082015250565b60006105fe60058361047f565b9150610609826105c8565b602082019050919050565b6000602082019050818103600083015261062d816105f1565b9050919050565b7f4e6f706500000000000000000000000000000000000000000000000000000000600082015250565b600061066a60048361047f565b915061067582610634565b602082019050919050565b600060208201905081810360008301526106998161065d565b905091905056fea2646970667358221220cb1fd79c322036f1920a69d32fd748ef70559894f99ca9786471f87b1fae13c864736f6c63430008120033",
					"opcodes": "PUSH1 0x80 PUSH1 0x40 MSTORE PUSH1 0x1 PUSH1 0x0 SSTORE CALLVALUE DUP1 ISZERO PUSH2 0x15 JUMPI PUSH1 0x0 DUP1 REVERT JUMPDEST POP PUSH2 0x6D6 DUP1 PUSH2 0x25 PUSH1 0x0 CODECOPY PUSH1 0x0 RETURN INVALID PUSH1 0x80 PUSH1 0x40 MSTORE CALLVALUE DUP1 ISZERO PUSH2 0x10 JUMPI PUSH1 0x0 DUP1 REVERT JUMPDEST POP PUSH1 0x4 CALLDATASIZE LT PUSH2 0x93 JUMPI PUSH1 0x0 CALLDATALOAD PUSH1 0xE0 SHR DUP1 PUSH4 0x95F05C78 GT PUSH2 0x66 JUMPI DUP1 PUSH4 0x95F05C78 EQ PUSH2 0x10E JUMPI DUP1 PUSH4 0xD46300FD EQ PUSH2 0x118 JUMPI DUP1 PUSH4 0xDCBF7746 EQ PUSH2 0x136 JUMPI DUP1 PUSH4 0xDDE07AC4 EQ PUSH2 0x140 JUMPI DUP1 PUSH4 0xFDC4DD0B EQ PUSH2 0x15E JUMPI PUSH2 0x93 JUMP JUMPDEST DUP1 PUSH4 0x12A7B914 EQ PUSH2 0x98 JUMPI DUP1 PUSH4 0x6F89B4C5 EQ PUSH2 0xB6 JUMPI DUP1 PUSH4 0x7938D4C0 EQ PUSH2 0xD4 JUMPI DUP1 PUSH4 0x7A72B903 EQ PUSH2 0x104 JUMPI JUMPDEST PUSH1 0x0 DUP1 REVERT JUMPDEST PUSH2 0xA0 PUSH2 0x18E JUMP JUMPDEST PUSH1 0x40 MLOAD PUSH2 0xAD SWAP2 SWAP1 PUSH2 0x3D2 JUMP JUMPDEST PUSH1 0x40 MLOAD DUP1 SWAP2 SUB SWAP1 RETURN JUMPDEST PUSH2 0xBE PUSH2 0x198 JUMP JUMPDEST PUSH1 0x40 MLOAD PUSH2 0xCB SWAP2 SWAP1 PUSH2 0x406 JUMP JUMPDEST PUSH1 0x40 MLOAD DUP1 SWAP2 SUB SWAP1 RETURN JUMPDEST PUSH2 0xEE PUSH1 0x4 DUP1 CALLDATASIZE SUB DUP2 ADD SWAP1 PUSH2 0xE9 SWAP2 SWAP1 PUSH2 0x452 JUMP JUMPDEST PUSH2 0x1A9 JUMP JUMPDEST PUSH1 0x40 MLOAD PUSH2 0xFB SWAP2 SWAP1 PUSH2 0x406 JUMP JUMPDEST PUSH1 0x40 MLOAD DUP1 SWAP2 SUB SWAP1 RETURN JUMPDEST PUSH2 0x10C PUSH2 0x254 JUMP JUMPDEST STOP JUMPDEST PUSH2 0x116 PUSH2 0x25E JUMP JUMPDEST STOP JUMPDEST PUSH2 0x120 PUSH2 0x2AB JUMP JUMPDEST PUSH1 0x40 MLOAD PUSH2 0x12D SWAP2 SWAP1 PUSH2 0x406 JUMP JUMPDEST PUSH1 0x40 MLOAD DUP1 SWAP2 SUB SWAP1 RETURN JUMPDEST PUSH2 0x13E PUSH2 0x2B4 JUMP JUMPDEST STOP JUMPDEST PUSH2 0x148 PUSH2 0x301 JUMP JUMPDEST PUSH1 0x40 MLOAD PUSH2 0x155 SWAP2 SWAP1 PUSH2 0x406 JUMP JUMPDEST PUSH1 0x40 MLOAD DUP1 SWAP2 SUB SWAP1 RETURN JUMPDEST PUSH2 0x178 PUSH1 0x4 DUP1 CALLDATASIZE SUB DUP2 ADD SWAP1 PUSH2 0x173 SWAP2 SWAP1 PUSH2 0x452 JUMP JUMPDEST PUSH2 0x352 JUMP JUMPDEST PUSH1 0x40 MLOAD PUSH2 0x185 SWAP2 SWAP1 PUSH2 0x3D2 JUMP JUMPDEST PUSH1 0x40 MLOAD DUP1 SWAP2 SUB SWAP1 RETURN JUMPDEST PUSH1 0x0 DUP1 DUP1 SWAP2 POP POP SWAP1 JUMP JUMPDEST PUSH1 0x0 DUP1 PUSH1 0x1 SWAP1 POP PUSH1 0x0 DUP2 SWAP3 POP POP POP SWAP1 JUMP JUMPDEST PUSH1 0x0 DUP1 PUSH1 0x3 DUP4 PUSH2 0x1B9 SWAP2 SWAP1 PUSH2 0x52B JUMP JUMPDEST SUB PUSH2 0x212 JUMPI PUSH1 0x0 PUSH1 0x3 DUP4 PUSH2 0x1CD SWAP2 SWAP1 PUSH2 0x52B JUMP JUMPDEST SUB PUSH2 0x20D JUMPI PUSH1 0x40 MLOAD PUSH32 0x8C379A000000000000000000000000000000000000000000000000000000000 DUP2 MSTORE PUSH1 0x4 ADD PUSH2 0x204 SWAP1 PUSH2 0x5A8 JUMP JUMPDEST PUSH1 0x40 MLOAD DUP1 SWAP2 SUB SWAP1 REVERT JUMPDEST PUSH2 0x24E JUMP JUMPDEST PUSH1 0x1 PUSH1 0x3 DUP4 PUSH2 0x221 SWAP2 SWAP1 PUSH2 0x52B JUMP JUMPDEST SUB PUSH2 0x23A JUMPI PUSH1 0x3 DUP3 PUSH2 0x233 SWAP2 SWAP1 PUSH2 0x52B JUMP JUMPDEST SWAP1 POP PUSH2 0x24F JUMP JUMPDEST PUSH1 0x3 DUP3 PUSH2 0x247 SWAP2 SWAP1 PUSH2 0x52B JUMP JUMPDEST SWAP1 POP PUSH2 0x24F JUMP JUMPDEST JUMPDEST SWAP2 SWAP1 POP JUMP JUMPDEST PUSH1 0x5 PUSH1 0x0 DUP2 SWAP1 SSTORE POP JUMP JUMPDEST PUSH1 0x0 PUSH1 0x5 PUSH1 0x0 DUP2 SWAP1 SSTORE POP DUP1 PUSH2 0x2A8 JUMPI PUSH1 0x40 MLOAD PUSH32 0x8C379A000000000000000000000000000000000000000000000000000000000 DUP2 MSTORE PUSH1 0x4 ADD PUSH2 0x29F SWAP1 PUSH2 0x614 JUMP JUMPDEST PUSH1 0x40 MLOAD DUP1 SWAP2 SUB SWAP1 REVERT JUMPDEST POP JUMP JUMPDEST PUSH1 0x0 DUP1 SLOAD SWAP1 POP SWAP1 JUMP JUMPDEST PUSH1 0x0 PUSH2 0x2BE PUSH2 0x254 JUMP JUMPDEST DUP1 PUSH2 0x2FE JUMPI PUSH1 0x40 MLOAD PUSH32 0x8C379A000000000000000000000000000000000000000000000000000000000 DUP2 MSTORE PUSH1 0x4 ADD PUSH2 0x2F5 SWAP1 PUSH2 0x614 JUMP JUMPDEST PUSH1 0x40 MLOAD DUP1 SWAP2 SUB SWAP1 REVERT JUMPDEST POP JUMP JUMPDEST PUSH1 0x0 DUP1 PUSH1 0x1 SWAP1 POP PUSH1 0x0 DUP1 PUSH2 0x34A JUMPI PUSH1 0x40 MLOAD PUSH32 0x8C379A000000000000000000000000000000000000000000000000000000000 DUP2 MSTORE PUSH1 0x4 ADD PUSH2 0x341 SWAP1 PUSH2 0x4DC JUMP JUMPDEST PUSH1 0x40 MLOAD DUP1 SWAP2 SUB SWAP1 REVERT JUMPDEST DUP2 SWAP3 POP POP POP SWAP1 JUMP JUMPDEST PUSH1 0x0 DUP1 PUSH1 0x5 DUP4 PUSH2 0x362 SWAP2 SWAP1 PUSH2 0x52B JUMP JUMPDEST EQ DUP1 ISZERO PUSH2 0x36F JUMPI POP PUSH1 0xA DUP3 GT JUMPDEST PUSH2 0x3AE JUMPI PUSH1 0x40 MLOAD PUSH32 0x8C379A000000000000000000000000000000000000000000000000000000000 DUP2 MSTORE PUSH1 0x4 ADD PUSH2 0x3A5 SWAP1 PUSH2 0x680 JUMP JUMPDEST PUSH1 0x40 MLOAD DUP1 SWAP2 SUB SWAP1 REVERT JUMPDEST PUSH1 0x1 SWAP1 POP SWAP2 SWAP1 POP JUMP JUMPDEST PUSH1 0x0 DUP2 ISZERO ISZERO SWAP1 POP SWAP2 SWAP1 POP JUMP JUMPDEST PUSH2 0x3CC DUP2 PUSH2 0x3B7 JUMP JUMPDEST DUP3 MSTORE POP POP JUMP JUMPDEST PUSH1 0x0 PUSH1 0x20 DUP3 ADD SWAP1 POP PUSH2 0x3E7 PUSH1 0x0 DUP4 ADD DUP5 PUSH2 0x3C3 JUMP JUMPDEST SWAP3 SWAP2 POP POP JUMP JUMPDEST PUSH1 0x0 DUP2 SWAP1 POP SWAP2 SWAP1 POP JUMP JUMPDEST PUSH2 0x400 DUP2 PUSH2 0x3ED JUMP JUMPDEST DUP3 MSTORE POP POP JUMP JUMPDEST PUSH1 0x0 PUSH1 0x20 DUP3 ADD SWAP1 POP PUSH2 0x41B PUSH1 0x0 DUP4 ADD DUP5 PUSH2 0x3F7 JUMP JUMPDEST SWAP3 SWAP2 POP POP JUMP JUMPDEST PUSH1 0x0 DUP1 REVERT JUMPDEST PUSH2 0x42F DUP2 PUSH2 0x3ED JUMP JUMPDEST DUP2 EQ PUSH2 0x43A JUMPI PUSH1 0x0 DUP1 REVERT JUMPDEST POP JUMP JUMPDEST PUSH1 0x0 DUP2 CALLDATALOAD SWAP1 POP PUSH2 0x44C DUP2 PUSH2 0x426 JUMP JUMPDEST SWAP3 SWAP2 POP POP JUMP JUMPDEST PUSH1 0x0 PUSH1 0x20 DUP3 DUP5 SUB SLT ISZERO PUSH2 0x468 JUMPI PUSH2 0x467 PUSH2 0x421 JUMP JUMPDEST JUMPDEST PUSH1 0x0 PUSH2 0x476 DUP5 DUP3 DUP6 ADD PUSH2 0x43D JUMP JUMPDEST SWAP2 POP POP SWAP3 SWAP2 POP POP JUMP JUMPDEST PUSH1 0x0 DUP3 DUP3 MSTORE PUSH1 0x20 DUP3 ADD SWAP1 POP SWAP3 SWAP2 POP POP JUMP JUMPDEST PUSH32 0x4572726F72000000000000000000000000000000000000000000000000000000 PUSH1 0x0 DUP3 ADD MSTORE POP JUMP JUMPDEST PUSH1 0x0 PUSH2 0x4C6 PUSH1 0x5 DUP4 PUSH2 0x47F JUMP JUMPDEST SWAP2 POP PUSH2 0x4D1 DUP3 PUSH2 0x490 JUMP JUMPDEST PUSH1 0x20 DUP3 ADD SWAP1 POP SWAP2 SWAP1 POP JUMP JUMPDEST PUSH1 0x0 PUSH1 0x20 DUP3 ADD SWAP1 POP DUP2 DUP2 SUB PUSH1 0x0 DUP4 ADD MSTORE PUSH2 0x4F5 DUP2 PUSH2 0x4B9 JUMP JUMPDEST SWAP1 POP SWAP2 SWAP1 POP JUMP JUMPDEST PUSH32 0x4E487B7100000000000000000000000000000000000000000000000000000000 PUSH1 0x0 MSTORE PUSH1 0x12 PUSH1 0x4 MSTORE PUSH1 0x24 PUSH1 0x0 REVERT JUMPDEST PUSH1 0x0 PUSH2 0x536 DUP3 PUSH2 0x3ED JUMP JUMPDEST SWAP2 POP PUSH2 0x541 DUP4 PUSH2 0x3ED JUMP JUMPDEST SWAP3 POP DUP3 PUSH2 0x551 JUMPI PUSH2 0x550 PUSH2 0x4FC JUMP JUMPDEST JUMPDEST DUP3 DUP3 MOD SWAP1 POP SWAP3 SWAP2 POP POP JUMP JUMPDEST PUSH32 0x6E6F706500000000000000000000000000000000000000000000000000000000 PUSH1 0x0 DUP3 ADD MSTORE POP JUMP JUMPDEST PUSH1 0x0 PUSH2 0x592 PUSH1 0x4 DUP4 PUSH2 0x47F JUMP JUMPDEST SWAP2 POP PUSH2 0x59D DUP3 PUSH2 0x55C JUMP JUMPDEST PUSH1 0x20 DUP3 ADD SWAP1 POP SWAP2 SWAP1 POP JUMP JUMPDEST PUSH1 0x0 PUSH1 0x20 DUP3 ADD SWAP1 POP DUP2 DUP2 SUB PUSH1 0x0 DUP4 ADD MSTORE PUSH2 0x5C1 DUP2 PUSH2 0x585 JUMP JUMPDEST SWAP1 POP SWAP2 SWAP1 POP JUMP JUMPDEST PUSH32 0x6572726F72000000000000000000000000000000000000000000000000000000 PUSH1 0x0 DUP3 ADD MSTORE POP JUMP JUMPDEST PUSH1 0x0 PUSH2 0x5FE PUSH1 0x5 DUP4 PUSH2 0x47F JUMP JUMPDEST SWAP2 POP PUSH2 0x609 DUP3 PUSH2 0x5C8 JUMP JUMPDEST PUSH1 0x20 DUP3 ADD SWAP1 POP SWAP2 SWAP1 POP JUMP JUMPDEST PUSH1 0x0 PUSH1 0x20 DUP3 ADD SWAP1 POP DUP2 DUP2 SUB PUSH1 0x0 DUP4 ADD MSTORE PUSH2 0x62D DUP2 PUSH2 0x5F1 JUMP JUMPDEST SWAP1 POP SWAP2 SWAP1 POP JUMP JUMPDEST PUSH32 0x4E6F706500000000000000000000000000000000000000000000000000000000 PUSH1 0x0 DUP3 ADD MSTORE POP JUMP JUMPDEST PUSH1 0x0 PUSH2 0x66A PUSH1 0x4 DUP4 PUSH2 0x47F JUMP JUMPDEST SWAP2 POP PUSH2 0x675 DUP3 PUSH2 0x634 JUMP JUMPDEST PUSH1 0x20 DUP3 ADD SWAP1 POP SWAP2 SWAP1 POP JUMP JUMPDEST PUSH1 0x0 PUSH1 0x20 DUP3 ADD SWAP1 POP DUP2 DUP2 SUB PUSH1 0x0 DUP4 ADD MSTORE PUSH2 0x699 DUP2 PUSH2 0x65D JUMP JUMPDEST SWAP1 POP SWAP2 SWAP1 POP JUMP INVALID LOG2 PUSH5 0x6970667358 0x22 SLT KECCAK256 0xCB 0x1F 0xD7 SWAP13 ORIGIN KECCAK256 CALLDATASIZE CALL SWAP3 EXP PUSH10 0xD32FD748EF70559894F9 SWAP13 0xA9 PUSH25 0x6471F87B1FAE13C864736F6C63430008120033000000000000 "
				},
				"gasEstimates": {
					"creation": {
						"codeDepositCost": "350000",
						"executionCost": "22492",
						"totalCost": "372492"
					},
					"external": {
						"Require1()": "533",
						"Require2()": "378",
						"Require3()": "22567",
						"Require4()": "22635",
						"Require5(uint256)": "infinite",
						"Require6(uint256)": "infinite",
						"getA()": "2459",
						"getBool()": "349",
						"setAasFive()": "22325"
					}
				},
				"methodIdentifiers": {
					"Require1()": "dde07ac4",
					"Require2()": "6f89b4c5",
					"Require3()": "95f05c78",
					"Require4()": "dcbf7746",
					"Require5(uint256)": "fdc4dd0b",
					"Require6(uint256)": "7938d4c0",
					"getA()": "d46300fd",
					"getBool()": "12a7b914",
					"setAasFive()": "7a72b903"
				}
			},
			"storageLayout": {
				"storage": [
					{
						"astId": 109,
						"contract": "contracts/230515/1_require.sol:REQUIRE2",
						"label": "a",
						"offset": 0,
						"slot": "0",
						"type": "t_uint256"
					}
				],
				"types": {
					"t_uint256": {
						"encoding": "inplace",
						"label": "uint256",
						"numberOfBytes": "32"
					}
				}
			},
			"userdoc": {
				"kind": "user",
				"methods": {},
				"version": 1
			}
		}
	}
}