{
	"contracts/230524/a.sol": {
		"A": {
			"abi": [
				{
					"inputs": [],
					"name": "a",
					"outputs": [
						{
							"internalType": "uint256",
							"name": "",
							"type": "uint256"
						}
					],
					"stateMutability": "view",
					"type": "function"
				},
				{
					"inputs": [
						{
							"internalType": "uint256",
							"name": "_a",
							"type": "uint256"
						},
						{
							"internalType": "uint256",
							"name": "_b",
							"type": "uint256"
						},
						{
							"internalType": "uint256",
							"name": "_c",
							"type": "uint256"
						},
						{
							"internalType": "uint256",
							"name": "_d",
							"type": "uint256"
						}
					],
					"name": "add",
					"outputs": [
						{
							"internalType": "uint256",
							"name": "",
							"type": "uint256"
						}
					],
					"stateMutability": "pure",
					"type": "function"
				},
				{
					"inputs": [
						{
							"internalType": "uint256",
							"name": "_a",
							"type": "uint256"
						}
					],
					"name": "setA",
					"outputs": [],
					"stateMutability": "nonpayable",
					"type": "function"
				}
			],
			"devdoc": {
				"kind": "dev",
				"methods": {},
				"version": 1
			},
			"evm": {
				"assembly": "    /* \"contracts/230524/a.sol\":61:277  contract A {... */\n  mstore(0x40, 0x80)\n  callvalue\n  dup1\n  iszero\n  tag_1\n  jumpi\n  0x00\n  dup1\n  revert\ntag_1:\n  pop\n  dataSize(sub_0)\n  dup1\n  dataOffset(sub_0)\n  0x00\n  codecopy\n  0x00\n  return\nstop\n\nsub_0: assembly {\n        /* \"contracts/230524/a.sol\":61:277  contract A {... */\n      mstore(0x40, 0x80)\n      callvalue\n      dup1\n      iszero\n      tag_1\n      jumpi\n      0x00\n      dup1\n      revert\n    tag_1:\n      pop\n      jumpi(tag_2, lt(calldatasize, 0x04))\n      shr(0xe0, calldataload(0x00))\n      dup1\n      0x0dbe671f\n      eq\n      tag_3\n      jumpi\n      dup1\n      0xe022d77c\n      eq\n      tag_4\n      jumpi\n      dup1\n      0xee919d50\n      eq\n      tag_5\n      jumpi\n    tag_2:\n      0x00\n      dup1\n      revert\n        /* \"contracts/230524/a.sol\":199:212  uint public a */\n    tag_3:\n      tag_6\n      tag_7\n      jump\t// in\n    tag_6:\n      mload(0x40)\n      tag_8\n      swap2\n      swap1\n      tag_9\n      jump\t// in\n    tag_8:\n      mload(0x40)\n      dup1\n      swap2\n      sub\n      swap1\n      return\n        /* \"contracts/230524/a.sol\":79:191  function add(uint _a, uint _b, uint _c, uint _d) public pure returns(uint) {... */\n    tag_4:\n      tag_10\n      0x04\n      dup1\n      calldatasize\n      sub\n      dup2\n      add\n      swap1\n      tag_11\n      swap2\n      swap1\n      tag_12\n      jump\t// in\n    tag_11:\n      tag_13\n      jump\t// in\n    tag_10:\n      mload(0x40)\n      tag_14\n      swap2\n      swap1\n      tag_9\n      jump\t// in\n    tag_14:\n      mload(0x40)\n      dup1\n      swap2\n      sub\n      swap1\n      return\n        /* \"contracts/230524/a.sol\":219:274  function setA(uint _a) public {... */\n    tag_5:\n      tag_15\n      0x04\n      dup1\n      calldatasize\n      sub\n      dup2\n      add\n      swap1\n      tag_16\n      swap2\n      swap1\n      tag_17\n      jump\t// in\n    tag_16:\n      tag_18\n      jump\t// in\n    tag_15:\n      stop\n        /* \"contracts/230524/a.sol\":199:212  uint public a */\n    tag_7:\n      sload(0x00)\n      dup2\n      jump\t// out\n        /* \"contracts/230524/a.sol\":79:191  function add(uint _a, uint _b, uint _c, uint _d) public pure returns(uint) {... */\n    tag_13:\n        /* \"contracts/230524/a.sol\":148:152  uint */\n      0x00\n        /* \"contracts/230524/a.sol\":181:183  _d */\n      dup2\n        /* \"contracts/230524/a.sol\":178:180  _c */\n      dup4\n        /* \"contracts/230524/a.sol\":175:177  _b */\n      dup6\n        /* \"contracts/230524/a.sol\":172:174  _a */\n      dup8\n        /* \"contracts/230524/a.sol\":172:177  _a+_b */\n      tag_20\n      swap2\n      swap1\n      tag_21\n      jump\t// in\n    tag_20:\n        /* \"contracts/230524/a.sol\":172:180  _a+_b+_c */\n      tag_22\n      swap2\n      swap1\n      tag_21\n      jump\t// in\n    tag_22:\n        /* \"contracts/230524/a.sol\":172:183  _a+_b+_c+_d */\n      tag_23\n      swap2\n      swap1\n      tag_21\n      jump\t// in\n    tag_23:\n        /* \"contracts/230524/a.sol\":165:183  return _a+_b+_c+_d */\n      swap1\n      pop\n        /* \"contracts/230524/a.sol\":79:191  function add(uint _a, uint _b, uint _c, uint _d) public pure returns(uint) {... */\n      swap5\n      swap4\n      pop\n      pop\n      pop\n      pop\n      jump\t// out\n        /* \"contracts/230524/a.sol\":219:274  function setA(uint _a) public {... */\n    tag_18:\n        /* \"contracts/230524/a.sol\":264:266  _a */\n      dup1\n        /* \"contracts/230524/a.sol\":260:261  a */\n      0x00\n        /* \"contracts/230524/a.sol\":260:266  a = _a */\n      dup2\n      swap1\n      sstore\n      pop\n        /* \"contracts/230524/a.sol\":219:274  function setA(uint _a) public {... */\n      pop\n      jump\t// out\n        /* \"#utility.yul\":7:84   */\n    tag_25:\n        /* \"#utility.yul\":44:51   */\n      0x00\n        /* \"#utility.yul\":73:78   */\n      dup2\n        /* \"#utility.yul\":62:78   */\n      swap1\n      pop\n        /* \"#utility.yul\":7:84   */\n      swap2\n      swap1\n      pop\n      jump\t// out\n        /* \"#utility.yul\":90:208   */\n    tag_26:\n        /* \"#utility.yul\":177:201   */\n      tag_36\n        /* \"#utility.yul\":195:200   */\n      dup2\n        /* \"#utility.yul\":177:201   */\n      tag_25\n      jump\t// in\n    tag_36:\n        /* \"#utility.yul\":172:175   */\n      dup3\n        /* \"#utility.yul\":165:202   */\n      mstore\n        /* \"#utility.yul\":90:208   */\n      pop\n      pop\n      jump\t// out\n        /* \"#utility.yul\":214:436   */\n    tag_9:\n        /* \"#utility.yul\":307:311   */\n      0x00\n        /* \"#utility.yul\":345:347   */\n      0x20\n        /* \"#utility.yul\":334:343   */\n      dup3\n        /* \"#utility.yul\":330:348   */\n      add\n        /* \"#utility.yul\":322:348   */\n      swap1\n      pop\n        /* \"#utility.yul\":358:429   */\n      tag_38\n        /* \"#utility.yul\":426:427   */\n      0x00\n        /* \"#utility.yul\":415:424   */\n      dup4\n        /* \"#utility.yul\":411:428   */\n      add\n        /* \"#utility.yul\":402:408   */\n      dup5\n        /* \"#utility.yul\":358:429   */\n      tag_26\n      jump\t// in\n    tag_38:\n        /* \"#utility.yul\":214:436   */\n      swap3\n      swap2\n      pop\n      pop\n      jump\t// out\n        /* \"#utility.yul\":523:640   */\n    tag_28:\n        /* \"#utility.yul\":632:633   */\n      0x00\n        /* \"#utility.yul\":629:630   */\n      dup1\n        /* \"#utility.yul\":622:634   */\n      revert\n        /* \"#utility.yul\":769:891   */\n    tag_30:\n        /* \"#utility.yul\":842:866   */\n      tag_43\n        /* \"#utility.yul\":860:865   */\n      dup2\n        /* \"#utility.yul\":842:866   */\n      tag_25\n      jump\t// in\n    tag_43:\n        /* \"#utility.yul\":835:840   */\n      dup2\n        /* \"#utility.yul\":832:867   */\n      eq\n        /* \"#utility.yul\":822:885   */\n      tag_44\n      jumpi\n        /* \"#utility.yul\":881:882   */\n      0x00\n        /* \"#utility.yul\":878:879   */\n      dup1\n        /* \"#utility.yul\":871:883   */\n      revert\n        /* \"#utility.yul\":822:885   */\n    tag_44:\n        /* \"#utility.yul\":769:891   */\n      pop\n      jump\t// out\n        /* \"#utility.yul\":897:1036   */\n    tag_31:\n        /* \"#utility.yul\":943:948   */\n      0x00\n        /* \"#utility.yul\":981:987   */\n      dup2\n        /* \"#utility.yul\":968:988   */\n      calldataload\n        /* \"#utility.yul\":959:988   */\n      swap1\n      pop\n        /* \"#utility.yul\":997:1030   */\n      tag_46\n        /* \"#utility.yul\":1024:1029   */\n      dup2\n        /* \"#utility.yul\":997:1030   */\n      tag_30\n      jump\t// in\n    tag_46:\n        /* \"#utility.yul\":897:1036   */\n      swap3\n      swap2\n      pop\n      pop\n      jump\t// out\n        /* \"#utility.yul\":1042:1807   */\n    tag_12:\n        /* \"#utility.yul\":1128:1134   */\n      0x00\n        /* \"#utility.yul\":1136:1142   */\n      dup1\n        /* \"#utility.yul\":1144:1150   */\n      0x00\n        /* \"#utility.yul\":1152:1158   */\n      dup1\n        /* \"#utility.yul\":1201:1204   */\n      0x80\n        /* \"#utility.yul\":1189:1198   */\n      dup6\n        /* \"#utility.yul\":1180:1187   */\n      dup8\n        /* \"#utility.yul\":1176:1199   */\n      sub\n        /* \"#utility.yul\":1172:1205   */\n      slt\n        /* \"#utility.yul\":1169:1289   */\n      iszero\n      tag_48\n      jumpi\n        /* \"#utility.yul\":1208:1287   */\n      tag_49\n      tag_28\n      jump\t// in\n    tag_49:\n        /* \"#utility.yul\":1169:1289   */\n    tag_48:\n        /* \"#utility.yul\":1328:1329   */\n      0x00\n        /* \"#utility.yul\":1353:1406   */\n      tag_50\n        /* \"#utility.yul\":1398:1405   */\n      dup8\n        /* \"#utility.yul\":1389:1395   */\n      dup3\n        /* \"#utility.yul\":1378:1387   */\n      dup9\n        /* \"#utility.yul\":1374:1396   */\n      add\n        /* \"#utility.yul\":1353:1406   */\n      tag_31\n      jump\t// in\n    tag_50:\n        /* \"#utility.yul\":1343:1406   */\n      swap5\n      pop\n        /* \"#utility.yul\":1299:1416   */\n      pop\n        /* \"#utility.yul\":1455:1457   */\n      0x20\n        /* \"#utility.yul\":1481:1534   */\n      tag_51\n        /* \"#utility.yul\":1526:1533   */\n      dup8\n        /* \"#utility.yul\":1517:1523   */\n      dup3\n        /* \"#utility.yul\":1506:1515   */\n      dup9\n        /* \"#utility.yul\":1502:1524   */\n      add\n        /* \"#utility.yul\":1481:1534   */\n      tag_31\n      jump\t// in\n    tag_51:\n        /* \"#utility.yul\":1471:1534   */\n      swap4\n      pop\n        /* \"#utility.yul\":1426:1544   */\n      pop\n        /* \"#utility.yul\":1583:1585   */\n      0x40\n        /* \"#utility.yul\":1609:1662   */\n      tag_52\n        /* \"#utility.yul\":1654:1661   */\n      dup8\n        /* \"#utility.yul\":1645:1651   */\n      dup3\n        /* \"#utility.yul\":1634:1643   */\n      dup9\n        /* \"#utility.yul\":1630:1652   */\n      add\n        /* \"#utility.yul\":1609:1662   */\n      tag_31\n      jump\t// in\n    tag_52:\n        /* \"#utility.yul\":1599:1662   */\n      swap3\n      pop\n        /* \"#utility.yul\":1554:1672   */\n      pop\n        /* \"#utility.yul\":1711:1713   */\n      0x60\n        /* \"#utility.yul\":1737:1790   */\n      tag_53\n        /* \"#utility.yul\":1782:1789   */\n      dup8\n        /* \"#utility.yul\":1773:1779   */\n      dup3\n        /* \"#utility.yul\":1762:1771   */\n      dup9\n        /* \"#utility.yul\":1758:1780   */\n      add\n        /* \"#utility.yul\":1737:1790   */\n      tag_31\n      jump\t// in\n    tag_53:\n        /* \"#utility.yul\":1727:1790   */\n      swap2\n      pop\n        /* \"#utility.yul\":1682:1800   */\n      pop\n        /* \"#utility.yul\":1042:1807   */\n      swap3\n      swap6\n      swap2\n      swap5\n      pop\n      swap3\n      pop\n      jump\t// out\n        /* \"#utility.yul\":1813:2142   */\n    tag_17:\n        /* \"#utility.yul\":1872:1878   */\n      0x00\n        /* \"#utility.yul\":1921:1923   */\n      0x20\n        /* \"#utility.yul\":1909:1918   */\n      dup3\n        /* \"#utility.yul\":1900:1907   */\n      dup5\n        /* \"#utility.yul\":1896:1919   */\n      sub\n        /* \"#utility.yul\":1892:1924   */\n      slt\n        /* \"#utility.yul\":1889:2008   */\n      iszero\n      tag_55\n      jumpi\n        /* \"#utility.yul\":1927:2006   */\n      tag_56\n      tag_28\n      jump\t// in\n    tag_56:\n        /* \"#utility.yul\":1889:2008   */\n    tag_55:\n        /* \"#utility.yul\":2047:2048   */\n      0x00\n        /* \"#utility.yul\":2072:2125   */\n      tag_57\n        /* \"#utility.yul\":2117:2124   */\n      dup5\n        /* \"#utility.yul\":2108:2114   */\n      dup3\n        /* \"#utility.yul\":2097:2106   */\n      dup6\n        /* \"#utility.yul\":2093:2115   */\n      add\n        /* \"#utility.yul\":2072:2125   */\n      tag_31\n      jump\t// in\n    tag_57:\n        /* \"#utility.yul\":2062:2125   */\n      swap2\n      pop\n        /* \"#utility.yul\":2018:2135   */\n      pop\n        /* \"#utility.yul\":1813:2142   */\n      swap3\n      swap2\n      pop\n      pop\n      jump\t// out\n        /* \"#utility.yul\":2148:2328   */\n    tag_32:\n        /* \"#utility.yul\":2196:2273   */\n      0x4e487b7100000000000000000000000000000000000000000000000000000000\n        /* \"#utility.yul\":2193:2194   */\n      0x00\n        /* \"#utility.yul\":2186:2274   */\n      mstore\n        /* \"#utility.yul\":2293:2297   */\n      0x11\n        /* \"#utility.yul\":2290:2291   */\n      0x04\n        /* \"#utility.yul\":2283:2298   */\n      mstore\n        /* \"#utility.yul\":2317:2321   */\n      0x24\n        /* \"#utility.yul\":2314:2315   */\n      0x00\n        /* \"#utility.yul\":2307:2322   */\n      revert\n        /* \"#utility.yul\":2334:2525   */\n    tag_21:\n        /* \"#utility.yul\":2374:2377   */\n      0x00\n        /* \"#utility.yul\":2393:2413   */\n      tag_60\n        /* \"#utility.yul\":2411:2412   */\n      dup3\n        /* \"#utility.yul\":2393:2413   */\n      tag_25\n      jump\t// in\n    tag_60:\n        /* \"#utility.yul\":2388:2413   */\n      swap2\n      pop\n        /* \"#utility.yul\":2427:2447   */\n      tag_61\n        /* \"#utility.yul\":2445:2446   */\n      dup4\n        /* \"#utility.yul\":2427:2447   */\n      tag_25\n      jump\t// in\n    tag_61:\n        /* \"#utility.yul\":2422:2447   */\n      swap3\n      pop\n        /* \"#utility.yul\":2470:2471   */\n      dup3\n        /* \"#utility.yul\":2467:2468   */\n      dup3\n        /* \"#utility.yul\":2463:2472   */\n      add\n        /* \"#utility.yul\":2456:2472   */\n      swap1\n      pop\n        /* \"#utility.yul\":2491:2494   */\n      dup1\n        /* \"#utility.yul\":2488:2489   */\n      dup3\n        /* \"#utility.yul\":2485:2495   */\n      gt\n        /* \"#utility.yul\":2482:2518   */\n      iszero\n      tag_62\n      jumpi\n        /* \"#utility.yul\":2498:2516   */\n      tag_63\n      tag_32\n      jump\t// in\n    tag_63:\n        /* \"#utility.yul\":2482:2518   */\n    tag_62:\n        /* \"#utility.yul\":2334:2525   */\n      swap3\n      swap2\n      pop\n      pop\n      jump\t// out\n\n    auxdata: 0xa2646970667358221220bb5c7293adf997d672dfd5a98f167cbfd5ed39c85315dfae4014a6faf7b43fdf64736f6c63430008120033\n}\n",
				"bytecode": {
					"linkReferences": {},
					"object": "608060405234801561001057600080fd5b50610280806100206000396000f3fe608060405234801561001057600080fd5b50600436106100415760003560e01c80630dbe671f14610046578063e022d77c14610064578063ee919d5014610094575b600080fd5b61004e6100b0565b60405161005b9190610107565b60405180910390f35b61007e60048036038101906100799190610153565b6100b6565b60405161008b9190610107565b60405180910390f35b6100ae60048036038101906100a991906101ba565b6100e4565b005b60005481565b6000818385876100c69190610216565b6100d09190610216565b6100da9190610216565b9050949350505050565b8060008190555050565b6000819050919050565b610101816100ee565b82525050565b600060208201905061011c60008301846100f8565b92915050565b600080fd5b610130816100ee565b811461013b57600080fd5b50565b60008135905061014d81610127565b92915050565b6000806000806080858703121561016d5761016c610122565b5b600061017b8782880161013e565b945050602061018c8782880161013e565b935050604061019d8782880161013e565b92505060606101ae8782880161013e565b91505092959194509250565b6000602082840312156101d0576101cf610122565b5b60006101de8482850161013e565b91505092915050565b7f4e487b7100000000000000000000000000000000000000000000000000000000600052601160045260246000fd5b6000610221826100ee565b915061022c836100ee565b9250828201905080821115610244576102436101e7565b5b9291505056fea2646970667358221220bb5c7293adf997d672dfd5a98f167cbfd5ed39c85315dfae4014a6faf7b43fdf64736f6c63430008120033",
					"opcodes": "PUSH1 0x80 PUSH1 0x40 MSTORE CALLVALUE DUP1 ISZERO PUSH2 0x10 JUMPI PUSH1 0x0 DUP1 REVERT JUMPDEST POP PUSH2 0x280 DUP1 PUSH2 0x20 PUSH1 0x0 CODECOPY PUSH1 0x0 RETURN INVALID PUSH1 0x80 PUSH1 0x40 MSTORE CALLVALUE DUP1 ISZERO PUSH2 0x10 JUMPI PUSH1 0x0 DUP1 REVERT JUMPDEST POP PUSH1 0x4 CALLDATASIZE LT PUSH2 0x41 JUMPI PUSH1 0x0 CALLDATALOAD PUSH1 0xE0 SHR DUP1 PUSH4 0xDBE671F EQ PUSH2 0x46 JUMPI DUP1 PUSH4 0xE022D77C EQ PUSH2 0x64 JUMPI DUP1 PUSH4 0xEE919D50 EQ PUSH2 0x94 JUMPI JUMPDEST PUSH1 0x0 DUP1 REVERT JUMPDEST PUSH2 0x4E PUSH2 0xB0 JUMP JUMPDEST PUSH1 0x40 MLOAD PUSH2 0x5B SWAP2 SWAP1 PUSH2 0x107 JUMP JUMPDEST PUSH1 0x40 MLOAD DUP1 SWAP2 SUB SWAP1 RETURN JUMPDEST PUSH2 0x7E PUSH1 0x4 DUP1 CALLDATASIZE SUB DUP2 ADD SWAP1 PUSH2 0x79 SWAP2 SWAP1 PUSH2 0x153 JUMP JUMPDEST PUSH2 0xB6 JUMP JUMPDEST PUSH1 0x40 MLOAD PUSH2 0x8B SWAP2 SWAP1 PUSH2 0x107 JUMP JUMPDEST PUSH1 0x40 MLOAD DUP1 SWAP2 SUB SWAP1 RETURN JUMPDEST PUSH2 0xAE PUSH1 0x4 DUP1 CALLDATASIZE SUB DUP2 ADD SWAP1 PUSH2 0xA9 SWAP2 SWAP1 PUSH2 0x1BA JUMP JUMPDEST PUSH2 0xE4 JUMP JUMPDEST STOP JUMPDEST PUSH1 0x0 SLOAD DUP2 JUMP JUMPDEST PUSH1 0x0 DUP2 DUP4 DUP6 DUP8 PUSH2 0xC6 SWAP2 SWAP1 PUSH2 0x216 JUMP JUMPDEST PUSH2 0xD0 SWAP2 SWAP1 PUSH2 0x216 JUMP JUMPDEST PUSH2 0xDA SWAP2 SWAP1 PUSH2 0x216 JUMP JUMPDEST SWAP1 POP SWAP5 SWAP4 POP POP POP POP JUMP JUMPDEST DUP1 PUSH1 0x0 DUP2 SWAP1 SSTORE POP POP JUMP JUMPDEST PUSH1 0x0 DUP2 SWAP1 POP SWAP2 SWAP1 POP JUMP JUMPDEST PUSH2 0x101 DUP2 PUSH2 0xEE JUMP JUMPDEST DUP3 MSTORE POP POP JUMP JUMPDEST PUSH1 0x0 PUSH1 0x20 DUP3 ADD SWAP1 POP PUSH2 0x11C PUSH1 0x0 DUP4 ADD DUP5 PUSH2 0xF8 JUMP JUMPDEST SWAP3 SWAP2 POP POP JUMP JUMPDEST PUSH1 0x0 DUP1 REVERT JUMPDEST PUSH2 0x130 DUP2 PUSH2 0xEE JUMP JUMPDEST DUP2 EQ PUSH2 0x13B JUMPI PUSH1 0x0 DUP1 REVERT JUMPDEST POP JUMP JUMPDEST PUSH1 0x0 DUP2 CALLDATALOAD SWAP1 POP PUSH2 0x14D DUP2 PUSH2 0x127 JUMP JUMPDEST SWAP3 SWAP2 POP POP JUMP JUMPDEST PUSH1 0x0 DUP1 PUSH1 0x0 DUP1 PUSH1 0x80 DUP6 DUP8 SUB SLT ISZERO PUSH2 0x16D JUMPI PUSH2 0x16C PUSH2 0x122 JUMP JUMPDEST JUMPDEST PUSH1 0x0 PUSH2 0x17B DUP8 DUP3 DUP9 ADD PUSH2 0x13E JUMP JUMPDEST SWAP5 POP POP PUSH1 0x20 PUSH2 0x18C DUP8 DUP3 DUP9 ADD PUSH2 0x13E JUMP JUMPDEST SWAP4 POP POP PUSH1 0x40 PUSH2 0x19D DUP8 DUP3 DUP9 ADD PUSH2 0x13E JUMP JUMPDEST SWAP3 POP POP PUSH1 0x60 PUSH2 0x1AE DUP8 DUP3 DUP9 ADD PUSH2 0x13E JUMP JUMPDEST SWAP2 POP POP SWAP3 SWAP6 SWAP2 SWAP5 POP SWAP3 POP JUMP JUMPDEST PUSH1 0x0 PUSH1 0x20 DUP3 DUP5 SUB SLT ISZERO PUSH2 0x1D0 JUMPI PUSH2 0x1CF PUSH2 0x122 JUMP JUMPDEST JUMPDEST PUSH1 0x0 PUSH2 0x1DE DUP5 DUP3 DUP6 ADD PUSH2 0x13E JUMP JUMPDEST SWAP2 POP POP SWAP3 SWAP2 POP POP JUMP JUMPDEST PUSH32 0x4E487B7100000000000000000000000000000000000000000000000000000000 PUSH1 0x0 MSTORE PUSH1 0x11 PUSH1 0x4 MSTORE PUSH1 0x24 PUSH1 0x0 REVERT JUMPDEST PUSH1 0x0 PUSH2 0x221 DUP3 PUSH2 0xEE JUMP JUMPDEST SWAP2 POP PUSH2 0x22C DUP4 PUSH2 0xEE JUMP JUMPDEST SWAP3 POP DUP3 DUP3 ADD SWAP1 POP DUP1 DUP3 GT ISZERO PUSH2 0x244 JUMPI PUSH2 0x243 PUSH2 0x1E7 JUMP JUMPDEST JUMPDEST SWAP3 SWAP2 POP POP JUMP INVALID LOG2 PUSH5 0x6970667358 0x22 SLT KECCAK256 0xBB 0x5C PUSH19 0x93ADF997D672DFD5A98F167CBFD5ED39C85315 0xDF 0xAE BLOCKHASH EQ 0xA6 STATICCALL 0xF7 0xB4 EXTCODEHASH 0xDF PUSH5 0x736F6C6343 STOP ADDMOD SLT STOP CALLER "
				},
				"gasEstimates": {
					"creation": {
						"codeDepositCost": "128000",
						"executionCost": "171",
						"totalCost": "128171"
					},
					"external": {
						"a()": "2407",
						"add(uint256,uint256,uint256,uint256)": "infinite",
						"setA(uint256)": "22542"
					}
				},
				"methodIdentifiers": {
					"a()": "0dbe671f",
					"add(uint256,uint256,uint256,uint256)": "e022d77c",
					"setA(uint256)": "ee919d50"
				}
			},
			"storageLayout": {
				"storage": [
					{
						"astId": 25,
						"contract": "contracts/230524/a.sol:A",
						"label": "a",
						"offset": 0,
						"slot": "0",
						"type": "t_uint256"
					}
				],
				"types": {
					"t_uint256": {
						"encoding": "inplace",
						"label": "uint256",
						"numberOfBytes": "32"
					}
				}
			},
			"userdoc": {
				"kind": "user",
				"methods": {},
				"version": 1
			}
		}
	}
}