{
	"contracts/230524/babylion.sol": {
		"Q1": {
			"abi": [
				{
					"inputs": [
						{
							"internalType": "uint256",
							"name": "month",
							"type": "uint256"
						},
						{
							"internalType": "uint256",
							"name": "day",
							"type": "uint256"
						}
					],
					"name": "getDays",
					"outputs": [
						{
							"internalType": "uint256",
							"name": "",
							"type": "uint256"
						}
					],
					"stateMutability": "view",
					"type": "function"
				}
			],
			"devdoc": {
				"kind": "dev",
				"methods": {},
				"version": 1
			},
			"evm": {
				"assembly": "    /* \"contracts/230524/babylion.sol\":275:730  contract Q1 {... */\n  mstore(0x40, 0x80)\n    /* \"contracts/230524/babylion.sol\":294:366  uint[12] daysPerMonth = [31, 28, 31, 30, 31, 30, 31, 31, 30, 31, 30, 31] */\n  mload(0x40)\n  dup1\n  0x0180\n  add\n  0x40\n  mstore\n  dup1\n    /* \"contracts/230524/babylion.sol\":319:321  31 */\n  0x1f\n    /* \"contracts/230524/babylion.sol\":294:366  uint[12] daysPerMonth = [31, 28, 31, 30, 31, 30, 31, 31, 30, 31, 30, 31] */\n  0xff\n  and\n  dup2\n  mstore\n  0x20\n  add\n    /* \"contracts/230524/babylion.sol\":323:325  28 */\n  0x1c\n    /* \"contracts/230524/babylion.sol\":294:366  uint[12] daysPerMonth = [31, 28, 31, 30, 31, 30, 31, 31, 30, 31, 30, 31] */\n  0xff\n  and\n  dup2\n  mstore\n  0x20\n  add\n    /* \"contracts/230524/babylion.sol\":327:329  31 */\n  0x1f\n    /* \"contracts/230524/babylion.sol\":294:366  uint[12] daysPerMonth = [31, 28, 31, 30, 31, 30, 31, 31, 30, 31, 30, 31] */\n  0xff\n  and\n  dup2\n  mstore\n  0x20\n  add\n    /* \"contracts/230524/babylion.sol\":331:333  30 */\n  0x1e\n    /* \"contracts/230524/babylion.sol\":294:366  uint[12] daysPerMonth = [31, 28, 31, 30, 31, 30, 31, 31, 30, 31, 30, 31] */\n  0xff\n  and\n  dup2\n  mstore\n  0x20\n  add\n    /* \"contracts/230524/babylion.sol\":335:337  31 */\n  0x1f\n    /* \"contracts/230524/babylion.sol\":294:366  uint[12] daysPerMonth = [31, 28, 31, 30, 31, 30, 31, 31, 30, 31, 30, 31] */\n  0xff\n  and\n  dup2\n  mstore\n  0x20\n  add\n    /* \"contracts/230524/babylion.sol\":339:341  30 */\n  0x1e\n    /* \"contracts/230524/babylion.sol\":294:366  uint[12] daysPerMonth = [31, 28, 31, 30, 31, 30, 31, 31, 30, 31, 30, 31] */\n  0xff\n  and\n  dup2\n  mstore\n  0x20\n  add\n    /* \"contracts/230524/babylion.sol\":343:345  31 */\n  0x1f\n    /* \"contracts/230524/babylion.sol\":294:366  uint[12] daysPerMonth = [31, 28, 31, 30, 31, 30, 31, 31, 30, 31, 30, 31] */\n  0xff\n  and\n  dup2\n  mstore\n  0x20\n  add\n    /* \"contracts/230524/babylion.sol\":347:349  31 */\n  0x1f\n    /* \"contracts/230524/babylion.sol\":294:366  uint[12] daysPerMonth = [31, 28, 31, 30, 31, 30, 31, 31, 30, 31, 30, 31] */\n  0xff\n  and\n  dup2\n  mstore\n  0x20\n  add\n    /* \"contracts/230524/babylion.sol\":351:353  30 */\n  0x1e\n    /* \"contracts/230524/babylion.sol\":294:366  uint[12] daysPerMonth = [31, 28, 31, 30, 31, 30, 31, 31, 30, 31, 30, 31] */\n  0xff\n  and\n  dup2\n  mstore\n  0x20\n  add\n    /* \"contracts/230524/babylion.sol\":355:357  31 */\n  0x1f\n    /* \"contracts/230524/babylion.sol\":294:366  uint[12] daysPerMonth = [31, 28, 31, 30, 31, 30, 31, 31, 30, 31, 30, 31] */\n  0xff\n  and\n  dup2\n  mstore\n  0x20\n  add\n    /* \"contracts/230524/babylion.sol\":359:361  30 */\n  0x1e\n    /* \"contracts/230524/babylion.sol\":294:366  uint[12] daysPerMonth = [31, 28, 31, 30, 31, 30, 31, 31, 30, 31, 30, 31] */\n  0xff\n  and\n  dup2\n  mstore\n  0x20\n  add\n    /* \"contracts/230524/babylion.sol\":363:365  31 */\n  0x1f\n    /* \"contracts/230524/babylion.sol\":294:366  uint[12] daysPerMonth = [31, 28, 31, 30, 31, 30, 31, 31, 30, 31, 30, 31] */\n  0xff\n  and\n  dup2\n  mstore\n  pop\n  0x00\n  swap1\n  0x0c\n  tag_1\n  swap3\n  swap2\n  swap1\n  tag_2\n  jump\t// in\ntag_1:\n  pop\n    /* \"contracts/230524/babylion.sol\":275:730  contract Q1 {... */\n  callvalue\n  dup1\n  iszero\n  tag_3\n  jumpi\n  0x00\n  dup1\n  revert\ntag_3:\n  pop\n  jump(tag_4)\ntag_2:\n  dup3\n  0x0c\n  dup2\n  add\n  swap3\n  dup3\n  iszero\n  tag_5\n  jumpi\n  swap2\n  0x20\n  mul\n  dup3\n  add\ntag_6:\n  dup3\n  dup2\n  gt\n  iszero\n  tag_7\n  jumpi\n  dup3\n  mload\n  dup3\n  swap1\n  0xff\n  and\n  swap1\n  sstore\n  swap2\n  0x20\n  add\n  swap2\n  swap1\n  0x01\n  add\n  swap1\n  jump(tag_6)\ntag_7:\ntag_5:\n  pop\n  swap1\n  pop\n  tag_8\n  swap2\n  swap1\n  tag_9\n  jump\t// in\ntag_8:\n  pop\n  swap1\n  jump\t// out\ntag_9:\ntag_10:\n  dup1\n  dup3\n  gt\n  iszero\n  tag_11\n  jumpi\n  0x00\n  dup2\n  0x00\n  swap1\n  sstore\n  pop\n  0x01\n  add\n  jump(tag_10)\ntag_11:\n  pop\n  swap1\n  jump\t// out\ntag_4:\n  dataSize(sub_0)\n  dup1\n  dataOffset(sub_0)\n  0x00\n  codecopy\n  0x00\n  return\nstop\n\nsub_0: assembly {\n        /* \"contracts/230524/babylion.sol\":275:730  contract Q1 {... */\n      mstore(0x40, 0x80)\n      callvalue\n      dup1\n      iszero\n      tag_1\n      jumpi\n      0x00\n      dup1\n      revert\n    tag_1:\n      pop\n      jumpi(tag_2, lt(calldatasize, 0x04))\n      shr(0xe0, calldataload(0x00))\n      dup1\n      0xb7a24160\n      eq\n      tag_3\n      jumpi\n    tag_2:\n      0x00\n      dup1\n      revert\n        /* \"contracts/230524/babylion.sol\":375:727  function getDays(uint month, uint day) public view returns(uint) {... */\n    tag_3:\n      tag_4\n      0x04\n      dup1\n      calldatasize\n      sub\n      dup2\n      add\n      swap1\n      tag_5\n      swap2\n      swap1\n      tag_6\n      jump\t// in\n    tag_5:\n      tag_7\n      jump\t// in\n    tag_4:\n      mload(0x40)\n      tag_8\n      swap2\n      swap1\n      tag_9\n      jump\t// in\n    tag_8:\n      mload(0x40)\n      dup1\n      swap2\n      sub\n      swap1\n      return\n    tag_7:\n        /* \"contracts/230524/babylion.sol\":434:438  uint */\n      0x00\n        /* \"contracts/230524/babylion.sol\":468:469  1 */\n      0x01\n        /* \"contracts/230524/babylion.sol\":459:464  month */\n      dup4\n        /* \"contracts/230524/babylion.sol\":459:469  month >= 1 */\n      lt\n      iszero\n        /* \"contracts/230524/babylion.sol\":459:484  month >= 1 && month <= 12 */\n      dup1\n      iszero\n      tag_11\n      jumpi\n      pop\n        /* \"contracts/230524/babylion.sol\":482:484  12 */\n      0x0c\n        /* \"contracts/230524/babylion.sol\":473:478  month */\n      dup4\n        /* \"contracts/230524/babylion.sol\":473:484  month <= 12 */\n      gt\n      iszero\n        /* \"contracts/230524/babylion.sol\":459:484  month >= 1 && month <= 12 */\n    tag_11:\n        /* \"contracts/230524/babylion.sol\":451:485  require(month >= 1 && month <= 12) */\n      tag_12\n      jumpi\n      0x00\n      dup1\n      revert\n    tag_12:\n        /* \"contracts/230524/babylion.sol\":511:512  1 */\n      0x01\n        /* \"contracts/230524/babylion.sol\":504:507  day */\n      dup3\n        /* \"contracts/230524/babylion.sol\":504:512  day >= 1 */\n      lt\n      iszero\n        /* \"contracts/230524/babylion.sol\":504:544  day >= 1 && day <= daysPerMonth[month-1] */\n      dup1\n      iszero\n      tag_13\n      jumpi\n      pop\n        /* \"contracts/230524/babylion.sol\":523:535  daysPerMonth */\n      0x00\n        /* \"contracts/230524/babylion.sol\":542:543  1 */\n      0x01\n        /* \"contracts/230524/babylion.sol\":536:541  month */\n      dup5\n        /* \"contracts/230524/babylion.sol\":536:543  month-1 */\n      tag_14\n      swap2\n      swap1\n      tag_15\n      jump\t// in\n    tag_14:\n        /* \"contracts/230524/babylion.sol\":523:544  daysPerMonth[month-1] */\n      0x0c\n      dup2\n      lt\n      tag_16\n      jumpi\n      tag_17\n      tag_18\n      jump\t// in\n    tag_17:\n    tag_16:\n      add\n      sload\n        /* \"contracts/230524/babylion.sol\":516:519  day */\n      dup3\n        /* \"contracts/230524/babylion.sol\":516:544  day <= daysPerMonth[month-1] */\n      gt\n      iszero\n        /* \"contracts/230524/babylion.sol\":504:544  day >= 1 && day <= daysPerMonth[month-1] */\n    tag_13:\n        /* \"contracts/230524/babylion.sol\":496:545  require(day >= 1 && day <= daysPerMonth[month-1]) */\n      tag_20\n      jumpi\n      0x00\n      dup1\n      revert\n    tag_20:\n        /* \"contracts/230524/babylion.sol\":566:581  uint currentDay */\n      0x00\n        /* \"contracts/230524/babylion.sol\":584:587  day */\n      dup3\n        /* \"contracts/230524/babylion.sol\":566:587  uint currentDay = day */\n      swap1\n      pop\n        /* \"contracts/230524/babylion.sol\":604:610  uint i */\n      0x00\n        /* \"contracts/230524/babylion.sol\":600:690  for(uint i = 0; i < month-1; i++) {... */\n    tag_21:\n        /* \"contracts/230524/babylion.sol\":626:627  1 */\n      0x01\n        /* \"contracts/230524/babylion.sol\":620:625  month */\n      dup6\n        /* \"contracts/230524/babylion.sol\":620:627  month-1 */\n      tag_24\n      swap2\n      swap1\n      tag_15\n      jump\t// in\n    tag_24:\n        /* \"contracts/230524/babylion.sol\":616:617  i */\n      dup2\n        /* \"contracts/230524/babylion.sol\":616:627  i < month-1 */\n      lt\n        /* \"contracts/230524/babylion.sol\":600:690  for(uint i = 0; i < month-1; i++) {... */\n      iszero\n      tag_22\n      jumpi\n        /* \"contracts/230524/babylion.sol\":663:675  daysPerMonth */\n      0x00\n        /* \"contracts/230524/babylion.sol\":676:677  i */\n      dup2\n        /* \"contracts/230524/babylion.sol\":663:678  daysPerMonth[i] */\n      0x0c\n      dup2\n      lt\n      tag_25\n      jumpi\n      tag_26\n      tag_18\n      jump\t// in\n    tag_26:\n    tag_25:\n      add\n      sload\n        /* \"contracts/230524/babylion.sol\":649:678  currentDay += daysPerMonth[i] */\n      dup3\n      tag_28\n      swap2\n      swap1\n      tag_29\n      jump\t// in\n    tag_28:\n      swap2\n      pop\n        /* \"contracts/230524/babylion.sol\":629:632  i++ */\n      dup1\n      dup1\n      tag_30\n      swap1\n      tag_31\n      jump\t// in\n    tag_30:\n      swap2\n      pop\n      pop\n        /* \"contracts/230524/babylion.sol\":600:690  for(uint i = 0; i < month-1; i++) {... */\n      jump(tag_21)\n    tag_22:\n      pop\n        /* \"contracts/230524/babylion.sol\":709:719  currentDay */\n      dup1\n        /* \"contracts/230524/babylion.sol\":702:719  return currentDay */\n      swap2\n      pop\n      pop\n        /* \"contracts/230524/babylion.sol\":375:727  function getDays(uint month, uint day) public view returns(uint) {... */\n      swap3\n      swap2\n      pop\n      pop\n      jump\t// out\n        /* \"#utility.yul\":88:205   */\n    tag_33:\n        /* \"#utility.yul\":197:198   */\n      0x00\n        /* \"#utility.yul\":194:195   */\n      dup1\n        /* \"#utility.yul\":187:199   */\n      revert\n        /* \"#utility.yul\":334:411   */\n    tag_35:\n        /* \"#utility.yul\":371:378   */\n      0x00\n        /* \"#utility.yul\":400:405   */\n      dup2\n        /* \"#utility.yul\":389:405   */\n      swap1\n      pop\n        /* \"#utility.yul\":334:411   */\n      swap2\n      swap1\n      pop\n      jump\t// out\n        /* \"#utility.yul\":417:539   */\n    tag_36:\n        /* \"#utility.yul\":490:514   */\n      tag_46\n        /* \"#utility.yul\":508:513   */\n      dup2\n        /* \"#utility.yul\":490:514   */\n      tag_35\n      jump\t// in\n    tag_46:\n        /* \"#utility.yul\":483:488   */\n      dup2\n        /* \"#utility.yul\":480:515   */\n      eq\n        /* \"#utility.yul\":470:533   */\n      tag_47\n      jumpi\n        /* \"#utility.yul\":529:530   */\n      0x00\n        /* \"#utility.yul\":526:527   */\n      dup1\n        /* \"#utility.yul\":519:531   */\n      revert\n        /* \"#utility.yul\":470:533   */\n    tag_47:\n        /* \"#utility.yul\":417:539   */\n      pop\n      jump\t// out\n        /* \"#utility.yul\":545:684   */\n    tag_37:\n        /* \"#utility.yul\":591:596   */\n      0x00\n        /* \"#utility.yul\":629:635   */\n      dup2\n        /* \"#utility.yul\":616:636   */\n      calldataload\n        /* \"#utility.yul\":607:636   */\n      swap1\n      pop\n        /* \"#utility.yul\":645:678   */\n      tag_49\n        /* \"#utility.yul\":672:677   */\n      dup2\n        /* \"#utility.yul\":645:678   */\n      tag_36\n      jump\t// in\n    tag_49:\n        /* \"#utility.yul\":545:684   */\n      swap3\n      swap2\n      pop\n      pop\n      jump\t// out\n        /* \"#utility.yul\":690:1164   */\n    tag_6:\n        /* \"#utility.yul\":758:764   */\n      0x00\n        /* \"#utility.yul\":766:772   */\n      dup1\n        /* \"#utility.yul\":815:817   */\n      0x40\n        /* \"#utility.yul\":803:812   */\n      dup4\n        /* \"#utility.yul\":794:801   */\n      dup6\n        /* \"#utility.yul\":790:813   */\n      sub\n        /* \"#utility.yul\":786:818   */\n      slt\n        /* \"#utility.yul\":783:902   */\n      iszero\n      tag_51\n      jumpi\n        /* \"#utility.yul\":821:900   */\n      tag_52\n      tag_33\n      jump\t// in\n    tag_52:\n        /* \"#utility.yul\":783:902   */\n    tag_51:\n        /* \"#utility.yul\":941:942   */\n      0x00\n        /* \"#utility.yul\":966:1019   */\n      tag_53\n        /* \"#utility.yul\":1011:1018   */\n      dup6\n        /* \"#utility.yul\":1002:1008   */\n      dup3\n        /* \"#utility.yul\":991:1000   */\n      dup7\n        /* \"#utility.yul\":987:1009   */\n      add\n        /* \"#utility.yul\":966:1019   */\n      tag_37\n      jump\t// in\n    tag_53:\n        /* \"#utility.yul\":956:1019   */\n      swap3\n      pop\n        /* \"#utility.yul\":912:1029   */\n      pop\n        /* \"#utility.yul\":1068:1070   */\n      0x20\n        /* \"#utility.yul\":1094:1147   */\n      tag_54\n        /* \"#utility.yul\":1139:1146   */\n      dup6\n        /* \"#utility.yul\":1130:1136   */\n      dup3\n        /* \"#utility.yul\":1119:1128   */\n      dup7\n        /* \"#utility.yul\":1115:1137   */\n      add\n        /* \"#utility.yul\":1094:1147   */\n      tag_37\n      jump\t// in\n    tag_54:\n        /* \"#utility.yul\":1084:1147   */\n      swap2\n      pop\n        /* \"#utility.yul\":1039:1157   */\n      pop\n        /* \"#utility.yul\":690:1164   */\n      swap3\n      pop\n      swap3\n      swap1\n      pop\n      jump\t// out\n        /* \"#utility.yul\":1170:1288   */\n    tag_38:\n        /* \"#utility.yul\":1257:1281   */\n      tag_56\n        /* \"#utility.yul\":1275:1280   */\n      dup2\n        /* \"#utility.yul\":1257:1281   */\n      tag_35\n      jump\t// in\n    tag_56:\n        /* \"#utility.yul\":1252:1255   */\n      dup3\n        /* \"#utility.yul\":1245:1282   */\n      mstore\n        /* \"#utility.yul\":1170:1288   */\n      pop\n      pop\n      jump\t// out\n        /* \"#utility.yul\":1294:1516   */\n    tag_9:\n        /* \"#utility.yul\":1387:1391   */\n      0x00\n        /* \"#utility.yul\":1425:1427   */\n      0x20\n        /* \"#utility.yul\":1414:1423   */\n      dup3\n        /* \"#utility.yul\":1410:1428   */\n      add\n        /* \"#utility.yul\":1402:1428   */\n      swap1\n      pop\n        /* \"#utility.yul\":1438:1509   */\n      tag_58\n        /* \"#utility.yul\":1506:1507   */\n      0x00\n        /* \"#utility.yul\":1495:1504   */\n      dup4\n        /* \"#utility.yul\":1491:1508   */\n      add\n        /* \"#utility.yul\":1482:1488   */\n      dup5\n        /* \"#utility.yul\":1438:1509   */\n      tag_38\n      jump\t// in\n    tag_58:\n        /* \"#utility.yul\":1294:1516   */\n      swap3\n      swap2\n      pop\n      pop\n      jump\t// out\n        /* \"#utility.yul\":1522:1702   */\n    tag_39:\n        /* \"#utility.yul\":1570:1647   */\n      0x4e487b7100000000000000000000000000000000000000000000000000000000\n        /* \"#utility.yul\":1567:1568   */\n      0x00\n        /* \"#utility.yul\":1560:1648   */\n      mstore\n        /* \"#utility.yul\":1667:1671   */\n      0x11\n        /* \"#utility.yul\":1664:1665   */\n      0x04\n        /* \"#utility.yul\":1657:1672   */\n      mstore\n        /* \"#utility.yul\":1691:1695   */\n      0x24\n        /* \"#utility.yul\":1688:1689   */\n      0x00\n        /* \"#utility.yul\":1681:1696   */\n      revert\n        /* \"#utility.yul\":1708:1902   */\n    tag_15:\n        /* \"#utility.yul\":1748:1752   */\n      0x00\n        /* \"#utility.yul\":1768:1788   */\n      tag_61\n        /* \"#utility.yul\":1786:1787   */\n      dup3\n        /* \"#utility.yul\":1768:1788   */\n      tag_35\n      jump\t// in\n    tag_61:\n        /* \"#utility.yul\":1763:1788   */\n      swap2\n      pop\n        /* \"#utility.yul\":1802:1822   */\n      tag_62\n        /* \"#utility.yul\":1820:1821   */\n      dup4\n        /* \"#utility.yul\":1802:1822   */\n      tag_35\n      jump\t// in\n    tag_62:\n        /* \"#utility.yul\":1797:1822   */\n      swap3\n      pop\n        /* \"#utility.yul\":1846:1847   */\n      dup3\n        /* \"#utility.yul\":1843:1844   */\n      dup3\n        /* \"#utility.yul\":1839:1848   */\n      sub\n        /* \"#utility.yul\":1831:1848   */\n      swap1\n      pop\n        /* \"#utility.yul\":1870:1871   */\n      dup2\n        /* \"#utility.yul\":1864:1868   */\n      dup2\n        /* \"#utility.yul\":1861:1872   */\n      gt\n        /* \"#utility.yul\":1858:1895   */\n      iszero\n      tag_63\n      jumpi\n        /* \"#utility.yul\":1875:1893   */\n      tag_64\n      tag_39\n      jump\t// in\n    tag_64:\n        /* \"#utility.yul\":1858:1895   */\n    tag_63:\n        /* \"#utility.yul\":1708:1902   */\n      swap3\n      swap2\n      pop\n      pop\n      jump\t// out\n        /* \"#utility.yul\":1908:2088   */\n    tag_18:\n        /* \"#utility.yul\":1956:2033   */\n      0x4e487b7100000000000000000000000000000000000000000000000000000000\n        /* \"#utility.yul\":1953:1954   */\n      0x00\n        /* \"#utility.yul\":1946:2034   */\n      mstore\n        /* \"#utility.yul\":2053:2057   */\n      0x32\n        /* \"#utility.yul\":2050:2051   */\n      0x04\n        /* \"#utility.yul\":2043:2058   */\n      mstore\n        /* \"#utility.yul\":2077:2081   */\n      0x24\n        /* \"#utility.yul\":2074:2075   */\n      0x00\n        /* \"#utility.yul\":2067:2082   */\n      revert\n        /* \"#utility.yul\":2094:2285   */\n    tag_29:\n        /* \"#utility.yul\":2134:2137   */\n      0x00\n        /* \"#utility.yul\":2153:2173   */\n      tag_67\n        /* \"#utility.yul\":2171:2172   */\n      dup3\n        /* \"#utility.yul\":2153:2173   */\n      tag_35\n      jump\t// in\n    tag_67:\n        /* \"#utility.yul\":2148:2173   */\n      swap2\n      pop\n        /* \"#utility.yul\":2187:2207   */\n      tag_68\n        /* \"#utility.yul\":2205:2206   */\n      dup4\n        /* \"#utility.yul\":2187:2207   */\n      tag_35\n      jump\t// in\n    tag_68:\n        /* \"#utility.yul\":2182:2207   */\n      swap3\n      pop\n        /* \"#utility.yul\":2230:2231   */\n      dup3\n        /* \"#utility.yul\":2227:2228   */\n      dup3\n        /* \"#utility.yul\":2223:2232   */\n      add\n        /* \"#utility.yul\":2216:2232   */\n      swap1\n      pop\n        /* \"#utility.yul\":2251:2254   */\n      dup1\n        /* \"#utility.yul\":2248:2249   */\n      dup3\n        /* \"#utility.yul\":2245:2255   */\n      gt\n        /* \"#utility.yul\":2242:2278   */\n      iszero\n      tag_69\n      jumpi\n        /* \"#utility.yul\":2258:2276   */\n      tag_70\n      tag_39\n      jump\t// in\n    tag_70:\n        /* \"#utility.yul\":2242:2278   */\n    tag_69:\n        /* \"#utility.yul\":2094:2285   */\n      swap3\n      swap2\n      pop\n      pop\n      jump\t// out\n        /* \"#utility.yul\":2291:2524   */\n    tag_31:\n        /* \"#utility.yul\":2330:2333   */\n      0x00\n        /* \"#utility.yul\":2353:2377   */\n      tag_72\n        /* \"#utility.yul\":2371:2376   */\n      dup3\n        /* \"#utility.yul\":2353:2377   */\n      tag_35\n      jump\t// in\n    tag_72:\n        /* \"#utility.yul\":2344:2377   */\n      swap2\n      pop\n        /* \"#utility.yul\":2399:2465   */\n      0xffffffffffffffffffffffffffffffffffffffffffffffffffffffffffffffff\n        /* \"#utility.yul\":2392:2397   */\n      dup3\n        /* \"#utility.yul\":2389:2466   */\n      sub\n        /* \"#utility.yul\":2386:2489   */\n      tag_73\n      jumpi\n        /* \"#utility.yul\":2469:2487   */\n      tag_74\n      tag_39\n      jump\t// in\n    tag_74:\n        /* \"#utility.yul\":2386:2489   */\n    tag_73:\n        /* \"#utility.yul\":2516:2517   */\n      0x01\n        /* \"#utility.yul\":2509:2514   */\n      dup3\n        /* \"#utility.yul\":2505:2518   */\n      add\n        /* \"#utility.yul\":2498:2518   */\n      swap1\n      pop\n        /* \"#utility.yul\":2291:2524   */\n      swap2\n      swap1\n      pop\n      jump\t// out\n\n    auxdata: 0xa2646970667358221220dce5a665394e3a610e70f8cc265a532f792bc37deba0bb40ee6bcc5eb7f076e964736f6c63430008120033\n}\n",
				"bytecode": {
					"linkReferences": {},
					"object": "6080604052604051806101800160405280601f60ff168152602001601c60ff168152602001601f60ff168152602001601e60ff168152602001601f60ff168152602001601e60ff168152602001601f60ff168152602001601f60ff168152602001601e60ff168152602001601f60ff168152602001601e60ff168152602001601f60ff16815250600090600c6100969291906100a9565b503480156100a357600080fd5b5061010b565b82600c81019282156100dd579160200282015b828111156100dc578251829060ff169055916020019190600101906100bc565b5b5090506100ea91906100ee565b5090565b5b808211156101075760008160009055506001016100ef565b5090565b6102fe8061011a6000396000f3fe608060405234801561001057600080fd5b506004361061002b5760003560e01c8063b7a2416014610030575b600080fd5b61004a60048036038101906100459190610150565b610060565b604051610057919061019f565b60405180910390f35b6000600183101580156100745750600c8311155b61007d57600080fd5b600182101580156100af5750600060018461009891906101e9565b600c81106100a9576100a861021d565b5b01548211155b6100b857600080fd5b600082905060005b6001856100cd91906101e9565b81101561010a57600081600c81106100e8576100e761021d565b5b0154826100f5919061024c565b9150808061010290610280565b9150506100c0565b508091505092915050565b600080fd5b6000819050919050565b61012d8161011a565b811461013857600080fd5b50565b60008135905061014a81610124565b92915050565b6000806040838503121561016757610166610115565b5b60006101758582860161013b565b92505060206101868582860161013b565b9150509250929050565b6101998161011a565b82525050565b60006020820190506101b46000830184610190565b92915050565b7f4e487b7100000000000000000000000000000000000000000000000000000000600052601160045260246000fd5b60006101f48261011a565b91506101ff8361011a565b9250828203905081811115610217576102166101ba565b5b92915050565b7f4e487b7100000000000000000000000000000000000000000000000000000000600052603260045260246000fd5b60006102578261011a565b91506102628361011a565b925082820190508082111561027a576102796101ba565b5b92915050565b600061028b8261011a565b91507fffffffffffffffffffffffffffffffffffffffffffffffffffffffffffffffff82036102bd576102bc6101ba565b5b60018201905091905056fea2646970667358221220dce5a665394e3a610e70f8cc265a532f792bc37deba0bb40ee6bcc5eb7f076e964736f6c63430008120033",
					"opcodes": "PUSH1 0x80 PUSH1 0x40 MSTORE PUSH1 0x40 MLOAD DUP1 PUSH2 0x180 ADD PUSH1 0x40 MSTORE DUP1 PUSH1 0x1F PUSH1 0xFF AND DUP2 MSTORE PUSH1 0x20 ADD PUSH1 0x1C PUSH1 0xFF AND DUP2 MSTORE PUSH1 0x20 ADD PUSH1 0x1F PUSH1 0xFF AND DUP2 MSTORE PUSH1 0x20 ADD PUSH1 0x1E PUSH1 0xFF AND DUP2 MSTORE PUSH1 0x20 ADD PUSH1 0x1F PUSH1 0xFF AND DUP2 MSTORE PUSH1 0x20 ADD PUSH1 0x1E PUSH1 0xFF AND DUP2 MSTORE PUSH1 0x20 ADD PUSH1 0x1F PUSH1 0xFF AND DUP2 MSTORE PUSH1 0x20 ADD PUSH1 0x1F PUSH1 0xFF AND DUP2 MSTORE PUSH1 0x20 ADD PUSH1 0x1E PUSH1 0xFF AND DUP2 MSTORE PUSH1 0x20 ADD PUSH1 0x1F PUSH1 0xFF AND DUP2 MSTORE PUSH1 0x20 ADD PUSH1 0x1E PUSH1 0xFF AND DUP2 MSTORE PUSH1 0x20 ADD PUSH1 0x1F PUSH1 0xFF AND DUP2 MSTORE POP PUSH1 0x0 SWAP1 PUSH1 0xC PUSH2 0x96 SWAP3 SWAP2 SWAP1 PUSH2 0xA9 JUMP JUMPDEST POP CALLVALUE DUP1 ISZERO PUSH2 0xA3 JUMPI PUSH1 0x0 DUP1 REVERT JUMPDEST POP PUSH2 0x10B JUMP JUMPDEST DUP3 PUSH1 0xC DUP2 ADD SWAP3 DUP3 ISZERO PUSH2 0xDD JUMPI SWAP2 PUSH1 0x20 MUL DUP3 ADD JUMPDEST DUP3 DUP2 GT ISZERO PUSH2 0xDC JUMPI DUP3 MLOAD DUP3 SWAP1 PUSH1 0xFF AND SWAP1 SSTORE SWAP2 PUSH1 0x20 ADD SWAP2 SWAP1 PUSH1 0x1 ADD SWAP1 PUSH2 0xBC JUMP JUMPDEST JUMPDEST POP SWAP1 POP PUSH2 0xEA SWAP2 SWAP1 PUSH2 0xEE JUMP JUMPDEST POP SWAP1 JUMP JUMPDEST JUMPDEST DUP1 DUP3 GT ISZERO PUSH2 0x107 JUMPI PUSH1 0x0 DUP2 PUSH1 0x0 SWAP1 SSTORE POP PUSH1 0x1 ADD PUSH2 0xEF JUMP JUMPDEST POP SWAP1 JUMP JUMPDEST PUSH2 0x2FE DUP1 PUSH2 0x11A PUSH1 0x0 CODECOPY PUSH1 0x0 RETURN INVALID PUSH1 0x80 PUSH1 0x40 MSTORE CALLVALUE DUP1 ISZERO PUSH2 0x10 JUMPI PUSH1 0x0 DUP1 REVERT JUMPDEST POP PUSH1 0x4 CALLDATASIZE LT PUSH2 0x2B JUMPI PUSH1 0x0 CALLDATALOAD PUSH1 0xE0 SHR DUP1 PUSH4 0xB7A24160 EQ PUSH2 0x30 JUMPI JUMPDEST PUSH1 0x0 DUP1 REVERT JUMPDEST PUSH2 0x4A PUSH1 0x4 DUP1 CALLDATASIZE SUB DUP2 ADD SWAP1 PUSH2 0x45 SWAP2 SWAP1 PUSH2 0x150 JUMP JUMPDEST PUSH2 0x60 JUMP JUMPDEST PUSH1 0x40 MLOAD PUSH2 0x57 SWAP2 SWAP1 PUSH2 0x19F JUMP JUMPDEST PUSH1 0x40 MLOAD DUP1 SWAP2 SUB SWAP1 RETURN JUMPDEST PUSH1 0x0 PUSH1 0x1 DUP4 LT ISZERO DUP1 ISZERO PUSH2 0x74 JUMPI POP PUSH1 0xC DUP4 GT ISZERO JUMPDEST PUSH2 0x7D JUMPI PUSH1 0x0 DUP1 REVERT JUMPDEST PUSH1 0x1 DUP3 LT ISZERO DUP1 ISZERO PUSH2 0xAF JUMPI POP PUSH1 0x0 PUSH1 0x1 DUP5 PUSH2 0x98 SWAP2 SWAP1 PUSH2 0x1E9 JUMP JUMPDEST PUSH1 0xC DUP2 LT PUSH2 0xA9 JUMPI PUSH2 0xA8 PUSH2 0x21D JUMP JUMPDEST JUMPDEST ADD SLOAD DUP3 GT ISZERO JUMPDEST PUSH2 0xB8 JUMPI PUSH1 0x0 DUP1 REVERT JUMPDEST PUSH1 0x0 DUP3 SWAP1 POP PUSH1 0x0 JUMPDEST PUSH1 0x1 DUP6 PUSH2 0xCD SWAP2 SWAP1 PUSH2 0x1E9 JUMP JUMPDEST DUP2 LT ISZERO PUSH2 0x10A JUMPI PUSH1 0x0 DUP2 PUSH1 0xC DUP2 LT PUSH2 0xE8 JUMPI PUSH2 0xE7 PUSH2 0x21D JUMP JUMPDEST JUMPDEST ADD SLOAD DUP3 PUSH2 0xF5 SWAP2 SWAP1 PUSH2 0x24C JUMP JUMPDEST SWAP2 POP DUP1 DUP1 PUSH2 0x102 SWAP1 PUSH2 0x280 JUMP JUMPDEST SWAP2 POP POP PUSH2 0xC0 JUMP JUMPDEST POP DUP1 SWAP2 POP POP SWAP3 SWAP2 POP POP JUMP JUMPDEST PUSH1 0x0 DUP1 REVERT JUMPDEST PUSH1 0x0 DUP2 SWAP1 POP SWAP2 SWAP1 POP JUMP JUMPDEST PUSH2 0x12D DUP2 PUSH2 0x11A JUMP JUMPDEST DUP2 EQ PUSH2 0x138 JUMPI PUSH1 0x0 DUP1 REVERT JUMPDEST POP JUMP JUMPDEST PUSH1 0x0 DUP2 CALLDATALOAD SWAP1 POP PUSH2 0x14A DUP2 PUSH2 0x124 JUMP JUMPDEST SWAP3 SWAP2 POP POP JUMP JUMPDEST PUSH1 0x0 DUP1 PUSH1 0x40 DUP4 DUP6 SUB SLT ISZERO PUSH2 0x167 JUMPI PUSH2 0x166 PUSH2 0x115 JUMP JUMPDEST JUMPDEST PUSH1 0x0 PUSH2 0x175 DUP6 DUP3 DUP7 ADD PUSH2 0x13B JUMP JUMPDEST SWAP3 POP POP PUSH1 0x20 PUSH2 0x186 DUP6 DUP3 DUP7 ADD PUSH2 0x13B JUMP JUMPDEST SWAP2 POP POP SWAP3 POP SWAP3 SWAP1 POP JUMP JUMPDEST PUSH2 0x199 DUP2 PUSH2 0x11A JUMP JUMPDEST DUP3 MSTORE POP POP JUMP JUMPDEST PUSH1 0x0 PUSH1 0x20 DUP3 ADD SWAP1 POP PUSH2 0x1B4 PUSH1 0x0 DUP4 ADD DUP5 PUSH2 0x190 JUMP JUMPDEST SWAP3 SWAP2 POP POP JUMP JUMPDEST PUSH32 0x4E487B7100000000000000000000000000000000000000000000000000000000 PUSH1 0x0 MSTORE PUSH1 0x11 PUSH1 0x4 MSTORE PUSH1 0x24 PUSH1 0x0 REVERT JUMPDEST PUSH1 0x0 PUSH2 0x1F4 DUP3 PUSH2 0x11A JUMP JUMPDEST SWAP2 POP PUSH2 0x1FF DUP4 PUSH2 0x11A JUMP JUMPDEST SWAP3 POP DUP3 DUP3 SUB SWAP1 POP DUP2 DUP2 GT ISZERO PUSH2 0x217 JUMPI PUSH2 0x216 PUSH2 0x1BA JUMP JUMPDEST JUMPDEST SWAP3 SWAP2 POP POP JUMP JUMPDEST PUSH32 0x4E487B7100000000000000000000000000000000000000000000000000000000 PUSH1 0x0 MSTORE PUSH1 0x32 PUSH1 0x4 MSTORE PUSH1 0x24 PUSH1 0x0 REVERT JUMPDEST PUSH1 0x0 PUSH2 0x257 DUP3 PUSH2 0x11A JUMP JUMPDEST SWAP2 POP PUSH2 0x262 DUP4 PUSH2 0x11A JUMP JUMPDEST SWAP3 POP DUP3 DUP3 ADD SWAP1 POP DUP1 DUP3 GT ISZERO PUSH2 0x27A JUMPI PUSH2 0x279 PUSH2 0x1BA JUMP JUMPDEST JUMPDEST SWAP3 SWAP2 POP POP JUMP JUMPDEST PUSH1 0x0 PUSH2 0x28B DUP3 PUSH2 0x11A JUMP JUMPDEST SWAP2 POP PUSH32 0xFFFFFFFFFFFFFFFFFFFFFFFFFFFFFFFFFFFFFFFFFFFFFFFFFFFFFFFFFFFFFFFF DUP3 SUB PUSH2 0x2BD JUMPI PUSH2 0x2BC PUSH2 0x1BA JUMP JUMPDEST JUMPDEST PUSH1 0x1 DUP3 ADD SWAP1 POP SWAP2 SWAP1 POP JUMP INVALID LOG2 PUSH5 0x6970667358 0x22 SLT KECCAK256 0xDC 0xE5 0xA6 PUSH6 0x394E3A610E70 0xF8 0xCC 0x26 GAS MSTORE8 0x2F PUSH26 0x2BC37DEBA0BB40EE6BCC5EB7F076E964736F6C63430008120033 "
				},
				"gasEstimates": {
					"creation": {
						"codeDepositCost": "153200",
						"executionCost": "infinite",
						"totalCost": "infinite"
					},
					"external": {
						"getDays(uint256,uint256)": "infinite"
					}
				},
				"methodIdentifiers": {
					"getDays(uint256,uint256)": "b7a24160"
				}
			},
			"storageLayout": {
				"storage": [
					{
						"astId": 18,
						"contract": "contracts/230524/babylion.sol:Q1",
						"label": "daysPerMonth",
						"offset": 0,
						"slot": "0",
						"type": "t_array(t_uint256)12_storage"
					}
				],
				"types": {
					"t_array(t_uint256)12_storage": {
						"base": "t_uint256",
						"encoding": "inplace",
						"label": "uint256[12]",
						"numberOfBytes": "384"
					},
					"t_uint256": {
						"encoding": "inplace",
						"label": "uint256",
						"numberOfBytes": "32"
					}
				}
			},
			"userdoc": {
				"kind": "user",
				"methods": {},
				"version": 1
			}
		}
	}
}