{
	"contracts/230524/babylion.sol": {
		"Q2": {
			"abi": [
				{
					"inputs": [
						{
							"internalType": "string",
							"name": "_name",
							"type": "string"
						}
					],
					"name": "cancelReservation",
					"outputs": [],
					"stateMutability": "nonpayable",
					"type": "function"
				},
				{
					"inputs": [
						{
							"internalType": "string",
							"name": "_name",
							"type": "string"
						}
					],
					"name": "getReservation",
					"outputs": [
						{
							"components": [
								{
									"internalType": "string",
									"name": "name",
									"type": "string"
								},
								{
									"internalType": "uint256",
									"name": "roomNumber",
									"type": "uint256"
								},
								{
									"internalType": "uint256",
									"name": "peopleNumber",
									"type": "uint256"
								},
								{
									"internalType": "bool",
									"name": "isReserved",
									"type": "bool"
								}
							],
							"internalType": "struct Q2.guest",
							"name": "",
							"type": "tuple"
						}
					],
					"stateMutability": "view",
					"type": "function"
				},
				{
					"inputs": [
						{
							"internalType": "string",
							"name": "_name",
							"type": "string"
						},
						{
							"internalType": "uint256",
							"name": "_roomNum",
							"type": "uint256"
						},
						{
							"internalType": "uint256",
							"name": "_peopleNum",
							"type": "uint256"
						}
					],
					"name": "makeReservation",
					"outputs": [],
					"stateMutability": "payable",
					"type": "function"
				}
			],
			"devdoc": {
				"kind": "dev",
				"methods": {},
				"version": 1
			},
			"evm": {
				"assembly": "    /* \"contracts/230524/babylion.sol\":1368:2198  contract Q2 {... */\n  mstore(0x40, 0x80)\n  callvalue\n  dup1\n  iszero\n  tag_1\n  jumpi\n  0x00\n  dup1\n  revert\ntag_1:\n  pop\n  dataSize(sub_0)\n  dup1\n  dataOffset(sub_0)\n  0x00\n  codecopy\n  0x00\n  return\nstop\n\nsub_0: assembly {\n        /* \"contracts/230524/babylion.sol\":1368:2198  contract Q2 {... */\n      mstore(0x40, 0x80)\n      jumpi(tag_1, lt(calldatasize, 0x04))\n      shr(0xe0, calldataload(0x00))\n      dup1\n      0x80bd0fe2\n      eq\n      tag_2\n      jumpi\n      dup1\n      0x99e4b8e1\n      eq\n      tag_3\n      jumpi\n      dup1\n      0xb0236517\n      eq\n      tag_4\n      jumpi\n    tag_1:\n      0x00\n      dup1\n      revert\n        /* \"contracts/230524/babylion.sol\":1801:1918  function getReservation(string memory _name) public view returns(guest memory) {... */\n    tag_2:\n      callvalue\n      dup1\n      iszero\n      tag_5\n      jumpi\n      0x00\n      dup1\n      revert\n    tag_5:\n      pop\n      tag_6\n      0x04\n      dup1\n      calldatasize\n      sub\n      dup2\n      add\n      swap1\n      tag_7\n      swap2\n      swap1\n      tag_8\n      jump\t// in\n    tag_7:\n      tag_9\n      jump\t// in\n    tag_6:\n      mload(0x40)\n      tag_10\n      swap2\n      swap1\n      tag_11\n      jump\t// in\n    tag_10:\n      mload(0x40)\n      dup1\n      swap2\n      sub\n      swap1\n      return\n        /* \"contracts/230524/babylion.sol\":1926:2195  function cancelReservation(string memory _name) public {... */\n    tag_3:\n      callvalue\n      dup1\n      iszero\n      tag_12\n      jumpi\n      0x00\n      dup1\n      revert\n    tag_12:\n      pop\n      tag_13\n      0x04\n      dup1\n      calldatasize\n      sub\n      dup2\n      add\n      swap1\n      tag_14\n      swap2\n      swap1\n      tag_8\n      jump\t// in\n    tag_14:\n      tag_15\n      jump\t// in\n    tag_13:\n      stop\n        /* \"contracts/230524/babylion.sol\":1556:1793  function makeReservation(string memory _name, uint _roomNum, uint _peopleNum) public payable {... */\n    tag_4:\n      tag_16\n      0x04\n      dup1\n      calldatasize\n      sub\n      dup2\n      add\n      swap1\n      tag_17\n      swap2\n      swap1\n      tag_18\n      jump\t// in\n    tag_17:\n      tag_19\n      jump\t// in\n    tag_16:\n      stop\n        /* \"contracts/230524/babylion.sol\":1801:1918  function getReservation(string memory _name) public view returns(guest memory) {... */\n    tag_9:\n        /* \"contracts/230524/babylion.sol\":1866:1878  guest memory */\n      tag_20\n      tag_21\n      jump\t// in\n    tag_20:\n        /* \"contracts/230524/babylion.sol\":1898:1903  Guest */\n      0x00\n        /* \"contracts/230524/babylion.sol\":1904:1909  _name */\n      dup3\n        /* \"contracts/230524/babylion.sol\":1898:1910  Guest[_name] */\n      mload(0x40)\n      tag_23\n      swap2\n      swap1\n      tag_24\n      jump\t// in\n    tag_23:\n      swap1\n      dup2\n      mstore\n      0x20\n      add\n      mload(0x40)\n      dup1\n      swap2\n      sub\n      swap1\n      keccak256\n        /* \"contracts/230524/babylion.sol\":1891:1910  return Guest[_name] */\n      mload(0x40)\n      dup1\n      0x80\n      add\n      0x40\n      mstore\n      swap1\n      dup2\n      0x00\n      dup3\n      add\n      dup1\n      sload\n      tag_25\n      swap1\n      tag_26\n      jump\t// in\n    tag_25:\n      dup1\n      0x1f\n      add\n      0x20\n      dup1\n      swap2\n      div\n      mul\n      0x20\n      add\n      mload(0x40)\n      swap1\n      dup2\n      add\n      0x40\n      mstore\n      dup1\n      swap3\n      swap2\n      swap1\n      dup2\n      dup2\n      mstore\n      0x20\n      add\n      dup3\n      dup1\n      sload\n      tag_27\n      swap1\n      tag_26\n      jump\t// in\n    tag_27:\n      dup1\n      iszero\n      tag_28\n      jumpi\n      dup1\n      0x1f\n      lt\n      tag_29\n      jumpi\n      0x0100\n      dup1\n      dup4\n      sload\n      div\n      mul\n      dup4\n      mstore\n      swap2\n      0x20\n      add\n      swap2\n      jump(tag_28)\n    tag_29:\n      dup3\n      add\n      swap2\n      swap1\n      0x00\n      mstore\n      keccak256(0x00, 0x20)\n      swap1\n    tag_30:\n      dup2\n      sload\n      dup2\n      mstore\n      swap1\n      0x01\n      add\n      swap1\n      0x20\n      add\n      dup1\n      dup4\n      gt\n      tag_30\n      jumpi\n      dup3\n      swap1\n      sub\n      0x1f\n      and\n      dup3\n      add\n      swap2\n    tag_28:\n      pop\n      pop\n      pop\n      pop\n      pop\n      dup2\n      mstore\n      0x20\n      add\n      0x01\n      dup3\n      add\n      sload\n      dup2\n      mstore\n      0x20\n      add\n      0x02\n      dup3\n      add\n      sload\n      dup2\n      mstore\n      0x20\n      add\n      0x03\n      dup3\n      add\n      0x00\n      swap1\n      sload\n      swap1\n      0x0100\n      exp\n      swap1\n      div\n      0xff\n      and\n      iszero\n      iszero\n      iszero\n      iszero\n      dup2\n      mstore\n      pop\n      pop\n      swap1\n      pop\n        /* \"contracts/230524/babylion.sol\":1801:1918  function getReservation(string memory _name) public view returns(guest memory) {... */\n      swap2\n      swap1\n      pop\n      jump\t// out\n        /* \"contracts/230524/babylion.sol\":1926:2195  function cancelReservation(string memory _name) public {... */\n    tag_15:\n        /* \"contracts/230524/babylion.sol\":2055:2060  _name */\n      dup1\n        /* \"contracts/230524/babylion.sol\":2039:2062  keccak256(bytes(_name)) */\n      dup1\n      mload\n      swap1\n      0x20\n      add\n      keccak256\n        /* \"contracts/230524/babylion.sol\":2016:2021  Guest */\n      0x00\n        /* \"contracts/230524/babylion.sol\":2022:2027  _name */\n      dup3\n        /* \"contracts/230524/babylion.sol\":2016:2028  Guest[_name] */\n      mload(0x40)\n      tag_32\n      swap2\n      swap1\n      tag_24\n      jump\t// in\n    tag_32:\n      swap1\n      dup2\n      mstore\n      0x20\n      add\n      mload(0x40)\n      dup1\n      swap2\n      sub\n      swap1\n      keccak256\n        /* \"contracts/230524/babylion.sol\":2016:2033  Guest[_name].name */\n      0x00\n      add\n        /* \"contracts/230524/babylion.sol\":2000:2035  keccak256(bytes(Guest[_name].name)) */\n      mload(0x40)\n      tag_33\n      swap2\n      swap1\n      tag_34\n      jump\t// in\n    tag_33:\n      mload(0x40)\n      dup1\n      swap2\n      sub\n      swap1\n      keccak256\n        /* \"contracts/230524/babylion.sol\":2000:2062  keccak256(bytes(Guest[_name].name)) == keccak256(bytes(_name)) */\n      eq\n        /* \"contracts/230524/babylion.sol\":1992:2063  require(keccak256(bytes(Guest[_name].name)) == keccak256(bytes(_name))) */\n      tag_35\n      jumpi\n      0x00\n      dup1\n      revert\n    tag_35:\n        /* \"contracts/230524/babylion.sol\":2076:2087  uint refund */\n      0x00\n        /* \"contracts/230524/babylion.sol\":2090:2110  (1 ether * 70) / 100 */\n      0x09b6e64a8ec60000\n        /* \"contracts/230524/babylion.sol\":2076:2110  uint refund = (1 ether * 70) / 100 */\n      swap1\n      pop\n        /* \"contracts/230524/babylion.sol\":2129:2139  msg.sender */\n      caller\n        /* \"contracts/230524/babylion.sol\":2121:2149  payable(msg.sender).transfer */\n      0xffffffffffffffffffffffffffffffffffffffff\n      and\n        /* \"contracts/230524/babylion.sol\":2121:2157  payable(msg.sender).transfer(refund) */\n      0x08fc\n        /* \"contracts/230524/babylion.sol\":2150:2156  refund */\n      dup3\n        /* \"contracts/230524/babylion.sol\":2121:2157  payable(msg.sender).transfer(refund) */\n      swap1\n      dup2\n      iszero\n      mul\n      swap1\n      mload(0x40)\n      0x00\n      mload(0x40)\n      dup1\n      dup4\n      sub\n      dup2\n      dup6\n      dup9\n      dup9\n      call\n      swap4\n      pop\n      pop\n      pop\n      pop\n      iszero\n      dup1\n      iszero\n      tag_37\n      jumpi\n      returndatasize\n      0x00\n      dup1\n      returndatacopy\n      revert(0x00, returndatasize)\n    tag_37:\n      pop\n        /* \"contracts/230524/babylion.sol\":2175:2180  Guest */\n      0x00\n        /* \"contracts/230524/babylion.sol\":2181:2186  _name */\n      dup3\n        /* \"contracts/230524/babylion.sol\":2175:2187  Guest[_name] */\n      mload(0x40)\n      tag_38\n      swap2\n      swap1\n      tag_24\n      jump\t// in\n    tag_38:\n      swap1\n      dup2\n      mstore\n      0x20\n      add\n      mload(0x40)\n      dup1\n      swap2\n      sub\n      swap1\n      keccak256\n      0x00\n        /* \"contracts/230524/babylion.sol\":2168:2187  delete Guest[_name] */\n      dup1\n      dup3\n      add\n      0x00\n      tag_39\n      swap2\n      swap1\n      tag_40\n      jump\t// in\n    tag_39:\n      0x01\n      dup3\n      add\n      0x00\n      swap1\n      sstore\n      0x02\n      dup3\n      add\n      0x00\n      swap1\n      sstore\n      0x03\n      dup3\n      add\n      exp(0x0100, 0x00)\n      dup2\n      sload\n      swap1\n      0xff\n      mul\n      not\n      and\n      swap1\n      sstore\n      pop\n      pop\n        /* \"contracts/230524/babylion.sol\":1981:2195  {... */\n      pop\n        /* \"contracts/230524/babylion.sol\":1926:2195  function cancelReservation(string memory _name) public {... */\n      pop\n      jump\t// out\n        /* \"contracts/230524/babylion.sol\":1556:1793  function makeReservation(string memory _name, uint _roomNum, uint _peopleNum) public payable {... */\n    tag_19:\n        /* \"contracts/230524/babylion.sol\":1681:1688  1 ether */\n      0x0de0b6b3a7640000\n        /* \"contracts/230524/babylion.sol\":1668:1677  msg.value */\n      callvalue\n        /* \"contracts/230524/babylion.sol\":1668:1688  msg.value == 1 ether */\n      eq\n        /* \"contracts/230524/babylion.sol\":1668:1716  msg.value == 1 ether && !Guest[_name].isReserved */\n      dup1\n      iszero\n      tag_42\n      jumpi\n      pop\n        /* \"contracts/230524/babylion.sol\":1693:1698  Guest */\n      0x00\n        /* \"contracts/230524/babylion.sol\":1699:1704  _name */\n      dup4\n        /* \"contracts/230524/babylion.sol\":1693:1705  Guest[_name] */\n      mload(0x40)\n      tag_43\n      swap2\n      swap1\n      tag_24\n      jump\t// in\n    tag_43:\n      swap1\n      dup2\n      mstore\n      0x20\n      add\n      mload(0x40)\n      dup1\n      swap2\n      sub\n      swap1\n      keccak256\n        /* \"contracts/230524/babylion.sol\":1693:1716  Guest[_name].isReserved */\n      0x03\n      add\n      0x00\n      swap1\n      sload\n      swap1\n      0x0100\n      exp\n      swap1\n      div\n      0xff\n      and\n        /* \"contracts/230524/babylion.sol\":1692:1716  !Guest[_name].isReserved */\n      iszero\n        /* \"contracts/230524/babylion.sol\":1668:1716  msg.value == 1 ether && !Guest[_name].isReserved */\n    tag_42:\n        /* \"contracts/230524/babylion.sol\":1660:1717  require(msg.value == 1 ether && !Guest[_name].isReserved) */\n      tag_44\n      jumpi\n      0x00\n      dup1\n      revert\n    tag_44:\n        /* \"contracts/230524/babylion.sol\":1745:1785  guest(_name, _roomNum, _peopleNum, true) */\n      mload(0x40)\n      dup1\n      0x80\n      add\n      0x40\n      mstore\n      dup1\n        /* \"contracts/230524/babylion.sol\":1751:1756  _name */\n      dup5\n        /* \"contracts/230524/babylion.sol\":1745:1785  guest(_name, _roomNum, _peopleNum, true) */\n      dup2\n      mstore\n      0x20\n      add\n        /* \"contracts/230524/babylion.sol\":1758:1766  _roomNum */\n      dup4\n        /* \"contracts/230524/babylion.sol\":1745:1785  guest(_name, _roomNum, _peopleNum, true) */\n      dup2\n      mstore\n      0x20\n      add\n        /* \"contracts/230524/babylion.sol\":1768:1778  _peopleNum */\n      dup3\n        /* \"contracts/230524/babylion.sol\":1745:1785  guest(_name, _roomNum, _peopleNum, true) */\n      dup2\n      mstore\n      0x20\n      add\n        /* \"contracts/230524/babylion.sol\":1780:1784  true */\n      0x01\n        /* \"contracts/230524/babylion.sol\":1745:1785  guest(_name, _roomNum, _peopleNum, true) */\n      iszero\n      iszero\n      dup2\n      mstore\n      pop\n        /* \"contracts/230524/babylion.sol\":1730:1735  Guest */\n      0x00\n        /* \"contracts/230524/babylion.sol\":1736:1741  _name */\n      dup5\n        /* \"contracts/230524/babylion.sol\":1730:1742  Guest[_name] */\n      mload(0x40)\n      tag_45\n      swap2\n      swap1\n      tag_24\n      jump\t// in\n    tag_45:\n      swap1\n      dup2\n      mstore\n      0x20\n      add\n      mload(0x40)\n      dup1\n      swap2\n      sub\n      swap1\n      keccak256\n        /* \"contracts/230524/babylion.sol\":1730:1785  Guest[_name] = guest(_name, _roomNum, _peopleNum, true) */\n      0x00\n      dup3\n      add\n      mload\n      dup2\n      0x00\n      add\n      swap1\n      dup2\n      tag_46\n      swap2\n      swap1\n      tag_47\n      jump\t// in\n    tag_46:\n      pop\n      0x20\n      dup3\n      add\n      mload\n      dup2\n      0x01\n      add\n      sstore\n      0x40\n      dup3\n      add\n      mload\n      dup2\n      0x02\n      add\n      sstore\n      0x60\n      dup3\n      add\n      mload\n      dup2\n      0x03\n      add\n      exp(0x0100, 0x00)\n      dup2\n      sload\n      dup2\n      0xff\n      mul\n      not\n      and\n      swap1\n      dup4\n      iszero\n      iszero\n      mul\n      or\n      swap1\n      sstore\n      pop\n      swap1\n      pop\n      pop\n        /* \"contracts/230524/babylion.sol\":1556:1793  function makeReservation(string memory _name, uint _roomNum, uint _peopleNum) public payable {... */\n      pop\n      pop\n      pop\n      jump\t// out\n    tag_21:\n      mload(0x40)\n      dup1\n      0x80\n      add\n      0x40\n      mstore\n      dup1\n      0x60\n      dup2\n      mstore\n      0x20\n      add\n      0x00\n      dup2\n      mstore\n      0x20\n      add\n      0x00\n      dup2\n      mstore\n      0x20\n      add\n      iszero(iszero(0x00))\n      dup2\n      mstore\n      pop\n      swap1\n      jump\t// out\n    tag_40:\n      pop\n      dup1\n      sload\n      tag_48\n      swap1\n      tag_26\n      jump\t// in\n    tag_48:\n      0x00\n      dup3\n      sstore\n      dup1\n      0x1f\n      lt\n      tag_50\n      jumpi\n      pop\n      jump(tag_49)\n    tag_50:\n      0x1f\n      add\n      0x20\n      swap1\n      div\n      swap1\n      0x00\n      mstore\n      keccak256(0x00, 0x20)\n      swap1\n      dup2\n      add\n      swap1\n      tag_51\n      swap2\n      swap1\n      tag_52\n      jump\t// in\n    tag_51:\n    tag_49:\n      pop\n      jump\t// out\n    tag_52:\n    tag_53:\n      dup1\n      dup3\n      gt\n      iszero\n      tag_54\n      jumpi\n      0x00\n      dup2\n      0x00\n      swap1\n      sstore\n      pop\n      0x01\n      add\n      jump(tag_53)\n    tag_54:\n      pop\n      swap1\n      jump\t// out\n        /* \"#utility.yul\":7:82   */\n    tag_55:\n        /* \"#utility.yul\":40:46   */\n      0x00\n        /* \"#utility.yul\":73:75   */\n      0x40\n        /* \"#utility.yul\":67:76   */\n      mload\n        /* \"#utility.yul\":57:76   */\n      swap1\n      pop\n        /* \"#utility.yul\":7:82   */\n      swap1\n      jump\t// out\n        /* \"#utility.yul\":88:205   */\n    tag_56:\n        /* \"#utility.yul\":197:198   */\n      0x00\n        /* \"#utility.yul\":194:195   */\n      dup1\n        /* \"#utility.yul\":187:199   */\n      revert\n        /* \"#utility.yul\":211:328   */\n    tag_57:\n        /* \"#utility.yul\":320:321   */\n      0x00\n        /* \"#utility.yul\":317:318   */\n      dup1\n        /* \"#utility.yul\":310:322   */\n      revert\n        /* \"#utility.yul\":334:451   */\n    tag_58:\n        /* \"#utility.yul\":443:444   */\n      0x00\n        /* \"#utility.yul\":440:441   */\n      dup1\n        /* \"#utility.yul\":433:445   */\n      revert\n        /* \"#utility.yul\":457:574   */\n    tag_59:\n        /* \"#utility.yul\":566:567   */\n      0x00\n        /* \"#utility.yul\":563:564   */\n      dup1\n        /* \"#utility.yul\":556:568   */\n      revert\n        /* \"#utility.yul\":580:682   */\n    tag_60:\n        /* \"#utility.yul\":621:627   */\n      0x00\n        /* \"#utility.yul\":672:674   */\n      0x1f\n        /* \"#utility.yul\":668:675   */\n      not\n        /* \"#utility.yul\":663:665   */\n      0x1f\n        /* \"#utility.yul\":656:661   */\n      dup4\n        /* \"#utility.yul\":652:666   */\n      add\n        /* \"#utility.yul\":648:676   */\n      and\n        /* \"#utility.yul\":638:676   */\n      swap1\n      pop\n        /* \"#utility.yul\":580:682   */\n      swap2\n      swap1\n      pop\n      jump\t// out\n        /* \"#utility.yul\":688:868   */\n    tag_61:\n        /* \"#utility.yul\":736:813   */\n      0x4e487b7100000000000000000000000000000000000000000000000000000000\n        /* \"#utility.yul\":733:734   */\n      0x00\n        /* \"#utility.yul\":726:814   */\n      mstore\n        /* \"#utility.yul\":833:837   */\n      0x41\n        /* \"#utility.yul\":830:831   */\n      0x04\n        /* \"#utility.yul\":823:838   */\n      mstore\n        /* \"#utility.yul\":857:861   */\n      0x24\n        /* \"#utility.yul\":854:855   */\n      0x00\n        /* \"#utility.yul\":847:862   */\n      revert\n        /* \"#utility.yul\":874:1155   */\n    tag_62:\n        /* \"#utility.yul\":957:984   */\n      tag_109\n        /* \"#utility.yul\":979:983   */\n      dup3\n        /* \"#utility.yul\":957:984   */\n      tag_60\n      jump\t// in\n    tag_109:\n        /* \"#utility.yul\":949:955   */\n      dup2\n        /* \"#utility.yul\":945:985   */\n      add\n        /* \"#utility.yul\":1087:1093   */\n      dup2\n        /* \"#utility.yul\":1075:1085   */\n      dup2\n        /* \"#utility.yul\":1072:1094   */\n      lt\n        /* \"#utility.yul\":1051:1069   */\n      0xffffffffffffffff\n        /* \"#utility.yul\":1039:1049   */\n      dup3\n        /* \"#utility.yul\":1036:1070   */\n      gt\n        /* \"#utility.yul\":1033:1095   */\n      or\n        /* \"#utility.yul\":1030:1118   */\n      iszero\n      tag_110\n      jumpi\n        /* \"#utility.yul\":1098:1116   */\n      tag_111\n      tag_61\n      jump\t// in\n    tag_111:\n        /* \"#utility.yul\":1030:1118   */\n    tag_110:\n        /* \"#utility.yul\":1138:1148   */\n      dup1\n        /* \"#utility.yul\":1134:1136   */\n      0x40\n        /* \"#utility.yul\":1127:1149   */\n      mstore\n        /* \"#utility.yul\":917:1155   */\n      pop\n        /* \"#utility.yul\":874:1155   */\n      pop\n      pop\n      jump\t// out\n        /* \"#utility.yul\":1161:1290   */\n    tag_63:\n        /* \"#utility.yul\":1195:1201   */\n      0x00\n        /* \"#utility.yul\":1222:1242   */\n      tag_113\n      tag_55\n      jump\t// in\n    tag_113:\n        /* \"#utility.yul\":1212:1242   */\n      swap1\n      pop\n        /* \"#utility.yul\":1251:1284   */\n      tag_114\n        /* \"#utility.yul\":1279:1283   */\n      dup3\n        /* \"#utility.yul\":1271:1277   */\n      dup3\n        /* \"#utility.yul\":1251:1284   */\n      tag_62\n      jump\t// in\n    tag_114:\n        /* \"#utility.yul\":1161:1290   */\n      swap2\n      swap1\n      pop\n      jump\t// out\n        /* \"#utility.yul\":1296:1604   */\n    tag_64:\n        /* \"#utility.yul\":1358:1362   */\n      0x00\n        /* \"#utility.yul\":1448:1466   */\n      0xffffffffffffffff\n        /* \"#utility.yul\":1440:1446   */\n      dup3\n        /* \"#utility.yul\":1437:1467   */\n      gt\n        /* \"#utility.yul\":1434:1490   */\n      iszero\n      tag_116\n      jumpi\n        /* \"#utility.yul\":1470:1488   */\n      tag_117\n      tag_61\n      jump\t// in\n    tag_117:\n        /* \"#utility.yul\":1434:1490   */\n    tag_116:\n        /* \"#utility.yul\":1508:1537   */\n      tag_118\n        /* \"#utility.yul\":1530:1536   */\n      dup3\n        /* \"#utility.yul\":1508:1537   */\n      tag_60\n      jump\t// in\n    tag_118:\n        /* \"#utility.yul\":1500:1537   */\n      swap1\n      pop\n        /* \"#utility.yul\":1592:1596   */\n      0x20\n        /* \"#utility.yul\":1586:1590   */\n      dup2\n        /* \"#utility.yul\":1582:1597   */\n      add\n        /* \"#utility.yul\":1574:1597   */\n      swap1\n      pop\n        /* \"#utility.yul\":1296:1604   */\n      swap2\n      swap1\n      pop\n      jump\t// out\n        /* \"#utility.yul\":1610:1756   */\n    tag_65:\n        /* \"#utility.yul\":1707:1713   */\n      dup3\n        /* \"#utility.yul\":1702:1705   */\n      dup2\n        /* \"#utility.yul\":1697:1700   */\n      dup4\n        /* \"#utility.yul\":1684:1714   */\n      calldatacopy\n        /* \"#utility.yul\":1748:1749   */\n      0x00\n        /* \"#utility.yul\":1739:1745   */\n      dup4\n        /* \"#utility.yul\":1734:1737   */\n      dup4\n        /* \"#utility.yul\":1730:1746   */\n      add\n        /* \"#utility.yul\":1723:1750   */\n      mstore\n        /* \"#utility.yul\":1610:1756   */\n      pop\n      pop\n      pop\n      jump\t// out\n        /* \"#utility.yul\":1762:2187   */\n    tag_66:\n        /* \"#utility.yul\":1840:1845   */\n      0x00\n        /* \"#utility.yul\":1865:1931   */\n      tag_121\n        /* \"#utility.yul\":1881:1930   */\n      tag_122\n        /* \"#utility.yul\":1923:1929   */\n      dup5\n        /* \"#utility.yul\":1881:1930   */\n      tag_64\n      jump\t// in\n    tag_122:\n        /* \"#utility.yul\":1865:1931   */\n      tag_63\n      jump\t// in\n    tag_121:\n        /* \"#utility.yul\":1856:1931   */\n      swap1\n      pop\n        /* \"#utility.yul\":1954:1960   */\n      dup3\n        /* \"#utility.yul\":1947:1952   */\n      dup2\n        /* \"#utility.yul\":1940:1961   */\n      mstore\n        /* \"#utility.yul\":1992:1996   */\n      0x20\n        /* \"#utility.yul\":1985:1990   */\n      dup2\n        /* \"#utility.yul\":1981:1997   */\n      add\n        /* \"#utility.yul\":2030:2033   */\n      dup5\n        /* \"#utility.yul\":2021:2027   */\n      dup5\n        /* \"#utility.yul\":2016:2019   */\n      dup5\n        /* \"#utility.yul\":2012:2028   */\n      add\n        /* \"#utility.yul\":2009:2034   */\n      gt\n        /* \"#utility.yul\":2006:2118   */\n      iszero\n      tag_123\n      jumpi\n        /* \"#utility.yul\":2037:2116   */\n      tag_124\n      tag_59\n      jump\t// in\n    tag_124:\n        /* \"#utility.yul\":2006:2118   */\n    tag_123:\n        /* \"#utility.yul\":2127:2181   */\n      tag_125\n        /* \"#utility.yul\":2174:2180   */\n      dup5\n        /* \"#utility.yul\":2169:2172   */\n      dup3\n        /* \"#utility.yul\":2164:2167   */\n      dup6\n        /* \"#utility.yul\":2127:2181   */\n      tag_65\n      jump\t// in\n    tag_125:\n        /* \"#utility.yul\":1846:2187   */\n      pop\n        /* \"#utility.yul\":1762:2187   */\n      swap4\n      swap3\n      pop\n      pop\n      pop\n      jump\t// out\n        /* \"#utility.yul\":2207:2547   */\n    tag_67:\n        /* \"#utility.yul\":2263:2268   */\n      0x00\n        /* \"#utility.yul\":2312:2315   */\n      dup3\n        /* \"#utility.yul\":2305:2309   */\n      0x1f\n        /* \"#utility.yul\":2297:2303   */\n      dup4\n        /* \"#utility.yul\":2293:2310   */\n      add\n        /* \"#utility.yul\":2289:2316   */\n      slt\n        /* \"#utility.yul\":2279:2401   */\n      tag_127\n      jumpi\n        /* \"#utility.yul\":2320:2399   */\n      tag_128\n      tag_58\n      jump\t// in\n    tag_128:\n        /* \"#utility.yul\":2279:2401   */\n    tag_127:\n        /* \"#utility.yul\":2437:2443   */\n      dup2\n        /* \"#utility.yul\":2424:2444   */\n      calldataload\n        /* \"#utility.yul\":2462:2541   */\n      tag_129\n        /* \"#utility.yul\":2537:2540   */\n      dup5\n        /* \"#utility.yul\":2529:2535   */\n      dup3\n        /* \"#utility.yul\":2522:2526   */\n      0x20\n        /* \"#utility.yul\":2514:2520   */\n      dup7\n        /* \"#utility.yul\":2510:2527   */\n      add\n        /* \"#utility.yul\":2462:2541   */\n      tag_66\n      jump\t// in\n    tag_129:\n        /* \"#utility.yul\":2453:2541   */\n      swap2\n      pop\n        /* \"#utility.yul\":2269:2547   */\n      pop\n        /* \"#utility.yul\":2207:2547   */\n      swap3\n      swap2\n      pop\n      pop\n      jump\t// out\n        /* \"#utility.yul\":2553:3062   */\n    tag_8:\n        /* \"#utility.yul\":2622:2628   */\n      0x00\n        /* \"#utility.yul\":2671:2673   */\n      0x20\n        /* \"#utility.yul\":2659:2668   */\n      dup3\n        /* \"#utility.yul\":2650:2657   */\n      dup5\n        /* \"#utility.yul\":2646:2669   */\n      sub\n        /* \"#utility.yul\":2642:2674   */\n      slt\n        /* \"#utility.yul\":2639:2758   */\n      iszero\n      tag_131\n      jumpi\n        /* \"#utility.yul\":2677:2756   */\n      tag_132\n      tag_56\n      jump\t// in\n    tag_132:\n        /* \"#utility.yul\":2639:2758   */\n    tag_131:\n        /* \"#utility.yul\":2825:2826   */\n      0x00\n        /* \"#utility.yul\":2814:2823   */\n      dup3\n        /* \"#utility.yul\":2810:2827   */\n      add\n        /* \"#utility.yul\":2797:2828   */\n      calldataload\n        /* \"#utility.yul\":2855:2873   */\n      0xffffffffffffffff\n        /* \"#utility.yul\":2847:2853   */\n      dup2\n        /* \"#utility.yul\":2844:2874   */\n      gt\n        /* \"#utility.yul\":2841:2958   */\n      iszero\n      tag_133\n      jumpi\n        /* \"#utility.yul\":2877:2956   */\n      tag_134\n      tag_57\n      jump\t// in\n    tag_134:\n        /* \"#utility.yul\":2841:2958   */\n    tag_133:\n        /* \"#utility.yul\":2982:3045   */\n      tag_135\n        /* \"#utility.yul\":3037:3044   */\n      dup5\n        /* \"#utility.yul\":3028:3034   */\n      dup3\n        /* \"#utility.yul\":3017:3026   */\n      dup6\n        /* \"#utility.yul\":3013:3035   */\n      add\n        /* \"#utility.yul\":2982:3045   */\n      tag_67\n      jump\t// in\n    tag_135:\n        /* \"#utility.yul\":2972:3045   */\n      swap2\n      pop\n        /* \"#utility.yul\":2768:3055   */\n      pop\n        /* \"#utility.yul\":2553:3062   */\n      swap3\n      swap2\n      pop\n      pop\n      jump\t// out\n        /* \"#utility.yul\":3068:3167   */\n    tag_68:\n        /* \"#utility.yul\":3120:3126   */\n      0x00\n        /* \"#utility.yul\":3154:3159   */\n      dup2\n        /* \"#utility.yul\":3148:3160   */\n      mload\n        /* \"#utility.yul\":3138:3160   */\n      swap1\n      pop\n        /* \"#utility.yul\":3068:3167   */\n      swap2\n      swap1\n      pop\n      jump\t// out\n        /* \"#utility.yul\":3173:3332   */\n    tag_69:\n        /* \"#utility.yul\":3247:3258   */\n      0x00\n        /* \"#utility.yul\":3281:3287   */\n      dup3\n        /* \"#utility.yul\":3276:3279   */\n      dup3\n        /* \"#utility.yul\":3269:3288   */\n      mstore\n        /* \"#utility.yul\":3321:3325   */\n      0x20\n        /* \"#utility.yul\":3316:3319   */\n      dup3\n        /* \"#utility.yul\":3312:3326   */\n      add\n        /* \"#utility.yul\":3297:3326   */\n      swap1\n      pop\n        /* \"#utility.yul\":3173:3332   */\n      swap3\n      swap2\n      pop\n      pop\n      jump\t// out\n        /* \"#utility.yul\":3338:3584   */\n    tag_70:\n        /* \"#utility.yul\":3419:3420   */\n      0x00\n        /* \"#utility.yul\":3429:3542   */\n    tag_139:\n        /* \"#utility.yul\":3443:3449   */\n      dup4\n        /* \"#utility.yul\":3440:3441   */\n      dup2\n        /* \"#utility.yul\":3437:3450   */\n      lt\n        /* \"#utility.yul\":3429:3542   */\n      iszero\n      tag_141\n      jumpi\n        /* \"#utility.yul\":3528:3529   */\n      dup1\n        /* \"#utility.yul\":3523:3526   */\n      dup3\n        /* \"#utility.yul\":3519:3530   */\n      add\n        /* \"#utility.yul\":3513:3531   */\n      mload\n        /* \"#utility.yul\":3509:3510   */\n      dup2\n        /* \"#utility.yul\":3504:3507   */\n      dup5\n        /* \"#utility.yul\":3500:3511   */\n      add\n        /* \"#utility.yul\":3493:3532   */\n      mstore\n        /* \"#utility.yul\":3465:3467   */\n      0x20\n        /* \"#utility.yul\":3462:3463   */\n      dup2\n        /* \"#utility.yul\":3458:3468   */\n      add\n        /* \"#utility.yul\":3453:3468   */\n      swap1\n      pop\n        /* \"#utility.yul\":3429:3542   */\n      jump(tag_139)\n    tag_141:\n        /* \"#utility.yul\":3576:3577   */\n      0x00\n        /* \"#utility.yul\":3567:3573   */\n      dup5\n        /* \"#utility.yul\":3562:3565   */\n      dup5\n        /* \"#utility.yul\":3558:3574   */\n      add\n        /* \"#utility.yul\":3551:3578   */\n      mstore\n        /* \"#utility.yul\":3400:3584   */\n      pop\n        /* \"#utility.yul\":3338:3584   */\n      pop\n      pop\n      pop\n      jump\t// out\n        /* \"#utility.yul\":3590:3947   */\n    tag_71:\n        /* \"#utility.yul\":3668:3671   */\n      0x00\n        /* \"#utility.yul\":3696:3735   */\n      tag_143\n        /* \"#utility.yul\":3729:3734   */\n      dup3\n        /* \"#utility.yul\":3696:3735   */\n      tag_68\n      jump\t// in\n    tag_143:\n        /* \"#utility.yul\":3751:3812   */\n      tag_144\n        /* \"#utility.yul\":3805:3811   */\n      dup2\n        /* \"#utility.yul\":3800:3803   */\n      dup6\n        /* \"#utility.yul\":3751:3812   */\n      tag_69\n      jump\t// in\n    tag_144:\n        /* \"#utility.yul\":3744:3812   */\n      swap4\n      pop\n        /* \"#utility.yul\":3821:3886   */\n      tag_145\n        /* \"#utility.yul\":3879:3885   */\n      dup2\n        /* \"#utility.yul\":3874:3877   */\n      dup6\n        /* \"#utility.yul\":3867:3871   */\n      0x20\n        /* \"#utility.yul\":3860:3865   */\n      dup7\n        /* \"#utility.yul\":3856:3872   */\n      add\n        /* \"#utility.yul\":3821:3886   */\n      tag_70\n      jump\t// in\n    tag_145:\n        /* \"#utility.yul\":3911:3940   */\n      tag_146\n        /* \"#utility.yul\":3933:3939   */\n      dup2\n        /* \"#utility.yul\":3911:3940   */\n      tag_60\n      jump\t// in\n    tag_146:\n        /* \"#utility.yul\":3906:3909   */\n      dup5\n        /* \"#utility.yul\":3902:3941   */\n      add\n        /* \"#utility.yul\":3895:3941   */\n      swap2\n      pop\n        /* \"#utility.yul\":3672:3947   */\n      pop\n        /* \"#utility.yul\":3590:3947   */\n      swap3\n      swap2\n      pop\n      pop\n      jump\t// out\n        /* \"#utility.yul\":3953:4030   */\n    tag_72:\n        /* \"#utility.yul\":3990:3997   */\n      0x00\n        /* \"#utility.yul\":4019:4024   */\n      dup2\n        /* \"#utility.yul\":4008:4024   */\n      swap1\n      pop\n        /* \"#utility.yul\":3953:4030   */\n      swap2\n      swap1\n      pop\n      jump\t// out\n        /* \"#utility.yul\":4036:4144   */\n    tag_73:\n        /* \"#utility.yul\":4113:4137   */\n      tag_149\n        /* \"#utility.yul\":4131:4136   */\n      dup2\n        /* \"#utility.yul\":4113:4137   */\n      tag_72\n      jump\t// in\n    tag_149:\n        /* \"#utility.yul\":4108:4111   */\n      dup3\n        /* \"#utility.yul\":4101:4138   */\n      mstore\n        /* \"#utility.yul\":4036:4144   */\n      pop\n      pop\n      jump\t// out\n        /* \"#utility.yul\":4150:4240   */\n    tag_74:\n        /* \"#utility.yul\":4184:4191   */\n      0x00\n        /* \"#utility.yul\":4227:4232   */\n      dup2\n        /* \"#utility.yul\":4220:4233   */\n      iszero\n        /* \"#utility.yul\":4213:4234   */\n      iszero\n        /* \"#utility.yul\":4202:4234   */\n      swap1\n      pop\n        /* \"#utility.yul\":4150:4240   */\n      swap2\n      swap1\n      pop\n      jump\t// out\n        /* \"#utility.yul\":4246:4345   */\n    tag_75:\n        /* \"#utility.yul\":4317:4338   */\n      tag_152\n        /* \"#utility.yul\":4332:4337   */\n      dup2\n        /* \"#utility.yul\":4317:4338   */\n      tag_74\n      jump\t// in\n    tag_152:\n        /* \"#utility.yul\":4312:4315   */\n      dup3\n        /* \"#utility.yul\":4305:4339   */\n      mstore\n        /* \"#utility.yul\":4246:4345   */\n      pop\n      pop\n      jump\t// out\n        /* \"#utility.yul\":4393:5353   */\n    tag_76:\n        /* \"#utility.yul\":4504:4507   */\n      0x00\n        /* \"#utility.yul\":4540:4544   */\n      0x80\n        /* \"#utility.yul\":4535:4538   */\n      dup4\n        /* \"#utility.yul\":4531:4545   */\n      add\n        /* \"#utility.yul\":4627:4631   */\n      0x00\n        /* \"#utility.yul\":4620:4625   */\n      dup4\n        /* \"#utility.yul\":4616:4632   */\n      add\n        /* \"#utility.yul\":4610:4633   */\n      mload\n        /* \"#utility.yul\":4680:4683   */\n      dup5\n        /* \"#utility.yul\":4674:4678   */\n      dup3\n        /* \"#utility.yul\":4670:4684   */\n      sub\n        /* \"#utility.yul\":4663:4667   */\n      0x00\n        /* \"#utility.yul\":4658:4661   */\n      dup7\n        /* \"#utility.yul\":4654:4668   */\n      add\n        /* \"#utility.yul\":4647:4685   */\n      mstore\n        /* \"#utility.yul\":4706:4779   */\n      tag_154\n        /* \"#utility.yul\":4774:4778   */\n      dup3\n        /* \"#utility.yul\":4760:4772   */\n      dup3\n        /* \"#utility.yul\":4706:4779   */\n      tag_71\n      jump\t// in\n    tag_154:\n        /* \"#utility.yul\":4698:4779   */\n      swap2\n      pop\n        /* \"#utility.yul\":4555:4790   */\n      pop\n        /* \"#utility.yul\":4878:4882   */\n      0x20\n        /* \"#utility.yul\":4871:4876   */\n      dup4\n        /* \"#utility.yul\":4867:4883   */\n      add\n        /* \"#utility.yul\":4861:4884   */\n      mload\n        /* \"#utility.yul\":4897:4960   */\n      tag_155\n        /* \"#utility.yul\":4954:4958   */\n      0x20\n        /* \"#utility.yul\":4949:4952   */\n      dup7\n        /* \"#utility.yul\":4945:4959   */\n      add\n        /* \"#utility.yul\":4931:4943   */\n      dup3\n        /* \"#utility.yul\":4897:4960   */\n      tag_73\n      jump\t// in\n    tag_155:\n        /* \"#utility.yul\":4800:4970   */\n      pop\n        /* \"#utility.yul\":5060:5064   */\n      0x40\n        /* \"#utility.yul\":5053:5058   */\n      dup4\n        /* \"#utility.yul\":5049:5065   */\n      add\n        /* \"#utility.yul\":5043:5066   */\n      mload\n        /* \"#utility.yul\":5079:5142   */\n      tag_156\n        /* \"#utility.yul\":5136:5140   */\n      0x40\n        /* \"#utility.yul\":5131:5134   */\n      dup7\n        /* \"#utility.yul\":5127:5141   */\n      add\n        /* \"#utility.yul\":5113:5125   */\n      dup3\n        /* \"#utility.yul\":5079:5142   */\n      tag_73\n      jump\t// in\n    tag_156:\n        /* \"#utility.yul\":4980:5152   */\n      pop\n        /* \"#utility.yul\":5240:5244   */\n      0x60\n        /* \"#utility.yul\":5233:5238   */\n      dup4\n        /* \"#utility.yul\":5229:5245   */\n      add\n        /* \"#utility.yul\":5223:5246   */\n      mload\n        /* \"#utility.yul\":5259:5316   */\n      tag_157\n        /* \"#utility.yul\":5310:5314   */\n      0x60\n        /* \"#utility.yul\":5305:5308   */\n      dup7\n        /* \"#utility.yul\":5301:5315   */\n      add\n        /* \"#utility.yul\":5287:5299   */\n      dup3\n        /* \"#utility.yul\":5259:5316   */\n      tag_75\n      jump\t// in\n    tag_157:\n        /* \"#utility.yul\":5162:5326   */\n      pop\n        /* \"#utility.yul\":5343:5347   */\n      dup1\n        /* \"#utility.yul\":5336:5347   */\n      swap2\n      pop\n        /* \"#utility.yul\":4509:5353   */\n      pop\n        /* \"#utility.yul\":4393:5353   */\n      swap3\n      swap2\n      pop\n      pop\n      jump\t// out\n        /* \"#utility.yul\":5359:5716   */\n    tag_11:\n        /* \"#utility.yul\":5494:5498   */\n      0x00\n        /* \"#utility.yul\":5532:5534   */\n      0x20\n        /* \"#utility.yul\":5521:5530   */\n      dup3\n        /* \"#utility.yul\":5517:5535   */\n      add\n        /* \"#utility.yul\":5509:5535   */\n      swap1\n      pop\n        /* \"#utility.yul\":5581:5590   */\n      dup2\n        /* \"#utility.yul\":5575:5579   */\n      dup2\n        /* \"#utility.yul\":5571:5591   */\n      sub\n        /* \"#utility.yul\":5567:5568   */\n      0x00\n        /* \"#utility.yul\":5556:5565   */\n      dup4\n        /* \"#utility.yul\":5552:5569   */\n      add\n        /* \"#utility.yul\":5545:5592   */\n      mstore\n        /* \"#utility.yul\":5609:5709   */\n      tag_159\n        /* \"#utility.yul\":5704:5708   */\n      dup2\n        /* \"#utility.yul\":5695:5701   */\n      dup5\n        /* \"#utility.yul\":5609:5709   */\n      tag_76\n      jump\t// in\n    tag_159:\n        /* \"#utility.yul\":5601:5709   */\n      swap1\n      pop\n        /* \"#utility.yul\":5359:5716   */\n      swap3\n      swap2\n      pop\n      pop\n      jump\t// out\n        /* \"#utility.yul\":5722:5844   */\n    tag_77:\n        /* \"#utility.yul\":5795:5819   */\n      tag_161\n        /* \"#utility.yul\":5813:5818   */\n      dup2\n        /* \"#utility.yul\":5795:5819   */\n      tag_72\n      jump\t// in\n    tag_161:\n        /* \"#utility.yul\":5788:5793   */\n      dup2\n        /* \"#utility.yul\":5785:5820   */\n      eq\n        /* \"#utility.yul\":5775:5838   */\n      tag_162\n      jumpi\n        /* \"#utility.yul\":5834:5835   */\n      0x00\n        /* \"#utility.yul\":5831:5832   */\n      dup1\n        /* \"#utility.yul\":5824:5836   */\n      revert\n        /* \"#utility.yul\":5775:5838   */\n    tag_162:\n        /* \"#utility.yul\":5722:5844   */\n      pop\n      jump\t// out\n        /* \"#utility.yul\":5850:5989   */\n    tag_78:\n        /* \"#utility.yul\":5896:5901   */\n      0x00\n        /* \"#utility.yul\":5934:5940   */\n      dup2\n        /* \"#utility.yul\":5921:5941   */\n      calldataload\n        /* \"#utility.yul\":5912:5941   */\n      swap1\n      pop\n        /* \"#utility.yul\":5950:5983   */\n      tag_164\n        /* \"#utility.yul\":5977:5982   */\n      dup2\n        /* \"#utility.yul\":5950:5983   */\n      tag_77\n      jump\t// in\n    tag_164:\n        /* \"#utility.yul\":5850:5989   */\n      swap3\n      swap2\n      pop\n      pop\n      jump\t// out\n        /* \"#utility.yul\":5995:6794   */\n    tag_18:\n        /* \"#utility.yul\":6082:6088   */\n      0x00\n        /* \"#utility.yul\":6090:6096   */\n      dup1\n        /* \"#utility.yul\":6098:6104   */\n      0x00\n        /* \"#utility.yul\":6147:6149   */\n      0x60\n        /* \"#utility.yul\":6135:6144   */\n      dup5\n        /* \"#utility.yul\":6126:6133   */\n      dup7\n        /* \"#utility.yul\":6122:6145   */\n      sub\n        /* \"#utility.yul\":6118:6150   */\n      slt\n        /* \"#utility.yul\":6115:6234   */\n      iszero\n      tag_166\n      jumpi\n        /* \"#utility.yul\":6153:6232   */\n      tag_167\n      tag_56\n      jump\t// in\n    tag_167:\n        /* \"#utility.yul\":6115:6234   */\n    tag_166:\n        /* \"#utility.yul\":6301:6302   */\n      0x00\n        /* \"#utility.yul\":6290:6299   */\n      dup5\n        /* \"#utility.yul\":6286:6303   */\n      add\n        /* \"#utility.yul\":6273:6304   */\n      calldataload\n        /* \"#utility.yul\":6331:6349   */\n      0xffffffffffffffff\n        /* \"#utility.yul\":6323:6329   */\n      dup2\n        /* \"#utility.yul\":6320:6350   */\n      gt\n        /* \"#utility.yul\":6317:6434   */\n      iszero\n      tag_168\n      jumpi\n        /* \"#utility.yul\":6353:6432   */\n      tag_169\n      tag_57\n      jump\t// in\n    tag_169:\n        /* \"#utility.yul\":6317:6434   */\n    tag_168:\n        /* \"#utility.yul\":6458:6521   */\n      tag_170\n        /* \"#utility.yul\":6513:6520   */\n      dup7\n        /* \"#utility.yul\":6504:6510   */\n      dup3\n        /* \"#utility.yul\":6493:6502   */\n      dup8\n        /* \"#utility.yul\":6489:6511   */\n      add\n        /* \"#utility.yul\":6458:6521   */\n      tag_67\n      jump\t// in\n    tag_170:\n        /* \"#utility.yul\":6448:6521   */\n      swap4\n      pop\n        /* \"#utility.yul\":6244:6531   */\n      pop\n        /* \"#utility.yul\":6570:6572   */\n      0x20\n        /* \"#utility.yul\":6596:6649   */\n      tag_171\n        /* \"#utility.yul\":6641:6648   */\n      dup7\n        /* \"#utility.yul\":6632:6638   */\n      dup3\n        /* \"#utility.yul\":6621:6630   */\n      dup8\n        /* \"#utility.yul\":6617:6639   */\n      add\n        /* \"#utility.yul\":6596:6649   */\n      tag_78\n      jump\t// in\n    tag_171:\n        /* \"#utility.yul\":6586:6649   */\n      swap3\n      pop\n        /* \"#utility.yul\":6541:6659   */\n      pop\n        /* \"#utility.yul\":6698:6700   */\n      0x40\n        /* \"#utility.yul\":6724:6777   */\n      tag_172\n        /* \"#utility.yul\":6769:6776   */\n      dup7\n        /* \"#utility.yul\":6760:6766   */\n      dup3\n        /* \"#utility.yul\":6749:6758   */\n      dup8\n        /* \"#utility.yul\":6745:6767   */\n      add\n        /* \"#utility.yul\":6724:6777   */\n      tag_78\n      jump\t// in\n    tag_172:\n        /* \"#utility.yul\":6714:6777   */\n      swap2\n      pop\n        /* \"#utility.yul\":6669:6787   */\n      pop\n        /* \"#utility.yul\":5995:6794   */\n      swap3\n      pop\n      swap3\n      pop\n      swap3\n      jump\t// out\n        /* \"#utility.yul\":6800:6948   */\n    tag_79:\n        /* \"#utility.yul\":6902:6913   */\n      0x00\n        /* \"#utility.yul\":6939:6942   */\n      dup2\n        /* \"#utility.yul\":6924:6942   */\n      swap1\n      pop\n        /* \"#utility.yul\":6800:6948   */\n      swap3\n      swap2\n      pop\n      pop\n      jump\t// out\n        /* \"#utility.yul\":6954:7344   */\n    tag_80:\n        /* \"#utility.yul\":7060:7063   */\n      0x00\n        /* \"#utility.yul\":7088:7127   */\n      tag_175\n        /* \"#utility.yul\":7121:7126   */\n      dup3\n        /* \"#utility.yul\":7088:7127   */\n      tag_68\n      jump\t// in\n    tag_175:\n        /* \"#utility.yul\":7143:7232   */\n      tag_176\n        /* \"#utility.yul\":7225:7231   */\n      dup2\n        /* \"#utility.yul\":7220:7223   */\n      dup6\n        /* \"#utility.yul\":7143:7232   */\n      tag_79\n      jump\t// in\n    tag_176:\n        /* \"#utility.yul\":7136:7232   */\n      swap4\n      pop\n        /* \"#utility.yul\":7241:7306   */\n      tag_177\n        /* \"#utility.yul\":7299:7305   */\n      dup2\n        /* \"#utility.yul\":7294:7297   */\n      dup6\n        /* \"#utility.yul\":7287:7291   */\n      0x20\n        /* \"#utility.yul\":7280:7285   */\n      dup7\n        /* \"#utility.yul\":7276:7292   */\n      add\n        /* \"#utility.yul\":7241:7306   */\n      tag_70\n      jump\t// in\n    tag_177:\n        /* \"#utility.yul\":7331:7337   */\n      dup1\n        /* \"#utility.yul\":7326:7329   */\n      dup5\n        /* \"#utility.yul\":7322:7338   */\n      add\n        /* \"#utility.yul\":7315:7338   */\n      swap2\n      pop\n        /* \"#utility.yul\":7064:7344   */\n      pop\n        /* \"#utility.yul\":6954:7344   */\n      swap3\n      swap2\n      pop\n      pop\n      jump\t// out\n        /* \"#utility.yul\":7350:7625   */\n    tag_24:\n        /* \"#utility.yul\":7482:7485   */\n      0x00\n        /* \"#utility.yul\":7504:7599   */\n      tag_179\n        /* \"#utility.yul\":7595:7598   */\n      dup3\n        /* \"#utility.yul\":7586:7592   */\n      dup5\n        /* \"#utility.yul\":7504:7599   */\n      tag_80\n      jump\t// in\n    tag_179:\n        /* \"#utility.yul\":7497:7599   */\n      swap2\n      pop\n        /* \"#utility.yul\":7616:7619   */\n      dup2\n        /* \"#utility.yul\":7609:7619   */\n      swap1\n      pop\n        /* \"#utility.yul\":7350:7625   */\n      swap3\n      swap2\n      pop\n      pop\n      jump\t// out\n        /* \"#utility.yul\":7631:7811   */\n    tag_81:\n        /* \"#utility.yul\":7679:7756   */\n      0x4e487b7100000000000000000000000000000000000000000000000000000000\n        /* \"#utility.yul\":7676:7677   */\n      0x00\n        /* \"#utility.yul\":7669:7757   */\n      mstore\n        /* \"#utility.yul\":7776:7780   */\n      0x22\n        /* \"#utility.yul\":7773:7774   */\n      0x04\n        /* \"#utility.yul\":7766:7781   */\n      mstore\n        /* \"#utility.yul\":7800:7804   */\n      0x24\n        /* \"#utility.yul\":7797:7798   */\n      0x00\n        /* \"#utility.yul\":7790:7805   */\n      revert\n        /* \"#utility.yul\":7817:8137   */\n    tag_26:\n        /* \"#utility.yul\":7861:7867   */\n      0x00\n        /* \"#utility.yul\":7898:7899   */\n      0x02\n        /* \"#utility.yul\":7892:7896   */\n      dup3\n        /* \"#utility.yul\":7888:7900   */\n      div\n        /* \"#utility.yul\":7878:7900   */\n      swap1\n      pop\n        /* \"#utility.yul\":7945:7946   */\n      0x01\n        /* \"#utility.yul\":7939:7943   */\n      dup3\n        /* \"#utility.yul\":7935:7947   */\n      and\n        /* \"#utility.yul\":7966:7984   */\n      dup1\n        /* \"#utility.yul\":7956:8037   */\n      tag_182\n      jumpi\n        /* \"#utility.yul\":8022:8026   */\n      0x7f\n        /* \"#utility.yul\":8014:8020   */\n      dup3\n        /* \"#utility.yul\":8010:8027   */\n      and\n        /* \"#utility.yul\":8000:8027   */\n      swap2\n      pop\n        /* \"#utility.yul\":7956:8037   */\n    tag_182:\n        /* \"#utility.yul\":8084:8086   */\n      0x20\n        /* \"#utility.yul\":8076:8082   */\n      dup3\n        /* \"#utility.yul\":8073:8087   */\n      lt\n        /* \"#utility.yul\":8053:8071   */\n      dup2\n        /* \"#utility.yul\":8050:8088   */\n      sub\n        /* \"#utility.yul\":8047:8131   */\n      tag_183\n      jumpi\n        /* \"#utility.yul\":8103:8121   */\n      tag_184\n      tag_81\n      jump\t// in\n    tag_184:\n        /* \"#utility.yul\":8047:8131   */\n    tag_183:\n        /* \"#utility.yul\":7868:8137   */\n      pop\n        /* \"#utility.yul\":7817:8137   */\n      swap2\n      swap1\n      pop\n      jump\t// out\n        /* \"#utility.yul\":8143:8290   */\n    tag_82:\n        /* \"#utility.yul\":8244:8255   */\n      0x00\n        /* \"#utility.yul\":8281:8284   */\n      dup2\n        /* \"#utility.yul\":8266:8284   */\n      swap1\n      pop\n        /* \"#utility.yul\":8143:8290   */\n      swap3\n      swap2\n      pop\n      pop\n      jump\t// out\n        /* \"#utility.yul\":8296:8440   */\n    tag_83:\n        /* \"#utility.yul\":8348:8352   */\n      0x00\n        /* \"#utility.yul\":8371:8374   */\n      dup2\n        /* \"#utility.yul\":8363:8374   */\n      swap1\n      pop\n        /* \"#utility.yul\":8394:8397   */\n      dup2\n        /* \"#utility.yul\":8391:8392   */\n      0x00\n        /* \"#utility.yul\":8384:8398   */\n      mstore\n        /* \"#utility.yul\":8428:8432   */\n      0x20\n        /* \"#utility.yul\":8425:8426   */\n      0x00\n        /* \"#utility.yul\":8415:8433   */\n      keccak256\n        /* \"#utility.yul\":8407:8433   */\n      swap1\n      pop\n        /* \"#utility.yul\":8296:8440   */\n      swap2\n      swap1\n      pop\n      jump\t// out\n        /* \"#utility.yul\":8468:9346   */\n    tag_84:\n        /* \"#utility.yul\":8573:8576   */\n      0x00\n        /* \"#utility.yul\":8610:8615   */\n      dup2\n        /* \"#utility.yul\":8604:8616   */\n      sload\n        /* \"#utility.yul\":8639:8675   */\n      tag_188\n        /* \"#utility.yul\":8665:8674   */\n      dup2\n        /* \"#utility.yul\":8639:8675   */\n      tag_26\n      jump\t// in\n    tag_188:\n        /* \"#utility.yul\":8691:8779   */\n      tag_189\n        /* \"#utility.yul\":8772:8778   */\n      dup2\n        /* \"#utility.yul\":8767:8770   */\n      dup7\n        /* \"#utility.yul\":8691:8779   */\n      tag_82\n      jump\t// in\n    tag_189:\n        /* \"#utility.yul\":8684:8779   */\n      swap5\n      pop\n        /* \"#utility.yul\":8810:8811   */\n      0x01\n        /* \"#utility.yul\":8799:8808   */\n      dup3\n        /* \"#utility.yul\":8795:8812   */\n      and\n        /* \"#utility.yul\":8826:8827   */\n      0x00\n        /* \"#utility.yul\":8821:8987   */\n      dup2\n      eq\n      tag_191\n      jumpi\n        /* \"#utility.yul\":9001:9002   */\n      0x01\n        /* \"#utility.yul\":8996:9340   */\n      dup2\n      eq\n      tag_192\n      jumpi\n        /* \"#utility.yul\":8788:9340   */\n      jump(tag_190)\n        /* \"#utility.yul\":8821:8987   */\n    tag_191:\n        /* \"#utility.yul\":8905:8909   */\n      0xff\n        /* \"#utility.yul\":8901:8910   */\n      not\n        /* \"#utility.yul\":8890:8899   */\n      dup4\n        /* \"#utility.yul\":8886:8911   */\n      and\n        /* \"#utility.yul\":8881:8884   */\n      dup7\n        /* \"#utility.yul\":8874:8912   */\n      mstore\n        /* \"#utility.yul\":8967:8973   */\n      dup2\n        /* \"#utility.yul\":8960:8974   */\n      iszero\n        /* \"#utility.yul\":8953:8975   */\n      iszero\n        /* \"#utility.yul\":8945:8951   */\n      dup3\n        /* \"#utility.yul\":8941:8976   */\n      mul\n        /* \"#utility.yul\":8936:8939   */\n      dup7\n        /* \"#utility.yul\":8932:8977   */\n      add\n        /* \"#utility.yul\":8925:8977   */\n      swap4\n      pop\n        /* \"#utility.yul\":8821:8987   */\n      jump(tag_190)\n        /* \"#utility.yul\":8996:9340   */\n    tag_192:\n        /* \"#utility.yul\":9063:9104   */\n      tag_193\n        /* \"#utility.yul\":9098:9103   */\n      dup6\n        /* \"#utility.yul\":9063:9104   */\n      tag_83\n      jump\t// in\n    tag_193:\n        /* \"#utility.yul\":9126:9127   */\n      0x00\n        /* \"#utility.yul\":9140:9294   */\n    tag_194:\n        /* \"#utility.yul\":9154:9160   */\n      dup4\n        /* \"#utility.yul\":9151:9152   */\n      dup2\n        /* \"#utility.yul\":9148:9161   */\n      lt\n        /* \"#utility.yul\":9140:9294   */\n      iszero\n      tag_196\n      jumpi\n        /* \"#utility.yul\":9228:9235   */\n      dup2\n        /* \"#utility.yul\":9222:9236   */\n      sload\n        /* \"#utility.yul\":9218:9219   */\n      dup2\n        /* \"#utility.yul\":9213:9216   */\n      dup10\n        /* \"#utility.yul\":9209:9220   */\n      add\n        /* \"#utility.yul\":9202:9237   */\n      mstore\n        /* \"#utility.yul\":9278:9279   */\n      0x01\n        /* \"#utility.yul\":9269:9276   */\n      dup3\n        /* \"#utility.yul\":9265:9280   */\n      add\n        /* \"#utility.yul\":9254:9280   */\n      swap2\n      pop\n        /* \"#utility.yul\":9176:9180   */\n      0x20\n        /* \"#utility.yul\":9173:9174   */\n      dup2\n        /* \"#utility.yul\":9169:9181   */\n      add\n        /* \"#utility.yul\":9164:9181   */\n      swap1\n      pop\n        /* \"#utility.yul\":9140:9294   */\n      jump(tag_194)\n    tag_196:\n        /* \"#utility.yul\":9323:9329   */\n      dup4\n        /* \"#utility.yul\":9318:9321   */\n      dup9\n        /* \"#utility.yul\":9314:9330   */\n      add\n        /* \"#utility.yul\":9307:9330   */\n      swap6\n      pop\n        /* \"#utility.yul\":9003:9340   */\n      pop\n      pop\n        /* \"#utility.yul\":8788:9340   */\n    tag_190:\n      pop\n        /* \"#utility.yul\":8577:9346   */\n      pop\n      pop\n        /* \"#utility.yul\":8468:9346   */\n      swap3\n      swap2\n      pop\n      pop\n      jump\t// out\n        /* \"#utility.yul\":9352:9625   */\n    tag_34:\n        /* \"#utility.yul\":9483:9486   */\n      0x00\n        /* \"#utility.yul\":9505:9599   */\n      tag_198\n        /* \"#utility.yul\":9595:9598   */\n      dup3\n        /* \"#utility.yul\":9586:9592   */\n      dup5\n        /* \"#utility.yul\":9505:9599   */\n      tag_84\n      jump\t// in\n    tag_198:\n        /* \"#utility.yul\":9498:9599   */\n      swap2\n      pop\n        /* \"#utility.yul\":9616:9619   */\n      dup2\n        /* \"#utility.yul\":9609:9619   */\n      swap1\n      pop\n        /* \"#utility.yul\":9352:9625   */\n      swap3\n      swap2\n      pop\n      pop\n      jump\t// out\n        /* \"#utility.yul\":9631:9772   */\n    tag_85:\n        /* \"#utility.yul\":9680:9684   */\n      0x00\n        /* \"#utility.yul\":9703:9706   */\n      dup2\n        /* \"#utility.yul\":9695:9706   */\n      swap1\n      pop\n        /* \"#utility.yul\":9726:9729   */\n      dup2\n        /* \"#utility.yul\":9723:9724   */\n      0x00\n        /* \"#utility.yul\":9716:9730   */\n      mstore\n        /* \"#utility.yul\":9760:9764   */\n      0x20\n        /* \"#utility.yul\":9757:9758   */\n      0x00\n        /* \"#utility.yul\":9747:9765   */\n      keccak256\n        /* \"#utility.yul\":9739:9765   */\n      swap1\n      pop\n        /* \"#utility.yul\":9631:9772   */\n      swap2\n      swap1\n      pop\n      jump\t// out\n        /* \"#utility.yul\":9778:9871   */\n    tag_86:\n        /* \"#utility.yul\":9815:9821   */\n      0x00\n        /* \"#utility.yul\":9862:9864   */\n      0x20\n        /* \"#utility.yul\":9857:9859   */\n      0x1f\n        /* \"#utility.yul\":9850:9855   */\n      dup4\n        /* \"#utility.yul\":9846:9860   */\n      add\n        /* \"#utility.yul\":9842:9865   */\n      div\n        /* \"#utility.yul\":9832:9865   */\n      swap1\n      pop\n        /* \"#utility.yul\":9778:9871   */\n      swap2\n      swap1\n      pop\n      jump\t// out\n        /* \"#utility.yul\":9877:9984   */\n    tag_87:\n        /* \"#utility.yul\":9921:9929   */\n      0x00\n        /* \"#utility.yul\":9971:9976   */\n      dup3\n        /* \"#utility.yul\":9965:9969   */\n      dup3\n        /* \"#utility.yul\":9961:9977   */\n      shl\n        /* \"#utility.yul\":9940:9977   */\n      swap1\n      pop\n        /* \"#utility.yul\":9877:9984   */\n      swap3\n      swap2\n      pop\n      pop\n      jump\t// out\n        /* \"#utility.yul\":9990:10383   */\n    tag_88:\n        /* \"#utility.yul\":10059:10065   */\n      0x00\n        /* \"#utility.yul\":10109:10110   */\n      0x08\n        /* \"#utility.yul\":10097:10107   */\n      dup4\n        /* \"#utility.yul\":10093:10111   */\n      mul\n        /* \"#utility.yul\":10132:10229   */\n      tag_203\n        /* \"#utility.yul\":10162:10228   */\n      0xffffffffffffffffffffffffffffffffffffffffffffffffffffffffffffffff\n        /* \"#utility.yul\":10151:10160   */\n      dup3\n        /* \"#utility.yul\":10132:10229   */\n      tag_87\n      jump\t// in\n    tag_203:\n        /* \"#utility.yul\":10250:10289   */\n      tag_204\n        /* \"#utility.yul\":10280:10288   */\n      dup7\n        /* \"#utility.yul\":10269:10278   */\n      dup4\n        /* \"#utility.yul\":10250:10289   */\n      tag_87\n      jump\t// in\n    tag_204:\n        /* \"#utility.yul\":10238:10289   */\n      swap6\n      pop\n        /* \"#utility.yul\":10322:10326   */\n      dup1\n        /* \"#utility.yul\":10318:10327   */\n      not\n        /* \"#utility.yul\":10311:10316   */\n      dup5\n        /* \"#utility.yul\":10307:10328   */\n      and\n        /* \"#utility.yul\":10298:10328   */\n      swap4\n      pop\n        /* \"#utility.yul\":10371:10375   */\n      dup1\n        /* \"#utility.yul\":10361:10369   */\n      dup7\n        /* \"#utility.yul\":10357:10376   */\n      and\n        /* \"#utility.yul\":10350:10355   */\n      dup5\n        /* \"#utility.yul\":10347:10377   */\n      or\n        /* \"#utility.yul\":10337:10377   */\n      swap3\n      pop\n        /* \"#utility.yul\":10066:10383   */\n      pop\n      pop\n        /* \"#utility.yul\":9990:10383   */\n      swap4\n      swap3\n      pop\n      pop\n      pop\n      jump\t// out\n        /* \"#utility.yul\":10389:10449   */\n    tag_89:\n        /* \"#utility.yul\":10417:10420   */\n      0x00\n        /* \"#utility.yul\":10438:10443   */\n      dup2\n        /* \"#utility.yul\":10431:10443   */\n      swap1\n      pop\n        /* \"#utility.yul\":10389:10449   */\n      swap2\n      swap1\n      pop\n      jump\t// out\n        /* \"#utility.yul\":10455:10597   */\n    tag_90:\n        /* \"#utility.yul\":10505:10514   */\n      0x00\n        /* \"#utility.yul\":10538:10591   */\n      tag_207\n        /* \"#utility.yul\":10556:10590   */\n      tag_208\n        /* \"#utility.yul\":10565:10589   */\n      tag_209\n        /* \"#utility.yul\":10583:10588   */\n      dup5\n        /* \"#utility.yul\":10565:10589   */\n      tag_72\n      jump\t// in\n    tag_209:\n        /* \"#utility.yul\":10556:10590   */\n      tag_89\n      jump\t// in\n    tag_208:\n        /* \"#utility.yul\":10538:10591   */\n      tag_72\n      jump\t// in\n    tag_207:\n        /* \"#utility.yul\":10525:10591   */\n      swap1\n      pop\n        /* \"#utility.yul\":10455:10597   */\n      swap2\n      swap1\n      pop\n      jump\t// out\n        /* \"#utility.yul\":10603:10678   */\n    tag_91:\n        /* \"#utility.yul\":10646:10649   */\n      0x00\n        /* \"#utility.yul\":10667:10672   */\n      dup2\n        /* \"#utility.yul\":10660:10672   */\n      swap1\n      pop\n        /* \"#utility.yul\":10603:10678   */\n      swap2\n      swap1\n      pop\n      jump\t// out\n        /* \"#utility.yul\":10684:10953   */\n    tag_92:\n        /* \"#utility.yul\":10794:10833   */\n      tag_212\n        /* \"#utility.yul\":10825:10832   */\n      dup4\n        /* \"#utility.yul\":10794:10833   */\n      tag_90\n      jump\t// in\n    tag_212:\n        /* \"#utility.yul\":10855:10946   */\n      tag_213\n        /* \"#utility.yul\":10904:10945   */\n      tag_214\n        /* \"#utility.yul\":10928:10944   */\n      dup3\n        /* \"#utility.yul\":10904:10945   */\n      tag_91\n      jump\t// in\n    tag_214:\n        /* \"#utility.yul\":10896:10902   */\n      dup5\n        /* \"#utility.yul\":10889:10893   */\n      dup5\n        /* \"#utility.yul\":10883:10894   */\n      sload\n        /* \"#utility.yul\":10855:10946   */\n      tag_88\n      jump\t// in\n    tag_213:\n        /* \"#utility.yul\":10849:10853   */\n      dup3\n        /* \"#utility.yul\":10842:10947   */\n      sstore\n        /* \"#utility.yul\":10760:10953   */\n      pop\n        /* \"#utility.yul\":10684:10953   */\n      pop\n      pop\n      pop\n      jump\t// out\n        /* \"#utility.yul\":10959:11032   */\n    tag_93:\n        /* \"#utility.yul\":11004:11007   */\n      0x00\n        /* \"#utility.yul\":10959:11032   */\n      swap1\n      jump\t// out\n        /* \"#utility.yul\":11038:11227   */\n    tag_94:\n        /* \"#utility.yul\":11115:11147   */\n      tag_217\n      tag_93\n      jump\t// in\n    tag_217:\n        /* \"#utility.yul\":11156:11221   */\n      tag_218\n        /* \"#utility.yul\":11214:11220   */\n      dup2\n        /* \"#utility.yul\":11206:11212   */\n      dup5\n        /* \"#utility.yul\":11200:11204   */\n      dup5\n        /* \"#utility.yul\":11156:11221   */\n      tag_92\n      jump\t// in\n    tag_218:\n        /* \"#utility.yul\":11091:11227   */\n      pop\n        /* \"#utility.yul\":11038:11227   */\n      pop\n      pop\n      jump\t// out\n        /* \"#utility.yul\":11233:11419   */\n    tag_95:\n        /* \"#utility.yul\":11293:11413   */\n    tag_220:\n        /* \"#utility.yul\":11310:11313   */\n      dup2\n        /* \"#utility.yul\":11303:11308   */\n      dup2\n        /* \"#utility.yul\":11300:11314   */\n      lt\n        /* \"#utility.yul\":11293:11413   */\n      iszero\n      tag_222\n      jumpi\n        /* \"#utility.yul\":11364:11403   */\n      tag_223\n        /* \"#utility.yul\":11401:11402   */\n      0x00\n        /* \"#utility.yul\":11394:11399   */\n      dup3\n        /* \"#utility.yul\":11364:11403   */\n      tag_94\n      jump\t// in\n    tag_223:\n        /* \"#utility.yul\":11337:11338   */\n      0x01\n        /* \"#utility.yul\":11330:11335   */\n      dup2\n        /* \"#utility.yul\":11326:11339   */\n      add\n        /* \"#utility.yul\":11317:11339   */\n      swap1\n      pop\n        /* \"#utility.yul\":11293:11413   */\n      jump(tag_220)\n    tag_222:\n        /* \"#utility.yul\":11233:11419   */\n      pop\n      pop\n      jump\t// out\n        /* \"#utility.yul\":11425:11968   */\n    tag_96:\n        /* \"#utility.yul\":11526:11528   */\n      0x1f\n        /* \"#utility.yul\":11521:11524   */\n      dup3\n        /* \"#utility.yul\":11518:11529   */\n      gt\n        /* \"#utility.yul\":11515:11961   */\n      iszero\n      tag_225\n      jumpi\n        /* \"#utility.yul\":11560:11598   */\n      tag_226\n        /* \"#utility.yul\":11592:11597   */\n      dup2\n        /* \"#utility.yul\":11560:11598   */\n      tag_85\n      jump\t// in\n    tag_226:\n        /* \"#utility.yul\":11644:11673   */\n      tag_227\n        /* \"#utility.yul\":11662:11672   */\n      dup5\n        /* \"#utility.yul\":11644:11673   */\n      tag_86\n      jump\t// in\n    tag_227:\n        /* \"#utility.yul\":11634:11642   */\n      dup2\n        /* \"#utility.yul\":11630:11674   */\n      add\n        /* \"#utility.yul\":11827:11829   */\n      0x20\n        /* \"#utility.yul\":11815:11825   */\n      dup6\n        /* \"#utility.yul\":11812:11830   */\n      lt\n        /* \"#utility.yul\":11809:11858   */\n      iszero\n      tag_228\n      jumpi\n        /* \"#utility.yul\":11848:11856   */\n      dup2\n        /* \"#utility.yul\":11833:11856   */\n      swap1\n      pop\n        /* \"#utility.yul\":11809:11858   */\n    tag_228:\n        /* \"#utility.yul\":11871:11951   */\n      tag_229\n        /* \"#utility.yul\":11927:11949   */\n      tag_230\n        /* \"#utility.yul\":11945:11948   */\n      dup6\n        /* \"#utility.yul\":11927:11949   */\n      tag_86\n      jump\t// in\n    tag_230:\n        /* \"#utility.yul\":11917:11925   */\n      dup4\n        /* \"#utility.yul\":11913:11950   */\n      add\n        /* \"#utility.yul\":11900:11911   */\n      dup3\n        /* \"#utility.yul\":11871:11951   */\n      tag_95\n      jump\t// in\n    tag_229:\n        /* \"#utility.yul\":11530:11961   */\n      pop\n      pop\n        /* \"#utility.yul\":11515:11961   */\n    tag_225:\n        /* \"#utility.yul\":11425:11968   */\n      pop\n      pop\n      pop\n      jump\t// out\n        /* \"#utility.yul\":11974:12091   */\n    tag_97:\n        /* \"#utility.yul\":12028:12036   */\n      0x00\n        /* \"#utility.yul\":12078:12083   */\n      dup3\n        /* \"#utility.yul\":12072:12076   */\n      dup3\n        /* \"#utility.yul\":12068:12084   */\n      shr\n        /* \"#utility.yul\":12047:12084   */\n      swap1\n      pop\n        /* \"#utility.yul\":11974:12091   */\n      swap3\n      swap2\n      pop\n      pop\n      jump\t// out\n        /* \"#utility.yul\":12097:12266   */\n    tag_98:\n        /* \"#utility.yul\":12141:12147   */\n      0x00\n        /* \"#utility.yul\":12174:12225   */\n      tag_233\n        /* \"#utility.yul\":12222:12223   */\n      0x00\n        /* \"#utility.yul\":12218:12224   */\n      not\n        /* \"#utility.yul\":12210:12215   */\n      dup5\n        /* \"#utility.yul\":12207:12208   */\n      0x08\n        /* \"#utility.yul\":12203:12216   */\n      mul\n        /* \"#utility.yul\":12174:12225   */\n      tag_97\n      jump\t// in\n    tag_233:\n        /* \"#utility.yul\":12170:12226   */\n      not\n        /* \"#utility.yul\":12255:12259   */\n      dup1\n        /* \"#utility.yul\":12249:12253   */\n      dup4\n        /* \"#utility.yul\":12245:12260   */\n      and\n        /* \"#utility.yul\":12235:12260   */\n      swap2\n      pop\n        /* \"#utility.yul\":12148:12266   */\n      pop\n        /* \"#utility.yul\":12097:12266   */\n      swap3\n      swap2\n      pop\n      pop\n      jump\t// out\n        /* \"#utility.yul\":12271:12566   */\n    tag_99:\n        /* \"#utility.yul\":12347:12351   */\n      0x00\n        /* \"#utility.yul\":12493:12522   */\n      tag_235\n        /* \"#utility.yul\":12518:12521   */\n      dup4\n        /* \"#utility.yul\":12512:12516   */\n      dup4\n        /* \"#utility.yul\":12493:12522   */\n      tag_98\n      jump\t// in\n    tag_235:\n        /* \"#utility.yul\":12485:12522   */\n      swap2\n      pop\n        /* \"#utility.yul\":12555:12558   */\n      dup3\n        /* \"#utility.yul\":12552:12553   */\n      0x02\n        /* \"#utility.yul\":12548:12559   */\n      mul\n        /* \"#utility.yul\":12542:12546   */\n      dup3\n        /* \"#utility.yul\":12539:12560   */\n      or\n        /* \"#utility.yul\":12531:12560   */\n      swap1\n      pop\n        /* \"#utility.yul\":12271:12566   */\n      swap3\n      swap2\n      pop\n      pop\n      jump\t// out\n        /* \"#utility.yul\":12571:13966   */\n    tag_47:\n        /* \"#utility.yul\":12688:12725   */\n      tag_237\n        /* \"#utility.yul\":12721:12724   */\n      dup3\n        /* \"#utility.yul\":12688:12725   */\n      tag_68\n      jump\t// in\n    tag_237:\n        /* \"#utility.yul\":12790:12808   */\n      0xffffffffffffffff\n        /* \"#utility.yul\":12782:12788   */\n      dup2\n        /* \"#utility.yul\":12779:12809   */\n      gt\n        /* \"#utility.yul\":12776:12832   */\n      iszero\n      tag_238\n      jumpi\n        /* \"#utility.yul\":12812:12830   */\n      tag_239\n      tag_61\n      jump\t// in\n    tag_239:\n        /* \"#utility.yul\":12776:12832   */\n    tag_238:\n        /* \"#utility.yul\":12856:12894   */\n      tag_240\n        /* \"#utility.yul\":12888:12892   */\n      dup3\n        /* \"#utility.yul\":12882:12893   */\n      sload\n        /* \"#utility.yul\":12856:12894   */\n      tag_26\n      jump\t// in\n    tag_240:\n        /* \"#utility.yul\":12941:13008   */\n      tag_241\n        /* \"#utility.yul\":13001:13007   */\n      dup3\n        /* \"#utility.yul\":12993:12999   */\n      dup3\n        /* \"#utility.yul\":12987:12991   */\n      dup6\n        /* \"#utility.yul\":12941:13008   */\n      tag_96\n      jump\t// in\n    tag_241:\n        /* \"#utility.yul\":13035:13036   */\n      0x00\n        /* \"#utility.yul\":13059:13063   */\n      0x20\n        /* \"#utility.yul\":13046:13063   */\n      swap1\n      pop\n        /* \"#utility.yul\":13091:13093   */\n      0x1f\n        /* \"#utility.yul\":13083:13089   */\n      dup4\n        /* \"#utility.yul\":13080:13094   */\n      gt\n        /* \"#utility.yul\":13108:13109   */\n      0x01\n        /* \"#utility.yul\":13103:13721   */\n      dup2\n      eq\n      tag_243\n      jumpi\n        /* \"#utility.yul\":13765:13766   */\n      0x00\n        /* \"#utility.yul\":13782:13788   */\n      dup5\n        /* \"#utility.yul\":13779:13856   */\n      iszero\n      tag_244\n      jumpi\n        /* \"#utility.yul\":13831:13840   */\n      dup3\n        /* \"#utility.yul\":13826:13829   */\n      dup8\n        /* \"#utility.yul\":13822:13841   */\n      add\n        /* \"#utility.yul\":13816:13842   */\n      mload\n        /* \"#utility.yul\":13807:13842   */\n      swap1\n      pop\n        /* \"#utility.yul\":13779:13856   */\n    tag_244:\n        /* \"#utility.yul\":13882:13949   */\n      tag_245\n        /* \"#utility.yul\":13942:13948   */\n      dup6\n        /* \"#utility.yul\":13935:13940   */\n      dup3\n        /* \"#utility.yul\":13882:13949   */\n      tag_99\n      jump\t// in\n    tag_245:\n        /* \"#utility.yul\":13876:13880   */\n      dup7\n        /* \"#utility.yul\":13869:13950   */\n      sstore\n        /* \"#utility.yul\":13738:13960   */\n      pop\n        /* \"#utility.yul\":13073:13960   */\n      jump(tag_242)\n        /* \"#utility.yul\":13103:13721   */\n    tag_243:\n        /* \"#utility.yul\":13155:13159   */\n      0x1f\n        /* \"#utility.yul\":13151:13160   */\n      not\n        /* \"#utility.yul\":13143:13149   */\n      dup5\n        /* \"#utility.yul\":13139:13161   */\n      and\n        /* \"#utility.yul\":13189:13226   */\n      tag_246\n        /* \"#utility.yul\":13221:13225   */\n      dup7\n        /* \"#utility.yul\":13189:13226   */\n      tag_85\n      jump\t// in\n    tag_246:\n        /* \"#utility.yul\":13248:13249   */\n      0x00\n        /* \"#utility.yul\":13262:13470   */\n    tag_247:\n        /* \"#utility.yul\":13276:13283   */\n      dup3\n        /* \"#utility.yul\":13273:13274   */\n      dup2\n        /* \"#utility.yul\":13270:13284   */\n      lt\n        /* \"#utility.yul\":13262:13470   */\n      iszero\n      tag_249\n      jumpi\n        /* \"#utility.yul\":13355:13364   */\n      dup5\n        /* \"#utility.yul\":13350:13353   */\n      dup10\n        /* \"#utility.yul\":13346:13365   */\n      add\n        /* \"#utility.yul\":13340:13366   */\n      mload\n        /* \"#utility.yul\":13332:13338   */\n      dup3\n        /* \"#utility.yul\":13325:13367   */\n      sstore\n        /* \"#utility.yul\":13406:13407   */\n      0x01\n        /* \"#utility.yul\":13398:13404   */\n      dup3\n        /* \"#utility.yul\":13394:13408   */\n      add\n        /* \"#utility.yul\":13384:13408   */\n      swap2\n      pop\n        /* \"#utility.yul\":13453:13455   */\n      0x20\n        /* \"#utility.yul\":13442:13451   */\n      dup6\n        /* \"#utility.yul\":13438:13456   */\n      add\n        /* \"#utility.yul\":13425:13456   */\n      swap5\n      pop\n        /* \"#utility.yul\":13299:13303   */\n      0x20\n        /* \"#utility.yul\":13296:13297   */\n      dup2\n        /* \"#utility.yul\":13292:13304   */\n      add\n        /* \"#utility.yul\":13287:13304   */\n      swap1\n      pop\n        /* \"#utility.yul\":13262:13470   */\n      jump(tag_247)\n    tag_249:\n        /* \"#utility.yul\":13498:13504   */\n      dup7\n        /* \"#utility.yul\":13489:13496   */\n      dup4\n        /* \"#utility.yul\":13486:13505   */\n      lt\n        /* \"#utility.yul\":13483:13662   */\n      iszero\n      tag_250\n      jumpi\n        /* \"#utility.yul\":13556:13565   */\n      dup5\n        /* \"#utility.yul\":13551:13554   */\n      dup10\n        /* \"#utility.yul\":13547:13566   */\n      add\n        /* \"#utility.yul\":13541:13567   */\n      mload\n        /* \"#utility.yul\":13599:13647   */\n      tag_251\n        /* \"#utility.yul\":13641:13645   */\n      0x1f\n        /* \"#utility.yul\":13633:13639   */\n      dup10\n        /* \"#utility.yul\":13629:13646   */\n      and\n        /* \"#utility.yul\":13618:13627   */\n      dup3\n        /* \"#utility.yul\":13599:13647   */\n      tag_98\n      jump\t// in\n    tag_251:\n        /* \"#utility.yul\":13591:13597   */\n      dup4\n        /* \"#utility.yul\":13584:13648   */\n      sstore\n        /* \"#utility.yul\":13506:13662   */\n      pop\n        /* \"#utility.yul\":13483:13662   */\n    tag_250:\n        /* \"#utility.yul\":13708:13709   */\n      0x01\n        /* \"#utility.yul\":13704:13705   */\n      0x02\n        /* \"#utility.yul\":13696:13702   */\n      dup9\n        /* \"#utility.yul\":13692:13706   */\n      mul\n        /* \"#utility.yul\":13688:13710   */\n      add\n        /* \"#utility.yul\":13682:13686   */\n      dup9\n        /* \"#utility.yul\":13675:13711   */\n      sstore\n        /* \"#utility.yul\":13110:13721   */\n      pop\n      pop\n      pop\n        /* \"#utility.yul\":13073:13960   */\n    tag_242:\n      pop\n        /* \"#utility.yul\":12663:13966   */\n      pop\n      pop\n      pop\n        /* \"#utility.yul\":12571:13966   */\n      pop\n      pop\n      jump\t// out\n\n    auxdata: 0xa26469706673582212204c01c5448b693a6a45fe9a382031f7de04cd756df427db2020f60693721abb1f64736f6c63430008120033\n}\n",
				"bytecode": {
					"linkReferences": {},
					"object": "608060405234801561001057600080fd5b50610ba7806100206000396000f3fe6080604052600436106100345760003560e01c806380bd0fe21461003957806399e4b8e114610076578063b02365171461009f575b600080fd5b34801561004557600080fd5b50610060600480360381019061005b919061056a565b6100bb565b60405161006d91906106c9565b60405180910390f35b34801561008257600080fd5b5061009d6004803603810190610098919061056a565b6101b4565b005b6100b960048036038101906100b49190610717565b6102a9565b005b6100c3610389565b6000826040516100d391906107c2565b90815260200160405180910390206040518060800160405290816000820180546100fc90610808565b80601f016020809104026020016040519081016040528092919081815260200182805461012890610808565b80156101755780601f1061014a57610100808354040283529160200191610175565b820191906000526020600020905b81548152906001019060200180831161015857829003601f168201915b5050505050815260200160018201548152602001600282015481526020016003820160009054906101000a900460ff1615151515815250509050919050565b80805190602001206000826040516101cc91906107c2565b90815260200160405180910390206000016040516101ea91906108dc565b6040518091039020146101fc57600080fd5b60006709b6e64a8ec6000090503373ffffffffffffffffffffffffffffffffffffffff166108fc829081150290604051600060405180830381858888f1935050505015801561024f573d6000803e3d6000fd5b5060008260405161026091906107c2565b90815260200160405180910390206000808201600061027f91906103b3565b600182016000905560028201600090556003820160006101000a81549060ff021916905550505050565b670de0b6b3a7640000341480156102ec57506000836040516102cb91906107c2565b908152602001604051809103902060030160009054906101000a900460ff16155b6102f557600080fd5b60405180608001604052808481526020018381526020018281526020016001151581525060008460405161032991906107c2565b9081526020016040518091039020600082015181600001908161034c9190610a9f565b50602082015181600101556040820151816002015560608201518160030160006101000a81548160ff021916908315150217905550905050505050565b60405180608001604052806060815260200160008152602001600081526020016000151581525090565b5080546103bf90610808565b6000825580601f106103d157506103f0565b601f0160209004906000526020600020908101906103ef91906103f3565b5b50565b5b8082111561040c5760008160009055506001016103f4565b5090565b6000604051905090565b600080fd5b600080fd5b600080fd5b600080fd5b6000601f19601f8301169050919050565b7f4e487b7100000000000000000000000000000000000000000000000000000000600052604160045260246000fd5b6104778261042e565b810181811067ffffffffffffffff821117156104965761049561043f565b5b80604052505050565b60006104a9610410565b90506104b5828261046e565b919050565b600067ffffffffffffffff8211156104d5576104d461043f565b5b6104de8261042e565b9050602081019050919050565b82818337600083830152505050565b600061050d610508846104ba565b61049f565b90508281526020810184848401111561052957610528610429565b5b6105348482856104eb565b509392505050565b600082601f83011261055157610550610424565b5b81356105618482602086016104fa565b91505092915050565b6000602082840312156105805761057f61041a565b5b600082013567ffffffffffffffff81111561059e5761059d61041f565b5b6105aa8482850161053c565b91505092915050565b600081519050919050565b600082825260208201905092915050565b60005b838110156105ed5780820151818401526020810190506105d2565b60008484015250505050565b6000610604826105b3565b61060e81856105be565b935061061e8185602086016105cf565b6106278161042e565b840191505092915050565b6000819050919050565b61064581610632565b82525050565b60008115159050919050565b6106608161064b565b82525050565b6000608083016000830151848203600086015261068382826105f9565b9150506020830151610698602086018261063c565b5060408301516106ab604086018261063c565b5060608301516106be6060860182610657565b508091505092915050565b600060208201905081810360008301526106e38184610666565b905092915050565b6106f481610632565b81146106ff57600080fd5b50565b600081359050610711816106eb565b92915050565b6000806000606084860312156107305761072f61041a565b5b600084013567ffffffffffffffff81111561074e5761074d61041f565b5b61075a8682870161053c565b935050602061076b86828701610702565b925050604061077c86828701610702565b9150509250925092565b600081905092915050565b600061079c826105b3565b6107a68185610786565b93506107b68185602086016105cf565b80840191505092915050565b60006107ce8284610791565b915081905092915050565b7f4e487b7100000000000000000000000000000000000000000000000000000000600052602260045260246000fd5b6000600282049050600182168061082057607f821691505b602082108103610833576108326107d9565b5b50919050565b600081905092915050565b60008190508160005260206000209050919050565b6000815461086681610808565b6108708186610839565b9450600182166000811461088b57600181146108a0576108d3565b60ff19831686528115158202860193506108d3565b6108a985610844565b60005b838110156108cb578154818901526001820191506020810190506108ac565b838801955050505b50505092915050565b60006108e88284610859565b915081905092915050565b60008190508160005260206000209050919050565b60006020601f8301049050919050565b600082821b905092915050565b6000600883026109557fffffffffffffffffffffffffffffffffffffffffffffffffffffffffffffffff82610918565b61095f8683610918565b95508019841693508086168417925050509392505050565b6000819050919050565b600061099c61099761099284610632565b610977565b610632565b9050919050565b6000819050919050565b6109b683610981565b6109ca6109c2826109a3565b848454610925565b825550505050565b600090565b6109df6109d2565b6109ea8184846109ad565b505050565b5b81811015610a0e57610a036000826109d7565b6001810190506109f0565b5050565b601f821115610a5357610a24816108f3565b610a2d84610908565b81016020851015610a3c578190505b610a50610a4885610908565b8301826109ef565b50505b505050565b600082821c905092915050565b6000610a7660001984600802610a58565b1980831691505092915050565b6000610a8f8383610a65565b9150826002028217905092915050565b610aa8826105b3565b67ffffffffffffffff811115610ac157610ac061043f565b5b610acb8254610808565b610ad6828285610a12565b600060209050601f831160018114610b095760008415610af7578287015190505b610b018582610a83565b865550610b69565b601f198416610b17866108f3565b60005b82811015610b3f57848901518255600182019150602085019450602081019050610b1a565b86831015610b5c5784890151610b58601f891682610a65565b8355505b6001600288020188555050505b50505050505056fea26469706673582212204c01c5448b693a6a45fe9a382031f7de04cd756df427db2020f60693721abb1f64736f6c63430008120033",
					"opcodes": "PUSH1 0x80 PUSH1 0x40 MSTORE CALLVALUE DUP1 ISZERO PUSH2 0x10 JUMPI PUSH1 0x0 DUP1 REVERT JUMPDEST POP PUSH2 0xBA7 DUP1 PUSH2 0x20 PUSH1 0x0 CODECOPY PUSH1 0x0 RETURN INVALID PUSH1 0x80 PUSH1 0x40 MSTORE PUSH1 0x4 CALLDATASIZE LT PUSH2 0x34 JUMPI PUSH1 0x0 CALLDATALOAD PUSH1 0xE0 SHR DUP1 PUSH4 0x80BD0FE2 EQ PUSH2 0x39 JUMPI DUP1 PUSH4 0x99E4B8E1 EQ PUSH2 0x76 JUMPI DUP1 PUSH4 0xB0236517 EQ PUSH2 0x9F JUMPI JUMPDEST PUSH1 0x0 DUP1 REVERT JUMPDEST CALLVALUE DUP1 ISZERO PUSH2 0x45 JUMPI PUSH1 0x0 DUP1 REVERT JUMPDEST POP PUSH2 0x60 PUSH1 0x4 DUP1 CALLDATASIZE SUB DUP2 ADD SWAP1 PUSH2 0x5B SWAP2 SWAP1 PUSH2 0x56A JUMP JUMPDEST PUSH2 0xBB JUMP JUMPDEST PUSH1 0x40 MLOAD PUSH2 0x6D SWAP2 SWAP1 PUSH2 0x6C9 JUMP JUMPDEST PUSH1 0x40 MLOAD DUP1 SWAP2 SUB SWAP1 RETURN JUMPDEST CALLVALUE DUP1 ISZERO PUSH2 0x82 JUMPI PUSH1 0x0 DUP1 REVERT JUMPDEST POP PUSH2 0x9D PUSH1 0x4 DUP1 CALLDATASIZE SUB DUP2 ADD SWAP1 PUSH2 0x98 SWAP2 SWAP1 PUSH2 0x56A JUMP JUMPDEST PUSH2 0x1B4 JUMP JUMPDEST STOP JUMPDEST PUSH2 0xB9 PUSH1 0x4 DUP1 CALLDATASIZE SUB DUP2 ADD SWAP1 PUSH2 0xB4 SWAP2 SWAP1 PUSH2 0x717 JUMP JUMPDEST PUSH2 0x2A9 JUMP JUMPDEST STOP JUMPDEST PUSH2 0xC3 PUSH2 0x389 JUMP JUMPDEST PUSH1 0x0 DUP3 PUSH1 0x40 MLOAD PUSH2 0xD3 SWAP2 SWAP1 PUSH2 0x7C2 JUMP JUMPDEST SWAP1 DUP2 MSTORE PUSH1 0x20 ADD PUSH1 0x40 MLOAD DUP1 SWAP2 SUB SWAP1 KECCAK256 PUSH1 0x40 MLOAD DUP1 PUSH1 0x80 ADD PUSH1 0x40 MSTORE SWAP1 DUP2 PUSH1 0x0 DUP3 ADD DUP1 SLOAD PUSH2 0xFC SWAP1 PUSH2 0x808 JUMP JUMPDEST DUP1 PUSH1 0x1F ADD PUSH1 0x20 DUP1 SWAP2 DIV MUL PUSH1 0x20 ADD PUSH1 0x40 MLOAD SWAP1 DUP2 ADD PUSH1 0x40 MSTORE DUP1 SWAP3 SWAP2 SWAP1 DUP2 DUP2 MSTORE PUSH1 0x20 ADD DUP3 DUP1 SLOAD PUSH2 0x128 SWAP1 PUSH2 0x808 JUMP JUMPDEST DUP1 ISZERO PUSH2 0x175 JUMPI DUP1 PUSH1 0x1F LT PUSH2 0x14A JUMPI PUSH2 0x100 DUP1 DUP4 SLOAD DIV MUL DUP4 MSTORE SWAP2 PUSH1 0x20 ADD SWAP2 PUSH2 0x175 JUMP JUMPDEST DUP3 ADD SWAP2 SWAP1 PUSH1 0x0 MSTORE PUSH1 0x20 PUSH1 0x0 KECCAK256 SWAP1 JUMPDEST DUP2 SLOAD DUP2 MSTORE SWAP1 PUSH1 0x1 ADD SWAP1 PUSH1 0x20 ADD DUP1 DUP4 GT PUSH2 0x158 JUMPI DUP3 SWAP1 SUB PUSH1 0x1F AND DUP3 ADD SWAP2 JUMPDEST POP POP POP POP POP DUP2 MSTORE PUSH1 0x20 ADD PUSH1 0x1 DUP3 ADD SLOAD DUP2 MSTORE PUSH1 0x20 ADD PUSH1 0x2 DUP3 ADD SLOAD DUP2 MSTORE PUSH1 0x20 ADD PUSH1 0x3 DUP3 ADD PUSH1 0x0 SWAP1 SLOAD SWAP1 PUSH2 0x100 EXP SWAP1 DIV PUSH1 0xFF AND ISZERO ISZERO ISZERO ISZERO DUP2 MSTORE POP POP SWAP1 POP SWAP2 SWAP1 POP JUMP JUMPDEST DUP1 DUP1 MLOAD SWAP1 PUSH1 0x20 ADD KECCAK256 PUSH1 0x0 DUP3 PUSH1 0x40 MLOAD PUSH2 0x1CC SWAP2 SWAP1 PUSH2 0x7C2 JUMP JUMPDEST SWAP1 DUP2 MSTORE PUSH1 0x20 ADD PUSH1 0x40 MLOAD DUP1 SWAP2 SUB SWAP1 KECCAK256 PUSH1 0x0 ADD PUSH1 0x40 MLOAD PUSH2 0x1EA SWAP2 SWAP1 PUSH2 0x8DC JUMP JUMPDEST PUSH1 0x40 MLOAD DUP1 SWAP2 SUB SWAP1 KECCAK256 EQ PUSH2 0x1FC JUMPI PUSH1 0x0 DUP1 REVERT JUMPDEST PUSH1 0x0 PUSH8 0x9B6E64A8EC60000 SWAP1 POP CALLER PUSH20 0xFFFFFFFFFFFFFFFFFFFFFFFFFFFFFFFFFFFFFFFF AND PUSH2 0x8FC DUP3 SWAP1 DUP2 ISZERO MUL SWAP1 PUSH1 0x40 MLOAD PUSH1 0x0 PUSH1 0x40 MLOAD DUP1 DUP4 SUB DUP2 DUP6 DUP9 DUP9 CALL SWAP4 POP POP POP POP ISZERO DUP1 ISZERO PUSH2 0x24F JUMPI RETURNDATASIZE PUSH1 0x0 DUP1 RETURNDATACOPY RETURNDATASIZE PUSH1 0x0 REVERT JUMPDEST POP PUSH1 0x0 DUP3 PUSH1 0x40 MLOAD PUSH2 0x260 SWAP2 SWAP1 PUSH2 0x7C2 JUMP JUMPDEST SWAP1 DUP2 MSTORE PUSH1 0x20 ADD PUSH1 0x40 MLOAD DUP1 SWAP2 SUB SWAP1 KECCAK256 PUSH1 0x0 DUP1 DUP3 ADD PUSH1 0x0 PUSH2 0x27F SWAP2 SWAP1 PUSH2 0x3B3 JUMP JUMPDEST PUSH1 0x1 DUP3 ADD PUSH1 0x0 SWAP1 SSTORE PUSH1 0x2 DUP3 ADD PUSH1 0x0 SWAP1 SSTORE PUSH1 0x3 DUP3 ADD PUSH1 0x0 PUSH2 0x100 EXP DUP2 SLOAD SWAP1 PUSH1 0xFF MUL NOT AND SWAP1 SSTORE POP POP POP POP JUMP JUMPDEST PUSH8 0xDE0B6B3A7640000 CALLVALUE EQ DUP1 ISZERO PUSH2 0x2EC JUMPI POP PUSH1 0x0 DUP4 PUSH1 0x40 MLOAD PUSH2 0x2CB SWAP2 SWAP1 PUSH2 0x7C2 JUMP JUMPDEST SWAP1 DUP2 MSTORE PUSH1 0x20 ADD PUSH1 0x40 MLOAD DUP1 SWAP2 SUB SWAP1 KECCAK256 PUSH1 0x3 ADD PUSH1 0x0 SWAP1 SLOAD SWAP1 PUSH2 0x100 EXP SWAP1 DIV PUSH1 0xFF AND ISZERO JUMPDEST PUSH2 0x2F5 JUMPI PUSH1 0x0 DUP1 REVERT JUMPDEST PUSH1 0x40 MLOAD DUP1 PUSH1 0x80 ADD PUSH1 0x40 MSTORE DUP1 DUP5 DUP2 MSTORE PUSH1 0x20 ADD DUP4 DUP2 MSTORE PUSH1 0x20 ADD DUP3 DUP2 MSTORE PUSH1 0x20 ADD PUSH1 0x1 ISZERO ISZERO DUP2 MSTORE POP PUSH1 0x0 DUP5 PUSH1 0x40 MLOAD PUSH2 0x329 SWAP2 SWAP1 PUSH2 0x7C2 JUMP JUMPDEST SWAP1 DUP2 MSTORE PUSH1 0x20 ADD PUSH1 0x40 MLOAD DUP1 SWAP2 SUB SWAP1 KECCAK256 PUSH1 0x0 DUP3 ADD MLOAD DUP2 PUSH1 0x0 ADD SWAP1 DUP2 PUSH2 0x34C SWAP2 SWAP1 PUSH2 0xA9F JUMP JUMPDEST POP PUSH1 0x20 DUP3 ADD MLOAD DUP2 PUSH1 0x1 ADD SSTORE PUSH1 0x40 DUP3 ADD MLOAD DUP2 PUSH1 0x2 ADD SSTORE PUSH1 0x60 DUP3 ADD MLOAD DUP2 PUSH1 0x3 ADD PUSH1 0x0 PUSH2 0x100 EXP DUP2 SLOAD DUP2 PUSH1 0xFF MUL NOT AND SWAP1 DUP4 ISZERO ISZERO MUL OR SWAP1 SSTORE POP SWAP1 POP POP POP POP POP JUMP JUMPDEST PUSH1 0x40 MLOAD DUP1 PUSH1 0x80 ADD PUSH1 0x40 MSTORE DUP1 PUSH1 0x60 DUP2 MSTORE PUSH1 0x20 ADD PUSH1 0x0 DUP2 MSTORE PUSH1 0x20 ADD PUSH1 0x0 DUP2 MSTORE PUSH1 0x20 ADD PUSH1 0x0 ISZERO ISZERO DUP2 MSTORE POP SWAP1 JUMP JUMPDEST POP DUP1 SLOAD PUSH2 0x3BF SWAP1 PUSH2 0x808 JUMP JUMPDEST PUSH1 0x0 DUP3 SSTORE DUP1 PUSH1 0x1F LT PUSH2 0x3D1 JUMPI POP PUSH2 0x3F0 JUMP JUMPDEST PUSH1 0x1F ADD PUSH1 0x20 SWAP1 DIV SWAP1 PUSH1 0x0 MSTORE PUSH1 0x20 PUSH1 0x0 KECCAK256 SWAP1 DUP2 ADD SWAP1 PUSH2 0x3EF SWAP2 SWAP1 PUSH2 0x3F3 JUMP JUMPDEST JUMPDEST POP JUMP JUMPDEST JUMPDEST DUP1 DUP3 GT ISZERO PUSH2 0x40C JUMPI PUSH1 0x0 DUP2 PUSH1 0x0 SWAP1 SSTORE POP PUSH1 0x1 ADD PUSH2 0x3F4 JUMP JUMPDEST POP SWAP1 JUMP JUMPDEST PUSH1 0x0 PUSH1 0x40 MLOAD SWAP1 POP SWAP1 JUMP JUMPDEST PUSH1 0x0 DUP1 REVERT JUMPDEST PUSH1 0x0 DUP1 REVERT JUMPDEST PUSH1 0x0 DUP1 REVERT JUMPDEST PUSH1 0x0 DUP1 REVERT JUMPDEST PUSH1 0x0 PUSH1 0x1F NOT PUSH1 0x1F DUP4 ADD AND SWAP1 POP SWAP2 SWAP1 POP JUMP JUMPDEST PUSH32 0x4E487B7100000000000000000000000000000000000000000000000000000000 PUSH1 0x0 MSTORE PUSH1 0x41 PUSH1 0x4 MSTORE PUSH1 0x24 PUSH1 0x0 REVERT JUMPDEST PUSH2 0x477 DUP3 PUSH2 0x42E JUMP JUMPDEST DUP2 ADD DUP2 DUP2 LT PUSH8 0xFFFFFFFFFFFFFFFF DUP3 GT OR ISZERO PUSH2 0x496 JUMPI PUSH2 0x495 PUSH2 0x43F JUMP JUMPDEST JUMPDEST DUP1 PUSH1 0x40 MSTORE POP POP POP JUMP JUMPDEST PUSH1 0x0 PUSH2 0x4A9 PUSH2 0x410 JUMP JUMPDEST SWAP1 POP PUSH2 0x4B5 DUP3 DUP3 PUSH2 0x46E JUMP JUMPDEST SWAP2 SWAP1 POP JUMP JUMPDEST PUSH1 0x0 PUSH8 0xFFFFFFFFFFFFFFFF DUP3 GT ISZERO PUSH2 0x4D5 JUMPI PUSH2 0x4D4 PUSH2 0x43F JUMP JUMPDEST JUMPDEST PUSH2 0x4DE DUP3 PUSH2 0x42E JUMP JUMPDEST SWAP1 POP PUSH1 0x20 DUP2 ADD SWAP1 POP SWAP2 SWAP1 POP JUMP JUMPDEST DUP3 DUP2 DUP4 CALLDATACOPY PUSH1 0x0 DUP4 DUP4 ADD MSTORE POP POP POP JUMP JUMPDEST PUSH1 0x0 PUSH2 0x50D PUSH2 0x508 DUP5 PUSH2 0x4BA JUMP JUMPDEST PUSH2 0x49F JUMP JUMPDEST SWAP1 POP DUP3 DUP2 MSTORE PUSH1 0x20 DUP2 ADD DUP5 DUP5 DUP5 ADD GT ISZERO PUSH2 0x529 JUMPI PUSH2 0x528 PUSH2 0x429 JUMP JUMPDEST JUMPDEST PUSH2 0x534 DUP5 DUP3 DUP6 PUSH2 0x4EB JUMP JUMPDEST POP SWAP4 SWAP3 POP POP POP JUMP JUMPDEST PUSH1 0x0 DUP3 PUSH1 0x1F DUP4 ADD SLT PUSH2 0x551 JUMPI PUSH2 0x550 PUSH2 0x424 JUMP JUMPDEST JUMPDEST DUP2 CALLDATALOAD PUSH2 0x561 DUP5 DUP3 PUSH1 0x20 DUP7 ADD PUSH2 0x4FA JUMP JUMPDEST SWAP2 POP POP SWAP3 SWAP2 POP POP JUMP JUMPDEST PUSH1 0x0 PUSH1 0x20 DUP3 DUP5 SUB SLT ISZERO PUSH2 0x580 JUMPI PUSH2 0x57F PUSH2 0x41A JUMP JUMPDEST JUMPDEST PUSH1 0x0 DUP3 ADD CALLDATALOAD PUSH8 0xFFFFFFFFFFFFFFFF DUP2 GT ISZERO PUSH2 0x59E JUMPI PUSH2 0x59D PUSH2 0x41F JUMP JUMPDEST JUMPDEST PUSH2 0x5AA DUP5 DUP3 DUP6 ADD PUSH2 0x53C JUMP JUMPDEST SWAP2 POP POP SWAP3 SWAP2 POP POP JUMP JUMPDEST PUSH1 0x0 DUP2 MLOAD SWAP1 POP SWAP2 SWAP1 POP JUMP JUMPDEST PUSH1 0x0 DUP3 DUP3 MSTORE PUSH1 0x20 DUP3 ADD SWAP1 POP SWAP3 SWAP2 POP POP JUMP JUMPDEST PUSH1 0x0 JUMPDEST DUP4 DUP2 LT ISZERO PUSH2 0x5ED JUMPI DUP1 DUP3 ADD MLOAD DUP2 DUP5 ADD MSTORE PUSH1 0x20 DUP2 ADD SWAP1 POP PUSH2 0x5D2 JUMP JUMPDEST PUSH1 0x0 DUP5 DUP5 ADD MSTORE POP POP POP POP JUMP JUMPDEST PUSH1 0x0 PUSH2 0x604 DUP3 PUSH2 0x5B3 JUMP JUMPDEST PUSH2 0x60E DUP2 DUP6 PUSH2 0x5BE JUMP JUMPDEST SWAP4 POP PUSH2 0x61E DUP2 DUP6 PUSH1 0x20 DUP7 ADD PUSH2 0x5CF JUMP JUMPDEST PUSH2 0x627 DUP2 PUSH2 0x42E JUMP JUMPDEST DUP5 ADD SWAP2 POP POP SWAP3 SWAP2 POP POP JUMP JUMPDEST PUSH1 0x0 DUP2 SWAP1 POP SWAP2 SWAP1 POP JUMP JUMPDEST PUSH2 0x645 DUP2 PUSH2 0x632 JUMP JUMPDEST DUP3 MSTORE POP POP JUMP JUMPDEST PUSH1 0x0 DUP2 ISZERO ISZERO SWAP1 POP SWAP2 SWAP1 POP JUMP JUMPDEST PUSH2 0x660 DUP2 PUSH2 0x64B JUMP JUMPDEST DUP3 MSTORE POP POP JUMP JUMPDEST PUSH1 0x0 PUSH1 0x80 DUP4 ADD PUSH1 0x0 DUP4 ADD MLOAD DUP5 DUP3 SUB PUSH1 0x0 DUP7 ADD MSTORE PUSH2 0x683 DUP3 DUP3 PUSH2 0x5F9 JUMP JUMPDEST SWAP2 POP POP PUSH1 0x20 DUP4 ADD MLOAD PUSH2 0x698 PUSH1 0x20 DUP7 ADD DUP3 PUSH2 0x63C JUMP JUMPDEST POP PUSH1 0x40 DUP4 ADD MLOAD PUSH2 0x6AB PUSH1 0x40 DUP7 ADD DUP3 PUSH2 0x63C JUMP JUMPDEST POP PUSH1 0x60 DUP4 ADD MLOAD PUSH2 0x6BE PUSH1 0x60 DUP7 ADD DUP3 PUSH2 0x657 JUMP JUMPDEST POP DUP1 SWAP2 POP POP SWAP3 SWAP2 POP POP JUMP JUMPDEST PUSH1 0x0 PUSH1 0x20 DUP3 ADD SWAP1 POP DUP2 DUP2 SUB PUSH1 0x0 DUP4 ADD MSTORE PUSH2 0x6E3 DUP2 DUP5 PUSH2 0x666 JUMP JUMPDEST SWAP1 POP SWAP3 SWAP2 POP POP JUMP JUMPDEST PUSH2 0x6F4 DUP2 PUSH2 0x632 JUMP JUMPDEST DUP2 EQ PUSH2 0x6FF JUMPI PUSH1 0x0 DUP1 REVERT JUMPDEST POP JUMP JUMPDEST PUSH1 0x0 DUP2 CALLDATALOAD SWAP1 POP PUSH2 0x711 DUP2 PUSH2 0x6EB JUMP JUMPDEST SWAP3 SWAP2 POP POP JUMP JUMPDEST PUSH1 0x0 DUP1 PUSH1 0x0 PUSH1 0x60 DUP5 DUP7 SUB SLT ISZERO PUSH2 0x730 JUMPI PUSH2 0x72F PUSH2 0x41A JUMP JUMPDEST JUMPDEST PUSH1 0x0 DUP5 ADD CALLDATALOAD PUSH8 0xFFFFFFFFFFFFFFFF DUP2 GT ISZERO PUSH2 0x74E JUMPI PUSH2 0x74D PUSH2 0x41F JUMP JUMPDEST JUMPDEST PUSH2 0x75A DUP7 DUP3 DUP8 ADD PUSH2 0x53C JUMP JUMPDEST SWAP4 POP POP PUSH1 0x20 PUSH2 0x76B DUP7 DUP3 DUP8 ADD PUSH2 0x702 JUMP JUMPDEST SWAP3 POP POP PUSH1 0x40 PUSH2 0x77C DUP7 DUP3 DUP8 ADD PUSH2 0x702 JUMP JUMPDEST SWAP2 POP POP SWAP3 POP SWAP3 POP SWAP3 JUMP JUMPDEST PUSH1 0x0 DUP2 SWAP1 POP SWAP3 SWAP2 POP POP JUMP JUMPDEST PUSH1 0x0 PUSH2 0x79C DUP3 PUSH2 0x5B3 JUMP JUMPDEST PUSH2 0x7A6 DUP2 DUP6 PUSH2 0x786 JUMP JUMPDEST SWAP4 POP PUSH2 0x7B6 DUP2 DUP6 PUSH1 0x20 DUP7 ADD PUSH2 0x5CF JUMP JUMPDEST DUP1 DUP5 ADD SWAP2 POP POP SWAP3 SWAP2 POP POP JUMP JUMPDEST PUSH1 0x0 PUSH2 0x7CE DUP3 DUP5 PUSH2 0x791 JUMP JUMPDEST SWAP2 POP DUP2 SWAP1 POP SWAP3 SWAP2 POP POP JUMP JUMPDEST PUSH32 0x4E487B7100000000000000000000000000000000000000000000000000000000 PUSH1 0x0 MSTORE PUSH1 0x22 PUSH1 0x4 MSTORE PUSH1 0x24 PUSH1 0x0 REVERT JUMPDEST PUSH1 0x0 PUSH1 0x2 DUP3 DIV SWAP1 POP PUSH1 0x1 DUP3 AND DUP1 PUSH2 0x820 JUMPI PUSH1 0x7F DUP3 AND SWAP2 POP JUMPDEST PUSH1 0x20 DUP3 LT DUP2 SUB PUSH2 0x833 JUMPI PUSH2 0x832 PUSH2 0x7D9 JUMP JUMPDEST JUMPDEST POP SWAP2 SWAP1 POP JUMP JUMPDEST PUSH1 0x0 DUP2 SWAP1 POP SWAP3 SWAP2 POP POP JUMP JUMPDEST PUSH1 0x0 DUP2 SWAP1 POP DUP2 PUSH1 0x0 MSTORE PUSH1 0x20 PUSH1 0x0 KECCAK256 SWAP1 POP SWAP2 SWAP1 POP JUMP JUMPDEST PUSH1 0x0 DUP2 SLOAD PUSH2 0x866 DUP2 PUSH2 0x808 JUMP JUMPDEST PUSH2 0x870 DUP2 DUP7 PUSH2 0x839 JUMP JUMPDEST SWAP5 POP PUSH1 0x1 DUP3 AND PUSH1 0x0 DUP2 EQ PUSH2 0x88B JUMPI PUSH1 0x1 DUP2 EQ PUSH2 0x8A0 JUMPI PUSH2 0x8D3 JUMP JUMPDEST PUSH1 0xFF NOT DUP4 AND DUP7 MSTORE DUP2 ISZERO ISZERO DUP3 MUL DUP7 ADD SWAP4 POP PUSH2 0x8D3 JUMP JUMPDEST PUSH2 0x8A9 DUP6 PUSH2 0x844 JUMP JUMPDEST PUSH1 0x0 JUMPDEST DUP4 DUP2 LT ISZERO PUSH2 0x8CB JUMPI DUP2 SLOAD DUP2 DUP10 ADD MSTORE PUSH1 0x1 DUP3 ADD SWAP2 POP PUSH1 0x20 DUP2 ADD SWAP1 POP PUSH2 0x8AC JUMP JUMPDEST DUP4 DUP9 ADD SWAP6 POP POP POP JUMPDEST POP POP POP SWAP3 SWAP2 POP POP JUMP JUMPDEST PUSH1 0x0 PUSH2 0x8E8 DUP3 DUP5 PUSH2 0x859 JUMP JUMPDEST SWAP2 POP DUP2 SWAP1 POP SWAP3 SWAP2 POP POP JUMP JUMPDEST PUSH1 0x0 DUP2 SWAP1 POP DUP2 PUSH1 0x0 MSTORE PUSH1 0x20 PUSH1 0x0 KECCAK256 SWAP1 POP SWAP2 SWAP1 POP JUMP JUMPDEST PUSH1 0x0 PUSH1 0x20 PUSH1 0x1F DUP4 ADD DIV SWAP1 POP SWAP2 SWAP1 POP JUMP JUMPDEST PUSH1 0x0 DUP3 DUP3 SHL SWAP1 POP SWAP3 SWAP2 POP POP JUMP JUMPDEST PUSH1 0x0 PUSH1 0x8 DUP4 MUL PUSH2 0x955 PUSH32 0xFFFFFFFFFFFFFFFFFFFFFFFFFFFFFFFFFFFFFFFFFFFFFFFFFFFFFFFFFFFFFFFF DUP3 PUSH2 0x918 JUMP JUMPDEST PUSH2 0x95F DUP7 DUP4 PUSH2 0x918 JUMP JUMPDEST SWAP6 POP DUP1 NOT DUP5 AND SWAP4 POP DUP1 DUP7 AND DUP5 OR SWAP3 POP POP POP SWAP4 SWAP3 POP POP POP JUMP JUMPDEST PUSH1 0x0 DUP2 SWAP1 POP SWAP2 SWAP1 POP JUMP JUMPDEST PUSH1 0x0 PUSH2 0x99C PUSH2 0x997 PUSH2 0x992 DUP5 PUSH2 0x632 JUMP JUMPDEST PUSH2 0x977 JUMP JUMPDEST PUSH2 0x632 JUMP JUMPDEST SWAP1 POP SWAP2 SWAP1 POP JUMP JUMPDEST PUSH1 0x0 DUP2 SWAP1 POP SWAP2 SWAP1 POP JUMP JUMPDEST PUSH2 0x9B6 DUP4 PUSH2 0x981 JUMP JUMPDEST PUSH2 0x9CA PUSH2 0x9C2 DUP3 PUSH2 0x9A3 JUMP JUMPDEST DUP5 DUP5 SLOAD PUSH2 0x925 JUMP JUMPDEST DUP3 SSTORE POP POP POP POP JUMP JUMPDEST PUSH1 0x0 SWAP1 JUMP JUMPDEST PUSH2 0x9DF PUSH2 0x9D2 JUMP JUMPDEST PUSH2 0x9EA DUP2 DUP5 DUP5 PUSH2 0x9AD JUMP JUMPDEST POP POP POP JUMP JUMPDEST JUMPDEST DUP2 DUP2 LT ISZERO PUSH2 0xA0E JUMPI PUSH2 0xA03 PUSH1 0x0 DUP3 PUSH2 0x9D7 JUMP JUMPDEST PUSH1 0x1 DUP2 ADD SWAP1 POP PUSH2 0x9F0 JUMP JUMPDEST POP POP JUMP JUMPDEST PUSH1 0x1F DUP3 GT ISZERO PUSH2 0xA53 JUMPI PUSH2 0xA24 DUP2 PUSH2 0x8F3 JUMP JUMPDEST PUSH2 0xA2D DUP5 PUSH2 0x908 JUMP JUMPDEST DUP2 ADD PUSH1 0x20 DUP6 LT ISZERO PUSH2 0xA3C JUMPI DUP2 SWAP1 POP JUMPDEST PUSH2 0xA50 PUSH2 0xA48 DUP6 PUSH2 0x908 JUMP JUMPDEST DUP4 ADD DUP3 PUSH2 0x9EF JUMP JUMPDEST POP POP JUMPDEST POP POP POP JUMP JUMPDEST PUSH1 0x0 DUP3 DUP3 SHR SWAP1 POP SWAP3 SWAP2 POP POP JUMP JUMPDEST PUSH1 0x0 PUSH2 0xA76 PUSH1 0x0 NOT DUP5 PUSH1 0x8 MUL PUSH2 0xA58 JUMP JUMPDEST NOT DUP1 DUP4 AND SWAP2 POP POP SWAP3 SWAP2 POP POP JUMP JUMPDEST PUSH1 0x0 PUSH2 0xA8F DUP4 DUP4 PUSH2 0xA65 JUMP JUMPDEST SWAP2 POP DUP3 PUSH1 0x2 MUL DUP3 OR SWAP1 POP SWAP3 SWAP2 POP POP JUMP JUMPDEST PUSH2 0xAA8 DUP3 PUSH2 0x5B3 JUMP JUMPDEST PUSH8 0xFFFFFFFFFFFFFFFF DUP2 GT ISZERO PUSH2 0xAC1 JUMPI PUSH2 0xAC0 PUSH2 0x43F JUMP JUMPDEST JUMPDEST PUSH2 0xACB DUP3 SLOAD PUSH2 0x808 JUMP JUMPDEST PUSH2 0xAD6 DUP3 DUP3 DUP6 PUSH2 0xA12 JUMP JUMPDEST PUSH1 0x0 PUSH1 0x20 SWAP1 POP PUSH1 0x1F DUP4 GT PUSH1 0x1 DUP2 EQ PUSH2 0xB09 JUMPI PUSH1 0x0 DUP5 ISZERO PUSH2 0xAF7 JUMPI DUP3 DUP8 ADD MLOAD SWAP1 POP JUMPDEST PUSH2 0xB01 DUP6 DUP3 PUSH2 0xA83 JUMP JUMPDEST DUP7 SSTORE POP PUSH2 0xB69 JUMP JUMPDEST PUSH1 0x1F NOT DUP5 AND PUSH2 0xB17 DUP7 PUSH2 0x8F3 JUMP JUMPDEST PUSH1 0x0 JUMPDEST DUP3 DUP2 LT ISZERO PUSH2 0xB3F JUMPI DUP5 DUP10 ADD MLOAD DUP3 SSTORE PUSH1 0x1 DUP3 ADD SWAP2 POP PUSH1 0x20 DUP6 ADD SWAP5 POP PUSH1 0x20 DUP2 ADD SWAP1 POP PUSH2 0xB1A JUMP JUMPDEST DUP7 DUP4 LT ISZERO PUSH2 0xB5C JUMPI DUP5 DUP10 ADD MLOAD PUSH2 0xB58 PUSH1 0x1F DUP10 AND DUP3 PUSH2 0xA65 JUMP JUMPDEST DUP4 SSTORE POP JUMPDEST PUSH1 0x1 PUSH1 0x2 DUP9 MUL ADD DUP9 SSTORE POP POP POP JUMPDEST POP POP POP POP POP POP JUMP INVALID LOG2 PUSH5 0x6970667358 0x22 SLT KECCAK256 0x4C ADD 0xC5 PREVRANDAO DUP12 PUSH10 0x3A6A45FE9A382031F7DE DIV 0xCD PUSH22 0x6DF427DB2020F60693721ABB1F64736F6C6343000812 STOP CALLER "
				},
				"gasEstimates": {
					"creation": {
						"codeDepositCost": "596600",
						"executionCost": "632",
						"totalCost": "597232"
					},
					"external": {
						"cancelReservation(string)": "infinite",
						"getReservation(string)": "infinite",
						"makeReservation(string,uint256,uint256)": "infinite"
					}
				},
				"methodIdentifiers": {
					"cancelReservation(string)": "99e4b8e1",
					"getReservation(string)": "80bd0fe2",
					"makeReservation(string,uint256,uint256)": "b0236517"
				}
			},
			"storageLayout": {
				"storage": [
					{
						"astId": 93,
						"contract": "contracts/230524/babylion.sol:Q2",
						"label": "Guest",
						"offset": 0,
						"slot": "0",
						"type": "t_mapping(t_string_memory_ptr,t_struct(guest)88_storage)"
					}
				],
				"types": {
					"t_bool": {
						"encoding": "inplace",
						"label": "bool",
						"numberOfBytes": "1"
					},
					"t_mapping(t_string_memory_ptr,t_struct(guest)88_storage)": {
						"encoding": "mapping",
						"key": "t_string_memory_ptr",
						"label": "mapping(string => struct Q2.guest)",
						"numberOfBytes": "32",
						"value": "t_struct(guest)88_storage"
					},
					"t_string_memory_ptr": {
						"encoding": "bytes",
						"label": "string",
						"numberOfBytes": "32"
					},
					"t_string_storage": {
						"encoding": "bytes",
						"label": "string",
						"numberOfBytes": "32"
					},
					"t_struct(guest)88_storage": {
						"encoding": "inplace",
						"label": "struct Q2.guest",
						"members": [
							{
								"astId": 81,
								"contract": "contracts/230524/babylion.sol:Q2",
								"label": "name",
								"offset": 0,
								"slot": "0",
								"type": "t_string_storage"
							},
							{
								"astId": 83,
								"contract": "contracts/230524/babylion.sol:Q2",
								"label": "roomNumber",
								"offset": 0,
								"slot": "1",
								"type": "t_uint256"
							},
							{
								"astId": 85,
								"contract": "contracts/230524/babylion.sol:Q2",
								"label": "peopleNumber",
								"offset": 0,
								"slot": "2",
								"type": "t_uint256"
							},
							{
								"astId": 87,
								"contract": "contracts/230524/babylion.sol:Q2",
								"label": "isReserved",
								"offset": 0,
								"slot": "3",
								"type": "t_bool"
							}
						],
						"numberOfBytes": "128"
					},
					"t_uint256": {
						"encoding": "inplace",
						"label": "uint256",
						"numberOfBytes": "32"
					}
				}
			},
			"userdoc": {
				"kind": "user",
				"methods": {},
				"version": 1
			}
		}
	}
}